2023-12-01 14:24:57.655 [1] [Fixsender] (INFO) (c) 2001-2011 ullink SAS. FixSender. Release 1.11.
2023-12-01 14:25:24.111 [30] [FixSender] (INFO) try to connect to : localhost port :12345
2023-12-01 14:25:24.137 [30] [FixSender] (WARNING) connection has failed :com.ullink.ulfix.TransportException: Connection refused: connect
2023-12-01 14:25:24.137 [30] [FixSender] (WARNING) Disconnected
2023-12-01 14:25:29.157 [31] [FixSender] (INFO) try to connect to : localhost port :12345
2023-12-01 14:25:29.158 [31] [FixSender] (WARNING) connection has failed :com.ullink.ulfix.TransportException: Connection refused: connect
2023-12-01 14:25:29.158 [31] [FixSender] (WARNING) Disconnected
2023-12-01 14:25:31.458 [33] [FixSender] (INFO) try to connect to : localhost port :12345
2023-12-01 14:25:31.459 [33] [FixSender] (WARNING) connection has failed :com.ullink.ulfix.TransportException: Connection refused: connect
2023-12-01 14:25:31.459 [33] [FixSender] (WARNING) Disconnected
2023-12-01 14:25:32.484 [34] [FixSender] (INFO) try to connect to : localhost port :12345
2023-12-01 14:25:32.485 [34] [FixSender] (WARNING) connection has failed :com.ullink.ulfix.TransportException: Connection refused: connect
2023-12-01 14:25:32.485 [34] [FixSender] (WARNING) Disconnected
2023-12-01 14:25:37.370 [35] [FixSender] (INFO) try to connect to : localhost port :12345
2023-12-01 14:25:37.370 [35] [FixSender] (WARNING) connection has failed :com.ullink.ulfix.TransportException: Connection refused: connect
2023-12-01 14:25:37.370 [35] [FixSender] (WARNING) Disconnected
2023-12-01 14:25:38.307 [36] [FixSender] (INFO) try to connect to : localhost port :12345
2023-12-01 14:25:38.307 [36] [FixSender] (WARNING) connection has failed :com.ullink.ulfix.TransportException: Connection refused: connect
2023-12-01 14:25:38.307 [36] [FixSender] (WARNING) Disconnected
2023-12-01 14:25:38.532 [37] [FixSender] (INFO) try to connect to : localhost port :12345
2023-12-01 14:25:38.532 [37] [FixSender] (WARNING) connection has failed :com.ullink.ulfix.TransportException: Connection refused: connect
2023-12-01 14:25:38.532 [37] [FixSender] (WARNING) Disconnected
2023-12-01 14:26:13.689 [1] [Fixsender] (INFO) (c) 2001-2011 ullink SAS. FixSender. Release 1.11.
2023-12-01 14:26:16.960 [29] [FixSender] (INFO) try to connect to : localhost port :12345
2023-12-01 14:26:16.984 [29] [FixSender] (INFO) physical cnx initiated
2023-12-01 14:26:17.006 [29] [FixSender] (DEBUG) Sending 8=FIX.4.4|9=86|35=A|49=FIXCLIENT1|56=DMA_HUB|34=1|52=20231201-13:26:17|98=0|108=30|95=9|96=null/null|10=083|
2023-12-01 14:26:17.015 [29] [FixSender] (DEBUG) Receiving 8=FIX.4.4|9=72|35=A|34=1|49=DMA_HUB|56=FIXCLIENT1|52=20231201-13:26:17.010|108=30|98=0|10=214|
2023-12-01 14:26:17.015 [29] [FixSender] (WARNING) The Fix connection is open...
2023-12-01 14:26:17.021 [29] [FixSender] (DEBUG) Sending 8=FIX.4.4|9=74|35=1|49=FIXCLIENT1|56=DMA_HUB|34=2|52=20231201-13:26:17|112=synchronized?|10=034|
2023-12-01 14:26:17.021 [29] [FixSender] (DEBUG) Receiving 8=FIX.4.4|9=78|35=0|34=2|49=DMA_HUB|56=FIXCLIENT1|52=20231201-13:26:17.021|112=synchronized?|10=230|
2023-12-01 14:26:24.522 [32] [FixSender] (DEBUG) Sending 8=FIX.4.4|9=223|35=D|49=FIXCLIENT1|56=DMA_HUB|34=3|52=20231201-13:26:24|21=3|11=HS_17014371840|38=4241|55=EDENRED|54=1|60=20231201-13:26:24|40=2|59=1|44=51.1812|48=FR0010908533|22=4|15=EUR|207=XPAR|432=20221116|109=fidameur|1=fidameur_123|10=104|
2023-12-01 14:26:24.535 [29] [FixSender] (DEBUG) Receiving 8=FIX.4.4|9=273|35=8|34=3|49=DMA_HUB|56=FIXCLIENT1|52=20231201-13:26:24.530|11=HS_17014371840|37=NONE|38=4241|151=0|14=0|17=202312011|150=8|39=8|6=0|44=51.1812|54=1|40=2|59=1|22=4|48=FR0010908533|55=EDENRED|207=XPAR|15=EUR|58=Cannot resolve instrument 22=4;48=FR0010908533;207=XPAR;15=EUR|10=228|
2023-12-01 14:26:46.976 [29] [FixSender] (DEBUG) Receiving 8=FIX.4.4|9=60|35=0|34=4|49=DMA_HUB|56=FIXCLIENT1|52=20231201-13:26:46.975|10=194|
2023-12-01 14:26:54.532 [30] [FixSender] (DEBUG) Sending 8=FIX.4.4|9=56|35=0|49=FIXCLIENT1|56=DMA_HUB|34=4|52=20231201-13:26:54|10=243|
2023-12-01 14:27:16.933 [29] [FixSender] (DEBUG) Receiving 8=FIX.4.4|9=60|35=0|34=5|49=DMA_HUB|56=FIXCLIENT1|52=20231201-13:27:16.932|10=186|
2023-12-01 14:27:24.535 [30] [FixSender] (DEBUG) Sending 8=FIX.4.4|9=56|35=0|49=FIXCLIENT1|56=DMA_HUB|34=5|52=20231201-13:27:24|10=242|
2023-12-01 14:27:46.873 [29] [FixSender] (DEBUG) Receiving 8=FIX.4.4|9=60|35=0|34=6|49=DMA_HUB|56=FIXCLIENT1|52=20231201-13:27:46.873|10=194|
2023-12-01 14:27:54.536 [30] [FixSender] (DEBUG) Sending 8=FIX.4.4|9=56|35=0|49=FIXCLIENT1|56=DMA_HUB|34=6|52=20231201-13:27:54|10=246|
2023-12-01 14:28:16.835 [29] [FixSender] (DEBUG) Receiving 8=FIX.4.4|9=60|35=0|34=7|49=DMA_HUB|56=FIXCLIENT1|52=20231201-13:28:16.835|10=191|
2023-12-01 14:28:24.547 [30] [FixSender] (DEBUG) Sending 8=FIX.4.4|9=56|35=0|49=FIXCLIENT1|56=DMA_HUB|34=7|52=20231201-13:28:24|10=245|
2023-12-01 14:28:46.789 [29] [FixSender] (DEBUG) Receiving 8=FIX.4.4|9=60|35=0|34=8|49=DMA_HUB|56=FIXCLIENT1|52=20231201-13:28:46.787|10=201|
2023-12-01 14:28:54.553 [30] [FixSender] (DEBUG) Sending 8=FIX.4.4|9=56|35=0|49=FIXCLIENT1|56=DMA_HUB|34=8|52=20231201-13:28:54|10=249|
2023-12-01 14:29:16.738 [29] [FixSender] (DEBUG) Receiving 8=FIX.4.4|9=60|35=0|34=9|49=DMA_HUB|56=FIXCLIENT1|52=20231201-13:29:16.738|10=196|
2023-12-01 14:29:24.558 [30] [FixSender] (DEBUG) Sending 8=FIX.4.4|9=56|35=0|49=FIXCLIENT1|56=DMA_HUB|34=9|52=20231201-13:29:24|10=248|
2023-12-01 14:29:46.691 [29] [FixSender] (DEBUG) Receiving 8=FIX.4.4|9=61|35=0|34=10|49=DMA_HUB|56=FIXCLIENT1|52=20231201-13:29:46.691|10=238|
2023-12-01 14:29:54.568 [30] [FixSender] (DEBUG) Sending 8=FIX.4.4|9=57|35=0|49=FIXCLIENT1|56=DMA_HUB|34=10|52=20231201-13:29:54|10=036|
2023-12-01 14:30:16.642 [29] [FixSender] (DEBUG) Receiving 8=FIX.4.4|9=61|35=0|34=11|49=DMA_HUB|56=FIXCLIENT1|52=20231201-13:30:16.642|10=224|
2023-12-01 14:30:24.570 [30] [FixSender] (DEBUG) Sending 8=FIX.4.4|9=57|35=0|49=FIXCLIENT1|56=DMA_HUB|34=11|52=20231201-13:30:24|10=026|
2023-12-01 14:30:46.594 [29] [FixSender] (DEBUG) Receiving 8=FIX.4.4|9=61|35=0|34=12|49=DMA_HUB|56=FIXCLIENT1|52=20231201-13:30:46.592|10=232|
2023-12-01 14:30:54.575 [30] [FixSender] (DEBUG) Sending 8=FIX.4.4|9=57|35=0|49=FIXCLIENT1|56=DMA_HUB|34=12|52=20231201-13:30:54|10=030|
2023-12-01 14:31:16.546 [29] [FixSender] (DEBUG) Receiving 8=FIX.4.4|9=61|35=0|34=13|49=DMA_HUB|56=FIXCLIENT1|52=20231201-13:31:16.546|10=230|
2023-12-01 14:31:24.580 [30] [FixSender] (DEBUG) Sending 8=FIX.4.4|9=57|35=0|49=FIXCLIENT1|56=DMA_HUB|34=13|52=20231201-13:31:24|10=029|
2023-12-01 14:31:46.501 [29] [FixSender] (DEBUG) Receiving 8=FIX.4.4|9=61|35=0|34=14|49=DMA_HUB|56=FIXCLIENT1|52=20231201-13:31:46.501|10=225|
2023-12-01 14:31:54.586 [30] [FixSender] (DEBUG) Sending 8=FIX.4.4|9=57|35=0|49=FIXCLIENT1|56=DMA_HUB|34=14|52=20231201-13:31:54|10=033|
2023-12-01 14:32:16.443 [29] [FixSender] (DEBUG) Receiving 8=FIX.4.4|9=61|35=0|34=15|49=DMA_HUB|56=FIXCLIENT1|52=20231201-13:32:16.443|10=229|
2023-12-01 14:32:24.590 [30] [FixSender] (DEBUG) Sending 8=FIX.4.4|9=57|35=0|49=FIXCLIENT1|56=DMA_HUB|34=15|52=20231201-13:32:24|10=032|
2023-12-01 14:32:46.398 [29] [FixSender] (DEBUG) Receiving 8=FIX.4.4|9=61|35=0|34=16|49=DMA_HUB|56=FIXCLIENT1|52=20231201-13:32:46.398|10=242|
2023-12-01 14:32:54.594 [30] [FixSender] (DEBUG) Sending 8=FIX.4.4|9=57|35=0|49=FIXCLIENT1|56=DMA_HUB|34=16|52=20231201-13:32:54|10=036|
2023-12-01 14:33:16.354 [29] [FixSender] (DEBUG) Receiving 8=FIX.4.4|9=61|35=0|34=17|49=DMA_HUB|56=FIXCLIENT1|52=20231201-13:33:16.354|10=233|
2023-12-01 14:33:24.607 [30] [FixSender] (DEBUG) Sending 8=FIX.4.4|9=57|35=0|49=FIXCLIENT1|56=DMA_HUB|34=17|52=20231201-13:33:24|10=035|
2023-12-01 14:33:46.308 [29] [FixSender] (DEBUG) Receiving 8=FIX.4.4|9=61|35=0|34=18|49=DMA_HUB|56=FIXCLIENT1|52=20231201-13:33:46.306|10=234|
2023-12-01 14:33:54.626 [30] [FixSender] (DEBUG) Sending 8=FIX.4.4|9=57|35=0|49=FIXCLIENT1|56=DMA_HUB|34=18|52=20231201-13:33:54|10=039|
2023-12-01 14:34:16.254 [29] [FixSender] (DEBUG) Receiving 8=FIX.4.4|9=61|35=0|34=19|49=DMA_HUB|56=FIXCLIENT1|52=20231201-13:34:16.253|10=234|
2023-12-01 14:34:24.636 [30] [FixSender] (DEBUG) Sending 8=FIX.4.4|9=57|35=0|49=FIXCLIENT1|56=DMA_HUB|34=19|52=20231201-13:34:24|10=038|
2023-12-01 14:34:46.203 [29] [FixSender] (DEBUG) Receiving 8=FIX.4.4|9=61|35=0|34=20|49=DMA_HUB|56=FIXCLIENT1|52=20231201-13:34:46.203|10=224|
2023-12-01 14:34:54.642 [30] [FixSender] (DEBUG) Sending 8=FIX.4.4|9=57|35=0|49=FIXCLIENT1|56=DMA_HUB|34=20|52=20231201-13:34:54|10=033|
2023-12-01 14:35:16.163 [29] [FixSender] (DEBUG) Receiving 8=FIX.4.4|9=61|35=0|34=21|49=DMA_HUB|56=FIXCLIENT1|52=20231201-13:35:16.163|10=228|
2023-12-01 14:35:24.642 [30] [FixSender] (DEBUG) Sending 8=FIX.4.4|9=57|35=0|49=FIXCLIENT1|56=DMA_HUB|34=21|52=20231201-13:35:24|10=032|
2023-12-01 14:35:46.109 [29] [FixSender] (DEBUG) Receiving 8=FIX.4.4|9=61|35=0|34=22|49=DMA_HUB|56=FIXCLIENT1|52=20231201-13:35:46.109|10=232|
2023-12-01 14:35:54.650 [30] [FixSender] (DEBUG) Sending 8=FIX.4.4|9=57|35=0|49=FIXCLIENT1|56=DMA_HUB|34=22|52=20231201-13:35:54|10=036|
2023-12-01 14:36:16.057 [29] [FixSender] (DEBUG) Receiving 8=FIX.4.4|9=61|35=0|34=23|49=DMA_HUB|56=FIXCLIENT1|52=20231201-13:36:16.057|10=233|
2023-12-01 14:36:24.659 [30] [FixSender] (DEBUG) Sending 8=FIX.4.4|9=57|35=0|49=FIXCLIENT1|56=DMA_HUB|34=23|52=20231201-13:36:24|10=035|
2023-12-01 14:36:46.018 [29] [FixSender] (DEBUG) Receiving 8=FIX.4.4|9=61|35=0|34=24|49=DMA_HUB|56=FIXCLIENT1|52=20231201-13:36:46.018|10=234|
2023-12-01 14:36:54.669 [30] [FixSender] (DEBUG) Sending 8=FIX.4.4|9=57|35=0|49=FIXCLIENT1|56=DMA_HUB|34=24|52=20231201-13:36:54|10=039|
2023-12-01 14:37:15.973 [29] [FixSender] (DEBUG) Receiving 8=FIX.4.4|9=61|35=0|34=25|49=DMA_HUB|56=FIXCLIENT1|52=20231201-13:37:15.973|10=242|
2023-12-01 14:37:24.681 [30] [FixSender] (DEBUG) Sending 8=FIX.4.4|9=57|35=0|49=FIXCLIENT1|56=DMA_HUB|34=25|52=20231201-13:37:24|10=038|
2023-12-01 14:37:45.912 [29] [FixSender] (DEBUG) Receiving 8=FIX.4.4|9=61|35=0|34=26|49=DMA_HUB|56=FIXCLIENT1|52=20231201-13:37:45.912|10=239|
2023-12-01 14:37:54.686 [30] [FixSender] (DEBUG) Sending 8=FIX.4.4|9=57|35=0|49=FIXCLIENT1|56=DMA_HUB|34=26|52=20231201-13:37:54|10=042|
2023-12-01 14:38:15.867 [29] [FixSender] (DEBUG) Receiving 8=FIX.4.4|9=61|35=0|34=27|49=DMA_HUB|56=FIXCLIENT1|52=20231201-13:38:15.867|10=247|
2023-12-01 14:38:24.695 [30] [FixSender] (DEBUG) Sending 8=FIX.4.4|9=57|35=0|49=FIXCLIENT1|56=DMA_HUB|34=27|52=20231201-13:38:24|10=041|
2023-12-01 14:38:45.830 [29] [FixSender] (DEBUG) Receiving 8=FIX.4.4|9=61|35=0|34=28|49=DMA_HUB|56=FIXCLIENT1|52=20231201-13:38:45.830|10=241|
2023-12-01 14:38:54.706 [30] [FixSender] (DEBUG) Sending 8=FIX.4.4|9=57|35=0|49=FIXCLIENT1|56=DMA_HUB|34=28|52=20231201-13:38:54|10=045|
2023-12-01 14:39:15.774 [29] [FixSender] (DEBUG) Receiving 8=FIX.4.4|9=61|35=0|34=29|49=DMA_HUB|56=FIXCLIENT1|52=20231201-13:39:15.774|10=247|
2023-12-01 14:39:24.722 [30] [FixSender] (DEBUG) Sending 8=FIX.4.4|9=57|35=0|49=FIXCLIENT1|56=DMA_HUB|34=29|52=20231201-13:39:24|10=044|
2023-12-01 14:39:45.727 [29] [FixSender] (DEBUG) Receiving 8=FIX.4.4|9=61|35=0|34=30|49=DMA_HUB|56=FIXCLIENT1|52=20231201-13:39:45.727|10=240|
2023-12-01 14:39:54.732 [30] [FixSender] (DEBUG) Sending 8=FIX.4.4|9=57|35=0|49=FIXCLIENT1|56=DMA_HUB|34=30|52=20231201-13:39:54|10=039|
2023-12-01 14:40:15.676 [29] [FixSender] (DEBUG) Receiving 8=FIX.4.4|9=61|35=0|34=31|49=DMA_HUB|56=FIXCLIENT1|52=20231201-13:40:15.676|10=233|
2023-12-01 14:40:24.748 [30] [FixSender] (DEBUG) Sending 8=FIX.4.4|9=57|35=0|49=FIXCLIENT1|56=DMA_HUB|34=31|52=20231201-13:40:24|10=029|
2023-12-01 14:40:45.624 [29] [FixSender] (DEBUG) Receiving 8=FIX.4.4|9=61|35=0|34=32|49=DMA_HUB|56=FIXCLIENT1|52=20231201-13:40:45.624|10=230|
2023-12-01 14:40:54.755 [30] [FixSender] (DEBUG) Sending 8=FIX.4.4|9=57|35=0|49=FIXCLIENT1|56=DMA_HUB|34=32|52=20231201-13:40:54|10=033|
2023-12-01 14:41:15.580 [29] [FixSender] (DEBUG) Receiving 8=FIX.4.4|9=61|35=0|34=33|49=DMA_HUB|56=FIXCLIENT1|52=20231201-13:41:15.580|10=230|
2023-12-01 14:41:24.771 [30] [FixSender] (DEBUG) Sending 8=FIX.4.4|9=57|35=0|49=FIXCLIENT1|56=DMA_HUB|34=33|52=20231201-13:41:24|10=032|
2023-12-01 14:41:45.531 [29] [FixSender] (DEBUG) Receiving 8=FIX.4.4|9=61|35=0|34=34|49=DMA_HUB|56=FIXCLIENT1|52=20231201-13:41:45.530|10=229|
2023-12-01 14:41:54.777 [30] [FixSender] (DEBUG) Sending 8=FIX.4.4|9=57|35=0|49=FIXCLIENT1|56=DMA_HUB|34=34|52=20231201-13:41:54|10=036|
2023-12-01 14:42:15.497 [29] [FixSender] (DEBUG) Receiving 8=FIX.4.4|9=61|35=0|34=35|49=DMA_HUB|56=FIXCLIENT1|52=20231201-13:42:15.495|10=238|
2023-12-01 14:42:24.785 [30] [FixSender] (DEBUG) Sending 8=FIX.4.4|9=57|35=0|49=FIXCLIENT1|56=DMA_HUB|34=35|52=20231201-13:42:24|10=035|
2023-12-01 14:42:45.504 [29] [FixSender] (DEBUG) Receiving 8=FIX.4.4|9=61|35=0|34=36|49=DMA_HUB|56=FIXCLIENT1|52=20231201-13:42:45.504|10=233|
2023-12-01 14:42:54.799 [30] [FixSender] (DEBUG) Sending 8=FIX.4.4|9=57|35=0|49=FIXCLIENT1|56=DMA_HUB|34=36|52=20231201-13:42:54|10=039|
2023-12-01 14:43:15.448 [29] [FixSender] (DEBUG) Receiving 8=FIX.4.4|9=61|35=0|34=37|49=DMA_HUB|56=FIXCLIENT1|52=20231201-13:43:15.448|10=239|
2023-12-01 14:43:24.804 [30] [FixSender] (DEBUG) Sending 8=FIX.4.4|9=57|35=0|49=FIXCLIENT1|56=DMA_HUB|34=37|52=20231201-13:43:24|10=038|
2023-12-01 14:43:45.402 [29] [FixSender] (DEBUG) Receiving 8=FIX.4.4|9=61|35=0|34=38|49=DMA_HUB|56=FIXCLIENT1|52=20231201-13:43:45.402|10=233|
2023-12-01 14:43:54.807 [30] [FixSender] (DEBUG) Sending 8=FIX.4.4|9=57|35=0|49=FIXCLIENT1|56=DMA_HUB|34=38|52=20231201-13:43:54|10=042|
2023-12-01 14:44:15.355 [29] [FixSender] (DEBUG) Receiving 8=FIX.4.4|9=61|35=0|34=39|49=DMA_HUB|56=FIXCLIENT1|52=20231201-13:44:15.355|10=239|
2023-12-01 14:44:24.810 [30] [FixSender] (DEBUG) Sending 8=FIX.4.4|9=57|35=0|49=FIXCLIENT1|56=DMA_HUB|34=39|52=20231201-13:44:24|10=041|
2023-12-01 14:44:45.314 [29] [FixSender] (DEBUG) Receiving 8=FIX.4.4|9=61|35=0|34=40|49=DMA_HUB|56=FIXCLIENT1|52=20231201-13:44:45.314|10=229|
2023-12-01 14:44:54.821 [30] [FixSender] (DEBUG) Sending 8=FIX.4.4|9=57|35=0|49=FIXCLIENT1|56=DMA_HUB|34=40|52=20231201-13:44:54|10=036|
2023-12-01 14:45:15.260 [29] [FixSender] (DEBUG) Receiving 8=FIX.4.4|9=61|35=0|34=41|49=DMA_HUB|56=FIXCLIENT1|52=20231201-13:45:15.260|10=228|
2023-12-01 14:45:24.828 [30] [FixSender] (DEBUG) Sending 8=FIX.4.4|9=57|35=0|49=FIXCLIENT1|56=DMA_HUB|34=41|52=20231201-13:45:24|10=035|
2023-12-01 14:45:45.223 [29] [FixSender] (DEBUG) Receiving 8=FIX.4.4|9=61|35=0|34=42|49=DMA_HUB|56=FIXCLIENT1|52=20231201-13:45:45.223|10=231|
2023-12-01 14:45:54.843 [30] [FixSender] (DEBUG) Sending 8=FIX.4.4|9=57|35=0|49=FIXCLIENT1|56=DMA_HUB|34=42|52=20231201-13:45:54|10=039|
2023-12-01 14:46:15.224 [29] [FixSender] (DEBUG) Receiving 8=FIX.4.4|9=61|35=0|34=43|49=DMA_HUB|56=FIXCLIENT1|52=20231201-13:46:15.224|10=231|
2023-12-01 14:46:24.851 [30] [FixSender] (DEBUG) Sending 8=FIX.4.4|9=57|35=0|49=FIXCLIENT1|56=DMA_HUB|34=43|52=20231201-13:46:24|10=038|
2023-12-01 14:46:45.189 [29] [FixSender] (DEBUG) Receiving 8=FIX.4.4|9=61|35=0|34=44|49=DMA_HUB|56=FIXCLIENT1|52=20231201-13:46:45.189|10=245|
2023-12-01 14:46:54.860 [30] [FixSender] (DEBUG) Sending 8=FIX.4.4|9=57|35=0|49=FIXCLIENT1|56=DMA_HUB|34=44|52=20231201-13:46:54|10=042|
2023-12-01 14:47:15.136 [29] [FixSender] (DEBUG) Receiving 8=FIX.4.4|9=61|35=0|34=45|49=DMA_HUB|56=FIXCLIENT1|52=20231201-13:47:15.136|10=236|
2023-12-01 14:47:24.862 [30] [FixSender] (DEBUG) Sending 8=FIX.4.4|9=57|35=0|49=FIXCLIENT1|56=DMA_HUB|34=45|52=20231201-13:47:24|10=041|
2023-12-01 14:47:45.086 [29] [FixSender] (DEBUG) Receiving 8=FIX.4.4|9=61|35=0|34=46|49=DMA_HUB|56=FIXCLIENT1|52=20231201-13:47:45.086|10=244|
2023-12-01 14:47:54.872 [30] [FixSender] (DEBUG) Sending 8=FIX.4.4|9=57|35=0|49=FIXCLIENT1|56=DMA_HUB|34=46|52=20231201-13:47:54|10=045|
2023-12-01 14:48:15.042 [29] [FixSender] (DEBUG) Receiving 8=FIX.4.4|9=61|35=0|34=47|49=DMA_HUB|56=FIXCLIENT1|52=20231201-13:48:15.042|10=235|
2023-12-01 14:48:24.879 [30] [FixSender] (DEBUG) Sending 8=FIX.4.4|9=57|35=0|49=FIXCLIENT1|56=DMA_HUB|34=47|52=20231201-13:48:24|10=044|
2023-12-01 14:48:44.990 [29] [FixSender] (DEBUG) Receiving 8=FIX.4.4|9=61|35=0|34=48|49=DMA_HUB|56=FIXCLIENT1|52=20231201-13:48:44.986|10=255|
2023-12-01 14:48:54.890 [30] [FixSender] (DEBUG) Sending 8=FIX.4.4|9=57|35=0|49=FIXCLIENT1|56=DMA_HUB|34=48|52=20231201-13:48:54|10=048|
2023-12-01 14:49:14.943 [29] [FixSender] (DEBUG) Receiving 8=FIX.4.4|9=61|35=0|34=49|49=DMA_HUB|56=FIXCLIENT1|52=20231201-13:49:14.943|10=247|
2023-12-01 14:49:24.904 [30] [FixSender] (DEBUG) Sending 8=FIX.4.4|9=57|35=0|49=FIXCLIENT1|56=DMA_HUB|34=49|52=20231201-13:49:24|10=047|
2023-12-01 14:49:44.899 [29] [FixSender] (DEBUG) Receiving 8=FIX.4.4|9=61|35=0|34=50|49=DMA_HUB|56=FIXCLIENT1|52=20231201-13:49:44.899|10=252|
2023-12-01 14:49:54.910 [30] [FixSender] (DEBUG) Sending 8=FIX.4.4|9=57|35=0|49=FIXCLIENT1|56=DMA_HUB|34=50|52=20231201-13:49:54|10=042|
2023-12-01 14:50:14.848 [29] [FixSender] (DEBUG) Receiving 8=FIX.4.4|9=61|35=0|34=51|49=DMA_HUB|56=FIXCLIENT1|52=20231201-13:50:14.848|10=236|
2023-12-01 14:50:24.921 [30] [FixSender] (DEBUG) Sending 8=FIX.4.4|9=57|35=0|49=FIXCLIENT1|56=DMA_HUB|34=51|52=20231201-13:50:24|10=032|
2023-12-01 14:50:44.796 [29] [FixSender] (DEBUG) Receiving 8=FIX.4.4|9=61|35=0|34=52|49=DMA_HUB|56=FIXCLIENT1|52=20231201-13:50:44.792|10=238|
2023-12-01 14:50:54.930 [30] [FixSender] (DEBUG) Sending 8=FIX.4.4|9=57|35=0|49=FIXCLIENT1|56=DMA_HUB|34=52|52=20231201-13:50:54|10=036|
2023-12-01 14:50:55.703 [33] [FixSender] (DEBUG) Sending 8=FIX.4.4|9=219|35=D|49=FIXCLIENT1|56=DMA_HUB|34=53|52=20231201-13:50:55|21=1|11=HS_17014386551|38=3559|55=AIR LIQUIDE|54=1|60=20231201-13:50:55|40=2|59=1|44=143.08|48=FR0000120073|22=4|15=EUR|207=XPAR|432=20221116|1=bram_123|109=bram|10=044|
2023-12-01 14:50:55.705 [29] [FixSender] (DEBUG) Receiving 8=FIX.4.4|9=277|35=8|34=53|49=DMA_HUB|56=FIXCLIENT1|52=20231201-13:50:55.704|11=HS_17014386551|37=NONE|38=3559|151=0|14=0|17=202312012|150=8|39=8|6=0|44=143.08|54=1|40=2|59=1|22=4|48=FR0000120073|55=AIR LIQUIDE|207=XPAR|15=EUR|58=Cannot resolve instrument 22=4;48=FR0000120073;207=XPAR;15=EUR|10=242|
2023-12-01 14:51:00.332 [34] [FixSender] (DEBUG) Sending 8=FIX.4.4|9=204|35=D|49=FIXCLIENT1|56=DMA_HUB|34=54|52=20231201-13:51:00|21=3|11=HS_17014386602|38=2|55=ORANGE|54=1|60=20231201-13:51:00|40=2|59=0|44=50|48=FR0000133308|22=4|15=EUR|207=XPAR|58=Urgent|109=bram|1=bram_123|10=024|
2023-12-01 14:51:00.335 [29] [FixSender] (DEBUG) Receiving 8=FIX.4.4|9=265|35=8|34=54|49=DMA_HUB|56=FIXCLIENT1|52=20231201-13:51:00.334|11=HS_17014386602|37=NONE|38=2|151=0|14=0|17=202312013|150=8|39=8|6=0|44=50|54=1|40=2|59=0|22=4|48=FR0000133308|55=ORANGE|207=XPAR|15=EUR|58=Cannot resolve instrument 22=4;48=FR0000133308;207=XPAR;15=EUR|10=051|
2023-12-01 14:51:14.744 [29] [FixSender] (DEBUG) Receiving 8=FIX.4.4|9=61|35=0|34=55|49=DMA_HUB|56=FIXCLIENT1|52=20231201-13:51:14.744|10=236|
2023-12-01 14:51:30.334 [30] [FixSender] (DEBUG) Sending 8=FIX.4.4|9=57|35=0|49=FIXCLIENT1|56=DMA_HUB|34=55|52=20231201-13:51:30|10=034|
2023-12-01 14:51:44.711 [29] [FixSender] (DEBUG) Receiving 8=FIX.4.4|9=61|35=0|34=56|49=DMA_HUB|56=FIXCLIENT1|52=20231201-13:51:44.710|10=233|
2023-12-01 14:52:00.338 [30] [FixSender] (DEBUG) Sending 8=FIX.4.4|9=57|35=0|49=FIXCLIENT1|56=DMA_HUB|34=56|52=20231201-13:52:00|10=033|
2023-12-01 14:52:14.656 [29] [FixSender] (DEBUG) Receiving 8=FIX.4.4|9=61|35=0|34=57|49=DMA_HUB|56=FIXCLIENT1|52=20231201-13:52:14.655|10=240|
2023-12-01 14:52:30.340 [30] [FixSender] (DEBUG) Sending 8=FIX.4.4|9=57|35=0|49=FIXCLIENT1|56=DMA_HUB|34=57|52=20231201-13:52:30|10=037|
2023-12-01 14:52:44.613 [29] [FixSender] (DEBUG) Receiving 8=FIX.4.4|9=61|35=0|34=58|49=DMA_HUB|56=FIXCLIENT1|52=20231201-13:52:44.612|10=237|
2023-12-01 14:53:00.359 [30] [FixSender] (DEBUG) Sending 8=FIX.4.4|9=57|35=0|49=FIXCLIENT1|56=DMA_HUB|34=58|52=20231201-13:53:00|10=036|
2023-12-01 14:53:14.562 [29] [FixSender] (DEBUG) Receiving 8=FIX.4.4|9=61|35=0|34=59|49=DMA_HUB|56=FIXCLIENT1|52=20231201-13:53:14.561|10=239|
2023-12-01 14:53:30.363 [30] [FixSender] (DEBUG) Sending 8=FIX.4.4|9=57|35=0|49=FIXCLIENT1|56=DMA_HUB|34=59|52=20231201-13:53:30|10=040|
2023-12-01 14:53:44.513 [29] [FixSender] (DEBUG) Receiving 8=FIX.4.4|9=61|35=0|34=60|49=DMA_HUB|56=FIXCLIENT1|52=20231201-13:53:44.513|10=231|
2023-12-01 14:54:00.368 [30] [FixSender] (DEBUG) Sending 8=FIX.4.4|9=57|35=0|49=FIXCLIENT1|56=DMA_HUB|34=60|52=20231201-13:54:00|10=030|
2023-12-01 14:54:14.459 [29] [FixSender] (DEBUG) Receiving 8=FIX.4.4|9=61|35=0|34=61|49=DMA_HUB|56=FIXCLIENT1|52=20231201-13:54:14.459|10=239|
2023-12-01 14:54:30.373 [30] [FixSender] (DEBUG) Sending 8=FIX.4.4|9=57|35=0|49=FIXCLIENT1|56=DMA_HUB|34=61|52=20231201-13:54:30|10=034|
2023-12-01 14:54:44.414 [29] [FixSender] (DEBUG) Receiving 8=FIX.4.4|9=61|35=0|34=62|49=DMA_HUB|56=FIXCLIENT1|52=20231201-13:54:44.414|10=234|
2023-12-01 14:55:00.379 [30] [FixSender] (DEBUG) Sending 8=FIX.4.4|9=57|35=0|49=FIXCLIENT1|56=DMA_HUB|34=62|52=20231201-13:55:00|10=033|
2023-12-01 14:55:14.364 [29] [FixSender] (DEBUG) Receiving 8=FIX.4.4|9=61|35=0|34=63|49=DMA_HUB|56=FIXCLIENT1|52=20231201-13:55:14.364|10=237|
2023-12-01 14:55:30.389 [30] [FixSender] (DEBUG) Sending 8=FIX.4.4|9=57|35=0|49=FIXCLIENT1|56=DMA_HUB|34=63|52=20231201-13:55:30|10=037|
2023-12-01 14:55:44.313 [29] [FixSender] (DEBUG) Receiving 8=FIX.4.4|9=61|35=0|34=64|49=DMA_HUB|56=FIXCLIENT1|52=20231201-13:55:44.313|10=235|
2023-12-01 14:56:00.401 [30] [FixSender] (DEBUG) Sending 8=FIX.4.4|9=57|35=0|49=FIXCLIENT1|56=DMA_HUB|34=64|52=20231201-13:56:00|10=036|
2023-12-01 14:56:14.265 [29] [FixSender] (DEBUG) Receiving 8=FIX.4.4|9=61|35=0|34=65|49=DMA_HUB|56=FIXCLIENT1|52=20231201-13:56:14.265|10=240|
2023-12-01 14:56:30.414 [30] [FixSender] (DEBUG) Sending 8=FIX.4.4|9=57|35=0|49=FIXCLIENT1|56=DMA_HUB|34=65|52=20231201-13:56:30|10=040|
2023-12-01 14:56:44.218 [29] [FixSender] (DEBUG) Receiving 8=FIX.4.4|9=61|35=0|34=66|49=DMA_HUB|56=FIXCLIENT1|52=20231201-13:56:44.218|10=242|
2023-12-01 14:57:00.418 [30] [FixSender] (DEBUG) Sending 8=FIX.4.4|9=57|35=0|49=FIXCLIENT1|56=DMA_HUB|34=66|52=20231201-13:57:00|10=039|
2023-12-01 14:57:14.170 [29] [FixSender] (DEBUG) Receiving 8=FIX.4.4|9=61|35=0|34=67|49=DMA_HUB|56=FIXCLIENT1|52=20231201-13:57:14.170|10=238|
2023-12-01 14:57:30.425 [30] [FixSender] (DEBUG) Sending 8=FIX.4.4|9=57|35=0|49=FIXCLIENT1|56=DMA_HUB|34=67|52=20231201-13:57:30|10=043|
2023-12-01 14:57:44.128 [29] [FixSender] (DEBUG) Receiving 8=FIX.4.4|9=61|35=0|34=68|49=DMA_HUB|56=FIXCLIENT1|52=20231201-13:57:44.128|10=245|
2023-12-01 14:58:00.433 [30] [FixSender] (DEBUG) Sending 8=FIX.4.4|9=57|35=0|49=FIXCLIENT1|56=DMA_HUB|34=68|52=20231201-13:58:00|10=042|
2023-12-01 14:58:14.072 [29] [FixSender] (DEBUG) Receiving 8=FIX.4.4|9=61|35=0|34=69|49=DMA_HUB|56=FIXCLIENT1|52=20231201-13:58:14.072|10=242|
2023-12-01 14:58:30.434 [30] [FixSender] (DEBUG) Sending 8=FIX.4.4|9=57|35=0|49=FIXCLIENT1|56=DMA_HUB|34=69|52=20231201-13:58:30|10=046|
2023-12-01 14:58:44.030 [29] [FixSender] (DEBUG) Receiving 8=FIX.4.4|9=61|35=0|34=70|49=DMA_HUB|56=FIXCLIENT1|52=20231201-13:58:44.030|10=231|
2023-12-01 14:59:00.449 [30] [FixSender] (DEBUG) Sending 8=FIX.4.4|9=57|35=0|49=FIXCLIENT1|56=DMA_HUB|34=70|52=20231201-13:59:00|10=036|
2023-12-01 14:59:13.981 [29] [FixSender] (DEBUG) Receiving 8=FIX.4.4|9=61|35=0|34=71|49=DMA_HUB|56=FIXCLIENT1|52=20231201-13:59:13.981|10=244|
2023-12-01 14:59:30.456 [30] [FixSender] (DEBUG) Sending 8=FIX.4.4|9=57|35=0|49=FIXCLIENT1|56=DMA_HUB|34=71|52=20231201-13:59:30|10=040|
2023-12-01 14:59:43.940 [29] [FixSender] (DEBUG) Receiving 8=FIX.4.4|9=61|35=0|34=72|49=DMA_HUB|56=FIXCLIENT1|52=20231201-13:59:43.940|10=243|
2023-12-01 15:00:00.464 [30] [FixSender] (DEBUG) Sending 8=FIX.4.4|9=57|35=0|49=FIXCLIENT1|56=DMA_HUB|34=72|52=20231201-14:00:00|10=025|
2023-12-01 15:00:13.894 [29] [FixSender] (DEBUG) Receiving 8=FIX.4.4|9=61|35=0|34=73|49=DMA_HUB|56=FIXCLIENT1|52=20231201-14:00:13.893|10=235|
2023-12-01 15:00:30.477 [30] [FixSender] (DEBUG) Sending 8=FIX.4.4|9=57|35=0|49=FIXCLIENT1|56=DMA_HUB|34=73|52=20231201-14:00:30|10=029|
2023-12-01 15:00:43.838 [29] [FixSender] (DEBUG) Receiving 8=FIX.4.4|9=61|35=0|34=74|49=DMA_HUB|56=FIXCLIENT1|52=20231201-14:00:43.838|10=238|
2023-12-01 15:01:00.479 [30] [FixSender] (DEBUG) Sending 8=FIX.4.4|9=57|35=0|49=FIXCLIENT1|56=DMA_HUB|34=74|52=20231201-14:01:00|10=028|
2023-12-01 15:01:13.796 [29] [FixSender] (DEBUG) Receiving 8=FIX.4.4|9=61|35=0|34=75|49=DMA_HUB|56=FIXCLIENT1|52=20231201-14:01:13.795|10=239|
2023-12-01 15:01:30.495 [30] [FixSender] (DEBUG) Sending 8=FIX.4.4|9=57|35=0|49=FIXCLIENT1|56=DMA_HUB|34=75|52=20231201-14:01:30|10=032|
2023-12-01 15:01:43.743 [29] [FixSender] (DEBUG) Receiving 8=FIX.4.4|9=61|35=0|34=76|49=DMA_HUB|56=FIXCLIENT1|52=20231201-14:01:43.742|10=235|
2023-12-01 15:02:00.511 [30] [FixSender] (DEBUG) Sending 8=FIX.4.4|9=57|35=0|49=FIXCLIENT1|56=DMA_HUB|34=76|52=20231201-14:02:00|10=031|
2023-12-01 15:02:13.692 [29] [FixSender] (DEBUG) Receiving 8=FIX.4.4|9=61|35=0|34=77|49=DMA_HUB|56=FIXCLIENT1|52=20231201-14:02:13.691|10=237|
2023-12-01 15:02:30.515 [30] [FixSender] (DEBUG) Sending 8=FIX.4.4|9=57|35=0|49=FIXCLIENT1|56=DMA_HUB|34=77|52=20231201-14:02:30|10=035|
2023-12-01 15:02:43.645 [29] [FixSender] (DEBUG) Receiving 8=FIX.4.4|9=61|35=0|34=78|49=DMA_HUB|56=FIXCLIENT1|52=20231201-14:02:43.642|10=237|
2023-12-01 15:03:00.527 [30] [FixSender] (DEBUG) Sending 8=FIX.4.4|9=57|35=0|49=FIXCLIENT1|56=DMA_HUB|34=78|52=20231201-14:03:00|10=034|
2023-12-01 15:03:13.608 [29] [FixSender] (DEBUG) Receiving 8=FIX.4.4|9=61|35=0|34=79|49=DMA_HUB|56=FIXCLIENT1|52=20231201-14:03:13.606|10=236|
2023-12-01 15:03:30.540 [30] [FixSender] (DEBUG) Sending 8=FIX.4.4|9=57|35=0|49=FIXCLIENT1|56=DMA_HUB|34=79|52=20231201-14:03:30|10=038|
2023-12-01 15:03:43.556 [29] [FixSender] (DEBUG) Receiving 8=FIX.4.4|9=61|35=0|34=80|49=DMA_HUB|56=FIXCLIENT1|52=20231201-14:03:43.555|10=234|
2023-12-01 15:04:00.544 [30] [FixSender] (DEBUG) Sending 8=FIX.4.4|9=57|35=0|49=FIXCLIENT1|56=DMA_HUB|34=80|52=20231201-14:04:00|10=028|
2023-12-01 15:04:13.503 [29] [FixSender] (DEBUG) Receiving 8=FIX.4.4|9=61|35=0|34=81|49=DMA_HUB|56=FIXCLIENT1|52=20231201-14:04:13.502|10=225|
2023-12-01 15:04:30.551 [30] [FixSender] (DEBUG) Sending 8=FIX.4.4|9=57|35=0|49=FIXCLIENT1|56=DMA_HUB|34=81|52=20231201-14:04:30|10=032|
2023-12-01 15:04:43.455 [29] [FixSender] (DEBUG) Receiving 8=FIX.4.4|9=61|35=0|34=82|49=DMA_HUB|56=FIXCLIENT1|52=20231201-14:04:43.454|10=235|
2023-12-01 15:05:00.567 [30] [FixSender] (DEBUG) Sending 8=FIX.4.4|9=57|35=0|49=FIXCLIENT1|56=DMA_HUB|34=82|52=20231201-14:05:00|10=031|
2023-12-01 15:05:13.409 [29] [FixSender] (DEBUG) Receiving 8=FIX.4.4|9=61|35=0|34=83|49=DMA_HUB|56=FIXCLIENT1|52=20231201-14:05:13.409|10=234|
2023-12-01 15:05:30.579 [30] [FixSender] (DEBUG) Sending 8=FIX.4.4|9=57|35=0|49=FIXCLIENT1|56=DMA_HUB|34=83|52=20231201-14:05:30|10=035|
2023-12-01 15:05:43.362 [29] [FixSender] (DEBUG) Receiving 8=FIX.4.4|9=61|35=0|34=84|49=DMA_HUB|56=FIXCLIENT1|52=20231201-14:05:43.362|10=236|
2023-12-01 15:06:00.595 [30] [FixSender] (DEBUG) Sending 8=FIX.4.4|9=57|35=0|49=FIXCLIENT1|56=DMA_HUB|34=84|52=20231201-14:06:00|10=034|
2023-12-01 15:06:13.311 [29] [FixSender] (DEBUG) Receiving 8=FIX.4.4|9=61|35=0|34=85|49=DMA_HUB|56=FIXCLIENT1|52=20231201-14:06:13.309|10=236|
2023-12-01 15:06:30.610 [30] [FixSender] (DEBUG) Sending 8=FIX.4.4|9=57|35=0|49=FIXCLIENT1|56=DMA_HUB|34=85|52=20231201-14:06:30|10=038|
2023-12-01 15:06:43.259 [29] [FixSender] (DEBUG) Receiving 8=FIX.4.4|9=61|35=0|34=86|49=DMA_HUB|56=FIXCLIENT1|52=20231201-14:06:43.259|10=244|
2023-12-01 15:07:00.625 [30] [FixSender] (DEBUG) Sending 8=FIX.4.4|9=57|35=0|49=FIXCLIENT1|56=DMA_HUB|34=86|52=20231201-14:07:00|10=037|
2023-12-01 15:07:13.209 [29] [FixSender] (DEBUG) Receiving 8=FIX.4.4|9=61|35=0|34=87|49=DMA_HUB|56=FIXCLIENT1|52=20231201-14:07:13.208|10=237|
2023-12-01 15:07:30.641 [30] [FixSender] (DEBUG) Sending 8=FIX.4.4|9=57|35=0|49=FIXCLIENT1|56=DMA_HUB|34=87|52=20231201-14:07:30|10=041|
2023-12-01 15:07:43.160 [29] [FixSender] (DEBUG) Receiving 8=FIX.4.4|9=61|35=0|34=88|49=DMA_HUB|56=FIXCLIENT1|52=20231201-14:07:43.160|10=238|
2023-12-01 15:08:00.657 [30] [FixSender] (DEBUG) Sending 8=FIX.4.4|9=57|35=0|49=FIXCLIENT1|56=DMA_HUB|34=88|52=20231201-14:08:00|10=040|
2023-12-01 15:08:13.123 [29] [FixSender] (DEBUG) Receiving 8=FIX.4.4|9=61|35=0|34=89|49=DMA_HUB|56=FIXCLIENT1|52=20231201-14:08:13.122|10=235|
2023-12-01 15:08:30.659 [30] [FixSender] (DEBUG) Sending 8=FIX.4.4|9=57|35=0|49=FIXCLIENT1|56=DMA_HUB|34=89|52=20231201-14:08:30|10=044|
2023-12-01 15:08:43.075 [29] [FixSender] (DEBUG) Receiving 8=FIX.4.4|9=61|35=0|34=90|49=DMA_HUB|56=FIXCLIENT1|52=20231201-14:08:43.075|10=237|
2023-12-01 15:09:00.671 [30] [FixSender] (DEBUG) Sending 8=FIX.4.4|9=57|35=0|49=FIXCLIENT1|56=DMA_HUB|34=90|52=20231201-14:09:00|10=034|
2023-12-01 15:09:13.019 [29] [FixSender] (DEBUG) Receiving 8=FIX.4.4|9=61|35=0|34=91|49=DMA_HUB|56=FIXCLIENT1|52=20231201-14:09:13.019|10=234|
2023-12-01 15:09:30.687 [30] [FixSender] (DEBUG) Sending 8=FIX.4.4|9=57|35=0|49=FIXCLIENT1|56=DMA_HUB|34=91|52=20231201-14:09:30|10=038|
2023-12-01 15:09:42.977 [29] [FixSender] (DEBUG) Receiving 8=FIX.4.4|9=61|35=0|34=92|49=DMA_HUB|56=FIXCLIENT1|52=20231201-14:09:42.977|10=250|
2023-12-01 15:10:00.689 [30] [FixSender] (DEBUG) Sending 8=FIX.4.4|9=57|35=0|49=FIXCLIENT1|56=DMA_HUB|34=92|52=20231201-14:10:00|10=028|
2023-12-01 15:10:12.923 [29] [FixSender] (DEBUG) Receiving 8=FIX.4.4|9=61|35=0|34=93|49=DMA_HUB|56=FIXCLIENT1|52=20231201-14:10:12.923|10=231|
2023-12-01 15:10:30.697 [30] [FixSender] (DEBUG) Sending 8=FIX.4.4|9=57|35=0|49=FIXCLIENT1|56=DMA_HUB|34=93|52=20231201-14:10:30|10=032|
2023-12-01 15:10:42.881 [29] [FixSender] (DEBUG) Receiving 8=FIX.4.4|9=61|35=0|34=94|49=DMA_HUB|56=FIXCLIENT1|52=20231201-14:10:42.881|10=238|
2023-12-01 15:11:00.703 [30] [FixSender] (DEBUG) Sending 8=FIX.4.4|9=57|35=0|49=FIXCLIENT1|56=DMA_HUB|34=94|52=20231201-14:11:00|10=031|
2023-12-01 15:11:12.832 [29] [FixSender] (DEBUG) Receiving 8=FIX.4.4|9=61|35=0|34=95|49=DMA_HUB|56=FIXCLIENT1|52=20231201-14:11:12.832|10=233|
2023-12-01 15:11:30.712 [30] [FixSender] (DEBUG) Sending 8=FIX.4.4|9=57|35=0|49=FIXCLIENT1|56=DMA_HUB|34=95|52=20231201-14:11:30|10=035|
2023-12-01 15:11:42.784 [29] [FixSender] (DEBUG) Receiving 8=FIX.4.4|9=61|35=0|34=96|49=DMA_HUB|56=FIXCLIENT1|52=20231201-14:11:42.784|10=243|
2023-12-01 15:12:00.716 [30] [FixSender] (DEBUG) Sending 8=FIX.4.4|9=57|35=0|49=FIXCLIENT1|56=DMA_HUB|34=96|52=20231201-14:12:00|10=034|
2023-12-01 15:12:12.728 [29] [FixSender] (DEBUG) Receiving 8=FIX.4.4|9=61|35=0|34=97|49=DMA_HUB|56=FIXCLIENT1|52=20231201-14:12:12.728|10=240|
2023-12-01 15:12:30.722 [30] [FixSender] (DEBUG) Sending 8=FIX.4.4|9=57|35=0|49=FIXCLIENT1|56=DMA_HUB|34=97|52=20231201-14:12:30|10=038|
2023-12-01 15:12:42.694 [29] [FixSender] (DEBUG) Receiving 8=FIX.4.4|9=61|35=0|34=98|49=DMA_HUB|56=FIXCLIENT1|52=20231201-14:12:42.693|10=245|
2023-12-01 15:13:00.728 [30] [FixSender] (DEBUG) Sending 8=FIX.4.4|9=57|35=0|49=FIXCLIENT1|56=DMA_HUB|34=98|52=20231201-14:13:00|10=037|
2023-12-01 15:13:12.634 [29] [FixSender] (DEBUG) Receiving 8=FIX.4.4|9=61|35=0|34=99|49=DMA_HUB|56=FIXCLIENT1|52=20231201-14:13:12.633|10=238|
2023-12-01 15:13:30.732 [30] [FixSender] (DEBUG) Sending 8=FIX.4.4|9=57|35=0|49=FIXCLIENT1|56=DMA_HUB|34=99|52=20231201-14:13:30|10=041|
2023-12-01 15:13:42.594 [29] [FixSender] (DEBUG) Receiving 8=FIX.4.4|9=62|35=0|34=100|49=DMA_HUB|56=FIXCLIENT1|52=20231201-14:13:42.593|10=022|
2023-12-01 15:14:00.735 [30] [FixSender] (DEBUG) Sending 8=FIX.4.4|9=58|35=0|49=FIXCLIENT1|56=DMA_HUB|34=100|52=20231201-14:14:00|10=071|
2023-12-01 15:14:12.542 [29] [FixSender] (DEBUG) Receiving 8=FIX.4.4|9=62|35=0|34=101|49=DMA_HUB|56=FIXCLIENT1|52=20231201-14:14:12.542|10=015|
2023-12-01 15:14:30.749 [30] [FixSender] (DEBUG) Sending 8=FIX.4.4|9=58|35=0|49=FIXCLIENT1|56=DMA_HUB|34=101|52=20231201-14:14:30|10=075|
2023-12-01 15:14:42.494 [29] [FixSender] (DEBUG) Receiving 8=FIX.4.4|9=62|35=0|34=102|49=DMA_HUB|56=FIXCLIENT1|52=20231201-14:14:42.489|10=029|
2023-12-01 15:15:00.752 [30] [FixSender] (DEBUG) Sending 8=FIX.4.4|9=58|35=0|49=FIXCLIENT1|56=DMA_HUB|34=102|52=20231201-14:15:00|10=074|
2023-12-01 15:15:12.444 [29] [FixSender] (DEBUG) Receiving 8=FIX.4.4|9=62|35=0|34=103|49=DMA_HUB|56=FIXCLIENT1|52=20231201-14:15:12.442|10=017|
2023-12-01 15:15:30.763 [30] [FixSender] (DEBUG) Sending 8=FIX.4.4|9=58|35=0|49=FIXCLIENT1|56=DMA_HUB|34=103|52=20231201-14:15:30|10=078|
2023-12-01 15:15:42.406 [29] [FixSender] (DEBUG) Receiving 8=FIX.4.4|9=62|35=0|34=104|49=DMA_HUB|56=FIXCLIENT1|52=20231201-14:15:42.406|10=021|
2023-12-01 15:16:00.774 [30] [FixSender] (DEBUG) Sending 8=FIX.4.4|9=58|35=0|49=FIXCLIENT1|56=DMA_HUB|34=104|52=20231201-14:16:00|10=077|
2023-12-01 15:16:12.350 [29] [FixSender] (DEBUG) Receiving 8=FIX.4.4|9=62|35=0|34=105|49=DMA_HUB|56=FIXCLIENT1|52=20231201-14:16:12.349|10=026|
2023-12-01 15:16:30.785 [30] [FixSender] (DEBUG) Sending 8=FIX.4.4|9=58|35=0|49=FIXCLIENT1|56=DMA_HUB|34=105|52=20231201-14:16:30|10=081|
2023-12-01 15:16:42.307 [29] [FixSender] (DEBUG) Receiving 8=FIX.4.4|9=62|35=0|34=106|49=DMA_HUB|56=FIXCLIENT1|52=20231201-14:16:42.305|10=022|
2023-12-01 15:17:00.797 [30] [FixSender] (DEBUG) Sending 8=FIX.4.4|9=58|35=0|49=FIXCLIENT1|56=DMA_HUB|34=106|52=20231201-14:17:00|10=080|
2023-12-01 15:17:12.249 [29] [FixSender] (DEBUG) Receiving 8=FIX.4.4|9=62|35=0|34=107|49=DMA_HUB|56=FIXCLIENT1|52=20231201-14:17:12.249|10=028|
2023-12-01 15:17:30.799 [30] [FixSender] (DEBUG) Sending 8=FIX.4.4|9=58|35=0|49=FIXCLIENT1|56=DMA_HUB|34=107|52=20231201-14:17:30|10=084|
2023-12-01 15:17:42.212 [29] [FixSender] (DEBUG) Receiving 8=FIX.4.4|9=62|35=0|34=108|49=DMA_HUB|56=FIXCLIENT1|52=20231201-14:17:42.212|10=022|
2023-12-01 15:18:00.809 [30] [FixSender] (DEBUG) Sending 8=FIX.4.4|9=58|35=0|49=FIXCLIENT1|56=DMA_HUB|34=108|52=20231201-14:18:00|10=083|
2023-12-01 15:18:12.157 [29] [FixSender] (DEBUG) Receiving 8=FIX.4.4|9=62|35=0|34=109|49=DMA_HUB|56=FIXCLIENT1|52=20231201-14:18:12.155|10=027|
2023-12-01 15:18:30.819 [30] [FixSender] (DEBUG) Sending 8=FIX.4.4|9=58|35=0|49=FIXCLIENT1|56=DMA_HUB|34=109|52=20231201-14:18:30|10=087|
2023-12-01 15:18:42.115 [29] [FixSender] (DEBUG) Receiving 8=FIX.4.4|9=62|35=0|34=110|49=DMA_HUB|56=FIXCLIENT1|52=20231201-14:18:42.115|10=018|
2023-12-01 15:19:00.822 [30] [FixSender] (DEBUG) Sending 8=FIX.4.4|9=58|35=0|49=FIXCLIENT1|56=DMA_HUB|34=110|52=20231201-14:19:00|10=077|
2023-12-01 15:19:12.063 [29] [FixSender] (DEBUG) Receiving 8=FIX.4.4|9=62|35=0|34=111|49=DMA_HUB|56=FIXCLIENT1|52=20231201-14:19:12.062|10=018|
2023-12-01 15:19:30.835 [30] [FixSender] (DEBUG) Sending 8=FIX.4.4|9=58|35=0|49=FIXCLIENT1|56=DMA_HUB|34=111|52=20231201-14:19:30|10=081|
2023-12-01 15:19:42.015 [29] [FixSender] (DEBUG) Receiving 8=FIX.4.4|9=62|35=0|34=112|49=DMA_HUB|56=FIXCLIENT1|52=20231201-14:19:42.014|10=019|
2023-12-01 15:20:00.842 [30] [FixSender] (DEBUG) Sending 8=FIX.4.4|9=58|35=0|49=FIXCLIENT1|56=DMA_HUB|34=112|52=20231201-14:20:00|10=071|
2023-12-01 15:20:11.962 [29] [FixSender] (DEBUG) Receiving 8=FIX.4.4|9=62|35=0|34=113|49=DMA_HUB|56=FIXCLIENT1|52=20231201-14:20:11.961|10=019|
2023-12-01 15:20:30.852 [30] [FixSender] (DEBUG) Sending 8=FIX.4.4|9=58|35=0|49=FIXCLIENT1|56=DMA_HUB|34=113|52=20231201-14:20:30|10=075|
2023-12-01 15:20:41.921 [29] [FixSender] (DEBUG) Receiving 8=FIX.4.4|9=62|35=0|34=114|49=DMA_HUB|56=FIXCLIENT1|52=20231201-14:20:41.920|10=018|
2023-12-01 15:21:00.860 [30] [FixSender] (DEBUG) Sending 8=FIX.4.4|9=58|35=0|49=FIXCLIENT1|56=DMA_HUB|34=114|52=20231201-14:21:00|10=074|
2023-12-01 15:21:11.873 [29] [FixSender] (DEBUG) Receiving 8=FIX.4.4|9=62|35=0|34=115|49=DMA_HUB|56=FIXCLIENT1|52=20231201-14:21:11.872|10=023|
2023-12-01 15:21:30.862 [30] [FixSender] (DEBUG) Sending 8=FIX.4.4|9=58|35=0|49=FIXCLIENT1|56=DMA_HUB|34=115|52=20231201-14:21:30|10=078|
2023-12-01 15:21:41.822 [29] [FixSender] (DEBUG) Receiving 8=FIX.4.4|9=62|35=0|34=116|49=DMA_HUB|56=FIXCLIENT1|52=20231201-14:21:41.822|10=022|
2023-12-01 15:22:00.873 [30] [FixSender] (DEBUG) Sending 8=FIX.4.4|9=58|35=0|49=FIXCLIENT1|56=DMA_HUB|34=116|52=20231201-14:22:00|10=077|
2023-12-01 15:22:11.774 [29] [FixSender] (DEBUG) Receiving 8=FIX.4.4|9=62|35=0|34=117|49=DMA_HUB|56=FIXCLIENT1|52=20231201-14:22:11.773|10=026|
2023-12-01 15:22:30.879 [30] [FixSender] (DEBUG) Sending 8=FIX.4.4|9=58|35=0|49=FIXCLIENT1|56=DMA_HUB|34=117|52=20231201-14:22:30|10=081|
2023-12-01 15:22:41.729 [29] [FixSender] (DEBUG) Receiving 8=FIX.4.4|9=62|35=0|34=118|49=DMA_HUB|56=FIXCLIENT1|52=20231201-14:22:41.725|10=027|
2023-12-01 15:23:00.883 [30] [FixSender] (DEBUG) Sending 8=FIX.4.4|9=58|35=0|49=FIXCLIENT1|56=DMA_HUB|34=118|52=20231201-14:23:00|10=080|
2023-12-01 15:23:11.679 [29] [FixSender] (DEBUG) Receiving 8=FIX.4.4|9=62|35=0|34=119|49=DMA_HUB|56=FIXCLIENT1|52=20231201-14:23:11.678|10=033|
2023-12-01 15:23:30.889 [30] [FixSender] (DEBUG) Sending 8=FIX.4.4|9=58|35=0|49=FIXCLIENT1|56=DMA_HUB|34=119|52=20231201-14:23:30|10=084|
2023-12-01 15:23:41.630 [29] [FixSender] (DEBUG) Receiving 8=FIX.4.4|9=62|35=0|34=120|49=DMA_HUB|56=FIXCLIENT1|52=20231201-14:23:41.629|10=024|
2023-12-01 15:24:00.899 [30] [FixSender] (DEBUG) Sending 8=FIX.4.4|9=58|35=0|49=FIXCLIENT1|56=DMA_HUB|34=120|52=20231201-14:24:00|10=074|
2023-12-01 15:24:11.588 [29] [FixSender] (DEBUG) Receiving 8=FIX.4.4|9=62|35=0|34=121|49=DMA_HUB|56=FIXCLIENT1|52=20231201-14:24:11.587|10=026|
2023-12-01 15:24:30.903 [30] [FixSender] (DEBUG) Sending 8=FIX.4.4|9=58|35=0|49=FIXCLIENT1|56=DMA_HUB|34=121|52=20231201-14:24:30|10=078|
2023-12-01 15:24:41.539 [29] [FixSender] (DEBUG) Receiving 8=FIX.4.4|9=62|35=0|34=122|49=DMA_HUB|56=FIXCLIENT1|52=20231201-14:24:41.538|10=026|
2023-12-01 15:25:00.905 [30] [FixSender] (DEBUG) Sending 8=FIX.4.4|9=58|35=0|49=FIXCLIENT1|56=DMA_HUB|34=122|52=20231201-14:25:00|10=077|
2023-12-01 15:25:11.486 [29] [FixSender] (DEBUG) Receiving 8=FIX.4.4|9=62|35=0|34=123|49=DMA_HUB|56=FIXCLIENT1|52=20231201-14:25:11.486|10=027|
2023-12-01 15:25:30.918 [30] [FixSender] (DEBUG) Sending 8=FIX.4.4|9=58|35=0|49=FIXCLIENT1|56=DMA_HUB|34=123|52=20231201-14:25:30|10=081|
2023-12-01 15:25:41.441 [29] [FixSender] (DEBUG) Receiving 8=FIX.4.4|9=62|35=0|34=124|49=DMA_HUB|56=FIXCLIENT1|52=20231201-14:25:41.439|10=029|
2023-12-01 15:26:00.919 [30] [FixSender] (DEBUG) Sending 8=FIX.4.4|9=58|35=0|49=FIXCLIENT1|56=DMA_HUB|34=124|52=20231201-14:26:00|10=080|
2023-12-01 15:26:11.395 [29] [FixSender] (DEBUG) Receiving 8=FIX.4.4|9=62|35=0|34=125|49=DMA_HUB|56=FIXCLIENT1|52=20231201-14:26:11.393|10=027|
2023-12-01 15:26:30.925 [30] [FixSender] (DEBUG) Sending 8=FIX.4.4|9=58|35=0|49=FIXCLIENT1|56=DMA_HUB|34=125|52=20231201-14:26:30|10=084|
2023-12-01 15:26:41.338 [29] [FixSender] (DEBUG) Receiving 8=FIX.4.4|9=62|35=0|34=126|49=DMA_HUB|56=FIXCLIENT1|52=20231201-14:26:41.337|10=029|
2023-12-01 15:27:00.933 [30] [FixSender] (DEBUG) Sending 8=FIX.4.4|9=58|35=0|49=FIXCLIENT1|56=DMA_HUB|34=126|52=20231201-14:27:00|10=083|
2023-12-01 15:27:11.292 [29] [FixSender] (DEBUG) Receiving 8=FIX.4.4|9=62|35=0|34=127|49=DMA_HUB|56=FIXCLIENT1|52=20231201-14:27:11.289|10=034|
2023-12-01 15:27:30.937 [30] [FixSender] (DEBUG) Sending 8=FIX.4.4|9=58|35=0|49=FIXCLIENT1|56=DMA_HUB|34=127|52=20231201-14:27:30|10=087|
2023-12-01 15:27:41.247 [29] [FixSender] (DEBUG) Receiving 8=FIX.4.4|9=62|35=0|34=128|49=DMA_HUB|56=FIXCLIENT1|52=20231201-14:27:41.246|10=031|
2023-12-01 15:28:00.947 [30] [FixSender] (DEBUG) Sending 8=FIX.4.4|9=58|35=0|49=FIXCLIENT1|56=DMA_HUB|34=128|52=20231201-14:28:00|10=086|
2023-12-01 15:28:11.206 [29] [FixSender] (DEBUG) Receiving 8=FIX.4.4|9=62|35=0|34=129|49=DMA_HUB|56=FIXCLIENT1|52=20231201-14:28:11.205|10=025|
2023-12-01 15:28:30.963 [30] [FixSender] (DEBUG) Sending 8=FIX.4.4|9=58|35=0|49=FIXCLIENT1|56=DMA_HUB|34=129|52=20231201-14:28:30|10=090|
2023-12-01 15:28:41.156 [29] [FixSender] (DEBUG) Receiving 8=FIX.4.4|9=62|35=0|34=130|49=DMA_HUB|56=FIXCLIENT1|52=20231201-14:28:41.155|10=024|
2023-12-01 15:29:00.966 [30] [FixSender] (DEBUG) Sending 8=FIX.4.4|9=58|35=0|49=FIXCLIENT1|56=DMA_HUB|34=130|52=20231201-14:29:00|10=080|
2023-12-01 15:29:11.110 [29] [FixSender] (DEBUG) Receiving 8=FIX.4.4|9=62|35=0|34=131|49=DMA_HUB|56=FIXCLIENT1|52=20231201-14:29:11.108|10=021|
2023-12-01 15:29:30.970 [30] [FixSender] (DEBUG) Sending 8=FIX.4.4|9=58|35=0|49=FIXCLIENT1|56=DMA_HUB|34=131|52=20231201-14:29:30|10=084|
2023-12-01 15:29:41.060 [29] [FixSender] (DEBUG) Receiving 8=FIX.4.4|9=62|35=0|34=132|49=DMA_HUB|56=FIXCLIENT1|52=20231201-14:29:41.059|10=030|
2023-12-01 15:30:00.979 [30] [FixSender] (DEBUG) Sending 8=FIX.4.4|9=58|35=0|49=FIXCLIENT1|56=DMA_HUB|34=132|52=20231201-14:30:00|10=074|
2023-12-01 15:30:11.007 [29] [FixSender] (DEBUG) Receiving 8=FIX.4.4|9=62|35=0|34=133|49=DMA_HUB|56=FIXCLIENT1|52=20231201-14:30:11.005|10=011|
2023-12-01 15:30:30.991 [30] [FixSender] (DEBUG) Sending 8=FIX.4.4|9=58|35=0|49=FIXCLIENT1|56=DMA_HUB|34=133|52=20231201-14:30:30|10=078|
2023-12-01 15:30:40.957 [29] [FixSender] (DEBUG) Receiving 8=FIX.4.4|9=62|35=0|34=134|49=DMA_HUB|56=FIXCLIENT1|52=20231201-14:30:40.956|10=029|
2023-12-01 15:31:00.998 [30] [FixSender] (DEBUG) Sending 8=FIX.4.4|9=58|35=0|49=FIXCLIENT1|56=DMA_HUB|34=134|52=20231201-14:31:00|10=077|
2023-12-01 15:31:10.913 [29] [FixSender] (DEBUG) Receiving 8=FIX.4.4|9=62|35=0|34=135|49=DMA_HUB|56=FIXCLIENT1|52=20231201-14:31:10.913|10=021|
2023-12-01 15:31:31.016 [30] [FixSender] (DEBUG) Sending 8=FIX.4.4|9=58|35=0|49=FIXCLIENT1|56=DMA_HUB|34=135|52=20231201-14:31:31|10=082|
2023-12-01 15:31:40.860 [29] [FixSender] (DEBUG) Receiving 8=FIX.4.4|9=62|35=0|34=136|49=DMA_HUB|56=FIXCLIENT1|52=20231201-14:31:40.859|10=034|
2023-12-01 15:32:01.030 [30] [FixSender] (DEBUG) Sending 8=FIX.4.4|9=58|35=0|49=FIXCLIENT1|56=DMA_HUB|34=136|52=20231201-14:32:01|10=081|
2023-12-01 15:32:10.818 [29] [FixSender] (DEBUG) Receiving 8=FIX.4.4|9=62|35=0|34=137|49=DMA_HUB|56=FIXCLIENT1|52=20231201-14:32:10.816|10=026|
2023-12-01 15:32:31.048 [30] [FixSender] (DEBUG) Sending 8=FIX.4.4|9=58|35=0|49=FIXCLIENT1|56=DMA_HUB|34=137|52=20231201-14:32:31|10=085|
2023-12-01 15:32:40.773 [29] [FixSender] (DEBUG) Receiving 8=FIX.4.4|9=62|35=0|34=138|49=DMA_HUB|56=FIXCLIENT1|52=20231201-14:32:40.771|10=030|
2023-12-01 15:33:01.060 [30] [FixSender] (DEBUG) Sending 8=FIX.4.4|9=58|35=0|49=FIXCLIENT1|56=DMA_HUB|34=138|52=20231201-14:33:01|10=084|
2023-12-01 15:33:10.715 [29] [FixSender] (DEBUG) Receiving 8=FIX.4.4|9=62|35=0|34=139|49=DMA_HUB|56=FIXCLIENT1|52=20231201-14:33:10.713|10=025|
2023-12-01 15:33:31.073 [30] [FixSender] (DEBUG) Sending 8=FIX.4.4|9=58|35=0|49=FIXCLIENT1|56=DMA_HUB|34=139|52=20231201-14:33:31|10=088|
2023-12-01 15:33:40.664 [29] [FixSender] (DEBUG) Receiving 8=FIX.4.4|9=62|35=0|34=140|49=DMA_HUB|56=FIXCLIENT1|52=20231201-14:33:40.664|10=025|
2023-12-01 15:34:01.090 [30] [FixSender] (DEBUG) Sending 8=FIX.4.4|9=58|35=0|49=FIXCLIENT1|56=DMA_HUB|34=140|52=20231201-14:34:01|10=078|
2023-12-01 15:34:10.626 [29] [FixSender] (DEBUG) Receiving 8=FIX.4.4|9=62|35=0|34=141|49=DMA_HUB|56=FIXCLIENT1|52=20231201-14:34:10.625|10=021|
2023-12-01 15:34:31.095 [30] [FixSender] (DEBUG) Sending 8=FIX.4.4|9=58|35=0|49=FIXCLIENT1|56=DMA_HUB|34=141|52=20231201-14:34:31|10=082|
2023-12-01 15:34:40.572 [29] [FixSender] (DEBUG) Receiving 8=FIX.4.4|9=62|35=0|34=142|49=DMA_HUB|56=FIXCLIENT1|52=20231201-14:34:40.571|10=025|
2023-12-01 15:35:01.110 [30] [FixSender] (DEBUG) Sending 8=FIX.4.4|9=58|35=0|49=FIXCLIENT1|56=DMA_HUB|34=142|52=20231201-14:35:01|10=081|
2023-12-01 15:35:10.534 [29] [FixSender] (DEBUG) Receiving 8=FIX.4.4|9=62|35=0|34=143|49=DMA_HUB|56=FIXCLIENT1|52=20231201-14:35:10.534|10=023|
2023-12-01 15:35:31.127 [30] [FixSender] (DEBUG) Sending 8=FIX.4.4|9=58|35=0|49=FIXCLIENT1|56=DMA_HUB|34=143|52=20231201-14:35:31|10=085|
2023-12-01 15:35:40.473 [29] [FixSender] (DEBUG) Receiving 8=FIX.4.4|9=62|35=0|34=144|49=DMA_HUB|56=FIXCLIENT1|52=20231201-14:35:40.472|10=028|
2023-12-01 15:36:01.143 [30] [FixSender] (DEBUG) Sending 8=FIX.4.4|9=58|35=0|49=FIXCLIENT1|56=DMA_HUB|34=144|52=20231201-14:36:01|10=084|
2023-12-01 15:36:10.426 [29] [FixSender] (DEBUG) Receiving 8=FIX.4.4|9=62|35=0|34=145|49=DMA_HUB|56=FIXCLIENT1|52=20231201-14:36:10.425|10=025|
2023-12-01 15:36:31.150 [30] [FixSender] (DEBUG) Sending 8=FIX.4.4|9=58|35=0|49=FIXCLIENT1|56=DMA_HUB|34=145|52=20231201-14:36:31|10=088|
2023-12-01 15:36:40.385 [29] [FixSender] (DEBUG) Receiving 8=FIX.4.4|9=62|35=0|34=146|49=DMA_HUB|56=FIXCLIENT1|52=20231201-14:36:40.384|10=033|
2023-12-01 15:37:01.158 [30] [FixSender] (DEBUG) Sending 8=FIX.4.4|9=58|35=0|49=FIXCLIENT1|56=DMA_HUB|34=146|52=20231201-14:37:01|10=087|
2023-12-01 15:37:10.339 [29] [FixSender] (DEBUG) Receiving 8=FIX.4.4|9=62|35=0|34=147|49=DMA_HUB|56=FIXCLIENT1|52=20231201-14:37:10.338|10=031|
2023-12-01 15:37:31.172 [30] [FixSender] (DEBUG) Sending 8=FIX.4.4|9=58|35=0|49=FIXCLIENT1|56=DMA_HUB|34=147|52=20231201-14:37:31|10=091|
2023-12-01 15:37:40.317 [29] [FixSender] (DEBUG) Receiving 8=FIX.4.4|9=62|35=0|34=148|49=DMA_HUB|56=FIXCLIENT1|52=20231201-14:37:40.316|10=031|
2023-12-01 15:38:01.176 [30] [FixSender] (DEBUG) Sending 8=FIX.4.4|9=58|35=0|49=FIXCLIENT1|56=DMA_HUB|34=148|52=20231201-14:38:01|10=090|
2023-12-01 15:38:10.307 [29] [FixSender] (DEBUG) Receiving 8=FIX.4.4|9=62|35=0|34=149|49=DMA_HUB|56=FIXCLIENT1|52=20231201-14:38:10.307|10=030|
2023-12-01 15:38:31.179 [30] [FixSender] (DEBUG) Sending 8=FIX.4.4|9=58|35=0|49=FIXCLIENT1|56=DMA_HUB|34=149|52=20231201-14:38:31|10=094|
2023-12-01 15:38:40.253 [29] [FixSender] (DEBUG) Receiving 8=FIX.4.4|9=62|35=0|34=150|49=DMA_HUB|56=FIXCLIENT1|52=20231201-14:38:40.252|10=024|
2023-12-01 15:39:01.196 [30] [FixSender] (DEBUG) Sending 8=FIX.4.4|9=58|35=0|49=FIXCLIENT1|56=DMA_HUB|34=150|52=20231201-14:39:01|10=084|
2023-12-01 15:39:10.214 [29] [FixSender] (DEBUG) Receiving 8=FIX.4.4|9=62|35=0|34=151|49=DMA_HUB|56=FIXCLIENT1|52=20231201-14:39:10.212|10=019|
2023-12-01 15:39:31.197 [30] [FixSender] (DEBUG) Sending 8=FIX.4.4|9=58|35=0|49=FIXCLIENT1|56=DMA_HUB|34=151|52=20231201-14:39:31|10=088|
2023-12-01 15:39:40.154 [29] [FixSender] (DEBUG) Receiving 8=FIX.4.4|9=62|35=0|34=152|49=DMA_HUB|56=FIXCLIENT1|52=20231201-14:39:40.154|10=028|
2023-12-01 15:40:01.205 [30] [FixSender] (DEBUG) Sending 8=FIX.4.4|9=58|35=0|49=FIXCLIENT1|56=DMA_HUB|34=152|52=20231201-14:40:01|10=078|
2023-12-01 15:40:10.109 [29] [FixSender] (DEBUG) Receiving 8=FIX.4.4|9=62|35=0|34=153|49=DMA_HUB|56=FIXCLIENT1|52=20231201-14:40:10.108|10=017|
2023-12-01 15:40:31.209 [30] [FixSender] (DEBUG) Sending 8=FIX.4.4|9=58|35=0|49=FIXCLIENT1|56=DMA_HUB|34=153|52=20231201-14:40:31|10=082|
2023-12-01 15:40:40.061 [29] [FixSender] (DEBUG) Receiving 8=FIX.4.4|9=62|35=0|34=154|49=DMA_HUB|56=FIXCLIENT1|52=20231201-14:40:40.060|10=018|
2023-12-01 15:41:01.216 [30] [FixSender] (DEBUG) Sending 8=FIX.4.4|9=58|35=0|49=FIXCLIENT1|56=DMA_HUB|34=154|52=20231201-14:41:01|10=081|
2023-12-01 15:41:10.007 [29] [FixSender] (DEBUG) Receiving 8=FIX.4.4|9=62|35=0|34=155|49=DMA_HUB|56=FIXCLIENT1|52=20231201-14:41:10.007|10=018|
2023-12-01 15:41:31.219 [30] [FixSender] (DEBUG) Sending 8=FIX.4.4|9=58|35=0|49=FIXCLIENT1|56=DMA_HUB|34=155|52=20231201-14:41:31|10=085|
2023-12-01 15:41:39.960 [29] [FixSender] (DEBUG) Receiving 8=FIX.4.4|9=62|35=0|34=156|49=DMA_HUB|56=FIXCLIENT1|52=20231201-14:41:39.960|10=038|
2023-12-01 15:42:01.232 [30] [FixSender] (DEBUG) Sending 8=FIX.4.4|9=58|35=0|49=FIXCLIENT1|56=DMA_HUB|34=156|52=20231201-14:42:01|10=084|
2023-12-01 15:42:09.927 [29] [FixSender] (DEBUG) Receiving 8=FIX.4.4|9=62|35=0|34=157|49=DMA_HUB|56=FIXCLIENT1|52=20231201-14:42:09.926|10=039|
2023-12-01 15:42:31.240 [30] [FixSender] (DEBUG) Sending 8=FIX.4.4|9=58|35=0|49=FIXCLIENT1|56=DMA_HUB|34=157|52=20231201-14:42:31|10=088|
2023-12-01 15:42:39.870 [29] [FixSender] (DEBUG) Receiving 8=FIX.4.4|9=62|35=0|34=158|49=DMA_HUB|56=FIXCLIENT1|52=20231201-14:42:39.868|10=048|
2023-12-01 15:43:01.250 [30] [FixSender] (DEBUG) Sending 8=FIX.4.4|9=58|35=0|49=FIXCLIENT1|56=DMA_HUB|34=158|52=20231201-14:43:01|10=087|
2023-12-01 15:43:09.817 [29] [FixSender] (DEBUG) Receiving 8=FIX.4.4|9=62|35=0|34=159|49=DMA_HUB|56=FIXCLIENT1|52=20231201-14:43:09.817|10=041|
2023-12-01 15:43:31.251 [30] [FixSender] (DEBUG) Sending 8=FIX.4.4|9=58|35=0|49=FIXCLIENT1|56=DMA_HUB|34=159|52=20231201-14:43:31|10=091|
2023-12-01 15:43:39.774 [29] [FixSender] (DEBUG) Receiving 8=FIX.4.4|9=62|35=0|34=160|49=DMA_HUB|56=FIXCLIENT1|52=20231201-14:43:39.774|10=038|
2023-12-01 15:44:01.269 [30] [FixSender] (DEBUG) Sending 8=FIX.4.4|9=58|35=0|49=FIXCLIENT1|56=DMA_HUB|34=160|52=20231201-14:44:01|10=081|
2023-12-01 15:44:09.725 [29] [FixSender] (DEBUG) Receiving 8=FIX.4.4|9=62|35=0|34=161|49=DMA_HUB|56=FIXCLIENT1|52=20231201-14:44:09.724|10=032|
2023-12-01 15:44:31.273 [30] [FixSender] (DEBUG) Sending 8=FIX.4.4|9=58|35=0|49=FIXCLIENT1|56=DMA_HUB|34=161|52=20231201-14:44:31|10=085|
2023-12-01 15:44:39.686 [29] [FixSender] (DEBUG) Receiving 8=FIX.4.4|9=62|35=0|34=162|49=DMA_HUB|56=FIXCLIENT1|52=20231201-14:44:39.686|10=043|
2023-12-01 15:45:01.278 [30] [FixSender] (DEBUG) Sending 8=FIX.4.4|9=58|35=0|49=FIXCLIENT1|56=DMA_HUB|34=162|52=20231201-14:45:01|10=084|
2023-12-01 15:45:09.634 [29] [FixSender] (DEBUG) Receiving 8=FIX.4.4|9=62|35=0|34=163|49=DMA_HUB|56=FIXCLIENT1|52=20231201-14:45:09.633|10=034|
2023-12-01 15:45:31.282 [30] [FixSender] (DEBUG) Sending 8=FIX.4.4|9=58|35=0|49=FIXCLIENT1|56=DMA_HUB|34=163|52=20231201-14:45:31|10=088|
2023-12-01 15:45:39.581 [29] [FixSender] (DEBUG) Receiving 8=FIX.4.4|9=62|35=0|34=164|49=DMA_HUB|56=FIXCLIENT1|52=20231201-14:45:39.580|10=039|
2023-12-01 15:46:01.286 [30] [FixSender] (DEBUG) Sending 8=FIX.4.4|9=58|35=0|49=FIXCLIENT1|56=DMA_HUB|34=164|52=20231201-14:46:01|10=087|
2023-12-01 15:46:09.534 [29] [FixSender] (DEBUG) Receiving 8=FIX.4.4|9=62|35=0|34=165|49=DMA_HUB|56=FIXCLIENT1|52=20231201-14:46:09.534|10=037|
2023-12-01 15:46:31.293 [30] [FixSender] (DEBUG) Sending 8=FIX.4.4|9=58|35=0|49=FIXCLIENT1|56=DMA_HUB|34=165|52=20231201-14:46:31|10=091|
2023-12-01 15:46:39.480 [29] [FixSender] (DEBUG) Receiving 8=FIX.4.4|9=62|35=0|34=166|49=DMA_HUB|56=FIXCLIENT1|52=20231201-14:46:39.480|10=041|
2023-12-01 15:47:01.298 [30] [FixSender] (DEBUG) Sending 8=FIX.4.4|9=58|35=0|49=FIXCLIENT1|56=DMA_HUB|34=166|52=20231201-14:47:01|10=090|
2023-12-01 15:47:09.438 [29] [FixSender] (DEBUG) Receiving 8=FIX.4.4|9=62|35=0|34=167|49=DMA_HUB|56=FIXCLIENT1|52=20231201-14:47:09.438|10=043|
2023-12-01 15:47:31.299 [30] [FixSender] (DEBUG) Sending 8=FIX.4.4|9=58|35=0|49=FIXCLIENT1|56=DMA_HUB|34=167|52=20231201-14:47:31|10=094|
2023-12-01 15:47:39.385 [29] [FixSender] (DEBUG) Receiving 8=FIX.4.4|9=62|35=0|34=168|49=DMA_HUB|56=FIXCLIENT1|52=20231201-14:47:39.384|10=047|
2023-12-01 15:48:01.310 [30] [FixSender] (DEBUG) Sending 8=FIX.4.4|9=58|35=0|49=FIXCLIENT1|56=DMA_HUB|34=168|52=20231201-14:48:01|10=093|
2023-12-01 15:48:09.344 [29] [FixSender] (DEBUG) Receiving 8=FIX.4.4|9=62|35=0|34=169|49=DMA_HUB|56=FIXCLIENT1|52=20231201-14:48:09.343|10=041|
2023-12-01 15:48:31.324 [30] [FixSender] (DEBUG) Sending 8=FIX.4.4|9=58|35=0|49=FIXCLIENT1|56=DMA_HUB|34=169|52=20231201-14:48:31|10=097|
2023-12-01 15:48:39.295 [29] [FixSender] (DEBUG) Receiving 8=FIX.4.4|9=62|35=0|34=170|49=DMA_HUB|56=FIXCLIENT1|52=20231201-14:48:39.293|10=040|
2023-12-01 15:49:01.337 [30] [FixSender] (DEBUG) Sending 8=FIX.4.4|9=58|35=0|49=FIXCLIENT1|56=DMA_HUB|34=170|52=20231201-14:49:01|10=087|
2023-12-01 15:49:09.256 [29] [FixSender] (DEBUG) Receiving 8=FIX.4.4|9=62|35=0|34=171|49=DMA_HUB|56=FIXCLIENT1|52=20231201-14:49:09.253|10=035|
2023-12-01 15:49:31.352 [30] [FixSender] (DEBUG) Sending 8=FIX.4.4|9=58|35=0|49=FIXCLIENT1|56=DMA_HUB|34=171|52=20231201-14:49:31|10=091|
2023-12-01 15:49:39.196 [29] [FixSender] (DEBUG) Receiving 8=FIX.4.4|9=62|35=0|34=172|49=DMA_HUB|56=FIXCLIENT1|52=20231201-14:49:39.196|10=045|
2023-12-01 15:50:01.366 [30] [FixSender] (DEBUG) Sending 8=FIX.4.4|9=58|35=0|49=FIXCLIENT1|56=DMA_HUB|34=172|52=20231201-14:50:01|10=081|
2023-12-01 15:50:09.146 [29] [FixSender] (DEBUG) Receiving 8=FIX.4.4|9=62|35=0|34=173|49=DMA_HUB|56=FIXCLIENT1|52=20231201-14:50:09.145|10=029|
2023-12-01 15:50:31.382 [30] [FixSender] (DEBUG) Sending 8=FIX.4.4|9=58|35=0|49=FIXCLIENT1|56=DMA_HUB|34=173|52=20231201-14:50:31|10=085|
2023-12-01 15:50:39.105 [29] [FixSender] (DEBUG) Receiving 8=FIX.4.4|9=62|35=0|34=174|49=DMA_HUB|56=FIXCLIENT1|52=20231201-14:50:39.104|10=028|
2023-12-01 15:51:01.387 [30] [FixSender] (DEBUG) Sending 8=FIX.4.4|9=58|35=0|49=FIXCLIENT1|56=DMA_HUB|34=174|52=20231201-14:51:01|10=084|
2023-12-01 15:51:09.050 [29] [FixSender] (DEBUG) Receiving 8=FIX.4.4|9=62|35=0|34=175|49=DMA_HUB|56=FIXCLIENT1|52=20231201-14:51:09.049|10=035|
2023-12-01 15:51:31.391 [30] [FixSender] (DEBUG) Sending 8=FIX.4.4|9=58|35=0|49=FIXCLIENT1|56=DMA_HUB|34=175|52=20231201-14:51:31|10=088|
2023-12-01 15:51:39.010 [29] [FixSender] (DEBUG) Receiving 8=FIX.4.4|9=62|35=0|34=176|49=DMA_HUB|56=FIXCLIENT1|52=20231201-14:51:39.009|10=035|
2023-12-01 15:52:01.400 [30] [FixSender] (DEBUG) Sending 8=FIX.4.4|9=58|35=0|49=FIXCLIENT1|56=DMA_HUB|34=176|52=20231201-14:52:01|10=087|
2023-12-01 15:52:08.963 [29] [FixSender] (DEBUG) Receiving 8=FIX.4.4|9=62|35=0|34=177|49=DMA_HUB|56=FIXCLIENT1|52=20231201-14:52:08.961|10=040|
2023-12-01 15:52:31.413 [30] [FixSender] (DEBUG) Sending 8=FIX.4.4|9=58|35=0|49=FIXCLIENT1|56=DMA_HUB|34=177|52=20231201-14:52:31|10=091|
2023-12-01 15:52:38.905 [29] [FixSender] (DEBUG) Receiving 8=FIX.4.4|9=62|35=0|34=178|49=DMA_HUB|56=FIXCLIENT1|52=20231201-14:52:38.905|10=042|
2023-12-01 15:53:01.414 [30] [FixSender] (DEBUG) Sending 8=FIX.4.4|9=58|35=0|49=FIXCLIENT1|56=DMA_HUB|34=178|52=20231201-14:53:01|10=090|
2023-12-01 15:53:08.864 [29] [FixSender] (DEBUG) Receiving 8=FIX.4.4|9=62|35=0|34=179|49=DMA_HUB|56=FIXCLIENT1|52=20231201-14:53:08.863|10=044|
2023-12-01 15:53:31.429 [30] [FixSender] (DEBUG) Sending 8=FIX.4.4|9=58|35=0|49=FIXCLIENT1|56=DMA_HUB|34=179|52=20231201-14:53:31|10=094|
2023-12-01 15:53:38.808 [29] [FixSender] (DEBUG) Receiving 8=FIX.4.4|9=62|35=0|34=180|49=DMA_HUB|56=FIXCLIENT1|52=20231201-14:53:38.808|10=038|
2023-12-01 15:54:01.439 [30] [FixSender] (DEBUG) Sending 8=FIX.4.4|9=58|35=0|49=FIXCLIENT1|56=DMA_HUB|34=180|52=20231201-14:54:01|10=084|
2023-12-01 15:54:08.780 [29] [FixSender] (DEBUG) Receiving 8=FIX.4.4|9=62|35=0|34=181|49=DMA_HUB|56=FIXCLIENT1|52=20231201-14:54:08.780|10=036|
2023-12-01 15:54:31.447 [30] [FixSender] (DEBUG) Sending 8=FIX.4.4|9=58|35=0|49=FIXCLIENT1|56=DMA_HUB|34=181|52=20231201-14:54:31|10=088|
2023-12-01 15:54:38.779 [29] [FixSender] (DEBUG) Receiving 8=FIX.4.4|9=62|35=0|34=182|49=DMA_HUB|56=FIXCLIENT1|52=20231201-14:54:38.779|10=048|
2023-12-01 15:55:01.457 [30] [FixSender] (DEBUG) Sending 8=FIX.4.4|9=58|35=0|49=FIXCLIENT1|56=DMA_HUB|34=182|52=20231201-14:55:01|10=087|
2023-12-01 15:55:08.734 [29] [FixSender] (DEBUG) Receiving 8=FIX.4.4|9=62|35=0|34=183|49=DMA_HUB|56=FIXCLIENT1|52=20231201-14:55:08.729|10=042|
2023-12-01 15:55:31.472 [30] [FixSender] (DEBUG) Sending 8=FIX.4.4|9=58|35=0|49=FIXCLIENT1|56=DMA_HUB|34=183|52=20231201-14:55:31|10=091|
2023-12-01 15:55:38.692 [29] [FixSender] (DEBUG) Receiving 8=FIX.4.4|9=62|35=0|34=184|49=DMA_HUB|56=FIXCLIENT1|52=20231201-14:55:38.691|10=044|
2023-12-01 15:56:01.485 [30] [FixSender] (DEBUG) Sending 8=FIX.4.4|9=58|35=0|49=FIXCLIENT1|56=DMA_HUB|34=184|52=20231201-14:56:01|10=090|
2023-12-01 15:56:08.633 [29] [FixSender] (DEBUG) Receiving 8=FIX.4.4|9=62|35=0|34=185|49=DMA_HUB|56=FIXCLIENT1|52=20231201-14:56:08.633|10=039|
2023-12-01 15:56:31.500 [30] [FixSender] (DEBUG) Sending 8=FIX.4.4|9=58|35=0|49=FIXCLIENT1|56=DMA_HUB|34=185|52=20231201-14:56:31|10=094|
2023-12-01 15:56:38.598 [29] [FixSender] (DEBUG) Receiving 8=FIX.4.4|9=62|35=0|34=186|49=DMA_HUB|56=FIXCLIENT1|52=20231201-14:56:38.598|10=053|
2023-12-01 15:57:01.512 [30] [FixSender] (DEBUG) Sending 8=FIX.4.4|9=58|35=0|49=FIXCLIENT1|56=DMA_HUB|34=186|52=20231201-14:57:01|10=093|
2023-12-01 15:57:08.538 [29] [FixSender] (DEBUG) Receiving 8=FIX.4.4|9=62|35=0|34=187|49=DMA_HUB|56=FIXCLIENT1|52=20231201-14:57:08.537|10=045|
2023-12-01 15:57:31.516 [30] [FixSender] (DEBUG) Sending 8=FIX.4.4|9=58|35=0|49=FIXCLIENT1|56=DMA_HUB|34=187|52=20231201-14:57:31|10=097|
2023-12-01 15:57:38.495 [29] [FixSender] (DEBUG) Receiving 8=FIX.4.4|9=62|35=0|34=188|49=DMA_HUB|56=FIXCLIENT1|52=20231201-14:57:38.494|10=051|
2023-12-01 15:58:01.532 [30] [FixSender] (DEBUG) Sending 8=FIX.4.4|9=58|35=0|49=FIXCLIENT1|56=DMA_HUB|34=188|52=20231201-14:58:01|10=096|
2023-12-01 15:58:08.444 [29] [FixSender] (DEBUG) Receiving 8=FIX.4.4|9=62|35=0|34=189|49=DMA_HUB|56=FIXCLIENT1|52=20231201-14:58:08.443|10=044|
2023-12-01 15:58:31.538 [30] [FixSender] (DEBUG) Sending 8=FIX.4.4|9=58|35=0|49=FIXCLIENT1|56=DMA_HUB|34=189|52=20231201-14:58:31|10=100|
2023-12-01 15:58:38.404 [29] [FixSender] (DEBUG) Receiving 8=FIX.4.4|9=62|35=0|34=190|49=DMA_HUB|56=FIXCLIENT1|52=20231201-14:58:38.403|10=035|
2023-12-01 15:59:01.544 [30] [FixSender] (DEBUG) Sending 8=FIX.4.4|9=58|35=0|49=FIXCLIENT1|56=DMA_HUB|34=190|52=20231201-14:59:01|10=090|
2023-12-01 15:59:08.356 [29] [FixSender] (DEBUG) Receiving 8=FIX.4.4|9=62|35=0|34=191|49=DMA_HUB|56=FIXCLIENT1|52=20231201-14:59:08.354|10=039|
2023-12-01 15:59:31.557 [30] [FixSender] (DEBUG) Sending 8=FIX.4.4|9=58|35=0|49=FIXCLIENT1|56=DMA_HUB|34=191|52=20231201-14:59:31|10=094|
2023-12-01 15:59:38.306 [29] [FixSender] (DEBUG) Receiving 8=FIX.4.4|9=62|35=0|34=192|49=DMA_HUB|56=FIXCLIENT1|52=20231201-14:59:38.304|10=038|
2023-12-01 16:00:01.561 [30] [FixSender] (DEBUG) Sending 8=FIX.4.4|9=58|35=0|49=FIXCLIENT1|56=DMA_HUB|34=192|52=20231201-15:00:01|10=079|
2023-12-01 16:00:08.252 [29] [FixSender] (DEBUG) Receiving 8=FIX.4.4|9=62|35=0|34=193|49=DMA_HUB|56=FIXCLIENT1|52=20231201-15:00:08.252|10=025|
2023-12-01 16:00:31.574 [30] [FixSender] (DEBUG) Sending 8=FIX.4.4|9=58|35=0|49=FIXCLIENT1|56=DMA_HUB|34=193|52=20231201-15:00:31|10=083|
2023-12-01 16:00:38.210 [29] [FixSender] (DEBUG) Receiving 8=FIX.4.4|9=62|35=0|34=194|49=DMA_HUB|56=FIXCLIENT1|52=20231201-15:00:38.208|10=030|
2023-12-01 16:01:01.585 [30] [FixSender] (DEBUG) Sending 8=FIX.4.4|9=58|35=0|49=FIXCLIENT1|56=DMA_HUB|34=194|52=20231201-15:01:01|10=082|
2023-12-01 16:01:08.164 [29] [FixSender] (DEBUG) Receiving 8=FIX.4.4|9=62|35=0|34=195|49=DMA_HUB|56=FIXCLIENT1|52=20231201-15:01:08.163|10=029|
2023-12-01 16:01:31.589 [30] [FixSender] (DEBUG) Sending 8=FIX.4.4|9=58|35=0|49=FIXCLIENT1|56=DMA_HUB|34=195|52=20231201-15:01:31|10=086|
2023-12-01 16:01:38.105 [29] [FixSender] (DEBUG) Receiving 8=FIX.4.4|9=62|35=0|34=196|49=DMA_HUB|56=FIXCLIENT1|52=20231201-15:01:38.105|10=029|
2023-12-01 16:02:01.590 [30] [FixSender] (DEBUG) Sending 8=FIX.4.4|9=58|35=0|49=FIXCLIENT1|56=DMA_HUB|34=196|52=20231201-15:02:01|10=085|
2023-12-01 16:02:08.064 [29] [FixSender] (DEBUG) Receiving 8=FIX.4.4|9=62|35=0|34=197|49=DMA_HUB|56=FIXCLIENT1|52=20231201-15:02:08.063|10=031|
2023-12-01 16:02:31.603 [30] [FixSender] (DEBUG) Sending 8=FIX.4.4|9=58|35=0|49=FIXCLIENT1|56=DMA_HUB|34=197|52=20231201-15:02:31|10=089|
2023-12-01 16:02:38.021 [29] [FixSender] (DEBUG) Receiving 8=FIX.4.4|9=62|35=0|34=198|49=DMA_HUB|56=FIXCLIENT1|52=20231201-15:02:38.015|10=032|
2023-12-01 16:03:01.607 [30] [FixSender] (DEBUG) Sending 8=FIX.4.4|9=58|35=0|49=FIXCLIENT1|56=DMA_HUB|34=198|52=20231201-15:03:01|10=088|
2023-12-01 16:03:07.968 [29] [FixSender] (DEBUG) Receiving 8=FIX.4.4|9=62|35=0|34=199|49=DMA_HUB|56=FIXCLIENT1|52=20231201-15:03:07.967|10=046|
2023-12-01 16:03:31.623 [30] [FixSender] (DEBUG) Sending 8=FIX.4.4|9=58|35=0|49=FIXCLIENT1|56=DMA_HUB|34=199|52=20231201-15:03:31|10=092|
2023-12-01 16:03:37.917 [29] [FixSender] (DEBUG) Receiving 8=FIX.4.4|9=62|35=0|34=200|49=DMA_HUB|56=FIXCLIENT1|52=20231201-15:03:37.917|10=027|
2023-12-01 16:04:01.634 [30] [FixSender] (DEBUG) Sending 8=FIX.4.4|9=58|35=0|49=FIXCLIENT1|56=DMA_HUB|34=200|52=20231201-15:04:01|10=073|
2023-12-01 16:04:07.871 [29] [FixSender] (DEBUG) Receiving 8=FIX.4.4|9=62|35=0|34=201|49=DMA_HUB|56=FIXCLIENT1|52=20231201-15:04:07.870|10=024|
2023-12-01 16:04:31.637 [30] [FixSender] (DEBUG) Sending 8=FIX.4.4|9=58|35=0|49=FIXCLIENT1|56=DMA_HUB|34=201|52=20231201-15:04:31|10=077|
2023-12-01 16:04:37.825 [29] [FixSender] (DEBUG) Receiving 8=FIX.4.4|9=62|35=0|34=202|49=DMA_HUB|56=FIXCLIENT1|52=20231201-15:04:37.825|10=028|
2023-12-01 16:05:01.651 [30] [FixSender] (DEBUG) Sending 8=FIX.4.4|9=58|35=0|49=FIXCLIENT1|56=DMA_HUB|34=202|52=20231201-15:05:01|10=076|
2023-12-01 16:05:07.783 [29] [FixSender] (DEBUG) Receiving 8=FIX.4.4|9=62|35=0|34=203|49=DMA_HUB|56=FIXCLIENT1|52=20231201-15:05:07.782|10=029|
2023-12-01 16:05:31.660 [30] [FixSender] (DEBUG) Sending 8=FIX.4.4|9=58|35=0|49=FIXCLIENT1|56=DMA_HUB|34=203|52=20231201-15:05:31|10=080|
2023-12-01 16:05:37.722 [29] [FixSender] (DEBUG) Receiving 8=FIX.4.4|9=62|35=0|34=204|49=DMA_HUB|56=FIXCLIENT1|52=20231201-15:05:37.721|10=026|
2023-12-01 16:06:01.671 [30] [FixSender] (DEBUG) Sending 8=FIX.4.4|9=58|35=0|49=FIXCLIENT1|56=DMA_HUB|34=204|52=20231201-15:06:01|10=079|
2023-12-01 16:06:07.678 [29] [FixSender] (DEBUG) Receiving 8=FIX.4.4|9=62|35=0|34=205|49=DMA_HUB|56=FIXCLIENT1|52=20231201-15:06:07.677|10=035|
2023-12-01 16:06:31.674 [30] [FixSender] (DEBUG) Sending 8=FIX.4.4|9=58|35=0|49=FIXCLIENT1|56=DMA_HUB|34=205|52=20231201-15:06:31|10=083|
2023-12-01 16:06:37.630 [29] [FixSender] (DEBUG) Receiving 8=FIX.4.4|9=62|35=0|34=206|49=DMA_HUB|56=FIXCLIENT1|52=20231201-15:06:37.629|10=036|
2023-12-01 16:07:01.677 [30] [FixSender] (DEBUG) Sending 8=FIX.4.4|9=58|35=0|49=FIXCLIENT1|56=DMA_HUB|34=206|52=20231201-15:07:01|10=082|
2023-12-01 16:07:07.588 [29] [FixSender] (DEBUG) Receiving 8=FIX.4.4|9=62|35=0|34=207|49=DMA_HUB|56=FIXCLIENT1|52=20231201-15:07:07.587|10=038|
2023-12-01 16:07:31.687 [30] [FixSender] (DEBUG) Sending 8=FIX.4.4|9=58|35=0|49=FIXCLIENT1|56=DMA_HUB|34=207|52=20231201-15:07:31|10=086|
2023-12-01 16:07:37.532 [29] [FixSender] (DEBUG) Receiving 8=FIX.4.4|9=62|35=0|34=208|49=DMA_HUB|56=FIXCLIENT1|52=20231201-15:07:37.532|10=032|
2023-12-01 16:08:01.698 [30] [FixSender] (DEBUG) Sending 8=FIX.4.4|9=58|35=0|49=FIXCLIENT1|56=DMA_HUB|34=208|52=20231201-15:08:01|10=085|
2023-12-01 16:08:07.486 [29] [FixSender] (DEBUG) Receiving 8=FIX.4.4|9=62|35=0|34=209|49=DMA_HUB|56=FIXCLIENT1|52=20231201-15:08:07.484|10=037|
2023-12-01 16:08:31.703 [30] [FixSender] (DEBUG) Sending 8=FIX.4.4|9=58|35=0|49=FIXCLIENT1|56=DMA_HUB|34=209|52=20231201-15:08:31|10=089|
2023-12-01 16:08:37.432 [29] [FixSender] (DEBUG) Receiving 8=FIX.4.4|9=62|35=0|34=210|49=DMA_HUB|56=FIXCLIENT1|52=20231201-15:08:37.432|10=025|
2023-12-01 16:09:01.714 [30] [FixSender] (DEBUG) Sending 8=FIX.4.4|9=58|35=0|49=FIXCLIENT1|56=DMA_HUB|34=210|52=20231201-15:09:01|10=079|
2023-12-01 16:09:07.390 [29] [FixSender] (DEBUG) Receiving 8=FIX.4.4|9=62|35=0|34=211|49=DMA_HUB|56=FIXCLIENT1|52=20231201-15:09:07.389|10=035|
2023-12-01 16:09:31.718 [30] [FixSender] (DEBUG) Sending 8=FIX.4.4|9=58|35=0|49=FIXCLIENT1|56=DMA_HUB|34=211|52=20231201-15:09:31|10=083|
2023-12-01 16:09:37.344 [29] [FixSender] (DEBUG) Receiving 8=FIX.4.4|9=62|35=0|34=212|49=DMA_HUB|56=FIXCLIENT1|52=20231201-15:09:37.343|10=029|
2023-12-01 16:10:01.727 [30] [FixSender] (DEBUG) Sending 8=FIX.4.4|9=58|35=0|49=FIXCLIENT1|56=DMA_HUB|34=212|52=20231201-15:10:01|10=073|
2023-12-01 16:10:07.302 [29] [FixSender] (DEBUG) Receiving 8=FIX.4.4|9=62|35=0|34=213|49=DMA_HUB|56=FIXCLIENT1|52=20231201-15:10:07.301|10=013|
2023-12-01 16:10:31.740 [30] [FixSender] (DEBUG) Sending 8=FIX.4.4|9=58|35=0|49=FIXCLIENT1|56=DMA_HUB|34=213|52=20231201-15:10:31|10=077|
2023-12-01 16:10:37.248 [29] [FixSender] (DEBUG) Receiving 8=FIX.4.4|9=62|35=0|34=214|49=DMA_HUB|56=FIXCLIENT1|52=20231201-15:10:37.248|10=027|
2023-12-01 16:11:01.755 [30] [FixSender] (DEBUG) Sending 8=FIX.4.4|9=58|35=0|49=FIXCLIENT1|56=DMA_HUB|34=214|52=20231201-15:11:01|10=076|
2023-12-01 16:11:07.206 [29] [FixSender] (DEBUG) Receiving 8=FIX.4.4|9=62|35=0|34=215|49=DMA_HUB|56=FIXCLIENT1|52=20231201-15:11:07.203|10=017|
2023-12-01 16:11:31.771 [30] [FixSender] (DEBUG) Sending 8=FIX.4.4|9=58|35=0|49=FIXCLIENT1|56=DMA_HUB|34=215|52=20231201-15:11:31|10=080|
2023-12-01 16:11:37.153 [29] [FixSender] (DEBUG) Receiving 8=FIX.4.4|9=62|35=0|34=216|49=DMA_HUB|56=FIXCLIENT1|52=20231201-15:11:37.152|10=024|
2023-12-01 16:12:01.782 [30] [FixSender] (DEBUG) Sending 8=FIX.4.4|9=58|35=0|49=FIXCLIENT1|56=DMA_HUB|34=216|52=20231201-15:12:01|10=079|
2023-12-01 16:12:07.098 [29] [FixSender] (DEBUG) Receiving 8=FIX.4.4|9=62|35=0|34=217|49=DMA_HUB|56=FIXCLIENT1|52=20231201-15:12:07.096|10=030|
2023-12-01 16:12:31.786 [30] [FixSender] (DEBUG) Sending 8=FIX.4.4|9=58|35=0|49=FIXCLIENT1|56=DMA_HUB|34=217|52=20231201-15:12:31|10=083|
2023-12-01 16:12:37.059 [29] [FixSender] (DEBUG) Receiving 8=FIX.4.4|9=62|35=0|34=218|49=DMA_HUB|56=FIXCLIENT1|52=20231201-15:12:37.055|10=029|
2023-12-01 16:13:01.790 [30] [FixSender] (DEBUG) Sending 8=FIX.4.4|9=58|35=0|49=FIXCLIENT1|56=DMA_HUB|34=218|52=20231201-15:13:01|10=082|
2023-12-01 16:13:07.005 [29] [FixSender] (DEBUG) Receiving 8=FIX.4.4|9=62|35=0|34=219|49=DMA_HUB|56=FIXCLIENT1|52=20231201-15:13:07.003|10=021|
2023-12-01 16:13:31.807 [30] [FixSender] (DEBUG) Sending 8=FIX.4.4|9=58|35=0|49=FIXCLIENT1|56=DMA_HUB|34=219|52=20231201-15:13:31|10=086|
2023-12-01 16:13:36.956 [29] [FixSender] (DEBUG) Receiving 8=FIX.4.4|9=62|35=0|34=220|49=DMA_HUB|56=FIXCLIENT1|52=20231201-15:13:36.956|10=032|
2023-12-01 16:14:01.823 [30] [FixSender] (DEBUG) Sending 8=FIX.4.4|9=58|35=0|49=FIXCLIENT1|56=DMA_HUB|34=220|52=20231201-15:14:01|10=076|
2023-12-01 16:14:06.905 [29] [FixSender] (DEBUG) Receiving 8=FIX.4.4|9=62|35=0|34=221|49=DMA_HUB|56=FIXCLIENT1|52=20231201-15:14:06.905|10=025|
2023-12-01 16:14:31.831 [30] [FixSender] (DEBUG) Sending 8=FIX.4.4|9=58|35=0|49=FIXCLIENT1|56=DMA_HUB|34=221|52=20231201-15:14:31|10=080|
2023-12-01 16:14:36.861 [29] [FixSender] (DEBUG) Receiving 8=FIX.4.4|9=62|35=0|34=222|49=DMA_HUB|56=FIXCLIENT1|52=20231201-15:14:36.860|10=029|
2023-12-01 16:15:01.836 [30] [FixSender] (DEBUG) Sending 8=FIX.4.4|9=58|35=0|49=FIXCLIENT1|56=DMA_HUB|34=222|52=20231201-15:15:01|10=079|
2023-12-01 16:15:06.811 [29] [FixSender] (DEBUG) Receiving 8=FIX.4.4|9=62|35=0|34=223|49=DMA_HUB|56=FIXCLIENT1|52=20231201-15:15:06.808|10=030|
2023-12-01 16:15:31.851 [30] [FixSender] (DEBUG) Sending 8=FIX.4.4|9=58|35=0|49=FIXCLIENT1|56=DMA_HUB|34=223|52=20231201-15:15:31|10=083|
2023-12-01 16:15:36.770 [29] [FixSender] (DEBUG) Receiving 8=FIX.4.4|9=62|35=0|34=224|49=DMA_HUB|56=FIXCLIENT1|52=20231201-15:15:36.770|10=032|
2023-12-01 16:16:01.865 [30] [FixSender] (DEBUG) Sending 8=FIX.4.4|9=58|35=0|49=FIXCLIENT1|56=DMA_HUB|34=224|52=20231201-15:16:01|10=082|
2023-12-01 16:16:06.718 [29] [FixSender] (DEBUG) Receiving 8=FIX.4.4|9=62|35=0|34=225|49=DMA_HUB|56=FIXCLIENT1|52=20231201-15:16:06.718|10=033|
2023-12-01 16:16:31.875 [30] [FixSender] (DEBUG) Sending 8=FIX.4.4|9=58|35=0|49=FIXCLIENT1|56=DMA_HUB|34=225|52=20231201-15:16:31|10=086|
2023-12-01 16:16:36.671 [29] [FixSender] (DEBUG) Receiving 8=FIX.4.4|9=62|35=0|34=226|49=DMA_HUB|56=FIXCLIENT1|52=20231201-15:16:36.670|10=034|
2023-12-01 16:17:01.882 [30] [FixSender] (DEBUG) Sending 8=FIX.4.4|9=58|35=0|49=FIXCLIENT1|56=DMA_HUB|34=226|52=20231201-15:17:01|10=085|
2023-12-01 16:17:06.631 [29] [FixSender] (DEBUG) Receiving 8=FIX.4.4|9=62|35=0|34=227|49=DMA_HUB|56=FIXCLIENT1|52=20231201-15:17:06.631|10=030|
2023-12-01 16:17:31.887 [30] [FixSender] (DEBUG) Sending 8=FIX.4.4|9=58|35=0|49=FIXCLIENT1|56=DMA_HUB|34=227|52=20231201-15:17:31|10=089|
2023-12-01 16:17:36.646 [29] [FixSender] (DEBUG) Receiving 8=FIX.4.4|9=62|35=0|34=228|49=DMA_HUB|56=FIXCLIENT1|52=20231201-15:17:36.644|10=038|
2023-12-01 16:18:01.896 [30] [FixSender] (DEBUG) Sending 8=FIX.4.4|9=58|35=0|49=FIXCLIENT1|56=DMA_HUB|34=228|52=20231201-15:18:01|10=088|
2023-12-01 16:18:06.592 [29] [FixSender] (DEBUG) Receiving 8=FIX.4.4|9=62|35=0|34=229|49=DMA_HUB|56=FIXCLIENT1|52=20231201-15:18:06.591|10=038|
2023-12-01 16:18:31.907 [30] [FixSender] (DEBUG) Sending 8=FIX.4.4|9=58|35=0|49=FIXCLIENT1|56=DMA_HUB|34=229|52=20231201-15:18:31|10=092|
2023-12-01 16:18:36.540 [29] [FixSender] (DEBUG) Receiving 8=FIX.4.4|9=62|35=0|34=230|49=DMA_HUB|56=FIXCLIENT1|52=20231201-15:18:36.540|10=027|
2023-12-01 16:19:01.910 [30] [FixSender] (DEBUG) Sending 8=FIX.4.4|9=58|35=0|49=FIXCLIENT1|56=DMA_HUB|34=230|52=20231201-15:19:01|10=082|
2023-12-01 16:19:06.498 [29] [FixSender] (DEBUG) Receiving 8=FIX.4.4|9=62|35=0|34=231|49=DMA_HUB|56=FIXCLIENT1|52=20231201-15:19:06.498|10=038|
2023-12-01 16:19:31.926 [30] [FixSender] (DEBUG) Sending 8=FIX.4.4|9=58|35=0|49=FIXCLIENT1|56=DMA_HUB|34=231|52=20231201-15:19:31|10=086|
2023-12-01 16:19:36.449 [29] [FixSender] (DEBUG) Receiving 8=FIX.4.4|9=62|35=0|34=232|49=DMA_HUB|56=FIXCLIENT1|52=20231201-15:19:36.449|10=038|
2023-12-01 16:20:01.939 [30] [FixSender] (DEBUG) Sending 8=FIX.4.4|9=58|35=0|49=FIXCLIENT1|56=DMA_HUB|34=232|52=20231201-15:20:01|10=076|
2023-12-01 16:20:06.398 [29] [FixSender] (DEBUG) Receiving 8=FIX.4.4|9=62|35=0|34=233|49=DMA_HUB|56=FIXCLIENT1|52=20231201-15:20:06.398|10=031|
2023-12-01 16:20:31.940 [30] [FixSender] (DEBUG) Sending 8=FIX.4.4|9=58|35=0|49=FIXCLIENT1|56=DMA_HUB|34=233|52=20231201-15:20:31|10=080|
2023-12-01 16:20:36.352 [29] [FixSender] (DEBUG) Receiving 8=FIX.4.4|9=62|35=0|34=234|49=DMA_HUB|56=FIXCLIENT1|52=20231201-15:20:36.352|10=025|
2023-12-01 16:21:01.949 [30] [FixSender] (DEBUG) Sending 8=FIX.4.4|9=58|35=0|49=FIXCLIENT1|56=DMA_HUB|34=234|52=20231201-15:21:01|10=079|
2023-12-01 16:21:06.308 [29] [FixSender] (DEBUG) Receiving 8=FIX.4.4|9=62|35=0|34=235|49=DMA_HUB|56=FIXCLIENT1|52=20231201-15:21:06.308|10=025|
2023-12-01 16:21:31.960 [30] [FixSender] (DEBUG) Sending 8=FIX.4.4|9=58|35=0|49=FIXCLIENT1|56=DMA_HUB|34=235|52=20231201-15:21:31|10=083|
2023-12-01 16:21:36.255 [29] [FixSender] (DEBUG) Receiving 8=FIX.4.4|9=62|35=0|34=236|49=DMA_HUB|56=FIXCLIENT1|52=20231201-15:21:36.255|10=030|
2023-12-01 16:22:01.965 [30] [FixSender] (DEBUG) Sending 8=FIX.4.4|9=58|35=0|49=FIXCLIENT1|56=DMA_HUB|34=236|52=20231201-15:22:01|10=082|
2023-12-01 16:22:06.208 [29] [FixSender] (DEBUG) Receiving 8=FIX.4.4|9=62|35=0|34=237|49=DMA_HUB|56=FIXCLIENT1|52=20231201-15:22:06.208|10=027|
2023-12-01 16:22:31.979 [30] [FixSender] (DEBUG) Sending 8=FIX.4.4|9=58|35=0|49=FIXCLIENT1|56=DMA_HUB|34=237|52=20231201-15:22:31|10=086|
2023-12-01 16:22:36.163 [29] [FixSender] (DEBUG) Receiving 8=FIX.4.4|9=62|35=0|34=238|49=DMA_HUB|56=FIXCLIENT1|52=20231201-15:22:36.162|10=030|
2023-12-01 16:23:01.986 [30] [FixSender] (DEBUG) Sending 8=FIX.4.4|9=58|35=0|49=FIXCLIENT1|56=DMA_HUB|34=238|52=20231201-15:23:01|10=085|
2023-12-01 16:23:06.117 [29] [FixSender] (DEBUG) Receiving 8=FIX.4.4|9=62|35=0|34=239|49=DMA_HUB|56=FIXCLIENT1|52=20231201-15:23:06.117|10=029|
2023-12-01 16:23:31.988 [30] [FixSender] (DEBUG) Sending 8=FIX.4.4|9=58|35=0|49=FIXCLIENT1|56=DMA_HUB|34=239|52=20231201-15:23:31|10=089|
2023-12-01 16:23:36.069 [29] [FixSender] (DEBUG) Receiving 8=FIX.4.4|9=62|35=0|34=240|49=DMA_HUB|56=FIXCLIENT1|52=20231201-15:23:36.069|10=030|
2023-12-01 16:24:02.004 [30] [FixSender] (DEBUG) Sending 8=FIX.4.4|9=58|35=0|49=FIXCLIENT1|56=DMA_HUB|34=240|52=20231201-15:24:02|10=080|
2023-12-01 16:24:06.018 [29] [FixSender] (DEBUG) Receiving 8=FIX.4.4|9=62|35=0|34=241|49=DMA_HUB|56=FIXCLIENT1|52=20231201-15:24:06.018|10=023|
2023-12-01 16:24:32.019 [30] [FixSender] (DEBUG) Sending 8=FIX.4.4|9=58|35=0|49=FIXCLIENT1|56=DMA_HUB|34=241|52=20231201-15:24:32|10=084|
2023-12-01 16:24:35.966 [29] [FixSender] (DEBUG) Receiving 8=FIX.4.4|9=62|35=0|34=242|49=DMA_HUB|56=FIXCLIENT1|52=20231201-15:24:35.966|10=038|
2023-12-01 16:25:02.030 [30] [FixSender] (DEBUG) Sending 8=FIX.4.4|9=58|35=0|49=FIXCLIENT1|56=DMA_HUB|34=242|52=20231201-15:25:02|10=083|
2023-12-01 16:25:05.926 [29] [FixSender] (DEBUG) Receiving 8=FIX.4.4|9=62|35=0|34=243|49=DMA_HUB|56=FIXCLIENT1|52=20231201-15:25:05.925|10=032|
2023-12-01 16:25:32.039 [30] [FixSender] (DEBUG) Sending 8=FIX.4.4|9=58|35=0|49=FIXCLIENT1|56=DMA_HUB|34=243|52=20231201-15:25:32|10=087|
2023-12-01 16:25:35.869 [29] [FixSender] (DEBUG) Receiving 8=FIX.4.4|9=62|35=0|34=244|49=DMA_HUB|56=FIXCLIENT1|52=20231201-15:25:35.869|10=043|
2023-12-01 16:26:02.058 [30] [FixSender] (DEBUG) Sending 8=FIX.4.4|9=58|35=0|49=FIXCLIENT1|56=DMA_HUB|34=244|52=20231201-15:26:02|10=086|
2023-12-01 16:26:05.816 [29] [FixSender] (DEBUG) Receiving 8=FIX.4.4|9=62|35=0|34=245|49=DMA_HUB|56=FIXCLIENT1|52=20231201-15:26:05.816|10=034|
2023-12-01 16:26:32.061 [30] [FixSender] (DEBUG) Sending 8=FIX.4.4|9=58|35=0|49=FIXCLIENT1|56=DMA_HUB|34=245|52=20231201-15:26:32|10=090|
2023-12-01 16:26:35.770 [29] [FixSender] (DEBUG) Receiving 8=FIX.4.4|9=62|35=0|34=246|49=DMA_HUB|56=FIXCLIENT1|52=20231201-15:26:35.770|10=037|
2023-12-01 16:27:02.065 [30] [FixSender] (DEBUG) Sending 8=FIX.4.4|9=58|35=0|49=FIXCLIENT1|56=DMA_HUB|34=246|52=20231201-15:27:02|10=089|
2023-12-01 16:27:05.719 [29] [FixSender] (DEBUG) Receiving 8=FIX.4.4|9=62|35=0|34=247|49=DMA_HUB|56=FIXCLIENT1|52=20231201-15:27:05.719|10=039|
2023-12-01 16:27:32.079 [30] [FixSender] (DEBUG) Sending 8=FIX.4.4|9=58|35=0|49=FIXCLIENT1|56=DMA_HUB|34=247|52=20231201-15:27:32|10=093|
2023-12-01 16:27:35.680 [29] [FixSender] (DEBUG) Receiving 8=FIX.4.4|9=62|35=0|34=248|49=DMA_HUB|56=FIXCLIENT1|52=20231201-15:27:35.680|10=040|
2023-12-01 16:28:02.094 [30] [FixSender] (DEBUG) Sending 8=FIX.4.4|9=58|35=0|49=FIXCLIENT1|56=DMA_HUB|34=248|52=20231201-15:28:02|10=092|
2023-12-01 16:28:05.632 [29] [FixSender] (DEBUG) Receiving 8=FIX.4.4|9=62|35=0|34=249|49=DMA_HUB|56=FIXCLIENT1|52=20231201-15:28:05.632|10=036|
2023-12-01 16:28:32.098 [30] [FixSender] (DEBUG) Sending 8=FIX.4.4|9=58|35=0|49=FIXCLIENT1|56=DMA_HUB|34=249|52=20231201-15:28:32|10=096|
2023-12-01 16:28:35.589 [29] [FixSender] (DEBUG) Receiving 8=FIX.4.4|9=62|35=0|34=250|49=DMA_HUB|56=FIXCLIENT1|52=20231201-15:28:35.588|10=041|
2023-12-01 16:29:02.108 [30] [FixSender] (DEBUG) Sending 8=FIX.4.4|9=58|35=0|49=FIXCLIENT1|56=DMA_HUB|34=250|52=20231201-15:29:02|10=086|
2023-12-01 16:29:05.544 [29] [FixSender] (DEBUG) Receiving 8=FIX.4.4|9=62|35=0|34=251|49=DMA_HUB|56=FIXCLIENT1|52=20231201-15:29:05.542|10=030|
2023-12-01 16:29:32.125 [30] [FixSender] (DEBUG) Sending 8=FIX.4.4|9=58|35=0|49=FIXCLIENT1|56=DMA_HUB|34=251|52=20231201-15:29:32|10=090|
2023-12-01 16:29:35.493 [29] [FixSender] (DEBUG) Receiving 8=FIX.4.4|9=62|35=0|34=252|49=DMA_HUB|56=FIXCLIENT1|52=20231201-15:29:35.493|10=039|
2023-12-01 16:30:02.126 [30] [FixSender] (DEBUG) Sending 8=FIX.4.4|9=58|35=0|49=FIXCLIENT1|56=DMA_HUB|34=252|52=20231201-15:30:02|10=080|
2023-12-01 16:30:05.443 [29] [FixSender] (DEBUG) Receiving 8=FIX.4.4|9=62|35=0|34=253|49=DMA_HUB|56=FIXCLIENT1|52=20231201-15:30:05.441|10=022|
2023-12-01 16:30:32.134 [30] [FixSender] (DEBUG) Sending 8=FIX.4.4|9=58|35=0|49=FIXCLIENT1|56=DMA_HUB|34=253|52=20231201-15:30:32|10=084|
2023-12-01 16:30:35.391 [29] [FixSender] (DEBUG) Receiving 8=FIX.4.4|9=62|35=0|34=254|49=DMA_HUB|56=FIXCLIENT1|52=20231201-15:30:35.390|10=029|
2023-12-01 16:31:02.143 [30] [FixSender] (DEBUG) Sending 8=FIX.4.4|9=58|35=0|49=FIXCLIENT1|56=DMA_HUB|34=254|52=20231201-15:31:02|10=083|
2023-12-01 16:31:05.345 [29] [FixSender] (DEBUG) Receiving 8=FIX.4.4|9=62|35=0|34=255|49=DMA_HUB|56=FIXCLIENT1|52=20231201-15:31:05.345|10=028|
2023-12-01 16:31:32.162 [30] [FixSender] (DEBUG) Sending 8=FIX.4.4|9=58|35=0|49=FIXCLIENT1|56=DMA_HUB|34=255|52=20231201-15:31:32|10=087|
2023-12-01 16:31:35.301 [29] [FixSender] (DEBUG) Receiving 8=FIX.4.4|9=62|35=0|34=256|49=DMA_HUB|56=FIXCLIENT1|52=20231201-15:31:35.300|10=023|
2023-12-01 16:32:02.171 [30] [FixSender] (DEBUG) Sending 8=FIX.4.4|9=58|35=0|49=FIXCLIENT1|56=DMA_HUB|34=256|52=20231201-15:32:02|10=086|
2023-12-01 16:32:05.245 [29] [FixSender] (DEBUG) Receiving 8=FIX.4.4|9=62|35=0|34=257|49=DMA_HUB|56=FIXCLIENT1|52=20231201-15:32:05.245|10=030|
2023-12-01 16:32:32.184 [30] [FixSender] (DEBUG) Sending 8=FIX.4.4|9=58|35=0|49=FIXCLIENT1|56=DMA_HUB|34=257|52=20231201-15:32:32|10=090|
2023-12-01 16:32:35.198 [29] [FixSender] (DEBUG) Receiving 8=FIX.4.4|9=62|35=0|34=258|49=DMA_HUB|56=FIXCLIENT1|52=20231201-15:32:35.196|10=039|
2023-12-01 16:33:02.191 [30] [FixSender] (DEBUG) Sending 8=FIX.4.4|9=58|35=0|49=FIXCLIENT1|56=DMA_HUB|34=258|52=20231201-15:33:02|10=089|
2023-12-01 16:33:05.145 [29] [FixSender] (DEBUG) Receiving 8=FIX.4.4|9=62|35=0|34=259|49=DMA_HUB|56=FIXCLIENT1|52=20231201-15:33:05.145|10=032|
2023-12-01 16:33:32.207 [30] [FixSender] (DEBUG) Sending 8=FIX.4.4|9=58|35=0|49=FIXCLIENT1|56=DMA_HUB|34=259|52=20231201-15:33:32|10=093|
2023-12-01 16:33:35.104 [29] [FixSender] (DEBUG) Receiving 8=FIX.4.4|9=62|35=0|34=260|49=DMA_HUB|56=FIXCLIENT1|52=20231201-15:33:35.104|10=022|
2023-12-01 16:34:02.221 [30] [FixSender] (DEBUG) Sending 8=FIX.4.4|9=58|35=0|49=FIXCLIENT1|56=DMA_HUB|34=260|52=20231201-15:34:02|10=083|
2023-12-01 16:34:05.057 [29] [FixSender] (DEBUG) Receiving 8=FIX.4.4|9=62|35=0|34=261|49=DMA_HUB|56=FIXCLIENT1|52=20231201-15:34:05.057|10=028|
2023-12-01 16:34:32.230 [30] [FixSender] (DEBUG) Sending 8=FIX.4.4|9=58|35=0|49=FIXCLIENT1|56=DMA_HUB|34=261|52=20231201-15:34:32|10=087|
2023-12-01 16:34:35.007 [29] [FixSender] (DEBUG) Receiving 8=FIX.4.4|9=62|35=0|34=262|49=DMA_HUB|56=FIXCLIENT1|52=20231201-15:34:35.007|10=027|
2023-12-01 16:35:02.232 [30] [FixSender] (DEBUG) Sending 8=FIX.4.4|9=58|35=0|49=FIXCLIENT1|56=DMA_HUB|34=262|52=20231201-15:35:02|10=086|
2023-12-01 16:35:04.956 [29] [FixSender] (DEBUG) Receiving 8=FIX.4.4|9=62|35=0|34=263|49=DMA_HUB|56=FIXCLIENT1|52=20231201-15:35:04.956|10=038|
2023-12-01 16:35:32.246 [30] [FixSender] (DEBUG) Sending 8=FIX.4.4|9=58|35=0|49=FIXCLIENT1|56=DMA_HUB|34=263|52=20231201-15:35:32|10=090|
2023-12-01 16:35:34.908 [29] [FixSender] (DEBUG) Receiving 8=FIX.4.4|9=62|35=0|34=264|49=DMA_HUB|56=FIXCLIENT1|52=20231201-15:35:34.908|10=039|
2023-12-01 16:36:02.255 [30] [FixSender] (DEBUG) Sending 8=FIX.4.4|9=58|35=0|49=FIXCLIENT1|56=DMA_HUB|34=264|52=20231201-15:36:02|10=089|
2023-12-01 16:36:04.856 [29] [FixSender] (DEBUG) Receiving 8=FIX.4.4|9=62|35=0|34=265|49=DMA_HUB|56=FIXCLIENT1|52=20231201-15:36:04.856|10=040|
2023-12-01 16:36:32.258 [30] [FixSender] (DEBUG) Sending 8=FIX.4.4|9=58|35=0|49=FIXCLIENT1|56=DMA_HUB|34=265|52=20231201-15:36:32|10=093|
2023-12-01 16:36:34.824 [29] [FixSender] (DEBUG) Receiving 8=FIX.4.4|9=62|35=0|34=266|49=DMA_HUB|56=FIXCLIENT1|52=20231201-15:36:34.822|10=037|
2023-12-01 16:37:02.262 [30] [FixSender] (DEBUG) Sending 8=FIX.4.4|9=58|35=0|49=FIXCLIENT1|56=DMA_HUB|34=266|52=20231201-15:37:02|10=092|
2023-12-01 16:37:04.773 [29] [FixSender] (DEBUG) Receiving 8=FIX.4.4|9=62|35=0|34=267|49=DMA_HUB|56=FIXCLIENT1|52=20231201-15:37:04.772|10=040|
2023-12-01 16:37:32.264 [30] [FixSender] (DEBUG) Sending 8=FIX.4.4|9=58|35=0|49=FIXCLIENT1|56=DMA_HUB|34=267|52=20231201-15:37:32|10=096|
2023-12-01 16:37:34.719 [29] [FixSender] (DEBUG) Receiving 8=FIX.4.4|9=62|35=0|34=268|49=DMA_HUB|56=FIXCLIENT1|52=20231201-15:37:34.719|10=045|
2023-12-01 16:38:02.269 [30] [FixSender] (DEBUG) Sending 8=FIX.4.4|9=58|35=0|49=FIXCLIENT1|56=DMA_HUB|34=268|52=20231201-15:38:02|10=095|
2023-12-01 16:38:04.669 [29] [FixSender] (DEBUG) Receiving 8=FIX.4.4|9=62|35=0|34=269|49=DMA_HUB|56=FIXCLIENT1|52=20231201-15:38:04.669|10=048|
2023-12-01 16:38:32.286 [30] [FixSender] (DEBUG) Sending 8=FIX.4.4|9=58|35=0|49=FIXCLIENT1|56=DMA_HUB|34=269|52=20231201-15:38:32|10=099|
2023-12-01 16:38:34.618 [29] [FixSender] (DEBUG) Receiving 8=FIX.4.4|9=62|35=0|34=270|49=DMA_HUB|56=FIXCLIENT1|52=20231201-15:38:34.618|10=037|
2023-12-01 16:39:02.301 [30] [FixSender] (DEBUG) Sending 8=FIX.4.4|9=58|35=0|49=FIXCLIENT1|56=DMA_HUB|34=270|52=20231201-15:39:02|10=089|
2023-12-01 16:39:04.584 [29] [FixSender] (DEBUG) Receiving 8=FIX.4.4|9=62|35=0|34=271|49=DMA_HUB|56=FIXCLIENT1|52=20231201-15:39:04.583|10=037|
2023-12-01 16:39:32.316 [30] [FixSender] (DEBUG) Sending 8=FIX.4.4|9=58|35=0|49=FIXCLIENT1|56=DMA_HUB|34=271|52=20231201-15:39:32|10=093|
2023-12-01 16:39:34.599 [29] [FixSender] (DEBUG) Receiving 8=FIX.4.4|9=62|35=0|34=272|49=DMA_HUB|56=FIXCLIENT1|52=20231201-15:39:34.598|10=047|
2023-12-01 16:40:02.331 [30] [FixSender] (DEBUG) Sending 8=FIX.4.4|9=58|35=0|49=FIXCLIENT1|56=DMA_HUB|34=272|52=20231201-15:40:02|10=083|
2023-12-01 16:40:04.539 [29] [FixSender] (DEBUG) Receiving 8=FIX.4.4|9=62|35=0|34=273|49=DMA_HUB|56=FIXCLIENT1|52=20231201-15:40:04.539|10=032|
2023-12-01 16:40:32.343 [30] [FixSender] (DEBUG) Sending 8=FIX.4.4|9=58|35=0|49=FIXCLIENT1|56=DMA_HUB|34=273|52=20231201-15:40:32|10=087|
2023-12-01 16:40:34.494 [29] [FixSender] (DEBUG) Receiving 8=FIX.4.4|9=62|35=0|34=274|49=DMA_HUB|56=FIXCLIENT1|52=20231201-15:40:34.494|10=036|
2023-12-01 16:41:02.358 [30] [FixSender] (DEBUG) Sending 8=FIX.4.4|9=58|35=0|49=FIXCLIENT1|56=DMA_HUB|34=274|52=20231201-15:41:02|10=086|
2023-12-01 16:41:04.446 [29] [FixSender] (DEBUG) Receiving 8=FIX.4.4|9=62|35=0|34=275|49=DMA_HUB|56=FIXCLIENT1|52=20231201-15:41:04.446|10=032|
2023-12-01 16:41:32.364 [30] [FixSender] (DEBUG) Sending 8=FIX.4.4|9=58|35=0|49=FIXCLIENT1|56=DMA_HUB|34=275|52=20231201-15:41:32|10=090|
2023-12-01 16:41:34.405 [29] [FixSender] (DEBUG) Receiving 8=FIX.4.4|9=62|35=0|34=276|49=DMA_HUB|56=FIXCLIENT1|52=20231201-15:41:34.405|10=031|
2023-12-01 16:42:02.376 [30] [FixSender] (DEBUG) Sending 8=FIX.4.4|9=58|35=0|49=FIXCLIENT1|56=DMA_HUB|34=276|52=20231201-15:42:02|10=089|
2023-12-01 16:42:04.353 [29] [FixSender] (DEBUG) Receiving 8=FIX.4.4|9=62|35=0|34=277|49=DMA_HUB|56=FIXCLIENT1|52=20231201-15:42:04.353|10=032|
2023-12-01 16:42:32.385 [30] [FixSender] (DEBUG) Sending 8=FIX.4.4|9=58|35=0|49=FIXCLIENT1|56=DMA_HUB|34=277|52=20231201-15:42:32|10=093|
2023-12-01 16:42:34.301 [29] [FixSender] (DEBUG) Receiving 8=FIX.4.4|9=62|35=0|34=278|49=DMA_HUB|56=FIXCLIENT1|52=20231201-15:42:34.301|10=029|
2023-12-01 16:43:02.397 [30] [FixSender] (DEBUG) Sending 8=FIX.4.4|9=58|35=0|49=FIXCLIENT1|56=DMA_HUB|34=278|52=20231201-15:43:02|10=092|
2023-12-01 16:43:04.249 [29] [FixSender] (DEBUG) Receiving 8=FIX.4.4|9=62|35=0|34=279|49=DMA_HUB|56=FIXCLIENT1|52=20231201-15:43:04.249|10=039|
2023-12-01 16:43:32.407 [30] [FixSender] (DEBUG) Sending 8=FIX.4.4|9=58|35=0|49=FIXCLIENT1|56=DMA_HUB|34=279|52=20231201-15:43:32|10=096|
2023-12-01 16:43:34.208 [29] [FixSender] (DEBUG) Receiving 8=FIX.4.4|9=62|35=0|34=280|49=DMA_HUB|56=FIXCLIENT1|52=20231201-15:43:34.208|10=029|
2023-12-01 16:44:02.419 [30] [FixSender] (DEBUG) Sending 8=FIX.4.4|9=58|35=0|49=FIXCLIENT1|56=DMA_HUB|34=280|52=20231201-15:44:02|10=086|
2023-12-01 16:44:04.158 [29] [FixSender] (DEBUG) Receiving 8=FIX.4.4|9=62|35=0|34=281|49=DMA_HUB|56=FIXCLIENT1|52=20231201-15:44:04.158|10=032|
2023-12-01 16:44:32.430 [30] [FixSender] (DEBUG) Sending 8=FIX.4.4|9=58|35=0|49=FIXCLIENT1|56=DMA_HUB|34=281|52=20231201-15:44:32|10=090|
2023-12-01 16:44:34.108 [29] [FixSender] (DEBUG) Receiving 8=FIX.4.4|9=62|35=0|34=282|49=DMA_HUB|56=FIXCLIENT1|52=20231201-15:44:34.108|10=031|
2023-12-01 16:45:02.433 [30] [FixSender] (DEBUG) Sending 8=FIX.4.4|9=58|35=0|49=FIXCLIENT1|56=DMA_HUB|34=282|52=20231201-15:45:02|10=089|
2023-12-01 16:45:04.068 [29] [FixSender] (DEBUG) Receiving 8=FIX.4.4|9=62|35=0|34=283|49=DMA_HUB|56=FIXCLIENT1|52=20231201-15:45:04.067|10=034|
2023-12-01 16:45:32.443 [30] [FixSender] (DEBUG) Sending 8=FIX.4.4|9=58|35=0|49=FIXCLIENT1|56=DMA_HUB|34=283|52=20231201-15:45:32|10=093|
2023-12-01 16:45:34.010 [29] [FixSender] (DEBUG) Receiving 8=FIX.4.4|9=62|35=0|34=284|49=DMA_HUB|56=FIXCLIENT1|52=20231201-15:45:34.010|10=026|
2023-12-01 16:46:02.453 [30] [FixSender] (DEBUG) Sending 8=FIX.4.4|9=58|35=0|49=FIXCLIENT1|56=DMA_HUB|34=284|52=20231201-15:46:02|10=092|
2023-12-01 16:46:03.972 [29] [FixSender] (DEBUG) Receiving 8=FIX.4.4|9=62|35=0|34=285|49=DMA_HUB|56=FIXCLIENT1|52=20231201-15:46:03.972|10=041|
2023-12-01 16:46:32.460 [30] [FixSender] (DEBUG) Sending 8=FIX.4.4|9=58|35=0|49=FIXCLIENT1|56=DMA_HUB|34=285|52=20231201-15:46:32|10=096|
2023-12-01 16:46:33.915 [29] [FixSender] (DEBUG) Receiving 8=FIX.4.4|9=62|35=0|34=286|49=DMA_HUB|56=FIXCLIENT1|52=20231201-15:46:33.914|10=041|
2023-12-01 16:47:02.473 [30] [FixSender] (DEBUG) Sending 8=FIX.4.4|9=58|35=0|49=FIXCLIENT1|56=DMA_HUB|34=286|52=20231201-15:47:02|10=095|
2023-12-01 16:47:03.868 [29] [FixSender] (DEBUG) Receiving 8=FIX.4.4|9=62|35=0|34=287|49=DMA_HUB|56=FIXCLIENT1|52=20231201-15:47:03.868|10=048|
2023-12-01 16:47:32.476 [30] [FixSender] (DEBUG) Sending 8=FIX.4.4|9=58|35=0|49=FIXCLIENT1|56=DMA_HUB|34=287|52=20231201-15:47:32|10=099|
2023-12-01 16:47:33.826 [29] [FixSender] (DEBUG) Receiving 8=FIX.4.4|9=62|35=0|34=288|49=DMA_HUB|56=FIXCLIENT1|52=20231201-15:47:33.825|10=045|
2023-12-01 16:48:02.492 [30] [FixSender] (DEBUG) Sending 8=FIX.4.4|9=58|35=0|49=FIXCLIENT1|56=DMA_HUB|34=288|52=20231201-15:48:02|10=098|
2023-12-01 16:48:03.774 [29] [FixSender] (DEBUG) Receiving 8=FIX.4.4|9=62|35=0|34=289|49=DMA_HUB|56=FIXCLIENT1|52=20231201-15:48:03.773|10=046|
2023-12-01 16:48:32.506 [30] [FixSender] (DEBUG) Sending 8=FIX.4.4|9=58|35=0|49=FIXCLIENT1|56=DMA_HUB|34=289|52=20231201-15:48:32|10=102|
2023-12-01 16:48:33.729 [29] [FixSender] (DEBUG) Receiving 8=FIX.4.4|9=62|35=0|34=290|49=DMA_HUB|56=FIXCLIENT1|52=20231201-15:48:33.729|10=042|
2023-12-01 16:49:02.522 [30] [FixSender] (DEBUG) Sending 8=FIX.4.4|9=58|35=0|49=FIXCLIENT1|56=DMA_HUB|34=290|52=20231201-15:49:02|10=092|
2023-12-01 16:49:03.672 [29] [FixSender] (DEBUG) Receiving 8=FIX.4.4|9=62|35=0|34=291|49=DMA_HUB|56=FIXCLIENT1|52=20231201-15:49:03.672|10=038|
2023-12-01 16:49:32.525 [30] [FixSender] (DEBUG) Sending 8=FIX.4.4|9=58|35=0|49=FIXCLIENT1|56=DMA_HUB|34=291|52=20231201-15:49:32|10=096|
2023-12-01 16:49:33.641 [29] [FixSender] (DEBUG) Receiving 8=FIX.4.4|9=62|35=0|34=292|49=DMA_HUB|56=FIXCLIENT1|52=20231201-15:49:33.637|10=043|
2023-12-01 16:50:02.535 [30] [FixSender] (DEBUG) Sending 8=FIX.4.4|9=58|35=0|49=FIXCLIENT1|56=DMA_HUB|34=292|52=20231201-15:50:02|10=086|
2023-12-01 16:50:03.583 [29] [FixSender] (DEBUG) Receiving 8=FIX.4.4|9=62|35=0|34=293|49=DMA_HUB|56=FIXCLIENT1|52=20231201-15:50:03.583|10=033|
2023-12-01 16:50:32.536 [30] [FixSender] (DEBUG) Sending 8=FIX.4.4|9=58|35=0|49=FIXCLIENT1|56=DMA_HUB|34=293|52=20231201-15:50:32|10=090|
2023-12-01 16:50:33.534 [29] [FixSender] (DEBUG) Receiving 8=FIX.4.4|9=62|35=0|34=294|49=DMA_HUB|56=FIXCLIENT1|52=20231201-15:50:33.534|10=033|
2023-12-01 16:51:02.550 [30] [FixSender] (DEBUG) Sending 8=FIX.4.4|9=58|35=0|49=FIXCLIENT1|56=DMA_HUB|34=294|52=20231201-15:51:02|10=089|
2023-12-01 16:51:03.483 [29] [FixSender] (DEBUG) Receiving 8=FIX.4.4|9=62|35=0|34=295|49=DMA_HUB|56=FIXCLIENT1|52=20231201-15:51:03.482|10=034|
2023-12-01 16:51:32.565 [30] [FixSender] (DEBUG) Sending 8=FIX.4.4|9=58|35=0|49=FIXCLIENT1|56=DMA_HUB|34=295|52=20231201-15:51:32|10=093|
2023-12-01 16:51:33.433 [29] [FixSender] (DEBUG) Receiving 8=FIX.4.4|9=62|35=0|34=296|49=DMA_HUB|56=FIXCLIENT1|52=20231201-15:51:33.432|10=033|
2023-12-01 16:52:02.578 [30] [FixSender] (DEBUG) Sending 8=FIX.4.4|9=58|35=0|49=FIXCLIENT1|56=DMA_HUB|34=296|52=20231201-15:52:02|10=092|
2023-12-01 16:52:03.397 [29] [FixSender] (DEBUG) Receiving 8=FIX.4.4|9=62|35=0|34=297|49=DMA_HUB|56=FIXCLIENT1|52=20231201-15:52:03.396|10=041|
2023-12-01 16:52:32.593 [30] [FixSender] (DEBUG) Sending 8=FIX.4.4|9=58|35=0|49=FIXCLIENT1|56=DMA_HUB|34=297|52=20231201-15:52:32|10=096|
2023-12-01 16:52:33.346 [29] [FixSender] (DEBUG) Receiving 8=FIX.4.4|9=62|35=0|34=298|49=DMA_HUB|56=FIXCLIENT1|52=20231201-15:52:33.345|10=039|
2023-12-01 16:53:02.596 [30] [FixSender] (DEBUG) Sending 8=FIX.4.4|9=58|35=0|49=FIXCLIENT1|56=DMA_HUB|34=298|52=20231201-15:53:02|10=095|
2023-12-01 16:53:03.299 [29] [FixSender] (DEBUG) Receiving 8=FIX.4.4|9=62|35=0|34=299|49=DMA_HUB|56=FIXCLIENT1|52=20231201-15:53:03.299|10=046|
2023-12-01 16:53:32.599 [30] [FixSender] (DEBUG) Sending 8=FIX.4.4|9=58|35=0|49=FIXCLIENT1|56=DMA_HUB|34=299|52=20231201-15:53:32|10=099|
2023-12-01 16:53:33.251 [29] [FixSender] (DEBUG) Receiving 8=FIX.4.4|9=62|35=0|34=300|49=DMA_HUB|56=FIXCLIENT1|52=20231201-15:53:33.251|10=020|
2023-12-01 16:54:02.605 [30] [FixSender] (DEBUG) Sending 8=FIX.4.4|9=58|35=0|49=FIXCLIENT1|56=DMA_HUB|34=300|52=20231201-15:54:02|10=080|
2023-12-01 16:54:03.200 [29] [FixSender] (DEBUG) Receiving 8=FIX.4.4|9=62|35=0|34=301|49=DMA_HUB|56=FIXCLIENT1|52=20231201-15:54:03.199|10=030|
2023-12-01 16:54:32.610 [30] [FixSender] (DEBUG) Sending 8=FIX.4.4|9=58|35=0|49=FIXCLIENT1|56=DMA_HUB|34=301|52=20231201-15:54:32|10=084|
2023-12-01 16:54:33.152 [29] [FixSender] (DEBUG) Receiving 8=FIX.4.4|9=62|35=0|34=302|49=DMA_HUB|56=FIXCLIENT1|52=20231201-15:54:33.152|10=023|
2023-12-01 16:55:02.619 [30] [FixSender] (DEBUG) Sending 8=FIX.4.4|9=58|35=0|49=FIXCLIENT1|56=DMA_HUB|34=302|52=20231201-15:55:02|10=083|
2023-12-01 16:55:03.104 [29] [FixSender] (DEBUG) Receiving 8=FIX.4.4|9=62|35=0|34=303|49=DMA_HUB|56=FIXCLIENT1|52=20231201-15:55:03.104|10=019|
2023-12-01 16:55:32.621 [30] [FixSender] (DEBUG) Sending 8=FIX.4.4|9=58|35=0|49=FIXCLIENT1|56=DMA_HUB|34=303|52=20231201-15:55:32|10=087|
2023-12-01 16:55:33.055 [29] [FixSender] (DEBUG) Receiving 8=FIX.4.4|9=62|35=0|34=304|49=DMA_HUB|56=FIXCLIENT1|52=20231201-15:55:33.054|10=027|
2023-12-01 16:56:02.627 [30] [FixSender] (DEBUG) Sending 8=FIX.4.4|9=58|35=0|49=FIXCLIENT1|56=DMA_HUB|34=304|52=20231201-15:56:02|10=086|
2023-12-01 16:56:03.004 [29] [FixSender] (DEBUG) Receiving 8=FIX.4.4|9=62|35=0|34=305|49=DMA_HUB|56=FIXCLIENT1|52=20231201-15:56:03.004|10=021|
2023-12-01 16:56:32.642 [30] [FixSender] (DEBUG) Sending 8=FIX.4.4|9=58|35=0|49=FIXCLIENT1|56=DMA_HUB|34=305|52=20231201-15:56:32|10=090|
2023-12-01 16:56:32.957 [29] [FixSender] (DEBUG) Receiving 8=FIX.4.4|9=62|35=0|34=306|49=DMA_HUB|56=FIXCLIENT1|52=20231201-15:56:32.957|10=041|
2023-12-01 16:57:02.653 [30] [FixSender] (DEBUG) Sending 8=FIX.4.4|9=58|35=0|49=FIXCLIENT1|56=DMA_HUB|34=306|52=20231201-15:57:02|10=089|
2023-12-01 16:57:02.904 [29] [FixSender] (DEBUG) Receiving 8=FIX.4.4|9=62|35=0|34=307|49=DMA_HUB|56=FIXCLIENT1|52=20231201-15:57:02.904|10=032|
2023-12-01 16:57:32.656 [30] [FixSender] (DEBUG) Sending 8=FIX.4.4|9=58|35=0|49=FIXCLIENT1|56=DMA_HUB|34=307|52=20231201-15:57:32|10=093|
2023-12-01 16:57:32.860 [29] [FixSender] (DEBUG) Receiving 8=FIX.4.4|9=62|35=0|34=308|49=DMA_HUB|56=FIXCLIENT1|52=20231201-15:57:32.860|10=037|
2023-12-01 16:58:02.667 [30] [FixSender] (DEBUG) Sending 8=FIX.4.4|9=58|35=0|49=FIXCLIENT1|56=DMA_HUB|34=308|52=20231201-15:58:02|10=092|
2023-12-01 16:58:02.808 [29] [FixSender] (DEBUG) Receiving 8=FIX.4.4|9=62|35=0|34=309|49=DMA_HUB|56=FIXCLIENT1|52=20231201-15:58:02.808|10=038|
2023-12-01 16:58:32.679 [30] [FixSender] (DEBUG) Sending 8=FIX.4.4|9=58|35=0|49=FIXCLIENT1|56=DMA_HUB|34=309|52=20231201-15:58:32|10=096|
2023-12-01 16:58:32.761 [29] [FixSender] (DEBUG) Receiving 8=FIX.4.4|9=62|35=0|34=310|49=DMA_HUB|56=FIXCLIENT1|52=20231201-15:58:32.761|10=031|
2023-12-01 16:59:02.692 [30] [FixSender] (DEBUG) Sending 8=FIX.4.4|9=58|35=0|49=FIXCLIENT1|56=DMA_HUB|34=310|52=20231201-15:59:02|10=086|
2023-12-01 16:59:02.729 [29] [FixSender] (DEBUG) Receiving 8=FIX.4.4|9=62|35=0|34=311|49=DMA_HUB|56=FIXCLIENT1|52=20231201-15:59:02.724|10=029|
2023-12-01 16:59:32.673 [29] [FixSender] (DEBUG) Receiving 8=FIX.4.4|9=62|35=0|34=312|49=DMA_HUB|56=FIXCLIENT1|52=20231201-15:59:32.672|10=035|
2023-12-01 16:59:32.704 [30] [FixSender] (DEBUG) Sending 8=FIX.4.4|9=58|35=0|49=FIXCLIENT1|56=DMA_HUB|34=311|52=20231201-15:59:32|10=090|
2023-12-01 17:00:02.628 [29] [FixSender] (DEBUG) Receiving 8=FIX.4.4|9=62|35=0|34=313|49=DMA_HUB|56=FIXCLIENT1|52=20231201-16:00:02.628|10=021|
2023-12-01 17:00:02.707 [30] [FixSender] (DEBUG) Sending 8=FIX.4.4|9=58|35=0|49=FIXCLIENT1|56=DMA_HUB|34=312|52=20231201-16:00:02|10=075|
2023-12-01 17:00:32.573 [29] [FixSender] (DEBUG) Receiving 8=FIX.4.4|9=62|35=0|34=314|49=DMA_HUB|56=FIXCLIENT1|52=20231201-16:00:32.572|10=023|
2023-12-01 17:00:32.723 [30] [FixSender] (DEBUG) Sending 8=FIX.4.4|9=58|35=0|49=FIXCLIENT1|56=DMA_HUB|34=313|52=20231201-16:00:32|10=079|
2023-12-01 17:01:02.522 [29] [FixSender] (DEBUG) Receiving 8=FIX.4.4|9=62|35=0|34=315|49=DMA_HUB|56=FIXCLIENT1|52=20231201-16:01:02.522|10=017|
2023-12-01 17:01:02.731 [30] [FixSender] (DEBUG) Sending 8=FIX.4.4|9=58|35=0|49=FIXCLIENT1|56=DMA_HUB|34=314|52=20231201-16:01:02|10=078|
2023-12-01 17:01:32.473 [29] [FixSender] (DEBUG) Receiving 8=FIX.4.4|9=62|35=0|34=316|49=DMA_HUB|56=FIXCLIENT1|52=20231201-16:01:32.472|10=025|
2023-12-01 17:01:32.745 [30] [FixSender] (DEBUG) Sending 8=FIX.4.4|9=58|35=0|49=FIXCLIENT1|56=DMA_HUB|34=315|52=20231201-16:01:32|10=082|
2023-12-01 17:02:02.438 [29] [FixSender] (DEBUG) Receiving 8=FIX.4.4|9=62|35=0|34=317|49=DMA_HUB|56=FIXCLIENT1|52=20231201-16:02:02.435|10=023|
2023-12-01 17:02:02.761 [30] [FixSender] (DEBUG) Sending 8=FIX.4.4|9=58|35=0|49=FIXCLIENT1|56=DMA_HUB|34=316|52=20231201-16:02:02|10=081|
2023-12-01 17:02:32.383 [29] [FixSender] (DEBUG) Receiving 8=FIX.4.4|9=62|35=0|34=318|49=DMA_HUB|56=FIXCLIENT1|52=20231201-16:02:32.383|10=029|
2023-12-01 17:02:32.764 [30] [FixSender] (DEBUG) Sending 8=FIX.4.4|9=58|35=0|49=FIXCLIENT1|56=DMA_HUB|34=317|52=20231201-16:02:32|10=085|
2023-12-01 17:03:02.332 [29] [FixSender] (DEBUG) Receiving 8=FIX.4.4|9=62|35=0|34=319|49=DMA_HUB|56=FIXCLIENT1|52=20231201-16:03:02.332|10=022|
2023-12-01 17:03:02.778 [30] [FixSender] (DEBUG) Sending 8=FIX.4.4|9=58|35=0|49=FIXCLIENT1|56=DMA_HUB|34=318|52=20231201-16:03:02|10=084|
2023-12-01 17:03:32.281 [29] [FixSender] (DEBUG) Receiving 8=FIX.4.4|9=62|35=0|34=320|49=DMA_HUB|56=FIXCLIENT1|52=20231201-16:03:32.281|10=020|
2023-12-01 17:03:32.788 [30] [FixSender] (DEBUG) Sending 8=FIX.4.4|9=58|35=0|49=FIXCLIENT1|56=DMA_HUB|34=319|52=20231201-16:03:32|10=088|
2023-12-01 17:04:02.245 [29] [FixSender] (DEBUG) Receiving 8=FIX.4.4|9=62|35=0|34=321|49=DMA_HUB|56=FIXCLIENT1|52=20231201-16:04:02.245|10=019|
2023-12-01 17:04:02.803 [30] [FixSender] (DEBUG) Sending 8=FIX.4.4|9=58|35=0|49=FIXCLIENT1|56=DMA_HUB|34=320|52=20231201-16:04:02|10=078|
2023-12-01 17:04:32.190 [29] [FixSender] (DEBUG) Receiving 8=FIX.4.4|9=62|35=0|34=322|49=DMA_HUB|56=FIXCLIENT1|52=20231201-16:04:32.190|10=022|
2023-12-01 17:04:32.811 [30] [FixSender] (DEBUG) Sending 8=FIX.4.4|9=58|35=0|49=FIXCLIENT1|56=DMA_HUB|34=321|52=20231201-16:04:32|10=082|
2023-12-01 17:05:02.139 [29] [FixSender] (DEBUG) Receiving 8=FIX.4.4|9=62|35=0|34=323|49=DMA_HUB|56=FIXCLIENT1|52=20231201-16:05:02.139|10=024|
2023-12-01 17:05:02.825 [30] [FixSender] (DEBUG) Sending 8=FIX.4.4|9=58|35=0|49=FIXCLIENT1|56=DMA_HUB|34=322|52=20231201-16:05:02|10=081|
2023-12-01 17:05:32.103 [29] [FixSender] (DEBUG) Receiving 8=FIX.4.4|9=62|35=0|34=324|49=DMA_HUB|56=FIXCLIENT1|52=20231201-16:05:32.102|10=018|
2023-12-01 17:05:32.834 [30] [FixSender] (DEBUG) Sending 8=FIX.4.4|9=58|35=0|49=FIXCLIENT1|56=DMA_HUB|34=323|52=20231201-16:05:32|10=085|
2023-12-01 17:06:02.041 [29] [FixSender] (DEBUG) Receiving 8=FIX.4.4|9=62|35=0|34=325|49=DMA_HUB|56=FIXCLIENT1|52=20231201-16:06:02.040|10=018|
2023-12-01 17:06:02.840 [30] [FixSender] (DEBUG) Sending 8=FIX.4.4|9=58|35=0|49=FIXCLIENT1|56=DMA_HUB|34=324|52=20231201-16:06:02|10=084|
2023-12-01 17:06:31.993 [29] [FixSender] (DEBUG) Receiving 8=FIX.4.4|9=62|35=0|34=326|49=DMA_HUB|56=FIXCLIENT1|52=20231201-16:06:31.992|10=037|
2023-12-01 17:06:32.846 [30] [FixSender] (DEBUG) Sending 8=FIX.4.4|9=58|35=0|49=FIXCLIENT1|56=DMA_HUB|34=325|52=20231201-16:06:32|10=088|
2023-12-01 17:07:01.946 [29] [FixSender] (DEBUG) Receiving 8=FIX.4.4|9=62|35=0|34=327|49=DMA_HUB|56=FIXCLIENT1|52=20231201-16:07:01.946|10=035|
2023-12-01 17:07:02.849 [30] [FixSender] (DEBUG) Sending 8=FIX.4.4|9=58|35=0|49=FIXCLIENT1|56=DMA_HUB|34=326|52=20231201-16:07:02|10=087|
2023-12-01 17:07:31.909 [29] [FixSender] (DEBUG) Receiving 8=FIX.4.4|9=62|35=0|34=328|49=DMA_HUB|56=FIXCLIENT1|52=20231201-16:07:31.909|10=038|
2023-12-01 17:07:32.863 [30] [FixSender] (DEBUG) Sending 8=FIX.4.4|9=58|35=0|49=FIXCLIENT1|56=DMA_HUB|34=327|52=20231201-16:07:32|10=091|
2023-12-01 17:08:01.849 [29] [FixSender] (DEBUG) Receiving 8=FIX.4.4|9=62|35=0|34=329|49=DMA_HUB|56=FIXCLIENT1|52=20231201-16:08:01.849|10=040|
2023-12-01 17:08:02.870 [30] [FixSender] (DEBUG) Sending 8=FIX.4.4|9=58|35=0|49=FIXCLIENT1|56=DMA_HUB|34=328|52=20231201-16:08:02|10=090|
2023-12-01 17:08:31.801 [29] [FixSender] (DEBUG) Receiving 8=FIX.4.4|9=62|35=0|34=330|49=DMA_HUB|56=FIXCLIENT1|52=20231201-16:08:31.800|10=022|
2023-12-01 17:08:32.873 [30] [FixSender] (DEBUG) Sending 8=FIX.4.4|9=58|35=0|49=FIXCLIENT1|56=DMA_HUB|34=329|52=20231201-16:08:32|10=094|
2023-12-01 17:09:01.767 [29] [FixSender] (DEBUG) Receiving 8=FIX.4.4|9=62|35=0|34=331|49=DMA_HUB|56=FIXCLIENT1|52=20231201-16:09:01.766|10=032|
2023-12-01 17:09:02.882 [30] [FixSender] (DEBUG) Sending 8=FIX.4.4|9=58|35=0|49=FIXCLIENT1|56=DMA_HUB|34=330|52=20231201-16:09:02|10=084|
2023-12-01 17:09:31.708 [29] [FixSender] (DEBUG) Receiving 8=FIX.4.4|9=62|35=0|34=332|49=DMA_HUB|56=FIXCLIENT1|52=20231201-16:09:31.707|10=031|
2023-12-01 17:09:32.892 [30] [FixSender] (DEBUG) Sending 8=FIX.4.4|9=58|35=0|49=FIXCLIENT1|56=DMA_HUB|34=331|52=20231201-16:09:32|10=088|
2023-12-01 17:10:01.658 [29] [FixSender] (DEBUG) Receiving 8=FIX.4.4|9=62|35=0|34=333|49=DMA_HUB|56=FIXCLIENT1|52=20231201-16:10:01.658|10=026|
2023-12-01 17:10:02.905 [30] [FixSender] (DEBUG) Sending 8=FIX.4.4|9=58|35=0|49=FIXCLIENT1|56=DMA_HUB|34=332|52=20231201-16:10:02|10=078|
2023-12-01 17:10:31.613 [29] [FixSender] (DEBUG) Receiving 8=FIX.4.4|9=62|35=0|34=334|49=DMA_HUB|56=FIXCLIENT1|52=20231201-16:10:31.612|10=020|
2023-12-01 17:10:32.922 [30] [FixSender] (DEBUG) Sending 8=FIX.4.4|9=58|35=0|49=FIXCLIENT1|56=DMA_HUB|34=333|52=20231201-16:10:32|10=082|
2023-12-01 17:11:01.573 [29] [FixSender] (DEBUG) Receiving 8=FIX.4.4|9=62|35=0|34=335|49=DMA_HUB|56=FIXCLIENT1|52=20231201-16:11:01.572|10=024|
2023-12-01 17:11:02.935 [30] [FixSender] (DEBUG) Sending 8=FIX.4.4|9=58|35=0|49=FIXCLIENT1|56=DMA_HUB|34=334|52=20231201-16:11:02|10=081|
2023-12-01 17:11:31.521 [29] [FixSender] (DEBUG) Receiving 8=FIX.4.4|9=62|35=0|34=336|49=DMA_HUB|56=FIXCLIENT1|52=20231201-16:11:31.521|10=022|
2023-12-01 17:11:32.946 [30] [FixSender] (DEBUG) Sending 8=FIX.4.4|9=58|35=0|49=FIXCLIENT1|56=DMA_HUB|34=335|52=20231201-16:11:32|10=085|
2023-12-01 17:12:01.475 [29] [FixSender] (DEBUG) Receiving 8=FIX.4.4|9=62|35=0|34=337|49=DMA_HUB|56=FIXCLIENT1|52=20231201-16:12:01.473|10=027|
2023-12-01 17:12:02.958 [30] [FixSender] (DEBUG) Sending 8=FIX.4.4|9=58|35=0|49=FIXCLIENT1|56=DMA_HUB|34=336|52=20231201-16:12:02|10=084|
2023-12-01 17:12:31.416 [29] [FixSender] (DEBUG) Receiving 8=FIX.4.4|9=62|35=0|34=338|49=DMA_HUB|56=FIXCLIENT1|52=20231201-16:12:31.415|10=027|
2023-12-01 17:12:32.960 [30] [FixSender] (DEBUG) Sending 8=FIX.4.4|9=58|35=0|49=FIXCLIENT1|56=DMA_HUB|34=337|52=20231201-16:12:32|10=088|
2023-12-01 17:13:01.373 [29] [FixSender] (DEBUG) Receiving 8=FIX.4.4|9=62|35=0|34=339|49=DMA_HUB|56=FIXCLIENT1|52=20231201-16:13:01.373|10=029|
2023-12-01 17:13:02.972 [30] [FixSender] (DEBUG) Sending 8=FIX.4.4|9=58|35=0|49=FIXCLIENT1|56=DMA_HUB|34=338|52=20231201-16:13:02|10=087|
2023-12-01 17:13:31.327 [29] [FixSender] (DEBUG) Receiving 8=FIX.4.4|9=62|35=0|34=340|49=DMA_HUB|56=FIXCLIENT1|52=20231201-16:13:31.327|10=023|
2023-12-01 17:13:32.984 [30] [FixSender] (DEBUG) Sending 8=FIX.4.4|9=58|35=0|49=FIXCLIENT1|56=DMA_HUB|34=339|52=20231201-16:13:32|10=091|
2023-12-01 17:14:01.275 [29] [FixSender] (DEBUG) Receiving 8=FIX.4.4|9=62|35=0|34=341|49=DMA_HUB|56=FIXCLIENT1|52=20231201-16:14:01.275|10=024|
2023-12-01 17:14:02.987 [30] [FixSender] (DEBUG) Sending 8=FIX.4.4|9=58|35=0|49=FIXCLIENT1|56=DMA_HUB|34=340|52=20231201-16:14:02|10=081|
2023-12-01 17:14:31.232 [29] [FixSender] (DEBUG) Receiving 8=FIX.4.4|9=62|35=0|34=342|49=DMA_HUB|56=FIXCLIENT1|52=20231201-16:14:31.232|10=021|
2023-12-01 17:14:33.002 [30] [FixSender] (DEBUG) Sending 8=FIX.4.4|9=58|35=0|49=FIXCLIENT1|56=DMA_HUB|34=341|52=20231201-16:14:33|10=086|
2023-12-01 17:15:01.181 [29] [FixSender] (DEBUG) Receiving 8=FIX.4.4|9=62|35=0|34=343|49=DMA_HUB|56=FIXCLIENT1|52=20231201-16:15:01.180|10=022|
