2023-11-14 11:30:07.740 [1] [Fixsender] (INFO) (c) 2001-2011 ullink SAS. FixSender. Release 1.11.
2023-11-14 11:30:09.883 [29] [FixSender] (INFO) try to connect to : localhost port :12345
2023-11-14 11:30:09.899 [29] [FixSender] (INFO) physical cnx initiated
2023-11-14 11:30:09.914 [29] [FixSender] (DEBUG) Sending 8=FIX.4.4|9=88|35=A|49=FIXCLIENT1|56=DMA_HUB|34=511|52=20231114-10:30:09|98=0|108=30|95=9|96=null/null|10=183|
2023-11-14 11:30:09.920 [29] [FixSender] (DEBUG) Receiving 8=FIX.4.4|9=72|35=A|34=1|49=DMA_HUB|56=FIXCLIENT1|52=20231114-10:30:09.916|108=30|98=0|10=225|
2023-11-14 11:30:09.921 [29] [FixSender] (DEBUG) Sending 8=FIX.4.4|9=110|35=5|49=FIXCLIENT1|56=DMA_HUB|34=512|52=20231114-10:30:09|58=MsgSeqNum expected 541, but MsgSeqNum received 1|10=196|
2023-11-14 11:30:09.923 [29] [FixSender] (INFO) physical cnx finished Connection reset by peer
2023-11-14 11:30:09.924 [29] [FixSender] (WARNING) Disconnected
2023-11-14 11:30:15.686 [32] [FixSender] (INFO) try to connect to : localhost port :12345
2023-11-14 11:30:15.686 [32] [FixSender] (INFO) physical cnx initiated
2023-11-14 11:30:15.689 [32] [FixSender] (DEBUG) Sending 8=FIX.4.4|9=88|35=A|49=FIXCLIENT1|56=DMA_HUB|34=513|52=20231114-10:30:15|98=0|108=30|95=9|96=null/null|10=182|
2023-11-14 11:30:15.694 [32] [FixSender] (DEBUG) Receiving 8=FIX.4.4|9=72|35=A|34=4|49=DMA_HUB|56=FIXCLIENT1|52=20231114-10:30:15.690|108=30|98=0|10=224|
2023-11-14 11:30:15.695 [32] [FixSender] (DEBUG) Sending 8=FIX.4.4|9=110|35=5|49=FIXCLIENT1|56=DMA_HUB|34=514|52=20231114-10:30:15|58=MsgSeqNum expected 541, but MsgSeqNum received 4|10=198|
2023-11-14 11:30:15.697 [32] [FixSender] (INFO) physical cnx finished Connection reset by peer
2023-11-14 11:30:15.697 [32] [FixSender] (WARNING) Disconnected
2023-11-14 11:30:16.183 [35] [FixSender] (INFO) try to connect to : localhost port :12345
2023-11-14 11:30:16.184 [35] [FixSender] (INFO) physical cnx initiated
2023-11-14 11:30:16.186 [35] [FixSender] (DEBUG) Sending 8=FIX.4.4|9=88|35=A|49=FIXCLIENT1|56=DMA_HUB|34=515|52=20231114-10:30:16|98=0|108=30|95=9|96=null/null|10=185|
2023-11-14 11:30:16.190 [35] [FixSender] (INFO) physical cnx finished Connection reset by peer
2023-11-14 11:30:16.191 [35] [FixSender] (WARNING) Disconnected
2023-11-14 11:30:16.361 [36] [FixSender] (INFO) try to connect to : localhost port :12345
2023-11-14 11:30:16.362 [36] [FixSender] (INFO) physical cnx initiated
2023-11-14 11:30:16.366 [36] [FixSender] (DEBUG) Sending 8=FIX.4.4|9=88|35=A|49=FIXCLIENT1|56=DMA_HUB|34=516|52=20231114-10:30:16|98=0|108=30|95=9|96=null/null|10=186|
2023-11-14 11:30:16.505 [37] [FixSender] (INFO) try to connect to : localhost port :12345
2023-11-14 11:30:16.506 [37] [FixSender] (INFO) physical cnx initiated
2023-11-14 11:30:16.510 [37] [FixSender] (DEBUG) Sending 8=FIX.4.4|9=88|35=A|49=FIXCLIENT1|56=DMA_HUB|34=517|52=20231114-10:30:16|98=0|108=30|95=9|96=null/null|10=187|
2023-11-14 11:30:16.664 [38] [FixSender] (INFO) try to connect to : localhost port :12345
2023-11-14 11:30:16.664 [38] [FixSender] (INFO) physical cnx initiated
2023-11-14 11:30:16.669 [38] [FixSender] (DEBUG) Sending 8=FIX.4.4|9=88|35=A|49=FIXCLIENT1|56=DMA_HUB|34=518|52=20231114-10:30:16|98=0|108=30|95=9|96=null/null|10=188|
2023-11-14 11:30:16.784 [39] [FixSender] (INFO) try to connect to : localhost port :12345
2023-11-14 11:30:16.784 [39] [FixSender] (INFO) physical cnx initiated
2023-11-14 11:30:16.786 [39] [FixSender] (DEBUG) Sending 8=FIX.4.4|9=88|35=A|49=FIXCLIENT1|56=DMA_HUB|34=519|52=20231114-10:30:16|98=0|108=30|95=9|96=null/null|10=189|
2023-11-14 11:30:17.189 [36] [FixSender] (DEBUG) Receiving 8=FIX.4.4|9=72|35=A|34=7|49=DMA_HUB|56=FIXCLIENT1|52=20231114-10:30:17.188|108=30|98=0|10=231|
2023-11-14 11:30:17.191 [36] [FixSender] (DEBUG) Sending 8=FIX.4.4|9=110|35=5|49=FIXCLIENT1|56=DMA_HUB|34=520|52=20231114-10:30:17|58=MsgSeqNum expected 541, but MsgSeqNum received 7|10=200|
2023-11-14 11:30:17.193 [37] [FixSender] (INFO) physical cnx finished Connection reset by peer
2023-11-14 11:30:17.193 [37] [FixSender] (WARNING) Disconnected
2023-11-14 11:30:17.195 [36] [FixSender] (INFO) physical cnx finished Connection reset by peer
2023-11-14 11:30:17.196 [39] [FixSender] (INFO) physical cnx finished Connection reset by peer
2023-11-14 11:30:17.196 [36] [FixSender] (WARNING) Disconnected
2023-11-14 11:30:17.197 [39] [FixSender] (WARNING) Disconnected
2023-11-14 11:30:18.193 [38] [FixSender] (INFO) physical cnx finished Connection reset by peer
2023-11-14 11:30:18.194 [38] [FixSender] (WARNING) Disconnected
2023-11-14 11:30:18.221 [42] [FixSender] (INFO) try to connect to : localhost port :12345
2023-11-14 11:30:18.222 [42] [FixSender] (INFO) physical cnx initiated
2023-11-14 11:30:18.227 [42] [FixSender] (DEBUG) Sending 8=FIX.4.4|9=88|35=A|49=FIXCLIENT1|56=DMA_HUB|34=521|52=20231114-10:30:18|98=0|108=30|95=9|96=null/null|10=184|
2023-11-14 11:30:18.377 [43] [FixSender] (INFO) try to connect to : localhost port :12345
2023-11-14 11:30:18.378 [43] [FixSender] (INFO) physical cnx initiated
2023-11-14 11:30:18.382 [43] [FixSender] (DEBUG) Sending 8=FIX.4.4|9=88|35=A|49=FIXCLIENT1|56=DMA_HUB|34=522|52=20231114-10:30:18|98=0|108=30|95=9|96=null/null|10=185|
2023-11-14 11:30:22.198 [42] [FixSender] (DEBUG) Receiving 8=FIX.4.4|9=73|35=A|34=12|49=DMA_HUB|56=FIXCLIENT1|52=20231114-10:30:22.197|108=30|98=0|10=016|
2023-11-14 11:30:22.200 [42] [FixSender] (DEBUG) Sending 8=FIX.4.4|9=111|35=5|49=FIXCLIENT1|56=DMA_HUB|34=523|52=20231114-10:30:22|58=MsgSeqNum expected 541, but MsgSeqNum received 12|10=244|
2023-11-14 11:30:22.201 [43] [FixSender] (INFO) physical cnx finished Connection reset by peer
2023-11-14 11:30:22.201 [43] [FixSender] (WARNING) Disconnected
2023-11-14 11:30:22.203 [42] [FixSender] (INFO) physical cnx finished Connection reset by peer
2023-11-14 11:30:22.203 [42] [FixSender] (WARNING) Disconnected
2023-11-14 11:30:23.073 [46] [FixSender] (INFO) try to connect to : localhost port :12345
2023-11-14 11:30:23.074 [46] [FixSender] (INFO) physical cnx initiated
2023-11-14 11:30:23.076 [46] [FixSender] (DEBUG) Sending 8=FIX.4.4|9=88|35=A|49=FIXCLIENT1|56=DMA_HUB|34=524|52=20231114-10:30:23|98=0|108=30|95=9|96=null/null|10=183|
2023-11-14 11:30:23.201 [46] [FixSender] (INFO) physical cnx finished Connection reset by peer
2023-11-14 11:30:23.202 [46] [FixSender] (WARNING) Disconnected
2023-11-14 11:30:24.814 [47] [FixSender] (INFO) try to connect to : localhost port :12345
2023-11-14 11:30:24.814 [47] [FixSender] (INFO) physical cnx initiated
2023-11-14 11:30:24.816 [47] [FixSender] (DEBUG) Sending 8=FIX.4.4|9=88|35=A|49=FIXCLIENT1|56=DMA_HUB|34=525|52=20231114-10:30:24|98=0|108=30|95=9|96=null/null|10=185|
2023-11-14 11:30:24.819 [47] [FixSender] (INFO) physical cnx finished Connection reset by peer
2023-11-14 11:30:24.820 [47] [FixSender] (WARNING) Disconnected
2023-11-14 11:30:24.985 [48] [FixSender] (INFO) try to connect to : localhost port :12345
2023-11-14 11:30:24.986 [48] [FixSender] (INFO) physical cnx initiated
2023-11-14 11:30:24.990 [48] [FixSender] (DEBUG) Sending 8=FIX.4.4|9=88|35=A|49=FIXCLIENT1|56=DMA_HUB|34=526|52=20231114-10:30:24|98=0|108=30|95=9|96=null/null|10=186|
2023-11-14 11:30:25.142 [49] [FixSender] (INFO) try to connect to : localhost port :12345
2023-11-14 11:30:25.143 [49] [FixSender] (INFO) physical cnx initiated
2023-11-14 11:30:25.146 [49] [FixSender] (DEBUG) Sending 8=FIX.4.4|9=88|35=A|49=FIXCLIENT1|56=DMA_HUB|34=527|52=20231114-10:30:25|98=0|108=30|95=9|96=null/null|10=188|
2023-11-14 11:30:25.303 [50] [FixSender] (INFO) try to connect to : localhost port :12345
2023-11-14 11:30:25.304 [50] [FixSender] (INFO) physical cnx initiated
2023-11-14 11:30:25.308 [50] [FixSender] (DEBUG) Sending 8=FIX.4.4|9=88|35=A|49=FIXCLIENT1|56=DMA_HUB|34=528|52=20231114-10:30:25|98=0|108=30|95=9|96=null/null|10=189|
2023-11-14 11:30:25.721 [51] [FixSender] (INFO) try to connect to : localhost port :12345
2023-11-14 11:30:25.722 [51] [FixSender] (INFO) physical cnx initiated
2023-11-14 11:30:25.724 [51] [FixSender] (DEBUG) Sending 8=FIX.4.4|9=88|35=A|49=FIXCLIENT1|56=DMA_HUB|34=529|52=20231114-10:30:25|98=0|108=30|95=9|96=null/null|10=190|
2023-11-14 11:30:25.820 [51] [FixSender] (INFO) physical cnx finished Connection reset by peer
2023-11-14 11:30:25.821 [51] [FixSender] (WARNING) Disconnected
2023-11-14 11:30:25.822 [48] [FixSender] (INFO) physical cnx finished Connection reset by peer
2023-11-14 11:30:25.826 [48] [FixSender] (WARNING) Disconnected
2023-11-14 11:30:25.874 [52] [FixSender] (INFO) try to connect to : localhost port :12345
2023-11-14 11:30:25.874 [52] [FixSender] (INFO) physical cnx initiated
2023-11-14 11:30:25.876 [52] [FixSender] (DEBUG) Sending 8=FIX.4.4|9=88|35=A|49=FIXCLIENT1|56=DMA_HUB|34=530|52=20231114-10:30:25|98=0|108=30|95=9|96=null/null|10=182|
2023-11-14 11:30:26.039 [53] [FixSender] (INFO) try to connect to : localhost port :12345
2023-11-14 11:30:26.040 [53] [FixSender] (INFO) physical cnx initiated
2023-11-14 11:30:26.044 [53] [FixSender] (DEBUG) Sending 8=FIX.4.4|9=88|35=A|49=FIXCLIENT1|56=DMA_HUB|34=531|52=20231114-10:30:26|98=0|108=30|95=9|96=null/null|10=184|
2023-11-14 11:30:26.225 [54] [FixSender] (INFO) try to connect to : localhost port :12345
2023-11-14 11:30:26.226 [54] [FixSender] (INFO) physical cnx initiated
2023-11-14 11:30:26.228 [54] [FixSender] (DEBUG) Sending 8=FIX.4.4|9=88|35=A|49=FIXCLIENT1|56=DMA_HUB|34=532|52=20231114-10:30:26|98=0|108=30|95=9|96=null/null|10=185|
2023-11-14 11:30:26.820 [54] [FixSender] (INFO) physical cnx finished Connection reset by peer
2023-11-14 11:30:26.821 [54] [FixSender] (WARNING) Disconnected
2023-11-14 11:30:26.822 [49] [FixSender] (INFO) physical cnx finished Connection reset by peer
2023-11-14 11:30:26.823 [49] [FixSender] (WARNING) Disconnected
2023-11-14 11:30:27.823 [50] [FixSender] (INFO) physical cnx finished Connection reset by peer
2023-11-14 11:30:27.823 [50] [FixSender] (WARNING) Disconnected
2023-11-14 11:30:29.825 [52] [FixSender] (INFO) physical cnx finished Connection reset by peer
2023-11-14 11:30:29.825 [52] [FixSender] (WARNING) Disconnected
2023-11-14 11:30:30.826 [53] [FixSender] (INFO) physical cnx finished Connection reset by peer
2023-11-14 11:30:30.826 [53] [FixSender] (WARNING) Disconnected
2023-11-14 11:31:50.357 [1] [Fixsender] (INFO) (c) 2001-2011 ullink SAS. FixSender. Release 1.11.
2023-11-14 11:31:53.859 [29] [FixSender] (INFO) try to connect to : localhost port :12345
2023-11-14 11:31:53.873 [29] [FixSender] (INFO) physical cnx initiated
2023-11-14 11:31:53.887 [29] [FixSender] (DEBUG) Sending 8=FIX.4.4|9=88|35=A|49=FIXCLIENT1|56=DMA_HUB|34=533|52=20231114-10:31:53|98=0|108=30|95=9|96=null/null|10=187|
2023-11-14 11:31:53.888 [29] [FixSender] (DEBUG) Receiving 8=FIX.4.4|9=73|35=A|34=15|49=DMA_HUB|56=FIXCLIENT1|52=20231114-10:31:53.887|108=30|98=0|10=030|
2023-11-14 11:31:53.890 [29] [FixSender] (DEBUG) Sending 8=FIX.4.4|9=111|35=5|49=FIXCLIENT1|56=DMA_HUB|34=534|52=20231114-10:31:53|58=MsgSeqNum expected 541, but MsgSeqNum received 15|10=254|
2023-11-14 11:31:53.892 [29] [FixSender] (INFO) physical cnx finished Connection reset by peer
2023-11-14 11:31:53.893 [29] [FixSender] (WARNING) Disconnected
2023-11-14 11:31:55.165 [32] [FixSender] (INFO) try to connect to : localhost port :12345
2023-11-14 11:31:55.166 [32] [FixSender] (INFO) physical cnx initiated
2023-11-14 11:31:55.168 [32] [FixSender] (DEBUG) Sending 8=FIX.4.4|9=88|35=A|49=FIXCLIENT1|56=DMA_HUB|34=535|52=20231114-10:31:55|98=0|108=30|95=9|96=null/null|10=191|
2023-11-14 11:31:55.172 [32] [FixSender] (DEBUG) Receiving 8=FIX.4.4|9=73|35=A|34=18|49=DMA_HUB|56=FIXCLIENT1|52=20231114-10:31:55.168|108=30|98=0|10=027|
2023-11-14 11:31:55.173 [32] [FixSender] (DEBUG) Sending 8=FIX.4.4|9=111|35=5|49=FIXCLIENT1|56=DMA_HUB|34=536|52=20231114-10:31:55|58=MsgSeqNum expected 541, but MsgSeqNum received 18|10=005|
2023-11-14 11:31:55.174 [32] [FixSender] (INFO) physical cnx finished Connection reset by peer
2023-11-14 11:31:55.175 [32] [FixSender] (WARNING) Disconnected
2023-11-14 11:31:55.589 [35] [FixSender] (INFO) try to connect to : localhost port :12345
2023-11-14 11:31:55.590 [35] [FixSender] (INFO) physical cnx initiated
2023-11-14 11:31:55.595 [35] [FixSender] (DEBUG) Sending 8=FIX.4.4|9=88|35=A|49=FIXCLIENT1|56=DMA_HUB|34=537|52=20231114-10:31:55|98=0|108=30|95=9|96=null/null|10=193|
2023-11-14 11:31:55.596 [35] [FixSender] (INFO) physical cnx finished Connection reset by peer
2023-11-14 11:31:55.597 [35] [FixSender] (WARNING) Disconnected
2023-11-14 11:31:55.755 [36] [FixSender] (INFO) try to connect to : localhost port :12345
2023-11-14 11:31:55.755 [36] [FixSender] (INFO) physical cnx initiated
2023-11-14 11:31:55.760 [36] [FixSender] (DEBUG) Sending 8=FIX.4.4|9=88|35=A|49=FIXCLIENT1|56=DMA_HUB|34=538|52=20231114-10:31:55|98=0|108=30|95=9|96=null/null|10=194|
2023-11-14 11:31:55.933 [37] [FixSender] (INFO) try to connect to : localhost port :12345
2023-11-14 11:31:55.934 [37] [FixSender] (INFO) physical cnx initiated
2023-11-14 11:31:55.938 [37] [FixSender] (DEBUG) Sending 8=FIX.4.4|9=88|35=A|49=FIXCLIENT1|56=DMA_HUB|34=539|52=20231114-10:31:55|98=0|108=30|95=9|96=null/null|10=195|
2023-11-14 11:31:56.599 [36] [FixSender] (DEBUG) Receiving 8=FIX.4.4|9=73|35=A|34=21|49=DMA_HUB|56=FIXCLIENT1|52=20231114-10:31:56.597|108=30|98=0|10=028|
2023-11-14 11:31:56.600 [36] [FixSender] (DEBUG) Sending 8=FIX.4.4|9=111|35=5|49=FIXCLIENT1|56=DMA_HUB|34=540|52=20231114-10:31:56|58=MsgSeqNum expected 541, but MsgSeqNum received 21|10=251|
2023-11-14 11:31:56.601 [36] [FixSender] (INFO) physical cnx finished Connection reset by peer
2023-11-14 11:31:56.603 [37] [FixSender] (INFO) physical cnx finished Connection reset by peer
2023-11-14 11:31:56.603 [36] [FixSender] (WARNING) Disconnected
2023-11-14 11:31:56.604 [37] [FixSender] (WARNING) Disconnected
2023-11-14 11:31:58.894 [40] [FixSender] (INFO) try to connect to : localhost port :12345
2023-11-14 11:31:58.896 [40] [FixSender] (INFO) physical cnx initiated
2023-11-14 11:31:58.900 [40] [FixSender] (DEBUG) Sending 8=FIX.4.4|9=88|35=A|49=FIXCLIENT1|56=DMA_HUB|34=541|52=20231114-10:31:58|98=0|108=30|95=9|96=null/null|10=191|
2023-11-14 11:31:58.907 [40] [FixSender] (DEBUG) Receiving 8=FIX.4.4|9=73|35=A|34=23|49=DMA_HUB|56=FIXCLIENT1|52=20231114-10:31:58.901|108=30|98=0|10=021|
2023-11-14 11:31:58.908 [40] [FixSender] (DEBUG) Sending 8=FIX.4.4|9=111|35=5|49=FIXCLIENT1|56=DMA_HUB|34=542|52=20231114-10:31:58|58=MsgSeqNum expected 541, but MsgSeqNum received 23|10=001|
2023-11-14 11:31:58.912 [40] [FixSender] (INFO) physical cnx finished Connection reset by peer
2023-11-14 11:31:58.914 [40] [FixSender] (WARNING) Disconnected
2023-11-14 11:32:13.111 [43] [FixSender] (INFO) try to connect to : localhost port :12345
2023-11-14 11:32:13.112 [43] [FixSender] (INFO) physical cnx initiated
2023-11-14 11:32:13.116 [43] [FixSender] (DEBUG) Sending 8=FIX.4.4|9=88|35=A|49=FIXCLIENT1|56=DMA_HUB|34=543|52=20231114-10:32:13|98=0|108=30|95=9|96=null/null|10=185|
2023-11-14 11:32:13.117 [43] [FixSender] (DEBUG) Receiving 8=FIX.4.4|9=73|35=A|34=26|49=DMA_HUB|56=FIXCLIENT1|52=20231114-10:32:13.116|108=30|98=0|10=014|
2023-11-14 11:32:13.118 [43] [FixSender] (DEBUG) Sending 8=FIX.4.4|9=111|35=5|49=FIXCLIENT1|56=DMA_HUB|34=544|52=20231114-10:32:13|58=MsgSeqNum expected 541, but MsgSeqNum received 26|10=254|
2023-11-14 11:32:13.119 [43] [FixSender] (INFO) physical cnx finished Connection reset by peer
2023-11-14 11:32:13.123 [43] [FixSender] (WARNING) Disconnected
2023-11-14 11:32:13.283 [46] [FixSender] (INFO) try to connect to : localhost port :12345
2023-11-14 11:32:13.283 [46] [FixSender] (INFO) physical cnx initiated
2023-11-14 11:32:13.288 [46] [FixSender] (DEBUG) Sending 8=FIX.4.4|9=88|35=A|49=FIXCLIENT1|56=DMA_HUB|34=545|52=20231114-10:32:13|98=0|108=30|95=9|96=null/null|10=187|
2023-11-14 11:32:13.289 [46] [FixSender] (INFO) physical cnx finished Connection reset by peer
2023-11-14 11:32:13.290 [46] [FixSender] (WARNING) Disconnected
2023-11-14 11:32:13.433 [47] [FixSender] (INFO) try to connect to : localhost port :12345
2023-11-14 11:32:13.434 [47] [FixSender] (INFO) physical cnx initiated
2023-11-14 11:32:13.436 [47] [FixSender] (DEBUG) Sending 8=FIX.4.4|9=88|35=A|49=FIXCLIENT1|56=DMA_HUB|34=546|52=20231114-10:32:13|98=0|108=30|95=9|96=null/null|10=188|
2023-11-14 11:32:13.602 [48] [FixSender] (INFO) try to connect to : localhost port :12345
2023-11-14 11:32:13.602 [48] [FixSender] (INFO) physical cnx initiated
2023-11-14 11:32:13.607 [48] [FixSender] (DEBUG) Sending 8=FIX.4.4|9=88|35=A|49=FIXCLIENT1|56=DMA_HUB|34=547|52=20231114-10:32:13|98=0|108=30|95=9|96=null/null|10=189|
2023-11-14 11:32:13.787 [49] [FixSender] (INFO) try to connect to : localhost port :12345
2023-11-14 11:32:13.787 [49] [FixSender] (INFO) physical cnx initiated
2023-11-14 11:32:13.790 [49] [FixSender] (DEBUG) Sending 8=FIX.4.4|9=88|35=A|49=FIXCLIENT1|56=DMA_HUB|34=548|52=20231114-10:32:13|98=0|108=30|95=9|96=null/null|10=190|
2023-11-14 11:32:14.293 [47] [FixSender] (DEBUG) Receiving 8=FIX.4.4|9=73|35=A|34=29|49=DMA_HUB|56=FIXCLIENT1|52=20231114-10:32:14.292|108=30|98=0|10=023|
2023-11-14 11:32:14.294 [47] [FixSender] (DEBUG) Sending 8=FIX.4.4|9=111|35=5|49=FIXCLIENT1|56=DMA_HUB|34=549|52=20231114-10:32:14|58=MsgSeqNum expected 541, but MsgSeqNum received 29|10=007|
2023-11-14 11:32:14.295 [47] [FixSender] (INFO) physical cnx finished Connection reset by peer
2023-11-14 11:32:14.295 [49] [FixSender] (INFO) physical cnx finished Connection reset by peer
2023-11-14 11:32:14.295 [47] [FixSender] (WARNING) Disconnected
2023-11-14 11:32:14.298 [48] [FixSender] (INFO) physical cnx finished Connection reset by peer
2023-11-14 11:32:14.298 [48] [FixSender] (WARNING) Disconnected
2023-11-14 11:32:14.300 [49] [FixSender] (WARNING) Disconnected
2023-11-14 11:32:16.888 [52] [FixSender] (INFO) try to connect to : localhost port :12345
2023-11-14 11:32:16.890 [52] [FixSender] (INFO) physical cnx initiated
2023-11-14 11:32:16.892 [52] [FixSender] (DEBUG) Sending 8=FIX.4.4|9=88|35=A|49=FIXCLIENT1|56=DMA_HUB|34=550|52=20231114-10:32:16|98=0|108=30|95=9|96=null/null|10=186|
2023-11-14 11:32:16.895 [52] [FixSender] (INFO) physical cnx finished Connection reset by peer
2023-11-14 11:32:16.895 [52] [FixSender] (WARNING) Disconnected
2023-11-14 11:32:27.863 [1] [Fixsender] (INFO) (c) 2001-2011 ullink SAS. FixSender. Release 1.11.
2023-11-14 11:32:30.364 [29] [FixSender] (INFO) try to connect to : localhost port :12345
2023-11-14 11:32:30.379 [29] [FixSender] (INFO) physical cnx initiated
2023-11-14 11:32:30.396 [29] [FixSender] (DEBUG) Sending 8=FIX.4.4|9=88|35=A|49=FIXCLIENT1|56=DMA_HUB|34=551|52=20231114-10:32:30|98=0|108=30|95=9|96=null/null|10=183|
2023-11-14 11:32:30.398 [29] [FixSender] (DEBUG) Receiving 8=FIX.4.4|9=73|35=A|34=31|49=DMA_HUB|56=FIXCLIENT1|52=20231114-10:32:30.397|108=30|98=0|10=020|
2023-11-14 11:32:30.401 [29] [FixSender] (DEBUG) Sending 8=FIX.4.4|9=111|35=5|49=FIXCLIENT1|56=DMA_HUB|34=552|52=20231114-10:32:30|58=MsgSeqNum expected 541, but MsgSeqNum received 31|10=248|
2023-11-14 11:32:30.403 [29] [FixSender] (INFO) physical cnx finished Connection reset by peer
2023-11-14 11:32:30.406 [29] [FixSender] (WARNING) Disconnected
2023-11-14 11:32:40.345 [32] [FixSender] (INFO) try to connect to : localhost port :12345
2023-11-14 11:32:40.346 [32] [FixSender] (INFO) physical cnx initiated
2023-11-14 11:32:40.351 [32] [FixSender] (DEBUG) Sending 8=FIX.4.4|9=88|35=A|49=FIXCLIENT1|56=DMA_HUB|34=553|52=20231114-10:32:40|98=0|108=30|95=9|96=null/null|10=186|
2023-11-14 11:32:40.352 [32] [FixSender] (DEBUG) Receiving 8=FIX.4.4|9=73|35=A|34=34|49=DMA_HUB|56=FIXCLIENT1|52=20231114-10:32:40.351|108=30|98=0|10=014|
2023-11-14 11:32:40.353 [32] [FixSender] (DEBUG) Sending 8=FIX.4.4|9=111|35=5|49=FIXCLIENT1|56=DMA_HUB|34=554|52=20231114-10:32:40|58=MsgSeqNum expected 541, but MsgSeqNum received 34|10=254|
2023-11-14 11:32:40.354 [32] [FixSender] (INFO) physical cnx finished Connection reset by peer
2023-11-14 11:32:40.355 [32] [FixSender] (WARNING) Disconnected
2023-11-14 11:32:40.886 [35] [FixSender] (INFO) try to connect to : localhost port :12345
2023-11-14 11:32:40.886 [35] [FixSender] (INFO) physical cnx initiated
2023-11-14 11:32:40.889 [35] [FixSender] (DEBUG) Sending 8=FIX.4.4|9=88|35=A|49=FIXCLIENT1|56=DMA_HUB|34=555|52=20231114-10:32:40|98=0|108=30|95=9|96=null/null|10=188|
2023-11-14 11:32:40.893 [35] [FixSender] (INFO) physical cnx finished Connection reset by peer
2023-11-14 11:32:40.893 [35] [FixSender] (WARNING) Disconnected
2023-11-14 11:32:41.057 [36] [FixSender] (INFO) try to connect to : localhost port :12345
2023-11-14 11:32:41.058 [36] [FixSender] (INFO) physical cnx initiated
2023-11-14 11:32:41.060 [36] [FixSender] (DEBUG) Sending 8=FIX.4.4|9=88|35=A|49=FIXCLIENT1|56=DMA_HUB|34=556|52=20231114-10:32:41|98=0|108=30|95=9|96=null/null|10=190|
2023-11-14 11:32:41.243 [37] [FixSender] (INFO) try to connect to : localhost port :12345
2023-11-14 11:32:41.244 [37] [FixSender] (INFO) physical cnx initiated
2023-11-14 11:32:41.247 [37] [FixSender] (DEBUG) Sending 8=FIX.4.4|9=88|35=A|49=FIXCLIENT1|56=DMA_HUB|34=557|52=20231114-10:32:41|98=0|108=30|95=9|96=null/null|10=191|
2023-11-14 11:32:41.399 [38] [FixSender] (INFO) try to connect to : localhost port :12345
2023-11-14 11:32:41.399 [38] [FixSender] (INFO) physical cnx initiated
2023-11-14 11:32:41.401 [38] [FixSender] (DEBUG) Sending 8=FIX.4.4|9=88|35=A|49=FIXCLIENT1|56=DMA_HUB|34=558|52=20231114-10:32:41|98=0|108=30|95=9|96=null/null|10=192|
2023-11-14 11:32:41.891 [36] [FixSender] (DEBUG) Receiving 8=FIX.4.4|9=73|35=A|34=37|49=DMA_HUB|56=FIXCLIENT1|52=20231114-10:32:41.890|108=30|98=0|10=026|
2023-11-14 11:32:41.893 [36] [FixSender] (DEBUG) Sending 8=FIX.4.4|9=111|35=5|49=FIXCLIENT1|56=DMA_HUB|34=559|52=20231114-10:32:41|58=MsgSeqNum expected 541, but MsgSeqNum received 37|10=007|
2023-11-14 11:32:41.894 [37] [FixSender] (INFO) physical cnx finished Connection reset by peer
2023-11-14 11:32:41.895 [37] [FixSender] (WARNING) Disconnected
2023-11-14 11:32:41.897 [38] [FixSender] (INFO) physical cnx finished Connection reset by peer
2023-11-14 11:32:41.897 [36] [FixSender] (INFO) physical cnx finished Connection reset by peer
2023-11-14 11:32:41.898 [38] [FixSender] (WARNING) Disconnected
2023-11-14 11:32:41.899 [36] [FixSender] (WARNING) Disconnected
2023-11-14 11:32:46.225 [41] [FixSender] (INFO) try to connect to : localhost port :12345
2023-11-14 11:32:46.226 [41] [FixSender] (INFO) physical cnx initiated
2023-11-14 11:32:46.228 [41] [FixSender] (DEBUG) Sending 8=FIX.4.4|9=88|35=A|49=FIXCLIENT1|56=DMA_HUB|34=560|52=20231114-10:32:46|98=0|108=30|95=9|96=null/null|10=190|
2023-11-14 11:32:46.231 [41] [FixSender] (DEBUG) Receiving 8=FIX.4.4|9=73|35=A|34=39|49=DMA_HUB|56=FIXCLIENT1|52=20231114-10:32:46.228|108=30|98=0|10=028|
2023-11-14 11:32:46.232 [41] [FixSender] (DEBUG) Sending 8=FIX.4.4|9=111|35=5|49=FIXCLIENT1|56=DMA_HUB|34=561|52=20231114-10:32:46|58=MsgSeqNum expected 541, but MsgSeqNum received 39|10=007|
2023-11-14 11:32:46.233 [41] [FixSender] (INFO) physical cnx finished Connection reset by peer
2023-11-14 11:32:46.233 [41] [FixSender] (WARNING) Disconnected
2023-11-14 11:32:46.741 [44] [FixSender] (INFO) try to connect to : localhost port :12345
2023-11-14 11:32:46.742 [44] [FixSender] (INFO) physical cnx initiated
2023-11-14 11:32:46.746 [44] [FixSender] (DEBUG) Sending 8=FIX.4.4|9=88|35=A|49=FIXCLIENT1|56=DMA_HUB|34=562|52=20231114-10:32:46|98=0|108=30|95=9|96=null/null|10=192|
2023-11-14 11:32:46.747 [44] [FixSender] (INFO) physical cnx finished Connection reset by peer
2023-11-14 11:32:46.748 [44] [FixSender] (WARNING) Disconnected
2023-11-14 11:32:47.155 [45] [FixSender] (INFO) try to connect to : localhost port :12345
2023-11-14 11:32:47.156 [45] [FixSender] (INFO) physical cnx initiated
2023-11-14 11:32:47.160 [45] [FixSender] (DEBUG) Sending 8=FIX.4.4|9=88|35=A|49=FIXCLIENT1|56=DMA_HUB|34=563|52=20231114-10:32:47|98=0|108=30|95=9|96=null/null|10=194|
2023-11-14 11:32:47.749 [45] [FixSender] (DEBUG) Receiving 8=FIX.4.4|9=73|35=A|34=42|49=DMA_HUB|56=FIXCLIENT1|52=20231114-10:32:47.748|108=30|98=0|10=030|
2023-11-14 11:32:47.750 [45] [FixSender] (DEBUG) Sending 8=FIX.4.4|9=111|35=5|49=FIXCLIENT1|56=DMA_HUB|34=564|52=20231114-10:32:47|58=MsgSeqNum expected 541, but MsgSeqNum received 42|10=005|
2023-11-14 11:32:47.752 [45] [FixSender] (INFO) physical cnx finished Connection reset by peer
2023-11-14 11:32:47.752 [45] [FixSender] (WARNING) Disconnected
2023-11-14 11:32:50.374 [49] [FixSender] (INFO) try to connect to : localhost port :12345
2023-11-14 11:32:50.375 [49] [FixSender] (INFO) physical cnx initiated
2023-11-14 11:32:50.380 [49] [FixSender] (DEBUG) Sending 8=FIX.4.4|9=86|35=A|49=FIXCLIENT1|56=DMA_HUB|34=1|52=20231114-10:32:50|98=0|108=30|95=9|96=null/null|10=077|
2023-11-14 11:32:50.382 [49] [FixSender] (DEBUG) Receiving 8=FIX.4.4|9=73|35=A|34=45|49=DMA_HUB|56=FIXCLIENT1|52=20231114-10:32:50.380|108=30|98=0|10=019|
2023-11-14 11:32:50.383 [49] [FixSender] (WARNING) The Fix connection is open...
2023-11-14 11:32:50.387 [49] [FixSender] (DEBUG) Sending 8=FIX.4.4|9=65|35=2|49=FIXCLIENT1|56=DMA_HUB|34=2|52=20231114-10:32:50|7=1|16=0|10=103|
2023-11-14 11:32:50.391 [49] [FixSender] (DEBUG) Receiving 8=FIX.4.4|9=103|35=4|34=1|49=DMA_HUB|56=FIXCLIENT1|52=20231114-10:32:50.391|43=Y|122=20231114-10:32:50.391|36=46|123=Y|10=021|
2023-11-14 11:33:05.038 [53] [FixSender] (DEBUG) Sending 8=FIX.4.4|9=226|35=D|49=FIXCLIENT1|56=DMA_HUB|34=3|52=20231114-10:33:05|21=3|11=HS_16999579850|38=2097|55=EDENRED|54=1|60=20231114-10:33:05|40=2|59=1|44=51.1812456|48=FR0010908533|22=4|15=EUR|207=XPAR|432=20221116|109=fidameur|1=fidameur_123|10=043|
2023-11-14 11:33:05.049 [49] [FixSender] (DEBUG) Receiving 8=FIX.4.4|9=277|35=8|34=46|49=DMA_HUB|56=FIXCLIENT1|52=20231114-10:33:05.048|11=HS_16999579850|37=NONE|38=2097|151=0|14=0|17=202311141|150=8|39=8|6=0|44=51.1812456|54=1|40=2|59=1|22=4|48=FR0010908533|55=EDENRED|207=XPAR|15=EUR|58=Cannot resolve instrument 22=4;48=FR0010908533;207=XPAR;15=EUR|10=233|
2023-11-14 11:33:14.265 [54] [FixSender] (DEBUG) Sending 8=FIX.4.4|9=177|35=D|49=FIXCLIENT1|56=DMA_HUB|34=4|52=20231114-10:33:14|21=3|11=HS_16999579941|38=10|55=FBTP202103@XEUR|54=1|60=20231114-10:33:14|40=2|59=1|44=3900|15=EUR|207=XEUR|109=fidameur|10=076|
2023-11-14 11:33:14.422 [49] [FixSender] (DEBUG) Receiving 8=FIX.4.4|9=238|35=8|34=47|49=DMA_HUB|56=FIXCLIENT1|52=20231114-10:33:14.421|11=HS_16999579941|37=NONE|38=10|151=0|14=0|17=202311142|150=8|39=8|6=0|44=3900|54=1|40=2|59=1|55=FBTP202103@XEUR|207=XEUR|15=EUR|58=Cannot resolve instrument 55=FBTP202103@XEUR|10=048|
2023-11-14 11:33:16.565 [55] [FixSender] (DEBUG) Sending 8=FIX.4.4|9=203|35=D|49=FIXCLIENT1|56=DMA_HUB|34=5|52=20231114-10:33:16|21=3|11=HS_16999579962|38=2|55=ORANGE|54=1|60=20231114-10:33:16|40=2|59=0|44=50|48=FR0000133308|22=4|15=EUR|207=XPAR|58=Urgent|109=bram|1=bram_123|10=019|
2023-11-14 11:33:16.567 [49] [FixSender] (DEBUG) Receiving 8=FIX.4.4|9=265|35=8|34=48|49=DMA_HUB|56=FIXCLIENT1|52=20231114-10:33:16.566|11=HS_16999579962|37=NONE|38=2|151=0|14=0|17=202311143|150=8|39=8|6=0|44=50|54=1|40=2|59=0|22=4|48=FR0000133308|55=ORANGE|207=XPAR|15=EUR|58=Cannot resolve instrument 22=4;48=FR0000133308;207=XPAR;15=EUR|10=105|
2023-11-14 11:33:20.322 [49] [FixSender] (DEBUG) Receiving 8=FIX.4.4|9=61|35=0|34=49|49=DMA_HUB|56=FIXCLIENT1|52=20231114-10:33:20.321|10=227|
2023-11-14 11:33:23.148 [56] [FixSender] (DEBUG) Sending 8=FIX.4.4|9=196|35=D|49=FIXCLIENT1|56=DMA_HUB|34=6|52=20231114-10:33:23|21=1|11=HS_16999580033|38=4453|55=E:07G@XETR|54=2|60=20231114-10:33:23|40=2|59=0|44=197.111|48=US3390411052|22=4|15=EUR|207=XETR|1=bram_123|10=030|
2023-11-14 11:33:23.156 [49] [FixSender] (DEBUG) Receiving 8=FIX.4.4|9=239|35=8|34=50|49=DMA_HUB|56=FIXCLIENT1|52=20231114-10:33:23.155|11=HS_16999580033|37=FXrapILcJ|54=2|40=2|59=0|17=202311144|150=A|39=A|38=4453|151=4453|14=0|6=0|44=197.111|60=20231114-10:33:23.000|22=4|48=US3390411052|207=XETR|15=EUR|55=[N/A]|10=003|
2023-11-14 11:33:50.274 [49] [FixSender] (DEBUG) Receiving 8=FIX.4.4|9=61|35=0|34=51|49=DMA_HUB|56=FIXCLIENT1|52=20231114-10:33:50.274|10=230|
2023-11-14 11:33:53.149 [50] [FixSender] (DEBUG) Sending 8=FIX.4.4|9=56|35=0|49=FIXCLIENT1|56=DMA_HUB|34=7|52=20231114-10:33:53|10=243|
2023-11-14 11:34:20.226 [49] [FixSender] (DEBUG) Receiving 8=FIX.4.4|9=61|35=0|34=52|49=DMA_HUB|56=FIXCLIENT1|52=20231114-10:34:20.226|10=226|
2023-11-14 11:34:23.152 [50] [FixSender] (DEBUG) Sending 8=FIX.4.4|9=56|35=0|49=FIXCLIENT1|56=DMA_HUB|34=8|52=20231114-10:34:23|10=242|
2023-11-14 11:34:50.177 [49] [FixSender] (DEBUG) Receiving 8=FIX.4.4|9=61|35=0|34=53|49=DMA_HUB|56=FIXCLIENT1|52=20231114-10:34:50.177|10=235|
2023-11-14 11:34:53.154 [50] [FixSender] (DEBUG) Sending 8=FIX.4.4|9=56|35=0|49=FIXCLIENT1|56=DMA_HUB|34=9|52=20231114-10:34:53|10=246|
2023-11-14 11:35:20.130 [49] [FixSender] (DEBUG) Receiving 8=FIX.4.4|9=61|35=0|34=54|49=DMA_HUB|56=FIXCLIENT1|52=20231114-10:35:20.130|10=223|
2023-11-14 11:35:23.161 [50] [FixSender] (DEBUG) Sending 8=FIX.4.4|9=57|35=0|49=FIXCLIENT1|56=DMA_HUB|34=10|52=20231114-10:35:23|10=029|
2023-11-14 11:35:50.082 [49] [FixSender] (DEBUG) Receiving 8=FIX.4.4|9=61|35=0|34=55|49=DMA_HUB|56=FIXCLIENT1|52=20231114-10:35:50.081|10=232|
2023-11-14 11:35:53.163 [50] [FixSender] (DEBUG) Sending 8=FIX.4.4|9=57|35=0|49=FIXCLIENT1|56=DMA_HUB|34=11|52=20231114-10:35:53|10=033|
2023-11-14 11:36:20.033 [49] [FixSender] (DEBUG) Receiving 8=FIX.4.4|9=61|35=0|34=56|49=DMA_HUB|56=FIXCLIENT1|52=20231114-10:36:20.033|10=228|
2023-11-14 11:36:23.167 [50] [FixSender] (DEBUG) Sending 8=FIX.4.4|9=57|35=0|49=FIXCLIENT1|56=DMA_HUB|34=12|52=20231114-10:36:23|10=032|
2023-11-14 11:36:49.985 [49] [FixSender] (DEBUG) Receiving 8=FIX.4.4|9=61|35=0|34=57|49=DMA_HUB|56=FIXCLIENT1|52=20231114-10:36:49.985|10=000|
2023-11-14 11:36:53.167 [50] [FixSender] (DEBUG) Sending 8=FIX.4.4|9=57|35=0|49=FIXCLIENT1|56=DMA_HUB|34=13|52=20231114-10:36:53|10=036|
2023-11-14 11:37:19.939 [49] [FixSender] (DEBUG) Receiving 8=FIX.4.4|9=61|35=0|34=58|49=DMA_HUB|56=FIXCLIENT1|52=20231114-10:37:19.938|10=253|
2023-11-14 11:37:23.170 [50] [FixSender] (DEBUG) Sending 8=FIX.4.4|9=57|35=0|49=FIXCLIENT1|56=DMA_HUB|34=14|52=20231114-10:37:23|10=035|
2023-11-14 11:37:49.890 [49] [FixSender] (DEBUG) Receiving 8=FIX.4.4|9=61|35=0|34=59|49=DMA_HUB|56=FIXCLIENT1|52=20231114-10:37:49.889|10=006|
2023-11-14 11:37:53.172 [50] [FixSender] (DEBUG) Sending 8=FIX.4.4|9=57|35=0|49=FIXCLIENT1|56=DMA_HUB|34=15|52=20231114-10:37:53|10=039|
2023-11-14 11:38:19.842 [49] [FixSender] (DEBUG) Receiving 8=FIX.4.4|9=61|35=0|34=60|49=DMA_HUB|56=FIXCLIENT1|52=20231114-10:38:19.842|10=241|
2023-11-14 11:38:23.181 [50] [FixSender] (DEBUG) Sending 8=FIX.4.4|9=57|35=0|49=FIXCLIENT1|56=DMA_HUB|34=16|52=20231114-10:38:23|10=038|
2023-11-14 11:38:49.794 [49] [FixSender] (DEBUG) Receiving 8=FIX.4.4|9=61|35=0|34=61|49=DMA_HUB|56=FIXCLIENT1|52=20231114-10:38:49.793|10=250|
2023-11-14 11:38:53.182 [50] [FixSender] (DEBUG) Sending 8=FIX.4.4|9=57|35=0|49=FIXCLIENT1|56=DMA_HUB|34=17|52=20231114-10:38:53|10=042|
2023-11-14 11:39:19.746 [49] [FixSender] (DEBUG) Receiving 8=FIX.4.4|9=61|35=0|34=62|49=DMA_HUB|56=FIXCLIENT1|52=20231114-10:39:19.746|10=247|
2023-11-14 11:39:23.184 [50] [FixSender] (DEBUG) Sending 8=FIX.4.4|9=57|35=0|49=FIXCLIENT1|56=DMA_HUB|34=18|52=20231114-10:39:23|10=041|
2023-11-14 11:39:49.698 [49] [FixSender] (DEBUG) Receiving 8=FIX.4.4|9=61|35=0|34=63|49=DMA_HUB|56=FIXCLIENT1|52=20231114-10:39:49.698|10=001|
2023-11-14 11:39:53.185 [50] [FixSender] (DEBUG) Sending 8=FIX.4.4|9=57|35=0|49=FIXCLIENT1|56=DMA_HUB|34=19|52=20231114-10:39:53|10=045|
2023-11-14 11:40:19.655 [49] [FixSender] (DEBUG) Receiving 8=FIX.4.4|9=61|35=0|34=64|49=DMA_HUB|56=FIXCLIENT1|52=20231114-10:40:19.653|10=238|
2023-11-14 11:40:23.186 [50] [FixSender] (DEBUG) Sending 8=FIX.4.4|9=57|35=0|49=FIXCLIENT1|56=DMA_HUB|34=20|52=20231114-10:40:23|10=026|
2023-11-14 11:40:49.602 [49] [FixSender] (DEBUG) Receiving 8=FIX.4.4|9=61|35=0|34=65|49=DMA_HUB|56=FIXCLIENT1|52=20231114-10:40:49.601|10=235|
2023-11-14 11:40:53.187 [50] [FixSender] (DEBUG) Sending 8=FIX.4.4|9=57|35=0|49=FIXCLIENT1|56=DMA_HUB|34=21|52=20231114-10:40:53|10=030|
2023-11-14 11:41:19.554 [49] [FixSender] (DEBUG) Receiving 8=FIX.4.4|9=61|35=0|34=66|49=DMA_HUB|56=FIXCLIENT1|52=20231114-10:41:19.554|10=241|
2023-11-14 11:41:23.187 [50] [FixSender] (DEBUG) Sending 8=FIX.4.4|9=57|35=0|49=FIXCLIENT1|56=DMA_HUB|34=22|52=20231114-10:41:23|10=029|
2023-11-14 11:41:49.506 [49] [FixSender] (DEBUG) Receiving 8=FIX.4.4|9=61|35=0|34=67|49=DMA_HUB|56=FIXCLIENT1|52=20231114-10:41:49.506|10=242|
2023-11-14 11:41:53.188 [50] [FixSender] (DEBUG) Sending 8=FIX.4.4|9=57|35=0|49=FIXCLIENT1|56=DMA_HUB|34=23|52=20231114-10:41:53|10=033|
2023-11-14 11:42:19.457 [49] [FixSender] (DEBUG) Receiving 8=FIX.4.4|9=61|35=0|34=68|49=DMA_HUB|56=FIXCLIENT1|52=20231114-10:42:19.457|10=246|
2023-11-14 11:42:23.190 [50] [FixSender] (DEBUG) Sending 8=FIX.4.4|9=57|35=0|49=FIXCLIENT1|56=DMA_HUB|34=24|52=20231114-10:42:23|10=032|
2023-11-14 11:42:49.409 [49] [FixSender] (DEBUG) Receiving 8=FIX.4.4|9=61|35=0|34=69|49=DMA_HUB|56=FIXCLIENT1|52=20231114-10:42:49.409|10=247|
2023-11-14 11:42:53.205 [50] [FixSender] (DEBUG) Sending 8=FIX.4.4|9=57|35=0|49=FIXCLIENT1|56=DMA_HUB|34=25|52=20231114-10:42:53|10=036|
2023-11-14 11:43:19.361 [49] [FixSender] (DEBUG) Receiving 8=FIX.4.4|9=61|35=0|34=70|49=DMA_HUB|56=FIXCLIENT1|52=20231114-10:43:19.361|10=234|
2023-11-14 11:43:23.206 [50] [FixSender] (DEBUG) Sending 8=FIX.4.4|9=57|35=0|49=FIXCLIENT1|56=DMA_HUB|34=26|52=20231114-10:43:23|10=035|
2023-11-14 11:43:49.315 [49] [FixSender] (DEBUG) Receiving 8=FIX.4.4|9=61|35=0|34=71|49=DMA_HUB|56=FIXCLIENT1|52=20231114-10:43:49.314|10=236|
2023-11-14 11:43:53.209 [50] [FixSender] (DEBUG) Sending 8=FIX.4.4|9=57|35=0|49=FIXCLIENT1|56=DMA_HUB|34=27|52=20231114-10:43:53|10=039|
2023-11-14 11:44:19.267 [49] [FixSender] (DEBUG) Receiving 8=FIX.4.4|9=61|35=0|34=72|49=DMA_HUB|56=FIXCLIENT1|52=20231114-10:44:19.266|10=241|
2023-11-14 11:44:23.212 [50] [FixSender] (DEBUG) Sending 8=FIX.4.4|9=57|35=0|49=FIXCLIENT1|56=DMA_HUB|34=28|52=20231114-10:44:23|10=038|
2023-11-14 11:44:49.217 [49] [FixSender] (DEBUG) Receiving 8=FIX.4.4|9=61|35=0|34=73|49=DMA_HUB|56=FIXCLIENT1|52=20231114-10:44:49.217|10=241|
2023-11-14 11:44:53.212 [50] [FixSender] (DEBUG) Sending 8=FIX.4.4|9=57|35=0|49=FIXCLIENT1|56=DMA_HUB|34=29|52=20231114-10:44:53|10=042|
2023-11-14 11:45:19.169 [49] [FixSender] (DEBUG) Receiving 8=FIX.4.4|9=61|35=0|34=74|49=DMA_HUB|56=FIXCLIENT1|52=20231114-10:45:19.169|10=246|
2023-11-14 11:45:23.215 [50] [FixSender] (DEBUG) Sending 8=FIX.4.4|9=57|35=0|49=FIXCLIENT1|56=DMA_HUB|34=30|52=20231114-10:45:23|10=032|
2023-11-14 11:45:49.121 [49] [FixSender] (DEBUG) Receiving 8=FIX.4.4|9=61|35=0|34=75|49=DMA_HUB|56=FIXCLIENT1|52=20231114-10:45:49.121|10=238|
2023-11-14 11:45:53.218 [50] [FixSender] (DEBUG) Sending 8=FIX.4.4|9=57|35=0|49=FIXCLIENT1|56=DMA_HUB|34=31|52=20231114-10:45:53|10=036|
2023-11-14 11:46:19.074 [49] [FixSender] (DEBUG) Receiving 8=FIX.4.4|9=61|35=0|34=76|49=DMA_HUB|56=FIXCLIENT1|52=20231114-10:46:19.074|10=244|
2023-11-14 11:46:23.220 [50] [FixSender] (DEBUG) Sending 8=FIX.4.4|9=57|35=0|49=FIXCLIENT1|56=DMA_HUB|34=32|52=20231114-10:46:23|10=035|
2023-11-14 11:46:49.027 [49] [FixSender] (DEBUG) Receiving 8=FIX.4.4|9=61|35=0|34=77|49=DMA_HUB|56=FIXCLIENT1|52=20231114-10:46:49.026|10=245|
2023-11-14 11:46:53.222 [50] [FixSender] (DEBUG) Sending 8=FIX.4.4|9=57|35=0|49=FIXCLIENT1|56=DMA_HUB|34=33|52=20231114-10:46:53|10=039|
2023-11-14 11:47:18.978 [49] [FixSender] (DEBUG) Receiving 8=FIX.4.4|9=61|35=0|34=78|49=DMA_HUB|56=FIXCLIENT1|52=20231114-10:47:18.977|10=002|
2023-11-14 11:47:23.224 [50] [FixSender] (DEBUG) Sending 8=FIX.4.4|9=57|35=0|49=FIXCLIENT1|56=DMA_HUB|34=34|52=20231114-10:47:23|10=038|
2023-11-14 11:47:48.930 [49] [FixSender] (DEBUG) Receiving 8=FIX.4.4|9=61|35=0|34=79|49=DMA_HUB|56=FIXCLIENT1|52=20231114-10:47:48.930|10=251|
2023-11-14 11:47:53.225 [50] [FixSender] (DEBUG) Sending 8=FIX.4.4|9=57|35=0|49=FIXCLIENT1|56=DMA_HUB|34=35|52=20231114-10:47:53|10=042|
2023-11-14 11:48:18.882 [49] [FixSender] (DEBUG) Receiving 8=FIX.4.4|9=61|35=0|34=80|49=DMA_HUB|56=FIXCLIENT1|52=20231114-10:48:18.882|10=247|
2023-11-14 11:48:23.228 [50] [FixSender] (DEBUG) Sending 8=FIX.4.4|9=57|35=0|49=FIXCLIENT1|56=DMA_HUB|34=36|52=20231114-10:48:23|10=041|
2023-11-14 11:48:48.835 [49] [FixSender] (DEBUG) Receiving 8=FIX.4.4|9=61|35=0|34=81|49=DMA_HUB|56=FIXCLIENT1|52=20231114-10:48:48.834|10=248|
2023-11-14 11:48:53.229 [50] [FixSender] (DEBUG) Sending 8=FIX.4.4|9=57|35=0|49=FIXCLIENT1|56=DMA_HUB|34=37|52=20231114-10:48:53|10=045|
2023-11-14 11:49:18.786 [49] [FixSender] (DEBUG) Receiving 8=FIX.4.4|9=61|35=0|34=82|49=DMA_HUB|56=FIXCLIENT1|52=20231114-10:49:18.786|10=253|
2023-11-14 11:49:23.231 [50] [FixSender] (DEBUG) Sending 8=FIX.4.4|9=57|35=0|49=FIXCLIENT1|56=DMA_HUB|34=38|52=20231114-10:49:23|10=044|
2023-11-14 11:49:48.738 [49] [FixSender] (DEBUG) Receiving 8=FIX.4.4|9=61|35=0|34=83|49=DMA_HUB|56=FIXCLIENT1|52=20231114-10:49:48.737|10=253|
2023-11-14 11:49:53.232 [50] [FixSender] (DEBUG) Sending 8=FIX.4.4|9=57|35=0|49=FIXCLIENT1|56=DMA_HUB|34=39|52=20231114-10:49:53|10=048|
2023-11-14 11:50:18.717 [49] [FixSender] (DEBUG) Receiving 8=FIX.4.4|9=61|35=0|34=84|49=DMA_HUB|56=FIXCLIENT1|52=20231114-10:50:18.689|10=249|
2023-11-14 11:50:23.235 [50] [FixSender] (DEBUG) Sending 8=FIX.4.4|9=57|35=0|49=FIXCLIENT1|56=DMA_HUB|34=40|52=20231114-10:50:23|10=029|
2023-11-14 11:50:48.642 [49] [FixSender] (DEBUG) Receiving 8=FIX.4.4|9=61|35=0|34=85|49=DMA_HUB|56=FIXCLIENT1|52=20231114-10:50:48.642|10=242|
2023-11-14 11:50:53.236 [50] [FixSender] (DEBUG) Sending 8=FIX.4.4|9=57|35=0|49=FIXCLIENT1|56=DMA_HUB|34=41|52=20231114-10:50:53|10=033|
2023-11-14 11:51:18.593 [49] [FixSender] (DEBUG) Receiving 8=FIX.4.4|9=61|35=0|34=86|49=DMA_HUB|56=FIXCLIENT1|52=20231114-10:51:18.593|10=246|
2023-11-14 11:51:23.248 [50] [FixSender] (DEBUG) Sending 8=FIX.4.4|9=57|35=0|49=FIXCLIENT1|56=DMA_HUB|34=42|52=20231114-10:51:23|10=032|
2023-11-14 11:51:48.546 [49] [FixSender] (DEBUG) Receiving 8=FIX.4.4|9=61|35=0|34=87|49=DMA_HUB|56=FIXCLIENT1|52=20231114-10:51:48.545|10=247|
2023-11-14 11:51:53.261 [50] [FixSender] (DEBUG) Sending 8=FIX.4.4|9=57|35=0|49=FIXCLIENT1|56=DMA_HUB|34=43|52=20231114-10:51:53|10=036|
2023-11-14 11:52:18.497 [49] [FixSender] (DEBUG) Receiving 8=FIX.4.4|9=61|35=0|34=88|49=DMA_HUB|56=FIXCLIENT1|52=20231114-10:52:18.497|10=252|
2023-11-14 11:52:23.263 [50] [FixSender] (DEBUG) Sending 8=FIX.4.4|9=57|35=0|49=FIXCLIENT1|56=DMA_HUB|34=44|52=20231114-10:52:23|10=035|
2023-11-14 11:52:48.449 [49] [FixSender] (DEBUG) Receiving 8=FIX.4.4|9=61|35=0|34=89|49=DMA_HUB|56=FIXCLIENT1|52=20231114-10:52:48.449|10=253|
2023-11-14 11:52:53.266 [50] [FixSender] (DEBUG) Sending 8=FIX.4.4|9=57|35=0|49=FIXCLIENT1|56=DMA_HUB|34=45|52=20231114-10:52:53|10=039|
2023-11-14 11:53:18.403 [49] [FixSender] (DEBUG) Receiving 8=FIX.4.4|9=61|35=0|34=90|49=DMA_HUB|56=FIXCLIENT1|52=20231114-10:53:18.402|10=232|
2023-11-14 11:53:23.268 [50] [FixSender] (DEBUG) Sending 8=FIX.4.4|9=57|35=0|49=FIXCLIENT1|56=DMA_HUB|34=46|52=20231114-10:53:23|10=038|
2023-11-14 11:53:48.354 [49] [FixSender] (DEBUG) Receiving 8=FIX.4.4|9=61|35=0|34=91|49=DMA_HUB|56=FIXCLIENT1|52=20231114-10:53:48.354|10=242|
2023-11-14 11:53:53.271 [50] [FixSender] (DEBUG) Sending 8=FIX.4.4|9=57|35=0|49=FIXCLIENT1|56=DMA_HUB|34=47|52=20231114-10:53:53|10=042|
2023-11-14 11:54:18.307 [49] [FixSender] (DEBUG) Receiving 8=FIX.4.4|9=61|35=0|34=92|49=DMA_HUB|56=FIXCLIENT1|52=20231114-10:54:18.306|10=238|
2023-11-14 11:54:23.277 [50] [FixSender] (DEBUG) Sending 8=FIX.4.4|9=57|35=0|49=FIXCLIENT1|56=DMA_HUB|34=48|52=20231114-10:54:23|10=041|
2023-11-14 11:54:48.258 [49] [FixSender] (DEBUG) Receiving 8=FIX.4.4|9=61|35=0|34=93|49=DMA_HUB|56=FIXCLIENT1|52=20231114-10:54:48.258|10=248|
2023-11-14 11:54:53.277 [50] [FixSender] (DEBUG) Sending 8=FIX.4.4|9=57|35=0|49=FIXCLIENT1|56=DMA_HUB|34=49|52=20231114-10:54:53|10=045|
2023-11-14 11:55:18.210 [49] [FixSender] (DEBUG) Receiving 8=FIX.4.4|9=61|35=0|34=94|49=DMA_HUB|56=FIXCLIENT1|52=20231114-10:55:18.210|10=235|
2023-11-14 11:55:23.284 [50] [FixSender] (DEBUG) Sending 8=FIX.4.4|9=57|35=0|49=FIXCLIENT1|56=DMA_HUB|34=50|52=20231114-10:55:23|10=035|
2023-11-14 11:55:48.162 [49] [FixSender] (DEBUG) Receiving 8=FIX.4.4|9=61|35=0|34=95|49=DMA_HUB|56=FIXCLIENT1|52=20231114-10:55:48.161|10=244|
2023-11-14 11:55:53.284 [50] [FixSender] (DEBUG) Sending 8=FIX.4.4|9=57|35=0|49=FIXCLIENT1|56=DMA_HUB|34=51|52=20231114-10:55:53|10=039|
2023-11-14 11:56:18.113 [49] [FixSender] (DEBUG) Receiving 8=FIX.4.4|9=61|35=0|34=96|49=DMA_HUB|56=FIXCLIENT1|52=20231114-10:56:18.113|10=240|
2023-11-14 11:56:23.286 [50] [FixSender] (DEBUG) Sending 8=FIX.4.4|9=57|35=0|49=FIXCLIENT1|56=DMA_HUB|34=52|52=20231114-10:56:23|10=038|
2023-11-14 11:56:48.065 [49] [FixSender] (DEBUG) Receiving 8=FIX.4.4|9=61|35=0|34=97|49=DMA_HUB|56=FIXCLIENT1|52=20231114-10:56:48.065|10=250|
2023-11-14 11:56:53.288 [50] [FixSender] (DEBUG) Sending 8=FIX.4.4|9=57|35=0|49=FIXCLIENT1|56=DMA_HUB|34=53|52=20231114-10:56:53|10=042|
2023-11-14 11:57:18.019 [49] [FixSender] (DEBUG) Receiving 8=FIX.4.4|9=61|35=0|34=98|49=DMA_HUB|56=FIXCLIENT1|52=20231114-10:57:18.018|10=247|
2023-11-14 11:57:23.295 [50] [FixSender] (DEBUG) Sending 8=FIX.4.4|9=57|35=0|49=FIXCLIENT1|56=DMA_HUB|34=54|52=20231114-10:57:23|10=041|
2023-11-14 11:57:47.969 [49] [FixSender] (DEBUG) Receiving 8=FIX.4.4|9=61|35=0|34=99|49=DMA_HUB|56=FIXCLIENT1|52=20231114-10:57:47.969|10=009|
2023-11-14 11:57:53.296 [50] [FixSender] (DEBUG) Sending 8=FIX.4.4|9=57|35=0|49=FIXCLIENT1|56=DMA_HUB|34=55|52=20231114-10:57:53|10=045|
2023-11-14 11:58:17.922 [49] [FixSender] (DEBUG) Receiving 8=FIX.4.4|9=62|35=0|34=100|49=DMA_HUB|56=FIXCLIENT1|52=20231114-10:58:17.921|10=027|
2023-11-14 11:58:23.298 [50] [FixSender] (DEBUG) Sending 8=FIX.4.4|9=57|35=0|49=FIXCLIENT1|56=DMA_HUB|34=56|52=20231114-10:58:23|10=044|
2023-11-14 11:58:47.875 [49] [FixSender] (DEBUG) Receiving 8=FIX.4.4|9=62|35=0|34=101|49=DMA_HUB|56=FIXCLIENT1|52=20231114-10:58:47.874|10=038|
2023-11-14 11:58:53.301 [50] [FixSender] (DEBUG) Sending 8=FIX.4.4|9=57|35=0|49=FIXCLIENT1|56=DMA_HUB|34=57|52=20231114-10:58:53|10=048|
2023-11-14 11:59:17.826 [49] [FixSender] (DEBUG) Receiving 8=FIX.4.4|9=62|35=0|34=102|49=DMA_HUB|56=FIXCLIENT1|52=20231114-10:59:17.825|10=033|
2023-11-14 11:59:23.303 [50] [FixSender] (DEBUG) Sending 8=FIX.4.4|9=57|35=0|49=FIXCLIENT1|56=DMA_HUB|34=58|52=20231114-10:59:23|10=047|
2023-11-14 11:59:47.778 [49] [FixSender] (DEBUG) Receiving 8=FIX.4.4|9=62|35=0|34=103|49=DMA_HUB|56=FIXCLIENT1|52=20231114-10:59:47.778|10=044|
2023-11-14 11:59:53.315 [50] [FixSender] (DEBUG) Sending 8=FIX.4.4|9=57|35=0|49=FIXCLIENT1|56=DMA_HUB|34=59|52=20231114-10:59:53|10=051|
2023-11-14 12:00:17.730 [49] [FixSender] (DEBUG) Receiving 8=FIX.4.4|9=62|35=0|34=104|49=DMA_HUB|56=FIXCLIENT1|52=20231114-11:00:17.730|10=017|
2023-11-14 12:00:23.315 [50] [FixSender] (DEBUG) Sending 8=FIX.4.4|9=57|35=0|49=FIXCLIENT1|56=DMA_HUB|34=60|52=20231114-11:00:23|10=027|
2023-11-14 12:00:47.681 [49] [FixSender] (DEBUG) Receiving 8=FIX.4.4|9=62|35=0|34=105|49=DMA_HUB|56=FIXCLIENT1|52=20231114-11:00:47.681|10=026|
2023-11-14 12:00:53.317 [50] [FixSender] (DEBUG) Sending 8=FIX.4.4|9=57|35=0|49=FIXCLIENT1|56=DMA_HUB|34=61|52=20231114-11:00:53|10=031|
2023-11-14 12:01:17.634 [49] [FixSender] (DEBUG) Receiving 8=FIX.4.4|9=62|35=0|34=106|49=DMA_HUB|56=FIXCLIENT1|52=20231114-11:01:17.633|10=022|
2023-11-14 12:01:23.330 [50] [FixSender] (DEBUG) Sending 8=FIX.4.4|9=57|35=0|49=FIXCLIENT1|56=DMA_HUB|34=62|52=20231114-11:01:23|10=030|
2023-11-14 12:01:47.585 [49] [FixSender] (DEBUG) Receiving 8=FIX.4.4|9=62|35=0|34=107|49=DMA_HUB|56=FIXCLIENT1|52=20231114-11:01:47.585|10=032|
2023-11-14 12:01:53.331 [50] [FixSender] (DEBUG) Sending 8=FIX.4.4|9=57|35=0|49=FIXCLIENT1|56=DMA_HUB|34=63|52=20231114-11:01:53|10=034|
2023-11-14 12:02:17.538 [49] [FixSender] (DEBUG) Receiving 8=FIX.4.4|9=62|35=0|34=108|49=DMA_HUB|56=FIXCLIENT1|52=20231114-11:02:17.538|10=029|
2023-11-14 12:02:23.336 [50] [FixSender] (DEBUG) Sending 8=FIX.4.4|9=57|35=0|49=FIXCLIENT1|56=DMA_HUB|34=64|52=20231114-11:02:23|10=033|
2023-11-14 12:02:47.489 [49] [FixSender] (DEBUG) Receiving 8=FIX.4.4|9=62|35=0|34=109|49=DMA_HUB|56=FIXCLIENT1|52=20231114-11:02:47.489|10=038|
2023-11-14 12:02:53.338 [50] [FixSender] (DEBUG) Sending 8=FIX.4.4|9=57|35=0|49=FIXCLIENT1|56=DMA_HUB|34=65|52=20231114-11:02:53|10=037|
2023-11-14 12:03:17.442 [49] [FixSender] (DEBUG) Receiving 8=FIX.4.4|9=62|35=0|34=110|49=DMA_HUB|56=FIXCLIENT1|52=20231114-11:03:17.441|10=016|
2023-11-14 12:03:23.343 [50] [FixSender] (DEBUG) Sending 8=FIX.4.4|9=57|35=0|49=FIXCLIENT1|56=DMA_HUB|34=66|52=20231114-11:03:23|10=036|
2023-11-14 12:03:47.394 [49] [FixSender] (DEBUG) Receiving 8=FIX.4.4|9=62|35=0|34=111|49=DMA_HUB|56=FIXCLIENT1|52=20231114-11:03:47.393|10=026|
2023-11-14 12:03:53.344 [50] [FixSender] (DEBUG) Sending 8=FIX.4.4|9=57|35=0|49=FIXCLIENT1|56=DMA_HUB|34=67|52=20231114-11:03:53|10=040|
2023-11-14 12:04:17.346 [49] [FixSender] (DEBUG) Receiving 8=FIX.4.4|9=62|35=0|34=112|49=DMA_HUB|56=FIXCLIENT1|52=20231114-11:04:17.345|10=022|
2023-11-14 12:04:23.345 [50] [FixSender] (DEBUG) Sending 8=FIX.4.4|9=57|35=0|49=FIXCLIENT1|56=DMA_HUB|34=68|52=20231114-11:04:23|10=039|
2023-11-14 12:04:47.298 [49] [FixSender] (DEBUG) Receiving 8=FIX.4.4|9=62|35=0|34=113|49=DMA_HUB|56=FIXCLIENT1|52=20231114-11:04:47.298|10=033|
2023-11-14 12:04:53.360 [50] [FixSender] (DEBUG) Sending 8=FIX.4.4|9=57|35=0|49=FIXCLIENT1|56=DMA_HUB|34=69|52=20231114-11:04:53|10=043|
2023-11-14 12:05:17.250 [49] [FixSender] (DEBUG) Receiving 8=FIX.4.4|9=62|35=0|34=114|49=DMA_HUB|56=FIXCLIENT1|52=20231114-11:05:17.250|10=020|
2023-11-14 12:05:23.361 [50] [FixSender] (DEBUG) Sending 8=FIX.4.4|9=57|35=0|49=FIXCLIENT1|56=DMA_HUB|34=70|52=20231114-11:05:23|10=033|
2023-11-14 12:05:47.202 [49] [FixSender] (DEBUG) Receiving 8=FIX.4.4|9=62|35=0|34=115|49=DMA_HUB|56=FIXCLIENT1|52=20231114-11:05:47.202|10=021|
2023-11-14 12:05:53.369 [50] [FixSender] (DEBUG) Sending 8=FIX.4.4|9=57|35=0|49=FIXCLIENT1|56=DMA_HUB|34=71|52=20231114-11:05:53|10=037|
2023-11-14 12:06:17.154 [49] [FixSender] (DEBUG) Receiving 8=FIX.4.4|9=62|35=0|34=116|49=DMA_HUB|56=FIXCLIENT1|52=20231114-11:06:17.154|10=026|
2023-11-14 12:06:23.371 [50] [FixSender] (DEBUG) Sending 8=FIX.4.4|9=57|35=0|49=FIXCLIENT1|56=DMA_HUB|34=72|52=20231114-11:06:23|10=036|
2023-11-14 12:06:47.107 [49] [FixSender] (DEBUG) Receiving 8=FIX.4.4|9=62|35=0|34=117|49=DMA_HUB|56=FIXCLIENT1|52=20231114-11:06:47.106|10=027|
2023-11-14 12:06:53.372 [50] [FixSender] (DEBUG) Sending 8=FIX.4.4|9=57|35=0|49=FIXCLIENT1|56=DMA_HUB|34=73|52=20231114-11:06:53|10=040|
2023-11-14 12:07:17.057 [49] [FixSender] (DEBUG) Receiving 8=FIX.4.4|9=62|35=0|34=118|49=DMA_HUB|56=FIXCLIENT1|52=20231114-11:07:17.057|10=031|
2023-11-14 12:07:23.375 [50] [FixSender] (DEBUG) Sending 8=FIX.4.4|9=57|35=0|49=FIXCLIENT1|56=DMA_HUB|34=74|52=20231114-11:07:23|10=039|
2023-11-14 12:07:47.010 [49] [FixSender] (DEBUG) Receiving 8=FIX.4.4|9=62|35=0|34=119|49=DMA_HUB|56=FIXCLIENT1|52=20231114-11:07:47.010|10=024|
2023-11-14 12:07:53.377 [50] [FixSender] (DEBUG) Sending 8=FIX.4.4|9=57|35=0|49=FIXCLIENT1|56=DMA_HUB|34=75|52=20231114-11:07:53|10=043|
2023-11-14 12:08:16.962 [49] [FixSender] (DEBUG) Receiving 8=FIX.4.4|9=62|35=0|34=120|49=DMA_HUB|56=FIXCLIENT1|52=20231114-11:08:16.962|10=029|
2023-11-14 12:08:23.379 [50] [FixSender] (DEBUG) Sending 8=FIX.4.4|9=57|35=0|49=FIXCLIENT1|56=DMA_HUB|34=76|52=20231114-11:08:23|10=042|
2023-11-14 12:08:46.913 [49] [FixSender] (DEBUG) Receiving 8=FIX.4.4|9=62|35=0|34=121|49=DMA_HUB|56=FIXCLIENT1|52=20231114-11:08:46.913|10=029|
2023-11-14 12:08:53.380 [50] [FixSender] (DEBUG) Sending 8=FIX.4.4|9=57|35=0|49=FIXCLIENT1|56=DMA_HUB|34=77|52=20231114-11:08:53|10=046|
2023-11-14 12:09:16.866 [49] [FixSender] (DEBUG) Receiving 8=FIX.4.4|9=62|35=0|34=122|49=DMA_HUB|56=FIXCLIENT1|52=20231114-11:09:16.866|10=035|
2023-11-14 12:09:23.383 [50] [FixSender] (DEBUG) Sending 8=FIX.4.4|9=57|35=0|49=FIXCLIENT1|56=DMA_HUB|34=78|52=20231114-11:09:23|10=045|
2023-11-14 12:09:46.819 [49] [FixSender] (DEBUG) Receiving 8=FIX.4.4|9=62|35=0|34=123|49=DMA_HUB|56=FIXCLIENT1|52=20231114-11:09:46.818|10=036|
2023-11-14 12:09:53.384 [50] [FixSender] (DEBUG) Sending 8=FIX.4.4|9=57|35=0|49=FIXCLIENT1|56=DMA_HUB|34=79|52=20231114-11:09:53|10=049|
2023-11-14 12:10:16.770 [49] [FixSender] (DEBUG) Receiving 8=FIX.4.4|9=62|35=0|34=124|49=DMA_HUB|56=FIXCLIENT1|52=20231114-11:10:16.769|10=031|
2023-11-14 12:10:23.385 [50] [FixSender] (DEBUG) Sending 8=FIX.4.4|9=57|35=0|49=FIXCLIENT1|56=DMA_HUB|34=80|52=20231114-11:10:23|10=030|
2023-11-14 12:10:46.721 [49] [FixSender] (DEBUG) Receiving 8=FIX.4.4|9=62|35=0|34=125|49=DMA_HUB|56=FIXCLIENT1|52=20231114-11:10:46.721|10=023|
2023-11-14 12:10:53.390 [50] [FixSender] (DEBUG) Sending 8=FIX.4.4|9=57|35=0|49=FIXCLIENT1|56=DMA_HUB|34=81|52=20231114-11:10:53|10=034|
2023-11-14 12:11:16.674 [49] [FixSender] (DEBUG) Receiving 8=FIX.4.4|9=62|35=0|34=126|49=DMA_HUB|56=FIXCLIENT1|52=20231114-11:11:16.674|10=029|
2023-11-14 12:11:23.391 [50] [FixSender] (DEBUG) Sending 8=FIX.4.4|9=57|35=0|49=FIXCLIENT1|56=DMA_HUB|34=82|52=20231114-11:11:23|10=033|
2023-11-14 12:11:46.625 [49] [FixSender] (DEBUG) Receiving 8=FIX.4.4|9=62|35=0|34=127|49=DMA_HUB|56=FIXCLIENT1|52=20231114-11:11:46.625|10=029|
2023-11-14 12:11:53.394 [50] [FixSender] (DEBUG) Sending 8=FIX.4.4|9=57|35=0|49=FIXCLIENT1|56=DMA_HUB|34=83|52=20231114-11:11:53|10=037|
2023-11-14 12:12:16.577 [49] [FixSender] (DEBUG) Receiving 8=FIX.4.4|9=62|35=0|34=128|49=DMA_HUB|56=FIXCLIENT1|52=20231114-11:12:16.577|10=034|
2023-11-14 12:12:23.406 [50] [FixSender] (DEBUG) Sending 8=FIX.4.4|9=57|35=0|49=FIXCLIENT1|56=DMA_HUB|34=84|52=20231114-11:12:23|10=036|
2023-11-14 12:12:46.530 [49] [FixSender] (DEBUG) Receiving 8=FIX.4.4|9=62|35=0|34=129|49=DMA_HUB|56=FIXCLIENT1|52=20231114-11:12:46.530|10=027|
2023-11-14 12:12:53.411 [50] [FixSender] (DEBUG) Sending 8=FIX.4.4|9=57|35=0|49=FIXCLIENT1|56=DMA_HUB|34=85|52=20231114-11:12:53|10=040|
2023-11-14 12:13:16.482 [49] [FixSender] (DEBUG) Receiving 8=FIX.4.4|9=62|35=0|34=130|49=DMA_HUB|56=FIXCLIENT1|52=20231114-11:13:16.482|10=023|
2023-11-14 12:13:23.412 [50] [FixSender] (DEBUG) Sending 8=FIX.4.4|9=57|35=0|49=FIXCLIENT1|56=DMA_HUB|34=86|52=20231114-11:13:23|10=039|
2023-11-14 12:13:46.434 [49] [FixSender] (DEBUG) Receiving 8=FIX.4.4|9=62|35=0|34=131|49=DMA_HUB|56=FIXCLIENT1|52=20231114-11:13:46.434|10=024|
2023-11-14 12:13:53.415 [50] [FixSender] (DEBUG) Sending 8=FIX.4.4|9=57|35=0|49=FIXCLIENT1|56=DMA_HUB|34=87|52=20231114-11:13:53|10=043|
2023-11-14 12:14:16.386 [49] [FixSender] (DEBUG) Receiving 8=FIX.4.4|9=62|35=0|34=132|49=DMA_HUB|56=FIXCLIENT1|52=20231114-11:14:16.386|10=029|
2023-11-14 12:14:23.416 [50] [FixSender] (DEBUG) Sending 8=FIX.4.4|9=57|35=0|49=FIXCLIENT1|56=DMA_HUB|34=88|52=20231114-11:14:23|10=042|
2023-11-14 12:14:46.337 [49] [FixSender] (DEBUG) Receiving 8=FIX.4.4|9=62|35=0|34=133|49=DMA_HUB|56=FIXCLIENT1|52=20231114-11:14:46.337|10=029|
2023-11-14 12:14:53.417 [50] [FixSender] (DEBUG) Sending 8=FIX.4.4|9=57|35=0|49=FIXCLIENT1|56=DMA_HUB|34=89|52=20231114-11:14:53|10=046|
2023-11-14 12:15:16.290 [49] [FixSender] (DEBUG) Receiving 8=FIX.4.4|9=62|35=0|34=134|49=DMA_HUB|56=FIXCLIENT1|52=20231114-11:15:16.290|10=026|
2023-11-14 12:15:23.419 [50] [FixSender] (DEBUG) Sending 8=FIX.4.4|9=57|35=0|49=FIXCLIENT1|56=DMA_HUB|34=90|52=20231114-11:15:23|10=036|
2023-11-14 12:15:46.242 [49] [FixSender] (DEBUG) Receiving 8=FIX.4.4|9=62|35=0|34=135|49=DMA_HUB|56=FIXCLIENT1|52=20231114-11:15:46.242|10=027|
2023-11-14 12:15:53.420 [50] [FixSender] (DEBUG) Sending 8=FIX.4.4|9=57|35=0|49=FIXCLIENT1|56=DMA_HUB|34=91|52=20231114-11:15:53|10=040|
2023-11-14 12:16:16.194 [49] [FixSender] (DEBUG) Receiving 8=FIX.4.4|9=62|35=0|34=136|49=DMA_HUB|56=FIXCLIENT1|52=20231114-11:16:16.194|10=032|
2023-11-14 12:16:23.422 [50] [FixSender] (DEBUG) Sending 8=FIX.4.4|9=57|35=0|49=FIXCLIENT1|56=DMA_HUB|34=92|52=20231114-11:16:23|10=039|
2023-11-14 12:16:46.147 [49] [FixSender] (DEBUG) Receiving 8=FIX.4.4|9=62|35=0|34=137|49=DMA_HUB|56=FIXCLIENT1|52=20231114-11:16:46.146|10=033|
2023-11-14 12:16:53.423 [50] [FixSender] (DEBUG) Sending 8=FIX.4.4|9=57|35=0|49=FIXCLIENT1|56=DMA_HUB|34=93|52=20231114-11:16:53|10=043|
2023-11-14 12:17:16.097 [49] [FixSender] (DEBUG) Receiving 8=FIX.4.4|9=62|35=0|34=138|49=DMA_HUB|56=FIXCLIENT1|52=20231114-11:17:16.097|10=037|
2023-11-14 12:17:23.425 [50] [FixSender] (DEBUG) Sending 8=FIX.4.4|9=57|35=0|49=FIXCLIENT1|56=DMA_HUB|34=94|52=20231114-11:17:23|10=042|
2023-11-14 12:17:46.050 [49] [FixSender] (DEBUG) Receiving 8=FIX.4.4|9=62|35=0|34=139|49=DMA_HUB|56=FIXCLIENT1|52=20231114-11:17:46.050|10=030|
2023-11-14 12:17:53.427 [50] [FixSender] (DEBUG) Sending 8=FIX.4.4|9=57|35=0|49=FIXCLIENT1|56=DMA_HUB|34=95|52=20231114-11:17:53|10=046|
2023-11-14 12:18:16.002 [49] [FixSender] (DEBUG) Receiving 8=FIX.4.4|9=62|35=0|34=140|49=DMA_HUB|56=FIXCLIENT1|52=20231114-11:18:16.002|10=017|
2023-11-14 12:18:23.428 [50] [FixSender] (DEBUG) Sending 8=FIX.4.4|9=57|35=0|49=FIXCLIENT1|56=DMA_HUB|34=96|52=20231114-11:18:23|10=045|
2023-11-14 12:18:45.954 [49] [FixSender] (DEBUG) Receiving 8=FIX.4.4|9=62|35=0|34=141|49=DMA_HUB|56=FIXCLIENT1|52=20231114-11:18:45.953|10=035|
2023-11-14 12:18:53.429 [50] [FixSender] (DEBUG) Sending 8=FIX.4.4|9=57|35=0|49=FIXCLIENT1|56=DMA_HUB|34=97|52=20231114-11:18:53|10=049|
2023-11-14 12:19:15.905 [49] [FixSender] (DEBUG) Receiving 8=FIX.4.4|9=62|35=0|34=142|49=DMA_HUB|56=FIXCLIENT1|52=20231114-11:19:15.905|10=031|
2023-11-14 12:19:23.432 [50] [FixSender] (DEBUG) Sending 8=FIX.4.4|9=57|35=0|49=FIXCLIENT1|56=DMA_HUB|34=98|52=20231114-11:19:23|10=048|
2023-11-14 12:19:45.858 [49] [FixSender] (DEBUG) Receiving 8=FIX.4.4|9=62|35=0|34=143|49=DMA_HUB|56=FIXCLIENT1|52=20231114-11:19:45.858|10=042|
2023-11-14 12:19:53.440 [50] [FixSender] (DEBUG) Sending 8=FIX.4.4|9=57|35=0|49=FIXCLIENT1|56=DMA_HUB|34=99|52=20231114-11:19:53|10=052|
2023-11-14 12:20:15.809 [49] [FixSender] (DEBUG) Receiving 8=FIX.4.4|9=62|35=0|34=144|49=DMA_HUB|56=FIXCLIENT1|52=20231114-11:20:15.809|10=028|
2023-11-14 12:20:23.442 [50] [FixSender] (DEBUG) Sending 8=FIX.4.4|9=58|35=0|49=FIXCLIENT1|56=DMA_HUB|34=100|52=20231114-11:20:23|10=073|
2023-11-14 12:20:45.762 [49] [FixSender] (DEBUG) Receiving 8=FIX.4.4|9=62|35=0|34=145|49=DMA_HUB|56=FIXCLIENT1|52=20231114-11:20:45.762|10=030|
2023-11-14 12:20:53.443 [50] [FixSender] (DEBUG) Sending 8=FIX.4.4|9=58|35=0|49=FIXCLIENT1|56=DMA_HUB|34=101|52=20231114-11:20:53|10=077|
2023-11-14 12:21:15.714 [49] [FixSender] (DEBUG) Receiving 8=FIX.4.4|9=62|35=0|34=146|49=DMA_HUB|56=FIXCLIENT1|52=20231114-11:21:15.714|10=026|
2023-11-14 12:21:23.445 [50] [FixSender] (DEBUG) Sending 8=FIX.4.4|9=58|35=0|49=FIXCLIENT1|56=DMA_HUB|34=102|52=20231114-11:21:23|10=076|
2023-11-14 12:21:45.666 [49] [FixSender] (DEBUG) Receiving 8=FIX.4.4|9=62|35=0|34=147|49=DMA_HUB|56=FIXCLIENT1|52=20231114-11:21:45.666|10=036|
2023-11-14 12:21:53.446 [50] [FixSender] (DEBUG) Sending 8=FIX.4.4|9=58|35=0|49=FIXCLIENT1|56=DMA_HUB|34=103|52=20231114-11:21:53|10=080|
2023-11-14 12:22:15.618 [49] [FixSender] (DEBUG) Receiving 8=FIX.4.4|9=62|35=0|34=148|49=DMA_HUB|56=FIXCLIENT1|52=20231114-11:22:15.618|10=032|
2023-11-14 12:22:23.449 [50] [FixSender] (DEBUG) Sending 8=FIX.4.4|9=58|35=0|49=FIXCLIENT1|56=DMA_HUB|34=104|52=20231114-11:22:23|10=079|
2023-11-14 12:22:45.569 [49] [FixSender] (DEBUG) Receiving 8=FIX.4.4|9=62|35=0|34=149|49=DMA_HUB|56=FIXCLIENT1|52=20231114-11:22:45.569|10=041|
2023-11-14 12:22:53.450 [50] [FixSender] (DEBUG) Sending 8=FIX.4.4|9=58|35=0|49=FIXCLIENT1|56=DMA_HUB|34=105|52=20231114-11:22:53|10=083|
2023-11-14 12:23:15.522 [49] [FixSender] (DEBUG) Receiving 8=FIX.4.4|9=62|35=0|34=150|49=DMA_HUB|56=FIXCLIENT1|52=20231114-11:23:15.522|10=020|
2023-11-14 12:23:23.459 [50] [FixSender] (DEBUG) Sending 8=FIX.4.4|9=58|35=0|49=FIXCLIENT1|56=DMA_HUB|34=106|52=20231114-11:23:23|10=082|
2023-11-14 12:23:45.474 [49] [FixSender] (DEBUG) Receiving 8=FIX.4.4|9=62|35=0|34=151|49=DMA_HUB|56=FIXCLIENT1|52=20231114-11:23:45.474|10=030|
2023-11-14 12:23:53.462 [50] [FixSender] (DEBUG) Sending 8=FIX.4.4|9=58|35=0|49=FIXCLIENT1|56=DMA_HUB|34=107|52=20231114-11:23:53|10=086|
2023-11-14 12:24:15.425 [49] [FixSender] (DEBUG) Receiving 8=FIX.4.4|9=62|35=0|34=152|49=DMA_HUB|56=FIXCLIENT1|52=20231114-11:24:15.425|10=025|
2023-11-14 12:24:23.464 [50] [FixSender] (DEBUG) Sending 8=FIX.4.4|9=58|35=0|49=FIXCLIENT1|56=DMA_HUB|34=108|52=20231114-11:24:23|10=085|
2023-11-14 12:24:45.378 [49] [FixSender] (DEBUG) Receiving 8=FIX.4.4|9=62|35=0|34=153|49=DMA_HUB|56=FIXCLIENT1|52=20231114-11:24:45.378|10=036|
2023-11-14 12:24:53.464 [50] [FixSender] (DEBUG) Sending 8=FIX.4.4|9=58|35=0|49=FIXCLIENT1|56=DMA_HUB|34=109|52=20231114-11:24:53|10=089|
2023-11-14 12:25:15.330 [49] [FixSender] (DEBUG) Receiving 8=FIX.4.4|9=62|35=0|34=154|49=DMA_HUB|56=FIXCLIENT1|52=20231114-11:25:15.330|10=023|
2023-11-14 12:25:23.467 [50] [FixSender] (DEBUG) Sending 8=FIX.4.4|9=58|35=0|49=FIXCLIENT1|56=DMA_HUB|34=110|52=20231114-11:25:23|10=079|
2023-11-14 12:25:45.282 [49] [FixSender] (DEBUG) Receiving 8=FIX.4.4|9=62|35=0|34=155|49=DMA_HUB|56=FIXCLIENT1|52=20231114-11:25:45.281|10=032|
2023-11-14 12:25:53.468 [50] [FixSender] (DEBUG) Sending 8=FIX.4.4|9=58|35=0|49=FIXCLIENT1|56=DMA_HUB|34=111|52=20231114-11:25:53|10=083|
2023-11-14 12:26:15.234 [49] [FixSender] (DEBUG) Receiving 8=FIX.4.4|9=62|35=0|34=156|49=DMA_HUB|56=FIXCLIENT1|52=20231114-11:26:15.234|10=029|
2023-11-14 12:26:23.472 [50] [FixSender] (DEBUG) Sending 8=FIX.4.4|9=58|35=0|49=FIXCLIENT1|56=DMA_HUB|34=112|52=20231114-11:26:23|10=082|
2023-11-14 12:26:45.185 [49] [FixSender] (DEBUG) Receiving 8=FIX.4.4|9=62|35=0|34=157|49=DMA_HUB|56=FIXCLIENT1|52=20231114-11:26:45.185|10=038|
2023-11-14 12:26:53.474 [50] [FixSender] (DEBUG) Sending 8=FIX.4.4|9=58|35=0|49=FIXCLIENT1|56=DMA_HUB|34=113|52=20231114-11:26:53|10=086|
2023-11-14 12:27:15.137 [49] [FixSender] (DEBUG) Receiving 8=FIX.4.4|9=62|35=0|34=158|49=DMA_HUB|56=FIXCLIENT1|52=20231114-11:27:15.137|10=034|
2023-11-14 12:27:23.478 [50] [FixSender] (DEBUG) Sending 8=FIX.4.4|9=58|35=0|49=FIXCLIENT1|56=DMA_HUB|34=114|52=20231114-11:27:23|10=085|
2023-11-14 12:27:45.090 [49] [FixSender] (DEBUG) Receiving 8=FIX.4.4|9=62|35=0|34=159|49=DMA_HUB|56=FIXCLIENT1|52=20231114-11:27:45.090|10=036|
2023-11-14 12:27:53.479 [50] [FixSender] (DEBUG) Sending 8=FIX.4.4|9=58|35=0|49=FIXCLIENT1|56=DMA_HUB|34=115|52=20231114-11:27:53|10=089|
2023-11-14 12:28:15.042 [49] [FixSender] (DEBUG) Receiving 8=FIX.4.4|9=62|35=0|34=160|49=DMA_HUB|56=FIXCLIENT1|52=20231114-11:28:15.042|10=023|
2023-11-14 12:28:23.480 [50] [FixSender] (DEBUG) Sending 8=FIX.4.4|9=58|35=0|49=FIXCLIENT1|56=DMA_HUB|34=116|52=20231114-11:28:23|10=088|
2023-11-14 12:28:44.993 [49] [FixSender] (DEBUG) Receiving 8=FIX.4.4|9=62|35=0|34=161|49=DMA_HUB|56=FIXCLIENT1|52=20231114-11:28:44.993|10=041|
2023-11-14 12:28:53.481 [50] [FixSender] (DEBUG) Sending 8=FIX.4.4|9=58|35=0|49=FIXCLIENT1|56=DMA_HUB|34=117|52=20231114-11:28:53|10=092|
2023-11-14 12:29:14.946 [49] [FixSender] (DEBUG) Receiving 8=FIX.4.4|9=62|35=0|34=162|49=DMA_HUB|56=FIXCLIENT1|52=20231114-11:29:14.946|10=038|
2023-11-14 12:29:23.483 [50] [FixSender] (DEBUG) Sending 8=FIX.4.4|9=58|35=0|49=FIXCLIENT1|56=DMA_HUB|34=118|52=20231114-11:29:23|10=091|
2023-11-14 12:29:44.897 [49] [FixSender] (DEBUG) Receiving 8=FIX.4.4|9=62|35=0|34=163|49=DMA_HUB|56=FIXCLIENT1|52=20231114-11:29:44.897|10=047|
2023-11-14 12:29:53.484 [50] [FixSender] (DEBUG) Sending 8=FIX.4.4|9=58|35=0|49=FIXCLIENT1|56=DMA_HUB|34=119|52=20231114-11:29:53|10=095|
2023-11-14 12:30:14.849 [49] [FixSender] (DEBUG) Receiving 8=FIX.4.4|9=62|35=0|34=164|49=DMA_HUB|56=FIXCLIENT1|52=20231114-11:30:14.849|10=034|
2023-11-14 12:30:23.491 [50] [FixSender] (DEBUG) Sending 8=FIX.4.4|9=58|35=0|49=FIXCLIENT1|56=DMA_HUB|34=120|52=20231114-11:30:23|10=076|
2023-11-14 12:30:44.801 [49] [FixSender] (DEBUG) Receiving 8=FIX.4.4|9=62|35=0|34=165|49=DMA_HUB|56=FIXCLIENT1|52=20231114-11:30:44.801|10=026|
2023-11-14 12:30:53.492 [50] [FixSender] (DEBUG) Sending 8=FIX.4.4|9=58|35=0|49=FIXCLIENT1|56=DMA_HUB|34=121|52=20231114-11:30:53|10=080|
2023-11-14 12:31:14.753 [49] [FixSender] (DEBUG) Receiving 8=FIX.4.4|9=62|35=0|34=166|49=DMA_HUB|56=FIXCLIENT1|52=20231114-11:31:14.753|10=031|
2023-11-14 12:31:23.496 [50] [FixSender] (DEBUG) Sending 8=FIX.4.4|9=58|35=0|49=FIXCLIENT1|56=DMA_HUB|34=122|52=20231114-11:31:23|10=079|
2023-11-14 12:31:44.706 [49] [FixSender] (DEBUG) Receiving 8=FIX.4.4|9=62|35=0|34=167|49=DMA_HUB|56=FIXCLIENT1|52=20231114-11:31:44.706|10=033|
2023-11-14 12:31:53.497 [50] [FixSender] (DEBUG) Sending 8=FIX.4.4|9=58|35=0|49=FIXCLIENT1|56=DMA_HUB|34=123|52=20231114-11:31:53|10=083|
2023-11-14 12:32:14.657 [49] [FixSender] (DEBUG) Receiving 8=FIX.4.4|9=62|35=0|34=168|49=DMA_HUB|56=FIXCLIENT1|52=20231114-11:32:14.657|10=037|
2023-11-14 12:32:23.500 [50] [FixSender] (DEBUG) Sending 8=FIX.4.4|9=58|35=0|49=FIXCLIENT1|56=DMA_HUB|34=124|52=20231114-11:32:23|10=082|
2023-11-14 12:32:44.610 [49] [FixSender] (DEBUG) Receiving 8=FIX.4.4|9=62|35=0|34=169|49=DMA_HUB|56=FIXCLIENT1|52=20231114-11:32:44.610|10=030|
2023-11-14 12:32:53.501 [50] [FixSender] (DEBUG) Sending 8=FIX.4.4|9=58|35=0|49=FIXCLIENT1|56=DMA_HUB|34=125|52=20231114-11:32:53|10=086|
2023-11-14 12:33:14.562 [49] [FixSender] (DEBUG) Receiving 8=FIX.4.4|9=62|35=0|34=170|49=DMA_HUB|56=FIXCLIENT1|52=20231114-11:33:14.562|10=026|
2023-11-14 12:33:23.502 [50] [FixSender] (DEBUG) Sending 8=FIX.4.4|9=58|35=0|49=FIXCLIENT1|56=DMA_HUB|34=126|52=20231114-11:33:23|10=085|
2023-11-14 12:33:44.513 [49] [FixSender] (DEBUG) Receiving 8=FIX.4.4|9=62|35=0|34=171|49=DMA_HUB|56=FIXCLIENT1|52=20231114-11:33:44.513|10=026|
2023-11-14 12:33:53.503 [50] [FixSender] (DEBUG) Sending 8=FIX.4.4|9=58|35=0|49=FIXCLIENT1|56=DMA_HUB|34=127|52=20231114-11:33:53|10=089|
2023-11-14 12:34:14.465 [49] [FixSender] (DEBUG) Receiving 8=FIX.4.4|9=62|35=0|34=172|49=DMA_HUB|56=FIXCLIENT1|52=20231114-11:34:14.465|10=031|
2023-11-14 12:34:23.518 [50] [FixSender] (DEBUG) Sending 8=FIX.4.4|9=58|35=0|49=FIXCLIENT1|56=DMA_HUB|34=128|52=20231114-11:34:23|10=088|
2023-11-14 12:34:44.418 [49] [FixSender] (DEBUG) Receiving 8=FIX.4.4|9=62|35=0|34=173|49=DMA_HUB|56=FIXCLIENT1|52=20231114-11:34:44.418|10=033|
2023-11-14 12:34:53.520 [50] [FixSender] (DEBUG) Sending 8=FIX.4.4|9=58|35=0|49=FIXCLIENT1|56=DMA_HUB|34=129|52=20231114-11:34:53|10=092|
2023-11-14 12:35:14.370 [49] [FixSender] (DEBUG) Receiving 8=FIX.4.4|9=62|35=0|34=174|49=DMA_HUB|56=FIXCLIENT1|52=20231114-11:35:14.370|10=029|
2023-11-14 12:35:23.523 [50] [FixSender] (DEBUG) Sending 8=FIX.4.4|9=58|35=0|49=FIXCLIENT1|56=DMA_HUB|34=130|52=20231114-11:35:23|10=082|
2023-11-14 12:35:44.322 [49] [FixSender] (DEBUG) Receiving 8=FIX.4.4|9=62|35=0|34=175|49=DMA_HUB|56=FIXCLIENT1|52=20231114-11:35:44.322|10=030|
2023-11-14 12:35:53.524 [50] [FixSender] (DEBUG) Sending 8=FIX.4.4|9=58|35=0|49=FIXCLIENT1|56=DMA_HUB|34=131|52=20231114-11:35:53|10=086|
2023-11-14 12:36:14.274 [49] [FixSender] (DEBUG) Receiving 8=FIX.4.4|9=62|35=0|34=176|49=DMA_HUB|56=FIXCLIENT1|52=20231114-11:36:14.274|10=035|
2023-11-14 12:36:23.526 [50] [FixSender] (DEBUG) Sending 8=FIX.4.4|9=58|35=0|49=FIXCLIENT1|56=DMA_HUB|34=132|52=20231114-11:36:23|10=085|
2023-11-14 12:36:44.226 [49] [FixSender] (DEBUG) Receiving 8=FIX.4.4|9=62|35=0|34=177|49=DMA_HUB|56=FIXCLIENT1|52=20231114-11:36:44.226|10=036|
2023-11-14 12:36:53.527 [50] [FixSender] (DEBUG) Sending 8=FIX.4.4|9=58|35=0|49=FIXCLIENT1|56=DMA_HUB|34=133|52=20231114-11:36:53|10=089|
2023-11-14 12:37:14.177 [49] [FixSender] (DEBUG) Receiving 8=FIX.4.4|9=62|35=0|34=178|49=DMA_HUB|56=FIXCLIENT1|52=20231114-11:37:14.177|10=040|
2023-11-14 12:37:23.528 [50] [FixSender] (DEBUG) Sending 8=FIX.4.4|9=58|35=0|49=FIXCLIENT1|56=DMA_HUB|34=134|52=20231114-11:37:23|10=088|
2023-11-14 12:37:44.129 [49] [FixSender] (DEBUG) Receiving 8=FIX.4.4|9=62|35=0|34=179|49=DMA_HUB|56=FIXCLIENT1|52=20231114-11:37:44.129|10=041|
2023-11-14 12:37:53.529 [50] [FixSender] (DEBUG) Sending 8=FIX.4.4|9=58|35=0|49=FIXCLIENT1|56=DMA_HUB|34=135|52=20231114-11:37:53|10=092|
2023-11-14 12:38:14.082 [49] [FixSender] (DEBUG) Receiving 8=FIX.4.4|9=62|35=0|34=180|49=DMA_HUB|56=FIXCLIENT1|52=20231114-11:38:14.082|10=029|
2023-11-14 12:38:23.530 [50] [FixSender] (DEBUG) Sending 8=FIX.4.4|9=58|35=0|49=FIXCLIENT1|56=DMA_HUB|34=136|52=20231114-11:38:23|10=091|
2023-11-14 12:38:44.034 [49] [FixSender] (DEBUG) Receiving 8=FIX.4.4|9=62|35=0|34=181|49=DMA_HUB|56=FIXCLIENT1|52=20231114-11:38:44.034|10=030|
2023-11-14 12:38:53.533 [50] [FixSender] (DEBUG) Sending 8=FIX.4.4|9=58|35=0|49=FIXCLIENT1|56=DMA_HUB|34=137|52=20231114-11:38:53|10=095|
2023-11-14 12:39:13.986 [49] [FixSender] (DEBUG) Receiving 8=FIX.4.4|9=62|35=0|34=182|49=DMA_HUB|56=FIXCLIENT1|52=20231114-11:39:13.986|10=044|
2023-11-14 12:39:23.535 [50] [FixSender] (DEBUG) Sending 8=FIX.4.4|9=58|35=0|49=FIXCLIENT1|56=DMA_HUB|34=138|52=20231114-11:39:23|10=094|
2023-11-14 12:39:43.937 [49] [FixSender] (DEBUG) Receiving 8=FIX.4.4|9=62|35=0|34=183|49=DMA_HUB|56=FIXCLIENT1|52=20231114-11:39:43.937|10=044|
2023-11-14 12:39:53.536 [50] [FixSender] (DEBUG) Sending 8=FIX.4.4|9=58|35=0|49=FIXCLIENT1|56=DMA_HUB|34=139|52=20231114-11:39:53|10=098|
2023-11-14 12:40:13.889 [49] [FixSender] (DEBUG) Receiving 8=FIX.4.4|9=62|35=0|34=184|49=DMA_HUB|56=FIXCLIENT1|52=20231114-11:40:13.889|10=040|
2023-11-14 12:40:23.542 [50] [FixSender] (DEBUG) Sending 8=FIX.4.4|9=58|35=0|49=FIXCLIENT1|56=DMA_HUB|34=140|52=20231114-11:40:23|10=079|
2023-11-14 12:40:43.843 [49] [FixSender] (DEBUG) Receiving 8=FIX.4.4|9=62|35=0|34=185|49=DMA_HUB|56=FIXCLIENT1|52=20231114-11:40:43.842|10=033|
2023-11-14 12:40:53.543 [50] [FixSender] (DEBUG) Sending 8=FIX.4.4|9=58|35=0|49=FIXCLIENT1|56=DMA_HUB|34=141|52=20231114-11:40:53|10=083|
2023-11-14 12:41:13.794 [49] [FixSender] (DEBUG) Receiving 8=FIX.4.4|9=62|35=0|34=186|49=DMA_HUB|56=FIXCLIENT1|52=20231114-11:41:13.793|10=037|
2023-11-14 12:41:23.548 [50] [FixSender] (DEBUG) Sending 8=FIX.4.4|9=58|35=0|49=FIXCLIENT1|56=DMA_HUB|34=142|52=20231114-11:41:23|10=082|
2023-11-14 12:41:43.745 [49] [FixSender] (DEBUG) Receiving 8=FIX.4.4|9=62|35=0|34=187|49=DMA_HUB|56=FIXCLIENT1|52=20231114-11:41:43.745|10=038|
2023-11-14 12:41:53.549 [50] [FixSender] (DEBUG) Sending 8=FIX.4.4|9=58|35=0|49=FIXCLIENT1|56=DMA_HUB|34=143|52=20231114-11:41:53|10=086|
2023-11-14 12:42:13.698 [49] [FixSender] (DEBUG) Receiving 8=FIX.4.4|9=62|35=0|34=188|49=DMA_HUB|56=FIXCLIENT1|52=20231114-11:42:13.698|10=044|
2023-11-14 12:42:23.552 [50] [FixSender] (DEBUG) Sending 8=FIX.4.4|9=58|35=0|49=FIXCLIENT1|56=DMA_HUB|34=144|52=20231114-11:42:23|10=085|
2023-11-14 12:42:43.650 [49] [FixSender] (DEBUG) Receiving 8=FIX.4.4|9=62|35=0|34=189|49=DMA_HUB|56=FIXCLIENT1|52=20231114-11:42:43.650|10=036|
2023-11-14 12:42:53.556 [50] [FixSender] (DEBUG) Sending 8=FIX.4.4|9=58|35=0|49=FIXCLIENT1|56=DMA_HUB|34=145|52=20231114-11:42:53|10=089|
2023-11-14 12:43:13.602 [49] [FixSender] (DEBUG) Receiving 8=FIX.4.4|9=62|35=0|34=190|49=DMA_HUB|56=FIXCLIENT1|52=20231114-11:43:13.602|10=023|
2023-11-14 12:43:23.558 [50] [FixSender] (DEBUG) Sending 8=FIX.4.4|9=58|35=0|49=FIXCLIENT1|56=DMA_HUB|34=146|52=20231114-11:43:23|10=088|
2023-11-14 12:43:43.553 [49] [FixSender] (DEBUG) Receiving 8=FIX.4.4|9=62|35=0|34=191|49=DMA_HUB|56=FIXCLIENT1|52=20231114-11:43:43.553|10=032|
2023-11-14 12:43:53.560 [50] [FixSender] (DEBUG) Sending 8=FIX.4.4|9=58|35=0|49=FIXCLIENT1|56=DMA_HUB|34=147|52=20231114-11:43:53|10=092|
2023-11-14 12:44:13.506 [49] [FixSender] (DEBUG) Receiving 8=FIX.4.4|9=62|35=0|34=192|49=DMA_HUB|56=FIXCLIENT1|52=20231114-11:44:13.505|10=028|
2023-11-14 12:44:23.566 [50] [FixSender] (DEBUG) Sending 8=FIX.4.4|9=58|35=0|49=FIXCLIENT1|56=DMA_HUB|34=148|52=20231114-11:44:23|10=091|
2023-11-14 12:44:43.458 [49] [FixSender] (DEBUG) Receiving 8=FIX.4.4|9=62|35=0|34=193|49=DMA_HUB|56=FIXCLIENT1|52=20231114-11:44:43.458|10=039|
2023-11-14 12:44:53.567 [50] [FixSender] (DEBUG) Sending 8=FIX.4.4|9=58|35=0|49=FIXCLIENT1|56=DMA_HUB|34=149|52=20231114-11:44:53|10=095|
2023-11-14 12:45:13.410 [49] [FixSender] (DEBUG) Receiving 8=FIX.4.4|9=62|35=0|34=194|49=DMA_HUB|56=FIXCLIENT1|52=20231114-11:45:13.410|10=026|
2023-11-14 12:45:23.569 [50] [FixSender] (DEBUG) Sending 8=FIX.4.4|9=58|35=0|49=FIXCLIENT1|56=DMA_HUB|34=150|52=20231114-11:45:23|10=085|
2023-11-14 12:45:43.361 [49] [FixSender] (DEBUG) Receiving 8=FIX.4.4|9=62|35=0|34=195|49=DMA_HUB|56=FIXCLIENT1|52=20231114-11:45:43.361|10=035|
2023-11-14 12:45:53.572 [50] [FixSender] (DEBUG) Sending 8=FIX.4.4|9=58|35=0|49=FIXCLIENT1|56=DMA_HUB|34=151|52=20231114-11:45:53|10=089|
2023-11-14 12:46:13.314 [49] [FixSender] (DEBUG) Receiving 8=FIX.4.4|9=62|35=0|34=196|49=DMA_HUB|56=FIXCLIENT1|52=20231114-11:46:13.313|10=031|
2023-11-14 12:46:23.573 [50] [FixSender] (DEBUG) Sending 8=FIX.4.4|9=58|35=0|49=FIXCLIENT1|56=DMA_HUB|34=152|52=20231114-11:46:23|10=088|
2023-11-14 12:46:43.266 [49] [FixSender] (DEBUG) Receiving 8=FIX.4.4|9=62|35=0|34=197|49=DMA_HUB|56=FIXCLIENT1|52=20231114-11:46:43.266|10=042|
2023-11-14 12:46:53.575 [50] [FixSender] (DEBUG) Sending 8=FIX.4.4|9=58|35=0|49=FIXCLIENT1|56=DMA_HUB|34=153|52=20231114-11:46:53|10=092|
2023-11-14 12:47:13.218 [49] [FixSender] (DEBUG) Receiving 8=FIX.4.4|9=62|35=0|34=198|49=DMA_HUB|56=FIXCLIENT1|52=20231114-11:47:13.218|10=038|
2023-11-14 12:47:23.577 [50] [FixSender] (DEBUG) Sending 8=FIX.4.4|9=58|35=0|49=FIXCLIENT1|56=DMA_HUB|34=154|52=20231114-11:47:23|10=091|
2023-11-14 12:47:43.169 [49] [FixSender] (DEBUG) Receiving 8=FIX.4.4|9=62|35=0|34=199|49=DMA_HUB|56=FIXCLIENT1|52=20231114-11:47:43.169|10=047|
2023-11-14 12:47:53.577 [50] [FixSender] (DEBUG) Sending 8=FIX.4.4|9=58|35=0|49=FIXCLIENT1|56=DMA_HUB|34=155|52=20231114-11:47:53|10=095|
2023-11-14 12:48:13.123 [49] [FixSender] (DEBUG) Receiving 8=FIX.4.4|9=62|35=0|34=200|49=DMA_HUB|56=FIXCLIENT1|52=20231114-11:48:13.122|10=017|
2023-11-14 12:48:23.591 [50] [FixSender] (DEBUG) Sending 8=FIX.4.4|9=58|35=0|49=FIXCLIENT1|56=DMA_HUB|34=156|52=20231114-11:48:23|10=094|
2023-11-14 12:48:43.073 [49] [FixSender] (DEBUG) Receiving 8=FIX.4.4|9=62|35=0|34=201|49=DMA_HUB|56=FIXCLIENT1|52=20231114-11:48:43.073|10=026|
2023-11-14 12:48:53.592 [50] [FixSender] (DEBUG) Sending 8=FIX.4.4|9=58|35=0|49=FIXCLIENT1|56=DMA_HUB|34=157|52=20231114-11:48:53|10=098|
2023-11-14 12:49:13.026 [49] [FixSender] (DEBUG) Receiving 8=FIX.4.4|9=62|35=0|34=202|49=DMA_HUB|56=FIXCLIENT1|52=20231114-11:49:13.026|10=023|
2023-11-14 12:49:23.594 [50] [FixSender] (DEBUG) Sending 8=FIX.4.4|9=58|35=0|49=FIXCLIENT1|56=DMA_HUB|34=158|52=20231114-11:49:23|10=097|
2023-11-14 12:49:42.978 [49] [FixSender] (DEBUG) Receiving 8=FIX.4.4|9=62|35=0|34=203|49=DMA_HUB|56=FIXCLIENT1|52=20231114-11:49:42.978|10=042|
2023-11-14 12:49:53.597 [50] [FixSender] (DEBUG) Sending 8=FIX.4.4|9=58|35=0|49=FIXCLIENT1|56=DMA_HUB|34=159|52=20231114-11:49:53|10=101|
2023-11-14 12:50:12.929 [49] [FixSender] (DEBUG) Receiving 8=FIX.4.4|9=62|35=0|34=204|49=DMA_HUB|56=FIXCLIENT1|52=20231114-11:50:12.929|10=028|
2023-11-14 12:50:23.600 [50] [FixSender] (DEBUG) Sending 8=FIX.4.4|9=58|35=0|49=FIXCLIENT1|56=DMA_HUB|34=160|52=20231114-11:50:23|10=082|
2023-11-14 12:50:42.882 [49] [FixSender] (DEBUG) Receiving 8=FIX.4.4|9=62|35=0|34=205|49=DMA_HUB|56=FIXCLIENT1|52=20231114-11:50:42.881|10=029|
2023-11-14 12:50:53.601 [50] [FixSender] (DEBUG) Sending 8=FIX.4.4|9=58|35=0|49=FIXCLIENT1|56=DMA_HUB|34=161|52=20231114-11:50:53|10=086|
2023-11-14 12:51:12.835 [49] [FixSender] (DEBUG) Receiving 8=FIX.4.4|9=62|35=0|34=206|49=DMA_HUB|56=FIXCLIENT1|52=20231114-11:51:12.834|10=026|
2023-11-14 12:51:23.603 [50] [FixSender] (DEBUG) Sending 8=FIX.4.4|9=58|35=0|49=FIXCLIENT1|56=DMA_HUB|34=162|52=20231114-11:51:23|10=085|
2023-11-14 12:51:42.786 [49] [FixSender] (DEBUG) Receiving 8=FIX.4.4|9=62|35=0|34=207|49=DMA_HUB|56=FIXCLIENT1|52=20231114-11:51:42.786|10=036|
2023-11-14 12:51:53.604 [50] [FixSender] (DEBUG) Sending 8=FIX.4.4|9=58|35=0|49=FIXCLIENT1|56=DMA_HUB|34=163|52=20231114-11:51:53|10=089|
2023-11-14 12:52:12.738 [49] [FixSender] (DEBUG) Receiving 8=FIX.4.4|9=62|35=0|34=208|49=DMA_HUB|56=FIXCLIENT1|52=20231114-11:52:12.737|10=031|
2023-11-14 12:52:23.611 [50] [FixSender] (DEBUG) Sending 8=FIX.4.4|9=58|35=0|49=FIXCLIENT1|56=DMA_HUB|34=164|52=20231114-11:52:23|10=088|
2023-11-14 12:52:42.689 [49] [FixSender] (DEBUG) Receiving 8=FIX.4.4|9=62|35=0|34=209|49=DMA_HUB|56=FIXCLIENT1|52=20231114-11:52:42.689|10=041|
2023-11-14 12:52:53.611 [50] [FixSender] (DEBUG) Sending 8=FIX.4.4|9=58|35=0|49=FIXCLIENT1|56=DMA_HUB|34=165|52=20231114-11:52:53|10=092|
2023-11-14 12:53:12.642 [49] [FixSender] (DEBUG) Receiving 8=FIX.4.4|9=62|35=0|34=210|49=DMA_HUB|56=FIXCLIENT1|52=20231114-11:53:12.642|10=020|
2023-11-14 12:53:23.614 [50] [FixSender] (DEBUG) Sending 8=FIX.4.4|9=58|35=0|49=FIXCLIENT1|56=DMA_HUB|34=166|52=20231114-11:53:23|10=091|
2023-11-14 12:53:42.593 [49] [FixSender] (DEBUG) Receiving 8=FIX.4.4|9=62|35=0|34=211|49=DMA_HUB|56=FIXCLIENT1|52=20231114-11:53:42.593|10=029|
2023-11-14 12:53:53.615 [50] [FixSender] (DEBUG) Sending 8=FIX.4.4|9=58|35=0|49=FIXCLIENT1|56=DMA_HUB|34=167|52=20231114-11:53:53|10=095|
2023-11-14 12:54:12.545 [49] [FixSender] (DEBUG) Receiving 8=FIX.4.4|9=62|35=0|34=212|49=DMA_HUB|56=FIXCLIENT1|52=20231114-11:54:12.545|10=025|
2023-11-14 12:54:23.618 [50] [FixSender] (DEBUG) Sending 8=FIX.4.4|9=58|35=0|49=FIXCLIENT1|56=DMA_HUB|34=168|52=20231114-11:54:23|10=094|
2023-11-14 12:54:42.497 [49] [FixSender] (DEBUG) Receiving 8=FIX.4.4|9=62|35=0|34=213|49=DMA_HUB|56=FIXCLIENT1|52=20231114-11:54:42.497|10=035|
2023-11-14 12:54:53.619 [50] [FixSender] (DEBUG) Sending 8=FIX.4.4|9=58|35=0|49=FIXCLIENT1|56=DMA_HUB|34=169|52=20231114-11:54:53|10=098|
2023-11-14 12:55:12.449 [49] [FixSender] (DEBUG) Receiving 8=FIX.4.4|9=62|35=0|34=214|49=DMA_HUB|56=FIXCLIENT1|52=20231114-11:55:12.449|10=031|
2023-11-14 12:55:23.620 [50] [FixSender] (DEBUG) Sending 8=FIX.4.4|9=58|35=0|49=FIXCLIENT1|56=DMA_HUB|34=170|52=20231114-11:55:23|10=088|
2023-11-14 12:55:42.402 [49] [FixSender] (DEBUG) Receiving 8=FIX.4.4|9=62|35=0|34=215|49=DMA_HUB|56=FIXCLIENT1|52=20231114-11:55:42.402|10=024|
2023-11-14 12:55:53.621 [50] [FixSender] (DEBUG) Sending 8=FIX.4.4|9=58|35=0|49=FIXCLIENT1|56=DMA_HUB|34=171|52=20231114-11:55:53|10=092|
2023-11-14 12:56:12.354 [49] [FixSender] (DEBUG) Receiving 8=FIX.4.4|9=62|35=0|34=216|49=DMA_HUB|56=FIXCLIENT1|52=20231114-11:56:12.353|10=028|
2023-11-14 12:56:23.623 [50] [FixSender] (DEBUG) Sending 8=FIX.4.4|9=58|35=0|49=FIXCLIENT1|56=DMA_HUB|34=172|52=20231114-11:56:23|10=091|
2023-11-14 12:56:42.305 [49] [FixSender] (DEBUG) Receiving 8=FIX.4.4|9=62|35=0|34=217|49=DMA_HUB|56=FIXCLIENT1|52=20231114-11:56:42.305|10=029|
2023-11-14 12:56:53.626 [50] [FixSender] (DEBUG) Sending 8=FIX.4.4|9=58|35=0|49=FIXCLIENT1|56=DMA_HUB|34=173|52=20231114-11:56:53|10=095|
2023-11-14 12:57:12.257 [49] [FixSender] (DEBUG) Receiving 8=FIX.4.4|9=62|35=0|34=218|49=DMA_HUB|56=FIXCLIENT1|52=20231114-11:57:12.257|10=034|
2023-11-14 12:57:23.637 [50] [FixSender] (DEBUG) Sending 8=FIX.4.4|9=58|35=0|49=FIXCLIENT1|56=DMA_HUB|34=174|52=20231114-11:57:23|10=094|
2023-11-14 12:57:42.209 [49] [FixSender] (DEBUG) Receiving 8=FIX.4.4|9=62|35=0|34=219|49=DMA_HUB|56=FIXCLIENT1|52=20231114-11:57:42.209|10=035|
2023-11-14 12:57:53.640 [50] [FixSender] (DEBUG) Sending 8=FIX.4.4|9=58|35=0|49=FIXCLIENT1|56=DMA_HUB|34=175|52=20231114-11:57:53|10=098|
2023-11-14 12:58:12.163 [49] [FixSender] (DEBUG) Receiving 8=FIX.4.4|9=62|35=0|34=220|49=DMA_HUB|56=FIXCLIENT1|52=20231114-11:58:12.162|10=023|
2023-11-14 12:58:23.642 [50] [FixSender] (DEBUG) Sending 8=FIX.4.4|9=58|35=0|49=FIXCLIENT1|56=DMA_HUB|34=176|52=20231114-11:58:23|10=097|
2023-11-14 12:58:42.114 [49] [FixSender] (DEBUG) Receiving 8=FIX.4.4|9=62|35=0|34=221|49=DMA_HUB|56=FIXCLIENT1|52=20231114-11:58:42.114|10=024|
2023-11-14 12:58:53.645 [50] [FixSender] (DEBUG) Sending 8=FIX.4.4|9=58|35=0|49=FIXCLIENT1|56=DMA_HUB|34=177|52=20231114-11:58:53|10=101|
2023-11-14 12:59:12.066 [49] [FixSender] (DEBUG) Receiving 8=FIX.4.4|9=62|35=0|34=222|49=DMA_HUB|56=FIXCLIENT1|52=20231114-11:59:12.065|10=028|
2023-11-14 12:59:23.647 [50] [FixSender] (DEBUG) Sending 8=FIX.4.4|9=58|35=0|49=FIXCLIENT1|56=DMA_HUB|34=178|52=20231114-11:59:23|10=100|
2023-11-14 12:59:42.018 [49] [FixSender] (DEBUG) Receiving 8=FIX.4.4|9=62|35=0|34=223|49=DMA_HUB|56=FIXCLIENT1|52=20231114-11:59:42.018|10=030|
2023-11-14 12:59:53.648 [50] [FixSender] (DEBUG) Sending 8=FIX.4.4|9=58|35=0|49=FIXCLIENT1|56=DMA_HUB|34=179|52=20231114-11:59:53|10=104|
2023-11-14 13:00:11.970 [49] [FixSender] (DEBUG) Receiving 8=FIX.4.4|9=62|35=0|34=224|49=DMA_HUB|56=FIXCLIENT1|52=20231114-12:00:11.970|10=021|
2023-11-14 13:00:23.650 [50] [FixSender] (DEBUG) Sending 8=FIX.4.4|9=58|35=0|49=FIXCLIENT1|56=DMA_HUB|34=180|52=20231114-12:00:23|10=080|
2023-11-14 13:00:41.921 [49] [FixSender] (DEBUG) Receiving 8=FIX.4.4|9=62|35=0|34=225|49=DMA_HUB|56=FIXCLIENT1|52=20231114-12:00:41.921|10=021|
2023-11-14 13:00:53.653 [50] [FixSender] (DEBUG) Sending 8=FIX.4.4|9=58|35=0|49=FIXCLIENT1|56=DMA_HUB|34=181|52=20231114-12:00:53|10=084|
2023-11-14 13:01:11.874 [49] [FixSender] (DEBUG) Receiving 8=FIX.4.4|9=62|35=0|34=226|49=DMA_HUB|56=FIXCLIENT1|52=20231114-12:01:11.874|10=027|
2023-11-14 13:01:23.666 [50] [FixSender] (DEBUG) Sending 8=FIX.4.4|9=58|35=0|49=FIXCLIENT1|56=DMA_HUB|34=182|52=20231114-12:01:23|10=083|
2023-11-14 13:01:41.826 [49] [FixSender] (DEBUG) Receiving 8=FIX.4.4|9=62|35=0|34=227|49=DMA_HUB|56=FIXCLIENT1|52=20231114-12:01:41.826|10=028|
2023-11-14 13:01:53.676 [50] [FixSender] (DEBUG) Sending 8=FIX.4.4|9=58|35=0|49=FIXCLIENT1|56=DMA_HUB|34=183|52=20231114-12:01:53|10=087|
2023-11-14 13:02:11.777 [49] [FixSender] (DEBUG) Receiving 8=FIX.4.4|9=62|35=0|34=228|49=DMA_HUB|56=FIXCLIENT1|52=20231114-12:02:11.777|10=032|
2023-11-14 13:02:23.678 [50] [FixSender] (DEBUG) Sending 8=FIX.4.4|9=58|35=0|49=FIXCLIENT1|56=DMA_HUB|34=184|52=20231114-12:02:23|10=086|
2023-11-14 13:02:41.730 [49] [FixSender] (DEBUG) Receiving 8=FIX.4.4|9=62|35=0|34=229|49=DMA_HUB|56=FIXCLIENT1|52=20231114-12:02:41.730|10=025|
2023-11-14 13:02:53.684 [50] [FixSender] (DEBUG) Sending 8=FIX.4.4|9=58|35=0|49=FIXCLIENT1|56=DMA_HUB|34=185|52=20231114-12:02:53|10=090|
2023-11-14 13:03:11.682 [49] [FixSender] (DEBUG) Receiving 8=FIX.4.4|9=62|35=0|34=230|49=DMA_HUB|56=FIXCLIENT1|52=20231114-12:03:11.682|10=021|
2023-11-14 13:03:23.687 [50] [FixSender] (DEBUG) Sending 8=FIX.4.4|9=58|35=0|49=FIXCLIENT1|56=DMA_HUB|34=186|52=20231114-12:03:23|10=089|
2023-11-14 13:03:41.633 [49] [FixSender] (DEBUG) Receiving 8=FIX.4.4|9=62|35=0|34=231|49=DMA_HUB|56=FIXCLIENT1|52=20231114-12:03:41.633|10=021|
2023-11-14 13:03:53.689 [50] [FixSender] (DEBUG) Sending 8=FIX.4.4|9=58|35=0|49=FIXCLIENT1|56=DMA_HUB|34=187|52=20231114-12:03:53|10=093|
2023-11-14 13:04:11.586 [49] [FixSender] (DEBUG) Receiving 8=FIX.4.4|9=62|35=0|34=232|49=DMA_HUB|56=FIXCLIENT1|52=20231114-12:04:11.586|10=027|
2023-11-14 13:04:23.690 [50] [FixSender] (DEBUG) Sending 8=FIX.4.4|9=58|35=0|49=FIXCLIENT1|56=DMA_HUB|34=188|52=20231114-12:04:23|10=092|
2023-11-14 13:04:41.538 [49] [FixSender] (DEBUG) Receiving 8=FIX.4.4|9=62|35=0|34=233|49=DMA_HUB|56=FIXCLIENT1|52=20231114-12:04:41.538|10=028|
2023-11-14 13:04:53.691 [50] [FixSender] (DEBUG) Sending 8=FIX.4.4|9=58|35=0|49=FIXCLIENT1|56=DMA_HUB|34=189|52=20231114-12:04:53|10=096|
2023-11-14 13:05:11.489 [49] [FixSender] (DEBUG) Receiving 8=FIX.4.4|9=62|35=0|34=234|49=DMA_HUB|56=FIXCLIENT1|52=20231114-12:05:11.489|10=032|
2023-11-14 13:05:23.693 [50] [FixSender] (DEBUG) Sending 8=FIX.4.4|9=58|35=0|49=FIXCLIENT1|56=DMA_HUB|34=190|52=20231114-12:05:23|10=086|
2023-11-14 13:05:41.442 [49] [FixSender] (DEBUG) Receiving 8=FIX.4.4|9=62|35=0|34=235|49=DMA_HUB|56=FIXCLIENT1|52=20231114-12:05:41.442|10=025|
2023-11-14 13:05:53.694 [50] [FixSender] (DEBUG) Sending 8=FIX.4.4|9=58|35=0|49=FIXCLIENT1|56=DMA_HUB|34=191|52=20231114-12:05:53|10=090|
2023-11-14 13:06:11.393 [49] [FixSender] (DEBUG) Receiving 8=FIX.4.4|9=62|35=0|34=236|49=DMA_HUB|56=FIXCLIENT1|52=20231114-12:06:11.393|10=029|
2023-11-14 13:06:23.695 [50] [FixSender] (DEBUG) Sending 8=FIX.4.4|9=58|35=0|49=FIXCLIENT1|56=DMA_HUB|34=192|52=20231114-12:06:23|10=089|
2023-11-14 13:06:41.346 [49] [FixSender] (DEBUG) Receiving 8=FIX.4.4|9=62|35=0|34=237|49=DMA_HUB|56=FIXCLIENT1|52=20231114-12:06:41.346|10=031|
2023-11-14 13:06:53.695 [50] [FixSender] (DEBUG) Sending 8=FIX.4.4|9=58|35=0|49=FIXCLIENT1|56=DMA_HUB|34=193|52=20231114-12:06:53|10=093|
2023-11-14 13:07:11.298 [49] [FixSender] (DEBUG) Receiving 8=FIX.4.4|9=62|35=0|34=238|49=DMA_HUB|56=FIXCLIENT1|52=20231114-12:07:11.298|10=036|
2023-11-14 13:07:23.695 [50] [FixSender] (DEBUG) Sending 8=FIX.4.4|9=58|35=0|49=FIXCLIENT1|56=DMA_HUB|34=194|52=20231114-12:07:23|10=092|
2023-11-14 13:07:41.249 [49] [FixSender] (DEBUG) Receiving 8=FIX.4.4|9=62|35=0|34=239|49=DMA_HUB|56=FIXCLIENT1|52=20231114-12:07:41.249|10=036|
2023-11-14 13:07:53.697 [50] [FixSender] (DEBUG) Sending 8=FIX.4.4|9=58|35=0|49=FIXCLIENT1|56=DMA_HUB|34=195|52=20231114-12:07:53|10=096|
2023-11-14 13:08:11.202 [49] [FixSender] (DEBUG) Receiving 8=FIX.4.4|9=62|35=0|34=240|49=DMA_HUB|56=FIXCLIENT1|52=20231114-12:08:11.202|10=015|
2023-11-14 13:08:23.698 [50] [FixSender] (DEBUG) Sending 8=FIX.4.4|9=58|35=0|49=FIXCLIENT1|56=DMA_HUB|34=196|52=20231114-12:08:23|10=095|
2023-11-14 13:08:41.154 [49] [FixSender] (DEBUG) Receiving 8=FIX.4.4|9=62|35=0|34=241|49=DMA_HUB|56=FIXCLIENT1|52=20231114-12:08:41.154|10=025|
2023-11-14 13:08:53.698 [50] [FixSender] (DEBUG) Sending 8=FIX.4.4|9=58|35=0|49=FIXCLIENT1|56=DMA_HUB|34=197|52=20231114-12:08:53|10=099|
2023-11-14 13:09:11.106 [49] [FixSender] (DEBUG) Receiving 8=FIX.4.4|9=62|35=0|34=242|49=DMA_HUB|56=FIXCLIENT1|52=20231114-12:09:11.105|10=020|
2023-11-14 13:09:23.698 [50] [FixSender] (DEBUG) Sending 8=FIX.4.4|9=58|35=0|49=FIXCLIENT1|56=DMA_HUB|34=198|52=20231114-12:09:23|10=098|
2023-11-14 13:09:41.058 [49] [FixSender] (DEBUG) Receiving 8=FIX.4.4|9=62|35=0|34=243|49=DMA_HUB|56=FIXCLIENT1|52=20231114-12:09:41.058|10=031|
2023-11-14 13:09:53.698 [50] [FixSender] (DEBUG) Sending 8=FIX.4.4|9=58|35=0|49=FIXCLIENT1|56=DMA_HUB|34=199|52=20231114-12:09:53|10=102|
2023-11-14 13:10:11.009 [49] [FixSender] (DEBUG) Receiving 8=FIX.4.4|9=62|35=0|34=244|49=DMA_HUB|56=FIXCLIENT1|52=20231114-12:10:11.009|10=017|
2023-11-14 13:10:23.699 [50] [FixSender] (DEBUG) Sending 8=FIX.4.4|9=58|35=0|49=FIXCLIENT1|56=DMA_HUB|34=200|52=20231114-12:10:23|10=074|
2023-11-14 13:10:40.962 [49] [FixSender] (DEBUG) Receiving 8=FIX.4.4|9=62|35=0|34=245|49=DMA_HUB|56=FIXCLIENT1|52=20231114-12:10:40.962|10=028|
2023-11-14 13:10:53.704 [50] [FixSender] (DEBUG) Sending 8=FIX.4.4|9=58|35=0|49=FIXCLIENT1|56=DMA_HUB|34=201|52=20231114-12:10:53|10=078|
2023-11-14 13:11:10.914 [49] [FixSender] (DEBUG) Receiving 8=FIX.4.4|9=62|35=0|34=246|49=DMA_HUB|56=FIXCLIENT1|52=20231114-12:11:10.914|10=024|
2023-11-14 13:11:23.705 [50] [FixSender] (DEBUG) Sending 8=FIX.4.4|9=58|35=0|49=FIXCLIENT1|56=DMA_HUB|34=202|52=20231114-12:11:23|10=077|
2023-11-14 13:11:40.866 [49] [FixSender] (DEBUG) Receiving 8=FIX.4.4|9=62|35=0|34=247|49=DMA_HUB|56=FIXCLIENT1|52=20231114-12:11:40.866|10=034|
2023-11-14 13:11:53.706 [50] [FixSender] (DEBUG) Sending 8=FIX.4.4|9=58|35=0|49=FIXCLIENT1|56=DMA_HUB|34=203|52=20231114-12:11:53|10=081|
2023-11-14 13:12:10.818 [49] [FixSender] (DEBUG) Receiving 8=FIX.4.4|9=62|35=0|34=248|49=DMA_HUB|56=FIXCLIENT1|52=20231114-12:12:10.818|10=030|
2023-11-14 13:12:23.707 [50] [FixSender] (DEBUG) Sending 8=FIX.4.4|9=58|35=0|49=FIXCLIENT1|56=DMA_HUB|34=204|52=20231114-12:12:23|10=080|
2023-11-14 13:12:40.769 [49] [FixSender] (DEBUG) Receiving 8=FIX.4.4|9=62|35=0|34=249|49=DMA_HUB|56=FIXCLIENT1|52=20231114-12:12:40.769|10=039|
2023-11-14 13:12:53.709 [50] [FixSender] (DEBUG) Sending 8=FIX.4.4|9=58|35=0|49=FIXCLIENT1|56=DMA_HUB|34=205|52=20231114-12:12:53|10=084|
2023-11-14 13:13:10.721 [49] [FixSender] (DEBUG) Receiving 8=FIX.4.4|9=62|35=0|34=250|49=DMA_HUB|56=FIXCLIENT1|52=20231114-12:13:10.721|10=017|
2023-11-14 13:13:23.711 [50] [FixSender] (DEBUG) Sending 8=FIX.4.4|9=58|35=0|49=FIXCLIENT1|56=DMA_HUB|34=206|52=20231114-12:13:23|10=083|
2023-11-14 13:13:40.673 [49] [FixSender] (DEBUG) Receiving 8=FIX.4.4|9=62|35=0|34=251|49=DMA_HUB|56=FIXCLIENT1|52=20231114-12:13:40.673|10=027|
2023-11-14 13:13:53.713 [50] [FixSender] (DEBUG) Sending 8=FIX.4.4|9=58|35=0|49=FIXCLIENT1|56=DMA_HUB|34=207|52=20231114-12:13:53|10=087|
2023-11-14 13:14:10.625 [49] [FixSender] (DEBUG) Receiving 8=FIX.4.4|9=62|35=0|34=252|49=DMA_HUB|56=FIXCLIENT1|52=20231114-12:14:10.625|10=023|
2023-11-14 13:14:23.714 [50] [FixSender] (DEBUG) Sending 8=FIX.4.4|9=58|35=0|49=FIXCLIENT1|56=DMA_HUB|34=208|52=20231114-12:14:23|10=086|
2023-11-14 13:14:40.579 [49] [FixSender] (DEBUG) Receiving 8=FIX.4.4|9=62|35=0|34=253|49=DMA_HUB|56=FIXCLIENT1|52=20231114-12:14:40.578|10=034|
2023-11-14 13:14:53.715 [50] [FixSender] (DEBUG) Sending 8=FIX.4.4|9=58|35=0|49=FIXCLIENT1|56=DMA_HUB|34=209|52=20231114-12:14:53|10=090|
2023-11-14 13:15:10.529 [49] [FixSender] (DEBUG) Receiving 8=FIX.4.4|9=62|35=0|34=254|49=DMA_HUB|56=FIXCLIENT1|52=20231114-12:15:10.529|10=029|
2023-11-14 13:15:23.716 [50] [FixSender] (DEBUG) Sending 8=FIX.4.4|9=58|35=0|49=FIXCLIENT1|56=DMA_HUB|34=210|52=20231114-12:15:23|10=080|
2023-11-14 13:15:40.481 [49] [FixSender] (DEBUG) Receiving 8=FIX.4.4|9=62|35=0|34=255|49=DMA_HUB|56=FIXCLIENT1|52=20231114-12:15:40.481|10=030|
2023-11-14 13:15:53.718 [50] [FixSender] (DEBUG) Sending 8=FIX.4.4|9=58|35=0|49=FIXCLIENT1|56=DMA_HUB|34=211|52=20231114-12:15:53|10=084|
2023-11-14 13:16:10.433 [49] [FixSender] (DEBUG) Receiving 8=FIX.4.4|9=62|35=0|34=256|49=DMA_HUB|56=FIXCLIENT1|52=20231114-12:16:10.433|10=026|
2023-11-14 13:16:23.719 [50] [FixSender] (DEBUG) Sending 8=FIX.4.4|9=58|35=0|49=FIXCLIENT1|56=DMA_HUB|34=212|52=20231114-12:16:23|10=083|
2023-11-14 13:16:40.385 [49] [FixSender] (DEBUG) Receiving 8=FIX.4.4|9=62|35=0|34=257|49=DMA_HUB|56=FIXCLIENT1|52=20231114-12:16:40.385|10=036|
2023-11-14 13:16:53.719 [50] [FixSender] (DEBUG) Sending 8=FIX.4.4|9=58|35=0|49=FIXCLIENT1|56=DMA_HUB|34=213|52=20231114-12:16:53|10=087|
2023-11-14 13:17:10.337 [49] [FixSender] (DEBUG) Receiving 8=FIX.4.4|9=62|35=0|34=258|49=DMA_HUB|56=FIXCLIENT1|52=20231114-12:17:10.337|10=032|
2023-11-14 13:17:23.721 [50] [FixSender] (DEBUG) Sending 8=FIX.4.4|9=58|35=0|49=FIXCLIENT1|56=DMA_HUB|34=214|52=20231114-12:17:23|10=086|
2023-11-14 13:17:40.289 [49] [FixSender] (DEBUG) Receiving 8=FIX.4.4|9=62|35=0|34=259|49=DMA_HUB|56=FIXCLIENT1|52=20231114-12:17:40.289|10=042|
2023-11-14 13:17:53.721 [50] [FixSender] (DEBUG) Sending 8=FIX.4.4|9=58|35=0|49=FIXCLIENT1|56=DMA_HUB|34=215|52=20231114-12:17:53|10=090|
2023-11-14 13:18:10.241 [49] [FixSender] (DEBUG) Receiving 8=FIX.4.4|9=62|35=0|34=260|49=DMA_HUB|56=FIXCLIENT1|52=20231114-12:18:10.241|10=020|
2023-11-14 13:18:23.722 [50] [FixSender] (DEBUG) Sending 8=FIX.4.4|9=58|35=0|49=FIXCLIENT1|56=DMA_HUB|34=216|52=20231114-12:18:23|10=089|
2023-11-14 13:18:40.193 [49] [FixSender] (DEBUG) Receiving 8=FIX.4.4|9=62|35=0|34=261|49=DMA_HUB|56=FIXCLIENT1|52=20231114-12:18:40.193|10=030|
2023-11-14 13:18:53.723 [50] [FixSender] (DEBUG) Sending 8=FIX.4.4|9=58|35=0|49=FIXCLIENT1|56=DMA_HUB|34=217|52=20231114-12:18:53|10=093|
2023-11-14 13:19:10.145 [49] [FixSender] (DEBUG) Receiving 8=FIX.4.4|9=62|35=0|34=262|49=DMA_HUB|56=FIXCLIENT1|52=20231114-12:19:10.145|10=026|
2023-11-14 13:19:23.726 [50] [FixSender] (DEBUG) Sending 8=FIX.4.4|9=58|35=0|49=FIXCLIENT1|56=DMA_HUB|34=218|52=20231114-12:19:23|10=092|
2023-11-14 13:19:40.098 [49] [FixSender] (DEBUG) Receiving 8=FIX.4.4|9=62|35=0|34=263|49=DMA_HUB|56=FIXCLIENT1|52=20231114-12:19:40.097|10=036|
2023-11-14 13:19:53.726 [50] [FixSender] (DEBUG) Sending 8=FIX.4.4|9=58|35=0|49=FIXCLIENT1|56=DMA_HUB|34=219|52=20231114-12:19:53|10=096|
2023-11-14 13:20:10.049 [49] [FixSender] (DEBUG) Receiving 8=FIX.4.4|9=62|35=0|34=264|49=DMA_HUB|56=FIXCLIENT1|52=20231114-12:20:10.049|10=023|
2023-11-14 13:20:23.727 [50] [FixSender] (DEBUG) Sending 8=FIX.4.4|9=58|35=0|49=FIXCLIENT1|56=DMA_HUB|34=220|52=20231114-12:20:23|10=077|
2023-11-14 13:20:40.001 [49] [FixSender] (DEBUG) Receiving 8=FIX.4.4|9=62|35=0|34=265|49=DMA_HUB|56=FIXCLIENT1|52=20231114-12:20:40.001|10=015|
2023-11-14 13:20:53.733 [50] [FixSender] (DEBUG) Sending 8=FIX.4.4|9=58|35=0|49=FIXCLIENT1|56=DMA_HUB|34=221|52=20231114-12:20:53|10=081|
2023-11-14 13:21:09.953 [49] [FixSender] (DEBUG) Receiving 8=FIX.4.4|9=62|35=0|34=266|49=DMA_HUB|56=FIXCLIENT1|52=20231114-12:21:09.953|10=038|
2023-11-14 13:21:23.733 [50] [FixSender] (DEBUG) Sending 8=FIX.4.4|9=58|35=0|49=FIXCLIENT1|56=DMA_HUB|34=222|52=20231114-12:21:23|10=080|
2023-11-14 13:21:39.905 [49] [FixSender] (DEBUG) Receiving 8=FIX.4.4|9=62|35=0|34=267|49=DMA_HUB|56=FIXCLIENT1|52=20231114-12:21:39.905|10=039|
2023-11-14 13:21:53.735 [50] [FixSender] (DEBUG) Sending 8=FIX.4.4|9=58|35=0|49=FIXCLIENT1|56=DMA_HUB|34=223|52=20231114-12:21:53|10=084|
2023-11-14 13:22:09.857 [49] [FixSender] (DEBUG) Receiving 8=FIX.4.4|9=62|35=0|34=268|49=DMA_HUB|56=FIXCLIENT1|52=20231114-12:22:09.857|10=044|
2023-11-14 13:22:23.735 [50] [FixSender] (DEBUG) Sending 8=FIX.4.4|9=58|35=0|49=FIXCLIENT1|56=DMA_HUB|34=224|52=20231114-12:22:23|10=083|
2023-11-14 13:22:39.809 [49] [FixSender] (DEBUG) Receiving 8=FIX.4.4|9=62|35=0|34=269|49=DMA_HUB|56=FIXCLIENT1|52=20231114-12:22:39.809|10=045|
2023-11-14 13:22:53.735 [50] [FixSender] (DEBUG) Sending 8=FIX.4.4|9=58|35=0|49=FIXCLIENT1|56=DMA_HUB|34=225|52=20231114-12:22:53|10=087|
2023-11-14 13:23:09.762 [49] [FixSender] (DEBUG) Receiving 8=FIX.4.4|9=62|35=0|34=270|49=DMA_HUB|56=FIXCLIENT1|52=20231114-12:23:09.762|10=033|
2023-11-14 13:23:23.737 [50] [FixSender] (DEBUG) Sending 8=FIX.4.4|9=58|35=0|49=FIXCLIENT1|56=DMA_HUB|34=226|52=20231114-12:23:23|10=086|
2023-11-14 13:23:39.714 [49] [FixSender] (DEBUG) Receiving 8=FIX.4.4|9=62|35=0|34=271|49=DMA_HUB|56=FIXCLIENT1|52=20231114-12:23:39.714|10=034|
2023-11-14 13:23:53.739 [50] [FixSender] (DEBUG) Sending 8=FIX.4.4|9=58|35=0|49=FIXCLIENT1|56=DMA_HUB|34=227|52=20231114-12:23:53|10=090|
2023-11-14 13:24:09.665 [49] [FixSender] (DEBUG) Receiving 8=FIX.4.4|9=62|35=0|34=272|49=DMA_HUB|56=FIXCLIENT1|52=20231114-12:24:09.665|10=038|
2023-11-14 13:24:23.740 [50] [FixSender] (DEBUG) Sending 8=FIX.4.4|9=58|35=0|49=FIXCLIENT1|56=DMA_HUB|34=228|52=20231114-12:24:23|10=089|
2023-11-14 13:24:39.617 [49] [FixSender] (DEBUG) Receiving 8=FIX.4.4|9=62|35=0|34=273|49=DMA_HUB|56=FIXCLIENT1|52=20231114-12:24:39.617|10=039|
2023-11-14 13:24:53.742 [50] [FixSender] (DEBUG) Sending 8=FIX.4.4|9=58|35=0|49=FIXCLIENT1|56=DMA_HUB|34=229|52=20231114-12:24:53|10=093|
2023-11-14 13:25:09.569 [49] [FixSender] (DEBUG) Receiving 8=FIX.4.4|9=62|35=0|34=274|49=DMA_HUB|56=FIXCLIENT1|52=20231114-12:25:09.569|10=044|
2023-11-14 13:25:23.742 [50] [FixSender] (DEBUG) Sending 8=FIX.4.4|9=58|35=0|49=FIXCLIENT1|56=DMA_HUB|34=230|52=20231114-12:25:23|10=083|
2023-11-14 13:25:39.521 [49] [FixSender] (DEBUG) Receiving 8=FIX.4.4|9=62|35=0|34=275|49=DMA_HUB|56=FIXCLIENT1|52=20231114-12:25:39.521|10=036|
2023-11-14 13:25:53.745 [50] [FixSender] (DEBUG) Sending 8=FIX.4.4|9=58|35=0|49=FIXCLIENT1|56=DMA_HUB|34=231|52=20231114-12:25:53|10=087|
2023-11-14 13:26:09.474 [49] [FixSender] (DEBUG) Receiving 8=FIX.4.4|9=62|35=0|34=276|49=DMA_HUB|56=FIXCLIENT1|52=20231114-12:26:09.473|10=041|
2023-11-14 13:26:23.745 [50] [FixSender] (DEBUG) Sending 8=FIX.4.4|9=58|35=0|49=FIXCLIENT1|56=DMA_HUB|34=232|52=20231114-12:26:23|10=086|
2023-11-14 13:26:39.426 [49] [FixSender] (DEBUG) Receiving 8=FIX.4.4|9=62|35=0|34=277|49=DMA_HUB|56=FIXCLIENT1|52=20231114-12:26:39.426|10=043|
2023-11-14 13:26:53.747 [50] [FixSender] (DEBUG) Sending 8=FIX.4.4|9=58|35=0|49=FIXCLIENT1|56=DMA_HUB|34=233|52=20231114-12:26:53|10=090|
2023-11-14 13:27:09.377 [49] [FixSender] (DEBUG) Receiving 8=FIX.4.4|9=62|35=0|34=278|49=DMA_HUB|56=FIXCLIENT1|52=20231114-12:27:09.377|10=047|
2023-11-14 13:27:23.749 [50] [FixSender] (DEBUG) Sending 8=FIX.4.4|9=58|35=0|49=FIXCLIENT1|56=DMA_HUB|34=234|52=20231114-12:27:23|10=089|
2023-11-14 13:27:39.329 [49] [FixSender] (DEBUG) Receiving 8=FIX.4.4|9=62|35=0|34=279|49=DMA_HUB|56=FIXCLIENT1|52=20231114-12:27:39.329|10=048|
2023-11-14 13:27:53.751 [50] [FixSender] (DEBUG) Sending 8=FIX.4.4|9=58|35=0|49=FIXCLIENT1|56=DMA_HUB|34=235|52=20231114-12:27:53|10=093|
2023-11-14 13:28:09.281 [49] [FixSender] (DEBUG) Receiving 8=FIX.4.4|9=62|35=0|34=280|49=DMA_HUB|56=FIXCLIENT1|52=20231114-12:28:09.281|10=035|
2023-11-14 13:28:23.753 [50] [FixSender] (DEBUG) Sending 8=FIX.4.4|9=58|35=0|49=FIXCLIENT1|56=DMA_HUB|34=236|52=20231114-12:28:23|10=092|
2023-11-14 13:28:39.234 [49] [FixSender] (DEBUG) Receiving 8=FIX.4.4|9=62|35=0|34=281|49=DMA_HUB|56=FIXCLIENT1|52=20231114-12:28:39.233|10=036|
2023-11-14 13:28:53.753 [50] [FixSender] (DEBUG) Sending 8=FIX.4.4|9=58|35=0|49=FIXCLIENT1|56=DMA_HUB|34=237|52=20231114-12:28:53|10=096|
2023-11-14 13:29:09.186 [49] [FixSender] (DEBUG) Receiving 8=FIX.4.4|9=62|35=0|34=282|49=DMA_HUB|56=FIXCLIENT1|52=20231114-12:29:09.186|10=042|
2023-11-14 13:29:23.757 [50] [FixSender] (DEBUG) Sending 8=FIX.4.4|9=58|35=0|49=FIXCLIENT1|56=DMA_HUB|34=238|52=20231114-12:29:23|10=095|
2023-11-14 13:29:39.137 [49] [FixSender] (DEBUG) Receiving 8=FIX.4.4|9=62|35=0|34=283|49=DMA_HUB|56=FIXCLIENT1|52=20231114-12:29:39.137|10=042|
2023-11-14 13:29:53.759 [50] [FixSender] (DEBUG) Sending 8=FIX.4.4|9=58|35=0|49=FIXCLIENT1|56=DMA_HUB|34=239|52=20231114-12:29:53|10=099|
2023-11-14 13:30:09.089 [49] [FixSender] (DEBUG) Receiving 8=FIX.4.4|9=62|35=0|34=284|49=DMA_HUB|56=FIXCLIENT1|52=20231114-12:30:09.089|10=038|
2023-11-14 13:30:23.762 [50] [FixSender] (DEBUG) Sending 8=FIX.4.4|9=58|35=0|49=FIXCLIENT1|56=DMA_HUB|34=240|52=20231114-12:30:23|10=080|
2023-11-14 13:30:39.041 [49] [FixSender] (DEBUG) Receiving 8=FIX.4.4|9=62|35=0|34=285|49=DMA_HUB|56=FIXCLIENT1|52=20231114-12:30:39.041|10=030|
2023-11-14 13:30:53.766 [50] [FixSender] (DEBUG) Sending 8=FIX.4.4|9=58|35=0|49=FIXCLIENT1|56=DMA_HUB|34=241|52=20231114-12:30:53|10=084|
2023-11-14 13:31:08.995 [49] [FixSender] (DEBUG) Receiving 8=FIX.4.4|9=62|35=0|34=286|49=DMA_HUB|56=FIXCLIENT1|52=20231114-12:31:08.993|10=044|
2023-11-14 13:31:23.767 [50] [FixSender] (DEBUG) Sending 8=FIX.4.4|9=58|35=0|49=FIXCLIENT1|56=DMA_HUB|34=242|52=20231114-12:31:23|10=083|
2023-11-14 13:31:38.945 [49] [FixSender] (DEBUG) Receiving 8=FIX.4.4|9=62|35=0|34=287|49=DMA_HUB|56=FIXCLIENT1|52=20231114-12:31:38.945|10=045|
2023-11-14 13:31:53.767 [50] [FixSender] (DEBUG) Sending 8=FIX.4.4|9=58|35=0|49=FIXCLIENT1|56=DMA_HUB|34=243|52=20231114-12:31:53|10=087|
2023-11-14 13:32:08.897 [49] [FixSender] (DEBUG) Receiving 8=FIX.4.4|9=62|35=0|34=288|49=DMA_HUB|56=FIXCLIENT1|52=20231114-12:32:08.897|10=050|
2023-11-14 13:32:23.767 [50] [FixSender] (DEBUG) Sending 8=FIX.4.4|9=58|35=0|49=FIXCLIENT1|56=DMA_HUB|34=244|52=20231114-12:32:23|10=086|
2023-11-14 13:32:38.851 [49] [FixSender] (DEBUG) Receiving 8=FIX.4.4|9=62|35=0|34=289|49=DMA_HUB|56=FIXCLIENT1|52=20231114-12:32:38.850|10=043|
2023-11-14 13:32:53.768 [50] [FixSender] (DEBUG) Sending 8=FIX.4.4|9=58|35=0|49=FIXCLIENT1|56=DMA_HUB|34=245|52=20231114-12:32:53|10=090|
2023-11-14 13:33:08.801 [49] [FixSender] (DEBUG) Receiving 8=FIX.4.4|9=62|35=0|34=290|49=DMA_HUB|56=FIXCLIENT1|52=20231114-12:33:08.801|10=029|
2023-11-14 13:33:23.770 [50] [FixSender] (DEBUG) Sending 8=FIX.4.4|9=58|35=0|49=FIXCLIENT1|56=DMA_HUB|34=246|52=20231114-12:33:23|10=089|
2023-11-14 13:33:38.754 [49] [FixSender] (DEBUG) Receiving 8=FIX.4.4|9=62|35=0|34=291|49=DMA_HUB|56=FIXCLIENT1|52=20231114-12:33:38.753|10=039|
2023-11-14 13:33:53.784 [50] [FixSender] (DEBUG) Sending 8=FIX.4.4|9=58|35=0|49=FIXCLIENT1|56=DMA_HUB|34=247|52=20231114-12:33:53|10=093|
2023-11-14 13:34:08.705 [49] [FixSender] (DEBUG) Receiving 8=FIX.4.4|9=62|35=0|34=292|49=DMA_HUB|56=FIXCLIENT1|52=20231114-12:34:08.705|10=035|
2023-11-14 13:34:23.784 [50] [FixSender] (DEBUG) Sending 8=FIX.4.4|9=58|35=0|49=FIXCLIENT1|56=DMA_HUB|34=248|52=20231114-12:34:23|10=092|
2023-11-14 13:34:38.658 [49] [FixSender] (DEBUG) Receiving 8=FIX.4.4|9=62|35=0|34=293|49=DMA_HUB|56=FIXCLIENT1|52=20231114-12:34:38.658|10=046|
2023-11-14 13:34:53.785 [50] [FixSender] (DEBUG) Sending 8=FIX.4.4|9=58|35=0|49=FIXCLIENT1|56=DMA_HUB|34=249|52=20231114-12:34:53|10=096|
2023-11-14 13:35:08.634 [49] [FixSender] (DEBUG) Receiving 8=FIX.4.4|9=62|35=0|34=294|49=DMA_HUB|56=FIXCLIENT1|52=20231114-12:35:08.610|10=033|
2023-11-14 13:35:23.802 [50] [FixSender] (DEBUG) Sending 8=FIX.4.4|9=58|35=0|49=FIXCLIENT1|56=DMA_HUB|34=250|52=20231114-12:35:23|10=086|
2023-11-14 13:35:38.561 [49] [FixSender] (DEBUG) Receiving 8=FIX.4.4|9=62|35=0|34=295|49=DMA_HUB|56=FIXCLIENT1|52=20231114-12:35:38.561|10=042|
2023-11-14 13:35:53.803 [50] [FixSender] (DEBUG) Sending 8=FIX.4.4|9=58|35=0|49=FIXCLIENT1|56=DMA_HUB|34=251|52=20231114-12:35:53|10=090|
2023-11-14 13:36:08.514 [49] [FixSender] (DEBUG) Receiving 8=FIX.4.4|9=62|35=0|34=296|49=DMA_HUB|56=FIXCLIENT1|52=20231114-12:36:08.514|10=039|
2023-11-14 13:36:23.811 [50] [FixSender] (DEBUG) Sending 8=FIX.4.4|9=58|35=0|49=FIXCLIENT1|56=DMA_HUB|34=252|52=20231114-12:36:23|10=089|
2023-11-14 13:36:38.466 [49] [FixSender] (DEBUG) Receiving 8=FIX.4.4|9=62|35=0|34=297|49=DMA_HUB|56=FIXCLIENT1|52=20231114-12:36:38.466|10=049|
2023-11-14 13:36:53.817 [50] [FixSender] (DEBUG) Sending 8=FIX.4.4|9=58|35=0|49=FIXCLIENT1|56=DMA_HUB|34=253|52=20231114-12:36:53|10=093|
2023-11-14 13:37:08.418 [49] [FixSender] (DEBUG) Receiving 8=FIX.4.4|9=62|35=0|34=298|49=DMA_HUB|56=FIXCLIENT1|52=20231114-12:37:08.418|10=045|
2023-11-14 13:37:23.827 [50] [FixSender] (DEBUG) Sending 8=FIX.4.4|9=58|35=0|49=FIXCLIENT1|56=DMA_HUB|34=254|52=20231114-12:37:23|10=092|
2023-11-14 13:37:38.370 [49] [FixSender] (DEBUG) Receiving 8=FIX.4.4|9=62|35=0|34=299|49=DMA_HUB|56=FIXCLIENT1|52=20231114-12:37:38.370|10=046|
2023-11-14 13:37:53.832 [50] [FixSender] (DEBUG) Sending 8=FIX.4.4|9=58|35=0|49=FIXCLIENT1|56=DMA_HUB|34=255|52=20231114-12:37:53|10=096|
2023-11-14 13:38:08.322 [49] [FixSender] (DEBUG) Receiving 8=FIX.4.4|9=62|35=0|34=300|49=DMA_HUB|56=FIXCLIENT1|52=20231114-12:38:08.322|10=024|
2023-11-14 13:38:23.835 [50] [FixSender] (DEBUG) Sending 8=FIX.4.4|9=58|35=0|49=FIXCLIENT1|56=DMA_HUB|34=256|52=20231114-12:38:23|10=095|
2023-11-14 13:38:38.273 [49] [FixSender] (DEBUG) Receiving 8=FIX.4.4|9=62|35=0|34=301|49=DMA_HUB|56=FIXCLIENT1|52=20231114-12:38:38.273|10=033|
2023-11-14 13:38:53.845 [50] [FixSender] (DEBUG) Sending 8=FIX.4.4|9=58|35=0|49=FIXCLIENT1|56=DMA_HUB|34=257|52=20231114-12:38:53|10=099|
2023-11-14 13:39:08.226 [49] [FixSender] (DEBUG) Receiving 8=FIX.4.4|9=62|35=0|34=302|49=DMA_HUB|56=FIXCLIENT1|52=20231114-12:39:08.225|10=029|
2023-11-14 13:39:23.848 [50] [FixSender] (DEBUG) Sending 8=FIX.4.4|9=58|35=0|49=FIXCLIENT1|56=DMA_HUB|34=258|52=20231114-12:39:23|10=098|
2023-11-14 13:39:38.177 [49] [FixSender] (DEBUG) Receiving 8=FIX.4.4|9=62|35=0|34=303|49=DMA_HUB|56=FIXCLIENT1|52=20231114-12:39:38.177|10=039|
2023-11-14 13:39:53.853 [50] [FixSender] (DEBUG) Sending 8=FIX.4.4|9=58|35=0|49=FIXCLIENT1|56=DMA_HUB|34=259|52=20231114-12:39:53|10=102|
2023-11-14 13:40:08.131 [49] [FixSender] (DEBUG) Receiving 8=FIX.4.4|9=62|35=0|34=304|49=DMA_HUB|56=FIXCLIENT1|52=20231114-12:40:08.131|10=019|
2023-11-14 13:40:23.863 [50] [FixSender] (DEBUG) Sending 8=FIX.4.4|9=58|35=0|49=FIXCLIENT1|56=DMA_HUB|34=260|52=20231114-12:40:23|10=083|
2023-11-14 13:40:38.083 [49] [FixSender] (DEBUG) Receiving 8=FIX.4.4|9=62|35=0|34=305|49=DMA_HUB|56=FIXCLIENT1|52=20231114-12:40:38.082|10=028|
2023-11-14 13:40:53.868 [50] [FixSender] (DEBUG) Sending 8=FIX.4.4|9=58|35=0|49=FIXCLIENT1|56=DMA_HUB|34=261|52=20231114-12:40:53|10=087|
2023-11-14 13:41:08.035 [49] [FixSender] (DEBUG) Receiving 8=FIX.4.4|9=62|35=0|34=306|49=DMA_HUB|56=FIXCLIENT1|52=20231114-12:41:08.034|10=024|
