2023-11-08 11:46:06.450 [1] [Fixsender] (INFO) (c) 2001-2011 ullink SAS. FixSender. Release 1.11.
2023-11-08 11:46:20.578 [29] [FixSender] (INFO) try to connect to : localhost port :12345
2023-11-08 11:46:20.598 [29] [FixSender] (INFO) physical cnx initiated
2023-11-08 11:46:20.617 [29] [FixSender] (DEBUG) Sending 8=FIX.4.4|9=88|35=A|49=FIXCLIENT1|56=DMA_HUB|34=641|52=20231108-10:46:20|98=0|108=30|95=9|96=null/null|10=190|
2023-11-08 11:46:20.625 [29] [FixSender] (DEBUG) Receiving 8=FIX.4.4|9=72|35=A|34=1|49=DMA_HUB|56=FIXCLIENT1|52=20231108-10:46:20.620|108=30|98=0|10=220|
2023-11-08 11:46:20.627 [29] [FixSender] (DEBUG) Sending 8=FIX.4.4|9=110|35=5|49=FIXCLIENT1|56=DMA_HUB|34=642|52=20231108-10:46:20|58=MsgSeqNum expected 748, but MsgSeqNum received 1|10=212|
2023-11-08 11:46:20.628 [29] [FixSender] (INFO) physical cnx finished Connection reset by peer
2023-11-08 11:46:20.629 [29] [FixSender] (WARNING) Disconnected
2023-11-08 11:46:33.753 [33] [FixSender] (INFO) try to connect to : localhost port :12345
2023-11-08 11:46:33.754 [33] [FixSender] (INFO) physical cnx initiated
2023-11-08 11:46:33.756 [33] [FixSender] (DEBUG) Sending 8=FIX.4.4|9=86|35=A|49=FIXCLIENT1|56=DMA_HUB|34=1|52=20231108-10:46:33|98=0|108=30|95=9|96=null/null|10=086|
2023-11-08 11:46:33.761 [33] [FixSender] (DEBUG) Receiving 8=FIX.4.4|9=72|35=A|34=4|49=DMA_HUB|56=FIXCLIENT1|52=20231108-10:46:33.756|108=30|98=0|10=237|
2023-11-08 11:46:33.761 [33] [FixSender] (WARNING) The Fix connection is open...
2023-11-08 11:46:33.764 [33] [FixSender] (DEBUG) Sending 8=FIX.4.4|9=65|35=2|49=FIXCLIENT1|56=DMA_HUB|34=2|52=20231108-10:46:33|7=1|16=0|10=112|
2023-11-08 11:46:33.767 [33] [FixSender] (DEBUG) Receiving 8=FIX.4.4|9=102|35=4|34=1|49=DMA_HUB|56=FIXCLIENT1|52=20231108-10:46:33.767|43=Y|122=20231108-10:46:33.767|36=5|123=Y|10=255|
2023-11-08 11:47:03.699 [33] [FixSender] (DEBUG) Receiving 8=FIX.4.4|9=60|35=0|34=5|49=DMA_HUB|56=FIXCLIENT1|52=20231108-10:47:03.697|10=195|
2023-11-08 11:47:03.776 [34] [FixSender] (DEBUG) Sending 8=FIX.4.4|9=56|35=0|49=FIXCLIENT1|56=DMA_HUB|34=3|52=20231108-10:47:03|10=242|
2023-11-08 11:47:31.454 [37] [FixSender] (DEBUG) Sending 8=FIX.4.4|9=192|35=D|49=FIXCLIENT1|56=DMA_HUB|34=4|52=20231108-10:47:31|21=1|11=HS_16994404510|38=3744|55=E:07G@XETR|54=2|60=20231108-10:47:31|40=2|59=0|44=197|48=US3390411052|22=4|15=EUR|207=XETR|1=bram_123|10=093|
2023-11-08 11:47:31.549 [33] [FixSender] (DEBUG) Receiving 8=FIX.4.4|9=234|35=8|34=6|49=DMA_HUB|56=FIXCLIENT1|52=20231108-10:47:31.547|11=HS_16994404510|37=FXr6OmwVJ|54=2|40=2|59=0|17=202311081|150=A|39=A|38=3744|151=3744|14=0|6=0|44=197|60=20231108-10:47:31.000|22=4|48=US3390411052|207=XETR|15=EUR|55=[N/A]|10=017|
2023-11-08 11:47:31.574 [33] [FixSender] (DEBUG) Receiving 8=FIX.4.4|9=249|35=8|34=7|49=DMA_HUB|56=FIXCLIENT1|52=20231108-10:47:31.574|11=HS_16994404510|37=FXr6OmwVJ|198=tbadq51ae6|54=2|40=2|59=0|17=202311082|150=0|39=0|38=3744|151=3744|14=0|6=0|44=197|60=20231108-10:47:31.569|22=4|48=US3390411052|207=XETR|15=EUR|55=[N/A]|10=089|
2023-11-08 11:47:33.651 [33] [FixSender] (DEBUG) Receiving 8=FIX.4.4|9=60|35=0|34=8|49=DMA_HUB|56=FIXCLIENT1|52=20231108-10:47:33.650|10=190|
2023-11-08 11:47:48.028 [38] [FixSender] (DEBUG) Sending 8=FIX.4.4|9=196|35=D|49=FIXCLIENT1|56=DMA_HUB|34=5|52=20231108-10:47:48|21=1|11=HS_16994404681|38=3167|55=E:07G@XETR|54=2|60=20231108-10:47:48|40=2|59=0|44=197.111|48=US3390411052|22=4|15=EUR|207=XETR|1=bram_123|10=059|
2023-11-08 11:47:48.030 [33] [FixSender] (DEBUG) Receiving 8=FIX.4.4|9=238|35=8|34=9|49=DMA_HUB|56=FIXCLIENT1|52=20231108-10:47:48.029|11=HS_16994404681|37=FXs6OmwVJ|54=2|40=2|59=0|17=202311083|150=A|39=A|38=3167|151=3167|14=0|6=0|44=197.111|60=20231108-10:47:48.000|22=4|48=US3390411052|207=XETR|15=EUR|55=[N/A]|10=238|
2023-11-08 11:48:03.602 [33] [FixSender] (DEBUG) Receiving 8=FIX.4.4|9=61|35=0|34=10|49=DMA_HUB|56=FIXCLIENT1|52=20231108-10:48:03.601|10=226|
2023-11-08 11:48:18.029 [34] [FixSender] (DEBUG) Sending 8=FIX.4.4|9=56|35=0|49=FIXCLIENT1|56=DMA_HUB|34=6|52=20231108-10:48:18|10=252|
2023-11-08 11:48:33.554 [33] [FixSender] (DEBUG) Receiving 8=FIX.4.4|9=61|35=0|34=11|49=DMA_HUB|56=FIXCLIENT1|52=20231108-10:48:33.553|10=236|
2023-11-08 11:48:47.217 [33] [FixSender] (DEBUG) Receiving 8=FIX.4.4|9=326|35=8|34=12|49=DMA_HUB|56=FIXCLIENT1|52=20231108-10:48:47.216|11=HS_16994404681|37=FXs6OmwVJ|198=FXs6OmwVJ|54=2|40=2|59=0|17=202311084|150=8|39=8|38=3167|151=0|14=0|6=0|44=197.111|60=20231108-10:48:47.214|22=4|48=US3390411052|207=XETR|15=EUR|55=[N/A]|58=HI!!! Price does not abide by tick rules (rounded price would be 197.0).|10=139|
2023-11-08 11:48:48.040 [34] [FixSender] (DEBUG) Sending 8=FIX.4.4|9=56|35=0|49=FIXCLIENT1|56=DMA_HUB|34=7|52=20231108-10:48:48|10=000|
2023-11-08 11:49:03.506 [33] [FixSender] (DEBUG) Receiving 8=FIX.4.4|9=61|35=0|34=13|49=DMA_HUB|56=FIXCLIENT1|52=20231108-10:49:03.505|10=233|
2023-11-08 11:49:18.041 [34] [FixSender] (DEBUG) Sending 8=FIX.4.4|9=56|35=0|49=FIXCLIENT1|56=DMA_HUB|34=8|52=20231108-10:49:18|10=255|
2023-11-08 11:49:33.459 [33] [FixSender] (DEBUG) Receiving 8=FIX.4.4|9=61|35=0|34=14|49=DMA_HUB|56=FIXCLIENT1|52=20231108-10:49:33.458|10=244|
2023-11-08 11:49:48.045 [34] [FixSender] (DEBUG) Sending 8=FIX.4.4|9=56|35=0|49=FIXCLIENT1|56=DMA_HUB|34=9|52=20231108-10:49:48|10=003|
2023-11-08 11:50:03.411 [33] [FixSender] (DEBUG) Receiving 8=FIX.4.4|9=61|35=0|34=15|49=DMA_HUB|56=FIXCLIENT1|52=20231108-10:50:03.410|10=222|
2023-11-08 11:50:18.046 [34] [FixSender] (DEBUG) Sending 8=FIX.4.4|9=57|35=0|49=FIXCLIENT1|56=DMA_HUB|34=10|52=20231108-10:50:18|10=033|
2023-11-08 11:50:33.362 [33] [FixSender] (DEBUG) Receiving 8=FIX.4.4|9=61|35=0|34=16|49=DMA_HUB|56=FIXCLIENT1|52=20231108-10:50:33.362|10=232|
2023-11-08 11:50:48.047 [34] [FixSender] (DEBUG) Sending 8=FIX.4.4|9=57|35=0|49=FIXCLIENT1|56=DMA_HUB|34=11|52=20231108-10:50:48|10=037|
2023-11-08 11:51:03.314 [33] [FixSender] (DEBUG) Receiving 8=FIX.4.4|9=61|35=0|34=17|49=DMA_HUB|56=FIXCLIENT1|52=20231108-10:51:03.313|10=227|
2023-11-08 11:51:18.050 [34] [FixSender] (DEBUG) Sending 8=FIX.4.4|9=57|35=0|49=FIXCLIENT1|56=DMA_HUB|34=12|52=20231108-10:51:18|10=036|
2023-11-08 11:51:33.266 [33] [FixSender] (DEBUG) Receiving 8=FIX.4.4|9=61|35=0|34=18|49=DMA_HUB|56=FIXCLIENT1|52=20231108-10:51:33.265|10=237|
2023-11-08 11:51:48.051 [34] [FixSender] (DEBUG) Sending 8=FIX.4.4|9=57|35=0|49=FIXCLIENT1|56=DMA_HUB|34=13|52=20231108-10:51:48|10=040|
2023-11-08 11:52:03.219 [33] [FixSender] (DEBUG) Receiving 8=FIX.4.4|9=61|35=0|34=19|49=DMA_HUB|56=FIXCLIENT1|52=20231108-10:52:03.218|10=234|
2023-11-08 11:52:18.054 [34] [FixSender] (DEBUG) Sending 8=FIX.4.4|9=57|35=0|49=FIXCLIENT1|56=DMA_HUB|34=14|52=20231108-10:52:18|10=039|
2023-11-08 11:52:33.169 [33] [FixSender] (DEBUG) Receiving 8=FIX.4.4|9=61|35=0|34=20|49=DMA_HUB|56=FIXCLIENT1|52=20231108-10:52:33.169|10=234|
2023-11-08 11:52:48.055 [34] [FixSender] (DEBUG) Sending 8=FIX.4.4|9=57|35=0|49=FIXCLIENT1|56=DMA_HUB|34=15|52=20231108-10:52:48|10=043|
2023-11-08 11:53:03.122 [33] [FixSender] (DEBUG) Receiving 8=FIX.4.4|9=61|35=0|34=21|49=DMA_HUB|56=FIXCLIENT1|52=20231108-10:53:03.121|10=221|
2023-11-08 11:53:18.055 [34] [FixSender] (DEBUG) Sending 8=FIX.4.4|9=57|35=0|49=FIXCLIENT1|56=DMA_HUB|34=16|52=20231108-10:53:18|10=042|
2023-11-08 11:53:33.075 [33] [FixSender] (DEBUG) Receiving 8=FIX.4.4|9=61|35=0|34=22|49=DMA_HUB|56=FIXCLIENT1|52=20231108-10:53:33.074|10=232|
2023-11-08 11:53:48.057 [34] [FixSender] (DEBUG) Sending 8=FIX.4.4|9=57|35=0|49=FIXCLIENT1|56=DMA_HUB|34=17|52=20231108-10:53:48|10=046|
2023-11-08 11:54:03.027 [33] [FixSender] (DEBUG) Receiving 8=FIX.4.4|9=61|35=0|34=23|49=DMA_HUB|56=FIXCLIENT1|52=20231108-10:54:03.026|10=228|
2023-11-08 11:54:18.060 [34] [FixSender] (DEBUG) Sending 8=FIX.4.4|9=57|35=0|49=FIXCLIENT1|56=DMA_HUB|34=18|52=20231108-10:54:18|10=045|
2023-11-08 11:54:32.977 [33] [FixSender] (DEBUG) Receiving 8=FIX.4.4|9=61|35=0|34=24|49=DMA_HUB|56=FIXCLIENT1|52=20231108-10:54:32.977|10=246|
2023-11-08 11:54:48.063 [34] [FixSender] (DEBUG) Sending 8=FIX.4.4|9=57|35=0|49=FIXCLIENT1|56=DMA_HUB|34=19|52=20231108-10:54:48|10=049|
2023-11-08 11:55:02.933 [33] [FixSender] (DEBUG) Receiving 8=FIX.4.4|9=61|35=0|34=25|49=DMA_HUB|56=FIXCLIENT1|52=20231108-10:55:02.930|10=234|
2023-11-08 11:55:18.066 [34] [FixSender] (DEBUG) Sending 8=FIX.4.4|9=57|35=0|49=FIXCLIENT1|56=DMA_HUB|34=20|52=20231108-10:55:18|10=039|
2023-11-08 11:55:32.882 [33] [FixSender] (DEBUG) Receiving 8=FIX.4.4|9=61|35=0|34=26|49=DMA_HUB|56=FIXCLIENT1|52=20231108-10:55:32.881|10=243|
2023-11-08 11:55:48.067 [34] [FixSender] (DEBUG) Sending 8=FIX.4.4|9=57|35=0|49=FIXCLIENT1|56=DMA_HUB|34=21|52=20231108-10:55:48|10=043|
2023-11-08 11:56:02.834 [33] [FixSender] (DEBUG) Receiving 8=FIX.4.4|9=61|35=0|34=27|49=DMA_HUB|56=FIXCLIENT1|52=20231108-10:56:02.833|10=239|
2023-11-08 11:56:18.068 [34] [FixSender] (DEBUG) Sending 8=FIX.4.4|9=57|35=0|49=FIXCLIENT1|56=DMA_HUB|34=22|52=20231108-10:56:18|10=042|
2023-11-08 11:56:32.788 [33] [FixSender] (DEBUG) Receiving 8=FIX.4.4|9=61|35=0|34=28|49=DMA_HUB|56=FIXCLIENT1|52=20231108-10:56:32.785|10=249|
2023-11-08 11:56:48.069 [34] [FixSender] (DEBUG) Sending 8=FIX.4.4|9=57|35=0|49=FIXCLIENT1|56=DMA_HUB|34=23|52=20231108-10:56:48|10=046|
2023-11-08 11:57:02.739 [33] [FixSender] (DEBUG) Receiving 8=FIX.4.4|9=61|35=0|34=29|49=DMA_HUB|56=FIXCLIENT1|52=20231108-10:57:02.738|10=246|
2023-11-08 11:57:18.071 [34] [FixSender] (DEBUG) Sending 8=FIX.4.4|9=57|35=0|49=FIXCLIENT1|56=DMA_HUB|34=24|52=20231108-10:57:18|10=045|
2023-11-08 11:57:32.690 [33] [FixSender] (DEBUG) Receiving 8=FIX.4.4|9=61|35=0|34=30|49=DMA_HUB|56=FIXCLIENT1|52=20231108-10:57:32.690|10=238|
2023-11-08 11:57:48.074 [34] [FixSender] (DEBUG) Sending 8=FIX.4.4|9=57|35=0|49=FIXCLIENT1|56=DMA_HUB|34=25|52=20231108-10:57:48|10=049|
2023-11-08 11:58:02.642 [33] [FixSender] (DEBUG) Receiving 8=FIX.4.4|9=61|35=0|34=31|49=DMA_HUB|56=FIXCLIENT1|52=20231108-10:58:02.641|10=233|
2023-11-08 11:58:18.099 [34] [FixSender] (DEBUG) Sending 8=FIX.4.4|9=57|35=0|49=FIXCLIENT1|56=DMA_HUB|34=26|52=20231108-10:58:18|10=048|
2023-11-08 11:58:32.593 [33] [FixSender] (DEBUG) Receiving 8=FIX.4.4|9=61|35=0|34=32|49=DMA_HUB|56=FIXCLIENT1|52=20231108-10:58:32.593|10=243|
2023-11-08 11:58:48.102 [34] [FixSender] (DEBUG) Sending 8=FIX.4.4|9=57|35=0|49=FIXCLIENT1|56=DMA_HUB|34=27|52=20231108-10:58:48|10=052|
2023-11-08 11:59:02.546 [33] [FixSender] (DEBUG) Receiving 8=FIX.4.4|9=61|35=0|34=33|49=DMA_HUB|56=FIXCLIENT1|52=20231108-10:59:02.546|10=240|
2023-11-08 11:59:18.163 [34] [FixSender] (DEBUG) Sending 8=FIX.4.4|9=57|35=0|49=FIXCLIENT1|56=DMA_HUB|34=28|52=20231108-10:59:18|10=051|
2023-11-08 11:59:32.498 [33] [FixSender] (DEBUG) Receiving 8=FIX.4.4|9=61|35=0|34=34|49=DMA_HUB|56=FIXCLIENT1|52=20231108-10:59:32.497|10=249|
2023-11-08 11:59:48.165 [34] [FixSender] (DEBUG) Sending 8=FIX.4.4|9=57|35=0|49=FIXCLIENT1|56=DMA_HUB|34=29|52=20231108-10:59:48|10=055|
2023-11-08 12:00:02.450 [33] [FixSender] (DEBUG) Receiving 8=FIX.4.4|9=61|35=0|34=35|49=DMA_HUB|56=FIXCLIENT1|52=20231108-11:00:02.449|10=231|
2023-11-08 12:00:18.166 [34] [FixSender] (DEBUG) Sending 8=FIX.4.4|9=57|35=0|49=FIXCLIENT1|56=DMA_HUB|34=30|52=20231108-11:00:18|10=031|
2023-11-08 12:00:32.402 [33] [FixSender] (DEBUG) Receiving 8=FIX.4.4|9=61|35=0|34=36|49=DMA_HUB|56=FIXCLIENT1|52=20231108-11:00:32.402|10=224|
2023-11-08 12:00:48.168 [34] [FixSender] (DEBUG) Sending 8=FIX.4.4|9=57|35=0|49=FIXCLIENT1|56=DMA_HUB|34=31|52=20231108-11:00:48|10=035|
2023-11-08 12:01:02.354 [33] [FixSender] (DEBUG) Receiving 8=FIX.4.4|9=61|35=0|34=37|49=DMA_HUB|56=FIXCLIENT1|52=20231108-11:01:02.354|10=229|
2023-11-08 12:01:18.170 [34] [FixSender] (DEBUG) Sending 8=FIX.4.4|9=57|35=0|49=FIXCLIENT1|56=DMA_HUB|34=32|52=20231108-11:01:18|10=034|
2023-11-08 12:01:32.306 [33] [FixSender] (DEBUG) Receiving 8=FIX.4.4|9=61|35=0|34=38|49=DMA_HUB|56=FIXCLIENT1|52=20231108-11:01:32.306|10=230|
2023-11-08 12:01:48.172 [34] [FixSender] (DEBUG) Sending 8=FIX.4.4|9=57|35=0|49=FIXCLIENT1|56=DMA_HUB|34=33|52=20231108-11:01:48|10=038|
2023-11-08 12:02:02.260 [33] [FixSender] (DEBUG) Receiving 8=FIX.4.4|9=61|35=0|34=39|49=DMA_HUB|56=FIXCLIENT1|52=20231108-11:02:02.259|10=236|
2023-11-08 12:02:18.173 [34] [FixSender] (DEBUG) Sending 8=FIX.4.4|9=57|35=0|49=FIXCLIENT1|56=DMA_HUB|34=34|52=20231108-11:02:18|10=037|
2023-11-08 12:02:32.211 [33] [FixSender] (DEBUG) Receiving 8=FIX.4.4|9=61|35=0|34=40|49=DMA_HUB|56=FIXCLIENT1|52=20231108-11:02:32.210|10=218|
2023-11-08 12:02:48.176 [34] [FixSender] (DEBUG) Sending 8=FIX.4.4|9=57|35=0|49=FIXCLIENT1|56=DMA_HUB|34=35|52=20231108-11:02:48|10=041|
2023-11-08 12:03:02.163 [33] [FixSender] (DEBUG) Receiving 8=FIX.4.4|9=61|35=0|34=41|49=DMA_HUB|56=FIXCLIENT1|52=20231108-11:03:02.162|10=223|
2023-11-08 12:03:18.178 [34] [FixSender] (DEBUG) Sending 8=FIX.4.4|9=57|35=0|49=FIXCLIENT1|56=DMA_HUB|34=36|52=20231108-11:03:18|10=040|
2023-11-08 12:03:32.114 [33] [FixSender] (DEBUG) Receiving 8=FIX.4.4|9=61|35=0|34=42|49=DMA_HUB|56=FIXCLIENT1|52=20231108-11:03:32.114|10=224|
2023-11-08 12:03:48.181 [34] [FixSender] (DEBUG) Sending 8=FIX.4.4|9=57|35=0|49=FIXCLIENT1|56=DMA_HUB|34=37|52=20231108-11:03:48|10=044|
2023-11-08 12:04:02.065 [33] [FixSender] (DEBUG) Receiving 8=FIX.4.4|9=61|35=0|34=43|49=DMA_HUB|56=FIXCLIENT1|52=20231108-11:04:02.065|10=228|
2023-11-08 12:04:18.183 [34] [FixSender] (DEBUG) Sending 8=FIX.4.4|9=57|35=0|49=FIXCLIENT1|56=DMA_HUB|34=38|52=20231108-11:04:18|10=043|
2023-11-08 12:04:32.020 [33] [FixSender] (DEBUG) Receiving 8=FIX.4.4|9=61|35=0|34=44|49=DMA_HUB|56=FIXCLIENT1|52=20231108-11:04:32.019|10=231|
2023-11-08 12:04:48.186 [34] [FixSender] (DEBUG) Sending 8=FIX.4.4|9=57|35=0|49=FIXCLIENT1|56=DMA_HUB|34=39|52=20231108-11:04:48|10=047|
2023-11-08 12:05:01.980 [33] [FixSender] (DEBUG) Receiving 8=FIX.4.4|9=61|35=0|34=45|49=DMA_HUB|56=FIXCLIENT1|52=20231108-11:05:01.970|10=235|
2023-11-08 12:05:18.189 [34] [FixSender] (DEBUG) Sending 8=FIX.4.4|9=57|35=0|49=FIXCLIENT1|56=DMA_HUB|34=40|52=20231108-11:05:18|10=037|
2023-11-08 12:05:31.924 [33] [FixSender] (DEBUG) Receiving 8=FIX.4.4|9=61|35=0|34=46|49=DMA_HUB|56=FIXCLIENT1|52=20231108-11:05:31.923|10=237|
2023-11-08 12:05:48.193 [34] [FixSender] (DEBUG) Sending 8=FIX.4.4|9=57|35=0|49=FIXCLIENT1|56=DMA_HUB|34=41|52=20231108-11:05:48|10=041|
2023-11-08 12:06:01.875 [33] [FixSender] (DEBUG) Receiving 8=FIX.4.4|9=61|35=0|34=47|49=DMA_HUB|56=FIXCLIENT1|52=20231108-11:06:01.874|10=241|
2023-11-08 12:06:18.194 [34] [FixSender] (DEBUG) Sending 8=FIX.4.4|9=57|35=0|49=FIXCLIENT1|56=DMA_HUB|34=42|52=20231108-11:06:18|10=040|
2023-11-08 12:06:31.827 [33] [FixSender] (DEBUG) Receiving 8=FIX.4.4|9=61|35=0|34=48|49=DMA_HUB|56=FIXCLIENT1|52=20231108-11:06:31.826|10=242|
2023-11-08 12:06:48.195 [34] [FixSender] (DEBUG) Sending 8=FIX.4.4|9=57|35=0|49=FIXCLIENT1|56=DMA_HUB|34=43|52=20231108-11:06:48|10=044|
2023-11-08 12:07:01.779 [33] [FixSender] (DEBUG) Receiving 8=FIX.4.4|9=61|35=0|34=49|49=DMA_HUB|56=FIXCLIENT1|52=20231108-11:07:01.778|10=247|
2023-11-08 12:07:18.196 [34] [FixSender] (DEBUG) Sending 8=FIX.4.4|9=57|35=0|49=FIXCLIENT1|56=DMA_HUB|34=44|52=20231108-11:07:18|10=043|
2023-11-08 12:07:31.731 [33] [FixSender] (DEBUG) Receiving 8=FIX.4.4|9=61|35=0|34=50|49=DMA_HUB|56=FIXCLIENT1|52=20231108-11:07:31.731|10=231|
2023-11-08 12:07:48.198 [34] [FixSender] (DEBUG) Sending 8=FIX.4.4|9=57|35=0|49=FIXCLIENT1|56=DMA_HUB|34=45|52=20231108-11:07:48|10=047|
2023-11-08 12:08:01.683 [33] [FixSender] (DEBUG) Receiving 8=FIX.4.4|9=61|35=0|34=51|49=DMA_HUB|56=FIXCLIENT1|52=20231108-11:08:01.682|10=235|
2023-11-08 12:08:18.201 [34] [FixSender] (DEBUG) Sending 8=FIX.4.4|9=57|35=0|49=FIXCLIENT1|56=DMA_HUB|34=46|52=20231108-11:08:18|10=046|
2023-11-08 12:08:31.635 [33] [FixSender] (DEBUG) Receiving 8=FIX.4.4|9=61|35=0|34=52|49=DMA_HUB|56=FIXCLIENT1|52=20231108-11:08:31.634|10=236|
2023-11-08 12:08:48.205 [34] [FixSender] (DEBUG) Sending 8=FIX.4.4|9=57|35=0|49=FIXCLIENT1|56=DMA_HUB|34=47|52=20231108-11:08:48|10=050|
2023-11-08 12:09:01.587 [33] [FixSender] (DEBUG) Receiving 8=FIX.4.4|9=61|35=0|34=53|49=DMA_HUB|56=FIXCLIENT1|52=20231108-11:09:01.586|10=241|
2023-11-08 12:09:18.207 [34] [FixSender] (DEBUG) Sending 8=FIX.4.4|9=57|35=0|49=FIXCLIENT1|56=DMA_HUB|34=48|52=20231108-11:09:18|10=049|
2023-11-08 12:09:31.537 [33] [FixSender] (DEBUG) Receiving 8=FIX.4.4|9=61|35=0|34=54|49=DMA_HUB|56=FIXCLIENT1|52=20231108-11:09:31.537|10=241|
2023-11-08 12:09:48.210 [34] [FixSender] (DEBUG) Sending 8=FIX.4.4|9=57|35=0|49=FIXCLIENT1|56=DMA_HUB|34=49|52=20231108-11:09:48|10=053|
2023-11-08 12:10:01.491 [33] [FixSender] (DEBUG) Receiving 8=FIX.4.4|9=61|35=0|34=55|49=DMA_HUB|56=FIXCLIENT1|52=20231108-11:10:01.490|10=229|
2023-11-08 12:10:18.211 [34] [FixSender] (DEBUG) Sending 8=FIX.4.4|9=57|35=0|49=FIXCLIENT1|56=DMA_HUB|34=50|52=20231108-11:10:18|10=034|
2023-11-08 12:10:31.443 [33] [FixSender] (DEBUG) Receiving 8=FIX.4.4|9=61|35=0|34=56|49=DMA_HUB|56=FIXCLIENT1|52=20231108-11:10:31.442|10=230|
2023-11-08 12:10:48.214 [34] [FixSender] (DEBUG) Sending 8=FIX.4.4|9=57|35=0|49=FIXCLIENT1|56=DMA_HUB|34=51|52=20231108-11:10:48|10=038|
2023-11-08 12:11:01.394 [33] [FixSender] (DEBUG) Receiving 8=FIX.4.4|9=61|35=0|34=57|49=DMA_HUB|56=FIXCLIENT1|52=20231108-11:11:01.393|10=234|
2023-11-08 12:11:18.216 [34] [FixSender] (DEBUG) Sending 8=FIX.4.4|9=57|35=0|49=FIXCLIENT1|56=DMA_HUB|34=52|52=20231108-11:11:18|10=037|
2023-11-08 12:11:31.354 [33] [FixSender] (DEBUG) Receiving 8=FIX.4.4|9=61|35=0|34=58|49=DMA_HUB|56=FIXCLIENT1|52=20231108-11:11:31.346|10=236|
2023-11-08 12:11:48.217 [34] [FixSender] (DEBUG) Sending 8=FIX.4.4|9=57|35=0|49=FIXCLIENT1|56=DMA_HUB|34=53|52=20231108-11:11:48|10=041|
2023-11-08 12:12:01.298 [33] [FixSender] (DEBUG) Receiving 8=FIX.4.4|9=61|35=0|34=59|49=DMA_HUB|56=FIXCLIENT1|52=20231108-11:12:01.297|10=240|
2023-11-08 12:12:18.220 [34] [FixSender] (DEBUG) Sending 8=FIX.4.4|9=57|35=0|49=FIXCLIENT1|56=DMA_HUB|34=54|52=20231108-11:12:18|10=040|
2023-11-08 12:12:31.250 [33] [FixSender] (DEBUG) Receiving 8=FIX.4.4|9=61|35=0|34=60|49=DMA_HUB|56=FIXCLIENT1|52=20231108-11:12:31.250|10=224|
2023-11-08 12:12:48.224 [34] [FixSender] (DEBUG) Sending 8=FIX.4.4|9=57|35=0|49=FIXCLIENT1|56=DMA_HUB|34=55|52=20231108-11:12:48|10=044|
2023-11-08 12:13:01.202 [33] [FixSender] (DEBUG) Receiving 8=FIX.4.4|9=61|35=0|34=61|49=DMA_HUB|56=FIXCLIENT1|52=20231108-11:13:01.201|10=219|
2023-11-08 12:13:18.226 [34] [FixSender] (DEBUG) Sending 8=FIX.4.4|9=57|35=0|49=FIXCLIENT1|56=DMA_HUB|34=56|52=20231108-11:13:18|10=043|
2023-11-08 12:13:31.153 [33] [FixSender] (DEBUG) Receiving 8=FIX.4.4|9=61|35=0|34=62|49=DMA_HUB|56=FIXCLIENT1|52=20231108-11:13:31.153|10=229|
2023-11-08 12:13:48.228 [34] [FixSender] (DEBUG) Sending 8=FIX.4.4|9=57|35=0|49=FIXCLIENT1|56=DMA_HUB|34=57|52=20231108-11:13:48|10=047|
2023-11-08 12:14:01.106 [33] [FixSender] (DEBUG) Receiving 8=FIX.4.4|9=61|35=0|34=63|49=DMA_HUB|56=FIXCLIENT1|52=20231108-11:14:01.106|10=226|
2023-11-08 12:14:18.232 [34] [FixSender] (DEBUG) Sending 8=FIX.4.4|9=57|35=0|49=FIXCLIENT1|56=DMA_HUB|34=58|52=20231108-11:14:18|10=046|
2023-11-08 12:14:31.058 [33] [FixSender] (DEBUG) Receiving 8=FIX.4.4|9=61|35=0|34=64|49=DMA_HUB|56=FIXCLIENT1|52=20231108-11:14:31.058|10=236|
2023-11-08 12:14:48.234 [34] [FixSender] (DEBUG) Sending 8=FIX.4.4|9=57|35=0|49=FIXCLIENT1|56=DMA_HUB|34=59|52=20231108-11:14:48|10=050|
2023-11-08 12:15:01.010 [33] [FixSender] (DEBUG) Receiving 8=FIX.4.4|9=61|35=0|34=65|49=DMA_HUB|56=FIXCLIENT1|52=20231108-11:15:01.010|10=223|
2023-11-08 12:15:18.237 [34] [FixSender] (DEBUG) Sending 8=FIX.4.4|9=57|35=0|49=FIXCLIENT1|56=DMA_HUB|34=60|52=20231108-11:15:18|10=040|
2023-11-08 12:15:30.962 [33] [FixSender] (DEBUG) Receiving 8=FIX.4.4|9=61|35=0|34=66|49=DMA_HUB|56=FIXCLIENT1|52=20231108-11:15:30.962|10=242|
2023-11-08 12:15:48.238 [34] [FixSender] (DEBUG) Sending 8=FIX.4.4|9=57|35=0|49=FIXCLIENT1|56=DMA_HUB|34=61|52=20231108-11:15:48|10=044|
2023-11-08 12:16:00.914 [33] [FixSender] (DEBUG) Receiving 8=FIX.4.4|9=61|35=0|34=67|49=DMA_HUB|56=FIXCLIENT1|52=20231108-11:16:00.914|10=238|
2023-11-08 12:16:18.241 [34] [FixSender] (DEBUG) Sending 8=FIX.4.4|9=57|35=0|49=FIXCLIENT1|56=DMA_HUB|34=62|52=20231108-11:16:18|10=043|
2023-11-08 12:16:30.866 [33] [FixSender] (DEBUG) Receiving 8=FIX.4.4|9=61|35=0|34=68|49=DMA_HUB|56=FIXCLIENT1|52=20231108-11:16:30.866|10=248|
2023-11-08 12:16:48.242 [34] [FixSender] (DEBUG) Sending 8=FIX.4.4|9=57|35=0|49=FIXCLIENT1|56=DMA_HUB|34=63|52=20231108-11:16:48|10=047|
2023-11-08 12:17:00.819 [33] [FixSender] (DEBUG) Receiving 8=FIX.4.4|9=61|35=0|34=69|49=DMA_HUB|56=FIXCLIENT1|52=20231108-11:17:00.819|10=245|
2023-11-08 12:17:18.243 [34] [FixSender] (DEBUG) Sending 8=FIX.4.4|9=57|35=0|49=FIXCLIENT1|56=DMA_HUB|34=64|52=20231108-11:17:18|10=046|
2023-11-08 12:17:30.771 [33] [FixSender] (DEBUG) Receiving 8=FIX.4.4|9=61|35=0|34=70|49=DMA_HUB|56=FIXCLIENT1|52=20231108-11:17:30.770|10=236|
2023-11-08 12:17:48.245 [34] [FixSender] (DEBUG) Sending 8=FIX.4.4|9=57|35=0|49=FIXCLIENT1|56=DMA_HUB|34=65|52=20231108-11:17:48|10=050|
2023-11-08 12:18:00.722 [33] [FixSender] (DEBUG) Receiving 8=FIX.4.4|9=61|35=0|34=71|49=DMA_HUB|56=FIXCLIENT1|52=20231108-11:18:00.722|10=232|
2023-11-08 12:18:18.246 [34] [FixSender] (DEBUG) Sending 8=FIX.4.4|9=57|35=0|49=FIXCLIENT1|56=DMA_HUB|34=66|52=20231108-11:18:18|10=049|
2023-11-08 12:18:30.674 [33] [FixSender] (DEBUG) Receiving 8=FIX.4.4|9=61|35=0|34=72|49=DMA_HUB|56=FIXCLIENT1|52=20231108-11:18:30.674|10=242|
2023-11-08 12:18:48.250 [34] [FixSender] (DEBUG) Sending 8=FIX.4.4|9=57|35=0|49=FIXCLIENT1|56=DMA_HUB|34=67|52=20231108-11:18:48|10=053|
2023-11-08 12:19:00.626 [33] [FixSender] (DEBUG) Receiving 8=FIX.4.4|9=61|35=0|34=73|49=DMA_HUB|56=FIXCLIENT1|52=20231108-11:19:00.625|10=237|
2023-11-08 12:19:18.251 [34] [FixSender] (DEBUG) Sending 8=FIX.4.4|9=57|35=0|49=FIXCLIENT1|56=DMA_HUB|34=68|52=20231108-11:19:18|10=052|
2023-11-08 12:19:30.578 [33] [FixSender] (DEBUG) Receiving 8=FIX.4.4|9=61|35=0|34=74|49=DMA_HUB|56=FIXCLIENT1|52=20231108-11:19:30.578|10=248|
2023-11-08 12:19:48.253 [34] [FixSender] (DEBUG) Sending 8=FIX.4.4|9=57|35=0|49=FIXCLIENT1|56=DMA_HUB|34=69|52=20231108-11:19:48|10=056|
2023-11-08 12:20:00.530 [33] [FixSender] (DEBUG) Receiving 8=FIX.4.4|9=61|35=0|34=75|49=DMA_HUB|56=FIXCLIENT1|52=20231108-11:20:00.530|10=226|
2023-11-08 12:20:18.255 [34] [FixSender] (DEBUG) Sending 8=FIX.4.4|9=57|35=0|49=FIXCLIENT1|56=DMA_HUB|34=70|52=20231108-11:20:18|10=037|
2023-11-08 12:20:30.482 [33] [FixSender] (DEBUG) Receiving 8=FIX.4.4|9=61|35=0|34=76|49=DMA_HUB|56=FIXCLIENT1|52=20231108-11:20:30.482|10=236|
2023-11-08 12:20:48.258 [34] [FixSender] (DEBUG) Sending 8=FIX.4.4|9=57|35=0|49=FIXCLIENT1|56=DMA_HUB|34=71|52=20231108-11:20:48|10=041|
2023-11-08 12:21:00.434 [33] [FixSender] (DEBUG) Receiving 8=FIX.4.4|9=61|35=0|34=77|49=DMA_HUB|56=FIXCLIENT1|52=20231108-11:21:00.433|10=231|
2023-11-08 12:21:18.260 [34] [FixSender] (DEBUG) Sending 8=FIX.4.4|9=57|35=0|49=FIXCLIENT1|56=DMA_HUB|34=72|52=20231108-11:21:18|10=040|
2023-11-08 12:21:30.386 [33] [FixSender] (DEBUG) Receiving 8=FIX.4.4|9=61|35=0|34=78|49=DMA_HUB|56=FIXCLIENT1|52=20231108-11:21:30.386|10=242|
2023-11-08 12:21:48.260 [34] [FixSender] (DEBUG) Sending 8=FIX.4.4|9=57|35=0|49=FIXCLIENT1|56=DMA_HUB|34=73|52=20231108-11:21:48|10=044|
2023-11-08 12:22:00.338 [33] [FixSender] (DEBUG) Receiving 8=FIX.4.4|9=61|35=0|34=79|49=DMA_HUB|56=FIXCLIENT1|52=20231108-11:22:00.338|10=238|
2023-11-08 12:22:18.263 [34] [FixSender] (DEBUG) Sending 8=FIX.4.4|9=57|35=0|49=FIXCLIENT1|56=DMA_HUB|34=74|52=20231108-11:22:18|10=043|
2023-11-08 12:22:30.290 [33] [FixSender] (DEBUG) Receiving 8=FIX.4.4|9=61|35=0|34=80|49=DMA_HUB|56=FIXCLIENT1|52=20231108-11:22:30.290|10=230|
2023-11-08 12:22:48.264 [34] [FixSender] (DEBUG) Sending 8=FIX.4.4|9=57|35=0|49=FIXCLIENT1|56=DMA_HUB|34=75|52=20231108-11:22:48|10=047|
2023-11-08 12:23:00.242 [33] [FixSender] (DEBUG) Receiving 8=FIX.4.4|9=61|35=0|34=81|49=DMA_HUB|56=FIXCLIENT1|52=20231108-11:23:00.242|10=226|
2023-11-08 12:23:18.266 [34] [FixSender] (DEBUG) Sending 8=FIX.4.4|9=57|35=0|49=FIXCLIENT1|56=DMA_HUB|34=76|52=20231108-11:23:18|10=046|
2023-11-08 12:23:30.194 [33] [FixSender] (DEBUG) Receiving 8=FIX.4.4|9=61|35=0|34=82|49=DMA_HUB|56=FIXCLIENT1|52=20231108-11:23:30.194|10=236|
2023-11-08 12:23:48.267 [34] [FixSender] (DEBUG) Sending 8=FIX.4.4|9=57|35=0|49=FIXCLIENT1|56=DMA_HUB|34=77|52=20231108-11:23:48|10=050|
2023-11-08 12:24:00.145 [33] [FixSender] (DEBUG) Receiving 8=FIX.4.4|9=61|35=0|34=83|49=DMA_HUB|56=FIXCLIENT1|52=20231108-11:24:00.145|10=231|
2023-11-08 12:24:18.268 [34] [FixSender] (DEBUG) Sending 8=FIX.4.4|9=57|35=0|49=FIXCLIENT1|56=DMA_HUB|34=78|52=20231108-11:24:18|10=049|
2023-11-08 12:24:30.097 [33] [FixSender] (DEBUG) Receiving 8=FIX.4.4|9=61|35=0|34=84|49=DMA_HUB|56=FIXCLIENT1|52=20231108-11:24:30.097|10=241|
2023-11-08 12:24:48.277 [34] [FixSender] (DEBUG) Sending 8=FIX.4.4|9=57|35=0|49=FIXCLIENT1|56=DMA_HUB|34=79|52=20231108-11:24:48|10=053|
2023-11-08 12:25:00.050 [33] [FixSender] (DEBUG) Receiving 8=FIX.4.4|9=61|35=0|34=85|49=DMA_HUB|56=FIXCLIENT1|52=20231108-11:25:00.050|10=229|
2023-11-08 12:25:18.279 [34] [FixSender] (DEBUG) Sending 8=FIX.4.4|9=57|35=0|49=FIXCLIENT1|56=DMA_HUB|34=80|52=20231108-11:25:18|10=043|
2023-11-08 12:25:30.001 [33] [FixSender] (DEBUG) Receiving 8=FIX.4.4|9=61|35=0|34=86|49=DMA_HUB|56=FIXCLIENT1|52=20231108-11:25:30.001|10=229|
2023-11-08 12:25:48.282 [34] [FixSender] (DEBUG) Sending 8=FIX.4.4|9=57|35=0|49=FIXCLIENT1|56=DMA_HUB|34=81|52=20231108-11:25:48|10=047|
2023-11-08 12:25:59.954 [33] [FixSender] (DEBUG) Receiving 8=FIX.4.4|9=61|35=0|34=87|49=DMA_HUB|56=FIXCLIENT1|52=20231108-11:25:59.954|10=002|
2023-11-08 12:26:18.290 [34] [FixSender] (DEBUG) Sending 8=FIX.4.4|9=57|35=0|49=FIXCLIENT1|56=DMA_HUB|34=82|52=20231108-11:26:18|10=046|
2023-11-08 12:26:29.906 [33] [FixSender] (DEBUG) Receiving 8=FIX.4.4|9=61|35=0|34=88|49=DMA_HUB|56=FIXCLIENT1|52=20231108-11:26:29.906|10=254|
2023-11-08 12:26:48.292 [34] [FixSender] (DEBUG) Sending 8=FIX.4.4|9=57|35=0|49=FIXCLIENT1|56=DMA_HUB|34=83|52=20231108-11:26:48|10=050|
2023-11-08 12:26:59.858 [33] [FixSender] (DEBUG) Receiving 8=FIX.4.4|9=61|35=0|34=89|49=DMA_HUB|56=FIXCLIENT1|52=20231108-11:26:59.858|10=008|
2023-11-08 12:27:18.294 [34] [FixSender] (DEBUG) Sending 8=FIX.4.4|9=57|35=0|49=FIXCLIENT1|56=DMA_HUB|34=84|52=20231108-11:27:18|10=049|
2023-11-08 12:27:29.810 [33] [FixSender] (DEBUG) Receiving 8=FIX.4.4|9=61|35=0|34=90|49=DMA_HUB|56=FIXCLIENT1|52=20231108-11:27:29.809|10=250|
2023-11-08 12:27:48.295 [34] [FixSender] (DEBUG) Sending 8=FIX.4.4|9=57|35=0|49=FIXCLIENT1|56=DMA_HUB|34=85|52=20231108-11:27:48|10=053|
2023-11-08 12:27:59.761 [33] [FixSender] (DEBUG) Receiving 8=FIX.4.4|9=61|35=0|34=91|49=DMA_HUB|56=FIXCLIENT1|52=20231108-11:27:59.761|10=251|
2023-11-08 12:28:18.296 [34] [FixSender] (DEBUG) Sending 8=FIX.4.4|9=57|35=0|49=FIXCLIENT1|56=DMA_HUB|34=86|52=20231108-11:28:18|10=052|
2023-11-08 12:28:29.714 [33] [FixSender] (DEBUG) Receiving 8=FIX.4.4|9=61|35=0|34=92|49=DMA_HUB|56=FIXCLIENT1|52=20231108-11:28:29.713|10=247|
2023-11-08 12:28:48.298 [34] [FixSender] (DEBUG) Sending 8=FIX.4.4|9=57|35=0|49=FIXCLIENT1|56=DMA_HUB|34=87|52=20231108-11:28:48|10=056|
2023-11-08 12:28:59.667 [33] [FixSender] (DEBUG) Receiving 8=FIX.4.4|9=61|35=0|34=93|49=DMA_HUB|56=FIXCLIENT1|52=20231108-11:28:59.666|10=002|
2023-11-08 12:29:18.301 [34] [FixSender] (DEBUG) Sending 8=FIX.4.4|9=57|35=0|49=FIXCLIENT1|56=DMA_HUB|34=88|52=20231108-11:29:18|10=055|
2023-11-08 12:29:29.617 [33] [FixSender] (DEBUG) Receiving 8=FIX.4.4|9=61|35=0|34=94|49=DMA_HUB|56=FIXCLIENT1|52=20231108-11:29:29.617|10=253|
2023-11-08 12:29:48.302 [34] [FixSender] (DEBUG) Sending 8=FIX.4.4|9=57|35=0|49=FIXCLIENT1|56=DMA_HUB|34=89|52=20231108-11:29:48|10=059|
2023-11-08 12:29:59.570 [33] [FixSender] (DEBUG) Receiving 8=FIX.4.4|9=61|35=0|34=95|49=DMA_HUB|56=FIXCLIENT1|52=20231108-11:29:59.569|10=007|
2023-11-08 12:30:18.305 [34] [FixSender] (DEBUG) Sending 8=FIX.4.4|9=57|35=0|49=FIXCLIENT1|56=DMA_HUB|34=90|52=20231108-11:30:18|10=040|
2023-11-08 12:30:29.522 [33] [FixSender] (DEBUG) Receiving 8=FIX.4.4|9=61|35=0|34=96|49=DMA_HUB|56=FIXCLIENT1|52=20231108-11:30:29.522|10=242|
2023-11-08 12:30:48.306 [34] [FixSender] (DEBUG) Sending 8=FIX.4.4|9=57|35=0|49=FIXCLIENT1|56=DMA_HUB|34=91|52=20231108-11:30:48|10=044|
2023-11-08 12:30:59.473 [33] [FixSender] (DEBUG) Receiving 8=FIX.4.4|9=61|35=0|34=97|49=DMA_HUB|56=FIXCLIENT1|52=20231108-11:30:59.473|10=251|
2023-11-08 12:31:18.306 [34] [FixSender] (DEBUG) Sending 8=FIX.4.4|9=57|35=0|49=FIXCLIENT1|56=DMA_HUB|34=92|52=20231108-11:31:18|10=043|
2023-11-08 12:31:29.426 [33] [FixSender] (DEBUG) Receiving 8=FIX.4.4|9=61|35=0|34=98|49=DMA_HUB|56=FIXCLIENT1|52=20231108-11:31:29.426|10=248|
2023-11-08 12:31:48.307 [34] [FixSender] (DEBUG) Sending 8=FIX.4.4|9=57|35=0|49=FIXCLIENT1|56=DMA_HUB|34=93|52=20231108-11:31:48|10=047|
2023-11-08 12:31:59.378 [33] [FixSender] (DEBUG) Receiving 8=FIX.4.4|9=61|35=0|34=99|49=DMA_HUB|56=FIXCLIENT1|52=20231108-11:31:59.378|10=002|
2023-11-08 12:32:18.310 [34] [FixSender] (DEBUG) Sending 8=FIX.4.4|9=57|35=0|49=FIXCLIENT1|56=DMA_HUB|34=94|52=20231108-11:32:18|10=046|
2023-11-08 12:32:29.329 [33] [FixSender] (DEBUG) Receiving 8=FIX.4.4|9=62|35=0|34=100|49=DMA_HUB|56=FIXCLIENT1|52=20231108-11:32:29.329|10=028|
2023-11-08 12:32:48.311 [34] [FixSender] (DEBUG) Sending 8=FIX.4.4|9=57|35=0|49=FIXCLIENT1|56=DMA_HUB|34=95|52=20231108-11:32:48|10=050|
2023-11-08 12:32:59.282 [33] [FixSender] (DEBUG) Receiving 8=FIX.4.4|9=62|35=0|34=101|49=DMA_HUB|56=FIXCLIENT1|52=20231108-11:32:59.282|10=030|
2023-11-08 12:33:18.317 [34] [FixSender] (DEBUG) Sending 8=FIX.4.4|9=57|35=0|49=FIXCLIENT1|56=DMA_HUB|34=96|52=20231108-11:33:18|10=049|
2023-11-08 12:33:29.234 [33] [FixSender] (DEBUG) Receiving 8=FIX.4.4|9=62|35=0|34=102|49=DMA_HUB|56=FIXCLIENT1|52=20231108-11:33:29.234|10=026|
2023-11-08 12:33:48.321 [34] [FixSender] (DEBUG) Sending 8=FIX.4.4|9=57|35=0|49=FIXCLIENT1|56=DMA_HUB|34=97|52=20231108-11:33:48|10=053|
2023-11-08 12:33:59.187 [33] [FixSender] (DEBUG) Receiving 8=FIX.4.4|9=62|35=0|34=103|49=DMA_HUB|56=FIXCLIENT1|52=20231108-11:33:59.186|10=036|
2023-11-08 12:34:18.324 [34] [FixSender] (DEBUG) Sending 8=FIX.4.4|9=57|35=0|49=FIXCLIENT1|56=DMA_HUB|34=98|52=20231108-11:34:18|10=052|
2023-11-08 12:34:29.138 [33] [FixSender] (DEBUG) Receiving 8=FIX.4.4|9=62|35=0|34=104|49=DMA_HUB|56=FIXCLIENT1|52=20231108-11:34:29.138|10=032|
2023-11-08 12:34:48.326 [34] [FixSender] (DEBUG) Sending 8=FIX.4.4|9=57|35=0|49=FIXCLIENT1|56=DMA_HUB|34=99|52=20231108-11:34:48|10=056|
2023-11-08 12:34:59.090 [33] [FixSender] (DEBUG) Receiving 8=FIX.4.4|9=62|35=0|34=105|49=DMA_HUB|56=FIXCLIENT1|52=20231108-11:34:59.090|10=033|
2023-11-08 12:35:18.329 [34] [FixSender] (DEBUG) Sending 8=FIX.4.4|9=58|35=0|49=FIXCLIENT1|56=DMA_HUB|34=100|52=20231108-11:35:18|10=086|
2023-11-08 12:35:29.042 [33] [FixSender] (DEBUG) Receiving 8=FIX.4.4|9=62|35=0|34=106|49=DMA_HUB|56=FIXCLIENT1|52=20231108-11:35:29.042|10=029|
2023-11-08 12:35:48.334 [34] [FixSender] (DEBUG) Sending 8=FIX.4.4|9=58|35=0|49=FIXCLIENT1|56=DMA_HUB|34=101|52=20231108-11:35:48|10=090|
2023-11-08 12:35:58.994 [33] [FixSender] (DEBUG) Receiving 8=FIX.4.4|9=62|35=0|34=107|49=DMA_HUB|56=FIXCLIENT1|52=20231108-11:35:58.994|10=048|
2023-11-08 12:36:18.336 [34] [FixSender] (DEBUG) Sending 8=FIX.4.4|9=58|35=0|49=FIXCLIENT1|56=DMA_HUB|34=102|52=20231108-11:36:18|10=089|
2023-11-08 12:36:28.945 [33] [FixSender] (DEBUG) Receiving 8=FIX.4.4|9=62|35=0|34=108|49=DMA_HUB|56=FIXCLIENT1|52=20231108-11:36:28.945|10=043|
2023-11-08 12:36:48.342 [34] [FixSender] (DEBUG) Sending 8=FIX.4.4|9=58|35=0|49=FIXCLIENT1|56=DMA_HUB|34=103|52=20231108-11:36:48|10=093|
2023-11-08 12:36:58.897 [33] [FixSender] (DEBUG) Receiving 8=FIX.4.4|9=62|35=0|34=109|49=DMA_HUB|56=FIXCLIENT1|52=20231108-11:36:58.897|10=053|
2023-11-08 12:37:18.343 [34] [FixSender] (DEBUG) Sending 8=FIX.4.4|9=58|35=0|49=FIXCLIENT1|56=DMA_HUB|34=104|52=20231108-11:37:18|10=092|
2023-11-08 12:37:28.851 [33] [FixSender] (DEBUG) Receiving 8=FIX.4.4|9=62|35=0|34=110|49=DMA_HUB|56=FIXCLIENT1|52=20231108-11:37:28.851|10=033|
2023-11-08 12:37:48.357 [34] [FixSender] (DEBUG) Sending 8=FIX.4.4|9=58|35=0|49=FIXCLIENT1|56=DMA_HUB|34=105|52=20231108-11:37:48|10=096|
2023-11-08 12:37:58.802 [33] [FixSender] (DEBUG) Receiving 8=FIX.4.4|9=62|35=0|34=111|49=DMA_HUB|56=FIXCLIENT1|52=20231108-11:37:58.802|10=033|
2023-11-08 12:38:18.360 [34] [FixSender] (DEBUG) Sending 8=FIX.4.4|9=58|35=0|49=FIXCLIENT1|56=DMA_HUB|34=106|52=20231108-11:38:18|10=095|
2023-11-08 12:38:28.754 [33] [FixSender] (DEBUG) Receiving 8=FIX.4.4|9=62|35=0|34=112|49=DMA_HUB|56=FIXCLIENT1|52=20231108-11:38:28.754|10=038|
2023-11-08 12:38:48.363 [34] [FixSender] (DEBUG) Sending 8=FIX.4.4|9=58|35=0|49=FIXCLIENT1|56=DMA_HUB|34=107|52=20231108-11:38:48|10=099|
2023-11-08 12:38:58.707 [33] [FixSender] (DEBUG) Receiving 8=FIX.4.4|9=62|35=0|34=113|49=DMA_HUB|56=FIXCLIENT1|52=20231108-11:38:58.706|10=039|
2023-11-08 12:39:18.367 [34] [FixSender] (DEBUG) Sending 8=FIX.4.4|9=58|35=0|49=FIXCLIENT1|56=DMA_HUB|34=108|52=20231108-11:39:18|10=098|
2023-11-08 12:39:28.659 [33] [FixSender] (DEBUG) Receiving 8=FIX.4.4|9=62|35=0|34=114|49=DMA_HUB|56=FIXCLIENT1|52=20231108-11:39:28.658|10=044|
2023-11-08 12:39:48.370 [34] [FixSender] (DEBUG) Sending 8=FIX.4.4|9=58|35=0|49=FIXCLIENT1|56=DMA_HUB|34=109|52=20231108-11:39:48|10=102|
2023-11-08 12:39:58.610 [33] [FixSender] (DEBUG) Receiving 8=FIX.4.4|9=62|35=0|34=115|49=DMA_HUB|56=FIXCLIENT1|52=20231108-11:39:58.610|10=036|
2023-11-08 12:40:18.385 [34] [FixSender] (DEBUG) Sending 8=FIX.4.4|9=58|35=0|49=FIXCLIENT1|56=DMA_HUB|34=110|52=20231108-11:40:18|10=083|
2023-11-08 12:40:28.564 [33] [FixSender] (DEBUG) Receiving 8=FIX.4.4|9=62|35=0|34=116|49=DMA_HUB|56=FIXCLIENT1|52=20231108-11:40:28.562|10=032|
2023-11-08 12:40:48.387 [34] [FixSender] (DEBUG) Sending 8=FIX.4.4|9=58|35=0|49=FIXCLIENT1|56=DMA_HUB|34=111|52=20231108-11:40:48|10=087|
2023-11-08 12:40:58.514 [33] [FixSender] (DEBUG) Receiving 8=FIX.4.4|9=62|35=0|34=117|49=DMA_HUB|56=FIXCLIENT1|52=20231108-11:40:58.514|10=033|
2023-11-08 12:41:18.391 [34] [FixSender] (DEBUG) Sending 8=FIX.4.4|9=58|35=0|49=FIXCLIENT1|56=DMA_HUB|34=112|52=20231108-11:41:18|10=086|
2023-11-08 12:41:28.466 [33] [FixSender] (DEBUG) Receiving 8=FIX.4.4|9=62|35=0|34=118|49=DMA_HUB|56=FIXCLIENT1|52=20231108-11:41:28.466|10=038|
2023-11-08 12:41:48.394 [34] [FixSender] (DEBUG) Sending 8=FIX.4.4|9=58|35=0|49=FIXCLIENT1|56=DMA_HUB|34=113|52=20231108-11:41:48|10=090|
2023-11-08 12:41:58.418 [33] [FixSender] (DEBUG) Receiving 8=FIX.4.4|9=62|35=0|34=119|49=DMA_HUB|56=FIXCLIENT1|52=20231108-11:41:58.418|10=039|
2023-11-08 12:42:18.398 [34] [FixSender] (DEBUG) Sending 8=FIX.4.4|9=58|35=0|49=FIXCLIENT1|56=DMA_HUB|34=114|52=20231108-11:42:18|10=089|
2023-11-08 12:42:28.369 [33] [FixSender] (DEBUG) Receiving 8=FIX.4.4|9=62|35=0|34=120|49=DMA_HUB|56=FIXCLIENT1|52=20231108-11:42:28.369|10=034|
2023-11-08 12:42:48.399 [34] [FixSender] (DEBUG) Sending 8=FIX.4.4|9=58|35=0|49=FIXCLIENT1|56=DMA_HUB|34=115|52=20231108-11:42:48|10=093|
2023-11-08 12:42:58.322 [33] [FixSender] (DEBUG) Receiving 8=FIX.4.4|9=62|35=0|34=121|49=DMA_HUB|56=FIXCLIENT1|52=20231108-11:42:58.322|10=027|
2023-11-08 12:43:18.400 [34] [FixSender] (DEBUG) Sending 8=FIX.4.4|9=58|35=0|49=FIXCLIENT1|56=DMA_HUB|34=116|52=20231108-11:43:18|10=092|
2023-11-08 12:43:28.274 [33] [FixSender] (DEBUG) Receiving 8=FIX.4.4|9=62|35=0|34=122|49=DMA_HUB|56=FIXCLIENT1|52=20231108-11:43:28.274|10=032|
2023-11-08 12:43:48.401 [34] [FixSender] (DEBUG) Sending 8=FIX.4.4|9=58|35=0|49=FIXCLIENT1|56=DMA_HUB|34=117|52=20231108-11:43:48|10=096|
2023-11-08 12:43:58.226 [33] [FixSender] (DEBUG) Receiving 8=FIX.4.4|9=62|35=0|34=123|49=DMA_HUB|56=FIXCLIENT1|52=20231108-11:43:58.226|10=033|
2023-11-08 12:44:18.403 [34] [FixSender] (DEBUG) Sending 8=FIX.4.4|9=58|35=0|49=FIXCLIENT1|56=DMA_HUB|34=118|52=20231108-11:44:18|10=095|
2023-11-08 12:44:28.178 [33] [FixSender] (DEBUG) Receiving 8=FIX.4.4|9=62|35=0|34=124|49=DMA_HUB|56=FIXCLIENT1|52=20231108-11:44:28.178|10=038|
2023-11-08 12:44:48.405 [34] [FixSender] (DEBUG) Sending 8=FIX.4.4|9=58|35=0|49=FIXCLIENT1|56=DMA_HUB|34=119|52=20231108-11:44:48|10=099|
2023-11-08 12:44:58.129 [33] [FixSender] (DEBUG) Receiving 8=FIX.4.4|9=62|35=0|34=125|49=DMA_HUB|56=FIXCLIENT1|52=20231108-11:44:58.129|10=038|
2023-11-08 12:45:18.406 [34] [FixSender] (DEBUG) Sending 8=FIX.4.4|9=58|35=0|49=FIXCLIENT1|56=DMA_HUB|34=120|52=20231108-11:45:18|10=089|
2023-11-08 12:45:28.081 [33] [FixSender] (DEBUG) Receiving 8=FIX.4.4|9=62|35=0|34=126|49=DMA_HUB|56=FIXCLIENT1|52=20231108-11:45:28.081|10=034|
2023-11-08 12:45:48.408 [34] [FixSender] (DEBUG) Sending 8=FIX.4.4|9=58|35=0|49=FIXCLIENT1|56=DMA_HUB|34=121|52=20231108-11:45:48|10=093|
2023-11-08 12:45:58.034 [33] [FixSender] (DEBUG) Receiving 8=FIX.4.4|9=62|35=0|34=127|49=DMA_HUB|56=FIXCLIENT1|52=20231108-11:45:58.034|10=036|
2023-11-08 12:46:18.409 [34] [FixSender] (DEBUG) Sending 8=FIX.4.4|9=58|35=0|49=FIXCLIENT1|56=DMA_HUB|34=122|52=20231108-11:46:18|10=092|
2023-11-08 12:46:27.987 [33] [FixSender] (DEBUG) Receiving 8=FIX.4.4|9=62|35=0|34=128|49=DMA_HUB|56=FIXCLIENT1|52=20231108-11:46:27.986|10=050|
2023-11-08 12:46:48.413 [34] [FixSender] (DEBUG) Sending 8=FIX.4.4|9=58|35=0|49=FIXCLIENT1|56=DMA_HUB|34=123|52=20231108-11:46:48|10=096|
2023-11-08 12:46:57.938 [33] [FixSender] (DEBUG) Receiving 8=FIX.4.4|9=62|35=0|34=129|49=DMA_HUB|56=FIXCLIENT1|52=20231108-11:46:57.938|10=051|
2023-11-08 12:47:18.414 [34] [FixSender] (DEBUG) Sending 8=FIX.4.4|9=58|35=0|49=FIXCLIENT1|56=DMA_HUB|34=124|52=20231108-11:47:18|10=095|
2023-11-08 12:47:27.890 [33] [FixSender] (DEBUG) Receiving 8=FIX.4.4|9=62|35=0|34=130|49=DMA_HUB|56=FIXCLIENT1|52=20231108-11:47:27.890|10=038|
2023-11-08 12:47:48.425 [34] [FixSender] (DEBUG) Sending 8=FIX.4.4|9=58|35=0|49=FIXCLIENT1|56=DMA_HUB|34=125|52=20231108-11:47:48|10=099|
2023-11-08 12:47:57.842 [33] [FixSender] (DEBUG) Receiving 8=FIX.4.4|9=62|35=0|34=131|49=DMA_HUB|56=FIXCLIENT1|52=20231108-11:47:57.842|10=039|
2023-11-08 12:48:18.429 [34] [FixSender] (DEBUG) Sending 8=FIX.4.4|9=58|35=0|49=FIXCLIENT1|56=DMA_HUB|34=126|52=20231108-11:48:18|10=098|
2023-11-08 12:48:27.793 [33] [FixSender] (DEBUG) Receiving 8=FIX.4.4|9=62|35=0|34=132|49=DMA_HUB|56=FIXCLIENT1|52=20231108-11:48:27.793|10=043|
2023-11-08 12:48:48.432 [34] [FixSender] (DEBUG) Sending 8=FIX.4.4|9=58|35=0|49=FIXCLIENT1|56=DMA_HUB|34=127|52=20231108-11:48:48|10=102|
2023-11-08 12:48:57.745 [33] [FixSender] (DEBUG) Receiving 8=FIX.4.4|9=62|35=0|34=133|49=DMA_HUB|56=FIXCLIENT1|52=20231108-11:48:57.745|10=044|
2023-11-08 12:49:18.445 [34] [FixSender] (DEBUG) Sending 8=FIX.4.4|9=58|35=0|49=FIXCLIENT1|56=DMA_HUB|34=128|52=20231108-11:49:18|10=101|
2023-11-08 12:49:27.698 [33] [FixSender] (DEBUG) Receiving 8=FIX.4.4|9=62|35=0|34=134|49=DMA_HUB|56=FIXCLIENT1|52=20231108-11:49:27.698|10=050|
2023-11-08 12:49:48.447 [34] [FixSender] (DEBUG) Sending 8=FIX.4.4|9=58|35=0|49=FIXCLIENT1|56=DMA_HUB|34=129|52=20231108-11:49:48|10=105|
2023-11-08 12:49:57.649 [33] [FixSender] (DEBUG) Receiving 8=FIX.4.4|9=62|35=0|34=135|49=DMA_HUB|56=FIXCLIENT1|52=20231108-11:49:57.649|10=050|
2023-11-08 12:50:18.449 [34] [FixSender] (DEBUG) Sending 8=FIX.4.4|9=58|35=0|49=FIXCLIENT1|56=DMA_HUB|34=130|52=20231108-11:50:18|10=086|
2023-11-08 12:50:27.601 [33] [FixSender] (DEBUG) Receiving 8=FIX.4.4|9=62|35=0|34=136|49=DMA_HUB|56=FIXCLIENT1|52=20231108-11:50:27.601|10=028|
2023-11-08 12:50:48.450 [34] [FixSender] (DEBUG) Sending 8=FIX.4.4|9=58|35=0|49=FIXCLIENT1|56=DMA_HUB|34=131|52=20231108-11:50:48|10=090|
2023-11-08 12:50:57.554 [33] [FixSender] (DEBUG) Receiving 8=FIX.4.4|9=62|35=0|34=137|49=DMA_HUB|56=FIXCLIENT1|52=20231108-11:50:57.554|10=039|
2023-11-08 12:51:18.451 [34] [FixSender] (DEBUG) Sending 8=FIX.4.4|9=58|35=0|49=FIXCLIENT1|56=DMA_HUB|34=132|52=20231108-11:51:18|10=089|
2023-11-08 12:51:27.505 [33] [FixSender] (DEBUG) Receiving 8=FIX.4.4|9=62|35=0|34=138|49=DMA_HUB|56=FIXCLIENT1|52=20231108-11:51:27.505|10=034|
2023-11-08 12:51:48.452 [34] [FixSender] (DEBUG) Sending 8=FIX.4.4|9=58|35=0|49=FIXCLIENT1|56=DMA_HUB|34=133|52=20231108-11:51:48|10=093|
2023-11-08 12:51:57.459 [33] [FixSender] (DEBUG) Receiving 8=FIX.4.4|9=62|35=0|34=139|49=DMA_HUB|56=FIXCLIENT1|52=20231108-11:51:57.458|10=045|
2023-11-08 12:52:18.455 [34] [FixSender] (DEBUG) Sending 8=FIX.4.4|9=58|35=0|49=FIXCLIENT1|56=DMA_HUB|34=134|52=20231108-11:52:18|10=092|
2023-11-08 12:52:27.411 [33] [FixSender] (DEBUG) Receiving 8=FIX.4.4|9=62|35=0|34=140|49=DMA_HUB|56=FIXCLIENT1|52=20231108-11:52:27.411|10=024|
2023-11-08 12:52:48.457 [34] [FixSender] (DEBUG) Sending 8=FIX.4.4|9=58|35=0|49=FIXCLIENT1|56=DMA_HUB|34=135|52=20231108-11:52:48|10=096|
2023-11-08 12:52:57.362 [33] [FixSender] (DEBUG) Receiving 8=FIX.4.4|9=62|35=0|34=141|49=DMA_HUB|56=FIXCLIENT1|52=20231108-11:52:57.362|10=033|
2023-11-08 12:53:18.458 [34] [FixSender] (DEBUG) Sending 8=FIX.4.4|9=58|35=0|49=FIXCLIENT1|56=DMA_HUB|34=136|52=20231108-11:53:18|10=095|
2023-11-08 12:53:27.314 [33] [FixSender] (DEBUG) Receiving 8=FIX.4.4|9=62|35=0|34=142|49=DMA_HUB|56=FIXCLIENT1|52=20231108-11:53:27.314|10=029|
2023-11-08 12:53:48.471 [34] [FixSender] (DEBUG) Sending 8=FIX.4.4|9=58|35=0|49=FIXCLIENT1|56=DMA_HUB|34=137|52=20231108-11:53:48|10=099|
2023-11-08 12:53:57.266 [33] [FixSender] (DEBUG) Receiving 8=FIX.4.4|9=62|35=0|34=143|49=DMA_HUB|56=FIXCLIENT1|52=20231108-11:53:57.266|10=039|
2023-11-08 12:54:18.472 [34] [FixSender] (DEBUG) Sending 8=FIX.4.4|9=58|35=0|49=FIXCLIENT1|56=DMA_HUB|34=138|52=20231108-11:54:18|10=098|
2023-11-08 12:54:27.219 [33] [FixSender] (DEBUG) Receiving 8=FIX.4.4|9=62|35=0|34=144|49=DMA_HUB|56=FIXCLIENT1|52=20231108-11:54:27.218|10=035|
2023-11-08 12:54:48.474 [34] [FixSender] (DEBUG) Sending 8=FIX.4.4|9=58|35=0|49=FIXCLIENT1|56=DMA_HUB|34=139|52=20231108-11:54:48|10=102|
2023-11-08 12:54:57.169 [33] [FixSender] (DEBUG) Receiving 8=FIX.4.4|9=62|35=0|34=145|49=DMA_HUB|56=FIXCLIENT1|52=20231108-11:54:57.169|10=044|
2023-11-08 12:55:18.476 [34] [FixSender] (DEBUG) Sending 8=FIX.4.4|9=58|35=0|49=FIXCLIENT1|56=DMA_HUB|34=140|52=20231108-11:55:18|10=092|
2023-11-08 12:55:27.122 [33] [FixSender] (DEBUG) Receiving 8=FIX.4.4|9=62|35=0|34=146|49=DMA_HUB|56=FIXCLIENT1|52=20231108-11:55:27.122|10=032|
2023-11-08 12:55:48.477 [34] [FixSender] (DEBUG) Sending 8=FIX.4.4|9=58|35=0|49=FIXCLIENT1|56=DMA_HUB|34=141|52=20231108-11:55:48|10=096|
2023-11-08 12:55:57.073 [33] [FixSender] (DEBUG) Receiving 8=FIX.4.4|9=62|35=0|34=147|49=DMA_HUB|56=FIXCLIENT1|52=20231108-11:55:57.073|10=041|
2023-11-08 12:56:18.479 [34] [FixSender] (DEBUG) Sending 8=FIX.4.4|9=58|35=0|49=FIXCLIENT1|56=DMA_HUB|34=142|52=20231108-11:56:18|10=095|
2023-11-08 12:56:27.025 [33] [FixSender] (DEBUG) Receiving 8=FIX.4.4|9=62|35=0|34=148|49=DMA_HUB|56=FIXCLIENT1|52=20231108-11:56:27.025|10=037|
2023-11-08 12:56:48.480 [34] [FixSender] (DEBUG) Sending 8=FIX.4.4|9=58|35=0|49=FIXCLIENT1|56=DMA_HUB|34=143|52=20231108-11:56:48|10=099|
2023-11-08 12:56:56.979 [33] [FixSender] (DEBUG) Receiving 8=FIX.4.4|9=62|35=0|34=149|49=DMA_HUB|56=FIXCLIENT1|52=20231108-11:56:56.978|10=057|
2023-11-08 12:57:18.481 [34] [FixSender] (DEBUG) Sending 8=FIX.4.4|9=58|35=0|49=FIXCLIENT1|56=DMA_HUB|34=144|52=20231108-11:57:18|10=098|
2023-11-08 12:57:26.930 [33] [FixSender] (DEBUG) Receiving 8=FIX.4.4|9=62|35=0|34=150|49=DMA_HUB|56=FIXCLIENT1|52=20231108-11:57:26.930|10=035|
2023-11-08 12:57:48.483 [34] [FixSender] (DEBUG) Sending 8=FIX.4.4|9=58|35=0|49=FIXCLIENT1|56=DMA_HUB|34=145|52=20231108-11:57:48|10=102|
2023-11-08 12:57:56.881 [33] [FixSender] (DEBUG) Receiving 8=FIX.4.4|9=62|35=0|34=151|49=DMA_HUB|56=FIXCLIENT1|52=20231108-11:57:56.881|10=044|
2023-11-08 12:58:18.495 [34] [FixSender] (DEBUG) Sending 8=FIX.4.4|9=58|35=0|49=FIXCLIENT1|56=DMA_HUB|34=146|52=20231108-11:58:18|10=101|
2023-11-08 12:58:26.834 [33] [FixSender] (DEBUG) Receiving 8=FIX.4.4|9=62|35=0|34=152|49=DMA_HUB|56=FIXCLIENT1|52=20231108-11:58:26.834|10=041|
2023-11-08 12:58:48.496 [34] [FixSender] (DEBUG) Sending 8=FIX.4.4|9=58|35=0|49=FIXCLIENT1|56=DMA_HUB|34=147|52=20231108-11:58:48|10=105|
2023-11-08 12:58:56.785 [33] [FixSender] (DEBUG) Receiving 8=FIX.4.4|9=62|35=0|34=153|49=DMA_HUB|56=FIXCLIENT1|52=20231108-11:58:56.785|10=050|
2023-11-08 12:59:18.498 [34] [FixSender] (DEBUG) Sending 8=FIX.4.4|9=58|35=0|49=FIXCLIENT1|56=DMA_HUB|34=148|52=20231108-11:59:18|10=104|
2023-11-08 12:59:26.737 [33] [FixSender] (DEBUG) Receiving 8=FIX.4.4|9=62|35=0|34=154|49=DMA_HUB|56=FIXCLIENT1|52=20231108-11:59:26.737|10=046|
2023-11-08 12:59:48.501 [34] [FixSender] (DEBUG) Sending 8=FIX.4.4|9=58|35=0|49=FIXCLIENT1|56=DMA_HUB|34=149|52=20231108-11:59:48|10=108|
2023-11-08 12:59:56.690 [33] [FixSender] (DEBUG) Receiving 8=FIX.4.4|9=62|35=0|34=155|49=DMA_HUB|56=FIXCLIENT1|52=20231108-11:59:56.690|10=048|
2023-11-08 13:00:18.502 [34] [FixSender] (DEBUG) Sending 8=FIX.4.4|9=58|35=0|49=FIXCLIENT1|56=DMA_HUB|34=150|52=20231108-12:00:18|10=084|
2023-11-08 13:00:26.641 [33] [FixSender] (DEBUG) Receiving 8=FIX.4.4|9=62|35=0|34=156|49=DMA_HUB|56=FIXCLIENT1|52=20231108-12:00:26.641|10=029|
2023-11-08 13:00:48.503 [34] [FixSender] (DEBUG) Sending 8=FIX.4.4|9=58|35=0|49=FIXCLIENT1|56=DMA_HUB|34=151|52=20231108-12:00:48|10=088|
2023-11-08 13:00:56.594 [33] [FixSender] (DEBUG) Receiving 8=FIX.4.4|9=62|35=0|34=157|49=DMA_HUB|56=FIXCLIENT1|52=20231108-12:00:56.594|10=040|
2023-11-08 13:01:18.514 [34] [FixSender] (DEBUG) Sending 8=FIX.4.4|9=58|35=0|49=FIXCLIENT1|56=DMA_HUB|34=152|52=20231108-12:01:18|10=087|
2023-11-08 13:01:26.545 [33] [FixSender] (DEBUG) Receiving 8=FIX.4.4|9=62|35=0|34=158|49=DMA_HUB|56=FIXCLIENT1|52=20231108-12:01:26.545|10=035|
2023-11-08 13:01:48.518 [34] [FixSender] (DEBUG) Sending 8=FIX.4.4|9=58|35=0|49=FIXCLIENT1|56=DMA_HUB|34=153|52=20231108-12:01:48|10=091|
2023-11-08 13:01:56.498 [33] [FixSender] (DEBUG) Receiving 8=FIX.4.4|9=62|35=0|34=159|49=DMA_HUB|56=FIXCLIENT1|52=20231108-12:01:56.498|10=046|
2023-11-08 13:02:18.520 [34] [FixSender] (DEBUG) Sending 8=FIX.4.4|9=58|35=0|49=FIXCLIENT1|56=DMA_HUB|34=154|52=20231108-12:02:18|10=090|
2023-11-08 13:02:26.449 [33] [FixSender] (DEBUG) Receiving 8=FIX.4.4|9=62|35=0|34=160|49=DMA_HUB|56=FIXCLIENT1|52=20231108-12:02:26.449|10=032|
2023-11-08 13:02:48.521 [34] [FixSender] (DEBUG) Sending 8=FIX.4.4|9=58|35=0|49=FIXCLIENT1|56=DMA_HUB|34=155|52=20231108-12:02:48|10=094|
2023-11-08 13:02:56.402 [33] [FixSender] (DEBUG) Receiving 8=FIX.4.4|9=62|35=0|34=161|49=DMA_HUB|56=FIXCLIENT1|52=20231108-12:02:56.402|10=025|
2023-11-08 13:03:18.523 [34] [FixSender] (DEBUG) Sending 8=FIX.4.4|9=58|35=0|49=FIXCLIENT1|56=DMA_HUB|34=156|52=20231108-12:03:18|10=093|
2023-11-08 13:03:26.353 [33] [FixSender] (DEBUG) Receiving 8=FIX.4.4|9=62|35=0|34=162|49=DMA_HUB|56=FIXCLIENT1|52=20231108-12:03:26.353|10=029|
2023-11-08 13:03:48.530 [34] [FixSender] (DEBUG) Sending 8=FIX.4.4|9=58|35=0|49=FIXCLIENT1|56=DMA_HUB|34=157|52=20231108-12:03:48|10=097|
2023-11-08 13:03:56.307 [33] [FixSender] (DEBUG) Receiving 8=FIX.4.4|9=62|35=0|34=163|49=DMA_HUB|56=FIXCLIENT1|52=20231108-12:03:56.307|10=032|
2023-11-08 13:04:18.531 [34] [FixSender] (DEBUG) Sending 8=FIX.4.4|9=58|35=0|49=FIXCLIENT1|56=DMA_HUB|34=158|52=20231108-12:04:18|10=096|
2023-11-08 13:04:26.259 [33] [FixSender] (DEBUG) Receiving 8=FIX.4.4|9=62|35=0|34=164|49=DMA_HUB|56=FIXCLIENT1|52=20231108-12:04:26.258|10=036|
2023-11-08 13:04:48.533 [34] [FixSender] (DEBUG) Sending 8=FIX.4.4|9=58|35=0|49=FIXCLIENT1|56=DMA_HUB|34=159|52=20231108-12:04:48|10=100|
2023-11-08 13:04:56.210 [33] [FixSender] (DEBUG) Receiving 8=FIX.4.4|9=62|35=0|34=165|49=DMA_HUB|56=FIXCLIENT1|52=20231108-12:04:56.210|10=028|
2023-11-08 13:05:18.535 [34] [FixSender] (DEBUG) Sending 8=FIX.4.4|9=58|35=0|49=FIXCLIENT1|56=DMA_HUB|34=160|52=20231108-12:05:18|10=090|
2023-11-08 13:05:26.162 [33] [FixSender] (DEBUG) Receiving 8=FIX.4.4|9=62|35=0|34=166|49=DMA_HUB|56=FIXCLIENT1|52=20231108-12:05:26.162|10=033|
2023-11-08 13:05:48.536 [34] [FixSender] (DEBUG) Sending 8=FIX.4.4|9=58|35=0|49=FIXCLIENT1|56=DMA_HUB|34=161|52=20231108-12:05:48|10=094|
2023-11-08 13:05:56.114 [33] [FixSender] (DEBUG) Receiving 8=FIX.4.4|9=62|35=0|34=167|49=DMA_HUB|56=FIXCLIENT1|52=20231108-12:05:56.114|10=034|
2023-11-08 13:06:18.538 [34] [FixSender] (DEBUG) Sending 8=FIX.4.4|9=58|35=0|49=FIXCLIENT1|56=DMA_HUB|34=162|52=20231108-12:06:18|10=093|
2023-11-08 13:06:26.067 [33] [FixSender] (DEBUG) Receiving 8=FIX.4.4|9=62|35=0|34=168|49=DMA_HUB|56=FIXCLIENT1|52=20231108-12:06:26.066|10=039|
2023-11-08 13:06:48.540 [34] [FixSender] (DEBUG) Sending 8=FIX.4.4|9=58|35=0|49=FIXCLIENT1|56=DMA_HUB|34=163|52=20231108-12:06:48|10=097|
2023-11-08 13:06:56.018 [33] [FixSender] (DEBUG) Receiving 8=FIX.4.4|9=62|35=0|34=169|49=DMA_HUB|56=FIXCLIENT1|52=20231108-12:06:56.018|10=040|
2023-11-08 13:07:18.542 [34] [FixSender] (DEBUG) Sending 8=FIX.4.4|9=58|35=0|49=FIXCLIENT1|56=DMA_HUB|34=164|52=20231108-12:07:18|10=096|
2023-11-08 13:07:25.970 [33] [FixSender] (DEBUG) Receiving 8=FIX.4.4|9=62|35=0|34=170|49=DMA_HUB|56=FIXCLIENT1|52=20231108-12:07:25.969|10=044|
2023-11-08 13:07:48.542 [34] [FixSender] (DEBUG) Sending 8=FIX.4.4|9=58|35=0|49=FIXCLIENT1|56=DMA_HUB|34=165|52=20231108-12:07:48|10=100|
2023-11-08 13:07:55.922 [33] [FixSender] (DEBUG) Receiving 8=FIX.4.4|9=62|35=0|34=171|49=DMA_HUB|56=FIXCLIENT1|52=20231108-12:07:55.922|10=037|
2023-11-08 13:08:18.543 [34] [FixSender] (DEBUG) Sending 8=FIX.4.4|9=58|35=0|49=FIXCLIENT1|56=DMA_HUB|34=166|52=20231108-12:08:18|10=099|
2023-11-08 13:08:25.873 [33] [FixSender] (DEBUG) Receiving 8=FIX.4.4|9=62|35=0|34=172|49=DMA_HUB|56=FIXCLIENT1|52=20231108-12:08:25.873|10=041|
2023-11-08 13:08:48.545 [34] [FixSender] (DEBUG) Sending 8=FIX.4.4|9=58|35=0|49=FIXCLIENT1|56=DMA_HUB|34=167|52=20231108-12:08:48|10=103|
2023-11-08 13:08:55.825 [33] [FixSender] (DEBUG) Receiving 8=FIX.4.4|9=62|35=0|34=173|49=DMA_HUB|56=FIXCLIENT1|52=20231108-12:08:55.825|10=042|
2023-11-08 13:09:18.549 [34] [FixSender] (DEBUG) Sending 8=FIX.4.4|9=58|35=0|49=FIXCLIENT1|56=DMA_HUB|34=168|52=20231108-12:09:18|10=102|
2023-11-08 13:09:25.779 [33] [FixSender] (DEBUG) Receiving 8=FIX.4.4|9=62|35=0|34=174|49=DMA_HUB|56=FIXCLIENT1|52=20231108-12:09:25.778|10=048|
2023-11-08 13:09:48.550 [34] [FixSender] (DEBUG) Sending 8=FIX.4.4|9=58|35=0|49=FIXCLIENT1|56=DMA_HUB|34=169|52=20231108-12:09:48|10=106|
2023-11-08 13:09:55.729 [33] [FixSender] (DEBUG) Receiving 8=FIX.4.4|9=62|35=0|34=175|49=DMA_HUB|56=FIXCLIENT1|52=20231108-12:09:55.729|10=048|
2023-11-08 13:10:18.553 [34] [FixSender] (DEBUG) Sending 8=FIX.4.4|9=58|35=0|49=FIXCLIENT1|56=DMA_HUB|34=170|52=20231108-12:10:18|10=087|
2023-11-08 13:10:25.683 [33] [FixSender] (DEBUG) Receiving 8=FIX.4.4|9=62|35=0|34=176|49=DMA_HUB|56=FIXCLIENT1|52=20231108-12:10:25.682|10=036|
2023-11-08 13:10:27.262 [39] [FixSender] (DEBUG) Sending 8=FIX.4.4|9=197|35=D|49=FIXCLIENT1|56=DMA_HUB|34=171|52=20231108-12:10:27|21=1|11=HS_16994454270|38=674|55=E:07G@XETR|54=2|60=20231108-12:10:27|40=2|59=0|44=197.111|48=US3390411052|22=4|15=EUR|207=XETR|1=bram_123|10=089|
2023-11-08 13:10:27.270 [33] [FixSender] (DEBUG) Receiving 8=FIX.4.4|9=238|35=8|34=177|49=DMA_HUB|56=FIXCLIENT1|52=20231108-12:10:27.268|11=HS_16994454270|37=FXt6OmwVJ|54=2|40=2|59=0|17=202311085|150=A|39=A|38=674|151=674|14=0|6=0|44=197.111|60=20231108-12:10:27.000|22=4|48=US3390411052|207=XETR|15=EUR|55=[N/A]|10=229|
2023-11-08 13:10:55.635 [33] [FixSender] (DEBUG) Receiving 8=FIX.4.4|9=62|35=0|34=178|49=DMA_HUB|56=FIXCLIENT1|52=20231108-12:10:55.634|10=038|
2023-11-08 13:10:57.263 [34] [FixSender] (DEBUG) Sending 8=FIX.4.4|9=58|35=0|49=FIXCLIENT1|56=DMA_HUB|34=172|52=20231108-12:10:57|10=092|
2023-11-08 13:11:25.587 [33] [FixSender] (DEBUG) Receiving 8=FIX.4.4|9=62|35=0|34=179|49=DMA_HUB|56=FIXCLIENT1|52=20231108-12:11:25.587|10=044|
2023-11-08 13:11:27.273 [34] [FixSender] (DEBUG) Sending 8=FIX.4.4|9=58|35=0|49=FIXCLIENT1|56=DMA_HUB|34=173|52=20231108-12:11:27|10=091|
2023-11-08 13:11:35.819 [40] [FixSender] (DEBUG) Sending 8=FIX.4.4|9=215|35=D|49=FIXCLIENT1|56=DMA_HUB|34=174|52=20231108-12:11:35|21=3|11=HS_16994454950|38=27214|55=AIR LIQUIDE|54=2|60=20231108-12:11:35|40=2|59=1|44=143.08233|48=FR0000120073|22=4|15=EUR|207=XPAR|432=20221116|109=axa_im|10=247|
2023-11-08 13:11:35.831 [33] [FixSender] (DEBUG) Receiving 8=FIX.4.4|9=282|35=8|34=180|49=DMA_HUB|56=FIXCLIENT1|52=20231108-12:11:35.829|11=HS_16994454950|37=NONE|38=27214|151=0|14=0|17=202311086|150=8|39=8|6=0|44=143.08233|54=2|40=2|59=1|22=4|48=FR0000120073|55=AIR LIQUIDE|207=XPAR|15=EUR|58=Cannot resolve instrument 22=4;48=FR0000120073;207=XPAR;15=EUR|10=003|
2023-11-08 13:11:55.538 [33] [FixSender] (DEBUG) Receiving 8=FIX.4.4|9=62|35=0|34=181|49=DMA_HUB|56=FIXCLIENT1|52=20231108-12:11:55.537|10=035|
2023-11-08 13:12:05.821 [34] [FixSender] (DEBUG) Sending 8=FIX.4.4|9=58|35=0|49=FIXCLIENT1|56=DMA_HUB|34=175|52=20231108-12:12:05|10=090|
2023-11-08 13:12:25.490 [33] [FixSender] (DEBUG) Receiving 8=FIX.4.4|9=62|35=0|34=182|49=DMA_HUB|56=FIXCLIENT1|52=20231108-12:12:25.489|10=040|
2023-11-08 13:12:35.822 [34] [FixSender] (DEBUG) Sending 8=FIX.4.4|9=58|35=0|49=FIXCLIENT1|56=DMA_HUB|34=176|52=20231108-12:12:35|10=094|
2023-11-08 13:12:55.442 [33] [FixSender] (DEBUG) Receiving 8=FIX.4.4|9=62|35=0|34=183|49=DMA_HUB|56=FIXCLIENT1|52=20231108-12:12:55.442|10=033|
2023-11-08 13:13:05.823 [34] [FixSender] (DEBUG) Sending 8=FIX.4.4|9=58|35=0|49=FIXCLIENT1|56=DMA_HUB|34=177|52=20231108-12:13:05|10=093|
2023-11-08 13:13:13.329 [41] [FixSender] (DEBUG) Sending 8=FIX.4.4|9=215|35=D|49=FIXCLIENT1|56=DMA_HUB|34=178|52=20231108-12:13:13|21=3|11=HS_16994455931|38=30103|55=AIR LIQUIDE|54=2|60=20231108-12:13:13|40=2|59=1|44=143.08233|48=FR0000120073|22=4|15=EUR|207=XPAR|432=20221116|109=axa_im|10=238|
2023-11-08 13:13:13.331 [33] [FixSender] (DEBUG) Receiving 8=FIX.4.4|9=282|35=8|34=184|49=DMA_HUB|56=FIXCLIENT1|52=20231108-12:13:13.330|11=HS_16994455931|37=NONE|38=30103|151=0|14=0|17=202311087|150=8|39=8|6=0|44=143.08233|54=2|40=2|59=1|22=4|48=FR0000120073|55=AIR LIQUIDE|207=XPAR|15=EUR|58=Cannot resolve instrument 22=4;48=FR0000120073;207=XPAR;15=EUR|10=240|
2023-11-08 13:13:18.246 [42] [FixSender] (DEBUG) Sending 8=FIX.4.4|9=198|35=D|49=FIXCLIENT1|56=DMA_HUB|34=179|52=20231108-12:13:18|21=1|11=HS_16994455982|38=4625|55=E:07G@XETR|54=2|60=20231108-12:13:18|40=2|59=0|44=197.111|48=US3390411052|22=4|15=EUR|207=XETR|1=bram_123|10=163|
2023-11-08 13:13:18.249 [33] [FixSender] (DEBUG) Receiving 8=FIX.4.4|9=240|35=8|34=185|49=DMA_HUB|56=FIXCLIENT1|52=20231108-12:13:18.247|11=HS_16994455982|37=FXu6OmwVJ|54=2|40=2|59=0|17=202311088|150=A|39=A|38=4625|151=4625|14=0|6=0|44=197.111|60=20231108-12:13:18.000|22=4|48=US3390411052|207=XETR|15=EUR|55=[N/A]|10=079|
2023-11-08 13:13:25.394 [33] [FixSender] (DEBUG) Receiving 8=FIX.4.4|9=62|35=0|34=186|49=DMA_HUB|56=FIXCLIENT1|52=20231108-12:13:25.393|10=039|
2023-11-08 13:13:48.247 [34] [FixSender] (DEBUG) Sending 8=FIX.4.4|9=58|35=0|49=FIXCLIENT1|56=DMA_HUB|34=180|52=20231108-12:13:48|10=094|
2023-11-08 13:13:55.346 [33] [FixSender] (DEBUG) Receiving 8=FIX.4.4|9=62|35=0|34=187|49=DMA_HUB|56=FIXCLIENT1|52=20231108-12:13:55.346|10=041|
2023-11-08 13:14:18.258 [34] [FixSender] (DEBUG) Sending 8=FIX.4.4|9=58|35=0|49=FIXCLIENT1|56=DMA_HUB|34=181|52=20231108-12:14:18|10=093|
2023-11-08 13:14:25.297 [33] [FixSender] (DEBUG) Receiving 8=FIX.4.4|9=62|35=0|34=188|49=DMA_HUB|56=FIXCLIENT1|52=20231108-12:14:25.297|10=045|
2023-11-08 13:14:48.263 [34] [FixSender] (DEBUG) Sending 8=FIX.4.4|9=58|35=0|49=FIXCLIENT1|56=DMA_HUB|34=182|52=20231108-12:14:48|10=097|
2023-11-08 13:14:55.249 [33] [FixSender] (DEBUG) Receiving 8=FIX.4.4|9=62|35=0|34=189|49=DMA_HUB|56=FIXCLIENT1|52=20231108-12:14:55.249|10=046|
2023-11-08 13:15:18.267 [34] [FixSender] (DEBUG) Sending 8=FIX.4.4|9=58|35=0|49=FIXCLIENT1|56=DMA_HUB|34=183|52=20231108-12:15:18|10=096|
2023-11-08 13:15:25.201 [33] [FixSender] (DEBUG) Receiving 8=FIX.4.4|9=62|35=0|34=190|49=DMA_HUB|56=FIXCLIENT1|52=20231108-12:15:25.201|10=024|
2023-11-08 13:15:48.279 [34] [FixSender] (DEBUG) Sending 8=FIX.4.4|9=58|35=0|49=FIXCLIENT1|56=DMA_HUB|34=184|52=20231108-12:15:48|10=100|
2023-11-08 13:15:55.154 [33] [FixSender] (DEBUG) Receiving 8=FIX.4.4|9=62|35=0|34=191|49=DMA_HUB|56=FIXCLIENT1|52=20231108-12:15:55.154|10=035|
2023-11-08 13:16:18.284 [34] [FixSender] (DEBUG) Sending 8=FIX.4.4|9=58|35=0|49=FIXCLIENT1|56=DMA_HUB|34=185|52=20231108-12:16:18|10=099|
2023-11-08 13:16:25.107 [33] [FixSender] (DEBUG) Receiving 8=FIX.4.4|9=62|35=0|34=192|49=DMA_HUB|56=FIXCLIENT1|52=20231108-12:16:25.106|10=031|
2023-11-08 13:16:48.288 [34] [FixSender] (DEBUG) Sending 8=FIX.4.4|9=58|35=0|49=FIXCLIENT1|56=DMA_HUB|34=186|52=20231108-12:16:48|10=103|
2023-11-08 13:16:55.058 [33] [FixSender] (DEBUG) Receiving 8=FIX.4.4|9=62|35=0|34=193|49=DMA_HUB|56=FIXCLIENT1|52=20231108-12:16:55.057|10=040|
2023-11-08 13:17:18.290 [34] [FixSender] (DEBUG) Sending 8=FIX.4.4|9=58|35=0|49=FIXCLIENT1|56=DMA_HUB|34=187|52=20231108-12:17:18|10=102|
2023-11-08 13:17:25.010 [33] [FixSender] (DEBUG) Receiving 8=FIX.4.4|9=62|35=0|34=194|49=DMA_HUB|56=FIXCLIENT1|52=20231108-12:17:25.010|10=028|
2023-11-08 13:17:48.298 [34] [FixSender] (DEBUG) Sending 8=FIX.4.4|9=58|35=0|49=FIXCLIENT1|56=DMA_HUB|34=188|52=20231108-12:17:48|10=106|
2023-11-08 13:17:54.962 [33] [FixSender] (DEBUG) Receiving 8=FIX.4.4|9=62|35=0|34=195|49=DMA_HUB|56=FIXCLIENT1|52=20231108-12:17:54.961|10=046|
2023-11-08 13:18:18.310 [34] [FixSender] (DEBUG) Sending 8=FIX.4.4|9=58|35=0|49=FIXCLIENT1|56=DMA_HUB|34=189|52=20231108-12:18:18|10=105|
2023-11-08 13:18:24.914 [33] [FixSender] (DEBUG) Receiving 8=FIX.4.4|9=62|35=0|34=196|49=DMA_HUB|56=FIXCLIENT1|52=20231108-12:18:24.914|10=043|
2023-11-08 13:18:48.324 [34] [FixSender] (DEBUG) Sending 8=FIX.4.4|9=58|35=0|49=FIXCLIENT1|56=DMA_HUB|34=190|52=20231108-12:18:48|10=100|
2023-11-08 13:18:54.866 [33] [FixSender] (DEBUG) Receiving 8=FIX.4.4|9=62|35=0|34=197|49=DMA_HUB|56=FIXCLIENT1|52=20231108-12:18:54.866|10=053|
2023-11-08 13:19:18.340 [34] [FixSender] (DEBUG) Sending 8=FIX.4.4|9=58|35=0|49=FIXCLIENT1|56=DMA_HUB|34=191|52=20231108-12:19:18|10=099|
2023-11-08 13:19:24.818 [33] [FixSender] (DEBUG) Receiving 8=FIX.4.4|9=62|35=0|34=198|49=DMA_HUB|56=FIXCLIENT1|52=20231108-12:19:24.818|10=049|
2023-11-08 13:19:48.348 [34] [FixSender] (DEBUG) Sending 8=FIX.4.4|9=58|35=0|49=FIXCLIENT1|56=DMA_HUB|34=192|52=20231108-12:19:48|10=103|
2023-11-08 13:19:54.770 [33] [FixSender] (DEBUG) Receiving 8=FIX.4.4|9=62|35=0|34=199|49=DMA_HUB|56=FIXCLIENT1|52=20231108-12:19:54.770|10=050|
2023-11-08 13:20:18.364 [34] [FixSender] (DEBUG) Sending 8=FIX.4.4|9=58|35=0|49=FIXCLIENT1|56=DMA_HUB|34=193|52=20231108-12:20:18|10=093|
2023-11-08 13:20:24.721 [33] [FixSender] (DEBUG) Receiving 8=FIX.4.4|9=62|35=0|34=200|49=DMA_HUB|56=FIXCLIENT1|52=20231108-12:20:24.721|10=018|
2023-11-08 13:20:48.372 [34] [FixSender] (DEBUG) Sending 8=FIX.4.4|9=58|35=0|49=FIXCLIENT1|56=DMA_HUB|34=194|52=20231108-12:20:48|10=097|
2023-11-08 13:20:54.673 [33] [FixSender] (DEBUG) Receiving 8=FIX.4.4|9=62|35=0|34=201|49=DMA_HUB|56=FIXCLIENT1|52=20231108-12:20:54.673|10=028|
2023-11-08 13:21:18.377 [34] [FixSender] (DEBUG) Sending 8=FIX.4.4|9=58|35=0|49=FIXCLIENT1|56=DMA_HUB|34=195|52=20231108-12:21:18|10=096|
2023-11-08 13:21:24.626 [33] [FixSender] (DEBUG) Receiving 8=FIX.4.4|9=62|35=0|34=202|49=DMA_HUB|56=FIXCLIENT1|52=20231108-12:21:24.626|10=025|
2023-11-08 13:21:48.386 [34] [FixSender] (DEBUG) Sending 8=FIX.4.4|9=58|35=0|49=FIXCLIENT1|56=DMA_HUB|34=196|52=20231108-12:21:48|10=100|
2023-11-08 13:21:54.579 [33] [FixSender] (DEBUG) Receiving 8=FIX.4.4|9=62|35=0|34=203|49=DMA_HUB|56=FIXCLIENT1|52=20231108-12:21:54.578|10=035|
2023-11-08 13:22:18.395 [34] [FixSender] (DEBUG) Sending 8=FIX.4.4|9=58|35=0|49=FIXCLIENT1|56=DMA_HUB|34=197|52=20231108-12:22:18|10=099|
2023-11-08 13:22:24.530 [33] [FixSender] (DEBUG) Receiving 8=FIX.4.4|9=62|35=0|34=204|49=DMA_HUB|56=FIXCLIENT1|52=20231108-12:22:24.529|10=030|
2023-11-08 13:22:48.399 [34] [FixSender] (DEBUG) Sending 8=FIX.4.4|9=58|35=0|49=FIXCLIENT1|56=DMA_HUB|34=198|52=20231108-12:22:48|10=103|
2023-11-08 13:22:54.482 [33] [FixSender] (DEBUG) Receiving 8=FIX.4.4|9=62|35=0|34=205|49=DMA_HUB|56=FIXCLIENT1|52=20231108-12:22:54.482|10=032|
2023-11-08 13:23:18.414 [34] [FixSender] (DEBUG) Sending 8=FIX.4.4|9=58|35=0|49=FIXCLIENT1|56=DMA_HUB|34=199|52=20231108-12:23:18|10=102|
2023-11-08 13:23:24.433 [33] [FixSender] (DEBUG) Receiving 8=FIX.4.4|9=62|35=0|34=206|49=DMA_HUB|56=FIXCLIENT1|52=20231108-12:23:24.433|10=027|
2023-11-08 13:23:48.421 [34] [FixSender] (DEBUG) Sending 8=FIX.4.4|9=58|35=0|49=FIXCLIENT1|56=DMA_HUB|34=200|52=20231108-12:23:48|10=088|
2023-11-08 13:23:54.385 [33] [FixSender] (DEBUG) Receiving 8=FIX.4.4|9=62|35=0|34=207|49=DMA_HUB|56=FIXCLIENT1|52=20231108-12:23:54.385|10=037|
2023-11-08 13:24:18.428 [34] [FixSender] (DEBUG) Sending 8=FIX.4.4|9=58|35=0|49=FIXCLIENT1|56=DMA_HUB|34=201|52=20231108-12:24:18|10=087|
2023-11-08 13:24:24.339 [33] [FixSender] (DEBUG) Receiving 8=FIX.4.4|9=62|35=0|34=208|49=DMA_HUB|56=FIXCLIENT1|52=20231108-12:24:24.338|10=034|
2023-11-08 13:24:48.434 [34] [FixSender] (DEBUG) Sending 8=FIX.4.4|9=58|35=0|49=FIXCLIENT1|56=DMA_HUB|34=202|52=20231108-12:24:48|10=091|
2023-11-08 13:24:54.289 [33] [FixSender] (DEBUG) Receiving 8=FIX.4.4|9=62|35=0|34=209|49=DMA_HUB|56=FIXCLIENT1|52=20231108-12:24:54.289|10=043|
2023-11-08 13:25:18.450 [34] [FixSender] (DEBUG) Sending 8=FIX.4.4|9=58|35=0|49=FIXCLIENT1|56=DMA_HUB|34=203|52=20231108-12:25:18|10=090|
2023-11-08 13:25:24.242 [33] [FixSender] (DEBUG) Receiving 8=FIX.4.4|9=62|35=0|34=210|49=DMA_HUB|56=FIXCLIENT1|52=20231108-12:25:24.242|10=022|
2023-11-08 13:25:48.450 [34] [FixSender] (DEBUG) Sending 8=FIX.4.4|9=58|35=0|49=FIXCLIENT1|56=DMA_HUB|34=204|52=20231108-12:25:48|10=094|
2023-11-08 13:25:54.194 [33] [FixSender] (DEBUG) Receiving 8=FIX.4.4|9=62|35=0|34=211|49=DMA_HUB|56=FIXCLIENT1|52=20231108-12:25:54.193|10=031|
2023-11-08 13:26:18.456 [34] [FixSender] (DEBUG) Sending 8=FIX.4.4|9=58|35=0|49=FIXCLIENT1|56=DMA_HUB|34=205|52=20231108-12:26:18|10=093|
2023-11-08 13:26:24.146 [33] [FixSender] (DEBUG) Receiving 8=FIX.4.4|9=62|35=0|34=212|49=DMA_HUB|56=FIXCLIENT1|52=20231108-12:26:24.145|10=027|
2023-11-08 13:26:26.048 [43] [FixSender] (DEBUG) Sending 8=FIX.4.4|9=224|35=D|49=FIXCLIENT1|56=DMA_HUB|34=206|52=20231108-12:26:26|21=3|11=HS_16994463860|38=313|55=EDENRED|54=1|60=20231108-12:26:26|40=2|59=1|44=51.1812|48=FR0010908533|22=4|15=EUR|207=XPAR|432=20221116|109=fidameur|1=fidameur_123|10=188|
2023-11-08 13:26:26.050 [33] [FixSender] (DEBUG) Receiving 8=FIX.4.4|9=274|35=8|34=213|49=DMA_HUB|56=FIXCLIENT1|52=20231108-12:26:26.049|11=HS_16994463860|37=NONE|38=313|151=0|14=0|17=202311089|150=8|39=8|6=0|44=51.1812|54=1|40=2|59=1|22=4|48=FR0010908533|55=EDENRED|207=XPAR|15=EUR|58=Cannot resolve instrument 22=4;48=FR0010908533;207=XPAR;15=EUR|10=066|
2023-11-08 13:26:37.111 [44] [FixSender] (DEBUG) Sending 8=FIX.4.4|9=225|35=D|49=FIXCLIENT1|56=DMA_HUB|34=207|52=20231108-12:26:37|21=3|11=HS_16994463973|38=4185|55=EDENRED|54=1|60=20231108-12:26:37|40=2|59=1|44=51.1812|48=FR0010908533|22=4|15=EUR|207=XPAR|432=20221116|109=fidameur|1=fidameur_123|10=002|
2023-11-08 13:26:37.114 [33] [FixSender] (DEBUG) Receiving 8=FIX.4.4|9=276|35=8|34=214|49=DMA_HUB|56=FIXCLIENT1|52=20231108-12:26:37.112|11=HS_16994463973|37=NONE|38=4185|151=0|14=0|17=2023110810|150=8|39=8|6=0|44=51.1812|54=1|40=2|59=1|22=4|48=FR0010908533|55=EDENRED|207=XPAR|15=EUR|58=Cannot resolve instrument 22=4;48=FR0010908533;207=XPAR;15=EUR|10=166|
2023-11-08 13:26:54.098 [33] [FixSender] (DEBUG) Receiving 8=FIX.4.4|9=62|35=0|34=215|49=DMA_HUB|56=FIXCLIENT1|52=20231108-12:26:54.098|10=040|
2023-11-08 13:27:07.112 [34] [FixSender] (DEBUG) Sending 8=FIX.4.4|9=58|35=0|49=FIXCLIENT1|56=DMA_HUB|34=208|52=20231108-12:27:07|10=095|
2023-11-08 13:27:12.559 [45] [FixSender] (DEBUG) Sending 8=FIX.4.4|9=198|35=D|49=FIXCLIENT1|56=DMA_HUB|34=209|52=20231108-12:27:12|21=1|11=HS_16994464324|38=1492|55=E:07G@XETR|54=2|60=20231108-12:27:12|40=2|59=0|44=197.111|48=US3390411052|22=4|15=EUR|207=XETR|1=bram_123|10=144|
2023-11-08 13:27:12.567 [33] [FixSender] (DEBUG) Receiving 8=FIX.4.4|9=241|35=8|34=216|49=DMA_HUB|56=FIXCLIENT1|52=20231108-12:27:12.561|11=HS_16994464324|37=FXv6OmwVJ|54=2|40=2|59=0|17=2023110811|150=A|39=A|38=1492|151=1492|14=0|6=0|44=197.111|60=20231108-12:27:12.000|22=4|48=US3390411052|207=XETR|15=EUR|55=[N/A]|10=103|
2023-11-08 13:27:24.050 [33] [FixSender] (DEBUG) Receiving 8=FIX.4.4|9=62|35=0|34=217|49=DMA_HUB|56=FIXCLIENT1|52=20231108-12:27:24.050|10=028|
2023-11-08 13:27:42.560 [34] [FixSender] (DEBUG) Sending 8=FIX.4.4|9=58|35=0|49=FIXCLIENT1|56=DMA_HUB|34=210|52=20231108-12:27:42|10=087|
2023-11-08 13:27:54.003 [33] [FixSender] (DEBUG) Receiving 8=FIX.4.4|9=62|35=0|34=218|49=DMA_HUB|56=FIXCLIENT1|52=20231108-12:27:54.002|10=029|
2023-11-08 13:28:12.561 [34] [FixSender] (DEBUG) Sending 8=FIX.4.4|9=58|35=0|49=FIXCLIENT1|56=DMA_HUB|34=211|52=20231108-12:28:12|10=086|
2023-11-08 13:28:23.953 [33] [FixSender] (DEBUG) Receiving 8=FIX.4.4|9=62|35=0|34=219|49=DMA_HUB|56=FIXCLIENT1|52=20231108-12:28:23.953|10=042|
2023-11-08 13:28:42.561 [34] [FixSender] (DEBUG) Sending 8=FIX.4.4|9=58|35=0|49=FIXCLIENT1|56=DMA_HUB|34=212|52=20231108-12:28:42|10=090|
2023-11-08 13:28:53.906 [33] [FixSender] (DEBUG) Receiving 8=FIX.4.4|9=62|35=0|34=220|49=DMA_HUB|56=FIXCLIENT1|52=20231108-12:28:53.906|10=035|
2023-11-08 13:29:12.563 [34] [FixSender] (DEBUG) Sending 8=FIX.4.4|9=58|35=0|49=FIXCLIENT1|56=DMA_HUB|34=213|52=20231108-12:29:12|10=089|
2023-11-08 13:29:23.857 [33] [FixSender] (DEBUG) Receiving 8=FIX.4.4|9=62|35=0|34=221|49=DMA_HUB|56=FIXCLIENT1|52=20231108-12:29:23.857|10=039|
2023-11-08 13:29:42.564 [34] [FixSender] (DEBUG) Sending 8=FIX.4.4|9=58|35=0|49=FIXCLIENT1|56=DMA_HUB|34=214|52=20231108-12:29:42|10=093|
2023-11-08 13:29:53.810 [33] [FixSender] (DEBUG) Receiving 8=FIX.4.4|9=62|35=0|34=222|49=DMA_HUB|56=FIXCLIENT1|52=20231108-12:29:53.810|10=032|
2023-11-08 13:30:12.566 [34] [FixSender] (DEBUG) Sending 8=FIX.4.4|9=58|35=0|49=FIXCLIENT1|56=DMA_HUB|34=215|52=20231108-12:30:12|10=083|
2023-11-08 13:30:23.761 [33] [FixSender] (DEBUG) Receiving 8=FIX.4.4|9=62|35=0|34=223|49=DMA_HUB|56=FIXCLIENT1|52=20231108-12:30:23.761|10=027|
2023-11-08 13:30:42.569 [34] [FixSender] (DEBUG) Sending 8=FIX.4.4|9=58|35=0|49=FIXCLIENT1|56=DMA_HUB|34=216|52=20231108-12:30:42|10=087|
2023-11-08 13:30:53.714 [33] [FixSender] (DEBUG) Receiving 8=FIX.4.4|9=62|35=0|34=224|49=DMA_HUB|56=FIXCLIENT1|52=20231108-12:30:53.714|10=029|
2023-11-08 13:31:12.571 [34] [FixSender] (DEBUG) Sending 8=FIX.4.4|9=58|35=0|49=FIXCLIENT1|56=DMA_HUB|34=217|52=20231108-12:31:12|10=086|
2023-11-08 13:31:23.666 [33] [FixSender] (DEBUG) Receiving 8=FIX.4.4|9=62|35=0|34=225|49=DMA_HUB|56=FIXCLIENT1|52=20231108-12:31:23.665|10=033|
2023-11-08 13:31:42.574 [34] [FixSender] (DEBUG) Sending 8=FIX.4.4|9=58|35=0|49=FIXCLIENT1|56=DMA_HUB|34=218|52=20231108-12:31:42|10=090|
2023-11-08 13:31:53.617 [33] [FixSender] (DEBUG) Receiving 8=FIX.4.4|9=62|35=0|34=226|49=DMA_HUB|56=FIXCLIENT1|52=20231108-12:31:53.617|10=034|
2023-11-08 13:32:12.575 [34] [FixSender] (DEBUG) Sending 8=FIX.4.4|9=58|35=0|49=FIXCLIENT1|56=DMA_HUB|34=219|52=20231108-12:32:12|10=089|
2023-11-08 13:32:23.570 [33] [FixSender] (DEBUG) Receiving 8=FIX.4.4|9=62|35=0|34=227|49=DMA_HUB|56=FIXCLIENT1|52=20231108-12:32:23.570|10=031|
2023-11-08 13:32:42.577 [34] [FixSender] (DEBUG) Sending 8=FIX.4.4|9=58|35=0|49=FIXCLIENT1|56=DMA_HUB|34=220|52=20231108-12:32:42|10=084|
2023-11-08 13:32:53.521 [33] [FixSender] (DEBUG) Receiving 8=FIX.4.4|9=62|35=0|34=228|49=DMA_HUB|56=FIXCLIENT1|52=20231108-12:32:53.521|10=031|
2023-11-08 13:33:12.579 [34] [FixSender] (DEBUG) Sending 8=FIX.4.4|9=58|35=0|49=FIXCLIENT1|56=DMA_HUB|34=221|52=20231108-12:33:12|10=083|
2023-11-08 13:33:23.474 [33] [FixSender] (DEBUG) Receiving 8=FIX.4.4|9=62|35=0|34=229|49=DMA_HUB|56=FIXCLIENT1|52=20231108-12:33:23.474|10=037|
2023-11-08 13:33:42.581 [34] [FixSender] (DEBUG) Sending 8=FIX.4.4|9=58|35=0|49=FIXCLIENT1|56=DMA_HUB|34=222|52=20231108-12:33:42|10=087|
2023-11-08 13:33:53.425 [33] [FixSender] (DEBUG) Receiving 8=FIX.4.4|9=62|35=0|34=230|49=DMA_HUB|56=FIXCLIENT1|52=20231108-12:33:53.425|10=028|
2023-11-08 13:34:12.582 [34] [FixSender] (DEBUG) Sending 8=FIX.4.4|9=58|35=0|49=FIXCLIENT1|56=DMA_HUB|34=223|52=20231108-12:34:12|10=086|
2023-11-08 13:34:23.378 [33] [FixSender] (DEBUG) Receiving 8=FIX.4.4|9=62|35=0|34=231|49=DMA_HUB|56=FIXCLIENT1|52=20231108-12:34:23.378|10=034|
2023-11-08 13:34:42.589 [34] [FixSender] (DEBUG) Sending 8=FIX.4.4|9=58|35=0|49=FIXCLIENT1|56=DMA_HUB|34=224|52=20231108-12:34:42|10=090|
2023-11-08 13:34:53.336 [33] [FixSender] (DEBUG) Receiving 8=FIX.4.4|9=62|35=0|34=232|49=DMA_HUB|56=FIXCLIENT1|52=20231108-12:34:53.330|10=026|
2023-11-08 13:35:12.595 [34] [FixSender] (DEBUG) Sending 8=FIX.4.4|9=58|35=0|49=FIXCLIENT1|56=DMA_HUB|34=225|52=20231108-12:35:12|10=089|
2023-11-08 13:35:23.283 [33] [FixSender] (DEBUG) Receiving 8=FIX.4.4|9=62|35=0|34=233|49=DMA_HUB|56=FIXCLIENT1|52=20231108-12:35:23.282|10=031|
2023-11-08 13:35:42.595 [34] [FixSender] (DEBUG) Sending 8=FIX.4.4|9=58|35=0|49=FIXCLIENT1|56=DMA_HUB|34=226|52=20231108-12:35:42|10=093|
2023-11-08 13:35:53.234 [33] [FixSender] (DEBUG) Receiving 8=FIX.4.4|9=62|35=0|34=234|49=DMA_HUB|56=FIXCLIENT1|52=20231108-12:35:53.234|10=032|
2023-11-08 13:36:12.595 [34] [FixSender] (DEBUG) Sending 8=FIX.4.4|9=58|35=0|49=FIXCLIENT1|56=DMA_HUB|34=227|52=20231108-12:36:12|10=092|
2023-11-08 13:36:23.296 [33] [FixSender] (DEBUG) Receiving 8=FIX.4.4|9=62|35=0|34=235|49=DMA_HUB|56=FIXCLIENT1|52=20231108-12:36:23.295|10=038|
2023-11-08 13:36:42.596 [34] [FixSender] (DEBUG) Sending 8=FIX.4.4|9=58|35=0|49=FIXCLIENT1|56=DMA_HUB|34=228|52=20231108-12:36:42|10=096|
2023-11-08 13:36:53.266 [33] [FixSender] (DEBUG) Receiving 8=FIX.4.4|9=62|35=0|34=236|49=DMA_HUB|56=FIXCLIENT1|52=20231108-12:36:53.266|10=040|
2023-11-08 13:37:12.605 [34] [FixSender] (DEBUG) Sending 8=FIX.4.4|9=58|35=0|49=FIXCLIENT1|56=DMA_HUB|34=229|52=20231108-12:37:12|10=095|
2023-11-08 13:37:23.217 [33] [FixSender] (DEBUG) Receiving 8=FIX.4.4|9=62|35=0|34=237|49=DMA_HUB|56=FIXCLIENT1|52=20231108-12:37:23.217|10=035|
2023-11-08 13:37:42.610 [34] [FixSender] (DEBUG) Sending 8=FIX.4.4|9=58|35=0|49=FIXCLIENT1|56=DMA_HUB|34=230|52=20231108-12:37:42|10=090|
2023-11-08 13:37:53.170 [33] [FixSender] (DEBUG) Receiving 8=FIX.4.4|9=62|35=0|34=238|49=DMA_HUB|56=FIXCLIENT1|52=20231108-12:37:53.170|10=037|
2023-11-08 13:38:12.612 [34] [FixSender] (DEBUG) Sending 8=FIX.4.4|9=58|35=0|49=FIXCLIENT1|56=DMA_HUB|34=231|52=20231108-12:38:12|10=089|
2023-11-08 13:38:23.122 [33] [FixSender] (DEBUG) Receiving 8=FIX.4.4|9=62|35=0|34=239|49=DMA_HUB|56=FIXCLIENT1|52=20231108-12:38:23.122|10=033|
2023-11-08 13:38:42.613 [34] [FixSender] (DEBUG) Sending 8=FIX.4.4|9=58|35=0|49=FIXCLIENT1|56=DMA_HUB|34=232|52=20231108-12:38:42|10=093|
2023-11-08 13:38:53.074 [33] [FixSender] (DEBUG) Receiving 8=FIX.4.4|9=62|35=0|34=240|49=DMA_HUB|56=FIXCLIENT1|52=20231108-12:38:53.074|10=034|
2023-11-08 13:39:12.614 [34] [FixSender] (DEBUG) Sending 8=FIX.4.4|9=58|35=0|49=FIXCLIENT1|56=DMA_HUB|34=233|52=20231108-12:39:12|10=092|
2023-11-08 13:39:23.026 [33] [FixSender] (DEBUG) Receiving 8=FIX.4.4|9=62|35=0|34=241|49=DMA_HUB|56=FIXCLIENT1|52=20231108-12:39:23.026|10=030|
2023-11-08 13:39:42.615 [34] [FixSender] (DEBUG) Sending 8=FIX.4.4|9=58|35=0|49=FIXCLIENT1|56=DMA_HUB|34=234|52=20231108-12:39:42|10=096|
2023-11-08 13:39:52.977 [33] [FixSender] (DEBUG) Receiving 8=FIX.4.4|9=62|35=0|34=242|49=DMA_HUB|56=FIXCLIENT1|52=20231108-12:39:52.977|10=048|
2023-11-08 13:40:12.617 [34] [FixSender] (DEBUG) Sending 8=FIX.4.4|9=58|35=0|49=FIXCLIENT1|56=DMA_HUB|34=235|52=20231108-12:40:12|10=086|
2023-11-08 13:40:22.929 [33] [FixSender] (DEBUG) Receiving 8=FIX.4.4|9=62|35=0|34=243|49=DMA_HUB|56=FIXCLIENT1|52=20231108-12:40:22.929|10=035|
2023-11-08 13:40:42.618 [34] [FixSender] (DEBUG) Sending 8=FIX.4.4|9=58|35=0|49=FIXCLIENT1|56=DMA_HUB|34=236|52=20231108-12:40:42|10=090|
2023-11-08 13:40:52.882 [33] [FixSender] (DEBUG) Receiving 8=FIX.4.4|9=62|35=0|34=244|49=DMA_HUB|56=FIXCLIENT1|52=20231108-12:40:52.882|10=037|
2023-11-08 13:41:12.623 [34] [FixSender] (DEBUG) Sending 8=FIX.4.4|9=58|35=0|49=FIXCLIENT1|56=DMA_HUB|34=237|52=20231108-12:41:12|10=089|
2023-11-08 13:41:22.833 [33] [FixSender] (DEBUG) Receiving 8=FIX.4.4|9=62|35=0|34=245|49=DMA_HUB|56=FIXCLIENT1|52=20231108-12:41:22.833|10=032|
2023-11-08 13:41:42.625 [34] [FixSender] (DEBUG) Sending 8=FIX.4.4|9=58|35=0|49=FIXCLIENT1|56=DMA_HUB|34=238|52=20231108-12:41:42|10=093|
2023-11-08 13:41:52.786 [33] [FixSender] (DEBUG) Receiving 8=FIX.4.4|9=62|35=0|34=246|49=DMA_HUB|56=FIXCLIENT1|52=20231108-12:41:52.786|10=043|
2023-11-08 13:42:12.627 [34] [FixSender] (DEBUG) Sending 8=FIX.4.4|9=58|35=0|49=FIXCLIENT1|56=DMA_HUB|34=239|52=20231108-12:42:12|10=092|
2023-11-08 13:42:22.738 [33] [FixSender] (DEBUG) Receiving 8=FIX.4.4|9=62|35=0|34=247|49=DMA_HUB|56=FIXCLIENT1|52=20231108-12:42:22.738|10=039|
2023-11-08 13:42:42.628 [34] [FixSender] (DEBUG) Sending 8=FIX.4.4|9=58|35=0|49=FIXCLIENT1|56=DMA_HUB|34=240|52=20231108-12:42:42|10=087|
2023-11-08 13:42:52.690 [33] [FixSender] (DEBUG) Receiving 8=FIX.4.4|9=62|35=0|34=248|49=DMA_HUB|56=FIXCLIENT1|52=20231108-12:42:52.689|10=048|
2023-11-08 13:43:12.628 [34] [FixSender] (DEBUG) Sending 8=FIX.4.4|9=58|35=0|49=FIXCLIENT1|56=DMA_HUB|34=241|52=20231108-12:43:12|10=086|
2023-11-08 13:43:22.643 [33] [FixSender] (DEBUG) Receiving 8=FIX.4.4|9=62|35=0|34=249|49=DMA_HUB|56=FIXCLIENT1|52=20231108-12:43:22.642|10=036|
2023-11-08 13:43:42.630 [34] [FixSender] (DEBUG) Sending 8=FIX.4.4|9=58|35=0|49=FIXCLIENT1|56=DMA_HUB|34=242|52=20231108-12:43:42|10=090|
2023-11-08 13:43:52.593 [33] [FixSender] (DEBUG) Receiving 8=FIX.4.4|9=62|35=0|34=250|49=DMA_HUB|56=FIXCLIENT1|52=20231108-12:43:52.593|10=036|
2023-11-08 13:44:12.631 [34] [FixSender] (DEBUG) Sending 8=FIX.4.4|9=58|35=0|49=FIXCLIENT1|56=DMA_HUB|34=243|52=20231108-12:44:12|10=089|
2023-11-08 13:44:22.546 [33] [FixSender] (DEBUG) Receiving 8=FIX.4.4|9=62|35=0|34=251|49=DMA_HUB|56=FIXCLIENT1|52=20231108-12:44:22.546|10=033|
2023-11-08 13:44:42.634 [34] [FixSender] (DEBUG) Sending 8=FIX.4.4|9=58|35=0|49=FIXCLIENT1|56=DMA_HUB|34=244|52=20231108-12:44:42|10=093|
2023-11-08 13:44:52.498 [33] [FixSender] (DEBUG) Receiving 8=FIX.4.4|9=62|35=0|34=252|49=DMA_HUB|56=FIXCLIENT1|52=20231108-12:44:52.498|10=043|
2023-11-08 13:45:12.636 [34] [FixSender] (DEBUG) Sending 8=FIX.4.4|9=58|35=0|49=FIXCLIENT1|56=DMA_HUB|34=245|52=20231108-12:45:12|10=092|
2023-11-08 13:45:22.449 [33] [FixSender] (DEBUG) Receiving 8=FIX.4.4|9=62|35=0|34=253|49=DMA_HUB|56=FIXCLIENT1|52=20231108-12:45:22.449|10=038|
2023-11-08 13:45:42.638 [34] [FixSender] (DEBUG) Sending 8=FIX.4.4|9=58|35=0|49=FIXCLIENT1|56=DMA_HUB|34=246|52=20231108-12:45:42|10=096|
2023-11-08 13:45:52.402 [33] [FixSender] (DEBUG) Receiving 8=FIX.4.4|9=62|35=0|34=254|49=DMA_HUB|56=FIXCLIENT1|52=20231108-12:45:52.402|10=031|
2023-11-08 13:46:12.646 [34] [FixSender] (DEBUG) Sending 8=FIX.4.4|9=58|35=0|49=FIXCLIENT1|56=DMA_HUB|34=247|52=20231108-12:46:12|10=095|
2023-11-08 13:46:22.353 [33] [FixSender] (DEBUG) Receiving 8=FIX.4.4|9=62|35=0|34=255|49=DMA_HUB|56=FIXCLIENT1|52=20231108-12:46:22.353|10=035|
2023-11-08 13:46:42.648 [34] [FixSender] (DEBUG) Sending 8=FIX.4.4|9=58|35=0|49=FIXCLIENT1|56=DMA_HUB|34=248|52=20231108-12:46:42|10=099|
2023-11-08 13:46:52.306 [33] [FixSender] (DEBUG) Receiving 8=FIX.4.4|9=62|35=0|34=256|49=DMA_HUB|56=FIXCLIENT1|52=20231108-12:46:52.306|10=037|
2023-11-08 13:47:12.656 [34] [FixSender] (DEBUG) Sending 8=FIX.4.4|9=58|35=0|49=FIXCLIENT1|56=DMA_HUB|34=249|52=20231108-12:47:12|10=098|
2023-11-08 13:47:22.257 [33] [FixSender] (DEBUG) Receiving 8=FIX.4.4|9=62|35=0|34=257|49=DMA_HUB|56=FIXCLIENT1|52=20231108-12:47:22.257|10=041|
2023-11-08 13:47:42.656 [34] [FixSender] (DEBUG) Sending 8=FIX.4.4|9=58|35=0|49=FIXCLIENT1|56=DMA_HUB|34=250|52=20231108-12:47:42|10=093|
2023-11-08 13:47:52.211 [33] [FixSender] (DEBUG) Receiving 8=FIX.4.4|9=62|35=0|34=258|49=DMA_HUB|56=FIXCLIENT1|52=20231108-12:47:52.210|10=034|
2023-11-08 13:48:12.666 [34] [FixSender] (DEBUG) Sending 8=FIX.4.4|9=58|35=0|49=FIXCLIENT1|56=DMA_HUB|34=251|52=20231108-12:48:12|10=092|
2023-11-08 13:48:22.162 [33] [FixSender] (DEBUG) Receiving 8=FIX.4.4|9=62|35=0|34=259|49=DMA_HUB|56=FIXCLIENT1|52=20231108-12:48:22.162|10=039|
2023-11-08 13:48:42.669 [34] [FixSender] (DEBUG) Sending 8=FIX.4.4|9=58|35=0|49=FIXCLIENT1|56=DMA_HUB|34=252|52=20231108-12:48:42|10=096|
2023-11-08 13:48:52.113 [33] [FixSender] (DEBUG) Receiving 8=FIX.4.4|9=62|35=0|34=260|49=DMA_HUB|56=FIXCLIENT1|52=20231108-12:48:52.113|10=030|
2023-11-08 13:49:12.669 [34] [FixSender] (DEBUG) Sending 8=FIX.4.4|9=58|35=0|49=FIXCLIENT1|56=DMA_HUB|34=253|52=20231108-12:49:12|10=095|
2023-11-08 13:49:22.066 [33] [FixSender] (DEBUG) Receiving 8=FIX.4.4|9=62|35=0|34=261|49=DMA_HUB|56=FIXCLIENT1|52=20231108-12:49:22.066|10=036|
2023-11-08 13:49:42.670 [34] [FixSender] (DEBUG) Sending 8=FIX.4.4|9=58|35=0|49=FIXCLIENT1|56=DMA_HUB|34=254|52=20231108-12:49:42|10=099|
2023-11-08 13:49:52.018 [33] [FixSender] (DEBUG) Receiving 8=FIX.4.4|9=62|35=0|34=262|49=DMA_HUB|56=FIXCLIENT1|52=20231108-12:49:52.018|10=037|
2023-11-08 13:50:12.673 [34] [FixSender] (DEBUG) Sending 8=FIX.4.4|9=58|35=0|49=FIXCLIENT1|56=DMA_HUB|34=255|52=20231108-12:50:12|10=089|
2023-11-08 13:50:21.970 [33] [FixSender] (DEBUG) Receiving 8=FIX.4.4|9=62|35=0|34=263|49=DMA_HUB|56=FIXCLIENT1|52=20231108-12:50:21.970|10=033|
2023-11-08 13:50:42.675 [34] [FixSender] (DEBUG) Sending 8=FIX.4.4|9=58|35=0|49=FIXCLIENT1|56=DMA_HUB|34=256|52=20231108-12:50:42|10=093|
2023-11-08 13:50:51.921 [33] [FixSender] (DEBUG) Receiving 8=FIX.4.4|9=62|35=0|34=264|49=DMA_HUB|56=FIXCLIENT1|52=20231108-12:50:51.921|10=033|
2023-11-08 13:51:12.676 [34] [FixSender] (DEBUG) Sending 8=FIX.4.4|9=58|35=0|49=FIXCLIENT1|56=DMA_HUB|34=257|52=20231108-12:51:12|10=092|
2023-11-08 13:51:21.875 [33] [FixSender] (DEBUG) Receiving 8=FIX.4.4|9=62|35=0|34=265|49=DMA_HUB|56=FIXCLIENT1|52=20231108-12:51:21.874|10=039|
2023-11-08 13:51:42.677 [34] [FixSender] (DEBUG) Sending 8=FIX.4.4|9=58|35=0|49=FIXCLIENT1|56=DMA_HUB|34=258|52=20231108-12:51:42|10=096|
2023-11-08 13:51:51.826 [33] [FixSender] (DEBUG) Receiving 8=FIX.4.4|9=62|35=0|34=266|49=DMA_HUB|56=FIXCLIENT1|52=20231108-12:51:51.825|10=039|
2023-11-08 13:52:12.678 [34] [FixSender] (DEBUG) Sending 8=FIX.4.4|9=58|35=0|49=FIXCLIENT1|56=DMA_HUB|34=259|52=20231108-12:52:12|10=095|
2023-11-08 13:52:21.778 [33] [FixSender] (DEBUG) Receiving 8=FIX.4.4|9=62|35=0|34=267|49=DMA_HUB|56=FIXCLIENT1|52=20231108-12:52:21.778|10=045|
2023-11-08 13:52:42.681 [34] [FixSender] (DEBUG) Sending 8=FIX.4.4|9=58|35=0|49=FIXCLIENT1|56=DMA_HUB|34=260|52=20231108-12:52:42|10=090|
2023-11-08 13:52:51.729 [33] [FixSender] (DEBUG) Receiving 8=FIX.4.4|9=62|35=0|34=268|49=DMA_HUB|56=FIXCLIENT1|52=20231108-12:52:51.729|10=045|
2023-11-08 13:53:12.683 [34] [FixSender] (DEBUG) Sending 8=FIX.4.4|9=58|35=0|49=FIXCLIENT1|56=DMA_HUB|34=261|52=20231108-12:53:12|10=089|
2023-11-08 13:53:21.681 [33] [FixSender] (DEBUG) Receiving 8=FIX.4.4|9=62|35=0|34=269|49=DMA_HUB|56=FIXCLIENT1|52=20231108-12:53:21.681|10=041|
2023-11-08 13:53:42.684 [34] [FixSender] (DEBUG) Sending 8=FIX.4.4|9=58|35=0|49=FIXCLIENT1|56=DMA_HUB|34=262|52=20231108-12:53:42|10=093|
2023-11-08 13:53:51.634 [33] [FixSender] (DEBUG) Receiving 8=FIX.4.4|9=62|35=0|34=270|49=DMA_HUB|56=FIXCLIENT1|52=20231108-12:53:51.634|10=034|
2023-11-08 13:54:12.685 [34] [FixSender] (DEBUG) Sending 8=FIX.4.4|9=58|35=0|49=FIXCLIENT1|56=DMA_HUB|34=263|52=20231108-12:54:12|10=092|
2023-11-08 13:54:21.585 [33] [FixSender] (DEBUG) Receiving 8=FIX.4.4|9=62|35=0|34=271|49=DMA_HUB|56=FIXCLIENT1|52=20231108-12:54:21.585|10=038|
2023-11-08 13:54:42.706 [34] [FixSender] (DEBUG) Sending 8=FIX.4.4|9=58|35=0|49=FIXCLIENT1|56=DMA_HUB|34=264|52=20231108-12:54:42|10=096|
2023-11-08 13:54:51.538 [33] [FixSender] (DEBUG) Receiving 8=FIX.4.4|9=62|35=0|34=272|49=DMA_HUB|56=FIXCLIENT1|52=20231108-12:54:51.538|10=040|
2023-11-08 13:55:12.710 [34] [FixSender] (DEBUG) Sending 8=FIX.4.4|9=58|35=0|49=FIXCLIENT1|56=DMA_HUB|34=265|52=20231108-12:55:12|10=095|
2023-11-08 13:55:21.490 [33] [FixSender] (DEBUG) Receiving 8=FIX.4.4|9=62|35=0|34=273|49=DMA_HUB|56=FIXCLIENT1|52=20231108-12:55:21.490|10=036|
2023-11-08 13:55:42.714 [34] [FixSender] (DEBUG) Sending 8=FIX.4.4|9=58|35=0|49=FIXCLIENT1|56=DMA_HUB|34=266|52=20231108-12:55:42|10=099|
2023-11-08 13:55:51.441 [33] [FixSender] (DEBUG) Receiving 8=FIX.4.4|9=62|35=0|34=274|49=DMA_HUB|56=FIXCLIENT1|52=20231108-12:55:51.441|10=036|
2023-11-08 13:56:12.715 [34] [FixSender] (DEBUG) Sending 8=FIX.4.4|9=58|35=0|49=FIXCLIENT1|56=DMA_HUB|34=267|52=20231108-12:56:12|10=098|
2023-11-08 13:56:21.394 [33] [FixSender] (DEBUG) Receiving 8=FIX.4.4|9=62|35=0|34=275|49=DMA_HUB|56=FIXCLIENT1|52=20231108-12:56:21.394|10=042|
2023-11-08 13:56:42.729 [34] [FixSender] (DEBUG) Sending 8=FIX.4.4|9=58|35=0|49=FIXCLIENT1|56=DMA_HUB|34=268|52=20231108-12:56:42|10=102|
2023-11-08 13:56:51.345 [33] [FixSender] (DEBUG) Receiving 8=FIX.4.4|9=62|35=0|34=276|49=DMA_HUB|56=FIXCLIENT1|52=20231108-12:56:51.345|10=042|
2023-11-08 13:57:12.729 [34] [FixSender] (DEBUG) Sending 8=FIX.4.4|9=58|35=0|49=FIXCLIENT1|56=DMA_HUB|34=269|52=20231108-12:57:12|10=101|
2023-11-08 13:57:21.298 [33] [FixSender] (DEBUG) Receiving 8=FIX.4.4|9=62|35=0|34=277|49=DMA_HUB|56=FIXCLIENT1|52=20231108-12:57:21.298|10=048|
2023-11-08 13:57:42.732 [34] [FixSender] (DEBUG) Sending 8=FIX.4.4|9=58|35=0|49=FIXCLIENT1|56=DMA_HUB|34=270|52=20231108-12:57:42|10=096|
2023-11-08 13:57:51.249 [33] [FixSender] (DEBUG) Receiving 8=FIX.4.4|9=62|35=0|34=278|49=DMA_HUB|56=FIXCLIENT1|52=20231108-12:57:51.249|10=048|
2023-11-08 13:58:12.733 [34] [FixSender] (DEBUG) Sending 8=FIX.4.4|9=58|35=0|49=FIXCLIENT1|56=DMA_HUB|34=271|52=20231108-12:58:12|10=095|
2023-11-08 13:58:21.201 [33] [FixSender] (DEBUG) Receiving 8=FIX.4.4|9=62|35=0|34=279|49=DMA_HUB|56=FIXCLIENT1|52=20231108-12:58:21.201|10=035|
2023-11-08 13:58:42.786 [34] [FixSender] (DEBUG) Sending 8=FIX.4.4|9=58|35=0|49=FIXCLIENT1|56=DMA_HUB|34=272|52=20231108-12:58:42|10=099|
2023-11-08 13:58:51.153 [33] [FixSender] (DEBUG) Receiving 8=FIX.4.4|9=62|35=0|34=280|49=DMA_HUB|56=FIXCLIENT1|52=20231108-12:58:51.153|10=036|
2023-11-08 13:59:12.787 [34] [FixSender] (DEBUG) Sending 8=FIX.4.4|9=58|35=0|49=FIXCLIENT1|56=DMA_HUB|34=273|52=20231108-12:59:12|10=098|
2023-11-08 13:59:21.105 [33] [FixSender] (DEBUG) Receiving 8=FIX.4.4|9=62|35=0|34=281|49=DMA_HUB|56=FIXCLIENT1|52=20231108-12:59:21.105|10=032|
2023-11-08 13:59:42.789 [34] [FixSender] (DEBUG) Sending 8=FIX.4.4|9=58|35=0|49=FIXCLIENT1|56=DMA_HUB|34=274|52=20231108-12:59:42|10=102|
2023-11-08 13:59:51.059 [33] [FixSender] (DEBUG) Receiving 8=FIX.4.4|9=62|35=0|34=282|49=DMA_HUB|56=FIXCLIENT1|52=20231108-12:59:51.058|10=043|
2023-11-08 14:00:12.791 [34] [FixSender] (DEBUG) Sending 8=FIX.4.4|9=58|35=0|49=FIXCLIENT1|56=DMA_HUB|34=275|52=20231108-13:00:12|10=087|
2023-11-08 14:00:21.019 [33] [FixSender] (DEBUG) Receiving 8=FIX.4.4|9=62|35=0|34=283|49=DMA_HUB|56=FIXCLIENT1|52=20231108-13:00:21.018|10=024|
2023-11-08 14:00:42.792 [34] [FixSender] (DEBUG) Sending 8=FIX.4.4|9=58|35=0|49=FIXCLIENT1|56=DMA_HUB|34=276|52=20231108-13:00:42|10=091|
2023-11-08 14:00:50.961 [33] [FixSender] (DEBUG) Receiving 8=FIX.4.4|9=62|35=0|34=284|49=DMA_HUB|56=FIXCLIENT1|52=20231108-13:00:50.961|10=034|
2023-11-08 14:01:12.793 [34] [FixSender] (DEBUG) Sending 8=FIX.4.4|9=58|35=0|49=FIXCLIENT1|56=DMA_HUB|34=277|52=20231108-13:01:12|10=090|
2023-11-08 14:01:20.913 [33] [FixSender] (DEBUG) Receiving 8=FIX.4.4|9=62|35=0|34=285|49=DMA_HUB|56=FIXCLIENT1|52=20231108-13:01:20.913|10=030|
2023-11-08 14:01:42.795 [34] [FixSender] (DEBUG) Sending 8=FIX.4.4|9=58|35=0|49=FIXCLIENT1|56=DMA_HUB|34=278|52=20231108-13:01:42|10=094|
2023-11-08 14:01:50.866 [33] [FixSender] (DEBUG) Receiving 8=FIX.4.4|9=62|35=0|34=286|49=DMA_HUB|56=FIXCLIENT1|52=20231108-13:01:50.866|10=041|
2023-11-08 14:02:12.796 [34] [FixSender] (DEBUG) Sending 8=FIX.4.4|9=58|35=0|49=FIXCLIENT1|56=DMA_HUB|34=279|52=20231108-13:02:12|10=093|
2023-11-08 14:02:20.818 [33] [FixSender] (DEBUG) Receiving 8=FIX.4.4|9=62|35=0|34=287|49=DMA_HUB|56=FIXCLIENT1|52=20231108-13:02:20.818|10=037|
2023-11-08 14:02:42.799 [34] [FixSender] (DEBUG) Sending 8=FIX.4.4|9=58|35=0|49=FIXCLIENT1|56=DMA_HUB|34=280|52=20231108-13:02:42|10=088|
2023-11-08 14:02:50.770 [33] [FixSender] (DEBUG) Receiving 8=FIX.4.4|9=62|35=0|34=288|49=DMA_HUB|56=FIXCLIENT1|52=20231108-13:02:50.770|10=038|
2023-11-08 14:03:12.801 [34] [FixSender] (DEBUG) Sending 8=FIX.4.4|9=58|35=0|49=FIXCLIENT1|56=DMA_HUB|34=281|52=20231108-13:03:12|10=087|
2023-11-08 14:03:20.722 [33] [FixSender] (DEBUG) Receiving 8=FIX.4.4|9=62|35=0|34=289|49=DMA_HUB|56=FIXCLIENT1|52=20231108-13:03:20.722|10=034|
2023-11-08 14:03:42.802 [34] [FixSender] (DEBUG) Sending 8=FIX.4.4|9=58|35=0|49=FIXCLIENT1|56=DMA_HUB|34=282|52=20231108-13:03:42|10=091|
2023-11-08 14:03:50.674 [33] [FixSender] (DEBUG) Receiving 8=FIX.4.4|9=62|35=0|34=290|49=DMA_HUB|56=FIXCLIENT1|52=20231108-13:03:50.674|10=035|
2023-11-08 14:04:12.804 [34] [FixSender] (DEBUG) Sending 8=FIX.4.4|9=58|35=0|49=FIXCLIENT1|56=DMA_HUB|34=283|52=20231108-13:04:12|10=090|
2023-11-08 14:04:20.625 [33] [FixSender] (DEBUG) Receiving 8=FIX.4.4|9=62|35=0|34=291|49=DMA_HUB|56=FIXCLIENT1|52=20231108-13:04:20.625|10=030|
2023-11-08 14:04:42.804 [34] [FixSender] (DEBUG) Sending 8=FIX.4.4|9=58|35=0|49=FIXCLIENT1|56=DMA_HUB|34=284|52=20231108-13:04:42|10=094|
2023-11-08 14:04:50.577 [33] [FixSender] (DEBUG) Receiving 8=FIX.4.4|9=62|35=0|34=292|49=DMA_HUB|56=FIXCLIENT1|52=20231108-13:04:50.577|10=040|
2023-11-08 14:05:12.806 [34] [FixSender] (DEBUG) Sending 8=FIX.4.4|9=58|35=0|49=FIXCLIENT1|56=DMA_HUB|34=285|52=20231108-13:05:12|10=093|
2023-11-08 14:05:20.529 [33] [FixSender] (DEBUG) Receiving 8=FIX.4.4|9=62|35=0|34=293|49=DMA_HUB|56=FIXCLIENT1|52=20231108-13:05:20.529|10=036|
2023-11-08 14:05:42.820 [34] [FixSender] (DEBUG) Sending 8=FIX.4.4|9=58|35=0|49=FIXCLIENT1|56=DMA_HUB|34=286|52=20231108-13:05:42|10=097|
2023-11-08 14:05:50.482 [33] [FixSender] (DEBUG) Receiving 8=FIX.4.4|9=62|35=0|34=294|49=DMA_HUB|56=FIXCLIENT1|52=20231108-13:05:50.482|10=038|
2023-11-08 14:06:12.825 [34] [FixSender] (DEBUG) Sending 8=FIX.4.4|9=58|35=0|49=FIXCLIENT1|56=DMA_HUB|34=287|52=20231108-13:06:12|10=096|
2023-11-08 14:06:20.436 [33] [FixSender] (DEBUG) Receiving 8=FIX.4.4|9=62|35=0|34=295|49=DMA_HUB|56=FIXCLIENT1|52=20231108-13:06:20.434|10=034|
2023-11-08 14:06:42.826 [34] [FixSender] (DEBUG) Sending 8=FIX.4.4|9=58|35=0|49=FIXCLIENT1|56=DMA_HUB|34=288|52=20231108-13:06:42|10=100|
2023-11-08 14:06:50.385 [33] [FixSender] (DEBUG) Receiving 8=FIX.4.4|9=62|35=0|34=296|49=DMA_HUB|56=FIXCLIENT1|52=20231108-13:06:50.385|10=043|
2023-11-08 14:07:12.827 [34] [FixSender] (DEBUG) Sending 8=FIX.4.4|9=58|35=0|49=FIXCLIENT1|56=DMA_HUB|34=289|52=20231108-13:07:12|10=099|
2023-11-08 14:07:20.338 [33] [FixSender] (DEBUG) Receiving 8=FIX.4.4|9=62|35=0|34=297|49=DMA_HUB|56=FIXCLIENT1|52=20231108-13:07:20.338|10=040|
2023-11-08 14:07:42.828 [34] [FixSender] (DEBUG) Sending 8=FIX.4.4|9=58|35=0|49=FIXCLIENT1|56=DMA_HUB|34=290|52=20231108-13:07:42|10=094|
2023-11-08 14:07:50.289 [33] [FixSender] (DEBUG) Receiving 8=FIX.4.4|9=62|35=0|34=298|49=DMA_HUB|56=FIXCLIENT1|52=20231108-13:07:50.289|10=049|
2023-11-08 14:08:12.832 [34] [FixSender] (DEBUG) Sending 8=FIX.4.4|9=58|35=0|49=FIXCLIENT1|56=DMA_HUB|34=291|52=20231108-13:08:12|10=093|
2023-11-08 14:08:20.242 [33] [FixSender] (DEBUG) Receiving 8=FIX.4.4|9=62|35=0|34=299|49=DMA_HUB|56=FIXCLIENT1|52=20231108-13:08:20.241|10=036|
2023-11-08 14:08:42.833 [34] [FixSender] (DEBUG) Sending 8=FIX.4.4|9=58|35=0|49=FIXCLIENT1|56=DMA_HUB|34=292|52=20231108-13:08:42|10=097|
2023-11-08 14:08:50.193 [33] [FixSender] (DEBUG) Receiving 8=FIX.4.4|9=62|35=0|34=300|49=DMA_HUB|56=FIXCLIENT1|52=20231108-13:08:50.193|10=028|
2023-11-08 14:09:12.834 [34] [FixSender] (DEBUG) Sending 8=FIX.4.4|9=58|35=0|49=FIXCLIENT1|56=DMA_HUB|34=293|52=20231108-13:09:12|10=096|
2023-11-08 14:09:20.145 [33] [FixSender] (DEBUG) Receiving 8=FIX.4.4|9=62|35=0|34=301|49=DMA_HUB|56=FIXCLIENT1|52=20231108-13:09:20.145|10=024|
2023-11-08 14:09:42.835 [34] [FixSender] (DEBUG) Sending 8=FIX.4.4|9=58|35=0|49=FIXCLIENT1|56=DMA_HUB|34=294|52=20231108-13:09:42|10=100|
2023-11-08 14:09:50.098 [33] [FixSender] (DEBUG) Receiving 8=FIX.4.4|9=62|35=0|34=302|49=DMA_HUB|56=FIXCLIENT1|52=20231108-13:09:50.097|10=034|
2023-11-08 14:10:12.838 [34] [FixSender] (DEBUG) Sending 8=FIX.4.4|9=58|35=0|49=FIXCLIENT1|56=DMA_HUB|34=295|52=20231108-13:10:12|10=090|
2023-11-08 14:10:20.050 [33] [FixSender] (DEBUG) Receiving 8=FIX.4.4|9=62|35=0|34=303|49=DMA_HUB|56=FIXCLIENT1|52=20231108-13:10:20.050|10=013|
2023-11-08 14:10:42.839 [34] [FixSender] (DEBUG) Sending 8=FIX.4.4|9=58|35=0|49=FIXCLIENT1|56=DMA_HUB|34=296|52=20231108-13:10:42|10=094|
2023-11-08 14:10:50.002 [33] [FixSender] (DEBUG) Receiving 8=FIX.4.4|9=62|35=0|34=304|49=DMA_HUB|56=FIXCLIENT1|52=20231108-13:10:50.001|10=013|
2023-11-08 14:11:12.841 [34] [FixSender] (DEBUG) Sending 8=FIX.4.4|9=58|35=0|49=FIXCLIENT1|56=DMA_HUB|34=297|52=20231108-13:11:12|10=093|
2023-11-08 14:11:19.954 [33] [FixSender] (DEBUG) Receiving 8=FIX.4.4|9=62|35=0|34=305|49=DMA_HUB|56=FIXCLIENT1|52=20231108-13:11:19.954|10=037|
2023-11-08 14:11:42.844 [34] [FixSender] (DEBUG) Sending 8=FIX.4.4|9=58|35=0|49=FIXCLIENT1|56=DMA_HUB|34=298|52=20231108-13:11:42|10=097|
2023-11-08 14:11:49.906 [33] [FixSender] (DEBUG) Receiving 8=FIX.4.4|9=62|35=0|34=306|49=DMA_HUB|56=FIXCLIENT1|52=20231108-13:11:49.906|10=038|
2023-11-08 14:12:12.846 [34] [FixSender] (DEBUG) Sending 8=FIX.4.4|9=58|35=0|49=FIXCLIENT1|56=DMA_HUB|34=299|52=20231108-13:12:12|10=096|
2023-11-08 14:12:19.858 [33] [FixSender] (DEBUG) Receiving 8=FIX.4.4|9=62|35=0|34=307|49=DMA_HUB|56=FIXCLIENT1|52=20231108-13:12:19.858|10=043|
2023-11-08 14:12:42.849 [34] [FixSender] (DEBUG) Sending 8=FIX.4.4|9=58|35=0|49=FIXCLIENT1|56=DMA_HUB|34=300|52=20231108-13:12:42|10=082|
2023-11-08 14:12:49.809 [33] [FixSender] (DEBUG) Receiving 8=FIX.4.4|9=62|35=0|34=308|49=DMA_HUB|56=FIXCLIENT1|52=20231108-13:12:49.809|10=043|
2023-11-08 14:13:12.880 [34] [FixSender] (DEBUG) Sending 8=FIX.4.4|9=58|35=0|49=FIXCLIENT1|56=DMA_HUB|34=301|52=20231108-13:13:12|10=081|
2023-11-08 14:13:19.762 [33] [FixSender] (DEBUG) Receiving 8=FIX.4.4|9=62|35=0|34=309|49=DMA_HUB|56=FIXCLIENT1|52=20231108-13:13:19.762|10=040|
2023-11-08 14:13:42.893 [34] [FixSender] (DEBUG) Sending 8=FIX.4.4|9=58|35=0|49=FIXCLIENT1|56=DMA_HUB|34=302|52=20231108-13:13:42|10=085|
2023-11-08 14:13:49.714 [33] [FixSender] (DEBUG) Receiving 8=FIX.4.4|9=62|35=0|34=310|49=DMA_HUB|56=FIXCLIENT1|52=20231108-13:13:49.714|10=032|
2023-11-08 14:14:12.896 [34] [FixSender] (DEBUG) Sending 8=FIX.4.4|9=58|35=0|49=FIXCLIENT1|56=DMA_HUB|34=303|52=20231108-13:14:12|10=084|
2023-11-08 14:14:19.665 [33] [FixSender] (DEBUG) Receiving 8=FIX.4.4|9=62|35=0|34=311|49=DMA_HUB|56=FIXCLIENT1|52=20231108-13:14:19.665|10=036|
2023-11-08 14:14:42.899 [34] [FixSender] (DEBUG) Sending 8=FIX.4.4|9=58|35=0|49=FIXCLIENT1|56=DMA_HUB|34=304|52=20231108-13:14:42|10=088|
2023-11-08 14:14:49.617 [33] [FixSender] (DEBUG) Receiving 8=FIX.4.4|9=62|35=0|34=312|49=DMA_HUB|56=FIXCLIENT1|52=20231108-13:14:49.617|10=037|
2023-11-08 14:15:12.901 [34] [FixSender] (DEBUG) Sending 8=FIX.4.4|9=58|35=0|49=FIXCLIENT1|56=DMA_HUB|34=305|52=20231108-13:15:12|10=087|
2023-11-08 14:15:19.570 [33] [FixSender] (DEBUG) Receiving 8=FIX.4.4|9=62|35=0|34=313|49=DMA_HUB|56=FIXCLIENT1|52=20231108-13:15:19.570|10=034|
2023-11-08 14:15:42.904 [34] [FixSender] (DEBUG) Sending 8=FIX.4.4|9=58|35=0|49=FIXCLIENT1|56=DMA_HUB|34=306|52=20231108-13:15:42|10=091|
2023-11-08 14:15:49.524 [33] [FixSender] (DEBUG) Receiving 8=FIX.4.4|9=62|35=0|34=314|49=DMA_HUB|56=FIXCLIENT1|52=20231108-13:15:49.522|10=035|
2023-11-08 14:16:12.905 [34] [FixSender] (DEBUG) Sending 8=FIX.4.4|9=58|35=0|49=FIXCLIENT1|56=DMA_HUB|34=307|52=20231108-13:16:12|10=090|
2023-11-08 14:16:19.473 [33] [FixSender] (DEBUG) Receiving 8=FIX.4.4|9=62|35=0|34=315|49=DMA_HUB|56=FIXCLIENT1|52=20231108-13:16:19.473|10=039|
2023-11-08 14:16:42.908 [34] [FixSender] (DEBUG) Sending 8=FIX.4.4|9=58|35=0|49=FIXCLIENT1|56=DMA_HUB|34=308|52=20231108-13:16:42|10=094|
2023-11-08 14:16:49.426 [33] [FixSender] (DEBUG) Receiving 8=FIX.4.4|9=62|35=0|34=316|49=DMA_HUB|56=FIXCLIENT1|52=20231108-13:16:49.426|10=041|
2023-11-08 14:17:12.912 [34] [FixSender] (DEBUG) Sending 8=FIX.4.4|9=58|35=0|49=FIXCLIENT1|56=DMA_HUB|34=309|52=20231108-13:17:12|10=093|
2023-11-08 14:17:19.378 [33] [FixSender] (DEBUG) Receiving 8=FIX.4.4|9=62|35=0|34=317|49=DMA_HUB|56=FIXCLIENT1|52=20231108-13:17:19.378|10=046|
2023-11-08 14:17:42.912 [34] [FixSender] (DEBUG) Sending 8=FIX.4.4|9=58|35=0|49=FIXCLIENT1|56=DMA_HUB|34=310|52=20231108-13:17:42|10=088|
2023-11-08 14:17:49.330 [33] [FixSender] (DEBUG) Receiving 8=FIX.4.4|9=62|35=0|34=318|49=DMA_HUB|56=FIXCLIENT1|52=20231108-13:17:49.330|10=038|
2023-11-08 14:18:12.916 [34] [FixSender] (DEBUG) Sending 8=FIX.4.4|9=58|35=0|49=FIXCLIENT1|56=DMA_HUB|34=311|52=20231108-13:18:12|10=087|
2023-11-08 14:18:19.283 [33] [FixSender] (DEBUG) Receiving 8=FIX.4.4|9=62|35=0|34=319|49=DMA_HUB|56=FIXCLIENT1|52=20231108-13:18:19.282|10=043|
2023-11-08 14:18:42.919 [34] [FixSender] (DEBUG) Sending 8=FIX.4.4|9=58|35=0|49=FIXCLIENT1|56=DMA_HUB|34=312|52=20231108-13:18:42|10=091|
2023-11-08 14:18:49.233 [33] [FixSender] (DEBUG) Receiving 8=FIX.4.4|9=62|35=0|34=320|49=DMA_HUB|56=FIXCLIENT1|52=20231108-13:18:49.233|10=034|
2023-11-08 14:19:12.921 [34] [FixSender] (DEBUG) Sending 8=FIX.4.4|9=58|35=0|49=FIXCLIENT1|56=DMA_HUB|34=313|52=20231108-13:19:12|10=090|
2023-11-08 14:19:19.186 [33] [FixSender] (DEBUG) Receiving 8=FIX.4.4|9=62|35=0|34=321|49=DMA_HUB|56=FIXCLIENT1|52=20231108-13:19:19.186|10=040|
2023-11-08 14:19:42.922 [34] [FixSender] (DEBUG) Sending 8=FIX.4.4|9=58|35=0|49=FIXCLIENT1|56=DMA_HUB|34=314|52=20231108-13:19:42|10=094|
2023-11-08 14:19:49.137 [33] [FixSender] (DEBUG) Receiving 8=FIX.4.4|9=62|35=0|34=322|49=DMA_HUB|56=FIXCLIENT1|52=20231108-13:19:49.137|10=040|
2023-11-08 14:20:12.924 [34] [FixSender] (DEBUG) Sending 8=FIX.4.4|9=58|35=0|49=FIXCLIENT1|56=DMA_HUB|34=315|52=20231108-13:20:12|10=084|
2023-11-08 14:20:19.090 [33] [FixSender] (DEBUG) Receiving 8=FIX.4.4|9=62|35=0|34=323|49=DMA_HUB|56=FIXCLIENT1|52=20231108-13:20:19.090|10=028|
2023-11-08 14:20:42.934 [34] [FixSender] (DEBUG) Sending 8=FIX.4.4|9=58|35=0|49=FIXCLIENT1|56=DMA_HUB|34=316|52=20231108-13:20:42|10=088|
2023-11-08 14:20:49.042 [33] [FixSender] (DEBUG) Receiving 8=FIX.4.4|9=62|35=0|34=324|49=DMA_HUB|56=FIXCLIENT1|52=20231108-13:20:49.042|10=029|
2023-11-08 14:21:12.936 [34] [FixSender] (DEBUG) Sending 8=FIX.4.4|9=58|35=0|49=FIXCLIENT1|56=DMA_HUB|34=317|52=20231108-13:21:12|10=087|
2023-11-08 14:21:18.993 [33] [FixSender] (DEBUG) Receiving 8=FIX.4.4|9=62|35=0|34=325|49=DMA_HUB|56=FIXCLIENT1|52=20231108-13:21:18.993|10=042|
2023-11-08 14:21:42.937 [34] [FixSender] (DEBUG) Sending 8=FIX.4.4|9=58|35=0|49=FIXCLIENT1|56=DMA_HUB|34=318|52=20231108-13:21:42|10=091|
2023-11-08 14:21:48.946 [33] [FixSender] (DEBUG) Receiving 8=FIX.4.4|9=62|35=0|34=326|49=DMA_HUB|56=FIXCLIENT1|52=20231108-13:21:48.946|10=044|
2023-11-08 14:22:12.945 [34] [FixSender] (DEBUG) Sending 8=FIX.4.4|9=58|35=0|49=FIXCLIENT1|56=DMA_HUB|34=319|52=20231108-13:22:12|10=090|
2023-11-08 14:22:18.897 [33] [FixSender] (DEBUG) Receiving 8=FIX.4.4|9=62|35=0|34=327|49=DMA_HUB|56=FIXCLIENT1|52=20231108-13:22:18.897|10=048|
2023-11-08 14:22:42.946 [34] [FixSender] (DEBUG) Sending 8=FIX.4.4|9=58|35=0|49=FIXCLIENT1|56=DMA_HUB|34=320|52=20231108-13:22:42|10=085|
2023-11-08 14:22:48.849 [33] [FixSender] (DEBUG) Receiving 8=FIX.4.4|9=62|35=0|34=328|49=DMA_HUB|56=FIXCLIENT1|52=20231108-13:22:48.849|10=049|
2023-11-08 14:23:12.957 [34] [FixSender] (DEBUG) Sending 8=FIX.4.4|9=58|35=0|49=FIXCLIENT1|56=DMA_HUB|34=321|52=20231108-13:23:12|10=084|
2023-11-08 14:23:18.801 [33] [FixSender] (DEBUG) Receiving 8=FIX.4.4|9=62|35=0|34=329|49=DMA_HUB|56=FIXCLIENT1|52=20231108-13:23:18.801|10=036|
2023-11-08 14:23:42.957 [34] [FixSender] (DEBUG) Sending 8=FIX.4.4|9=58|35=0|49=FIXCLIENT1|56=DMA_HUB|34=322|52=20231108-13:23:42|10=088|
2023-11-08 14:23:48.754 [33] [FixSender] (DEBUG) Receiving 8=FIX.4.4|9=62|35=0|34=330|49=DMA_HUB|56=FIXCLIENT1|52=20231108-13:23:48.754|10=038|
2023-11-08 14:24:12.958 [34] [FixSender] (DEBUG) Sending 8=FIX.4.4|9=58|35=0|49=FIXCLIENT1|56=DMA_HUB|34=323|52=20231108-13:24:12|10=087|
2023-11-08 14:24:18.706 [33] [FixSender] (DEBUG) Receiving 8=FIX.4.4|9=62|35=0|34=331|49=DMA_HUB|56=FIXCLIENT1|52=20231108-13:24:18.706|10=034|
2023-11-08 14:24:42.959 [34] [FixSender] (DEBUG) Sending 8=FIX.4.4|9=58|35=0|49=FIXCLIENT1|56=DMA_HUB|34=324|52=20231108-13:24:42|10=091|
2023-11-08 14:24:48.658 [33] [FixSender] (DEBUG) Receiving 8=FIX.4.4|9=62|35=0|34=332|49=DMA_HUB|56=FIXCLIENT1|52=20231108-13:24:48.658|10=044|
2023-11-08 14:25:12.961 [34] [FixSender] (DEBUG) Sending 8=FIX.4.4|9=58|35=0|49=FIXCLIENT1|56=DMA_HUB|34=325|52=20231108-13:25:12|10=090|
2023-11-08 14:25:18.610 [33] [FixSender] (DEBUG) Receiving 8=FIX.4.4|9=62|35=0|34=333|49=DMA_HUB|56=FIXCLIENT1|52=20231108-13:25:18.610|10=031|
2023-11-08 14:25:42.962 [34] [FixSender] (DEBUG) Sending 8=FIX.4.4|9=58|35=0|49=FIXCLIENT1|56=DMA_HUB|34=326|52=20231108-13:25:42|10=094|
2023-11-08 14:25:48.561 [33] [FixSender] (DEBUG) Receiving 8=FIX.4.4|9=62|35=0|34=334|49=DMA_HUB|56=FIXCLIENT1|52=20231108-13:25:48.561|10=040|
2023-11-08 14:26:12.963 [34] [FixSender] (DEBUG) Sending 8=FIX.4.4|9=58|35=0|49=FIXCLIENT1|56=DMA_HUB|34=327|52=20231108-13:26:12|10=093|
2023-11-08 14:26:18.513 [33] [FixSender] (DEBUG) Receiving 8=FIX.4.4|9=62|35=0|34=335|49=DMA_HUB|56=FIXCLIENT1|52=20231108-13:26:18.513|10=036|
2023-11-08 14:26:42.965 [34] [FixSender] (DEBUG) Sending 8=FIX.4.4|9=58|35=0|49=FIXCLIENT1|56=DMA_HUB|34=328|52=20231108-13:26:42|10=097|
2023-11-08 14:26:48.466 [33] [FixSender] (DEBUG) Receiving 8=FIX.4.4|9=62|35=0|34=336|49=DMA_HUB|56=FIXCLIENT1|52=20231108-13:26:48.466|10=047|
2023-11-08 14:27:12.968 [34] [FixSender] (DEBUG) Sending 8=FIX.4.4|9=58|35=0|49=FIXCLIENT1|56=DMA_HUB|34=329|52=20231108-13:27:12|10=096|
2023-11-08 14:27:18.417 [33] [FixSender] (DEBUG) Receiving 8=FIX.4.4|9=62|35=0|34=337|49=DMA_HUB|56=FIXCLIENT1|52=20231108-13:27:18.417|10=042|
2023-11-08 14:27:42.970 [34] [FixSender] (DEBUG) Sending 8=FIX.4.4|9=58|35=0|49=FIXCLIENT1|56=DMA_HUB|34=330|52=20231108-13:27:42|10=091|
2023-11-08 14:27:48.369 [33] [FixSender] (DEBUG) Receiving 8=FIX.4.4|9=62|35=0|34=338|49=DMA_HUB|56=FIXCLIENT1|52=20231108-13:27:48.369|10=052|
2023-11-08 14:28:12.972 [34] [FixSender] (DEBUG) Sending 8=FIX.4.4|9=58|35=0|49=FIXCLIENT1|56=DMA_HUB|34=331|52=20231108-13:28:12|10=090|
2023-11-08 14:28:18.322 [33] [FixSender] (DEBUG) Receiving 8=FIX.4.4|9=62|35=0|34=339|49=DMA_HUB|56=FIXCLIENT1|52=20231108-13:28:18.322|10=040|
2023-11-08 14:28:42.973 [34] [FixSender] (DEBUG) Sending 8=FIX.4.4|9=58|35=0|49=FIXCLIENT1|56=DMA_HUB|34=332|52=20231108-13:28:42|10=094|
2023-11-08 14:28:48.274 [33] [FixSender] (DEBUG) Receiving 8=FIX.4.4|9=62|35=0|34=340|49=DMA_HUB|56=FIXCLIENT1|52=20231108-13:28:48.274|10=041|
2023-11-08 14:29:12.975 [34] [FixSender] (DEBUG) Sending 8=FIX.4.4|9=58|35=0|49=FIXCLIENT1|56=DMA_HUB|34=333|52=20231108-13:29:12|10=093|
2023-11-08 14:29:18.225 [33] [FixSender] (DEBUG) Receiving 8=FIX.4.4|9=62|35=0|34=341|49=DMA_HUB|56=FIXCLIENT1|52=20231108-13:29:18.225|10=036|
2023-11-08 14:29:42.976 [34] [FixSender] (DEBUG) Sending 8=FIX.4.4|9=58|35=0|49=FIXCLIENT1|56=DMA_HUB|34=334|52=20231108-13:29:42|10=097|
2023-11-08 14:29:48.177 [33] [FixSender] (DEBUG) Receiving 8=FIX.4.4|9=62|35=0|34=342|49=DMA_HUB|56=FIXCLIENT1|52=20231108-13:29:48.177|10=046|
2023-11-08 14:30:12.979 [34] [FixSender] (DEBUG) Sending 8=FIX.4.4|9=58|35=0|49=FIXCLIENT1|56=DMA_HUB|34=335|52=20231108-13:30:12|10=087|
2023-11-08 14:30:18.130 [33] [FixSender] (DEBUG) Receiving 8=FIX.4.4|9=62|35=0|34=343|49=DMA_HUB|56=FIXCLIENT1|52=20231108-13:30:18.130|10=025|
