2023-11-13 11:21:04.303 [1] [Fixsender] (INFO) (c) 2001-2011 ullink SAS. FixSender. Release 1.11.
2023-11-13 11:21:12.772 [29] [FixSender] (INFO) try to connect to : localhost port :12345
2023-11-13 11:21:12.789 [29] [FixSender] (INFO) physical cnx initiated
2023-11-13 11:21:12.804 [29] [FixSender] (DEBUG) Sending 8=FIX.4.4|9=88|35=A|49=FIXCLIENT1|56=DMA_HUB|34=362|52=20231113-10:21:12|98=0|108=30|95=9|96=null/null|10=180|
2023-11-13 11:21:12.808 [29] [FixSender] (DEBUG) Receiving 8=FIX.4.4|9=72|35=A|34=1|49=DMA_HUB|56=FIXCLIENT1|52=20231113-10:21:12.806|108=30|98=0|10=216|
2023-11-13 11:21:12.810 [29] [FixSender] (DEBUG) Sending 8=FIX.4.4|9=110|35=5|49=FIXCLIENT1|56=DMA_HUB|34=363|52=20231113-10:21:12|58=MsgSeqNum expected 392, but MsgSeqNum received 1|10=197|
2023-11-13 11:21:12.812 [29] [FixSender] (INFO) physical cnx finished Connection reset by peer
2023-11-13 11:21:12.812 [29] [FixSender] (WARNING) Disconnected
2023-11-13 11:21:13.767 [32] [FixSender] (INFO) try to connect to : localhost port :12345
2023-11-13 11:21:13.768 [32] [FixSender] (INFO) physical cnx initiated
2023-11-13 11:21:13.770 [32] [FixSender] (DEBUG) Sending 8=FIX.4.4|9=88|35=A|49=FIXCLIENT1|56=DMA_HUB|34=364|52=20231113-10:21:13|98=0|108=30|95=9|96=null/null|10=183|
2023-11-13 11:21:13.773 [32] [FixSender] (INFO) physical cnx finished Connection reset by peer
2023-11-13 11:21:13.773 [32] [FixSender] (WARNING) Disconnected
2023-11-13 11:21:14.459 [33] [FixSender] (INFO) try to connect to : localhost port :12345
2023-11-13 11:21:14.460 [33] [FixSender] (INFO) physical cnx initiated
2023-11-13 11:21:14.462 [33] [FixSender] (DEBUG) Sending 8=FIX.4.4|9=88|35=A|49=FIXCLIENT1|56=DMA_HUB|34=365|52=20231113-10:21:14|98=0|108=30|95=9|96=null/null|10=185|
2023-11-13 11:21:14.675 [34] [FixSender] (INFO) try to connect to : localhost port :12345
2023-11-13 11:21:14.676 [34] [FixSender] (INFO) physical cnx initiated
2023-11-13 11:21:14.681 [34] [FixSender] (DEBUG) Sending 8=FIX.4.4|9=88|35=A|49=FIXCLIENT1|56=DMA_HUB|34=366|52=20231113-10:21:14|98=0|108=30|95=9|96=null/null|10=186|
2023-11-13 11:21:14.785 [33] [FixSender] (DEBUG) Receiving 8=FIX.4.4|9=72|35=A|34=4|49=DMA_HUB|56=FIXCLIENT1|52=20231113-10:21:14.784|108=30|98=0|10=226|
2023-11-13 11:21:14.786 [33] [FixSender] (DEBUG) Sending 8=FIX.4.4|9=110|35=5|49=FIXCLIENT1|56=DMA_HUB|34=367|52=20231113-10:21:14|58=MsgSeqNum expected 392, but MsgSeqNum received 4|10=206|
2023-11-13 11:21:14.788 [33] [FixSender] (INFO) physical cnx finished Connection reset by peer
2023-11-13 11:21:14.788 [34] [FixSender] (INFO) physical cnx finished Connection reset by peer
2023-11-13 11:21:14.789 [34] [FixSender] (WARNING) Disconnected
2023-11-13 11:21:14.789 [33] [FixSender] (WARNING) Disconnected
2023-11-13 11:21:15.915 [37] [FixSender] (INFO) try to connect to : localhost port :12345
2023-11-13 11:21:15.916 [37] [FixSender] (INFO) physical cnx initiated
2023-11-13 11:21:15.919 [37] [FixSender] (DEBUG) Sending 8=FIX.4.4|9=88|35=A|49=FIXCLIENT1|56=DMA_HUB|34=368|52=20231113-10:21:15|98=0|108=30|95=9|96=null/null|10=189|
2023-11-13 11:21:15.922 [37] [FixSender] (INFO) physical cnx finished Connection reset by peer
2023-11-13 11:21:15.923 [37] [FixSender] (WARNING) Disconnected
2023-11-13 11:21:21.006 [38] [FixSender] (INFO) try to connect to : localhost port :12345
2023-11-13 11:21:21.007 [38] [FixSender] (INFO) physical cnx initiated
2023-11-13 11:21:21.009 [38] [FixSender] (DEBUG) Sending 8=FIX.4.4|9=88|35=A|49=FIXCLIENT1|56=DMA_HUB|34=369|52=20231113-10:21:21|98=0|108=30|95=9|96=null/null|10=187|
2023-11-13 11:21:21.012 [38] [FixSender] (INFO) physical cnx finished Connection reset by peer
2023-11-13 11:21:21.012 [38] [FixSender] (WARNING) Disconnected
2023-11-13 11:21:23.882 [39] [FixSender] (INFO) try to connect to : localhost port :12345
2023-11-13 11:21:23.883 [39] [FixSender] (INFO) physical cnx initiated
2023-11-13 11:21:23.885 [39] [FixSender] (DEBUG) Sending 8=FIX.4.4|9=88|35=A|49=FIXCLIENT1|56=DMA_HUB|34=370|52=20231113-10:21:23|98=0|108=30|95=9|96=null/null|10=181|
2023-11-13 11:21:23.889 [39] [FixSender] (DEBUG) Receiving 8=FIX.4.4|9=72|35=A|34=6|49=DMA_HUB|56=FIXCLIENT1|52=20231113-10:21:23.885|108=30|98=0|10=230|
2023-11-13 11:21:23.890 [39] [FixSender] (DEBUG) Sending 8=FIX.4.4|9=110|35=5|49=FIXCLIENT1|56=DMA_HUB|34=371|52=20231113-10:21:23|58=MsgSeqNum expected 392, but MsgSeqNum received 6|10=203|
2023-11-13 11:21:23.891 [39] [FixSender] (INFO) physical cnx finished Connection reset by peer
2023-11-13 11:21:23.892 [39] [FixSender] (WARNING) Disconnected
2023-11-13 11:21:24.783 [42] [FixSender] (INFO) try to connect to : localhost port :12345
2023-11-13 11:21:24.784 [42] [FixSender] (INFO) physical cnx initiated
2023-11-13 11:21:24.786 [42] [FixSender] (DEBUG) Sending 8=FIX.4.4|9=88|35=A|49=FIXCLIENT1|56=DMA_HUB|34=372|52=20231113-10:21:24|98=0|108=30|95=9|96=null/null|10=184|
2023-11-13 11:21:24.790 [42] [FixSender] (INFO) physical cnx finished Connection reset by peer
2023-11-13 11:21:24.790 [42] [FixSender] (WARNING) Disconnected
2023-11-13 11:21:24.965 [43] [FixSender] (INFO) try to connect to : localhost port :12345
2023-11-13 11:21:24.966 [43] [FixSender] (INFO) physical cnx initiated
2023-11-13 11:21:24.968 [43] [FixSender] (DEBUG) Sending 8=FIX.4.4|9=88|35=A|49=FIXCLIENT1|56=DMA_HUB|34=373|52=20231113-10:21:24|98=0|108=30|95=9|96=null/null|10=185|
2023-11-13 11:21:25.135 [44] [FixSender] (INFO) try to connect to : localhost port :12345
2023-11-13 11:21:25.136 [44] [FixSender] (INFO) physical cnx initiated
2023-11-13 11:21:25.139 [44] [FixSender] (DEBUG) Sending 8=FIX.4.4|9=88|35=A|49=FIXCLIENT1|56=DMA_HUB|34=374|52=20231113-10:21:25|98=0|108=30|95=9|96=null/null|10=187|
2023-11-13 11:21:25.297 [45] [FixSender] (INFO) try to connect to : localhost port :12345
2023-11-13 11:21:25.298 [45] [FixSender] (INFO) physical cnx initiated
2023-11-13 11:21:25.302 [45] [FixSender] (DEBUG) Sending 8=FIX.4.4|9=88|35=A|49=FIXCLIENT1|56=DMA_HUB|34=375|52=20231113-10:21:25|98=0|108=30|95=9|96=null/null|10=188|
2023-11-13 11:21:25.794 [43] [FixSender] (DEBUG) Receiving 8=FIX.4.4|9=72|35=A|34=9|49=DMA_HUB|56=FIXCLIENT1|52=20231113-10:21:25.791|108=30|98=0|10=231|
2023-11-13 11:21:25.796 [43] [FixSender] (DEBUG) Sending 8=FIX.4.4|9=110|35=5|49=FIXCLIENT1|56=DMA_HUB|34=376|52=20231113-10:21:25|58=MsgSeqNum expected 392, but MsgSeqNum received 9|10=213|
2023-11-13 11:21:25.797 [44] [FixSender] (INFO) physical cnx finished Connection reset by peer
2023-11-13 11:21:25.798 [44] [FixSender] (WARNING) Disconnected
2023-11-13 11:21:25.800 [43] [FixSender] (INFO) physical cnx finished Connection reset by peer
2023-11-13 11:21:25.801 [43] [FixSender] (WARNING) Disconnected
2023-11-13 11:21:25.802 [45] [FixSender] (INFO) physical cnx finished Connection reset by peer
2023-11-13 11:21:25.802 [45] [FixSender] (WARNING) Disconnected
2023-11-13 11:21:26.508 [48] [FixSender] (INFO) try to connect to : localhost port :12345
2023-11-13 11:21:26.510 [48] [FixSender] (INFO) physical cnx initiated
2023-11-13 11:21:26.516 [48] [FixSender] (DEBUG) Sending 8=FIX.4.4|9=88|35=A|49=FIXCLIENT1|56=DMA_HUB|34=377|52=20231113-10:21:26|98=0|108=30|95=9|96=null/null|10=191|
2023-11-13 11:21:27.809 [48] [FixSender] (INFO) physical cnx finished Connection reset by peer
2023-11-13 11:21:27.810 [48] [FixSender] (WARNING) Disconnected
2023-11-13 11:21:32.630 [49] [FixSender] (INFO) try to connect to : localhost port :12345
2023-11-13 11:21:32.631 [49] [FixSender] (INFO) physical cnx initiated
2023-11-13 11:21:32.633 [49] [FixSender] (DEBUG) Sending 8=FIX.4.4|9=88|35=A|49=FIXCLIENT1|56=DMA_HUB|34=378|52=20231113-10:21:32|98=0|108=30|95=9|96=null/null|10=189|
2023-11-13 11:21:32.635 [49] [FixSender] (INFO) physical cnx finished Connection reset by peer
2023-11-13 11:21:32.637 [49] [FixSender] (WARNING) Disconnected
2023-11-13 11:21:33.317 [50] [FixSender] (INFO) try to connect to : localhost port :12345
2023-11-13 11:21:33.318 [50] [FixSender] (INFO) physical cnx initiated
2023-11-13 11:21:33.320 [50] [FixSender] (DEBUG) Sending 8=FIX.4.4|9=88|35=A|49=FIXCLIENT1|56=DMA_HUB|34=379|52=20231113-10:21:33|98=0|108=30|95=9|96=null/null|10=191|
2023-11-13 11:21:33.585 [51] [FixSender] (INFO) try to connect to : localhost port :12345
2023-11-13 11:21:33.586 [51] [FixSender] (INFO) physical cnx initiated
2023-11-13 11:21:33.588 [51] [FixSender] (DEBUG) Sending 8=FIX.4.4|9=88|35=A|49=FIXCLIENT1|56=DMA_HUB|34=380|52=20231113-10:21:33|98=0|108=30|95=9|96=null/null|10=183|
2023-11-13 11:21:33.640 [50] [FixSender] (INFO) physical cnx finished Connection reset by peer
2023-11-13 11:21:33.640 [50] [FixSender] (WARNING) Disconnected
2023-11-13 11:21:33.641 [51] [FixSender] (INFO) physical cnx finished Connection reset by peer
2023-11-13 11:21:33.642 [51] [FixSender] (WARNING) Disconnected
2023-11-13 11:21:34.044 [52] [FixSender] (INFO) try to connect to : localhost port :12345
2023-11-13 11:21:34.044 [52] [FixSender] (INFO) physical cnx initiated
2023-11-13 11:21:34.046 [52] [FixSender] (DEBUG) Sending 8=FIX.4.4|9=88|35=A|49=FIXCLIENT1|56=DMA_HUB|34=381|52=20231113-10:21:34|98=0|108=30|95=9|96=null/null|10=185|
2023-11-13 11:21:34.255 [53] [FixSender] (INFO) try to connect to : localhost port :12345
2023-11-13 11:21:34.255 [53] [FixSender] (INFO) physical cnx initiated
2023-11-13 11:21:34.258 [53] [FixSender] (DEBUG) Sending 8=FIX.4.4|9=88|35=A|49=FIXCLIENT1|56=DMA_HUB|34=382|52=20231113-10:21:34|98=0|108=30|95=9|96=null/null|10=186|
2023-11-13 11:21:34.431 [54] [FixSender] (INFO) try to connect to : localhost port :12345
2023-11-13 11:21:34.432 [54] [FixSender] (INFO) physical cnx initiated
2023-11-13 11:21:34.434 [54] [FixSender] (DEBUG) Sending 8=FIX.4.4|9=88|35=A|49=FIXCLIENT1|56=DMA_HUB|34=383|52=20231113-10:21:34|98=0|108=30|95=9|96=null/null|10=187|
2023-11-13 11:21:34.885 [55] [FixSender] (INFO) try to connect to : localhost port :12345
2023-11-13 11:21:34.886 [55] [FixSender] (INFO) physical cnx initiated
2023-11-13 11:21:34.888 [55] [FixSender] (DEBUG) Sending 8=FIX.4.4|9=88|35=A|49=FIXCLIENT1|56=DMA_HUB|34=384|52=20231113-10:21:34|98=0|108=30|95=9|96=null/null|10=188|
2023-11-13 11:21:35.657 [52] [FixSender] (INFO) physical cnx finished Connection reset by peer
2023-11-13 11:21:35.658 [55] [FixSender] (INFO) physical cnx finished Connection reset by peer
2023-11-13 11:21:35.659 [55] [FixSender] (WARNING) Disconnected
2023-11-13 11:21:35.661 [52] [FixSender] (WARNING) Disconnected
2023-11-13 11:21:36.692 [53] [FixSender] (INFO) physical cnx finished Connection reset by peer
2023-11-13 11:21:36.693 [53] [FixSender] (WARNING) Disconnected
2023-11-13 11:21:37.675 [54] [FixSender] (INFO) physical cnx finished Connection reset by peer
2023-11-13 11:21:37.675 [54] [FixSender] (WARNING) Disconnected
2023-11-13 11:25:49.374 [1] [Fixsender] (INFO) (c) 2001-2011 ullink SAS. FixSender. Release 1.11.
2023-11-13 11:25:51.622 [29] [FixSender] (INFO) try to connect to : localhost port :12345
2023-11-13 11:25:51.637 [29] [FixSender] (INFO) physical cnx initiated
2023-11-13 11:25:51.649 [29] [FixSender] (DEBUG) Sending 8=FIX.4.4|9=88|35=A|49=FIXCLIENT1|56=DMA_HUB|34=385|52=20231113-10:25:51|98=0|108=30|95=9|96=null/null|10=192|
2023-11-13 11:25:51.651 [29] [FixSender] (DEBUG) Receiving 8=FIX.4.4|9=73|35=A|34=13|49=DMA_HUB|56=FIXCLIENT1|52=20231113-10:25:51.650|108=30|98=0|10=016|
2023-11-13 11:25:51.653 [29] [FixSender] (DEBUG) Sending 8=FIX.4.4|9=111|35=5|49=FIXCLIENT1|56=DMA_HUB|34=386|52=20231113-10:25:51|58=MsgSeqNum expected 392, but MsgSeqNum received 13|10=005|
2023-11-13 11:25:51.655 [29] [FixSender] (INFO) physical cnx finished Connection reset by peer
2023-11-13 11:25:51.656 [29] [FixSender] (WARNING) Disconnected
2023-11-13 11:25:53.025 [32] [FixSender] (INFO) try to connect to : localhost port :12345
2023-11-13 11:25:53.026 [32] [FixSender] (INFO) physical cnx initiated
2023-11-13 11:25:53.028 [32] [FixSender] (DEBUG) Sending 8=FIX.4.4|9=88|35=A|49=FIXCLIENT1|56=DMA_HUB|34=387|52=20231113-10:25:53|98=0|108=30|95=9|96=null/null|10=196|
2023-11-13 11:25:53.032 [32] [FixSender] (DEBUG) Receiving 8=FIX.4.4|9=73|35=A|34=16|49=DMA_HUB|56=FIXCLIENT1|52=20231113-10:25:53.029|108=30|98=0|10=021|
2023-11-13 11:25:53.034 [32] [FixSender] (DEBUG) Sending 8=FIX.4.4|9=111|35=5|49=FIXCLIENT1|56=DMA_HUB|34=388|52=20231113-10:25:53|58=MsgSeqNum expected 392, but MsgSeqNum received 16|10=012|
2023-11-13 11:25:53.035 [32] [FixSender] (INFO) physical cnx finished Connection reset by peer
2023-11-13 11:25:53.036 [32] [FixSender] (WARNING) Disconnected
2023-11-13 11:25:53.827 [35] [FixSender] (INFO) try to connect to : localhost port :12345
2023-11-13 11:25:53.828 [35] [FixSender] (INFO) physical cnx initiated
2023-11-13 11:25:53.830 [35] [FixSender] (DEBUG) Sending 8=FIX.4.4|9=88|35=A|49=FIXCLIENT1|56=DMA_HUB|34=389|52=20231113-10:25:53|98=0|108=30|95=9|96=null/null|10=198|
2023-11-13 11:25:53.834 [35] [FixSender] (INFO) physical cnx finished Connection reset by peer
2023-11-13 11:25:53.834 [35] [FixSender] (WARNING) Disconnected
2023-11-13 11:25:54.267 [36] [FixSender] (INFO) try to connect to : localhost port :12345
2023-11-13 11:25:54.268 [36] [FixSender] (INFO) physical cnx initiated
2023-11-13 11:25:54.273 [36] [FixSender] (DEBUG) Sending 8=FIX.4.4|9=88|35=A|49=FIXCLIENT1|56=DMA_HUB|34=390|52=20231113-10:25:54|98=0|108=30|95=9|96=null/null|10=191|
2023-11-13 11:25:54.433 [37] [FixSender] (INFO) try to connect to : localhost port :12345
2023-11-13 11:25:54.434 [37] [FixSender] (INFO) physical cnx initiated
2023-11-13 11:25:54.435 [37] [FixSender] (DEBUG) Sending 8=FIX.4.4|9=88|35=A|49=FIXCLIENT1|56=DMA_HUB|34=391|52=20231113-10:25:54|98=0|108=30|95=9|96=null/null|10=192|
2023-11-13 11:25:54.605 [38] [FixSender] (INFO) try to connect to : localhost port :12345
2023-11-13 11:25:54.606 [38] [FixSender] (INFO) physical cnx initiated
2023-11-13 11:25:54.612 [38] [FixSender] (DEBUG) Sending 8=FIX.4.4|9=88|35=A|49=FIXCLIENT1|56=DMA_HUB|34=392|52=20231113-10:25:54|98=0|108=30|95=9|96=null/null|10=193|
2023-11-13 11:25:54.832 [36] [FixSender] (DEBUG) Receiving 8=FIX.4.4|9=73|35=A|34=19|49=DMA_HUB|56=FIXCLIENT1|52=20231113-10:25:54.831|108=30|98=0|10=026|
2023-11-13 11:25:54.834 [36] [FixSender] (DEBUG) Sending 8=FIX.4.4|9=111|35=5|49=FIXCLIENT1|56=DMA_HUB|34=393|52=20231113-10:25:54|58=MsgSeqNum expected 392, but MsgSeqNum received 19|10=012|
2023-11-13 11:25:54.835 [36] [FixSender] (INFO) physical cnx finished Connection reset by peer
2023-11-13 11:25:54.835 [38] [FixSender] (INFO) physical cnx finished Connection reset by peer
2023-11-13 11:25:54.836 [37] [FixSender] (INFO) physical cnx finished Connection reset by peer
2023-11-13 11:25:54.837 [37] [FixSender] (WARNING) Disconnected
2023-11-13 11:25:54.838 [38] [FixSender] (WARNING) Disconnected
2023-11-13 11:25:54.839 [36] [FixSender] (WARNING) Disconnected
2023-11-13 11:25:55.589 [41] [FixSender] (INFO) try to connect to : localhost port :12345
2023-11-13 11:25:55.590 [41] [FixSender] (INFO) physical cnx initiated
2023-11-13 11:25:55.594 [41] [FixSender] (DEBUG) Sending 8=FIX.4.4|9=88|35=A|49=FIXCLIENT1|56=DMA_HUB|34=394|52=20231113-10:25:55|98=0|108=30|95=9|96=null/null|10=196|
2023-11-13 11:25:56.838 [41] [FixSender] (INFO) physical cnx finished Connection reset by peer
2023-11-13 11:25:56.839 [41] [FixSender] (WARNING) Disconnected
2023-11-13 11:25:57.839 [42] [FixSender] (INFO) try to connect to : localhost port :12345
2023-11-13 11:25:57.840 [42] [FixSender] (INFO) physical cnx initiated
2023-11-13 11:25:57.845 [42] [FixSender] (DEBUG) Sending 8=FIX.4.4|9=88|35=A|49=FIXCLIENT1|56=DMA_HUB|34=395|52=20231113-10:25:57|98=0|108=30|95=9|96=null/null|10=199|
2023-11-13 11:25:57.847 [42] [FixSender] (DEBUG) Receiving 8=FIX.4.4|9=73|35=A|34=21|49=DMA_HUB|56=FIXCLIENT1|52=20231113-10:25:57.846|108=30|98=0|10=028|
2023-11-13 11:25:57.848 [42] [FixSender] (DEBUG) Sending 8=FIX.4.4|9=111|35=5|49=FIXCLIENT1|56=DMA_HUB|34=396|52=20231113-10:25:57|58=MsgSeqNum expected 392, but MsgSeqNum received 21|10=011|
2023-11-13 11:25:57.849 [42] [FixSender] (INFO) physical cnx finished Connection reset by peer
2023-11-13 11:25:57.849 [42] [FixSender] (WARNING) Disconnected
2023-11-13 11:26:00.839 [45] [FixSender] (INFO) try to connect to : localhost port :12345
2023-11-13 11:26:00.840 [45] [FixSender] (INFO) physical cnx initiated
2023-11-13 11:26:00.844 [45] [FixSender] (DEBUG) Sending 8=FIX.4.4|9=88|35=A|49=FIXCLIENT1|56=DMA_HUB|34=397|52=20231113-10:26:00|98=0|108=30|95=9|96=null/null|10=190|
2023-11-13 11:26:00.845 [45] [FixSender] (DEBUG) Receiving 8=FIX.4.4|9=73|35=A|34=24|49=DMA_HUB|56=FIXCLIENT1|52=20231113-10:26:00.844|108=30|98=0|10=018|
2023-11-13 11:26:00.846 [45] [FixSender] (DEBUG) Sending 8=FIX.4.4|9=111|35=5|49=FIXCLIENT1|56=DMA_HUB|34=398|52=20231113-10:26:00|58=MsgSeqNum expected 392, but MsgSeqNum received 24|10=005|
2023-11-13 11:26:00.847 [45] [FixSender] (INFO) physical cnx finished Connection reset by peer
2023-11-13 11:26:00.847 [45] [FixSender] (WARNING) Disconnected
2023-11-13 11:26:01.777 [48] [FixSender] (INFO) try to connect to : localhost port :12345
2023-11-13 11:26:01.777 [48] [FixSender] (INFO) physical cnx initiated
2023-11-13 11:26:01.781 [48] [FixSender] (DEBUG) Sending 8=FIX.4.4|9=88|35=A|49=FIXCLIENT1|56=DMA_HUB|34=399|52=20231113-10:26:01|98=0|108=30|95=9|96=null/null|10=193|
2023-11-13 11:26:01.782 [48] [FixSender] (INFO) physical cnx finished Connection reset by peer
2023-11-13 11:26:01.782 [48] [FixSender] (WARNING) Disconnected
2023-11-13 11:26:02.281 [49] [FixSender] (INFO) try to connect to : localhost port :12345
2023-11-13 11:26:02.281 [49] [FixSender] (INFO) physical cnx initiated
2023-11-13 11:26:02.285 [49] [FixSender] (DEBUG) Sending 8=FIX.4.4|9=88|35=A|49=FIXCLIENT1|56=DMA_HUB|34=400|52=20231113-10:26:02|98=0|108=30|95=9|96=null/null|10=177|
2023-11-13 11:26:02.453 [50] [FixSender] (INFO) try to connect to : localhost port :12345
2023-11-13 11:26:02.453 [50] [FixSender] (INFO) physical cnx initiated
2023-11-13 11:26:02.457 [50] [FixSender] (DEBUG) Sending 8=FIX.4.4|9=88|35=A|49=FIXCLIENT1|56=DMA_HUB|34=401|52=20231113-10:26:02|98=0|108=30|95=9|96=null/null|10=178|
2023-11-13 11:26:02.625 [51] [FixSender] (INFO) try to connect to : localhost port :12345
2023-11-13 11:26:02.625 [51] [FixSender] (INFO) physical cnx initiated
2023-11-13 11:26:02.630 [51] [FixSender] (DEBUG) Sending 8=FIX.4.4|9=88|35=A|49=FIXCLIENT1|56=DMA_HUB|34=402|52=20231113-10:26:02|98=0|108=30|95=9|96=null/null|10=179|
2023-11-13 11:26:02.783 [49] [FixSender] (DEBUG) Receiving 8=FIX.4.4|9=73|35=A|34=27|49=DMA_HUB|56=FIXCLIENT1|52=20231113-10:26:02.782|108=30|98=0|10=024|
2023-11-13 11:26:02.786 [49] [FixSender] (DEBUG) Sending 8=FIX.4.4|9=111|35=5|49=FIXCLIENT1|56=DMA_HUB|34=403|52=20231113-10:26:02|58=MsgSeqNum expected 392, but MsgSeqNum received 27|10=253|
2023-11-13 11:26:02.787 [50] [FixSender] (INFO) physical cnx finished Connection reset by peer
2023-11-13 11:26:02.787 [50] [FixSender] (WARNING) Disconnected
2023-11-13 11:26:02.790 [49] [FixSender] (INFO) physical cnx finished Connection reset by peer
2023-11-13 11:26:02.790 [51] [FixSender] (INFO) physical cnx finished Connection reset by peer
2023-11-13 11:26:02.790 [49] [FixSender] (WARNING) Disconnected
2023-11-13 11:26:02.791 [51] [FixSender] (WARNING) Disconnected
2023-11-13 11:26:02.828 [54] [FixSender] (INFO) try to connect to : localhost port :12345
2023-11-13 11:26:02.829 [54] [FixSender] (INFO) physical cnx initiated
2023-11-13 11:26:02.830 [54] [FixSender] (DEBUG) Sending 8=FIX.4.4|9=88|35=A|49=FIXCLIENT1|56=DMA_HUB|34=404|52=20231113-10:26:02|98=0|108=30|95=9|96=null/null|10=181|
2023-11-13 11:26:03.321 [55] [FixSender] (INFO) try to connect to : localhost port :12345
2023-11-13 11:26:03.322 [55] [FixSender] (INFO) physical cnx initiated
2023-11-13 11:26:03.325 [55] [FixSender] (DEBUG) Sending 8=FIX.4.4|9=88|35=A|49=FIXCLIENT1|56=DMA_HUB|34=405|52=20231113-10:26:03|98=0|108=30|95=9|96=null/null|10=183|
2023-11-13 11:26:04.791 [55] [FixSender] (INFO) physical cnx finished Connection reset by peer
2023-11-13 11:26:04.791 [55] [FixSender] (WARNING) Disconnected
2023-11-13 11:26:04.792 [54] [FixSender] (INFO) physical cnx finished Connection reset by peer
2023-11-13 11:26:04.793 [54] [FixSender] (WARNING) Disconnected
2023-11-13 11:26:06.853 [56] [FixSender] (INFO) try to connect to : localhost port :12345
2023-11-13 11:26:06.853 [56] [FixSender] (INFO) physical cnx initiated
2023-11-13 11:26:06.857 [56] [FixSender] (DEBUG) Sending 8=FIX.4.4|9=88|35=A|49=FIXCLIENT1|56=DMA_HUB|34=406|52=20231113-10:26:06|98=0|108=30|95=9|96=null/null|10=187|
2023-11-13 11:26:06.858 [56] [FixSender] (INFO) physical cnx finished Connection reset by peer
2023-11-13 11:26:06.858 [56] [FixSender] (WARNING) Disconnected
2023-11-13 11:26:10.216 [58] [FixSender] (INFO) try to connect to : localhost port :12345
2023-11-13 11:26:10.217 [58] [FixSender] (INFO) physical cnx initiated
2023-11-13 11:26:10.221 [58] [FixSender] (DEBUG) Sending 8=FIX.4.4|9=86|35=A|49=FIXCLIENT1|56=DMA_HUB|34=1|52=20231113-10:26:10|98=0|108=30|95=9|96=null/null|10=075|
2023-11-13 11:26:10.223 [58] [FixSender] (INFO) physical cnx finished Connection reset by peer
2023-11-13 11:26:10.224 [58] [FixSender] (WARNING) Disconnected
2023-11-13 11:26:10.855 [59] [FixSender] (INFO) try to connect to : localhost port :12345
2023-11-13 11:26:10.855 [59] [FixSender] (INFO) physical cnx initiated
2023-11-13 11:26:10.859 [59] [FixSender] (DEBUG) Sending 8=FIX.4.4|9=86|35=A|49=FIXCLIENT1|56=DMA_HUB|34=2|52=20231113-10:26:10|98=0|108=30|95=9|96=null/null|10=076|
2023-11-13 11:26:11.223 [59] [FixSender] (INFO) physical cnx finished Connection reset by peer
2023-11-13 11:26:11.224 [59] [FixSender] (WARNING) Disconnected
2023-11-13 11:26:11.747 [60] [FixSender] (INFO) try to connect to : localhost port :12345
2023-11-13 11:26:11.747 [60] [FixSender] (INFO) physical cnx initiated
2023-11-13 11:26:11.750 [60] [FixSender] (DEBUG) Sending 8=FIX.4.4|9=86|35=A|49=FIXCLIENT1|56=DMA_HUB|34=3|52=20231113-10:26:11|98=0|108=30|95=9|96=null/null|10=078|
2023-11-13 11:26:12.240 [60] [FixSender] (INFO) physical cnx finished Connection reset by peer
2023-11-13 11:26:12.241 [60] [FixSender] (WARNING) Disconnected
2023-11-13 11:26:14.850 [61] [FixSender] (INFO) Ready to listen connection on port : 23456
2023-11-13 11:26:45.221 [1] [Fixsender] (INFO) (c) 2001-2011 ullink SAS. FixSender. Release 1.11.
2023-11-13 11:26:47.821 [29] [FixSender] (INFO) try to connect to : localhost port :12345
2023-11-13 11:26:47.836 [29] [FixSender] (INFO) physical cnx initiated
2023-11-13 11:26:47.849 [29] [FixSender] (DEBUG) Sending 8=FIX.4.4|9=86|35=A|49=FIXCLIENT1|56=DMA_HUB|34=4|52=20231113-10:26:47|98=0|108=30|95=9|96=null/null|10=088|
2023-11-13 11:26:47.850 [29] [FixSender] (DEBUG) Receiving 8=FIX.4.4|9=73|35=A|34=31|49=DMA_HUB|56=FIXCLIENT1|52=20231113-10:26:47.849|108=30|98=0|10=032|
2023-11-13 11:26:47.852 [29] [FixSender] (WARNING) The Fix connection is open...
2023-11-13 11:26:47.857 [29] [FixSender] (DEBUG) Sending 8=FIX.4.4|9=65|35=2|49=FIXCLIENT1|56=DMA_HUB|34=5|52=20231113-10:26:47|7=1|16=0|10=114|
2023-11-13 11:26:47.857 [29] [FixSender] (DEBUG) Receiving 8=FIX.4.4|9=70|35=2|34=32|49=DMA_HUB|56=FIXCLIENT1|52=20231113-10:26:47.849|7=1|16=0|10=113|
2023-11-13 11:26:47.860 [29] [FixSender] (DEBUG) Sending 8=FIX.4.4|9=94|35=4|49=FIXCLIENT1|56=DMA_HUB|34=1|52=20231113-10:26:47|43=Y|122=20231113-10:26:47|123=Y|36=6|10=052|
2023-11-13 11:26:47.861 [29] [FixSender] (DEBUG) Sending 8=FIX.4.4|9=74|35=1|49=FIXCLIENT1|56=DMA_HUB|34=6|52=20231113-10:26:47|112=synchronized?|10=040|
2023-11-13 11:26:47.862 [29] [FixSender] (DEBUG) Receiving 8=FIX.4.4|9=103|35=4|34=1|49=DMA_HUB|56=FIXCLIENT1|52=20231113-10:26:47.860|43=Y|122=20231113-10:26:47.860|36=33|123=Y|10=035|
2023-11-13 11:26:47.862 [29] [FixSender] (DEBUG) Receiving 8=FIX.4.4|9=79|35=0|34=33|49=DMA_HUB|56=FIXCLIENT1|52=20231113-10:26:47.862|112=synchronized?|10=042|
2023-11-13 11:26:55.309 [34] [FixSender] (DEBUG) Sending 8=FIX.4.4|9=196|35=D|49=FIXCLIENT1|56=DMA_HUB|34=7|52=20231113-10:26:55|21=1|11=HS_16998712150|38=1675|55=E:07G@XETR|54=2|60=20231113-10:26:55|40=2|59=0|44=197.111|48=US3390411052|22=4|15=EUR|207=XETR|1=bram_123|10=042|
2023-11-13 11:26:55.317 [29] [FixSender] (DEBUG) Receiving 8=FIX.4.4|9=239|35=8|34=34|49=DMA_HUB|56=FIXCLIENT1|52=20231113-10:26:55.316|11=HS_16998712150|37=FXXOi6BbJ|54=2|40=2|59=0|17=202311131|150=A|39=A|38=1675|151=1675|14=0|6=0|44=197.111|60=20231113-10:26:55.000|22=4|48=US3390411052|207=XETR|15=EUR|55=[N/A]|10=189|
2023-11-13 11:27:17.805 [29] [FixSender] (DEBUG) Receiving 8=FIX.4.4|9=61|35=0|34=35|49=DMA_HUB|56=FIXCLIENT1|52=20231113-10:27:17.805|10=237|
2023-11-13 11:27:25.311 [33] [FixSender] (DEBUG) Sending 8=FIX.4.4|9=56|35=0|49=FIXCLIENT1|56=DMA_HUB|34=8|52=20231113-10:27:25|10=245|
2023-11-13 11:27:47.758 [29] [FixSender] (DEBUG) Receiving 8=FIX.4.4|9=61|35=0|34=36|49=DMA_HUB|56=FIXCLIENT1|52=20231113-10:27:47.757|10=247|
2023-11-13 11:27:55.315 [33] [FixSender] (DEBUG) Sending 8=FIX.4.4|9=56|35=0|49=FIXCLIENT1|56=DMA_HUB|34=9|52=20231113-10:27:55|10=249|
2023-11-13 11:28:17.709 [29] [FixSender] (DEBUG) Receiving 8=FIX.4.4|9=61|35=0|34=37|49=DMA_HUB|56=FIXCLIENT1|52=20231113-10:28:17.708|10=242|
2023-11-13 11:28:25.317 [33] [FixSender] (DEBUG) Sending 8=FIX.4.4|9=57|35=0|49=FIXCLIENT1|56=DMA_HUB|34=10|52=20231113-10:28:25|10=032|
2023-11-13 11:28:47.661 [29] [FixSender] (DEBUG) Receiving 8=FIX.4.4|9=61|35=0|34=38|49=DMA_HUB|56=FIXCLIENT1|52=20231113-10:28:47.661|10=244|
2023-11-13 11:28:55.318 [33] [FixSender] (DEBUG) Sending 8=FIX.4.4|9=57|35=0|49=FIXCLIENT1|56=DMA_HUB|34=11|52=20231113-10:28:55|10=036|
2023-11-13 11:29:17.612 [29] [FixSender] (DEBUG) Receiving 8=FIX.4.4|9=61|35=0|34=39|49=DMA_HUB|56=FIXCLIENT1|52=20231113-10:29:17.612|10=239|
2023-11-13 11:29:25.321 [33] [FixSender] (DEBUG) Sending 8=FIX.4.4|9=57|35=0|49=FIXCLIENT1|56=DMA_HUB|34=12|52=20231113-10:29:25|10=035|
2023-11-13 11:29:47.564 [29] [FixSender] (DEBUG) Receiving 8=FIX.4.4|9=61|35=0|34=40|49=DMA_HUB|56=FIXCLIENT1|52=20231113-10:29:47.564|10=240|
2023-11-13 11:29:55.324 [33] [FixSender] (DEBUG) Sending 8=FIX.4.4|9=57|35=0|49=FIXCLIENT1|56=DMA_HUB|34=13|52=20231113-10:29:55|10=039|
2023-11-13 11:30:17.517 [29] [FixSender] (DEBUG) Receiving 8=FIX.4.4|9=61|35=0|34=41|49=DMA_HUB|56=FIXCLIENT1|52=20231113-10:30:17.517|10=228|
2023-11-13 11:30:25.325 [33] [FixSender] (DEBUG) Sending 8=FIX.4.4|9=57|35=0|49=FIXCLIENT1|56=DMA_HUB|34=14|52=20231113-10:30:25|10=029|
2023-11-13 11:30:47.469 [29] [FixSender] (DEBUG) Receiving 8=FIX.4.4|9=61|35=0|34=42|49=DMA_HUB|56=FIXCLIENT1|52=20231113-10:30:47.469|10=238|
2023-11-13 11:30:55.326 [33] [FixSender] (DEBUG) Sending 8=FIX.4.4|9=57|35=0|49=FIXCLIENT1|56=DMA_HUB|34=15|52=20231113-10:30:55|10=033|
2023-11-13 11:31:17.422 [29] [FixSender] (DEBUG) Receiving 8=FIX.4.4|9=61|35=0|34=43|49=DMA_HUB|56=FIXCLIENT1|52=20231113-10:31:17.421|10=225|
2023-11-13 11:31:25.341 [33] [FixSender] (DEBUG) Sending 8=FIX.4.4|9=57|35=0|49=FIXCLIENT1|56=DMA_HUB|34=16|52=20231113-10:31:25|10=032|
2023-11-13 11:31:47.373 [29] [FixSender] (DEBUG) Receiving 8=FIX.4.4|9=61|35=0|34=44|49=DMA_HUB|56=FIXCLIENT1|52=20231113-10:31:47.373|10=235|
2023-11-13 11:31:55.342 [33] [FixSender] (DEBUG) Sending 8=FIX.4.4|9=57|35=0|49=FIXCLIENT1|56=DMA_HUB|34=17|52=20231113-10:31:55|10=036|
2023-11-13 11:32:17.325 [29] [FixSender] (DEBUG) Receiving 8=FIX.4.4|9=61|35=0|34=45|49=DMA_HUB|56=FIXCLIENT1|52=20231113-10:32:17.325|10=231|
2023-11-13 11:32:25.346 [33] [FixSender] (DEBUG) Sending 8=FIX.4.4|9=57|35=0|49=FIXCLIENT1|56=DMA_HUB|34=18|52=20231113-10:32:25|10=035|
2023-11-13 11:32:47.277 [29] [FixSender] (DEBUG) Receiving 8=FIX.4.4|9=61|35=0|34=46|49=DMA_HUB|56=FIXCLIENT1|52=20231113-10:32:47.277|10=241|
2023-11-13 11:32:55.355 [33] [FixSender] (DEBUG) Sending 8=FIX.4.4|9=57|35=0|49=FIXCLIENT1|56=DMA_HUB|34=19|52=20231113-10:32:55|10=039|
2023-11-13 11:33:17.229 [29] [FixSender] (DEBUG) Receiving 8=FIX.4.4|9=61|35=0|34=47|49=DMA_HUB|56=FIXCLIENT1|52=20231113-10:33:17.229|10=237|
2023-11-13 11:33:25.358 [33] [FixSender] (DEBUG) Sending 8=FIX.4.4|9=57|35=0|49=FIXCLIENT1|56=DMA_HUB|34=20|52=20231113-10:33:25|10=029|
2023-11-13 11:33:47.183 [29] [FixSender] (DEBUG) Receiving 8=FIX.4.4|9=61|35=0|34=48|49=DMA_HUB|56=FIXCLIENT1|52=20231113-10:33:47.181|10=238|
2023-11-13 11:33:55.360 [33] [FixSender] (DEBUG) Sending 8=FIX.4.4|9=57|35=0|49=FIXCLIENT1|56=DMA_HUB|34=21|52=20231113-10:33:55|10=033|
2023-11-13 11:34:17.134 [29] [FixSender] (DEBUG) Receiving 8=FIX.4.4|9=61|35=0|34=49|49=DMA_HUB|56=FIXCLIENT1|52=20231113-10:34:17.134|10=235|
2023-11-13 11:34:25.364 [33] [FixSender] (DEBUG) Sending 8=FIX.4.4|9=57|35=0|49=FIXCLIENT1|56=DMA_HUB|34=22|52=20231113-10:34:25|10=032|
2023-11-13 11:34:47.085 [29] [FixSender] (DEBUG) Receiving 8=FIX.4.4|9=61|35=0|34=50|49=DMA_HUB|56=FIXCLIENT1|52=20231113-10:34:47.085|10=235|
2023-11-13 11:34:55.372 [33] [FixSender] (DEBUG) Sending 8=FIX.4.4|9=57|35=0|49=FIXCLIENT1|56=DMA_HUB|34=23|52=20231113-10:34:55|10=036|
2023-11-13 11:35:17.039 [29] [FixSender] (DEBUG) Receiving 8=FIX.4.4|9=61|35=0|34=51|49=DMA_HUB|56=FIXCLIENT1|52=20231113-10:35:17.037|10=231|
2023-11-13 11:35:25.373 [33] [FixSender] (DEBUG) Sending 8=FIX.4.4|9=57|35=0|49=FIXCLIENT1|56=DMA_HUB|34=24|52=20231113-10:35:25|10=035|
2023-11-13 11:35:46.989 [29] [FixSender] (DEBUG) Receiving 8=FIX.4.4|9=61|35=0|34=52|49=DMA_HUB|56=FIXCLIENT1|52=20231113-10:35:46.989|10=250|
2023-11-13 11:35:55.376 [33] [FixSender] (DEBUG) Sending 8=FIX.4.4|9=57|35=0|49=FIXCLIENT1|56=DMA_HUB|34=25|52=20231113-10:35:55|10=039|
2023-11-13 11:36:16.941 [29] [FixSender] (DEBUG) Receiving 8=FIX.4.4|9=61|35=0|34=53|49=DMA_HUB|56=FIXCLIENT1|52=20231113-10:36:16.941|10=237|
2023-11-13 11:36:25.378 [33] [FixSender] (DEBUG) Sending 8=FIX.4.4|9=57|35=0|49=FIXCLIENT1|56=DMA_HUB|34=26|52=20231113-10:36:25|10=038|
2023-11-13 11:36:46.892 [29] [FixSender] (DEBUG) Receiving 8=FIX.4.4|9=61|35=0|34=54|49=DMA_HUB|56=FIXCLIENT1|52=20231113-10:36:46.892|10=246|
2023-11-13 11:36:55.381 [33] [FixSender] (DEBUG) Sending 8=FIX.4.4|9=57|35=0|49=FIXCLIENT1|56=DMA_HUB|34=27|52=20231113-10:36:55|10=042|
2023-11-13 11:37:16.845 [29] [FixSender] (DEBUG) Receiving 8=FIX.4.4|9=61|35=0|34=55|49=DMA_HUB|56=FIXCLIENT1|52=20231113-10:37:16.844|10=242|
2023-11-13 11:37:25.385 [33] [FixSender] (DEBUG) Sending 8=FIX.4.4|9=57|35=0|49=FIXCLIENT1|56=DMA_HUB|34=28|52=20231113-10:37:25|10=041|
2023-11-13 11:37:46.796 [29] [FixSender] (DEBUG) Receiving 8=FIX.4.4|9=61|35=0|34=56|49=DMA_HUB|56=FIXCLIENT1|52=20231113-10:37:46.796|10=252|
2023-11-13 11:37:55.388 [33] [FixSender] (DEBUG) Sending 8=FIX.4.4|9=57|35=0|49=FIXCLIENT1|56=DMA_HUB|34=29|52=20231113-10:37:55|10=045|
2023-11-13 11:38:16.749 [29] [FixSender] (DEBUG) Receiving 8=FIX.4.4|9=61|35=0|34=57|49=DMA_HUB|56=FIXCLIENT1|52=20231113-10:38:16.748|10=248|
2023-11-13 11:38:25.391 [33] [FixSender] (DEBUG) Sending 8=FIX.4.4|9=57|35=0|49=FIXCLIENT1|56=DMA_HUB|34=30|52=20231113-10:38:25|10=035|
2023-11-13 11:38:46.702 [29] [FixSender] (DEBUG) Receiving 8=FIX.4.4|9=61|35=0|34=58|49=DMA_HUB|56=FIXCLIENT1|52=20231113-10:38:46.701|10=241|
2023-11-13 11:38:55.392 [33] [FixSender] (DEBUG) Sending 8=FIX.4.4|9=57|35=0|49=FIXCLIENT1|56=DMA_HUB|34=31|52=20231113-10:38:55|10=039|
2023-11-13 11:39:09.731 [35] [FixSender] (DEBUG) Sending 8=FIX.4.4|9=197|35=D|49=FIXCLIENT1|56=DMA_HUB|34=32|52=20231113-10:39:09|21=1|11=HS_16998719491|38=4036|55=E:07G@XETR|54=2|60=20231113-10:39:09|40=2|59=0|44=197.111|48=US3390411052|22=4|15=EUR|207=XETR|1=bram_123|10=104|
2023-11-13 11:39:09.734 [29] [FixSender] (DEBUG) Receiving 8=FIX.4.4|9=239|35=8|34=59|49=DMA_HUB|56=FIXCLIENT1|52=20231113-10:39:09.733|11=HS_16998719491|37=FXYOi6BbJ|54=2|40=2|59=0|17=202311132|150=A|39=A|38=4036|151=4036|14=0|6=0|44=197.111|60=20231113-10:39:09.000|22=4|48=US3390411052|207=XETR|15=EUR|55=[N/A]|10=210|
2023-11-13 11:39:16.653 [29] [FixSender] (DEBUG) Receiving 8=FIX.4.4|9=61|35=0|34=60|49=DMA_HUB|56=FIXCLIENT1|52=20231113-10:39:16.652|10=237|
2023-11-13 11:39:28.469 [36] [FixSender] (DEBUG) Sending 8=FIX.4.4|9=197|35=D|49=FIXCLIENT1|56=DMA_HUB|34=33|52=20231113-10:39:28|21=1|11=HS_16998719682|38=1771|55=E:07G@XETR|54=2|60=20231113-10:39:28|40=2|59=0|44=197.111|48=US3390411052|22=4|15=EUR|207=XETR|1=bram_123|10=112|
2023-11-13 11:39:28.472 [29] [FixSender] (DEBUG) Receiving 8=FIX.4.4|9=239|35=8|34=61|49=DMA_HUB|56=FIXCLIENT1|52=20231113-10:39:28.471|11=HS_16998719682|37=FXZOi6BbJ|54=2|40=2|59=0|17=202311133|150=A|39=A|38=1771|151=1771|14=0|6=0|44=197.111|60=20231113-10:39:28.000|22=4|48=US3390411052|207=XETR|15=EUR|55=[N/A]|10=214|
2023-11-13 11:39:46.607 [29] [FixSender] (DEBUG) Receiving 8=FIX.4.4|9=61|35=0|34=62|49=DMA_HUB|56=FIXCLIENT1|52=20231113-10:39:46.605|10=240|
2023-11-13 11:39:58.469 [33] [FixSender] (DEBUG) Sending 8=FIX.4.4|9=57|35=0|49=FIXCLIENT1|56=DMA_HUB|34=34|52=20231113-10:39:58|10=046|
2023-11-13 11:40:16.557 [29] [FixSender] (DEBUG) Receiving 8=FIX.4.4|9=61|35=0|34=63|49=DMA_HUB|56=FIXCLIENT1|52=20231113-10:40:16.557|10=236|
2023-11-13 11:40:28.470 [33] [FixSender] (DEBUG) Sending 8=FIX.4.4|9=57|35=0|49=FIXCLIENT1|56=DMA_HUB|34=35|52=20231113-10:40:28|10=036|
2023-11-13 11:40:46.509 [29] [FixSender] (DEBUG) Receiving 8=FIX.4.4|9=61|35=0|34=64|49=DMA_HUB|56=FIXCLIENT1|52=20231113-10:40:46.508|10=236|
2023-11-13 11:40:58.477 [33] [FixSender] (DEBUG) Sending 8=FIX.4.4|9=57|35=0|49=FIXCLIENT1|56=DMA_HUB|34=36|52=20231113-10:40:58|10=040|
2023-11-13 11:41:16.461 [29] [FixSender] (DEBUG) Receiving 8=FIX.4.4|9=61|35=0|34=65|49=DMA_HUB|56=FIXCLIENT1|52=20231113-10:41:16.461|10=233|
2023-11-13 11:41:28.485 [33] [FixSender] (DEBUG) Sending 8=FIX.4.4|9=57|35=0|49=FIXCLIENT1|56=DMA_HUB|34=37|52=20231113-10:41:28|10=039|
2023-11-13 11:41:46.412 [29] [FixSender] (DEBUG) Receiving 8=FIX.4.4|9=61|35=0|34=66|49=DMA_HUB|56=FIXCLIENT1|52=20231113-10:41:46.412|10=233|
2023-11-13 11:41:58.488 [33] [FixSender] (DEBUG) Sending 8=FIX.4.4|9=57|35=0|49=FIXCLIENT1|56=DMA_HUB|34=38|52=20231113-10:41:58|10=043|
2023-11-13 11:42:16.405 [29] [FixSender] (DEBUG) Receiving 8=FIX.4.4|9=61|35=0|34=67|49=DMA_HUB|56=FIXCLIENT1|52=20231113-10:42:16.404|10=233|
2023-11-13 11:42:28.497 [33] [FixSender] (DEBUG) Sending 8=FIX.4.4|9=57|35=0|49=FIXCLIENT1|56=DMA_HUB|34=39|52=20231113-10:42:28|10=042|
2023-11-13 11:42:46.380 [29] [FixSender] (DEBUG) Receiving 8=FIX.4.4|9=61|35=0|34=68|49=DMA_HUB|56=FIXCLIENT1|52=20231113-10:42:46.380|10=240|
2023-11-13 11:42:58.499 [33] [FixSender] (DEBUG) Sending 8=FIX.4.4|9=57|35=0|49=FIXCLIENT1|56=DMA_HUB|34=40|52=20231113-10:42:58|10=037|
2023-11-13 11:43:16.333 [29] [FixSender] (DEBUG) Receiving 8=FIX.4.4|9=61|35=0|34=69|49=DMA_HUB|56=FIXCLIENT1|52=20231113-10:43:16.333|10=237|
2023-11-13 11:43:28.502 [33] [FixSender] (DEBUG) Sending 8=FIX.4.4|9=57|35=0|49=FIXCLIENT1|56=DMA_HUB|34=41|52=20231113-10:43:28|10=036|
2023-11-13 11:43:46.284 [29] [FixSender] (DEBUG) Receiving 8=FIX.4.4|9=61|35=0|34=70|49=DMA_HUB|56=FIXCLIENT1|52=20231113-10:43:46.284|10=237|
2023-11-13 11:43:58.503 [33] [FixSender] (DEBUG) Sending 8=FIX.4.4|9=57|35=0|49=FIXCLIENT1|56=DMA_HUB|34=42|52=20231113-10:43:58|10=040|
2023-11-13 11:44:16.237 [29] [FixSender] (DEBUG) Receiving 8=FIX.4.4|9=61|35=0|34=71|49=DMA_HUB|56=FIXCLIENT1|52=20231113-10:44:16.236|10=233|
2023-11-13 11:44:28.516 [33] [FixSender] (DEBUG) Sending 8=FIX.4.4|9=57|35=0|49=FIXCLIENT1|56=DMA_HUB|34=43|52=20231113-10:44:28|10=039|
2023-11-13 11:44:46.190 [29] [FixSender] (DEBUG) Receiving 8=FIX.4.4|9=61|35=0|34=72|49=DMA_HUB|56=FIXCLIENT1|52=20231113-10:44:46.189|10=244|
2023-11-13 11:44:58.519 [33] [FixSender] (DEBUG) Sending 8=FIX.4.4|9=57|35=0|49=FIXCLIENT1|56=DMA_HUB|34=44|52=20231113-10:44:58|10=043|
2023-11-13 11:45:16.142 [29] [FixSender] (DEBUG) Receiving 8=FIX.4.4|9=61|35=0|34=73|49=DMA_HUB|56=FIXCLIENT1|52=20231113-10:45:16.140|10=230|
2023-11-13 11:45:28.520 [33] [FixSender] (DEBUG) Sending 8=FIX.4.4|9=57|35=0|49=FIXCLIENT1|56=DMA_HUB|34=45|52=20231113-10:45:28|10=042|
2023-11-13 11:45:46.092 [29] [FixSender] (DEBUG) Receiving 8=FIX.4.4|9=61|35=0|34=74|49=DMA_HUB|56=FIXCLIENT1|52=20231113-10:45:46.092|10=240|
2023-11-13 11:45:58.521 [33] [FixSender] (DEBUG) Sending 8=FIX.4.4|9=57|35=0|49=FIXCLIENT1|56=DMA_HUB|34=46|52=20231113-10:45:58|10=046|
2023-11-13 11:46:16.045 [29] [FixSender] (DEBUG) Receiving 8=FIX.4.4|9=61|35=0|34=75|49=DMA_HUB|56=FIXCLIENT1|52=20231113-10:46:16.045|10=237|
2023-11-13 11:46:28.522 [33] [FixSender] (DEBUG) Sending 8=FIX.4.4|9=57|35=0|49=FIXCLIENT1|56=DMA_HUB|34=47|52=20231113-10:46:28|10=045|
2023-11-13 11:46:45.998 [29] [FixSender] (DEBUG) Receiving 8=FIX.4.4|9=61|35=0|34=76|49=DMA_HUB|56=FIXCLIENT1|52=20231113-10:46:45.998|10=001|
2023-11-13 11:46:58.523 [33] [FixSender] (DEBUG) Sending 8=FIX.4.4|9=57|35=0|49=FIXCLIENT1|56=DMA_HUB|34=48|52=20231113-10:46:58|10=049|
2023-11-13 11:47:15.950 [29] [FixSender] (DEBUG) Receiving 8=FIX.4.4|9=61|35=0|34=77|49=DMA_HUB|56=FIXCLIENT1|52=20231113-10:47:15.948|10=251|
2023-11-13 11:47:28.524 [33] [FixSender] (DEBUG) Sending 8=FIX.4.4|9=57|35=0|49=FIXCLIENT1|56=DMA_HUB|34=49|52=20231113-10:47:28|10=048|
2023-11-13 11:47:45.901 [29] [FixSender] (DEBUG) Receiving 8=FIX.4.4|9=61|35=0|34=78|49=DMA_HUB|56=FIXCLIENT1|52=20231113-10:47:45.901|10=244|
2023-11-13 11:47:58.529 [33] [FixSender] (DEBUG) Sending 8=FIX.4.4|9=57|35=0|49=FIXCLIENT1|56=DMA_HUB|34=50|52=20231113-10:47:58|10=043|
2023-11-13 11:48:15.853 [29] [FixSender] (DEBUG) Receiving 8=FIX.4.4|9=61|35=0|34=79|49=DMA_HUB|56=FIXCLIENT1|52=20231113-10:48:15.853|10=249|
2023-11-13 11:48:28.530 [33] [FixSender] (DEBUG) Sending 8=FIX.4.4|9=57|35=0|49=FIXCLIENT1|56=DMA_HUB|34=51|52=20231113-10:48:28|10=042|
2023-11-13 11:48:45.805 [29] [FixSender] (DEBUG) Receiving 8=FIX.4.4|9=61|35=0|34=80|49=DMA_HUB|56=FIXCLIENT1|52=20231113-10:48:45.804|10=240|
2023-11-13 11:48:58.532 [33] [FixSender] (DEBUG) Sending 8=FIX.4.4|9=57|35=0|49=FIXCLIENT1|56=DMA_HUB|34=52|52=20231113-10:48:58|10=046|
2023-11-13 11:49:15.757 [29] [FixSender] (DEBUG) Receiving 8=FIX.4.4|9=61|35=0|34=81|49=DMA_HUB|56=FIXCLIENT1|52=20231113-10:49:15.757|10=246|
2023-11-13 11:49:28.534 [33] [FixSender] (DEBUG) Sending 8=FIX.4.4|9=57|35=0|49=FIXCLIENT1|56=DMA_HUB|34=53|52=20231113-10:49:28|10=045|
2023-11-13 11:49:45.709 [29] [FixSender] (DEBUG) Receiving 8=FIX.4.4|9=61|35=0|34=82|49=DMA_HUB|56=FIXCLIENT1|52=20231113-10:49:45.709|10=247|
2023-11-13 11:49:58.547 [33] [FixSender] (DEBUG) Sending 8=FIX.4.4|9=57|35=0|49=FIXCLIENT1|56=DMA_HUB|34=54|52=20231113-10:49:58|10=049|
2023-11-13 11:50:15.661 [29] [FixSender] (DEBUG) Receiving 8=FIX.4.4|9=61|35=0|34=83|49=DMA_HUB|56=FIXCLIENT1|52=20231113-10:50:15.661|10=234|
2023-11-13 11:50:28.560 [33] [FixSender] (DEBUG) Sending 8=FIX.4.4|9=57|35=0|49=FIXCLIENT1|56=DMA_HUB|34=55|52=20231113-10:50:28|10=039|
2023-11-13 11:50:45.612 [29] [FixSender] (DEBUG) Receiving 8=FIX.4.4|9=61|35=0|34=84|49=DMA_HUB|56=FIXCLIENT1|52=20231113-10:50:45.612|10=234|
2023-11-13 11:50:58.562 [33] [FixSender] (DEBUG) Sending 8=FIX.4.4|9=57|35=0|49=FIXCLIENT1|56=DMA_HUB|34=56|52=20231113-10:50:58|10=043|
2023-11-13 11:51:15.565 [29] [FixSender] (DEBUG) Receiving 8=FIX.4.4|9=61|35=0|34=85|49=DMA_HUB|56=FIXCLIENT1|52=20231113-10:51:15.565|10=240|
2023-11-13 11:51:28.565 [33] [FixSender] (DEBUG) Sending 8=FIX.4.4|9=57|35=0|49=FIXCLIENT1|56=DMA_HUB|34=57|52=20231113-10:51:28|10=042|
2023-11-13 11:51:45.518 [29] [FixSender] (DEBUG) Receiving 8=FIX.4.4|9=61|35=0|34=86|49=DMA_HUB|56=FIXCLIENT1|52=20231113-10:51:45.517|10=241|
2023-11-13 11:51:58.567 [33] [FixSender] (DEBUG) Sending 8=FIX.4.4|9=57|35=0|49=FIXCLIENT1|56=DMA_HUB|34=58|52=20231113-10:51:58|10=046|
2023-11-13 11:52:15.468 [29] [FixSender] (DEBUG) Receiving 8=FIX.4.4|9=61|35=0|34=87|49=DMA_HUB|56=FIXCLIENT1|52=20231113-10:52:15.468|10=245|
2023-11-13 11:52:28.570 [33] [FixSender] (DEBUG) Sending 8=FIX.4.4|9=57|35=0|49=FIXCLIENT1|56=DMA_HUB|34=59|52=20231113-10:52:28|10=045|
2023-11-13 11:52:45.421 [29] [FixSender] (DEBUG) Receiving 8=FIX.4.4|9=61|35=0|34=88|49=DMA_HUB|56=FIXCLIENT1|52=20231113-10:52:45.421|10=238|
2023-11-13 11:52:58.575 [33] [FixSender] (DEBUG) Sending 8=FIX.4.4|9=57|35=0|49=FIXCLIENT1|56=DMA_HUB|34=60|52=20231113-10:52:58|10=040|
2023-11-13 11:53:15.372 [29] [FixSender] (DEBUG) Receiving 8=FIX.4.4|9=61|35=0|34=89|49=DMA_HUB|56=FIXCLIENT1|52=20231113-10:53:15.372|10=242|
2023-11-13 11:53:28.578 [33] [FixSender] (DEBUG) Sending 8=FIX.4.4|9=57|35=0|49=FIXCLIENT1|56=DMA_HUB|34=61|52=20231113-10:53:28|10=039|
2023-11-13 11:53:45.325 [29] [FixSender] (DEBUG) Receiving 8=FIX.4.4|9=61|35=0|34=90|49=DMA_HUB|56=FIXCLIENT1|52=20231113-10:53:45.325|10=235|
2023-11-13 11:53:58.579 [33] [FixSender] (DEBUG) Sending 8=FIX.4.4|9=57|35=0|49=FIXCLIENT1|56=DMA_HUB|34=62|52=20231113-10:53:58|10=043|
2023-11-13 11:54:15.276 [29] [FixSender] (DEBUG) Receiving 8=FIX.4.4|9=61|35=0|34=91|49=DMA_HUB|56=FIXCLIENT1|52=20231113-10:54:15.276|10=239|
2023-11-13 11:54:28.581 [33] [FixSender] (DEBUG) Sending 8=FIX.4.4|9=57|35=0|49=FIXCLIENT1|56=DMA_HUB|34=63|52=20231113-10:54:28|10=042|
2023-11-13 11:54:45.230 [29] [FixSender] (DEBUG) Receiving 8=FIX.4.4|9=61|35=0|34=92|49=DMA_HUB|56=FIXCLIENT1|52=20231113-10:54:45.229|10=241|
2023-11-13 11:54:58.583 [33] [FixSender] (DEBUG) Sending 8=FIX.4.4|9=57|35=0|49=FIXCLIENT1|56=DMA_HUB|34=64|52=20231113-10:54:58|10=046|
2023-11-13 11:55:15.181 [29] [FixSender] (DEBUG) Receiving 8=FIX.4.4|9=61|35=0|34=93|49=DMA_HUB|56=FIXCLIENT1|52=20231113-10:55:15.181|10=237|
2023-11-13 11:55:28.587 [33] [FixSender] (DEBUG) Sending 8=FIX.4.4|9=57|35=0|49=FIXCLIENT1|56=DMA_HUB|34=65|52=20231113-10:55:28|10=045|
2023-11-13 11:55:45.134 [29] [FixSender] (DEBUG) Receiving 8=FIX.4.4|9=61|35=0|34=94|49=DMA_HUB|56=FIXCLIENT1|52=20231113-10:55:45.133|10=238|
2023-11-13 11:55:58.588 [33] [FixSender] (DEBUG) Sending 8=FIX.4.4|9=57|35=0|49=FIXCLIENT1|56=DMA_HUB|34=66|52=20231113-10:55:58|10=049|
2023-11-13 11:56:15.084 [29] [FixSender] (DEBUG) Receiving 8=FIX.4.4|9=61|35=0|34=95|49=DMA_HUB|56=FIXCLIENT1|52=20231113-10:56:15.084|10=242|
2023-11-13 11:56:28.588 [33] [FixSender] (DEBUG) Sending 8=FIX.4.4|9=57|35=0|49=FIXCLIENT1|56=DMA_HUB|34=67|52=20231113-10:56:28|10=048|
2023-11-13 11:56:45.036 [29] [FixSender] (DEBUG) Receiving 8=FIX.4.4|9=61|35=0|34=96|49=DMA_HUB|56=FIXCLIENT1|52=20231113-10:56:45.036|10=243|
2023-11-13 11:56:58.588 [33] [FixSender] (DEBUG) Sending 8=FIX.4.4|9=57|35=0|49=FIXCLIENT1|56=DMA_HUB|34=68|52=20231113-10:56:58|10=052|
2023-11-13 11:57:14.989 [29] [FixSender] (DEBUG) Receiving 8=FIX.4.4|9=61|35=0|34=97|49=DMA_HUB|56=FIXCLIENT1|52=20231113-10:57:14.989|10=002|
2023-11-13 11:57:28.590 [33] [FixSender] (DEBUG) Sending 8=FIX.4.4|9=57|35=0|49=FIXCLIENT1|56=DMA_HUB|34=69|52=20231113-10:57:28|10=051|
2023-11-13 11:57:44.940 [29] [FixSender] (DEBUG) Receiving 8=FIX.4.4|9=61|35=0|34=98|49=DMA_HUB|56=FIXCLIENT1|52=20231113-10:57:44.940|10=249|
2023-11-13 11:57:58.594 [33] [FixSender] (DEBUG) Sending 8=FIX.4.4|9=57|35=0|49=FIXCLIENT1|56=DMA_HUB|34=70|52=20231113-10:57:58|10=046|
2023-11-13 11:58:14.893 [29] [FixSender] (DEBUG) Receiving 8=FIX.4.4|9=61|35=0|34=99|49=DMA_HUB|56=FIXCLIENT1|52=20231113-10:58:14.893|10=255|
2023-11-13 11:58:28.604 [33] [FixSender] (DEBUG) Sending 8=FIX.4.4|9=57|35=0|49=FIXCLIENT1|56=DMA_HUB|34=71|52=20231113-10:58:28|10=045|
2023-11-13 11:58:44.844 [29] [FixSender] (DEBUG) Receiving 8=FIX.4.4|9=62|35=0|34=100|49=DMA_HUB|56=FIXCLIENT1|52=20231113-10:58:44.844|10=030|
2023-11-13 11:58:58.606 [33] [FixSender] (DEBUG) Sending 8=FIX.4.4|9=57|35=0|49=FIXCLIENT1|56=DMA_HUB|34=72|52=20231113-10:58:58|10=049|
2023-11-13 11:59:14.798 [29] [FixSender] (DEBUG) Receiving 8=FIX.4.4|9=62|35=0|34=101|49=DMA_HUB|56=FIXCLIENT1|52=20231113-10:59:14.797|10=036|
2023-11-13 11:59:28.614 [33] [FixSender] (DEBUG) Sending 8=FIX.4.4|9=57|35=0|49=FIXCLIENT1|56=DMA_HUB|34=73|52=20231113-10:59:28|10=048|
2023-11-13 11:59:44.748 [29] [FixSender] (DEBUG) Receiving 8=FIX.4.4|9=62|35=0|34=102|49=DMA_HUB|56=FIXCLIENT1|52=20231113-10:59:44.748|10=036|
2023-11-13 11:59:58.617 [33] [FixSender] (DEBUG) Sending 8=FIX.4.4|9=57|35=0|49=FIXCLIENT1|56=DMA_HUB|34=74|52=20231113-10:59:58|10=052|
2023-11-13 12:00:14.701 [29] [FixSender] (DEBUG) Receiving 8=FIX.4.4|9=62|35=0|34=103|49=DMA_HUB|56=FIXCLIENT1|52=20231113-11:00:14.701|10=010|
2023-11-13 12:00:28.618 [33] [FixSender] (DEBUG) Sending 8=FIX.4.4|9=57|35=0|49=FIXCLIENT1|56=DMA_HUB|34=75|52=20231113-11:00:28|10=037|
2023-11-13 12:00:44.653 [29] [FixSender] (DEBUG) Receiving 8=FIX.4.4|9=62|35=0|34=104|49=DMA_HUB|56=FIXCLIENT1|52=20231113-11:00:44.652|10=019|
2023-11-13 12:00:58.619 [33] [FixSender] (DEBUG) Sending 8=FIX.4.4|9=57|35=0|49=FIXCLIENT1|56=DMA_HUB|34=76|52=20231113-11:00:58|10=041|
2023-11-13 12:01:14.605 [29] [FixSender] (DEBUG) Receiving 8=FIX.4.4|9=62|35=0|34=105|49=DMA_HUB|56=FIXCLIENT1|52=20231113-11:01:14.605|10=016|
2023-11-13 12:01:28.620 [33] [FixSender] (DEBUG) Sending 8=FIX.4.4|9=57|35=0|49=FIXCLIENT1|56=DMA_HUB|34=77|52=20231113-11:01:28|10=040|
2023-11-13 12:01:44.556 [29] [FixSender] (DEBUG) Receiving 8=FIX.4.4|9=62|35=0|34=106|49=DMA_HUB|56=FIXCLIENT1|52=20231113-11:01:44.556|10=025|
2023-11-13 12:01:58.623 [33] [FixSender] (DEBUG) Sending 8=FIX.4.4|9=57|35=0|49=FIXCLIENT1|56=DMA_HUB|34=78|52=20231113-11:01:58|10=044|
2023-11-13 12:02:14.509 [29] [FixSender] (DEBUG) Receiving 8=FIX.4.4|9=62|35=0|34=107|49=DMA_HUB|56=FIXCLIENT1|52=20231113-11:02:14.509|10=022|
2023-11-13 12:02:28.627 [33] [FixSender] (DEBUG) Sending 8=FIX.4.4|9=57|35=0|49=FIXCLIENT1|56=DMA_HUB|34=79|52=20231113-11:02:28|10=043|
2023-11-13 12:02:44.460 [29] [FixSender] (DEBUG) Receiving 8=FIX.4.4|9=62|35=0|34=108|49=DMA_HUB|56=FIXCLIENT1|52=20231113-11:02:44.460|10=022|
2023-11-13 12:02:58.629 [33] [FixSender] (DEBUG) Sending 8=FIX.4.4|9=57|35=0|49=FIXCLIENT1|56=DMA_HUB|34=80|52=20231113-11:02:58|10=038|
2023-11-13 12:03:14.414 [29] [FixSender] (DEBUG) Receiving 8=FIX.4.4|9=62|35=0|34=109|49=DMA_HUB|56=FIXCLIENT1|52=20231113-11:03:14.413|10=019|
2023-11-13 12:03:28.634 [33] [FixSender] (DEBUG) Sending 8=FIX.4.4|9=57|35=0|49=FIXCLIENT1|56=DMA_HUB|34=81|52=20231113-11:03:28|10=037|
2023-11-13 12:03:44.366 [29] [FixSender] (DEBUG) Receiving 8=FIX.4.4|9=62|35=0|34=110|49=DMA_HUB|56=FIXCLIENT1|52=20231113-11:03:44.365|10=020|
2023-11-13 12:03:58.637 [33] [FixSender] (DEBUG) Sending 8=FIX.4.4|9=57|35=0|49=FIXCLIENT1|56=DMA_HUB|34=82|52=20231113-11:03:58|10=041|
2023-11-13 12:04:14.318 [29] [FixSender] (DEBUG) Receiving 8=FIX.4.4|9=62|35=0|34=111|49=DMA_HUB|56=FIXCLIENT1|52=20231113-11:04:14.317|10=016|
2023-11-13 12:04:28.638 [33] [FixSender] (DEBUG) Sending 8=FIX.4.4|9=57|35=0|49=FIXCLIENT1|56=DMA_HUB|34=83|52=20231113-11:04:28|10=040|
2023-11-13 12:04:44.270 [29] [FixSender] (DEBUG) Receiving 8=FIX.4.4|9=62|35=0|34=112|49=DMA_HUB|56=FIXCLIENT1|52=20231113-11:04:44.269|10=026|
2023-11-13 12:04:58.640 [33] [FixSender] (DEBUG) Sending 8=FIX.4.4|9=57|35=0|49=FIXCLIENT1|56=DMA_HUB|34=84|52=20231113-11:04:58|10=044|
2023-11-13 12:05:14.220 [29] [FixSender] (DEBUG) Receiving 8=FIX.4.4|9=62|35=0|34=113|49=DMA_HUB|56=FIXCLIENT1|52=20231113-11:05:14.220|10=012|
2023-11-13 12:05:28.641 [33] [FixSender] (DEBUG) Sending 8=FIX.4.4|9=57|35=0|49=FIXCLIENT1|56=DMA_HUB|34=85|52=20231113-11:05:28|10=043|
2023-11-13 12:05:44.173 [29] [FixSender] (DEBUG) Receiving 8=FIX.4.4|9=62|35=0|34=114|49=DMA_HUB|56=FIXCLIENT1|52=20231113-11:05:44.173|10=023|
2023-11-13 12:05:58.643 [33] [FixSender] (DEBUG) Sending 8=FIX.4.4|9=57|35=0|49=FIXCLIENT1|56=DMA_HUB|34=86|52=20231113-11:05:58|10=047|
2023-11-13 12:06:14.126 [29] [FixSender] (DEBUG) Receiving 8=FIX.4.4|9=62|35=0|34=115|49=DMA_HUB|56=FIXCLIENT1|52=20231113-11:06:14.125|10=019|
2023-11-13 12:06:28.646 [33] [FixSender] (DEBUG) Sending 8=FIX.4.4|9=57|35=0|49=FIXCLIENT1|56=DMA_HUB|34=87|52=20231113-11:06:28|10=046|
2023-11-13 12:06:44.076 [29] [FixSender] (DEBUG) Receiving 8=FIX.4.4|9=62|35=0|34=116|49=DMA_HUB|56=FIXCLIENT1|52=20231113-11:06:44.076|10=028|
2023-11-13 12:06:58.648 [33] [FixSender] (DEBUG) Sending 8=FIX.4.4|9=57|35=0|49=FIXCLIENT1|56=DMA_HUB|34=88|52=20231113-11:06:58|10=050|
2023-11-13 12:07:14.029 [29] [FixSender] (DEBUG) Receiving 8=FIX.4.4|9=62|35=0|34=117|49=DMA_HUB|56=FIXCLIENT1|52=20231113-11:07:14.029|10=025|
2023-11-13 12:07:28.654 [33] [FixSender] (DEBUG) Sending 8=FIX.4.4|9=57|35=0|49=FIXCLIENT1|56=DMA_HUB|34=89|52=20231113-11:07:28|10=049|
2023-11-13 12:07:43.981 [29] [FixSender] (DEBUG) Receiving 8=FIX.4.4|9=62|35=0|34=118|49=DMA_HUB|56=FIXCLIENT1|52=20231113-11:07:43.981|10=035|
2023-11-13 12:07:58.656 [33] [FixSender] (DEBUG) Sending 8=FIX.4.4|9=57|35=0|49=FIXCLIENT1|56=DMA_HUB|34=90|52=20231113-11:07:58|10=044|
2023-11-13 12:08:13.933 [29] [FixSender] (DEBUG) Receiving 8=FIX.4.4|9=62|35=0|34=119|49=DMA_HUB|56=FIXCLIENT1|52=20231113-11:08:13.933|10=031|
2023-11-13 12:08:28.657 [33] [FixSender] (DEBUG) Sending 8=FIX.4.4|9=57|35=0|49=FIXCLIENT1|56=DMA_HUB|34=91|52=20231113-11:08:28|10=043|
2023-11-13 12:08:43.884 [29] [FixSender] (DEBUG) Receiving 8=FIX.4.4|9=62|35=0|34=120|49=DMA_HUB|56=FIXCLIENT1|52=20231113-11:08:43.884|10=031|
2023-11-13 12:08:58.658 [33] [FixSender] (DEBUG) Sending 8=FIX.4.4|9=57|35=0|49=FIXCLIENT1|56=DMA_HUB|34=92|52=20231113-11:08:58|10=047|
2023-11-13 12:09:13.838 [29] [FixSender] (DEBUG) Receiving 8=FIX.4.4|9=62|35=0|34=121|49=DMA_HUB|56=FIXCLIENT1|52=20231113-11:09:13.837|10=028|
2023-11-13 12:09:28.659 [33] [FixSender] (DEBUG) Sending 8=FIX.4.4|9=57|35=0|49=FIXCLIENT1|56=DMA_HUB|34=93|52=20231113-11:09:28|10=046|
2023-11-13 12:09:31.065 [29] [FixSender] (DEBUG) Receiving 8=FIX.4.4|9=62|35=5|34=122|49=DMA_HUB|56=FIXCLIENT1|52=20231113-11:09:31.064|10=026|
2023-11-13 12:09:31.065 [29] [FixSender] (DEBUG) Sending 8=FIX.4.4|9=79|35=5|49=FIXCLIENT1|56=DMA_HUB|34=94|52=20231113-11:09:31|58=Replying to logout|10=228|
2023-11-13 12:09:31.066 [29] [FixSender] (WARNING) The Fix connection is close...
2023-11-13 12:09:31.070 [29] [FixSender] (INFO) physical cnx finished Connection reset by peer
2023-11-13 12:09:31.070 [29] [FixSender] (WARNING) Disconnected
2023-11-13 15:00:05.894 [37] [FixSender] (INFO) try to connect to : localhost port :12345
2023-11-13 15:00:05.898 [37] [FixSender] (INFO) physical cnx initiated
2023-11-13 15:00:05.902 [37] [FixSender] (DEBUG) Sending 8=FIX.4.4|9=87|35=A|49=FIXCLIENT1|56=DMA_HUB|34=95|52=20231113-14:00:05|98=0|108=30|95=9|96=null/null|10=137|
2023-11-13 15:00:05.910 [37] [FixSender] (DEBUG) Receiving 8=FIX.4.4|9=74|35=A|34=123|49=DMA_HUB|56=FIXCLIENT1|52=20231113-14:00:05.906|108=30|98=0|10=067|
2023-11-13 15:00:05.911 [37] [FixSender] (WARNING) The Fix connection is open...
2023-11-13 15:00:05.916 [37] [FixSender] (DEBUG) Sending 8=FIX.4.4|9=75|35=1|49=FIXCLIENT1|56=DMA_HUB|34=96|52=20231113-14:00:05|112=synchronized?|10=088|
2023-11-13 15:00:05.918 [37] [FixSender] (DEBUG) Receiving 8=FIX.4.4|9=80|35=0|34=124|49=DMA_HUB|56=FIXCLIENT1|52=20231113-14:00:05.917|112=synchronized?|10=074|
2023-11-13 15:00:08.895 [40] [FixSender] (DEBUG) Sending 8=FIX.4.4|9=197|35=D|49=FIXCLIENT1|56=DMA_HUB|34=97|52=20231113-14:00:08|21=1|11=HS_16998840083|38=3853|55=E:07G@XETR|54=2|60=20231113-14:00:08|40=2|59=0|44=197.111|48=US3390411052|22=4|15=EUR|207=XETR|1=bram_123|10=095|
2023-11-13 15:00:08.907 [37] [FixSender] (DEBUG) Receiving 8=FIX.4.4|9=240|35=8|34=125|49=DMA_HUB|56=FIXCLIENT1|52=20231113-14:00:08.906|11=HS_16998840083|37=FX5iXVVdQ|54=2|40=2|59=0|17=202311134|150=A|39=A|38=3853|151=3853|14=0|6=0|44=197.111|60=20231113-14:00:08.000|22=4|48=US3390411052|207=XETR|15=EUR|55=[N/A]|10=012|
2023-11-13 15:00:35.864 [37] [FixSender] (DEBUG) Receiving 8=FIX.4.4|9=62|35=0|34=126|49=DMA_HUB|56=FIXCLIENT1|52=20231113-14:00:35.863|10=030|
2023-11-13 15:00:38.895 [38] [FixSender] (DEBUG) Sending 8=FIX.4.4|9=57|35=0|49=FIXCLIENT1|56=DMA_HUB|34=98|52=20231113-14:00:38|10=046|
2023-11-13 15:01:05.816 [37] [FixSender] (DEBUG) Receiving 8=FIX.4.4|9=62|35=0|34=127|49=DMA_HUB|56=FIXCLIENT1|52=20231113-14:01:05.816|10=027|
2023-11-13 15:01:08.925 [38] [FixSender] (DEBUG) Sending 8=FIX.4.4|9=57|35=0|49=FIXCLIENT1|56=DMA_HUB|34=99|52=20231113-14:01:08|10=045|
2023-11-13 15:01:35.768 [37] [FixSender] (DEBUG) Receiving 8=FIX.4.4|9=62|35=0|34=128|49=DMA_HUB|56=FIXCLIENT1|52=20231113-14:01:35.768|10=037|
2023-11-13 15:01:38.942 [38] [FixSender] (DEBUG) Sending 8=FIX.4.4|9=58|35=0|49=FIXCLIENT1|56=DMA_HUB|34=100|52=20231113-14:01:38|10=080|
2023-11-13 15:01:44.523 [41] [FixSender] (DEBUG) Sending 8=FIX.4.4|9=197|35=D|49=FIXCLIENT1|56=DMA_HUB|34=101|52=20231113-14:01:44|21=1|11=HS_16998841044|38=393|55=E:07G@XETR|54=2|60=20231113-14:01:44|40=2|59=0|44=197.111|48=US3390411052|22=4|15=EUR|207=XETR|1=bram_123|10=077|
2023-11-13 15:01:44.525 [37] [FixSender] (DEBUG) Receiving 8=FIX.4.4|9=238|35=8|34=129|49=DMA_HUB|56=FIXCLIENT1|52=20231113-14:01:44.524|11=HS_16998841044|37=FX6iXVVdQ|54=2|40=2|59=0|17=202311135|150=A|39=A|38=393|151=393|14=0|6=0|44=197.111|60=20231113-14:01:44.000|22=4|48=US3390411052|207=XETR|15=EUR|55=[N/A]|10=173|
2023-11-13 15:02:05.720 [37] [FixSender] (DEBUG) Receiving 8=FIX.4.4|9=62|35=0|34=130|49=DMA_HUB|56=FIXCLIENT1|52=20231113-14:02:05.719|10=024|
2023-11-13 15:02:14.526 [38] [FixSender] (DEBUG) Sending 8=FIX.4.4|9=58|35=0|49=FIXCLIENT1|56=DMA_HUB|34=102|52=20231113-14:02:14|10=077|
2023-11-13 15:02:35.671 [37] [FixSender] (DEBUG) Receiving 8=FIX.4.4|9=62|35=0|34=131|49=DMA_HUB|56=FIXCLIENT1|52=20231113-14:02:35.671|10=025|
2023-11-13 15:02:44.527 [38] [FixSender] (DEBUG) Sending 8=FIX.4.4|9=58|35=0|49=FIXCLIENT1|56=DMA_HUB|34=103|52=20231113-14:02:44|10=081|
2023-11-13 15:03:05.626 [37] [FixSender] (DEBUG) Receiving 8=FIX.4.4|9=62|35=0|34=132|49=DMA_HUB|56=FIXCLIENT1|52=20231113-14:03:05.624|10=022|
2023-11-13 15:03:14.536 [38] [FixSender] (DEBUG) Sending 8=FIX.4.4|9=58|35=0|49=FIXCLIENT1|56=DMA_HUB|34=104|52=20231113-14:03:14|10=080|
2023-11-13 15:03:35.576 [37] [FixSender] (DEBUG) Receiving 8=FIX.4.4|9=62|35=0|34=133|49=DMA_HUB|56=FIXCLIENT1|52=20231113-14:03:35.576|10=032|
2023-11-13 15:03:44.536 [38] [FixSender] (DEBUG) Sending 8=FIX.4.4|9=58|35=0|49=FIXCLIENT1|56=DMA_HUB|34=105|52=20231113-14:03:44|10=084|
2023-11-13 15:04:05.528 [37] [FixSender] (DEBUG) Receiving 8=FIX.4.4|9=62|35=0|34=134|49=DMA_HUB|56=FIXCLIENT1|52=20231113-14:04:05.528|10=028|
2023-11-13 15:04:14.538 [38] [FixSender] (DEBUG) Sending 8=FIX.4.4|9=58|35=0|49=FIXCLIENT1|56=DMA_HUB|34=106|52=20231113-14:04:14|10=083|
2023-11-13 15:04:35.480 [37] [FixSender] (DEBUG) Receiving 8=FIX.4.4|9=62|35=0|34=135|49=DMA_HUB|56=FIXCLIENT1|52=20231113-14:04:35.480|10=029|
2023-11-13 15:04:44.539 [38] [FixSender] (DEBUG) Sending 8=FIX.4.4|9=58|35=0|49=FIXCLIENT1|56=DMA_HUB|34=107|52=20231113-14:04:44|10=087|
2023-11-13 15:05:05.431 [37] [FixSender] (DEBUG) Receiving 8=FIX.4.4|9=62|35=0|34=136|49=DMA_HUB|56=FIXCLIENT1|52=20231113-14:05:05.431|10=024|
2023-11-13 15:05:14.542 [38] [FixSender] (DEBUG) Sending 8=FIX.4.4|9=58|35=0|49=FIXCLIENT1|56=DMA_HUB|34=108|52=20231113-14:05:14|10=086|
2023-11-13 15:05:35.383 [37] [FixSender] (DEBUG) Receiving 8=FIX.4.4|9=62|35=0|34=137|49=DMA_HUB|56=FIXCLIENT1|52=20231113-14:05:35.383|10=034|
2023-11-13 15:05:44.555 [38] [FixSender] (DEBUG) Sending 8=FIX.4.4|9=58|35=0|49=FIXCLIENT1|56=DMA_HUB|34=109|52=20231113-14:05:44|10=090|
2023-11-13 15:06:05.336 [37] [FixSender] (DEBUG) Receiving 8=FIX.4.4|9=62|35=0|34=138|49=DMA_HUB|56=FIXCLIENT1|52=20231113-14:06:05.336|10=031|
2023-11-13 15:06:14.557 [38] [FixSender] (DEBUG) Sending 8=FIX.4.4|9=58|35=0|49=FIXCLIENT1|56=DMA_HUB|34=110|52=20231113-14:06:14|10=080|
2023-11-13 15:06:35.287 [37] [FixSender] (DEBUG) Receiving 8=FIX.4.4|9=62|35=0|34=139|49=DMA_HUB|56=FIXCLIENT1|52=20231113-14:06:35.287|10=040|
2023-11-13 15:06:44.561 [38] [FixSender] (DEBUG) Sending 8=FIX.4.4|9=58|35=0|49=FIXCLIENT1|56=DMA_HUB|34=111|52=20231113-14:06:44|10=084|
2023-11-13 15:07:05.240 [37] [FixSender] (DEBUG) Receiving 8=FIX.4.4|9=62|35=0|34=140|49=DMA_HUB|56=FIXCLIENT1|52=20231113-14:07:05.239|10=027|
2023-11-13 15:07:14.564 [38] [FixSender] (DEBUG) Sending 8=FIX.4.4|9=58|35=0|49=FIXCLIENT1|56=DMA_HUB|34=112|52=20231113-14:07:14|10=083|
2023-11-13 15:07:35.193 [37] [FixSender] (DEBUG) Receiving 8=FIX.4.4|9=62|35=0|34=141|49=DMA_HUB|56=FIXCLIENT1|52=20231113-14:07:35.192|10=029|
2023-11-13 15:07:44.565 [38] [FixSender] (DEBUG) Sending 8=FIX.4.4|9=58|35=0|49=FIXCLIENT1|56=DMA_HUB|34=113|52=20231113-14:07:44|10=087|
2023-11-13 15:08:05.144 [37] [FixSender] (DEBUG) Receiving 8=FIX.4.4|9=62|35=0|34=142|49=DMA_HUB|56=FIXCLIENT1|52=20231113-14:08:05.143|10=024|
2023-11-13 15:08:14.569 [38] [FixSender] (DEBUG) Sending 8=FIX.4.4|9=58|35=0|49=FIXCLIENT1|56=DMA_HUB|34=114|52=20231113-14:08:14|10=086|
2023-11-13 15:08:35.097 [37] [FixSender] (DEBUG) Receiving 8=FIX.4.4|9=62|35=0|34=143|49=DMA_HUB|56=FIXCLIENT1|52=20231113-14:08:35.096|10=035|
2023-11-13 15:08:44.570 [38] [FixSender] (DEBUG) Sending 8=FIX.4.4|9=58|35=0|49=FIXCLIENT1|56=DMA_HUB|34=115|52=20231113-14:08:44|10=090|
2023-11-13 15:09:05.047 [37] [FixSender] (DEBUG) Receiving 8=FIX.4.4|9=62|35=0|34=144|49=DMA_HUB|56=FIXCLIENT1|52=20231113-14:09:05.047|10=030|
2023-11-13 15:09:14.573 [38] [FixSender] (DEBUG) Sending 8=FIX.4.4|9=58|35=0|49=FIXCLIENT1|56=DMA_HUB|34=116|52=20231113-14:09:14|10=089|
2023-11-13 15:09:35.000 [37] [FixSender] (DEBUG) Receiving 8=FIX.4.4|9=62|35=0|34=145|49=DMA_HUB|56=FIXCLIENT1|52=20231113-14:09:35.000|10=023|
2023-11-13 15:09:44.576 [38] [FixSender] (DEBUG) Sending 8=FIX.4.4|9=58|35=0|49=FIXCLIENT1|56=DMA_HUB|34=117|52=20231113-14:09:44|10=093|
2023-11-13 15:10:04.951 [37] [FixSender] (DEBUG) Receiving 8=FIX.4.4|9=62|35=0|34=146|49=DMA_HUB|56=FIXCLIENT1|52=20231113-14:10:04.951|10=027|
2023-11-13 15:10:14.578 [38] [FixSender] (DEBUG) Sending 8=FIX.4.4|9=58|35=0|49=FIXCLIENT1|56=DMA_HUB|34=118|52=20231113-14:10:14|10=083|
2023-11-13 15:10:34.904 [37] [FixSender] (DEBUG) Receiving 8=FIX.4.4|9=62|35=0|34=147|49=DMA_HUB|56=FIXCLIENT1|52=20231113-14:10:34.904|10=029|
2023-11-13 15:10:44.580 [38] [FixSender] (DEBUG) Sending 8=FIX.4.4|9=58|35=0|49=FIXCLIENT1|56=DMA_HUB|34=119|52=20231113-14:10:44|10=087|
2023-11-13 15:11:04.856 [37] [FixSender] (DEBUG) Receiving 8=FIX.4.4|9=62|35=0|34=148|49=DMA_HUB|56=FIXCLIENT1|52=20231113-14:11:04.856|10=034|
2023-11-13 15:11:14.582 [38] [FixSender] (DEBUG) Sending 8=FIX.4.4|9=58|35=0|49=FIXCLIENT1|56=DMA_HUB|34=120|52=20231113-14:11:14|10=077|
2023-11-13 15:11:34.808 [37] [FixSender] (DEBUG) Receiving 8=FIX.4.4|9=62|35=0|34=149|49=DMA_HUB|56=FIXCLIENT1|52=20231113-14:11:34.808|10=035|
2023-11-13 15:11:44.583 [38] [FixSender] (DEBUG) Sending 8=FIX.4.4|9=58|35=0|49=FIXCLIENT1|56=DMA_HUB|34=121|52=20231113-14:11:44|10=081|
2023-11-13 15:12:04.759 [37] [FixSender] (DEBUG) Receiving 8=FIX.4.4|9=62|35=0|34=150|49=DMA_HUB|56=FIXCLIENT1|52=20231113-14:12:04.759|10=030|
2023-11-13 15:12:14.586 [38] [FixSender] (DEBUG) Sending 8=FIX.4.4|9=58|35=0|49=FIXCLIENT1|56=DMA_HUB|34=122|52=20231113-14:12:14|10=080|
2023-11-13 15:12:34.713 [37] [FixSender] (DEBUG) Receiving 8=FIX.4.4|9=62|35=0|34=151|49=DMA_HUB|56=FIXCLIENT1|52=20231113-14:12:34.712|10=023|
2023-11-13 15:12:44.587 [38] [FixSender] (DEBUG) Sending 8=FIX.4.4|9=58|35=0|49=FIXCLIENT1|56=DMA_HUB|34=123|52=20231113-14:12:44|10=084|
2023-11-13 15:13:04.664 [37] [FixSender] (DEBUG) Receiving 8=FIX.4.4|9=62|35=0|34=152|49=DMA_HUB|56=FIXCLIENT1|52=20231113-14:13:04.664|10=028|
2023-11-13 15:13:14.589 [38] [FixSender] (DEBUG) Sending 8=FIX.4.4|9=58|35=0|49=FIXCLIENT1|56=DMA_HUB|34=124|52=20231113-14:13:14|10=083|
2023-11-13 15:13:34.615 [37] [FixSender] (DEBUG) Receiving 8=FIX.4.4|9=62|35=0|34=153|49=DMA_HUB|56=FIXCLIENT1|52=20231113-14:13:34.615|10=028|
2023-11-13 15:13:44.590 [38] [FixSender] (DEBUG) Sending 8=FIX.4.4|9=58|35=0|49=FIXCLIENT1|56=DMA_HUB|34=125|52=20231113-14:13:44|10=087|
2023-11-13 15:14:04.568 [37] [FixSender] (DEBUG) Receiving 8=FIX.4.4|9=62|35=0|34=154|49=DMA_HUB|56=FIXCLIENT1|52=20231113-14:14:04.568|10=034|
2023-11-13 15:14:09.412 [43] [FixSender] (DEBUG) Sending 8=FIX.4.4|9=198|35=D|49=FIXCLIENT1|56=DMA_HUB|34=126|52=20231113-14:14:09|21=1|11=HS_16998848495|38=1771|55=E:07G@XETR|54=2|60=20231113-14:14:09|40=2|59=0|44=197.111|48=US3390411052|22=4|15=EUR|207=XETR|1=bram_123|10=161|
2023-11-13 15:14:09.414 [37] [FixSender] (DEBUG) Receiving 8=FIX.4.4|9=240|35=8|34=155|49=DMA_HUB|56=FIXCLIENT1|52=20231113-14:14:09.413|11=HS_16998848495|37=FX7iXVVdQ|54=2|40=2|59=0|17=202311136|150=A|39=A|38=1771|151=1771|14=0|6=0|44=197.111|60=20231113-14:14:09.000|22=4|48=US3390411052|207=XETR|15=EUR|55=[N/A]|10=033|
2023-11-13 15:14:34.520 [37] [FixSender] (DEBUG) Receiving 8=FIX.4.4|9=62|35=0|34=156|49=DMA_HUB|56=FIXCLIENT1|52=20231113-14:14:34.520|10=027|
2023-11-13 15:14:39.412 [38] [FixSender] (DEBUG) Sending 8=FIX.4.4|9=58|35=0|49=FIXCLIENT1|56=DMA_HUB|34=127|52=20231113-14:14:39|10=094|
2023-11-13 15:15:04.471 [37] [FixSender] (DEBUG) Receiving 8=FIX.4.4|9=62|35=0|34=157|49=DMA_HUB|56=FIXCLIENT1|52=20231113-14:15:04.471|10=031|
2023-11-13 15:15:09.415 [38] [FixSender] (DEBUG) Sending 8=FIX.4.4|9=58|35=0|49=FIXCLIENT1|56=DMA_HUB|34=128|52=20231113-14:15:09|10=093|
2023-11-13 15:15:34.424 [37] [FixSender] (DEBUG) Receiving 8=FIX.4.4|9=62|35=0|34=158|49=DMA_HUB|56=FIXCLIENT1|52=20231113-14:15:34.423|10=032|
2023-11-13 15:15:39.418 [38] [FixSender] (DEBUG) Sending 8=FIX.4.4|9=58|35=0|49=FIXCLIENT1|56=DMA_HUB|34=129|52=20231113-14:15:39|10=097|
2023-11-13 15:16:04.375 [37] [FixSender] (DEBUG) Receiving 8=FIX.4.4|9=62|35=0|34=159|49=DMA_HUB|56=FIXCLIENT1|52=20231113-14:16:04.375|10=037|
2023-11-13 15:16:09.419 [38] [FixSender] (DEBUG) Sending 8=FIX.4.4|9=58|35=0|49=FIXCLIENT1|56=DMA_HUB|34=130|52=20231113-14:16:09|10=087|
2023-11-13 15:16:34.328 [37] [FixSender] (DEBUG) Receiving 8=FIX.4.4|9=62|35=0|34=160|49=DMA_HUB|56=FIXCLIENT1|52=20231113-14:16:34.328|10=030|
2023-11-13 15:16:39.420 [38] [FixSender] (DEBUG) Sending 8=FIX.4.4|9=58|35=0|49=FIXCLIENT1|56=DMA_HUB|34=131|52=20231113-14:16:39|10=091|
2023-11-13 15:17:04.280 [37] [FixSender] (DEBUG) Receiving 8=FIX.4.4|9=62|35=0|34=161|49=DMA_HUB|56=FIXCLIENT1|52=20231113-14:17:04.280|10=026|
2023-11-13 15:17:09.422 [38] [FixSender] (DEBUG) Sending 8=FIX.4.4|9=58|35=0|49=FIXCLIENT1|56=DMA_HUB|34=132|52=20231113-14:17:09|10=090|
2023-11-13 15:17:34.231 [37] [FixSender] (DEBUG) Receiving 8=FIX.4.4|9=62|35=0|34=162|49=DMA_HUB|56=FIXCLIENT1|52=20231113-14:17:34.231|10=026|
2023-11-13 15:17:39.424 [38] [FixSender] (DEBUG) Sending 8=FIX.4.4|9=58|35=0|49=FIXCLIENT1|56=DMA_HUB|34=133|52=20231113-14:17:39|10=094|
2023-11-13 15:18:04.186 [37] [FixSender] (DEBUG) Receiving 8=FIX.4.4|9=62|35=0|34=163|49=DMA_HUB|56=FIXCLIENT1|52=20231113-14:18:04.185|10=033|
2023-11-13 15:18:09.426 [38] [FixSender] (DEBUG) Sending 8=FIX.4.4|9=58|35=0|49=FIXCLIENT1|56=DMA_HUB|34=134|52=20231113-14:18:09|10=093|
2023-11-13 15:18:34.137 [37] [FixSender] (DEBUG) Receiving 8=FIX.4.4|9=62|35=0|34=164|49=DMA_HUB|56=FIXCLIENT1|52=20231113-14:18:34.136|10=033|
2023-11-13 15:18:39.427 [38] [FixSender] (DEBUG) Sending 8=FIX.4.4|9=58|35=0|49=FIXCLIENT1|56=DMA_HUB|34=135|52=20231113-14:18:39|10=097|
2023-11-13 15:19:04.087 [37] [FixSender] (DEBUG) Receiving 8=FIX.4.4|9=62|35=0|34=165|49=DMA_HUB|56=FIXCLIENT1|52=20231113-14:19:04.087|10=037|
2023-11-13 15:19:09.429 [38] [FixSender] (DEBUG) Sending 8=FIX.4.4|9=58|35=0|49=FIXCLIENT1|56=DMA_HUB|34=136|52=20231113-14:19:09|10=096|
2023-11-13 15:19:34.039 [37] [FixSender] (DEBUG) Receiving 8=FIX.4.4|9=62|35=0|34=166|49=DMA_HUB|56=FIXCLIENT1|52=20231113-14:19:34.039|10=038|
2023-11-13 15:19:39.431 [38] [FixSender] (DEBUG) Sending 8=FIX.4.4|9=58|35=0|49=FIXCLIENT1|56=DMA_HUB|34=137|52=20231113-14:19:39|10=100|
2023-11-13 15:20:03.993 [37] [FixSender] (DEBUG) Receiving 8=FIX.4.4|9=62|35=0|34=167|49=DMA_HUB|56=FIXCLIENT1|52=20231113-14:20:03.992|10=035|
2023-11-13 15:20:09.433 [38] [FixSender] (DEBUG) Sending 8=FIX.4.4|9=58|35=0|49=FIXCLIENT1|56=DMA_HUB|34=138|52=20231113-14:20:09|10=090|
2023-11-13 15:20:33.943 [37] [FixSender] (DEBUG) Receiving 8=FIX.4.4|9=62|35=0|34=168|49=DMA_HUB|56=FIXCLIENT1|52=20231113-14:20:33.943|10=035|
2023-11-13 15:20:39.434 [38] [FixSender] (DEBUG) Sending 8=FIX.4.4|9=58|35=0|49=FIXCLIENT1|56=DMA_HUB|34=139|52=20231113-14:20:39|10=094|
2023-11-13 15:21:03.897 [37] [FixSender] (DEBUG) Receiving 8=FIX.4.4|9=62|35=0|34=169|49=DMA_HUB|56=FIXCLIENT1|52=20231113-14:21:03.896|10=041|
2023-11-13 15:21:09.434 [38] [FixSender] (DEBUG) Sending 8=FIX.4.4|9=58|35=0|49=FIXCLIENT1|56=DMA_HUB|34=140|52=20231113-14:21:09|10=084|
2023-11-13 15:21:33.848 [37] [FixSender] (DEBUG) Receiving 8=FIX.4.4|9=62|35=0|34=170|49=DMA_HUB|56=FIXCLIENT1|52=20231113-14:21:33.848|10=033|
2023-11-13 15:21:39.437 [38] [FixSender] (DEBUG) Sending 8=FIX.4.4|9=58|35=0|49=FIXCLIENT1|56=DMA_HUB|34=141|52=20231113-14:21:39|10=088|
2023-11-13 15:22:03.800 [37] [FixSender] (DEBUG) Receiving 8=FIX.4.4|9=62|35=0|34=171|49=DMA_HUB|56=FIXCLIENT1|52=20231113-14:22:03.799|10=037|
2023-11-13 15:22:09.437 [38] [FixSender] (DEBUG) Sending 8=FIX.4.4|9=58|35=0|49=FIXCLIENT1|56=DMA_HUB|34=142|52=20231113-14:22:09|10=087|
2023-11-13 15:22:33.752 [37] [FixSender] (DEBUG) Receiving 8=FIX.4.4|9=62|35=0|34=172|49=DMA_HUB|56=FIXCLIENT1|52=20231113-14:22:33.752|10=030|
2023-11-13 15:22:39.439 [38] [FixSender] (DEBUG) Sending 8=FIX.4.4|9=58|35=0|49=FIXCLIENT1|56=DMA_HUB|34=143|52=20231113-14:22:39|10=091|
2023-11-13 15:23:03.703 [37] [FixSender] (DEBUG) Receiving 8=FIX.4.4|9=62|35=0|34=173|49=DMA_HUB|56=FIXCLIENT1|52=20231113-14:23:03.703|10=025|
2023-11-13 15:23:09.440 [38] [FixSender] (DEBUG) Sending 8=FIX.4.4|9=58|35=0|49=FIXCLIENT1|56=DMA_HUB|34=144|52=20231113-14:23:09|10=090|
2023-11-13 15:23:33.655 [37] [FixSender] (DEBUG) Receiving 8=FIX.4.4|9=62|35=0|34=174|49=DMA_HUB|56=FIXCLIENT1|52=20231113-14:23:33.655|10=035|
2023-11-13 15:23:39.441 [38] [FixSender] (DEBUG) Sending 8=FIX.4.4|9=58|35=0|49=FIXCLIENT1|56=DMA_HUB|34=145|52=20231113-14:23:39|10=094|
2023-11-13 15:24:03.608 [37] [FixSender] (DEBUG) Receiving 8=FIX.4.4|9=62|35=0|34=175|49=DMA_HUB|56=FIXCLIENT1|52=20231113-14:24:03.607|10=031|
2023-11-13 15:24:09.450 [38] [FixSender] (DEBUG) Sending 8=FIX.4.4|9=58|35=0|49=FIXCLIENT1|56=DMA_HUB|34=146|52=20231113-14:24:09|10=093|
2023-11-13 15:24:33.559 [37] [FixSender] (DEBUG) Receiving 8=FIX.4.4|9=62|35=0|34=176|49=DMA_HUB|56=FIXCLIENT1|52=20231113-14:24:33.559|10=041|
2023-11-13 15:24:39.452 [38] [FixSender] (DEBUG) Sending 8=FIX.4.4|9=58|35=0|49=FIXCLIENT1|56=DMA_HUB|34=147|52=20231113-14:24:39|10=097|
2023-11-13 15:25:03.512 [37] [FixSender] (DEBUG) Receiving 8=FIX.4.4|9=62|35=0|34=177|49=DMA_HUB|56=FIXCLIENT1|52=20231113-14:25:03.512|10=029|
2023-11-13 15:25:09.453 [38] [FixSender] (DEBUG) Sending 8=FIX.4.4|9=58|35=0|49=FIXCLIENT1|56=DMA_HUB|34=148|52=20231113-14:25:09|10=096|
2023-11-13 15:25:33.463 [37] [FixSender] (DEBUG) Receiving 8=FIX.4.4|9=62|35=0|34=178|49=DMA_HUB|56=FIXCLIENT1|52=20231113-14:25:33.463|10=038|
2023-11-13 15:25:39.454 [38] [FixSender] (DEBUG) Sending 8=FIX.4.4|9=58|35=0|49=FIXCLIENT1|56=DMA_HUB|34=149|52=20231113-14:25:39|10=100|
2023-11-13 15:26:03.416 [37] [FixSender] (DEBUG) Receiving 8=FIX.4.4|9=62|35=0|34=179|49=DMA_HUB|56=FIXCLIENT1|52=20231113-14:26:03.416|10=035|
2023-11-13 15:26:09.455 [38] [FixSender] (DEBUG) Sending 8=FIX.4.4|9=58|35=0|49=FIXCLIENT1|56=DMA_HUB|34=150|52=20231113-14:26:09|10=090|
2023-11-13 15:26:33.367 [37] [FixSender] (DEBUG) Receiving 8=FIX.4.4|9=62|35=0|34=180|49=DMA_HUB|56=FIXCLIENT1|52=20231113-14:26:33.367|10=035|
2023-11-13 15:26:39.458 [38] [FixSender] (DEBUG) Sending 8=FIX.4.4|9=58|35=0|49=FIXCLIENT1|56=DMA_HUB|34=151|52=20231113-14:26:39|10=094|
2023-11-13 15:27:03.320 [37] [FixSender] (DEBUG) Receiving 8=FIX.4.4|9=62|35=0|34=181|49=DMA_HUB|56=FIXCLIENT1|52=20231113-14:27:03.320|10=023|
2023-11-13 15:27:09.460 [38] [FixSender] (DEBUG) Sending 8=FIX.4.4|9=58|35=0|49=FIXCLIENT1|56=DMA_HUB|34=152|52=20231113-14:27:09|10=093|
2023-11-13 15:27:33.272 [37] [FixSender] (DEBUG) Receiving 8=FIX.4.4|9=62|35=0|34=182|49=DMA_HUB|56=FIXCLIENT1|52=20231113-14:27:33.272|10=033|
2023-11-13 15:27:39.463 [38] [FixSender] (DEBUG) Sending 8=FIX.4.4|9=58|35=0|49=FIXCLIENT1|56=DMA_HUB|34=153|52=20231113-14:27:39|10=097|
2023-11-13 15:28:03.224 [37] [FixSender] (DEBUG) Receiving 8=FIX.4.4|9=62|35=0|34=183|49=DMA_HUB|56=FIXCLIENT1|52=20231113-14:28:03.224|10=029|
2023-11-13 15:28:09.465 [38] [FixSender] (DEBUG) Sending 8=FIX.4.4|9=58|35=0|49=FIXCLIENT1|56=DMA_HUB|34=154|52=20231113-14:28:09|10=096|
2023-11-13 15:28:33.175 [37] [FixSender] (DEBUG) Receiving 8=FIX.4.4|9=62|35=0|34=184|49=DMA_HUB|56=FIXCLIENT1|52=20231113-14:28:33.175|10=038|
2023-11-13 15:28:39.467 [38] [FixSender] (DEBUG) Sending 8=FIX.4.4|9=58|35=0|49=FIXCLIENT1|56=DMA_HUB|34=155|52=20231113-14:28:39|10=100|
2023-11-13 15:29:03.128 [37] [FixSender] (DEBUG) Receiving 8=FIX.4.4|9=62|35=0|34=185|49=DMA_HUB|56=FIXCLIENT1|52=20231113-14:29:03.128|10=035|
2023-11-13 15:29:09.481 [38] [FixSender] (DEBUG) Sending 8=FIX.4.4|9=58|35=0|49=FIXCLIENT1|56=DMA_HUB|34=156|52=20231113-14:29:09|10=099|
2023-11-13 15:29:33.079 [37] [FixSender] (DEBUG) Receiving 8=FIX.4.4|9=62|35=0|34=186|49=DMA_HUB|56=FIXCLIENT1|52=20231113-14:29:33.079|10=044|
2023-11-13 15:29:39.482 [38] [FixSender] (DEBUG) Sending 8=FIX.4.4|9=58|35=0|49=FIXCLIENT1|56=DMA_HUB|34=157|52=20231113-14:29:39|10=103|
2023-11-13 15:30:03.033 [37] [FixSender] (DEBUG) Receiving 8=FIX.4.4|9=62|35=0|34=187|49=DMA_HUB|56=FIXCLIENT1|52=20231113-14:30:03.033|10=024|
2023-11-13 15:30:09.496 [38] [FixSender] (DEBUG) Sending 8=FIX.4.4|9=58|35=0|49=FIXCLIENT1|56=DMA_HUB|34=158|52=20231113-14:30:09|10=093|
2023-11-13 15:30:32.984 [37] [FixSender] (DEBUG) Receiving 8=FIX.4.4|9=62|35=0|34=188|49=DMA_HUB|56=FIXCLIENT1|52=20231113-14:30:32.984|10=042|
2023-11-13 15:30:39.499 [38] [FixSender] (DEBUG) Sending 8=FIX.4.4|9=58|35=0|49=FIXCLIENT1|56=DMA_HUB|34=159|52=20231113-14:30:39|10=097|
2023-11-13 15:31:02.935 [37] [FixSender] (DEBUG) Receiving 8=FIX.4.4|9=62|35=0|34=189|49=DMA_HUB|56=FIXCLIENT1|52=20231113-14:31:02.935|10=037|
2023-11-13 15:31:09.502 [38] [FixSender] (DEBUG) Sending 8=FIX.4.4|9=58|35=0|49=FIXCLIENT1|56=DMA_HUB|34=160|52=20231113-14:31:09|10=087|
2023-11-13 15:31:32.888 [37] [FixSender] (DEBUG) Receiving 8=FIX.4.4|9=62|35=0|34=190|49=DMA_HUB|56=FIXCLIENT1|52=20231113-14:31:32.888|10=039|
2023-11-13 15:31:39.509 [38] [FixSender] (DEBUG) Sending 8=FIX.4.4|9=58|35=0|49=FIXCLIENT1|56=DMA_HUB|34=161|52=20231113-14:31:39|10=091|
2023-11-13 15:32:02.840 [37] [FixSender] (DEBUG) Receiving 8=FIX.4.4|9=62|35=0|34=191|49=DMA_HUB|56=FIXCLIENT1|52=20231113-14:32:02.840|10=026|
2023-11-13 15:32:09.513 [38] [FixSender] (DEBUG) Sending 8=FIX.4.4|9=58|35=0|49=FIXCLIENT1|56=DMA_HUB|34=162|52=20231113-14:32:09|10=090|
2023-11-13 15:32:32.791 [37] [FixSender] (DEBUG) Receiving 8=FIX.4.4|9=62|35=0|34=192|49=DMA_HUB|56=FIXCLIENT1|52=20231113-14:32:32.791|10=035|
2023-11-13 15:32:39.517 [38] [FixSender] (DEBUG) Sending 8=FIX.4.4|9=58|35=0|49=FIXCLIENT1|56=DMA_HUB|34=163|52=20231113-14:32:39|10=094|
2023-11-13 15:33:02.747 [37] [FixSender] (DEBUG) Receiving 8=FIX.4.4|9=62|35=0|34=193|49=DMA_HUB|56=FIXCLIENT1|52=20231113-14:33:02.745|10=033|
2023-11-13 15:33:09.520 [38] [FixSender] (DEBUG) Sending 8=FIX.4.4|9=58|35=0|49=FIXCLIENT1|56=DMA_HUB|34=164|52=20231113-14:33:09|10=093|
2023-11-13 15:33:32.697 [37] [FixSender] (DEBUG) Receiving 8=FIX.4.4|9=62|35=0|34=194|49=DMA_HUB|56=FIXCLIENT1|52=20231113-14:33:32.696|10=042|
2023-11-13 15:33:39.522 [38] [FixSender] (DEBUG) Sending 8=FIX.4.4|9=58|35=0|49=FIXCLIENT1|56=DMA_HUB|34=165|52=20231113-14:33:39|10=097|
2023-11-13 15:34:02.649 [37] [FixSender] (DEBUG) Receiving 8=FIX.4.4|9=62|35=0|34=195|49=DMA_HUB|56=FIXCLIENT1|52=20231113-14:34:02.648|10=038|
2023-11-13 15:34:09.524 [38] [FixSender] (DEBUG) Sending 8=FIX.4.4|9=58|35=0|49=FIXCLIENT1|56=DMA_HUB|34=166|52=20231113-14:34:09|10=096|
2023-11-13 15:34:32.601 [37] [FixSender] (DEBUG) Receiving 8=FIX.4.4|9=62|35=0|34=196|49=DMA_HUB|56=FIXCLIENT1|52=20231113-14:34:32.600|10=030|
2023-11-13 15:34:39.533 [38] [FixSender] (DEBUG) Sending 8=FIX.4.4|9=58|35=0|49=FIXCLIENT1|56=DMA_HUB|34=167|52=20231113-14:34:39|10=100|
2023-11-13 15:35:02.553 [37] [FixSender] (DEBUG) Receiving 8=FIX.4.4|9=62|35=0|34=197|49=DMA_HUB|56=FIXCLIENT1|52=20231113-14:35:02.552|10=035|
2023-11-13 15:35:09.537 [38] [FixSender] (DEBUG) Sending 8=FIX.4.4|9=58|35=0|49=FIXCLIENT1|56=DMA_HUB|34=168|52=20231113-14:35:09|10=099|
2023-11-13 15:35:32.503 [37] [FixSender] (DEBUG) Receiving 8=FIX.4.4|9=62|35=0|34=198|49=DMA_HUB|56=FIXCLIENT1|52=20231113-14:35:32.503|10=035|
2023-11-13 15:35:39.546 [38] [FixSender] (DEBUG) Sending 8=FIX.4.4|9=58|35=0|49=FIXCLIENT1|56=DMA_HUB|34=169|52=20231113-14:35:39|10=103|
2023-11-13 15:36:02.458 [37] [FixSender] (DEBUG) Receiving 8=FIX.4.4|9=62|35=0|34=199|49=DMA_HUB|56=FIXCLIENT1|52=20231113-14:36:02.457|10=042|
2023-11-13 15:36:09.548 [38] [FixSender] (DEBUG) Sending 8=FIX.4.4|9=58|35=0|49=FIXCLIENT1|56=DMA_HUB|34=170|52=20231113-14:36:09|10=093|
2023-11-13 15:36:32.410 [37] [FixSender] (DEBUG) Receiving 8=FIX.4.4|9=62|35=0|34=200|49=DMA_HUB|56=FIXCLIENT1|52=20231113-14:36:32.409|10=025|
2023-11-13 15:36:39.552 [38] [FixSender] (DEBUG) Sending 8=FIX.4.4|9=58|35=0|49=FIXCLIENT1|56=DMA_HUB|34=171|52=20231113-14:36:39|10=097|
2023-11-13 15:37:02.361 [37] [FixSender] (DEBUG) Receiving 8=FIX.4.4|9=62|35=0|34=201|49=DMA_HUB|56=FIXCLIENT1|52=20231113-14:37:02.360|10=020|
2023-11-13 15:37:09.553 [38] [FixSender] (DEBUG) Sending 8=FIX.4.4|9=58|35=0|49=FIXCLIENT1|56=DMA_HUB|34=172|52=20231113-14:37:09|10=096|
2023-11-13 15:37:32.313 [37] [FixSender] (DEBUG) Receiving 8=FIX.4.4|9=62|35=0|34=202|49=DMA_HUB|56=FIXCLIENT1|52=20231113-14:37:32.312|10=021|
2023-11-13 15:37:39.555 [38] [FixSender] (DEBUG) Sending 8=FIX.4.4|9=58|35=0|49=FIXCLIENT1|56=DMA_HUB|34=173|52=20231113-14:37:39|10=100|
2023-11-13 15:38:02.265 [37] [FixSender] (DEBUG) Receiving 8=FIX.4.4|9=62|35=0|34=203|49=DMA_HUB|56=FIXCLIENT1|52=20231113-14:38:02.264|10=026|
2023-11-13 15:38:09.557 [38] [FixSender] (DEBUG) Sending 8=FIX.4.4|9=58|35=0|49=FIXCLIENT1|56=DMA_HUB|34=174|52=20231113-14:38:09|10=099|
2023-11-13 15:38:32.217 [37] [FixSender] (DEBUG) Receiving 8=FIX.4.4|9=62|35=0|34=204|49=DMA_HUB|56=FIXCLIENT1|52=20231113-14:38:32.216|10=027|
2023-11-13 15:38:39.559 [38] [FixSender] (DEBUG) Sending 8=FIX.4.4|9=58|35=0|49=FIXCLIENT1|56=DMA_HUB|34=175|52=20231113-14:38:39|10=103|
2023-11-13 15:39:02.168 [37] [FixSender] (DEBUG) Receiving 8=FIX.4.4|9=62|35=0|34=205|49=DMA_HUB|56=FIXCLIENT1|52=20231113-14:39:02.168|10=032|
2023-11-13 15:39:09.561 [38] [FixSender] (DEBUG) Sending 8=FIX.4.4|9=58|35=0|49=FIXCLIENT1|56=DMA_HUB|34=176|52=20231113-14:39:09|10=102|
2023-11-13 15:39:32.121 [37] [FixSender] (DEBUG) Receiving 8=FIX.4.4|9=62|35=0|34=206|49=DMA_HUB|56=FIXCLIENT1|52=20231113-14:39:32.120|10=024|
2023-11-13 15:39:39.563 [38] [FixSender] (DEBUG) Sending 8=FIX.4.4|9=58|35=0|49=FIXCLIENT1|56=DMA_HUB|34=177|52=20231113-14:39:39|10=106|
2023-11-13 15:40:02.073 [37] [FixSender] (DEBUG) Receiving 8=FIX.4.4|9=62|35=0|34=207|49=DMA_HUB|56=FIXCLIENT1|52=20231113-14:40:02.072|10=020|
2023-11-13 15:40:09.563 [38] [FixSender] (DEBUG) Sending 8=FIX.4.4|9=58|35=0|49=FIXCLIENT1|56=DMA_HUB|34=178|52=20231113-14:40:09|10=096|
2023-11-13 15:40:32.025 [37] [FixSender] (DEBUG) Receiving 8=FIX.4.4|9=62|35=0|34=208|49=DMA_HUB|56=FIXCLIENT1|52=20231113-14:40:32.024|10=021|
2023-11-13 15:40:39.567 [38] [FixSender] (DEBUG) Sending 8=FIX.4.4|9=58|35=0|49=FIXCLIENT1|56=DMA_HUB|34=179|52=20231113-14:40:39|10=100|
2023-11-13 15:41:01.977 [37] [FixSender] (DEBUG) Receiving 8=FIX.4.4|9=62|35=0|34=209|49=DMA_HUB|56=FIXCLIENT1|52=20231113-14:41:01.976|10=035|
2023-11-13 15:41:09.572 [38] [FixSender] (DEBUG) Sending 8=FIX.4.4|9=58|35=0|49=FIXCLIENT1|56=DMA_HUB|34=180|52=20231113-14:41:09|10=090|
2023-11-13 15:41:31.928 [37] [FixSender] (DEBUG) Receiving 8=FIX.4.4|9=62|35=0|34=210|49=DMA_HUB|56=FIXCLIENT1|52=20231113-14:41:31.927|10=026|
2023-11-13 15:41:39.573 [38] [FixSender] (DEBUG) Sending 8=FIX.4.4|9=58|35=0|49=FIXCLIENT1|56=DMA_HUB|34=181|52=20231113-14:41:39|10=094|
2023-11-13 15:42:01.881 [37] [FixSender] (DEBUG) Receiving 8=FIX.4.4|9=62|35=0|34=211|49=DMA_HUB|56=FIXCLIENT1|52=20231113-14:42:01.880|10=023|
2023-11-13 15:42:09.585 [38] [FixSender] (DEBUG) Sending 8=FIX.4.4|9=58|35=0|49=FIXCLIENT1|56=DMA_HUB|34=182|52=20231113-14:42:09|10=093|
2023-11-13 15:42:31.834 [37] [FixSender] (DEBUG) Receiving 8=FIX.4.4|9=62|35=0|34=212|49=DMA_HUB|56=FIXCLIENT1|52=20231113-14:42:31.832|10=024|
2023-11-13 15:42:39.589 [38] [FixSender] (DEBUG) Sending 8=FIX.4.4|9=58|35=0|49=FIXCLIENT1|56=DMA_HUB|34=183|52=20231113-14:42:39|10=097|
2023-11-13 15:43:01.786 [37] [FixSender] (DEBUG) Receiving 8=FIX.4.4|9=62|35=0|34=213|49=DMA_HUB|56=FIXCLIENT1|52=20231113-14:43:01.785|10=030|
2023-11-13 15:43:09.596 [38] [FixSender] (DEBUG) Sending 8=FIX.4.4|9=58|35=0|49=FIXCLIENT1|56=DMA_HUB|34=184|52=20231113-14:43:09|10=096|
2023-11-13 15:43:31.737 [37] [FixSender] (DEBUG) Receiving 8=FIX.4.4|9=62|35=0|34=214|49=DMA_HUB|56=FIXCLIENT1|52=20231113-14:43:31.736|10=030|
2023-11-13 15:43:39.611 [38] [FixSender] (DEBUG) Sending 8=FIX.4.4|9=58|35=0|49=FIXCLIENT1|56=DMA_HUB|34=185|52=20231113-14:43:39|10=100|
2023-11-13 15:44:01.689 [37] [FixSender] (DEBUG) Receiving 8=FIX.4.4|9=62|35=0|34=215|49=DMA_HUB|56=FIXCLIENT1|52=20231113-14:44:01.688|10=035|
2023-11-13 15:44:09.613 [38] [FixSender] (DEBUG) Sending 8=FIX.4.4|9=58|35=0|49=FIXCLIENT1|56=DMA_HUB|34=186|52=20231113-14:44:09|10=099|
2023-11-13 15:44:31.640 [37] [FixSender] (DEBUG) Receiving 8=FIX.4.4|9=62|35=0|34=216|49=DMA_HUB|56=FIXCLIENT1|52=20231113-14:44:31.640|10=027|
2023-11-13 15:44:39.617 [38] [FixSender] (DEBUG) Sending 8=FIX.4.4|9=58|35=0|49=FIXCLIENT1|56=DMA_HUB|34=187|52=20231113-14:44:39|10=103|
2023-11-13 15:45:01.592 [37] [FixSender] (DEBUG) Receiving 8=FIX.4.4|9=62|35=0|34=217|49=DMA_HUB|56=FIXCLIENT1|52=20231113-14:45:01.591|10=031|
2023-11-13 15:45:09.620 [38] [FixSender] (DEBUG) Sending 8=FIX.4.4|9=58|35=0|49=FIXCLIENT1|56=DMA_HUB|34=188|52=20231113-14:45:09|10=102|
2023-11-13 15:45:31.545 [37] [FixSender] (DEBUG) Receiving 8=FIX.4.4|9=62|35=0|34=218|49=DMA_HUB|56=FIXCLIENT1|52=20231113-14:45:31.544|10=033|
2023-11-13 15:45:39.629 [38] [FixSender] (DEBUG) Sending 8=FIX.4.4|9=58|35=0|49=FIXCLIENT1|56=DMA_HUB|34=189|52=20231113-14:45:39|10=106|
2023-11-13 15:46:01.496 [37] [FixSender] (DEBUG) Receiving 8=FIX.4.4|9=62|35=0|34=219|49=DMA_HUB|56=FIXCLIENT1|52=20231113-14:46:01.496|10=038|
2023-11-13 15:46:09.631 [38] [FixSender] (DEBUG) Sending 8=FIX.4.4|9=58|35=0|49=FIXCLIENT1|56=DMA_HUB|34=190|52=20231113-14:46:09|10=096|
2023-11-13 15:46:31.449 [37] [FixSender] (DEBUG) Receiving 8=FIX.4.4|9=62|35=0|34=220|49=DMA_HUB|56=FIXCLIENT1|52=20231113-14:46:31.448|10=030|
2023-11-13 15:46:39.632 [38] [FixSender] (DEBUG) Sending 8=FIX.4.4|9=58|35=0|49=FIXCLIENT1|56=DMA_HUB|34=191|52=20231113-14:46:39|10=100|
2023-11-13 15:47:01.399 [37] [FixSender] (DEBUG) Receiving 8=FIX.4.4|9=62|35=0|34=221|49=DMA_HUB|56=FIXCLIENT1|52=20231113-14:47:01.399|10=034|
2023-11-13 15:47:09.636 [38] [FixSender] (DEBUG) Sending 8=FIX.4.4|9=58|35=0|49=FIXCLIENT1|56=DMA_HUB|34=192|52=20231113-14:47:09|10=099|
2023-11-13 15:47:31.352 [37] [FixSender] (DEBUG) Receiving 8=FIX.4.4|9=62|35=0|34=222|49=DMA_HUB|56=FIXCLIENT1|52=20231113-14:47:31.352|10=027|
2023-11-13 15:47:39.639 [38] [FixSender] (DEBUG) Sending 8=FIX.4.4|9=58|35=0|49=FIXCLIENT1|56=DMA_HUB|34=193|52=20231113-14:47:39|10=103|
2023-11-13 15:48:01.304 [37] [FixSender] (DEBUG) Receiving 8=FIX.4.4|9=62|35=0|34=223|49=DMA_HUB|56=FIXCLIENT1|52=20231113-14:48:01.304|10=023|
2023-11-13 15:48:09.642 [38] [FixSender] (DEBUG) Sending 8=FIX.4.4|9=58|35=0|49=FIXCLIENT1|56=DMA_HUB|34=194|52=20231113-14:48:09|10=102|
2023-11-13 15:48:31.258 [37] [FixSender] (DEBUG) Receiving 8=FIX.4.4|9=62|35=0|34=224|49=DMA_HUB|56=FIXCLIENT1|52=20231113-14:48:31.257|10=034|
2023-11-13 15:48:39.643 [38] [FixSender] (DEBUG) Sending 8=FIX.4.4|9=58|35=0|49=FIXCLIENT1|56=DMA_HUB|34=195|52=20231113-14:48:39|10=106|
2023-11-13 15:49:01.210 [37] [FixSender] (DEBUG) Receiving 8=FIX.4.4|9=62|35=0|34=225|49=DMA_HUB|56=FIXCLIENT1|52=20231113-14:49:01.209|10=030|
2023-11-13 15:49:09.646 [38] [FixSender] (DEBUG) Sending 8=FIX.4.4|9=58|35=0|49=FIXCLIENT1|56=DMA_HUB|34=196|52=20231113-14:49:09|10=105|
2023-11-13 15:49:31.159 [37] [FixSender] (DEBUG) Receiving 8=FIX.4.4|9=62|35=0|34=226|49=DMA_HUB|56=FIXCLIENT1|52=20231113-14:49:31.159|10=038|
2023-11-13 15:49:39.646 [38] [FixSender] (DEBUG) Sending 8=FIX.4.4|9=58|35=0|49=FIXCLIENT1|56=DMA_HUB|34=197|52=20231113-14:49:39|10=109|
2023-11-13 15:50:01.112 [37] [FixSender] (DEBUG) Receiving 8=FIX.4.4|9=62|35=0|34=227|49=DMA_HUB|56=FIXCLIENT1|52=20231113-14:50:01.111|10=016|
2023-11-13 15:50:09.656 [38] [FixSender] (DEBUG) Sending 8=FIX.4.4|9=58|35=0|49=FIXCLIENT1|56=DMA_HUB|34=198|52=20231113-14:50:09|10=099|
2023-11-13 15:50:31.064 [37] [FixSender] (DEBUG) Receiving 8=FIX.4.4|9=62|35=0|34=228|49=DMA_HUB|56=FIXCLIENT1|52=20231113-14:50:31.063|10=026|
2023-11-13 15:50:39.657 [38] [FixSender] (DEBUG) Sending 8=FIX.4.4|9=58|35=0|49=FIXCLIENT1|56=DMA_HUB|34=199|52=20231113-14:50:39|10=103|
2023-11-13 15:51:01.017 [37] [FixSender] (DEBUG) Receiving 8=FIX.4.4|9=62|35=0|34=229|49=DMA_HUB|56=FIXCLIENT1|52=20231113-14:51:01.016|10=023|
2023-11-13 15:51:09.658 [38] [FixSender] (DEBUG) Sending 8=FIX.4.4|9=58|35=0|49=FIXCLIENT1|56=DMA_HUB|34=200|52=20231113-14:51:09|10=084|
2023-11-13 15:51:30.969 [37] [FixSender] (DEBUG) Receiving 8=FIX.4.4|9=62|35=0|34=230|49=DMA_HUB|56=FIXCLIENT1|52=20231113-14:51:30.968|10=033|
2023-11-13 15:51:39.663 [38] [FixSender] (DEBUG) Sending 8=FIX.4.4|9=58|35=0|49=FIXCLIENT1|56=DMA_HUB|34=201|52=20231113-14:51:39|10=088|
2023-11-13 15:52:00.921 [37] [FixSender] (DEBUG) Receiving 8=FIX.4.4|9=62|35=0|34=231|49=DMA_HUB|56=FIXCLIENT1|52=20231113-14:52:00.920|10=020|
2023-11-13 15:52:09.665 [38] [FixSender] (DEBUG) Sending 8=FIX.4.4|9=58|35=0|49=FIXCLIENT1|56=DMA_HUB|34=202|52=20231113-14:52:09|10=087|
2023-11-13 15:52:30.872 [37] [FixSender] (DEBUG) Receiving 8=FIX.4.4|9=62|35=0|34=232|49=DMA_HUB|56=FIXCLIENT1|52=20231113-14:52:30.872|10=030|
2023-11-13 15:52:39.668 [38] [FixSender] (DEBUG) Sending 8=FIX.4.4|9=58|35=0|49=FIXCLIENT1|56=DMA_HUB|34=203|52=20231113-14:52:39|10=091|
2023-11-13 15:53:00.824 [37] [FixSender] (DEBUG) Receiving 8=FIX.4.4|9=62|35=0|34=233|49=DMA_HUB|56=FIXCLIENT1|52=20231113-14:53:00.823|10=025|
2023-11-13 15:53:09.669 [38] [FixSender] (DEBUG) Sending 8=FIX.4.4|9=58|35=0|49=FIXCLIENT1|56=DMA_HUB|34=204|52=20231113-14:53:09|10=090|
2023-11-13 15:53:30.775 [37] [FixSender] (DEBUG) Receiving 8=FIX.4.4|9=62|35=0|34=234|49=DMA_HUB|56=FIXCLIENT1|52=20231113-14:53:30.775|10=035|
2023-11-13 15:53:39.670 [38] [FixSender] (DEBUG) Sending 8=FIX.4.4|9=58|35=0|49=FIXCLIENT1|56=DMA_HUB|34=205|52=20231113-14:53:39|10=094|
2023-11-13 15:54:00.729 [37] [FixSender] (DEBUG) Receiving 8=FIX.4.4|9=62|35=0|34=235|49=DMA_HUB|56=FIXCLIENT1|52=20231113-14:54:00.728|10=032|
2023-11-13 15:54:09.684 [38] [FixSender] (DEBUG) Sending 8=FIX.4.4|9=58|35=0|49=FIXCLIENT1|56=DMA_HUB|34=206|52=20231113-14:54:09|10=093|
2023-11-13 15:54:30.680 [37] [FixSender] (DEBUG) Receiving 8=FIX.4.4|9=62|35=0|34=236|49=DMA_HUB|56=FIXCLIENT1|52=20231113-14:54:30.680|10=033|
2023-11-13 15:54:39.686 [38] [FixSender] (DEBUG) Sending 8=FIX.4.4|9=58|35=0|49=FIXCLIENT1|56=DMA_HUB|34=207|52=20231113-14:54:39|10=097|
2023-11-13 15:55:00.632 [37] [FixSender] (DEBUG) Receiving 8=FIX.4.4|9=62|35=0|34=237|49=DMA_HUB|56=FIXCLIENT1|52=20231113-14:55:00.631|10=028|
2023-11-13 15:55:09.695 [38] [FixSender] (DEBUG) Sending 8=FIX.4.4|9=58|35=0|49=FIXCLIENT1|56=DMA_HUB|34=208|52=20231113-14:55:09|10=096|
2023-11-13 15:55:30.585 [37] [FixSender] (DEBUG) Receiving 8=FIX.4.4|9=62|35=0|34=238|49=DMA_HUB|56=FIXCLIENT1|52=20231113-14:55:30.584|10=039|
2023-11-13 15:55:39.696 [38] [FixSender] (DEBUG) Sending 8=FIX.4.4|9=58|35=0|49=FIXCLIENT1|56=DMA_HUB|34=209|52=20231113-14:55:39|10=100|
2023-11-13 15:56:00.537 [37] [FixSender] (DEBUG) Receiving 8=FIX.4.4|9=62|35=0|34=239|49=DMA_HUB|56=FIXCLIENT1|52=20231113-14:56:00.536|10=035|
2023-11-13 15:56:09.698 [38] [FixSender] (DEBUG) Sending 8=FIX.4.4|9=58|35=0|49=FIXCLIENT1|56=DMA_HUB|34=210|52=20231113-14:56:09|10=090|
2023-11-13 15:56:30.488 [37] [FixSender] (DEBUG) Receiving 8=FIX.4.4|9=62|35=0|34=240|49=DMA_HUB|56=FIXCLIENT1|52=20231113-14:56:30.487|10=035|
2023-11-13 15:56:39.700 [38] [FixSender] (DEBUG) Sending 8=FIX.4.4|9=58|35=0|49=FIXCLIENT1|56=DMA_HUB|34=211|52=20231113-14:56:39|10=094|
2023-11-13 15:57:00.441 [37] [FixSender] (DEBUG) Receiving 8=FIX.4.4|9=62|35=0|34=241|49=DMA_HUB|56=FIXCLIENT1|52=20231113-14:57:00.440|10=023|
2023-11-13 15:57:09.702 [38] [FixSender] (DEBUG) Sending 8=FIX.4.4|9=58|35=0|49=FIXCLIENT1|56=DMA_HUB|34=212|52=20231113-14:57:09|10=093|
2023-11-13 15:57:30.393 [37] [FixSender] (DEBUG) Receiving 8=FIX.4.4|9=62|35=0|34=242|49=DMA_HUB|56=FIXCLIENT1|52=20231113-14:57:30.392|10=033|
2023-11-13 15:57:39.704 [38] [FixSender] (DEBUG) Sending 8=FIX.4.4|9=58|35=0|49=FIXCLIENT1|56=DMA_HUB|34=213|52=20231113-14:57:39|10=097|
2023-11-13 15:58:00.344 [37] [FixSender] (DEBUG) Receiving 8=FIX.4.4|9=62|35=0|34=243|49=DMA_HUB|56=FIXCLIENT1|52=20231113-14:58:00.343|10=028|
2023-11-13 15:58:09.706 [38] [FixSender] (DEBUG) Sending 8=FIX.4.4|9=58|35=0|49=FIXCLIENT1|56=DMA_HUB|34=214|52=20231113-14:58:09|10=096|
2023-11-13 15:58:30.296 [37] [FixSender] (DEBUG) Receiving 8=FIX.4.4|9=62|35=0|34=244|49=DMA_HUB|56=FIXCLIENT1|52=20231113-14:58:30.296|10=039|
2023-11-13 15:58:39.706 [38] [FixSender] (DEBUG) Sending 8=FIX.4.4|9=58|35=0|49=FIXCLIENT1|56=DMA_HUB|34=215|52=20231113-14:58:39|10=100|
2023-11-13 15:59:00.249 [37] [FixSender] (DEBUG) Receiving 8=FIX.4.4|9=62|35=0|34=245|49=DMA_HUB|56=FIXCLIENT1|52=20231113-14:59:00.248|10=035|
2023-11-13 15:59:09.709 [38] [FixSender] (DEBUG) Sending 8=FIX.4.4|9=58|35=0|49=FIXCLIENT1|56=DMA_HUB|34=216|52=20231113-14:59:09|10=099|
2023-11-13 15:59:30.200 [37] [FixSender] (DEBUG) Receiving 8=FIX.4.4|9=62|35=0|34=246|49=DMA_HUB|56=FIXCLIENT1|52=20231113-14:59:30.199|10=044|
2023-11-13 15:59:39.710 [38] [FixSender] (DEBUG) Sending 8=FIX.4.4|9=58|35=0|49=FIXCLIENT1|56=DMA_HUB|34=217|52=20231113-14:59:39|10=103|
2023-11-13 16:00:00.153 [37] [FixSender] (DEBUG) Receiving 8=FIX.4.4|9=62|35=0|34=247|49=DMA_HUB|56=FIXCLIENT1|52=20231113-15:00:00.152|10=018|
2023-11-13 16:00:09.721 [38] [FixSender] (DEBUG) Sending 8=FIX.4.4|9=58|35=0|49=FIXCLIENT1|56=DMA_HUB|34=218|52=20231113-15:00:09|10=088|
2023-11-13 16:00:30.104 [37] [FixSender] (DEBUG) Receiving 8=FIX.4.4|9=62|35=0|34=248|49=DMA_HUB|56=FIXCLIENT1|52=20231113-15:00:30.103|10=018|
2023-11-13 16:00:39.722 [38] [FixSender] (DEBUG) Sending 8=FIX.4.4|9=58|35=0|49=FIXCLIENT1|56=DMA_HUB|34=219|52=20231113-15:00:39|10=092|
2023-11-13 16:01:00.057 [37] [FixSender] (DEBUG) Receiving 8=FIX.4.4|9=62|35=0|34=249|49=DMA_HUB|56=FIXCLIENT1|52=20231113-15:01:00.056|10=024|
2023-11-13 16:01:09.725 [38] [FixSender] (DEBUG) Sending 8=FIX.4.4|9=58|35=0|49=FIXCLIENT1|56=DMA_HUB|34=220|52=20231113-15:01:09|10=082|
2023-11-13 16:01:30.008 [37] [FixSender] (DEBUG) Receiving 8=FIX.4.4|9=62|35=0|34=250|49=DMA_HUB|56=FIXCLIENT1|52=20231113-15:01:30.008|10=016|
2023-11-13 16:01:39.726 [38] [FixSender] (DEBUG) Sending 8=FIX.4.4|9=58|35=0|49=FIXCLIENT1|56=DMA_HUB|34=221|52=20231113-15:01:39|10=086|
2023-11-13 16:01:59.961 [37] [FixSender] (DEBUG) Receiving 8=FIX.4.4|9=62|35=0|34=251|49=DMA_HUB|56=FIXCLIENT1|52=20231113-15:01:59.960|10=035|
2023-11-13 16:02:09.735 [38] [FixSender] (DEBUG) Sending 8=FIX.4.4|9=58|35=0|49=FIXCLIENT1|56=DMA_HUB|34=222|52=20231113-15:02:09|10=085|
2023-11-13 16:02:29.913 [37] [FixSender] (DEBUG) Receiving 8=FIX.4.4|9=62|35=0|34=252|49=DMA_HUB|56=FIXCLIENT1|52=20231113-15:02:29.912|10=031|
2023-11-13 16:02:39.736 [38] [FixSender] (DEBUG) Sending 8=FIX.4.4|9=58|35=0|49=FIXCLIENT1|56=DMA_HUB|34=223|52=20231113-15:02:39|10=089|
2023-11-13 16:02:59.865 [37] [FixSender] (DEBUG) Receiving 8=FIX.4.4|9=62|35=0|34=253|49=DMA_HUB|56=FIXCLIENT1|52=20231113-15:02:59.864|10=041|
2023-11-13 16:03:09.737 [38] [FixSender] (DEBUG) Sending 8=FIX.4.4|9=58|35=0|49=FIXCLIENT1|56=DMA_HUB|34=224|52=20231113-15:03:09|10=088|
2023-11-13 16:03:29.818 [37] [FixSender] (DEBUG) Receiving 8=FIX.4.4|9=62|35=0|34=254|49=DMA_HUB|56=FIXCLIENT1|52=20231113-15:03:29.816|10=037|
2023-11-13 16:03:39.738 [38] [FixSender] (DEBUG) Sending 8=FIX.4.4|9=58|35=0|49=FIXCLIENT1|56=DMA_HUB|34=225|52=20231113-15:03:39|10=092|
2023-11-13 16:03:59.768 [37] [FixSender] (DEBUG) Receiving 8=FIX.4.4|9=62|35=0|34=255|49=DMA_HUB|56=FIXCLIENT1|52=20231113-15:03:59.768|10=047|
2023-11-13 16:04:09.739 [38] [FixSender] (DEBUG) Sending 8=FIX.4.4|9=58|35=0|49=FIXCLIENT1|56=DMA_HUB|34=226|52=20231113-15:04:09|10=091|
2023-11-13 16:04:29.722 [37] [FixSender] (DEBUG) Receiving 8=FIX.4.4|9=62|35=0|34=256|49=DMA_HUB|56=FIXCLIENT1|52=20231113-15:04:29.720|10=034|
2023-11-13 16:04:39.743 [38] [FixSender] (DEBUG) Sending 8=FIX.4.4|9=58|35=0|49=FIXCLIENT1|56=DMA_HUB|34=227|52=20231113-15:04:39|10=095|
2023-11-13 16:04:59.673 [37] [FixSender] (DEBUG) Receiving 8=FIX.4.4|9=62|35=0|34=257|49=DMA_HUB|56=FIXCLIENT1|52=20231113-15:04:59.671|10=043|
2023-11-13 16:05:09.752 [38] [FixSender] (DEBUG) Sending 8=FIX.4.4|9=58|35=0|49=FIXCLIENT1|56=DMA_HUB|34=228|52=20231113-15:05:09|10=094|
2023-11-13 16:05:29.624 [37] [FixSender] (DEBUG) Receiving 8=FIX.4.4|9=62|35=0|34=258|49=DMA_HUB|56=FIXCLIENT1|52=20231113-15:05:29.623|10=039|
2023-11-13 16:05:39.754 [38] [FixSender] (DEBUG) Sending 8=FIX.4.4|9=58|35=0|49=FIXCLIENT1|56=DMA_HUB|34=229|52=20231113-15:05:39|10=098|
2023-11-13 16:05:59.577 [37] [FixSender] (DEBUG) Receiving 8=FIX.4.4|9=62|35=0|34=259|49=DMA_HUB|56=FIXCLIENT1|52=20231113-15:05:59.576|10=050|
2023-11-13 16:06:09.757 [38] [FixSender] (DEBUG) Sending 8=FIX.4.4|9=58|35=0|49=FIXCLIENT1|56=DMA_HUB|34=230|52=20231113-15:06:09|10=088|
2023-11-13 16:06:29.528 [37] [FixSender] (DEBUG) Receiving 8=FIX.4.4|9=62|35=0|34=260|49=DMA_HUB|56=FIXCLIENT1|52=20231113-15:06:29.527|10=036|
2023-11-13 16:06:39.758 [38] [FixSender] (DEBUG) Sending 8=FIX.4.4|9=58|35=0|49=FIXCLIENT1|56=DMA_HUB|34=231|52=20231113-15:06:39|10=092|
2023-11-13 16:06:59.481 [37] [FixSender] (DEBUG) Receiving 8=FIX.4.4|9=62|35=0|34=261|49=DMA_HUB|56=FIXCLIENT1|52=20231113-15:06:59.480|10=038|
2023-11-13 16:07:09.769 [38] [FixSender] (DEBUG) Sending 8=FIX.4.4|9=58|35=0|49=FIXCLIENT1|56=DMA_HUB|34=232|52=20231113-15:07:09|10=091|
2023-11-13 16:07:29.433 [37] [FixSender] (DEBUG) Receiving 8=FIX.4.4|9=62|35=0|34=262|49=DMA_HUB|56=FIXCLIENT1|52=20231113-15:07:29.432|10=034|
2023-11-13 16:07:39.771 [38] [FixSender] (DEBUG) Sending 8=FIX.4.4|9=58|35=0|49=FIXCLIENT1|56=DMA_HUB|34=233|52=20231113-15:07:39|10=095|
2023-11-13 16:07:59.385 [37] [FixSender] (DEBUG) Receiving 8=FIX.4.4|9=62|35=0|34=263|49=DMA_HUB|56=FIXCLIENT1|52=20231113-15:07:59.384|10=044|
2023-11-13 16:08:09.772 [38] [FixSender] (DEBUG) Sending 8=FIX.4.4|9=58|35=0|49=FIXCLIENT1|56=DMA_HUB|34=234|52=20231113-15:08:09|10=094|
2023-11-13 16:08:29.335 [37] [FixSender] (DEBUG) Receiving 8=FIX.4.4|9=62|35=0|34=264|49=DMA_HUB|56=FIXCLIENT1|52=20231113-15:08:29.335|10=039|
2023-11-13 16:08:39.775 [38] [FixSender] (DEBUG) Sending 8=FIX.4.4|9=58|35=0|49=FIXCLIENT1|56=DMA_HUB|34=235|52=20231113-15:08:39|10=098|
2023-11-13 16:08:59.290 [37] [FixSender] (DEBUG) Receiving 8=FIX.4.4|9=62|35=0|34=265|49=DMA_HUB|56=FIXCLIENT1|52=20231113-15:08:59.288|10=050|
2023-11-13 16:09:09.776 [38] [FixSender] (DEBUG) Sending 8=FIX.4.4|9=58|35=0|49=FIXCLIENT1|56=DMA_HUB|34=236|52=20231113-15:09:09|10=097|
2023-11-13 16:09:29.241 [37] [FixSender] (DEBUG) Receiving 8=FIX.4.4|9=62|35=0|34=266|49=DMA_HUB|56=FIXCLIENT1|52=20231113-15:09:29.240|10=037|
2023-11-13 16:09:39.777 [38] [FixSender] (DEBUG) Sending 8=FIX.4.4|9=58|35=0|49=FIXCLIENT1|56=DMA_HUB|34=237|52=20231113-15:09:39|10=101|
2023-11-13 16:09:59.193 [37] [FixSender] (DEBUG) Receiving 8=FIX.4.4|9=62|35=0|34=267|49=DMA_HUB|56=FIXCLIENT1|52=20231113-15:09:59.192|10=047|
2023-11-13 16:10:09.785 [38] [FixSender] (DEBUG) Sending 8=FIX.4.4|9=58|35=0|49=FIXCLIENT1|56=DMA_HUB|34=238|52=20231113-15:10:09|10=091|
2023-11-13 16:10:29.157 [37] [FixSender] (DEBUG) Receiving 8=FIX.4.4|9=62|35=0|34=268|49=DMA_HUB|56=FIXCLIENT1|52=20231113-15:10:29.144|10=034|
2023-11-13 16:10:39.792 [38] [FixSender] (DEBUG) Sending 8=FIX.4.4|9=58|35=0|49=FIXCLIENT1|56=DMA_HUB|34=239|52=20231113-15:10:39|10=095|
2023-11-13 16:10:59.099 [37] [FixSender] (DEBUG) Receiving 8=FIX.4.4|9=62|35=0|34=269|49=DMA_HUB|56=FIXCLIENT1|52=20231113-15:10:59.095|10=043|
2023-11-13 16:11:09.792 [38] [FixSender] (DEBUG) Sending 8=FIX.4.4|9=58|35=0|49=FIXCLIENT1|56=DMA_HUB|34=240|52=20231113-15:11:09|10=085|
2023-11-13 16:11:29.048 [37] [FixSender] (DEBUG) Receiving 8=FIX.4.4|9=62|35=0|34=270|49=DMA_HUB|56=FIXCLIENT1|52=20231113-15:11:29.048|10=031|
2023-11-13 16:11:39.796 [38] [FixSender] (DEBUG) Sending 8=FIX.4.4|9=58|35=0|49=FIXCLIENT1|56=DMA_HUB|34=241|52=20231113-15:11:39|10=089|
2023-11-13 16:11:59.001 [37] [FixSender] (DEBUG) Receiving 8=FIX.4.4|9=62|35=0|34=271|49=DMA_HUB|56=FIXCLIENT1|52=20231113-15:11:59.000|10=023|
2023-11-13 16:12:09.797 [38] [FixSender] (DEBUG) Sending 8=FIX.4.4|9=58|35=0|49=FIXCLIENT1|56=DMA_HUB|34=242|52=20231113-15:12:09|10=088|
2023-11-13 16:12:28.954 [37] [FixSender] (DEBUG) Receiving 8=FIX.4.4|9=62|35=0|34=272|49=DMA_HUB|56=FIXCLIENT1|52=20231113-15:12:28.952|10=037|
2023-11-13 16:12:39.800 [38] [FixSender] (DEBUG) Sending 8=FIX.4.4|9=58|35=0|49=FIXCLIENT1|56=DMA_HUB|34=243|52=20231113-15:12:39|10=092|
2023-11-13 16:12:58.903 [37] [FixSender] (DEBUG) Receiving 8=FIX.4.4|9=62|35=0|34=273|49=DMA_HUB|56=FIXCLIENT1|52=20231113-15:12:58.903|10=037|
2023-11-13 16:13:09.801 [38] [FixSender] (DEBUG) Sending 8=FIX.4.4|9=58|35=0|49=FIXCLIENT1|56=DMA_HUB|34=244|52=20231113-15:13:09|10=091|
2023-11-13 16:13:28.856 [37] [FixSender] (DEBUG) Receiving 8=FIX.4.4|9=62|35=0|34=274|49=DMA_HUB|56=FIXCLIENT1|52=20231113-15:13:28.856|10=043|
2023-11-13 16:13:39.803 [38] [FixSender] (DEBUG) Sending 8=FIX.4.4|9=58|35=0|49=FIXCLIENT1|56=DMA_HUB|34=245|52=20231113-15:13:39|10=095|
2023-11-13 16:13:58.814 [37] [FixSender] (DEBUG) Receiving 8=FIX.4.4|9=62|35=0|34=275|49=DMA_HUB|56=FIXCLIENT1|52=20231113-15:13:58.807|10=043|
2023-11-13 16:14:09.803 [38] [FixSender] (DEBUG) Sending 8=FIX.4.4|9=58|35=0|49=FIXCLIENT1|56=DMA_HUB|34=246|52=20231113-15:14:09|10=094|
2023-11-13 16:14:28.760 [37] [FixSender] (DEBUG) Receiving 8=FIX.4.4|9=62|35=0|34=276|49=DMA_HUB|56=FIXCLIENT1|52=20231113-15:14:28.760|10=040|
2023-11-13 16:14:39.805 [38] [FixSender] (DEBUG) Sending 8=FIX.4.4|9=58|35=0|49=FIXCLIENT1|56=DMA_HUB|34=247|52=20231113-15:14:39|10=098|
2023-11-13 16:14:58.713 [37] [FixSender] (DEBUG) Receiving 8=FIX.4.4|9=62|35=0|34=277|49=DMA_HUB|56=FIXCLIENT1|52=20231113-15:14:58.711|10=040|
2023-11-13 16:15:09.809 [38] [FixSender] (DEBUG) Sending 8=FIX.4.4|9=58|35=0|49=FIXCLIENT1|56=DMA_HUB|34=248|52=20231113-15:15:09|10=097|
2023-11-13 16:15:28.664 [37] [FixSender] (DEBUG) Receiving 8=FIX.4.4|9=62|35=0|34=278|49=DMA_HUB|56=FIXCLIENT1|52=20231113-15:15:28.664|10=046|
2023-11-13 16:15:39.830 [38] [FixSender] (DEBUG) Sending 8=FIX.4.4|9=58|35=0|49=FIXCLIENT1|56=DMA_HUB|34=249|52=20231113-15:15:39|10=101|
2023-11-13 16:15:58.616 [37] [FixSender] (DEBUG) Receiving 8=FIX.4.4|9=62|35=0|34=279|49=DMA_HUB|56=FIXCLIENT1|52=20231113-15:15:58.615|10=046|
2023-11-13 16:16:09.843 [38] [FixSender] (DEBUG) Sending 8=FIX.4.4|9=58|35=0|49=FIXCLIENT1|56=DMA_HUB|34=250|52=20231113-15:16:09|10=091|
2023-11-13 16:16:28.567 [37] [FixSender] (DEBUG) Receiving 8=FIX.4.4|9=62|35=0|34=280|49=DMA_HUB|56=FIXCLIENT1|52=20231113-15:16:28.567|10=042|
2023-11-13 16:16:39.845 [38] [FixSender] (DEBUG) Sending 8=FIX.4.4|9=58|35=0|49=FIXCLIENT1|56=DMA_HUB|34=251|52=20231113-15:16:39|10=095|
2023-11-13 16:16:58.523 [37] [FixSender] (DEBUG) Receiving 8=FIX.4.4|9=62|35=0|34=281|49=DMA_HUB|56=FIXCLIENT1|52=20231113-15:16:58.520|10=035|
2023-11-13 16:17:09.846 [38] [FixSender] (DEBUG) Sending 8=FIX.4.4|9=58|35=0|49=FIXCLIENT1|56=DMA_HUB|34=252|52=20231113-15:17:09|10=094|
2023-11-13 16:17:28.472 [37] [FixSender] (DEBUG) Receiving 8=FIX.4.4|9=62|35=0|34=282|49=DMA_HUB|56=FIXCLIENT1|52=20231113-15:17:28.471|10=039|
2023-11-13 16:17:39.850 [38] [FixSender] (DEBUG) Sending 8=FIX.4.4|9=58|35=0|49=FIXCLIENT1|56=DMA_HUB|34=253|52=20231113-15:17:39|10=098|
2023-11-13 16:17:58.424 [37] [FixSender] (DEBUG) Receiving 8=FIX.4.4|9=62|35=0|34=283|49=DMA_HUB|56=FIXCLIENT1|52=20231113-15:17:58.424|10=041|
2023-11-13 16:18:09.851 [38] [FixSender] (DEBUG) Sending 8=FIX.4.4|9=58|35=0|49=FIXCLIENT1|56=DMA_HUB|34=254|52=20231113-15:18:09|10=097|
2023-11-13 16:18:28.376 [37] [FixSender] (DEBUG) Receiving 8=FIX.4.4|9=62|35=0|34=284|49=DMA_HUB|56=FIXCLIENT1|52=20231113-15:18:28.376|10=046|
2023-11-13 16:18:39.852 [38] [FixSender] (DEBUG) Sending 8=FIX.4.4|9=58|35=0|49=FIXCLIENT1|56=DMA_HUB|34=255|52=20231113-15:18:39|10=101|
2023-11-13 16:18:58.327 [37] [FixSender] (DEBUG) Receiving 8=FIX.4.4|9=62|35=0|34=285|49=DMA_HUB|56=FIXCLIENT1|52=20231113-15:18:58.327|10=046|
2023-11-13 16:19:09.853 [38] [FixSender] (DEBUG) Sending 8=FIX.4.4|9=58|35=0|49=FIXCLIENT1|56=DMA_HUB|34=256|52=20231113-15:19:09|10=100|
2023-11-13 16:19:28.279 [37] [FixSender] (DEBUG) Receiving 8=FIX.4.4|9=62|35=0|34=286|49=DMA_HUB|56=FIXCLIENT1|52=20231113-15:19:28.279|10=051|
2023-11-13 16:19:39.855 [38] [FixSender] (DEBUG) Sending 8=FIX.4.4|9=58|35=0|49=FIXCLIENT1|56=DMA_HUB|34=257|52=20231113-15:19:39|10=104|
2023-11-13 16:19:58.232 [37] [FixSender] (DEBUG) Receiving 8=FIX.4.4|9=62|35=0|34=287|49=DMA_HUB|56=FIXCLIENT1|52=20231113-15:19:58.232|10=044|
2023-11-13 16:20:09.858 [38] [FixSender] (DEBUG) Sending 8=FIX.4.4|9=58|35=0|49=FIXCLIENT1|56=DMA_HUB|34=258|52=20231113-15:20:09|10=094|
2023-11-13 16:20:28.183 [37] [FixSender] (DEBUG) Receiving 8=FIX.4.4|9=62|35=0|34=288|49=DMA_HUB|56=FIXCLIENT1|52=20231113-15:20:28.183|10=039|
2023-11-13 16:20:39.861 [38] [FixSender] (DEBUG) Sending 8=FIX.4.4|9=58|35=0|49=FIXCLIENT1|56=DMA_HUB|34=259|52=20231113-15:20:39|10=098|
2023-11-13 16:20:58.136 [37] [FixSender] (DEBUG) Receiving 8=FIX.4.4|9=62|35=0|34=289|49=DMA_HUB|56=FIXCLIENT1|52=20231113-15:20:58.136|10=041|
2023-11-13 16:21:09.862 [38] [FixSender] (DEBUG) Sending 8=FIX.4.4|9=58|35=0|49=FIXCLIENT1|56=DMA_HUB|34=260|52=20231113-15:21:09|10=088|
2023-11-13 16:21:28.087 [37] [FixSender] (DEBUG) Receiving 8=FIX.4.4|9=62|35=0|34=290|49=DMA_HUB|56=FIXCLIENT1|52=20231113-15:21:28.087|10=036|
2023-11-13 16:21:39.865 [38] [FixSender] (DEBUG) Sending 8=FIX.4.4|9=58|35=0|49=FIXCLIENT1|56=DMA_HUB|34=261|52=20231113-15:21:39|10=092|
2023-11-13 16:21:58.039 [37] [FixSender] (DEBUG) Receiving 8=FIX.4.4|9=62|35=0|34=291|49=DMA_HUB|56=FIXCLIENT1|52=20231113-15:21:58.039|10=037|
2023-11-13 16:22:09.866 [38] [FixSender] (DEBUG) Sending 8=FIX.4.4|9=58|35=0|49=FIXCLIENT1|56=DMA_HUB|34=262|52=20231113-15:22:09|10=091|
2023-11-13 16:22:27.991 [37] [FixSender] (DEBUG) Receiving 8=FIX.4.4|9=62|35=0|34=292|49=DMA_HUB|56=FIXCLIENT1|52=20231113-15:22:27.991|10=042|
2023-11-13 16:22:39.867 [38] [FixSender] (DEBUG) Sending 8=FIX.4.4|9=58|35=0|49=FIXCLIENT1|56=DMA_HUB|34=263|52=20231113-15:22:39|10=095|
2023-11-13 16:22:57.943 [37] [FixSender] (DEBUG) Receiving 8=FIX.4.4|9=62|35=0|34=293|49=DMA_HUB|56=FIXCLIENT1|52=20231113-15:22:57.943|10=043|
2023-11-13 16:23:09.869 [38] [FixSender] (DEBUG) Sending 8=FIX.4.4|9=58|35=0|49=FIXCLIENT1|56=DMA_HUB|34=264|52=20231113-15:23:09|10=094|
2023-11-13 16:23:27.895 [37] [FixSender] (DEBUG) Receiving 8=FIX.4.4|9=62|35=0|34=294|49=DMA_HUB|56=FIXCLIENT1|52=20231113-15:23:27.895|10=048|
2023-11-13 16:23:39.870 [38] [FixSender] (DEBUG) Sending 8=FIX.4.4|9=58|35=0|49=FIXCLIENT1|56=DMA_HUB|34=265|52=20231113-15:23:39|10=098|
2023-11-13 16:23:57.847 [37] [FixSender] (DEBUG) Receiving 8=FIX.4.4|9=62|35=0|34=295|49=DMA_HUB|56=FIXCLIENT1|52=20231113-15:23:57.847|10=049|
2023-11-13 16:24:09.873 [38] [FixSender] (DEBUG) Sending 8=FIX.4.4|9=58|35=0|49=FIXCLIENT1|56=DMA_HUB|34=266|52=20231113-15:24:09|10=097|
