2023-12-22 10:31:58.744 [1] [Fixsender] (INFO) (c) 2001-2011 ullink SAS. FixSender. Release 1.11.
2023-12-22 10:52:27.516 [29] [FixSender] (INFO) try to connect to : localhost port :12345
2023-12-22 10:52:27.516 [29] [FixSender] (INFO) physical cnx initiated
2023-12-22 10:52:27.544 [29] [FixSender] (DEBUG) Sending 8=FIX.4.4|9=87|35=A|49=FIXCLIENT1|56=DMA_HUB|34=47|52=20231222-09:52:27|98=0|108=30|95=9|96=null/null|10=150|
2023-12-22 10:52:27.552 [29] [FixSender] (DEBUG) Receiving 8=FIX.4.4|9=72|35=A|34=1|49=DMA_HUB|56=FIXCLIENT1|52=20231222-09:52:27.544|108=30|98=0|10=234|
2023-12-22 10:52:27.552 [29] [FixSender] (DEBUG) Sending 8=FIX.4.4|9=108|35=5|49=FIXCLIENT1|56=DMA_HUB|34=48|52=20231222-09:52:27|58=MsgSeqNum expected 32, but MsgSeqNum received 1|10=118|
2023-12-22 10:52:27.556 [29] [FixSender] (INFO) physical cnx finished Connection reset by peer
2023-12-22 10:52:27.558 [29] [FixSender] (WARNING) Disconnected
2023-12-22 10:52:30.432 [33] [FixSender] (INFO) try to connect to : localhost port :12345
2023-12-22 10:52:30.432 [33] [FixSender] (INFO) physical cnx initiated
2023-12-22 10:52:30.438 [33] [FixSender] (DEBUG) Sending 8=FIX.4.4|9=86|35=A|49=FIXCLIENT1|56=DMA_HUB|34=1|52=20231222-09:52:30|98=0|108=30|95=9|96=null/null|10=085|
2023-12-22 10:52:30.442 [33] [FixSender] (DEBUG) Receiving 8=FIX.4.4|9=72|35=A|34=4|49=DMA_HUB|56=FIXCLIENT1|52=20231222-09:52:30.438|108=30|98=0|10=233|
2023-12-22 10:52:30.442 [33] [FixSender] (WARNING) The Fix connection is open...
2023-12-22 10:52:30.444 [33] [FixSender] (DEBUG) Sending 8=FIX.4.4|9=65|35=2|49=FIXCLIENT1|56=DMA_HUB|34=2|52=20231222-09:52:30|7=1|16=0|10=111|
2023-12-22 10:52:30.444 [33] [FixSender] (DEBUG) Receiving 8=FIX.4.4|9=102|35=4|34=1|49=DMA_HUB|56=FIXCLIENT1|52=20231222-09:52:30.444|43=Y|122=20231222-09:52:30.444|36=5|123=Y|10=237|
2023-12-22 10:52:34.545 [36] [FixSender] (DEBUG) Sending 8=FIX.4.4|9=196|35=D|49=FIXCLIENT1|56=DMA_HUB|34=3|52=20231222-09:52:34|21=1|11=HS_17032387540|38=2462|55=E:07G@XETR|54=2|60=20231222-09:52:34|40=2|59=0|44=197.111|48=US3390411052|22=4|15=EUR|207=XETR|1=bram_123|10=034|
2023-12-22 10:52:34.555 [33] [FixSender] (DEBUG) Receiving 8=FIX.4.4|9=238|35=8|34=5|49=DMA_HUB|56=FIXCLIENT1|52=20231222-09:52:34.545|11=HS_17032387540|37=FXH0D480I|54=2|40=2|59=0|17=202312221|150=A|39=A|38=2462|151=2462|14=0|6=0|44=197.111|60=20231222-09:52:34.000|22=4|48=US3390411052|207=XETR|15=EUR|55=[N/A]|10=243|
2023-12-22 10:53:00.399 [33] [FixSender] (DEBUG) Receiving 8=FIX.4.4|9=60|35=0|34=6|49=DMA_HUB|56=FIXCLIENT1|52=20231222-09:53:00.399|10=194|
2023-12-22 10:53:04.554 [34] [FixSender] (DEBUG) Sending 8=FIX.4.4|9=56|35=0|49=FIXCLIENT1|56=DMA_HUB|34=4|52=20231222-09:53:04|10=246|
2023-12-22 10:53:30.346 [33] [FixSender] (DEBUG) Receiving 8=FIX.4.4|9=60|35=0|34=7|49=DMA_HUB|56=FIXCLIENT1|52=20231222-09:53:30.346|10=190|
2023-12-22 10:53:34.577 [34] [FixSender] (DEBUG) Sending 8=FIX.4.4|9=56|35=0|49=FIXCLIENT1|56=DMA_HUB|34=5|52=20231222-09:53:34|10=250|
2023-12-22 10:54:00.298 [33] [FixSender] (DEBUG) Receiving 8=FIX.4.4|9=60|35=0|34=8|49=DMA_HUB|56=FIXCLIENT1|52=20231222-09:54:00.298|10=195|
2023-12-22 10:54:04.581 [34] [FixSender] (DEBUG) Sending 8=FIX.4.4|9=56|35=0|49=FIXCLIENT1|56=DMA_HUB|34=6|52=20231222-09:54:04|10=249|
2023-12-22 10:54:30.256 [33] [FixSender] (DEBUG) Receiving 8=FIX.4.4|9=60|35=0|34=9|49=DMA_HUB|56=FIXCLIENT1|52=20231222-09:54:30.255|10=192|
2023-12-22 10:54:34.591 [34] [FixSender] (DEBUG) Sending 8=FIX.4.4|9=56|35=0|49=FIXCLIENT1|56=DMA_HUB|34=7|52=20231222-09:54:34|10=253|
2023-12-22 10:55:00.203 [33] [FixSender] (DEBUG) Receiving 8=FIX.4.4|9=61|35=0|34=10|49=DMA_HUB|56=FIXCLIENT1|52=20231222-09:55:00.202|10=223|
2023-12-22 10:55:04.608 [34] [FixSender] (DEBUG) Sending 8=FIX.4.4|9=56|35=0|49=FIXCLIENT1|56=DMA_HUB|34=8|52=20231222-09:55:04|10=252|
2023-12-22 10:55:30.154 [33] [FixSender] (DEBUG) Receiving 8=FIX.4.4|9=61|35=0|34=11|49=DMA_HUB|56=FIXCLIENT1|52=20231222-09:55:30.154|10=233|
2023-12-22 10:55:34.610 [34] [FixSender] (DEBUG) Sending 8=FIX.4.4|9=56|35=0|49=FIXCLIENT1|56=DMA_HUB|34=9|52=20231222-09:55:34|10=000|
2023-12-22 10:56:00.108 [33] [FixSender] (DEBUG) Receiving 8=FIX.4.4|9=61|35=0|34=12|49=DMA_HUB|56=FIXCLIENT1|52=20231222-09:56:00.107|10=230|
2023-12-22 10:56:04.623 [34] [FixSender] (DEBUG) Sending 8=FIX.4.4|9=57|35=0|49=FIXCLIENT1|56=DMA_HUB|34=10|52=20231222-09:56:04|10=039|
2023-12-22 10:56:30.064 [33] [FixSender] (DEBUG) Receiving 8=FIX.4.4|9=61|35=0|34=13|49=DMA_HUB|56=FIXCLIENT1|52=20231222-09:56:30.063|10=235|
2023-12-22 10:56:34.633 [34] [FixSender] (DEBUG) Sending 8=FIX.4.4|9=57|35=0|49=FIXCLIENT1|56=DMA_HUB|34=11|52=20231222-09:56:34|10=043|
2023-12-22 10:57:00.010 [33] [FixSender] (DEBUG) Receiving 8=FIX.4.4|9=61|35=0|34=14|49=DMA_HUB|56=FIXCLIENT1|52=20231222-09:57:00.008|10=233|
2023-12-22 10:57:04.647 [34] [FixSender] (DEBUG) Sending 8=FIX.4.4|9=57|35=0|49=FIXCLIENT1|56=DMA_HUB|34=12|52=20231222-09:57:04|10=042|
2023-12-22 10:57:29.961 [33] [FixSender] (DEBUG) Receiving 8=FIX.4.4|9=61|35=0|34=15|49=DMA_HUB|56=FIXCLIENT1|52=20231222-09:57:29.960|10=252|
2023-12-22 10:57:34.653 [34] [FixSender] (DEBUG) Sending 8=FIX.4.4|9=57|35=0|49=FIXCLIENT1|56=DMA_HUB|34=13|52=20231222-09:57:34|10=046|
2023-12-22 10:57:59.909 [33] [FixSender] (DEBUG) Receiving 8=FIX.4.4|9=61|35=0|34=16|49=DMA_HUB|56=FIXCLIENT1|52=20231222-09:57:59.908|10=002|
2023-12-22 10:58:04.671 [34] [FixSender] (DEBUG) Sending 8=FIX.4.4|9=57|35=0|49=FIXCLIENT1|56=DMA_HUB|34=14|52=20231222-09:58:04|10=045|
2023-12-22 10:58:29.856 [33] [FixSender] (DEBUG) Receiving 8=FIX.4.4|9=61|35=0|34=17|49=DMA_HUB|56=FIXCLIENT1|52=20231222-09:58:29.856|10=003|
2023-12-22 10:58:34.673 [34] [FixSender] (DEBUG) Sending 8=FIX.4.4|9=57|35=0|49=FIXCLIENT1|56=DMA_HUB|34=15|52=20231222-09:58:34|10=049|
2023-12-22 10:58:59.822 [33] [FixSender] (DEBUG) Receiving 8=FIX.4.4|9=61|35=0|34=18|49=DMA_HUB|56=FIXCLIENT1|52=20231222-09:58:59.821|10=255|
2023-12-22 10:59:04.687 [34] [FixSender] (DEBUG) Sending 8=FIX.4.4|9=57|35=0|49=FIXCLIENT1|56=DMA_HUB|34=16|52=20231222-09:59:04|10=048|
2023-12-22 10:59:29.772 [33] [FixSender] (DEBUG) Receiving 8=FIX.4.4|9=61|35=0|34=19|49=DMA_HUB|56=FIXCLIENT1|52=20231222-09:59:29.769|10=009|
2023-12-22 10:59:34.703 [34] [FixSender] (DEBUG) Sending 8=FIX.4.4|9=57|35=0|49=FIXCLIENT1|56=DMA_HUB|34=17|52=20231222-09:59:34|10=052|
2023-12-22 10:59:44.545 [37] [FixSender] (DEBUG) Sending 8=FIX.4.4|9=197|35=D|49=FIXCLIENT1|56=DMA_HUB|34=18|52=20231222-09:59:44|21=1|11=HS_17032391841|38=2759|55=E:07G@XETR|54=2|60=20231222-09:59:44|40=2|59=0|44=197.111|48=US3390411052|22=4|15=EUR|207=XETR|1=bram_123|10=113|
2023-12-22 10:59:44.547 [33] [FixSender] (DEBUG) Receiving 8=FIX.4.4|9=239|35=8|34=20|49=DMA_HUB|56=FIXCLIENT1|52=20231222-09:59:44.546|11=HS_17032391841|37=FXBN7sC0I|54=2|40=2|59=0|17=202312222|150=A|39=A|38=2759|151=2759|14=0|6=0|44=197.111|60=20231222-09:59:44.000|22=4|48=US3390411052|207=XETR|15=EUR|55=[N/A]|10=153|
2023-12-22 10:59:59.722 [33] [FixSender] (DEBUG) Receiving 8=FIX.4.4|9=61|35=0|34=21|49=DMA_HUB|56=FIXCLIENT1|52=20231222-09:59:59.722|10=250|
2023-12-22 11:00:12.370 [33] [FixSender] (DEBUG) Receiving 8=FIX.4.4|9=237|35=8|34=22|49=DMA_HUB|56=FIXCLIENT1|52=20231222-10:00:12.369|11=HS_17032391841|37=FXBN7sC0I|54=2|40=2|59=0|17=202312223|150=A|39=A|38=2759|151=2759|14=0|6=0|44=197.1|60=20231222-09:59:44.000|22=4|48=US3390411052|207=XETR|15=EUR|55=[N/A]|10=032|
2023-12-22 11:00:14.553 [34] [FixSender] (DEBUG) Sending 8=FIX.4.4|9=57|35=0|49=FIXCLIENT1|56=DMA_HUB|34=19|52=20231222-10:00:14|10=030|
2023-12-22 11:00:29.674 [33] [FixSender] (DEBUG) Receiving 8=FIX.4.4|9=61|35=0|34=23|49=DMA_HUB|56=FIXCLIENT1|52=20231222-10:00:29.673|10=232|
2023-12-22 11:00:44.567 [34] [FixSender] (DEBUG) Sending 8=FIX.4.4|9=57|35=0|49=FIXCLIENT1|56=DMA_HUB|34=20|52=20231222-10:00:44|10=025|
2023-12-22 11:00:59.622 [33] [FixSender] (DEBUG) Receiving 8=FIX.4.4|9=61|35=0|34=24|49=DMA_HUB|56=FIXCLIENT1|52=20231222-10:00:59.620|10=228|
2023-12-22 11:01:14.584 [34] [FixSender] (DEBUG) Sending 8=FIX.4.4|9=57|35=0|49=FIXCLIENT1|56=DMA_HUB|34=21|52=20231222-10:01:14|10=024|
2023-12-22 11:01:29.581 [33] [FixSender] (DEBUG) Receiving 8=FIX.4.4|9=61|35=0|34=25|49=DMA_HUB|56=FIXCLIENT1|52=20231222-10:01:29.577|10=238|
2023-12-22 11:01:29.918 [38] [FixSender] (DEBUG) Sending 8=FIX.4.4|9=197|35=D|49=FIXCLIENT1|56=DMA_HUB|34=22|52=20231222-10:01:29|21=1|11=HS_17032392892|38=1480|55=E:07G@XETR|54=2|60=20231222-10:01:29|40=2|59=0|44=197.111|48=US3390411052|22=4|15=EUR|207=XETR|1=bram_123|10=069|
2023-12-22 11:01:29.922 [33] [FixSender] (DEBUG) Receiving 8=FIX.4.4|9=239|35=8|34=26|49=DMA_HUB|56=FIXCLIENT1|52=20231222-10:01:29.920|11=HS_17032392892|37=FXCN7sC0I|54=2|40=2|59=0|17=202312224|150=A|39=A|38=1480|151=1480|14=0|6=0|44=197.111|60=20231222-10:01:29.000|22=4|48=US3390411052|207=XETR|15=EUR|55=[N/A]|10=109|
2023-12-22 11:01:59.524 [33] [FixSender] (DEBUG) Receiving 8=FIX.4.4|9=61|35=0|34=27|49=DMA_HUB|56=FIXCLIENT1|52=20231222-10:01:59.523|10=234|
2023-12-22 11:01:59.932 [34] [FixSender] (DEBUG) Sending 8=FIX.4.4|9=57|35=0|49=FIXCLIENT1|56=DMA_HUB|34=23|52=20231222-10:01:59|10=035|
2023-12-22 11:02:04.793 [33] [FixSender] (DEBUG) Receiving 8=FIX.4.4|9=235|35=8|34=28|49=DMA_HUB|56=FIXCLIENT1|52=20231222-10:02:04.792|11=HS_17032392892|37=FXCN7sC0I|54=2|40=2|59=0|17=202312225|150=A|39=A|38=1480|151=1480|14=0|6=0|44=197|60=20231222-10:01:29.000|22=4|48=US3390411052|207=XETR|15=EUR|55=[N/A]|10=172|
2023-12-22 11:02:04.797 [33] [FixSender] (DEBUG) Receiving 8=FIX.4.4|9=250|35=8|34=29|49=DMA_HUB|56=FIXCLIENT1|52=20231222-10:02:04.796|11=HS_17032392892|37=FXCN7sC0I|198=nPSJB34a93|54=2|40=2|59=0|17=202312226|150=0|39=0|38=1480|151=1480|14=0|6=0|44=197|60=20231222-10:02:04.794|22=4|48=US3390411052|207=XETR|15=EUR|55=[N/A]|10=076|
2023-12-22 11:02:29.488 [33] [FixSender] (DEBUG) Receiving 8=FIX.4.4|9=61|35=0|34=30|49=DMA_HUB|56=FIXCLIENT1|52=20231222-10:02:29.487|10=235|
2023-12-22 11:02:29.939 [34] [FixSender] (DEBUG) Sending 8=FIX.4.4|9=57|35=0|49=FIXCLIENT1|56=DMA_HUB|34=24|52=20231222-10:02:29|10=034|
2023-12-22 11:02:59.426 [33] [FixSender] (DEBUG) Receiving 8=FIX.4.4|9=61|35=0|34=31|49=DMA_HUB|56=FIXCLIENT1|52=20231222-10:02:59.425|10=231|
2023-12-22 11:02:59.957 [34] [FixSender] (DEBUG) Sending 8=FIX.4.4|9=57|35=0|49=FIXCLIENT1|56=DMA_HUB|34=25|52=20231222-10:02:59|10=038|
2023-12-22 11:03:29.384 [33] [FixSender] (DEBUG) Receiving 8=FIX.4.4|9=61|35=0|34=32|49=DMA_HUB|56=FIXCLIENT1|52=20231222-10:03:29.383|10=233|
2023-12-22 11:03:29.959 [34] [FixSender] (DEBUG) Sending 8=FIX.4.4|9=57|35=0|49=FIXCLIENT1|56=DMA_HUB|34=26|52=20231222-10:03:29|10=037|
2023-12-22 11:03:59.338 [33] [FixSender] (DEBUG) Receiving 8=FIX.4.4|9=61|35=0|34=33|49=DMA_HUB|56=FIXCLIENT1|52=20231222-10:03:59.337|10=236|
2023-12-22 11:03:59.971 [34] [FixSender] (DEBUG) Sending 8=FIX.4.4|9=57|35=0|49=FIXCLIENT1|56=DMA_HUB|34=27|52=20231222-10:03:59|10=041|
2023-12-22 11:04:29.290 [33] [FixSender] (DEBUG) Receiving 8=FIX.4.4|9=61|35=0|34=34|49=DMA_HUB|56=FIXCLIENT1|52=20231222-10:04:29.289|10=241|
2023-12-22 11:04:29.987 [34] [FixSender] (DEBUG) Sending 8=FIX.4.4|9=57|35=0|49=FIXCLIENT1|56=DMA_HUB|34=28|52=20231222-10:04:29|10=040|
2023-12-22 11:04:59.237 [33] [FixSender] (DEBUG) Receiving 8=FIX.4.4|9=61|35=0|34=35|49=DMA_HUB|56=FIXCLIENT1|52=20231222-10:04:59.237|10=238|
2023-12-22 11:04:59.996 [34] [FixSender] (DEBUG) Sending 8=FIX.4.4|9=57|35=0|49=FIXCLIENT1|56=DMA_HUB|34=29|52=20231222-10:04:59|10=044|
2023-12-22 11:05:29.199 [33] [FixSender] (DEBUG) Receiving 8=FIX.4.4|9=61|35=0|34=36|49=DMA_HUB|56=FIXCLIENT1|52=20231222-10:05:29.198|10=243|
2023-12-22 11:05:30.004 [34] [FixSender] (DEBUG) Sending 8=FIX.4.4|9=57|35=0|49=FIXCLIENT1|56=DMA_HUB|34=30|52=20231222-10:05:30|10=026|
2023-12-22 11:05:59.147 [33] [FixSender] (DEBUG) Receiving 8=FIX.4.4|9=61|35=0|34=37|49=DMA_HUB|56=FIXCLIENT1|52=20231222-10:05:59.146|10=240|
2023-12-22 11:06:00.015 [34] [FixSender] (DEBUG) Sending 8=FIX.4.4|9=57|35=0|49=FIXCLIENT1|56=DMA_HUB|34=31|52=20231222-10:06:00|10=025|
2023-12-22 11:06:29.103 [33] [FixSender] (DEBUG) Receiving 8=FIX.4.4|9=61|35=0|34=38|49=DMA_HUB|56=FIXCLIENT1|52=20231222-10:06:29.103|10=232|
2023-12-22 11:06:30.023 [34] [FixSender] (DEBUG) Sending 8=FIX.4.4|9=57|35=0|49=FIXCLIENT1|56=DMA_HUB|34=32|52=20231222-10:06:30|10=029|
2023-12-22 11:06:59.052 [33] [FixSender] (DEBUG) Receiving 8=FIX.4.4|9=61|35=0|34=39|49=DMA_HUB|56=FIXCLIENT1|52=20231222-10:06:59.051|10=238|
2023-12-22 11:07:00.036 [34] [FixSender] (DEBUG) Sending 8=FIX.4.4|9=57|35=0|49=FIXCLIENT1|56=DMA_HUB|34=33|52=20231222-10:07:00|10=028|
2023-12-22 11:07:29.001 [33] [FixSender] (DEBUG) Receiving 8=FIX.4.4|9=61|35=0|34=40|49=DMA_HUB|56=FIXCLIENT1|52=20231222-10:07:29.001|10=223|
2023-12-22 11:07:30.046 [34] [FixSender] (DEBUG) Sending 8=FIX.4.4|9=57|35=0|49=FIXCLIENT1|56=DMA_HUB|34=34|52=20231222-10:07:30|10=032|
2023-12-22 11:07:58.952 [33] [FixSender] (DEBUG) Receiving 8=FIX.4.4|9=61|35=0|34=41|49=DMA_HUB|56=FIXCLIENT1|52=20231222-10:07:58.952|10=241|
2023-12-22 11:08:00.058 [34] [FixSender] (DEBUG) Sending 8=FIX.4.4|9=57|35=0|49=FIXCLIENT1|56=DMA_HUB|34=35|52=20231222-10:08:00|10=031|
2023-12-22 11:08:28.905 [33] [FixSender] (DEBUG) Receiving 8=FIX.4.4|9=61|35=0|34=42|49=DMA_HUB|56=FIXCLIENT1|52=20231222-10:08:28.905|10=238|
2023-12-22 11:08:30.070 [34] [FixSender] (DEBUG) Sending 8=FIX.4.4|9=57|35=0|49=FIXCLIENT1|56=DMA_HUB|34=36|52=20231222-10:08:30|10=035|
2023-12-22 11:08:58.852 [33] [FixSender] (DEBUG) Receiving 8=FIX.4.4|9=61|35=0|34=43|49=DMA_HUB|56=FIXCLIENT1|52=20231222-10:08:58.851|10=242|
2023-12-22 11:09:00.084 [34] [FixSender] (DEBUG) Sending 8=FIX.4.4|9=57|35=0|49=FIXCLIENT1|56=DMA_HUB|34=37|52=20231222-10:09:00|10=034|
2023-12-22 11:09:28.807 [33] [FixSender] (DEBUG) Receiving 8=FIX.4.4|9=61|35=0|34=44|49=DMA_HUB|56=FIXCLIENT1|52=20231222-10:09:28.806|10=241|
2023-12-22 11:09:30.094 [34] [FixSender] (DEBUG) Sending 8=FIX.4.4|9=57|35=0|49=FIXCLIENT1|56=DMA_HUB|34=38|52=20231222-10:09:30|10=038|
2023-12-22 11:09:58.757 [33] [FixSender] (DEBUG) Receiving 8=FIX.4.4|9=61|35=0|34=45|49=DMA_HUB|56=FIXCLIENT1|52=20231222-10:09:58.757|10=250|
2023-12-22 11:10:00.107 [34] [FixSender] (DEBUG) Sending 8=FIX.4.4|9=57|35=0|49=FIXCLIENT1|56=DMA_HUB|34=39|52=20231222-10:10:00|10=028|
2023-12-22 11:10:28.710 [33] [FixSender] (DEBUG) Receiving 8=FIX.4.4|9=61|35=0|34=46|49=DMA_HUB|56=FIXCLIENT1|52=20231222-10:10:28.709|10=237|
2023-12-22 11:10:30.114 [34] [FixSender] (DEBUG) Sending 8=FIX.4.4|9=57|35=0|49=FIXCLIENT1|56=DMA_HUB|34=40|52=20231222-10:10:30|10=023|
2023-12-22 11:10:58.665 [33] [FixSender] (DEBUG) Receiving 8=FIX.4.4|9=61|35=0|34=47|49=DMA_HUB|56=FIXCLIENT1|52=20231222-10:10:58.665|10=242|
2023-12-22 11:11:00.117 [34] [FixSender] (DEBUG) Sending 8=FIX.4.4|9=57|35=0|49=FIXCLIENT1|56=DMA_HUB|34=41|52=20231222-10:11:00|10=022|
2023-12-22 11:11:28.612 [33] [FixSender] (DEBUG) Receiving 8=FIX.4.4|9=61|35=0|34=48|49=DMA_HUB|56=FIXCLIENT1|52=20231222-10:11:28.611|10=232|
2023-12-22 11:11:30.120 [34] [FixSender] (DEBUG) Sending 8=FIX.4.4|9=57|35=0|49=FIXCLIENT1|56=DMA_HUB|34=42|52=20231222-10:11:30|10=026|
2023-12-22 11:11:58.573 [33] [FixSender] (DEBUG) Receiving 8=FIX.4.4|9=61|35=0|34=49|49=DMA_HUB|56=FIXCLIENT1|52=20231222-10:11:58.572|10=242|
2023-12-22 11:12:00.133 [34] [FixSender] (DEBUG) Sending 8=FIX.4.4|9=57|35=0|49=FIXCLIENT1|56=DMA_HUB|34=43|52=20231222-10:12:00|10=025|
2023-12-22 11:12:28.519 [33] [FixSender] (DEBUG) Receiving 8=FIX.4.4|9=61|35=0|34=50|49=DMA_HUB|56=FIXCLIENT1|52=20231222-10:12:28.518|10=232|
2023-12-22 11:12:30.146 [34] [FixSender] (DEBUG) Sending 8=FIX.4.4|9=57|35=0|49=FIXCLIENT1|56=DMA_HUB|34=44|52=20231222-10:12:30|10=029|
2023-12-22 11:12:58.472 [33] [FixSender] (DEBUG) Receiving 8=FIX.4.4|9=61|35=0|34=51|49=DMA_HUB|56=FIXCLIENT1|52=20231222-10:12:58.471|10=234|
2023-12-22 11:13:00.156 [34] [FixSender] (DEBUG) Sending 8=FIX.4.4|9=57|35=0|49=FIXCLIENT1|56=DMA_HUB|34=45|52=20231222-10:13:00|10=028|
2023-12-22 11:13:28.421 [33] [FixSender] (DEBUG) Receiving 8=FIX.4.4|9=61|35=0|34=52|49=DMA_HUB|56=FIXCLIENT1|52=20231222-10:13:28.420|10=227|
2023-12-22 11:13:30.169 [34] [FixSender] (DEBUG) Sending 8=FIX.4.4|9=57|35=0|49=FIXCLIENT1|56=DMA_HUB|34=46|52=20231222-10:13:30|10=032|
2023-12-22 11:13:58.373 [33] [FixSender] (DEBUG) Receiving 8=FIX.4.4|9=61|35=0|34=53|49=DMA_HUB|56=FIXCLIENT1|52=20231222-10:13:58.372|10=237|
2023-12-22 11:14:00.171 [34] [FixSender] (DEBUG) Sending 8=FIX.4.4|9=57|35=0|49=FIXCLIENT1|56=DMA_HUB|34=47|52=20231222-10:14:00|10=031|
2023-12-22 11:14:28.325 [33] [FixSender] (DEBUG) Receiving 8=FIX.4.4|9=61|35=0|34=54|49=DMA_HUB|56=FIXCLIENT1|52=20231222-10:14:28.325|10=234|
2023-12-22 11:14:30.175 [34] [FixSender] (DEBUG) Sending 8=FIX.4.4|9=57|35=0|49=FIXCLIENT1|56=DMA_HUB|34=48|52=20231222-10:14:30|10=035|
2023-12-22 11:14:58.282 [33] [FixSender] (DEBUG) Receiving 8=FIX.4.4|9=61|35=0|34=55|49=DMA_HUB|56=FIXCLIENT1|52=20231222-10:14:58.281|10=239|
2023-12-22 11:15:00.182 [34] [FixSender] (DEBUG) Sending 8=FIX.4.4|9=57|35=0|49=FIXCLIENT1|56=DMA_HUB|34=49|52=20231222-10:15:00|10=034|
2023-12-22 11:15:28.240 [33] [FixSender] (DEBUG) Receiving 8=FIX.4.4|9=61|35=0|34=56|49=DMA_HUB|56=FIXCLIENT1|52=20231222-10:15:28.239|10=241|
2023-12-22 11:15:30.183 [34] [FixSender] (DEBUG) Sending 8=FIX.4.4|9=57|35=0|49=FIXCLIENT1|56=DMA_HUB|34=50|52=20231222-10:15:30|10=029|
2023-12-22 11:15:58.181 [33] [FixSender] (DEBUG) Receiving 8=FIX.4.4|9=61|35=0|34=57|49=DMA_HUB|56=FIXCLIENT1|52=20231222-10:15:58.181|10=241|
2023-12-22 11:16:00.195 [34] [FixSender] (DEBUG) Sending 8=FIX.4.4|9=57|35=0|49=FIXCLIENT1|56=DMA_HUB|34=51|52=20231222-10:16:00|10=028|
2023-12-22 11:16:28.140 [33] [FixSender] (DEBUG) Receiving 8=FIX.4.4|9=61|35=0|34=58|49=DMA_HUB|56=FIXCLIENT1|52=20231222-10:16:28.140|10=235|
2023-12-22 11:16:30.199 [34] [FixSender] (DEBUG) Sending 8=FIX.4.4|9=57|35=0|49=FIXCLIENT1|56=DMA_HUB|34=52|52=20231222-10:16:30|10=032|
2023-12-22 11:16:58.086 [33] [FixSender] (DEBUG) Receiving 8=FIX.4.4|9=61|35=0|34=59|49=DMA_HUB|56=FIXCLIENT1|52=20231222-10:16:58.086|10=248|
2023-12-22 11:17:00.200 [34] [FixSender] (DEBUG) Sending 8=FIX.4.4|9=57|35=0|49=FIXCLIENT1|56=DMA_HUB|34=53|52=20231222-10:17:00|10=031|
2023-12-22 11:17:28.038 [33] [FixSender] (DEBUG) Receiving 8=FIX.4.4|9=61|35=0|34=60|49=DMA_HUB|56=FIXCLIENT1|52=20231222-10:17:28.038|10=235|
2023-12-22 11:17:30.211 [34] [FixSender] (DEBUG) Sending 8=FIX.4.4|9=57|35=0|49=FIXCLIENT1|56=DMA_HUB|34=54|52=20231222-10:17:30|10=035|
2023-12-22 11:17:57.996 [33] [FixSender] (DEBUG) Receiving 8=FIX.4.4|9=61|35=0|34=61|49=DMA_HUB|56=FIXCLIENT1|52=20231222-10:17:57.996|10=251|
2023-12-22 11:18:00.215 [34] [FixSender] (DEBUG) Sending 8=FIX.4.4|9=57|35=0|49=FIXCLIENT1|56=DMA_HUB|34=55|52=20231222-10:18:00|10=034|
2023-12-22 11:18:27.947 [33] [FixSender] (DEBUG) Receiving 8=FIX.4.4|9=61|35=0|34=62|49=DMA_HUB|56=FIXCLIENT1|52=20231222-10:18:27.946|10=245|
2023-12-22 11:18:30.217 [34] [FixSender] (DEBUG) Sending 8=FIX.4.4|9=57|35=0|49=FIXCLIENT1|56=DMA_HUB|34=56|52=20231222-10:18:30|10=038|
2023-12-22 11:18:57.891 [33] [FixSender] (DEBUG) Receiving 8=FIX.4.4|9=61|35=0|34=63|49=DMA_HUB|56=FIXCLIENT1|52=20231222-10:18:57.890|10=247|
2023-12-22 11:19:00.229 [34] [FixSender] (DEBUG) Sending 8=FIX.4.4|9=57|35=0|49=FIXCLIENT1|56=DMA_HUB|34=57|52=20231222-10:19:00|10=037|
2023-12-22 11:19:27.843 [33] [FixSender] (DEBUG) Receiving 8=FIX.4.4|9=61|35=0|34=64|49=DMA_HUB|56=FIXCLIENT1|52=20231222-10:19:27.842|10=243|
2023-12-22 11:19:30.234 [34] [FixSender] (DEBUG) Sending 8=FIX.4.4|9=57|35=0|49=FIXCLIENT1|56=DMA_HUB|34=58|52=20231222-10:19:30|10=041|
2023-12-22 11:19:57.796 [33] [FixSender] (DEBUG) Receiving 8=FIX.4.4|9=61|35=0|34=65|49=DMA_HUB|56=FIXCLIENT1|52=20231222-10:19:57.795|10=254|
2023-12-22 11:20:00.237 [34] [FixSender] (DEBUG) Sending 8=FIX.4.4|9=57|35=0|49=FIXCLIENT1|56=DMA_HUB|34=59|52=20231222-10:20:00|10=031|
2023-12-22 11:20:27.757 [33] [FixSender] (DEBUG) Receiving 8=FIX.4.4|9=61|35=0|34=66|49=DMA_HUB|56=FIXCLIENT1|52=20231222-10:20:27.756|10=241|
2023-12-22 11:20:30.239 [34] [FixSender] (DEBUG) Sending 8=FIX.4.4|9=57|35=0|49=FIXCLIENT1|56=DMA_HUB|34=60|52=20231222-10:20:30|10=026|
2023-12-22 11:20:57.699 [33] [FixSender] (DEBUG) Receiving 8=FIX.4.4|9=61|35=0|34=67|49=DMA_HUB|56=FIXCLIENT1|52=20231222-10:20:57.696|10=248|
2023-12-22 11:21:00.243 [34] [FixSender] (DEBUG) Sending 8=FIX.4.4|9=57|35=0|49=FIXCLIENT1|56=DMA_HUB|34=61|52=20231222-10:21:00|10=025|
2023-12-22 11:21:27.654 [33] [FixSender] (DEBUG) Receiving 8=FIX.4.4|9=61|35=0|34=68|49=DMA_HUB|56=FIXCLIENT1|52=20231222-10:21:27.654|10=241|
2023-12-22 11:21:30.245 [34] [FixSender] (DEBUG) Sending 8=FIX.4.4|9=57|35=0|49=FIXCLIENT1|56=DMA_HUB|34=62|52=20231222-10:21:30|10=029|
2023-12-22 11:21:57.602 [33] [FixSender] (DEBUG) Receiving 8=FIX.4.4|9=61|35=0|34=69|49=DMA_HUB|56=FIXCLIENT1|52=20231222-10:21:57.601|10=237|
2023-12-22 11:22:00.250 [34] [FixSender] (DEBUG) Sending 8=FIX.4.4|9=57|35=0|49=FIXCLIENT1|56=DMA_HUB|34=63|52=20231222-10:22:00|10=028|
2023-12-22 11:22:27.558 [33] [FixSender] (DEBUG) Receiving 8=FIX.4.4|9=61|35=0|34=70|49=DMA_HUB|56=FIXCLIENT1|52=20231222-10:22:27.558|10=238|
2023-12-22 11:22:30.259 [34] [FixSender] (DEBUG) Sending 8=FIX.4.4|9=57|35=0|49=FIXCLIENT1|56=DMA_HUB|34=64|52=20231222-10:22:30|10=032|
2023-12-22 11:22:57.506 [33] [FixSender] (DEBUG) Receiving 8=FIX.4.4|9=61|35=0|34=71|49=DMA_HUB|56=FIXCLIENT1|52=20231222-10:22:57.505|10=234|
2023-12-22 11:23:00.272 [34] [FixSender] (DEBUG) Sending 8=FIX.4.4|9=57|35=0|49=FIXCLIENT1|56=DMA_HUB|34=65|52=20231222-10:23:00|10=031|
2023-12-22 11:23:27.465 [33] [FixSender] (DEBUG) Receiving 8=FIX.4.4|9=61|35=0|34=72|49=DMA_HUB|56=FIXCLIENT1|52=20231222-10:23:27.465|10=238|
2023-12-22 11:23:30.281 [34] [FixSender] (DEBUG) Sending 8=FIX.4.4|9=57|35=0|49=FIXCLIENT1|56=DMA_HUB|34=66|52=20231222-10:23:30|10=035|
2023-12-22 11:23:38.052 [39] [FixSender] (DEBUG) Sending 8=FIX.4.4|9=197|35=D|49=FIXCLIENT1|56=DMA_HUB|34=67|52=20231222-10:23:38|21=1|11=HS_17032406183|38=4299|55=E:07G@XETR|54=2|60=20231222-10:23:38|40=2|59=0|44=197.111|48=US3390411052|22=4|15=EUR|207=XETR|1=bram_123|10=086|
2023-12-22 11:23:38.054 [33] [FixSender] (DEBUG) Receiving 8=FIX.4.4|9=239|35=8|34=73|49=DMA_HUB|56=FIXCLIENT1|52=20231222-10:23:38.053|11=HS_17032406183|37=FXDN7sC0I|54=2|40=2|59=0|17=202312227|150=A|39=A|38=4299|151=4299|14=0|6=0|44=197.111|60=20231222-10:23:38.000|22=4|48=US3390411052|207=XETR|15=EUR|55=[N/A]|10=131|
2023-12-22 11:23:57.416 [33] [FixSender] (DEBUG) Receiving 8=FIX.4.4|9=61|35=0|34=74|49=DMA_HUB|56=FIXCLIENT1|52=20231222-10:23:57.416|10=239|
2023-12-22 11:24:03.604 [33] [FixSender] (DEBUG) Receiving 8=FIX.4.4|9=235|35=8|34=75|49=DMA_HUB|56=FIXCLIENT1|52=20231222-10:24:03.603|11=HS_17032406183|37=FXDN7sC0I|54=2|40=2|59=0|17=202312228|150=A|39=A|38=4299|151=4299|14=0|6=0|44=197|60=20231222-10:23:38.000|22=4|48=US3390411052|207=XETR|15=EUR|55=[N/A]|10=187|
2023-12-22 11:24:03.606 [33] [FixSender] (DEBUG) Receiving 8=FIX.4.4|9=250|35=8|34=76|49=DMA_HUB|56=FIXCLIENT1|52=20231222-10:24:03.605|11=HS_17032406183|37=FXDN7sC0I|198=nPSJBc385c|54=2|40=2|59=0|17=202312229|150=0|39=0|38=4299|151=4299|14=0|6=0|44=197|60=20231222-10:24:03.604|22=4|48=US3390411052|207=XETR|15=EUR|55=[N/A]|10=128|
2023-12-22 11:24:08.068 [34] [FixSender] (DEBUG) Sending 8=FIX.4.4|9=57|35=0|49=FIXCLIENT1|56=DMA_HUB|34=68|52=20231222-10:24:08|10=043|
2023-12-22 11:24:27.365 [33] [FixSender] (DEBUG) Receiving 8=FIX.4.4|9=61|35=0|34=77|49=DMA_HUB|56=FIXCLIENT1|52=20231222-10:24:27.364|10=242|
2023-12-22 11:24:38.070 [34] [FixSender] (DEBUG) Sending 8=FIX.4.4|9=57|35=0|49=FIXCLIENT1|56=DMA_HUB|34=69|52=20231222-10:24:38|10=047|
2023-12-22 11:24:57.325 [33] [FixSender] (DEBUG) Receiving 8=FIX.4.4|9=61|35=0|34=78|49=DMA_HUB|56=FIXCLIENT1|52=20231222-10:24:57.325|10=243|
2023-12-22 11:25:08.076 [34] [FixSender] (DEBUG) Sending 8=FIX.4.4|9=57|35=0|49=FIXCLIENT1|56=DMA_HUB|34=70|52=20231222-10:25:08|10=037|
2023-12-22 11:25:27.266 [33] [FixSender] (DEBUG) Receiving 8=FIX.4.4|9=61|35=0|34=79|49=DMA_HUB|56=FIXCLIENT1|52=20231222-10:25:27.266|10=246|
2023-12-22 11:25:38.089 [34] [FixSender] (DEBUG) Sending 8=FIX.4.4|9=57|35=0|49=FIXCLIENT1|56=DMA_HUB|34=71|52=20231222-10:25:38|10=041|
2023-12-22 11:25:57.227 [33] [FixSender] (DEBUG) Receiving 8=FIX.4.4|9=61|35=0|34=80|49=DMA_HUB|56=FIXCLIENT1|52=20231222-10:25:57.227|10=238|
2023-12-22 11:26:08.095 [34] [FixSender] (DEBUG) Sending 8=FIX.4.4|9=57|35=0|49=FIXCLIENT1|56=DMA_HUB|34=72|52=20231222-10:26:08|10=040|
2023-12-22 11:26:27.181 [33] [FixSender] (DEBUG) Receiving 8=FIX.4.4|9=61|35=0|34=81|49=DMA_HUB|56=FIXCLIENT1|52=20231222-10:26:27.181|10=236|
2023-12-22 11:26:38.103 [34] [FixSender] (DEBUG) Sending 8=FIX.4.4|9=57|35=0|49=FIXCLIENT1|56=DMA_HUB|34=73|52=20231222-10:26:38|10=044|
2023-12-22 11:26:57.135 [33] [FixSender] (DEBUG) Receiving 8=FIX.4.4|9=61|35=0|34=82|49=DMA_HUB|56=FIXCLIENT1|52=20231222-10:26:57.135|10=239|
2023-12-22 11:27:08.106 [34] [FixSender] (DEBUG) Sending 8=FIX.4.4|9=57|35=0|49=FIXCLIENT1|56=DMA_HUB|34=74|52=20231222-10:27:08|10=043|
2023-12-22 11:27:27.076 [33] [FixSender] (DEBUG) Receiving 8=FIX.4.4|9=61|35=0|34=83|49=DMA_HUB|56=FIXCLIENT1|52=20231222-10:27:27.075|10=241|
2023-12-22 11:27:38.115 [34] [FixSender] (DEBUG) Sending 8=FIX.4.4|9=57|35=0|49=FIXCLIENT1|56=DMA_HUB|34=75|52=20231222-10:27:38|10=047|
2023-12-22 11:27:57.036 [33] [FixSender] (DEBUG) Receiving 8=FIX.4.4|9=61|35=0|34=84|49=DMA_HUB|56=FIXCLIENT1|52=20231222-10:27:57.035|10=241|
2023-12-22 11:28:08.120 [34] [FixSender] (DEBUG) Sending 8=FIX.4.4|9=57|35=0|49=FIXCLIENT1|56=DMA_HUB|34=76|52=20231222-10:28:08|10=046|
2023-12-22 11:28:10.913 [33] [FixSender] (DEBUG) Receiving 8=FIX.4.4|9=251|35=8|34=85|49=DMA_HUB|56=FIXCLIENT1|52=20231222-10:28:10.913|11=HS_17032406183|37=FXDN7sC0I|198=nPSJBde4f9|54=2|40=2|59=0|17=2023122210|150=0|39=0|38=4299|151=4299|14=0|6=0|44=197|60=20231222-10:28:10.911|22=4|48=US3390411052|207=XETR|15=EUR|55=[N/A]|10=230|
2023-12-22 11:28:26.991 [33] [FixSender] (DEBUG) Receiving 8=FIX.4.4|9=61|35=0|34=86|49=DMA_HUB|56=FIXCLIENT1|52=20231222-10:28:26.991|10=251|
2023-12-22 11:28:33.607 [40] [FixSender] (DEBUG) Sending 8=FIX.4.4|9=197|35=D|49=FIXCLIENT1|56=DMA_HUB|34=77|52=20231222-10:28:33|21=1|11=HS_17032409134|38=3916|55=E:07G@XETR|54=2|60=20231222-10:28:33|40=2|59=0|44=197.111|48=US3390411052|22=4|15=EUR|207=XETR|1=bram_123|10=081|
2023-12-22 11:28:33.609 [33] [FixSender] (DEBUG) Receiving 8=FIX.4.4|9=240|35=8|34=87|49=DMA_HUB|56=FIXCLIENT1|52=20231222-10:28:33.608|11=HS_17032409134|37=FXEN7sC0I|54=2|40=2|59=0|17=2023122211|150=A|39=A|38=3916|151=3916|14=0|6=0|44=197.111|60=20231222-10:28:33.000|22=4|48=US3390411052|207=XETR|15=EUR|55=[N/A]|10=167|
2023-12-22 11:28:46.950 [33] [FixSender] (DEBUG) Receiving 8=FIX.4.4|9=239|35=8|34=88|49=DMA_HUB|56=FIXCLIENT1|52=20231222-10:28:46.949|11=HS_17032409134|37=FXEN7sC0I|54=2|40=2|59=0|17=2023122212|150=A|39=A|38=3916|151=3916|14=0|6=0|44=197.11|60=20231222-10:28:33.000|22=4|48=US3390411052|207=XETR|15=EUR|55=[N/A]|10=140|
2023-12-22 11:28:56.928 [33] [FixSender] (DEBUG) Receiving 8=FIX.4.4|9=61|35=0|34=89|49=DMA_HUB|56=FIXCLIENT1|52=20231222-10:28:56.928|10=001|
2023-12-22 11:29:02.116 [33] [FixSender] (DEBUG) Receiving 8=FIX.4.4|9=236|35=8|34=90|49=DMA_HUB|56=FIXCLIENT1|52=20231222-10:29:02.115|11=HS_17032409134|37=FXEN7sC0I|54=2|40=2|59=0|17=2023122213|150=A|39=A|38=3916|151=3916|14=0|6=0|44=197|60=20231222-10:28:33.000|22=4|48=US3390411052|207=XETR|15=EUR|55=[N/A]|10=221|
2023-12-22 11:29:02.117 [33] [FixSender] (DEBUG) Receiving 8=FIX.4.4|9=251|35=8|34=91|49=DMA_HUB|56=FIXCLIENT1|52=20231222-10:29:02.117|11=HS_17032409134|37=FXEN7sC0I|198=nPSJBe3dbf|54=2|40=2|59=0|17=2023122214|150=0|39=0|38=3916|151=3916|14=0|6=0|44=197|60=20231222-10:29:02.116|22=4|48=US3390411052|207=XETR|15=EUR|55=[N/A]|10=002|
2023-12-22 11:29:03.615 [34] [FixSender] (DEBUG) Sending 8=FIX.4.4|9=57|35=0|49=FIXCLIENT1|56=DMA_HUB|34=78|52=20231222-10:29:03|10=044|
2023-12-22 11:29:26.890 [33] [FixSender] (DEBUG) Receiving 8=FIX.4.4|9=61|35=0|34=92|49=DMA_HUB|56=FIXCLIENT1|52=20231222-10:29:26.888|10=254|
2023-12-22 11:29:33.629 [34] [FixSender] (DEBUG) Sending 8=FIX.4.4|9=57|35=0|49=FIXCLIENT1|56=DMA_HUB|34=79|52=20231222-10:29:33|10=048|
2023-12-22 11:29:56.844 [33] [FixSender] (DEBUG) Receiving 8=FIX.4.4|9=61|35=0|34=93|49=DMA_HUB|56=FIXCLIENT1|52=20231222-10:29:56.843|10=249|
2023-12-22 11:30:03.633 [34] [FixSender] (DEBUG) Sending 8=FIX.4.4|9=57|35=0|49=FIXCLIENT1|56=DMA_HUB|34=80|52=20231222-10:30:03|10=029|
2023-12-22 11:30:26.797 [33] [FixSender] (DEBUG) Receiving 8=FIX.4.4|9=61|35=0|34=94|49=DMA_HUB|56=FIXCLIENT1|52=20231222-10:30:26.797|10=247|
2023-12-22 11:30:33.647 [34] [FixSender] (DEBUG) Sending 8=FIX.4.4|9=57|35=0|49=FIXCLIENT1|56=DMA_HUB|34=81|52=20231222-10:30:33|10=033|
2023-12-22 11:30:56.740 [33] [FixSender] (DEBUG) Receiving 8=FIX.4.4|9=61|35=0|34=95|49=DMA_HUB|56=FIXCLIENT1|52=20231222-10:30:56.740|10=239|
2023-12-22 11:31:03.651 [34] [FixSender] (DEBUG) Sending 8=FIX.4.4|9=57|35=0|49=FIXCLIENT1|56=DMA_HUB|34=82|52=20231222-10:31:03|10=032|
2023-12-22 11:31:26.692 [33] [FixSender] (DEBUG) Receiving 8=FIX.4.4|9=61|35=0|34=96|49=DMA_HUB|56=FIXCLIENT1|52=20231222-10:31:26.692|10=244|
2023-12-22 11:31:33.654 [34] [FixSender] (DEBUG) Sending 8=FIX.4.4|9=57|35=0|49=FIXCLIENT1|56=DMA_HUB|34=83|52=20231222-10:31:33|10=036|
2023-12-22 11:31:56.645 [33] [FixSender] (DEBUG) Receiving 8=FIX.4.4|9=61|35=0|34=97|49=DMA_HUB|56=FIXCLIENT1|52=20231222-10:31:56.645|10=246|
2023-12-22 11:32:03.663 [34] [FixSender] (DEBUG) Sending 8=FIX.4.4|9=57|35=0|49=FIXCLIENT1|56=DMA_HUB|34=84|52=20231222-10:32:03|10=035|
2023-12-22 11:32:26.594 [33] [FixSender] (DEBUG) Receiving 8=FIX.4.4|9=61|35=0|34=98|49=DMA_HUB|56=FIXCLIENT1|52=20231222-10:32:26.593|10=247|
2023-12-22 11:32:33.672 [34] [FixSender] (DEBUG) Sending 8=FIX.4.4|9=57|35=0|49=FIXCLIENT1|56=DMA_HUB|34=85|52=20231222-10:32:33|10=039|
2023-12-22 11:32:56.552 [33] [FixSender] (DEBUG) Receiving 8=FIX.4.4|9=61|35=0|34=99|49=DMA_HUB|56=FIXCLIENT1|52=20231222-10:32:56.552|10=246|
2023-12-22 11:33:03.683 [34] [FixSender] (DEBUG) Sending 8=FIX.4.4|9=57|35=0|49=FIXCLIENT1|56=DMA_HUB|34=86|52=20231222-10:33:03|10=038|
2023-12-22 11:33:26.502 [33] [FixSender] (DEBUG) Receiving 8=FIX.4.4|9=62|35=0|34=100|49=DMA_HUB|56=FIXCLIENT1|52=20231222-10:33:26.502|10=015|
2023-12-22 11:33:33.698 [34] [FixSender] (DEBUG) Sending 8=FIX.4.4|9=57|35=0|49=FIXCLIENT1|56=DMA_HUB|34=87|52=20231222-10:33:33|10=042|
2023-12-22 11:33:56.461 [33] [FixSender] (DEBUG) Receiving 8=FIX.4.4|9=62|35=0|34=101|49=DMA_HUB|56=FIXCLIENT1|52=20231222-10:33:56.460|10=022|
2023-12-22 11:34:03.714 [34] [FixSender] (DEBUG) Sending 8=FIX.4.4|9=57|35=0|49=FIXCLIENT1|56=DMA_HUB|34=88|52=20231222-10:34:03|10=041|
2023-12-22 11:34:26.404 [33] [FixSender] (DEBUG) Receiving 8=FIX.4.4|9=62|35=0|34=102|49=DMA_HUB|56=FIXCLIENT1|52=20231222-10:34:26.403|10=018|
2023-12-22 11:34:33.725 [34] [FixSender] (DEBUG) Sending 8=FIX.4.4|9=57|35=0|49=FIXCLIENT1|56=DMA_HUB|34=89|52=20231222-10:34:33|10=045|
2023-12-22 11:34:56.367 [33] [FixSender] (DEBUG) Receiving 8=FIX.4.4|9=62|35=0|34=103|49=DMA_HUB|56=FIXCLIENT1|52=20231222-10:34:56.367|10=031|
2023-12-22 11:35:03.728 [34] [FixSender] (DEBUG) Sending 8=FIX.4.4|9=57|35=0|49=FIXCLIENT1|56=DMA_HUB|34=90|52=20231222-10:35:03|10=035|
2023-12-22 11:35:26.308 [33] [FixSender] (DEBUG) Receiving 8=FIX.4.4|9=62|35=0|34=104|49=DMA_HUB|56=FIXCLIENT1|52=20231222-10:35:26.307|10=024|
2023-12-22 11:35:33.742 [34] [FixSender] (DEBUG) Sending 8=FIX.4.4|9=57|35=0|49=FIXCLIENT1|56=DMA_HUB|34=91|52=20231222-10:35:33|10=039|
2023-12-22 11:35:56.271 [33] [FixSender] (DEBUG) Receiving 8=FIX.4.4|9=62|35=0|34=105|49=DMA_HUB|56=FIXCLIENT1|52=20231222-10:35:56.269|10=035|
2023-12-22 11:36:03.757 [34] [FixSender] (DEBUG) Sending 8=FIX.4.4|9=57|35=0|49=FIXCLIENT1|56=DMA_HUB|34=92|52=20231222-10:36:03|10=038|
2023-12-22 11:36:26.222 [33] [FixSender] (DEBUG) Receiving 8=FIX.4.4|9=62|35=0|34=106|49=DMA_HUB|56=FIXCLIENT1|52=20231222-10:36:26.221|10=022|
2023-12-22 11:36:33.769 [34] [FixSender] (DEBUG) Sending 8=FIX.4.4|9=57|35=0|49=FIXCLIENT1|56=DMA_HUB|34=93|52=20231222-10:36:33|10=042|
2023-12-22 11:36:56.162 [33] [FixSender] (DEBUG) Receiving 8=FIX.4.4|9=62|35=0|34=107|49=DMA_HUB|56=FIXCLIENT1|52=20231222-10:36:56.161|10=029|
2023-12-22 11:37:03.775 [34] [FixSender] (DEBUG) Sending 8=FIX.4.4|9=57|35=0|49=FIXCLIENT1|56=DMA_HUB|34=94|52=20231222-10:37:03|10=041|
2023-12-22 11:37:26.116 [33] [FixSender] (DEBUG) Receiving 8=FIX.4.4|9=62|35=0|34=108|49=DMA_HUB|56=FIXCLIENT1|52=20231222-10:37:26.114|10=026|
2023-12-22 11:37:33.787 [34] [FixSender] (DEBUG) Sending 8=FIX.4.4|9=57|35=0|49=FIXCLIENT1|56=DMA_HUB|34=95|52=20231222-10:37:33|10=045|
2023-12-22 11:37:56.077 [33] [FixSender] (DEBUG) Receiving 8=FIX.4.4|9=62|35=0|34=109|49=DMA_HUB|56=FIXCLIENT1|52=20231222-10:37:56.076|10=037|
2023-12-22 11:38:03.801 [34] [FixSender] (DEBUG) Sending 8=FIX.4.4|9=57|35=0|49=FIXCLIENT1|56=DMA_HUB|34=96|52=20231222-10:38:03|10=044|
2023-12-22 11:38:26.028 [33] [FixSender] (DEBUG) Receiving 8=FIX.4.4|9=62|35=0|34=110|49=DMA_HUB|56=FIXCLIENT1|52=20231222-10:38:26.028|10=024|
2023-12-22 11:38:33.804 [34] [FixSender] (DEBUG) Sending 8=FIX.4.4|9=57|35=0|49=FIXCLIENT1|56=DMA_HUB|34=97|52=20231222-10:38:33|10=048|
2023-12-22 11:38:55.976 [33] [FixSender] (DEBUG) Receiving 8=FIX.4.4|9=62|35=0|34=111|49=DMA_HUB|56=FIXCLIENT1|52=20231222-10:38:55.976|10=039|
2023-12-22 11:39:03.816 [34] [FixSender] (DEBUG) Sending 8=FIX.4.4|9=57|35=0|49=FIXCLIENT1|56=DMA_HUB|34=98|52=20231222-10:39:03|10=047|
2023-12-22 11:39:25.929 [33] [FixSender] (DEBUG) Receiving 8=FIX.4.4|9=62|35=0|34=112|49=DMA_HUB|56=FIXCLIENT1|52=20231222-10:39:25.928|10=035|
2023-12-22 11:39:33.822 [34] [FixSender] (DEBUG) Sending 8=FIX.4.4|9=57|35=0|49=FIXCLIENT1|56=DMA_HUB|34=99|52=20231222-10:39:33|10=051|
2023-12-22 11:39:55.885 [33] [FixSender] (DEBUG) Receiving 8=FIX.4.4|9=62|35=0|34=113|49=DMA_HUB|56=FIXCLIENT1|52=20231222-10:39:55.883|10=039|
2023-12-22 11:40:03.831 [34] [FixSender] (DEBUG) Sending 8=FIX.4.4|9=58|35=0|49=FIXCLIENT1|56=DMA_HUB|34=100|52=20231222-10:40:03|10=072|
2023-12-22 11:40:25.835 [33] [FixSender] (DEBUG) Receiving 8=FIX.4.4|9=62|35=0|34=114|49=DMA_HUB|56=FIXCLIENT1|52=20231222-10:40:25.834|10=025|
2023-12-22 11:40:33.843 [34] [FixSender] (DEBUG) Sending 8=FIX.4.4|9=58|35=0|49=FIXCLIENT1|56=DMA_HUB|34=101|52=20231222-10:40:33|10=076|
2023-12-22 11:40:55.778 [33] [FixSender] (DEBUG) Receiving 8=FIX.4.4|9=62|35=0|34=115|49=DMA_HUB|56=FIXCLIENT1|52=20231222-10:40:55.777|10=035|
2023-12-22 11:41:03.855 [34] [FixSender] (DEBUG) Sending 8=FIX.4.4|9=58|35=0|49=FIXCLIENT1|56=DMA_HUB|34=102|52=20231222-10:41:03|10=075|
2023-12-22 11:41:25.732 [33] [FixSender] (DEBUG) Receiving 8=FIX.4.4|9=62|35=0|34=116|49=DMA_HUB|56=FIXCLIENT1|52=20231222-10:41:25.732|10=025|
2023-12-22 11:41:33.870 [34] [FixSender] (DEBUG) Sending 8=FIX.4.4|9=58|35=0|49=FIXCLIENT1|56=DMA_HUB|34=103|52=20231222-10:41:33|10=079|
2023-12-22 11:41:55.683 [33] [FixSender] (DEBUG) Receiving 8=FIX.4.4|9=62|35=0|34=117|49=DMA_HUB|56=FIXCLIENT1|52=20231222-10:41:55.683|10=034|
2023-12-22 11:42:03.879 [34] [FixSender] (DEBUG) Sending 8=FIX.4.4|9=58|35=0|49=FIXCLIENT1|56=DMA_HUB|34=104|52=20231222-10:42:03|10=078|
2023-12-22 11:42:25.649 [33] [FixSender] (DEBUG) Receiving 8=FIX.4.4|9=62|35=0|34=118|49=DMA_HUB|56=FIXCLIENT1|52=20231222-10:42:25.648|10=034|
2023-12-22 11:42:33.884 [34] [FixSender] (DEBUG) Sending 8=FIX.4.4|9=58|35=0|49=FIXCLIENT1|56=DMA_HUB|34=105|52=20231222-10:42:33|10=082|
2023-12-22 11:42:55.659 [33] [FixSender] (DEBUG) Receiving 8=FIX.4.4|9=62|35=0|34=119|49=DMA_HUB|56=FIXCLIENT1|52=20231222-10:42:55.658|10=039|
2023-12-22 11:43:03.891 [34] [FixSender] (DEBUG) Sending 8=FIX.4.4|9=58|35=0|49=FIXCLIENT1|56=DMA_HUB|34=106|52=20231222-10:43:03|10=081|
2023-12-22 11:43:25.608 [33] [FixSender] (DEBUG) Receiving 8=FIX.4.4|9=62|35=0|34=120|49=DMA_HUB|56=FIXCLIENT1|52=20231222-10:43:25.606|10=022|
2023-12-22 11:43:33.896 [34] [FixSender] (DEBUG) Sending 8=FIX.4.4|9=58|35=0|49=FIXCLIENT1|56=DMA_HUB|34=107|52=20231222-10:43:33|10=085|
2023-12-22 11:43:55.556 [33] [FixSender] (DEBUG) Receiving 8=FIX.4.4|9=62|35=0|34=121|49=DMA_HUB|56=FIXCLIENT1|52=20231222-10:43:55.555|10=029|
2023-12-22 11:44:03.910 [34] [FixSender] (DEBUG) Sending 8=FIX.4.4|9=58|35=0|49=FIXCLIENT1|56=DMA_HUB|34=108|52=20231222-10:44:03|10=084|
2023-12-22 11:44:25.510 [33] [FixSender] (DEBUG) Receiving 8=FIX.4.4|9=62|35=0|34=122|49=DMA_HUB|56=FIXCLIENT1|52=20231222-10:44:25.510|10=019|
2023-12-22 11:44:33.921 [34] [FixSender] (DEBUG) Sending 8=FIX.4.4|9=58|35=0|49=FIXCLIENT1|56=DMA_HUB|34=109|52=20231222-10:44:33|10=088|
2023-12-22 11:44:55.461 [33] [FixSender] (DEBUG) Receiving 8=FIX.4.4|9=62|35=0|34=123|49=DMA_HUB|56=FIXCLIENT1|52=20231222-10:44:55.461|10=028|
2023-12-22 11:45:03.922 [34] [FixSender] (DEBUG) Sending 8=FIX.4.4|9=58|35=0|49=FIXCLIENT1|56=DMA_HUB|34=110|52=20231222-10:45:03|10=078|
2023-12-22 11:45:25.409 [33] [FixSender] (DEBUG) Receiving 8=FIX.4.4|9=62|35=0|34=124|49=DMA_HUB|56=FIXCLIENT1|52=20231222-10:45:25.408|10=028|
2023-12-22 11:45:33.936 [34] [FixSender] (DEBUG) Sending 8=FIX.4.4|9=58|35=0|49=FIXCLIENT1|56=DMA_HUB|34=111|52=20231222-10:45:33|10=082|
2023-12-22 11:45:55.365 [33] [FixSender] (DEBUG) Receiving 8=FIX.4.4|9=62|35=0|34=125|49=DMA_HUB|56=FIXCLIENT1|52=20231222-10:45:55.365|10=034|
2023-12-22 11:46:03.944 [34] [FixSender] (DEBUG) Sending 8=FIX.4.4|9=58|35=0|49=FIXCLIENT1|56=DMA_HUB|34=112|52=20231222-10:46:03|10=081|
2023-12-22 11:46:25.314 [33] [FixSender] (DEBUG) Receiving 8=FIX.4.4|9=62|35=0|34=126|49=DMA_HUB|56=FIXCLIENT1|52=20231222-10:46:25.313|10=026|
2023-12-22 11:46:33.946 [34] [FixSender] (DEBUG) Sending 8=FIX.4.4|9=58|35=0|49=FIXCLIENT1|56=DMA_HUB|34=113|52=20231222-10:46:33|10=085|
2023-12-22 11:46:55.270 [33] [FixSender] (DEBUG) Receiving 8=FIX.4.4|9=62|35=0|34=127|49=DMA_HUB|56=FIXCLIENT1|52=20231222-10:46:55.269|10=040|
2023-12-22 11:47:03.947 [34] [FixSender] (DEBUG) Sending 8=FIX.4.4|9=58|35=0|49=FIXCLIENT1|56=DMA_HUB|34=114|52=20231222-10:47:03|10=084|
2023-12-22 11:47:21.482 [41] [FixSender] (DEBUG) Sending 8=FIX.4.4|9=197|35=D|49=FIXCLIENT1|56=DMA_HUB|34=115|52=20231222-10:47:21|21=1|11=HS_17032420415|38=307|55=E:07G@XETR|54=2|60=20231222-10:47:21|40=2|59=0|44=197.111|48=US3390411052|22=4|15=EUR|207=XETR|1=bram_123|10=056|
2023-12-22 11:47:21.488 [33] [FixSender] (DEBUG) Receiving 8=FIX.4.4|9=239|35=8|34=128|49=DMA_HUB|56=FIXCLIENT1|52=20231222-10:47:21.483|11=HS_17032420415|37=FXFN7sC0I|54=2|40=2|59=0|17=2023122215|150=A|39=A|38=307|151=307|14=0|6=0|44=197.111|60=20231222-10:47:21.000|22=4|48=US3390411052|207=XETR|15=EUR|55=[N/A]|10=102|
2023-12-22 11:47:25.231 [33] [FixSender] (DEBUG) Receiving 8=FIX.4.4|9=62|35=0|34=129|49=DMA_HUB|56=FIXCLIENT1|52=20231222-10:47:25.230|10=028|
2023-12-22 11:47:25.354 [42] [FixSender] (DEBUG) Sending 8=FIX.4.4|9=198|35=D|49=FIXCLIENT1|56=DMA_HUB|34=116|52=20231222-10:47:25|21=1|11=HS_17032420456|38=1381|55=E:07G@XETR|54=2|60=20231222-10:47:25|40=2|59=0|44=197.111|48=US3390411052|22=4|15=EUR|207=XETR|1=bram_123|10=122|
2023-12-22 11:47:25.356 [33] [FixSender] (DEBUG) Receiving 8=FIX.4.4|9=241|35=8|34=130|49=DMA_HUB|56=FIXCLIENT1|52=20231222-10:47:25.355|11=HS_17032420456|37=FXGN7sC0I|54=2|40=2|59=0|17=2023122216|150=A|39=A|38=1381|151=1381|14=0|6=0|44=197.111|60=20231222-10:47:25.000|22=4|48=US3390411052|207=XETR|15=EUR|55=[N/A]|10=203|
2023-12-22 11:47:55.179 [33] [FixSender] (DEBUG) Receiving 8=FIX.4.4|9=62|35=0|34=131|49=DMA_HUB|56=FIXCLIENT1|52=20231222-10:47:55.179|10=036|
2023-12-22 11:47:55.362 [34] [FixSender] (DEBUG) Sending 8=FIX.4.4|9=58|35=0|49=FIXCLIENT1|56=DMA_HUB|34=117|52=20231222-10:47:55|10=094|
2023-12-22 11:48:07.525 [33] [FixSender] (DEBUG) Receiving 8=FIX.4.4|9=237|35=8|34=132|49=DMA_HUB|56=FIXCLIENT1|52=20231222-10:48:07.525|11=HS_17032420456|37=FXGN7sC0I|54=2|40=2|59=0|17=2023122217|150=A|39=A|38=1381|151=1381|14=0|6=0|44=197|60=20231222-10:47:25.000|22=4|48=US3390411052|207=XETR|15=EUR|55=[N/A]|10=018|
2023-12-22 11:48:07.526 [33] [FixSender] (DEBUG) Receiving 8=FIX.4.4|9=253|35=8|34=133|49=DMA_HUB|56=FIXCLIENT1|52=20231222-10:48:07.526|11=HS_17032420456|37=FXGN7sC0I|198=nPSJB1600f0|54=2|40=2|59=0|17=2023122218|150=0|39=0|38=1381|151=1381|14=0|6=0|44=197|60=20231222-10:48:07.525|22=4|48=US3390411052|207=XETR|15=EUR|55=[N/A]|10=216|
2023-12-22 11:48:25.135 [33] [FixSender] (DEBUG) Receiving 8=FIX.4.4|9=62|35=0|34=134|49=DMA_HUB|56=FIXCLIENT1|52=20231222-10:48:25.134|10=028|
2023-12-22 11:48:25.377 [34] [FixSender] (DEBUG) Sending 8=FIX.4.4|9=58|35=0|49=FIXCLIENT1|56=DMA_HUB|34=118|52=20231222-10:48:25|10=093|
2023-12-22 11:48:55.074 [33] [FixSender] (DEBUG) Receiving 8=FIX.4.4|9=62|35=0|34=135|49=DMA_HUB|56=FIXCLIENT1|52=20231222-10:48:55.073|10=034|
2023-12-22 11:48:55.393 [34] [FixSender] (DEBUG) Sending 8=FIX.4.4|9=58|35=0|49=FIXCLIENT1|56=DMA_HUB|34=119|52=20231222-10:48:55|10=097|
2023-12-22 11:49:25.029 [33] [FixSender] (DEBUG) Receiving 8=FIX.4.4|9=62|35=0|34=136|49=DMA_HUB|56=FIXCLIENT1|52=20231222-10:49:25.028|10=033|
2023-12-22 11:49:25.405 [34] [FixSender] (DEBUG) Sending 8=FIX.4.4|9=58|35=0|49=FIXCLIENT1|56=DMA_HUB|34=120|52=20231222-10:49:25|10=087|
2023-12-22 11:49:54.979 [33] [FixSender] (DEBUG) Receiving 8=FIX.4.4|9=62|35=0|34=137|49=DMA_HUB|56=FIXCLIENT1|52=20231222-10:49:54.978|10=050|
2023-12-22 11:49:55.414 [34] [FixSender] (DEBUG) Sending 8=FIX.4.4|9=58|35=0|49=FIXCLIENT1|56=DMA_HUB|34=121|52=20231222-10:49:55|10=091|
2023-12-22 11:50:24.943 [33] [FixSender] (DEBUG) Receiving 8=FIX.4.4|9=62|35=0|34=138|49=DMA_HUB|56=FIXCLIENT1|52=20231222-10:50:24.943|10=032|
2023-12-22 11:50:25.426 [34] [FixSender] (DEBUG) Sending 8=FIX.4.4|9=58|35=0|49=FIXCLIENT1|56=DMA_HUB|34=122|52=20231222-10:50:25|10=081|
2023-12-22 11:50:54.894 [33] [FixSender] (DEBUG) Receiving 8=FIX.4.4|9=62|35=0|34=139|49=DMA_HUB|56=FIXCLIENT1|52=20231222-10:50:54.894|10=041|
2023-12-22 11:50:55.443 [34] [FixSender] (DEBUG) Sending 8=FIX.4.4|9=58|35=0|49=FIXCLIENT1|56=DMA_HUB|34=123|52=20231222-10:50:55|10=085|
2023-12-22 11:51:24.844 [33] [FixSender] (DEBUG) Receiving 8=FIX.4.4|9=62|35=0|34=140|49=DMA_HUB|56=FIXCLIENT1|52=20231222-10:51:24.843|10=025|
2023-12-22 11:51:25.446 [34] [FixSender] (DEBUG) Sending 8=FIX.4.4|9=58|35=0|49=FIXCLIENT1|56=DMA_HUB|34=124|52=20231222-10:51:25|10=084|
2023-12-22 11:51:54.791 [33] [FixSender] (DEBUG) Receiving 8=FIX.4.4|9=62|35=0|34=141|49=DMA_HUB|56=FIXCLIENT1|52=20231222-10:51:54.790|10=030|
2023-12-22 11:51:55.455 [34] [FixSender] (DEBUG) Sending 8=FIX.4.4|9=58|35=0|49=FIXCLIENT1|56=DMA_HUB|34=125|52=20231222-10:51:55|10=088|
2023-12-22 11:52:24.748 [33] [FixSender] (DEBUG) Receiving 8=FIX.4.4|9=62|35=0|34=142|49=DMA_HUB|56=FIXCLIENT1|52=20231222-10:52:24.748|10=032|
2023-12-22 11:52:25.459 [34] [FixSender] (DEBUG) Sending 8=FIX.4.4|9=58|35=0|49=FIXCLIENT1|56=DMA_HUB|34=126|52=20231222-10:52:25|10=087|
2023-12-22 11:52:54.698 [33] [FixSender] (DEBUG) Receiving 8=FIX.4.4|9=62|35=0|34=143|49=DMA_HUB|56=FIXCLIENT1|52=20231222-10:52:54.697|10=039|
2023-12-22 11:52:55.466 [34] [FixSender] (DEBUG) Sending 8=FIX.4.4|9=58|35=0|49=FIXCLIENT1|56=DMA_HUB|34=127|52=20231222-10:52:55|10=091|
2023-12-22 11:53:24.654 [33] [FixSender] (DEBUG) Receiving 8=FIX.4.4|9=62|35=0|34=144|49=DMA_HUB|56=FIXCLIENT1|52=20231222-10:53:24.654|10=031|
2023-12-22 11:53:25.468 [34] [FixSender] (DEBUG) Sending 8=FIX.4.4|9=58|35=0|49=FIXCLIENT1|56=DMA_HUB|34=128|52=20231222-10:53:25|10=090|
2023-12-22 11:53:54.598 [33] [FixSender] (DEBUG) Receiving 8=FIX.4.4|9=62|35=0|34=145|49=DMA_HUB|56=FIXCLIENT1|52=20231222-10:53:54.597|10=041|
2023-12-22 11:53:55.472 [34] [FixSender] (DEBUG) Sending 8=FIX.4.4|9=58|35=0|49=FIXCLIENT1|56=DMA_HUB|34=129|52=20231222-10:53:55|10=094|
2023-12-22 11:54:24.552 [33] [FixSender] (DEBUG) Receiving 8=FIX.4.4|9=62|35=0|34=146|49=DMA_HUB|56=FIXCLIENT1|52=20231222-10:54:24.551|10=030|
2023-12-22 11:54:25.476 [34] [FixSender] (DEBUG) Sending 8=FIX.4.4|9=58|35=0|49=FIXCLIENT1|56=DMA_HUB|34=130|52=20231222-10:54:25|10=084|
2023-12-22 11:54:54.502 [33] [FixSender] (DEBUG) Receiving 8=FIX.4.4|9=62|35=0|34=147|49=DMA_HUB|56=FIXCLIENT1|52=20231222-10:54:54.501|10=029|
2023-12-22 11:54:55.489 [34] [FixSender] (DEBUG) Sending 8=FIX.4.4|9=58|35=0|49=FIXCLIENT1|56=DMA_HUB|34=131|52=20231222-10:54:55|10=088|
2023-12-22 11:55:24.463 [33] [FixSender] (DEBUG) Receiving 8=FIX.4.4|9=62|35=0|34=148|49=DMA_HUB|56=FIXCLIENT1|52=20231222-10:55:24.462|10=034|
2023-12-22 11:55:25.494 [34] [FixSender] (DEBUG) Sending 8=FIX.4.4|9=58|35=0|49=FIXCLIENT1|56=DMA_HUB|34=132|52=20231222-10:55:25|10=087|
2023-12-22 11:55:54.404 [33] [FixSender] (DEBUG) Receiving 8=FIX.4.4|9=62|35=0|34=149|49=DMA_HUB|56=FIXCLIENT1|52=20231222-10:55:54.403|10=033|
2023-12-22 11:55:55.495 [34] [FixSender] (DEBUG) Sending 8=FIX.4.4|9=58|35=0|49=FIXCLIENT1|56=DMA_HUB|34=133|52=20231222-10:55:55|10=091|
2023-12-22 11:56:24.368 [33] [FixSender] (DEBUG) Receiving 8=FIX.4.4|9=62|35=0|34=150|49=DMA_HUB|56=FIXCLIENT1|52=20231222-10:56:24.367|10=032|
2023-12-22 11:56:25.508 [34] [FixSender] (DEBUG) Sending 8=FIX.4.4|9=58|35=0|49=FIXCLIENT1|56=DMA_HUB|34=134|52=20231222-10:56:25|10=090|
2023-12-22 11:56:54.309 [33] [FixSender] (DEBUG) Receiving 8=FIX.4.4|9=62|35=0|34=151|49=DMA_HUB|56=FIXCLIENT1|52=20231222-10:56:54.308|10=031|
2023-12-22 11:56:55.519 [34] [FixSender] (DEBUG) Sending 8=FIX.4.4|9=58|35=0|49=FIXCLIENT1|56=DMA_HUB|34=135|52=20231222-10:56:55|10=094|
2023-12-22 11:57:24.266 [33] [FixSender] (DEBUG) Receiving 8=FIX.4.4|9=62|35=0|34=152|49=DMA_HUB|56=FIXCLIENT1|52=20231222-10:57:24.265|10=032|
2023-12-22 11:57:25.523 [34] [FixSender] (DEBUG) Sending 8=FIX.4.4|9=58|35=0|49=FIXCLIENT1|56=DMA_HUB|34=136|52=20231222-10:57:25|10=093|
2023-12-22 11:57:54.222 [33] [FixSender] (DEBUG) Receiving 8=FIX.4.4|9=62|35=0|34=153|49=DMA_HUB|56=FIXCLIENT1|52=20231222-10:57:54.222|10=029|
2023-12-22 11:57:55.526 [34] [FixSender] (DEBUG) Sending 8=FIX.4.4|9=58|35=0|49=FIXCLIENT1|56=DMA_HUB|34=137|52=20231222-10:57:55|10=097|
2023-12-22 11:58:24.168 [33] [FixSender] (DEBUG) Receiving 8=FIX.4.4|9=62|35=0|34=154|49=DMA_HUB|56=FIXCLIENT1|52=20231222-10:58:24.168|10=037|
2023-12-22 11:58:25.531 [34] [FixSender] (DEBUG) Sending 8=FIX.4.4|9=58|35=0|49=FIXCLIENT1|56=DMA_HUB|34=138|52=20231222-10:58:25|10=096|
2023-12-22 11:58:54.114 [33] [FixSender] (DEBUG) Receiving 8=FIX.4.4|9=62|35=0|34=155|49=DMA_HUB|56=FIXCLIENT1|52=20231222-10:58:54.113|10=031|
2023-12-22 11:58:55.544 [34] [FixSender] (DEBUG) Sending 8=FIX.4.4|9=58|35=0|49=FIXCLIENT1|56=DMA_HUB|34=139|52=20231222-10:58:55|10=100|
2023-12-22 11:59:24.066 [33] [FixSender] (DEBUG) Receiving 8=FIX.4.4|9=62|35=0|34=156|49=DMA_HUB|56=FIXCLIENT1|52=20231222-10:59:24.066|10=037|
2023-12-22 11:59:25.547 [34] [FixSender] (DEBUG) Sending 8=FIX.4.4|9=58|35=0|49=FIXCLIENT1|56=DMA_HUB|34=140|52=20231222-10:59:25|10=090|
2023-12-22 11:59:54.027 [33] [FixSender] (DEBUG) Receiving 8=FIX.4.4|9=62|35=0|34=157|49=DMA_HUB|56=FIXCLIENT1|52=20231222-10:59:54.027|10=038|
2023-12-22 11:59:55.559 [34] [FixSender] (DEBUG) Sending 8=FIX.4.4|9=58|35=0|49=FIXCLIENT1|56=DMA_HUB|34=141|52=20231222-10:59:55|10=094|
2023-12-22 12:00:23.977 [33] [FixSender] (DEBUG) Receiving 8=FIX.4.4|9=62|35=0|34=158|49=DMA_HUB|56=FIXCLIENT1|52=20231222-11:00:23.976|10=035|
2023-12-22 12:00:25.566 [34] [FixSender] (DEBUG) Sending 8=FIX.4.4|9=58|35=0|49=FIXCLIENT1|56=DMA_HUB|34=142|52=20231222-11:00:25|10=079|
2023-12-22 12:00:53.921 [33] [FixSender] (DEBUG) Receiving 8=FIX.4.4|9=62|35=0|34=159|49=DMA_HUB|56=FIXCLIENT1|52=20231222-11:00:53.921|10=029|
2023-12-22 12:00:55.568 [34] [FixSender] (DEBUG) Sending 8=FIX.4.4|9=58|35=0|49=FIXCLIENT1|56=DMA_HUB|34=143|52=20231222-11:00:55|10=083|
2023-12-22 12:01:23.875 [33] [FixSender] (DEBUG) Receiving 8=FIX.4.4|9=62|35=0|34=160|49=DMA_HUB|56=FIXCLIENT1|52=20231222-11:01:23.875|10=027|
2023-12-22 12:01:25.571 [34] [FixSender] (DEBUG) Sending 8=FIX.4.4|9=58|35=0|49=FIXCLIENT1|56=DMA_HUB|34=144|52=20231222-11:01:25|10=082|
2023-12-22 12:01:53.826 [33] [FixSender] (DEBUG) Receiving 8=FIX.4.4|9=62|35=0|34=161|49=DMA_HUB|56=FIXCLIENT1|52=20231222-11:01:53.825|10=026|
2023-12-22 12:01:55.580 [34] [FixSender] (DEBUG) Sending 8=FIX.4.4|9=58|35=0|49=FIXCLIENT1|56=DMA_HUB|34=145|52=20231222-11:01:55|10=086|
2023-12-22 12:02:23.787 [33] [FixSender] (DEBUG) Receiving 8=FIX.4.4|9=62|35=0|34=162|49=DMA_HUB|56=FIXCLIENT1|52=20231222-11:02:23.785|10=030|
2023-12-22 12:02:25.581 [34] [FixSender] (DEBUG) Sending 8=FIX.4.4|9=58|35=0|49=FIXCLIENT1|56=DMA_HUB|34=146|52=20231222-11:02:25|10=085|
2023-12-22 12:02:53.731 [33] [FixSender] (DEBUG) Receiving 8=FIX.4.4|9=62|35=0|34=163|49=DMA_HUB|56=FIXCLIENT1|52=20231222-11:02:53.730|10=024|
2023-12-22 12:02:55.582 [34] [FixSender] (DEBUG) Sending 8=FIX.4.4|9=58|35=0|49=FIXCLIENT1|56=DMA_HUB|34=147|52=20231222-11:02:55|10=089|
2023-12-22 12:03:23.683 [33] [FixSender] (DEBUG) Receiving 8=FIX.4.4|9=62|35=0|34=164|49=DMA_HUB|56=FIXCLIENT1|52=20231222-11:03:23.681|10=028|
2023-12-22 12:03:25.596 [34] [FixSender] (DEBUG) Sending 8=FIX.4.4|9=58|35=0|49=FIXCLIENT1|56=DMA_HUB|34=148|52=20231222-11:03:25|10=088|
2023-12-22 12:03:53.641 [33] [FixSender] (DEBUG) Receiving 8=FIX.4.4|9=62|35=0|34=165|49=DMA_HUB|56=FIXCLIENT1|52=20231222-11:03:53.640|10=027|
2023-12-22 12:03:55.610 [34] [FixSender] (DEBUG) Sending 8=FIX.4.4|9=58|35=0|49=FIXCLIENT1|56=DMA_HUB|34=149|52=20231222-11:03:55|10=092|
2023-12-22 12:04:23.586 [33] [FixSender] (DEBUG) Receiving 8=FIX.4.4|9=62|35=0|34=166|49=DMA_HUB|56=FIXCLIENT1|52=20231222-11:04:23.586|10=035|
2023-12-22 12:04:25.620 [34] [FixSender] (DEBUG) Sending 8=FIX.4.4|9=58|35=0|49=FIXCLIENT1|56=DMA_HUB|34=150|52=20231222-11:04:25|10=082|
2023-12-22 12:04:53.539 [33] [FixSender] (DEBUG) Receiving 8=FIX.4.4|9=62|35=0|34=167|49=DMA_HUB|56=FIXCLIENT1|52=20231222-11:04:53.539|10=037|
2023-12-22 12:04:55.621 [34] [FixSender] (DEBUG) Sending 8=FIX.4.4|9=58|35=0|49=FIXCLIENT1|56=DMA_HUB|34=151|52=20231222-11:04:55|10=086|
2023-12-22 12:05:23.497 [33] [FixSender] (DEBUG) Receiving 8=FIX.4.4|9=62|35=0|34=168|49=DMA_HUB|56=FIXCLIENT1|52=20231222-11:05:23.497|10=039|
2023-12-22 12:05:25.631 [34] [FixSender] (DEBUG) Sending 8=FIX.4.4|9=58|35=0|49=FIXCLIENT1|56=DMA_HUB|34=152|52=20231222-11:05:25|10=085|
2023-12-22 12:05:53.448 [33] [FixSender] (DEBUG) Receiving 8=FIX.4.4|9=62|35=0|34=169|49=DMA_HUB|56=FIXCLIENT1|52=20231222-11:05:53.448|10=039|
2023-12-22 12:05:55.644 [34] [FixSender] (DEBUG) Sending 8=FIX.4.4|9=58|35=0|49=FIXCLIENT1|56=DMA_HUB|34=153|52=20231222-11:05:55|10=089|
2023-12-22 12:06:23.399 [33] [FixSender] (DEBUG) Receiving 8=FIX.4.4|9=62|35=0|34=170|49=DMA_HUB|56=FIXCLIENT1|52=20231222-11:06:23.398|10=033|
2023-12-22 12:06:25.653 [34] [FixSender] (DEBUG) Sending 8=FIX.4.4|9=58|35=0|49=FIXCLIENT1|56=DMA_HUB|34=154|52=20231222-11:06:25|10=088|
2023-12-22 12:06:53.346 [33] [FixSender] (DEBUG) Receiving 8=FIX.4.4|9=62|35=0|34=171|49=DMA_HUB|56=FIXCLIENT1|52=20231222-11:06:53.346|10=030|
2023-12-22 12:06:55.664 [34] [FixSender] (DEBUG) Sending 8=FIX.4.4|9=58|35=0|49=FIXCLIENT1|56=DMA_HUB|34=155|52=20231222-11:06:55|10=092|
2023-12-22 12:07:23.309 [33] [FixSender] (DEBUG) Receiving 8=FIX.4.4|9=62|35=0|34=172|49=DMA_HUB|56=FIXCLIENT1|52=20231222-11:07:23.308|10=027|
2023-12-22 12:07:25.666 [34] [FixSender] (DEBUG) Sending 8=FIX.4.4|9=58|35=0|49=FIXCLIENT1|56=DMA_HUB|34=156|52=20231222-11:07:25|10=091|
2023-12-22 12:07:53.252 [33] [FixSender] (DEBUG) Receiving 8=FIX.4.4|9=62|35=0|34=173|49=DMA_HUB|56=FIXCLIENT1|52=20231222-11:07:53.252|10=029|
2023-12-22 12:07:55.675 [34] [FixSender] (DEBUG) Sending 8=FIX.4.4|9=58|35=0|49=FIXCLIENT1|56=DMA_HUB|34=157|52=20231222-11:07:55|10=095|
2023-12-22 12:08:23.204 [33] [FixSender] (DEBUG) Receiving 8=FIX.4.4|9=62|35=0|34=174|49=DMA_HUB|56=FIXCLIENT1|52=20231222-11:08:23.203|10=024|
2023-12-22 12:08:25.685 [34] [FixSender] (DEBUG) Sending 8=FIX.4.4|9=58|35=0|49=FIXCLIENT1|56=DMA_HUB|34=158|52=20231222-11:08:25|10=094|
2023-12-22 12:08:53.159 [33] [FixSender] (DEBUG) Receiving 8=FIX.4.4|9=62|35=0|34=175|49=DMA_HUB|56=FIXCLIENT1|52=20231222-11:08:53.159|10=038|
2023-12-22 12:08:55.691 [34] [FixSender] (DEBUG) Sending 8=FIX.4.4|9=58|35=0|49=FIXCLIENT1|56=DMA_HUB|34=159|52=20231222-11:08:55|10=098|
2023-12-22 12:09:23.117 [33] [FixSender] (DEBUG) Receiving 8=FIX.4.4|9=62|35=0|34=176|49=DMA_HUB|56=FIXCLIENT1|52=20231222-11:09:23.117|10=031|
2023-12-22 12:09:25.702 [34] [FixSender] (DEBUG) Sending 8=FIX.4.4|9=58|35=0|49=FIXCLIENT1|56=DMA_HUB|34=160|52=20231222-11:09:25|10=088|
2023-12-22 12:09:53.059 [33] [FixSender] (DEBUG) Receiving 8=FIX.4.4|9=62|35=0|34=177|49=DMA_HUB|56=FIXCLIENT1|52=20231222-11:09:53.058|10=039|
2023-12-22 12:09:55.712 [34] [FixSender] (DEBUG) Sending 8=FIX.4.4|9=58|35=0|49=FIXCLIENT1|56=DMA_HUB|34=161|52=20231222-11:09:55|10=092|
2023-12-22 12:10:23.012 [33] [FixSender] (DEBUG) Receiving 8=FIX.4.4|9=62|35=0|34=178|49=DMA_HUB|56=FIXCLIENT1|52=20231222-11:10:23.012|10=019|
2023-12-22 12:10:25.726 [34] [FixSender] (DEBUG) Sending 8=FIX.4.4|9=58|35=0|49=FIXCLIENT1|56=DMA_HUB|34=162|52=20231222-11:10:25|10=082|
2023-12-22 12:10:52.965 [33] [FixSender] (DEBUG) Receiving 8=FIX.4.4|9=62|35=0|34=179|49=DMA_HUB|56=FIXCLIENT1|52=20231222-11:10:52.964|10=038|
2023-12-22 12:10:55.742 [34] [FixSender] (DEBUG) Sending 8=FIX.4.4|9=58|35=0|49=FIXCLIENT1|56=DMA_HUB|34=163|52=20231222-11:10:55|10=086|
2023-12-22 12:11:22.926 [33] [FixSender] (DEBUG) Receiving 8=FIX.4.4|9=62|35=0|34=180|49=DMA_HUB|56=FIXCLIENT1|52=20231222-11:11:22.926|10=026|
2023-12-22 12:11:25.756 [34] [FixSender] (DEBUG) Sending 8=FIX.4.4|9=58|35=0|49=FIXCLIENT1|56=DMA_HUB|34=164|52=20231222-11:11:25|10=085|
2023-12-22 12:11:52.867 [33] [FixSender] (DEBUG) Receiving 8=FIX.4.4|9=62|35=0|34=181|49=DMA_HUB|56=FIXCLIENT1|52=20231222-11:11:52.867|10=034|
2023-12-22 12:11:55.761 [34] [FixSender] (DEBUG) Sending 8=FIX.4.4|9=58|35=0|49=FIXCLIENT1|56=DMA_HUB|34=165|52=20231222-11:11:55|10=089|
2023-12-22 12:12:22.827 [33] [FixSender] (DEBUG) Receiving 8=FIX.4.4|9=62|35=0|34=182|49=DMA_HUB|56=FIXCLIENT1|52=20231222-11:12:22.827|10=029|
2023-12-22 12:12:25.764 [34] [FixSender] (DEBUG) Sending 8=FIX.4.4|9=58|35=0|49=FIXCLIENT1|56=DMA_HUB|34=166|52=20231222-11:12:25|10=088|
2023-12-22 12:12:52.780 [33] [FixSender] (DEBUG) Receiving 8=FIX.4.4|9=62|35=0|34=183|49=DMA_HUB|56=FIXCLIENT1|52=20231222-11:12:52.780|10=031|
2023-12-22 12:12:55.778 [34] [FixSender] (DEBUG) Sending 8=FIX.4.4|9=58|35=0|49=FIXCLIENT1|56=DMA_HUB|34=167|52=20231222-11:12:55|10=092|
2023-12-22 12:13:22.727 [33] [FixSender] (DEBUG) Receiving 8=FIX.4.4|9=62|35=0|34=184|49=DMA_HUB|56=FIXCLIENT1|52=20231222-11:13:22.726|10=030|
2023-12-22 12:13:25.780 [34] [FixSender] (DEBUG) Sending 8=FIX.4.4|9=58|35=0|49=FIXCLIENT1|56=DMA_HUB|34=168|52=20231222-11:13:25|10=091|
2023-12-22 12:13:52.678 [33] [FixSender] (DEBUG) Receiving 8=FIX.4.4|9=62|35=0|34=185|49=DMA_HUB|56=FIXCLIENT1|52=20231222-11:13:52.678|10=040|
2023-12-22 12:13:55.787 [34] [FixSender] (DEBUG) Sending 8=FIX.4.4|9=58|35=0|49=FIXCLIENT1|56=DMA_HUB|34=169|52=20231222-11:13:55|10=095|
2023-12-22 12:14:22.640 [33] [FixSender] (DEBUG) Receiving 8=FIX.4.4|9=62|35=0|34=186|49=DMA_HUB|56=FIXCLIENT1|52=20231222-11:14:22.639|10=036|
2023-12-22 12:14:25.788 [34] [FixSender] (DEBUG) Sending 8=FIX.4.4|9=58|35=0|49=FIXCLIENT1|56=DMA_HUB|34=170|52=20231222-11:14:25|10=085|
2023-12-22 12:14:52.589 [33] [FixSender] (DEBUG) Receiving 8=FIX.4.4|9=62|35=0|34=187|49=DMA_HUB|56=FIXCLIENT1|52=20231222-11:14:52.588|10=043|
2023-12-22 12:14:55.804 [34] [FixSender] (DEBUG) Sending 8=FIX.4.4|9=58|35=0|49=FIXCLIENT1|56=DMA_HUB|34=171|52=20231222-11:14:55|10=089|
2023-12-22 12:15:22.533 [33] [FixSender] (DEBUG) Receiving 8=FIX.4.4|9=62|35=0|34=188|49=DMA_HUB|56=FIXCLIENT1|52=20231222-11:15:22.533|10=032|
2023-12-22 12:15:25.814 [34] [FixSender] (DEBUG) Sending 8=FIX.4.4|9=58|35=0|49=FIXCLIENT1|56=DMA_HUB|34=172|52=20231222-11:15:25|10=088|
2023-12-22 12:15:52.487 [33] [FixSender] (DEBUG) Receiving 8=FIX.4.4|9=62|35=0|34=189|49=DMA_HUB|56=FIXCLIENT1|52=20231222-11:15:52.486|10=043|
2023-12-22 12:15:55.826 [34] [FixSender] (DEBUG) Sending 8=FIX.4.4|9=58|35=0|49=FIXCLIENT1|56=DMA_HUB|34=173|52=20231222-11:15:55|10=092|
2023-12-22 12:16:22.446 [33] [FixSender] (DEBUG) Receiving 8=FIX.4.4|9=62|35=0|34=190|49=DMA_HUB|56=FIXCLIENT1|52=20231222-11:16:22.446|10=029|
2023-12-22 12:16:25.844 [34] [FixSender] (DEBUG) Sending 8=FIX.4.4|9=58|35=0|49=FIXCLIENT1|56=DMA_HUB|34=174|52=20231222-11:16:25|10=091|
2023-12-22 12:16:52.392 [33] [FixSender] (DEBUG) Receiving 8=FIX.4.4|9=62|35=0|34=191|49=DMA_HUB|56=FIXCLIENT1|52=20231222-11:16:52.391|10=032|
2023-12-22 12:16:55.854 [34] [FixSender] (DEBUG) Sending 8=FIX.4.4|9=58|35=0|49=FIXCLIENT1|56=DMA_HUB|34=175|52=20231222-11:16:55|10=095|
2023-12-22 12:17:22.340 [33] [FixSender] (DEBUG) Receiving 8=FIX.4.4|9=62|35=0|34=192|49=DMA_HUB|56=FIXCLIENT1|52=20231222-11:17:22.340|10=025|
2023-12-22 12:17:25.866 [34] [FixSender] (DEBUG) Sending 8=FIX.4.4|9=58|35=0|49=FIXCLIENT1|56=DMA_HUB|34=176|52=20231222-11:17:25|10=094|
2023-12-22 12:17:52.294 [33] [FixSender] (DEBUG) Receiving 8=FIX.4.4|9=62|35=0|34=193|49=DMA_HUB|56=FIXCLIENT1|52=20231222-11:17:52.294|10=037|
2023-12-22 12:17:55.876 [34] [FixSender] (DEBUG) Sending 8=FIX.4.4|9=58|35=0|49=FIXCLIENT1|56=DMA_HUB|34=177|52=20231222-11:17:55|10=098|
2023-12-22 12:18:22.243 [33] [FixSender] (DEBUG) Receiving 8=FIX.4.4|9=62|35=0|34=194|49=DMA_HUB|56=FIXCLIENT1|52=20231222-11:18:22.243|10=030|
2023-12-22 12:18:25.880 [34] [FixSender] (DEBUG) Sending 8=FIX.4.4|9=58|35=0|49=FIXCLIENT1|56=DMA_HUB|34=178|52=20231222-11:18:25|10=097|
2023-12-22 12:18:52.205 [33] [FixSender] (DEBUG) Receiving 8=FIX.4.4|9=62|35=0|34=195|49=DMA_HUB|56=FIXCLIENT1|52=20231222-11:18:52.205|10=032|
2023-12-22 12:18:55.887 [34] [FixSender] (DEBUG) Sending 8=FIX.4.4|9=58|35=0|49=FIXCLIENT1|56=DMA_HUB|34=179|52=20231222-11:18:55|10=101|
2023-12-22 12:19:22.156 [33] [FixSender] (DEBUG) Receiving 8=FIX.4.4|9=62|35=0|34=196|49=DMA_HUB|56=FIXCLIENT1|52=20231222-11:19:22.156|10=036|
2023-12-22 12:19:25.900 [34] [FixSender] (DEBUG) Sending 8=FIX.4.4|9=58|35=0|49=FIXCLIENT1|56=DMA_HUB|34=180|52=20231222-11:19:25|10=091|
2023-12-22 12:19:52.099 [33] [FixSender] (DEBUG) Receiving 8=FIX.4.4|9=62|35=0|34=197|49=DMA_HUB|56=FIXCLIENT1|52=20231222-11:19:52.098|10=045|
2023-12-22 12:19:55.902 [34] [FixSender] (DEBUG) Sending 8=FIX.4.4|9=58|35=0|49=FIXCLIENT1|56=DMA_HUB|34=181|52=20231222-11:19:55|10=095|
2023-12-22 12:20:22.050 [33] [FixSender] (DEBUG) Receiving 8=FIX.4.4|9=62|35=0|34=198|49=DMA_HUB|56=FIXCLIENT1|52=20231222-11:20:22.050|10=023|
2023-12-22 12:20:25.904 [34] [FixSender] (DEBUG) Sending 8=FIX.4.4|9=58|35=0|49=FIXCLIENT1|56=DMA_HUB|34=182|52=20231222-11:20:25|10=085|
2023-12-22 12:20:52.012 [33] [FixSender] (DEBUG) Receiving 8=FIX.4.4|9=62|35=0|34=199|49=DMA_HUB|56=FIXCLIENT1|52=20231222-11:20:52.010|10=023|
2023-12-22 12:20:55.914 [34] [FixSender] (DEBUG) Sending 8=FIX.4.4|9=58|35=0|49=FIXCLIENT1|56=DMA_HUB|34=183|52=20231222-11:20:55|10=089|
2023-12-22 12:21:21.965 [33] [FixSender] (DEBUG) Receiving 8=FIX.4.4|9=62|35=0|34=200|49=DMA_HUB|56=FIXCLIENT1|52=20231222-11:21:21.963|10=020|
2023-12-22 12:21:25.929 [34] [FixSender] (DEBUG) Sending 8=FIX.4.4|9=58|35=0|49=FIXCLIENT1|56=DMA_HUB|34=184|52=20231222-11:21:25|10=088|
2023-12-22 12:21:51.916 [33] [FixSender] (DEBUG) Receiving 8=FIX.4.4|9=62|35=0|34=201|49=DMA_HUB|56=FIXCLIENT1|52=20231222-11:21:51.916|10=022|
2023-12-22 12:21:55.942 [34] [FixSender] (DEBUG) Sending 8=FIX.4.4|9=58|35=0|49=FIXCLIENT1|56=DMA_HUB|34=185|52=20231222-11:21:55|10=092|
2023-12-22 12:22:21.859 [33] [FixSender] (DEBUG) Receiving 8=FIX.4.4|9=62|35=0|34=202|49=DMA_HUB|56=FIXCLIENT1|52=20231222-11:22:21.859|10=027|
2023-12-22 12:22:25.951 [34] [FixSender] (DEBUG) Sending 8=FIX.4.4|9=58|35=0|49=FIXCLIENT1|56=DMA_HUB|34=186|52=20231222-11:22:25|10=091|
2023-12-22 12:22:51.814 [33] [FixSender] (DEBUG) Receiving 8=FIX.4.4|9=62|35=0|34=203|49=DMA_HUB|56=FIXCLIENT1|52=20231222-11:22:51.814|10=022|
2023-12-22 12:22:55.965 [34] [FixSender] (DEBUG) Sending 8=FIX.4.4|9=58|35=0|49=FIXCLIENT1|56=DMA_HUB|34=187|52=20231222-11:22:55|10=095|
2023-12-22 12:23:21.767 [33] [FixSender] (DEBUG) Receiving 8=FIX.4.4|9=62|35=0|34=204|49=DMA_HUB|56=FIXCLIENT1|52=20231222-11:23:21.766|10=027|
2023-12-22 12:23:25.967 [34] [FixSender] (DEBUG) Sending 8=FIX.4.4|9=58|35=0|49=FIXCLIENT1|56=DMA_HUB|34=188|52=20231222-11:23:25|10=094|
2023-12-22 12:23:51.719 [33] [FixSender] (DEBUG) Receiving 8=FIX.4.4|9=62|35=0|34=205|49=DMA_HUB|56=FIXCLIENT1|52=20231222-11:23:51.718|10=028|
2023-12-22 12:23:55.975 [34] [FixSender] (DEBUG) Sending 8=FIX.4.4|9=58|35=0|49=FIXCLIENT1|56=DMA_HUB|34=189|52=20231222-11:23:55|10=098|
2023-12-22 12:24:21.667 [33] [FixSender] (DEBUG) Receiving 8=FIX.4.4|9=62|35=0|34=206|49=DMA_HUB|56=FIXCLIENT1|52=20231222-11:24:21.666|10=029|
2023-12-22 12:24:25.990 [34] [FixSender] (DEBUG) Sending 8=FIX.4.4|9=58|35=0|49=FIXCLIENT1|56=DMA_HUB|34=190|52=20231222-11:24:25|10=088|
2023-12-22 12:24:51.627 [33] [FixSender] (DEBUG) Receiving 8=FIX.4.4|9=62|35=0|34=207|49=DMA_HUB|56=FIXCLIENT1|52=20231222-11:24:51.625|10=028|
2023-12-22 12:24:56.002 [34] [FixSender] (DEBUG) Sending 8=FIX.4.4|9=58|35=0|49=FIXCLIENT1|56=DMA_HUB|34=191|52=20231222-11:24:56|10=093|
2023-12-22 12:25:21.574 [33] [FixSender] (DEBUG) Receiving 8=FIX.4.4|9=62|35=0|34=208|49=DMA_HUB|56=FIXCLIENT1|52=20231222-11:25:21.573|10=029|
2023-12-22 12:25:26.003 [34] [FixSender] (DEBUG) Sending 8=FIX.4.4|9=58|35=0|49=FIXCLIENT1|56=DMA_HUB|34=192|52=20231222-11:25:26|10=092|
2023-12-22 12:25:51.533 [33] [FixSender] (DEBUG) Receiving 8=FIX.4.4|9=62|35=0|34=209|49=DMA_HUB|56=FIXCLIENT1|52=20231222-11:25:51.533|10=029|
2023-12-22 12:25:56.018 [34] [FixSender] (DEBUG) Sending 8=FIX.4.4|9=58|35=0|49=FIXCLIENT1|56=DMA_HUB|34=193|52=20231222-11:25:56|10=096|
2023-12-22 12:26:21.475 [33] [FixSender] (DEBUG) Receiving 8=FIX.4.4|9=62|35=0|34=210|49=DMA_HUB|56=FIXCLIENT1|52=20231222-11:26:21.474|10=023|
2023-12-22 12:26:26.023 [34] [FixSender] (DEBUG) Sending 8=FIX.4.4|9=58|35=0|49=FIXCLIENT1|56=DMA_HUB|34=194|52=20231222-11:26:26|10=095|
2023-12-22 12:26:51.435 [33] [FixSender] (DEBUG) Receiving 8=FIX.4.4|9=62|35=0|34=211|49=DMA_HUB|56=FIXCLIENT1|52=20231222-11:26:51.433|10=022|
2023-12-22 12:26:56.035 [34] [FixSender] (DEBUG) Sending 8=FIX.4.4|9=58|35=0|49=FIXCLIENT1|56=DMA_HUB|34=195|52=20231222-11:26:56|10=099|
2023-12-22 12:27:21.383 [33] [FixSender] (DEBUG) Receiving 8=FIX.4.4|9=62|35=0|34=212|49=DMA_HUB|56=FIXCLIENT1|52=20231222-11:27:21.382|10=024|
2023-12-22 12:27:26.043 [34] [FixSender] (DEBUG) Sending 8=FIX.4.4|9=58|35=0|49=FIXCLIENT1|56=DMA_HUB|34=196|52=20231222-11:27:26|10=098|
2023-12-22 12:27:51.332 [33] [FixSender] (DEBUG) Receiving 8=FIX.4.4|9=62|35=0|34=213|49=DMA_HUB|56=FIXCLIENT1|52=20231222-11:27:51.331|10=022|
2023-12-22 12:27:56.050 [34] [FixSender] (DEBUG) Sending 8=FIX.4.4|9=58|35=0|49=FIXCLIENT1|56=DMA_HUB|34=197|52=20231222-11:27:56|10=102|
2023-12-22 12:28:21.290 [33] [FixSender] (DEBUG) Receiving 8=FIX.4.4|9=62|35=0|34=214|49=DMA_HUB|56=FIXCLIENT1|52=20231222-11:28:21.289|10=033|
2023-12-22 12:28:26.055 [34] [FixSender] (DEBUG) Sending 8=FIX.4.4|9=58|35=0|49=FIXCLIENT1|56=DMA_HUB|34=198|52=20231222-11:28:26|10=101|
2023-12-22 12:28:51.237 [33] [FixSender] (DEBUG) Receiving 8=FIX.4.4|9=62|35=0|34=215|49=DMA_HUB|56=FIXCLIENT1|52=20231222-11:28:51.237|10=030|
2023-12-22 12:28:56.066 [34] [FixSender] (DEBUG) Sending 8=FIX.4.4|9=58|35=0|49=FIXCLIENT1|56=DMA_HUB|34=199|52=20231222-11:28:56|10=105|
2023-12-22 12:29:21.190 [33] [FixSender] (DEBUG) Receiving 8=FIX.4.4|9=62|35=0|34=216|49=DMA_HUB|56=FIXCLIENT1|52=20231222-11:29:21.190|10=027|
2023-12-22 12:29:26.076 [34] [FixSender] (DEBUG) Sending 8=FIX.4.4|9=58|35=0|49=FIXCLIENT1|56=DMA_HUB|34=200|52=20231222-11:29:26|10=086|
2023-12-22 12:29:51.140 [33] [FixSender] (DEBUG) Receiving 8=FIX.4.4|9=62|35=0|34=217|49=DMA_HUB|56=FIXCLIENT1|52=20231222-11:29:51.139|10=034|
2023-12-22 12:29:56.088 [34] [FixSender] (DEBUG) Sending 8=FIX.4.4|9=58|35=0|49=FIXCLIENT1|56=DMA_HUB|34=201|52=20231222-11:29:56|10=090|
2023-12-22 12:30:21.103 [33] [FixSender] (DEBUG) Receiving 8=FIX.4.4|9=62|35=0|34=218|49=DMA_HUB|56=FIXCLIENT1|52=20231222-11:30:21.102|10=014|
2023-12-22 12:30:26.098 [34] [FixSender] (DEBUG) Sending 8=FIX.4.4|9=58|35=0|49=FIXCLIENT1|56=DMA_HUB|34=202|52=20231222-11:30:26|10=080|
2023-12-22 12:30:51.041 [33] [FixSender] (DEBUG) Receiving 8=FIX.4.4|9=62|35=0|34=219|49=DMA_HUB|56=FIXCLIENT1|52=20231222-11:30:51.041|10=020|
2023-12-22 12:30:56.100 [34] [FixSender] (DEBUG) Sending 8=FIX.4.4|9=58|35=0|49=FIXCLIENT1|56=DMA_HUB|34=203|52=20231222-11:30:56|10=084|
2023-12-22 12:31:21.006 [33] [FixSender] (DEBUG) Receiving 8=FIX.4.4|9=62|35=0|34=220|49=DMA_HUB|56=FIXCLIENT1|52=20231222-11:31:21.006|10=011|
2023-12-22 12:31:26.113 [34] [FixSender] (DEBUG) Sending 8=FIX.4.4|9=58|35=0|49=FIXCLIENT1|56=DMA_HUB|34=204|52=20231222-11:31:26|10=083|
2023-12-22 12:31:50.947 [33] [FixSender] (DEBUG) Receiving 8=FIX.4.4|9=62|35=0|34=221|49=DMA_HUB|56=FIXCLIENT1|52=20231222-11:31:50.947|10=028|
2023-12-22 12:31:56.128 [34] [FixSender] (DEBUG) Sending 8=FIX.4.4|9=58|35=0|49=FIXCLIENT1|56=DMA_HUB|34=205|52=20231222-11:31:56|10=087|
2023-12-22 12:32:20.910 [33] [FixSender] (DEBUG) Receiving 8=FIX.4.4|9=62|35=0|34=222|49=DMA_HUB|56=FIXCLIENT1|52=20231222-11:32:20.910|10=017|
2023-12-22 12:32:26.140 [34] [FixSender] (DEBUG) Sending 8=FIX.4.4|9=58|35=0|49=FIXCLIENT1|56=DMA_HUB|34=206|52=20231222-11:32:26|10=086|
2023-12-22 12:32:50.859 [33] [FixSender] (DEBUG) Receiving 8=FIX.4.4|9=62|35=0|34=223|49=DMA_HUB|56=FIXCLIENT1|52=20231222-11:32:50.858|10=032|
2023-12-22 12:32:56.144 [34] [FixSender] (DEBUG) Sending 8=FIX.4.4|9=58|35=0|49=FIXCLIENT1|56=DMA_HUB|34=207|52=20231222-11:32:56|10=090|
2023-12-22 12:33:20.803 [33] [FixSender] (DEBUG) Receiving 8=FIX.4.4|9=62|35=0|34=224|49=DMA_HUB|56=FIXCLIENT1|52=20231222-11:33:20.801|10=019|
2023-12-22 12:33:26.155 [34] [FixSender] (DEBUG) Sending 8=FIX.4.4|9=58|35=0|49=FIXCLIENT1|56=DMA_HUB|34=208|52=20231222-11:33:26|10=089|
2023-12-22 12:33:50.765 [33] [FixSender] (DEBUG) Receiving 8=FIX.4.4|9=62|35=0|34=225|49=DMA_HUB|56=FIXCLIENT1|52=20231222-11:33:50.765|10=032|
2023-12-22 12:33:56.167 [34] [FixSender] (DEBUG) Sending 8=FIX.4.4|9=58|35=0|49=FIXCLIENT1|56=DMA_HUB|34=209|52=20231222-11:33:56|10=093|
2023-12-22 12:34:20.706 [33] [FixSender] (DEBUG) Receiving 8=FIX.4.4|9=62|35=0|34=226|49=DMA_HUB|56=FIXCLIENT1|52=20231222-11:34:20.705|10=025|
2023-12-22 12:34:26.169 [34] [FixSender] (DEBUG) Sending 8=FIX.4.4|9=58|35=0|49=FIXCLIENT1|56=DMA_HUB|34=210|52=20231222-11:34:26|10=083|
2023-12-22 12:34:50.660 [33] [FixSender] (DEBUG) Receiving 8=FIX.4.4|9=62|35=0|34=227|49=DMA_HUB|56=FIXCLIENT1|52=20231222-11:34:50.660|10=029|
2023-12-22 12:34:56.181 [34] [FixSender] (DEBUG) Sending 8=FIX.4.4|9=58|35=0|49=FIXCLIENT1|56=DMA_HUB|34=211|52=20231222-11:34:56|10=087|
2023-12-22 12:35:03.649 [43] [FixSender] (DEBUG) Sending 8=FIX.4.4|9=198|35=D|49=FIXCLIENT1|56=DMA_HUB|34=212|52=20231222-11:35:03|21=1|11=HS_17032449037|38=2116|55=E:07G@XETR|54=2|60=20231222-11:35:03|40=2|59=0|44=197.111|48=US3390411052|22=4|15=EUR|207=XETR|1=bram_123|10=110|
2023-12-22 12:35:03.656 [33] [FixSender] (DEBUG) Receiving 8=FIX.4.4|9=241|35=8|34=228|49=DMA_HUB|56=FIXCLIENT1|52=20231222-11:35:03.650|11=HS_17032449037|37=FXHN7sC0I|54=2|40=2|59=0|17=2023122219|150=A|39=A|38=2116|151=2116|14=0|6=0|44=197.111|60=20231222-11:35:03.000|22=4|48=US3390411052|207=XETR|15=EUR|55=[N/A]|10=201|
2023-12-22 12:35:20.623 [33] [FixSender] (DEBUG) Receiving 8=FIX.4.4|9=62|35=0|34=229|49=DMA_HUB|56=FIXCLIENT1|52=20231222-11:35:20.622|10=027|
2023-12-22 12:35:33.652 [34] [FixSender] (DEBUG) Sending 8=FIX.4.4|9=58|35=0|49=FIXCLIENT1|56=DMA_HUB|34=213|52=20231222-11:35:33|10=085|
2023-12-22 12:35:50.571 [33] [FixSender] (DEBUG) Receiving 8=FIX.4.4|9=62|35=0|34=230|49=DMA_HUB|56=FIXCLIENT1|52=20231222-11:35:50.571|10=025|
2023-12-22 12:36:03.668 [34] [FixSender] (DEBUG) Sending 8=FIX.4.4|9=58|35=0|49=FIXCLIENT1|56=DMA_HUB|34=214|52=20231222-11:36:03|10=084|
2023-12-22 12:36:20.514 [33] [FixSender] (DEBUG) Receiving 8=FIX.4.4|9=62|35=0|34=231|49=DMA_HUB|56=FIXCLIENT1|52=20231222-11:36:20.514|10=021|
2023-12-22 12:36:33.676 [34] [FixSender] (DEBUG) Sending 8=FIX.4.4|9=58|35=0|49=FIXCLIENT1|56=DMA_HUB|34=215|52=20231222-11:36:33|10=088|
2023-12-22 12:36:44.080 [33] [FixSender] (DEBUG) Receiving 8=FIX.4.4|9=237|35=8|34=232|49=DMA_HUB|56=FIXCLIENT1|52=20231222-11:36:44.079|11=HS_17032449037|37=FXHN7sC0I|54=2|40=2|59=0|17=2023122220|150=A|39=A|38=2116|151=2116|14=0|6=0|44=197|60=20231222-11:35:03.000|22=4|48=US3390411052|207=XETR|15=EUR|55=[N/A]|10=011|
2023-12-22 12:36:44.081 [33] [FixSender] (DEBUG) Receiving 8=FIX.4.4|9=253|35=8|34=233|49=DMA_HUB|56=FIXCLIENT1|52=20231222-11:36:44.081|11=HS_17032449037|37=FXHN7sC0I|198=nPSJB29c706|54=2|40=2|59=0|17=2023122221|150=0|39=0|38=2116|151=2116|14=0|6=0|44=197|60=20231222-11:36:44.080|22=4|48=US3390411052|207=XETR|15=EUR|55=[N/A]|10=216|
2023-12-22 12:36:50.467 [33] [FixSender] (DEBUG) Receiving 8=FIX.4.4|9=62|35=0|34=234|49=DMA_HUB|56=FIXCLIENT1|52=20231222-11:36:50.466|10=033|
2023-12-22 12:37:03.686 [34] [FixSender] (DEBUG) Sending 8=FIX.4.4|9=58|35=0|49=FIXCLIENT1|56=DMA_HUB|34=216|52=20231222-11:37:03|10=087|
2023-12-22 12:37:20.418 [33] [FixSender] (DEBUG) Receiving 8=FIX.4.4|9=62|35=0|34=235|49=DMA_HUB|56=FIXCLIENT1|52=20231222-11:37:20.417|10=028|
2023-12-22 12:37:33.694 [34] [FixSender] (DEBUG) Sending 8=FIX.4.4|9=58|35=0|49=FIXCLIENT1|56=DMA_HUB|34=217|52=20231222-11:37:33|10=091|
2023-12-22 14:48:32.631 [1] [Fixsender] (INFO) (c) 2001-2011 ullink SAS. FixSender. Release 1.11.
2023-12-22 14:48:37.248 [29] [FixSender] (INFO) try to connect to : localhost port :12345
2023-12-22 14:48:37.264 [29] [FixSender] (INFO) physical cnx initiated
2023-12-22 14:48:37.276 [29] [FixSender] (DEBUG) Sending 8=FIX.4.4|9=88|35=A|49=FIXCLIENT1|56=DMA_HUB|34=218|52=20231222-13:48:37|98=0|108=30|95=9|96=null/null|10=200|
2023-12-22 14:48:37.280 [29] [FixSender] (DEBUG) Receiving 8=FIX.4.4|9=74|35=A|34=236|49=DMA_HUB|56=FIXCLIENT1|52=20231222-13:48:37.279|108=30|98=0|10=092|
2023-12-22 14:48:37.282 [29] [FixSender] (WARNING) The Fix connection is open...
2023-12-22 14:48:37.285 [29] [FixSender] (DEBUG) Sending 8=FIX.4.4|9=76|35=1|49=FIXCLIENT1|56=DMA_HUB|34=219|52=20231222-13:48:37|112=synchronized?|10=151|
2023-12-22 14:48:37.286 [29] [FixSender] (DEBUG) Receiving 8=FIX.4.4|9=80|35=0|34=237|49=DMA_HUB|56=FIXCLIENT1|52=20231222-13:48:37.286|112=synchronized?|10=095|
2023-12-22 14:48:40.413 [32] [FixSender] (DEBUG) Sending 8=FIX.4.4|9=198|35=D|49=FIXCLIENT1|56=DMA_HUB|34=220|52=20231222-13:48:40|21=1|11=HS_17032529200|38=2832|55=E:07G@XETR|54=2|60=20231222-13:48:40|40=2|59=0|44=197.111|48=US3390411052|22=4|15=EUR|207=XETR|1=bram_123|10=119|
2023-12-22 14:48:40.420 [29] [FixSender] (DEBUG) Receiving 8=FIX.4.4|9=241|35=8|34=238|49=DMA_HUB|56=FIXCLIENT1|52=20231222-13:48:40.419|11=HS_17032529200|37=FXIN7sC0I|54=2|40=2|59=0|17=2023122222|150=A|39=A|38=2832|151=2832|14=0|6=0|44=197.111|60=20231222-13:48:40.000|22=4|48=US3390411052|207=XETR|15=EUR|55=[N/A]|10=215|
2023-12-22 14:49:07.245 [29] [FixSender] (DEBUG) Receiving 8=FIX.4.4|9=62|35=0|34=239|49=DMA_HUB|56=FIXCLIENT1|52=20231222-13:49:07.244|10=040|
2023-12-22 14:49:07.310 [29] [FixSender] (DEBUG) Receiving 8=FIX.4.4|9=237|35=8|34=240|49=DMA_HUB|56=FIXCLIENT1|52=20231222-13:49:07.310|11=HS_17032529200|37=FXIN7sC0I|54=2|40=2|59=0|17=2023122223|150=A|39=A|38=2832|151=2832|14=0|6=0|44=197|60=20231222-13:48:40.000|22=4|48=US3390411052|207=XETR|15=EUR|55=[N/A]|10=015|
2023-12-22 14:49:07.314 [29] [FixSender] (DEBUG) Receiving 8=FIX.4.4|9=253|35=8|34=241|49=DMA_HUB|56=FIXCLIENT1|52=20231222-13:49:07.313|11=HS_17032529200|37=FXIN7sC0I|198=nPSJB5bbcea|54=2|40=2|59=0|17=2023122224|150=0|39=0|38=2832|151=2832|14=0|6=0|44=197|60=20231222-13:49:07.312|22=4|48=US3390411052|207=XETR|15=EUR|55=[N/A]|10=153|
2023-12-22 14:49:10.429 [30] [FixSender] (DEBUG) Sending 8=FIX.4.4|9=58|35=0|49=FIXCLIENT1|56=DMA_HUB|34=221|52=20231222-13:49:10|10=086|
2023-12-22 14:49:35.262 [29] [FixSender] (DEBUG) Receiving 8=FIX.4.4|9=253|35=8|34=242|49=DMA_HUB|56=FIXCLIENT1|52=20231222-13:49:35.262|11=HS_17032529200|37=FXIN7sC0I|198=nPSJB5bed24|54=2|40=2|59=0|17=2023122225|150=0|39=0|38=2832|151=2832|14=0|6=0|44=197|60=20231222-13:49:35.260|22=4|48=US3390411052|207=XETR|15=EUR|55=[N/A]|10=070|
2023-12-22 14:49:37.190 [29] [FixSender] (DEBUG) Receiving 8=FIX.4.4|9=62|35=0|34=243|49=DMA_HUB|56=FIXCLIENT1|52=20231222-13:49:37.188|10=045|
2023-12-22 14:49:40.441 [30] [FixSender] (DEBUG) Sending 8=FIX.4.4|9=58|35=0|49=FIXCLIENT1|56=DMA_HUB|34=222|52=20231222-13:49:40|10=090|
2023-12-22 14:50:07.149 [29] [FixSender] (DEBUG) Receiving 8=FIX.4.4|9=62|35=0|34=244|49=DMA_HUB|56=FIXCLIENT1|52=20231222-13:50:07.149|10=032|
2023-12-22 14:50:10.455 [30] [FixSender] (DEBUG) Sending 8=FIX.4.4|9=58|35=0|49=FIXCLIENT1|56=DMA_HUB|34=223|52=20231222-13:50:10|10=080|
2023-12-22 14:50:37.095 [29] [FixSender] (DEBUG) Receiving 8=FIX.4.4|9=62|35=0|34=245|49=DMA_HUB|56=FIXCLIENT1|52=20231222-13:50:37.094|10=035|
2023-12-22 14:50:40.469 [30] [FixSender] (DEBUG) Sending 8=FIX.4.4|9=58|35=0|49=FIXCLIENT1|56=DMA_HUB|34=224|52=20231222-13:50:40|10=084|
2023-12-22 14:51:07.058 [29] [FixSender] (DEBUG) Receiving 8=FIX.4.4|9=62|35=0|34=246|49=DMA_HUB|56=FIXCLIENT1|52=20231222-13:51:07.057|10=033|
2023-12-22 14:51:10.484 [30] [FixSender] (DEBUG) Sending 8=FIX.4.4|9=58|35=0|49=FIXCLIENT1|56=DMA_HUB|34=225|52=20231222-13:51:10|10=083|
2023-12-22 14:51:37.001 [29] [FixSender] (DEBUG) Receiving 8=FIX.4.4|9=62|35=0|34=247|49=DMA_HUB|56=FIXCLIENT1|52=20231222-13:51:37.000|10=025|
2023-12-22 14:51:40.500 [30] [FixSender] (DEBUG) Sending 8=FIX.4.4|9=58|35=0|49=FIXCLIENT1|56=DMA_HUB|34=226|52=20231222-13:51:40|10=087|
2023-12-22 14:52:06.960 [29] [FixSender] (DEBUG) Receiving 8=FIX.4.4|9=62|35=0|34=248|49=DMA_HUB|56=FIXCLIENT1|52=20231222-13:52:06.959|10=046|
2023-12-22 14:52:10.502 [30] [FixSender] (DEBUG) Sending 8=FIX.4.4|9=58|35=0|49=FIXCLIENT1|56=DMA_HUB|34=227|52=20231222-13:52:10|10=086|
2023-12-22 14:52:36.904 [29] [FixSender] (DEBUG) Receiving 8=FIX.4.4|9=62|35=0|34=249|49=DMA_HUB|56=FIXCLIENT1|52=20231222-13:52:36.901|10=037|
2023-12-22 14:52:40.512 [30] [FixSender] (DEBUG) Sending 8=FIX.4.4|9=58|35=0|49=FIXCLIENT1|56=DMA_HUB|34=228|52=20231222-13:52:40|10=090|
2023-12-22 14:53:06.866 [29] [FixSender] (DEBUG) Receiving 8=FIX.4.4|9=62|35=0|34=250|49=DMA_HUB|56=FIXCLIENT1|52=20231222-13:53:06.866|10=037|
2023-12-22 14:53:10.521 [30] [FixSender] (DEBUG) Sending 8=FIX.4.4|9=58|35=0|49=FIXCLIENT1|56=DMA_HUB|34=229|52=20231222-13:53:10|10=089|
2023-12-22 14:53:36.806 [29] [FixSender] (DEBUG) Receiving 8=FIX.4.4|9=62|35=0|34=251|49=DMA_HUB|56=FIXCLIENT1|52=20231222-13:53:36.805|10=034|
2023-12-22 14:53:40.530 [30] [FixSender] (DEBUG) Sending 8=FIX.4.4|9=58|35=0|49=FIXCLIENT1|56=DMA_HUB|34=230|52=20231222-13:53:40|10=084|
2023-12-22 14:54:06.760 [29] [FixSender] (DEBUG) Receiving 8=FIX.4.4|9=62|35=0|34=252|49=DMA_HUB|56=FIXCLIENT1|52=20231222-13:54:06.759|10=041|
2023-12-22 14:54:10.548 [30] [FixSender] (DEBUG) Sending 8=FIX.4.4|9=58|35=0|49=FIXCLIENT1|56=DMA_HUB|34=231|52=20231222-13:54:10|10=083|
2023-12-22 14:54:36.716 [29] [FixSender] (DEBUG) Receiving 8=FIX.4.4|9=62|35=0|34=253|49=DMA_HUB|56=FIXCLIENT1|52=20231222-13:54:36.716|10=038|
2023-12-22 14:54:40.556 [30] [FixSender] (DEBUG) Sending 8=FIX.4.4|9=58|35=0|49=FIXCLIENT1|56=DMA_HUB|34=232|52=20231222-13:54:40|10=087|
2023-12-22 14:55:06.662 [29] [FixSender] (DEBUG) Receiving 8=FIX.4.4|9=62|35=0|34=254|49=DMA_HUB|56=FIXCLIENT1|52=20231222-13:55:06.662|10=037|
2023-12-22 14:55:10.572 [30] [FixSender] (DEBUG) Sending 8=FIX.4.4|9=58|35=0|49=FIXCLIENT1|56=DMA_HUB|34=233|52=20231222-13:55:10|10=086|
2023-12-22 14:55:36.625 [29] [FixSender] (DEBUG) Receiving 8=FIX.4.4|9=62|35=0|34=255|49=DMA_HUB|56=FIXCLIENT1|52=20231222-13:55:36.625|10=040|
2023-12-22 14:55:40.577 [30] [FixSender] (DEBUG) Sending 8=FIX.4.4|9=58|35=0|49=FIXCLIENT1|56=DMA_HUB|34=234|52=20231222-13:55:40|10=090|
2023-12-22 14:56:06.566 [29] [FixSender] (DEBUG) Receiving 8=FIX.4.4|9=62|35=0|34=256|49=DMA_HUB|56=FIXCLIENT1|52=20231222-13:56:06.566|10=043|
2023-12-22 14:56:10.587 [30] [FixSender] (DEBUG) Sending 8=FIX.4.4|9=58|35=0|49=FIXCLIENT1|56=DMA_HUB|34=235|52=20231222-13:56:10|10=089|
2023-12-22 14:56:36.523 [29] [FixSender] (DEBUG) Receiving 8=FIX.4.4|9=62|35=0|34=257|49=DMA_HUB|56=FIXCLIENT1|52=20231222-13:56:36.523|10=040|
2023-12-22 14:56:40.591 [30] [FixSender] (DEBUG) Sending 8=FIX.4.4|9=58|35=0|49=FIXCLIENT1|56=DMA_HUB|34=236|52=20231222-13:56:40|10=093|
2023-12-22 14:57:06.475 [29] [FixSender] (DEBUG) Receiving 8=FIX.4.4|9=62|35=0|34=258|49=DMA_HUB|56=FIXCLIENT1|52=20231222-13:57:06.475|10=045|
2023-12-22 14:57:10.601 [30] [FixSender] (DEBUG) Sending 8=FIX.4.4|9=58|35=0|49=FIXCLIENT1|56=DMA_HUB|34=237|52=20231222-13:57:10|10=092|
2023-12-22 14:57:36.421 [29] [FixSender] (DEBUG) Receiving 8=FIX.4.4|9=62|35=0|34=259|49=DMA_HUB|56=FIXCLIENT1|52=20231222-13:57:36.420|10=039|
2023-12-22 14:57:40.603 [30] [FixSender] (DEBUG) Sending 8=FIX.4.4|9=58|35=0|49=FIXCLIENT1|56=DMA_HUB|34=238|52=20231222-13:57:40|10=096|
2023-12-22 14:58:06.384 [29] [FixSender] (DEBUG) Receiving 8=FIX.4.4|9=62|35=0|34=260|49=DMA_HUB|56=FIXCLIENT1|52=20231222-13:58:06.383|10=037|
2023-12-22 14:58:10.607 [30] [FixSender] (DEBUG) Sending 8=FIX.4.4|9=58|35=0|49=FIXCLIENT1|56=DMA_HUB|34=239|52=20231222-13:58:10|10=095|
2023-12-22 14:58:36.325 [29] [FixSender] (DEBUG) Receiving 8=FIX.4.4|9=62|35=0|34=261|49=DMA_HUB|56=FIXCLIENT1|52=20231222-13:58:36.324|10=036|
2023-12-22 14:58:40.618 [30] [FixSender] (DEBUG) Sending 8=FIX.4.4|9=58|35=0|49=FIXCLIENT1|56=DMA_HUB|34=240|52=20231222-13:58:40|10=090|
2023-12-22 14:59:06.278 [29] [FixSender] (DEBUG) Receiving 8=FIX.4.4|9=62|35=0|34=262|49=DMA_HUB|56=FIXCLIENT1|52=20231222-13:59:06.278|10=043|
2023-12-22 14:59:10.628 [30] [FixSender] (DEBUG) Sending 8=FIX.4.4|9=58|35=0|49=FIXCLIENT1|56=DMA_HUB|34=241|52=20231222-13:59:10|10=089|
2023-12-22 14:59:36.240 [29] [FixSender] (DEBUG) Receiving 8=FIX.4.4|9=62|35=0|34=263|49=DMA_HUB|56=FIXCLIENT1|52=20231222-13:59:36.239|10=044|
2023-12-22 14:59:40.639 [30] [FixSender] (DEBUG) Sending 8=FIX.4.4|9=58|35=0|49=FIXCLIENT1|56=DMA_HUB|34=242|52=20231222-13:59:40|10=093|
2023-12-22 15:00:06.192 [29] [FixSender] (DEBUG) Receiving 8=FIX.4.4|9=62|35=0|34=264|49=DMA_HUB|56=FIXCLIENT1|52=20231222-14:00:06.191|10=026|
2023-12-22 15:00:10.645 [30] [FixSender] (DEBUG) Sending 8=FIX.4.4|9=58|35=0|49=FIXCLIENT1|56=DMA_HUB|34=243|52=20231222-14:00:10|10=078|
2023-12-22 15:00:36.147 [29] [FixSender] (DEBUG) Receiving 8=FIX.4.4|9=62|35=0|34=265|49=DMA_HUB|56=FIXCLIENT1|52=20231222-14:00:36.146|10=030|
2023-12-22 15:00:40.660 [30] [FixSender] (DEBUG) Sending 8=FIX.4.4|9=58|35=0|49=FIXCLIENT1|56=DMA_HUB|34=244|52=20231222-14:00:40|10=082|
2023-12-22 15:01:06.093 [29] [FixSender] (DEBUG) Receiving 8=FIX.4.4|9=62|35=0|34=266|49=DMA_HUB|56=FIXCLIENT1|52=20231222-14:01:06.093|10=030|
2023-12-22 15:01:10.677 [30] [FixSender] (DEBUG) Sending 8=FIX.4.4|9=58|35=0|49=FIXCLIENT1|56=DMA_HUB|34=245|52=20231222-14:01:10|10=081|
2023-12-22 15:01:36.047 [29] [FixSender] (DEBUG) Receiving 8=FIX.4.4|9=62|35=0|34=267|49=DMA_HUB|56=FIXCLIENT1|52=20231222-14:01:36.046|10=032|
2023-12-22 15:01:40.680 [30] [FixSender] (DEBUG) Sending 8=FIX.4.4|9=58|35=0|49=FIXCLIENT1|56=DMA_HUB|34=246|52=20231222-14:01:40|10=085|
2023-12-22 15:02:25.952 [1] [Fixsender] (INFO) (c) 2001-2011 ullink SAS. FixSender. Release 1.11.
2023-12-22 15:02:28.287 [29] [FixSender] (INFO) try to connect to : localhost port :12345
2023-12-22 15:02:28.319 [29] [FixSender] (INFO) physical cnx initiated
2023-12-22 15:02:28.335 [29] [FixSender] (DEBUG) Sending 8=FIX.4.4|9=88|35=A|49=FIXCLIENT1|56=DMA_HUB|34=247|52=20231222-14:02:28|98=0|108=30|95=9|96=null/null|10=193|
2023-12-22 15:02:28.336 [29] [FixSender] (DEBUG) Receiving 8=FIX.4.4|9=74|35=A|34=268|49=DMA_HUB|56=FIXCLIENT1|52=20231222-14:02:28.335|108=30|98=0|10=081|
2023-12-22 15:02:28.339 [29] [FixSender] (WARNING) The Fix connection is open...
2023-12-22 15:02:28.343 [29] [FixSender] (DEBUG) Sending 8=FIX.4.4|9=76|35=1|49=FIXCLIENT1|56=DMA_HUB|34=248|52=20231222-14:02:28|112=synchronized?|10=144|
2023-12-22 15:02:28.344 [29] [FixSender] (DEBUG) Receiving 8=FIX.4.4|9=80|35=0|34=269|49=DMA_HUB|56=FIXCLIENT1|52=20231222-14:02:28.344|112=synchronized?|10=086|
2023-12-22 15:02:30.556 [32] [FixSender] (DEBUG) Sending 8=FIX.4.4|9=198|35=D|49=FIXCLIENT1|56=DMA_HUB|34=249|52=20231222-14:02:30|21=1|11=HS_17032537500|38=2864|55=E:07G@XETR|54=2|60=20231222-14:02:30|40=2|59=0|44=197.111|48=US3390411052|22=4|15=EUR|207=XETR|1=bram_123|10=117|
2023-12-22 15:02:30.560 [29] [FixSender] (DEBUG) Receiving 8=FIX.4.4|9=241|35=8|34=270|49=DMA_HUB|56=FIXCLIENT1|52=20231222-14:02:30.557|11=HS_17032537500|37=FXJN7sC0I|54=2|40=2|59=0|17=2023122226|150=A|39=A|38=2864|151=2864|14=0|6=0|44=197.111|60=20231222-14:02:30.000|22=4|48=US3390411052|207=XETR|15=EUR|55=[N/A]|10=211|
2023-12-22 15:02:58.285 [29] [FixSender] (DEBUG) Receiving 8=FIX.4.4|9=62|35=0|34=271|49=DMA_HUB|56=FIXCLIENT1|52=20231222-14:02:58.285|10=037|
2023-12-22 15:03:00.557 [30] [FixSender] (DEBUG) Sending 8=FIX.4.4|9=58|35=0|49=FIXCLIENT1|56=DMA_HUB|34=250|52=20231222-14:03:00|10=078|
2023-12-22 15:03:28.251 [29] [FixSender] (DEBUG) Receiving 8=FIX.4.4|9=62|35=0|34=272|49=DMA_HUB|56=FIXCLIENT1|52=20231222-14:03:28.250|10=028|
2023-12-22 15:03:30.572 [30] [FixSender] (DEBUG) Sending 8=FIX.4.4|9=58|35=0|49=FIXCLIENT1|56=DMA_HUB|34=251|52=20231222-14:03:30|10=082|
2023-12-22 15:03:53.134 [33] [FixSender] (DEBUG) Sending 8=FIX.4.4|9=198|35=D|49=FIXCLIENT1|56=DMA_HUB|34=252|52=20231222-14:03:53|21=1|11=HS_17032538331|38=2984|55=E:07G@XETR|54=2|60=20231222-14:03:53|40=2|59=0|44=197.111|48=US3390411052|22=4|15=EUR|207=XETR|1=bram_123|10=129|
2023-12-22 15:03:53.136 [29] [FixSender] (DEBUG) Receiving 8=FIX.4.4|9=241|35=8|34=273|49=DMA_HUB|56=FIXCLIENT1|52=20231222-14:03:53.135|11=HS_17032538331|37=FXKN7sC0I|54=2|40=2|59=0|17=2023122227|150=A|39=A|38=2984|151=2984|14=0|6=0|44=197.111|60=20231222-14:03:53.000|22=4|48=US3390411052|207=XETR|15=EUR|55=[N/A]|10=229|
2023-12-22 15:03:58.199 [29] [FixSender] (DEBUG) Receiving 8=FIX.4.4|9=62|35=0|34=274|49=DMA_HUB|56=FIXCLIENT1|52=20231222-14:03:58.198|10=044|
2023-12-22 15:04:23.149 [30] [FixSender] (DEBUG) Sending 8=FIX.4.4|9=58|35=0|49=FIXCLIENT1|56=DMA_HUB|34=253|52=20231222-14:04:23|10=087|
2023-12-22 15:04:28.154 [29] [FixSender] (DEBUG) Receiving 8=FIX.4.4|9=62|35=0|34=275|49=DMA_HUB|56=FIXCLIENT1|52=20231222-14:04:28.154|10=035|
2023-12-22 15:04:36.239 [29] [FixSender] (DEBUG) Receiving 8=FIX.4.4|9=241|35=8|34=276|49=DMA_HUB|56=FIXCLIENT1|52=20231222-14:04:36.238|11=HS_17032538331|37=FXKN7sC0I|54=2|40=2|59=0|17=2023122228|150=A|39=A|38=2984|151=2984|14=0|6=0|44=197.111|60=20231222-14:03:53.000|22=4|48=US3390411052|207=XETR|15=EUR|55=[N/A]|10=239|
2023-12-22 15:04:53.167 [30] [FixSender] (DEBUG) Sending 8=FIX.4.4|9=58|35=0|49=FIXCLIENT1|56=DMA_HUB|34=254|52=20231222-14:04:53|10=091|
2023-12-22 15:04:58.101 [29] [FixSender] (DEBUG) Receiving 8=FIX.4.4|9=62|35=0|34=277|49=DMA_HUB|56=FIXCLIENT1|52=20231222-14:04:58.099|10=048|
2023-12-22 15:05:07.900 [29] [FixSender] (DEBUG) Receiving 8=FIX.4.4|9=237|35=8|34=278|49=DMA_HUB|56=FIXCLIENT1|52=20231222-14:05:07.899|11=HS_17032538331|37=FXKN7sC0I|54=2|40=2|59=0|17=2023122229|150=A|39=A|38=2984|151=2984|14=0|6=0|44=197|60=20231222-14:03:53.000|22=4|48=US3390411052|207=XETR|15=EUR|55=[N/A]|10=066|
2023-12-22 15:05:07.904 [29] [FixSender] (DEBUG) Receiving 8=FIX.4.4|9=253|35=8|34=279|49=DMA_HUB|56=FIXCLIENT1|52=20231222-14:05:07.901|11=HS_17032538331|37=FXKN7sC0I|198=nPSJB6240d4|54=2|40=2|59=0|17=2023122230|150=0|39=0|38=2984|151=2984|14=0|6=0|44=197|60=20231222-14:05:07.900|22=4|48=US3390411052|207=XETR|15=EUR|55=[N/A]|10=242|
2023-12-22 15:05:23.169 [30] [FixSender] (DEBUG) Sending 8=FIX.4.4|9=58|35=0|49=FIXCLIENT1|56=DMA_HUB|34=255|52=20231222-14:05:23|10=090|
2023-12-22 15:05:28.050 [29] [FixSender] (DEBUG) Receiving 8=FIX.4.4|9=62|35=0|34=280|49=DMA_HUB|56=FIXCLIENT1|52=20231222-14:05:28.049|10=035|
2023-12-22 15:05:53.171 [30] [FixSender] (DEBUG) Sending 8=FIX.4.4|9=58|35=0|49=FIXCLIENT1|56=DMA_HUB|34=256|52=20231222-14:05:53|10=094|
2023-12-22 15:05:58.002 [29] [FixSender] (DEBUG) Receiving 8=FIX.4.4|9=62|35=0|34=281|49=DMA_HUB|56=FIXCLIENT1|52=20231222-14:05:58.001|10=027|
2023-12-22 15:06:23.183 [30] [FixSender] (DEBUG) Sending 8=FIX.4.4|9=58|35=0|49=FIXCLIENT1|56=DMA_HUB|34=257|52=20231222-14:06:23|10=093|
2023-12-22 15:06:27.959 [29] [FixSender] (DEBUG) Receiving 8=FIX.4.4|9=62|35=0|34=282|49=DMA_HUB|56=FIXCLIENT1|52=20231222-14:06:27.957|10=045|
2023-12-22 15:06:53.188 [30] [FixSender] (DEBUG) Sending 8=FIX.4.4|9=58|35=0|49=FIXCLIENT1|56=DMA_HUB|34=258|52=20231222-14:06:53|10=097|
2023-12-22 15:06:57.911 [29] [FixSender] (DEBUG) Receiving 8=FIX.4.4|9=62|35=0|34=283|49=DMA_HUB|56=FIXCLIENT1|52=20231222-14:06:57.909|10=046|
2023-12-22 15:07:05.575 [34] [FixSender] (DEBUG) Sending 8=FIX.4.4|9=197|35=D|49=FIXCLIENT1|56=DMA_HUB|34=259|52=20231222-14:07:05|21=1|11=HS_17032540252|38=475|55=E:07G@XETR|54=2|60=20231222-14:07:05|40=2|59=0|44=197.111|48=US3390411052|22=4|15=EUR|207=XETR|1=bram_123|10=077|
2023-12-22 15:07:05.577 [29] [FixSender] (DEBUG) Receiving 8=FIX.4.4|9=239|35=8|34=284|49=DMA_HUB|56=FIXCLIENT1|52=20231222-14:07:05.576|11=HS_17032540252|37=FXLN7sC0I|54=2|40=2|59=0|17=2023122231|150=A|39=A|38=475|151=475|14=0|6=0|44=197.111|60=20231222-14:07:05.000|22=4|48=US3390411052|207=XETR|15=EUR|55=[N/A]|10=130|
2023-12-22 15:07:27.870 [29] [FixSender] (DEBUG) Receiving 8=FIX.4.4|9=62|35=0|34=285|49=DMA_HUB|56=FIXCLIENT1|52=20231222-14:07:27.868|10=050|
2023-12-22 15:07:35.586 [30] [FixSender] (DEBUG) Sending 8=FIX.4.4|9=58|35=0|49=FIXCLIENT1|56=DMA_HUB|34=260|52=20231222-14:07:35|10=091|
2023-12-22 15:07:54.220 [29] [FixSender] (DEBUG) Receiving 8=FIX.4.4|9=239|35=8|34=286|49=DMA_HUB|56=FIXCLIENT1|52=20231222-14:07:54.219|11=HS_17032540252|37=FXLN7sC0I|54=2|40=2|59=0|17=2023122232|150=A|39=A|38=475|151=475|14=0|6=0|44=197.111|60=20231222-14:07:05.000|22=4|48=US3390411052|207=XETR|15=EUR|55=[N/A]|10=131|
2023-12-22 15:07:57.809 [29] [FixSender] (DEBUG) Receiving 8=FIX.4.4|9=62|35=0|34=287|49=DMA_HUB|56=FIXCLIENT1|52=20231222-14:07:57.807|10=048|
2023-12-22 15:08:05.602 [30] [FixSender] (DEBUG) Sending 8=FIX.4.4|9=58|35=0|49=FIXCLIENT1|56=DMA_HUB|34=261|52=20231222-14:08:05|10=090|
2023-12-22 15:08:12.710 [29] [FixSender] (DEBUG) Receiving 8=FIX.4.4|9=238|35=8|34=288|49=DMA_HUB|56=FIXCLIENT1|52=20231222-14:08:12.709|11=HS_17032540252|37=FXLN7sC0I|54=2|40=2|59=0|17=2023122233|150=A|39=A|38=475|151=475|14=0|6=0|44=197.11|60=20231222-14:07:05.000|22=4|48=US3390411052|207=XETR|15=EUR|55=[N/A]|10=083|
2023-12-22 15:08:27.768 [29] [FixSender] (DEBUG) Receiving 8=FIX.4.4|9=62|35=0|34=289|49=DMA_HUB|56=FIXCLIENT1|52=20231222-14:08:27.768|10=054|
2023-12-22 15:08:35.607 [30] [FixSender] (DEBUG) Sending 8=FIX.4.4|9=58|35=0|49=FIXCLIENT1|56=DMA_HUB|34=262|52=20231222-14:08:35|10=094|
2023-12-22 15:08:36.583 [29] [FixSender] (DEBUG) Receiving 8=FIX.4.4|9=235|35=8|34=290|49=DMA_HUB|56=FIXCLIENT1|52=20231222-14:08:36.582|11=HS_17032540252|37=FXLN7sC0I|54=2|40=2|59=0|17=2023122234|150=A|39=A|38=475|151=475|14=0|6=0|44=197|60=20231222-14:07:05.000|22=4|48=US3390411052|207=XETR|15=EUR|55=[N/A]|10=191|
2023-12-22 15:08:36.589 [29] [FixSender] (DEBUG) Receiving 8=FIX.4.4|9=251|35=8|34=291|49=DMA_HUB|56=FIXCLIENT1|52=20231222-14:08:36.584|11=HS_17032540252|37=FXLN7sC0I|198=nPSJB63aaea|54=2|40=2|59=0|17=2023122235|150=0|39=0|38=475|151=475|14=0|6=0|44=197|60=20231222-14:08:36.583|22=4|48=US3390411052|207=XETR|15=EUR|55=[N/A]|10=034|
2023-12-22 15:08:57.721 [29] [FixSender] (DEBUG) Receiving 8=FIX.4.4|9=62|35=0|34=292|49=DMA_HUB|56=FIXCLIENT1|52=20231222-14:08:57.720|10=039|
2023-12-22 15:09:05.614 [30] [FixSender] (DEBUG) Sending 8=FIX.4.4|9=58|35=0|49=FIXCLIENT1|56=DMA_HUB|34=263|52=20231222-14:09:05|10=093|
2023-12-22 15:09:27.665 [29] [FixSender] (DEBUG) Receiving 8=FIX.4.4|9=62|35=0|34=293|49=DMA_HUB|56=FIXCLIENT1|52=20231222-14:09:27.664|10=045|
2023-12-22 15:09:35.630 [30] [FixSender] (DEBUG) Sending 8=FIX.4.4|9=58|35=0|49=FIXCLIENT1|56=DMA_HUB|34=264|52=20231222-14:09:35|10=097|
2023-12-22 15:09:57.626 [29] [FixSender] (DEBUG) Receiving 8=FIX.4.4|9=62|35=0|34=294|49=DMA_HUB|56=FIXCLIENT1|52=20231222-14:09:57.625|10=046|
2023-12-22 15:10:05.636 [30] [FixSender] (DEBUG) Sending 8=FIX.4.4|9=58|35=0|49=FIXCLIENT1|56=DMA_HUB|34=265|52=20231222-14:10:05|10=087|
2023-12-22 15:10:27.568 [29] [FixSender] (DEBUG) Receiving 8=FIX.4.4|9=62|35=0|34=295|49=DMA_HUB|56=FIXCLIENT1|52=20231222-14:10:27.567|10=041|
2023-12-22 15:10:35.647 [30] [FixSender] (DEBUG) Sending 8=FIX.4.4|9=58|35=0|49=FIXCLIENT1|56=DMA_HUB|34=266|52=20231222-14:10:35|10=091|
2023-12-22 15:10:57.518 [29] [FixSender] (DEBUG) Receiving 8=FIX.4.4|9=62|35=0|34=296|49=DMA_HUB|56=FIXCLIENT1|52=20231222-14:10:57.517|10=040|
2023-12-22 15:11:05.653 [30] [FixSender] (DEBUG) Sending 8=FIX.4.4|9=58|35=0|49=FIXCLIENT1|56=DMA_HUB|34=267|52=20231222-14:11:05|10=090|
2023-12-22 15:11:27.475 [29] [FixSender] (DEBUG) Receiving 8=FIX.4.4|9=62|35=0|34=297|49=DMA_HUB|56=FIXCLIENT1|52=20231222-14:11:27.474|10=041|
2023-12-22 15:11:35.656 [30] [FixSender] (DEBUG) Sending 8=FIX.4.4|9=58|35=0|49=FIXCLIENT1|56=DMA_HUB|34=268|52=20231222-14:11:35|10=094|
2023-12-22 15:11:57.425 [29] [FixSender] (DEBUG) Receiving 8=FIX.4.4|9=62|35=0|34=298|49=DMA_HUB|56=FIXCLIENT1|52=20231222-14:11:57.424|10=040|
2023-12-22 15:12:05.672 [30] [FixSender] (DEBUG) Sending 8=FIX.4.4|9=58|35=0|49=FIXCLIENT1|56=DMA_HUB|34=269|52=20231222-14:12:05|10=093|
2023-12-22 15:12:27.378 [29] [FixSender] (DEBUG) Receiving 8=FIX.4.4|9=62|35=0|34=299|49=DMA_HUB|56=FIXCLIENT1|52=20231222-14:12:27.377|10=046|
2023-12-22 15:12:35.684 [30] [FixSender] (DEBUG) Sending 8=FIX.4.4|9=58|35=0|49=FIXCLIENT1|56=DMA_HUB|34=270|52=20231222-14:12:35|10=088|
2023-12-22 15:12:57.337 [29] [FixSender] (DEBUG) Receiving 8=FIX.4.4|9=62|35=0|34=300|49=DMA_HUB|56=FIXCLIENT1|52=20231222-14:12:57.335|10=026|
2023-12-22 15:13:05.690 [30] [FixSender] (DEBUG) Sending 8=FIX.4.4|9=58|35=0|49=FIXCLIENT1|56=DMA_HUB|34=271|52=20231222-14:13:05|10=087|
2023-12-22 15:13:27.284 [29] [FixSender] (DEBUG) Receiving 8=FIX.4.4|9=62|35=0|34=301|49=DMA_HUB|56=FIXCLIENT1|52=20231222-14:13:27.284|10=028|
2023-12-22 15:13:35.704 [30] [FixSender] (DEBUG) Sending 8=FIX.4.4|9=58|35=0|49=FIXCLIENT1|56=DMA_HUB|34=272|52=20231222-14:13:35|10=091|
2023-12-22 15:13:57.242 [29] [FixSender] (DEBUG) Receiving 8=FIX.4.4|9=62|35=0|34=302|49=DMA_HUB|56=FIXCLIENT1|52=20231222-14:13:57.240|10=024|
2023-12-22 15:14:05.709 [30] [FixSender] (DEBUG) Sending 8=FIX.4.4|9=58|35=0|49=FIXCLIENT1|56=DMA_HUB|34=273|52=20231222-14:14:05|10=090|
2023-12-22 15:14:27.194 [29] [FixSender] (DEBUG) Receiving 8=FIX.4.4|9=62|35=0|34=303|49=DMA_HUB|56=FIXCLIENT1|52=20231222-14:14:27.194|10=031|
2023-12-22 15:14:35.721 [30] [FixSender] (DEBUG) Sending 8=FIX.4.4|9=58|35=0|49=FIXCLIENT1|56=DMA_HUB|34=274|52=20231222-14:14:35|10=094|
2023-12-22 15:14:57.146 [29] [FixSender] (DEBUG) Receiving 8=FIX.4.4|9=62|35=0|34=304|49=DMA_HUB|56=FIXCLIENT1|52=20231222-14:14:57.146|10=032|
2023-12-22 15:15:05.727 [30] [FixSender] (DEBUG) Sending 8=FIX.4.4|9=58|35=0|49=FIXCLIENT1|56=DMA_HUB|34=275|52=20231222-14:15:05|10=093|
2023-12-22 15:15:27.099 [29] [FixSender] (DEBUG) Receiving 8=FIX.4.4|9=62|35=0|34=305|49=DMA_HUB|56=FIXCLIENT1|52=20231222-14:15:27.098|10=037|
2023-12-22 15:15:35.743 [30] [FixSender] (DEBUG) Sending 8=FIX.4.4|9=58|35=0|49=FIXCLIENT1|56=DMA_HUB|34=276|52=20231222-14:15:35|10=097|
2023-12-22 15:15:57.043 [29] [FixSender] (DEBUG) Receiving 8=FIX.4.4|9=62|35=0|34=306|49=DMA_HUB|56=FIXCLIENT1|52=20231222-14:15:57.041|10=029|
2023-12-22 15:16:05.748 [30] [FixSender] (DEBUG) Sending 8=FIX.4.4|9=58|35=0|49=FIXCLIENT1|56=DMA_HUB|34=277|52=20231222-14:16:05|10=096|
2023-12-22 15:16:27.002 [29] [FixSender] (DEBUG) Receiving 8=FIX.4.4|9=62|35=0|34=307|49=DMA_HUB|56=FIXCLIENT1|52=20231222-14:16:27.001|10=024|
2023-12-22 15:16:35.757 [30] [FixSender] (DEBUG) Sending 8=FIX.4.4|9=58|35=0|49=FIXCLIENT1|56=DMA_HUB|34=278|52=20231222-14:16:35|10=100|
2023-12-22 15:16:56.951 [29] [FixSender] (DEBUG) Receiving 8=FIX.4.4|9=62|35=0|34=308|49=DMA_HUB|56=FIXCLIENT1|52=20231222-14:16:56.950|10=040|
2023-12-22 15:17:05.771 [30] [FixSender] (DEBUG) Sending 8=FIX.4.4|9=58|35=0|49=FIXCLIENT1|56=DMA_HUB|34=279|52=20231222-14:17:05|10=099|
2023-12-22 15:17:26.899 [29] [FixSender] (DEBUG) Receiving 8=FIX.4.4|9=62|35=0|34=309|49=DMA_HUB|56=FIXCLIENT1|52=20231222-14:17:26.898|10=050|
2023-12-22 15:17:35.780 [30] [FixSender] (DEBUG) Sending 8=FIX.4.4|9=58|35=0|49=FIXCLIENT1|56=DMA_HUB|34=280|52=20231222-14:17:35|10=094|
2023-12-22 15:17:56.848 [29] [FixSender] (DEBUG) Receiving 8=FIX.4.4|9=62|35=0|34=310|49=DMA_HUB|56=FIXCLIENT1|52=20231222-14:17:56.847|10=039|
2023-12-22 15:18:05.790 [30] [FixSender] (DEBUG) Sending 8=FIX.4.4|9=58|35=0|49=FIXCLIENT1|56=DMA_HUB|34=281|52=20231222-14:18:05|10=093|
2023-12-22 15:18:26.811 [29] [FixSender] (DEBUG) Receiving 8=FIX.4.4|9=62|35=0|34=311|49=DMA_HUB|56=FIXCLIENT1|52=20231222-14:18:26.810|10=028|
2023-12-22 15:18:35.795 [30] [FixSender] (DEBUG) Sending 8=FIX.4.4|9=58|35=0|49=FIXCLIENT1|56=DMA_HUB|34=282|52=20231222-14:18:35|10=097|
2023-12-22 15:18:56.753 [29] [FixSender] (DEBUG) Receiving 8=FIX.4.4|9=62|35=0|34=312|49=DMA_HUB|56=FIXCLIENT1|52=20231222-14:18:56.751|10=036|
2023-12-22 15:19:05.801 [30] [FixSender] (DEBUG) Sending 8=FIX.4.4|9=58|35=0|49=FIXCLIENT1|56=DMA_HUB|34=283|52=20231222-14:19:05|10=096|
2023-12-22 15:19:26.714 [29] [FixSender] (DEBUG) Receiving 8=FIX.4.4|9=62|35=0|34=313|49=DMA_HUB|56=FIXCLIENT1|52=20231222-14:19:26.712|10=032|
2023-12-22 15:19:35.808 [30] [FixSender] (DEBUG) Sending 8=FIX.4.4|9=58|35=0|49=FIXCLIENT1|56=DMA_HUB|34=284|52=20231222-14:19:35|10=100|
2023-12-22 15:19:56.662 [29] [FixSender] (DEBUG) Receiving 8=FIX.4.4|9=62|35=0|34=314|49=DMA_HUB|56=FIXCLIENT1|52=20231222-14:19:56.662|10=040|
2023-12-22 15:20:05.810 [30] [FixSender] (DEBUG) Sending 8=FIX.4.4|9=58|35=0|49=FIXCLIENT1|56=DMA_HUB|34=285|52=20231222-14:20:05|10=090|
2023-12-22 15:20:26.606 [29] [FixSender] (DEBUG) Receiving 8=FIX.4.4|9=62|35=0|34=315|49=DMA_HUB|56=FIXCLIENT1|52=20231222-14:20:26.605|10=027|
2023-12-22 15:20:35.815 [30] [FixSender] (DEBUG) Sending 8=FIX.4.4|9=58|35=0|49=FIXCLIENT1|56=DMA_HUB|34=286|52=20231222-14:20:35|10=094|
2023-12-22 15:20:56.567 [29] [FixSender] (DEBUG) Receiving 8=FIX.4.4|9=62|35=0|34=316|49=DMA_HUB|56=FIXCLIENT1|52=20231222-14:20:56.565|10=036|
2023-12-22 15:21:05.822 [30] [FixSender] (DEBUG) Sending 8=FIX.4.4|9=58|35=0|49=FIXCLIENT1|56=DMA_HUB|34=287|52=20231222-14:21:05|10=093|
2023-12-22 15:21:26.515 [29] [FixSender] (DEBUG) Receiving 8=FIX.4.4|9=62|35=0|34=317|49=DMA_HUB|56=FIXCLIENT1|52=20231222-14:21:26.514|10=029|
2023-12-22 15:21:35.835 [30] [FixSender] (DEBUG) Sending 8=FIX.4.4|9=58|35=0|49=FIXCLIENT1|56=DMA_HUB|34=288|52=20231222-14:21:35|10=097|
2023-12-22 15:21:56.478 [29] [FixSender] (DEBUG) Receiving 8=FIX.4.4|9=62|35=0|34=318|49=DMA_HUB|56=FIXCLIENT1|52=20231222-14:21:56.476|10=040|
2023-12-22 15:22:05.849 [30] [FixSender] (DEBUG) Sending 8=FIX.4.4|9=58|35=0|49=FIXCLIENT1|56=DMA_HUB|34=289|52=20231222-14:22:05|10=096|
2023-12-22 15:22:26.425 [29] [FixSender] (DEBUG) Receiving 8=FIX.4.4|9=62|35=0|34=319|49=DMA_HUB|56=FIXCLIENT1|52=20231222-14:22:26.424|10=032|
2023-12-22 15:22:35.861 [30] [FixSender] (DEBUG) Sending 8=FIX.4.4|9=58|35=0|49=FIXCLIENT1|56=DMA_HUB|34=290|52=20231222-14:22:35|10=091|
2023-12-22 15:22:56.372 [29] [FixSender] (DEBUG) Receiving 8=FIX.4.4|9=62|35=0|34=320|49=DMA_HUB|56=FIXCLIENT1|52=20231222-14:22:56.371|10=028|
2023-12-22 15:23:05.876 [30] [FixSender] (DEBUG) Sending 8=FIX.4.4|9=58|35=0|49=FIXCLIENT1|56=DMA_HUB|34=291|52=20231222-14:23:05|10=090|
2023-12-22 15:23:26.330 [29] [FixSender] (DEBUG) Receiving 8=FIX.4.4|9=62|35=0|34=321|49=DMA_HUB|56=FIXCLIENT1|52=20231222-14:23:26.330|10=022|
2023-12-22 15:23:35.880 [30] [FixSender] (DEBUG) Sending 8=FIX.4.4|9=58|35=0|49=FIXCLIENT1|56=DMA_HUB|34=292|52=20231222-14:23:35|10=094|
2023-12-22 15:23:56.273 [29] [FixSender] (DEBUG) Receiving 8=FIX.4.4|9=62|35=0|34=322|49=DMA_HUB|56=FIXCLIENT1|52=20231222-14:23:56.272|10=031|
2023-12-22 15:24:05.883 [30] [FixSender] (DEBUG) Sending 8=FIX.4.4|9=58|35=0|49=FIXCLIENT1|56=DMA_HUB|34=293|52=20231222-14:24:05|10=093|
2023-12-22 15:24:26.225 [29] [FixSender] (DEBUG) Receiving 8=FIX.4.4|9=62|35=0|34=323|49=DMA_HUB|56=FIXCLIENT1|52=20231222-14:24:26.224|10=027|
2023-12-22 15:24:35.894 [30] [FixSender] (DEBUG) Sending 8=FIX.4.4|9=58|35=0|49=FIXCLIENT1|56=DMA_HUB|34=294|52=20231222-14:24:35|10=097|
2023-12-22 15:24:56.187 [29] [FixSender] (DEBUG) Receiving 8=FIX.4.4|9=62|35=0|34=324|49=DMA_HUB|56=FIXCLIENT1|52=20231222-14:24:56.187|10=039|
2023-12-22 15:25:05.907 [30] [FixSender] (DEBUG) Sending 8=FIX.4.4|9=58|35=0|49=FIXCLIENT1|56=DMA_HUB|34=295|52=20231222-14:25:05|10=096|
2023-12-22 15:25:26.136 [29] [FixSender] (DEBUG) Receiving 8=FIX.4.4|9=62|35=0|34=325|49=DMA_HUB|56=FIXCLIENT1|52=20231222-14:25:26.135|10=031|
2023-12-22 15:25:35.925 [30] [FixSender] (DEBUG) Sending 8=FIX.4.4|9=58|35=0|49=FIXCLIENT1|56=DMA_HUB|34=296|52=20231222-14:25:35|10=100|
2023-12-22 15:25:56.081 [29] [FixSender] (DEBUG) Receiving 8=FIX.4.4|9=62|35=0|34=326|49=DMA_HUB|56=FIXCLIENT1|52=20231222-14:25:56.079|10=042|
2023-12-22 15:26:05.938 [30] [FixSender] (DEBUG) Sending 8=FIX.4.4|9=58|35=0|49=FIXCLIENT1|56=DMA_HUB|34=297|52=20231222-14:26:05|10=099|
2023-12-22 15:26:26.039 [29] [FixSender] (DEBUG) Receiving 8=FIX.4.4|9=62|35=0|34=327|49=DMA_HUB|56=FIXCLIENT1|52=20231222-14:26:26.038|10=036|
2023-12-22 15:26:35.946 [30] [FixSender] (DEBUG) Sending 8=FIX.4.4|9=58|35=0|49=FIXCLIENT1|56=DMA_HUB|34=298|52=20231222-14:26:35|10=103|
2023-12-22 15:26:55.989 [29] [FixSender] (DEBUG) Receiving 8=FIX.4.4|9=62|35=0|34=328|49=DMA_HUB|56=FIXCLIENT1|52=20231222-14:26:55.988|10=053|
2023-12-22 15:27:05.955 [30] [FixSender] (DEBUG) Sending 8=FIX.4.4|9=58|35=0|49=FIXCLIENT1|56=DMA_HUB|34=299|52=20231222-14:27:05|10=102|
2023-12-22 15:27:25.950 [29] [FixSender] (DEBUG) Receiving 8=FIX.4.4|9=62|35=0|34=329|49=DMA_HUB|56=FIXCLIENT1|52=20231222-14:27:25.948|10=048|
2023-12-22 15:27:35.957 [30] [FixSender] (DEBUG) Sending 8=FIX.4.4|9=58|35=0|49=FIXCLIENT1|56=DMA_HUB|34=300|52=20231222-14:27:35|10=088|
2023-12-22 15:27:55.890 [29] [FixSender] (DEBUG) Receiving 8=FIX.4.4|9=62|35=0|34=330|49=DMA_HUB|56=FIXCLIENT1|52=20231222-14:27:55.888|10=046|
2023-12-22 15:28:05.973 [30] [FixSender] (DEBUG) Sending 8=FIX.4.4|9=58|35=0|49=FIXCLIENT1|56=DMA_HUB|34=301|52=20231222-14:28:05|10=087|
2023-12-22 15:28:25.839 [29] [FixSender] (DEBUG) Receiving 8=FIX.4.4|9=62|35=0|34=331|49=DMA_HUB|56=FIXCLIENT1|52=20231222-14:28:25.837|10=039|
2023-12-22 15:28:35.990 [30] [FixSender] (DEBUG) Sending 8=FIX.4.4|9=58|35=0|49=FIXCLIENT1|56=DMA_HUB|34=302|52=20231222-14:28:35|10=091|
2023-12-22 15:28:55.792 [29] [FixSender] (DEBUG) Receiving 8=FIX.4.4|9=62|35=0|34=332|49=DMA_HUB|56=FIXCLIENT1|52=20231222-14:28:55.791|10=042|
2023-12-22 15:29:06.004 [30] [FixSender] (DEBUG) Sending 8=FIX.4.4|9=58|35=0|49=FIXCLIENT1|56=DMA_HUB|34=303|52=20231222-14:29:06|10=091|
2023-12-22 15:29:25.749 [29] [FixSender] (DEBUG) Receiving 8=FIX.4.4|9=62|35=0|34=333|49=DMA_HUB|56=FIXCLIENT1|52=20231222-14:29:25.748|10=043|
2023-12-22 15:29:36.018 [30] [FixSender] (DEBUG) Sending 8=FIX.4.4|9=58|35=0|49=FIXCLIENT1|56=DMA_HUB|34=304|52=20231222-14:29:36|10=095|
2023-12-22 15:29:55.709 [29] [FixSender] (DEBUG) Receiving 8=FIX.4.4|9=62|35=0|34=334|49=DMA_HUB|56=FIXCLIENT1|52=20231222-14:29:55.708|10=043|
2023-12-22 15:30:06.022 [30] [FixSender] (DEBUG) Sending 8=FIX.4.4|9=58|35=0|49=FIXCLIENT1|56=DMA_HUB|34=305|52=20231222-14:30:06|10=085|
2023-12-22 15:30:25.661 [29] [FixSender] (DEBUG) Receiving 8=FIX.4.4|9=62|35=0|34=335|49=DMA_HUB|56=FIXCLIENT1|52=20231222-14:30:25.659|10=038|
