2023-11-12 14:44:24.866 [1] [Fixsender] (INFO) (c) 2001-2011 ullink SAS. FixSender. Release 1.11.
2023-11-12 14:44:39.732 [29] [FixSender] (INFO) try to connect to : localhost port :12345
2023-11-12 14:44:39.749 [29] [FixSender] (INFO) physical cnx initiated
2023-11-12 14:44:39.758 [29] [FixSender] (DEBUG) Sending 8=FIX.4.4|9=88|35=A|49=FIXCLIENT1|56=DMA_HUB|34=526|52=20231112-13:44:39|98=0|108=30|95=9|96=null/null|10=198|
2023-11-12 14:44:39.765 [29] [FixSender] (DEBUG) Receiving 8=FIX.4.4|9=72|35=A|34=1|49=DMA_HUB|56=FIXCLIENT1|52=20231112-13:44:39.761|108=30|98=0|10=232|
2023-11-12 14:44:39.767 [29] [FixSender] (DEBUG) Sending 8=FIX.4.4|9=110|35=5|49=FIXCLIENT1|56=DMA_HUB|34=527|52=20231112-13:44:39|58=MsgSeqNum expected 535, but MsgSeqNum received 1|10=214|
2023-11-12 14:44:39.768 [29] [FixSender] (INFO) physical cnx finished Connection reset by peer
2023-11-12 14:44:39.769 [29] [FixSender] (WARNING) Disconnected
2023-11-12 14:44:40.987 [32] [FixSender] (INFO) try to connect to : localhost port :12345
2023-11-12 14:44:40.988 [32] [FixSender] (INFO) physical cnx initiated
2023-11-12 14:44:40.991 [32] [FixSender] (DEBUG) Sending 8=FIX.4.4|9=88|35=A|49=FIXCLIENT1|56=DMA_HUB|34=528|52=20231112-13:44:40|98=0|108=30|95=9|96=null/null|10=192|
2023-11-12 14:44:40.996 [32] [FixSender] (DEBUG) Receiving 8=FIX.4.4|9=72|35=A|34=4|49=DMA_HUB|56=FIXCLIENT1|52=20231112-13:44:40.991|108=30|98=0|10=232|
2023-11-12 14:44:40.997 [32] [FixSender] (DEBUG) Sending 8=FIX.4.4|9=110|35=5|49=FIXCLIENT1|56=DMA_HUB|34=529|52=20231112-13:44:40|58=MsgSeqNum expected 535, but MsgSeqNum received 4|10=211|
2023-11-12 14:44:40.998 [32] [FixSender] (INFO) physical cnx finished Connection reset by peer
2023-11-12 14:44:40.999 [32] [FixSender] (WARNING) Disconnected
2023-11-12 14:44:46.747 [35] [FixSender] (INFO) try to connect to : localhost port :12345
2023-11-12 14:44:46.748 [35] [FixSender] (INFO) physical cnx initiated
2023-11-12 14:44:46.750 [35] [FixSender] (DEBUG) Sending 8=FIX.4.4|9=88|35=A|49=FIXCLIENT1|56=DMA_HUB|34=530|52=20231112-13:44:46|98=0|108=30|95=9|96=null/null|10=191|
2023-11-12 14:44:46.754 [35] [FixSender] (DEBUG) Receiving 8=FIX.4.4|9=72|35=A|34=7|49=DMA_HUB|56=FIXCLIENT1|52=20231112-13:44:46.750|108=30|98=0|10=234|
2023-11-12 14:44:46.755 [35] [FixSender] (DEBUG) Sending 8=FIX.4.4|9=110|35=5|49=FIXCLIENT1|56=DMA_HUB|34=531|52=20231112-13:44:46|58=MsgSeqNum expected 535, but MsgSeqNum received 7|10=213|
2023-11-12 14:44:46.756 [35] [FixSender] (INFO) physical cnx finished Connection reset by peer
2023-11-12 14:44:46.757 [35] [FixSender] (WARNING) Disconnected
2023-11-12 14:44:47.821 [38] [FixSender] (INFO) try to connect to : localhost port :12345
2023-11-12 14:44:47.822 [38] [FixSender] (INFO) physical cnx initiated
2023-11-12 14:44:47.824 [38] [FixSender] (DEBUG) Sending 8=FIX.4.4|9=88|35=A|49=FIXCLIENT1|56=DMA_HUB|34=532|52=20231112-13:44:47|98=0|108=30|95=9|96=null/null|10=194|
2023-11-12 14:44:47.828 [38] [FixSender] (DEBUG) Receiving 8=FIX.4.4|9=73|35=A|34=10|49=DMA_HUB|56=FIXCLIENT1|52=20231112-13:44:47.825|108=30|98=0|10=025|
2023-11-12 14:44:47.829 [38] [FixSender] (DEBUG) Sending 8=FIX.4.4|9=111|35=5|49=FIXCLIENT1|56=DMA_HUB|34=533|52=20231112-13:44:47|58=MsgSeqNum expected 535, but MsgSeqNum received 10|10=003|
2023-11-12 14:44:47.830 [38] [FixSender] (INFO) physical cnx finished Connection reset by peer
2023-11-12 14:44:47.830 [38] [FixSender] (WARNING) Disconnected
2023-11-12 14:45:11.240 [41] [FixSender] (INFO) try to connect to : localhost port :12345
2023-11-12 14:45:11.242 [41] [FixSender] (INFO) physical cnx initiated
2023-11-12 14:45:11.245 [41] [FixSender] (DEBUG) Sending 8=FIX.4.4|9=88|35=A|49=FIXCLIENT1|56=DMA_HUB|34=534|52=20231112-13:45:11|98=0|108=30|95=9|96=null/null|10=188|
2023-11-12 14:45:11.247 [41] [FixSender] (DEBUG) Receiving 8=FIX.4.4|9=73|35=A|34=13|49=DMA_HUB|56=FIXCLIENT1|52=20231112-13:45:11.245|108=30|98=0|10=016|
2023-11-12 14:45:11.247 [41] [FixSender] (DEBUG) Sending 8=FIX.4.4|9=111|35=5|49=FIXCLIENT1|56=DMA_HUB|34=535|52=20231112-13:45:11|58=MsgSeqNum expected 535, but MsgSeqNum received 13|10=000|
2023-11-12 14:45:11.251 [41] [FixSender] (INFO) physical cnx finished Connection reset by peer
2023-11-12 14:45:11.252 [41] [FixSender] (WARNING) Disconnected
2023-11-12 14:47:44.940 [44] [FixSender] (INFO) try to connect to : localhost port :12345
2023-11-12 14:47:44.942 [44] [FixSender] (INFO) physical cnx initiated
2023-11-12 14:47:44.945 [44] [FixSender] (DEBUG) Sending 8=FIX.4.4|9=88|35=A|49=FIXCLIENT1|56=DMA_HUB|34=536|52=20231112-13:47:44|98=0|108=30|95=9|96=null/null|10=198|
2023-11-12 14:47:44.950 [44] [FixSender] (DEBUG) Receiving 8=FIX.4.4|9=73|35=A|34=16|49=DMA_HUB|56=FIXCLIENT1|52=20231112-13:47:44.945|108=30|98=0|10=034|
2023-11-12 14:47:44.951 [44] [FixSender] (DEBUG) Sending 8=FIX.4.4|9=111|35=5|49=FIXCLIENT1|56=DMA_HUB|34=537|52=20231112-13:47:44|58=MsgSeqNum expected 535, but MsgSeqNum received 16|10=013|
2023-11-12 14:47:44.953 [44] [FixSender] (INFO) physical cnx finished Connection reset by peer
2023-11-12 14:47:44.954 [44] [FixSender] (WARNING) Disconnected
2023-11-12 14:48:26.575 [47] [FixSender] (INFO) try to connect to : localhost port :12345
2023-11-12 14:48:26.576 [47] [FixSender] (INFO) physical cnx initiated
2023-11-12 14:48:26.578 [47] [FixSender] (DEBUG) Sending 8=FIX.4.4|9=88|35=A|49=FIXCLIENT1|56=DMA_HUB|34=538|52=20231112-13:48:26|98=0|108=30|95=9|96=null/null|10=201|
2023-11-12 14:48:26.582 [47] [FixSender] (DEBUG) Receiving 8=FIX.4.4|9=73|35=A|34=19|49=DMA_HUB|56=FIXCLIENT1|52=20231112-13:48:26.579|108=30|98=0|10=041|
2023-11-12 14:48:26.582 [47] [FixSender] (DEBUG) Sending 8=FIX.4.4|9=111|35=5|49=FIXCLIENT1|56=DMA_HUB|34=539|52=20231112-13:48:26|58=MsgSeqNum expected 535, but MsgSeqNum received 19|10=019|
2023-11-12 14:48:26.584 [47] [FixSender] (INFO) physical cnx finished Connection reset by peer
2023-11-12 14:48:26.585 [47] [FixSender] (WARNING) Disconnected
2023-11-12 14:48:27.540 [50] [FixSender] (INFO) try to connect to : localhost port :12345
2023-11-12 14:48:27.541 [50] [FixSender] (INFO) physical cnx initiated
2023-11-12 14:48:27.544 [50] [FixSender] (DEBUG) Sending 8=FIX.4.4|9=88|35=A|49=FIXCLIENT1|56=DMA_HUB|34=540|52=20231112-13:48:27|98=0|108=30|95=9|96=null/null|10=195|
2023-11-12 14:48:27.547 [50] [FixSender] (INFO) physical cnx finished Connection reset by peer
2023-11-12 14:48:27.548 [50] [FixSender] (WARNING) Disconnected
2023-11-12 14:48:27.718 [51] [FixSender] (INFO) try to connect to : localhost port :12345
2023-11-12 14:48:27.719 [51] [FixSender] (INFO) physical cnx initiated
2023-11-12 14:48:27.722 [51] [FixSender] (DEBUG) Sending 8=FIX.4.4|9=88|35=A|49=FIXCLIENT1|56=DMA_HUB|34=541|52=20231112-13:48:27|98=0|108=30|95=9|96=null/null|10=196|
2023-11-12 14:48:27.912 [52] [FixSender] (INFO) try to connect to : localhost port :12345
2023-11-12 14:48:27.913 [52] [FixSender] (INFO) physical cnx initiated
2023-11-12 14:48:27.917 [52] [FixSender] (DEBUG) Sending 8=FIX.4.4|9=88|35=A|49=FIXCLIENT1|56=DMA_HUB|34=542|52=20231112-13:48:27|98=0|108=30|95=9|96=null/null|10=197|
2023-11-12 14:48:28.090 [53] [FixSender] (INFO) try to connect to : localhost port :12345
2023-11-12 14:48:28.094 [53] [FixSender] (INFO) physical cnx initiated
2023-11-12 14:48:28.098 [53] [FixSender] (DEBUG) Sending 8=FIX.4.4|9=88|35=A|49=FIXCLIENT1|56=DMA_HUB|34=543|52=20231112-13:48:28|98=0|108=30|95=9|96=null/null|10=199|
2023-11-12 14:48:28.313 [54] [FixSender] (INFO) try to connect to : localhost port :12345
2023-11-12 14:48:28.314 [54] [FixSender] (INFO) physical cnx initiated
2023-11-12 14:48:28.316 [54] [FixSender] (DEBUG) Sending 8=FIX.4.4|9=88|35=A|49=FIXCLIENT1|56=DMA_HUB|34=544|52=20231112-13:48:28|98=0|108=30|95=9|96=null/null|10=200|
2023-11-12 14:48:28.556 [51] [FixSender] (DEBUG) Receiving 8=FIX.4.4|9=73|35=A|34=22|49=DMA_HUB|56=FIXCLIENT1|52=20231112-13:48:28.555|108=30|98=0|10=031|
2023-11-12 14:48:28.558 [51] [FixSender] (DEBUG) Sending 8=FIX.4.4|9=111|35=5|49=FIXCLIENT1|56=DMA_HUB|34=545|52=20231112-13:48:28|58=MsgSeqNum expected 535, but MsgSeqNum received 22|10=012|
2023-11-12 14:48:28.559 [51] [FixSender] (INFO) physical cnx finished Connection reset by peer
2023-11-12 14:48:28.560 [51] [FixSender] (WARNING) Disconnected
2023-11-12 14:48:28.561 [54] [FixSender] (INFO) physical cnx finished Connection reset by peer
2023-11-12 14:48:28.562 [52] [FixSender] (INFO) physical cnx finished Connection reset by peer
2023-11-12 14:48:28.562 [54] [FixSender] (WARNING) Disconnected
2023-11-12 14:48:28.563 [52] [FixSender] (WARNING) Disconnected
2023-11-12 14:48:29.573 [53] [FixSender] (INFO) physical cnx finished Connection reset by peer
2023-11-12 14:48:29.574 [53] [FixSender] (WARNING) Disconnected
2023-11-12 14:48:29.801 [57] [FixSender] (INFO) try to connect to : localhost port :12345
2023-11-12 14:48:29.802 [57] [FixSender] (INFO) physical cnx initiated
2023-11-12 14:48:29.805 [57] [FixSender] (DEBUG) Sending 8=FIX.4.4|9=88|35=A|49=FIXCLIENT1|56=DMA_HUB|34=546|52=20231112-13:48:29|98=0|108=30|95=9|96=null/null|10=203|
2023-11-12 14:48:31.605 [57] [FixSender] (INFO) physical cnx finished Connection reset by peer
2023-11-12 14:48:31.606 [57] [FixSender] (WARNING) Disconnected
2023-11-12 14:48:33.821 [58] [FixSender] (INFO) try to connect to : localhost port :12345
2023-11-12 14:48:33.822 [58] [FixSender] (INFO) physical cnx initiated
2023-11-12 14:48:33.824 [58] [FixSender] (DEBUG) Sending 8=FIX.4.4|9=88|35=A|49=FIXCLIENT1|56=DMA_HUB|34=547|52=20231112-13:48:33|98=0|108=30|95=9|96=null/null|10=199|
2023-11-12 14:48:33.826 [58] [FixSender] (INFO) physical cnx finished Connection reset by peer
2023-11-12 14:48:33.826 [58] [FixSender] (WARNING) Disconnected
2023-11-12 14:48:35.127 [59] [FixSender] (INFO) try to connect to : localhost port :12345
2023-11-12 14:48:35.127 [59] [FixSender] (INFO) physical cnx initiated
2023-11-12 14:48:35.130 [59] [FixSender] (DEBUG) Sending 8=FIX.4.4|9=88|35=A|49=FIXCLIENT1|56=DMA_HUB|34=548|52=20231112-13:48:35|98=0|108=30|95=9|96=null/null|10=202|
2023-11-12 14:48:35.132 [59] [FixSender] (INFO) physical cnx finished Connection reset by peer
2023-11-12 14:48:35.133 [59] [FixSender] (WARNING) Disconnected
2023-11-12 14:48:35.798 [60] [FixSender] (INFO) try to connect to : localhost port :12345
2023-11-12 14:48:35.799 [60] [FixSender] (INFO) physical cnx initiated
2023-11-12 14:48:35.801 [60] [FixSender] (DEBUG) Sending 8=FIX.4.4|9=88|35=A|49=FIXCLIENT1|56=DMA_HUB|34=549|52=20231112-13:48:35|98=0|108=30|95=9|96=null/null|10=203|
2023-11-12 14:48:35.973 [61] [FixSender] (INFO) try to connect to : localhost port :12345
2023-11-12 14:48:35.974 [61] [FixSender] (INFO) physical cnx initiated
2023-11-12 14:48:35.982 [61] [FixSender] (DEBUG) Sending 8=FIX.4.4|9=88|35=A|49=FIXCLIENT1|56=DMA_HUB|34=550|52=20231112-13:48:35|98=0|108=30|95=9|96=null/null|10=195|
2023-11-12 14:48:36.144 [60] [FixSender] (INFO) physical cnx finished Connection reset by peer
2023-11-12 14:48:36.145 [60] [FixSender] (WARNING) Disconnected
2023-11-12 14:48:36.146 [61] [FixSender] (INFO) physical cnx finished Connection reset by peer
2023-11-12 14:48:36.147 [61] [FixSender] (WARNING) Disconnected
2023-11-12 14:48:36.189 [62] [FixSender] (INFO) try to connect to : localhost port :12345
2023-11-12 14:48:36.189 [62] [FixSender] (INFO) physical cnx initiated
2023-11-12 14:48:36.191 [62] [FixSender] (DEBUG) Sending 8=FIX.4.4|9=88|35=A|49=FIXCLIENT1|56=DMA_HUB|34=551|52=20231112-13:48:36|98=0|108=30|95=9|96=null/null|10=197|
2023-11-12 14:48:38.174 [62] [FixSender] (INFO) physical cnx finished Connection reset by peer
2023-11-12 14:48:38.175 [62] [FixSender] (WARNING) Disconnected
2023-11-12 14:48:52.314 [64] [FixSender] (INFO) try to connect to : localhost port :12345
2023-11-12 14:48:52.315 [64] [FixSender] (INFO) physical cnx initiated
2023-11-12 14:48:52.318 [64] [FixSender] (DEBUG) Sending 8=FIX.4.4|9=86|35=A|49=FIXCLIENT1|56=DMA_HUB|34=1|52=20231112-13:48:52|98=0|108=30|95=9|96=null/null|10=087|
2023-11-12 14:48:52.319 [64] [FixSender] (INFO) physical cnx finished Connection reset by peer
2023-11-12 14:48:52.319 [64] [FixSender] (WARNING) Disconnected
2023-11-12 14:48:53.172 [65] [FixSender] (INFO) try to connect to : localhost port :12345
2023-11-12 14:48:53.173 [65] [FixSender] (INFO) physical cnx initiated
2023-11-12 14:48:53.179 [65] [FixSender] (DEBUG) Sending 8=FIX.4.4|9=86|35=A|49=FIXCLIENT1|56=DMA_HUB|34=2|52=20231112-13:48:53|98=0|108=30|95=9|96=null/null|10=089|
2023-11-12 14:48:53.329 [65] [FixSender] (INFO) physical cnx finished Connection reset by peer
2023-11-12 14:48:53.330 [65] [FixSender] (WARNING) Disconnected
2023-11-12 14:48:53.352 [66] [FixSender] (INFO) try to connect to : localhost port :12345
2023-11-12 14:48:53.352 [66] [FixSender] (INFO) physical cnx initiated
2023-11-12 14:48:53.354 [66] [FixSender] (DEBUG) Sending 8=FIX.4.4|9=86|35=A|49=FIXCLIENT1|56=DMA_HUB|34=3|52=20231112-13:48:53|98=0|108=30|95=9|96=null/null|10=090|
2023-11-12 14:48:53.530 [67] [FixSender] (INFO) try to connect to : localhost port :12345
2023-11-12 14:48:53.531 [67] [FixSender] (INFO) physical cnx initiated
2023-11-12 14:48:53.534 [67] [FixSender] (DEBUG) Sending 8=FIX.4.4|9=86|35=A|49=FIXCLIENT1|56=DMA_HUB|34=4|52=20231112-13:48:53|98=0|108=30|95=9|96=null/null|10=091|
2023-11-12 14:48:53.753 [68] [FixSender] (INFO) try to connect to : localhost port :12345
2023-11-12 14:48:53.754 [68] [FixSender] (INFO) physical cnx initiated
2023-11-12 14:48:53.756 [68] [FixSender] (DEBUG) Sending 8=FIX.4.4|9=86|35=A|49=FIXCLIENT1|56=DMA_HUB|34=5|52=20231112-13:48:53|98=0|108=30|95=9|96=null/null|10=092|
2023-11-12 14:48:54.345 [68] [FixSender] (INFO) physical cnx finished Connection reset by peer
2023-11-12 14:48:54.347 [68] [FixSender] (WARNING) Disconnected
2023-11-12 14:48:54.350 [66] [FixSender] (INFO) physical cnx finished Connection reset by peer
2023-11-12 14:48:54.351 [66] [FixSender] (WARNING) Disconnected
2023-11-12 14:48:55.345 [69] [FixSender] (INFO) try to connect to : localhost port :12345
2023-11-12 14:48:55.346 [67] [FixSender] (INFO) physical cnx finished Connection reset by peer
2023-11-12 14:48:55.346 [69] [FixSender] (INFO) physical cnx initiated
2023-11-12 14:48:55.347 [67] [FixSender] (WARNING) Disconnected
2023-11-12 14:48:55.353 [69] [FixSender] (DEBUG) Sending 8=FIX.4.4|9=86|35=A|49=FIXCLIENT1|56=DMA_HUB|34=6|52=20231112-13:48:55|98=0|108=30|95=9|96=null/null|10=095|
2023-11-12 14:48:57.375 [69] [FixSender] (INFO) physical cnx finished Connection reset by peer
2023-11-12 14:48:57.376 [69] [FixSender] (WARNING) Disconnected
2023-11-12 14:49:35.193 [70] [FixSender] (INFO) try to connect to : localhost port :12345
2023-11-12 14:49:35.193 [70] [FixSender] (INFO) physical cnx initiated
2023-11-12 14:49:35.193 [70] [FixSender] (DEBUG) Sending 8=FIX.4.4|9=86|35=A|49=FIXCLIENT1|56=DMA_HUB|34=7|52=20231112-13:49:35|98=0|108=30|95=9|96=null/null|10=095|
2023-11-12 14:49:35.193 [70] [FixSender] (INFO) physical cnx finished Connection reset by peer
2023-11-12 14:49:35.193 [70] [FixSender] (WARNING) Disconnected
2023-11-12 14:49:36.525 [71] [FixSender] (INFO) try to connect to : localhost port :12345
2023-11-12 14:49:36.525 [71] [FixSender] (INFO) physical cnx initiated
2023-11-12 14:49:36.525 [71] [FixSender] (DEBUG) Sending 8=FIX.4.4|9=86|35=A|49=FIXCLIENT1|56=DMA_HUB|34=8|52=20231112-13:49:36|98=0|108=30|95=9|96=null/null|10=097|
2023-11-12 14:49:36.525 [71] [FixSender] (INFO) physical cnx finished Connection reset by peer
2023-11-12 14:49:36.525 [71] [FixSender] (WARNING) Disconnected
2023-11-12 14:49:36.742 [72] [FixSender] (INFO) try to connect to : localhost port :12345
2023-11-12 14:49:36.742 [72] [FixSender] (INFO) physical cnx initiated
2023-11-12 14:49:36.750 [72] [FixSender] (DEBUG) Sending 8=FIX.4.4|9=86|35=A|49=FIXCLIENT1|56=DMA_HUB|34=9|52=20231112-13:49:36|98=0|108=30|95=9|96=null/null|10=098|
2023-11-12 14:49:37.142 [73] [FixSender] (INFO) try to connect to : localhost port :12345
2023-11-12 14:49:37.142 [73] [FixSender] (INFO) physical cnx initiated
2023-11-12 14:49:37.146 [73] [FixSender] (DEBUG) Sending 8=FIX.4.4|9=87|35=A|49=FIXCLIENT1|56=DMA_HUB|34=10|52=20231112-13:49:37|98=0|108=30|95=9|96=null/null|10=140|
2023-11-12 14:49:37.544 [73] [FixSender] (INFO) physical cnx finished Connection reset by peer
2023-11-12 14:49:37.545 [72] [FixSender] (INFO) physical cnx finished Connection reset by peer
2023-11-12 14:49:37.546 [73] [FixSender] (WARNING) Disconnected
2023-11-12 14:49:37.549 [72] [FixSender] (WARNING) Disconnected
2023-11-12 14:50:22.076 [74] [FixSender] (INFO) Ready to listen connection on port : 23456
2023-11-12 14:51:36.905 [1] [Fixsender] (INFO) (c) 2001-2011 ullink SAS. FixSender. Release 1.11.
2023-11-12 14:51:42.842 [30] [FixSender] (INFO) try to connect to : localhost port :12345
2023-11-12 14:51:42.856 [30] [FixSender] (INFO) physical cnx initiated
2023-11-12 14:51:42.869 [30] [FixSender] (DEBUG) Sending 8=FIX.4.4|9=86|35=A|49=FIXCLIENT1|56=DMA_HUB|34=1|52=20231112-13:51:42|98=0|108=30|95=9|96=null/null|10=080|
2023-11-12 14:51:42.872 [30] [FixSender] (DEBUG) Receiving 8=FIX.4.4|9=73|35=A|34=27|49=DMA_HUB|56=FIXCLIENT1|52=20231112-13:51:42.870|108=30|98=0|10=026|
2023-11-12 14:51:42.873 [30] [FixSender] (WARNING) The Fix connection is open...
2023-11-12 14:51:42.876 [30] [FixSender] (DEBUG) Sending 8=FIX.4.4|9=65|35=2|49=FIXCLIENT1|56=DMA_HUB|34=2|52=20231112-13:51:42|7=1|16=0|10=106|
2023-11-12 14:51:42.880 [30] [FixSender] (DEBUG) Receiving 8=FIX.4.4|9=103|35=4|34=1|49=DMA_HUB|56=FIXCLIENT1|52=20231112-13:51:42.879|43=Y|122=20231112-13:51:42.879|36=28|123=Y|10=049|
2023-11-12 14:51:51.302 [33] [FixSender] (DEBUG) Sending 8=FIX.4.4|9=196|35=D|49=FIXCLIENT1|56=DMA_HUB|34=3|52=20231112-13:51:51|21=1|11=HS_16997971110|38=1232|55=E:07G@XETR|54=2|60=20231112-13:51:51|40=2|59=0|44=197.111|48=US3390411052|22=4|15=EUR|207=XETR|1=bram_123|10=021|
2023-11-12 14:51:51.413 [30] [FixSender] (DEBUG) Receiving 8=FIX.4.4|9=239|35=8|34=28|49=DMA_HUB|56=FIXCLIENT1|52=20231112-13:51:51.412|11=HS_16997971110|37=FXvuZ3prO|54=2|40=2|59=0|17=202311121|150=A|39=A|38=1232|151=1232|14=0|6=0|44=197.111|60=20231112-13:51:51.000|22=4|48=US3390411052|207=XETR|15=EUR|55=[N/A]|10=021|
2023-11-12 14:52:12.834 [30] [FixSender] (DEBUG) Receiving 8=FIX.4.4|9=61|35=0|34=29|49=DMA_HUB|56=FIXCLIENT1|52=20231112-13:52:12.833|10=236|
2023-11-12 14:52:21.306 [31] [FixSender] (DEBUG) Sending 8=FIX.4.4|9=56|35=0|49=FIXCLIENT1|56=DMA_HUB|34=4|52=20231112-13:52:21|10=237|
2023-11-12 14:52:42.784 [30] [FixSender] (DEBUG) Receiving 8=FIX.4.4|9=61|35=0|34=30|49=DMA_HUB|56=FIXCLIENT1|52=20231112-13:52:42.782|10=234|
2023-11-12 14:52:51.311 [31] [FixSender] (DEBUG) Sending 8=FIX.4.4|9=56|35=0|49=FIXCLIENT1|56=DMA_HUB|34=5|52=20231112-13:52:51|10=241|
2023-11-12 14:53:09.519 [34] [FixSender] (DEBUG) Sending 8=FIX.4.4|9=196|35=D|49=FIXCLIENT1|56=DMA_HUB|34=6|52=20231112-13:53:09|21=1|11=HS_16997971891|38=1359|55=E:07G@XETR|54=2|60=20231112-13:53:09|40=2|59=0|44=197.111|48=US3390411052|22=4|15=EUR|207=XETR|1=bram_123|10=060|
2023-11-12 14:53:09.521 [30] [FixSender] (DEBUG) Receiving 8=FIX.4.4|9=239|35=8|34=31|49=DMA_HUB|56=FIXCLIENT1|52=20231112-13:53:09.520|11=HS_16997971891|37=FXwuZ3prO|54=2|40=2|59=0|17=202311122|150=A|39=A|38=1359|151=1359|14=0|6=0|44=197.111|60=20231112-13:53:09.000|22=4|48=US3390411052|207=XETR|15=EUR|55=[N/A]|10=063|
2023-11-12 14:53:12.745 [30] [FixSender] (DEBUG) Receiving 8=FIX.4.4|9=61|35=0|34=32|49=DMA_HUB|56=FIXCLIENT1|52=20231112-13:53:12.745|10=233|
2023-11-12 14:53:39.524 [31] [FixSender] (DEBUG) Sending 8=FIX.4.4|9=56|35=0|49=FIXCLIENT1|56=DMA_HUB|34=7|52=20231112-13:53:39|10=250|
2023-11-12 14:53:42.692 [30] [FixSender] (DEBUG) Receiving 8=FIX.4.4|9=61|35=0|34=33|49=DMA_HUB|56=FIXCLIENT1|52=20231112-13:53:42.691|10=237|
2023-11-12 14:54:09.538 [31] [FixSender] (DEBUG) Sending 8=FIX.4.4|9=56|35=0|49=FIXCLIENT1|56=DMA_HUB|34=8|52=20231112-13:54:09|10=249|
2023-11-12 14:54:12.641 [30] [FixSender] (DEBUG) Receiving 8=FIX.4.4|9=61|35=0|34=34|49=DMA_HUB|56=FIXCLIENT1|52=20231112-13:54:12.639|10=238|
2023-11-12 14:54:39.539 [31] [FixSender] (DEBUG) Sending 8=FIX.4.4|9=56|35=0|49=FIXCLIENT1|56=DMA_HUB|34=9|52=20231112-13:54:39|10=253|
2023-11-12 14:54:42.590 [30] [FixSender] (DEBUG) Receiving 8=FIX.4.4|9=61|35=0|34=35|49=DMA_HUB|56=FIXCLIENT1|52=20231112-13:54:42.589|10=246|
2023-11-12 14:55:09.551 [31] [FixSender] (DEBUG) Sending 8=FIX.4.4|9=57|35=0|49=FIXCLIENT1|56=DMA_HUB|34=10|52=20231112-13:55:09|10=036|
2023-11-12 14:55:12.552 [30] [FixSender] (DEBUG) Receiving 8=FIX.4.4|9=61|35=0|34=36|49=DMA_HUB|56=FIXCLIENT1|52=20231112-13:55:12.551|10=234|
2023-11-12 14:55:39.554 [31] [FixSender] (DEBUG) Sending 8=FIX.4.4|9=57|35=0|49=FIXCLIENT1|56=DMA_HUB|34=11|52=20231112-13:55:39|10=040|
2023-11-12 14:55:42.503 [30] [FixSender] (DEBUG) Receiving 8=FIX.4.4|9=61|35=0|34=37|49=DMA_HUB|56=FIXCLIENT1|52=20231112-13:55:42.502|10=234|
2023-11-12 14:56:09.568 [31] [FixSender] (DEBUG) Sending 8=FIX.4.4|9=57|35=0|49=FIXCLIENT1|56=DMA_HUB|34=12|52=20231112-13:56:09|10=039|
2023-11-12 14:56:12.451 [30] [FixSender] (DEBUG) Receiving 8=FIX.4.4|9=61|35=0|34=38|49=DMA_HUB|56=FIXCLIENT1|52=20231112-13:56:12.449|10=243|
2023-11-12 14:56:39.581 [31] [FixSender] (DEBUG) Sending 8=FIX.4.4|9=57|35=0|49=FIXCLIENT1|56=DMA_HUB|34=13|52=20231112-13:56:39|10=043|
2023-11-12 14:56:42.399 [30] [FixSender] (DEBUG) Receiving 8=FIX.4.4|9=61|35=0|34=39|49=DMA_HUB|56=FIXCLIENT1|52=20231112-13:56:42.399|10=251|
2023-11-12 14:57:09.582 [31] [FixSender] (DEBUG) Sending 8=FIX.4.4|9=57|35=0|49=FIXCLIENT1|56=DMA_HUB|34=14|52=20231112-13:57:09|10=042|
2023-11-12 14:57:12.349 [30] [FixSender] (DEBUG) Receiving 8=FIX.4.4|9=61|35=0|34=40|49=DMA_HUB|56=FIXCLIENT1|52=20231112-13:57:12.349|10=236|
2023-11-12 14:57:39.599 [31] [FixSender] (DEBUG) Sending 8=FIX.4.4|9=57|35=0|49=FIXCLIENT1|56=DMA_HUB|34=15|52=20231112-13:57:39|10=046|
2023-11-12 14:57:42.313 [30] [FixSender] (DEBUG) Receiving 8=FIX.4.4|9=61|35=0|34=41|49=DMA_HUB|56=FIXCLIENT1|52=20231112-13:57:42.312|10=230|
2023-11-12 14:58:09.612 [31] [FixSender] (DEBUG) Sending 8=FIX.4.4|9=57|35=0|49=FIXCLIENT1|56=DMA_HUB|34=16|52=20231112-13:58:09|10=045|
2023-11-12 14:58:12.262 [30] [FixSender] (DEBUG) Receiving 8=FIX.4.4|9=61|35=0|34=42|49=DMA_HUB|56=FIXCLIENT1|52=20231112-13:58:12.261|10=232|
2023-11-12 14:58:39.621 [31] [FixSender] (DEBUG) Sending 8=FIX.4.4|9=57|35=0|49=FIXCLIENT1|56=DMA_HUB|34=17|52=20231112-13:58:39|10=049|
2023-11-12 14:58:42.218 [30] [FixSender] (DEBUG) Receiving 8=FIX.4.4|9=61|35=0|34=43|49=DMA_HUB|56=FIXCLIENT1|52=20231112-13:58:42.216|10=236|
2023-11-12 14:59:09.629 [31] [FixSender] (DEBUG) Sending 8=FIX.4.4|9=57|35=0|49=FIXCLIENT1|56=DMA_HUB|34=18|52=20231112-13:59:09|10=048|
2023-11-12 14:59:12.162 [30] [FixSender] (DEBUG) Receiving 8=FIX.4.4|9=61|35=0|34=44|49=DMA_HUB|56=FIXCLIENT1|52=20231112-13:59:12.162|10=235|
2023-11-12 14:59:39.642 [31] [FixSender] (DEBUG) Sending 8=FIX.4.4|9=57|35=0|49=FIXCLIENT1|56=DMA_HUB|34=19|52=20231112-13:59:39|10=052|
2023-11-12 14:59:42.117 [30] [FixSender] (DEBUG) Receiving 8=FIX.4.4|9=61|35=0|34=45|49=DMA_HUB|56=FIXCLIENT1|52=20231112-13:59:42.117|10=239|
2023-11-12 15:00:09.649 [31] [FixSender] (DEBUG) Sending 8=FIX.4.4|9=57|35=0|49=FIXCLIENT1|56=DMA_HUB|34=20|52=20231112-14:00:09|10=028|
2023-11-12 15:00:12.059 [30] [FixSender] (DEBUG) Receiving 8=FIX.4.4|9=61|35=0|34=46|49=DMA_HUB|56=FIXCLIENT1|52=20231112-14:00:12.059|10=229|
2023-11-12 15:00:39.651 [31] [FixSender] (DEBUG) Sending 8=FIX.4.4|9=57|35=0|49=FIXCLIENT1|56=DMA_HUB|34=21|52=20231112-14:00:39|10=032|
2023-11-12 15:00:42.023 [30] [FixSender] (DEBUG) Receiving 8=FIX.4.4|9=61|35=0|34=47|49=DMA_HUB|56=FIXCLIENT1|52=20231112-14:00:42.023|10=224|
2023-11-12 15:01:09.654 [31] [FixSender] (DEBUG) Sending 8=FIX.4.4|9=57|35=0|49=FIXCLIENT1|56=DMA_HUB|34=22|52=20231112-14:01:09|10=031|
2023-11-12 15:01:11.965 [30] [FixSender] (DEBUG) Receiving 8=FIX.4.4|9=61|35=0|34=48|49=DMA_HUB|56=FIXCLIENT1|52=20231112-14:01:11.965|10=237|
2023-11-12 15:01:39.655 [31] [FixSender] (DEBUG) Sending 8=FIX.4.4|9=57|35=0|49=FIXCLIENT1|56=DMA_HUB|34=23|52=20231112-14:01:39|10=035|
2023-11-12 15:01:41.924 [30] [FixSender] (DEBUG) Receiving 8=FIX.4.4|9=61|35=0|34=49|49=DMA_HUB|56=FIXCLIENT1|52=20231112-14:01:41.923|10=235|
2023-11-12 15:02:09.658 [31] [FixSender] (DEBUG) Sending 8=FIX.4.4|9=57|35=0|49=FIXCLIENT1|56=DMA_HUB|34=24|52=20231112-14:02:09|10=034|
2023-11-12 15:02:11.877 [30] [FixSender] (DEBUG) Receiving 8=FIX.4.4|9=61|35=0|34=50|49=DMA_HUB|56=FIXCLIENT1|52=20231112-14:02:11.875|10=231|
2023-11-12 15:02:39.661 [31] [FixSender] (DEBUG) Sending 8=FIX.4.4|9=57|35=0|49=FIXCLIENT1|56=DMA_HUB|34=25|52=20231112-14:02:39|10=038|
2023-11-12 15:02:41.833 [30] [FixSender] (DEBUG) Receiving 8=FIX.4.4|9=61|35=0|34=51|49=DMA_HUB|56=FIXCLIENT1|52=20231112-14:02:41.831|10=227|
2023-11-12 15:03:09.665 [31] [FixSender] (DEBUG) Sending 8=FIX.4.4|9=57|35=0|49=FIXCLIENT1|56=DMA_HUB|34=26|52=20231112-14:03:09|10=037|
2023-11-12 15:03:11.780 [30] [FixSender] (DEBUG) Receiving 8=FIX.4.4|9=61|35=0|34=52|49=DMA_HUB|56=FIXCLIENT1|52=20231112-14:03:11.780|10=229|
2023-11-12 15:03:39.665 [31] [FixSender] (DEBUG) Sending 8=FIX.4.4|9=57|35=0|49=FIXCLIENT1|56=DMA_HUB|34=27|52=20231112-14:03:39|10=041|
2023-11-12 15:03:41.733 [30] [FixSender] (DEBUG) Receiving 8=FIX.4.4|9=61|35=0|34=53|49=DMA_HUB|56=FIXCLIENT1|52=20231112-14:03:41.733|10=231|
2023-11-12 15:04:09.676 [31] [FixSender] (DEBUG) Sending 8=FIX.4.4|9=57|35=0|49=FIXCLIENT1|56=DMA_HUB|34=28|52=20231112-14:04:09|10=040|
2023-11-12 15:04:11.690 [30] [FixSender] (DEBUG) Receiving 8=FIX.4.4|9=61|35=0|34=54|49=DMA_HUB|56=FIXCLIENT1|52=20231112-14:04:11.690|10=232|
2023-11-12 15:04:39.680 [31] [FixSender] (DEBUG) Sending 8=FIX.4.4|9=57|35=0|49=FIXCLIENT1|56=DMA_HUB|34=29|52=20231112-14:04:39|10=044|
2023-11-12 15:04:41.642 [30] [FixSender] (DEBUG) Receiving 8=FIX.4.4|9=61|35=0|34=55|49=DMA_HUB|56=FIXCLIENT1|52=20231112-14:04:41.642|10=233|
2023-11-12 15:05:09.696 [31] [FixSender] (DEBUG) Sending 8=FIX.4.4|9=57|35=0|49=FIXCLIENT1|56=DMA_HUB|34=30|52=20231112-14:05:09|10=034|
2023-11-12 15:05:11.582 [30] [FixSender] (DEBUG) Receiving 8=FIX.4.4|9=61|35=0|34=56|49=DMA_HUB|56=FIXCLIENT1|52=20231112-14:05:11.582|10=235|
2023-11-12 15:05:39.701 [31] [FixSender] (DEBUG) Sending 8=FIX.4.4|9=57|35=0|49=FIXCLIENT1|56=DMA_HUB|34=31|52=20231112-14:05:39|10=038|
2023-11-12 15:05:41.546 [30] [FixSender] (DEBUG) Receiving 8=FIX.4.4|9=61|35=0|34=57|49=DMA_HUB|56=FIXCLIENT1|52=20231112-14:05:41.546|10=239|
2023-11-12 15:06:09.708 [31] [FixSender] (DEBUG) Sending 8=FIX.4.4|9=57|35=0|49=FIXCLIENT1|56=DMA_HUB|34=32|52=20231112-14:06:09|10=037|
2023-11-12 15:06:11.496 [30] [FixSender] (DEBUG) Receiving 8=FIX.4.4|9=61|35=0|34=58|49=DMA_HUB|56=FIXCLIENT1|52=20231112-14:06:11.495|10=241|
2023-11-12 15:06:39.720 [31] [FixSender] (DEBUG) Sending 8=FIX.4.4|9=57|35=0|49=FIXCLIENT1|56=DMA_HUB|34=33|52=20231112-14:06:39|10=041|
2023-11-12 15:06:41.451 [30] [FixSender] (DEBUG) Receiving 8=FIX.4.4|9=61|35=0|34=59|49=DMA_HUB|56=FIXCLIENT1|52=20231112-14:06:41.450|10=236|
2023-11-12 15:07:09.720 [31] [FixSender] (DEBUG) Sending 8=FIX.4.4|9=57|35=0|49=FIXCLIENT1|56=DMA_HUB|34=34|52=20231112-14:07:09|10=040|
2023-11-12 15:07:11.401 [30] [FixSender] (DEBUG) Receiving 8=FIX.4.4|9=61|35=0|34=60|49=DMA_HUB|56=FIXCLIENT1|52=20231112-14:07:11.401|10=222|
2023-11-12 15:07:39.723 [31] [FixSender] (DEBUG) Sending 8=FIX.4.4|9=57|35=0|49=FIXCLIENT1|56=DMA_HUB|34=35|52=20231112-14:07:39|10=044|
2023-11-12 15:07:41.340 [30] [FixSender] (DEBUG) Receiving 8=FIX.4.4|9=61|35=0|34=61|49=DMA_HUB|56=FIXCLIENT1|52=20231112-14:07:41.339|10=236|
2023-11-12 15:08:09.725 [31] [FixSender] (DEBUG) Sending 8=FIX.4.4|9=57|35=0|49=FIXCLIENT1|56=DMA_HUB|34=36|52=20231112-14:08:09|10=043|
2023-11-12 15:08:11.295 [30] [FixSender] (DEBUG) Receiving 8=FIX.4.4|9=61|35=0|34=62|49=DMA_HUB|56=FIXCLIENT1|52=20231112-14:08:11.295|10=236|
2023-11-12 15:08:39.734 [31] [FixSender] (DEBUG) Sending 8=FIX.4.4|9=57|35=0|49=FIXCLIENT1|56=DMA_HUB|34=37|52=20231112-14:08:39|10=047|
2023-11-12 15:08:41.243 [30] [FixSender] (DEBUG) Receiving 8=FIX.4.4|9=61|35=0|34=63|49=DMA_HUB|56=FIXCLIENT1|52=20231112-14:08:41.243|10=233|
2023-11-12 15:09:09.739 [31] [FixSender] (DEBUG) Sending 8=FIX.4.4|9=57|35=0|49=FIXCLIENT1|56=DMA_HUB|34=38|52=20231112-14:09:09|10=046|
2023-11-12 15:09:11.204 [30] [FixSender] (DEBUG) Receiving 8=FIX.4.4|9=61|35=0|34=64|49=DMA_HUB|56=FIXCLIENT1|52=20231112-14:09:11.204|10=229|
2023-11-12 15:09:39.754 [31] [FixSender] (DEBUG) Sending 8=FIX.4.4|9=57|35=0|49=FIXCLIENT1|56=DMA_HUB|34=39|52=20231112-14:09:39|10=050|
2023-11-12 15:09:41.155 [30] [FixSender] (DEBUG) Receiving 8=FIX.4.4|9=61|35=0|34=65|49=DMA_HUB|56=FIXCLIENT1|52=20231112-14:09:41.155|10=238|
2023-11-12 15:10:09.764 [31] [FixSender] (DEBUG) Sending 8=FIX.4.4|9=57|35=0|49=FIXCLIENT1|56=DMA_HUB|34=40|52=20231112-14:10:09|10=031|
2023-11-12 15:10:11.102 [30] [FixSender] (DEBUG) Receiving 8=FIX.4.4|9=61|35=0|34=66|49=DMA_HUB|56=FIXCLIENT1|52=20231112-14:10:11.102|10=220|
2023-11-12 15:10:31.614 [35] [FixSender] (DEBUG) Sending 8=FIX.4.4|9=197|35=D|49=FIXCLIENT1|56=DMA_HUB|34=41|52=20231112-14:10:31|21=1|11=HS_16997982312|38=4993|55=E:07G@XETR|54=2|60=20231112-14:10:31|40=2|59=0|44=197.111|48=US3390411052|22=4|15=EUR|207=XETR|1=bram_123|10=083|
2023-11-12 15:10:31.614 [30] [FixSender] (DEBUG) Receiving 8=FIX.4.4|9=239|35=8|34=67|49=DMA_HUB|56=FIXCLIENT1|52=20231112-14:10:31.614|11=HS_16997982312|37=FXxuZ3prO|54=2|40=2|59=0|17=202311123|150=A|39=A|38=4993|151=4993|14=0|6=0|44=197.111|60=20231112-14:10:31.000|22=4|48=US3390411052|207=XETR|15=EUR|55=[N/A]|10=060|
2023-11-12 15:10:41.064 [30] [FixSender] (DEBUG) Receiving 8=FIX.4.4|9=61|35=0|34=68|49=DMA_HUB|56=FIXCLIENT1|52=20231112-14:10:41.063|10=231|
2023-11-12 15:11:01.617 [31] [FixSender] (DEBUG) Sending 8=FIX.4.4|9=57|35=0|49=FIXCLIENT1|56=DMA_HUB|34=42|52=20231112-14:11:01|10=026|
2023-11-12 15:11:11.005 [30] [FixSender] (DEBUG) Receiving 8=FIX.4.4|9=61|35=0|34=69|49=DMA_HUB|56=FIXCLIENT1|52=20231112-14:11:11.004|10=225|
2023-11-12 15:11:31.620 [31] [FixSender] (DEBUG) Sending 8=FIX.4.4|9=57|35=0|49=FIXCLIENT1|56=DMA_HUB|34=43|52=20231112-14:11:31|10=030|
2023-11-12 15:11:40.962 [30] [FixSender] (DEBUG) Receiving 8=FIX.4.4|9=61|35=0|34=70|49=DMA_HUB|56=FIXCLIENT1|52=20231112-14:11:40.959|10=238|
2023-11-12 15:12:01.624 [31] [FixSender] (DEBUG) Sending 8=FIX.4.4|9=57|35=0|49=FIXCLIENT1|56=DMA_HUB|34=44|52=20231112-14:12:01|10=029|
2023-11-12 15:12:10.913 [30] [FixSender] (DEBUG) Receiving 8=FIX.4.4|9=61|35=0|34=71|49=DMA_HUB|56=FIXCLIENT1|52=20231112-14:12:10.912|10=226|
2023-11-12 15:12:31.626 [31] [FixSender] (DEBUG) Sending 8=FIX.4.4|9=57|35=0|49=FIXCLIENT1|56=DMA_HUB|34=45|52=20231112-14:12:31|10=033|
2023-11-12 15:12:40.873 [30] [FixSender] (DEBUG) Receiving 8=FIX.4.4|9=61|35=0|34=72|49=DMA_HUB|56=FIXCLIENT1|52=20231112-14:12:40.872|10=235|
2023-11-12 15:13:01.641 [31] [FixSender] (DEBUG) Sending 8=FIX.4.4|9=57|35=0|49=FIXCLIENT1|56=DMA_HUB|34=46|52=20231112-14:13:01|10=032|
2023-11-12 15:13:10.822 [30] [FixSender] (DEBUG) Receiving 8=FIX.4.4|9=61|35=0|34=73|49=DMA_HUB|56=FIXCLIENT1|52=20231112-14:13:10.821|10=228|
2023-11-12 15:13:31.652 [31] [FixSender] (DEBUG) Sending 8=FIX.4.4|9=57|35=0|49=FIXCLIENT1|56=DMA_HUB|34=47|52=20231112-14:13:31|10=036|
2023-11-12 15:13:40.776 [30] [FixSender] (DEBUG) Receiving 8=FIX.4.4|9=61|35=0|34=74|49=DMA_HUB|56=FIXCLIENT1|52=20231112-14:13:40.774|10=239|
2023-11-12 15:14:01.658 [31] [FixSender] (DEBUG) Sending 8=FIX.4.4|9=57|35=0|49=FIXCLIENT1|56=DMA_HUB|34=48|52=20231112-14:14:01|10=035|
2023-11-12 15:14:10.719 [30] [FixSender] (DEBUG) Receiving 8=FIX.4.4|9=61|35=0|34=75|49=DMA_HUB|56=FIXCLIENT1|52=20231112-14:14:10.719|10=237|
2023-11-12 15:14:31.670 [31] [FixSender] (DEBUG) Sending 8=FIX.4.4|9=57|35=0|49=FIXCLIENT1|56=DMA_HUB|34=49|52=20231112-14:14:31|10=039|
2023-11-12 15:14:40.669 [30] [FixSender] (DEBUG) Receiving 8=FIX.4.4|9=61|35=0|34=76|49=DMA_HUB|56=FIXCLIENT1|52=20231112-14:14:40.669|10=245|
2023-11-12 15:15:01.684 [31] [FixSender] (DEBUG) Sending 8=FIX.4.4|9=57|35=0|49=FIXCLIENT1|56=DMA_HUB|34=50|52=20231112-14:15:01|10=029|
2023-11-12 15:15:10.620 [30] [FixSender] (DEBUG) Receiving 8=FIX.4.4|9=61|35=0|34=77|49=DMA_HUB|56=FIXCLIENT1|52=20231112-14:15:10.620|10=231|
2023-11-12 15:15:31.698 [31] [FixSender] (DEBUG) Sending 8=FIX.4.4|9=57|35=0|49=FIXCLIENT1|56=DMA_HUB|34=51|52=20231112-14:15:31|10=033|
2023-11-12 15:15:40.572 [30] [FixSender] (DEBUG) Receiving 8=FIX.4.4|9=61|35=0|34=78|49=DMA_HUB|56=FIXCLIENT1|52=20231112-14:15:40.571|10=240|
2023-11-12 15:16:01.713 [31] [FixSender] (DEBUG) Sending 8=FIX.4.4|9=57|35=0|49=FIXCLIENT1|56=DMA_HUB|34=52|52=20231112-14:16:01|10=032|
2023-11-12 15:16:10.529 [30] [FixSender] (DEBUG) Receiving 8=FIX.4.4|9=61|35=0|34=79|49=DMA_HUB|56=FIXCLIENT1|52=20231112-14:16:10.529|10=242|
2023-11-12 15:16:31.719 [31] [FixSender] (DEBUG) Sending 8=FIX.4.4|9=57|35=0|49=FIXCLIENT1|56=DMA_HUB|34=53|52=20231112-14:16:31|10=036|
2023-11-12 15:16:40.482 [30] [FixSender] (DEBUG) Receiving 8=FIX.4.4|9=61|35=0|34=80|49=DMA_HUB|56=FIXCLIENT1|52=20231112-14:16:40.482|10=235|
2023-11-12 15:17:01.738 [31] [FixSender] (DEBUG) Sending 8=FIX.4.4|9=57|35=0|49=FIXCLIENT1|56=DMA_HUB|34=54|52=20231112-14:17:01|10=035|
2023-11-12 15:17:10.442 [30] [FixSender] (DEBUG) Receiving 8=FIX.4.4|9=61|35=0|34=81|49=DMA_HUB|56=FIXCLIENT1|52=20231112-14:17:10.442|10=230|
2023-11-12 15:17:31.756 [31] [FixSender] (DEBUG) Sending 8=FIX.4.4|9=57|35=0|49=FIXCLIENT1|56=DMA_HUB|34=55|52=20231112-14:17:31|10=039|
2023-11-12 15:17:40.385 [30] [FixSender] (DEBUG) Receiving 8=FIX.4.4|9=61|35=0|34=82|49=DMA_HUB|56=FIXCLIENT1|52=20231112-14:17:40.385|10=240|
2023-11-12 15:18:01.773 [31] [FixSender] (DEBUG) Sending 8=FIX.4.4|9=57|35=0|49=FIXCLIENT1|56=DMA_HUB|34=56|52=20231112-14:18:01|10=038|
2023-11-12 15:18:10.345 [30] [FixSender] (DEBUG) Receiving 8=FIX.4.4|9=61|35=0|34=83|49=DMA_HUB|56=FIXCLIENT1|52=20231112-14:18:10.343|10=233|
2023-11-12 15:18:31.792 [31] [FixSender] (DEBUG) Sending 8=FIX.4.4|9=57|35=0|49=FIXCLIENT1|56=DMA_HUB|34=57|52=20231112-14:18:31|10=042|
2023-11-12 15:18:40.304 [30] [FixSender] (DEBUG) Receiving 8=FIX.4.4|9=61|35=0|34=84|49=DMA_HUB|56=FIXCLIENT1|52=20231112-14:18:40.303|10=233|
2023-11-12 15:19:01.815 [31] [FixSender] (DEBUG) Sending 8=FIX.4.4|9=57|35=0|49=FIXCLIENT1|56=DMA_HUB|34=58|52=20231112-14:19:01|10=041|
2023-11-12 15:19:10.317 [30] [FixSender] (DEBUG) Receiving 8=FIX.4.4|9=61|35=0|34=85|49=DMA_HUB|56=FIXCLIENT1|52=20231112-14:19:10.317|10=237|
2023-11-12 15:19:31.829 [31] [FixSender] (DEBUG) Sending 8=FIX.4.4|9=57|35=0|49=FIXCLIENT1|56=DMA_HUB|34=59|52=20231112-14:19:31|10=045|
2023-11-12 15:19:40.332 [30] [FixSender] (DEBUG) Receiving 8=FIX.4.4|9=61|35=0|34=86|49=DMA_HUB|56=FIXCLIENT1|52=20231112-14:19:40.331|10=237|
2023-11-12 15:20:01.850 [31] [FixSender] (DEBUG) Sending 8=FIX.4.4|9=57|35=0|49=FIXCLIENT1|56=DMA_HUB|34=60|52=20231112-14:20:01|10=026|
2023-11-12 15:20:10.346 [30] [FixSender] (DEBUG) Receiving 8=FIX.4.4|9=61|35=0|34=87|49=DMA_HUB|56=FIXCLIENT1|52=20231112-14:20:10.346|10=233|
2023-11-12 15:20:31.874 [31] [FixSender] (DEBUG) Sending 8=FIX.4.4|9=57|35=0|49=FIXCLIENT1|56=DMA_HUB|34=61|52=20231112-14:20:31|10=030|
2023-11-12 15:20:40.290 [30] [FixSender] (DEBUG) Receiving 8=FIX.4.4|9=61|35=0|34=88|49=DMA_HUB|56=FIXCLIENT1|52=20231112-14:20:40.289|10=243|
2023-11-12 15:21:00.873 [36] [FixSender] (DEBUG) Sending 8=FIX.4.4|9=197|35=D|49=FIXCLIENT1|56=DMA_HUB|34=62|52=20231112-14:21:00|21=1|11=HS_16997988603|38=3038|55=E:07G@XETR|54=2|60=20231112-14:21:00|40=2|59=0|44=197.111|48=US3390411052|22=4|15=EUR|207=XETR|1=bram_123|10=080|
2023-11-12 15:21:00.875 [30] [FixSender] (DEBUG) Receiving 8=FIX.4.4|9=239|35=8|34=89|49=DMA_HUB|56=FIXCLIENT1|52=20231112-14:21:00.874|11=HS_16997988603|37=FXyuZ3prO|54=2|40=2|59=0|17=202311124|150=A|39=A|38=3038|151=3038|14=0|6=0|44=197.111|60=20231112-14:21:00.000|22=4|48=US3390411052|207=XETR|15=EUR|55=[N/A]|10=057|
2023-11-12 15:21:10.244 [30] [FixSender] (DEBUG) Receiving 8=FIX.4.4|9=61|35=0|34=90|49=DMA_HUB|56=FIXCLIENT1|52=20231112-14:21:10.244|10=225|
2023-11-12 15:21:30.894 [31] [FixSender] (DEBUG) Sending 8=FIX.4.4|9=57|35=0|49=FIXCLIENT1|56=DMA_HUB|34=63|52=20231112-14:21:30|10=032|
2023-11-12 15:21:40.207 [30] [FixSender] (DEBUG) Receiving 8=FIX.4.4|9=61|35=0|34=91|49=DMA_HUB|56=FIXCLIENT1|52=20231112-14:21:40.205|10=226|
2023-11-12 15:22:00.917 [31] [FixSender] (DEBUG) Sending 8=FIX.4.4|9=57|35=0|49=FIXCLIENT1|56=DMA_HUB|34=64|52=20231112-14:22:00|10=031|
2023-11-12 15:22:10.215 [30] [FixSender] (DEBUG) Receiving 8=FIX.4.4|9=61|35=0|34=92|49=DMA_HUB|56=FIXCLIENT1|52=20231112-14:22:10.214|10=225|
2023-11-12 15:22:30.925 [31] [FixSender] (DEBUG) Sending 8=FIX.4.4|9=57|35=0|49=FIXCLIENT1|56=DMA_HUB|34=65|52=20231112-14:22:30|10=035|
2023-11-12 15:22:40.166 [30] [FixSender] (DEBUG) Receiving 8=FIX.4.4|9=61|35=0|34=93|49=DMA_HUB|56=FIXCLIENT1|52=20231112-14:22:40.165|10=234|
2023-11-12 15:23:00.927 [31] [FixSender] (DEBUG) Sending 8=FIX.4.4|9=57|35=0|49=FIXCLIENT1|56=DMA_HUB|34=66|52=20231112-14:23:00|10=034|
2023-11-12 15:23:10.122 [30] [FixSender] (DEBUG) Receiving 8=FIX.4.4|9=61|35=0|34=94|49=DMA_HUB|56=FIXCLIENT1|52=20231112-14:23:10.120|10=224|
2023-11-12 15:23:30.938 [31] [FixSender] (DEBUG) Sending 8=FIX.4.4|9=57|35=0|49=FIXCLIENT1|56=DMA_HUB|34=67|52=20231112-14:23:30|10=038|
2023-11-12 15:23:40.071 [30] [FixSender] (DEBUG) Receiving 8=FIX.4.4|9=61|35=0|34=95|49=DMA_HUB|56=FIXCLIENT1|52=20231112-14:23:40.071|10=233|
2023-11-12 15:24:00.950 [31] [FixSender] (DEBUG) Sending 8=FIX.4.4|9=57|35=0|49=FIXCLIENT1|56=DMA_HUB|34=68|52=20231112-14:24:00|10=037|
2023-11-12 15:24:10.023 [30] [FixSender] (DEBUG) Receiving 8=FIX.4.4|9=61|35=0|34=96|49=DMA_HUB|56=FIXCLIENT1|52=20231112-14:24:10.023|10=229|
2023-11-12 15:24:30.955 [31] [FixSender] (DEBUG) Sending 8=FIX.4.4|9=57|35=0|49=FIXCLIENT1|56=DMA_HUB|34=69|52=20231112-14:24:30|10=041|
2023-11-12 15:24:39.976 [30] [FixSender] (DEBUG) Receiving 8=FIX.4.4|9=61|35=0|34=97|49=DMA_HUB|56=FIXCLIENT1|52=20231112-14:24:39.976|10=002|
2023-11-12 15:25:00.971 [31] [FixSender] (DEBUG) Sending 8=FIX.4.4|9=57|35=0|49=FIXCLIENT1|56=DMA_HUB|34=70|52=20231112-14:25:00|10=031|
2023-11-12 15:25:09.917 [30] [FixSender] (DEBUG) Receiving 8=FIX.4.4|9=61|35=0|34=98|49=DMA_HUB|56=FIXCLIENT1|52=20231112-14:25:09.916|10=251|
2023-11-12 15:25:30.972 [31] [FixSender] (DEBUG) Sending 8=FIX.4.4|9=57|35=0|49=FIXCLIENT1|56=DMA_HUB|34=71|52=20231112-14:25:30|10=035|
2023-11-12 15:25:39.877 [30] [FixSender] (DEBUG) Receiving 8=FIX.4.4|9=61|35=0|34=99|49=DMA_HUB|56=FIXCLIENT1|52=20231112-14:25:39.876|10=004|
2023-11-12 15:26:00.976 [31] [FixSender] (DEBUG) Sending 8=FIX.4.4|9=57|35=0|49=FIXCLIENT1|56=DMA_HUB|34=72|52=20231112-14:26:00|10=034|
2023-11-12 15:26:09.829 [30] [FixSender] (DEBUG) Receiving 8=FIX.4.4|9=62|35=0|34=100|49=DMA_HUB|56=FIXCLIENT1|52=20231112-14:26:09.828|10=031|
2023-11-12 15:26:30.979 [31] [FixSender] (DEBUG) Sending 8=FIX.4.4|9=57|35=0|49=FIXCLIENT1|56=DMA_HUB|34=73|52=20231112-14:26:30|10=038|
2023-11-12 15:26:39.779 [30] [FixSender] (DEBUG) Receiving 8=FIX.4.4|9=62|35=0|34=101|49=DMA_HUB|56=FIXCLIENT1|52=20231112-14:26:39.779|10=040|
2023-11-12 15:27:00.995 [31] [FixSender] (DEBUG) Sending 8=FIX.4.4|9=57|35=0|49=FIXCLIENT1|56=DMA_HUB|34=74|52=20231112-14:27:00|10=037|
2023-11-12 15:27:09.733 [30] [FixSender] (DEBUG) Receiving 8=FIX.4.4|9=62|35=0|34=102|49=DMA_HUB|56=FIXCLIENT1|52=20231112-14:27:09.733|10=029|
2023-11-12 15:27:31.010 [31] [FixSender] (DEBUG) Sending 8=FIX.4.4|9=57|35=0|49=FIXCLIENT1|56=DMA_HUB|34=75|52=20231112-14:27:31|10=042|
2023-11-12 15:27:39.688 [30] [FixSender] (DEBUG) Receiving 8=FIX.4.4|9=62|35=0|34=103|49=DMA_HUB|56=FIXCLIENT1|52=20231112-14:27:39.688|10=042|
2023-11-12 15:28:01.012 [31] [FixSender] (DEBUG) Sending 8=FIX.4.4|9=57|35=0|49=FIXCLIENT1|56=DMA_HUB|34=76|52=20231112-14:28:01|10=041|
2023-11-12 15:28:09.635 [30] [FixSender] (DEBUG) Receiving 8=FIX.4.4|9=62|35=0|34=104|49=DMA_HUB|56=FIXCLIENT1|52=20231112-14:28:09.634|10=032|
2023-11-12 15:28:31.024 [31] [FixSender] (DEBUG) Sending 8=FIX.4.4|9=57|35=0|49=FIXCLIENT1|56=DMA_HUB|34=77|52=20231112-14:28:31|10=045|
2023-11-12 15:28:39.586 [30] [FixSender] (DEBUG) Receiving 8=FIX.4.4|9=62|35=0|34=105|49=DMA_HUB|56=FIXCLIENT1|52=20231112-14:28:39.586|10=042|
2023-11-12 15:29:01.035 [31] [FixSender] (DEBUG) Sending 8=FIX.4.4|9=57|35=0|49=FIXCLIENT1|56=DMA_HUB|34=78|52=20231112-14:29:01|10=044|
2023-11-12 15:29:09.544 [30] [FixSender] (DEBUG) Receiving 8=FIX.4.4|9=62|35=0|34=106|49=DMA_HUB|56=FIXCLIENT1|52=20231112-14:29:09.543|10=034|
2023-11-12 15:29:31.052 [31] [FixSender] (DEBUG) Sending 8=FIX.4.4|9=57|35=0|49=FIXCLIENT1|56=DMA_HUB|34=79|52=20231112-14:29:31|10=048|
2023-11-12 15:29:39.496 [30] [FixSender] (DEBUG) Receiving 8=FIX.4.4|9=62|35=0|34=107|49=DMA_HUB|56=FIXCLIENT1|52=20231112-14:29:39.494|10=043|
2023-11-12 15:30:01.065 [31] [FixSender] (DEBUG) Sending 8=FIX.4.4|9=57|35=0|49=FIXCLIENT1|56=DMA_HUB|34=80|52=20231112-14:30:01|10=029|
2023-11-12 15:30:09.443 [30] [FixSender] (DEBUG) Receiving 8=FIX.4.4|9=62|35=0|34=108|49=DMA_HUB|56=FIXCLIENT1|52=20231112-14:30:09.443|10=027|
2023-11-12 15:30:31.078 [31] [FixSender] (DEBUG) Sending 8=FIX.4.4|9=57|35=0|49=FIXCLIENT1|56=DMA_HUB|34=81|52=20231112-14:30:31|10=033|
2023-11-12 15:30:39.391 [30] [FixSender] (DEBUG) Receiving 8=FIX.4.4|9=62|35=0|34=109|49=DMA_HUB|56=FIXCLIENT1|52=20231112-14:30:39.389|10=040|
2023-11-12 15:31:01.092 [31] [FixSender] (DEBUG) Sending 8=FIX.4.4|9=57|35=0|49=FIXCLIENT1|56=DMA_HUB|34=82|52=20231112-14:31:01|10=032|
2023-11-12 15:31:09.347 [30] [FixSender] (DEBUG) Receiving 8=FIX.4.4|9=62|35=0|34=110|49=DMA_HUB|56=FIXCLIENT1|52=20231112-14:31:09.346|10=023|
2023-11-12 15:31:31.102 [31] [FixSender] (DEBUG) Sending 8=FIX.4.4|9=57|35=0|49=FIXCLIENT1|56=DMA_HUB|34=83|52=20231112-14:31:31|10=036|
2023-11-12 15:31:39.296 [30] [FixSender] (DEBUG) Receiving 8=FIX.4.4|9=62|35=0|34=111|49=DMA_HUB|56=FIXCLIENT1|52=20231112-14:31:39.294|10=029|
2023-11-12 15:32:01.107 [31] [FixSender] (DEBUG) Sending 8=FIX.4.4|9=57|35=0|49=FIXCLIENT1|56=DMA_HUB|34=84|52=20231112-14:32:01|10=035|
2023-11-12 15:32:09.258 [30] [FixSender] (DEBUG) Receiving 8=FIX.4.4|9=62|35=0|34=112|49=DMA_HUB|56=FIXCLIENT1|52=20231112-14:32:09.258|10=028|
2023-11-12 15:32:31.109 [31] [FixSender] (DEBUG) Sending 8=FIX.4.4|9=57|35=0|49=FIXCLIENT1|56=DMA_HUB|34=85|52=20231112-14:32:31|10=039|
2023-11-12 15:32:39.200 [30] [FixSender] (DEBUG) Receiving 8=FIX.4.4|9=62|35=0|34=113|49=DMA_HUB|56=FIXCLIENT1|52=20231112-14:32:39.200|10=019|
2023-11-12 15:33:01.118 [31] [FixSender] (DEBUG) Sending 8=FIX.4.4|9=57|35=0|49=FIXCLIENT1|56=DMA_HUB|34=86|52=20231112-14:33:01|10=038|
2023-11-12 15:33:09.156 [30] [FixSender] (DEBUG) Receiving 8=FIX.4.4|9=62|35=0|34=114|49=DMA_HUB|56=FIXCLIENT1|52=20231112-14:33:09.155|10=027|
2023-11-12 15:33:31.124 [31] [FixSender] (DEBUG) Sending 8=FIX.4.4|9=57|35=0|49=FIXCLIENT1|56=DMA_HUB|34=87|52=20231112-14:33:31|10=042|
2023-11-12 15:33:39.111 [30] [FixSender] (DEBUG) Receiving 8=FIX.4.4|9=62|35=0|34=115|49=DMA_HUB|56=FIXCLIENT1|52=20231112-14:33:39.111|10=023|
2023-11-12 15:34:01.133 [31] [FixSender] (DEBUG) Sending 8=FIX.4.4|9=57|35=0|49=FIXCLIENT1|56=DMA_HUB|34=88|52=20231112-14:34:01|10=041|
2023-11-12 15:34:09.059 [30] [FixSender] (DEBUG) Receiving 8=FIX.4.4|9=62|35=0|34=116|49=DMA_HUB|56=FIXCLIENT1|52=20231112-14:34:09.058|10=032|
2023-11-12 15:34:31.146 [31] [FixSender] (DEBUG) Sending 8=FIX.4.4|9=57|35=0|49=FIXCLIENT1|56=DMA_HUB|34=89|52=20231112-14:34:31|10=045|
2023-11-12 15:34:39.009 [30] [FixSender] (DEBUG) Receiving 8=FIX.4.4|9=62|35=0|34=117|49=DMA_HUB|56=FIXCLIENT1|52=20231112-14:34:39.008|10=031|
2023-11-12 15:35:01.156 [31] [FixSender] (DEBUG) Sending 8=FIX.4.4|9=57|35=0|49=FIXCLIENT1|56=DMA_HUB|34=90|52=20231112-14:35:01|10=035|
2023-11-12 15:35:08.966 [30] [FixSender] (DEBUG) Receiving 8=FIX.4.4|9=62|35=0|34=118|49=DMA_HUB|56=FIXCLIENT1|52=20231112-14:35:08.966|10=042|
2023-11-12 15:35:31.168 [31] [FixSender] (DEBUG) Sending 8=FIX.4.4|9=57|35=0|49=FIXCLIENT1|56=DMA_HUB|34=91|52=20231112-14:35:31|10=039|
2023-11-12 15:35:38.910 [30] [FixSender] (DEBUG) Receiving 8=FIX.4.4|9=62|35=0|34=119|49=DMA_HUB|56=FIXCLIENT1|52=20231112-14:35:38.910|10=035|
2023-11-12 15:36:01.181 [31] [FixSender] (DEBUG) Sending 8=FIX.4.4|9=57|35=0|49=FIXCLIENT1|56=DMA_HUB|34=92|52=20231112-14:36:01|10=038|
2023-11-12 15:36:08.860 [30] [FixSender] (DEBUG) Receiving 8=FIX.4.4|9=62|35=0|34=120|49=DMA_HUB|56=FIXCLIENT1|52=20231112-14:36:08.860|10=029|
2023-11-12 15:36:31.193 [31] [FixSender] (DEBUG) Sending 8=FIX.4.4|9=57|35=0|49=FIXCLIENT1|56=DMA_HUB|34=93|52=20231112-14:36:31|10=042|
2023-11-12 15:36:38.823 [30] [FixSender] (DEBUG) Receiving 8=FIX.4.4|9=62|35=0|34=121|49=DMA_HUB|56=FIXCLIENT1|52=20231112-14:36:38.823|10=032|
2023-11-12 15:37:01.205 [31] [FixSender] (DEBUG) Sending 8=FIX.4.4|9=57|35=0|49=FIXCLIENT1|56=DMA_HUB|34=94|52=20231112-14:37:01|10=041|
2023-11-12 15:37:08.773 [30] [FixSender] (DEBUG) Receiving 8=FIX.4.4|9=62|35=0|34=122|49=DMA_HUB|56=FIXCLIENT1|52=20231112-14:37:08.771|10=033|
2023-11-12 15:37:31.221 [31] [FixSender] (DEBUG) Sending 8=FIX.4.4|9=57|35=0|49=FIXCLIENT1|56=DMA_HUB|34=95|52=20231112-14:37:31|10=045|
2023-11-12 15:37:38.718 [30] [FixSender] (DEBUG) Receiving 8=FIX.4.4|9=62|35=0|34=123|49=DMA_HUB|56=FIXCLIENT1|52=20231112-14:37:38.716|10=036|
2023-11-12 15:38:01.228 [31] [FixSender] (DEBUG) Sending 8=FIX.4.4|9=57|35=0|49=FIXCLIENT1|56=DMA_HUB|34=96|52=20231112-14:38:01|10=044|
2023-11-12 15:38:08.679 [30] [FixSender] (DEBUG) Receiving 8=FIX.4.4|9=62|35=0|34=124|49=DMA_HUB|56=FIXCLIENT1|52=20231112-14:38:08.678|10=042|
2023-11-12 15:38:31.244 [31] [FixSender] (DEBUG) Sending 8=FIX.4.4|9=57|35=0|49=FIXCLIENT1|56=DMA_HUB|34=97|52=20231112-14:38:31|10=048|
2023-11-12 15:38:38.629 [30] [FixSender] (DEBUG) Receiving 8=FIX.4.4|9=62|35=0|34=125|49=DMA_HUB|56=FIXCLIENT1|52=20231112-14:38:38.627|10=040|
2023-11-12 15:39:01.257 [31] [FixSender] (DEBUG) Sending 8=FIX.4.4|9=57|35=0|49=FIXCLIENT1|56=DMA_HUB|34=98|52=20231112-14:39:01|10=047|
2023-11-12 15:39:08.577 [30] [FixSender] (DEBUG) Receiving 8=FIX.4.4|9=62|35=0|34=126|49=DMA_HUB|56=FIXCLIENT1|52=20231112-14:39:08.577|10=043|
2023-11-12 15:39:31.264 [31] [FixSender] (DEBUG) Sending 8=FIX.4.4|9=57|35=0|49=FIXCLIENT1|56=DMA_HUB|34=99|52=20231112-14:39:31|10=051|
2023-11-12 15:39:38.523 [30] [FixSender] (DEBUG) Receiving 8=FIX.4.4|9=62|35=0|34=127|49=DMA_HUB|56=FIXCLIENT1|52=20231112-14:39:38.523|10=038|
2023-11-12 15:40:01.269 [31] [FixSender] (DEBUG) Sending 8=FIX.4.4|9=58|35=0|49=FIXCLIENT1|56=DMA_HUB|34=100|52=20231112-14:40:01|10=072|
2023-11-12 15:40:08.487 [30] [FixSender] (DEBUG) Receiving 8=FIX.4.4|9=62|35=0|34=128|49=DMA_HUB|56=FIXCLIENT1|52=20231112-14:40:08.486|10=036|
2023-11-12 15:40:31.287 [31] [FixSender] (DEBUG) Sending 8=FIX.4.4|9=58|35=0|49=FIXCLIENT1|56=DMA_HUB|34=101|52=20231112-14:40:31|10=076|
2023-11-12 15:40:38.430 [30] [FixSender] (DEBUG) Receiving 8=FIX.4.4|9=62|35=0|34=129|49=DMA_HUB|56=FIXCLIENT1|52=20231112-14:40:38.430|10=029|
2023-11-12 15:41:01.291 [31] [FixSender] (DEBUG) Sending 8=FIX.4.4|9=58|35=0|49=FIXCLIENT1|56=DMA_HUB|34=102|52=20231112-14:41:01|10=075|
2023-11-12 15:41:08.390 [30] [FixSender] (DEBUG) Receiving 8=FIX.4.4|9=62|35=0|34=130|49=DMA_HUB|56=FIXCLIENT1|52=20231112-14:41:08.390|10=024|
2023-11-12 15:41:31.294 [31] [FixSender] (DEBUG) Sending 8=FIX.4.4|9=58|35=0|49=FIXCLIENT1|56=DMA_HUB|34=103|52=20231112-14:41:31|10=079|
2023-11-12 15:41:38.336 [30] [FixSender] (DEBUG) Receiving 8=FIX.4.4|9=62|35=0|34=131|49=DMA_HUB|56=FIXCLIENT1|52=20231112-14:41:38.336|10=028|
2023-11-12 15:42:01.301 [31] [FixSender] (DEBUG) Sending 8=FIX.4.4|9=58|35=0|49=FIXCLIENT1|56=DMA_HUB|34=104|52=20231112-14:42:01|10=078|
2023-11-12 15:42:08.292 [30] [FixSender] (DEBUG) Receiving 8=FIX.4.4|9=62|35=0|34=132|49=DMA_HUB|56=FIXCLIENT1|52=20231112-14:42:08.292|10=028|
2023-11-12 15:42:31.316 [31] [FixSender] (DEBUG) Sending 8=FIX.4.4|9=58|35=0|49=FIXCLIENT1|56=DMA_HUB|34=105|52=20231112-14:42:31|10=082|
2023-11-12 15:42:38.245 [30] [FixSender] (DEBUG) Receiving 8=FIX.4.4|9=62|35=0|34=133|49=DMA_HUB|56=FIXCLIENT1|52=20231112-14:42:38.245|10=030|
2023-11-12 15:43:01.321 [31] [FixSender] (DEBUG) Sending 8=FIX.4.4|9=58|35=0|49=FIXCLIENT1|56=DMA_HUB|34=106|52=20231112-14:43:01|10=081|
2023-11-12 15:43:08.202 [30] [FixSender] (DEBUG) Receiving 8=FIX.4.4|9=62|35=0|34=134|49=DMA_HUB|56=FIXCLIENT1|52=20231112-14:43:08.202|10=022|
2023-11-12 15:43:31.328 [31] [FixSender] (DEBUG) Sending 8=FIX.4.4|9=58|35=0|49=FIXCLIENT1|56=DMA_HUB|34=107|52=20231112-14:43:31|10=085|
2023-11-12 15:43:38.142 [30] [FixSender] (DEBUG) Receiving 8=FIX.4.4|9=62|35=0|34=135|49=DMA_HUB|56=FIXCLIENT1|52=20231112-14:43:38.142|10=029|
2023-11-12 15:44:01.332 [31] [FixSender] (DEBUG) Sending 8=FIX.4.4|9=58|35=0|49=FIXCLIENT1|56=DMA_HUB|34=108|52=20231112-14:44:01|10=084|
2023-11-12 15:44:08.100 [30] [FixSender] (DEBUG) Receiving 8=FIX.4.4|9=62|35=0|34=136|49=DMA_HUB|56=FIXCLIENT1|52=20231112-14:44:08.100|10=022|
2023-11-12 15:44:31.343 [31] [FixSender] (DEBUG) Sending 8=FIX.4.4|9=58|35=0|49=FIXCLIENT1|56=DMA_HUB|34=109|52=20231112-14:44:31|10=088|
2023-11-12 15:44:38.053 [30] [FixSender] (DEBUG) Receiving 8=FIX.4.4|9=62|35=0|34=137|49=DMA_HUB|56=FIXCLIENT1|52=20231112-14:44:38.053|10=033|
2023-11-12 15:45:01.352 [31] [FixSender] (DEBUG) Sending 8=FIX.4.4|9=58|35=0|49=FIXCLIENT1|56=DMA_HUB|34=110|52=20231112-14:45:01|10=078|
2023-11-12 15:45:08.000 [30] [FixSender] (DEBUG) Receiving 8=FIX.4.4|9=62|35=0|34=138|49=DMA_HUB|56=FIXCLIENT1|52=20231112-14:45:08.000|10=024|
2023-11-12 15:45:31.366 [31] [FixSender] (DEBUG) Sending 8=FIX.4.4|9=58|35=0|49=FIXCLIENT1|56=DMA_HUB|34=111|52=20231112-14:45:31|10=082|
2023-11-12 15:45:37.958 [30] [FixSender] (DEBUG) Receiving 8=FIX.4.4|9=62|35=0|34=139|49=DMA_HUB|56=FIXCLIENT1|52=20231112-14:45:37.958|10=049|
2023-11-12 15:46:01.371 [31] [FixSender] (DEBUG) Sending 8=FIX.4.4|9=58|35=0|49=FIXCLIENT1|56=DMA_HUB|34=112|52=20231112-14:46:01|10=081|
2023-11-12 15:46:07.912 [30] [FixSender] (DEBUG) Receiving 8=FIX.4.4|9=62|35=0|34=140|49=DMA_HUB|56=FIXCLIENT1|52=20231112-14:46:07.912|10=029|
2023-11-12 15:46:31.373 [31] [FixSender] (DEBUG) Sending 8=FIX.4.4|9=58|35=0|49=FIXCLIENT1|56=DMA_HUB|34=113|52=20231112-14:46:31|10=085|
2023-11-12 15:46:37.856 [30] [FixSender] (DEBUG) Receiving 8=FIX.4.4|9=62|35=0|34=141|49=DMA_HUB|56=FIXCLIENT1|52=20231112-14:46:37.856|10=040|
2023-11-12 15:47:01.389 [31] [FixSender] (DEBUG) Sending 8=FIX.4.4|9=58|35=0|49=FIXCLIENT1|56=DMA_HUB|34=114|52=20231112-14:47:01|10=084|
2023-11-12 15:47:07.815 [30] [FixSender] (DEBUG) Receiving 8=FIX.4.4|9=62|35=0|34=142|49=DMA_HUB|56=FIXCLIENT1|52=20231112-14:47:07.815|10=034|
2023-11-12 15:47:31.403 [31] [FixSender] (DEBUG) Sending 8=FIX.4.4|9=58|35=0|49=FIXCLIENT1|56=DMA_HUB|34=115|52=20231112-14:47:31|10=088|
2023-11-12 15:47:37.755 [30] [FixSender] (DEBUG) Receiving 8=FIX.4.4|9=62|35=0|34=143|49=DMA_HUB|56=FIXCLIENT1|52=20231112-14:47:37.755|10=041|
2023-11-12 15:48:01.411 [31] [FixSender] (DEBUG) Sending 8=FIX.4.4|9=58|35=0|49=FIXCLIENT1|56=DMA_HUB|34=116|52=20231112-14:48:01|10=087|
2023-11-12 15:48:07.721 [30] [FixSender] (DEBUG) Receiving 8=FIX.4.4|9=62|35=0|34=144|49=DMA_HUB|56=FIXCLIENT1|52=20231112-14:48:07.720|10=032|
2023-11-12 15:48:31.414 [31] [FixSender] (DEBUG) Sending 8=FIX.4.4|9=58|35=0|49=FIXCLIENT1|56=DMA_HUB|34=117|52=20231112-14:48:31|10=091|
2023-11-12 15:48:37.663 [30] [FixSender] (DEBUG) Receiving 8=FIX.4.4|9=62|35=0|34=145|49=DMA_HUB|56=FIXCLIENT1|52=20231112-14:48:37.661|10=040|
2023-11-12 15:49:01.420 [31] [FixSender] (DEBUG) Sending 8=FIX.4.4|9=58|35=0|49=FIXCLIENT1|56=DMA_HUB|34=118|52=20231112-14:49:01|10=090|
2023-11-12 15:49:07.622 [30] [FixSender] (DEBUG) Receiving 8=FIX.4.4|9=62|35=0|34=146|49=DMA_HUB|56=FIXCLIENT1|52=20231112-14:49:07.621|10=035|
2023-11-12 15:49:31.429 [31] [FixSender] (DEBUG) Sending 8=FIX.4.4|9=58|35=0|49=FIXCLIENT1|56=DMA_HUB|34=119|52=20231112-14:49:31|10=094|
2023-11-12 15:49:37.571 [30] [FixSender] (DEBUG) Receiving 8=FIX.4.4|9=62|35=0|34=147|49=DMA_HUB|56=FIXCLIENT1|52=20231112-14:49:37.571|10=043|
2023-11-12 15:50:01.435 [31] [FixSender] (DEBUG) Sending 8=FIX.4.4|9=58|35=0|49=FIXCLIENT1|56=DMA_HUB|34=120|52=20231112-14:50:01|10=075|
2023-11-12 15:50:07.522 [30] [FixSender] (DEBUG) Receiving 8=FIX.4.4|9=62|35=0|34=148|49=DMA_HUB|56=FIXCLIENT1|52=20231112-14:50:07.521|10=028|
2023-11-12 15:50:31.450 [31] [FixSender] (DEBUG) Sending 8=FIX.4.4|9=58|35=0|49=FIXCLIENT1|56=DMA_HUB|34=121|52=20231112-14:50:31|10=079|
2023-11-12 15:50:37.474 [30] [FixSender] (DEBUG) Receiving 8=FIX.4.4|9=62|35=0|34=149|49=DMA_HUB|56=FIXCLIENT1|52=20231112-14:50:37.474|10=039|
2023-11-12 15:51:01.456 [31] [FixSender] (DEBUG) Sending 8=FIX.4.4|9=58|35=0|49=FIXCLIENT1|56=DMA_HUB|34=122|52=20231112-14:51:01|10=078|
2023-11-12 15:51:07.432 [30] [FixSender] (DEBUG) Receiving 8=FIX.4.4|9=62|35=0|34=150|49=DMA_HUB|56=FIXCLIENT1|52=20231112-14:51:07.431|10=022|
2023-11-12 15:51:31.472 [31] [FixSender] (DEBUG) Sending 8=FIX.4.4|9=58|35=0|49=FIXCLIENT1|56=DMA_HUB|34=123|52=20231112-14:51:31|10=082|
2023-11-12 15:51:37.381 [30] [FixSender] (DEBUG) Receiving 8=FIX.4.4|9=62|35=0|34=151|49=DMA_HUB|56=FIXCLIENT1|52=20231112-14:51:37.381|10=030|
2023-11-12 15:52:01.485 [31] [FixSender] (DEBUG) Sending 8=FIX.4.4|9=58|35=0|49=FIXCLIENT1|56=DMA_HUB|34=124|52=20231112-14:52:01|10=081|
2023-11-12 15:52:07.327 [30] [FixSender] (DEBUG) Receiving 8=FIX.4.4|9=62|35=0|34=152|49=DMA_HUB|56=FIXCLIENT1|52=20231112-14:52:07.327|10=029|
2023-11-12 15:52:31.500 [31] [FixSender] (DEBUG) Sending 8=FIX.4.4|9=58|35=0|49=FIXCLIENT1|56=DMA_HUB|34=125|52=20231112-14:52:31|10=085|
2023-11-12 15:52:37.276 [30] [FixSender] (DEBUG) Receiving 8=FIX.4.4|9=62|35=0|34=153|49=DMA_HUB|56=FIXCLIENT1|52=20231112-14:52:37.276|10=036|
2023-11-12 15:53:01.503 [31] [FixSender] (DEBUG) Sending 8=FIX.4.4|9=58|35=0|49=FIXCLIENT1|56=DMA_HUB|34=126|52=20231112-14:53:01|10=084|
2023-11-12 15:53:07.231 [30] [FixSender] (DEBUG) Receiving 8=FIX.4.4|9=62|35=0|34=154|49=DMA_HUB|56=FIXCLIENT1|52=20231112-14:53:07.231|10=026|
2023-11-12 15:53:31.509 [31] [FixSender] (DEBUG) Sending 8=FIX.4.4|9=58|35=0|49=FIXCLIENT1|56=DMA_HUB|34=127|52=20231112-14:53:31|10=088|
2023-11-12 15:53:37.192 [30] [FixSender] (DEBUG) Receiving 8=FIX.4.4|9=62|35=0|34=155|49=DMA_HUB|56=FIXCLIENT1|52=20231112-14:53:37.191|10=035|
2023-11-12 15:54:01.518 [31] [FixSender] (DEBUG) Sending 8=FIX.4.4|9=58|35=0|49=FIXCLIENT1|56=DMA_HUB|34=128|52=20231112-14:54:01|10=087|
2023-11-12 15:54:07.142 [30] [FixSender] (DEBUG) Receiving 8=FIX.4.4|9=62|35=0|34=156|49=DMA_HUB|56=FIXCLIENT1|52=20231112-14:54:07.142|10=030|
2023-11-12 15:54:31.534 [31] [FixSender] (DEBUG) Sending 8=FIX.4.4|9=58|35=0|49=FIXCLIENT1|56=DMA_HUB|34=129|52=20231112-14:54:31|10=091|
2023-11-12 15:54:37.098 [30] [FixSender] (DEBUG) Receiving 8=FIX.4.4|9=62|35=0|34=157|49=DMA_HUB|56=FIXCLIENT1|52=20231112-14:54:37.097|10=043|
2023-11-12 15:55:01.545 [31] [FixSender] (DEBUG) Sending 8=FIX.4.4|9=58|35=0|49=FIXCLIENT1|56=DMA_HUB|34=130|52=20231112-14:55:01|10=081|
2023-11-12 15:55:07.041 [30] [FixSender] (DEBUG) Receiving 8=FIX.4.4|9=62|35=0|34=158|49=DMA_HUB|56=FIXCLIENT1|52=20231112-14:55:07.041|10=031|
2023-11-12 15:55:26.284 [37] [FixSender] (DEBUG) Sending 8=FIX.4.4|9=197|35=D|49=FIXCLIENT1|56=DMA_HUB|34=131|52=20231112-14:55:26|21=1|11=HS_16998009264|38=672|55=E:07G@XETR|54=2|60=20231112-14:55:26|40=2|59=0|44=197.111|48=US3390411052|22=4|15=EUR|207=XETR|1=bram_123|10=096|
2023-11-12 15:55:26.286 [30] [FixSender] (DEBUG) Receiving 8=FIX.4.4|9=238|35=8|34=159|49=DMA_HUB|56=FIXCLIENT1|52=20231112-14:55:26.285|11=HS_16998009264|37=FXzuZ3prO|54=2|40=2|59=0|17=202311125|150=A|39=A|38=672|151=672|14=0|6=0|44=197.111|60=20231112-14:55:26.000|22=4|48=US3390411052|207=XETR|15=EUR|55=[N/A]|10=024|
2023-11-12 15:55:36.998 [30] [FixSender] (DEBUG) Receiving 8=FIX.4.4|9=62|35=0|34=160|49=DMA_HUB|56=FIXCLIENT1|52=20231112-14:55:36.998|10=047|
2023-11-12 15:55:56.296 [31] [FixSender] (DEBUG) Sending 8=FIX.4.4|9=58|35=0|49=FIXCLIENT1|56=DMA_HUB|34=132|52=20231112-14:55:56|10=093|
2023-11-12 15:56:06.951 [30] [FixSender] (DEBUG) Receiving 8=FIX.4.4|9=62|35=0|34=161|49=DMA_HUB|56=FIXCLIENT1|52=20231112-14:56:06.951|10=035|
2023-11-12 15:56:26.303 [31] [FixSender] (DEBUG) Sending 8=FIX.4.4|9=58|35=0|49=FIXCLIENT1|56=DMA_HUB|34=133|52=20231112-14:56:26|10=092|
2023-11-12 15:56:36.907 [30] [FixSender] (DEBUG) Receiving 8=FIX.4.4|9=62|35=0|34=162|49=DMA_HUB|56=FIXCLIENT1|52=20231112-14:56:36.906|10=039|
2023-11-12 15:56:56.316 [31] [FixSender] (DEBUG) Sending 8=FIX.4.4|9=58|35=0|49=FIXCLIENT1|56=DMA_HUB|34=134|52=20231112-14:56:56|10=096|
2023-11-12 15:57:06.857 [30] [FixSender] (DEBUG) Receiving 8=FIX.4.4|9=62|35=0|34=163|49=DMA_HUB|56=FIXCLIENT1|52=20231112-14:57:06.857|10=043|
2023-11-12 15:57:26.321 [31] [FixSender] (DEBUG) Sending 8=FIX.4.4|9=58|35=0|49=FIXCLIENT1|56=DMA_HUB|34=135|52=20231112-14:57:26|10=095|
2023-11-12 15:57:36.804 [30] [FixSender] (DEBUG) Receiving 8=FIX.4.4|9=62|35=0|34=164|49=DMA_HUB|56=FIXCLIENT1|52=20231112-14:57:36.804|10=039|
2023-11-12 15:57:56.328 [31] [FixSender] (DEBUG) Sending 8=FIX.4.4|9=58|35=0|49=FIXCLIENT1|56=DMA_HUB|34=136|52=20231112-14:57:56|10=099|
2023-11-12 15:58:06.756 [30] [FixSender] (DEBUG) Receiving 8=FIX.4.4|9=62|35=0|34=165|49=DMA_HUB|56=FIXCLIENT1|52=20231112-14:58:06.756|10=044|
2023-11-12 15:58:26.337 [31] [FixSender] (DEBUG) Sending 8=FIX.4.4|9=58|35=0|49=FIXCLIENT1|56=DMA_HUB|34=137|52=20231112-14:58:26|10=098|
2023-11-12 15:58:36.706 [30] [FixSender] (DEBUG) Receiving 8=FIX.4.4|9=62|35=0|34=166|49=DMA_HUB|56=FIXCLIENT1|52=20231112-14:58:36.706|10=043|
2023-11-12 15:58:56.345 [31] [FixSender] (DEBUG) Sending 8=FIX.4.4|9=58|35=0|49=FIXCLIENT1|56=DMA_HUB|34=138|52=20231112-14:58:56|10=102|
2023-11-12 15:59:06.655 [30] [FixSender] (DEBUG) Receiving 8=FIX.4.4|9=62|35=0|34=167|49=DMA_HUB|56=FIXCLIENT1|52=20231112-14:59:06.655|10=045|
2023-11-12 15:59:09.241 [38] [FixSender] (DEBUG) Sending 8=FIX.4.4|9=198|35=D|49=FIXCLIENT1|56=DMA_HUB|34=139|52=20231112-14:59:09|21=1|11=HS_16998011495|38=2531|55=E:07G@XETR|54=2|60=20231112-14:59:09|40=2|59=0|44=197.111|48=US3390411052|22=4|15=EUR|207=XETR|1=bram_123|10=158|
2023-11-12 15:59:09.241 [30] [FixSender] (DEBUG) Receiving 8=FIX.4.4|9=240|35=8|34=168|49=DMA_HUB|56=FIXCLIENT1|52=20231112-14:59:09.241|11=HS_16998011495|37=FX0vZ3prO|54=2|40=2|59=0|17=202311126|150=A|39=A|38=2531|151=2531|14=0|6=0|44=197.111|60=20231112-14:59:09.000|22=4|48=US3390411052|207=XETR|15=EUR|55=[N/A]|10=034|
2023-11-12 15:59:36.615 [30] [FixSender] (DEBUG) Receiving 8=FIX.4.4|9=62|35=0|34=169|49=DMA_HUB|56=FIXCLIENT1|52=20231112-14:59:36.615|10=046|
2023-11-12 15:59:39.255 [31] [FixSender] (DEBUG) Sending 8=FIX.4.4|9=58|35=0|49=FIXCLIENT1|56=DMA_HUB|34=140|52=20231112-14:59:39|10=097|
2023-11-12 16:00:06.561 [30] [FixSender] (DEBUG) Receiving 8=FIX.4.4|9=62|35=0|34=170|49=DMA_HUB|56=FIXCLIENT1|52=20231112-15:00:06.561|10=022|
2023-11-12 16:00:09.258 [31] [FixSender] (DEBUG) Sending 8=FIX.4.4|9=58|35=0|49=FIXCLIENT1|56=DMA_HUB|34=141|52=20231112-15:00:09|10=082|
2023-11-12 16:00:36.521 [30] [FixSender] (DEBUG) Receiving 8=FIX.4.4|9=62|35=0|34=171|49=DMA_HUB|56=FIXCLIENT1|52=20231112-15:00:36.521|10=022|
2023-11-12 16:00:39.275 [31] [FixSender] (DEBUG) Sending 8=FIX.4.4|9=58|35=0|49=FIXCLIENT1|56=DMA_HUB|34=142|52=20231112-15:00:39|10=086|
2023-11-12 16:01:06.474 [30] [FixSender] (DEBUG) Receiving 8=FIX.4.4|9=62|35=0|34=172|49=DMA_HUB|56=FIXCLIENT1|52=20231112-15:01:06.472|10=026|
2023-11-12 16:01:09.285 [31] [FixSender] (DEBUG) Sending 8=FIX.4.4|9=58|35=0|49=FIXCLIENT1|56=DMA_HUB|34=143|52=20231112-15:01:09|10=085|
2023-11-12 16:01:36.419 [30] [FixSender] (DEBUG) Receiving 8=FIX.4.4|9=62|35=0|34=173|49=DMA_HUB|56=FIXCLIENT1|52=20231112-15:01:36.419|10=031|
2023-11-12 16:01:39.289 [31] [FixSender] (DEBUG) Sending 8=FIX.4.4|9=58|35=0|49=FIXCLIENT1|56=DMA_HUB|34=144|52=20231112-15:01:39|10=089|
2023-11-12 16:02:06.369 [30] [FixSender] (DEBUG) Receiving 8=FIX.4.4|9=62|35=0|34=174|49=DMA_HUB|56=FIXCLIENT1|52=20231112-15:02:06.368|10=033|
2023-11-12 16:02:09.295 [31] [FixSender] (DEBUG) Sending 8=FIX.4.4|9=58|35=0|49=FIXCLIENT1|56=DMA_HUB|34=145|52=20231112-15:02:09|10=088|
2023-11-12 16:02:36.319 [30] [FixSender] (DEBUG) Receiving 8=FIX.4.4|9=62|35=0|34=175|49=DMA_HUB|56=FIXCLIENT1|52=20231112-15:02:36.319|10=033|
2023-11-12 16:02:39.308 [31] [FixSender] (DEBUG) Sending 8=FIX.4.4|9=58|35=0|49=FIXCLIENT1|56=DMA_HUB|34=146|52=20231112-15:02:39|10=092|
2023-11-12 16:03:06.282 [30] [FixSender] (DEBUG) Receiving 8=FIX.4.4|9=62|35=0|34=176|49=DMA_HUB|56=FIXCLIENT1|52=20231112-15:03:06.282|10=031|
2023-11-12 16:03:09.317 [31] [FixSender] (DEBUG) Sending 8=FIX.4.4|9=58|35=0|49=FIXCLIENT1|56=DMA_HUB|34=147|52=20231112-15:03:09|10=091|
2023-11-12 16:03:36.230 [30] [FixSender] (DEBUG) Receiving 8=FIX.4.4|9=62|35=0|34=177|49=DMA_HUB|56=FIXCLIENT1|52=20231112-15:03:36.230|10=028|
2023-11-12 16:03:39.325 [31] [FixSender] (DEBUG) Sending 8=FIX.4.4|9=58|35=0|49=FIXCLIENT1|56=DMA_HUB|34=148|52=20231112-15:03:39|10=095|
2023-11-12 16:04:06.172 [30] [FixSender] (DEBUG) Receiving 8=FIX.4.4|9=62|35=0|34=178|49=DMA_HUB|56=FIXCLIENT1|52=20231112-15:04:06.172|10=032|
2023-11-12 16:04:09.336 [31] [FixSender] (DEBUG) Sending 8=FIX.4.4|9=58|35=0|49=FIXCLIENT1|56=DMA_HUB|34=149|52=20231112-15:04:09|10=094|
2023-11-12 16:04:36.134 [30] [FixSender] (DEBUG) Receiving 8=FIX.4.4|9=62|35=0|34=179|49=DMA_HUB|56=FIXCLIENT1|52=20231112-15:04:36.134|10=034|
2023-11-12 16:04:39.344 [31] [FixSender] (DEBUG) Sending 8=FIX.4.4|9=58|35=0|49=FIXCLIENT1|56=DMA_HUB|34=150|52=20231112-15:04:39|10=089|
2023-11-12 16:05:06.076 [30] [FixSender] (DEBUG) Receiving 8=FIX.4.4|9=62|35=0|34=180|49=DMA_HUB|56=FIXCLIENT1|52=20231112-15:05:06.075|10=028|
2023-11-12 16:05:09.354 [31] [FixSender] (DEBUG) Sending 8=FIX.4.4|9=58|35=0|49=FIXCLIENT1|56=DMA_HUB|34=151|52=20231112-15:05:09|10=088|
2023-11-12 16:05:36.029 [30] [FixSender] (DEBUG) Receiving 8=FIX.4.4|9=62|35=0|34=181|49=DMA_HUB|56=FIXCLIENT1|52=20231112-15:05:36.029|10=031|
2023-11-12 16:05:39.363 [31] [FixSender] (DEBUG) Sending 8=FIX.4.4|9=58|35=0|49=FIXCLIENT1|56=DMA_HUB|34=152|52=20231112-15:05:39|10=092|
2023-11-12 16:06:06.031 [30] [FixSender] (DEBUG) Receiving 8=FIX.4.4|9=62|35=0|34=182|49=DMA_HUB|56=FIXCLIENT1|52=20231112-15:06:06.023|10=024|
2023-11-12 16:06:09.372 [31] [FixSender] (DEBUG) Sending 8=FIX.4.4|9=58|35=0|49=FIXCLIENT1|56=DMA_HUB|34=153|52=20231112-15:06:09|10=091|
2023-11-12 16:06:36.000 [30] [FixSender] (DEBUG) Receiving 8=FIX.4.4|9=62|35=0|34=183|49=DMA_HUB|56=FIXCLIENT1|52=20231112-15:06:36.000|10=023|
2023-11-12 16:06:39.385 [31] [FixSender] (DEBUG) Sending 8=FIX.4.4|9=58|35=0|49=FIXCLIENT1|56=DMA_HUB|34=154|52=20231112-15:06:39|10=095|
2023-11-12 16:07:05.949 [30] [FixSender] (DEBUG) Receiving 8=FIX.4.4|9=62|35=0|34=184|49=DMA_HUB|56=FIXCLIENT1|52=20231112-15:07:05.948|10=042|
2023-11-12 16:07:09.402 [31] [FixSender] (DEBUG) Sending 8=FIX.4.4|9=58|35=0|49=FIXCLIENT1|56=DMA_HUB|34=155|52=20231112-15:07:09|10=094|
2023-11-12 16:07:35.901 [30] [FixSender] (DEBUG) Receiving 8=FIX.4.4|9=62|35=0|34=185|49=DMA_HUB|56=FIXCLIENT1|52=20231112-15:07:35.901|10=035|
2023-11-12 16:07:39.407 [31] [FixSender] (DEBUG) Sending 8=FIX.4.4|9=58|35=0|49=FIXCLIENT1|56=DMA_HUB|34=156|52=20231112-15:07:39|10=098|
2023-11-12 16:08:05.858 [30] [FixSender] (DEBUG) Receiving 8=FIX.4.4|9=62|35=0|34=186|49=DMA_HUB|56=FIXCLIENT1|52=20231112-15:08:05.858|10=045|
2023-11-12 16:08:09.414 [31] [FixSender] (DEBUG) Sending 8=FIX.4.4|9=58|35=0|49=FIXCLIENT1|56=DMA_HUB|34=157|52=20231112-15:08:09|10=097|
2023-11-12 16:08:35.806 [30] [FixSender] (DEBUG) Receiving 8=FIX.4.4|9=62|35=0|34=187|49=DMA_HUB|56=FIXCLIENT1|52=20231112-15:08:35.806|10=042|
2023-11-12 16:08:39.415 [31] [FixSender] (DEBUG) Sending 8=FIX.4.4|9=58|35=0|49=FIXCLIENT1|56=DMA_HUB|34=158|52=20231112-15:08:39|10=101|
2023-11-12 16:09:05.770 [30] [FixSender] (DEBUG) Receiving 8=FIX.4.4|9=62|35=0|34=188|49=DMA_HUB|56=FIXCLIENT1|52=20231112-15:09:05.770|10=041|
2023-11-12 16:09:09.419 [31] [FixSender] (DEBUG) Sending 8=FIX.4.4|9=58|35=0|49=FIXCLIENT1|56=DMA_HUB|34=159|52=20231112-15:09:09|10=100|
2023-11-12 16:09:35.716 [30] [FixSender] (DEBUG) Receiving 8=FIX.4.4|9=62|35=0|34=189|49=DMA_HUB|56=FIXCLIENT1|52=20231112-15:09:35.716|10=045|
2023-11-12 16:09:39.428 [31] [FixSender] (DEBUG) Sending 8=FIX.4.4|9=58|35=0|49=FIXCLIENT1|56=DMA_HUB|34=160|52=20231112-15:09:39|10=095|
2023-11-12 16:10:05.666 [30] [FixSender] (DEBUG) Receiving 8=FIX.4.4|9=62|35=0|34=190|49=DMA_HUB|56=FIXCLIENT1|52=20231112-15:10:05.666|10=030|
2023-11-12 16:10:09.442 [31] [FixSender] (DEBUG) Sending 8=FIX.4.4|9=58|35=0|49=FIXCLIENT1|56=DMA_HUB|34=161|52=20231112-15:10:09|10=085|
2023-11-12 16:10:35.619 [30] [FixSender] (DEBUG) Receiving 8=FIX.4.4|9=62|35=0|34=191|49=DMA_HUB|56=FIXCLIENT1|52=20231112-15:10:35.619|10=032|
2023-11-12 16:10:39.451 [31] [FixSender] (DEBUG) Sending 8=FIX.4.4|9=58|35=0|49=FIXCLIENT1|56=DMA_HUB|34=162|52=20231112-15:10:39|10=089|
2023-11-12 16:11:05.573 [30] [FixSender] (DEBUG) Receiving 8=FIX.4.4|9=62|35=0|34=192|49=DMA_HUB|56=FIXCLIENT1|52=20231112-15:11:05.573|10=030|
2023-11-12 16:11:09.458 [31] [FixSender] (DEBUG) Sending 8=FIX.4.4|9=58|35=0|49=FIXCLIENT1|56=DMA_HUB|34=163|52=20231112-15:11:09|10=088|
2023-11-12 16:11:35.517 [30] [FixSender] (DEBUG) Receiving 8=FIX.4.4|9=62|35=0|34=193|49=DMA_HUB|56=FIXCLIENT1|52=20231112-15:11:35.517|10=032|
2023-11-12 16:11:39.463 [31] [FixSender] (DEBUG) Sending 8=FIX.4.4|9=58|35=0|49=FIXCLIENT1|56=DMA_HUB|34=164|52=20231112-15:11:39|10=092|
2023-11-12 16:12:05.471 [30] [FixSender] (DEBUG) Receiving 8=FIX.4.4|9=62|35=0|34=194|49=DMA_HUB|56=FIXCLIENT1|52=20231112-15:12:05.471|10=030|
2023-11-12 16:12:09.475 [31] [FixSender] (DEBUG) Sending 8=FIX.4.4|9=58|35=0|49=FIXCLIENT1|56=DMA_HUB|34=165|52=20231112-15:12:09|10=091|
2023-11-12 16:12:35.424 [30] [FixSender] (DEBUG) Receiving 8=FIX.4.4|9=62|35=0|34=195|49=DMA_HUB|56=FIXCLIENT1|52=20231112-15:12:35.424|10=032|
2023-11-12 16:12:39.482 [31] [FixSender] (DEBUG) Sending 8=FIX.4.4|9=58|35=0|49=FIXCLIENT1|56=DMA_HUB|34=166|52=20231112-15:12:39|10=095|
2023-11-12 16:13:05.372 [30] [FixSender] (DEBUG) Receiving 8=FIX.4.4|9=62|35=0|34=196|49=DMA_HUB|56=FIXCLIENT1|52=20231112-15:13:05.372|10=033|
2023-11-12 16:13:09.491 [31] [FixSender] (DEBUG) Sending 8=FIX.4.4|9=58|35=0|49=FIXCLIENT1|56=DMA_HUB|34=167|52=20231112-15:13:09|10=094|
2023-11-12 16:13:35.327 [30] [FixSender] (DEBUG) Receiving 8=FIX.4.4|9=62|35=0|34=197|49=DMA_HUB|56=FIXCLIENT1|52=20231112-15:13:35.327|10=037|
2023-11-12 16:13:39.498 [31] [FixSender] (DEBUG) Sending 8=FIX.4.4|9=58|35=0|49=FIXCLIENT1|56=DMA_HUB|34=168|52=20231112-15:13:39|10=098|
2023-11-12 16:14:05.283 [30] [FixSender] (DEBUG) Receiving 8=FIX.4.4|9=62|35=0|34=198|49=DMA_HUB|56=FIXCLIENT1|52=20231112-15:14:05.283|10=037|
2023-11-12 16:14:09.507 [31] [FixSender] (DEBUG) Sending 8=FIX.4.4|9=58|35=0|49=FIXCLIENT1|56=DMA_HUB|34=169|52=20231112-15:14:09|10=097|
2023-11-12 16:14:35.227 [30] [FixSender] (DEBUG) Receiving 8=FIX.4.4|9=62|35=0|34=199|49=DMA_HUB|56=FIXCLIENT1|52=20231112-15:14:35.227|10=039|
2023-11-12 16:14:39.518 [31] [FixSender] (DEBUG) Sending 8=FIX.4.4|9=58|35=0|49=FIXCLIENT1|56=DMA_HUB|34=170|52=20231112-15:14:39|10=092|
2023-11-12 16:15:05.188 [30] [FixSender] (DEBUG) Receiving 8=FIX.4.4|9=62|35=0|34=200|49=DMA_HUB|56=FIXCLIENT1|52=20231112-15:15:05.188|10=026|
2023-11-12 16:15:09.529 [31] [FixSender] (DEBUG) Sending 8=FIX.4.4|9=58|35=0|49=FIXCLIENT1|56=DMA_HUB|34=171|52=20231112-15:15:09|10=091|
2023-11-12 16:15:35.135 [30] [FixSender] (DEBUG) Receiving 8=FIX.4.4|9=62|35=0|34=201|49=DMA_HUB|56=FIXCLIENT1|52=20231112-15:15:35.135|10=022|
2023-11-12 16:15:39.534 [31] [FixSender] (DEBUG) Sending 8=FIX.4.4|9=58|35=0|49=FIXCLIENT1|56=DMA_HUB|34=172|52=20231112-15:15:39|10=095|
2023-11-12 16:16:05.085 [30] [FixSender] (DEBUG) Receiving 8=FIX.4.4|9=62|35=0|34=202|49=DMA_HUB|56=FIXCLIENT1|52=20231112-15:16:05.085|10=025|
2023-11-12 16:16:09.546 [31] [FixSender] (DEBUG) Sending 8=FIX.4.4|9=58|35=0|49=FIXCLIENT1|56=DMA_HUB|34=173|52=20231112-15:16:09|10=094|
2023-11-12 16:16:35.043 [30] [FixSender] (DEBUG) Receiving 8=FIX.4.4|9=62|35=0|34=203|49=DMA_HUB|56=FIXCLIENT1|52=20231112-15:16:35.043|10=023|
2023-11-12 16:16:39.560 [31] [FixSender] (DEBUG) Sending 8=FIX.4.4|9=58|35=0|49=FIXCLIENT1|56=DMA_HUB|34=174|52=20231112-15:16:39|10=098|
2023-11-12 16:17:04.993 [30] [FixSender] (DEBUG) Receiving 8=FIX.4.4|9=62|35=0|34=204|49=DMA_HUB|56=FIXCLIENT1|52=20231112-15:17:04.991|10=033|
2023-11-12 16:17:09.563 [31] [FixSender] (DEBUG) Sending 8=FIX.4.4|9=58|35=0|49=FIXCLIENT1|56=DMA_HUB|34=175|52=20231112-15:17:09|10=097|
2023-11-12 16:17:34.942 [30] [FixSender] (DEBUG) Receiving 8=FIX.4.4|9=62|35=0|34=205|49=DMA_HUB|56=FIXCLIENT1|52=20231112-15:17:34.942|10=033|
2023-11-12 16:17:39.568 [31] [FixSender] (DEBUG) Sending 8=FIX.4.4|9=58|35=0|49=FIXCLIENT1|56=DMA_HUB|34=176|52=20231112-15:17:39|10=101|
2023-11-12 16:18:04.894 [30] [FixSender] (DEBUG) Receiving 8=FIX.4.4|9=62|35=0|34=206|49=DMA_HUB|56=FIXCLIENT1|52=20231112-15:18:04.894|10=038|
2023-11-12 16:18:09.569 [31] [FixSender] (DEBUG) Sending 8=FIX.4.4|9=58|35=0|49=FIXCLIENT1|56=DMA_HUB|34=177|52=20231112-15:18:09|10=100|
2023-11-12 16:18:34.854 [30] [FixSender] (DEBUG) Receiving 8=FIX.4.4|9=62|35=0|34=207|49=DMA_HUB|56=FIXCLIENT1|52=20231112-15:18:34.854|10=038|
2023-11-12 16:18:39.575 [31] [FixSender] (DEBUG) Sending 8=FIX.4.4|9=58|35=0|49=FIXCLIENT1|56=DMA_HUB|34=178|52=20231112-15:18:39|10=104|
2023-11-12 16:19:04.796 [30] [FixSender] (DEBUG) Receiving 8=FIX.4.4|9=62|35=0|34=208|49=DMA_HUB|56=FIXCLIENT1|52=20231112-15:19:04.796|10=042|
2023-11-12 16:19:09.582 [31] [FixSender] (DEBUG) Sending 8=FIX.4.4|9=58|35=0|49=FIXCLIENT1|56=DMA_HUB|34=179|52=20231112-15:19:09|10=103|
2023-11-12 16:19:34.755 [30] [FixSender] (DEBUG) Receiving 8=FIX.4.4|9=62|35=0|34=209|49=DMA_HUB|56=FIXCLIENT1|52=20231112-15:19:34.755|10=041|
2023-11-12 16:19:39.592 [31] [FixSender] (DEBUG) Sending 8=FIX.4.4|9=58|35=0|49=FIXCLIENT1|56=DMA_HUB|34=180|52=20231112-15:19:39|10=098|
2023-11-12 16:20:04.712 [30] [FixSender] (DEBUG) Receiving 8=FIX.4.4|9=62|35=0|34=210|49=DMA_HUB|56=FIXCLIENT1|52=20231112-15:20:04.711|10=014|
2023-11-12 16:20:09.598 [31] [FixSender] (DEBUG) Sending 8=FIX.4.4|9=58|35=0|49=FIXCLIENT1|56=DMA_HUB|34=181|52=20231112-15:20:09|10=088|
2023-11-12 16:20:34.655 [30] [FixSender] (DEBUG) Receiving 8=FIX.4.4|9=62|35=0|34=211|49=DMA_HUB|56=FIXCLIENT1|52=20231112-15:20:34.655|10=025|
2023-11-12 16:20:39.600 [31] [FixSender] (DEBUG) Sending 8=FIX.4.4|9=58|35=0|49=FIXCLIENT1|56=DMA_HUB|34=182|52=20231112-15:20:39|10=092|
2023-11-12 16:21:04.613 [30] [FixSender] (DEBUG) Receiving 8=FIX.4.4|9=62|35=0|34=212|49=DMA_HUB|56=FIXCLIENT1|52=20231112-15:21:04.613|10=018|
2023-11-12 16:21:09.603 [31] [FixSender] (DEBUG) Sending 8=FIX.4.4|9=58|35=0|49=FIXCLIENT1|56=DMA_HUB|34=183|52=20231112-15:21:09|10=091|
2023-11-12 16:21:34.555 [30] [FixSender] (DEBUG) Receiving 8=FIX.4.4|9=62|35=0|34=213|49=DMA_HUB|56=FIXCLIENT1|52=20231112-15:21:34.555|10=027|
2023-11-12 16:21:39.609 [31] [FixSender] (DEBUG) Sending 8=FIX.4.4|9=58|35=0|49=FIXCLIENT1|56=DMA_HUB|34=184|52=20231112-15:21:39|10=095|
2023-11-12 16:22:04.509 [30] [FixSender] (DEBUG) Receiving 8=FIX.4.4|9=62|35=0|34=214|49=DMA_HUB|56=FIXCLIENT1|52=20231112-15:22:04.509|10=025|
2023-11-12 16:22:09.617 [31] [FixSender] (DEBUG) Sending 8=FIX.4.4|9=58|35=0|49=FIXCLIENT1|56=DMA_HUB|34=185|52=20231112-15:22:09|10=094|
2023-11-12 16:22:34.467 [30] [FixSender] (DEBUG) Receiving 8=FIX.4.4|9=62|35=0|34=215|49=DMA_HUB|56=FIXCLIENT1|52=20231112-15:22:34.466|10=031|
2023-11-12 16:22:39.632 [31] [FixSender] (DEBUG) Sending 8=FIX.4.4|9=58|35=0|49=FIXCLIENT1|56=DMA_HUB|34=186|52=20231112-15:22:39|10=098|
2023-11-12 16:23:04.420 [30] [FixSender] (DEBUG) Receiving 8=FIX.4.4|9=62|35=0|34=216|49=DMA_HUB|56=FIXCLIENT1|52=20231112-15:23:04.420|10=020|
2023-11-12 16:23:09.646 [31] [FixSender] (DEBUG) Sending 8=FIX.4.4|9=58|35=0|49=FIXCLIENT1|56=DMA_HUB|34=187|52=20231112-15:23:09|10=097|
2023-11-12 16:23:34.376 [30] [FixSender] (DEBUG) Receiving 8=FIX.4.4|9=62|35=0|34=217|49=DMA_HUB|56=FIXCLIENT1|52=20231112-15:23:34.376|10=034|
2023-11-12 16:23:39.661 [31] [FixSender] (DEBUG) Sending 8=FIX.4.4|9=58|35=0|49=FIXCLIENT1|56=DMA_HUB|34=188|52=20231112-15:23:39|10=101|
2023-11-12 16:24:04.323 [30] [FixSender] (DEBUG) Receiving 8=FIX.4.4|9=62|35=0|34=218|49=DMA_HUB|56=FIXCLIENT1|52=20231112-15:24:04.322|10=024|
2023-11-12 16:24:09.664 [31] [FixSender] (DEBUG) Sending 8=FIX.4.4|9=58|35=0|49=FIXCLIENT1|56=DMA_HUB|34=189|52=20231112-15:24:09|10=100|
2023-11-12 16:24:34.272 [30] [FixSender] (DEBUG) Receiving 8=FIX.4.4|9=62|35=0|34=219|49=DMA_HUB|56=FIXCLIENT1|52=20231112-15:24:34.272|10=032|
2023-11-12 16:24:39.680 [31] [FixSender] (DEBUG) Sending 8=FIX.4.4|9=58|35=0|49=FIXCLIENT1|56=DMA_HUB|34=190|52=20231112-15:24:39|10=095|
2023-11-12 16:25:04.222 [30] [FixSender] (DEBUG) Receiving 8=FIX.4.4|9=62|35=0|34=220|49=DMA_HUB|56=FIXCLIENT1|52=20231112-15:25:04.221|10=016|
2023-11-12 16:25:09.694 [31] [FixSender] (DEBUG) Sending 8=FIX.4.4|9=58|35=0|49=FIXCLIENT1|56=DMA_HUB|34=191|52=20231112-15:25:09|10=094|
2023-11-12 16:25:34.187 [30] [FixSender] (DEBUG) Receiving 8=FIX.4.4|9=62|35=0|34=221|49=DMA_HUB|56=FIXCLIENT1|52=20231112-15:25:34.187|10=031|
2023-11-12 16:25:39.701 [31] [FixSender] (DEBUG) Sending 8=FIX.4.4|9=58|35=0|49=FIXCLIENT1|56=DMA_HUB|34=192|52=20231112-15:25:39|10=098|
2023-11-12 16:26:04.195 [30] [FixSender] (DEBUG) Receiving 8=FIX.4.4|9=62|35=0|34=222|49=DMA_HUB|56=FIXCLIENT1|52=20231112-15:26:04.195|10=029|
2023-11-12 16:26:09.708 [31] [FixSender] (DEBUG) Sending 8=FIX.4.4|9=58|35=0|49=FIXCLIENT1|56=DMA_HUB|34=193|52=20231112-15:26:09|10=097|
2023-11-12 16:26:34.141 [30] [FixSender] (DEBUG) Receiving 8=FIX.4.4|9=62|35=0|34=223|49=DMA_HUB|56=FIXCLIENT1|52=20231112-15:26:34.140|10=023|
2023-11-12 16:26:39.716 [31] [FixSender] (DEBUG) Sending 8=FIX.4.4|9=58|35=0|49=FIXCLIENT1|56=DMA_HUB|34=194|52=20231112-15:26:39|10=101|
2023-11-12 16:27:04.094 [30] [FixSender] (DEBUG) Receiving 8=FIX.4.4|9=62|35=0|34=224|49=DMA_HUB|56=FIXCLIENT1|52=20231112-15:27:04.092|10=028|
2023-11-12 16:27:09.731 [31] [FixSender] (DEBUG) Sending 8=FIX.4.4|9=58|35=0|49=FIXCLIENT1|56=DMA_HUB|34=195|52=20231112-15:27:09|10=100|
2023-11-12 16:27:34.058 [30] [FixSender] (DEBUG) Receiving 8=FIX.4.4|9=62|35=0|34=225|49=DMA_HUB|56=FIXCLIENT1|52=20231112-15:27:34.057|10=033|
2023-11-12 16:27:39.735 [31] [FixSender] (DEBUG) Sending 8=FIX.4.4|9=58|35=0|49=FIXCLIENT1|56=DMA_HUB|34=196|52=20231112-15:27:39|10=104|
2023-11-12 16:28:04.003 [30] [FixSender] (DEBUG) Receiving 8=FIX.4.4|9=62|35=0|34=226|49=DMA_HUB|56=FIXCLIENT1|52=20231112-15:28:04.003|10=023|
2023-11-12 16:28:09.750 [31] [FixSender] (DEBUG) Sending 8=FIX.4.4|9=58|35=0|49=FIXCLIENT1|56=DMA_HUB|34=197|52=20231112-15:28:09|10=103|
2023-11-12 16:28:33.956 [30] [FixSender] (DEBUG) Receiving 8=FIX.4.4|9=62|35=0|34=227|49=DMA_HUB|56=FIXCLIENT1|52=20231112-15:28:33.955|10=042|
2023-11-12 16:28:39.757 [31] [FixSender] (DEBUG) Sending 8=FIX.4.4|9=58|35=0|49=FIXCLIENT1|56=DMA_HUB|34=198|52=20231112-15:28:39|10=107|
2023-11-12 16:29:03.909 [30] [FixSender] (DEBUG) Receiving 8=FIX.4.4|9=62|35=0|34=228|49=DMA_HUB|56=FIXCLIENT1|52=20231112-15:29:03.909|10=040|
2023-11-12 16:29:09.761 [31] [FixSender] (DEBUG) Sending 8=FIX.4.4|9=58|35=0|49=FIXCLIENT1|56=DMA_HUB|34=199|52=20231112-15:29:09|10=106|
2023-11-12 16:29:33.864 [30] [FixSender] (DEBUG) Receiving 8=FIX.4.4|9=62|35=0|34=229|49=DMA_HUB|56=FIXCLIENT1|52=20231112-15:29:33.864|10=044|
2023-11-12 16:29:39.772 [31] [FixSender] (DEBUG) Sending 8=FIX.4.4|9=58|35=0|49=FIXCLIENT1|56=DMA_HUB|34=200|52=20231112-15:29:39|10=092|
2023-11-12 16:30:03.815 [30] [FixSender] (DEBUG) Receiving 8=FIX.4.4|9=62|35=0|34=230|49=DMA_HUB|56=FIXCLIENT1|52=20231112-15:30:03.815|10=021|
2023-11-12 16:30:09.784 [31] [FixSender] (DEBUG) Sending 8=FIX.4.4|9=58|35=0|49=FIXCLIENT1|56=DMA_HUB|34=201|52=20231112-15:30:09|10=082|
2023-11-12 16:30:33.760 [30] [FixSender] (DEBUG) Receiving 8=FIX.4.4|9=62|35=0|34=231|49=DMA_HUB|56=FIXCLIENT1|52=20231112-15:30:33.758|10=031|
2023-11-12 16:30:39.789 [31] [FixSender] (DEBUG) Sending 8=FIX.4.4|9=58|35=0|49=FIXCLIENT1|56=DMA_HUB|34=202|52=20231112-15:30:39|10=086|
2023-11-12 16:31:03.709 [30] [FixSender] (DEBUG) Receiving 8=FIX.4.4|9=62|35=0|34=232|49=DMA_HUB|56=FIXCLIENT1|52=20231112-15:31:03.708|10=025|
2023-11-12 16:31:09.804 [31] [FixSender] (DEBUG) Sending 8=FIX.4.4|9=58|35=0|49=FIXCLIENT1|56=DMA_HUB|34=203|52=20231112-15:31:09|10=085|
2023-11-12 16:31:33.673 [30] [FixSender] (DEBUG) Receiving 8=FIX.4.4|9=62|35=0|34=233|49=DMA_HUB|56=FIXCLIENT1|52=20231112-15:31:33.673|10=030|
2023-11-12 16:31:39.810 [31] [FixSender] (DEBUG) Sending 8=FIX.4.4|9=58|35=0|49=FIXCLIENT1|56=DMA_HUB|34=204|52=20231112-15:31:39|10=089|
2023-11-12 16:32:03.617 [30] [FixSender] (DEBUG) Receiving 8=FIX.4.4|9=62|35=0|34=234|49=DMA_HUB|56=FIXCLIENT1|52=20231112-15:32:03.617|10=027|
2023-11-12 16:32:09.818 [31] [FixSender] (DEBUG) Sending 8=FIX.4.4|9=58|35=0|49=FIXCLIENT1|56=DMA_HUB|34=205|52=20231112-15:32:09|10=088|
2023-11-12 16:32:33.582 [30] [FixSender] (DEBUG) Receiving 8=FIX.4.4|9=62|35=0|34=235|49=DMA_HUB|56=FIXCLIENT1|52=20231112-15:32:33.576|10=035|
2023-11-12 16:32:39.825 [31] [FixSender] (DEBUG) Sending 8=FIX.4.4|9=58|35=0|49=FIXCLIENT1|56=DMA_HUB|34=206|52=20231112-15:32:39|10=092|
2023-11-12 16:33:03.518 [30] [FixSender] (DEBUG) Receiving 8=FIX.4.4|9=62|35=0|34=236|49=DMA_HUB|56=FIXCLIENT1|52=20231112-15:33:03.517|10=029|
2023-11-12 16:33:09.830 [31] [FixSender] (DEBUG) Sending 8=FIX.4.4|9=58|35=0|49=FIXCLIENT1|56=DMA_HUB|34=207|52=20231112-15:33:09|10=091|
2023-11-12 16:33:33.480 [30] [FixSender] (DEBUG) Receiving 8=FIX.4.4|9=62|35=0|34=237|49=DMA_HUB|56=FIXCLIENT1|52=20231112-15:33:33.480|10=032|
2023-11-12 16:33:39.843 [31] [FixSender] (DEBUG) Sending 8=FIX.4.4|9=58|35=0|49=FIXCLIENT1|56=DMA_HUB|34=208|52=20231112-15:33:39|10=095|
2023-11-12 16:34:03.427 [30] [FixSender] (DEBUG) Receiving 8=FIX.4.4|9=62|35=0|34=238|49=DMA_HUB|56=FIXCLIENT1|52=20231112-15:34:03.427|10=032|
2023-11-12 16:34:09.850 [31] [FixSender] (DEBUG) Sending 8=FIX.4.4|9=58|35=0|49=FIXCLIENT1|56=DMA_HUB|34=209|52=20231112-15:34:09|10=094|
2023-11-12 16:34:33.377 [30] [FixSender] (DEBUG) Receiving 8=FIX.4.4|9=62|35=0|34=239|49=DMA_HUB|56=FIXCLIENT1|52=20231112-15:34:33.376|10=039|
2023-11-12 16:34:39.860 [31] [FixSender] (DEBUG) Sending 8=FIX.4.4|9=58|35=0|49=FIXCLIENT1|56=DMA_HUB|34=210|52=20231112-15:34:39|10=089|
2023-11-12 16:35:03.336 [30] [FixSender] (DEBUG) Receiving 8=FIX.4.4|9=62|35=0|34=240|49=DMA_HUB|56=FIXCLIENT1|52=20231112-15:35:03.336|10=025|
2023-11-12 16:35:09.869 [31] [FixSender] (DEBUG) Sending 8=FIX.4.4|9=58|35=0|49=FIXCLIENT1|56=DMA_HUB|34=211|52=20231112-15:35:09|10=088|
2023-11-12 16:35:33.277 [30] [FixSender] (DEBUG) Receiving 8=FIX.4.4|9=62|35=0|34=241|49=DMA_HUB|56=FIXCLIENT1|52=20231112-15:35:33.277|10=033|
2023-11-12 16:35:39.881 [31] [FixSender] (DEBUG) Sending 8=FIX.4.4|9=58|35=0|49=FIXCLIENT1|56=DMA_HUB|34=212|52=20231112-15:35:39|10=092|
2023-11-12 16:36:03.228 [30] [FixSender] (DEBUG) Receiving 8=FIX.4.4|9=62|35=0|34=242|49=DMA_HUB|56=FIXCLIENT1|52=20231112-15:36:03.228|10=028|
2023-11-12 16:36:09.886 [31] [FixSender] (DEBUG) Sending 8=FIX.4.4|9=58|35=0|49=FIXCLIENT1|56=DMA_HUB|34=213|52=20231112-15:36:09|10=091|
2023-11-12 16:36:33.191 [30] [FixSender] (DEBUG) Receiving 8=FIX.4.4|9=62|35=0|34=243|49=DMA_HUB|56=FIXCLIENT1|52=20231112-15:36:33.191|10=031|
2023-11-12 16:36:39.899 [31] [FixSender] (DEBUG) Sending 8=FIX.4.4|9=58|35=0|49=FIXCLIENT1|56=DMA_HUB|34=214|52=20231112-15:36:39|10=095|
2023-11-12 16:37:03.140 [30] [FixSender] (DEBUG) Receiving 8=FIX.4.4|9=62|35=0|34=244|49=DMA_HUB|56=FIXCLIENT1|52=20231112-15:37:03.140|10=024|
2023-11-12 16:37:09.905 [31] [FixSender] (DEBUG) Sending 8=FIX.4.4|9=58|35=0|49=FIXCLIENT1|56=DMA_HUB|34=215|52=20231112-15:37:09|10=094|
2023-11-12 16:37:33.095 [30] [FixSender] (DEBUG) Receiving 8=FIX.4.4|9=62|35=0|34=245|49=DMA_HUB|56=FIXCLIENT1|52=20231112-15:37:33.095|10=037|
2023-11-12 16:37:39.910 [31] [FixSender] (DEBUG) Sending 8=FIX.4.4|9=58|35=0|49=FIXCLIENT1|56=DMA_HUB|34=216|52=20231112-15:37:39|10=098|
2023-11-12 16:38:03.041 [30] [FixSender] (DEBUG) Receiving 8=FIX.4.4|9=62|35=0|34=246|49=DMA_HUB|56=FIXCLIENT1|52=20231112-15:38:03.041|10=027|
2023-11-12 16:38:09.921 [31] [FixSender] (DEBUG) Sending 8=FIX.4.4|9=58|35=0|49=FIXCLIENT1|56=DMA_HUB|34=217|52=20231112-15:38:09|10=097|
2023-11-12 16:38:32.991 [30] [FixSender] (DEBUG) Receiving 8=FIX.4.4|9=62|35=0|34=247|49=DMA_HUB|56=FIXCLIENT1|52=20231112-15:38:32.991|10=044|
2023-11-12 16:38:39.933 [31] [FixSender] (DEBUG) Sending 8=FIX.4.4|9=58|35=0|49=FIXCLIENT1|56=DMA_HUB|34=218|52=20231112-15:38:39|10=101|
2023-11-12 16:39:02.949 [30] [FixSender] (DEBUG) Receiving 8=FIX.4.4|9=62|35=0|34=248|49=DMA_HUB|56=FIXCLIENT1|52=20231112-15:39:02.949|10=046|
2023-11-12 16:39:09.936 [31] [FixSender] (DEBUG) Sending 8=FIX.4.4|9=58|35=0|49=FIXCLIENT1|56=DMA_HUB|34=219|52=20231112-15:39:09|10=100|
2023-11-12 16:39:32.897 [30] [FixSender] (DEBUG) Receiving 8=FIX.4.4|9=62|35=0|34=249|49=DMA_HUB|56=FIXCLIENT1|52=20231112-15:39:32.897|10=052|
2023-11-12 16:39:39.944 [31] [FixSender] (DEBUG) Sending 8=FIX.4.4|9=58|35=0|49=FIXCLIENT1|56=DMA_HUB|34=220|52=20231112-15:39:39|10=095|
2023-11-12 16:40:02.847 [30] [FixSender] (DEBUG) Receiving 8=FIX.4.4|9=62|35=0|34=250|49=DMA_HUB|56=FIXCLIENT1|52=20231112-15:40:02.847|10=028|
2023-11-12 16:40:09.950 [31] [FixSender] (DEBUG) Sending 8=FIX.4.4|9=58|35=0|49=FIXCLIENT1|56=DMA_HUB|34=221|52=20231112-15:40:09|10=085|
2023-11-12 16:40:32.807 [30] [FixSender] (DEBUG) Receiving 8=FIX.4.4|9=62|35=0|34=251|49=DMA_HUB|56=FIXCLIENT1|52=20231112-15:40:32.807|10=028|
2023-11-12 16:40:39.958 [31] [FixSender] (DEBUG) Sending 8=FIX.4.4|9=58|35=0|49=FIXCLIENT1|56=DMA_HUB|34=222|52=20231112-15:40:39|10=089|
2023-11-12 16:41:02.751 [30] [FixSender] (DEBUG) Receiving 8=FIX.4.4|9=62|35=0|34=252|49=DMA_HUB|56=FIXCLIENT1|52=20231112-15:41:02.751|10=025|
2023-11-12 16:41:09.966 [31] [FixSender] (DEBUG) Sending 8=FIX.4.4|9=58|35=0|49=FIXCLIENT1|56=DMA_HUB|34=223|52=20231112-15:41:09|10=088|
2023-11-12 16:41:32.709 [30] [FixSender] (DEBUG) Receiving 8=FIX.4.4|9=62|35=0|34=253|49=DMA_HUB|56=FIXCLIENT1|52=20231112-15:41:32.709|10=032|
2023-11-12 16:41:39.970 [31] [FixSender] (DEBUG) Sending 8=FIX.4.4|9=58|35=0|49=FIXCLIENT1|56=DMA_HUB|34=224|52=20231112-15:41:39|10=092|
2023-11-12 16:42:02.658 [30] [FixSender] (DEBUG) Receiving 8=FIX.4.4|9=62|35=0|34=254|49=DMA_HUB|56=FIXCLIENT1|52=20231112-15:42:02.658|10=034|
2023-11-12 16:42:09.988 [31] [FixSender] (DEBUG) Sending 8=FIX.4.4|9=58|35=0|49=FIXCLIENT1|56=DMA_HUB|34=225|52=20231112-15:42:09|10=091|
2023-11-12 16:42:32.605 [30] [FixSender] (DEBUG) Receiving 8=FIX.4.4|9=62|35=0|34=255|49=DMA_HUB|56=FIXCLIENT1|52=20231112-15:42:32.605|10=030|
2023-11-12 16:42:39.990 [31] [FixSender] (DEBUG) Sending 8=FIX.4.4|9=58|35=0|49=FIXCLIENT1|56=DMA_HUB|34=226|52=20231112-15:42:39|10=095|
2023-11-12 16:43:02.555 [30] [FixSender] (DEBUG) Receiving 8=FIX.4.4|9=62|35=0|34=256|49=DMA_HUB|56=FIXCLIENT1|52=20231112-15:43:02.555|10=033|
2023-11-12 16:43:09.998 [31] [FixSender] (DEBUG) Sending 8=FIX.4.4|9=58|35=0|49=FIXCLIENT1|56=DMA_HUB|34=227|52=20231112-15:43:09|10=094|
2023-11-12 16:43:32.521 [30] [FixSender] (DEBUG) Receiving 8=FIX.4.4|9=62|35=0|34=257|49=DMA_HUB|56=FIXCLIENT1|52=20231112-15:43:32.521|10=030|
2023-11-12 16:43:40.021 [31] [FixSender] (DEBUG) Sending 8=FIX.4.4|9=58|35=0|49=FIXCLIENT1|56=DMA_HUB|34=228|52=20231112-15:43:40|10=090|
2023-11-12 16:44:02.471 [30] [FixSender] (DEBUG) Receiving 8=FIX.4.4|9=62|35=0|34=258|49=DMA_HUB|56=FIXCLIENT1|52=20231112-15:44:02.468|10=039|
2023-11-12 16:44:10.029 [31] [FixSender] (DEBUG) Sending 8=FIX.4.4|9=58|35=0|49=FIXCLIENT1|56=DMA_HUB|34=229|52=20231112-15:44:10|10=089|
2023-11-12 16:44:32.422 [30] [FixSender] (DEBUG) Receiving 8=FIX.4.4|9=62|35=0|34=259|49=DMA_HUB|56=FIXCLIENT1|52=20231112-15:44:32.419|10=039|
2023-11-12 16:44:40.038 [31] [FixSender] (DEBUG) Sending 8=FIX.4.4|9=58|35=0|49=FIXCLIENT1|56=DMA_HUB|34=230|52=20231112-15:44:40|10=084|
2023-11-12 16:45:02.376 [30] [FixSender] (DEBUG) Receiving 8=FIX.4.4|9=62|35=0|34=260|49=DMA_HUB|56=FIXCLIENT1|52=20231112-15:45:02.376|10=031|
2023-11-12 16:45:10.046 [31] [FixSender] (DEBUG) Sending 8=FIX.4.4|9=58|35=0|49=FIXCLIENT1|56=DMA_HUB|34=231|52=20231112-15:45:10|10=083|
2023-11-12 16:45:32.327 [30] [FixSender] (DEBUG) Receiving 8=FIX.4.4|9=62|35=0|34=261|49=DMA_HUB|56=FIXCLIENT1|52=20231112-15:45:32.327|10=031|
2023-11-12 16:45:40.060 [31] [FixSender] (DEBUG) Sending 8=FIX.4.4|9=58|35=0|49=FIXCLIENT1|56=DMA_HUB|34=232|52=20231112-15:45:40|10=087|
2023-11-12 16:46:02.281 [30] [FixSender] (DEBUG) Receiving 8=FIX.4.4|9=62|35=0|34=262|49=DMA_HUB|56=FIXCLIENT1|52=20231112-15:46:02.280|10=028|
2023-11-12 16:46:10.072 [31] [FixSender] (DEBUG) Sending 8=FIX.4.4|9=58|35=0|49=FIXCLIENT1|56=DMA_HUB|34=233|52=20231112-15:46:10|10=086|
2023-11-12 16:46:32.233 [30] [FixSender] (DEBUG) Receiving 8=FIX.4.4|9=62|35=0|34=263|49=DMA_HUB|56=FIXCLIENT1|52=20231112-15:46:32.232|10=029|
2023-11-12 16:46:40.077 [31] [FixSender] (DEBUG) Sending 8=FIX.4.4|9=58|35=0|49=FIXCLIENT1|56=DMA_HUB|34=234|52=20231112-15:46:40|10=090|
2023-11-12 16:47:02.184 [30] [FixSender] (DEBUG) Receiving 8=FIX.4.4|9=62|35=0|34=264|49=DMA_HUB|56=FIXCLIENT1|52=20231112-15:47:02.182|10=032|
2023-11-12 16:47:10.083 [31] [FixSender] (DEBUG) Sending 8=FIX.4.4|9=58|35=0|49=FIXCLIENT1|56=DMA_HUB|34=235|52=20231112-15:47:10|10=089|
2023-11-12 16:47:32.136 [30] [FixSender] (DEBUG) Receiving 8=FIX.4.4|9=62|35=0|34=265|49=DMA_HUB|56=FIXCLIENT1|52=20231112-15:47:32.134|10=033|
2023-11-12 16:47:40.094 [31] [FixSender] (DEBUG) Sending 8=FIX.4.4|9=58|35=0|49=FIXCLIENT1|56=DMA_HUB|34=236|52=20231112-15:47:40|10=093|
2023-11-12 16:48:02.089 [30] [FixSender] (DEBUG) Receiving 8=FIX.4.4|9=62|35=0|34=266|49=DMA_HUB|56=FIXCLIENT1|52=20231112-15:48:02.089|10=041|
2023-11-12 16:48:10.096 [31] [FixSender] (DEBUG) Sending 8=FIX.4.4|9=58|35=0|49=FIXCLIENT1|56=DMA_HUB|34=237|52=20231112-15:48:10|10=092|
2023-11-12 16:48:32.028 [30] [FixSender] (DEBUG) Receiving 8=FIX.4.4|9=62|35=0|34=267|49=DMA_HUB|56=FIXCLIENT1|52=20231112-15:48:32.028|10=038|
2023-11-12 16:48:40.105 [31] [FixSender] (DEBUG) Sending 8=FIX.4.4|9=58|35=0|49=FIXCLIENT1|56=DMA_HUB|34=238|52=20231112-15:48:40|10=096|
2023-11-12 16:49:01.986 [30] [FixSender] (DEBUG) Receiving 8=FIX.4.4|9=62|35=0|34=268|49=DMA_HUB|56=FIXCLIENT1|52=20231112-15:49:01.986|10=049|
2023-11-12 16:49:10.115 [31] [FixSender] (DEBUG) Sending 8=FIX.4.4|9=58|35=0|49=FIXCLIENT1|56=DMA_HUB|34=239|52=20231112-15:49:10|10=095|
2023-11-12 16:49:31.935 [30] [FixSender] (DEBUG) Receiving 8=FIX.4.4|9=62|35=0|34=269|49=DMA_HUB|56=FIXCLIENT1|52=20231112-15:49:31.934|10=046|
2023-11-12 16:49:40.124 [31] [FixSender] (DEBUG) Sending 8=FIX.4.4|9=58|35=0|49=FIXCLIENT1|56=DMA_HUB|34=240|52=20231112-15:49:40|10=090|
2023-11-12 16:50:01.888 [30] [FixSender] (DEBUG) Receiving 8=FIX.4.4|9=62|35=0|34=270|49=DMA_HUB|56=FIXCLIENT1|52=20231112-15:50:01.887|10=034|
2023-11-12 16:50:10.137 [31] [FixSender] (DEBUG) Sending 8=FIX.4.4|9=58|35=0|49=FIXCLIENT1|56=DMA_HUB|34=241|52=20231112-15:50:10|10=080|
2023-11-12 16:50:31.842 [30] [FixSender] (DEBUG) Receiving 8=FIX.4.4|9=62|35=0|34=271|49=DMA_HUB|56=FIXCLIENT1|52=20231112-15:50:31.841|10=028|
2023-11-12 16:50:40.142 [31] [FixSender] (DEBUG) Sending 8=FIX.4.4|9=58|35=0|49=FIXCLIENT1|56=DMA_HUB|34=242|52=20231112-15:50:40|10=084|
2023-11-12 16:51:01.789 [30] [FixSender] (DEBUG) Receiving 8=FIX.4.4|9=62|35=0|34=272|49=DMA_HUB|56=FIXCLIENT1|52=20231112-15:51:01.789|10=038|
2023-11-12 16:51:10.156 [31] [FixSender] (DEBUG) Sending 8=FIX.4.4|9=58|35=0|49=FIXCLIENT1|56=DMA_HUB|34=243|52=20231112-15:51:10|10=083|
2023-11-12 16:51:31.754 [30] [FixSender] (DEBUG) Receiving 8=FIX.4.4|9=62|35=0|34=273|49=DMA_HUB|56=FIXCLIENT1|52=20231112-15:51:31.754|10=034|
2023-11-12 16:51:40.177 [31] [FixSender] (DEBUG) Sending 8=FIX.4.4|9=58|35=0|49=FIXCLIENT1|56=DMA_HUB|34=244|52=20231112-15:51:40|10=087|
2023-11-12 16:52:01.702 [30] [FixSender] (DEBUG) Receiving 8=FIX.4.4|9=62|35=0|34=274|49=DMA_HUB|56=FIXCLIENT1|52=20231112-15:52:01.702|10=026|
2023-11-12 16:52:10.195 [31] [FixSender] (DEBUG) Sending 8=FIX.4.4|9=58|35=0|49=FIXCLIENT1|56=DMA_HUB|34=245|52=20231112-15:52:10|10=086|
2023-11-12 16:52:31.644 [30] [FixSender] (DEBUG) Receiving 8=FIX.4.4|9=62|35=0|34=275|49=DMA_HUB|56=FIXCLIENT1|52=20231112-15:52:31.643|10=034|
2023-11-12 16:52:40.209 [31] [FixSender] (DEBUG) Sending 8=FIX.4.4|9=58|35=0|49=FIXCLIENT1|56=DMA_HUB|34=246|52=20231112-15:52:40|10=090|
2023-11-12 16:53:01.608 [30] [FixSender] (DEBUG) Receiving 8=FIX.4.4|9=62|35=0|34=276|49=DMA_HUB|56=FIXCLIENT1|52=20231112-15:53:01.607|10=033|
2023-11-12 16:53:10.216 [31] [FixSender] (DEBUG) Sending 8=FIX.4.4|9=58|35=0|49=FIXCLIENT1|56=DMA_HUB|34=247|52=20231112-15:53:10|10=089|
2023-11-12 16:53:31.561 [30] [FixSender] (DEBUG) Receiving 8=FIX.4.4|9=62|35=0|34=277|49=DMA_HUB|56=FIXCLIENT1|52=20231112-15:53:31.560|10=035|
2023-11-12 16:53:40.223 [31] [FixSender] (DEBUG) Sending 8=FIX.4.4|9=58|35=0|49=FIXCLIENT1|56=DMA_HUB|34=248|52=20231112-15:53:40|10=093|
2023-11-12 16:54:01.501 [30] [FixSender] (DEBUG) Receiving 8=FIX.4.4|9=62|35=0|34=278|49=DMA_HUB|56=FIXCLIENT1|52=20231112-15:54:01.500|10=028|
2023-11-12 16:54:10.234 [31] [FixSender] (DEBUG) Sending 8=FIX.4.4|9=58|35=0|49=FIXCLIENT1|56=DMA_HUB|34=249|52=20231112-15:54:10|10=092|
2023-11-12 16:54:31.462 [30] [FixSender] (DEBUG) Receiving 8=FIX.4.4|9=62|35=0|34=279|49=DMA_HUB|56=FIXCLIENT1|52=20231112-15:54:31.462|10=039|
2023-11-12 16:54:40.237 [31] [FixSender] (DEBUG) Sending 8=FIX.4.4|9=58|35=0|49=FIXCLIENT1|56=DMA_HUB|34=250|52=20231112-15:54:40|10=087|
2023-11-12 16:55:01.406 [30] [FixSender] (DEBUG) Receiving 8=FIX.4.4|9=62|35=0|34=280|49=DMA_HUB|56=FIXCLIENT1|52=20231112-15:55:01.404|10=025|
2023-11-12 16:55:10.247 [31] [FixSender] (DEBUG) Sending 8=FIX.4.4|9=58|35=0|49=FIXCLIENT1|56=DMA_HUB|34=251|52=20231112-15:55:10|10=086|
2023-11-12 16:55:31.357 [30] [FixSender] (DEBUG) Receiving 8=FIX.4.4|9=62|35=0|34=281|49=DMA_HUB|56=FIXCLIENT1|52=20231112-15:55:31.357|10=036|
2023-11-12 16:55:40.253 [31] [FixSender] (DEBUG) Sending 8=FIX.4.4|9=58|35=0|49=FIXCLIENT1|56=DMA_HUB|34=252|52=20231112-15:55:40|10=090|
2023-11-12 16:56:01.317 [30] [FixSender] (DEBUG) Receiving 8=FIX.4.4|9=62|35=0|34=282|49=DMA_HUB|56=FIXCLIENT1|52=20231112-15:56:01.315|10=029|
2023-11-12 16:56:10.259 [31] [FixSender] (DEBUG) Sending 8=FIX.4.4|9=58|35=0|49=FIXCLIENT1|56=DMA_HUB|34=253|52=20231112-15:56:10|10=089|
2023-11-12 16:56:31.263 [30] [FixSender] (DEBUG) Receiving 8=FIX.4.4|9=62|35=0|34=283|49=DMA_HUB|56=FIXCLIENT1|52=20231112-15:56:31.263|10=035|
2023-11-12 16:56:40.269 [31] [FixSender] (DEBUG) Sending 8=FIX.4.4|9=58|35=0|49=FIXCLIENT1|56=DMA_HUB|34=254|52=20231112-15:56:40|10=093|
2023-11-12 16:57:01.223 [30] [FixSender] (DEBUG) Receiving 8=FIX.4.4|9=62|35=0|34=284|49=DMA_HUB|56=FIXCLIENT1|52=20231112-15:57:01.222|10=029|
2023-11-12 16:57:10.279 [31] [FixSender] (DEBUG) Sending 8=FIX.4.4|9=58|35=0|49=FIXCLIENT1|56=DMA_HUB|34=255|52=20231112-15:57:10|10=092|
2023-11-12 16:57:31.167 [30] [FixSender] (DEBUG) Receiving 8=FIX.4.4|9=62|35=0|34=285|49=DMA_HUB|56=FIXCLIENT1|52=20231112-15:57:31.166|10=040|
2023-11-12 16:57:40.292 [31] [FixSender] (DEBUG) Sending 8=FIX.4.4|9=58|35=0|49=FIXCLIENT1|56=DMA_HUB|34=256|52=20231112-15:57:40|10=096|
2023-11-12 16:58:01.122 [30] [FixSender] (DEBUG) Receiving 8=FIX.4.4|9=62|35=0|34=286|49=DMA_HUB|56=FIXCLIENT1|52=20231112-15:58:01.122|10=031|
2023-11-12 16:58:10.303 [31] [FixSender] (DEBUG) Sending 8=FIX.4.4|9=58|35=0|49=FIXCLIENT1|56=DMA_HUB|34=257|52=20231112-15:58:10|10=095|
2023-11-12 16:58:31.074 [30] [FixSender] (DEBUG) Receiving 8=FIX.4.4|9=62|35=0|34=287|49=DMA_HUB|56=FIXCLIENT1|52=20231112-15:58:31.074|10=041|
2023-11-12 16:58:40.318 [31] [FixSender] (DEBUG) Sending 8=FIX.4.4|9=58|35=0|49=FIXCLIENT1|56=DMA_HUB|34=258|52=20231112-15:58:40|10=099|
2023-11-12 16:59:01.025 [30] [FixSender] (DEBUG) Receiving 8=FIX.4.4|9=62|35=0|34=288|49=DMA_HUB|56=FIXCLIENT1|52=20231112-15:59:01.024|10=035|
2023-11-12 16:59:10.326 [31] [FixSender] (DEBUG) Sending 8=FIX.4.4|9=58|35=0|49=FIXCLIENT1|56=DMA_HUB|34=259|52=20231112-15:59:10|10=098|
2023-11-12 16:59:30.979 [30] [FixSender] (DEBUG) Receiving 8=FIX.4.4|9=62|35=0|34=289|49=DMA_HUB|56=FIXCLIENT1|52=20231112-15:59:30.978|10=056|
2023-11-12 16:59:40.337 [31] [FixSender] (DEBUG) Sending 8=FIX.4.4|9=58|35=0|49=FIXCLIENT1|56=DMA_HUB|34=260|52=20231112-15:59:40|10=093|
2023-11-12 17:00:00.933 [30] [FixSender] (DEBUG) Receiving 8=FIX.4.4|9=62|35=0|34=290|49=DMA_HUB|56=FIXCLIENT1|52=20231112-16:00:00.932|10=022|
2023-11-12 17:00:10.342 [31] [FixSender] (DEBUG) Sending 8=FIX.4.4|9=58|35=0|49=FIXCLIENT1|56=DMA_HUB|34=261|52=20231112-16:00:10|10=078|
2023-11-12 17:00:30.890 [30] [FixSender] (DEBUG) Receiving 8=FIX.4.4|9=62|35=0|34=291|49=DMA_HUB|56=FIXCLIENT1|52=20231112-16:00:30.890|10=029|
2023-11-12 17:00:40.344 [31] [FixSender] (DEBUG) Sending 8=FIX.4.4|9=58|35=0|49=FIXCLIENT1|56=DMA_HUB|34=262|52=20231112-16:00:40|10=082|
2023-11-12 17:01:00.830 [30] [FixSender] (DEBUG) Receiving 8=FIX.4.4|9=62|35=0|34=292|49=DMA_HUB|56=FIXCLIENT1|52=20231112-16:01:00.829|10=030|
2023-11-12 17:01:10.354 [31] [FixSender] (DEBUG) Sending 8=FIX.4.4|9=58|35=0|49=FIXCLIENT1|56=DMA_HUB|34=263|52=20231112-16:01:10|10=081|
2023-11-12 17:01:30.786 [30] [FixSender] (DEBUG) Receiving 8=FIX.4.4|9=62|35=0|34=293|49=DMA_HUB|56=FIXCLIENT1|52=20231112-16:01:30.785|10=035|
2023-11-12 17:01:40.360 [31] [FixSender] (DEBUG) Sending 8=FIX.4.4|9=58|35=0|49=FIXCLIENT1|56=DMA_HUB|34=264|52=20231112-16:01:40|10=085|
2023-11-12 17:02:00.738 [30] [FixSender] (DEBUG) Receiving 8=FIX.4.4|9=62|35=0|34=294|49=DMA_HUB|56=FIXCLIENT1|52=20231112-16:02:00.738|10=032|
2023-11-12 17:02:10.364 [31] [FixSender] (DEBUG) Sending 8=FIX.4.4|9=58|35=0|49=FIXCLIENT1|56=DMA_HUB|34=265|52=20231112-16:02:10|10=084|
2023-11-12 17:02:30.684 [30] [FixSender] (DEBUG) Receiving 8=FIX.4.4|9=62|35=0|34=295|49=DMA_HUB|56=FIXCLIENT1|52=20231112-16:02:30.684|10=036|
2023-11-12 17:02:40.377 [31] [FixSender] (DEBUG) Sending 8=FIX.4.4|9=58|35=0|49=FIXCLIENT1|56=DMA_HUB|34=266|52=20231112-16:02:40|10=088|
2023-11-12 17:03:00.647 [30] [FixSender] (DEBUG) Receiving 8=FIX.4.4|9=62|35=0|34=296|49=DMA_HUB|56=FIXCLIENT1|52=20231112-16:03:00.647|10=034|
2023-11-12 17:03:10.391 [31] [FixSender] (DEBUG) Sending 8=FIX.4.4|9=58|35=0|49=FIXCLIENT1|56=DMA_HUB|34=267|52=20231112-16:03:10|10=087|
2023-11-12 17:03:30.603 [30] [FixSender] (DEBUG) Receiving 8=FIX.4.4|9=62|35=0|34=297|49=DMA_HUB|56=FIXCLIENT1|52=20231112-16:03:30.602|10=029|
2023-11-12 17:03:40.405 [31] [FixSender] (DEBUG) Sending 8=FIX.4.4|9=58|35=0|49=FIXCLIENT1|56=DMA_HUB|34=268|52=20231112-16:03:40|10=091|
2023-11-12 17:04:00.554 [30] [FixSender] (DEBUG) Receiving 8=FIX.4.4|9=62|35=0|34=298|49=DMA_HUB|56=FIXCLIENT1|52=20231112-16:04:00.553|10=033|
2023-11-12 17:04:10.409 [31] [FixSender] (DEBUG) Sending 8=FIX.4.4|9=58|35=0|49=FIXCLIENT1|56=DMA_HUB|34=269|52=20231112-16:04:10|10=090|
2023-11-12 17:04:30.492 [30] [FixSender] (DEBUG) Receiving 8=FIX.4.4|9=62|35=0|34=299|49=DMA_HUB|56=FIXCLIENT1|52=20231112-16:04:30.492|10=039|
2023-11-12 17:04:40.414 [31] [FixSender] (DEBUG) Sending 8=FIX.4.4|9=58|35=0|49=FIXCLIENT1|56=DMA_HUB|34=270|52=20231112-16:04:40|10=085|
2023-11-12 17:05:00.452 [30] [FixSender] (DEBUG) Receiving 8=FIX.4.4|9=62|35=0|34=300|49=DMA_HUB|56=FIXCLIENT1|52=20231112-16:05:00.451|10=015|
2023-11-12 17:05:10.416 [31] [FixSender] (DEBUG) Sending 8=FIX.4.4|9=58|35=0|49=FIXCLIENT1|56=DMA_HUB|34=271|52=20231112-16:05:10|10=084|
2023-11-12 17:05:30.407 [30] [FixSender] (DEBUG) Receiving 8=FIX.4.4|9=62|35=0|34=301|49=DMA_HUB|56=FIXCLIENT1|52=20231112-16:05:30.407|10=020|
2023-11-12 17:05:40.419 [31] [FixSender] (DEBUG) Sending 8=FIX.4.4|9=58|35=0|49=FIXCLIENT1|56=DMA_HUB|34=272|52=20231112-16:05:40|10=088|
2023-11-12 17:06:00.358 [30] [FixSender] (DEBUG) Receiving 8=FIX.4.4|9=62|35=0|34=302|49=DMA_HUB|56=FIXCLIENT1|52=20231112-16:06:00.358|10=024|
2023-11-12 17:06:10.423 [31] [FixSender] (DEBUG) Sending 8=FIX.4.4|9=58|35=0|49=FIXCLIENT1|56=DMA_HUB|34=273|52=20231112-16:06:10|10=087|
2023-11-12 17:06:30.312 [30] [FixSender] (DEBUG) Receiving 8=FIX.4.4|9=62|35=0|34=303|49=DMA_HUB|56=FIXCLIENT1|52=20231112-16:06:30.312|10=018|
2023-11-12 17:06:40.435 [31] [FixSender] (DEBUG) Sending 8=FIX.4.4|9=58|35=0|49=FIXCLIENT1|56=DMA_HUB|34=274|52=20231112-16:06:40|10=091|
2023-11-12 17:07:00.257 [30] [FixSender] (DEBUG) Receiving 8=FIX.4.4|9=62|35=0|34=304|49=DMA_HUB|56=FIXCLIENT1|52=20231112-16:07:00.257|10=025|
2023-11-12 17:07:10.439 [31] [FixSender] (DEBUG) Sending 8=FIX.4.4|9=58|35=0|49=FIXCLIENT1|56=DMA_HUB|34=275|52=20231112-16:07:10|10=090|
2023-11-12 17:07:30.204 [30] [FixSender] (DEBUG) Receiving 8=FIX.4.4|9=62|35=0|34=305|49=DMA_HUB|56=FIXCLIENT1|52=20231112-16:07:30.204|10=021|
2023-11-12 17:07:40.452 [31] [FixSender] (DEBUG) Sending 8=FIX.4.4|9=58|35=0|49=FIXCLIENT1|56=DMA_HUB|34=276|52=20231112-16:07:40|10=094|
2023-11-12 17:08:00.163 [30] [FixSender] (DEBUG) Receiving 8=FIX.4.4|9=62|35=0|34=306|49=DMA_HUB|56=FIXCLIENT1|52=20231112-16:08:00.163|10=024|
2023-11-12 17:08:10.467 [31] [FixSender] (DEBUG) Sending 8=FIX.4.4|9=58|35=0|49=FIXCLIENT1|56=DMA_HUB|34=277|52=20231112-16:08:10|10=093|
2023-11-12 17:08:30.111 [30] [FixSender] (DEBUG) Receiving 8=FIX.4.4|9=62|35=0|34=307|49=DMA_HUB|56=FIXCLIENT1|52=20231112-16:08:30.111|10=021|
2023-11-12 17:08:40.475 [31] [FixSender] (DEBUG) Sending 8=FIX.4.4|9=58|35=0|49=FIXCLIENT1|56=DMA_HUB|34=278|52=20231112-16:08:40|10=097|
2023-11-12 17:09:00.067 [30] [FixSender] (DEBUG) Receiving 8=FIX.4.4|9=62|35=0|34=308|49=DMA_HUB|56=FIXCLIENT1|52=20231112-16:09:00.067|10=030|
2023-11-12 17:09:10.490 [31] [FixSender] (DEBUG) Sending 8=FIX.4.4|9=58|35=0|49=FIXCLIENT1|56=DMA_HUB|34=279|52=20231112-16:09:10|10=096|
2023-11-12 17:09:30.023 [30] [FixSender] (DEBUG) Receiving 8=FIX.4.4|9=62|35=0|34=309|49=DMA_HUB|56=FIXCLIENT1|52=20231112-16:09:30.023|10=026|
2023-11-12 17:09:40.493 [31] [FixSender] (DEBUG) Sending 8=FIX.4.4|9=58|35=0|49=FIXCLIENT1|56=DMA_HUB|34=280|52=20231112-16:09:40|10=091|
2023-11-12 17:09:59.973 [30] [FixSender] (DEBUG) Receiving 8=FIX.4.4|9=62|35=0|34=310|49=DMA_HUB|56=FIXCLIENT1|52=20231112-16:09:59.973|10=043|
2023-11-12 17:10:10.506 [31] [FixSender] (DEBUG) Sending 8=FIX.4.4|9=58|35=0|49=FIXCLIENT1|56=DMA_HUB|34=281|52=20231112-16:10:10|10=081|
2023-11-12 17:10:29.927 [30] [FixSender] (DEBUG) Receiving 8=FIX.4.4|9=62|35=0|34=311|49=DMA_HUB|56=FIXCLIENT1|52=20231112-16:10:29.927|10=032|
2023-11-12 17:10:40.514 [31] [FixSender] (DEBUG) Sending 8=FIX.4.4|9=58|35=0|49=FIXCLIENT1|56=DMA_HUB|34=282|52=20231112-16:10:40|10=085|
2023-11-12 17:10:59.875 [30] [FixSender] (DEBUG) Receiving 8=FIX.4.4|9=62|35=0|34=312|49=DMA_HUB|56=FIXCLIENT1|52=20231112-16:10:59.874|10=037|
2023-11-12 17:11:10.523 [31] [FixSender] (DEBUG) Sending 8=FIX.4.4|9=58|35=0|49=FIXCLIENT1|56=DMA_HUB|34=283|52=20231112-16:11:10|10=084|
2023-11-12 17:11:29.826 [30] [FixSender] (DEBUG) Receiving 8=FIX.4.4|9=62|35=0|34=313|49=DMA_HUB|56=FIXCLIENT1|52=20231112-16:11:29.825|10=032|
2023-11-12 17:11:40.536 [31] [FixSender] (DEBUG) Sending 8=FIX.4.4|9=58|35=0|49=FIXCLIENT1|56=DMA_HUB|34=284|52=20231112-16:11:40|10=088|
2023-11-12 17:11:59.773 [30] [FixSender] (DEBUG) Receiving 8=FIX.4.4|9=62|35=0|34=314|49=DMA_HUB|56=FIXCLIENT1|52=20231112-16:11:59.772|10=037|
2023-11-12 17:12:10.548 [31] [FixSender] (DEBUG) Sending 8=FIX.4.4|9=58|35=0|49=FIXCLIENT1|56=DMA_HUB|34=285|52=20231112-16:12:10|10=087|
2023-11-12 17:12:29.725 [30] [FixSender] (DEBUG) Receiving 8=FIX.4.4|9=62|35=0|34=315|49=DMA_HUB|56=FIXCLIENT1|52=20231112-16:12:29.724|10=033|
