2023-12-18 11:45:19.769 [1] [Fixsender] (INFO) (c) 2001-2011 ullink SAS. FixSender. Release 1.11.
2023-12-18 11:45:27.182 [29] [FixSender] (INFO) try to connect to : localhost port :12345
2023-12-18 11:45:27.199 [29] [FixSender] (INFO) physical cnx initiated
2023-12-18 11:45:27.217 [29] [FixSender] (DEBUG) Sending 8=FIX.4.4|9=88|35=A|49=FIXCLIENT1|56=DMA_HUB|34=233|52=20231218-10:45:27|98=0|108=30|95=9|96=null/null|10=195|
2023-12-18 11:45:27.251 [29] [FixSender] (DEBUG) Receiving 8=FIX.4.4|9=72|35=A|34=1|49=DMA_HUB|56=FIXCLIENT1|52=20231218-10:45:27.244|108=30|98=0|10=230|
2023-12-18 11:45:27.253 [29] [FixSender] (DEBUG) Sending 8=FIX.4.4|9=110|35=5|49=FIXCLIENT1|56=DMA_HUB|34=234|52=20231218-10:45:27|58=MsgSeqNum expected 253, but MsgSeqNum received 1|10=208|
2023-12-18 11:45:27.255 [29] [FixSender] (INFO) physical cnx finished Connection reset by peer
2023-12-18 11:45:27.255 [29] [FixSender] (WARNING) Disconnected
2023-12-18 11:45:30.261 [33] [FixSender] (INFO) try to connect to : localhost port :12345
2023-12-18 11:45:30.262 [33] [FixSender] (INFO) physical cnx initiated
2023-12-18 11:45:30.265 [33] [FixSender] (DEBUG) Sending 8=FIX.4.4|9=86|35=A|49=FIXCLIENT1|56=DMA_HUB|34=1|52=20231218-10:45:30|98=0|108=30|95=9|96=null/null|10=084|
2023-12-18 11:45:30.271 [33] [FixSender] (DEBUG) Receiving 8=FIX.4.4|9=72|35=A|34=4|49=DMA_HUB|56=FIXCLIENT1|52=20231218-10:45:30.265|108=30|98=0|10=230|
2023-12-18 11:45:30.272 [33] [FixSender] (WARNING) The Fix connection is open...
2023-12-18 11:45:30.277 [33] [FixSender] (DEBUG) Sending 8=FIX.4.4|9=65|35=2|49=FIXCLIENT1|56=DMA_HUB|34=2|52=20231218-10:45:30|7=1|16=0|10=110|
2023-12-18 11:45:30.281 [33] [FixSender] (DEBUG) Receiving 8=FIX.4.4|9=102|35=4|34=1|49=DMA_HUB|56=FIXCLIENT1|52=20231218-10:45:30.281|43=Y|122=20231218-10:45:30.281|36=5|123=Y|10=233|
2023-12-18 11:45:42.303 [36] [FixSender] (DEBUG) Sending 8=FIX.4.4|9=196|35=D|49=FIXCLIENT1|56=DMA_HUB|34=3|52=20231218-10:45:42|21=1|11=HS_17028963420|38=2681|55=E:07G@XETR|54=2|60=20231218-10:45:42|40=2|59=0|44=197.111|48=US3390411052|22=4|15=EUR|207=XETR|1=bram_123|10=035|
2023-12-18 11:45:42.350 [33] [FixSender] (DEBUG) Receiving 8=FIX.4.4|9=238|35=8|34=5|49=DMA_HUB|56=FIXCLIENT1|52=20231218-10:45:42.348|11=HS_17028963420|37=FXxZyFqgJ|54=2|40=2|59=0|17=202312181|150=A|39=A|38=2681|151=2681|14=0|6=0|44=197.111|60=20231218-10:45:42.000|22=4|48=US3390411052|207=XETR|15=EUR|55=[N/A]|10=015|
2023-12-18 11:46:00.220 [33] [FixSender] (DEBUG) Receiving 8=FIX.4.4|9=60|35=0|34=6|49=DMA_HUB|56=FIXCLIENT1|52=20231218-10:46:00.219|10=184|
2023-12-18 11:46:12.304 [34] [FixSender] (DEBUG) Sending 8=FIX.4.4|9=56|35=0|49=FIXCLIENT1|56=DMA_HUB|34=4|52=20231218-10:46:12|10=244|
2023-12-18 11:46:30.174 [33] [FixSender] (DEBUG) Receiving 8=FIX.4.4|9=60|35=0|34=7|49=DMA_HUB|56=FIXCLIENT1|52=20231218-10:46:30.173|10=187|
2023-12-18 11:46:42.304 [34] [FixSender] (DEBUG) Sending 8=FIX.4.4|9=56|35=0|49=FIXCLIENT1|56=DMA_HUB|34=5|52=20231218-10:46:42|10=248|
2023-12-18 11:47:00.123 [33] [FixSender] (DEBUG) Receiving 8=FIX.4.4|9=60|35=0|34=8|49=DMA_HUB|56=FIXCLIENT1|52=20231218-10:47:00.119|10=186|
2023-12-18 11:47:12.306 [34] [FixSender] (DEBUG) Sending 8=FIX.4.4|9=56|35=0|49=FIXCLIENT1|56=DMA_HUB|34=6|52=20231218-10:47:12|10=247|
2023-12-18 11:47:30.073 [33] [FixSender] (DEBUG) Receiving 8=FIX.4.4|9=60|35=0|34=9|49=DMA_HUB|56=FIXCLIENT1|52=20231218-10:47:30.072|10=188|
2023-12-18 11:47:42.307 [34] [FixSender] (DEBUG) Sending 8=FIX.4.4|9=56|35=0|49=FIXCLIENT1|56=DMA_HUB|34=7|52=20231218-10:47:42|10=251|
2023-12-18 11:48:00.024 [33] [FixSender] (DEBUG) Receiving 8=FIX.4.4|9=61|35=0|34=10|49=DMA_HUB|56=FIXCLIENT1|52=20231218-10:48:00.021|10=221|
2023-12-18 11:48:12.309 [34] [FixSender] (DEBUG) Sending 8=FIX.4.4|9=56|35=0|49=FIXCLIENT1|56=DMA_HUB|34=8|52=20231218-10:48:12|10=250|
2023-12-18 11:48:29.976 [33] [FixSender] (DEBUG) Receiving 8=FIX.4.4|9=61|35=0|34=11|49=DMA_HUB|56=FIXCLIENT1|52=20231218-10:48:29.975|10=251|
2023-12-18 11:48:42.310 [34] [FixSender] (DEBUG) Sending 8=FIX.4.4|9=56|35=0|49=FIXCLIENT1|56=DMA_HUB|34=9|52=20231218-10:48:42|10=254|
2023-12-18 11:48:59.944 [33] [FixSender] (DEBUG) Receiving 8=FIX.4.4|9=61|35=0|34=12|49=DMA_HUB|56=FIXCLIENT1|52=20231218-10:48:59.935|10=251|
2023-12-18 11:49:12.311 [34] [FixSender] (DEBUG) Sending 8=FIX.4.4|9=57|35=0|49=FIXCLIENT1|56=DMA_HUB|34=10|52=20231218-10:49:12|10=037|
2023-12-18 11:49:29.892 [33] [FixSender] (DEBUG) Receiving 8=FIX.4.4|9=61|35=0|34=13|49=DMA_HUB|56=FIXCLIENT1|52=20231218-10:49:29.890|10=250|
2023-12-18 11:49:42.311 [34] [FixSender] (DEBUG) Sending 8=FIX.4.4|9=57|35=0|49=FIXCLIENT1|56=DMA_HUB|34=11|52=20231218-10:49:42|10=041|
2023-12-18 11:49:59.832 [33] [FixSender] (DEBUG) Receiving 8=FIX.4.4|9=61|35=0|34=14|49=DMA_HUB|56=FIXCLIENT1|52=20231218-10:49:59.831|10=249|
2023-12-18 11:50:12.313 [34] [FixSender] (DEBUG) Sending 8=FIX.4.4|9=57|35=0|49=FIXCLIENT1|56=DMA_HUB|34=12|52=20231218-10:50:12|10=031|
2023-12-18 11:50:12.326 [37] [FixSender] (DEBUG) Sending 8=FIX.4.4|9=197|35=D|49=FIXCLIENT1|56=DMA_HUB|34=13|52=20231218-10:50:12|21=1|11=HS_17028966121|38=2071|55=E:07G@XETR|54=2|60=20231218-10:50:12|40=2|59=0|44=197.111|48=US3390411052|22=4|15=EUR|207=XETR|1=bram_123|10=065|
2023-12-18 11:50:12.330 [33] [FixSender] (DEBUG) Receiving 8=FIX.4.4|9=239|35=8|34=15|49=DMA_HUB|56=FIXCLIENT1|52=20231218-10:50:12.328|11=HS_17028966121|37=FXvWBRtgJ|54=2|40=2|59=0|17=202312182|150=A|39=A|38=2071|151=2071|14=0|6=0|44=197.111|60=20231218-10:50:12.000|22=4|48=US3390411052|207=XETR|15=EUR|55=[N/A]|10=248|
2023-12-18 11:50:27.325 [33] [FixSender] (DEBUG) Receiving 8=FIX.4.4|9=61|35=5|34=16|49=DMA_HUB|56=FIXCLIENT1|52=20231218-10:50:27.324|10=240|
2023-12-18 11:50:27.325 [33] [FixSender] (DEBUG) Sending 8=FIX.4.4|9=79|35=5|49=FIXCLIENT1|56=DMA_HUB|34=14|52=20231218-10:50:27|58=Replying to logout|10=226|
2023-12-18 11:50:27.326 [33] [FixSender] (WARNING) The Fix connection is close...
2023-12-18 11:50:27.330 [33] [FixSender] (INFO) physical cnx finished Connection reset by peer
2023-12-18 11:50:27.331 [33] [FixSender] (WARNING) Disconnected
2023-12-18 11:52:54.273 [38] [FixSender] (INFO) try to connect to : localhost port :12345
2023-12-18 11:52:54.275 [38] [FixSender] (INFO) physical cnx initiated
2023-12-18 11:52:54.279 [38] [FixSender] (DEBUG) Sending 8=FIX.4.4|9=87|35=A|49=FIXCLIENT1|56=DMA_HUB|34=15|52=20231218-10:52:54|98=0|108=30|95=9|96=null/null|10=142|
2023-12-18 11:52:54.291 [38] [FixSender] (DEBUG) Receiving 8=FIX.4.4|9=73|35=A|34=17|49=DMA_HUB|56=FIXCLIENT1|52=20231218-10:52:54.282|108=30|98=0|10=030|
2023-12-18 11:52:54.292 [38] [FixSender] (WARNING) The Fix connection is open...
2023-12-18 11:52:54.297 [38] [FixSender] (DEBUG) Sending 8=FIX.4.4|9=75|35=1|49=FIXCLIENT1|56=DMA_HUB|34=16|52=20231218-10:52:54|112=synchronized?|10=093|
2023-12-18 11:52:54.300 [38] [FixSender] (DEBUG) Receiving 8=FIX.4.4|9=79|35=0|34=18|49=DMA_HUB|56=FIXCLIENT1|52=20231218-10:52:54.299|112=synchronized?|10=052|
2023-12-18 11:53:24.243 [38] [FixSender] (DEBUG) Receiving 8=FIX.4.4|9=61|35=0|34=19|49=DMA_HUB|56=FIXCLIENT1|52=20231218-10:53:24.242|10=237|
2023-12-18 11:53:24.303 [39] [FixSender] (DEBUG) Sending 8=FIX.4.4|9=57|35=0|49=FIXCLIENT1|56=DMA_HUB|34=17|52=20231218-10:53:24|10=042|
2023-12-18 11:53:54.200 [38] [FixSender] (DEBUG) Receiving 8=FIX.4.4|9=61|35=0|34=20|49=DMA_HUB|56=FIXCLIENT1|52=20231218-10:53:54.199|10=243|
2023-12-18 11:53:54.307 [39] [FixSender] (DEBUG) Sending 8=FIX.4.4|9=57|35=0|49=FIXCLIENT1|56=DMA_HUB|34=18|52=20231218-10:53:54|10=046|
2023-12-18 11:53:59.522 [41] [FixSender] (DEBUG) Sending 8=FIX.4.4|9=196|35=D|49=FIXCLIENT1|56=DMA_HUB|34=19|52=20231218-10:53:59|21=1|11=HS_17028968392|38=451|55=E:07G@XETR|54=2|60=20231218-10:53:59|40=2|59=0|44=197.111|48=US3390411052|22=4|15=EUR|207=XETR|1=bram_123|10=062|
2023-12-18 11:53:59.531 [38] [FixSender] (DEBUG) Receiving 8=FIX.4.4|9=237|35=8|34=21|49=DMA_HUB|56=FIXCLIENT1|52=20231218-10:53:59.530|11=HS_17028968392|37=FXhjrmvgJ|54=2|40=2|59=0|17=202312183|150=A|39=A|38=451|151=451|14=0|6=0|44=197.111|60=20231218-10:53:59.000|22=4|48=US3390411052|207=XETR|15=EUR|55=[N/A]|10=009|
2023-12-18 11:54:24.159 [38] [FixSender] (DEBUG) Receiving 8=FIX.4.4|9=61|35=0|34=22|49=DMA_HUB|56=FIXCLIENT1|52=20231218-10:54:24.158|10=238|
2023-12-18 11:54:29.524 [39] [FixSender] (DEBUG) Sending 8=FIX.4.4|9=57|35=0|49=FIXCLIENT1|56=DMA_HUB|34=20|52=20231218-10:54:29|10=042|
2023-12-18 11:54:54.102 [38] [FixSender] (DEBUG) Receiving 8=FIX.4.4|9=61|35=0|34=23|49=DMA_HUB|56=FIXCLIENT1|52=20231218-10:54:54.101|10=230|
2023-12-18 11:54:59.524 [39] [FixSender] (DEBUG) Sending 8=FIX.4.4|9=57|35=0|49=FIXCLIENT1|56=DMA_HUB|34=21|52=20231218-10:54:59|10=046|
2023-12-18 11:55:24.061 [38] [FixSender] (DEBUG) Receiving 8=FIX.4.4|9=61|35=0|34=24|49=DMA_HUB|56=FIXCLIENT1|52=20231218-10:55:24.060|10=233|
2023-12-18 11:55:29.527 [39] [FixSender] (DEBUG) Sending 8=FIX.4.4|9=57|35=0|49=FIXCLIENT1|56=DMA_HUB|34=22|52=20231218-10:55:29|10=045|
2023-12-18 11:55:54.015 [38] [FixSender] (DEBUG) Receiving 8=FIX.4.4|9=61|35=0|34=25|49=DMA_HUB|56=FIXCLIENT1|52=20231218-10:55:54.015|10=237|
2023-12-18 11:55:59.528 [39] [FixSender] (DEBUG) Sending 8=FIX.4.4|9=57|35=0|49=FIXCLIENT1|56=DMA_HUB|34=23|52=20231218-10:55:59|10=049|
2023-12-18 11:56:23.968 [38] [FixSender] (DEBUG) Receiving 8=FIX.4.4|9=61|35=0|34=26|49=DMA_HUB|56=FIXCLIENT1|52=20231218-10:56:23.967|10=251|
2023-12-18 11:56:29.529 [39] [FixSender] (DEBUG) Sending 8=FIX.4.4|9=57|35=0|49=FIXCLIENT1|56=DMA_HUB|34=24|52=20231218-10:56:29|10=048|
2023-12-18 11:56:53.909 [38] [FixSender] (DEBUG) Receiving 8=FIX.4.4|9=61|35=0|34=27|49=DMA_HUB|56=FIXCLIENT1|52=20231218-10:56:53.908|10=250|
2023-12-18 11:56:59.529 [39] [FixSender] (DEBUG) Sending 8=FIX.4.4|9=57|35=0|49=FIXCLIENT1|56=DMA_HUB|34=25|52=20231218-10:56:59|10=052|
2023-12-18 11:57:23.870 [38] [FixSender] (DEBUG) Receiving 8=FIX.4.4|9=61|35=0|34=28|49=DMA_HUB|56=FIXCLIENT1|52=20231218-10:57:23.869|10=255|
2023-12-18 11:57:29.531 [39] [FixSender] (DEBUG) Sending 8=FIX.4.4|9=57|35=0|49=FIXCLIENT1|56=DMA_HUB|34=26|52=20231218-10:57:29|10=051|
2023-12-18 11:57:53.814 [38] [FixSender] (DEBUG) Receiving 8=FIX.4.4|9=61|35=0|34=29|49=DMA_HUB|56=FIXCLIENT1|52=20231218-10:57:53.812|10=247|
2023-12-18 11:57:59.536 [39] [FixSender] (DEBUG) Sending 8=FIX.4.4|9=57|35=0|49=FIXCLIENT1|56=DMA_HUB|34=27|52=20231218-10:57:59|10=055|
2023-12-18 11:58:23.774 [38] [FixSender] (DEBUG) Receiving 8=FIX.4.4|9=61|35=0|34=30|49=DMA_HUB|56=FIXCLIENT1|52=20231218-10:58:23.773|10=243|
2023-12-18 11:58:29.541 [39] [FixSender] (DEBUG) Sending 8=FIX.4.4|9=57|35=0|49=FIXCLIENT1|56=DMA_HUB|34=28|52=20231218-10:58:29|10=054|
2023-12-18 11:58:53.724 [38] [FixSender] (DEBUG) Receiving 8=FIX.4.4|9=61|35=0|34=31|49=DMA_HUB|56=FIXCLIENT1|52=20231218-10:58:53.723|10=242|
2023-12-18 11:58:59.542 [39] [FixSender] (DEBUG) Sending 8=FIX.4.4|9=57|35=0|49=FIXCLIENT1|56=DMA_HUB|34=29|52=20231218-10:58:59|10=058|
2023-12-18 11:59:23.679 [38] [FixSender] (DEBUG) Receiving 8=FIX.4.4|9=61|35=0|34=32|49=DMA_HUB|56=FIXCLIENT1|52=20231218-10:59:23.678|10=250|
2023-12-18 11:59:29.546 [39] [FixSender] (DEBUG) Sending 8=FIX.4.4|9=57|35=0|49=FIXCLIENT1|56=DMA_HUB|34=30|52=20231218-10:59:29|10=048|
2023-12-18 11:59:53.631 [38] [FixSender] (DEBUG) Receiving 8=FIX.4.4|9=61|35=0|34=33|49=DMA_HUB|56=FIXCLIENT1|52=20231218-10:59:53.630|10=242|
2023-12-18 11:59:59.548 [39] [FixSender] (DEBUG) Sending 8=FIX.4.4|9=57|35=0|49=FIXCLIENT1|56=DMA_HUB|34=31|52=20231218-10:59:59|10=052|
2023-12-18 12:00:23.582 [38] [FixSender] (DEBUG) Receiving 8=FIX.4.4|9=61|35=0|34=34|49=DMA_HUB|56=FIXCLIENT1|52=20231218-11:00:23.581|10=232|
2023-12-18 12:00:29.557 [39] [FixSender] (DEBUG) Sending 8=FIX.4.4|9=57|35=0|49=FIXCLIENT1|56=DMA_HUB|34=32|52=20231218-11:00:29|10=037|
2023-12-18 12:00:53.536 [38] [FixSender] (DEBUG) Receiving 8=FIX.4.4|9=61|35=0|34=35|49=DMA_HUB|56=FIXCLIENT1|52=20231218-11:00:53.535|10=235|
2023-12-18 12:00:59.559 [39] [FixSender] (DEBUG) Sending 8=FIX.4.4|9=57|35=0|49=FIXCLIENT1|56=DMA_HUB|34=33|52=20231218-11:00:59|10=041|
2023-12-18 12:01:23.480 [38] [FixSender] (DEBUG) Receiving 8=FIX.4.4|9=61|35=0|34=36|49=DMA_HUB|56=FIXCLIENT1|52=20231218-11:01:23.479|10=241|
2023-12-18 12:01:29.562 [39] [FixSender] (DEBUG) Sending 8=FIX.4.4|9=57|35=0|49=FIXCLIENT1|56=DMA_HUB|34=34|52=20231218-11:01:29|10=040|
2023-12-18 12:01:53.437 [38] [FixSender] (DEBUG) Receiving 8=FIX.4.4|9=61|35=0|34=37|49=DMA_HUB|56=FIXCLIENT1|52=20231218-11:01:53.436|10=238|
2023-12-18 12:01:59.564 [39] [FixSender] (DEBUG) Sending 8=FIX.4.4|9=57|35=0|49=FIXCLIENT1|56=DMA_HUB|34=35|52=20231218-11:01:59|10=044|
2023-12-18 12:02:23.393 [38] [FixSender] (DEBUG) Receiving 8=FIX.4.4|9=61|35=0|34=38|49=DMA_HUB|56=FIXCLIENT1|52=20231218-11:02:23.392|10=238|
2023-12-18 12:02:29.567 [39] [FixSender] (DEBUG) Sending 8=FIX.4.4|9=57|35=0|49=FIXCLIENT1|56=DMA_HUB|34=36|52=20231218-11:02:29|10=043|
2023-12-18 12:02:53.337 [38] [FixSender] (DEBUG) Receiving 8=FIX.4.4|9=61|35=0|34=39|49=DMA_HUB|56=FIXCLIENT1|52=20231218-11:02:53.336|10=240|
2023-12-18 12:02:59.570 [39] [FixSender] (DEBUG) Sending 8=FIX.4.4|9=57|35=0|49=FIXCLIENT1|56=DMA_HUB|34=37|52=20231218-11:02:59|10=047|
2023-12-18 12:03:23.285 [38] [FixSender] (DEBUG) Receiving 8=FIX.4.4|9=61|35=0|34=40|49=DMA_HUB|56=FIXCLIENT1|52=20231218-11:03:23.284|10=232|
2023-12-18 12:03:29.573 [39] [FixSender] (DEBUG) Sending 8=FIX.4.4|9=57|35=0|49=FIXCLIENT1|56=DMA_HUB|34=38|52=20231218-11:03:29|10=046|
2023-12-18 12:03:53.246 [38] [FixSender] (DEBUG) Receiving 8=FIX.4.4|9=61|35=0|34=41|49=DMA_HUB|56=FIXCLIENT1|52=20231218-11:03:53.245|10=233|
2023-12-18 12:03:59.576 [39] [FixSender] (DEBUG) Sending 8=FIX.4.4|9=57|35=0|49=FIXCLIENT1|56=DMA_HUB|34=39|52=20231218-11:03:59|10=050|
2023-12-18 12:04:23.189 [38] [FixSender] (DEBUG) Receiving 8=FIX.4.4|9=61|35=0|34=42|49=DMA_HUB|56=FIXCLIENT1|52=20231218-11:04:23.188|10=238|
2023-12-18 12:04:29.577 [39] [FixSender] (DEBUG) Sending 8=FIX.4.4|9=57|35=0|49=FIXCLIENT1|56=DMA_HUB|34=40|52=20231218-11:04:29|10=040|
2023-12-18 12:04:53.139 [38] [FixSender] (DEBUG) Receiving 8=FIX.4.4|9=61|35=0|34=43|49=DMA_HUB|56=FIXCLIENT1|52=20231218-11:04:53.138|10=237|
2023-12-18 12:04:59.580 [39] [FixSender] (DEBUG) Sending 8=FIX.4.4|9=57|35=0|49=FIXCLIENT1|56=DMA_HUB|34=41|52=20231218-11:04:59|10=044|
2023-12-18 12:05:23.098 [38] [FixSender] (DEBUG) Receiving 8=FIX.4.4|9=61|35=0|34=44|49=DMA_HUB|56=FIXCLIENT1|52=20231218-11:05:23.098|10=241|
2023-12-18 12:05:29.581 [39] [FixSender] (DEBUG) Sending 8=FIX.4.4|9=57|35=0|49=FIXCLIENT1|56=DMA_HUB|34=42|52=20231218-11:05:29|10=043|
2023-12-18 12:05:53.042 [38] [FixSender] (DEBUG) Receiving 8=FIX.4.4|9=61|35=0|34=45|49=DMA_HUB|56=FIXCLIENT1|52=20231218-11:05:53.042|10=234|
2023-12-18 12:05:59.583 [39] [FixSender] (DEBUG) Sending 8=FIX.4.4|9=57|35=0|49=FIXCLIENT1|56=DMA_HUB|34=43|52=20231218-11:05:59|10=047|
2023-12-18 12:06:22.995 [38] [FixSender] (DEBUG) Receiving 8=FIX.4.4|9=61|35=0|34=46|49=DMA_HUB|56=FIXCLIENT1|52=20231218-11:06:22.995|10=249|
2023-12-18 12:06:29.584 [39] [FixSender] (DEBUG) Sending 8=FIX.4.4|9=57|35=0|49=FIXCLIENT1|56=DMA_HUB|34=44|52=20231218-11:06:29|10=046|
2023-12-18 12:06:52.949 [38] [FixSender] (DEBUG) Receiving 8=FIX.4.4|9=61|35=0|34=47|49=DMA_HUB|56=FIXCLIENT1|52=20231218-11:06:52.949|10=252|
2023-12-18 12:06:59.586 [39] [FixSender] (DEBUG) Sending 8=FIX.4.4|9=57|35=0|49=FIXCLIENT1|56=DMA_HUB|34=45|52=20231218-11:06:59|10=050|
2023-12-18 12:07:22.909 [38] [FixSender] (DEBUG) Receiving 8=FIX.4.4|9=61|35=0|34=48|49=DMA_HUB|56=FIXCLIENT1|52=20231218-11:07:22.909|10=247|
2023-12-18 12:07:29.587 [39] [FixSender] (DEBUG) Sending 8=FIX.4.4|9=57|35=0|49=FIXCLIENT1|56=DMA_HUB|34=46|52=20231218-11:07:29|10=049|
2023-12-18 12:07:52.853 [38] [FixSender] (DEBUG) Receiving 8=FIX.4.4|9=61|35=0|34=49|49=DMA_HUB|56=FIXCLIENT1|52=20231218-11:07:52.853|10=249|
2023-12-18 12:07:59.590 [39] [FixSender] (DEBUG) Sending 8=FIX.4.4|9=57|35=0|49=FIXCLIENT1|56=DMA_HUB|34=47|52=20231218-11:07:59|10=053|
2023-12-18 12:08:22.811 [38] [FixSender] (DEBUG) Receiving 8=FIX.4.4|9=61|35=0|34=50|49=DMA_HUB|56=FIXCLIENT1|52=20231218-11:08:22.811|10=233|
2023-12-18 12:08:29.592 [39] [FixSender] (DEBUG) Sending 8=FIX.4.4|9=57|35=0|49=FIXCLIENT1|56=DMA_HUB|34=48|52=20231218-11:08:29|10=052|
2023-12-18 12:08:52.768 [38] [FixSender] (DEBUG) Receiving 8=FIX.4.4|9=61|35=0|34=51|49=DMA_HUB|56=FIXCLIENT1|52=20231218-11:08:52.767|10=247|
2023-12-18 12:08:59.594 [39] [FixSender] (DEBUG) Sending 8=FIX.4.4|9=57|35=0|49=FIXCLIENT1|56=DMA_HUB|34=49|52=20231218-11:08:59|10=056|
2023-12-18 12:09:22.721 [38] [FixSender] (DEBUG) Receiving 8=FIX.4.4|9=61|35=0|34=52|49=DMA_HUB|56=FIXCLIENT1|52=20231218-11:09:22.719|10=243|
2023-12-18 12:09:29.598 [39] [FixSender] (DEBUG) Sending 8=FIX.4.4|9=57|35=0|49=FIXCLIENT1|56=DMA_HUB|34=50|52=20231218-11:09:29|10=046|
2023-12-18 12:09:52.666 [38] [FixSender] (DEBUG) Receiving 8=FIX.4.4|9=61|35=0|34=53|49=DMA_HUB|56=FIXCLIENT1|52=20231218-11:09:52.665|10=247|
2023-12-18 12:09:59.600 [39] [FixSender] (DEBUG) Sending 8=FIX.4.4|9=57|35=0|49=FIXCLIENT1|56=DMA_HUB|34=51|52=20231218-11:09:59|10=050|
2023-12-18 12:10:22.621 [38] [FixSender] (DEBUG) Receiving 8=FIX.4.4|9=61|35=0|34=54|49=DMA_HUB|56=FIXCLIENT1|52=20231218-11:10:22.620|10=228|
2023-12-18 12:10:29.604 [39] [FixSender] (DEBUG) Sending 8=FIX.4.4|9=57|35=0|49=FIXCLIENT1|56=DMA_HUB|34=52|52=20231218-11:10:29|10=040|
2023-12-18 12:10:52.573 [38] [FixSender] (DEBUG) Receiving 8=FIX.4.4|9=61|35=0|34=55|49=DMA_HUB|56=FIXCLIENT1|52=20231218-11:10:52.573|10=239|
2023-12-18 12:10:59.606 [39] [FixSender] (DEBUG) Sending 8=FIX.4.4|9=57|35=0|49=FIXCLIENT1|56=DMA_HUB|34=53|52=20231218-11:10:59|10=044|
2023-12-18 12:11:22.514 [38] [FixSender] (DEBUG) Receiving 8=FIX.4.4|9=61|35=0|34=56|49=DMA_HUB|56=FIXCLIENT1|52=20231218-11:11:22.514|10=233|
2023-12-18 12:11:29.607 [39] [FixSender] (DEBUG) Sending 8=FIX.4.4|9=57|35=0|49=FIXCLIENT1|56=DMA_HUB|34=54|52=20231218-11:11:29|10=043|
2023-12-18 12:11:52.467 [38] [FixSender] (DEBUG) Receiving 8=FIX.4.4|9=61|35=0|34=57|49=DMA_HUB|56=FIXCLIENT1|52=20231218-11:11:52.467|10=244|
2023-12-18 12:11:59.612 [39] [FixSender] (DEBUG) Sending 8=FIX.4.4|9=57|35=0|49=FIXCLIENT1|56=DMA_HUB|34=55|52=20231218-11:11:59|10=047|
2023-12-18 12:12:22.431 [38] [FixSender] (DEBUG) Receiving 8=FIX.4.4|9=61|35=0|34=58|49=DMA_HUB|56=FIXCLIENT1|52=20231218-11:12:22.431|10=234|
2023-12-18 12:12:29.613 [39] [FixSender] (DEBUG) Sending 8=FIX.4.4|9=57|35=0|49=FIXCLIENT1|56=DMA_HUB|34=56|52=20231218-11:12:29|10=046|
2023-12-18 12:12:52.379 [38] [FixSender] (DEBUG) Receiving 8=FIX.4.4|9=61|35=0|34=59|49=DMA_HUB|56=FIXCLIENT1|52=20231218-11:12:52.379|10=249|
2023-12-18 12:12:59.616 [39] [FixSender] (DEBUG) Sending 8=FIX.4.4|9=57|35=0|49=FIXCLIENT1|56=DMA_HUB|34=57|52=20231218-11:12:59|10=050|
2023-12-18 12:13:22.322 [38] [FixSender] (DEBUG) Receiving 8=FIX.4.4|9=61|35=0|34=60|49=DMA_HUB|56=FIXCLIENT1|52=20231218-11:13:22.322|10=227|
2023-12-18 12:13:29.617 [39] [FixSender] (DEBUG) Sending 8=FIX.4.4|9=57|35=0|49=FIXCLIENT1|56=DMA_HUB|34=58|52=20231218-11:13:29|10=049|
2023-12-18 12:13:52.287 [38] [FixSender] (DEBUG) Receiving 8=FIX.4.4|9=61|35=0|34=61|49=DMA_HUB|56=FIXCLIENT1|52=20231218-11:13:52.285|10=239|
2023-12-18 12:13:59.619 [39] [FixSender] (DEBUG) Sending 8=FIX.4.4|9=57|35=0|49=FIXCLIENT1|56=DMA_HUB|34=59|52=20231218-11:13:59|10=053|
2023-12-18 12:14:22.237 [38] [FixSender] (DEBUG) Receiving 8=FIX.4.4|9=61|35=0|34=62|49=DMA_HUB|56=FIXCLIENT1|52=20231218-11:14:22.237|10=235|
2023-12-18 12:14:29.622 [39] [FixSender] (DEBUG) Sending 8=FIX.4.4|9=57|35=0|49=FIXCLIENT1|56=DMA_HUB|34=60|52=20231218-11:14:29|10=043|
2023-12-18 12:14:52.188 [38] [FixSender] (DEBUG) Receiving 8=FIX.4.4|9=61|35=0|34=63|49=DMA_HUB|56=FIXCLIENT1|52=20231218-11:14:52.188|10=244|
2023-12-18 12:14:59.625 [39] [FixSender] (DEBUG) Sending 8=FIX.4.4|9=57|35=0|49=FIXCLIENT1|56=DMA_HUB|34=61|52=20231218-11:14:59|10=047|
2023-12-18 12:15:22.142 [38] [FixSender] (DEBUG) Receiving 8=FIX.4.4|9=61|35=0|34=64|49=DMA_HUB|56=FIXCLIENT1|52=20231218-11:15:22.142|10=233|
2023-12-18 12:15:29.627 [39] [FixSender] (DEBUG) Sending 8=FIX.4.4|9=57|35=0|49=FIXCLIENT1|56=DMA_HUB|34=62|52=20231218-11:15:29|10=046|
2023-12-18 12:15:52.083 [38] [FixSender] (DEBUG) Receiving 8=FIX.4.4|9=61|35=0|34=65|49=DMA_HUB|56=FIXCLIENT1|52=20231218-11:15:52.082|10=240|
2023-12-18 12:15:59.637 [39] [FixSender] (DEBUG) Sending 8=FIX.4.4|9=57|35=0|49=FIXCLIENT1|56=DMA_HUB|34=63|52=20231218-11:15:59|10=050|
2023-12-18 12:16:22.040 [38] [FixSender] (DEBUG) Receiving 8=FIX.4.4|9=61|35=0|34=66|49=DMA_HUB|56=FIXCLIENT1|52=20231218-11:16:22.040|10=233|
2023-12-18 12:16:29.638 [39] [FixSender] (DEBUG) Sending 8=FIX.4.4|9=57|35=0|49=FIXCLIENT1|56=DMA_HUB|34=64|52=20231218-11:16:29|10=049|
2023-12-18 12:16:51.990 [38] [FixSender] (DEBUG) Receiving 8=FIX.4.4|9=61|35=0|34=67|49=DMA_HUB|56=FIXCLIENT1|52=20231218-11:16:51.989|10=002|
2023-12-18 12:16:59.642 [39] [FixSender] (DEBUG) Sending 8=FIX.4.4|9=57|35=0|49=FIXCLIENT1|56=DMA_HUB|34=65|52=20231218-11:16:59|10=053|
2023-12-18 12:17:21.946 [38] [FixSender] (DEBUG) Receiving 8=FIX.4.4|9=61|35=0|34=68|49=DMA_HUB|56=FIXCLIENT1|52=20231218-11:17:21.946|10=250|
2023-12-18 12:17:29.645 [39] [FixSender] (DEBUG) Sending 8=FIX.4.4|9=57|35=0|49=FIXCLIENT1|56=DMA_HUB|34=66|52=20231218-11:17:29|10=052|
2023-12-18 12:17:51.899 [38] [FixSender] (DEBUG) Receiving 8=FIX.4.4|9=61|35=0|34=69|49=DMA_HUB|56=FIXCLIENT1|52=20231218-11:17:51.899|10=005|
2023-12-18 12:17:59.648 [39] [FixSender] (DEBUG) Sending 8=FIX.4.4|9=57|35=0|49=FIXCLIENT1|56=DMA_HUB|34=67|52=20231218-11:17:59|10=056|
2023-12-18 12:18:21.847 [38] [FixSender] (DEBUG) Receiving 8=FIX.4.4|9=61|35=0|34=70|49=DMA_HUB|56=FIXCLIENT1|52=20231218-11:18:21.847|10=244|
2023-12-18 12:18:29.651 [39] [FixSender] (DEBUG) Sending 8=FIX.4.4|9=57|35=0|49=FIXCLIENT1|56=DMA_HUB|34=68|52=20231218-11:18:29|10=055|
2023-12-18 12:18:51.798 [38] [FixSender] (DEBUG) Receiving 8=FIX.4.4|9=61|35=0|34=71|49=DMA_HUB|56=FIXCLIENT1|52=20231218-11:18:51.797|10=252|
2023-12-18 12:18:59.654 [39] [FixSender] (DEBUG) Sending 8=FIX.4.4|9=57|35=0|49=FIXCLIENT1|56=DMA_HUB|34=69|52=20231218-11:18:59|10=059|
2023-12-18 12:19:21.758 [38] [FixSender] (DEBUG) Receiving 8=FIX.4.4|9=61|35=0|34=72|49=DMA_HUB|56=FIXCLIENT1|52=20231218-11:19:21.757|10=247|
2023-12-18 12:19:29.656 [39] [FixSender] (DEBUG) Sending 8=FIX.4.4|9=57|35=0|49=FIXCLIENT1|56=DMA_HUB|34=70|52=20231218-11:19:29|10=049|
2023-12-18 12:19:51.700 [38] [FixSender] (DEBUG) Receiving 8=FIX.4.4|9=61|35=0|34=73|49=DMA_HUB|56=FIXCLIENT1|52=20231218-11:19:51.700|10=239|
2023-12-18 12:19:59.670 [39] [FixSender] (DEBUG) Sending 8=FIX.4.4|9=57|35=0|49=FIXCLIENT1|56=DMA_HUB|34=71|52=20231218-11:19:59|10=053|
2023-12-18 12:20:21.664 [38] [FixSender] (DEBUG) Receiving 8=FIX.4.4|9=61|35=0|34=74|49=DMA_HUB|56=FIXCLIENT1|52=20231218-11:20:21.664|10=238|
2023-12-18 12:20:29.671 [39] [FixSender] (DEBUG) Sending 8=FIX.4.4|9=57|35=0|49=FIXCLIENT1|56=DMA_HUB|34=72|52=20231218-11:20:29|10=043|
2023-12-18 12:20:51.606 [38] [FixSender] (DEBUG) Receiving 8=FIX.4.4|9=61|35=0|34=75|49=DMA_HUB|56=FIXCLIENT1|52=20231218-11:20:51.605|10=237|
2023-12-18 12:20:59.674 [39] [FixSender] (DEBUG) Sending 8=FIX.4.4|9=57|35=0|49=FIXCLIENT1|56=DMA_HUB|34=73|52=20231218-11:20:59|10=047|
2023-12-18 12:21:21.563 [38] [FixSender] (DEBUG) Receiving 8=FIX.4.4|9=61|35=0|34=76|49=DMA_HUB|56=FIXCLIENT1|52=20231218-11:21:21.563|10=239|
2023-12-18 12:21:29.676 [39] [FixSender] (DEBUG) Sending 8=FIX.4.4|9=57|35=0|49=FIXCLIENT1|56=DMA_HUB|34=74|52=20231218-11:21:29|10=046|
2023-12-18 12:21:51.518 [38] [FixSender] (DEBUG) Receiving 8=FIX.4.4|9=61|35=0|34=77|49=DMA_HUB|56=FIXCLIENT1|52=20231218-11:21:51.517|10=242|
2023-12-18 12:21:59.679 [39] [FixSender] (DEBUG) Sending 8=FIX.4.4|9=57|35=0|49=FIXCLIENT1|56=DMA_HUB|34=75|52=20231218-11:21:59|10=050|
2023-12-18 12:22:21.467 [38] [FixSender] (DEBUG) Receiving 8=FIX.4.4|9=61|35=0|34=78|49=DMA_HUB|56=FIXCLIENT1|52=20231218-11:22:21.466|10=244|
2023-12-18 12:22:29.682 [39] [FixSender] (DEBUG) Sending 8=FIX.4.4|9=57|35=0|49=FIXCLIENT1|56=DMA_HUB|34=76|52=20231218-11:22:29|10=049|
2023-12-18 12:22:51.412 [38] [FixSender] (DEBUG) Receiving 8=FIX.4.4|9=61|35=0|34=79|49=DMA_HUB|56=FIXCLIENT1|52=20231218-11:22:51.412|10=239|
2023-12-18 12:22:59.684 [39] [FixSender] (DEBUG) Sending 8=FIX.4.4|9=57|35=0|49=FIXCLIENT1|56=DMA_HUB|34=77|52=20231218-11:22:59|10=053|
2023-12-18 12:23:21.366 [38] [FixSender] (DEBUG) Receiving 8=FIX.4.4|9=61|35=0|34=80|49=DMA_HUB|56=FIXCLIENT1|52=20231218-11:23:21.366|10=237|
2023-12-18 12:23:29.686 [39] [FixSender] (DEBUG) Sending 8=FIX.4.4|9=57|35=0|49=FIXCLIENT1|56=DMA_HUB|34=78|52=20231218-11:23:29|10=052|
2023-12-18 12:23:51.323 [38] [FixSender] (DEBUG) Receiving 8=FIX.4.4|9=61|35=0|34=81|49=DMA_HUB|56=FIXCLIENT1|52=20231218-11:23:51.322|10=233|
2023-12-18 12:23:59.687 [39] [FixSender] (DEBUG) Sending 8=FIX.4.4|9=57|35=0|49=FIXCLIENT1|56=DMA_HUB|34=79|52=20231218-11:23:59|10=056|
2023-12-18 12:24:21.273 [38] [FixSender] (DEBUG) Receiving 8=FIX.4.4|9=61|35=0|34=82|49=DMA_HUB|56=FIXCLIENT1|52=20231218-11:24:21.272|10=236|
2023-12-18 12:24:29.689 [39] [FixSender] (DEBUG) Sending 8=FIX.4.4|9=57|35=0|49=FIXCLIENT1|56=DMA_HUB|34=80|52=20231218-11:24:29|10=046|
2023-12-18 12:24:51.229 [38] [FixSender] (DEBUG) Receiving 8=FIX.4.4|9=61|35=0|34=83|49=DMA_HUB|56=FIXCLIENT1|52=20231218-11:24:51.228|10=241|
2023-12-18 12:24:59.691 [39] [FixSender] (DEBUG) Sending 8=FIX.4.4|9=57|35=0|49=FIXCLIENT1|56=DMA_HUB|34=81|52=20231218-11:24:59|10=050|
2023-12-18 12:25:21.183 [38] [FixSender] (DEBUG) Receiving 8=FIX.4.4|9=61|35=0|34=84|49=DMA_HUB|56=FIXCLIENT1|52=20231218-11:25:21.182|10=239|
2023-12-18 12:25:29.694 [39] [FixSender] (DEBUG) Sending 8=FIX.4.4|9=57|35=0|49=FIXCLIENT1|56=DMA_HUB|34=82|52=20231218-11:25:29|10=049|
2023-12-18 12:25:51.121 [38] [FixSender] (DEBUG) Receiving 8=FIX.4.4|9=61|35=0|34=85|49=DMA_HUB|56=FIXCLIENT1|52=20231218-11:25:51.121|10=236|
2023-12-18 12:25:59.696 [39] [FixSender] (DEBUG) Sending 8=FIX.4.4|9=57|35=0|49=FIXCLIENT1|56=DMA_HUB|34=83|52=20231218-11:25:59|10=053|
2023-12-18 12:26:21.078 [38] [FixSender] (DEBUG) Receiving 8=FIX.4.4|9=61|35=0|34=86|49=DMA_HUB|56=FIXCLIENT1|52=20231218-11:26:21.078|10=246|
2023-12-18 12:26:29.701 [39] [FixSender] (DEBUG) Sending 8=FIX.4.4|9=57|35=0|49=FIXCLIENT1|56=DMA_HUB|34=84|52=20231218-11:26:29|10=052|
2023-12-18 12:26:51.028 [38] [FixSender] (DEBUG) Receiving 8=FIX.4.4|9=61|35=0|34=87|49=DMA_HUB|56=FIXCLIENT1|52=20231218-11:26:51.028|10=245|
2023-12-18 12:26:59.702 [39] [FixSender] (DEBUG) Sending 8=FIX.4.4|9=57|35=0|49=FIXCLIENT1|56=DMA_HUB|34=85|52=20231218-11:26:59|10=056|
2023-12-18 12:27:20.981 [38] [FixSender] (DEBUG) Receiving 8=FIX.4.4|9=61|35=0|34=88|49=DMA_HUB|56=FIXCLIENT1|52=20231218-11:27:20.981|10=251|
2023-12-18 12:27:29.714 [39] [FixSender] (DEBUG) Sending 8=FIX.4.4|9=57|35=0|49=FIXCLIENT1|56=DMA_HUB|34=86|52=20231218-11:27:29|10=055|
2023-12-18 12:27:50.944 [38] [FixSender] (DEBUG) Receiving 8=FIX.4.4|9=61|35=0|34=89|49=DMA_HUB|56=FIXCLIENT1|52=20231218-11:27:50.944|10=254|
2023-12-18 12:27:59.717 [39] [FixSender] (DEBUG) Sending 8=FIX.4.4|9=57|35=0|49=FIXCLIENT1|56=DMA_HUB|34=87|52=20231218-11:27:59|10=059|
2023-12-18 12:28:20.883 [38] [FixSender] (DEBUG) Receiving 8=FIX.4.4|9=61|35=0|34=90|49=DMA_HUB|56=FIXCLIENT1|52=20231218-11:28:20.883|10=246|
2023-12-18 12:28:29.721 [39] [FixSender] (DEBUG) Sending 8=FIX.4.4|9=57|35=0|49=FIXCLIENT1|56=DMA_HUB|34=88|52=20231218-11:28:29|10=058|
2023-12-18 12:28:50.839 [38] [FixSender] (DEBUG) Receiving 8=FIX.4.4|9=61|35=0|34=91|49=DMA_HUB|56=FIXCLIENT1|52=20231218-11:28:50.838|10=250|
2023-12-18 12:28:59.722 [39] [FixSender] (DEBUG) Sending 8=FIX.4.4|9=57|35=0|49=FIXCLIENT1|56=DMA_HUB|34=89|52=20231218-11:28:59|10=062|
2023-12-18 12:29:20.791 [38] [FixSender] (DEBUG) Receiving 8=FIX.4.4|9=61|35=0|34=92|49=DMA_HUB|56=FIXCLIENT1|52=20231218-11:29:20.791|10=247|
2023-12-18 12:29:29.723 [39] [FixSender] (DEBUG) Sending 8=FIX.4.4|9=57|35=0|49=FIXCLIENT1|56=DMA_HUB|34=90|52=20231218-11:29:29|10=052|
2023-12-18 12:29:50.747 [38] [FixSender] (DEBUG) Receiving 8=FIX.4.4|9=61|35=0|34=93|49=DMA_HUB|56=FIXCLIENT1|52=20231218-11:29:50.747|10=252|
2023-12-18 12:29:59.724 [39] [FixSender] (DEBUG) Sending 8=FIX.4.4|9=57|35=0|49=FIXCLIENT1|56=DMA_HUB|34=91|52=20231218-11:29:59|10=056|
2023-12-18 12:30:20.704 [38] [FixSender] (DEBUG) Receiving 8=FIX.4.4|9=61|35=0|34=94|49=DMA_HUB|56=FIXCLIENT1|52=20231218-11:30:20.704|10=235|
2023-12-18 12:30:29.728 [39] [FixSender] (DEBUG) Sending 8=FIX.4.4|9=57|35=0|49=FIXCLIENT1|56=DMA_HUB|34=92|52=20231218-11:30:29|10=046|
2023-12-18 12:30:50.656 [38] [FixSender] (DEBUG) Receiving 8=FIX.4.4|9=61|35=0|34=95|49=DMA_HUB|56=FIXCLIENT1|52=20231218-11:30:50.653|10=242|
2023-12-18 12:30:59.730 [39] [FixSender] (DEBUG) Sending 8=FIX.4.4|9=57|35=0|49=FIXCLIENT1|56=DMA_HUB|34=93|52=20231218-11:30:59|10=050|
2023-12-18 12:31:20.601 [38] [FixSender] (DEBUG) Receiving 8=FIX.4.4|9=61|35=0|34=96|49=DMA_HUB|56=FIXCLIENT1|52=20231218-11:31:20.600|10=233|
2023-12-18 12:31:29.730 [39] [FixSender] (DEBUG) Sending 8=FIX.4.4|9=57|35=0|49=FIXCLIENT1|56=DMA_HUB|34=94|52=20231218-11:31:29|10=049|
2023-12-18 12:31:50.547 [38] [FixSender] (DEBUG) Receiving 8=FIX.4.4|9=61|35=0|34=97|49=DMA_HUB|56=FIXCLIENT1|52=20231218-11:31:50.546|10=246|
2023-12-18 12:31:59.732 [39] [FixSender] (DEBUG) Sending 8=FIX.4.4|9=57|35=0|49=FIXCLIENT1|56=DMA_HUB|34=95|52=20231218-11:31:59|10=053|
2023-12-18 12:32:20.503 [38] [FixSender] (DEBUG) Receiving 8=FIX.4.4|9=61|35=0|34=98|49=DMA_HUB|56=FIXCLIENT1|52=20231218-11:32:20.502|10=237|
2023-12-18 12:32:29.734 [39] [FixSender] (DEBUG) Sending 8=FIX.4.4|9=57|35=0|49=FIXCLIENT1|56=DMA_HUB|34=96|52=20231218-11:32:29|10=052|
2023-12-18 12:32:50.465 [38] [FixSender] (DEBUG) Receiving 8=FIX.4.4|9=61|35=0|34=99|49=DMA_HUB|56=FIXCLIENT1|52=20231218-11:32:50.464|10=248|
2023-12-18 12:32:59.736 [39] [FixSender] (DEBUG) Sending 8=FIX.4.4|9=57|35=0|49=FIXCLIENT1|56=DMA_HUB|34=97|52=20231218-11:32:59|10=056|
2023-12-18 12:33:20.404 [38] [FixSender] (DEBUG) Receiving 8=FIX.4.4|9=62|35=0|34=100|49=DMA_HUB|56=FIXCLIENT1|52=20231218-11:33:20.404|10=016|
2023-12-18 12:33:29.739 [39] [FixSender] (DEBUG) Sending 8=FIX.4.4|9=57|35=0|49=FIXCLIENT1|56=DMA_HUB|34=98|52=20231218-11:33:29|10=055|
2023-12-18 12:33:50.364 [38] [FixSender] (DEBUG) Receiving 8=FIX.4.4|9=62|35=0|34=101|49=DMA_HUB|56=FIXCLIENT1|52=20231218-11:33:50.364|10=025|
2023-12-18 12:33:59.740 [39] [FixSender] (DEBUG) Sending 8=FIX.4.4|9=57|35=0|49=FIXCLIENT1|56=DMA_HUB|34=99|52=20231218-11:33:59|10=059|
2023-12-18 12:34:20.314 [38] [FixSender] (DEBUG) Receiving 8=FIX.4.4|9=62|35=0|34=102|49=DMA_HUB|56=FIXCLIENT1|52=20231218-11:34:20.314|10=019|
2023-12-18 12:34:29.744 [39] [FixSender] (DEBUG) Sending 8=FIX.4.4|9=58|35=0|49=FIXCLIENT1|56=DMA_HUB|34=100|52=20231218-11:34:29|10=089|
2023-12-18 12:34:50.262 [38] [FixSender] (DEBUG) Receiving 8=FIX.4.4|9=62|35=0|34=103|49=DMA_HUB|56=FIXCLIENT1|52=20231218-11:34:50.262|10=025|
2023-12-18 12:34:59.747 [39] [FixSender] (DEBUG) Sending 8=FIX.4.4|9=58|35=0|49=FIXCLIENT1|56=DMA_HUB|34=101|52=20231218-11:34:59|10=093|
2023-12-18 12:35:20.219 [38] [FixSender] (DEBUG) Receiving 8=FIX.4.4|9=62|35=0|34=104|49=DMA_HUB|56=FIXCLIENT1|52=20231218-11:35:20.219|10=026|
2023-12-18 12:35:29.748 [39] [FixSender] (DEBUG) Sending 8=FIX.4.4|9=58|35=0|49=FIXCLIENT1|56=DMA_HUB|34=102|52=20231218-11:35:29|10=092|
2023-12-18 12:35:50.170 [38] [FixSender] (DEBUG) Receiving 8=FIX.4.4|9=62|35=0|34=105|49=DMA_HUB|56=FIXCLIENT1|52=20231218-11:35:50.169|10=034|
2023-12-18 12:35:59.748 [39] [FixSender] (DEBUG) Sending 8=FIX.4.4|9=58|35=0|49=FIXCLIENT1|56=DMA_HUB|34=103|52=20231218-11:35:59|10=096|
2023-12-18 12:36:20.125 [38] [FixSender] (DEBUG) Receiving 8=FIX.4.4|9=62|35=0|34=106|49=DMA_HUB|56=FIXCLIENT1|52=20231218-11:36:20.125|10=025|
2023-12-18 12:36:29.762 [39] [FixSender] (DEBUG) Sending 8=FIX.4.4|9=58|35=0|49=FIXCLIENT1|56=DMA_HUB|34=104|52=20231218-11:36:29|10=095|
2023-12-18 12:36:50.074 [38] [FixSender] (DEBUG) Receiving 8=FIX.4.4|9=62|35=0|34=107|49=DMA_HUB|56=FIXCLIENT1|52=20231218-11:36:50.074|10=032|
2023-12-18 12:36:59.763 [39] [FixSender] (DEBUG) Sending 8=FIX.4.4|9=58|35=0|49=FIXCLIENT1|56=DMA_HUB|34=105|52=20231218-11:36:59|10=099|
2023-12-18 12:37:20.025 [38] [FixSender] (DEBUG) Receiving 8=FIX.4.4|9=62|35=0|34=108|49=DMA_HUB|56=FIXCLIENT1|52=20231218-11:37:20.024|10=026|
2023-12-18 12:37:29.764 [39] [FixSender] (DEBUG) Sending 8=FIX.4.4|9=58|35=0|49=FIXCLIENT1|56=DMA_HUB|34=106|52=20231218-11:37:29|10=098|
2023-12-18 12:37:49.983 [38] [FixSender] (DEBUG) Receiving 8=FIX.4.4|9=62|35=0|34=109|49=DMA_HUB|56=FIXCLIENT1|52=20231218-11:37:49.983|10=052|
2023-12-18 12:37:59.766 [39] [FixSender] (DEBUG) Sending 8=FIX.4.4|9=58|35=0|49=FIXCLIENT1|56=DMA_HUB|34=107|52=20231218-11:37:59|10=102|
2023-12-18 12:38:19.927 [38] [FixSender] (DEBUG) Receiving 8=FIX.4.4|9=62|35=0|34=110|49=DMA_HUB|56=FIXCLIENT1|52=20231218-11:38:19.927|10=040|
2023-12-18 12:38:29.769 [39] [FixSender] (DEBUG) Sending 8=FIX.4.4|9=58|35=0|49=FIXCLIENT1|56=DMA_HUB|34=108|52=20231218-11:38:29|10=101|
2023-12-18 12:38:49.875 [38] [FixSender] (DEBUG) Receiving 8=FIX.4.4|9=62|35=0|34=111|49=DMA_HUB|56=FIXCLIENT1|52=20231218-11:38:49.875|10=046|
2023-12-18 12:38:59.770 [39] [FixSender] (DEBUG) Sending 8=FIX.4.4|9=58|35=0|49=FIXCLIENT1|56=DMA_HUB|34=109|52=20231218-11:38:59|10=105|
2023-12-18 12:39:19.838 [38] [FixSender] (DEBUG) Receiving 8=FIX.4.4|9=62|35=0|34=112|49=DMA_HUB|56=FIXCLIENT1|52=20231218-11:39:19.838|10=044|
2023-12-18 12:39:29.772 [39] [FixSender] (DEBUG) Sending 8=FIX.4.4|9=58|35=0|49=FIXCLIENT1|56=DMA_HUB|34=110|52=20231218-11:39:29|10=095|
2023-12-18 12:39:49.786 [38] [FixSender] (DEBUG) Receiving 8=FIX.4.4|9=62|35=0|34=113|49=DMA_HUB|56=FIXCLIENT1|52=20231218-11:39:49.786|10=050|
2023-12-18 12:39:59.775 [39] [FixSender] (DEBUG) Sending 8=FIX.4.4|9=58|35=0|49=FIXCLIENT1|56=DMA_HUB|34=111|52=20231218-11:39:59|10=099|
2023-12-18 12:40:19.743 [38] [FixSender] (DEBUG) Receiving 8=FIX.4.4|9=62|35=0|34=114|49=DMA_HUB|56=FIXCLIENT1|52=20231218-11:40:19.743|10=033|
2023-12-18 12:40:29.775 [39] [FixSender] (DEBUG) Sending 8=FIX.4.4|9=58|35=0|49=FIXCLIENT1|56=DMA_HUB|34=112|52=20231218-11:40:29|10=089|
2023-12-18 12:40:49.692 [38] [FixSender] (DEBUG) Receiving 8=FIX.4.4|9=62|35=0|34=115|49=DMA_HUB|56=FIXCLIENT1|52=20231218-11:40:49.690|10=038|
2023-12-18 12:40:59.777 [39] [FixSender] (DEBUG) Sending 8=FIX.4.4|9=58|35=0|49=FIXCLIENT1|56=DMA_HUB|34=113|52=20231218-11:40:59|10=093|
2023-12-18 12:41:19.637 [38] [FixSender] (DEBUG) Receiving 8=FIX.4.4|9=62|35=0|34=116|49=DMA_HUB|56=FIXCLIENT1|52=20231218-11:41:19.635|10=036|
2023-12-18 12:41:29.778 [39] [FixSender] (DEBUG) Sending 8=FIX.4.4|9=58|35=0|49=FIXCLIENT1|56=DMA_HUB|34=114|52=20231218-11:41:29|10=092|
2023-12-18 12:41:49.594 [38] [FixSender] (DEBUG) Receiving 8=FIX.4.4|9=62|35=0|34=117|49=DMA_HUB|56=FIXCLIENT1|52=20231218-11:41:49.594|10=044|
2023-12-18 12:41:59.779 [39] [FixSender] (DEBUG) Sending 8=FIX.4.4|9=58|35=0|49=FIXCLIENT1|56=DMA_HUB|34=115|52=20231218-11:41:59|10=096|
2023-12-18 12:42:19.552 [38] [FixSender] (DEBUG) Receiving 8=FIX.4.4|9=62|35=0|34=118|49=DMA_HUB|56=FIXCLIENT1|52=20231218-11:42:19.551|10=036|
2023-12-18 12:42:29.780 [39] [FixSender] (DEBUG) Sending 8=FIX.4.4|9=58|35=0|49=FIXCLIENT1|56=DMA_HUB|34=116|52=20231218-11:42:29|10=095|
2023-12-18 12:42:49.493 [38] [FixSender] (DEBUG) Receiving 8=FIX.4.4|9=62|35=0|34=119|49=DMA_HUB|56=FIXCLIENT1|52=20231218-11:42:49.493|10=045|
2023-12-18 12:42:59.782 [39] [FixSender] (DEBUG) Sending 8=FIX.4.4|9=58|35=0|49=FIXCLIENT1|56=DMA_HUB|34=117|52=20231218-11:42:59|10=099|
2023-12-18 12:43:19.453 [38] [FixSender] (DEBUG) Receiving 8=FIX.4.4|9=62|35=0|34=120|49=DMA_HUB|56=FIXCLIENT1|52=20231218-11:43:19.453|10=031|
2023-12-18 12:43:29.784 [39] [FixSender] (DEBUG) Sending 8=FIX.4.4|9=58|35=0|49=FIXCLIENT1|56=DMA_HUB|34=118|52=20231218-11:43:29|10=098|
2023-12-18 12:43:49.400 [38] [FixSender] (DEBUG) Receiving 8=FIX.4.4|9=62|35=0|34=121|49=DMA_HUB|56=FIXCLIENT1|52=20231218-11:43:49.400|10=027|
2023-12-18 12:43:59.788 [39] [FixSender] (DEBUG) Sending 8=FIX.4.4|9=58|35=0|49=FIXCLIENT1|56=DMA_HUB|34=119|52=20231218-11:43:59|10=102|
2023-12-18 12:44:19.351 [38] [FixSender] (DEBUG) Receiving 8=FIX.4.4|9=62|35=0|34=122|49=DMA_HUB|56=FIXCLIENT1|52=20231218-11:44:19.351|10=031|
2023-12-18 12:44:29.790 [39] [FixSender] (DEBUG) Sending 8=FIX.4.4|9=58|35=0|49=FIXCLIENT1|56=DMA_HUB|34=120|52=20231218-11:44:29|10=092|
2023-12-18 12:44:49.303 [38] [FixSender] (DEBUG) Receiving 8=FIX.4.4|9=62|35=0|34=123|49=DMA_HUB|56=FIXCLIENT1|52=20231218-11:44:49.300|10=029|
2023-12-18 12:44:59.803 [39] [FixSender] (DEBUG) Sending 8=FIX.4.4|9=58|35=0|49=FIXCLIENT1|56=DMA_HUB|34=121|52=20231218-11:44:59|10=096|
2023-12-18 12:45:19.255 [38] [FixSender] (DEBUG) Receiving 8=FIX.4.4|9=62|35=0|34=124|49=DMA_HUB|56=FIXCLIENT1|52=20231218-11:45:19.254|10=036|
2023-12-18 12:45:29.804 [39] [FixSender] (DEBUG) Sending 8=FIX.4.4|9=58|35=0|49=FIXCLIENT1|56=DMA_HUB|34=122|52=20231218-11:45:29|10=095|
2023-12-18 12:45:49.207 [38] [FixSender] (DEBUG) Receiving 8=FIX.4.4|9=62|35=0|34=125|49=DMA_HUB|56=FIXCLIENT1|52=20231218-11:45:49.206|10=037|
2023-12-18 12:45:59.805 [39] [FixSender] (DEBUG) Sending 8=FIX.4.4|9=58|35=0|49=FIXCLIENT1|56=DMA_HUB|34=123|52=20231218-11:45:59|10=099|
2023-12-18 12:46:19.161 [38] [FixSender] (DEBUG) Receiving 8=FIX.4.4|9=62|35=0|34=126|49=DMA_HUB|56=FIXCLIENT1|52=20231218-11:46:19.161|10=036|
2023-12-18 12:46:29.807 [39] [FixSender] (DEBUG) Sending 8=FIX.4.4|9=58|35=0|49=FIXCLIENT1|56=DMA_HUB|34=124|52=20231218-11:46:29|10=098|
2023-12-18 12:46:49.113 [38] [FixSender] (DEBUG) Receiving 8=FIX.4.4|9=62|35=0|34=127|49=DMA_HUB|56=FIXCLIENT1|52=20231218-11:46:49.112|10=036|
2023-12-18 12:46:59.808 [39] [FixSender] (DEBUG) Sending 8=FIX.4.4|9=58|35=0|49=FIXCLIENT1|56=DMA_HUB|34=125|52=20231218-11:46:59|10=102|
2023-12-18 12:47:19.070 [38] [FixSender] (DEBUG) Receiving 8=FIX.4.4|9=62|35=0|34=128|49=DMA_HUB|56=FIXCLIENT1|52=20231218-11:47:19.069|10=046|
2023-12-18 12:47:29.810 [39] [FixSender] (DEBUG) Sending 8=FIX.4.4|9=58|35=0|49=FIXCLIENT1|56=DMA_HUB|34=126|52=20231218-11:47:29|10=101|
2023-12-18 12:47:49.021 [38] [FixSender] (DEBUG) Receiving 8=FIX.4.4|9=62|35=0|34=129|49=DMA_HUB|56=FIXCLIENT1|52=20231218-11:47:49.021|10=038|
2023-12-18 12:47:59.812 [39] [FixSender] (DEBUG) Sending 8=FIX.4.4|9=58|35=0|49=FIXCLIENT1|56=DMA_HUB|34=127|52=20231218-11:47:59|10=105|
2023-12-18 12:48:18.965 [38] [FixSender] (DEBUG) Receiving 8=FIX.4.4|9=62|35=0|34=130|49=DMA_HUB|56=FIXCLIENT1|52=20231218-11:48:18.965|10=044|
2023-12-18 12:48:29.814 [39] [FixSender] (DEBUG) Sending 8=FIX.4.4|9=58|35=0|49=FIXCLIENT1|56=DMA_HUB|34=128|52=20231218-11:48:29|10=104|
2023-12-18 12:48:48.918 [38] [FixSender] (DEBUG) Receiving 8=FIX.4.4|9=62|35=0|34=131|49=DMA_HUB|56=FIXCLIENT1|52=20231218-11:48:48.918|10=046|
2023-12-18 12:48:59.816 [39] [FixSender] (DEBUG) Sending 8=FIX.4.4|9=58|35=0|49=FIXCLIENT1|56=DMA_HUB|34=129|52=20231218-11:48:59|10=108|
2023-12-18 12:49:18.871 [38] [FixSender] (DEBUG) Receiving 8=FIX.4.4|9=62|35=0|34=132|49=DMA_HUB|56=FIXCLIENT1|52=20231218-11:49:18.871|10=043|
2023-12-18 12:49:29.817 [39] [FixSender] (DEBUG) Sending 8=FIX.4.4|9=58|35=0|49=FIXCLIENT1|56=DMA_HUB|34=130|52=20231218-11:49:29|10=098|
2023-12-18 12:49:48.819 [38] [FixSender] (DEBUG) Receiving 8=FIX.4.4|9=62|35=0|34=133|49=DMA_HUB|56=FIXCLIENT1|52=20231218-11:49:48.819|10=049|
2023-12-18 12:49:59.820 [39] [FixSender] (DEBUG) Sending 8=FIX.4.4|9=58|35=0|49=FIXCLIENT1|56=DMA_HUB|34=131|52=20231218-11:49:59|10=102|
2023-12-18 12:50:18.782 [38] [FixSender] (DEBUG) Receiving 8=FIX.4.4|9=62|35=0|34=134|49=DMA_HUB|56=FIXCLIENT1|52=20231218-11:50:18.782|10=038|
2023-12-18 12:50:29.822 [39] [FixSender] (DEBUG) Sending 8=FIX.4.4|9=58|35=0|49=FIXCLIENT1|56=DMA_HUB|34=132|52=20231218-11:50:29|10=092|
2023-12-18 12:50:48.729 [38] [FixSender] (DEBUG) Receiving 8=FIX.4.4|9=62|35=0|34=135|49=DMA_HUB|56=FIXCLIENT1|52=20231218-11:50:48.728|10=042|
2023-12-18 12:50:59.824 [39] [FixSender] (DEBUG) Sending 8=FIX.4.4|9=58|35=0|49=FIXCLIENT1|56=DMA_HUB|34=133|52=20231218-11:50:59|10=096|
2023-12-18 12:51:18.675 [38] [FixSender] (DEBUG) Receiving 8=FIX.4.4|9=62|35=0|34=136|49=DMA_HUB|56=FIXCLIENT1|52=20231218-11:51:18.674|10=041|
2023-12-18 12:51:29.827 [39] [FixSender] (DEBUG) Sending 8=FIX.4.4|9=58|35=0|49=FIXCLIENT1|56=DMA_HUB|34=134|52=20231218-11:51:29|10=095|
2023-12-18 12:51:48.631 [38] [FixSender] (DEBUG) Receiving 8=FIX.4.4|9=62|35=0|34=137|49=DMA_HUB|56=FIXCLIENT1|52=20231218-11:51:48.630|10=037|
2023-12-18 12:51:59.828 [39] [FixSender] (DEBUG) Sending 8=FIX.4.4|9=58|35=0|49=FIXCLIENT1|56=DMA_HUB|34=135|52=20231218-11:51:59|10=099|
2023-12-18 12:52:18.591 [38] [FixSender] (DEBUG) Receiving 8=FIX.4.4|9=62|35=0|34=138|49=DMA_HUB|56=FIXCLIENT1|52=20231218-11:52:18.591|10=042|
2023-12-18 12:52:29.830 [39] [FixSender] (DEBUG) Sending 8=FIX.4.4|9=58|35=0|49=FIXCLIENT1|56=DMA_HUB|34=136|52=20231218-11:52:29|10=098|
2023-12-18 12:52:48.534 [38] [FixSender] (DEBUG) Receiving 8=FIX.4.4|9=62|35=0|34=139|49=DMA_HUB|56=FIXCLIENT1|52=20231218-11:52:48.534|10=043|
2023-12-18 12:52:59.832 [39] [FixSender] (DEBUG) Sending 8=FIX.4.4|9=58|35=0|49=FIXCLIENT1|56=DMA_HUB|34=137|52=20231218-11:52:59|10=102|
2023-12-18 12:53:18.482 [38] [FixSender] (DEBUG) Receiving 8=FIX.4.4|9=62|35=0|34=140|49=DMA_HUB|56=FIXCLIENT1|52=20231218-11:53:18.482|10=035|
2023-12-18 12:53:29.834 [39] [FixSender] (DEBUG) Sending 8=FIX.4.4|9=58|35=0|49=FIXCLIENT1|56=DMA_HUB|34=138|52=20231218-11:53:29|10=101|
2023-12-18 12:53:48.436 [38] [FixSender] (DEBUG) Receiving 8=FIX.4.4|9=62|35=0|34=141|49=DMA_HUB|56=FIXCLIENT1|52=20231218-11:53:48.436|10=038|
2023-12-18 12:53:59.835 [39] [FixSender] (DEBUG) Sending 8=FIX.4.4|9=58|35=0|49=FIXCLIENT1|56=DMA_HUB|34=139|52=20231218-11:53:59|10=105|
2023-12-18 12:54:18.389 [38] [FixSender] (DEBUG) Receiving 8=FIX.4.4|9=62|35=0|34=142|49=DMA_HUB|56=FIXCLIENT1|52=20231218-11:54:18.389|10=044|
2023-12-18 12:54:29.837 [39] [FixSender] (DEBUG) Sending 8=FIX.4.4|9=58|35=0|49=FIXCLIENT1|56=DMA_HUB|34=140|52=20231218-11:54:29|10=095|
2023-12-18 12:54:48.348 [38] [FixSender] (DEBUG) Receiving 8=FIX.4.4|9=62|35=0|34=143|49=DMA_HUB|56=FIXCLIENT1|52=20231218-11:54:48.348|10=043|
2023-12-18 12:54:59.840 [39] [FixSender] (DEBUG) Sending 8=FIX.4.4|9=58|35=0|49=FIXCLIENT1|56=DMA_HUB|34=141|52=20231218-11:54:59|10=099|
2023-12-18 12:55:18.302 [38] [FixSender] (DEBUG) Receiving 8=FIX.4.4|9=62|35=0|34=144|49=DMA_HUB|56=FIXCLIENT1|52=20231218-11:55:18.300|10=030|
2023-12-18 12:55:29.840 [39] [FixSender] (DEBUG) Sending 8=FIX.4.4|9=58|35=0|49=FIXCLIENT1|56=DMA_HUB|34=142|52=20231218-11:55:29|10=098|
2023-12-18 12:55:48.243 [38] [FixSender] (DEBUG) Receiving 8=FIX.4.4|9=62|35=0|34=145|49=DMA_HUB|56=FIXCLIENT1|52=20231218-11:55:48.242|10=039|
2023-12-18 12:55:59.841 [39] [FixSender] (DEBUG) Sending 8=FIX.4.4|9=58|35=0|49=FIXCLIENT1|56=DMA_HUB|34=143|52=20231218-11:55:59|10=102|
2023-12-18 12:56:18.206 [38] [FixSender] (DEBUG) Receiving 8=FIX.4.4|9=62|35=0|34=146|49=DMA_HUB|56=FIXCLIENT1|52=20231218-11:56:18.206|10=038|
2023-12-18 12:56:29.843 [39] [FixSender] (DEBUG) Sending 8=FIX.4.4|9=58|35=0|49=FIXCLIENT1|56=DMA_HUB|34=144|52=20231218-11:56:29|10=101|
2023-12-18 12:56:48.157 [38] [FixSender] (DEBUG) Receiving 8=FIX.4.4|9=62|35=0|34=147|49=DMA_HUB|56=FIXCLIENT1|52=20231218-11:56:48.156|10=046|
2023-12-18 12:56:59.843 [39] [FixSender] (DEBUG) Sending 8=FIX.4.4|9=58|35=0|49=FIXCLIENT1|56=DMA_HUB|34=145|52=20231218-11:56:59|10=105|
2023-12-18 12:57:18.103 [38] [FixSender] (DEBUG) Receiving 8=FIX.4.4|9=62|35=0|34=148|49=DMA_HUB|56=FIXCLIENT1|52=20231218-11:57:18.103|10=037|
2023-12-18 12:57:29.845 [39] [FixSender] (DEBUG) Sending 8=FIX.4.4|9=58|35=0|49=FIXCLIENT1|56=DMA_HUB|34=146|52=20231218-11:57:29|10=104|
2023-12-18 12:57:48.064 [38] [FixSender] (DEBUG) Receiving 8=FIX.4.4|9=62|35=0|34=149|49=DMA_HUB|56=FIXCLIENT1|52=20231218-11:57:48.063|10=046|
2023-12-18 12:57:59.846 [39] [FixSender] (DEBUG) Sending 8=FIX.4.4|9=58|35=0|49=FIXCLIENT1|56=DMA_HUB|34=147|52=20231218-11:57:59|10=108|
2023-12-18 12:58:18.013 [38] [FixSender] (DEBUG) Receiving 8=FIX.4.4|9=62|35=0|34=150|49=DMA_HUB|56=FIXCLIENT1|52=20231218-11:58:18.012|10=030|
2023-12-18 12:58:29.849 [39] [FixSender] (DEBUG) Sending 8=FIX.4.4|9=58|35=0|49=FIXCLIENT1|56=DMA_HUB|34=148|52=20231218-11:58:29|10=107|
2023-12-18 12:58:47.960 [38] [FixSender] (DEBUG) Receiving 8=FIX.4.4|9=62|35=0|34=151|49=DMA_HUB|56=FIXCLIENT1|52=20231218-11:58:47.960|10=045|
2023-12-18 12:58:59.850 [39] [FixSender] (DEBUG) Sending 8=FIX.4.4|9=58|35=0|49=FIXCLIENT1|56=DMA_HUB|34=149|52=20231218-11:58:59|10=111|
2023-12-18 12:59:17.912 [38] [FixSender] (DEBUG) Receiving 8=FIX.4.4|9=62|35=0|34=152|49=DMA_HUB|56=FIXCLIENT1|52=20231218-11:59:17.912|10=041|
2023-12-18 12:59:29.851 [39] [FixSender] (DEBUG) Sending 8=FIX.4.4|9=58|35=0|49=FIXCLIENT1|56=DMA_HUB|34=150|52=20231218-11:59:29|10=101|
2023-12-18 12:59:47.869 [38] [FixSender] (DEBUG) Receiving 8=FIX.4.4|9=62|35=0|34=153|49=DMA_HUB|56=FIXCLIENT1|52=20231218-11:59:47.869|10=056|
2023-12-18 12:59:59.853 [39] [FixSender] (DEBUG) Sending 8=FIX.4.4|9=58|35=0|49=FIXCLIENT1|56=DMA_HUB|34=151|52=20231218-11:59:59|10=105|
2023-12-18 13:00:17.816 [38] [FixSender] (DEBUG) Receiving 8=FIX.4.4|9=62|35=0|34=154|49=DMA_HUB|56=FIXCLIENT1|52=20231218-12:00:17.816|10=033|
2023-12-18 13:00:29.854 [39] [FixSender] (DEBUG) Sending 8=FIX.4.4|9=58|35=0|49=FIXCLIENT1|56=DMA_HUB|34=152|52=20231218-12:00:29|10=090|
2023-12-18 13:00:47.762 [38] [FixSender] (DEBUG) Receiving 8=FIX.4.4|9=62|35=0|34=155|49=DMA_HUB|56=FIXCLIENT1|52=20231218-12:00:47.762|10=037|
2023-12-18 13:00:59.857 [39] [FixSender] (DEBUG) Sending 8=FIX.4.4|9=58|35=0|49=FIXCLIENT1|56=DMA_HUB|34=153|52=20231218-12:00:59|10=094|
2023-12-18 13:01:17.727 [38] [FixSender] (DEBUG) Receiving 8=FIX.4.4|9=62|35=0|34=156|49=DMA_HUB|56=FIXCLIENT1|52=20231218-12:01:17.727|10=037|
2023-12-18 13:01:29.858 [39] [FixSender] (DEBUG) Sending 8=FIX.4.4|9=58|35=0|49=FIXCLIENT1|56=DMA_HUB|34=154|52=20231218-12:01:29|10=093|
2023-12-18 13:01:47.667 [38] [FixSender] (DEBUG) Receiving 8=FIX.4.4|9=62|35=0|34=157|49=DMA_HUB|56=FIXCLIENT1|52=20231218-12:01:47.666|10=043|
2023-12-18 13:01:59.859 [39] [FixSender] (DEBUG) Sending 8=FIX.4.4|9=58|35=0|49=FIXCLIENT1|56=DMA_HUB|34=155|52=20231218-12:01:59|10=097|
2023-12-18 13:02:17.618 [38] [FixSender] (DEBUG) Receiving 8=FIX.4.4|9=62|35=0|34=158|49=DMA_HUB|56=FIXCLIENT1|52=20231218-12:02:17.618|10=039|
2023-12-18 13:02:29.860 [39] [FixSender] (DEBUG) Sending 8=FIX.4.4|9=58|35=0|49=FIXCLIENT1|56=DMA_HUB|34=156|52=20231218-12:02:29|10=096|
2023-12-18 13:02:47.570 [38] [FixSender] (DEBUG) Receiving 8=FIX.4.4|9=62|35=0|34=159|49=DMA_HUB|56=FIXCLIENT1|52=20231218-12:02:47.569|10=048|
2023-12-18 13:02:59.862 [39] [FixSender] (DEBUG) Sending 8=FIX.4.4|9=58|35=0|49=FIXCLIENT1|56=DMA_HUB|34=157|52=20231218-12:02:59|10=100|
2023-12-18 13:03:17.527 [38] [FixSender] (DEBUG) Receiving 8=FIX.4.4|9=62|35=0|34=160|49=DMA_HUB|56=FIXCLIENT1|52=20231218-12:03:17.527|10=032|
2023-12-18 13:03:29.867 [39] [FixSender] (DEBUG) Sending 8=FIX.4.4|9=58|35=0|49=FIXCLIENT1|56=DMA_HUB|34=158|52=20231218-12:03:29|10=099|
2023-12-18 13:03:47.478 [38] [FixSender] (DEBUG) Receiving 8=FIX.4.4|9=62|35=0|34=161|49=DMA_HUB|56=FIXCLIENT1|52=20231218-12:03:47.477|10=040|
2023-12-18 13:03:59.874 [39] [FixSender] (DEBUG) Sending 8=FIX.4.4|9=58|35=0|49=FIXCLIENT1|56=DMA_HUB|34=159|52=20231218-12:03:59|10=103|
2023-12-18 13:04:17.427 [38] [FixSender] (DEBUG) Receiving 8=FIX.4.4|9=62|35=0|34=162|49=DMA_HUB|56=FIXCLIENT1|52=20231218-12:04:17.427|10=034|
2023-12-18 13:04:29.876 [39] [FixSender] (DEBUG) Sending 8=FIX.4.4|9=58|35=0|49=FIXCLIENT1|56=DMA_HUB|34=160|52=20231218-12:04:29|10=093|
2023-12-18 13:04:47.378 [38] [FixSender] (DEBUG) Receiving 8=FIX.4.4|9=62|35=0|34=163|49=DMA_HUB|56=FIXCLIENT1|52=20231218-12:04:47.378|10=043|
2023-12-18 13:04:59.877 [39] [FixSender] (DEBUG) Sending 8=FIX.4.4|9=58|35=0|49=FIXCLIENT1|56=DMA_HUB|34=161|52=20231218-12:04:59|10=097|
2023-12-18 13:05:17.334 [38] [FixSender] (DEBUG) Receiving 8=FIX.4.4|9=62|35=0|34=164|49=DMA_HUB|56=FIXCLIENT1|52=20231218-12:05:17.334|10=034|
2023-12-18 13:05:29.883 [39] [FixSender] (DEBUG) Sending 8=FIX.4.4|9=58|35=0|49=FIXCLIENT1|56=DMA_HUB|34=162|52=20231218-12:05:29|10=096|
2023-12-18 13:05:47.287 [38] [FixSender] (DEBUG) Receiving 8=FIX.4.4|9=62|35=0|34=165|49=DMA_HUB|56=FIXCLIENT1|52=20231218-12:05:47.287|10=045|
2023-12-18 13:05:59.884 [39] [FixSender] (DEBUG) Sending 8=FIX.4.4|9=58|35=0|49=FIXCLIENT1|56=DMA_HUB|34=163|52=20231218-12:05:59|10=100|
2023-12-18 13:06:17.239 [38] [FixSender] (DEBUG) Receiving 8=FIX.4.4|9=62|35=0|34=166|49=DMA_HUB|56=FIXCLIENT1|52=20231218-12:06:17.239|10=041|
2023-12-18 13:06:29.888 [39] [FixSender] (DEBUG) Sending 8=FIX.4.4|9=58|35=0|49=FIXCLIENT1|56=DMA_HUB|34=164|52=20231218-12:06:29|10=099|
2023-12-18 13:06:47.185 [38] [FixSender] (DEBUG) Receiving 8=FIX.4.4|9=62|35=0|34=167|49=DMA_HUB|56=FIXCLIENT1|52=20231218-12:06:47.185|10=045|
2023-12-18 13:06:59.890 [39] [FixSender] (DEBUG) Sending 8=FIX.4.4|9=58|35=0|49=FIXCLIENT1|56=DMA_HUB|34=165|52=20231218-12:06:59|10=103|
2023-12-18 13:07:17.140 [38] [FixSender] (DEBUG) Receiving 8=FIX.4.4|9=62|35=0|34=168|49=DMA_HUB|56=FIXCLIENT1|52=20231218-12:07:17.140|10=035|
2023-12-18 13:07:29.892 [39] [FixSender] (DEBUG) Sending 8=FIX.4.4|9=58|35=0|49=FIXCLIENT1|56=DMA_HUB|34=166|52=20231218-12:07:29|10=102|
2023-12-18 13:07:47.094 [38] [FixSender] (DEBUG) Receiving 8=FIX.4.4|9=62|35=0|34=169|49=DMA_HUB|56=FIXCLIENT1|52=20231218-12:07:47.094|10=047|
2023-12-18 13:07:59.893 [39] [FixSender] (DEBUG) Sending 8=FIX.4.4|9=58|35=0|49=FIXCLIENT1|56=DMA_HUB|34=167|52=20231218-12:07:59|10=106|
2023-12-18 13:08:17.050 [38] [FixSender] (DEBUG) Receiving 8=FIX.4.4|9=62|35=0|34=170|49=DMA_HUB|56=FIXCLIENT1|52=20231218-12:08:17.050|10=029|
2023-12-18 13:08:29.896 [39] [FixSender] (DEBUG) Sending 8=FIX.4.4|9=58|35=0|49=FIXCLIENT1|56=DMA_HUB|34=168|52=20231218-12:08:29|10=105|
2023-12-18 13:08:47.008 [38] [FixSender] (DEBUG) Receiving 8=FIX.4.4|9=62|35=0|34=171|49=DMA_HUB|56=FIXCLIENT1|52=20231218-12:08:47.008|10=036|
2023-12-18 13:08:59.897 [39] [FixSender] (DEBUG) Sending 8=FIX.4.4|9=58|35=0|49=FIXCLIENT1|56=DMA_HUB|34=169|52=20231218-12:08:59|10=109|
2023-12-18 13:09:16.951 [38] [FixSender] (DEBUG) Receiving 8=FIX.4.4|9=62|35=0|34=172|49=DMA_HUB|56=FIXCLIENT1|52=20231218-12:09:16.951|10=041|
2023-12-18 13:09:29.899 [39] [FixSender] (DEBUG) Sending 8=FIX.4.4|9=58|35=0|49=FIXCLIENT1|56=DMA_HUB|34=170|52=20231218-12:09:29|10=099|
2023-12-18 13:09:46.906 [38] [FixSender] (DEBUG) Receiving 8=FIX.4.4|9=62|35=0|34=173|49=DMA_HUB|56=FIXCLIENT1|52=20231218-12:09:46.905|10=044|
2023-12-18 13:09:59.901 [39] [FixSender] (DEBUG) Sending 8=FIX.4.4|9=58|35=0|49=FIXCLIENT1|56=DMA_HUB|34=171|52=20231218-12:09:59|10=103|
2023-12-18 13:10:16.860 [38] [FixSender] (DEBUG) Receiving 8=FIX.4.4|9=62|35=0|34=174|49=DMA_HUB|56=FIXCLIENT1|52=20231218-12:10:16.860|10=034|
2023-12-18 13:10:29.904 [39] [FixSender] (DEBUG) Sending 8=FIX.4.4|9=58|35=0|49=FIXCLIENT1|56=DMA_HUB|34=172|52=20231218-12:10:29|10=093|
2023-12-18 13:10:46.811 [38] [FixSender] (DEBUG) Receiving 8=FIX.4.4|9=62|35=0|34=175|49=DMA_HUB|56=FIXCLIENT1|52=20231218-12:10:46.810|10=033|
2023-12-18 13:10:59.906 [39] [FixSender] (DEBUG) Sending 8=FIX.4.4|9=58|35=0|49=FIXCLIENT1|56=DMA_HUB|34=173|52=20231218-12:10:59|10=097|
2023-12-18 13:11:16.754 [38] [FixSender] (DEBUG) Receiving 8=FIX.4.4|9=62|35=0|34=176|49=DMA_HUB|56=FIXCLIENT1|52=20231218-12:11:16.754|10=039|
2023-12-18 13:11:29.908 [39] [FixSender] (DEBUG) Sending 8=FIX.4.4|9=58|35=0|49=FIXCLIENT1|56=DMA_HUB|34=174|52=20231218-12:11:29|10=096|
2023-12-18 13:11:46.715 [38] [FixSender] (DEBUG) Receiving 8=FIX.4.4|9=62|35=0|34=177|49=DMA_HUB|56=FIXCLIENT1|52=20231218-12:11:46.715|10=040|
2023-12-18 13:11:59.910 [39] [FixSender] (DEBUG) Sending 8=FIX.4.4|9=58|35=0|49=FIXCLIENT1|56=DMA_HUB|34=175|52=20231218-12:11:59|10=100|
2023-12-18 13:12:16.670 [38] [FixSender] (DEBUG) Receiving 8=FIX.4.4|9=62|35=0|34=178|49=DMA_HUB|56=FIXCLIENT1|52=20231218-12:12:16.670|10=039|
2023-12-18 13:12:29.911 [39] [FixSender] (DEBUG) Sending 8=FIX.4.4|9=58|35=0|49=FIXCLIENT1|56=DMA_HUB|34=176|52=20231218-12:12:29|10=099|
2023-12-18 13:12:46.609 [38] [FixSender] (DEBUG) Receiving 8=FIX.4.4|9=62|35=0|34=179|49=DMA_HUB|56=FIXCLIENT1|52=20231218-12:12:46.609|10=045|
2023-12-18 13:12:59.912 [39] [FixSender] (DEBUG) Sending 8=FIX.4.4|9=58|35=0|49=FIXCLIENT1|56=DMA_HUB|34=177|52=20231218-12:12:59|10=103|
2023-12-18 13:13:16.575 [38] [FixSender] (DEBUG) Receiving 8=FIX.4.4|9=62|35=0|34=180|49=DMA_HUB|56=FIXCLIENT1|52=20231218-12:13:16.575|10=037|
2023-12-18 13:13:29.913 [39] [FixSender] (DEBUG) Sending 8=FIX.4.4|9=58|35=0|49=FIXCLIENT1|56=DMA_HUB|34=178|52=20231218-12:13:29|10=102|
2023-12-18 13:13:46.523 [38] [FixSender] (DEBUG) Receiving 8=FIX.4.4|9=62|35=0|34=181|49=DMA_HUB|56=FIXCLIENT1|52=20231218-12:13:46.523|10=034|
2023-12-18 13:13:59.916 [39] [FixSender] (DEBUG) Sending 8=FIX.4.4|9=58|35=0|49=FIXCLIENT1|56=DMA_HUB|34=179|52=20231218-12:13:59|10=106|
2023-12-18 13:14:16.471 [38] [FixSender] (DEBUG) Receiving 8=FIX.4.4|9=62|35=0|34=182|49=DMA_HUB|56=FIXCLIENT1|52=20231218-12:14:16.470|10=034|
2023-12-18 13:14:29.917 [39] [FixSender] (DEBUG) Sending 8=FIX.4.4|9=58|35=0|49=FIXCLIENT1|56=DMA_HUB|34=180|52=20231218-12:14:29|10=096|
2023-12-18 13:14:46.425 [38] [FixSender] (DEBUG) Receiving 8=FIX.4.4|9=62|35=0|34=183|49=DMA_HUB|56=FIXCLIENT1|52=20231218-12:14:46.425|10=038|
2023-12-18 13:14:59.918 [39] [FixSender] (DEBUG) Sending 8=FIX.4.4|9=58|35=0|49=FIXCLIENT1|56=DMA_HUB|34=181|52=20231218-12:14:59|10=100|
2023-12-18 13:15:16.374 [38] [FixSender] (DEBUG) Receiving 8=FIX.4.4|9=62|35=0|34=184|49=DMA_HUB|56=FIXCLIENT1|52=20231218-12:15:16.374|10=040|
2023-12-18 13:15:29.920 [39] [FixSender] (DEBUG) Sending 8=FIX.4.4|9=58|35=0|49=FIXCLIENT1|56=DMA_HUB|34=182|52=20231218-12:15:29|10=099|
2023-12-18 13:15:46.328 [38] [FixSender] (DEBUG) Receiving 8=FIX.4.4|9=62|35=0|34=185|49=DMA_HUB|56=FIXCLIENT1|52=20231218-12:15:46.328|10=043|
2023-12-18 13:15:59.923 [39] [FixSender] (DEBUG) Sending 8=FIX.4.4|9=58|35=0|49=FIXCLIENT1|56=DMA_HUB|34=183|52=20231218-12:15:59|10=103|
2023-12-18 13:16:16.288 [38] [FixSender] (DEBUG) Receiving 8=FIX.4.4|9=62|35=0|34=186|49=DMA_HUB|56=FIXCLIENT1|52=20231218-12:16:16.287|10=046|
2023-12-18 13:16:29.927 [39] [FixSender] (DEBUG) Sending 8=FIX.4.4|9=58|35=0|49=FIXCLIENT1|56=DMA_HUB|34=184|52=20231218-12:16:29|10=102|
2023-12-18 13:16:46.238 [38] [FixSender] (DEBUG) Receiving 8=FIX.4.4|9=62|35=0|34=187|49=DMA_HUB|56=FIXCLIENT1|52=20231218-12:16:46.238|10=046|
2023-12-18 13:16:59.929 [39] [FixSender] (DEBUG) Sending 8=FIX.4.4|9=58|35=0|49=FIXCLIENT1|56=DMA_HUB|34=185|52=20231218-12:16:59|10=106|
2023-12-18 13:17:16.182 [38] [FixSender] (DEBUG) Receiving 8=FIX.4.4|9=62|35=0|34=188|49=DMA_HUB|56=FIXCLIENT1|52=20231218-12:17:16.182|10=043|
2023-12-18 13:17:29.934 [39] [FixSender] (DEBUG) Sending 8=FIX.4.4|9=58|35=0|49=FIXCLIENT1|56=DMA_HUB|34=186|52=20231218-12:17:29|10=105|
2023-12-18 13:17:46.138 [38] [FixSender] (DEBUG) Receiving 8=FIX.4.4|9=62|35=0|34=189|49=DMA_HUB|56=FIXCLIENT1|52=20231218-12:17:46.138|10=048|
2023-12-18 13:17:59.935 [39] [FixSender] (DEBUG) Sending 8=FIX.4.4|9=58|35=0|49=FIXCLIENT1|56=DMA_HUB|34=187|52=20231218-12:17:59|10=109|
2023-12-18 13:18:16.084 [38] [FixSender] (DEBUG) Receiving 8=FIX.4.4|9=62|35=0|34=190|49=DMA_HUB|56=FIXCLIENT1|52=20231218-12:18:16.083|10=037|
2023-12-18 13:18:29.937 [39] [FixSender] (DEBUG) Sending 8=FIX.4.4|9=58|35=0|49=FIXCLIENT1|56=DMA_HUB|34=188|52=20231218-12:18:29|10=108|
2023-12-18 13:18:46.046 [38] [FixSender] (DEBUG) Receiving 8=FIX.4.4|9=62|35=0|34=191|49=DMA_HUB|56=FIXCLIENT1|52=20231218-12:18:46.046|10=040|
2023-12-18 13:18:59.938 [39] [FixSender] (DEBUG) Sending 8=FIX.4.4|9=58|35=0|49=FIXCLIENT1|56=DMA_HUB|34=189|52=20231218-12:18:59|10=112|
2023-12-18 13:19:15.994 [38] [FixSender] (DEBUG) Receiving 8=FIX.4.4|9=62|35=0|34=192|49=DMA_HUB|56=FIXCLIENT1|52=20231218-12:19:15.993|10=049|
2023-12-18 13:19:29.940 [39] [FixSender] (DEBUG) Sending 8=FIX.4.4|9=58|35=0|49=FIXCLIENT1|56=DMA_HUB|34=190|52=20231218-12:19:29|10=102|
2023-12-18 13:19:45.945 [38] [FixSender] (DEBUG) Receiving 8=FIX.4.4|9=62|35=0|34=193|49=DMA_HUB|56=FIXCLIENT1|52=20231218-12:19:45.945|10=050|
2023-12-18 13:19:59.941 [39] [FixSender] (DEBUG) Sending 8=FIX.4.4|9=58|35=0|49=FIXCLIENT1|56=DMA_HUB|34=191|52=20231218-12:19:59|10=106|
2023-12-18 13:20:15.891 [38] [FixSender] (DEBUG) Receiving 8=FIX.4.4|9=62|35=0|34=194|49=DMA_HUB|56=FIXCLIENT1|52=20231218-12:20:15.891|10=040|
2023-12-18 13:20:29.942 [39] [FixSender] (DEBUG) Sending 8=FIX.4.4|9=58|35=0|49=FIXCLIENT1|56=DMA_HUB|34=192|52=20231218-12:20:29|10=096|
2023-12-18 13:20:45.855 [38] [FixSender] (DEBUG) Receiving 8=FIX.4.4|9=62|35=0|34=195|49=DMA_HUB|56=FIXCLIENT1|52=20231218-12:20:45.855|10=044|
2023-12-18 13:20:59.944 [39] [FixSender] (DEBUG) Sending 8=FIX.4.4|9=58|35=0|49=FIXCLIENT1|56=DMA_HUB|34=193|52=20231218-12:20:59|10=100|
2023-12-18 13:21:15.795 [38] [FixSender] (DEBUG) Receiving 8=FIX.4.4|9=62|35=0|34=196|49=DMA_HUB|56=FIXCLIENT1|52=20231218-12:21:15.795|10=046|
2023-12-18 13:21:29.947 [39] [FixSender] (DEBUG) Sending 8=FIX.4.4|9=58|35=0|49=FIXCLIENT1|56=DMA_HUB|34=194|52=20231218-12:21:29|10=099|
2023-12-18 13:21:45.748 [38] [FixSender] (DEBUG) Receiving 8=FIX.4.4|9=62|35=0|34=197|49=DMA_HUB|56=FIXCLIENT1|52=20231218-12:21:45.748|10=048|
2023-12-18 13:21:59.948 [39] [FixSender] (DEBUG) Sending 8=FIX.4.4|9=58|35=0|49=FIXCLIENT1|56=DMA_HUB|34=195|52=20231218-12:21:59|10=103|
2023-12-18 13:22:15.711 [38] [FixSender] (DEBUG) Receiving 8=FIX.4.4|9=62|35=0|34=198|49=DMA_HUB|56=FIXCLIENT1|52=20231218-12:22:15.710|10=036|
2023-12-18 13:22:29.949 [39] [FixSender] (DEBUG) Sending 8=FIX.4.4|9=58|35=0|49=FIXCLIENT1|56=DMA_HUB|34=196|52=20231218-12:22:29|10=102|
2023-12-18 13:22:45.662 [38] [FixSender] (DEBUG) Receiving 8=FIX.4.4|9=62|35=0|34=199|49=DMA_HUB|56=FIXCLIENT1|52=20231218-12:22:45.662|10=046|
2023-12-18 13:22:59.950 [39] [FixSender] (DEBUG) Sending 8=FIX.4.4|9=58|35=0|49=FIXCLIENT1|56=DMA_HUB|34=197|52=20231218-12:22:59|10=106|
2023-12-18 13:23:15.611 [38] [FixSender] (DEBUG) Receiving 8=FIX.4.4|9=62|35=0|34=200|49=DMA_HUB|56=FIXCLIENT1|52=20231218-12:23:15.610|10=020|
2023-12-18 13:23:29.962 [39] [FixSender] (DEBUG) Sending 8=FIX.4.4|9=58|35=0|49=FIXCLIENT1|56=DMA_HUB|34=198|52=20231218-12:23:29|10=105|
2023-12-18 13:23:45.554 [38] [FixSender] (DEBUG) Receiving 8=FIX.4.4|9=62|35=0|34=201|49=DMA_HUB|56=FIXCLIENT1|52=20231218-12:23:45.554|10=031|
2023-12-18 13:23:59.975 [39] [FixSender] (DEBUG) Sending 8=FIX.4.4|9=58|35=0|49=FIXCLIENT1|56=DMA_HUB|34=199|52=20231218-12:23:59|10=109|
2023-12-18 13:24:15.507 [38] [FixSender] (DEBUG) Receiving 8=FIX.4.4|9=62|35=0|34=202|49=DMA_HUB|56=FIXCLIENT1|52=20231218-12:24:15.507|10=028|
2023-12-18 13:24:29.977 [39] [FixSender] (DEBUG) Sending 8=FIX.4.4|9=58|35=0|49=FIXCLIENT1|56=DMA_HUB|34=200|52=20231218-12:24:29|10=090|
2023-12-18 13:24:45.470 [38] [FixSender] (DEBUG) Receiving 8=FIX.4.4|9=62|35=0|34=203|49=DMA_HUB|56=FIXCLIENT1|52=20231218-12:24:45.470|10=031|
2023-12-18 13:24:59.979 [39] [FixSender] (DEBUG) Sending 8=FIX.4.4|9=58|35=0|49=FIXCLIENT1|56=DMA_HUB|34=201|52=20231218-12:24:59|10=094|
2023-12-18 13:25:15.415 [38] [FixSender] (DEBUG) Receiving 8=FIX.4.4|9=62|35=0|34=204|49=DMA_HUB|56=FIXCLIENT1|52=20231218-12:25:15.415|10=029|
2023-12-18 13:25:29.981 [39] [FixSender] (DEBUG) Sending 8=FIX.4.4|9=58|35=0|49=FIXCLIENT1|56=DMA_HUB|34=202|52=20231218-12:25:29|10=093|
2023-12-18 13:25:45.367 [38] [FixSender] (DEBUG) Receiving 8=FIX.4.4|9=62|35=0|34=205|49=DMA_HUB|56=FIXCLIENT1|52=20231218-12:25:45.367|10=039|
2023-12-18 13:25:59.983 [39] [FixSender] (DEBUG) Sending 8=FIX.4.4|9=58|35=0|49=FIXCLIENT1|56=DMA_HUB|34=203|52=20231218-12:25:59|10=097|
2023-12-18 13:26:15.320 [38] [FixSender] (DEBUG) Receiving 8=FIX.4.4|9=62|35=0|34=206|49=DMA_HUB|56=FIXCLIENT1|52=20231218-12:26:15.320|10=027|
2023-12-18 13:26:29.986 [39] [FixSender] (DEBUG) Sending 8=FIX.4.4|9=58|35=0|49=FIXCLIENT1|56=DMA_HUB|34=204|52=20231218-12:26:29|10=096|
2023-12-18 13:26:45.268 [38] [FixSender] (DEBUG) Receiving 8=FIX.4.4|9=62|35=0|34=207|49=DMA_HUB|56=FIXCLIENT1|52=20231218-12:26:45.268|10=042|
2023-12-18 13:26:59.989 [39] [FixSender] (DEBUG) Sending 8=FIX.4.4|9=58|35=0|49=FIXCLIENT1|56=DMA_HUB|34=205|52=20231218-12:26:59|10=100|
2023-12-18 13:27:15.230 [38] [FixSender] (DEBUG) Receiving 8=FIX.4.4|9=62|35=0|34=208|49=DMA_HUB|56=FIXCLIENT1|52=20231218-12:27:15.229|10=038|
2023-12-18 13:27:29.990 [39] [FixSender] (DEBUG) Sending 8=FIX.4.4|9=58|35=0|49=FIXCLIENT1|56=DMA_HUB|34=206|52=20231218-12:27:29|10=099|
2023-12-18 13:27:45.177 [38] [FixSender] (DEBUG) Receiving 8=FIX.4.4|9=62|35=0|34=209|49=DMA_HUB|56=FIXCLIENT1|52=20231218-12:27:45.177|10=044|
2023-12-18 13:28:00.002 [39] [FixSender] (DEBUG) Sending 8=FIX.4.4|9=58|35=0|49=FIXCLIENT1|56=DMA_HUB|34=207|52=20231218-12:28:00|10=090|
2023-12-18 13:28:15.127 [38] [FixSender] (DEBUG) Receiving 8=FIX.4.4|9=62|35=0|34=210|49=DMA_HUB|56=FIXCLIENT1|52=20231218-12:28:15.126|10=028|
2023-12-18 13:28:30.003 [39] [FixSender] (DEBUG) Sending 8=FIX.4.4|9=58|35=0|49=FIXCLIENT1|56=DMA_HUB|34=208|52=20231218-12:28:30|10=094|
2023-12-18 13:28:45.077 [38] [FixSender] (DEBUG) Receiving 8=FIX.4.4|9=62|35=0|34=211|49=DMA_HUB|56=FIXCLIENT1|52=20231218-12:28:45.074|10=034|
2023-12-18 13:29:00.005 [39] [FixSender] (DEBUG) Sending 8=FIX.4.4|9=58|35=0|49=FIXCLIENT1|56=DMA_HUB|34=209|52=20231218-12:29:00|10=093|
2023-12-18 13:29:15.039 [38] [FixSender] (DEBUG) Receiving 8=FIX.4.4|9=62|35=0|34=212|49=DMA_HUB|56=FIXCLIENT1|52=20231218-12:29:15.038|10=033|
2023-12-18 13:29:30.007 [39] [FixSender] (DEBUG) Sending 8=FIX.4.4|9=58|35=0|49=FIXCLIENT1|56=DMA_HUB|34=210|52=20231218-12:29:30|10=088|
2023-12-18 13:29:44.980 [38] [FixSender] (DEBUG) Receiving 8=FIX.4.4|9=62|35=0|34=213|49=DMA_HUB|56=FIXCLIENT1|52=20231218-12:29:44.980|10=042|
2023-12-18 13:30:00.010 [39] [FixSender] (DEBUG) Sending 8=FIX.4.4|9=58|35=0|49=FIXCLIENT1|56=DMA_HUB|34=211|52=20231218-12:30:00|10=078|
2023-12-18 13:30:14.931 [38] [FixSender] (DEBUG) Receiving 8=FIX.4.4|9=62|35=0|34=214|49=DMA_HUB|56=FIXCLIENT1|52=20231218-12:30:14.930|10=027|
2023-12-18 13:30:30.021 [39] [FixSender] (DEBUG) Sending 8=FIX.4.4|9=58|35=0|49=FIXCLIENT1|56=DMA_HUB|34=212|52=20231218-12:30:30|10=082|
2023-12-18 13:30:44.886 [38] [FixSender] (DEBUG) Receiving 8=FIX.4.4|9=62|35=0|34=215|49=DMA_HUB|56=FIXCLIENT1|52=20231218-12:30:44.886|10=041|
2023-12-18 13:31:00.023 [39] [FixSender] (DEBUG) Sending 8=FIX.4.4|9=58|35=0|49=FIXCLIENT1|56=DMA_HUB|34=213|52=20231218-12:31:00|10=081|
2023-12-18 13:31:14.837 [38] [FixSender] (DEBUG) Receiving 8=FIX.4.4|9=62|35=0|34=216|49=DMA_HUB|56=FIXCLIENT1|52=20231218-12:31:14.836|10=035|
2023-12-18 13:31:30.025 [39] [FixSender] (DEBUG) Sending 8=FIX.4.4|9=58|35=0|49=FIXCLIENT1|56=DMA_HUB|34=214|52=20231218-12:31:30|10=085|
2023-12-18 13:31:44.790 [38] [FixSender] (DEBUG) Receiving 8=FIX.4.4|9=62|35=0|34=217|49=DMA_HUB|56=FIXCLIENT1|52=20231218-12:31:44.790|10=038|
2023-12-18 13:32:00.029 [39] [FixSender] (DEBUG) Sending 8=FIX.4.4|9=58|35=0|49=FIXCLIENT1|56=DMA_HUB|34=215|52=20231218-12:32:00|10=084|
2023-12-18 13:32:14.745 [38] [FixSender] (DEBUG) Receiving 8=FIX.4.4|9=62|35=0|34=218|49=DMA_HUB|56=FIXCLIENT1|52=20231218-12:32:14.745|10=037|
2023-12-18 13:32:30.030 [39] [FixSender] (DEBUG) Sending 8=FIX.4.4|9=58|35=0|49=FIXCLIENT1|56=DMA_HUB|34=216|52=20231218-12:32:30|10=088|
2023-12-18 13:32:44.701 [38] [FixSender] (DEBUG) Receiving 8=FIX.4.4|9=62|35=0|34=219|49=DMA_HUB|56=FIXCLIENT1|52=20231218-12:32:44.701|10=033|
2023-12-18 13:33:00.033 [39] [FixSender] (DEBUG) Sending 8=FIX.4.4|9=58|35=0|49=FIXCLIENT1|56=DMA_HUB|34=217|52=20231218-12:33:00|10=087|
2023-12-18 13:33:14.642 [38] [FixSender] (DEBUG) Receiving 8=FIX.4.4|9=62|35=0|34=220|49=DMA_HUB|56=FIXCLIENT1|52=20231218-12:33:14.642|10=027|
2023-12-18 13:33:30.033 [39] [FixSender] (DEBUG) Sending 8=FIX.4.4|9=58|35=0|49=FIXCLIENT1|56=DMA_HUB|34=218|52=20231218-12:33:30|10=091|
2023-12-18 13:33:44.594 [38] [FixSender] (DEBUG) Receiving 8=FIX.4.4|9=62|35=0|34=221|49=DMA_HUB|56=FIXCLIENT1|52=20231218-12:33:44.594|10=037|
2023-12-18 13:34:00.035 [39] [FixSender] (DEBUG) Sending 8=FIX.4.4|9=58|35=0|49=FIXCLIENT1|56=DMA_HUB|34=219|52=20231218-12:34:00|10=090|
2023-12-18 13:34:14.546 [38] [FixSender] (DEBUG) Receiving 8=FIX.4.4|9=62|35=0|34=222|49=DMA_HUB|56=FIXCLIENT1|52=20231218-12:34:14.545|10=032|
2023-12-18 13:34:30.037 [39] [FixSender] (DEBUG) Sending 8=FIX.4.4|9=58|35=0|49=FIXCLIENT1|56=DMA_HUB|34=220|52=20231218-12:34:30|10=085|
2023-12-18 13:34:44.498 [38] [FixSender] (DEBUG) Receiving 8=FIX.4.4|9=62|35=0|34=223|49=DMA_HUB|56=FIXCLIENT1|52=20231218-12:34:44.498|10=043|
2023-12-18 13:35:00.038 [39] [FixSender] (DEBUG) Sending 8=FIX.4.4|9=58|35=0|49=FIXCLIENT1|56=DMA_HUB|34=221|52=20231218-12:35:00|10=084|
2023-12-18 13:35:14.450 [38] [FixSender] (DEBUG) Receiving 8=FIX.4.4|9=62|35=0|34=224|49=DMA_HUB|56=FIXCLIENT1|52=20231218-12:35:14.450|10=030|
2023-12-18 13:35:30.039 [39] [FixSender] (DEBUG) Sending 8=FIX.4.4|9=58|35=0|49=FIXCLIENT1|56=DMA_HUB|34=222|52=20231218-12:35:30|10=088|
2023-12-18 13:35:44.402 [38] [FixSender] (DEBUG) Receiving 8=FIX.4.4|9=62|35=0|34=225|49=DMA_HUB|56=FIXCLIENT1|52=20231218-12:35:44.401|10=030|
2023-12-18 13:36:00.042 [39] [FixSender] (DEBUG) Sending 8=FIX.4.4|9=58|35=0|49=FIXCLIENT1|56=DMA_HUB|34=223|52=20231218-12:36:00|10=087|
2023-12-18 13:36:14.353 [38] [FixSender] (DEBUG) Receiving 8=FIX.4.4|9=62|35=0|34=226|49=DMA_HUB|56=FIXCLIENT1|52=20231218-12:36:14.353|10=035|
2023-12-18 13:36:30.042 [39] [FixSender] (DEBUG) Sending 8=FIX.4.4|9=58|35=0|49=FIXCLIENT1|56=DMA_HUB|34=224|52=20231218-12:36:30|10=091|
2023-12-18 13:36:44.306 [38] [FixSender] (DEBUG) Receiving 8=FIX.4.4|9=62|35=0|34=227|49=DMA_HUB|56=FIXCLIENT1|52=20231218-12:36:44.306|10=037|
2023-12-18 13:37:00.045 [39] [FixSender] (DEBUG) Sending 8=FIX.4.4|9=58|35=0|49=FIXCLIENT1|56=DMA_HUB|34=225|52=20231218-12:37:00|10=090|
2023-12-18 13:37:14.258 [38] [FixSender] (DEBUG) Receiving 8=FIX.4.4|9=62|35=0|34=228|49=DMA_HUB|56=FIXCLIENT1|52=20231218-12:37:14.258|10=042|
2023-12-18 13:37:30.046 [39] [FixSender] (DEBUG) Sending 8=FIX.4.4|9=58|35=0|49=FIXCLIENT1|56=DMA_HUB|34=226|52=20231218-12:37:30|10=094|
2023-12-18 13:37:44.209 [38] [FixSender] (DEBUG) Receiving 8=FIX.4.4|9=62|35=0|34=229|49=DMA_HUB|56=FIXCLIENT1|52=20231218-12:37:44.209|10=042|
2023-12-18 13:38:00.048 [39] [FixSender] (DEBUG) Sending 8=FIX.4.4|9=58|35=0|49=FIXCLIENT1|56=DMA_HUB|34=227|52=20231218-12:38:00|10=093|
2023-12-18 13:38:14.162 [38] [FixSender] (DEBUG) Receiving 8=FIX.4.4|9=62|35=0|34=230|49=DMA_HUB|56=FIXCLIENT1|52=20231218-12:38:14.162|10=030|
2023-12-18 13:38:30.051 [39] [FixSender] (DEBUG) Sending 8=FIX.4.4|9=58|35=0|49=FIXCLIENT1|56=DMA_HUB|34=228|52=20231218-12:38:30|10=097|
2023-12-18 13:38:44.113 [38] [FixSender] (DEBUG) Receiving 8=FIX.4.4|9=62|35=0|34=231|49=DMA_HUB|56=FIXCLIENT1|52=20231218-12:38:44.113|10=030|
2023-12-18 13:39:00.051 [39] [FixSender] (DEBUG) Sending 8=FIX.4.4|9=58|35=0|49=FIXCLIENT1|56=DMA_HUB|34=229|52=20231218-12:39:00|10=096|
2023-12-18 13:39:14.066 [38] [FixSender] (DEBUG) Receiving 8=FIX.4.4|9=62|35=0|34=232|49=DMA_HUB|56=FIXCLIENT1|52=20231218-12:39:14.066|10=036|
2023-12-18 13:39:30.055 [39] [FixSender] (DEBUG) Sending 8=FIX.4.4|9=58|35=0|49=FIXCLIENT1|56=DMA_HUB|34=230|52=20231218-12:39:30|10=091|
2023-12-18 13:39:44.017 [38] [FixSender] (DEBUG) Receiving 8=FIX.4.4|9=62|35=0|34=233|49=DMA_HUB|56=FIXCLIENT1|52=20231218-12:39:44.017|10=036|
2023-12-18 13:40:00.057 [39] [FixSender] (DEBUG) Sending 8=FIX.4.4|9=58|35=0|49=FIXCLIENT1|56=DMA_HUB|34=231|52=20231218-12:40:00|10=081|
2023-12-18 13:40:13.969 [38] [FixSender] (DEBUG) Receiving 8=FIX.4.4|9=62|35=0|34=234|49=DMA_HUB|56=FIXCLIENT1|52=20231218-12:40:13.969|10=041|
2023-12-18 13:40:30.061 [39] [FixSender] (DEBUG) Sending 8=FIX.4.4|9=58|35=0|49=FIXCLIENT1|56=DMA_HUB|34=232|52=20231218-12:40:30|10=085|
2023-12-18 13:40:43.922 [38] [FixSender] (DEBUG) Receiving 8=FIX.4.4|9=62|35=0|34=235|49=DMA_HUB|56=FIXCLIENT1|52=20231218-12:40:43.922|10=034|
2023-12-18 13:41:00.063 [39] [FixSender] (DEBUG) Sending 8=FIX.4.4|9=58|35=0|49=FIXCLIENT1|56=DMA_HUB|34=233|52=20231218-12:41:00|10=084|
2023-12-18 13:41:13.873 [38] [FixSender] (DEBUG) Receiving 8=FIX.4.4|9=62|35=0|34=236|49=DMA_HUB|56=FIXCLIENT1|52=20231218-12:41:13.873|10=038|
2023-12-18 13:41:30.066 [39] [FixSender] (DEBUG) Sending 8=FIX.4.4|9=58|35=0|49=FIXCLIENT1|56=DMA_HUB|34=234|52=20231218-12:41:30|10=088|
2023-12-18 13:41:43.825 [38] [FixSender] (DEBUG) Receiving 8=FIX.4.4|9=62|35=0|34=237|49=DMA_HUB|56=FIXCLIENT1|52=20231218-12:41:43.825|10=039|
2023-12-18 13:42:00.070 [39] [FixSender] (DEBUG) Sending 8=FIX.4.4|9=58|35=0|49=FIXCLIENT1|56=DMA_HUB|34=235|52=20231218-12:42:00|10=087|
2023-12-18 13:42:13.778 [38] [FixSender] (DEBUG) Receiving 8=FIX.4.4|9=62|35=0|34=238|49=DMA_HUB|56=FIXCLIENT1|52=20231218-12:42:13.778|10=045|
2023-12-18 13:42:30.074 [39] [FixSender] (DEBUG) Sending 8=FIX.4.4|9=58|35=0|49=FIXCLIENT1|56=DMA_HUB|34=236|52=20231218-12:42:30|10=091|
2023-12-18 13:42:43.730 [38] [FixSender] (DEBUG) Receiving 8=FIX.4.4|9=62|35=0|34=239|49=DMA_HUB|56=FIXCLIENT1|52=20231218-12:42:43.730|10=037|
2023-12-18 13:43:00.075 [39] [FixSender] (DEBUG) Sending 8=FIX.4.4|9=58|35=0|49=FIXCLIENT1|56=DMA_HUB|34=237|52=20231218-12:43:00|10=090|
2023-12-18 13:43:13.682 [38] [FixSender] (DEBUG) Receiving 8=FIX.4.4|9=62|35=0|34=240|49=DMA_HUB|56=FIXCLIENT1|52=20231218-12:43:13.681|10=032|
2023-12-18 13:43:30.075 [39] [FixSender] (DEBUG) Sending 8=FIX.4.4|9=58|35=0|49=FIXCLIENT1|56=DMA_HUB|34=238|52=20231218-12:43:30|10=094|
2023-12-18 13:43:43.634 [38] [FixSender] (DEBUG) Receiving 8=FIX.4.4|9=62|35=0|34=241|49=DMA_HUB|56=FIXCLIENT1|52=20231218-12:43:43.634|10=034|
2023-12-18 13:44:00.077 [39] [FixSender] (DEBUG) Sending 8=FIX.4.4|9=58|35=0|49=FIXCLIENT1|56=DMA_HUB|34=239|52=20231218-12:44:00|10=093|
2023-12-18 13:44:13.586 [38] [FixSender] (DEBUG) Receiving 8=FIX.4.4|9=62|35=0|34=242|49=DMA_HUB|56=FIXCLIENT1|52=20231218-12:44:13.586|10=039|
2023-12-18 13:44:30.079 [39] [FixSender] (DEBUG) Sending 8=FIX.4.4|9=58|35=0|49=FIXCLIENT1|56=DMA_HUB|34=240|52=20231218-12:44:30|10=088|
2023-12-18 13:44:43.537 [38] [FixSender] (DEBUG) Receiving 8=FIX.4.4|9=62|35=0|34=243|49=DMA_HUB|56=FIXCLIENT1|52=20231218-12:44:43.537|10=039|
2023-12-18 13:45:00.087 [39] [FixSender] (DEBUG) Sending 8=FIX.4.4|9=58|35=0|49=FIXCLIENT1|56=DMA_HUB|34=241|52=20231218-12:45:00|10=087|
2023-12-18 13:45:13.489 [38] [FixSender] (DEBUG) Receiving 8=FIX.4.4|9=62|35=0|34=244|49=DMA_HUB|56=FIXCLIENT1|52=20231218-12:45:13.489|10=044|
2023-12-18 13:45:25.673 [1] [Fixsender] (INFO) (c) 2001-2011 ullink SAS. FixSender. Release 1.11.
2023-12-18 13:45:28.649 [29] [FixSender] (INFO) try to connect to : localhost port :12345
2023-12-18 13:45:28.667 [29] [FixSender] (INFO) physical cnx initiated
2023-12-18 13:45:28.682 [29] [FixSender] (DEBUG) Sending 8=FIX.4.4|9=88|35=A|49=FIXCLIENT1|56=DMA_HUB|34=242|52=20231218-12:45:28|98=0|108=30|95=9|96=null/null|10=198|
2023-12-18 13:45:28.683 [29] [FixSender] (DEBUG) Receiving 8=FIX.4.4|9=74|35=A|34=245|49=DMA_HUB|56=FIXCLIENT1|52=20231218-12:45:28.682|108=30|98=0|10=091|
2023-12-18 13:45:28.685 [29] [FixSender] (WARNING) The Fix connection is open...
2023-12-18 13:45:28.690 [29] [FixSender] (DEBUG) Sending 8=FIX.4.4|9=76|35=1|49=FIXCLIENT1|56=DMA_HUB|34=243|52=20231218-12:45:28|112=synchronized?|10=149|
2023-12-18 13:45:28.691 [29] [FixSender] (DEBUG) Receiving 8=FIX.4.4|9=80|35=0|34=246|49=DMA_HUB|56=FIXCLIENT1|52=20231218-12:45:28.691|112=synchronized?|10=096|
2023-12-18 13:45:30.094 [32] [FixSender] (DEBUG) Sending 8=FIX.4.4|9=198|35=D|49=FIXCLIENT1|56=DMA_HUB|34=244|52=20231218-12:45:30|21=1|11=HS_17029035300|38=3553|55=E:07G@XETR|54=2|60=20231218-12:45:30|40=2|59=0|44=197.111|48=US3390411052|22=4|15=EUR|207=XETR|1=bram_123|10=125|
2023-12-18 13:45:30.098 [29] [FixSender] (DEBUG) Receiving 8=FIX.4.4|9=240|35=8|34=247|49=DMA_HUB|56=FIXCLIENT1|52=20231218-12:45:30.096|11=HS_17029035300|37=FXijrmvgJ|54=2|40=2|59=0|17=202312184|150=A|39=A|38=3553|151=3553|14=0|6=0|44=197.111|60=20231218-12:45:30.000|22=4|48=US3390411052|207=XETR|15=EUR|55=[N/A]|10=137|
2023-12-18 13:45:56.116 [34] [FixSender] (DEBUG) Sending 8=FIX.4.4|9=213|35=G|49=FIXCLIENT1|56=DMA_HUB|34=245|52=20231218-12:45:56|21=1|11=17029035560|38=3553|55=E:07G@XETR|54=2|60=20231218-12:45:30|40=2|59=0|44=197.111|48=US3390411052|22=4|15=EUR|207=XETR|1=bram_123|41=HS_17029035300|10=086|
2023-12-18 13:45:56.120 [29] [FixSender] (DEBUG) Receiving 8=FIX.4.4|9=240|35=8|34=248|49=DMA_HUB|56=FIXCLIENT1|52=20231218-12:45:56.119|11=HS_17029035300|37=FXijrmvgJ|54=2|40=2|59=0|17=202312185|150=A|39=A|38=3553|151=3553|14=0|6=0|44=197.111|60=20231218-12:45:30.000|22=4|48=US3390411052|207=XETR|15=EUR|55=[N/A]|10=143|
2023-12-18 13:45:58.673 [29] [FixSender] (DEBUG) Receiving 8=FIX.4.4|9=62|35=0|34=249|49=DMA_HUB|56=FIXCLIENT1|52=20231218-12:45:58.673|10=053|
2023-12-18 13:46:26.118 [30] [FixSender] (DEBUG) Sending 8=FIX.4.4|9=58|35=0|49=FIXCLIENT1|56=DMA_HUB|34=246|52=20231218-12:46:26|10=101|
2023-12-18 13:46:28.627 [29] [FixSender] (DEBUG) Receiving 8=FIX.4.4|9=62|35=0|34=250|49=DMA_HUB|56=FIXCLIENT1|52=20231218-12:46:28.626|10=041|
2023-12-18 13:46:56.122 [30] [FixSender] (DEBUG) Sending 8=FIX.4.4|9=58|35=0|49=FIXCLIENT1|56=DMA_HUB|34=247|52=20231218-12:46:56|10=105|
2023-12-18 13:46:58.578 [29] [FixSender] (DEBUG) Receiving 8=FIX.4.4|9=62|35=0|34=251|49=DMA_HUB|56=FIXCLIENT1|52=20231218-12:46:58.577|10=050|
2023-12-18 13:47:26.124 [30] [FixSender] (DEBUG) Sending 8=FIX.4.4|9=58|35=0|49=FIXCLIENT1|56=DMA_HUB|34=248|52=20231218-12:47:26|10=104|
2023-12-18 13:47:28.529 [29] [FixSender] (DEBUG) Receiving 8=FIX.4.4|9=62|35=0|34=252|49=DMA_HUB|56=FIXCLIENT1|52=20231218-12:47:28.529|10=046|
2023-12-18 13:47:56.127 [30] [FixSender] (DEBUG) Sending 8=FIX.4.4|9=58|35=0|49=FIXCLIENT1|56=DMA_HUB|34=249|52=20231218-12:47:56|10=108|
2023-12-18 13:47:58.481 [29] [FixSender] (DEBUG) Receiving 8=FIX.4.4|9=62|35=0|34=253|49=DMA_HUB|56=FIXCLIENT1|52=20231218-12:47:58.481|10=047|
2023-12-18 13:48:26.128 [30] [FixSender] (DEBUG) Sending 8=FIX.4.4|9=58|35=0|49=FIXCLIENT1|56=DMA_HUB|34=250|52=20231218-12:48:26|10=098|
2023-12-18 13:48:28.498 [29] [FixSender] (DEBUG) Receiving 8=FIX.4.4|9=62|35=0|34=254|49=DMA_HUB|56=FIXCLIENT1|52=20231218-12:48:28.497|10=053|
2023-12-18 13:48:56.130 [30] [FixSender] (DEBUG) Sending 8=FIX.4.4|9=58|35=0|49=FIXCLIENT1|56=DMA_HUB|34=251|52=20231218-12:48:56|10=102|
2023-12-18 13:48:58.451 [29] [FixSender] (DEBUG) Receiving 8=FIX.4.4|9=62|35=0|34=255|49=DMA_HUB|56=FIXCLIENT1|52=20231218-12:48:58.450|10=046|
2023-12-18 13:49:26.132 [30] [FixSender] (DEBUG) Sending 8=FIX.4.4|9=58|35=0|49=FIXCLIENT1|56=DMA_HUB|34=252|52=20231218-12:49:26|10=101|
2023-12-18 13:49:28.402 [29] [FixSender] (DEBUG) Receiving 8=FIX.4.4|9=62|35=0|34=256|49=DMA_HUB|56=FIXCLIENT1|52=20231218-12:49:28.402|10=042|
2023-12-18 13:49:56.135 [30] [FixSender] (DEBUG) Sending 8=FIX.4.4|9=58|35=0|49=FIXCLIENT1|56=DMA_HUB|34=253|52=20231218-12:49:56|10=105|
2023-12-18 13:49:58.354 [29] [FixSender] (DEBUG) Receiving 8=FIX.4.4|9=62|35=0|34=257|49=DMA_HUB|56=FIXCLIENT1|52=20231218-12:49:58.354|10=052|
2023-12-18 13:50:26.138 [30] [FixSender] (DEBUG) Sending 8=FIX.4.4|9=58|35=0|49=FIXCLIENT1|56=DMA_HUB|34=254|52=20231218-12:50:26|10=095|
2023-12-18 13:50:28.306 [29] [FixSender] (DEBUG) Receiving 8=FIX.4.4|9=62|35=0|34=258|49=DMA_HUB|56=FIXCLIENT1|52=20231218-12:50:28.306|10=039|
2023-12-18 13:50:56.139 [30] [FixSender] (DEBUG) Sending 8=FIX.4.4|9=58|35=0|49=FIXCLIENT1|56=DMA_HUB|34=255|52=20231218-12:50:56|10=099|
2023-12-18 13:50:58.257 [29] [FixSender] (DEBUG) Receiving 8=FIX.4.4|9=62|35=0|34=259|49=DMA_HUB|56=FIXCLIENT1|52=20231218-12:50:58.257|10=048|
2023-12-18 13:51:26.140 [30] [FixSender] (DEBUG) Sending 8=FIX.4.4|9=58|35=0|49=FIXCLIENT1|56=DMA_HUB|34=256|52=20231218-12:51:26|10=098|
2023-12-18 13:51:28.210 [29] [FixSender] (DEBUG) Receiving 8=FIX.4.4|9=62|35=0|34=260|49=DMA_HUB|56=FIXCLIENT1|52=20231218-12:51:28.209|10=035|
2023-12-18 13:51:56.143 [30] [FixSender] (DEBUG) Sending 8=FIX.4.4|9=58|35=0|49=FIXCLIENT1|56=DMA_HUB|34=257|52=20231218-12:51:56|10=102|
2023-12-18 13:51:58.162 [29] [FixSender] (DEBUG) Receiving 8=FIX.4.4|9=62|35=0|34=261|49=DMA_HUB|56=FIXCLIENT1|52=20231218-12:51:58.162|10=037|
2023-12-18 13:52:26.144 [30] [FixSender] (DEBUG) Sending 8=FIX.4.4|9=58|35=0|49=FIXCLIENT1|56=DMA_HUB|34=258|52=20231218-12:52:26|10=101|
2023-12-18 13:52:28.113 [29] [FixSender] (DEBUG) Receiving 8=FIX.4.4|9=62|35=0|34=262|49=DMA_HUB|56=FIXCLIENT1|52=20231218-12:52:28.113|10=032|
2023-12-18 13:52:56.145 [30] [FixSender] (DEBUG) Sending 8=FIX.4.4|9=58|35=0|49=FIXCLIENT1|56=DMA_HUB|34=259|52=20231218-12:52:56|10=105|
2023-12-18 13:52:58.065 [29] [FixSender] (DEBUG) Receiving 8=FIX.4.4|9=62|35=0|34=263|49=DMA_HUB|56=FIXCLIENT1|52=20231218-12:52:58.065|10=042|
2023-12-18 13:53:26.152 [30] [FixSender] (DEBUG) Sending 8=FIX.4.4|9=58|35=0|49=FIXCLIENT1|56=DMA_HUB|34=260|52=20231218-12:53:26|10=095|
2023-12-18 13:53:28.017 [29] [FixSender] (DEBUG) Receiving 8=FIX.4.4|9=62|35=0|34=264|49=DMA_HUB|56=FIXCLIENT1|52=20231218-12:53:28.017|10=038|
2023-12-18 13:53:56.153 [30] [FixSender] (DEBUG) Sending 8=FIX.4.4|9=58|35=0|49=FIXCLIENT1|56=DMA_HUB|34=261|52=20231218-12:53:56|10=099|
2023-12-18 13:53:57.971 [29] [FixSender] (DEBUG) Receiving 8=FIX.4.4|9=62|35=0|34=265|49=DMA_HUB|56=FIXCLIENT1|52=20231218-12:53:57.970|10=049|
2023-12-18 13:54:26.154 [30] [FixSender] (DEBUG) Sending 8=FIX.4.4|9=58|35=0|49=FIXCLIENT1|56=DMA_HUB|34=262|52=20231218-12:54:26|10=098|
2023-12-18 13:54:27.921 [29] [FixSender] (DEBUG) Receiving 8=FIX.4.4|9=62|35=0|34=266|49=DMA_HUB|56=FIXCLIENT1|52=20231218-12:54:27.921|10=044|
2023-12-18 13:54:56.156 [30] [FixSender] (DEBUG) Sending 8=FIX.4.4|9=58|35=0|49=FIXCLIENT1|56=DMA_HUB|34=263|52=20231218-12:54:56|10=102|
2023-12-18 13:54:57.875 [29] [FixSender] (DEBUG) Receiving 8=FIX.4.4|9=62|35=0|34=267|49=DMA_HUB|56=FIXCLIENT1|52=20231218-12:54:57.874|10=055|
2023-12-18 13:55:26.158 [30] [FixSender] (DEBUG) Sending 8=FIX.4.4|9=58|35=0|49=FIXCLIENT1|56=DMA_HUB|34=264|52=20231218-12:55:26|10=101|
2023-12-18 13:55:27.825 [29] [FixSender] (DEBUG) Receiving 8=FIX.4.4|9=62|35=0|34=268|49=DMA_HUB|56=FIXCLIENT1|52=20231218-12:55:27.825|10=050|
2023-12-18 13:55:56.159 [30] [FixSender] (DEBUG) Sending 8=FIX.4.4|9=58|35=0|49=FIXCLIENT1|56=DMA_HUB|34=265|52=20231218-12:55:56|10=105|
2023-12-18 13:55:57.777 [29] [FixSender] (DEBUG) Receiving 8=FIX.4.4|9=62|35=0|34=269|49=DMA_HUB|56=FIXCLIENT1|52=20231218-12:55:57.777|10=060|
2023-12-18 13:56:26.162 [30] [FixSender] (DEBUG) Sending 8=FIX.4.4|9=58|35=0|49=FIXCLIENT1|56=DMA_HUB|34=266|52=20231218-12:56:26|10=104|
2023-12-18 13:56:27.729 [29] [FixSender] (DEBUG) Receiving 8=FIX.4.4|9=62|35=0|34=270|49=DMA_HUB|56=FIXCLIENT1|52=20231218-12:56:27.729|10=047|
2023-12-18 13:56:56.163 [30] [FixSender] (DEBUG) Sending 8=FIX.4.4|9=58|35=0|49=FIXCLIENT1|56=DMA_HUB|34=267|52=20231218-12:56:56|10=108|
2023-12-18 13:56:57.682 [29] [FixSender] (DEBUG) Receiving 8=FIX.4.4|9=62|35=0|34=271|49=DMA_HUB|56=FIXCLIENT1|52=20231218-12:56:57.681|10=048|
2023-12-18 13:57:26.165 [30] [FixSender] (DEBUG) Sending 8=FIX.4.4|9=58|35=0|49=FIXCLIENT1|56=DMA_HUB|34=268|52=20231218-12:57:26|10=107|
2023-12-18 13:57:27.633 [29] [FixSender] (DEBUG) Receiving 8=FIX.4.4|9=62|35=0|34=272|49=DMA_HUB|56=FIXCLIENT1|52=20231218-12:57:27.633|10=044|
2023-12-18 13:57:56.166 [30] [FixSender] (DEBUG) Sending 8=FIX.4.4|9=58|35=0|49=FIXCLIENT1|56=DMA_HUB|34=269|52=20231218-12:57:56|10=111|
2023-12-18 13:57:57.586 [29] [FixSender] (DEBUG) Receiving 8=FIX.4.4|9=62|35=0|34=273|49=DMA_HUB|56=FIXCLIENT1|52=20231218-12:57:57.586|10=055|
2023-12-18 13:58:26.176 [30] [FixSender] (DEBUG) Sending 8=FIX.4.4|9=58|35=0|49=FIXCLIENT1|56=DMA_HUB|34=270|52=20231218-12:58:26|10=101|
2023-12-18 13:58:27.538 [29] [FixSender] (DEBUG) Receiving 8=FIX.4.4|9=62|35=0|34=274|49=DMA_HUB|56=FIXCLIENT1|52=20231218-12:58:27.538|10=051|
2023-12-18 13:58:56.177 [30] [FixSender] (DEBUG) Sending 8=FIX.4.4|9=58|35=0|49=FIXCLIENT1|56=DMA_HUB|34=271|52=20231218-12:58:56|10=105|
2023-12-18 13:58:57.491 [29] [FixSender] (DEBUG) Receiving 8=FIX.4.4|9=62|35=0|34=275|49=DMA_HUB|56=FIXCLIENT1|52=20231218-12:58:57.490|10=052|
2023-12-18 13:59:26.181 [30] [FixSender] (DEBUG) Sending 8=FIX.4.4|9=58|35=0|49=FIXCLIENT1|56=DMA_HUB|34=272|52=20231218-12:59:26|10=104|
2023-12-18 13:59:27.443 [29] [FixSender] (DEBUG) Receiving 8=FIX.4.4|9=62|35=0|34=276|49=DMA_HUB|56=FIXCLIENT1|52=20231218-12:59:27.442|10=048|
2023-12-18 13:59:56.183 [30] [FixSender] (DEBUG) Sending 8=FIX.4.4|9=58|35=0|49=FIXCLIENT1|56=DMA_HUB|34=273|52=20231218-12:59:56|10=108|
2023-12-18 13:59:57.394 [29] [FixSender] (DEBUG) Receiving 8=FIX.4.4|9=62|35=0|34=277|49=DMA_HUB|56=FIXCLIENT1|52=20231218-12:59:57.394|10=058|
2023-12-18 14:00:26.185 [30] [FixSender] (DEBUG) Sending 8=FIX.4.4|9=58|35=0|49=FIXCLIENT1|56=DMA_HUB|34=274|52=20231218-13:00:26|10=093|
2023-12-18 14:00:27.345 [29] [FixSender] (DEBUG) Receiving 8=FIX.4.4|9=62|35=0|34=278|49=DMA_HUB|56=FIXCLIENT1|52=20231218-13:00:27.345|10=039|
2023-12-18 14:00:56.189 [30] [FixSender] (DEBUG) Sending 8=FIX.4.4|9=58|35=0|49=FIXCLIENT1|56=DMA_HUB|34=275|52=20231218-13:00:56|10=097|
2023-12-18 14:00:57.297 [29] [FixSender] (DEBUG) Receiving 8=FIX.4.4|9=62|35=0|34=279|49=DMA_HUB|56=FIXCLIENT1|52=20231218-13:00:57.297|10=049|
2023-12-18 14:01:26.193 [30] [FixSender] (DEBUG) Sending 8=FIX.4.4|9=58|35=0|49=FIXCLIENT1|56=DMA_HUB|34=276|52=20231218-13:01:26|10=096|
2023-12-18 14:01:27.249 [29] [FixSender] (DEBUG) Receiving 8=FIX.4.4|9=62|35=0|34=280|49=DMA_HUB|56=FIXCLIENT1|52=20231218-13:01:27.249|10=036|
2023-12-18 14:01:56.195 [30] [FixSender] (DEBUG) Sending 8=FIX.4.4|9=58|35=0|49=FIXCLIENT1|56=DMA_HUB|34=277|52=20231218-13:01:56|10=100|
2023-12-18 14:01:57.201 [29] [FixSender] (DEBUG) Receiving 8=FIX.4.4|9=62|35=0|34=281|49=DMA_HUB|56=FIXCLIENT1|52=20231218-13:01:57.201|10=028|
2023-12-18 14:02:26.195 [30] [FixSender] (DEBUG) Sending 8=FIX.4.4|9=58|35=0|49=FIXCLIENT1|56=DMA_HUB|34=278|52=20231218-13:02:26|10=099|
2023-12-18 14:02:27.154 [29] [FixSender] (DEBUG) Receiving 8=FIX.4.4|9=62|35=0|34=282|49=DMA_HUB|56=FIXCLIENT1|52=20231218-13:02:27.154|10=034|
2023-12-18 14:02:56.197 [30] [FixSender] (DEBUG) Sending 8=FIX.4.4|9=58|35=0|49=FIXCLIENT1|56=DMA_HUB|34=279|52=20231218-13:02:56|10=103|
2023-12-18 14:02:57.105 [29] [FixSender] (DEBUG) Receiving 8=FIX.4.4|9=62|35=0|34=283|49=DMA_HUB|56=FIXCLIENT1|52=20231218-13:02:57.105|10=034|
2023-12-18 14:03:26.200 [30] [FixSender] (DEBUG) Sending 8=FIX.4.4|9=58|35=0|49=FIXCLIENT1|56=DMA_HUB|34=280|52=20231218-13:03:26|10=093|
2023-12-18 14:03:27.058 [29] [FixSender] (DEBUG) Receiving 8=FIX.4.4|9=62|35=0|34=284|49=DMA_HUB|56=FIXCLIENT1|52=20231218-13:03:27.058|10=040|
2023-12-18 14:03:56.201 [30] [FixSender] (DEBUG) Sending 8=FIX.4.4|9=58|35=0|49=FIXCLIENT1|56=DMA_HUB|34=281|52=20231218-13:03:56|10=097|
2023-12-18 14:03:57.010 [29] [FixSender] (DEBUG) Receiving 8=FIX.4.4|9=62|35=0|34=285|49=DMA_HUB|56=FIXCLIENT1|52=20231218-13:03:57.009|10=040|
2023-12-18 14:04:26.203 [30] [FixSender] (DEBUG) Sending 8=FIX.4.4|9=58|35=0|49=FIXCLIENT1|56=DMA_HUB|34=282|52=20231218-13:04:26|10=096|
2023-12-18 14:04:26.962 [29] [FixSender] (DEBUG) Receiving 8=FIX.4.4|9=62|35=0|34=286|49=DMA_HUB|56=FIXCLIENT1|52=20231218-13:04:26.962|10=046|
2023-12-18 14:04:56.204 [30] [FixSender] (DEBUG) Sending 8=FIX.4.4|9=58|35=0|49=FIXCLIENT1|56=DMA_HUB|34=283|52=20231218-13:04:56|10=100|
2023-12-18 14:04:56.914 [29] [FixSender] (DEBUG) Receiving 8=FIX.4.4|9=62|35=0|34=287|49=DMA_HUB|56=FIXCLIENT1|52=20231218-13:04:56.914|10=047|
2023-12-18 14:05:26.206 [30] [FixSender] (DEBUG) Sending 8=FIX.4.4|9=58|35=0|49=FIXCLIENT1|56=DMA_HUB|34=284|52=20231218-13:05:26|10=099|
2023-12-18 14:05:26.868 [29] [FixSender] (DEBUG) Receiving 8=FIX.4.4|9=62|35=0|34=288|49=DMA_HUB|56=FIXCLIENT1|52=20231218-13:05:26.866|10=052|
2023-12-18 14:05:56.207 [30] [FixSender] (DEBUG) Sending 8=FIX.4.4|9=58|35=0|49=FIXCLIENT1|56=DMA_HUB|34=285|52=20231218-13:05:56|10=103|
2023-12-18 14:05:56.817 [29] [FixSender] (DEBUG) Receiving 8=FIX.4.4|9=62|35=0|34=289|49=DMA_HUB|56=FIXCLIENT1|52=20231218-13:05:56.817|10=052|
2023-12-18 14:06:26.208 [30] [FixSender] (DEBUG) Sending 8=FIX.4.4|9=58|35=0|49=FIXCLIENT1|56=DMA_HUB|34=286|52=20231218-13:06:26|10=102|
2023-12-18 14:06:26.770 [29] [FixSender] (DEBUG) Receiving 8=FIX.4.4|9=62|35=0|34=290|49=DMA_HUB|56=FIXCLIENT1|52=20231218-13:06:26.770|10=040|
2023-12-18 14:06:56.210 [30] [FixSender] (DEBUG) Sending 8=FIX.4.4|9=58|35=0|49=FIXCLIENT1|56=DMA_HUB|34=287|52=20231218-13:06:56|10=106|
2023-12-18 14:06:56.723 [29] [FixSender] (DEBUG) Receiving 8=FIX.4.4|9=62|35=0|34=291|49=DMA_HUB|56=FIXCLIENT1|52=20231218-13:06:56.722|10=041|
2023-12-18 14:07:03.097 [29] [FixSender] (DEBUG) Receiving 8=FIX.4.4|9=62|35=5|34=292|49=DMA_HUB|56=FIXCLIENT1|52=20231218-13:07:03.095|10=043|
2023-12-18 14:07:03.100 [29] [FixSender] (DEBUG) Sending 8=FIX.4.4|9=80|35=5|49=FIXCLIENT1|56=DMA_HUB|34=288|52=20231218-13:07:03|58=Replying to logout|10=022|
2023-12-18 14:07:03.100 [29] [FixSender] (WARNING) The Fix connection is close...
2023-12-18 14:07:03.105 [29] [FixSender] (INFO) physical cnx finished Connection reset by peer
2023-12-18 14:07:03.105 [29] [FixSender] (WARNING) Disconnected
2023-12-18 14:22:27.285 [35] [FixSender] (INFO) try to connect to : localhost port :12345
2023-12-18 14:22:27.291 [35] [FixSender] (INFO) physical cnx initiated
2023-12-18 14:22:27.298 [35] [FixSender] (DEBUG) Sending 8=FIX.4.4|9=88|35=A|49=FIXCLIENT1|56=DMA_HUB|34=289|52=20231218-13:22:27|98=0|108=30|95=9|96=null/null|10=204|
2023-12-18 14:22:27.306 [35] [FixSender] (DEBUG) Receiving 8=FIX.4.4|9=74|35=A|34=293|49=DMA_HUB|56=FIXCLIENT1|52=20231218-13:22:27.301|108=30|98=0|10=077|
2023-12-18 14:22:27.306 [35] [FixSender] (WARNING) The Fix connection is open...
2023-12-18 14:22:27.318 [35] [FixSender] (DEBUG) Sending 8=FIX.4.4|9=76|35=1|49=FIXCLIENT1|56=DMA_HUB|34=290|52=20231218-13:22:27|112=synchronized?|10=146|
2023-12-18 14:22:27.320 [35] [FixSender] (DEBUG) Receiving 8=FIX.4.4|9=80|35=0|34=294|49=DMA_HUB|56=FIXCLIENT1|52=20231218-13:22:27.318|112=synchronized?|10=090|
2023-12-18 14:22:29.516 [38] [FixSender] (DEBUG) Sending 8=FIX.4.4|9=197|35=D|49=FIXCLIENT1|56=DMA_HUB|34=291|52=20231218-13:22:29|21=1|11=HS_17029057491|38=347|55=E:07G@XETR|54=2|60=20231218-13:22:29|40=2|59=0|44=197.111|48=US3390411052|22=4|15=EUR|207=XETR|1=bram_123|10=099|
2023-12-18 14:22:29.528 [35] [FixSender] (DEBUG) Receiving 8=FIX.4.4|9=238|35=8|34=295|49=DMA_HUB|56=FIXCLIENT1|52=20231218-13:22:29.527|11=HS_17029057491|37=FXZVyK3yO|54=2|40=2|59=0|17=202312186|150=A|39=A|38=347|151=347|14=0|6=0|44=197.111|60=20231218-13:22:29.000|22=4|48=US3390411052|207=XETR|15=EUR|55=[N/A]|10=221|
2023-12-18 14:22:54.511 [35] [FixSender] (DEBUG) Receiving 8=FIX.4.4|9=237|35=8|34=296|49=DMA_HUB|56=FIXCLIENT1|52=20231218-13:22:54.510|11=HS_17029057491|37=FXZVyK3yO|54=2|40=2|59=0|17=202312187|150=A|39=A|38=347|151=347|14=0|6=0|44=197.11|60=20231218-13:22:29.000|22=4|48=US3390411052|207=XETR|15=EUR|55=[N/A]|10=163|
2023-12-18 14:22:57.272 [35] [FixSender] (DEBUG) Receiving 8=FIX.4.4|9=62|35=0|34=297|49=DMA_HUB|56=FIXCLIENT1|52=20231218-13:22:57.271|10=045|
2023-12-18 14:22:59.526 [36] [FixSender] (DEBUG) Sending 8=FIX.4.4|9=58|35=0|49=FIXCLIENT1|56=DMA_HUB|34=292|52=20231218-13:22:59|10=103|
2023-12-18 14:23:10.904 [35] [FixSender] (DEBUG) Receiving 8=FIX.4.4|9=237|35=8|34=298|49=DMA_HUB|56=FIXCLIENT1|52=20231218-13:23:10.901|11=HS_17029057491|37=FXZVyK3yO|54=2|40=2|59=0|17=202312188|150=A|39=A|38=347|151=347|14=0|6=0|44=197.11|60=20231218-13:22:29.000|22=4|48=US3390411052|207=XETR|15=EUR|55=[N/A]|10=163|
2023-12-18 14:23:27.211 [35] [FixSender] (DEBUG) Receiving 8=FIX.4.4|9=62|35=0|34=299|49=DMA_HUB|56=FIXCLIENT1|52=20231218-13:23:27.210|10=038|
2023-12-18 14:23:29.528 [36] [FixSender] (DEBUG) Sending 8=FIX.4.4|9=58|35=0|49=FIXCLIENT1|56=DMA_HUB|34=293|52=20231218-13:23:29|10=102|
2023-12-18 14:23:57.194 [35] [FixSender] (DEBUG) Receiving 8=FIX.4.4|9=62|35=0|34=300|49=DMA_HUB|56=FIXCLIENT1|52=20231218-13:23:57.161|10=029|
2023-12-18 14:23:59.541 [36] [FixSender] (DEBUG) Sending 8=FIX.4.4|9=58|35=0|49=FIXCLIENT1|56=DMA_HUB|34=294|52=20231218-13:23:59|10=106|
2023-12-18 14:24:27.123 [35] [FixSender] (DEBUG) Receiving 8=FIX.4.4|9=62|35=0|34=301|49=DMA_HUB|56=FIXCLIENT1|52=20231218-13:24:27.122|10=025|
2023-12-18 14:24:29.553 [36] [FixSender] (DEBUG) Sending 8=FIX.4.4|9=58|35=0|49=FIXCLIENT1|56=DMA_HUB|34=295|52=20231218-13:24:29|10=105|
2023-12-18 14:24:57.074 [35] [FixSender] (DEBUG) Receiving 8=FIX.4.4|9=62|35=0|34=302|49=DMA_HUB|56=FIXCLIENT1|52=20231218-13:24:57.073|10=034|
2023-12-18 14:24:59.570 [36] [FixSender] (DEBUG) Sending 8=FIX.4.4|9=58|35=0|49=FIXCLIENT1|56=DMA_HUB|34=296|52=20231218-13:24:59|10=109|
2023-12-18 14:25:27.029 [35] [FixSender] (DEBUG) Receiving 8=FIX.4.4|9=62|35=0|34=303|49=DMA_HUB|56=FIXCLIENT1|52=20231218-13:25:27.028|10=033|
2023-12-18 14:25:29.572 [36] [FixSender] (DEBUG) Sending 8=FIX.4.4|9=58|35=0|49=FIXCLIENT1|56=DMA_HUB|34=297|52=20231218-13:25:29|10=108|
2023-12-18 14:25:56.983 [35] [FixSender] (DEBUG) Receiving 8=FIX.4.4|9=62|35=0|34=304|49=DMA_HUB|56=FIXCLIENT1|52=20231218-13:25:56.982|10=045|
2023-12-18 14:25:59.583 [36] [FixSender] (DEBUG) Sending 8=FIX.4.4|9=58|35=0|49=FIXCLIENT1|56=DMA_HUB|34=298|52=20231218-13:25:59|10=112|
2023-12-18 14:26:26.927 [35] [FixSender] (DEBUG) Receiving 8=FIX.4.4|9=62|35=0|34=305|49=DMA_HUB|56=FIXCLIENT1|52=20231218-13:26:26.926|10=042|
2023-12-18 14:26:29.593 [36] [FixSender] (DEBUG) Sending 8=FIX.4.4|9=58|35=0|49=FIXCLIENT1|56=DMA_HUB|34=299|52=20231218-13:26:29|10=111|
2023-12-18 14:26:56.875 [35] [FixSender] (DEBUG) Receiving 8=FIX.4.4|9=62|35=0|34=306|49=DMA_HUB|56=FIXCLIENT1|52=20231218-13:26:56.874|10=048|
2023-12-18 14:26:59.597 [36] [FixSender] (DEBUG) Sending 8=FIX.4.4|9=58|35=0|49=FIXCLIENT1|56=DMA_HUB|34=300|52=20231218-13:26:59|10=097|
2023-12-18 14:27:26.826 [35] [FixSender] (DEBUG) Receiving 8=FIX.4.4|9=62|35=0|34=307|49=DMA_HUB|56=FIXCLIENT1|52=20231218-13:27:26.825|10=043|
2023-12-18 14:27:29.602 [36] [FixSender] (DEBUG) Sending 8=FIX.4.4|9=58|35=0|49=FIXCLIENT1|56=DMA_HUB|34=301|52=20231218-13:27:29|10=096|
2023-12-18 14:27:56.786 [35] [FixSender] (DEBUG) Receiving 8=FIX.4.4|9=62|35=0|34=308|49=DMA_HUB|56=FIXCLIENT1|52=20231218-13:27:56.785|10=052|
2023-12-18 14:27:59.610 [36] [FixSender] (DEBUG) Sending 8=FIX.4.4|9=58|35=0|49=FIXCLIENT1|56=DMA_HUB|34=302|52=20231218-13:27:59|10=100|
2023-12-18 14:28:26.732 [35] [FixSender] (DEBUG) Receiving 8=FIX.4.4|9=62|35=0|34=309|49=DMA_HUB|56=FIXCLIENT1|52=20231218-13:28:26.731|10=042|
2023-12-18 14:28:29.623 [36] [FixSender] (DEBUG) Sending 8=FIX.4.4|9=58|35=0|49=FIXCLIENT1|56=DMA_HUB|34=303|52=20231218-13:28:29|10=099|
2023-12-18 14:28:56.688 [35] [FixSender] (DEBUG) Receiving 8=FIX.4.4|9=62|35=0|34=310|49=DMA_HUB|56=FIXCLIENT1|52=20231218-13:28:56.687|10=047|
2023-12-18 14:28:59.640 [36] [FixSender] (DEBUG) Sending 8=FIX.4.4|9=58|35=0|49=FIXCLIENT1|56=DMA_HUB|34=304|52=20231218-13:28:59|10=103|
2023-12-18 14:29:26.647 [35] [FixSender] (DEBUG) Receiving 8=FIX.4.4|9=62|35=0|34=311|49=DMA_HUB|56=FIXCLIENT1|52=20231218-13:29:26.646|10=041|
2023-12-18 14:29:29.653 [36] [FixSender] (DEBUG) Sending 8=FIX.4.4|9=58|35=0|49=FIXCLIENT1|56=DMA_HUB|34=305|52=20231218-13:29:29|10=102|
2023-12-18 14:29:56.594 [35] [FixSender] (DEBUG) Receiving 8=FIX.4.4|9=62|35=0|34=312|49=DMA_HUB|56=FIXCLIENT1|52=20231218-13:29:56.594|10=047|
2023-12-18 14:29:59.666 [36] [FixSender] (DEBUG) Sending 8=FIX.4.4|9=58|35=0|49=FIXCLIENT1|56=DMA_HUB|34=306|52=20231218-13:29:59|10=106|
2023-12-18 14:30:26.546 [35] [FixSender] (DEBUG) Receiving 8=FIX.4.4|9=62|35=0|34=313|49=DMA_HUB|56=FIXCLIENT1|52=20231218-13:30:26.545|10=033|
2023-12-18 14:30:29.674 [36] [FixSender] (DEBUG) Sending 8=FIX.4.4|9=58|35=0|49=FIXCLIENT1|56=DMA_HUB|34=307|52=20231218-13:30:29|10=096|
2023-12-18 14:30:56.496 [35] [FixSender] (DEBUG) Receiving 8=FIX.4.4|9=62|35=0|34=314|49=DMA_HUB|56=FIXCLIENT1|52=20231218-13:30:56.495|10=041|
2023-12-18 14:30:59.683 [36] [FixSender] (DEBUG) Sending 8=FIX.4.4|9=58|35=0|49=FIXCLIENT1|56=DMA_HUB|34=308|52=20231218-13:30:59|10=100|
2023-12-18 14:31:26.450 [35] [FixSender] (DEBUG) Receiving 8=FIX.4.4|9=62|35=0|34=315|49=DMA_HUB|56=FIXCLIENT1|52=20231218-13:31:26.449|10=039|
2023-12-18 14:31:29.699 [36] [FixSender] (DEBUG) Sending 8=FIX.4.4|9=58|35=0|49=FIXCLIENT1|56=DMA_HUB|34=309|52=20231218-13:31:29|10=099|
2023-12-18 14:31:56.397 [35] [FixSender] (DEBUG) Receiving 8=FIX.4.4|9=62|35=0|34=316|49=DMA_HUB|56=FIXCLIENT1|52=20231218-13:31:56.396|10=044|
2023-12-18 14:31:59.709 [36] [FixSender] (DEBUG) Sending 8=FIX.4.4|9=58|35=0|49=FIXCLIENT1|56=DMA_HUB|34=310|52=20231218-13:31:59|10=094|
2023-12-18 14:32:26.352 [35] [FixSender] (DEBUG) Receiving 8=FIX.4.4|9=62|35=0|34=317|49=DMA_HUB|56=FIXCLIENT1|52=20231218-13:32:26.351|10=034|
2023-12-18 14:32:29.712 [36] [FixSender] (DEBUG) Sending 8=FIX.4.4|9=58|35=0|49=FIXCLIENT1|56=DMA_HUB|34=311|52=20231218-13:32:29|10=093|
2023-12-18 14:32:56.305 [35] [FixSender] (DEBUG) Receiving 8=FIX.4.4|9=62|35=0|34=318|49=DMA_HUB|56=FIXCLIENT1|52=20231218-13:32:56.304|10=036|
2023-12-18 14:32:59.715 [36] [FixSender] (DEBUG) Sending 8=FIX.4.4|9=58|35=0|49=FIXCLIENT1|56=DMA_HUB|34=312|52=20231218-13:32:59|10=097|
2023-12-18 14:33:26.258 [35] [FixSender] (DEBUG) Receiving 8=FIX.4.4|9=62|35=0|34=319|49=DMA_HUB|56=FIXCLIENT1|52=20231218-13:33:26.258|10=043|
2023-12-18 14:33:29.724 [36] [FixSender] (DEBUG) Sending 8=FIX.4.4|9=58|35=0|49=FIXCLIENT1|56=DMA_HUB|34=313|52=20231218-13:33:29|10=096|
2023-12-18 14:33:56.211 [35] [FixSender] (DEBUG) Receiving 8=FIX.4.4|9=62|35=0|34=320|49=DMA_HUB|56=FIXCLIENT1|52=20231218-13:33:56.210|10=026|
2023-12-18 14:33:59.733 [36] [FixSender] (DEBUG) Sending 8=FIX.4.4|9=58|35=0|49=FIXCLIENT1|56=DMA_HUB|34=314|52=20231218-13:33:59|10=100|
2023-12-18 14:34:26.178 [35] [FixSender] (DEBUG) Receiving 8=FIX.4.4|9=62|35=0|34=321|49=DMA_HUB|56=FIXCLIENT1|52=20231218-13:34:26.157|10=035|
2023-12-18 14:34:29.746 [36] [FixSender] (DEBUG) Sending 8=FIX.4.4|9=58|35=0|49=FIXCLIENT1|56=DMA_HUB|34=315|52=20231218-13:34:29|10=099|
2023-12-18 14:34:56.106 [35] [FixSender] (DEBUG) Receiving 8=FIX.4.4|9=62|35=0|34=322|49=DMA_HUB|56=FIXCLIENT1|52=20231218-13:34:56.106|10=033|
2023-12-18 14:34:59.756 [36] [FixSender] (DEBUG) Sending 8=FIX.4.4|9=58|35=0|49=FIXCLIENT1|56=DMA_HUB|34=316|52=20231218-13:34:59|10=103|
2023-12-18 14:35:26.060 [35] [FixSender] (DEBUG) Receiving 8=FIX.4.4|9=62|35=0|34=323|49=DMA_HUB|56=FIXCLIENT1|52=20231218-13:35:26.059|10=039|
2023-12-18 14:35:29.758 [36] [FixSender] (DEBUG) Sending 8=FIX.4.4|9=58|35=0|49=FIXCLIENT1|56=DMA_HUB|34=317|52=20231218-13:35:29|10=102|
2023-12-18 14:35:56.017 [35] [FixSender] (DEBUG) Receiving 8=FIX.4.4|9=62|35=0|34=324|49=DMA_HUB|56=FIXCLIENT1|52=20231218-13:35:56.016|10=036|
2023-12-18 14:35:59.772 [36] [FixSender] (DEBUG) Sending 8=FIX.4.4|9=58|35=0|49=FIXCLIENT1|56=DMA_HUB|34=318|52=20231218-13:35:59|10=106|
2023-12-18 14:36:25.972 [35] [FixSender] (DEBUG) Receiving 8=FIX.4.4|9=62|35=0|34=325|49=DMA_HUB|56=FIXCLIENT1|52=20231218-13:36:25.971|10=044|
2023-12-18 14:36:29.779 [36] [FixSender] (DEBUG) Sending 8=FIX.4.4|9=58|35=0|49=FIXCLIENT1|56=DMA_HUB|34=319|52=20231218-13:36:29|10=105|
2023-12-18 14:36:55.926 [35] [FixSender] (DEBUG) Receiving 8=FIX.4.4|9=62|35=0|34=326|49=DMA_HUB|56=FIXCLIENT1|52=20231218-13:36:55.925|10=047|
2023-12-18 14:36:59.796 [36] [FixSender] (DEBUG) Sending 8=FIX.4.4|9=58|35=0|49=FIXCLIENT1|56=DMA_HUB|34=320|52=20231218-13:36:59|10=100|
2023-12-18 14:37:25.874 [35] [FixSender] (DEBUG) Receiving 8=FIX.4.4|9=62|35=0|34=327|49=DMA_HUB|56=FIXCLIENT1|52=20231218-13:37:25.873|10=048|
2023-12-18 14:37:29.806 [36] [FixSender] (DEBUG) Sending 8=FIX.4.4|9=58|35=0|49=FIXCLIENT1|56=DMA_HUB|34=321|52=20231218-13:37:29|10=099|
2023-12-18 14:37:55.822 [35] [FixSender] (DEBUG) Receiving 8=FIX.4.4|9=62|35=0|34=328|49=DMA_HUB|56=FIXCLIENT1|52=20231218-13:37:55.819|10=052|
2023-12-18 14:37:59.810 [36] [FixSender] (DEBUG) Sending 8=FIX.4.4|9=58|35=0|49=FIXCLIENT1|56=DMA_HUB|34=322|52=20231218-13:37:59|10=103|
2023-12-18 14:38:25.774 [35] [FixSender] (DEBUG) Receiving 8=FIX.4.4|9=62|35=0|34=329|49=DMA_HUB|56=FIXCLIENT1|52=20231218-13:38:25.773|10=050|
2023-12-18 14:38:29.821 [36] [FixSender] (DEBUG) Sending 8=FIX.4.4|9=58|35=0|49=FIXCLIENT1|56=DMA_HUB|34=323|52=20231218-13:38:29|10=102|
2023-12-18 14:38:55.729 [35] [FixSender] (DEBUG) Receiving 8=FIX.4.4|9=62|35=0|34=330|49=DMA_HUB|56=FIXCLIENT1|52=20231218-13:38:55.727|10=044|
2023-12-18 14:38:59.828 [36] [FixSender] (DEBUG) Sending 8=FIX.4.4|9=58|35=0|49=FIXCLIENT1|56=DMA_HUB|34=324|52=20231218-13:38:59|10=106|
2023-12-18 14:39:25.678 [35] [FixSender] (DEBUG) Receiving 8=FIX.4.4|9=62|35=0|34=331|49=DMA_HUB|56=FIXCLIENT1|52=20231218-13:39:25.677|10=047|
2023-12-18 14:39:29.844 [36] [FixSender] (DEBUG) Sending 8=FIX.4.4|9=58|35=0|49=FIXCLIENT1|56=DMA_HUB|34=325|52=20231218-13:39:29|10=105|
2023-12-18 14:39:55.626 [35] [FixSender] (DEBUG) Receiving 8=FIX.4.4|9=62|35=0|34=332|49=DMA_HUB|56=FIXCLIENT1|52=20231218-13:39:55.626|10=045|
2023-12-18 14:39:59.848 [36] [FixSender] (DEBUG) Sending 8=FIX.4.4|9=58|35=0|49=FIXCLIENT1|56=DMA_HUB|34=326|52=20231218-13:39:59|10=109|
2023-12-18 14:40:25.579 [35] [FixSender] (DEBUG) Receiving 8=FIX.4.4|9=62|35=0|34=333|49=DMA_HUB|56=FIXCLIENT1|52=20231218-13:40:25.578|10=041|
2023-12-18 14:40:29.849 [36] [FixSender] (DEBUG) Sending 8=FIX.4.4|9=58|35=0|49=FIXCLIENT1|56=DMA_HUB|34=327|52=20231218-13:40:29|10=099|
2023-12-18 14:40:55.545 [35] [FixSender] (DEBUG) Receiving 8=FIX.4.4|9=62|35=0|34=334|49=DMA_HUB|56=FIXCLIENT1|52=20231218-13:40:55.544|10=038|
2023-12-18 14:40:59.853 [36] [FixSender] (DEBUG) Sending 8=FIX.4.4|9=58|35=0|49=FIXCLIENT1|56=DMA_HUB|34=328|52=20231218-13:40:59|10=103|
2023-12-18 14:41:25.489 [35] [FixSender] (DEBUG) Receiving 8=FIX.4.4|9=62|35=0|34=335|49=DMA_HUB|56=FIXCLIENT1|52=20231218-13:41:25.488|10=044|
2023-12-18 14:41:29.861 [36] [FixSender] (DEBUG) Sending 8=FIX.4.4|9=58|35=0|49=FIXCLIENT1|56=DMA_HUB|34=329|52=20231218-13:41:29|10=102|
2023-12-18 14:41:55.446 [35] [FixSender] (DEBUG) Receiving 8=FIX.4.4|9=62|35=0|34=336|49=DMA_HUB|56=FIXCLIENT1|52=20231218-13:41:55.445|10=041|
2023-12-18 14:41:59.872 [36] [FixSender] (DEBUG) Sending 8=FIX.4.4|9=58|35=0|49=FIXCLIENT1|56=DMA_HUB|34=330|52=20231218-13:41:59|10=097|
2023-12-18 14:42:25.395 [35] [FixSender] (DEBUG) Receiving 8=FIX.4.4|9=62|35=0|34=337|49=DMA_HUB|56=FIXCLIENT1|52=20231218-13:42:25.394|10=043|
2023-12-18 14:42:29.879 [36] [FixSender] (DEBUG) Sending 8=FIX.4.4|9=58|35=0|49=FIXCLIENT1|56=DMA_HUB|34=331|52=20231218-13:42:29|10=096|
2023-12-18 14:42:55.344 [35] [FixSender] (DEBUG) Receiving 8=FIX.4.4|9=62|35=0|34=338|49=DMA_HUB|56=FIXCLIENT1|52=20231218-13:42:55.343|10=041|
2023-12-18 14:42:59.881 [36] [FixSender] (DEBUG) Sending 8=FIX.4.4|9=58|35=0|49=FIXCLIENT1|56=DMA_HUB|34=332|52=20231218-13:42:59|10=100|
2023-12-18 14:43:25.297 [35] [FixSender] (DEBUG) Receiving 8=FIX.4.4|9=62|35=0|34=339|49=DMA_HUB|56=FIXCLIENT1|52=20231218-13:43:25.296|10=047|
2023-12-18 14:43:29.892 [36] [FixSender] (DEBUG) Sending 8=FIX.4.4|9=58|35=0|49=FIXCLIENT1|56=DMA_HUB|34=333|52=20231218-13:43:29|10=099|
2023-12-18 14:43:55.253 [35] [FixSender] (DEBUG) Receiving 8=FIX.4.4|9=62|35=0|34=340|49=DMA_HUB|56=FIXCLIENT1|52=20231218-13:43:55.253|10=035|
2023-12-18 14:43:59.907 [36] [FixSender] (DEBUG) Sending 8=FIX.4.4|9=58|35=0|49=FIXCLIENT1|56=DMA_HUB|34=334|52=20231218-13:43:59|10=103|
2023-12-18 14:44:25.198 [35] [FixSender] (DEBUG) Receiving 8=FIX.4.4|9=62|35=0|34=341|49=DMA_HUB|56=FIXCLIENT1|52=20231218-13:44:25.197|10=041|
2023-12-18 14:44:29.916 [36] [FixSender] (DEBUG) Sending 8=FIX.4.4|9=58|35=0|49=FIXCLIENT1|56=DMA_HUB|34=335|52=20231218-13:44:29|10=102|
