2023-11-22 10:34:02.116 [1] [Fixsender] (INFO) (c) 2001-2011 ullink SAS. FixSender. Release 1.11.
2023-11-22 10:34:08.900 [29] [FixSender] (INFO) try to connect to : localhost port :12345
2023-11-22 10:34:08.943 [29] [FixSender] (INFO) physical cnx initiated
2023-11-22 10:34:08.986 [29] [FixSender] (DEBUG) Sending 8=FIX.4.4|9=87|35=A|49=FIXCLIENT1|56=DMA_HUB|34=89|52=20231122-09:34:08|98=0|108=30|95=9|96=null/null|10=154|
2023-11-22 10:34:09.002 [29] [FixSender] (DEBUG) Receiving 8=FIX.4.4|9=72|35=A|34=1|49=DMA_HUB|56=FIXCLIENT1|52=20231122-09:34:08.992|108=30|98=0|10=239|
2023-11-22 10:34:09.005 [29] [FixSender] (DEBUG) Sending 8=FIX.4.4|9=108|35=5|49=FIXCLIENT1|56=DMA_HUB|34=90|52=20231122-09:34:09|58=MsgSeqNum expected 90, but MsgSeqNum received 1|10=118|
2023-11-22 10:34:09.009 [29] [FixSender] (INFO) physical cnx finished Connection reset by peer
2023-11-22 10:34:09.011 [29] [FixSender] (WARNING) Disconnected
2023-11-22 10:34:12.087 [32] [FixSender] (INFO) try to connect to : localhost port :12345
2023-11-22 10:34:12.088 [32] [FixSender] (INFO) physical cnx initiated
2023-11-22 10:34:12.098 [32] [FixSender] (DEBUG) Sending 8=FIX.4.4|9=87|35=A|49=FIXCLIENT1|56=DMA_HUB|34=91|52=20231122-09:34:12|98=0|108=30|95=9|96=null/null|10=142|
2023-11-22 10:34:12.102 [32] [FixSender] (DEBUG) Receiving 8=FIX.4.4|9=72|35=A|34=4|49=DMA_HUB|56=FIXCLIENT1|52=20231122-09:34:12.098|108=30|98=0|10=234|
2023-11-22 10:34:12.103 [32] [FixSender] (DEBUG) Sending 8=FIX.4.4|9=108|35=5|49=FIXCLIENT1|56=DMA_HUB|34=92|52=20231122-09:34:12|58=MsgSeqNum expected 90, but MsgSeqNum received 4|10=117|
2023-11-22 10:34:12.111 [32] [FixSender] (INFO) physical cnx finished Connection reset by peer
2023-11-22 10:34:12.112 [32] [FixSender] (WARNING) Disconnected
2023-11-22 10:34:12.861 [35] [FixSender] (INFO) try to connect to : localhost port :12345
2023-11-22 10:34:12.862 [35] [FixSender] (INFO) physical cnx initiated
2023-11-22 10:34:12.868 [35] [FixSender] (DEBUG) Sending 8=FIX.4.4|9=87|35=A|49=FIXCLIENT1|56=DMA_HUB|34=93|52=20231122-09:34:12|98=0|108=30|95=9|96=null/null|10=144|
2023-11-22 10:34:12.871 [35] [FixSender] (INFO) physical cnx finished Connection reset by peer
2023-11-22 10:34:12.872 [35] [FixSender] (WARNING) Disconnected
2023-11-22 10:34:15.317 [37] [FixSender] (INFO) try to connect to : localhost port :12345
2023-11-22 10:34:15.318 [37] [FixSender] (INFO) physical cnx initiated
2023-11-22 10:34:15.329 [37] [FixSender] (DEBUG) Sending 8=FIX.4.4|9=86|35=A|49=FIXCLIENT1|56=DMA_HUB|34=1|52=20231122-09:34:15|98=0|108=30|95=9|96=null/null|10=087|
2023-11-22 10:34:15.332 [37] [FixSender] (DEBUG) Receiving 8=FIX.4.4|9=72|35=A|34=7|49=DMA_HUB|56=FIXCLIENT1|52=20231122-09:34:15.330|108=30|98=0|10=229|
2023-11-22 10:34:15.333 [37] [FixSender] (WARNING) The Fix connection is open...
2023-11-22 10:34:15.345 [37] [FixSender] (DEBUG) Sending 8=FIX.4.4|9=65|35=2|49=FIXCLIENT1|56=DMA_HUB|34=2|52=20231122-09:34:15|7=1|16=0|10=113|
2023-11-22 10:34:15.349 [37] [FixSender] (DEBUG) Receiving 8=FIX.4.4|9=102|35=4|34=1|49=DMA_HUB|56=FIXCLIENT1|52=20231122-09:34:15.348|43=Y|122=20231122-09:34:15.348|36=8|123=Y|10=250|
2023-11-22 10:34:45.294 [37] [FixSender] (DEBUG) Receiving 8=FIX.4.4|9=60|35=0|34=8|49=DMA_HUB|56=FIXCLIENT1|52=20231122-09:34:45.291|10=194|
2023-11-22 10:34:45.363 [38] [FixSender] (DEBUG) Sending 8=FIX.4.4|9=56|35=0|49=FIXCLIENT1|56=DMA_HUB|34=3|52=20231122-09:34:45|10=248|
2023-11-22 10:35:15.245 [37] [FixSender] (DEBUG) Receiving 8=FIX.4.4|9=60|35=0|34=9|49=DMA_HUB|56=FIXCLIENT1|52=20231122-09:35:15.243|10=190|
2023-11-22 10:35:15.374 [38] [FixSender] (DEBUG) Sending 8=FIX.4.4|9=56|35=0|49=FIXCLIENT1|56=DMA_HUB|34=4|52=20231122-09:35:15|10=247|
2023-11-22 10:35:45.196 [37] [FixSender] (DEBUG) Receiving 8=FIX.4.4|9=61|35=0|34=10|49=DMA_HUB|56=FIXCLIENT1|52=20231122-09:35:45.195|10=240|
2023-11-22 10:35:45.379 [38] [FixSender] (DEBUG) Sending 8=FIX.4.4|9=56|35=0|49=FIXCLIENT1|56=DMA_HUB|34=5|52=20231122-09:35:45|10=251|
2023-11-22 10:36:15.146 [37] [FixSender] (DEBUG) Receiving 8=FIX.4.4|9=61|35=0|34=11|49=DMA_HUB|56=FIXCLIENT1|52=20231122-09:36:15.146|10=235|
2023-11-22 10:36:15.396 [38] [FixSender] (DEBUG) Sending 8=FIX.4.4|9=56|35=0|49=FIXCLIENT1|56=DMA_HUB|34=6|52=20231122-09:36:15|10=250|
2023-11-22 10:36:45.099 [37] [FixSender] (DEBUG) Receiving 8=FIX.4.4|9=61|35=0|34=12|49=DMA_HUB|56=FIXCLIENT1|52=20231122-09:36:45.098|10=245|
2023-11-22 10:36:45.409 [38] [FixSender] (DEBUG) Sending 8=FIX.4.4|9=56|35=0|49=FIXCLIENT1|56=DMA_HUB|34=7|52=20231122-09:36:45|10=254|
2023-11-22 10:37:15.052 [37] [FixSender] (DEBUG) Receiving 8=FIX.4.4|9=61|35=0|34=13|49=DMA_HUB|56=FIXCLIENT1|52=20231122-09:37:15.051|10=233|
2023-11-22 10:37:15.416 [38] [FixSender] (DEBUG) Sending 8=FIX.4.4|9=56|35=0|49=FIXCLIENT1|56=DMA_HUB|34=8|52=20231122-09:37:15|10=253|
2023-11-22 10:37:45.005 [37] [FixSender] (DEBUG) Receiving 8=FIX.4.4|9=61|35=0|34=14|49=DMA_HUB|56=FIXCLIENT1|52=20231122-09:37:45.004|10=235|
2023-11-22 10:37:45.421 [38] [FixSender] (DEBUG) Sending 8=FIX.4.4|9=56|35=0|49=FIXCLIENT1|56=DMA_HUB|34=9|52=20231122-09:37:45|10=001|
2023-11-22 10:38:14.956 [37] [FixSender] (DEBUG) Receiving 8=FIX.4.4|9=61|35=0|34=15|49=DMA_HUB|56=FIXCLIENT1|52=20231122-09:38:14.955|10=248|
2023-11-22 10:38:15.433 [38] [FixSender] (DEBUG) Sending 8=FIX.4.4|9=57|35=0|49=FIXCLIENT1|56=DMA_HUB|34=10|52=20231122-09:38:15|10=040|
2023-11-22 10:38:44.909 [37] [FixSender] (DEBUG) Receiving 8=FIX.4.4|9=61|35=0|34=16|49=DMA_HUB|56=FIXCLIENT1|52=20231122-09:38:44.906|10=248|
2023-11-22 10:38:45.438 [38] [FixSender] (DEBUG) Sending 8=FIX.4.4|9=57|35=0|49=FIXCLIENT1|56=DMA_HUB|34=11|52=20231122-09:38:45|10=044|
2023-11-22 10:39:14.859 [37] [FixSender] (DEBUG) Receiving 8=FIX.4.4|9=61|35=0|34=17|49=DMA_HUB|56=FIXCLIENT1|52=20231122-09:39:14.858|10=253|
2023-11-22 10:39:15.449 [38] [FixSender] (DEBUG) Sending 8=FIX.4.4|9=57|35=0|49=FIXCLIENT1|56=DMA_HUB|34=12|52=20231122-09:39:15|10=043|
2023-11-22 10:39:44.812 [37] [FixSender] (DEBUG) Receiving 8=FIX.4.4|9=61|35=0|34=18|49=DMA_HUB|56=FIXCLIENT1|52=20231122-09:39:44.811|10=246|
2023-11-22 10:39:45.466 [38] [FixSender] (DEBUG) Sending 8=FIX.4.4|9=57|35=0|49=FIXCLIENT1|56=DMA_HUB|34=13|52=20231122-09:39:45|10=047|
2023-11-22 10:40:14.764 [37] [FixSender] (DEBUG) Receiving 8=FIX.4.4|9=61|35=0|34=19|49=DMA_HUB|56=FIXCLIENT1|52=20231122-09:40:14.763|10=242|
2023-11-22 10:40:15.472 [38] [FixSender] (DEBUG) Sending 8=FIX.4.4|9=57|35=0|49=FIXCLIENT1|56=DMA_HUB|34=14|52=20231122-09:40:15|10=037|
2023-11-22 10:40:44.715 [37] [FixSender] (DEBUG) Receiving 8=FIX.4.4|9=61|35=0|34=20|49=DMA_HUB|56=FIXCLIENT1|52=20231122-09:40:44.714|10=233|
2023-11-22 10:40:45.485 [38] [FixSender] (DEBUG) Sending 8=FIX.4.4|9=57|35=0|49=FIXCLIENT1|56=DMA_HUB|34=15|52=20231122-09:40:45|10=041|
2023-11-22 10:41:14.668 [37] [FixSender] (DEBUG) Receiving 8=FIX.4.4|9=61|35=0|34=21|49=DMA_HUB|56=FIXCLIENT1|52=20231122-09:41:14.666|10=238|
2023-11-22 10:41:15.497 [38] [FixSender] (DEBUG) Sending 8=FIX.4.4|9=57|35=0|49=FIXCLIENT1|56=DMA_HUB|34=16|52=20231122-09:41:15|10=040|
2023-11-22 10:41:44.619 [37] [FixSender] (DEBUG) Receiving 8=FIX.4.4|9=61|35=0|34=22|49=DMA_HUB|56=FIXCLIENT1|52=20231122-09:41:44.618|10=239|
2023-11-22 10:41:45.507 [38] [FixSender] (DEBUG) Sending 8=FIX.4.4|9=57|35=0|49=FIXCLIENT1|56=DMA_HUB|34=17|52=20231122-09:41:45|10=044|
2023-11-22 10:42:14.572 [37] [FixSender] (DEBUG) Receiving 8=FIX.4.4|9=61|35=0|34=23|49=DMA_HUB|56=FIXCLIENT1|52=20231122-09:42:14.570|10=235|
2023-11-22 10:42:15.508 [38] [FixSender] (DEBUG) Sending 8=FIX.4.4|9=57|35=0|49=FIXCLIENT1|56=DMA_HUB|34=18|52=20231122-09:42:15|10=043|
2023-11-22 10:42:44.524 [37] [FixSender] (DEBUG) Receiving 8=FIX.4.4|9=61|35=0|34=24|49=DMA_HUB|56=FIXCLIENT1|52=20231122-09:42:44.523|10=237|
2023-11-22 10:42:45.510 [38] [FixSender] (DEBUG) Sending 8=FIX.4.4|9=57|35=0|49=FIXCLIENT1|56=DMA_HUB|34=19|52=20231122-09:42:45|10=047|
2023-11-22 10:43:14.476 [37] [FixSender] (DEBUG) Receiving 8=FIX.4.4|9=61|35=0|34=25|49=DMA_HUB|56=FIXCLIENT1|52=20231122-09:43:14.474|10=241|
2023-11-22 10:43:15.515 [38] [FixSender] (DEBUG) Sending 8=FIX.4.4|9=57|35=0|49=FIXCLIENT1|56=DMA_HUB|34=20|52=20231122-09:43:15|10=037|
2023-11-22 10:43:44.427 [37] [FixSender] (DEBUG) Receiving 8=FIX.4.4|9=61|35=0|34=26|49=DMA_HUB|56=FIXCLIENT1|52=20231122-09:43:44.426|10=242|
2023-11-22 10:43:45.515 [38] [FixSender] (DEBUG) Sending 8=FIX.4.4|9=57|35=0|49=FIXCLIENT1|56=DMA_HUB|34=21|52=20231122-09:43:45|10=041|
2023-11-22 10:44:14.379 [37] [FixSender] (DEBUG) Receiving 8=FIX.4.4|9=61|35=0|34=27|49=DMA_HUB|56=FIXCLIENT1|52=20231122-09:44:14.378|10=247|
2023-11-22 10:44:15.516 [38] [FixSender] (DEBUG) Sending 8=FIX.4.4|9=57|35=0|49=FIXCLIENT1|56=DMA_HUB|34=22|52=20231122-09:44:15|10=040|
2023-11-22 10:44:44.331 [37] [FixSender] (DEBUG) Receiving 8=FIX.4.4|9=61|35=0|34=28|49=DMA_HUB|56=FIXCLIENT1|52=20231122-09:44:44.331|10=240|
2023-11-22 10:44:45.519 [38] [FixSender] (DEBUG) Sending 8=FIX.4.4|9=57|35=0|49=FIXCLIENT1|56=DMA_HUB|34=23|52=20231122-09:44:45|10=044|
2023-11-22 10:45:14.283 [37] [FixSender] (DEBUG) Receiving 8=FIX.4.4|9=61|35=0|34=29|49=DMA_HUB|56=FIXCLIENT1|52=20231122-09:45:14.282|10=244|
2023-11-22 10:45:15.522 [38] [FixSender] (DEBUG) Sending 8=FIX.4.4|9=57|35=0|49=FIXCLIENT1|56=DMA_HUB|34=24|52=20231122-09:45:15|10=043|
2023-11-22 10:45:44.235 [37] [FixSender] (DEBUG) Receiving 8=FIX.4.4|9=61|35=0|34=30|49=DMA_HUB|56=FIXCLIENT1|52=20231122-09:45:44.234|10=236|
2023-11-22 10:45:45.534 [38] [FixSender] (DEBUG) Sending 8=FIX.4.4|9=57|35=0|49=FIXCLIENT1|56=DMA_HUB|34=25|52=20231122-09:45:45|10=047|
2023-11-22 10:46:14.188 [37] [FixSender] (DEBUG) Receiving 8=FIX.4.4|9=61|35=0|34=31|49=DMA_HUB|56=FIXCLIENT1|52=20231122-09:46:14.187|10=242|
2023-11-22 10:46:15.539 [38] [FixSender] (DEBUG) Sending 8=FIX.4.4|9=57|35=0|49=FIXCLIENT1|56=DMA_HUB|34=26|52=20231122-09:46:15|10=046|
2023-11-22 10:46:44.140 [37] [FixSender] (DEBUG) Receiving 8=FIX.4.4|9=61|35=0|34=32|49=DMA_HUB|56=FIXCLIENT1|52=20231122-09:46:44.139|10=243|
2023-11-22 10:46:45.542 [38] [FixSender] (DEBUG) Sending 8=FIX.4.4|9=57|35=0|49=FIXCLIENT1|56=DMA_HUB|34=27|52=20231122-09:46:45|10=050|
2023-11-22 10:47:14.090 [37] [FixSender] (DEBUG) Receiving 8=FIX.4.4|9=61|35=0|34=33|49=DMA_HUB|56=FIXCLIENT1|52=20231122-09:47:14.090|10=238|
2023-11-22 10:47:15.544 [38] [FixSender] (DEBUG) Sending 8=FIX.4.4|9=57|35=0|49=FIXCLIENT1|56=DMA_HUB|34=28|52=20231122-09:47:15|10=049|
2023-11-22 10:47:44.044 [37] [FixSender] (DEBUG) Receiving 8=FIX.4.4|9=61|35=0|34=34|49=DMA_HUB|56=FIXCLIENT1|52=20231122-09:47:44.043|10=240|
2023-11-22 10:47:45.545 [38] [FixSender] (DEBUG) Sending 8=FIX.4.4|9=57|35=0|49=FIXCLIENT1|56=DMA_HUB|34=29|52=20231122-09:47:45|10=053|
2023-11-22 10:48:13.995 [37] [FixSender] (DEBUG) Receiving 8=FIX.4.4|9=61|35=0|34=35|49=DMA_HUB|56=FIXCLIENT1|52=20231122-09:48:13.994|10=253|
2023-11-22 10:48:15.546 [38] [FixSender] (DEBUG) Sending 8=FIX.4.4|9=57|35=0|49=FIXCLIENT1|56=DMA_HUB|34=30|52=20231122-09:48:15|10=043|
2023-11-22 10:48:43.948 [37] [FixSender] (DEBUG) Receiving 8=FIX.4.4|9=61|35=0|34=36|49=DMA_HUB|56=FIXCLIENT1|52=20231122-09:48:43.946|10=254|
2023-11-22 10:48:45.548 [38] [FixSender] (DEBUG) Sending 8=FIX.4.4|9=57|35=0|49=FIXCLIENT1|56=DMA_HUB|34=31|52=20231122-09:48:45|10=047|
2023-11-22 10:49:13.899 [37] [FixSender] (DEBUG) Receiving 8=FIX.4.4|9=61|35=0|34=37|49=DMA_HUB|56=FIXCLIENT1|52=20231122-09:49:13.899|10=004|
2023-11-22 10:49:15.557 [38] [FixSender] (DEBUG) Sending 8=FIX.4.4|9=57|35=0|49=FIXCLIENT1|56=DMA_HUB|34=32|52=20231122-09:49:15|10=046|
2023-11-22 10:49:43.852 [37] [FixSender] (DEBUG) Receiving 8=FIX.4.4|9=61|35=0|34=38|49=DMA_HUB|56=FIXCLIENT1|52=20231122-09:49:43.851|10=252|
2023-11-22 10:49:45.558 [38] [FixSender] (DEBUG) Sending 8=FIX.4.4|9=57|35=0|49=FIXCLIENT1|56=DMA_HUB|34=33|52=20231122-09:49:45|10=050|
2023-11-22 10:50:13.803 [37] [FixSender] (DEBUG) Receiving 8=FIX.4.4|9=61|35=0|34=39|49=DMA_HUB|56=FIXCLIENT1|52=20231122-09:50:13.802|10=238|
2023-11-22 10:50:15.560 [38] [FixSender] (DEBUG) Sending 8=FIX.4.4|9=57|35=0|49=FIXCLIENT1|56=DMA_HUB|34=34|52=20231122-09:50:15|10=040|
2023-11-22 10:50:43.756 [37] [FixSender] (DEBUG) Receiving 8=FIX.4.4|9=61|35=0|34=40|49=DMA_HUB|56=FIXCLIENT1|52=20231122-09:50:43.755|10=240|
2023-11-22 10:50:45.562 [38] [FixSender] (DEBUG) Sending 8=FIX.4.4|9=57|35=0|49=FIXCLIENT1|56=DMA_HUB|34=35|52=20231122-09:50:45|10=044|
2023-11-22 10:51:13.707 [37] [FixSender] (DEBUG) Receiving 8=FIX.4.4|9=61|35=0|34=41|49=DMA_HUB|56=FIXCLIENT1|52=20231122-09:51:13.706|10=235|
2023-11-22 10:51:15.566 [38] [FixSender] (DEBUG) Sending 8=FIX.4.4|9=57|35=0|49=FIXCLIENT1|56=DMA_HUB|34=36|52=20231122-09:51:15|10=043|
2023-11-22 10:51:43.659 [37] [FixSender] (DEBUG) Receiving 8=FIX.4.4|9=61|35=0|34=42|49=DMA_HUB|56=FIXCLIENT1|52=20231122-09:51:43.658|10=245|
2023-11-22 10:51:45.566 [38] [FixSender] (DEBUG) Sending 8=FIX.4.4|9=57|35=0|49=FIXCLIENT1|56=DMA_HUB|34=37|52=20231122-09:51:45|10=047|
2023-11-22 10:52:13.612 [37] [FixSender] (DEBUG) Receiving 8=FIX.4.4|9=61|35=0|34=43|49=DMA_HUB|56=FIXCLIENT1|52=20231122-09:52:13.611|10=233|
2023-11-22 10:52:15.568 [38] [FixSender] (DEBUG) Sending 8=FIX.4.4|9=57|35=0|49=FIXCLIENT1|56=DMA_HUB|34=38|52=20231122-09:52:15|10=046|
2023-11-22 10:52:43.565 [37] [FixSender] (DEBUG) Receiving 8=FIX.4.4|9=61|35=0|34=44|49=DMA_HUB|56=FIXCLIENT1|52=20231122-09:52:43.564|10=244|
2023-11-22 10:52:45.582 [38] [FixSender] (DEBUG) Sending 8=FIX.4.4|9=57|35=0|49=FIXCLIENT1|56=DMA_HUB|34=39|52=20231122-09:52:45|10=050|
2023-11-22 10:53:13.516 [37] [FixSender] (DEBUG) Receiving 8=FIX.4.4|9=61|35=0|34=45|49=DMA_HUB|56=FIXCLIENT1|52=20231122-09:53:13.515|10=239|
2023-11-22 10:53:15.585 [38] [FixSender] (DEBUG) Sending 8=FIX.4.4|9=57|35=0|49=FIXCLIENT1|56=DMA_HUB|34=40|52=20231122-09:53:15|10=040|
2023-11-22 10:53:43.468 [37] [FixSender] (DEBUG) Receiving 8=FIX.4.4|9=61|35=0|34=46|49=DMA_HUB|56=FIXCLIENT1|52=20231122-09:53:43.467|10=249|
2023-11-22 10:53:45.588 [38] [FixSender] (DEBUG) Sending 8=FIX.4.4|9=57|35=0|49=FIXCLIENT1|56=DMA_HUB|34=41|52=20231122-09:53:45|10=044|
2023-11-22 10:54:13.421 [37] [FixSender] (DEBUG) Receiving 8=FIX.4.4|9=61|35=0|34=47|49=DMA_HUB|56=FIXCLIENT1|52=20231122-09:54:13.419|10=245|
2023-11-22 10:54:15.590 [38] [FixSender] (DEBUG) Sending 8=FIX.4.4|9=57|35=0|49=FIXCLIENT1|56=DMA_HUB|34=42|52=20231122-09:54:15|10=043|
2023-11-22 10:54:43.372 [37] [FixSender] (DEBUG) Receiving 8=FIX.4.4|9=61|35=0|34=48|49=DMA_HUB|56=FIXCLIENT1|52=20231122-09:54:43.371|10=246|
2023-11-22 10:54:45.593 [38] [FixSender] (DEBUG) Sending 8=FIX.4.4|9=57|35=0|49=FIXCLIENT1|56=DMA_HUB|34=43|52=20231122-09:54:45|10=047|
2023-11-22 10:55:13.324 [37] [FixSender] (DEBUG) Receiving 8=FIX.4.4|9=61|35=0|34=49|49=DMA_HUB|56=FIXCLIENT1|52=20231122-09:55:13.323|10=242|
2023-11-22 10:55:15.609 [38] [FixSender] (DEBUG) Sending 8=FIX.4.4|9=57|35=0|49=FIXCLIENT1|56=DMA_HUB|34=44|52=20231122-09:55:15|10=046|
2023-11-22 10:55:43.276 [37] [FixSender] (DEBUG) Receiving 8=FIX.4.4|9=61|35=0|34=50|49=DMA_HUB|56=FIXCLIENT1|52=20231122-09:55:43.275|10=243|
2023-11-22 10:55:45.611 [38] [FixSender] (DEBUG) Sending 8=FIX.4.4|9=57|35=0|49=FIXCLIENT1|56=DMA_HUB|34=45|52=20231122-09:55:45|10=050|
2023-11-22 10:56:13.235 [37] [FixSender] (DEBUG) Receiving 8=FIX.4.4|9=61|35=0|34=51|49=DMA_HUB|56=FIXCLIENT1|52=20231122-09:56:13.231|10=234|
2023-11-22 10:56:15.615 [38] [FixSender] (DEBUG) Sending 8=FIX.4.4|9=57|35=0|49=FIXCLIENT1|56=DMA_HUB|34=46|52=20231122-09:56:15|10=049|
2023-11-22 10:56:43.180 [37] [FixSender] (DEBUG) Receiving 8=FIX.4.4|9=61|35=0|34=52|49=DMA_HUB|56=FIXCLIENT1|52=20231122-09:56:43.179|10=249|
2023-11-22 10:56:45.618 [38] [FixSender] (DEBUG) Sending 8=FIX.4.4|9=57|35=0|49=FIXCLIENT1|56=DMA_HUB|34=47|52=20231122-09:56:45|10=053|
2023-11-22 10:57:13.132 [37] [FixSender] (DEBUG) Receiving 8=FIX.4.4|9=61|35=0|34=53|49=DMA_HUB|56=FIXCLIENT1|52=20231122-09:57:13.131|10=236|
2023-11-22 10:57:15.620 [38] [FixSender] (DEBUG) Sending 8=FIX.4.4|9=57|35=0|49=FIXCLIENT1|56=DMA_HUB|34=48|52=20231122-09:57:15|10=052|
2023-11-22 10:57:43.083 [37] [FixSender] (DEBUG) Receiving 8=FIX.4.4|9=61|35=0|34=54|49=DMA_HUB|56=FIXCLIENT1|52=20231122-09:57:43.082|10=245|
2023-11-22 10:57:45.624 [38] [FixSender] (DEBUG) Sending 8=FIX.4.4|9=57|35=0|49=FIXCLIENT1|56=DMA_HUB|34=49|52=20231122-09:57:45|10=056|
2023-11-22 10:58:13.038 [37] [FixSender] (DEBUG) Receiving 8=FIX.4.4|9=61|35=0|34=55|49=DMA_HUB|56=FIXCLIENT1|52=20231122-09:58:13.036|10=243|
2023-11-22 10:58:15.627 [38] [FixSender] (DEBUG) Sending 8=FIX.4.4|9=57|35=0|49=FIXCLIENT1|56=DMA_HUB|34=50|52=20231122-09:58:15|10=046|
2023-11-22 10:58:42.988 [37] [FixSender] (DEBUG) Receiving 8=FIX.4.4|9=61|35=0|34=56|49=DMA_HUB|56=FIXCLIENT1|52=20231122-09:58:42.987|10=005|
2023-11-22 10:58:45.639 [38] [FixSender] (DEBUG) Sending 8=FIX.4.4|9=57|35=0|49=FIXCLIENT1|56=DMA_HUB|34=51|52=20231122-09:58:45|10=050|
2023-11-22 10:59:12.941 [37] [FixSender] (DEBUG) Receiving 8=FIX.4.4|9=61|35=0|34=57|49=DMA_HUB|56=FIXCLIENT1|52=20231122-09:59:12.939|10=001|
2023-11-22 10:59:15.641 [38] [FixSender] (DEBUG) Sending 8=FIX.4.4|9=57|35=0|49=FIXCLIENT1|56=DMA_HUB|34=52|52=20231122-09:59:15|10=049|
2023-11-22 10:59:42.892 [37] [FixSender] (DEBUG) Receiving 8=FIX.4.4|9=61|35=0|34=58|49=DMA_HUB|56=FIXCLIENT1|52=20231122-09:59:42.891|10=002|
2023-11-22 10:59:45.644 [38] [FixSender] (DEBUG) Sending 8=FIX.4.4|9=57|35=0|49=FIXCLIENT1|56=DMA_HUB|34=53|52=20231122-09:59:45|10=053|
2023-11-22 11:00:12.844 [37] [FixSender] (DEBUG) Receiving 8=FIX.4.4|9=61|35=0|34=59|49=DMA_HUB|56=FIXCLIENT1|52=20231122-10:00:12.843|10=231|
2023-11-22 11:00:15.645 [38] [FixSender] (DEBUG) Sending 8=FIX.4.4|9=57|35=0|49=FIXCLIENT1|56=DMA_HUB|34=54|52=20231122-10:00:15|10=029|
2023-11-22 11:00:42.795 [37] [FixSender] (DEBUG) Receiving 8=FIX.4.4|9=61|35=0|34=60|49=DMA_HUB|56=FIXCLIENT1|52=20231122-10:00:42.795|10=232|
2023-11-22 11:00:45.647 [38] [FixSender] (DEBUG) Sending 8=FIX.4.4|9=57|35=0|49=FIXCLIENT1|56=DMA_HUB|34=55|52=20231122-10:00:45|10=033|
2023-11-22 11:01:12.748 [37] [FixSender] (DEBUG) Receiving 8=FIX.4.4|9=61|35=0|34=61|49=DMA_HUB|56=FIXCLIENT1|52=20231122-10:01:12.747|10=228|
2023-11-22 11:01:15.652 [38] [FixSender] (DEBUG) Sending 8=FIX.4.4|9=57|35=0|49=FIXCLIENT1|56=DMA_HUB|34=56|52=20231122-10:01:15|10=032|
2023-11-22 11:01:42.700 [37] [FixSender] (DEBUG) Receiving 8=FIX.4.4|9=61|35=0|34=62|49=DMA_HUB|56=FIXCLIENT1|52=20231122-10:01:42.699|10=238|
2023-11-22 11:01:45.653 [38] [FixSender] (DEBUG) Sending 8=FIX.4.4|9=57|35=0|49=FIXCLIENT1|56=DMA_HUB|34=57|52=20231122-10:01:45|10=036|
2023-11-22 11:02:12.650 [37] [FixSender] (DEBUG) Receiving 8=FIX.4.4|9=61|35=0|34=63|49=DMA_HUB|56=FIXCLIENT1|52=20231122-10:02:12.650|10=224|
2023-11-22 11:02:15.654 [38] [FixSender] (DEBUG) Sending 8=FIX.4.4|9=57|35=0|49=FIXCLIENT1|56=DMA_HUB|34=58|52=20231122-10:02:15|10=035|
2023-11-22 11:02:42.604 [37] [FixSender] (DEBUG) Receiving 8=FIX.4.4|9=61|35=0|34=64|49=DMA_HUB|56=FIXCLIENT1|52=20231122-10:02:42.603|10=226|
2023-11-22 11:02:45.657 [38] [FixSender] (DEBUG) Sending 8=FIX.4.4|9=57|35=0|49=FIXCLIENT1|56=DMA_HUB|34=59|52=20231122-10:02:45|10=039|
2023-11-22 11:03:12.556 [37] [FixSender] (DEBUG) Receiving 8=FIX.4.4|9=61|35=0|34=65|49=DMA_HUB|56=FIXCLIENT1|52=20231122-10:03:12.554|10=230|
2023-11-22 11:03:15.659 [38] [FixSender] (DEBUG) Sending 8=FIX.4.4|9=57|35=0|49=FIXCLIENT1|56=DMA_HUB|34=60|52=20231122-10:03:15|10=029|
2023-11-22 11:03:42.508 [37] [FixSender] (DEBUG) Receiving 8=FIX.4.4|9=61|35=0|34=66|49=DMA_HUB|56=FIXCLIENT1|52=20231122-10:03:42.507|10=232|
2023-11-22 11:03:45.662 [38] [FixSender] (DEBUG) Sending 8=FIX.4.4|9=57|35=0|49=FIXCLIENT1|56=DMA_HUB|34=61|52=20231122-10:03:45|10=033|
2023-11-22 11:04:12.459 [37] [FixSender] (DEBUG) Receiving 8=FIX.4.4|9=61|35=0|34=67|49=DMA_HUB|56=FIXCLIENT1|52=20231122-10:04:12.458|10=236|
2023-11-22 11:04:15.665 [38] [FixSender] (DEBUG) Sending 8=FIX.4.4|9=57|35=0|49=FIXCLIENT1|56=DMA_HUB|34=62|52=20231122-10:04:15|10=032|
2023-11-22 11:04:42.411 [37] [FixSender] (DEBUG) Receiving 8=FIX.4.4|9=61|35=0|34=68|49=DMA_HUB|56=FIXCLIENT1|52=20231122-10:04:42.411|10=229|
2023-11-22 11:04:45.666 [38] [FixSender] (DEBUG) Sending 8=FIX.4.4|9=57|35=0|49=FIXCLIENT1|56=DMA_HUB|34=63|52=20231122-10:04:45|10=036|
2023-11-22 11:05:12.364 [37] [FixSender] (DEBUG) Receiving 8=FIX.4.4|9=61|35=0|34=69|49=DMA_HUB|56=FIXCLIENT1|52=20231122-10:05:12.362|10=233|
2023-11-22 11:05:15.668 [38] [FixSender] (DEBUG) Sending 8=FIX.4.4|9=57|35=0|49=FIXCLIENT1|56=DMA_HUB|34=64|52=20231122-10:05:15|10=035|
2023-11-22 11:05:42.316 [37] [FixSender] (DEBUG) Receiving 8=FIX.4.4|9=61|35=0|34=70|49=DMA_HUB|56=FIXCLIENT1|52=20231122-10:05:42.315|10=226|
2023-11-22 11:05:45.669 [38] [FixSender] (DEBUG) Sending 8=FIX.4.4|9=57|35=0|49=FIXCLIENT1|56=DMA_HUB|34=65|52=20231122-10:05:45|10=039|
2023-11-22 11:06:12.268 [37] [FixSender] (DEBUG) Receiving 8=FIX.4.4|9=61|35=0|34=71|49=DMA_HUB|56=FIXCLIENT1|52=20231122-10:06:12.266|10=230|
2023-11-22 11:06:15.670 [38] [FixSender] (DEBUG) Sending 8=FIX.4.4|9=57|35=0|49=FIXCLIENT1|56=DMA_HUB|34=66|52=20231122-10:06:15|10=038|
2023-11-22 11:06:42.219 [37] [FixSender] (DEBUG) Receiving 8=FIX.4.4|9=61|35=0|34=72|49=DMA_HUB|56=FIXCLIENT1|52=20231122-10:06:42.218|10=231|
2023-11-22 11:06:45.672 [38] [FixSender] (DEBUG) Sending 8=FIX.4.4|9=57|35=0|49=FIXCLIENT1|56=DMA_HUB|34=67|52=20231122-10:06:45|10=042|
2023-11-22 11:07:12.172 [37] [FixSender] (DEBUG) Receiving 8=FIX.4.4|9=61|35=0|34=73|49=DMA_HUB|56=FIXCLIENT1|52=20231122-10:07:12.171|10=228|
2023-11-22 11:07:15.674 [38] [FixSender] (DEBUG) Sending 8=FIX.4.4|9=57|35=0|49=FIXCLIENT1|56=DMA_HUB|34=68|52=20231122-10:07:15|10=041|
2023-11-22 11:07:42.124 [37] [FixSender] (DEBUG) Receiving 8=FIX.4.4|9=61|35=0|34=74|49=DMA_HUB|56=FIXCLIENT1|52=20231122-10:07:42.123|10=229|
2023-11-22 11:07:45.678 [38] [FixSender] (DEBUG) Sending 8=FIX.4.4|9=57|35=0|49=FIXCLIENT1|56=DMA_HUB|34=69|52=20231122-10:07:45|10=045|
2023-11-22 11:08:12.076 [37] [FixSender] (DEBUG) Receiving 8=FIX.4.4|9=61|35=0|34=75|49=DMA_HUB|56=FIXCLIENT1|52=20231122-10:08:12.075|10=234|
2023-11-22 11:08:15.679 [38] [FixSender] (DEBUG) Sending 8=FIX.4.4|9=57|35=0|49=FIXCLIENT1|56=DMA_HUB|34=70|52=20231122-10:08:15|10=035|
2023-11-22 11:08:42.026 [37] [FixSender] (DEBUG) Receiving 8=FIX.4.4|9=61|35=0|34=76|49=DMA_HUB|56=FIXCLIENT1|52=20231122-10:08:42.026|10=234|
2023-11-22 11:08:45.680 [38] [FixSender] (DEBUG) Sending 8=FIX.4.4|9=57|35=0|49=FIXCLIENT1|56=DMA_HUB|34=71|52=20231122-10:08:45|10=039|
2023-11-22 11:09:11.979 [37] [FixSender] (DEBUG) Receiving 8=FIX.4.4|9=61|35=0|34=77|49=DMA_HUB|56=FIXCLIENT1|52=20231122-10:09:11.978|10=248|
2023-11-22 11:09:15.683 [38] [FixSender] (DEBUG) Sending 8=FIX.4.4|9=57|35=0|49=FIXCLIENT1|56=DMA_HUB|34=72|52=20231122-10:09:15|10=038|
2023-11-22 11:09:41.933 [37] [FixSender] (DEBUG) Receiving 8=FIX.4.4|9=61|35=0|34=78|49=DMA_HUB|56=FIXCLIENT1|52=20231122-10:09:41.932|10=242|
2023-11-22 11:09:45.685 [38] [FixSender] (DEBUG) Sending 8=FIX.4.4|9=57|35=0|49=FIXCLIENT1|56=DMA_HUB|34=73|52=20231122-10:09:45|10=042|
2023-11-22 11:10:11.883 [37] [FixSender] (DEBUG) Receiving 8=FIX.4.4|9=61|35=0|34=79|49=DMA_HUB|56=FIXCLIENT1|52=20231122-10:10:11.882|10=236|
2023-11-22 11:10:15.688 [38] [FixSender] (DEBUG) Sending 8=FIX.4.4|9=57|35=0|49=FIXCLIENT1|56=DMA_HUB|34=74|52=20231122-10:10:15|10=032|
2023-11-22 11:10:41.835 [37] [FixSender] (DEBUG) Receiving 8=FIX.4.4|9=61|35=0|34=80|49=DMA_HUB|56=FIXCLIENT1|52=20231122-10:10:41.834|10=228|
2023-11-22 11:10:45.690 [38] [FixSender] (DEBUG) Sending 8=FIX.4.4|9=57|35=0|49=FIXCLIENT1|56=DMA_HUB|34=75|52=20231122-10:10:45|10=036|
2023-11-22 11:11:11.787 [37] [FixSender] (DEBUG) Receiving 8=FIX.4.4|9=61|35=0|34=81|49=DMA_HUB|56=FIXCLIENT1|52=20231122-10:11:11.787|10=234|
2023-11-22 11:11:15.692 [38] [FixSender] (DEBUG) Sending 8=FIX.4.4|9=57|35=0|49=FIXCLIENT1|56=DMA_HUB|34=76|52=20231122-10:11:15|10=035|
2023-11-22 11:11:41.741 [37] [FixSender] (DEBUG) Receiving 8=FIX.4.4|9=61|35=0|34=82|49=DMA_HUB|56=FIXCLIENT1|52=20231122-10:11:41.739|10=235|
2023-11-22 11:11:45.693 [38] [FixSender] (DEBUG) Sending 8=FIX.4.4|9=57|35=0|49=FIXCLIENT1|56=DMA_HUB|34=77|52=20231122-10:11:45|10=039|
2023-11-22 11:12:11.691 [37] [FixSender] (DEBUG) Receiving 8=FIX.4.4|9=61|35=0|34=83|49=DMA_HUB|56=FIXCLIENT1|52=20231122-10:12:11.690|10=230|
2023-11-22 11:12:15.694 [38] [FixSender] (DEBUG) Sending 8=FIX.4.4|9=57|35=0|49=FIXCLIENT1|56=DMA_HUB|34=78|52=20231122-10:12:15|10=038|
2023-11-22 11:12:41.644 [37] [FixSender] (DEBUG) Receiving 8=FIX.4.4|9=61|35=0|34=84|49=DMA_HUB|56=FIXCLIENT1|52=20231122-10:12:41.643|10=232|
2023-11-22 11:12:45.696 [38] [FixSender] (DEBUG) Sending 8=FIX.4.4|9=57|35=0|49=FIXCLIENT1|56=DMA_HUB|34=79|52=20231122-10:12:45|10=042|
2023-11-22 11:13:11.595 [37] [FixSender] (DEBUG) Receiving 8=FIX.4.4|9=61|35=0|34=85|49=DMA_HUB|56=FIXCLIENT1|52=20231122-10:13:11.594|10=236|
2023-11-22 11:13:15.698 [38] [FixSender] (DEBUG) Sending 8=FIX.4.4|9=57|35=0|49=FIXCLIENT1|56=DMA_HUB|34=80|52=20231122-10:13:15|10=032|
2023-11-22 11:13:41.548 [37] [FixSender] (DEBUG) Receiving 8=FIX.4.4|9=61|35=0|34=86|49=DMA_HUB|56=FIXCLIENT1|52=20231122-10:13:41.547|10=238|
2023-11-22 11:13:45.701 [38] [FixSender] (DEBUG) Sending 8=FIX.4.4|9=57|35=0|49=FIXCLIENT1|56=DMA_HUB|34=81|52=20231122-10:13:45|10=036|
2023-11-22 11:14:11.499 [37] [FixSender] (DEBUG) Receiving 8=FIX.4.4|9=61|35=0|34=87|49=DMA_HUB|56=FIXCLIENT1|52=20231122-10:14:11.498|10=242|
2023-11-22 11:14:15.702 [38] [FixSender] (DEBUG) Sending 8=FIX.4.4|9=57|35=0|49=FIXCLIENT1|56=DMA_HUB|34=82|52=20231122-10:14:15|10=035|
2023-11-22 11:14:41.466 [37] [FixSender] (DEBUG) Receiving 8=FIX.4.4|9=61|35=0|34=88|49=DMA_HUB|56=FIXCLIENT1|52=20231122-10:14:41.465|10=240|
2023-11-22 11:14:45.715 [38] [FixSender] (DEBUG) Sending 8=FIX.4.4|9=57|35=0|49=FIXCLIENT1|56=DMA_HUB|34=83|52=20231122-10:14:45|10=039|
2023-11-22 11:15:11.404 [37] [FixSender] (DEBUG) Receiving 8=FIX.4.4|9=61|35=0|34=89|49=DMA_HUB|56=FIXCLIENT1|52=20231122-10:15:11.403|10=231|
2023-11-22 11:15:15.744 [38] [FixSender] (DEBUG) Sending 8=FIX.4.4|9=57|35=0|49=FIXCLIENT1|56=DMA_HUB|34=84|52=20231122-10:15:15|10=038|
2023-11-22 11:15:41.365 [37] [FixSender] (DEBUG) Receiving 8=FIX.4.4|9=61|35=0|34=90|49=DMA_HUB|56=FIXCLIENT1|52=20231122-10:15:41.364|10=232|
2023-11-22 11:15:45.751 [38] [FixSender] (DEBUG) Sending 8=FIX.4.4|9=57|35=0|49=FIXCLIENT1|56=DMA_HUB|34=85|52=20231122-10:15:45|10=042|
2023-11-22 11:16:11.313 [37] [FixSender] (DEBUG) Receiving 8=FIX.4.4|9=61|35=0|34=91|49=DMA_HUB|56=FIXCLIENT1|52=20231122-10:16:11.312|10=224|
2023-11-22 11:16:15.759 [38] [FixSender] (DEBUG) Sending 8=FIX.4.4|9=57|35=0|49=FIXCLIENT1|56=DMA_HUB|34=86|52=20231122-10:16:15|10=041|
2023-11-22 11:16:41.259 [37] [FixSender] (DEBUG) Receiving 8=FIX.4.4|9=61|35=0|34=92|49=DMA_HUB|56=FIXCLIENT1|52=20231122-10:16:41.258|10=237|
2023-11-22 11:16:45.769 [38] [FixSender] (DEBUG) Sending 8=FIX.4.4|9=57|35=0|49=FIXCLIENT1|56=DMA_HUB|34=87|52=20231122-10:16:45|10=045|
2023-11-22 11:17:11.221 [37] [FixSender] (DEBUG) Receiving 8=FIX.4.4|9=61|35=0|34=93|49=DMA_HUB|56=FIXCLIENT1|52=20231122-10:17:11.220|10=225|
2023-11-22 11:17:15.771 [38] [FixSender] (DEBUG) Sending 8=FIX.4.4|9=57|35=0|49=FIXCLIENT1|56=DMA_HUB|34=88|52=20231122-10:17:15|10=044|
2023-11-22 11:17:41.166 [37] [FixSender] (DEBUG) Receiving 8=FIX.4.4|9=61|35=0|34=94|49=DMA_HUB|56=FIXCLIENT1|52=20231122-10:17:41.165|10=237|
2023-11-22 11:17:45.783 [38] [FixSender] (DEBUG) Sending 8=FIX.4.4|9=57|35=0|49=FIXCLIENT1|56=DMA_HUB|34=89|52=20231122-10:17:45|10=048|
2023-11-22 11:18:11.118 [37] [FixSender] (DEBUG) Receiving 8=FIX.4.4|9=61|35=0|34=95|49=DMA_HUB|56=FIXCLIENT1|52=20231122-10:18:11.116|10=232|
2023-11-22 11:18:15.795 [38] [FixSender] (DEBUG) Sending 8=FIX.4.4|9=57|35=0|49=FIXCLIENT1|56=DMA_HUB|34=90|52=20231122-10:18:15|10=038|
2023-11-22 11:18:41.079 [37] [FixSender] (DEBUG) Receiving 8=FIX.4.4|9=61|35=0|34=96|49=DMA_HUB|56=FIXCLIENT1|52=20231122-10:18:41.078|10=243|
2023-11-22 11:18:45.808 [38] [FixSender] (DEBUG) Sending 8=FIX.4.4|9=57|35=0|49=FIXCLIENT1|56=DMA_HUB|34=91|52=20231122-10:18:45|10=042|
2023-11-22 11:19:11.028 [37] [FixSender] (DEBUG) Receiving 8=FIX.4.4|9=61|35=0|34=97|49=DMA_HUB|56=FIXCLIENT1|52=20231122-10:19:11.027|10=236|
2023-11-22 11:19:15.820 [38] [FixSender] (DEBUG) Sending 8=FIX.4.4|9=57|35=0|49=FIXCLIENT1|56=DMA_HUB|34=92|52=20231122-10:19:15|10=041|
2023-11-22 11:19:40.979 [37] [FixSender] (DEBUG) Receiving 8=FIX.4.4|9=61|35=0|34=98|49=DMA_HUB|56=FIXCLIENT1|52=20231122-10:19:40.978|10=254|
2023-11-22 11:19:45.830 [38] [FixSender] (DEBUG) Sending 8=FIX.4.4|9=57|35=0|49=FIXCLIENT1|56=DMA_HUB|34=93|52=20231122-10:19:45|10=045|
2023-11-22 11:20:10.924 [37] [FixSender] (DEBUG) Receiving 8=FIX.4.4|9=61|35=0|34=99|49=DMA_HUB|56=FIXCLIENT1|52=20231122-10:20:10.923|10=234|
2023-11-22 11:20:15.840 [38] [FixSender] (DEBUG) Sending 8=FIX.4.4|9=57|35=0|49=FIXCLIENT1|56=DMA_HUB|34=94|52=20231122-10:20:15|10=035|
2023-11-22 11:20:40.878 [37] [FixSender] (DEBUG) Receiving 8=FIX.4.4|9=62|35=0|34=100|49=DMA_HUB|56=FIXCLIENT1|52=20231122-10:20:40.877|10=021|
2023-11-22 11:20:45.845 [38] [FixSender] (DEBUG) Sending 8=FIX.4.4|9=57|35=0|49=FIXCLIENT1|56=DMA_HUB|34=95|52=20231122-10:20:45|10=039|
2023-11-22 11:21:10.827 [37] [FixSender] (DEBUG) Receiving 8=FIX.4.4|9=62|35=0|34=101|49=DMA_HUB|56=FIXCLIENT1|52=20231122-10:21:10.826|10=014|
2023-11-22 11:21:15.849 [38] [FixSender] (DEBUG) Sending 8=FIX.4.4|9=57|35=0|49=FIXCLIENT1|56=DMA_HUB|34=96|52=20231122-10:21:15|10=038|
2023-11-22 11:21:40.791 [37] [FixSender] (DEBUG) Receiving 8=FIX.4.4|9=62|35=0|34=102|49=DMA_HUB|56=FIXCLIENT1|52=20231122-10:21:40.790|10=018|
2023-11-22 11:21:45.865 [38] [FixSender] (DEBUG) Sending 8=FIX.4.4|9=57|35=0|49=FIXCLIENT1|56=DMA_HUB|34=97|52=20231122-10:21:45|10=042|
2023-11-22 11:22:10.742 [37] [FixSender] (DEBUG) Receiving 8=FIX.4.4|9=62|35=0|34=103|49=DMA_HUB|56=FIXCLIENT1|52=20231122-10:22:10.740|10=012|
2023-11-22 11:22:15.876 [38] [FixSender] (DEBUG) Sending 8=FIX.4.4|9=57|35=0|49=FIXCLIENT1|56=DMA_HUB|34=98|52=20231122-10:22:15|10=041|
2023-11-22 11:22:40.688 [37] [FixSender] (DEBUG) Receiving 8=FIX.4.4|9=62|35=0|34=104|49=DMA_HUB|56=FIXCLIENT1|52=20231122-10:22:40.687|10=026|
2023-11-22 11:22:45.882 [38] [FixSender] (DEBUG) Sending 8=FIX.4.4|9=57|35=0|49=FIXCLIENT1|56=DMA_HUB|34=99|52=20231122-10:22:45|10=045|
2023-11-22 11:23:10.636 [37] [FixSender] (DEBUG) Receiving 8=FIX.4.4|9=62|35=0|34=105|49=DMA_HUB|56=FIXCLIENT1|52=20231122-10:23:10.636|10=019|
2023-11-22 11:23:15.889 [38] [FixSender] (DEBUG) Sending 8=FIX.4.4|9=58|35=0|49=FIXCLIENT1|56=DMA_HUB|34=100|52=20231122-10:23:15|10=075|
2023-11-22 11:23:40.594 [37] [FixSender] (DEBUG) Receiving 8=FIX.4.4|9=62|35=0|34=106|49=DMA_HUB|56=FIXCLIENT1|52=20231122-10:23:40.593|10=025|
2023-11-22 11:23:45.892 [38] [FixSender] (DEBUG) Sending 8=FIX.4.4|9=58|35=0|49=FIXCLIENT1|56=DMA_HUB|34=101|52=20231122-10:23:45|10=079|
2023-11-22 11:24:10.553 [37] [FixSender] (DEBUG) Receiving 8=FIX.4.4|9=62|35=0|34=107|49=DMA_HUB|56=FIXCLIENT1|52=20231122-10:24:10.552|10=019|
2023-11-22 11:24:15.893 [38] [FixSender] (DEBUG) Sending 8=FIX.4.4|9=58|35=0|49=FIXCLIENT1|56=DMA_HUB|34=102|52=20231122-10:24:15|10=078|
2023-11-22 11:24:40.501 [37] [FixSender] (DEBUG) Receiving 8=FIX.4.4|9=62|35=0|34=108|49=DMA_HUB|56=FIXCLIENT1|52=20231122-10:24:40.500|10=016|
2023-11-22 11:24:45.905 [38] [FixSender] (DEBUG) Sending 8=FIX.4.4|9=58|35=0|49=FIXCLIENT1|56=DMA_HUB|34=103|52=20231122-10:24:45|10=082|
2023-11-22 11:25:10.452 [37] [FixSender] (DEBUG) Receiving 8=FIX.4.4|9=62|35=0|34=109|49=DMA_HUB|56=FIXCLIENT1|52=20231122-10:25:10.451|10=020|
2023-11-22 11:25:15.917 [38] [FixSender] (DEBUG) Sending 8=FIX.4.4|9=58|35=0|49=FIXCLIENT1|56=DMA_HUB|34=104|52=20231122-10:25:15|10=081|
2023-11-22 11:25:40.406 [37] [FixSender] (DEBUG) Receiving 8=FIX.4.4|9=62|35=0|34=110|49=DMA_HUB|56=FIXCLIENT1|52=20231122-10:25:40.405|10=014|
2023-11-22 11:25:45.934 [38] [FixSender] (DEBUG) Sending 8=FIX.4.4|9=58|35=0|49=FIXCLIENT1|56=DMA_HUB|34=105|52=20231122-10:25:45|10=085|
2023-11-22 11:26:10.356 [37] [FixSender] (DEBUG) Receiving 8=FIX.4.4|9=62|35=0|34=111|49=DMA_HUB|56=FIXCLIENT1|52=20231122-10:26:10.353|10=015|
2023-11-22 11:26:15.946 [38] [FixSender] (DEBUG) Sending 8=FIX.4.4|9=58|35=0|49=FIXCLIENT1|56=DMA_HUB|34=106|52=20231122-10:26:15|10=084|
2023-11-22 11:26:40.307 [37] [FixSender] (DEBUG) Receiving 8=FIX.4.4|9=62|35=0|34=112|49=DMA_HUB|56=FIXCLIENT1|52=20231122-10:26:40.306|10=017|
2023-11-22 11:26:45.951 [38] [FixSender] (DEBUG) Sending 8=FIX.4.4|9=58|35=0|49=FIXCLIENT1|56=DMA_HUB|34=107|52=20231122-10:26:45|10=088|
2023-11-22 11:27:10.253 [37] [FixSender] (DEBUG) Receiving 8=FIX.4.4|9=62|35=0|34=113|49=DMA_HUB|56=FIXCLIENT1|52=20231122-10:27:10.252|10=016|
2023-11-22 11:27:15.962 [38] [FixSender] (DEBUG) Sending 8=FIX.4.4|9=58|35=0|49=FIXCLIENT1|56=DMA_HUB|34=108|52=20231122-10:27:15|10=087|
2023-11-22 11:27:40.213 [37] [FixSender] (DEBUG) Receiving 8=FIX.4.4|9=62|35=0|34=114|49=DMA_HUB|56=FIXCLIENT1|52=20231122-10:27:40.212|10=016|
2023-11-22 11:27:45.975 [38] [FixSender] (DEBUG) Sending 8=FIX.4.4|9=58|35=0|49=FIXCLIENT1|56=DMA_HUB|34=109|52=20231122-10:27:45|10=091|
2023-11-22 11:28:10.166 [37] [FixSender] (DEBUG) Receiving 8=FIX.4.4|9=62|35=0|34=115|49=DMA_HUB|56=FIXCLIENT1|52=20231122-10:28:10.164|10=021|
2023-11-22 11:28:15.988 [38] [FixSender] (DEBUG) Sending 8=FIX.4.4|9=58|35=0|49=FIXCLIENT1|56=DMA_HUB|34=110|52=20231122-10:28:15|10=081|
2023-11-22 11:28:40.115 [37] [FixSender] (DEBUG) Receiving 8=FIX.4.4|9=62|35=0|34=116|49=DMA_HUB|56=FIXCLIENT1|52=20231122-10:28:40.114|10=020|
2023-11-22 11:28:45.992 [38] [FixSender] (DEBUG) Sending 8=FIX.4.4|9=58|35=0|49=FIXCLIENT1|56=DMA_HUB|34=111|52=20231122-10:28:45|10=085|
2023-11-22 11:29:10.069 [37] [FixSender] (DEBUG) Receiving 8=FIX.4.4|9=62|35=0|34=117|49=DMA_HUB|56=FIXCLIENT1|52=20231122-10:29:10.068|10=027|
2023-11-22 11:29:15.995 [38] [FixSender] (DEBUG) Sending 8=FIX.4.4|9=58|35=0|49=FIXCLIENT1|56=DMA_HUB|34=112|52=20231122-10:29:15|10=084|
2023-11-22 11:29:40.015 [37] [FixSender] (DEBUG) Receiving 8=FIX.4.4|9=62|35=0|34=118|49=DMA_HUB|56=FIXCLIENT1|52=20231122-10:29:40.014|10=022|
2023-11-22 11:29:46.011 [38] [FixSender] (DEBUG) Sending 8=FIX.4.4|9=58|35=0|49=FIXCLIENT1|56=DMA_HUB|34=113|52=20231122-10:29:46|10=089|
2023-11-22 11:30:09.973 [37] [FixSender] (DEBUG) Receiving 8=FIX.4.4|9=62|35=0|34=119|49=DMA_HUB|56=FIXCLIENT1|52=20231122-10:30:09.972|10=033|
2023-11-22 11:30:16.023 [38] [FixSender] (DEBUG) Sending 8=FIX.4.4|9=58|35=0|49=FIXCLIENT1|56=DMA_HUB|34=114|52=20231122-10:30:16|10=079|
2023-11-22 11:30:39.927 [37] [FixSender] (DEBUG) Receiving 8=FIX.4.4|9=62|35=0|34=120|49=DMA_HUB|56=FIXCLIENT1|52=20231122-10:30:39.926|10=027|
2023-11-22 11:30:46.038 [38] [FixSender] (DEBUG) Sending 8=FIX.4.4|9=58|35=0|49=FIXCLIENT1|56=DMA_HUB|34=115|52=20231122-10:30:46|10=083|
2023-11-22 11:31:09.873 [37] [FixSender] (DEBUG) Receiving 8=FIX.4.4|9=62|35=0|34=121|49=DMA_HUB|56=FIXCLIENT1|52=20231122-10:31:09.872|10=026|
2023-11-22 11:31:16.051 [38] [FixSender] (DEBUG) Sending 8=FIX.4.4|9=58|35=0|49=FIXCLIENT1|56=DMA_HUB|34=116|52=20231122-10:31:16|10=082|
2023-11-22 11:31:39.821 [37] [FixSender] (DEBUG) Receiving 8=FIX.4.4|9=62|35=0|34=122|49=DMA_HUB|56=FIXCLIENT1|52=20231122-10:31:39.820|10=023|
2023-11-22 11:31:46.059 [38] [FixSender] (DEBUG) Sending 8=FIX.4.4|9=58|35=0|49=FIXCLIENT1|56=DMA_HUB|34=117|52=20231122-10:31:46|10=086|
2023-11-22 11:32:09.779 [37] [FixSender] (DEBUG) Receiving 8=FIX.4.4|9=62|35=0|34=123|49=DMA_HUB|56=FIXCLIENT1|52=20231122-10:32:09.779|10=035|
2023-11-22 11:32:16.068 [38] [FixSender] (DEBUG) Sending 8=FIX.4.4|9=58|35=0|49=FIXCLIENT1|56=DMA_HUB|34=118|52=20231122-10:32:16|10=085|
2023-11-22 11:32:39.729 [37] [FixSender] (DEBUG) Receiving 8=FIX.4.4|9=62|35=0|34=124|49=DMA_HUB|56=FIXCLIENT1|52=20231122-10:32:39.729|10=034|
2023-11-22 11:32:46.074 [38] [FixSender] (DEBUG) Sending 8=FIX.4.4|9=58|35=0|49=FIXCLIENT1|56=DMA_HUB|34=119|52=20231122-10:32:46|10=089|
2023-11-22 11:33:09.695 [37] [FixSender] (DEBUG) Receiving 8=FIX.4.4|9=62|35=0|34=125|49=DMA_HUB|56=FIXCLIENT1|52=20231122-10:33:09.678|10=036|
2023-11-22 11:33:16.078 [38] [FixSender] (DEBUG) Sending 8=FIX.4.4|9=58|35=0|49=FIXCLIENT1|56=DMA_HUB|34=120|52=20231122-10:33:16|10=079|
2023-11-22 11:33:39.631 [37] [FixSender] (DEBUG) Receiving 8=FIX.4.4|9=62|35=0|34=126|49=DMA_HUB|56=FIXCLIENT1|52=20231122-10:33:39.630|10=028|
2023-11-22 11:33:46.087 [38] [FixSender] (DEBUG) Sending 8=FIX.4.4|9=58|35=0|49=FIXCLIENT1|56=DMA_HUB|34=121|52=20231122-10:33:46|10=083|
2023-11-22 11:34:09.592 [37] [FixSender] (DEBUG) Receiving 8=FIX.4.4|9=62|35=0|34=127|49=DMA_HUB|56=FIXCLIENT1|52=20231122-10:34:09.591|10=033|
2023-11-22 11:34:16.091 [38] [FixSender] (DEBUG) Sending 8=FIX.4.4|9=58|35=0|49=FIXCLIENT1|56=DMA_HUB|34=122|52=20231122-10:34:16|10=082|
2023-11-22 11:34:39.533 [37] [FixSender] (DEBUG) Receiving 8=FIX.4.4|9=62|35=0|34=128|49=DMA_HUB|56=FIXCLIENT1|52=20231122-10:34:39.533|10=033|
2023-11-22 11:34:46.098 [38] [FixSender] (DEBUG) Sending 8=FIX.4.4|9=58|35=0|49=FIXCLIENT1|56=DMA_HUB|34=123|52=20231122-10:34:46|10=086|
2023-11-22 11:35:09.484 [37] [FixSender] (DEBUG) Receiving 8=FIX.4.4|9=62|35=0|34=129|49=DMA_HUB|56=FIXCLIENT1|52=20231122-10:35:09.483|10=036|
2023-11-22 11:35:16.106 [38] [FixSender] (DEBUG) Sending 8=FIX.4.4|9=58|35=0|49=FIXCLIENT1|56=DMA_HUB|34=124|52=20231122-10:35:16|10=085|
2023-11-22 11:35:39.448 [37] [FixSender] (DEBUG) Receiving 8=FIX.4.4|9=62|35=0|34=130|49=DMA_HUB|56=FIXCLIENT1|52=20231122-10:35:39.447|10=031|
2023-11-22 11:35:46.108 [38] [FixSender] (DEBUG) Sending 8=FIX.4.4|9=58|35=0|49=FIXCLIENT1|56=DMA_HUB|34=125|52=20231122-10:35:46|10=089|
2023-11-22 11:36:09.398 [37] [FixSender] (DEBUG) Receiving 8=FIX.4.4|9=62|35=0|34=131|49=DMA_HUB|56=FIXCLIENT1|52=20231122-10:36:09.397|10=034|
2023-11-22 11:36:16.117 [38] [FixSender] (DEBUG) Sending 8=FIX.4.4|9=58|35=0|49=FIXCLIENT1|56=DMA_HUB|34=126|52=20231122-10:36:16|10=088|
2023-11-22 11:36:39.352 [37] [FixSender] (DEBUG) Receiving 8=FIX.4.4|9=62|35=0|34=132|49=DMA_HUB|56=FIXCLIENT1|52=20231122-10:36:39.351|10=028|
2023-11-22 11:36:46.127 [38] [FixSender] (DEBUG) Sending 8=FIX.4.4|9=58|35=0|49=FIXCLIENT1|56=DMA_HUB|34=127|52=20231122-10:36:46|10=092|
2023-11-22 11:37:09.298 [37] [FixSender] (DEBUG) Receiving 8=FIX.4.4|9=62|35=0|34=133|49=DMA_HUB|56=FIXCLIENT1|52=20231122-10:37:09.297|10=036|
2023-11-22 11:37:16.131 [38] [FixSender] (DEBUG) Sending 8=FIX.4.4|9=58|35=0|49=FIXCLIENT1|56=DMA_HUB|34=128|52=20231122-10:37:16|10=091|
2023-11-22 11:37:39.253 [37] [FixSender] (DEBUG) Receiving 8=FIX.4.4|9=62|35=0|34=134|49=DMA_HUB|56=FIXCLIENT1|52=20231122-10:37:39.253|10=032|
2023-11-22 11:37:46.145 [38] [FixSender] (DEBUG) Sending 8=FIX.4.4|9=58|35=0|49=FIXCLIENT1|56=DMA_HUB|34=129|52=20231122-10:37:46|10=095|
2023-11-22 11:38:09.200 [37] [FixSender] (DEBUG) Receiving 8=FIX.4.4|9=62|35=0|34=135|49=DMA_HUB|56=FIXCLIENT1|52=20231122-10:38:09.199|10=040|
2023-11-22 11:38:16.154 [38] [FixSender] (DEBUG) Sending 8=FIX.4.4|9=58|35=0|49=FIXCLIENT1|56=DMA_HUB|34=130|52=20231122-10:38:16|10=085|
2023-11-22 11:38:39.147 [37] [FixSender] (DEBUG) Receiving 8=FIX.4.4|9=62|35=0|34=136|49=DMA_HUB|56=FIXCLIENT1|52=20231122-10:38:39.147|10=037|
2023-11-22 11:38:46.159 [38] [FixSender] (DEBUG) Sending 8=FIX.4.4|9=58|35=0|49=FIXCLIENT1|56=DMA_HUB|34=131|52=20231122-10:38:46|10=089|
2023-11-22 11:39:09.112 [37] [FixSender] (DEBUG) Receiving 8=FIX.4.4|9=62|35=0|34=137|49=DMA_HUB|56=FIXCLIENT1|52=20231122-10:39:09.111|10=027|
2023-11-22 11:39:16.171 [38] [FixSender] (DEBUG) Sending 8=FIX.4.4|9=58|35=0|49=FIXCLIENT1|56=DMA_HUB|34=132|52=20231122-10:39:16|10=088|
2023-11-22 11:39:39.054 [37] [FixSender] (DEBUG) Receiving 8=FIX.4.4|9=62|35=0|34=138|49=DMA_HUB|56=FIXCLIENT1|52=20231122-10:39:39.053|10=036|
2023-11-22 11:39:46.187 [38] [FixSender] (DEBUG) Sending 8=FIX.4.4|9=58|35=0|49=FIXCLIENT1|56=DMA_HUB|34=133|52=20231122-10:39:46|10=092|
2023-11-22 11:40:09.017 [37] [FixSender] (DEBUG) Receiving 8=FIX.4.4|9=62|35=0|34=139|49=DMA_HUB|56=FIXCLIENT1|52=20231122-10:40:09.016|10=025|
2023-11-22 11:40:16.201 [38] [FixSender] (DEBUG) Sending 8=FIX.4.4|9=58|35=0|49=FIXCLIENT1|56=DMA_HUB|34=134|52=20231122-10:40:16|10=082|
2023-11-22 11:40:38.968 [37] [FixSender] (DEBUG) Receiving 8=FIX.4.4|9=62|35=0|34=140|49=DMA_HUB|56=FIXCLIENT1|52=20231122-10:40:38.967|10=034|
2023-11-22 11:40:46.211 [38] [FixSender] (DEBUG) Sending 8=FIX.4.4|9=58|35=0|49=FIXCLIENT1|56=DMA_HUB|34=135|52=20231122-10:40:46|10=086|
2023-11-22 11:41:08.915 [37] [FixSender] (DEBUG) Receiving 8=FIX.4.4|9=62|35=0|34=141|49=DMA_HUB|56=FIXCLIENT1|52=20231122-10:41:08.915|10=026|
2023-11-22 11:41:16.211 [38] [FixSender] (DEBUG) Sending 8=FIX.4.4|9=58|35=0|49=FIXCLIENT1|56=DMA_HUB|34=136|52=20231122-10:41:16|10=085|
2023-11-22 11:41:38.868 [37] [FixSender] (DEBUG) Receiving 8=FIX.4.4|9=62|35=0|34=142|49=DMA_HUB|56=FIXCLIENT1|52=20231122-10:41:38.867|10=036|
2023-11-22 11:41:46.228 [38] [FixSender] (DEBUG) Sending 8=FIX.4.4|9=58|35=0|49=FIXCLIENT1|56=DMA_HUB|34=137|52=20231122-10:41:46|10=089|
2023-11-22 11:42:08.811 [37] [FixSender] (DEBUG) Receiving 8=FIX.4.4|9=62|35=0|34=143|49=DMA_HUB|56=FIXCLIENT1|52=20231122-10:42:08.811|10=024|
2023-11-22 11:42:16.232 [38] [FixSender] (DEBUG) Sending 8=FIX.4.4|9=58|35=0|49=FIXCLIENT1|56=DMA_HUB|34=138|52=20231122-10:42:16|10=088|
2023-11-22 11:42:38.775 [37] [FixSender] (DEBUG) Receiving 8=FIX.4.4|9=62|35=0|34=144|49=DMA_HUB|56=FIXCLIENT1|52=20231122-10:42:38.774|10=036|
2023-11-22 11:42:46.246 [38] [FixSender] (DEBUG) Sending 8=FIX.4.4|9=58|35=0|49=FIXCLIENT1|56=DMA_HUB|34=139|52=20231122-10:42:46|10=092|
2023-11-22 11:43:08.722 [37] [FixSender] (DEBUG) Receiving 8=FIX.4.4|9=62|35=0|34=145|49=DMA_HUB|56=FIXCLIENT1|52=20231122-10:43:08.721|10=027|
2023-11-22 11:43:16.261 [38] [FixSender] (DEBUG) Sending 8=FIX.4.4|9=58|35=0|49=FIXCLIENT1|56=DMA_HUB|34=140|52=20231122-10:43:16|10=082|
2023-11-22 11:43:38.678 [37] [FixSender] (DEBUG) Receiving 8=FIX.4.4|9=62|35=0|34=146|49=DMA_HUB|56=FIXCLIENT1|52=20231122-10:43:38.678|10=042|
2023-11-22 11:43:46.274 [38] [FixSender] (DEBUG) Sending 8=FIX.4.4|9=58|35=0|49=FIXCLIENT1|56=DMA_HUB|34=141|52=20231122-10:43:46|10=086|
2023-11-22 11:44:08.650 [37] [FixSender] (DEBUG) Receiving 8=FIX.4.4|9=62|35=0|34=147|49=DMA_HUB|56=FIXCLIENT1|52=20231122-10:44:08.621|10=029|
2023-11-22 11:44:16.286 [38] [FixSender] (DEBUG) Sending 8=FIX.4.4|9=58|35=0|49=FIXCLIENT1|56=DMA_HUB|34=142|52=20231122-10:44:16|10=085|
2023-11-22 11:44:38.572 [37] [FixSender] (DEBUG) Receiving 8=FIX.4.4|9=62|35=0|34=148|49=DMA_HUB|56=FIXCLIENT1|52=20231122-10:44:38.571|10=037|
2023-11-22 11:44:46.300 [38] [FixSender] (DEBUG) Sending 8=FIX.4.4|9=58|35=0|49=FIXCLIENT1|56=DMA_HUB|34=143|52=20231122-10:44:46|10=089|
2023-11-22 11:45:08.525 [37] [FixSender] (DEBUG) Receiving 8=FIX.4.4|9=62|35=0|34=149|49=DMA_HUB|56=FIXCLIENT1|52=20231122-10:45:08.524|10=034|
2023-11-22 11:45:16.311 [38] [FixSender] (DEBUG) Sending 8=FIX.4.4|9=58|35=0|49=FIXCLIENT1|56=DMA_HUB|34=144|52=20231122-10:45:16|10=088|
2023-11-22 11:45:38.490 [37] [FixSender] (DEBUG) Receiving 8=FIX.4.4|9=62|35=0|34=150|49=DMA_HUB|56=FIXCLIENT1|52=20231122-10:45:38.489|10=039|
2023-11-22 11:45:46.313 [38] [FixSender] (DEBUG) Sending 8=FIX.4.4|9=58|35=0|49=FIXCLIENT1|56=DMA_HUB|34=145|52=20231122-10:45:46|10=092|
2023-11-22 11:46:08.435 [37] [FixSender] (DEBUG) Receiving 8=FIX.4.4|9=62|35=0|34=151|49=DMA_HUB|56=FIXCLIENT1|52=20231122-10:46:08.434|10=028|
2023-11-22 11:46:16.316 [38] [FixSender] (DEBUG) Sending 8=FIX.4.4|9=58|35=0|49=FIXCLIENT1|56=DMA_HUB|34=146|52=20231122-10:46:16|10=091|
2023-11-22 11:46:38.388 [37] [FixSender] (DEBUG) Receiving 8=FIX.4.4|9=62|35=0|34=152|49=DMA_HUB|56=FIXCLIENT1|52=20231122-10:46:38.387|10=039|
2023-11-22 11:46:46.320 [38] [FixSender] (DEBUG) Sending 8=FIX.4.4|9=58|35=0|49=FIXCLIENT1|56=DMA_HUB|34=147|52=20231122-10:46:46|10=095|
2023-11-22 11:47:08.332 [37] [FixSender] (DEBUG) Receiving 8=FIX.4.4|9=62|35=0|34=153|49=DMA_HUB|56=FIXCLIENT1|52=20231122-10:47:08.331|10=027|
2023-11-22 11:47:16.326 [38] [FixSender] (DEBUG) Sending 8=FIX.4.4|9=58|35=0|49=FIXCLIENT1|56=DMA_HUB|34=148|52=20231122-10:47:16|10=094|
2023-11-22 11:47:38.288 [37] [FixSender] (DEBUG) Receiving 8=FIX.4.4|9=62|35=0|34=154|49=DMA_HUB|56=FIXCLIENT1|52=20231122-10:47:38.287|10=041|
2023-11-22 11:47:46.340 [38] [FixSender] (DEBUG) Sending 8=FIX.4.4|9=58|35=0|49=FIXCLIENT1|56=DMA_HUB|34=149|52=20231122-10:47:46|10=098|
2023-11-22 11:48:08.237 [37] [FixSender] (DEBUG) Receiving 8=FIX.4.4|9=62|35=0|34=155|49=DMA_HUB|56=FIXCLIENT1|52=20231122-10:48:08.237|10=035|
2023-11-22 11:48:16.342 [38] [FixSender] (DEBUG) Sending 8=FIX.4.4|9=58|35=0|49=FIXCLIENT1|56=DMA_HUB|34=150|52=20231122-10:48:16|10=088|
2023-11-22 11:48:38.190 [37] [FixSender] (DEBUG) Receiving 8=FIX.4.4|9=62|35=0|34=156|49=DMA_HUB|56=FIXCLIENT1|52=20231122-10:48:38.186|10=042|
2023-11-22 11:48:46.349 [38] [FixSender] (DEBUG) Sending 8=FIX.4.4|9=58|35=0|49=FIXCLIENT1|56=DMA_HUB|34=151|52=20231122-10:48:46|10=092|
2023-11-22 11:49:08.140 [37] [FixSender] (DEBUG) Receiving 8=FIX.4.4|9=62|35=0|34=157|49=DMA_HUB|56=FIXCLIENT1|52=20231122-10:49:08.139|10=039|
2023-11-22 11:49:16.362 [38] [FixSender] (DEBUG) Sending 8=FIX.4.4|9=58|35=0|49=FIXCLIENT1|56=DMA_HUB|34=152|52=20231122-10:49:16|10=091|
2023-11-22 11:49:38.095 [37] [FixSender] (DEBUG) Receiving 8=FIX.4.4|9=62|35=0|34=158|49=DMA_HUB|56=FIXCLIENT1|52=20231122-10:49:38.094|10=043|
2023-11-22 11:49:46.374 [38] [FixSender] (DEBUG) Sending 8=FIX.4.4|9=58|35=0|49=FIXCLIENT1|56=DMA_HUB|34=153|52=20231122-10:49:46|10=095|
2023-11-22 11:50:08.044 [37] [FixSender] (DEBUG) Receiving 8=FIX.4.4|9=62|35=0|34=159|49=DMA_HUB|56=FIXCLIENT1|52=20231122-10:50:08.043|10=027|
2023-11-22 11:50:16.384 [38] [FixSender] (DEBUG) Sending 8=FIX.4.4|9=58|35=0|49=FIXCLIENT1|56=DMA_HUB|34=154|52=20231122-10:50:16|10=085|
2023-11-22 11:50:38.000 [37] [FixSender] (DEBUG) Receiving 8=FIX.4.4|9=62|35=0|34=160|49=DMA_HUB|56=FIXCLIENT1|52=20231122-10:50:37.999|10=041|
2023-11-22 11:50:46.391 [38] [FixSender] (DEBUG) Sending 8=FIX.4.4|9=58|35=0|49=FIXCLIENT1|56=DMA_HUB|34=155|52=20231122-10:50:46|10=089|
2023-11-22 11:51:07.959 [37] [FixSender] (DEBUG) Receiving 8=FIX.4.4|9=62|35=0|34=161|49=DMA_HUB|56=FIXCLIENT1|52=20231122-10:51:07.958|10=035|
2023-11-22 11:51:16.401 [38] [FixSender] (DEBUG) Sending 8=FIX.4.4|9=58|35=0|49=FIXCLIENT1|56=DMA_HUB|34=156|52=20231122-10:51:16|10=088|
2023-11-22 11:51:37.908 [37] [FixSender] (DEBUG) Receiving 8=FIX.4.4|9=62|35=0|34=162|49=DMA_HUB|56=FIXCLIENT1|52=20231122-10:51:37.906|10=032|
2023-11-22 11:51:46.408 [38] [FixSender] (DEBUG) Sending 8=FIX.4.4|9=58|35=0|49=FIXCLIENT1|56=DMA_HUB|34=157|52=20231122-10:51:46|10=092|
2023-11-22 11:52:07.865 [37] [FixSender] (DEBUG) Receiving 8=FIX.4.4|9=62|35=0|34=163|49=DMA_HUB|56=FIXCLIENT1|52=20231122-10:52:07.865|10=035|
2023-11-22 11:52:16.423 [38] [FixSender] (DEBUG) Sending 8=FIX.4.4|9=58|35=0|49=FIXCLIENT1|56=DMA_HUB|34=158|52=20231122-10:52:16|10=091|
2023-11-22 11:52:37.807 [37] [FixSender] (DEBUG) Receiving 8=FIX.4.4|9=62|35=0|34=164|49=DMA_HUB|56=FIXCLIENT1|52=20231122-10:52:37.806|10=034|
2023-11-22 11:52:46.439 [38] [FixSender] (DEBUG) Sending 8=FIX.4.4|9=58|35=0|49=FIXCLIENT1|56=DMA_HUB|34=159|52=20231122-10:52:46|10=095|
2023-11-22 11:53:07.768 [37] [FixSender] (DEBUG) Receiving 8=FIX.4.4|9=62|35=0|34=165|49=DMA_HUB|56=FIXCLIENT1|52=20231122-10:53:07.767|10=039|
2023-11-22 11:53:16.439 [38] [FixSender] (DEBUG) Sending 8=FIX.4.4|9=58|35=0|49=FIXCLIENT1|56=DMA_HUB|34=160|52=20231122-10:53:16|10=085|
2023-11-22 11:53:37.721 [37] [FixSender] (DEBUG) Receiving 8=FIX.4.4|9=62|35=0|34=166|49=DMA_HUB|56=FIXCLIENT1|52=20231122-10:53:37.720|10=032|
2023-11-22 11:53:46.451 [38] [FixSender] (DEBUG) Sending 8=FIX.4.4|9=58|35=0|49=FIXCLIENT1|56=DMA_HUB|34=161|52=20231122-10:53:46|10=089|
2023-11-22 11:54:07.663 [37] [FixSender] (DEBUG) Receiving 8=FIX.4.4|9=62|35=0|34=167|49=DMA_HUB|56=FIXCLIENT1|52=20231122-10:54:07.662|10=036|
2023-11-22 11:54:16.452 [38] [FixSender] (DEBUG) Sending 8=FIX.4.4|9=58|35=0|49=FIXCLIENT1|56=DMA_HUB|34=162|52=20231122-10:54:16|10=088|
2023-11-22 11:54:37.625 [37] [FixSender] (DEBUG) Receiving 8=FIX.4.4|9=62|35=0|34=168|49=DMA_HUB|56=FIXCLIENT1|52=20231122-10:54:37.625|10=039|
2023-11-22 11:54:46.453 [38] [FixSender] (DEBUG) Sending 8=FIX.4.4|9=58|35=0|49=FIXCLIENT1|56=DMA_HUB|34=163|52=20231122-10:54:46|10=092|
2023-11-22 11:55:07.570 [37] [FixSender] (DEBUG) Receiving 8=FIX.4.4|9=62|35=0|34=169|49=DMA_HUB|56=FIXCLIENT1|52=20231122-10:55:07.569|10=045|
2023-11-22 11:55:16.455 [38] [FixSender] (DEBUG) Sending 8=FIX.4.4|9=58|35=0|49=FIXCLIENT1|56=DMA_HUB|34=164|52=20231122-10:55:16|10=091|
2023-11-22 11:55:37.521 [37] [FixSender] (DEBUG) Receiving 8=FIX.4.4|9=62|35=0|34=170|49=DMA_HUB|56=FIXCLIENT1|52=20231122-10:55:37.520|10=027|
2023-11-22 11:55:46.470 [38] [FixSender] (DEBUG) Sending 8=FIX.4.4|9=58|35=0|49=FIXCLIENT1|56=DMA_HUB|34=165|52=20231122-10:55:46|10=095|
2023-11-22 11:56:07.479 [37] [FixSender] (DEBUG) Receiving 8=FIX.4.4|9=62|35=0|34=171|49=DMA_HUB|56=FIXCLIENT1|52=20231122-10:56:07.478|10=038|
2023-11-22 11:56:16.487 [38] [FixSender] (DEBUG) Sending 8=FIX.4.4|9=58|35=0|49=FIXCLIENT1|56=DMA_HUB|34=166|52=20231122-10:56:16|10=094|
2023-11-22 11:56:37.420 [37] [FixSender] (DEBUG) Receiving 8=FIX.4.4|9=62|35=0|34=172|49=DMA_HUB|56=FIXCLIENT1|52=20231122-10:56:37.419|10=037|
2023-11-22 11:56:46.501 [38] [FixSender] (DEBUG) Sending 8=FIX.4.4|9=58|35=0|49=FIXCLIENT1|56=DMA_HUB|34=167|52=20231122-10:56:46|10=098|
2023-11-22 11:57:07.383 [37] [FixSender] (DEBUG) Receiving 8=FIX.4.4|9=62|35=0|34=173|49=DMA_HUB|56=FIXCLIENT1|52=20231122-10:57:07.382|10=035|
2023-11-22 11:57:16.515 [38] [FixSender] (DEBUG) Sending 8=FIX.4.4|9=58|35=0|49=FIXCLIENT1|56=DMA_HUB|34=168|52=20231122-10:57:16|10=097|
2023-11-22 11:57:37.324 [37] [FixSender] (DEBUG) Receiving 8=FIX.4.4|9=62|35=0|34=174|49=DMA_HUB|56=FIXCLIENT1|52=20231122-10:57:37.323|10=034|
2023-11-22 11:57:46.523 [38] [FixSender] (DEBUG) Sending 8=FIX.4.4|9=58|35=0|49=FIXCLIENT1|56=DMA_HUB|34=169|52=20231122-10:57:46|10=101|
2023-11-22 11:58:07.288 [37] [FixSender] (DEBUG) Receiving 8=FIX.4.4|9=62|35=0|34=175|49=DMA_HUB|56=FIXCLIENT1|52=20231122-10:58:07.287|10=042|
2023-11-22 11:58:16.533 [38] [FixSender] (DEBUG) Sending 8=FIX.4.4|9=58|35=0|49=FIXCLIENT1|56=DMA_HUB|34=170|52=20231122-10:58:16|10=091|
2023-11-22 11:58:37.236 [37] [FixSender] (DEBUG) Receiving 8=FIX.4.4|9=62|35=0|34=176|49=DMA_HUB|56=FIXCLIENT1|52=20231122-10:58:37.235|10=039|
2023-11-22 11:58:46.541 [38] [FixSender] (DEBUG) Sending 8=FIX.4.4|9=58|35=0|49=FIXCLIENT1|56=DMA_HUB|34=171|52=20231122-10:58:46|10=095|
2023-11-22 11:59:07.181 [37] [FixSender] (DEBUG) Receiving 8=FIX.4.4|9=62|35=0|34=177|49=DMA_HUB|56=FIXCLIENT1|52=20231122-10:59:07.180|10=037|
2023-11-22 11:59:16.546 [38] [FixSender] (DEBUG) Sending 8=FIX.4.4|9=58|35=0|49=FIXCLIENT1|56=DMA_HUB|34=172|52=20231122-10:59:16|10=094|
2023-11-22 11:59:37.144 [37] [FixSender] (DEBUG) Receiving 8=FIX.4.4|9=62|35=0|34=178|49=DMA_HUB|56=FIXCLIENT1|52=20231122-10:59:37.143|10=040|
2023-11-22 11:59:46.554 [38] [FixSender] (DEBUG) Sending 8=FIX.4.4|9=58|35=0|49=FIXCLIENT1|56=DMA_HUB|34=173|52=20231122-10:59:46|10=098|
2023-11-22 12:00:07.091 [37] [FixSender] (DEBUG) Receiving 8=FIX.4.4|9=62|35=0|34=179|49=DMA_HUB|56=FIXCLIENT1|52=20231122-11:00:07.091|10=027|
2023-11-22 12:00:16.557 [38] [FixSender] (DEBUG) Sending 8=FIX.4.4|9=58|35=0|49=FIXCLIENT1|56=DMA_HUB|34=174|52=20231122-11:00:16|10=083|
2023-11-22 12:00:37.035 [37] [FixSender] (DEBUG) Receiving 8=FIX.4.4|9=62|35=0|34=180|49=DMA_HUB|56=FIXCLIENT1|52=20231122-11:00:37.035|10=020|
2023-11-22 12:00:46.565 [38] [FixSender] (DEBUG) Sending 8=FIX.4.4|9=58|35=0|49=FIXCLIENT1|56=DMA_HUB|34=175|52=20231122-11:00:46|10=087|
2023-11-22 12:01:07.001 [37] [FixSender] (DEBUG) Receiving 8=FIX.4.4|9=62|35=0|34=181|49=DMA_HUB|56=FIXCLIENT1|52=20231122-11:01:07.000|10=011|
2023-11-22 12:01:16.581 [38] [FixSender] (DEBUG) Sending 8=FIX.4.4|9=58|35=0|49=FIXCLIENT1|56=DMA_HUB|34=176|52=20231122-11:01:16|10=086|
2023-11-22 12:01:36.948 [37] [FixSender] (DEBUG) Receiving 8=FIX.4.4|9=62|35=0|34=182|49=DMA_HUB|56=FIXCLIENT1|52=20231122-11:01:36.948|10=035|
2023-11-22 12:01:46.597 [38] [FixSender] (DEBUG) Sending 8=FIX.4.4|9=58|35=0|49=FIXCLIENT1|56=DMA_HUB|34=177|52=20231122-11:01:46|10=090|
2023-11-22 12:02:06.899 [37] [FixSender] (DEBUG) Receiving 8=FIX.4.4|9=62|35=0|34=183|49=DMA_HUB|56=FIXCLIENT1|52=20231122-11:02:06.898|10=038|
2023-11-22 12:02:16.601 [38] [FixSender] (DEBUG) Sending 8=FIX.4.4|9=58|35=0|49=FIXCLIENT1|56=DMA_HUB|34=178|52=20231122-11:02:16|10=089|
2023-11-22 12:02:36.850 [37] [FixSender] (DEBUG) Receiving 8=FIX.4.4|9=62|35=0|34=184|49=DMA_HUB|56=FIXCLIENT1|52=20231122-11:02:36.849|10=038|
2023-11-22 12:02:46.606 [38] [FixSender] (DEBUG) Sending 8=FIX.4.4|9=58|35=0|49=FIXCLIENT1|56=DMA_HUB|34=179|52=20231122-11:02:46|10=093|
2023-11-22 12:03:06.800 [37] [FixSender] (DEBUG) Receiving 8=FIX.4.4|9=62|35=0|34=185|49=DMA_HUB|56=FIXCLIENT1|52=20231122-11:03:06.799|10=041|
2023-11-22 12:03:16.614 [38] [FixSender] (DEBUG) Sending 8=FIX.4.4|9=58|35=0|49=FIXCLIENT1|56=DMA_HUB|34=180|52=20231122-11:03:16|10=083|
2023-11-22 12:03:36.761 [37] [FixSender] (DEBUG) Receiving 8=FIX.4.4|9=62|35=0|34=186|49=DMA_HUB|56=FIXCLIENT1|52=20231122-11:03:36.761|10=034|
2023-11-22 12:03:46.621 [38] [FixSender] (DEBUG) Sending 8=FIX.4.4|9=58|35=0|49=FIXCLIENT1|56=DMA_HUB|34=181|52=20231122-11:03:46|10=087|
2023-11-22 12:04:06.712 [37] [FixSender] (DEBUG) Receiving 8=FIX.4.4|9=62|35=0|34=187|49=DMA_HUB|56=FIXCLIENT1|52=20231122-11:04:06.711|10=028|
2023-11-22 12:04:16.627 [38] [FixSender] (DEBUG) Sending 8=FIX.4.4|9=58|35=0|49=FIXCLIENT1|56=DMA_HUB|34=182|52=20231122-11:04:16|10=086|
2023-11-22 12:04:36.655 [37] [FixSender] (DEBUG) Receiving 8=FIX.4.4|9=62|35=0|34=188|49=DMA_HUB|56=FIXCLIENT1|52=20231122-11:04:36.655|10=039|
2023-11-22 12:04:46.632 [38] [FixSender] (DEBUG) Sending 8=FIX.4.4|9=58|35=0|49=FIXCLIENT1|56=DMA_HUB|34=183|52=20231122-11:04:46|10=090|
2023-11-22 12:05:06.616 [37] [FixSender] (DEBUG) Receiving 8=FIX.4.4|9=62|35=0|34=189|49=DMA_HUB|56=FIXCLIENT1|52=20231122-11:05:06.616|10=035|
2023-11-22 12:05:16.643 [38] [FixSender] (DEBUG) Sending 8=FIX.4.4|9=58|35=0|49=FIXCLIENT1|56=DMA_HUB|34=184|52=20231122-11:05:16|10=089|
2023-11-22 12:05:36.556 [37] [FixSender] (DEBUG) Receiving 8=FIX.4.4|9=62|35=0|34=190|49=DMA_HUB|56=FIXCLIENT1|52=20231122-11:05:36.555|10=032|
2023-11-22 12:05:46.654 [38] [FixSender] (DEBUG) Sending 8=FIX.4.4|9=58|35=0|49=FIXCLIENT1|56=DMA_HUB|34=185|52=20231122-11:05:46|10=093|
2023-11-22 12:06:06.512 [37] [FixSender] (DEBUG) Receiving 8=FIX.4.4|9=62|35=0|34=191|49=DMA_HUB|56=FIXCLIENT1|52=20231122-11:06:06.512|10=024|
2023-11-22 12:06:16.663 [38] [FixSender] (DEBUG) Sending 8=FIX.4.4|9=58|35=0|49=FIXCLIENT1|56=DMA_HUB|34=186|52=20231122-11:06:16|10=092|
2023-11-22 12:06:36.478 [37] [FixSender] (DEBUG) Receiving 8=FIX.4.4|9=62|35=0|34=192|49=DMA_HUB|56=FIXCLIENT1|52=20231122-11:06:36.467|10=037|
2023-11-22 12:06:46.666 [38] [FixSender] (DEBUG) Sending 8=FIX.4.4|9=58|35=0|49=FIXCLIENT1|56=DMA_HUB|34=187|52=20231122-11:06:46|10=096|
2023-11-22 12:07:06.421 [37] [FixSender] (DEBUG) Receiving 8=FIX.4.4|9=62|35=0|34=193|49=DMA_HUB|56=FIXCLIENT1|52=20231122-11:07:06.420|10=025|
2023-11-22 12:07:16.672 [38] [FixSender] (DEBUG) Sending 8=FIX.4.4|9=58|35=0|49=FIXCLIENT1|56=DMA_HUB|34=188|52=20231122-11:07:16|10=095|
2023-11-22 12:07:36.372 [37] [FixSender] (DEBUG) Receiving 8=FIX.4.4|9=62|35=0|34=194|49=DMA_HUB|56=FIXCLIENT1|52=20231122-11:07:36.371|10=034|
2023-11-22 12:07:46.675 [38] [FixSender] (DEBUG) Sending 8=FIX.4.4|9=58|35=0|49=FIXCLIENT1|56=DMA_HUB|34=189|52=20231122-11:07:46|10=099|
2023-11-22 12:08:06.318 [37] [FixSender] (DEBUG) Receiving 8=FIX.4.4|9=62|35=0|34=195|49=DMA_HUB|56=FIXCLIENT1|52=20231122-11:08:06.318|10=034|
2023-11-22 12:08:16.690 [38] [FixSender] (DEBUG) Sending 8=FIX.4.4|9=58|35=0|49=FIXCLIENT1|56=DMA_HUB|34=190|52=20231122-11:08:16|10=089|
2023-11-22 12:08:36.277 [37] [FixSender] (DEBUG) Receiving 8=FIX.4.4|9=62|35=0|34=196|49=DMA_HUB|56=FIXCLIENT1|52=20231122-11:08:36.276|10=041|
2023-11-22 12:08:46.720 [38] [FixSender] (DEBUG) Sending 8=FIX.4.4|9=58|35=0|49=FIXCLIENT1|56=DMA_HUB|34=191|52=20231122-11:08:46|10=093|
2023-11-22 12:09:06.222 [37] [FixSender] (DEBUG) Receiving 8=FIX.4.4|9=62|35=0|34=197|49=DMA_HUB|56=FIXCLIENT1|52=20231122-11:09:06.222|10=031|
2023-11-22 12:09:16.731 [38] [FixSender] (DEBUG) Sending 8=FIX.4.4|9=58|35=0|49=FIXCLIENT1|56=DMA_HUB|34=192|52=20231122-11:09:16|10=092|
2023-11-22 12:09:36.180 [37] [FixSender] (DEBUG) Receiving 8=FIX.4.4|9=62|35=0|34=198|49=DMA_HUB|56=FIXCLIENT1|52=20231122-11:09:36.179|10=046|
2023-11-22 12:09:46.742 [38] [FixSender] (DEBUG) Sending 8=FIX.4.4|9=58|35=0|49=FIXCLIENT1|56=DMA_HUB|34=193|52=20231122-11:09:46|10=096|
2023-11-22 12:10:06.130 [37] [FixSender] (DEBUG) Receiving 8=FIX.4.4|9=62|35=0|34=199|49=DMA_HUB|56=FIXCLIENT1|52=20231122-11:10:06.130|10=023|
2023-11-22 12:10:16.759 [38] [FixSender] (DEBUG) Sending 8=FIX.4.4|9=58|35=0|49=FIXCLIENT1|56=DMA_HUB|34=194|52=20231122-11:10:16|10=086|
2023-11-22 12:10:36.084 [37] [FixSender] (DEBUG) Receiving 8=FIX.4.4|9=62|35=0|34=200|49=DMA_HUB|56=FIXCLIENT1|52=20231122-11:10:36.084|10=017|
2023-11-22 12:10:46.769 [38] [FixSender] (DEBUG) Sending 8=FIX.4.4|9=58|35=0|49=FIXCLIENT1|56=DMA_HUB|34=195|52=20231122-11:10:46|10=090|
2023-11-22 12:11:06.039 [37] [FixSender] (DEBUG) Receiving 8=FIX.4.4|9=62|35=0|34=201|49=DMA_HUB|56=FIXCLIENT1|52=20231122-11:11:06.038|10=015|
2023-11-22 12:11:16.782 [38] [FixSender] (DEBUG) Sending 8=FIX.4.4|9=58|35=0|49=FIXCLIENT1|56=DMA_HUB|34=196|52=20231122-11:11:16|10=089|
2023-11-22 12:11:35.992 [37] [FixSender] (DEBUG) Receiving 8=FIX.4.4|9=62|35=0|34=202|49=DMA_HUB|56=FIXCLIENT1|52=20231122-11:11:35.992|10=027|
2023-11-22 12:11:46.797 [38] [FixSender] (DEBUG) Sending 8=FIX.4.4|9=58|35=0|49=FIXCLIENT1|56=DMA_HUB|34=197|52=20231122-11:11:46|10=093|
2023-11-22 12:12:05.936 [37] [FixSender] (DEBUG) Receiving 8=FIX.4.4|9=62|35=0|34=203|49=DMA_HUB|56=FIXCLIENT1|52=20231122-11:12:05.935|10=023|
2023-11-22 12:12:16.801 [38] [FixSender] (DEBUG) Sending 8=FIX.4.4|9=58|35=0|49=FIXCLIENT1|56=DMA_HUB|34=198|52=20231122-11:12:16|10=092|
2023-11-22 12:12:35.892 [37] [FixSender] (DEBUG) Receiving 8=FIX.4.4|9=62|35=0|34=204|49=DMA_HUB|56=FIXCLIENT1|52=20231122-11:12:35.892|10=029|
2023-11-22 12:12:46.815 [38] [FixSender] (DEBUG) Sending 8=FIX.4.4|9=58|35=0|49=FIXCLIENT1|56=DMA_HUB|34=199|52=20231122-11:12:46|10=096|
2023-11-22 12:13:05.838 [37] [FixSender] (DEBUG) Receiving 8=FIX.4.4|9=62|35=0|34=205|49=DMA_HUB|56=FIXCLIENT1|52=20231122-11:13:05.837|10=027|
2023-11-22 12:13:16.822 [38] [FixSender] (DEBUG) Sending 8=FIX.4.4|9=58|35=0|49=FIXCLIENT1|56=DMA_HUB|34=200|52=20231122-11:13:16|10=077|
2023-11-22 12:13:35.787 [37] [FixSender] (DEBUG) Receiving 8=FIX.4.4|9=62|35=0|34=206|49=DMA_HUB|56=FIXCLIENT1|52=20231122-11:13:35.786|10=034|
2023-11-22 12:13:46.824 [38] [FixSender] (DEBUG) Sending 8=FIX.4.4|9=58|35=0|49=FIXCLIENT1|56=DMA_HUB|34=201|52=20231122-11:13:46|10=081|
2023-11-22 12:14:05.746 [37] [FixSender] (DEBUG) Receiving 8=FIX.4.4|9=62|35=0|34=207|49=DMA_HUB|56=FIXCLIENT1|52=20231122-11:14:05.744|10=027|
2023-11-22 12:14:16.833 [38] [FixSender] (DEBUG) Sending 8=FIX.4.4|9=58|35=0|49=FIXCLIENT1|56=DMA_HUB|34=202|52=20231122-11:14:16|10=080|
2023-11-22 12:14:35.692 [37] [FixSender] (DEBUG) Receiving 8=FIX.4.4|9=62|35=0|34=208|49=DMA_HUB|56=FIXCLIENT1|52=20231122-11:14:35.691|10=032|
2023-11-22 12:14:46.843 [38] [FixSender] (DEBUG) Sending 8=FIX.4.4|9=58|35=0|49=FIXCLIENT1|56=DMA_HUB|34=203|52=20231122-11:14:46|10=084|
2023-11-22 12:15:05.649 [37] [FixSender] (DEBUG) Receiving 8=FIX.4.4|9=62|35=0|34=209|49=DMA_HUB|56=FIXCLIENT1|52=20231122-11:15:05.648|10=033|
2023-11-22 12:15:16.852 [38] [FixSender] (DEBUG) Sending 8=FIX.4.4|9=58|35=0|49=FIXCLIENT1|56=DMA_HUB|34=204|52=20231122-11:15:16|10=083|
2023-11-22 12:15:35.600 [37] [FixSender] (DEBUG) Receiving 8=FIX.4.4|9=62|35=0|34=210|49=DMA_HUB|56=FIXCLIENT1|52=20231122-11:15:35.600|10=016|
2023-11-22 12:15:46.864 [38] [FixSender] (DEBUG) Sending 8=FIX.4.4|9=58|35=0|49=FIXCLIENT1|56=DMA_HUB|34=205|52=20231122-11:15:46|10=087|
2023-11-22 12:16:05.558 [37] [FixSender] (DEBUG) Receiving 8=FIX.4.4|9=62|35=0|34=211|49=DMA_HUB|56=FIXCLIENT1|52=20231122-11:16:05.558|10=027|
2023-11-22 12:16:16.867 [38] [FixSender] (DEBUG) Sending 8=FIX.4.4|9=58|35=0|49=FIXCLIENT1|56=DMA_HUB|34=206|52=20231122-11:16:16|10=086|
2023-11-22 12:16:35.511 [37] [FixSender] (DEBUG) Receiving 8=FIX.4.4|9=62|35=0|34=212|49=DMA_HUB|56=FIXCLIENT1|52=20231122-11:16:35.511|10=020|
2023-11-22 12:16:46.869 [38] [FixSender] (DEBUG) Sending 8=FIX.4.4|9=58|35=0|49=FIXCLIENT1|56=DMA_HUB|34=207|52=20231122-11:16:46|10=090|
2023-11-22 12:17:05.456 [37] [FixSender] (DEBUG) Receiving 8=FIX.4.4|9=62|35=0|34=213|49=DMA_HUB|56=FIXCLIENT1|52=20231122-11:17:05.455|10=026|
2023-11-22 12:17:16.876 [38] [FixSender] (DEBUG) Sending 8=FIX.4.4|9=58|35=0|49=FIXCLIENT1|56=DMA_HUB|34=208|52=20231122-11:17:16|10=089|
2023-11-22 12:17:35.413 [37] [FixSender] (DEBUG) Receiving 8=FIX.4.4|9=62|35=0|34=214|49=DMA_HUB|56=FIXCLIENT1|52=20231122-11:17:35.412|10=023|
2023-11-22 12:17:46.888 [38] [FixSender] (DEBUG) Sending 8=FIX.4.4|9=58|35=0|49=FIXCLIENT1|56=DMA_HUB|34=209|52=20231122-11:17:46|10=093|
2023-11-22 12:18:05.359 [37] [FixSender] (DEBUG) Receiving 8=FIX.4.4|9=62|35=0|34=215|49=DMA_HUB|56=FIXCLIENT1|52=20231122-11:18:05.358|10=031|
2023-11-22 12:18:16.901 [38] [FixSender] (DEBUG) Sending 8=FIX.4.4|9=58|35=0|49=FIXCLIENT1|56=DMA_HUB|34=210|52=20231122-11:18:16|10=083|
2023-11-22 12:18:35.313 [37] [FixSender] (DEBUG) Receiving 8=FIX.4.4|9=62|35=0|34=216|49=DMA_HUB|56=FIXCLIENT1|52=20231122-11:18:35.313|10=026|
2023-11-22 12:18:46.917 [38] [FixSender] (DEBUG) Sending 8=FIX.4.4|9=58|35=0|49=FIXCLIENT1|56=DMA_HUB|34=211|52=20231122-11:18:46|10=087|
2023-11-22 12:19:05.269 [37] [FixSender] (DEBUG) Receiving 8=FIX.4.4|9=62|35=0|34=217|49=DMA_HUB|56=FIXCLIENT1|52=20231122-11:19:05.268|10=034|
2023-11-22 12:19:16.919 [38] [FixSender] (DEBUG) Sending 8=FIX.4.4|9=58|35=0|49=FIXCLIENT1|56=DMA_HUB|34=212|52=20231122-11:19:16|10=086|
2023-11-22 12:19:35.213 [37] [FixSender] (DEBUG) Receiving 8=FIX.4.4|9=62|35=0|34=218|49=DMA_HUB|56=FIXCLIENT1|52=20231122-11:19:35.212|10=027|
2023-11-22 12:19:46.924 [38] [FixSender] (DEBUG) Sending 8=FIX.4.4|9=58|35=0|49=FIXCLIENT1|56=DMA_HUB|34=213|52=20231122-11:19:46|10=090|
2023-11-22 12:20:05.172 [37] [FixSender] (DEBUG) Receiving 8=FIX.4.4|9=62|35=0|34=219|49=DMA_HUB|56=FIXCLIENT1|52=20231122-11:20:05.171|10=021|
2023-11-22 12:20:16.933 [38] [FixSender] (DEBUG) Sending 8=FIX.4.4|9=58|35=0|49=FIXCLIENT1|56=DMA_HUB|34=214|52=20231122-11:20:16|10=080|
2023-11-22 12:20:35.130 [37] [FixSender] (DEBUG) Receiving 8=FIX.4.4|9=62|35=0|34=220|49=DMA_HUB|56=FIXCLIENT1|52=20231122-11:20:35.129|10=019|
2023-11-22 12:20:46.935 [38] [FixSender] (DEBUG) Sending 8=FIX.4.4|9=58|35=0|49=FIXCLIENT1|56=DMA_HUB|34=215|52=20231122-11:20:46|10=084|
2023-11-22 12:21:05.076 [37] [FixSender] (DEBUG) Receiving 8=FIX.4.4|9=62|35=0|34=221|49=DMA_HUB|56=FIXCLIENT1|52=20231122-11:21:05.075|10=018|
2023-11-22 12:21:16.945 [38] [FixSender] (DEBUG) Sending 8=FIX.4.4|9=58|35=0|49=FIXCLIENT1|56=DMA_HUB|34=216|52=20231122-11:21:16|10=083|
2023-11-22 12:21:35.022 [37] [FixSender] (DEBUG) Receiving 8=FIX.4.4|9=62|35=0|34=222|49=DMA_HUB|56=FIXCLIENT1|52=20231122-11:21:35.021|10=013|
2023-11-22 12:21:46.960 [38] [FixSender] (DEBUG) Sending 8=FIX.4.4|9=58|35=0|49=FIXCLIENT1|56=DMA_HUB|34=217|52=20231122-11:21:46|10=087|
2023-11-22 12:22:04.981 [37] [FixSender] (DEBUG) Receiving 8=FIX.4.4|9=62|35=0|34=223|49=DMA_HUB|56=FIXCLIENT1|52=20231122-11:22:04.981|10=026|
2023-11-22 12:22:16.971 [38] [FixSender] (DEBUG) Sending 8=FIX.4.4|9=58|35=0|49=FIXCLIENT1|56=DMA_HUB|34=218|52=20231122-11:22:16|10=086|
2023-11-22 12:22:34.925 [37] [FixSender] (DEBUG) Receiving 8=FIX.4.4|9=62|35=0|34=224|49=DMA_HUB|56=FIXCLIENT1|52=20231122-11:22:34.923|10=026|
2023-11-22 12:22:46.976 [38] [FixSender] (DEBUG) Sending 8=FIX.4.4|9=58|35=0|49=FIXCLIENT1|56=DMA_HUB|34=219|52=20231122-11:22:46|10=090|
2023-11-22 12:23:04.879 [37] [FixSender] (DEBUG) Receiving 8=FIX.4.4|9=62|35=0|34=225|49=DMA_HUB|56=FIXCLIENT1|52=20231122-11:23:04.878|10=034|
2023-11-22 12:23:16.987 [38] [FixSender] (DEBUG) Sending 8=FIX.4.4|9=58|35=0|49=FIXCLIENT1|56=DMA_HUB|34=220|52=20231122-11:23:16|10=080|
2023-11-22 12:23:34.839 [37] [FixSender] (DEBUG) Receiving 8=FIX.4.4|9=62|35=0|34=226|49=DMA_HUB|56=FIXCLIENT1|52=20231122-11:23:34.838|10=034|
2023-11-22 12:23:47.000 [38] [FixSender] (DEBUG) Sending 8=FIX.4.4|9=58|35=0|49=FIXCLIENT1|56=DMA_HUB|34=221|52=20231122-11:23:47|10=085|
2023-11-22 12:24:04.787 [37] [FixSender] (DEBUG) Receiving 8=FIX.4.4|9=62|35=0|34=227|49=DMA_HUB|56=FIXCLIENT1|52=20231122-11:24:04.786|10=035|
2023-11-22 12:24:17.012 [38] [FixSender] (DEBUG) Sending 8=FIX.4.4|9=58|35=0|49=FIXCLIENT1|56=DMA_HUB|34=222|52=20231122-11:24:17|10=084|
2023-11-22 12:24:34.737 [37] [FixSender] (DEBUG) Receiving 8=FIX.4.4|9=62|35=0|34=228|49=DMA_HUB|56=FIXCLIENT1|52=20231122-11:24:34.736|10=034|
2023-11-22 12:24:47.029 [38] [FixSender] (DEBUG) Sending 8=FIX.4.4|9=58|35=0|49=FIXCLIENT1|56=DMA_HUB|34=223|52=20231122-11:24:47|10=088|
2023-11-22 12:25:04.683 [37] [FixSender] (DEBUG) Receiving 8=FIX.4.4|9=62|35=0|34=229|49=DMA_HUB|56=FIXCLIENT1|52=20231122-11:25:04.682|10=033|
2023-11-22 12:25:17.044 [38] [FixSender] (DEBUG) Sending 8=FIX.4.4|9=58|35=0|49=FIXCLIENT1|56=DMA_HUB|34=224|52=20231122-11:25:17|10=087|
2023-11-22 12:25:34.643 [37] [FixSender] (DEBUG) Receiving 8=FIX.4.4|9=62|35=0|34=230|49=DMA_HUB|56=FIXCLIENT1|52=20231122-11:25:34.642|10=024|
2023-11-22 12:25:47.058 [38] [FixSender] (DEBUG) Sending 8=FIX.4.4|9=58|35=0|49=FIXCLIENT1|56=DMA_HUB|34=225|52=20231122-11:25:47|10=091|
2023-11-22 12:26:04.586 [37] [FixSender] (DEBUG) Receiving 8=FIX.4.4|9=62|35=0|34=231|49=DMA_HUB|56=FIXCLIENT1|52=20231122-11:26:04.586|10=030|
2023-11-22 12:26:17.071 [38] [FixSender] (DEBUG) Sending 8=FIX.4.4|9=58|35=0|49=FIXCLIENT1|56=DMA_HUB|34=226|52=20231122-11:26:17|10=090|
2023-11-22 12:26:34.547 [37] [FixSender] (DEBUG) Receiving 8=FIX.4.4|9=62|35=0|34=232|49=DMA_HUB|56=FIXCLIENT1|52=20231122-11:26:34.546|10=030|
2023-11-22 12:26:47.082 [38] [FixSender] (DEBUG) Sending 8=FIX.4.4|9=58|35=0|49=FIXCLIENT1|56=DMA_HUB|34=227|52=20231122-11:26:47|10=094|
2023-11-22 12:27:04.496 [37] [FixSender] (DEBUG) Receiving 8=FIX.4.4|9=62|35=0|34=233|49=DMA_HUB|56=FIXCLIENT1|52=20231122-11:27:04.495|10=032|
2023-11-22 12:27:17.091 [38] [FixSender] (DEBUG) Sending 8=FIX.4.4|9=58|35=0|49=FIXCLIENT1|56=DMA_HUB|34=228|52=20231122-11:27:17|10=093|
2023-11-22 12:27:34.454 [37] [FixSender] (DEBUG) Receiving 8=FIX.4.4|9=62|35=0|34=234|49=DMA_HUB|56=FIXCLIENT1|52=20231122-11:27:34.453|10=030|
2023-11-22 12:27:47.092 [38] [FixSender] (DEBUG) Sending 8=FIX.4.4|9=58|35=0|49=FIXCLIENT1|56=DMA_HUB|34=229|52=20231122-11:27:47|10=097|
2023-11-22 12:28:04.403 [37] [FixSender] (DEBUG) Receiving 8=FIX.4.4|9=62|35=0|34=235|49=DMA_HUB|56=FIXCLIENT1|52=20231122-11:28:04.403|10=024|
2023-11-22 12:28:17.096 [38] [FixSender] (DEBUG) Sending 8=FIX.4.4|9=58|35=0|49=FIXCLIENT1|56=DMA_HUB|34=230|52=20231122-11:28:17|10=087|
2023-11-22 12:28:34.350 [37] [FixSender] (DEBUG) Receiving 8=FIX.4.4|9=62|35=0|34=236|49=DMA_HUB|56=FIXCLIENT1|52=20231122-11:28:34.350|10=029|
2023-11-22 12:28:47.111 [38] [FixSender] (DEBUG) Sending 8=FIX.4.4|9=58|35=0|49=FIXCLIENT1|56=DMA_HUB|34=231|52=20231122-11:28:47|10=091|
2023-11-22 12:29:04.304 [37] [FixSender] (DEBUG) Receiving 8=FIX.4.4|9=62|35=0|34=237|49=DMA_HUB|56=FIXCLIENT1|52=20231122-11:29:04.303|10=026|
2023-11-22 12:29:17.120 [38] [FixSender] (DEBUG) Sending 8=FIX.4.4|9=58|35=0|49=FIXCLIENT1|56=DMA_HUB|34=232|52=20231122-11:29:17|10=090|
2023-11-22 12:29:34.258 [37] [FixSender] (DEBUG) Receiving 8=FIX.4.4|9=62|35=0|34=238|49=DMA_HUB|56=FIXCLIENT1|52=20231122-11:29:34.257|10=038|
2023-11-22 12:29:47.128 [38] [FixSender] (DEBUG) Sending 8=FIX.4.4|9=58|35=0|49=FIXCLIENT1|56=DMA_HUB|34=233|52=20231122-11:29:47|10=094|
2023-11-22 12:30:04.212 [37] [FixSender] (DEBUG) Receiving 8=FIX.4.4|9=62|35=0|34=239|49=DMA_HUB|56=FIXCLIENT1|52=20231122-11:30:04.212|10=019|
2023-11-22 12:30:17.138 [38] [FixSender] (DEBUG) Sending 8=FIX.4.4|9=58|35=0|49=FIXCLIENT1|56=DMA_HUB|34=234|52=20231122-11:30:17|10=084|
2023-11-22 12:30:34.160 [37] [FixSender] (DEBUG) Receiving 8=FIX.4.4|9=62|35=0|34=240|49=DMA_HUB|56=FIXCLIENT1|52=20231122-11:30:34.159|10=024|
2023-11-22 12:30:47.143 [38] [FixSender] (DEBUG) Sending 8=FIX.4.4|9=58|35=0|49=FIXCLIENT1|56=DMA_HUB|34=235|52=20231122-11:30:47|10=088|
2023-11-22 12:31:04.118 [37] [FixSender] (DEBUG) Receiving 8=FIX.4.4|9=62|35=0|34=241|49=DMA_HUB|56=FIXCLIENT1|52=20231122-11:31:04.117|10=017|
2023-11-22 12:31:17.157 [38] [FixSender] (DEBUG) Sending 8=FIX.4.4|9=58|35=0|49=FIXCLIENT1|56=DMA_HUB|34=236|52=20231122-11:31:17|10=087|
2023-11-22 12:31:34.071 [37] [FixSender] (DEBUG) Receiving 8=FIX.4.4|9=62|35=0|34=242|49=DMA_HUB|56=FIXCLIENT1|52=20231122-11:31:34.070|10=019|
2023-11-22 12:31:47.163 [38] [FixSender] (DEBUG) Sending 8=FIX.4.4|9=58|35=0|49=FIXCLIENT1|56=DMA_HUB|34=237|52=20231122-11:31:47|10=091|
2023-11-22 12:32:04.013 [37] [FixSender] (DEBUG) Receiving 8=FIX.4.4|9=62|35=0|34=243|49=DMA_HUB|56=FIXCLIENT1|52=20231122-11:32:04.012|10=014|
2023-11-22 12:32:17.172 [38] [FixSender] (DEBUG) Sending 8=FIX.4.4|9=58|35=0|49=FIXCLIENT1|56=DMA_HUB|34=238|52=20231122-11:32:17|10=090|
2023-11-22 12:32:33.966 [37] [FixSender] (DEBUG) Receiving 8=FIX.4.4|9=62|35=0|34=244|49=DMA_HUB|56=FIXCLIENT1|52=20231122-11:32:33.965|10=034|
2023-11-22 12:32:47.188 [38] [FixSender] (DEBUG) Sending 8=FIX.4.4|9=58|35=0|49=FIXCLIENT1|56=DMA_HUB|34=239|52=20231122-11:32:47|10=094|
2023-11-22 12:33:03.923 [37] [FixSender] (DEBUG) Receiving 8=FIX.4.4|9=62|35=0|34=245|49=DMA_HUB|56=FIXCLIENT1|52=20231122-11:33:03.922|10=026|
2023-11-22 12:33:17.191 [38] [FixSender] (DEBUG) Sending 8=FIX.4.4|9=58|35=0|49=FIXCLIENT1|56=DMA_HUB|34=240|52=20231122-11:33:17|10=084|
2023-11-22 12:33:33.882 [37] [FixSender] (DEBUG) Receiving 8=FIX.4.4|9=62|35=0|34=246|49=DMA_HUB|56=FIXCLIENT1|52=20231122-11:33:33.881|10=034|
2023-11-22 12:33:47.198 [38] [FixSender] (DEBUG) Sending 8=FIX.4.4|9=58|35=0|49=FIXCLIENT1|56=DMA_HUB|34=241|52=20231122-11:33:47|10=088|
2023-11-22 12:34:03.821 [37] [FixSender] (DEBUG) Receiving 8=FIX.4.4|9=62|35=0|34=247|49=DMA_HUB|56=FIXCLIENT1|52=20231122-11:34:03.821|10=027|
2023-11-22 12:34:17.202 [38] [FixSender] (DEBUG) Sending 8=FIX.4.4|9=58|35=0|49=FIXCLIENT1|56=DMA_HUB|34=242|52=20231122-11:34:17|10=087|
2023-11-22 12:34:33.785 [37] [FixSender] (DEBUG) Receiving 8=FIX.4.4|9=62|35=0|34=248|49=DMA_HUB|56=FIXCLIENT1|52=20231122-11:34:33.785|10=040|
2023-11-22 12:34:47.205 [38] [FixSender] (DEBUG) Sending 8=FIX.4.4|9=58|35=0|49=FIXCLIENT1|56=DMA_HUB|34=243|52=20231122-11:34:47|10=091|
2023-11-22 12:35:03.733 [37] [FixSender] (DEBUG) Receiving 8=FIX.4.4|9=62|35=0|34=249|49=DMA_HUB|56=FIXCLIENT1|52=20231122-11:35:03.733|10=032|
2023-11-22 12:35:17.212 [38] [FixSender] (DEBUG) Sending 8=FIX.4.4|9=58|35=0|49=FIXCLIENT1|56=DMA_HUB|34=244|52=20231122-11:35:17|10=090|
2023-11-22 12:35:33.675 [37] [FixSender] (DEBUG) Receiving 8=FIX.4.4|9=62|35=0|34=250|49=DMA_HUB|56=FIXCLIENT1|52=20231122-11:35:33.675|10=032|
2023-11-22 12:35:47.226 [38] [FixSender] (DEBUG) Sending 8=FIX.4.4|9=58|35=0|49=FIXCLIENT1|56=DMA_HUB|34=245|52=20231122-11:35:47|10=094|
2023-11-22 12:36:03.639 [37] [FixSender] (DEBUG) Receiving 8=FIX.4.4|9=62|35=0|34=251|49=DMA_HUB|56=FIXCLIENT1|52=20231122-11:36:03.639|10=031|
2023-11-22 12:36:17.231 [38] [FixSender] (DEBUG) Sending 8=FIX.4.4|9=58|35=0|49=FIXCLIENT1|56=DMA_HUB|34=246|52=20231122-11:36:17|10=093|
2023-11-22 12:36:33.581 [37] [FixSender] (DEBUG) Receiving 8=FIX.4.4|9=62|35=0|34=252|49=DMA_HUB|56=FIXCLIENT1|52=20231122-11:36:33.581|10=031|
2023-11-22 12:36:47.246 [38] [FixSender] (DEBUG) Sending 8=FIX.4.4|9=58|35=0|49=FIXCLIENT1|56=DMA_HUB|34=247|52=20231122-11:36:47|10=097|
2023-11-22 12:37:03.535 [37] [FixSender] (DEBUG) Receiving 8=FIX.4.4|9=62|35=0|34=253|49=DMA_HUB|56=FIXCLIENT1|52=20231122-11:37:03.535|10=029|
2023-11-22 12:37:17.254 [38] [FixSender] (DEBUG) Sending 8=FIX.4.4|9=58|35=0|49=FIXCLIENT1|56=DMA_HUB|34=248|52=20231122-11:37:17|10=096|
2023-11-22 12:37:33.497 [37] [FixSender] (DEBUG) Receiving 8=FIX.4.4|9=62|35=0|34=254|49=DMA_HUB|56=FIXCLIENT1|52=20231122-11:37:33.497|10=040|
2023-11-22 12:37:47.261 [38] [FixSender] (DEBUG) Sending 8=FIX.4.4|9=58|35=0|49=FIXCLIENT1|56=DMA_HUB|34=249|52=20231122-11:37:47|10=100|
2023-11-22 12:38:03.445 [37] [FixSender] (DEBUG) Receiving 8=FIX.4.4|9=62|35=0|34=255|49=DMA_HUB|56=FIXCLIENT1|52=20231122-11:38:03.445|10=032|
2023-11-22 12:38:17.262 [38] [FixSender] (DEBUG) Sending 8=FIX.4.4|9=58|35=0|49=FIXCLIENT1|56=DMA_HUB|34=250|52=20231122-11:38:17|10=090|
2023-11-22 12:38:33.394 [37] [FixSender] (DEBUG) Receiving 8=FIX.4.4|9=62|35=0|34=256|49=DMA_HUB|56=FIXCLIENT1|52=20231122-11:38:33.394|10=039|
2023-11-22 12:38:47.272 [38] [FixSender] (DEBUG) Sending 8=FIX.4.4|9=58|35=0|49=FIXCLIENT1|56=DMA_HUB|34=251|52=20231122-11:38:47|10=094|
2023-11-22 12:39:03.343 [37] [FixSender] (DEBUG) Receiving 8=FIX.4.4|9=62|35=0|34=257|49=DMA_HUB|56=FIXCLIENT1|52=20231122-11:39:03.343|10=032|
2023-11-22 12:39:17.288 [38] [FixSender] (DEBUG) Sending 8=FIX.4.4|9=58|35=0|49=FIXCLIENT1|56=DMA_HUB|34=252|52=20231122-11:39:17|10=093|
2023-11-22 12:39:33.294 [37] [FixSender] (DEBUG) Receiving 8=FIX.4.4|9=62|35=0|34=258|49=DMA_HUB|56=FIXCLIENT1|52=20231122-11:39:33.294|10=041|
2023-11-22 12:39:47.301 [38] [FixSender] (DEBUG) Sending 8=FIX.4.4|9=58|35=0|49=FIXCLIENT1|56=DMA_HUB|34=253|52=20231122-11:39:47|10=097|
2023-11-22 12:40:03.245 [37] [FixSender] (DEBUG) Receiving 8=FIX.4.4|9=62|35=0|34=259|49=DMA_HUB|56=FIXCLIENT1|52=20231122-11:40:03.245|10=027|
2023-11-22 12:40:17.313 [38] [FixSender] (DEBUG) Sending 8=FIX.4.4|9=58|35=0|49=FIXCLIENT1|56=DMA_HUB|34=254|52=20231122-11:40:17|10=087|
2023-11-22 12:40:33.201 [37] [FixSender] (DEBUG) Receiving 8=FIX.4.4|9=62|35=0|34=260|49=DMA_HUB|56=FIXCLIENT1|52=20231122-11:40:33.201|10=014|
2023-11-22 12:40:47.318 [38] [FixSender] (DEBUG) Sending 8=FIX.4.4|9=58|35=0|49=FIXCLIENT1|56=DMA_HUB|34=255|52=20231122-11:40:47|10=091|
2023-11-22 12:41:03.149 [37] [FixSender] (DEBUG) Receiving 8=FIX.4.4|9=62|35=0|34=261|49=DMA_HUB|56=FIXCLIENT1|52=20231122-11:41:03.149|10=024|
2023-11-22 12:41:17.322 [38] [FixSender] (DEBUG) Sending 8=FIX.4.4|9=58|35=0|49=FIXCLIENT1|56=DMA_HUB|34=256|52=20231122-11:41:17|10=090|
2023-11-22 12:41:33.106 [37] [FixSender] (DEBUG) Receiving 8=FIX.4.4|9=62|35=0|34=262|49=DMA_HUB|56=FIXCLIENT1|52=20231122-11:41:33.106|10=021|
2023-11-22 12:41:47.333 [38] [FixSender] (DEBUG) Sending 8=FIX.4.4|9=58|35=0|49=FIXCLIENT1|56=DMA_HUB|34=257|52=20231122-11:41:47|10=094|
2023-11-22 12:42:03.064 [37] [FixSender] (DEBUG) Receiving 8=FIX.4.4|9=62|35=0|34=263|49=DMA_HUB|56=FIXCLIENT1|52=20231122-11:42:03.064|10=023|
2023-11-22 12:42:17.341 [38] [FixSender] (DEBUG) Sending 8=FIX.4.4|9=58|35=0|49=FIXCLIENT1|56=DMA_HUB|34=258|52=20231122-11:42:17|10=093|
2023-11-22 12:42:33.002 [37] [FixSender] (DEBUG) Receiving 8=FIX.4.4|9=62|35=0|34=264|49=DMA_HUB|56=FIXCLIENT1|52=20231122-11:42:33.002|10=019|
2023-11-22 12:42:47.342 [38] [FixSender] (DEBUG) Sending 8=FIX.4.4|9=58|35=0|49=FIXCLIENT1|56=DMA_HUB|34=259|52=20231122-11:42:47|10=097|
2023-11-22 12:43:02.959 [37] [FixSender] (DEBUG) Receiving 8=FIX.4.4|9=62|35=0|34=265|49=DMA_HUB|56=FIXCLIENT1|52=20231122-11:43:02.959|10=038|
2023-11-22 12:43:17.357 [38] [FixSender] (DEBUG) Sending 8=FIX.4.4|9=58|35=0|49=FIXCLIENT1|56=DMA_HUB|34=260|52=20231122-11:43:17|10=087|
2023-11-22 12:43:32.922 [37] [FixSender] (DEBUG) Receiving 8=FIX.4.4|9=62|35=0|34=266|49=DMA_HUB|56=FIXCLIENT1|52=20231122-11:43:32.922|10=032|
2023-11-22 12:43:47.365 [38] [FixSender] (DEBUG) Sending 8=FIX.4.4|9=58|35=0|49=FIXCLIENT1|56=DMA_HUB|34=261|52=20231122-11:43:47|10=091|
2023-11-22 12:44:02.935 [37] [FixSender] (DEBUG) Receiving 8=FIX.4.4|9=62|35=0|34=267|49=DMA_HUB|56=FIXCLIENT1|52=20231122-11:44:02.935|10=035|
2023-11-22 12:44:17.382 [38] [FixSender] (DEBUG) Sending 8=FIX.4.4|9=58|35=0|49=FIXCLIENT1|56=DMA_HUB|34=262|52=20231122-11:44:17|10=090|
2023-11-22 12:44:32.881 [37] [FixSender] (DEBUG) Receiving 8=FIX.4.4|9=62|35=0|34=268|49=DMA_HUB|56=FIXCLIENT1|52=20231122-11:44:32.881|10=039|
2023-11-22 12:44:47.398 [38] [FixSender] (DEBUG) Sending 8=FIX.4.4|9=58|35=0|49=FIXCLIENT1|56=DMA_HUB|34=263|52=20231122-11:44:47|10=094|
2023-11-22 12:45:02.827 [37] [FixSender] (DEBUG) Receiving 8=FIX.4.4|9=62|35=0|34=269|49=DMA_HUB|56=FIXCLIENT1|52=20231122-11:45:02.827|10=038|
2023-11-22 12:45:17.400 [38] [FixSender] (DEBUG) Sending 8=FIX.4.4|9=58|35=0|49=FIXCLIENT1|56=DMA_HUB|34=264|52=20231122-11:45:17|10=093|
2023-11-22 12:45:32.792 [37] [FixSender] (DEBUG) Receiving 8=FIX.4.4|9=62|35=0|34=270|49=DMA_HUB|56=FIXCLIENT1|52=20231122-11:45:32.792|10=034|
2023-11-22 12:45:47.416 [38] [FixSender] (DEBUG) Sending 8=FIX.4.4|9=58|35=0|49=FIXCLIENT1|56=DMA_HUB|34=265|52=20231122-11:45:47|10=097|
2023-11-22 12:46:02.734 [37] [FixSender] (DEBUG) Receiving 8=FIX.4.4|9=62|35=0|34=271|49=DMA_HUB|56=FIXCLIENT1|52=20231122-11:46:02.734|10=029|
2023-11-22 12:46:17.423 [38] [FixSender] (DEBUG) Sending 8=FIX.4.4|9=58|35=0|49=FIXCLIENT1|56=DMA_HUB|34=266|52=20231122-11:46:17|10=096|
2023-11-22 12:46:32.695 [37] [FixSender] (DEBUG) Receiving 8=FIX.4.4|9=62|35=0|34=272|49=DMA_HUB|56=FIXCLIENT1|52=20231122-11:46:32.695|10=039|
2023-11-22 12:46:47.425 [38] [FixSender] (DEBUG) Sending 8=FIX.4.4|9=58|35=0|49=FIXCLIENT1|56=DMA_HUB|34=267|52=20231122-11:46:47|10=100|
2023-11-22 12:47:02.647 [37] [FixSender] (DEBUG) Receiving 8=FIX.4.4|9=62|35=0|34=273|49=DMA_HUB|56=FIXCLIENT1|52=20231122-11:47:02.647|10=035|
2023-11-22 12:47:17.437 [38] [FixSender] (DEBUG) Sending 8=FIX.4.4|9=58|35=0|49=FIXCLIENT1|56=DMA_HUB|34=268|52=20231122-11:47:17|10=099|
2023-11-22 12:47:32.598 [37] [FixSender] (DEBUG) Receiving 8=FIX.4.4|9=62|35=0|34=274|49=DMA_HUB|56=FIXCLIENT1|52=20231122-11:47:32.598|10=044|
2023-11-22 12:47:47.447 [38] [FixSender] (DEBUG) Sending 8=FIX.4.4|9=58|35=0|49=FIXCLIENT1|56=DMA_HUB|34=269|52=20231122-11:47:47|10=103|
2023-11-22 12:48:02.547 [37] [FixSender] (DEBUG) Receiving 8=FIX.4.4|9=62|35=0|34=275|49=DMA_HUB|56=FIXCLIENT1|52=20231122-11:48:02.547|10=037|
2023-11-22 12:48:17.459 [38] [FixSender] (DEBUG) Sending 8=FIX.4.4|9=58|35=0|49=FIXCLIENT1|56=DMA_HUB|34=270|52=20231122-11:48:17|10=093|
2023-11-22 12:48:32.494 [37] [FixSender] (DEBUG) Receiving 8=FIX.4.4|9=62|35=0|34=276|49=DMA_HUB|56=FIXCLIENT1|52=20231122-11:48:32.494|10=042|
2023-11-22 12:48:47.476 [38] [FixSender] (DEBUG) Sending 8=FIX.4.4|9=58|35=0|49=FIXCLIENT1|56=DMA_HUB|34=271|52=20231122-11:48:47|10=097|
2023-11-22 12:49:02.455 [37] [FixSender] (DEBUG) Receiving 8=FIX.4.4|9=62|35=0|34=277|49=DMA_HUB|56=FIXCLIENT1|52=20231122-11:49:02.455|10=038|
2023-11-22 12:49:17.481 [38] [FixSender] (DEBUG) Sending 8=FIX.4.4|9=58|35=0|49=FIXCLIENT1|56=DMA_HUB|34=272|52=20231122-11:49:17|10=096|
2023-11-22 12:49:32.408 [37] [FixSender] (DEBUG) Receiving 8=FIX.4.4|9=62|35=0|34=278|49=DMA_HUB|56=FIXCLIENT1|52=20231122-11:49:32.408|10=040|
2023-11-22 12:49:47.497 [38] [FixSender] (DEBUG) Sending 8=FIX.4.4|9=58|35=0|49=FIXCLIENT1|56=DMA_HUB|34=273|52=20231122-11:49:47|10=100|
2023-11-22 12:50:02.347 [37] [FixSender] (DEBUG) Receiving 8=FIX.4.4|9=62|35=0|34=279|49=DMA_HUB|56=FIXCLIENT1|52=20231122-11:50:02.347|10=032|
2023-11-22 12:50:17.499 [38] [FixSender] (DEBUG) Sending 8=FIX.4.4|9=58|35=0|49=FIXCLIENT1|56=DMA_HUB|34=274|52=20231122-11:50:17|10=090|
2023-11-22 12:50:32.307 [37] [FixSender] (DEBUG) Receiving 8=FIX.4.4|9=62|35=0|34=280|49=DMA_HUB|56=FIXCLIENT1|52=20231122-11:50:32.307|10=023|
2023-11-22 12:50:47.514 [38] [FixSender] (DEBUG) Sending 8=FIX.4.4|9=58|35=0|49=FIXCLIENT1|56=DMA_HUB|34=275|52=20231122-11:50:47|10=094|
2023-11-22 12:51:02.258 [37] [FixSender] (DEBUG) Receiving 8=FIX.4.4|9=62|35=0|34=281|49=DMA_HUB|56=FIXCLIENT1|52=20231122-11:51:02.258|10=027|
2023-11-22 12:51:17.523 [38] [FixSender] (DEBUG) Sending 8=FIX.4.4|9=58|35=0|49=FIXCLIENT1|56=DMA_HUB|34=276|52=20231122-11:51:17|10=093|
2023-11-22 12:51:32.210 [37] [FixSender] (DEBUG) Receiving 8=FIX.4.4|9=62|35=0|34=282|49=DMA_HUB|56=FIXCLIENT1|52=20231122-11:51:32.209|10=027|
2023-11-22 12:51:47.524 [38] [FixSender] (DEBUG) Sending 8=FIX.4.4|9=58|35=0|49=FIXCLIENT1|56=DMA_HUB|34=277|52=20231122-11:51:47|10=097|
2023-11-22 12:52:02.161 [37] [FixSender] (DEBUG) Receiving 8=FIX.4.4|9=62|35=0|34=283|49=DMA_HUB|56=FIXCLIENT1|52=20231122-11:52:02.161|10=023|
2023-11-22 12:52:17.537 [38] [FixSender] (DEBUG) Sending 8=FIX.4.4|9=58|35=0|49=FIXCLIENT1|56=DMA_HUB|34=278|52=20231122-11:52:17|10=096|
2023-11-22 12:52:32.112 [37] [FixSender] (DEBUG) Receiving 8=FIX.4.4|9=62|35=0|34=284|49=DMA_HUB|56=FIXCLIENT1|52=20231122-11:52:32.112|10=023|
2023-11-22 12:52:47.541 [38] [FixSender] (DEBUG) Sending 8=FIX.4.4|9=58|35=0|49=FIXCLIENT1|56=DMA_HUB|34=279|52=20231122-11:52:47|10=100|
2023-11-22 12:53:02.065 [37] [FixSender] (DEBUG) Receiving 8=FIX.4.4|9=62|35=0|34=285|49=DMA_HUB|56=FIXCLIENT1|52=20231122-11:53:02.065|10=029|
2023-11-22 12:53:17.542 [38] [FixSender] (DEBUG) Sending 8=FIX.4.4|9=58|35=0|49=FIXCLIENT1|56=DMA_HUB|34=280|52=20231122-11:53:17|10=090|
2023-11-22 12:53:32.011 [37] [FixSender] (DEBUG) Receiving 8=FIX.4.4|9=62|35=0|34=286|49=DMA_HUB|56=FIXCLIENT1|52=20231122-11:53:32.011|10=024|
2023-11-22 12:53:47.551 [38] [FixSender] (DEBUG) Sending 8=FIX.4.4|9=58|35=0|49=FIXCLIENT1|56=DMA_HUB|34=281|52=20231122-11:53:47|10=094|
2023-11-22 12:54:01.965 [37] [FixSender] (DEBUG) Receiving 8=FIX.4.4|9=62|35=0|34=287|49=DMA_HUB|56=FIXCLIENT1|52=20231122-11:54:01.965|10=040|
2023-11-22 12:54:17.553 [38] [FixSender] (DEBUG) Sending 8=FIX.4.4|9=58|35=0|49=FIXCLIENT1|56=DMA_HUB|34=282|52=20231122-11:54:17|10=093|
2023-11-22 12:54:31.922 [37] [FixSender] (DEBUG) Receiving 8=FIX.4.4|9=62|35=0|34=288|49=DMA_HUB|56=FIXCLIENT1|52=20231122-11:54:31.922|10=037|
2023-11-22 12:54:47.559 [38] [FixSender] (DEBUG) Sending 8=FIX.4.4|9=58|35=0|49=FIXCLIENT1|56=DMA_HUB|34=283|52=20231122-11:54:47|10=097|
2023-11-22 12:55:01.881 [37] [FixSender] (DEBUG) Receiving 8=FIX.4.4|9=62|35=0|34=289|49=DMA_HUB|56=FIXCLIENT1|52=20231122-11:55:01.881|10=040|
2023-11-22 12:55:17.570 [38] [FixSender] (DEBUG) Sending 8=FIX.4.4|9=58|35=0|49=FIXCLIENT1|56=DMA_HUB|34=284|52=20231122-11:55:17|10=096|
2023-11-22 12:55:31.820 [37] [FixSender] (DEBUG) Receiving 8=FIX.4.4|9=62|35=0|34=290|49=DMA_HUB|56=FIXCLIENT1|52=20231122-11:55:31.820|10=028|
2023-11-22 12:55:47.578 [38] [FixSender] (DEBUG) Sending 8=FIX.4.4|9=58|35=0|49=FIXCLIENT1|56=DMA_HUB|34=285|52=20231122-11:55:47|10=100|
2023-11-22 12:56:01.784 [37] [FixSender] (DEBUG) Receiving 8=FIX.4.4|9=62|35=0|34=291|49=DMA_HUB|56=FIXCLIENT1|52=20231122-11:56:01.784|10=036|
2023-11-22 12:56:17.590 [38] [FixSender] (DEBUG) Sending 8=FIX.4.4|9=58|35=0|49=FIXCLIENT1|56=DMA_HUB|34=286|52=20231122-11:56:17|10=099|
2023-11-22 12:56:31.728 [37] [FixSender] (DEBUG) Receiving 8=FIX.4.4|9=62|35=0|34=292|49=DMA_HUB|56=FIXCLIENT1|52=20231122-11:56:31.728|10=038|
2023-11-22 12:56:47.592 [38] [FixSender] (DEBUG) Sending 8=FIX.4.4|9=58|35=0|49=FIXCLIENT1|56=DMA_HUB|34=287|52=20231122-11:56:47|10=103|
2023-11-22 12:57:01.678 [37] [FixSender] (DEBUG) Receiving 8=FIX.4.4|9=62|35=0|34=293|49=DMA_HUB|56=FIXCLIENT1|52=20231122-11:57:01.678|10=041|
2023-11-22 12:57:17.595 [38] [FixSender] (DEBUG) Sending 8=FIX.4.4|9=58|35=0|49=FIXCLIENT1|56=DMA_HUB|34=288|52=20231122-11:57:17|10=102|
2023-11-22 12:57:31.634 [37] [FixSender] (DEBUG) Receiving 8=FIX.4.4|9=62|35=0|34=294|49=DMA_HUB|56=FIXCLIENT1|52=20231122-11:57:31.634|10=037|
2023-11-22 12:57:47.597 [38] [FixSender] (DEBUG) Sending 8=FIX.4.4|9=58|35=0|49=FIXCLIENT1|56=DMA_HUB|34=289|52=20231122-11:57:47|10=106|
2023-11-22 12:58:01.592 [37] [FixSender] (DEBUG) Receiving 8=FIX.4.4|9=62|35=0|34=295|49=DMA_HUB|56=FIXCLIENT1|52=20231122-11:58:01.592|10=039|
2023-11-22 12:58:17.603 [38] [FixSender] (DEBUG) Sending 8=FIX.4.4|9=58|35=0|49=FIXCLIENT1|56=DMA_HUB|34=290|52=20231122-11:58:17|10=096|
2023-11-22 12:58:31.534 [37] [FixSender] (DEBUG) Receiving 8=FIX.4.4|9=62|35=0|34=296|49=DMA_HUB|56=FIXCLIENT1|52=20231122-11:58:31.534|10=039|
2023-11-22 12:58:47.611 [38] [FixSender] (DEBUG) Sending 8=FIX.4.4|9=58|35=0|49=FIXCLIENT1|56=DMA_HUB|34=291|52=20231122-11:58:47|10=100|
2023-11-22 12:59:01.494 [37] [FixSender] (DEBUG) Receiving 8=FIX.4.4|9=62|35=0|34=297|49=DMA_HUB|56=FIXCLIENT1|52=20231122-11:59:01.494|10=043|
2023-11-22 12:59:17.625 [38] [FixSender] (DEBUG) Sending 8=FIX.4.4|9=58|35=0|49=FIXCLIENT1|56=DMA_HUB|34=292|52=20231122-11:59:17|10=099|
2023-11-22 12:59:31.438 [37] [FixSender] (DEBUG) Receiving 8=FIX.4.4|9=62|35=0|34=298|49=DMA_HUB|56=FIXCLIENT1|52=20231122-11:59:31.438|10=045|
2023-11-22 12:59:47.633 [38] [FixSender] (DEBUG) Sending 8=FIX.4.4|9=58|35=0|49=FIXCLIENT1|56=DMA_HUB|34=293|52=20231122-11:59:47|10=103|
2023-11-22 13:00:01.392 [37] [FixSender] (DEBUG) Receiving 8=FIX.4.4|9=62|35=0|34=299|49=DMA_HUB|56=FIXCLIENT1|52=20231122-12:00:01.392|10=029|
2023-11-22 13:00:17.641 [38] [FixSender] (DEBUG) Sending 8=FIX.4.4|9=58|35=0|49=FIXCLIENT1|56=DMA_HUB|34=294|52=20231122-12:00:17|10=088|
2023-11-22 13:00:31.341 [37] [FixSender] (DEBUG) Receiving 8=FIX.4.4|9=62|35=0|34=300|49=DMA_HUB|56=FIXCLIENT1|52=20231122-12:00:31.341|10=009|
2023-11-22 13:00:47.650 [38] [FixSender] (DEBUG) Sending 8=FIX.4.4|9=58|35=0|49=FIXCLIENT1|56=DMA_HUB|34=295|52=20231122-12:00:47|10=092|
2023-11-22 13:01:01.303 [37] [FixSender] (DEBUG) Receiving 8=FIX.4.4|9=62|35=0|34=301|49=DMA_HUB|56=FIXCLIENT1|52=20231122-12:01:01.303|10=006|
2023-11-22 13:01:17.659 [38] [FixSender] (DEBUG) Sending 8=FIX.4.4|9=58|35=0|49=FIXCLIENT1|56=DMA_HUB|34=296|52=20231122-12:01:17|10=091|
2023-11-22 13:01:31.248 [37] [FixSender] (DEBUG) Receiving 8=FIX.4.4|9=62|35=0|34=302|49=DMA_HUB|56=FIXCLIENT1|52=20231122-12:01:31.248|10=018|
2023-11-22 13:01:47.666 [38] [FixSender] (DEBUG) Sending 8=FIX.4.4|9=58|35=0|49=FIXCLIENT1|56=DMA_HUB|34=297|52=20231122-12:01:47|10=095|
2023-11-22 13:02:01.199 [37] [FixSender] (DEBUG) Receiving 8=FIX.4.4|9=62|35=0|34=303|49=DMA_HUB|56=FIXCLIENT1|52=20231122-12:02:01.199|10=022|
2023-11-22 13:02:17.674 [38] [FixSender] (DEBUG) Sending 8=FIX.4.4|9=58|35=0|49=FIXCLIENT1|56=DMA_HUB|34=298|52=20231122-12:02:17|10=094|
2023-11-22 13:02:31.156 [37] [FixSender] (DEBUG) Receiving 8=FIX.4.4|9=62|35=0|34=304|49=DMA_HUB|56=FIXCLIENT1|52=20231122-12:02:31.156|10=019|
2023-11-22 13:02:47.686 [38] [FixSender] (DEBUG) Sending 8=FIX.4.4|9=58|35=0|49=FIXCLIENT1|56=DMA_HUB|34=299|52=20231122-12:02:47|10=098|
2023-11-22 13:03:01.106 [37] [FixSender] (DEBUG) Receiving 8=FIX.4.4|9=62|35=0|34=305|49=DMA_HUB|56=FIXCLIENT1|52=20231122-12:03:01.106|10=013|
2023-11-22 13:03:17.698 [38] [FixSender] (DEBUG) Sending 8=FIX.4.4|9=58|35=0|49=FIXCLIENT1|56=DMA_HUB|34=300|52=20231122-12:03:17|10=079|
2023-11-22 13:03:31.057 [37] [FixSender] (DEBUG) Receiving 8=FIX.4.4|9=62|35=0|34=306|49=DMA_HUB|56=FIXCLIENT1|52=20231122-12:03:31.057|10=022|
2023-11-22 13:03:47.701 [38] [FixSender] (DEBUG) Sending 8=FIX.4.4|9=58|35=0|49=FIXCLIENT1|56=DMA_HUB|34=301|52=20231122-12:03:47|10=083|
2023-11-22 13:04:01.012 [37] [FixSender] (DEBUG) Receiving 8=FIX.4.4|9=62|35=0|34=307|49=DMA_HUB|56=FIXCLIENT1|52=20231122-12:04:01.012|10=012|
2023-11-22 13:04:17.706 [38] [FixSender] (DEBUG) Sending 8=FIX.4.4|9=58|35=0|49=FIXCLIENT1|56=DMA_HUB|34=302|52=20231122-12:04:17|10=082|
2023-11-22 13:04:30.964 [37] [FixSender] (DEBUG) Receiving 8=FIX.4.4|9=62|35=0|34=308|49=DMA_HUB|56=FIXCLIENT1|52=20231122-12:04:30.964|10=031|
2023-11-22 13:04:47.707 [38] [FixSender] (DEBUG) Sending 8=FIX.4.4|9=58|35=0|49=FIXCLIENT1|56=DMA_HUB|34=303|52=20231122-12:04:47|10=086|
2023-11-22 13:05:00.906 [37] [FixSender] (DEBUG) Receiving 8=FIX.4.4|9=62|35=0|34=309|49=DMA_HUB|56=FIXCLIENT1|52=20231122-12:05:00.906|10=026|
2023-11-22 13:05:17.709 [38] [FixSender] (DEBUG) Sending 8=FIX.4.4|9=58|35=0|49=FIXCLIENT1|56=DMA_HUB|34=304|52=20231122-12:05:17|10=085|
2023-11-22 13:05:30.863 [37] [FixSender] (DEBUG) Receiving 8=FIX.4.4|9=62|35=0|34=310|49=DMA_HUB|56=FIXCLIENT1|52=20231122-12:05:30.863|10=023|
2023-11-22 13:05:47.725 [38] [FixSender] (DEBUG) Sending 8=FIX.4.4|9=58|35=0|49=FIXCLIENT1|56=DMA_HUB|34=305|52=20231122-12:05:47|10=089|
2023-11-22 13:06:00.817 [37] [FixSender] (DEBUG) Receiving 8=FIX.4.4|9=62|35=0|34=311|49=DMA_HUB|56=FIXCLIENT1|52=20231122-12:06:00.817|10=021|
2023-11-22 13:06:17.732 [38] [FixSender] (DEBUG) Sending 8=FIX.4.4|9=58|35=0|49=FIXCLIENT1|56=DMA_HUB|34=306|52=20231122-12:06:17|10=088|
2023-11-22 13:06:30.772 [37] [FixSender] (DEBUG) Receiving 8=FIX.4.4|9=62|35=0|34=312|49=DMA_HUB|56=FIXCLIENT1|52=20231122-12:06:30.772|10=025|
2023-11-22 13:06:47.744 [38] [FixSender] (DEBUG) Sending 8=FIX.4.4|9=58|35=0|49=FIXCLIENT1|56=DMA_HUB|34=307|52=20231122-12:06:47|10=092|
2023-11-22 13:07:00.722 [37] [FixSender] (DEBUG) Receiving 8=FIX.4.4|9=62|35=0|34=313|49=DMA_HUB|56=FIXCLIENT1|52=20231122-12:07:00.722|10=019|
2023-11-22 13:07:17.748 [38] [FixSender] (DEBUG) Sending 8=FIX.4.4|9=58|35=0|49=FIXCLIENT1|56=DMA_HUB|34=308|52=20231122-12:07:17|10=091|
2023-11-22 13:07:30.667 [37] [FixSender] (DEBUG) Receiving 8=FIX.4.4|9=62|35=0|34=314|49=DMA_HUB|56=FIXCLIENT1|52=20231122-12:07:30.667|10=031|
2023-11-22 13:07:47.755 [38] [FixSender] (DEBUG) Sending 8=FIX.4.4|9=58|35=0|49=FIXCLIENT1|56=DMA_HUB|34=309|52=20231122-12:07:47|10=095|
2023-11-22 13:08:00.624 [37] [FixSender] (DEBUG) Receiving 8=FIX.4.4|9=62|35=0|34=315|49=DMA_HUB|56=FIXCLIENT1|52=20231122-12:08:00.624|10=023|
2023-11-22 13:08:17.773 [38] [FixSender] (DEBUG) Sending 8=FIX.4.4|9=58|35=0|49=FIXCLIENT1|56=DMA_HUB|34=310|52=20231122-12:08:17|10=085|
2023-11-22 13:08:30.583 [37] [FixSender] (DEBUG) Receiving 8=FIX.4.4|9=62|35=0|34=316|49=DMA_HUB|56=FIXCLIENT1|52=20231122-12:08:30.583|10=031|
2023-11-22 13:08:47.784 [38] [FixSender] (DEBUG) Sending 8=FIX.4.4|9=58|35=0|49=FIXCLIENT1|56=DMA_HUB|34=311|52=20231122-12:08:47|10=089|
2023-11-22 13:09:00.529 [37] [FixSender] (DEBUG) Receiving 8=FIX.4.4|9=62|35=0|34=317|49=DMA_HUB|56=FIXCLIENT1|52=20231122-12:09:00.529|10=030|
2023-11-22 13:09:17.793 [38] [FixSender] (DEBUG) Sending 8=FIX.4.4|9=58|35=0|49=FIXCLIENT1|56=DMA_HUB|34=312|52=20231122-12:09:17|10=088|
2023-11-22 13:09:30.479 [37] [FixSender] (DEBUG) Receiving 8=FIX.4.4|9=62|35=0|34=318|49=DMA_HUB|56=FIXCLIENT1|52=20231122-12:09:30.479|10=038|
2023-11-22 13:09:47.798 [38] [FixSender] (DEBUG) Sending 8=FIX.4.4|9=58|35=0|49=FIXCLIENT1|56=DMA_HUB|34=313|52=20231122-12:09:47|10=092|
2023-11-22 13:10:00.431 [37] [FixSender] (DEBUG) Receiving 8=FIX.4.4|9=62|35=0|34=319|49=DMA_HUB|56=FIXCLIENT1|52=20231122-12:10:00.431|10=016|
2023-11-22 13:10:17.799 [38] [FixSender] (DEBUG) Sending 8=FIX.4.4|9=58|35=0|49=FIXCLIENT1|56=DMA_HUB|34=314|52=20231122-12:10:17|10=082|
2023-11-22 13:10:30.391 [37] [FixSender] (DEBUG) Receiving 8=FIX.4.4|9=62|35=0|34=320|49=DMA_HUB|56=FIXCLIENT1|52=20231122-12:10:30.391|10=016|
2023-11-22 13:10:47.802 [38] [FixSender] (DEBUG) Sending 8=FIX.4.4|9=58|35=0|49=FIXCLIENT1|56=DMA_HUB|34=315|52=20231122-12:10:47|10=086|
2023-11-22 13:11:00.340 [37] [FixSender] (DEBUG) Receiving 8=FIX.4.4|9=62|35=0|34=321|49=DMA_HUB|56=FIXCLIENT1|52=20231122-12:11:00.340|10=009|
2023-11-22 13:11:17.809 [38] [FixSender] (DEBUG) Sending 8=FIX.4.4|9=58|35=0|49=FIXCLIENT1|56=DMA_HUB|34=316|52=20231122-12:11:17|10=085|
2023-11-22 13:11:30.294 [37] [FixSender] (DEBUG) Receiving 8=FIX.4.4|9=62|35=0|34=322|49=DMA_HUB|56=FIXCLIENT1|52=20231122-12:11:30.294|10=021|
2023-11-22 13:11:47.824 [38] [FixSender] (DEBUG) Sending 8=FIX.4.4|9=58|35=0|49=FIXCLIENT1|56=DMA_HUB|34=317|52=20231122-12:11:47|10=089|
2023-11-22 13:12:00.246 [37] [FixSender] (DEBUG) Receiving 8=FIX.4.4|9=62|35=0|34=323|49=DMA_HUB|56=FIXCLIENT1|52=20231122-12:12:00.246|10=017|
2023-11-22 13:12:17.829 [38] [FixSender] (DEBUG) Sending 8=FIX.4.4|9=58|35=0|49=FIXCLIENT1|56=DMA_HUB|34=318|52=20231122-12:12:17|10=088|
2023-11-22 13:12:30.189 [37] [FixSender] (DEBUG) Receiving 8=FIX.4.4|9=62|35=0|34=324|49=DMA_HUB|56=FIXCLIENT1|52=20231122-12:12:30.189|10=027|
2023-11-22 13:12:47.843 [38] [FixSender] (DEBUG) Sending 8=FIX.4.4|9=58|35=0|49=FIXCLIENT1|56=DMA_HUB|34=319|52=20231122-12:12:47|10=092|
2023-11-22 13:13:00.145 [37] [FixSender] (DEBUG) Receiving 8=FIX.4.4|9=62|35=0|34=325|49=DMA_HUB|56=FIXCLIENT1|52=20231122-12:13:00.145|10=018|
2023-11-22 13:13:17.854 [38] [FixSender] (DEBUG) Sending 8=FIX.4.4|9=58|35=0|49=FIXCLIENT1|56=DMA_HUB|34=320|52=20231122-12:13:17|10=082|
2023-11-22 13:13:30.097 [37] [FixSender] (DEBUG) Receiving 8=FIX.4.4|9=62|35=0|34=326|49=DMA_HUB|56=FIXCLIENT1|52=20231122-12:13:30.097|10=028|
2023-11-22 13:13:47.861 [38] [FixSender] (DEBUG) Sending 8=FIX.4.4|9=58|35=0|49=FIXCLIENT1|56=DMA_HUB|34=321|52=20231122-12:13:47|10=086|
2023-11-22 13:14:00.043 [37] [FixSender] (DEBUG) Receiving 8=FIX.4.4|9=62|35=0|34=327|49=DMA_HUB|56=FIXCLIENT1|52=20231122-12:14:00.043|10=018|
2023-11-22 13:14:17.862 [38] [FixSender] (DEBUG) Sending 8=FIX.4.4|9=58|35=0|49=FIXCLIENT1|56=DMA_HUB|34=322|52=20231122-12:14:17|10=085|
2023-11-22 13:14:29.997 [37] [FixSender] (DEBUG) Receiving 8=FIX.4.4|9=62|35=0|34=328|49=DMA_HUB|56=FIXCLIENT1|52=20231122-12:14:29.997|10=048|
2023-11-22 13:14:47.867 [38] [FixSender] (DEBUG) Sending 8=FIX.4.4|9=58|35=0|49=FIXCLIENT1|56=DMA_HUB|34=323|52=20231122-12:14:47|10=089|
2023-11-22 13:14:59.949 [37] [FixSender] (DEBUG) Receiving 8=FIX.4.4|9=62|35=0|34=329|49=DMA_HUB|56=FIXCLIENT1|52=20231122-12:14:59.949|10=049|
2023-11-22 13:15:17.871 [38] [FixSender] (DEBUG) Sending 8=FIX.4.4|9=58|35=0|49=FIXCLIENT1|56=DMA_HUB|34=324|52=20231122-12:15:17|10=088|
2023-11-22 13:15:29.908 [37] [FixSender] (DEBUG) Receiving 8=FIX.4.4|9=62|35=0|34=330|49=DMA_HUB|56=FIXCLIENT1|52=20231122-12:15:29.907|10=033|
2023-11-22 13:15:47.881 [38] [FixSender] (DEBUG) Sending 8=FIX.4.4|9=58|35=0|49=FIXCLIENT1|56=DMA_HUB|34=325|52=20231122-12:15:47|10=092|
2023-11-22 13:15:59.854 [37] [FixSender] (DEBUG) Receiving 8=FIX.4.4|9=62|35=0|34=331|49=DMA_HUB|56=FIXCLIENT1|52=20231122-12:15:59.854|10=038|
2023-11-22 13:16:17.883 [38] [FixSender] (DEBUG) Sending 8=FIX.4.4|9=58|35=0|49=FIXCLIENT1|56=DMA_HUB|34=326|52=20231122-12:16:17|10=091|
2023-11-22 13:16:29.813 [37] [FixSender] (DEBUG) Receiving 8=FIX.4.4|9=62|35=0|34=332|49=DMA_HUB|56=FIXCLIENT1|52=20231122-12:16:29.813|10=032|
2023-11-22 13:16:47.892 [38] [FixSender] (DEBUG) Sending 8=FIX.4.4|9=58|35=0|49=FIXCLIENT1|56=DMA_HUB|34=327|52=20231122-12:16:47|10=095|
2023-11-22 13:16:59.757 [37] [FixSender] (DEBUG) Receiving 8=FIX.4.4|9=62|35=0|34=333|49=DMA_HUB|56=FIXCLIENT1|52=20231122-12:16:59.757|10=043|
2023-11-22 13:17:17.899 [38] [FixSender] (DEBUG) Sending 8=FIX.4.4|9=58|35=0|49=FIXCLIENT1|56=DMA_HUB|34=328|52=20231122-12:17:17|10=094|
2023-11-22 13:17:29.713 [37] [FixSender] (DEBUG) Receiving 8=FIX.4.4|9=62|35=0|34=334|49=DMA_HUB|56=FIXCLIENT1|52=20231122-12:17:29.713|10=034|
2023-11-22 13:17:47.905 [38] [FixSender] (DEBUG) Sending 8=FIX.4.4|9=58|35=0|49=FIXCLIENT1|56=DMA_HUB|34=329|52=20231122-12:17:47|10=098|
2023-11-22 13:17:59.661 [37] [FixSender] (DEBUG) Receiving 8=FIX.4.4|9=62|35=0|34=335|49=DMA_HUB|56=FIXCLIENT1|52=20231122-12:17:59.661|10=040|
2023-11-22 13:18:17.914 [38] [FixSender] (DEBUG) Sending 8=FIX.4.4|9=58|35=0|49=FIXCLIENT1|56=DMA_HUB|34=330|52=20231122-12:18:17|10=088|
2023-11-22 13:18:29.618 [37] [FixSender] (DEBUG) Receiving 8=FIX.4.4|9=62|35=0|34=336|49=DMA_HUB|56=FIXCLIENT1|52=20231122-12:18:29.618|10=041|
2023-11-22 13:18:47.917 [38] [FixSender] (DEBUG) Sending 8=FIX.4.4|9=58|35=0|49=FIXCLIENT1|56=DMA_HUB|34=331|52=20231122-12:18:47|10=092|
2023-11-22 13:18:59.567 [37] [FixSender] (DEBUG) Receiving 8=FIX.4.4|9=62|35=0|34=337|49=DMA_HUB|56=FIXCLIENT1|52=20231122-12:18:59.567|10=048|
2023-11-22 13:19:17.920 [38] [FixSender] (DEBUG) Sending 8=FIX.4.4|9=58|35=0|49=FIXCLIENT1|56=DMA_HUB|34=332|52=20231122-12:19:17|10=091|
2023-11-22 13:19:29.522 [37] [FixSender] (DEBUG) Receiving 8=FIX.4.4|9=62|35=0|34=338|49=DMA_HUB|56=FIXCLIENT1|52=20231122-12:19:29.522|10=038|
2023-11-22 13:19:47.931 [38] [FixSender] (DEBUG) Sending 8=FIX.4.4|9=58|35=0|49=FIXCLIENT1|56=DMA_HUB|34=333|52=20231122-12:19:47|10=095|
2023-11-22 13:19:59.473 [37] [FixSender] (DEBUG) Receiving 8=FIX.4.4|9=62|35=0|34=339|49=DMA_HUB|56=FIXCLIENT1|52=20231122-12:19:59.472|10=046|
2023-11-22 13:20:17.935 [38] [FixSender] (DEBUG) Sending 8=FIX.4.4|9=58|35=0|49=FIXCLIENT1|56=DMA_HUB|34=334|52=20231122-12:20:17|10=085|
2023-11-22 13:20:29.433 [37] [FixSender] (DEBUG) Receiving 8=FIX.4.4|9=62|35=0|34=340|49=DMA_HUB|56=FIXCLIENT1|52=20231122-12:20:29.433|10=024|
2023-11-22 13:20:47.945 [38] [FixSender] (DEBUG) Sending 8=FIX.4.4|9=58|35=0|49=FIXCLIENT1|56=DMA_HUB|34=335|52=20231122-12:20:47|10=089|
2023-11-22 13:20:59.372 [37] [FixSender] (DEBUG) Receiving 8=FIX.4.4|9=62|35=0|34=341|49=DMA_HUB|56=FIXCLIENT1|52=20231122-12:20:59.372|10=030|
2023-11-22 13:21:17.952 [38] [FixSender] (DEBUG) Sending 8=FIX.4.4|9=58|35=0|49=FIXCLIENT1|56=DMA_HUB|34=336|52=20231122-12:21:17|10=088|
2023-11-22 13:21:29.332 [37] [FixSender] (DEBUG) Receiving 8=FIX.4.4|9=62|35=0|34=342|49=DMA_HUB|56=FIXCLIENT1|52=20231122-12:21:29.332|10=025|
2023-11-22 13:21:47.968 [38] [FixSender] (DEBUG) Sending 8=FIX.4.4|9=58|35=0|49=FIXCLIENT1|56=DMA_HUB|34=337|52=20231122-12:21:47|10=092|
2023-11-22 13:21:59.278 [37] [FixSender] (DEBUG) Receiving 8=FIX.4.4|9=62|35=0|34=343|49=DMA_HUB|56=FIXCLIENT1|52=20231122-12:21:59.278|10=038|
2023-11-22 13:22:17.975 [38] [FixSender] (DEBUG) Sending 8=FIX.4.4|9=58|35=0|49=FIXCLIENT1|56=DMA_HUB|34=338|52=20231122-12:22:17|10=091|
2023-11-22 13:22:29.233 [37] [FixSender] (DEBUG) Receiving 8=FIX.4.4|9=62|35=0|34=344|49=DMA_HUB|56=FIXCLIENT1|52=20231122-12:22:29.233|10=028|
2023-11-22 13:22:47.989 [38] [FixSender] (DEBUG) Sending 8=FIX.4.4|9=58|35=0|49=FIXCLIENT1|56=DMA_HUB|34=339|52=20231122-12:22:47|10=095|
2023-11-22 13:22:59.185 [37] [FixSender] (DEBUG) Receiving 8=FIX.4.4|9=62|35=0|34=345|49=DMA_HUB|56=FIXCLIENT1|52=20231122-12:22:59.185|10=038|
2023-11-22 13:23:17.997 [38] [FixSender] (DEBUG) Sending 8=FIX.4.4|9=58|35=0|49=FIXCLIENT1|56=DMA_HUB|34=340|52=20231122-12:23:17|10=085|
2023-11-22 13:23:29.140 [37] [FixSender] (DEBUG) Receiving 8=FIX.4.4|9=62|35=0|34=346|49=DMA_HUB|56=FIXCLIENT1|52=20231122-12:23:29.140|10=028|
2023-11-22 13:23:48.009 [38] [FixSender] (DEBUG) Sending 8=FIX.4.4|9=58|35=0|49=FIXCLIENT1|56=DMA_HUB|34=341|52=20231122-12:23:48|10=090|
2023-11-22 13:23:59.089 [37] [FixSender] (DEBUG) Receiving 8=FIX.4.4|9=62|35=0|34=347|49=DMA_HUB|56=FIXCLIENT1|52=20231122-12:23:59.089|10=044|
2023-11-22 13:24:18.024 [38] [FixSender] (DEBUG) Sending 8=FIX.4.4|9=58|35=0|49=FIXCLIENT1|56=DMA_HUB|34=342|52=20231122-12:24:18|10=089|
2023-11-22 13:24:29.040 [37] [FixSender] (DEBUG) Receiving 8=FIX.4.4|9=62|35=0|34=348|49=DMA_HUB|56=FIXCLIENT1|52=20231122-12:24:29.040|10=030|
2023-11-22 13:24:48.034 [38] [FixSender] (DEBUG) Sending 8=FIX.4.4|9=58|35=0|49=FIXCLIENT1|56=DMA_HUB|34=343|52=20231122-12:24:48|10=093|
2023-11-22 13:24:58.987 [37] [FixSender] (DEBUG) Receiving 8=FIX.4.4|9=62|35=0|34=349|49=DMA_HUB|56=FIXCLIENT1|52=20231122-12:24:58.987|10=053|
2023-11-22 13:25:18.050 [38] [FixSender] (DEBUG) Sending 8=FIX.4.4|9=58|35=0|49=FIXCLIENT1|56=DMA_HUB|34=344|52=20231122-12:25:18|10=092|
2023-11-22 13:25:28.953 [37] [FixSender] (DEBUG) Receiving 8=FIX.4.4|9=62|35=0|34=350|49=DMA_HUB|56=FIXCLIENT1|52=20231122-12:25:28.953|10=036|
2023-11-22 13:25:48.063 [38] [FixSender] (DEBUG) Sending 8=FIX.4.4|9=58|35=0|49=FIXCLIENT1|56=DMA_HUB|34=345|52=20231122-12:25:48|10=096|
2023-11-22 13:25:58.891 [37] [FixSender] (DEBUG) Receiving 8=FIX.4.4|9=62|35=0|34=351|49=DMA_HUB|56=FIXCLIENT1|52=20231122-12:25:58.891|10=041|
2023-11-22 13:26:18.076 [38] [FixSender] (DEBUG) Sending 8=FIX.4.4|9=58|35=0|49=FIXCLIENT1|56=DMA_HUB|34=346|52=20231122-12:26:18|10=095|
