2024-02-26 17:49:33.636 [1] [Fixsender] (INFO) (c) 2001-2011 ullink SAS. FixSender. Release 1.11.
2024-02-26 17:49:37.428 [30] [FixSender] (INFO) try to connect to : localhost port :12345
2024-02-26 17:49:37.461 [30] [FixSender] (INFO) physical cnx initiated
2024-02-26 17:49:37.485 [30] [FixSender] (DEBUG) Sending 8=FIX.4.4|9=86|35=A|49=FIXCLIENT1|56=DMA_HUB|34=1|52=20240226-16:49:37|98=0|108=30|95=9|96=null/null|10=100|
2024-02-26 17:49:37.496 [30] [FixSender] (DEBUG) Receiving 8=FIX.4.4|9=72|35=A|34=1|49=DMA_HUB|56=FIXCLIENT1|52=20240226-16:49:37.490|108=30|98=0|10=243|
2024-02-26 17:49:37.498 [30] [FixSender] (WARNING) The Fix connection is open...
2024-02-26 17:49:37.504 [30] [FixSender] (DEBUG) Sending 8=FIX.4.4|9=74|35=1|49=FIXCLIENT1|56=DMA_HUB|34=2|52=20240226-16:49:37|112=synchronized?|10=051|
2024-02-26 17:49:37.508 [30] [FixSender] (DEBUG) Receiving 8=FIX.4.4|9=78|35=0|34=2|49=DMA_HUB|56=FIXCLIENT1|52=20240226-16:49:37.507|112=synchronized?|10=000|
2024-02-26 17:49:39.832 [33] [FixSender] (DEBUG) Sending 8=FIX.4.4|9=192|35=D|49=FIXCLIENT1|56=DMA_HUB|34=3|52=20240226-16:49:39|21=1|11=HS_17089661790|38=3811|55=E:07G@XETR|54=2|60=20240226-16:49:39|40=2|59=0|44=197|48=US3390411052|22=4|15=EUR|207=XETR|1=bram_123|10=132|
2024-02-26 17:49:39.843 [30] [FixSender] (DEBUG) Receiving 8=FIX.4.4|9=234|35=8|34=3|49=DMA_HUB|56=FIXCLIENT1|52=20240226-16:49:39.842|11=HS_17089661790|37=FXF5ooXOU|54=2|40=2|59=0|17=202402261|150=A|39=A|38=3811|151=3811|14=0|6=0|44=197|60=20240226-16:49:39.000|22=4|48=US3390411052|207=XETR|15=EUR|55=[N/A]|10=010|
2024-02-26 17:49:44.937 [34] [FixSender] (DEBUG) Sending 8=FIX.4.4|9=192|35=D|49=FIXCLIENT1|56=DMA_HUB|34=4|52=20240226-16:49:44|21=1|11=HS_17089661841|38=2111|55=E:07G@XETR|54=2|60=20240226-16:49:44|40=2|59=0|44=197|48=US3390411052|22=4|15=EUR|207=XETR|1=bram_123|10=114|
2024-02-26 17:49:44.938 [34] [FixSender] (DEBUG) Sending 8=FIX.4.4|9=192|35=D|49=FIXCLIENT1|56=DMA_HUB|34=5|52=20240226-16:49:44|21=1|11=HS_17089661842|38=3327|55=E:07G@XETR|54=2|60=20240226-16:49:44|40=2|59=0|44=197|48=US3390411052|22=4|15=EUR|207=XETR|1=bram_123|10=126|
2024-02-26 17:49:44.939 [34] [FixSender] (DEBUG) Sending 8=FIX.4.4|9=192|35=D|49=FIXCLIENT1|56=DMA_HUB|34=6|52=20240226-16:49:44|21=1|11=HS_17089661843|38=3473|55=E:07G@XETR|54=2|60=20240226-16:49:44|40=2|59=0|44=197|48=US3390411052|22=4|15=EUR|207=XETR|1=bram_123|10=130|
2024-02-26 17:49:44.940 [34] [FixSender] (DEBUG) Sending 8=FIX.4.4|9=192|35=D|49=FIXCLIENT1|56=DMA_HUB|34=7|52=20240226-16:49:44|21=1|11=HS_17089661844|38=3385|55=E:07G@XETR|54=2|60=20240226-16:49:44|40=2|59=0|44=197|48=US3390411052|22=4|15=EUR|207=XETR|1=bram_123|10=134|
2024-02-26 17:49:44.940 [30] [FixSender] (DEBUG) Receiving 8=FIX.4.4|9=234|35=8|34=4|49=DMA_HUB|56=FIXCLIENT1|52=20240226-16:49:44.939|11=HS_17089661841|37=FXG5ooXOU|54=2|40=2|59=0|17=202402262|150=A|39=A|38=2111|151=2111|14=0|6=0|44=197|60=20240226-16:49:44.000|22=4|48=US3390411052|207=XETR|15=EUR|55=[N/A]|10=249|
2024-02-26 17:49:44.940 [34] [FixSender] (DEBUG) Sending 8=FIX.4.4|9=192|35=D|49=FIXCLIENT1|56=DMA_HUB|34=8|52=20240226-16:49:44|21=1|11=HS_17089661845|38=3699|55=E:07G@XETR|54=2|60=20240226-16:49:44|40=2|59=0|44=197|48=US3390411052|22=4|15=EUR|207=XETR|1=bram_123|10=144|
2024-02-26 17:49:44.940 [30] [FixSender] (DEBUG) Receiving 8=FIX.4.4|9=234|35=8|34=5|49=DMA_HUB|56=FIXCLIENT1|52=20240226-16:49:44.940|11=HS_17089661842|37=FXH5ooXOU|54=2|40=2|59=0|17=202402263|150=A|39=A|38=3327|151=3327|14=0|6=0|44=197|60=20240226-16:49:44.000|22=4|48=US3390411052|207=XETR|15=EUR|55=[N/A]|10=009|
2024-02-26 17:49:44.940 [34] [FixSender] (DEBUG) Sending 8=FIX.4.4|9=192|35=D|49=FIXCLIENT1|56=DMA_HUB|34=9|52=20240226-16:49:44|21=1|11=HS_17089661846|38=4896|55=E:07G@XETR|54=2|60=20240226-16:49:44|40=2|59=0|44=197|48=US3390411052|22=4|15=EUR|207=XETR|1=bram_123|10=146|
2024-02-26 17:49:44.941 [34] [FixSender] (DEBUG) Sending 8=FIX.4.4|9=193|35=D|49=FIXCLIENT1|56=DMA_HUB|34=10|52=20240226-16:49:44|21=1|11=HS_17089661847|38=4467|55=E:07G@XETR|54=2|60=20240226-16:49:44|40=2|59=0|44=197|48=US3390411052|22=4|15=EUR|207=XETR|1=bram_123|10=182|
2024-02-26 17:49:44.942 [34] [FixSender] (DEBUG) Sending 8=FIX.4.4|9=192|35=D|49=FIXCLIENT1|56=DMA_HUB|34=11|52=20240226-16:49:44|21=1|11=HS_17089661848|38=713|55=E:07G@XETR|54=2|60=20240226-16:49:44|40=2|59=0|44=197|48=US3390411052|22=4|15=EUR|207=XETR|1=bram_123|10=125|
2024-02-26 17:49:44.942 [34] [FixSender] (DEBUG) Sending 8=FIX.4.4|9=192|35=D|49=FIXCLIENT1|56=DMA_HUB|34=12|52=20240226-16:49:44|21=1|11=HS_17089661849|38=900|55=E:07G@XETR|54=2|60=20240226-16:49:44|40=2|59=0|44=197|48=US3390411052|22=4|15=EUR|207=XETR|1=bram_123|10=125|
2024-02-26 17:49:44.942 [34] [FixSender] (DEBUG) Sending 8=FIX.4.4|9=194|35=D|49=FIXCLIENT1|56=DMA_HUB|34=13|52=20240226-16:49:44|21=1|11=HS_170896618410|38=3980|55=E:07G@XETR|54=2|60=20240226-16:49:44|40=2|59=0|44=197|48=US3390411052|22=4|15=EUR|207=XETR|1=bram_123|10=227|
2024-02-26 17:49:44.943 [34] [FixSender] (DEBUG) Sending 8=FIX.4.4|9=193|35=D|49=FIXCLIENT1|56=DMA_HUB|34=14|52=20240226-16:49:44|21=1|11=HS_170896618411|38=414|55=E:07G@XETR|54=2|60=20240226-16:49:44|40=2|59=0|44=197|48=US3390411052|22=4|15=EUR|207=XETR|1=bram_123|10=169|
2024-02-26 17:49:44.943 [34] [FixSender] (DEBUG) Sending 8=FIX.4.4|9=194|35=D|49=FIXCLIENT1|56=DMA_HUB|34=15|52=20240226-16:49:44|21=1|11=HS_170896618412|38=4214|55=E:07G@XETR|54=2|60=20240226-16:49:44|40=2|59=0|44=197|48=US3390411052|22=4|15=EUR|207=XETR|1=bram_123|10=222|
2024-02-26 17:49:44.944 [34] [FixSender] (DEBUG) Sending 8=FIX.4.4|9=194|35=D|49=FIXCLIENT1|56=DMA_HUB|34=16|52=20240226-16:49:44|21=1|11=HS_170896618413|38=2714|55=E:07G@XETR|54=2|60=20240226-16:49:44|40=2|59=0|44=197|48=US3390411052|22=4|15=EUR|207=XETR|1=bram_123|10=227|
2024-02-26 17:49:44.944 [34] [FixSender] (DEBUG) Sending 8=FIX.4.4|9=194|35=D|49=FIXCLIENT1|56=DMA_HUB|34=17|52=20240226-16:49:44|21=1|11=HS_170896618414|38=4404|55=E:07G@XETR|54=2|60=20240226-16:49:44|40=2|59=0|44=197|48=US3390411052|22=4|15=EUR|207=XETR|1=bram_123|10=227|
2024-02-26 17:49:44.944 [34] [FixSender] (DEBUG) Sending 8=FIX.4.4|9=194|35=D|49=FIXCLIENT1|56=DMA_HUB|34=18|52=20240226-16:49:44|21=1|11=HS_170896618415|38=4567|55=E:07G@XETR|54=2|60=20240226-16:49:44|40=2|59=0|44=197|48=US3390411052|22=4|15=EUR|207=XETR|1=bram_123|10=239|
2024-02-26 17:49:44.945 [34] [FixSender] (DEBUG) Sending 8=FIX.4.4|9=194|35=D|49=FIXCLIENT1|56=DMA_HUB|34=19|52=20240226-16:49:44|21=1|11=HS_170896618416|38=2613|55=E:07G@XETR|54=2|60=20240226-16:49:44|40=2|59=0|44=197|48=US3390411052|22=4|15=EUR|207=XETR|1=bram_123|10=231|
2024-02-26 17:49:44.945 [34] [FixSender] (DEBUG) Sending 8=FIX.4.4|9=194|35=D|49=FIXCLIENT1|56=DMA_HUB|34=20|52=20240226-16:49:44|21=1|11=HS_170896618417|38=3861|55=E:07G@XETR|54=2|60=20240226-16:49:44|40=2|59=0|44=197|48=US3390411052|22=4|15=EUR|207=XETR|1=bram_123|10=230|
2024-02-26 17:49:44.946 [34] [FixSender] (DEBUG) Sending 8=FIX.4.4|9=194|35=D|49=FIXCLIENT1|56=DMA_HUB|34=21|52=20240226-16:49:44|21=1|11=HS_170896618418|38=1093|55=E:07G@XETR|54=2|60=20240226-16:49:44|40=2|59=0|44=197|48=US3390411052|22=4|15=EUR|207=XETR|1=bram_123|10=227|
2024-02-26 17:49:44.946 [34] [FixSender] (DEBUG) Sending 8=FIX.4.4|9=194|35=D|49=FIXCLIENT1|56=DMA_HUB|34=22|52=20240226-16:49:44|21=1|11=HS_170896618419|38=4285|55=E:07G@XETR|54=2|60=20240226-16:49:44|40=2|59=0|44=197|48=US3390411052|22=4|15=EUR|207=XETR|1=bram_123|10=235|
2024-02-26 17:49:44.947 [34] [FixSender] (DEBUG) Sending 8=FIX.4.4|9=194|35=D|49=FIXCLIENT1|56=DMA_HUB|34=23|52=20240226-16:49:44|21=1|11=HS_170896618420|38=2071|55=E:07G@XETR|54=2|60=20240226-16:49:44|40=2|59=0|44=197|48=US3390411052|22=4|15=EUR|207=XETR|1=bram_123|10=219|
2024-02-26 17:49:44.947 [34] [FixSender] (DEBUG) Sending 8=FIX.4.4|9=194|35=D|49=FIXCLIENT1|56=DMA_HUB|34=24|52=20240226-16:49:44|21=1|11=HS_170896618421|38=4349|55=E:07G@XETR|54=2|60=20240226-16:49:44|40=2|59=0|44=197|48=US3390411052|22=4|15=EUR|207=XETR|1=bram_123|10=231|
2024-02-26 17:49:44.947 [34] [FixSender] (DEBUG) Sending 8=FIX.4.4|9=194|35=D|49=FIXCLIENT1|56=DMA_HUB|34=25|52=20240226-16:49:44|21=1|11=HS_170896618422|38=2689|55=E:07G@XETR|54=2|60=20240226-16:49:44|40=2|59=0|44=197|48=US3390411052|22=4|15=EUR|207=XETR|1=bram_123|10=238|
2024-02-26 17:49:44.948 [34] [FixSender] (DEBUG) Sending 8=FIX.4.4|9=194|35=D|49=FIXCLIENT1|56=DMA_HUB|34=26|52=20240226-16:49:44|21=1|11=HS_170896618423|38=1503|55=E:07G@XETR|54=2|60=20240226-16:49:44|40=2|59=0|44=197|48=US3390411052|22=4|15=EUR|207=XETR|1=bram_123|10=224|
2024-02-26 17:49:44.948 [34] [FixSender] (DEBUG) Sending 8=FIX.4.4|9=193|35=D|49=FIXCLIENT1|56=DMA_HUB|34=27|52=20240226-16:49:44|21=1|11=HS_170896618424|38=544|55=E:07G@XETR|54=2|60=20240226-16:49:44|40=2|59=0|44=197|48=US3390411052|22=4|15=EUR|207=XETR|1=bram_123|10=181|
2024-02-26 17:49:44.949 [34] [FixSender] (DEBUG) Sending 8=FIX.4.4|9=194|35=D|49=FIXCLIENT1|56=DMA_HUB|34=28|52=20240226-16:49:44|21=1|11=HS_170896618425|38=3463|55=E:07G@XETR|54=2|60=20240226-16:49:44|40=2|59=0|44=197|48=US3390411052|22=4|15=EUR|207=XETR|1=bram_123|10=235|
2024-02-26 17:49:44.950 [34] [FixSender] (DEBUG) Sending 8=FIX.4.4|9=194|35=D|49=FIXCLIENT1|56=DMA_HUB|34=29|52=20240226-16:49:44|21=1|11=HS_170896618426|38=2761|55=E:07G@XETR|54=2|60=20240226-16:49:44|40=2|59=0|44=197|48=US3390411052|22=4|15=EUR|207=XETR|1=bram_123|10=237|
2024-02-26 17:49:44.950 [34] [FixSender] (DEBUG) Sending 8=FIX.4.4|9=194|35=D|49=FIXCLIENT1|56=DMA_HUB|34=30|52=20240226-16:49:44|21=1|11=HS_170896618427|38=1522|55=E:07G@XETR|54=2|60=20240226-16:49:44|40=2|59=0|44=197|48=US3390411052|22=4|15=EUR|207=XETR|1=bram_123|10=224|
2024-02-26 17:49:44.950 [34] [FixSender] (DEBUG) Sending 8=FIX.4.4|9=194|35=D|49=FIXCLIENT1|56=DMA_HUB|34=31|52=20240226-16:49:44|21=1|11=HS_170896618428|38=2915|55=E:07G@XETR|54=2|60=20240226-16:49:44|40=2|59=0|44=197|48=US3390411052|22=4|15=EUR|207=XETR|1=bram_123|10=233|
2024-02-26 17:49:44.950 [34] [FixSender] (DEBUG) Sending 8=FIX.4.4|9=194|35=D|49=FIXCLIENT1|56=DMA_HUB|34=32|52=20240226-16:49:44|21=1|11=HS_170896618429|38=2892|55=E:07G@XETR|54=2|60=20240226-16:49:44|40=2|59=0|44=197|48=US3390411052|22=4|15=EUR|207=XETR|1=bram_123|10=239|
2024-02-26 17:49:44.951 [34] [FixSender] (DEBUG) Sending 8=FIX.4.4|9=194|35=D|49=FIXCLIENT1|56=DMA_HUB|34=33|52=20240226-16:49:44|21=1|11=HS_170896618430|38=2538|55=E:07G@XETR|54=2|60=20240226-16:49:44|40=2|59=0|44=197|48=US3390411052|22=4|15=EUR|207=XETR|1=bram_123|10=229|
2024-02-26 17:49:44.951 [34] [FixSender] (DEBUG) Sending 8=FIX.4.4|9=194|35=D|49=FIXCLIENT1|56=DMA_HUB|34=34|52=20240226-16:49:44|21=1|11=HS_170896618431|38=3305|55=E:07G@XETR|54=2|60=20240226-16:49:44|40=2|59=0|44=197|48=US3390411052|22=4|15=EUR|207=XETR|1=bram_123|10=224|
2024-02-26 17:49:44.952 [34] [FixSender] (DEBUG) Sending 8=FIX.4.4|9=194|35=D|49=FIXCLIENT1|56=DMA_HUB|34=35|52=20240226-16:49:44|21=1|11=HS_170896618432|38=1951|55=E:07G@XETR|54=2|60=20240226-16:49:44|40=2|59=0|44=197|48=US3390411052|22=4|15=EUR|207=XETR|1=bram_123|10=231|
2024-02-26 17:49:44.952 [34] [FixSender] (DEBUG) Sending 8=FIX.4.4|9=194|35=D|49=FIXCLIENT1|56=DMA_HUB|34=36|52=20240226-16:49:44|21=1|11=HS_170896618433|38=3094|55=E:07G@XETR|54=2|60=20240226-16:49:44|40=2|59=0|44=197|48=US3390411052|22=4|15=EUR|207=XETR|1=bram_123|10=233|
2024-02-26 17:49:44.953 [34] [FixSender] (DEBUG) Sending 8=FIX.4.4|9=194|35=D|49=FIXCLIENT1|56=DMA_HUB|34=37|52=20240226-16:49:44|21=1|11=HS_170896618434|38=3523|55=E:07G@XETR|54=2|60=20240226-16:49:44|40=2|59=0|44=197|48=US3390411052|22=4|15=EUR|207=XETR|1=bram_123|10=232|
2024-02-26 17:49:44.953 [34] [FixSender] (DEBUG) Sending 8=FIX.4.4|9=193|35=D|49=FIXCLIENT1|56=DMA_HUB|34=38|52=20240226-16:49:44|21=1|11=HS_170896618435|38=615|55=E:07G@XETR|54=2|60=20240226-16:49:44|40=2|59=0|44=197|48=US3390411052|22=4|15=EUR|207=XETR|1=bram_123|10=184|
2024-02-26 17:49:44.953 [34] [FixSender] (DEBUG) Sending 8=FIX.4.4|9=194|35=D|49=FIXCLIENT1|56=DMA_HUB|34=39|52=20240226-16:49:44|21=1|11=HS_170896618436|38=3702|55=E:07G@XETR|54=2|60=20240226-16:49:44|40=2|59=0|44=197|48=US3390411052|22=4|15=EUR|207=XETR|1=bram_123|10=235|
2024-02-26 17:49:44.954 [34] [FixSender] (DEBUG) Sending 8=FIX.4.4|9=194|35=D|49=FIXCLIENT1|56=DMA_HUB|34=40|52=20240226-16:49:44|21=1|11=HS_170896618437|38=4886|55=E:07G@XETR|54=2|60=20240226-16:49:44|40=2|59=0|44=197|48=US3390411052|22=4|15=EUR|207=XETR|1=bram_123|10=242|
2024-02-26 17:49:44.954 [34] [FixSender] (DEBUG) Sending 8=FIX.4.4|9=194|35=D|49=FIXCLIENT1|56=DMA_HUB|34=41|52=20240226-16:49:44|21=1|11=HS_170896618438|38=4036|55=E:07G@XETR|54=2|60=20240226-16:49:44|40=2|59=0|44=197|48=US3390411052|22=4|15=EUR|207=XETR|1=bram_123|10=231|
2024-02-26 17:49:44.955 [34] [FixSender] (DEBUG) Sending 8=FIX.4.4|9=194|35=D|49=FIXCLIENT1|56=DMA_HUB|34=42|52=20240226-16:49:44|21=1|11=HS_170896618439|38=1344|55=E:07G@XETR|54=2|60=20240226-16:49:44|40=2|59=0|44=197|48=US3390411052|22=4|15=EUR|207=XETR|1=bram_123|10=232|
2024-02-26 17:49:44.955 [34] [FixSender] (DEBUG) Sending 8=FIX.4.4|9=193|35=D|49=FIXCLIENT1|56=DMA_HUB|34=43|52=20240226-16:49:44|21=1|11=HS_170896618440|38=173|55=E:07G@XETR|54=2|60=20240226-16:49:44|40=2|59=0|44=197|48=US3390411052|22=4|15=EUR|207=XETR|1=bram_123|10=175|
2024-02-26 17:49:44.956 [34] [FixSender] (DEBUG) Sending 8=FIX.4.4|9=194|35=D|49=FIXCLIENT1|56=DMA_HUB|34=44|52=20240226-16:49:44|21=1|11=HS_170896618441|38=2431|55=E:07G@XETR|54=2|60=20240226-16:49:44|40=2|59=0|44=197|48=US3390411052|22=4|15=EUR|207=XETR|1=bram_123|10=225|
2024-02-26 17:49:44.956 [34] [FixSender] (DEBUG) Sending 8=FIX.4.4|9=194|35=D|49=FIXCLIENT1|56=DMA_HUB|34=45|52=20240226-16:49:44|21=1|11=HS_170896618442|38=3798|55=E:07G@XETR|54=2|60=20240226-16:49:44|40=2|59=0|44=197|48=US3390411052|22=4|15=EUR|207=XETR|1=bram_123|10=244|
2024-02-26 17:49:44.957 [34] [FixSender] (DEBUG) Sending 8=FIX.4.4|9=194|35=D|49=FIXCLIENT1|56=DMA_HUB|34=46|52=20240226-16:49:44|21=1|11=HS_170896618443|38=4339|55=E:07G@XETR|54=2|60=20240226-16:49:44|40=2|59=0|44=197|48=US3390411052|22=4|15=EUR|207=XETR|1=bram_123|10=238|
2024-02-26 17:49:44.957 [34] [FixSender] (DEBUG) Sending 8=FIX.4.4|9=194|35=D|49=FIXCLIENT1|56=DMA_HUB|34=47|52=20240226-16:49:44|21=1|11=HS_170896618444|38=2369|55=E:07G@XETR|54=2|60=20240226-16:49:44|40=2|59=0|44=197|48=US3390411052|22=4|15=EUR|207=XETR|1=bram_123|10=241|
2024-02-26 17:49:44.958 [34] [FixSender] (DEBUG) Sending 8=FIX.4.4|9=194|35=D|49=FIXCLIENT1|56=DMA_HUB|34=48|52=20240226-16:49:44|21=1|11=HS_170896618445|38=1604|55=E:07G@XETR|54=2|60=20240226-16:49:44|40=2|59=0|44=197|48=US3390411052|22=4|15=EUR|207=XETR|1=bram_123|10=234|
2024-02-26 17:49:44.958 [34] [FixSender] (DEBUG) Sending 8=FIX.4.4|9=194|35=D|49=FIXCLIENT1|56=DMA_HUB|34=49|52=20240226-16:49:44|21=1|11=HS_170896618446|38=1913|55=E:07G@XETR|54=2|60=20240226-16:49:44|40=2|59=0|44=197|48=US3390411052|22=4|15=EUR|207=XETR|1=bram_123|10=239|
2024-02-26 17:49:44.958 [34] [FixSender] (DEBUG) Sending 8=FIX.4.4|9=194|35=D|49=FIXCLIENT1|56=DMA_HUB|34=50|52=20240226-16:49:44|21=1|11=HS_170896618447|38=3610|55=E:07G@XETR|54=2|60=20240226-16:49:44|40=2|59=0|44=197|48=US3390411052|22=4|15=EUR|207=XETR|1=bram_123|10=228|
2024-02-26 17:49:44.959 [34] [FixSender] (DEBUG) Sending 8=FIX.4.4|9=193|35=D|49=FIXCLIENT1|56=DMA_HUB|34=51|52=20240226-16:49:44|21=1|11=HS_170896618448|38=245|55=E:07G@XETR|54=2|60=20240226-16:49:44|40=2|59=0|44=197|48=US3390411052|22=4|15=EUR|207=XETR|1=bram_123|10=182|
2024-02-26 17:49:44.960 [34] [FixSender] (DEBUG) Sending 8=FIX.4.4|9=194|35=D|49=FIXCLIENT1|56=DMA_HUB|34=52|52=20240226-16:49:44|21=1|11=HS_170896618449|38=3579|55=E:07G@XETR|54=2|60=20240226-16:49:44|40=2|59=0|44=197|48=US3390411052|22=4|15=EUR|207=XETR|1=bram_123|10=246|
2024-02-26 17:49:44.960 [34] [FixSender] (DEBUG) Sending 8=FIX.4.4|9=193|35=D|49=FIXCLIENT1|56=DMA_HUB|34=53|52=20240226-16:49:44|21=1|11=HS_170896618450|38=344|55=E:07G@XETR|54=2|60=20240226-16:49:44|40=2|59=0|44=197|48=US3390411052|22=4|15=EUR|207=XETR|1=bram_123|10=177|
2024-02-26 17:49:44.960 [34] [FixSender] (DEBUG) Sending 8=FIX.4.4|9=194|35=D|49=FIXCLIENT1|56=DMA_HUB|34=54|52=20240226-16:49:44|21=1|11=HS_170896618451|38=2503|55=E:07G@XETR|54=2|60=20240226-16:49:44|40=2|59=0|44=197|48=US3390411052|22=4|15=EUR|207=XETR|1=bram_123|10=227|
2024-02-26 17:49:44.961 [34] [FixSender] (DEBUG) Sending 8=FIX.4.4|9=194|35=D|49=FIXCLIENT1|56=DMA_HUB|34=55|52=20240226-16:49:44|21=1|11=HS_170896618452|38=2657|55=E:07G@XETR|54=2|60=20240226-16:49:44|40=2|59=0|44=197|48=US3390411052|22=4|15=EUR|207=XETR|1=bram_123|10=239|
2024-02-26 17:49:44.962 [34] [FixSender] (DEBUG) Sending 8=FIX.4.4|9=193|35=D|49=FIXCLIENT1|56=DMA_HUB|34=56|52=20240226-16:49:44|21=1|11=HS_170896618453|38=438|55=E:07G@XETR|54=2|60=20240226-16:49:44|40=2|59=0|44=197|48=US3390411052|22=4|15=EUR|207=XETR|1=bram_123|10=187|
2024-02-26 17:49:44.962 [34] [FixSender] (DEBUG) Sending 8=FIX.4.4|9=194|35=D|49=FIXCLIENT1|56=DMA_HUB|34=57|52=20240226-16:49:44|21=1|11=HS_170896618454|38=4066|55=E:07G@XETR|54=2|60=20240226-16:49:44|40=2|59=0|44=197|48=US3390411052|22=4|15=EUR|207=XETR|1=bram_123|10=239|
2024-02-26 17:49:44.962 [34] [FixSender] (DEBUG) Sending 8=FIX.4.4|9=194|35=D|49=FIXCLIENT1|56=DMA_HUB|34=58|52=20240226-16:49:44|21=1|11=HS_170896618455|38=4307|55=E:07G@XETR|54=2|60=20240226-16:49:44|40=2|59=0|44=197|48=US3390411052|22=4|15=EUR|207=XETR|1=bram_123|10=239|
2024-02-26 17:49:44.963 [34] [FixSender] (DEBUG) Sending 8=FIX.4.4|9=194|35=D|49=FIXCLIENT1|56=DMA_HUB|34=59|52=20240226-16:49:44|21=1|11=HS_170896618456|38=2861|55=E:07G@XETR|54=2|60=20240226-16:49:44|40=2|59=0|44=197|48=US3390411052|22=4|15=EUR|207=XETR|1=bram_123|10=244|
2024-02-26 17:49:44.963 [34] [FixSender] (DEBUG) Sending 8=FIX.4.4|9=194|35=D|49=FIXCLIENT1|56=DMA_HUB|34=60|52=20240226-16:49:44|21=1|11=HS_170896618457|38=4322|55=E:07G@XETR|54=2|60=20240226-16:49:44|40=2|59=0|44=197|48=US3390411052|22=4|15=EUR|207=XETR|1=bram_123|10=231|
2024-02-26 17:49:44.963 [34] [FixSender] (DEBUG) Sending 8=FIX.4.4|9=194|35=D|49=FIXCLIENT1|56=DMA_HUB|34=61|52=20240226-16:49:44|21=1|11=HS_170896618458|38=4260|55=E:07G@XETR|54=2|60=20240226-16:49:44|40=2|59=0|44=197|48=US3390411052|22=4|15=EUR|207=XETR|1=bram_123|10=234|
2024-02-26 17:49:44.964 [30] [FixSender] (DEBUG) Receiving 8=FIX.4.4|9=234|35=8|34=6|49=DMA_HUB|56=FIXCLIENT1|52=20240226-16:49:44.963|11=HS_17089661843|37=FXI5ooXOU|54=2|40=2|59=0|17=202402264|150=A|39=A|38=3473|151=3473|14=0|6=0|44=197|60=20240226-16:49:44.000|22=4|48=US3390411052|207=XETR|15=EUR|55=[N/A]|10=022|
2024-02-26 17:49:44.964 [34] [FixSender] (DEBUG) Sending 8=FIX.4.4|9=193|35=D|49=FIXCLIENT1|56=DMA_HUB|34=62|52=20240226-16:49:44|21=1|11=HS_170896618459|38=842|55=E:07G@XETR|54=2|60=20240226-16:49:44|40=2|59=0|44=197|48=US3390411052|22=4|15=EUR|207=XETR|1=bram_123|10=189|
2024-02-26 17:49:44.964 [34] [FixSender] (DEBUG) Sending 8=FIX.4.4|9=194|35=D|49=FIXCLIENT1|56=DMA_HUB|34=63|52=20240226-16:49:44|21=1|11=HS_170896618460|38=4447|55=E:07G@XETR|54=2|60=20240226-16:49:44|40=2|59=0|44=197|48=US3390411052|22=4|15=EUR|207=XETR|1=bram_123|10=236|
2024-02-26 17:49:44.965 [30] [FixSender] (DEBUG) Receiving 8=FIX.4.4|9=234|35=8|34=7|49=DMA_HUB|56=FIXCLIENT1|52=20240226-16:49:44.964|11=HS_17089661844|37=FXJ5ooXOU|54=2|40=2|59=0|17=202402265|150=A|39=A|38=3385|151=3385|14=0|6=0|44=197|60=20240226-16:49:44.000|22=4|48=US3390411052|207=XETR|15=EUR|55=[N/A]|10=031|
2024-02-26 17:49:44.965 [34] [FixSender] (DEBUG) Sending 8=FIX.4.4|9=194|35=D|49=FIXCLIENT1|56=DMA_HUB|34=64|52=20240226-16:49:44|21=1|11=HS_170896618461|38=3750|55=E:07G@XETR|54=2|60=20240226-16:49:44|40=2|59=0|44=197|48=US3390411052|22=4|15=EUR|207=XETR|1=bram_123|10=234|
2024-02-26 17:49:44.965 [34] [FixSender] (DEBUG) Sending 8=FIX.4.4|9=194|35=D|49=FIXCLIENT1|56=DMA_HUB|34=65|52=20240226-16:49:44|21=1|11=HS_170896618462|38=1002|55=E:07G@XETR|54=2|60=20240226-16:49:44|40=2|59=0|44=197|48=US3390411052|22=4|15=EUR|207=XETR|1=bram_123|10=224|
2024-02-26 17:49:44.965 [30] [FixSender] (DEBUG) Receiving 8=FIX.4.4|9=234|35=8|34=8|49=DMA_HUB|56=FIXCLIENT1|52=20240226-16:49:44.965|11=HS_17089661845|37=FXK5ooXOU|54=2|40=2|59=0|17=202402266|150=A|39=A|38=3699|151=3699|14=0|6=0|44=197|60=20240226-16:49:44.000|22=4|48=US3390411052|207=XETR|15=EUR|55=[N/A]|10=052|
2024-02-26 17:49:44.966 [34] [FixSender] (DEBUG) Sending 8=FIX.4.4|9=194|35=D|49=FIXCLIENT1|56=DMA_HUB|34=66|52=20240226-16:49:44|21=1|11=HS_170896618463|38=3992|55=E:07G@XETR|54=2|60=20240226-16:49:44|40=2|59=0|44=197|48=US3390411052|22=4|15=EUR|207=XETR|1=bram_123|10=246|
2024-02-26 17:49:44.966 [34] [FixSender] (DEBUG) Sending 8=FIX.4.4|9=194|35=D|49=FIXCLIENT1|56=DMA_HUB|34=67|52=20240226-16:49:44|21=1|11=HS_170896618464|38=1509|55=E:07G@XETR|54=2|60=20240226-16:49:44|40=2|59=0|44=197|48=US3390411052|22=4|15=EUR|207=XETR|1=bram_123|10=240|
2024-02-26 17:49:44.966 [30] [FixSender] (DEBUG) Receiving 8=FIX.4.4|9=234|35=8|34=9|49=DMA_HUB|56=FIXCLIENT1|52=20240226-16:49:44.966|11=HS_17089661846|37=FXL5ooXOU|54=2|40=2|59=0|17=202402267|150=A|39=A|38=4896|151=4896|14=0|6=0|44=197|60=20240226-16:49:44.000|22=4|48=US3390411052|207=XETR|15=EUR|55=[N/A]|10=057|
2024-02-26 17:49:44.967 [34] [FixSender] (DEBUG) Sending 8=FIX.4.4|9=194|35=D|49=FIXCLIENT1|56=DMA_HUB|34=68|52=20240226-16:49:44|21=1|11=HS_170896618465|38=4837|55=E:07G@XETR|54=2|60=20240226-16:49:44|40=2|59=0|44=197|48=US3390411052|22=4|15=EUR|207=XETR|1=bram_123|10=249|
2024-02-26 17:49:44.967 [34] [FixSender] (DEBUG) Sending 8=FIX.4.4|9=194|35=D|49=FIXCLIENT1|56=DMA_HUB|34=69|52=20240226-16:49:44|21=1|11=HS_170896618466|38=2179|55=E:07G@XETR|54=2|60=20240226-16:49:44|40=2|59=0|44=197|48=US3390411052|22=4|15=EUR|207=XETR|1=bram_123|10=248|
2024-02-26 17:49:44.967 [34] [FixSender] (DEBUG) Sending 8=FIX.4.4|9=194|35=D|49=FIXCLIENT1|56=DMA_HUB|34=70|52=20240226-16:49:44|21=1|11=HS_170896618467|38=4923|55=E:07G@XETR|54=2|60=20240226-16:49:44|40=2|59=0|44=197|48=US3390411052|22=4|15=EUR|207=XETR|1=bram_123|10=240|
2024-02-26 17:49:44.968 [34] [FixSender] (DEBUG) Sending 8=FIX.4.4|9=193|35=D|49=FIXCLIENT1|56=DMA_HUB|34=71|52=20240226-16:49:44|21=1|11=HS_170896618468|38=918|55=E:07G@XETR|54=2|60=20240226-16:49:44|40=2|59=0|44=197|48=US3390411052|22=4|15=EUR|207=XETR|1=bram_123|10=193|
2024-02-26 17:49:44.968 [30] [FixSender] (DEBUG) Receiving 8=FIX.4.4|9=235|35=8|34=10|49=DMA_HUB|56=FIXCLIENT1|52=20240226-16:49:44.967|11=HS_17089661847|37=FXM5ooXOU|54=2|40=2|59=0|17=202402268|150=A|39=A|38=4467|151=4467|14=0|6=0|44=197|60=20240226-16:49:44.000|22=4|48=US3390411052|207=XETR|15=EUR|55=[N/A]|10=090|
2024-02-26 17:49:44.968 [34] [FixSender] (DEBUG) Sending 8=FIX.4.4|9=194|35=D|49=FIXCLIENT1|56=DMA_HUB|34=72|52=20240226-16:49:44|21=1|11=HS_170896618469|38=1346|55=E:07G@XETR|54=2|60=20240226-16:49:44|40=2|59=0|44=197|48=US3390411052|22=4|15=EUR|207=XETR|1=bram_123|10=240|
2024-02-26 17:49:44.968 [30] [FixSender] (DEBUG) Receiving 8=FIX.4.4|9=233|35=8|34=11|49=DMA_HUB|56=FIXCLIENT1|52=20240226-16:49:44.967|11=HS_17089661848|37=FXN5ooXOU|54=2|40=2|59=0|17=202402269|150=A|39=A|38=713|151=713|14=0|6=0|44=197|60=20240226-16:49:44.000|22=4|48=US3390411052|207=XETR|15=EUR|55=[N/A]|10=232|
2024-02-26 17:49:44.969 [30] [FixSender] (DEBUG) Receiving 8=FIX.4.4|9=234|35=8|34=12|49=DMA_HUB|56=FIXCLIENT1|52=20240226-16:49:44.968|11=HS_17089661849|37=FXO5ooXOU|54=2|40=2|59=0|17=2024022610|150=A|39=A|38=900|151=900|14=0|6=0|44=197|60=20240226-16:49:44.000|22=4|48=US3390411052|207=XETR|15=EUR|55=[N/A]|10=017|
2024-02-26 17:49:44.969 [34] [FixSender] (DEBUG) Sending 8=FIX.4.4|9=194|35=D|49=FIXCLIENT1|56=DMA_HUB|34=73|52=20240226-16:49:44|21=1|11=HS_170896618470|38=3353|55=E:07G@XETR|54=2|60=20240226-16:49:44|40=2|59=0|44=197|48=US3390411052|22=4|15=EUR|207=XETR|1=bram_123|10=233|
2024-02-26 17:49:44.970 [34] [FixSender] (DEBUG) Sending 8=FIX.4.4|9=194|35=D|49=FIXCLIENT1|56=DMA_HUB|34=74|52=20240226-16:49:44|21=1|11=HS_170896618471|38=4643|55=E:07G@XETR|54=2|60=20240226-16:49:44|40=2|59=0|44=197|48=US3390411052|22=4|15=EUR|207=XETR|1=bram_123|10=238|
2024-02-26 17:49:44.970 [30] [FixSender] (DEBUG) Receiving 8=FIX.4.4|9=237|35=8|34=13|49=DMA_HUB|56=FIXCLIENT1|52=20240226-16:49:44.970|11=HS_170896618410|37=FXP5ooXOU|54=2|40=2|59=0|17=2024022611|150=A|39=A|38=3980|151=3980|14=0|6=0|44=197|60=20240226-16:49:44.000|22=4|48=US3390411052|207=XETR|15=EUR|55=[N/A]|10=174|
2024-02-26 17:49:44.970 [34] [FixSender] (DEBUG) Sending 8=FIX.4.4|9=194|35=D|49=FIXCLIENT1|56=DMA_HUB|34=75|52=20240226-16:49:44|21=1|11=HS_170896618472|38=4881|55=E:07G@XETR|54=2|60=20240226-16:49:44|40=2|59=0|44=197|48=US3390411052|22=4|15=EUR|207=XETR|1=bram_123|10=244|
2024-02-26 17:49:44.982 [30] [FixSender] (DEBUG) Receiving 8=FIX.4.4|9=235|35=8|34=14|49=DMA_HUB|56=FIXCLIENT1|52=20240226-16:49:44.970|11=HS_170896618411|37=FXQ5ooXOU|54=2|40=2|59=0|17=2024022612|150=A|39=A|38=414|151=414|14=0|6=0|44=197|60=20240226-16:49:44.000|22=4|48=US3390411052|207=XETR|15=EUR|55=[N/A]|10=058|
2024-02-26 17:49:44.982 [30] [FixSender] (DEBUG) Receiving 8=FIX.4.4|9=237|35=8|34=15|49=DMA_HUB|56=FIXCLIENT1|52=20240226-16:49:44.971|11=HS_170896618412|37=FXR5ooXOU|54=2|40=2|59=0|17=2024022613|150=A|39=A|38=4214|151=4214|14=0|6=0|44=197|60=20240226-16:49:44.000|22=4|48=US3390411052|207=XETR|15=EUR|55=[N/A]|10=165|
2024-02-26 17:49:44.982 [30] [FixSender] (DEBUG) Receiving 8=FIX.4.4|9=237|35=8|34=16|49=DMA_HUB|56=FIXCLIENT1|52=20240226-16:49:44.972|11=HS_170896618413|37=FXS5ooXOU|54=2|40=2|59=0|17=2024022614|150=A|39=A|38=2714|151=2714|14=0|6=0|44=197|60=20240226-16:49:44.000|22=4|48=US3390411052|207=XETR|15=EUR|55=[N/A]|10=176|
2024-02-26 17:49:44.983 [34] [FixSender] (DEBUG) Sending 8=FIX.4.4|9=194|35=D|49=FIXCLIENT1|56=DMA_HUB|34=76|52=20240226-16:49:44|21=1|11=HS_170896618473|38=1551|55=E:07G@XETR|54=2|60=20240226-16:49:44|40=2|59=0|44=197|48=US3390411052|22=4|15=EUR|207=XETR|1=bram_123|10=237|
2024-02-26 17:49:44.983 [30] [FixSender] (DEBUG) Receiving 8=FIX.4.4|9=237|35=8|34=17|49=DMA_HUB|56=FIXCLIENT1|52=20240226-16:49:44.972|11=HS_170896618414|37=FXT5ooXOU|54=2|40=2|59=0|17=2024022615|150=A|39=A|38=4404|151=4404|14=0|6=0|44=197|60=20240226-16:49:44.000|22=4|48=US3390411052|207=XETR|15=EUR|55=[N/A]|10=176|
2024-02-26 17:49:44.983 [30] [FixSender] (DEBUG) Receiving 8=FIX.4.4|9=237|35=8|34=18|49=DMA_HUB|56=FIXCLIENT1|52=20240226-16:49:44.978|11=HS_170896618415|37=FXU5ooXOU|54=2|40=2|59=0|17=2024022616|150=A|39=A|38=4567|151=4567|14=0|6=0|44=197|60=20240226-16:49:44.000|22=4|48=US3390411052|207=XETR|15=EUR|55=[N/A]|10=206|
2024-02-26 17:49:44.983 [30] [FixSender] (DEBUG) Receiving 8=FIX.4.4|9=237|35=8|34=19|49=DMA_HUB|56=FIXCLIENT1|52=20240226-16:49:44.982|11=HS_170896618416|37=FXV5ooXOU|54=2|40=2|59=0|17=2024022617|150=A|39=A|38=2613|151=2613|14=0|6=0|44=197|60=20240226-16:49:44.000|22=4|48=US3390411052|207=XETR|15=EUR|55=[N/A]|10=185|
2024-02-26 17:49:44.983 [34] [FixSender] (DEBUG) Sending 8=FIX.4.4|9=194|35=D|49=FIXCLIENT1|56=DMA_HUB|34=77|52=20240226-16:49:44|21=1|11=HS_170896618474|38=2922|55=E:07G@XETR|54=2|60=20240226-16:49:44|40=2|59=0|44=197|48=US3390411052|22=4|15=EUR|207=XETR|1=bram_123|10=242|
2024-02-26 17:49:44.984 [34] [FixSender] (DEBUG) Sending 8=FIX.4.4|9=194|35=D|49=FIXCLIENT1|56=DMA_HUB|34=78|52=20240226-16:49:44|21=1|11=HS_170896618475|38=1654|55=E:07G@XETR|54=2|60=20240226-16:49:44|40=2|59=0|44=197|48=US3390411052|22=4|15=EUR|207=XETR|1=bram_123|10=245|
2024-02-26 17:49:44.985 [34] [FixSender] (DEBUG) Sending 8=FIX.4.4|9=193|35=D|49=FIXCLIENT1|56=DMA_HUB|34=79|52=20240226-16:49:44|21=1|11=HS_170896618476|38=147|55=E:07G@XETR|54=2|60=20240226-16:49:44|40=2|59=0|44=197|48=US3390411052|22=4|15=EUR|207=XETR|1=bram_123|10=194|
2024-02-26 17:49:44.985 [30] [FixSender] (DEBUG) Receiving 8=FIX.4.4|9=237|35=8|34=20|49=DMA_HUB|56=FIXCLIENT1|52=20240226-16:49:44.984|11=HS_170896618417|37=FXW5ooXOU|54=2|40=2|59=0|17=2024022618|150=A|39=A|38=3861|151=3861|14=0|6=0|44=197|60=20240226-16:49:44.000|22=4|48=US3390411052|207=XETR|15=EUR|55=[N/A]|10=194|
2024-02-26 17:49:44.986 [34] [FixSender] (DEBUG) Sending 8=FIX.4.4|9=194|35=D|49=FIXCLIENT1|56=DMA_HUB|34=80|52=20240226-16:49:44|21=1|11=HS_170896618477|38=4765|55=E:07G@XETR|54=2|60=20240226-16:49:44|40=2|59=0|44=197|48=US3390411052|22=4|15=EUR|207=XETR|1=bram_123|10=246|
2024-02-26 17:49:44.986 [34] [FixSender] (DEBUG) Sending 8=FIX.4.4|9=194|35=D|49=FIXCLIENT1|56=DMA_HUB|34=81|52=20240226-16:49:44|21=1|11=HS_170896618478|38=1245|55=E:07G@XETR|54=2|60=20240226-16:49:44|40=2|59=0|44=197|48=US3390411052|22=4|15=EUR|207=XETR|1=bram_123|10=238|
2024-02-26 17:49:44.987 [34] [FixSender] (DEBUG) Sending 8=FIX.4.4|9=194|35=D|49=FIXCLIENT1|56=DMA_HUB|34=82|52=20240226-16:49:44|21=1|11=HS_170896618479|38=3261|55=E:07G@XETR|54=2|60=20240226-16:49:44|40=2|59=0|44=197|48=US3390411052|22=4|15=EUR|207=XETR|1=bram_123|10=240|
2024-02-26 17:49:44.988 [30] [FixSender] (DEBUG) Receiving 8=FIX.4.4|9=237|35=8|34=21|49=DMA_HUB|56=FIXCLIENT1|52=20240226-16:49:44.986|11=HS_170896618418|37=FXX5ooXOU|54=2|40=2|59=0|17=2024022619|150=A|39=A|38=1093|151=1093|14=0|6=0|44=197|60=20240226-16:49:44.000|22=4|48=US3390411052|207=XETR|15=EUR|55=[N/A]|10=190|
2024-02-26 17:49:44.988 [30] [FixSender] (DEBUG) Receiving 8=FIX.4.4|9=237|35=8|34=22|49=DMA_HUB|56=FIXCLIENT1|52=20240226-16:49:44.988|11=HS_170896618419|37=FXY5ooXOU|54=2|40=2|59=0|17=2024022620|150=A|39=A|38=4285|151=4285|14=0|6=0|44=197|60=20240226-16:49:44.000|22=4|48=US3390411052|207=XETR|15=EUR|55=[N/A]|10=199|
2024-02-26 17:49:44.988 [34] [FixSender] (DEBUG) Sending 8=FIX.4.4|9=194|35=D|49=FIXCLIENT1|56=DMA_HUB|34=83|52=20240226-16:49:44|21=1|11=HS_170896618480|38=4813|55=E:07G@XETR|54=2|60=20240226-16:49:44|40=2|59=0|44=197|48=US3390411052|22=4|15=EUR|207=XETR|1=bram_123|10=237|
2024-02-26 17:49:44.989 [34] [FixSender] (DEBUG) Sending 8=FIX.4.4|9=194|35=D|49=FIXCLIENT1|56=DMA_HUB|34=84|52=20240226-16:49:44|21=1|11=HS_170896618481|38=1851|55=E:07G@XETR|54=2|60=20240226-16:49:44|40=2|59=0|44=197|48=US3390411052|22=4|15=EUR|207=XETR|1=bram_123|10=238|
2024-02-26 17:49:44.990 [30] [FixSender] (DEBUG) Receiving 8=FIX.4.4|9=237|35=8|34=23|49=DMA_HUB|56=FIXCLIENT1|52=20240226-16:49:44.989|11=HS_170896618420|37=FXZ5ooXOU|54=2|40=2|59=0|17=2024022621|150=A|39=A|38=2071|151=2071|14=0|6=0|44=197|60=20240226-16:49:44.000|22=4|48=US3390411052|207=XETR|15=EUR|55=[N/A]|10=177|
2024-02-26 17:49:44.990 [34] [FixSender] (DEBUG) Sending 8=FIX.4.4|9=194|35=D|49=FIXCLIENT1|56=DMA_HUB|34=85|52=20240226-16:49:44|21=1|11=HS_170896618482|38=4419|55=E:07G@XETR|54=2|60=20240226-16:49:44|40=2|59=0|44=197|48=US3390411052|22=4|15=EUR|207=XETR|1=bram_123|10=243|
2024-02-26 17:49:44.990 [34] [FixSender] (DEBUG) Sending 8=FIX.4.4|9=194|35=D|49=FIXCLIENT1|56=DMA_HUB|34=86|52=20240226-16:49:44|21=1|11=HS_170896618483|38=1806|55=E:07G@XETR|54=2|60=20240226-16:49:44|40=2|59=0|44=197|48=US3390411052|22=4|15=EUR|207=XETR|1=bram_123|10=242|
2024-02-26 17:49:44.991 [34] [FixSender] (DEBUG) Sending 8=FIX.4.4|9=194|35=D|49=FIXCLIENT1|56=DMA_HUB|34=87|52=20240226-16:49:44|21=1|11=HS_170896618484|38=1822|55=E:07G@XETR|54=2|60=20240226-16:49:44|40=2|59=0|44=197|48=US3390411052|22=4|15=EUR|207=XETR|1=bram_123|10=242|
2024-02-26 17:49:44.991 [30] [FixSender] (DEBUG) Receiving 8=FIX.4.4|9=237|35=8|34=24|49=DMA_HUB|56=FIXCLIENT1|52=20240226-16:49:44.990|11=HS_170896618421|37=FXa5ooXOU|54=2|40=2|59=0|17=2024022622|150=A|39=A|38=4349|151=4349|14=0|6=0|44=197|60=20240226-16:49:44.000|22=4|48=US3390411052|207=XETR|15=EUR|55=[N/A]|10=199|
2024-02-26 17:49:44.991 [34] [FixSender] (DEBUG) Sending 8=FIX.4.4|9=193|35=D|49=FIXCLIENT1|56=DMA_HUB|34=88|52=20240226-16:49:44|21=1|11=HS_170896618485|38=919|55=E:07G@XETR|54=2|60=20240226-16:49:44|40=2|59=0|44=197|48=US3390411052|22=4|15=EUR|207=XETR|1=bram_123|10=201|
2024-02-26 17:49:44.992 [34] [FixSender] (DEBUG) Sending 8=FIX.4.4|9=194|35=D|49=FIXCLIENT1|56=DMA_HUB|34=89|52=20240226-16:49:44|21=1|11=HS_170896618486|38=4344|55=E:07G@XETR|54=2|60=20240226-16:49:44|40=2|59=0|44=197|48=US3390411052|22=4|15=EUR|207=XETR|1=bram_123|10=248|
2024-02-26 17:49:44.992 [34] [FixSender] (DEBUG) Sending 8=FIX.4.4|9=194|35=D|49=FIXCLIENT1|56=DMA_HUB|34=90|52=20240226-16:49:44|21=1|11=HS_170896618487|38=3921|55=E:07G@XETR|54=2|60=20240226-16:49:44|40=2|59=0|44=197|48=US3390411052|22=4|15=EUR|207=XETR|1=bram_123|10=241|
2024-02-26 17:49:44.993 [34] [FixSender] (DEBUG) Sending 8=FIX.4.4|9=194|35=D|49=FIXCLIENT1|56=DMA_HUB|34=91|52=20240226-16:49:44|21=1|11=HS_170896618488|38=2297|55=E:07G@XETR|54=2|60=20240226-16:49:44|40=2|59=0|44=197|48=US3390411052|22=4|15=EUR|207=XETR|1=bram_123|10=248|
2024-02-26 17:49:44.993 [34] [FixSender] (DEBUG) Sending 8=FIX.4.4|9=194|35=D|49=FIXCLIENT1|56=DMA_HUB|34=92|52=20240226-16:49:44|21=1|11=HS_170896618489|38=1478|55=E:07G@XETR|54=2|60=20240226-16:49:44|40=2|59=0|44=197|48=US3390411052|22=4|15=EUR|207=XETR|1=bram_123|10=250|
2024-02-26 17:49:44.993 [34] [FixSender] (DEBUG) Sending 8=FIX.4.4|9=194|35=D|49=FIXCLIENT1|56=DMA_HUB|34=93|52=20240226-16:49:44|21=1|11=HS_170896618490|38=1105|55=E:07G@XETR|54=2|60=20240226-16:49:44|40=2|59=0|44=197|48=US3390411052|22=4|15=EUR|207=XETR|1=bram_123|10=230|
2024-02-26 17:49:44.994 [34] [FixSender] (DEBUG) Sending 8=FIX.4.4|9=194|35=D|49=FIXCLIENT1|56=DMA_HUB|34=94|52=20240226-16:49:44|21=1|11=HS_170896618491|38=2384|55=E:07G@XETR|54=2|60=20240226-16:49:44|40=2|59=0|44=197|48=US3390411052|22=4|15=EUR|207=XETR|1=bram_123|10=242|
2024-02-26 17:49:44.994 [34] [FixSender] (DEBUG) Sending 8=FIX.4.4|9=194|35=D|49=FIXCLIENT1|56=DMA_HUB|34=95|52=20240226-16:49:44|21=1|11=HS_170896618492|38=3018|55=E:07G@XETR|54=2|60=20240226-16:49:44|40=2|59=0|44=197|48=US3390411052|22=4|15=EUR|207=XETR|1=bram_123|10=239|
2024-02-26 17:49:44.995 [34] [FixSender] (DEBUG) Sending 8=FIX.4.4|9=194|35=D|49=FIXCLIENT1|56=DMA_HUB|34=96|52=20240226-16:49:44|21=1|11=HS_170896618493|38=2704|55=E:07G@XETR|54=2|60=20240226-16:49:44|40=2|59=0|44=197|48=US3390411052|22=4|15=EUR|207=XETR|1=bram_123|10=242|
2024-02-26 17:49:44.995 [34] [FixSender] (DEBUG) Sending 8=FIX.4.4|9=194|35=D|49=FIXCLIENT1|56=DMA_HUB|34=97|52=20240226-16:49:44|21=1|11=HS_170896618494|38=4094|55=E:07G@XETR|54=2|60=20240226-16:49:44|40=2|59=0|44=197|48=US3390411052|22=4|15=EUR|207=XETR|1=bram_123|10=248|
2024-02-26 17:49:44.996 [34] [FixSender] (DEBUG) Sending 8=FIX.4.4|9=193|35=D|49=FIXCLIENT1|56=DMA_HUB|34=98|52=20240226-16:49:44|21=1|11=HS_170896618495|38=828|55=E:07G@XETR|54=2|60=20240226-16:49:44|40=2|59=0|44=197|48=US3390411052|22=4|15=EUR|207=XETR|1=bram_123|10=202|
2024-02-26 17:49:44.996 [34] [FixSender] (DEBUG) Sending 8=FIX.4.4|9=194|35=D|49=FIXCLIENT1|56=DMA_HUB|34=99|52=20240226-16:49:44|21=1|11=HS_170896618496|38=4490|55=E:07G@XETR|54=2|60=20240226-16:49:44|40=2|59=0|44=197|48=US3390411052|22=4|15=EUR|207=XETR|1=bram_123|10=252|
2024-02-26 17:49:44.997 [34] [FixSender] (DEBUG) Sending 8=FIX.4.4|9=195|35=D|49=FIXCLIENT1|56=DMA_HUB|34=100|52=20240226-16:49:44|21=1|11=HS_170896618497|38=4858|55=E:07G@XETR|54=2|60=20240226-16:49:44|40=2|59=0|44=197|48=US3390411052|22=4|15=EUR|207=XETR|1=bram_123|10=037|
2024-02-26 17:49:44.997 [34] [FixSender] (DEBUG) Sending 8=FIX.4.4|9=195|35=D|49=FIXCLIENT1|56=DMA_HUB|34=101|52=20240226-16:49:44|21=1|11=HS_170896618498|38=1349|55=E:07G@XETR|54=2|60=20240226-16:49:44|40=2|59=0|44=197|48=US3390411052|22=4|15=EUR|207=XETR|1=bram_123|10=031|
2024-02-26 17:49:44.998 [34] [FixSender] (DEBUG) Sending 8=FIX.4.4|9=195|35=D|49=FIXCLIENT1|56=DMA_HUB|34=102|52=20240226-16:49:44|21=1|11=HS_170896618499|38=3313|55=E:07G@XETR|54=2|60=20240226-16:49:44|40=2|59=0|44=197|48=US3390411052|22=4|15=EUR|207=XETR|1=bram_123|10=026|
2024-02-26 17:49:44.998 [34] [FixSender] (DEBUG) Sending 8=FIX.4.4|9=195|35=D|49=FIXCLIENT1|56=DMA_HUB|34=103|52=20240226-16:49:44|21=1|11=HS_1708966184100|38=472|55=E:07G@XETR|54=2|60=20240226-16:49:44|40=2|59=0|44=197|48=US3390411052|22=4|15=EUR|207=XETR|1=bram_123|10=013|
2024-02-26 17:49:45.010 [30] [FixSender] (DEBUG) Receiving 8=FIX.4.4|9=237|35=8|34=25|49=DMA_HUB|56=FIXCLIENT1|52=20240226-16:49:45.008|11=HS_170896618422|37=FXb5ooXOU|54=2|40=2|59=0|17=2024022623|150=A|39=A|38=2689|151=2689|14=0|6=0|44=197|60=20240226-16:49:44.000|22=4|48=US3390411052|207=XETR|15=EUR|55=[N/A]|10=204|
2024-02-26 17:49:45.014 [30] [FixSender] (DEBUG) Receiving 8=FIX.4.4|9=237|35=8|34=26|49=DMA_HUB|56=FIXCLIENT1|52=20240226-16:49:45.012|11=HS_170896618423|37=FXc5ooXOU|54=2|40=2|59=0|17=2024022624|150=A|39=A|38=1503|151=1503|14=0|6=0|44=197|60=20240226-16:49:44.000|22=4|48=US3390411052|207=XETR|15=EUR|55=[N/A]|10=171|
2024-02-26 17:49:45.014 [30] [FixSender] (DEBUG) Receiving 8=FIX.4.4|9=235|35=8|34=27|49=DMA_HUB|56=FIXCLIENT1|52=20240226-16:49:45.013|11=HS_170896618424|37=FXd5ooXOU|54=2|40=2|59=0|17=2024022625|150=A|39=A|38=544|151=544|14=0|6=0|44=197|60=20240226-16:49:44.000|22=4|48=US3390411052|207=XETR|15=EUR|55=[N/A]|10=086|
2024-02-26 17:49:45.015 [30] [FixSender] (DEBUG) Receiving 8=FIX.4.4|9=237|35=8|34=28|49=DMA_HUB|56=FIXCLIENT1|52=20240226-16:49:45.014|11=HS_170896618425|37=FXe5ooXOU|54=2|40=2|59=0|17=2024022626|150=A|39=A|38=3463|151=3463|14=0|6=0|44=197|60=20240226-16:49:44.000|22=4|48=US3390411052|207=XETR|15=EUR|55=[N/A]|10=195|
2024-02-26 17:49:45.015 [30] [FixSender] (DEBUG) Receiving 8=FIX.4.4|9=237|35=8|34=29|49=DMA_HUB|56=FIXCLIENT1|52=20240226-16:49:45.015|11=HS_170896618426|37=FXf5ooXOU|54=2|40=2|59=0|17=2024022627|150=A|39=A|38=2761|151=2761|14=0|6=0|44=197|60=20240226-16:49:44.000|22=4|48=US3390411052|207=XETR|15=EUR|55=[N/A]|10=200|
2024-02-26 17:49:45.016 [30] [FixSender] (DEBUG) Receiving 8=FIX.4.4|9=237|35=8|34=30|49=DMA_HUB|56=FIXCLIENT1|52=20240226-16:49:45.016|11=HS_170896618427|37=FXg5ooXOU|54=2|40=2|59=0|17=2024022628|150=A|39=A|38=1522|151=1522|14=0|6=0|44=197|60=20240226-16:49:44.000|22=4|48=US3390411052|207=XETR|15=EUR|55=[N/A]|10=184|
2024-02-26 17:49:45.017 [30] [FixSender] (DEBUG) Receiving 8=FIX.4.4|9=237|35=8|34=31|49=DMA_HUB|56=FIXCLIENT1|52=20240226-16:49:45.017|11=HS_170896618428|37=FXh5ooXOU|54=2|40=2|59=0|17=2024022629|150=A|39=A|38=2915|151=2915|14=0|6=0|44=197|60=20240226-16:49:44.000|22=4|48=US3390411052|207=XETR|15=EUR|55=[N/A]|10=203|
2024-02-26 17:49:45.020 [30] [FixSender] (DEBUG) Receiving 8=FIX.4.4|9=237|35=8|34=32|49=DMA_HUB|56=FIXCLIENT1|52=20240226-16:49:45.019|11=HS_170896618429|37=FXi5ooXOU|54=2|40=2|59=0|17=2024022630|150=A|39=A|38=2892|151=2892|14=0|6=0|44=197|60=20240226-16:49:44.000|22=4|48=US3390411052|207=XETR|15=EUR|55=[N/A]|10=208|
2024-02-26 17:49:45.023 [30] [FixSender] (DEBUG) Receiving 8=FIX.4.4|9=237|35=8|34=33|49=DMA_HUB|56=FIXCLIENT1|52=20240226-16:49:45.022|11=HS_170896618430|37=FXj5ooXOU|54=2|40=2|59=0|17=2024022631|150=A|39=A|38=2538|151=2538|14=0|6=0|44=197|60=20240226-16:49:44.000|22=4|48=US3390411052|207=XETR|15=EUR|55=[N/A]|10=191|
2024-02-26 17:49:45.024 [30] [FixSender] (DEBUG) Receiving 8=FIX.4.4|9=237|35=8|34=34|49=DMA_HUB|56=FIXCLIENT1|52=20240226-16:49:45.024|11=HS_170896618431|37=FXk5ooXOU|54=2|40=2|59=0|17=2024022632|150=A|39=A|38=3305|151=3305|14=0|6=0|44=197|60=20240226-16:49:44.000|22=4|48=US3390411052|207=XETR|15=EUR|55=[N/A]|10=183|
2024-02-26 17:49:45.027 [30] [FixSender] (DEBUG) Receiving 8=FIX.4.4|9=237|35=8|34=35|49=DMA_HUB|56=FIXCLIENT1|52=20240226-16:49:45.025|11=HS_170896618432|37=FXl5ooXOU|54=2|40=2|59=0|17=2024022633|150=A|39=A|38=1951|151=1951|14=0|6=0|44=197|60=20240226-16:49:44.000|22=4|48=US3390411052|207=XETR|15=EUR|55=[N/A]|10=198|
2024-02-26 17:49:45.028 [30] [FixSender] (DEBUG) Receiving 8=FIX.4.4|9=237|35=8|34=36|49=DMA_HUB|56=FIXCLIENT1|52=20240226-16:49:45.026|11=HS_170896618433|37=FXm5ooXOU|54=2|40=2|59=0|17=2024022634|150=A|39=A|38=3094|151=3094|14=0|6=0|44=197|60=20240226-16:49:44.000|22=4|48=US3390411052|207=XETR|15=EUR|55=[N/A]|10=203|
2024-02-26 17:49:45.029 [30] [FixSender] (DEBUG) Receiving 8=FIX.4.4|9=237|35=8|34=37|49=DMA_HUB|56=FIXCLIENT1|52=20240226-16:49:45.027|11=HS_170896618434|37=FXn5ooXOU|54=2|40=2|59=0|17=2024022635|150=A|39=A|38=3523|151=3523|14=0|6=0|44=197|60=20240226-16:49:44.000|22=4|48=US3390411052|207=XETR|15=EUR|55=[N/A]|10=202|
2024-02-26 17:49:45.030 [30] [FixSender] (DEBUG) Receiving 8=FIX.4.4|9=235|35=8|34=38|49=DMA_HUB|56=FIXCLIENT1|52=20240226-16:49:45.028|11=HS_170896618435|37=FXo5ooXOU|54=2|40=2|59=0|17=2024022636|150=A|39=A|38=615|151=615|14=0|6=0|44=197|60=20240226-16:49:44.000|22=4|48=US3390411052|207=XETR|15=EUR|55=[N/A]|10=107|
2024-02-26 17:49:45.034 [30] [FixSender] (DEBUG) Receiving 8=FIX.4.4|9=237|35=8|34=39|49=DMA_HUB|56=FIXCLIENT1|52=20240226-16:49:45.030|11=HS_170896618436|37=FXp5ooXOU|54=2|40=2|59=0|17=2024022637|150=A|39=A|38=3702|151=3702|14=0|6=0|44=197|60=20240226-16:49:44.000|22=4|48=US3390411052|207=XETR|15=EUR|55=[N/A]|10=202|
2024-02-26 17:49:45.035 [30] [FixSender] (DEBUG) Receiving 8=FIX.4.4|9=237|35=8|34=40|49=DMA_HUB|56=FIXCLIENT1|52=20240226-16:49:45.032|11=HS_170896618437|37=FXq5ooXOU|54=2|40=2|59=0|17=2024022638|150=A|39=A|38=4886|151=4886|14=0|6=0|44=197|60=20240226-16:49:44.000|22=4|48=US3390411052|207=XETR|15=EUR|55=[N/A]|10=227|
2024-02-26 17:49:45.035 [30] [FixSender] (DEBUG) Receiving 8=FIX.4.4|9=237|35=8|34=41|49=DMA_HUB|56=FIXCLIENT1|52=20240226-16:49:45.033|11=HS_170896618438|37=FXr5ooXOU|54=2|40=2|59=0|17=2024022639|150=A|39=A|38=4036|151=4036|14=0|6=0|44=197|60=20240226-16:49:44.000|22=4|48=US3390411052|207=XETR|15=EUR|55=[N/A]|10=206|
2024-02-26 17:49:45.037 [30] [FixSender] (DEBUG) Receiving 8=FIX.4.4|9=237|35=8|34=42|49=DMA_HUB|56=FIXCLIENT1|52=20240226-16:49:45.036|11=HS_170896618439|37=FXs5ooXOU|54=2|40=2|59=0|17=2024022640|150=A|39=A|38=1344|151=1344|14=0|6=0|44=197|60=20240226-16:49:44.000|22=4|48=US3390411052|207=XETR|15=EUR|55=[N/A]|10=202|
2024-02-26 17:49:45.038 [30] [FixSender] (DEBUG) Receiving 8=FIX.4.4|9=235|35=8|34=43|49=DMA_HUB|56=FIXCLIENT1|52=20240226-16:49:45.038|11=HS_170896618440|37=FXt5ooXOU|54=2|40=2|59=0|17=2024022641|150=A|39=A|38=173|151=173|14=0|6=0|44=197|60=20240226-16:49:44.000|22=4|48=US3390411052|207=XETR|15=EUR|55=[N/A]|10=099|
2024-02-26 17:49:45.040 [30] [FixSender] (DEBUG) Receiving 8=FIX.4.4|9=237|35=8|34=44|49=DMA_HUB|56=FIXCLIENT1|52=20240226-16:49:45.039|11=HS_170896618441|37=FXu5ooXOU|54=2|40=2|59=0|17=2024022642|150=A|39=A|38=2431|151=2431|14=0|6=0|44=197|60=20240226-16:49:44.000|22=4|48=US3390411052|207=XETR|15=EUR|55=[N/A]|10=200|
2024-02-26 17:49:45.040 [30] [FixSender] (DEBUG) Receiving 8=FIX.4.4|9=237|35=8|34=45|49=DMA_HUB|56=FIXCLIENT1|52=20240226-16:49:45.040|11=HS_170896618442|37=FXv5ooXOU|54=2|40=2|59=0|17=2024022643|150=A|39=A|38=3798|151=3798|14=0|6=0|44=197|60=20240226-16:49:44.000|22=4|48=US3390411052|207=XETR|15=EUR|55=[N/A]|10=230|
2024-02-26 17:49:45.041 [30] [FixSender] (DEBUG) Receiving 8=FIX.4.4|9=237|35=8|34=46|49=DMA_HUB|56=FIXCLIENT1|52=20240226-16:49:45.041|11=HS_170896618443|37=FXw5ooXOU|54=2|40=2|59=0|17=2024022644|150=A|39=A|38=4339|151=4339|14=0|6=0|44=197|60=20240226-16:49:44.000|22=4|48=US3390411052|207=XETR|15=EUR|55=[N/A]|10=219|
2024-02-26 17:49:45.042 [30] [FixSender] (DEBUG) Receiving 8=FIX.4.4|9=237|35=8|34=47|49=DMA_HUB|56=FIXCLIENT1|52=20240226-16:49:45.042|11=HS_170896618444|37=FXx5ooXOU|54=2|40=2|59=0|17=2024022645|150=A|39=A|38=2369|151=2369|14=0|6=0|44=197|60=20240226-16:49:44.000|22=4|48=US3390411052|207=XETR|15=EUR|55=[N/A]|10=226|
2024-02-26 17:49:45.043 [30] [FixSender] (DEBUG) Receiving 8=FIX.4.4|9=237|35=8|34=48|49=DMA_HUB|56=FIXCLIENT1|52=20240226-16:49:45.043|11=HS_170896618445|37=FXy5ooXOU|54=2|40=2|59=0|17=2024022646|150=A|39=A|38=1604|151=1604|14=0|6=0|44=197|60=20240226-16:49:44.000|22=4|48=US3390411052|207=XETR|15=EUR|55=[N/A]|10=213|
2024-02-26 17:49:45.045 [30] [FixSender] (DEBUG) Receiving 8=FIX.4.4|9=237|35=8|34=49|49=DMA_HUB|56=FIXCLIENT1|52=20240226-16:49:45.044|11=HS_170896618446|37=FXz5ooXOU|54=2|40=2|59=0|17=2024022647|150=A|39=A|38=1913|151=1913|14=0|6=0|44=197|60=20240226-16:49:44.000|22=4|48=US3390411052|207=XETR|15=EUR|55=[N/A]|10=224|
2024-02-26 17:49:45.047 [30] [FixSender] (DEBUG) Receiving 8=FIX.4.4|9=237|35=8|34=50|49=DMA_HUB|56=FIXCLIENT1|52=20240226-16:49:45.045|11=HS_170896618447|37=FX06ooXOU|54=2|40=2|59=0|17=2024022648|150=A|39=A|38=3610|151=3610|14=0|6=0|44=197|60=20240226-16:49:44.000|22=4|48=US3390411052|207=XETR|15=EUR|55=[N/A]|10=138|
2024-02-26 17:49:45.049 [30] [FixSender] (DEBUG) Receiving 8=FIX.4.4|9=235|35=8|34=51|49=DMA_HUB|56=FIXCLIENT1|52=20240226-16:49:45.046|11=HS_170896618448|37=FX16ooXOU|54=2|40=2|59=0|17=2024022649|150=A|39=A|38=245|151=245|14=0|6=0|44=197|60=20240226-16:49:44.000|22=4|48=US3390411052|207=XETR|15=EUR|55=[N/A]|10=047|
2024-02-26 17:49:45.074 [30] [FixSender] (DEBUG) Receiving 8=FIX.4.4|9=237|35=8|34=52|49=DMA_HUB|56=FIXCLIENT1|52=20240226-16:49:45.068|11=HS_170896618449|37=FX26ooXOU|54=2|40=2|59=0|17=2024022650|150=A|39=A|38=3579|151=3579|14=0|6=0|44=197|60=20240226-16:49:44.000|22=4|48=US3390411052|207=XETR|15=EUR|55=[N/A]|10=170|
2024-02-26 17:49:45.077 [30] [FixSender] (DEBUG) Receiving 8=FIX.4.4|9=235|35=8|34=53|49=DMA_HUB|56=FIXCLIENT1|52=20240226-16:49:45.072|11=HS_170896618450|37=FX36ooXOU|54=2|40=2|59=0|17=2024022651|150=A|39=A|38=344|151=344|14=0|6=0|44=197|60=20240226-16:49:44.000|22=4|48=US3390411052|207=XETR|15=EUR|55=[N/A]|10=036|
2024-02-26 17:49:45.078 [30] [FixSender] (DEBUG) Receiving 8=FIX.4.4|9=237|35=8|34=54|49=DMA_HUB|56=FIXCLIENT1|52=20240226-16:49:45.072|11=HS_170896618451|37=FX46ooXOU|54=2|40=2|59=0|17=2024022652|150=A|39=A|38=2503|151=2503|14=0|6=0|44=197|60=20240226-16:49:44.000|22=4|48=US3390411052|207=XETR|15=EUR|55=[N/A]|10=136|
2024-02-26 17:49:45.078 [30] [FixSender] (DEBUG) Receiving 8=FIX.4.4|9=237|35=8|34=55|49=DMA_HUB|56=FIXCLIENT1|52=20240226-16:49:45.073|11=HS_170896618452|37=FX56ooXOU|54=2|40=2|59=0|17=2024022653|150=A|39=A|38=2657|151=2657|14=0|6=0|44=197|60=20240226-16:49:44.000|22=4|48=US3390411052|207=XETR|15=EUR|55=[N/A]|10=161|
2024-02-26 17:49:45.097 [30] [FixSender] (DEBUG) Receiving 8=FIX.4.4|9=235|35=8|34=56|49=DMA_HUB|56=FIXCLIENT1|52=20240226-16:49:45.076|11=HS_170896618453|37=FX66ooXOU|54=2|40=2|59=0|17=2024022654|150=A|39=A|38=438|151=438|14=0|6=0|44=197|60=20240226-16:49:44.000|22=4|48=US3390411052|207=XETR|15=EUR|55=[N/A]|10=060|
2024-02-26 17:49:45.098 [30] [FixSender] (DEBUG) Receiving 8=FIX.4.4|9=237|35=8|34=57|49=DMA_HUB|56=FIXCLIENT1|52=20240226-16:49:45.077|11=HS_170896618454|37=FX76ooXOU|54=2|40=2|59=0|17=2024022655|150=A|39=A|38=4066|151=4066|14=0|6=0|44=197|60=20240226-16:49:44.000|22=4|48=US3390411052|207=XETR|15=EUR|55=[N/A]|10=165|
2024-02-26 17:49:45.099 [30] [FixSender] (DEBUG) Receiving 8=FIX.4.4|9=237|35=8|34=58|49=DMA_HUB|56=FIXCLIENT1|52=20240226-16:49:45.078|11=HS_170896618455|37=FX86ooXOU|54=2|40=2|59=0|17=2024022656|150=A|39=A|38=4307|151=4307|14=0|6=0|44=197|60=20240226-16:49:44.000|22=4|48=US3390411052|207=XETR|15=EUR|55=[N/A]|10=166|
2024-02-26 17:49:45.100 [30] [FixSender] (DEBUG) Receiving 8=FIX.4.4|9=237|35=8|34=59|49=DMA_HUB|56=FIXCLIENT1|52=20240226-16:49:45.082|11=HS_170896618456|37=FX96ooXOU|54=2|40=2|59=0|17=2024022657|150=A|39=A|38=2861|151=2861|14=0|6=0|44=197|60=20240226-16:49:44.000|22=4|48=US3390411052|207=XETR|15=EUR|55=[N/A]|10=171|
2024-02-26 17:49:45.100 [30] [FixSender] (DEBUG) Receiving 8=FIX.4.4|9=237|35=8|34=60|49=DMA_HUB|56=FIXCLIENT1|52=20240226-16:49:45.083|11=HS_170896618457|37=FXA6ooXOU|54=2|40=2|59=0|17=2024022658|150=A|39=A|38=4322|151=4322|14=0|6=0|44=197|60=20240226-16:49:44.000|22=4|48=US3390411052|207=XETR|15=EUR|55=[N/A]|10=162|
2024-02-26 17:49:45.101 [30] [FixSender] (DEBUG) Receiving 8=FIX.4.4|9=237|35=8|34=61|49=DMA_HUB|56=FIXCLIENT1|52=20240226-16:49:45.085|11=HS_170896618458|37=FXB6ooXOU|54=2|40=2|59=0|17=2024022659|150=A|39=A|38=4260|151=4260|14=0|6=0|44=197|60=20240226-16:49:44.000|22=4|48=US3390411052|207=XETR|15=EUR|55=[N/A]|10=170|
2024-02-26 17:49:45.106 [30] [FixSender] (DEBUG) Receiving 8=FIX.4.4|9=235|35=8|34=62|49=DMA_HUB|56=FIXCLIENT1|52=20240226-16:49:45.089|11=HS_170896618459|37=FXC6ooXOU|54=2|40=2|59=0|17=2024022660|150=A|39=A|38=842|151=842|14=0|6=0|44=197|60=20240226-16:49:44.000|22=4|48=US3390411052|207=XETR|15=EUR|55=[N/A]|10=075|
2024-02-26 17:49:45.108 [30] [FixSender] (DEBUG) Receiving 8=FIX.4.4|9=237|35=8|34=63|49=DMA_HUB|56=FIXCLIENT1|52=20240226-16:49:45.092|11=HS_170896618460|37=FXD6ooXOU|54=2|40=2|59=0|17=2024022661|150=A|39=A|38=4447|151=4447|14=0|6=0|44=197|60=20240226-16:49:44.000|22=4|48=US3390411052|207=XETR|15=EUR|55=[N/A]|10=172|
2024-02-26 17:49:45.110 [30] [FixSender] (DEBUG) Receiving 8=FIX.4.4|9=237|35=8|34=64|49=DMA_HUB|56=FIXCLIENT1|52=20240226-16:49:45.093|11=HS_170896618461|37=FXE6ooXOU|54=2|40=2|59=0|17=2024022662|150=A|39=A|38=3750|151=3750|14=0|6=0|44=197|60=20240226-16:49:44.000|22=4|48=US3390411052|207=XETR|15=EUR|55=[N/A]|10=169|
2024-02-26 17:49:45.112 [30] [FixSender] (DEBUG) Receiving 8=FIX.4.4|9=237|35=8|34=65|49=DMA_HUB|56=FIXCLIENT1|52=20240226-16:49:45.095|11=HS_170896618462|37=FXF6ooXOU|54=2|40=2|59=0|17=2024022663|150=A|39=A|38=1002|151=1002|14=0|6=0|44=197|60=20240226-16:49:44.000|22=4|48=US3390411052|207=XETR|15=EUR|55=[N/A]|10=151|
2024-02-26 17:49:45.112 [30] [FixSender] (DEBUG) Receiving 8=FIX.4.4|9=237|35=8|34=66|49=DMA_HUB|56=FIXCLIENT1|52=20240226-16:49:45.096|11=HS_170896618463|37=FXG6ooXOU|54=2|40=2|59=0|17=2024022664|150=A|39=A|38=3992|151=3992|14=0|6=0|44=197|60=20240226-16:49:44.000|22=4|48=US3390411052|207=XETR|15=EUR|55=[N/A]|10=196|
2024-02-26 17:49:45.112 [30] [FixSender] (DEBUG) Receiving 8=FIX.4.4|9=237|35=8|34=67|49=DMA_HUB|56=FIXCLIENT1|52=20240226-16:49:45.097|11=HS_170896618464|37=FXH6ooXOU|54=2|40=2|59=0|17=2024022665|150=A|39=A|38=1509|151=1509|14=0|6=0|44=197|60=20240226-16:49:44.000|22=4|48=US3390411052|207=XETR|15=EUR|55=[N/A]|10=185|
2024-02-26 17:49:45.113 [30] [FixSender] (DEBUG) Receiving 8=FIX.4.4|9=237|35=8|34=68|49=DMA_HUB|56=FIXCLIENT1|52=20240226-16:49:45.098|11=HS_170896618465|37=FXI6ooXOU|54=2|40=2|59=0|17=2024022666|150=A|39=A|38=4837|151=4837|14=0|6=0|44=197|60=20240226-16:49:44.000|22=4|48=US3390411052|207=XETR|15=EUR|55=[N/A]|10=204|
2024-02-26 17:49:45.113 [30] [FixSender] (DEBUG) Receiving 8=FIX.4.4|9=237|35=8|34=69|49=DMA_HUB|56=FIXCLIENT1|52=20240226-16:49:45.101|11=HS_170896618466|37=FXJ6ooXOU|54=2|40=2|59=0|17=2024022667|150=A|39=A|38=2179|151=2179|14=0|6=0|44=197|60=20240226-16:49:44.000|22=4|48=US3390411052|207=XETR|15=EUR|55=[N/A]|10=187|
2024-02-26 17:49:45.113 [30] [FixSender] (DEBUG) Receiving 8=FIX.4.4|9=237|35=8|34=70|49=DMA_HUB|56=FIXCLIENT1|52=20240226-16:49:45.102|11=HS_170896618467|37=FXK6ooXOU|54=2|40=2|59=0|17=2024022668|150=A|39=A|38=4923|151=4923|14=0|6=0|44=197|60=20240226-16:49:44.000|22=4|48=US3390411052|207=XETR|15=EUR|55=[N/A]|10=181|
2024-02-26 17:49:45.113 [30] [FixSender] (DEBUG) Receiving 8=FIX.4.4|9=235|35=8|34=71|49=DMA_HUB|56=FIXCLIENT1|52=20240226-16:49:45.103|11=HS_170896618468|37=FXL6ooXOU|54=2|40=2|59=0|17=2024022669|150=A|39=A|38=918|151=918|14=0|6=0|44=197|60=20240226-16:49:44.000|22=4|48=US3390411052|207=XETR|15=EUR|55=[N/A]|10=088|
2024-02-26 17:49:45.113 [30] [FixSender] (DEBUG) Receiving 8=FIX.4.4|9=237|35=8|34=72|49=DMA_HUB|56=FIXCLIENT1|52=20240226-16:49:45.104|11=HS_170896618469|37=FXM6ooXOU|54=2|40=2|59=0|17=2024022670|150=A|39=A|38=1346|151=1346|14=0|6=0|44=197|60=20240226-16:49:44.000|22=4|48=US3390411052|207=XETR|15=EUR|55=[N/A]|10=174|
2024-02-26 17:49:45.113 [30] [FixSender] (DEBUG) Receiving 8=FIX.4.4|9=237|35=8|34=73|49=DMA_HUB|56=FIXCLIENT1|52=20240226-16:49:45.104|11=HS_170896618470|37=FXN6ooXOU|54=2|40=2|59=0|17=2024022671|150=A|39=A|38=3353|151=3353|14=0|6=0|44=197|60=20240226-16:49:44.000|22=4|48=US3390411052|207=XETR|15=EUR|55=[N/A]|10=169|
2024-02-26 17:49:45.113 [30] [FixSender] (DEBUG) Receiving 8=FIX.4.4|9=237|35=8|34=74|49=DMA_HUB|56=FIXCLIENT1|52=20240226-16:49:45.105|11=HS_170896618471|37=FXO6ooXOU|54=2|40=2|59=0|17=2024022672|150=A|39=A|38=4643|151=4643|14=0|6=0|44=197|60=20240226-16:49:44.000|22=4|48=US3390411052|207=XETR|15=EUR|55=[N/A]|10=180|
2024-02-26 17:49:45.114 [30] [FixSender] (DEBUG) Receiving 8=FIX.4.4|9=237|35=8|34=75|49=DMA_HUB|56=FIXCLIENT1|52=20240226-16:49:45.106|11=HS_170896618472|37=FXP6ooXOU|54=2|40=2|59=0|17=2024022673|150=A|39=A|38=4881|151=4881|14=0|6=0|44=197|60=20240226-16:49:44.000|22=4|48=US3390411052|207=XETR|15=EUR|55=[N/A]|10=193|
2024-02-26 17:49:45.114 [30] [FixSender] (DEBUG) Receiving 8=FIX.4.4|9=237|35=8|34=76|49=DMA_HUB|56=FIXCLIENT1|52=20240226-16:49:45.107|11=HS_170896618473|37=FXQ6ooXOU|54=2|40=2|59=0|17=2024022674|150=A|39=A|38=1551|151=1551|14=0|6=0|44=197|60=20240226-16:49:44.000|22=4|48=US3390411052|207=XETR|15=EUR|55=[N/A]|10=180|
2024-02-26 17:49:45.114 [30] [FixSender] (DEBUG) Receiving 8=FIX.4.4|9=237|35=8|34=77|49=DMA_HUB|56=FIXCLIENT1|52=20240226-16:49:45.108|11=HS_170896618474|37=FXR6ooXOU|54=2|40=2|59=0|17=2024022675|150=A|39=A|38=2922|151=2922|14=0|6=0|44=197|60=20240226-16:49:44.000|22=4|48=US3390411052|207=XETR|15=EUR|55=[N/A]|10=191|
2024-02-26 17:49:45.114 [30] [FixSender] (DEBUG) Receiving 8=FIX.4.4|9=237|35=8|34=78|49=DMA_HUB|56=FIXCLIENT1|52=20240226-16:49:45.109|11=HS_170896618475|37=FXS6ooXOU|54=2|40=2|59=0|17=2024022676|150=A|39=A|38=1654|151=1654|14=0|6=0|44=197|60=20240226-16:49:44.000|22=4|48=US3390411052|207=XETR|15=EUR|55=[N/A]|10=198|
2024-02-26 17:49:45.114 [30] [FixSender] (DEBUG) Receiving 8=FIX.4.4|9=235|35=8|34=79|49=DMA_HUB|56=FIXCLIENT1|52=20240226-16:49:45.110|11=HS_170896618476|37=FXT6ooXOU|54=2|40=2|59=0|17=2024022677|150=A|39=A|38=147|151=147|14=0|6=0|44=197|60=20240226-16:49:44.000|22=4|48=US3390411052|207=XETR|15=EUR|55=[N/A]|10=088|
2024-02-26 17:49:45.114 [30] [FixSender] (DEBUG) Receiving 8=FIX.4.4|9=237|35=8|34=80|49=DMA_HUB|56=FIXCLIENT1|52=20240226-16:49:45.110|11=HS_170896618477|37=FXU6ooXOU|54=2|40=2|59=0|17=2024022678|150=A|39=A|38=4765|151=4765|14=0|6=0|44=197|60=20240226-16:49:44.000|22=4|48=US3390411052|207=XETR|15=EUR|55=[N/A]|10=201|
2024-02-26 17:49:45.114 [30] [FixSender] (DEBUG) Receiving 8=FIX.4.4|9=237|35=8|34=81|49=DMA_HUB|56=FIXCLIENT1|52=20240226-16:49:45.112|11=HS_170896618478|37=FXV6ooXOU|54=2|40=2|59=0|17=2024022679|150=A|39=A|38=1245|151=1245|14=0|6=0|44=197|60=20240226-16:49:44.000|22=4|48=US3390411052|207=XETR|15=EUR|55=[N/A]|10=187|
2024-02-26 17:49:45.114 [30] [FixSender] (DEBUG) Receiving 8=FIX.4.4|9=237|35=8|34=82|49=DMA_HUB|56=FIXCLIENT1|52=20240226-16:49:45.112|11=HS_170896618479|37=FXW6ooXOU|54=2|40=2|59=0|17=2024022680|150=A|39=A|38=3261|151=3261|14=0|6=0|44=197|60=20240226-16:49:44.000|22=4|48=US3390411052|207=XETR|15=EUR|55=[N/A]|10=182|
2024-02-26 17:49:45.115 [30] [FixSender] (DEBUG) Receiving 8=FIX.4.4|9=237|35=8|34=83|49=DMA_HUB|56=FIXCLIENT1|52=20240226-16:49:45.112|11=HS_170896618480|37=FXX6ooXOU|54=2|40=2|59=0|17=2024022681|150=A|39=A|38=4813|151=4813|14=0|6=0|44=197|60=20240226-16:49:44.000|22=4|48=US3390411052|207=XETR|15=EUR|55=[N/A]|10=185|
2024-02-26 17:49:45.115 [30] [FixSender] (DEBUG) Receiving 8=FIX.4.4|9=237|35=8|34=84|49=DMA_HUB|56=FIXCLIENT1|52=20240226-16:49:45.113|11=HS_170896618481|37=FXY6ooXOU|54=2|40=2|59=0|17=2024022682|150=A|39=A|38=1851|151=1851|14=0|6=0|44=197|60=20240226-16:49:44.000|22=4|48=US3390411052|207=XETR|15=EUR|55=[N/A]|10=188|
2024-02-26 17:49:45.115 [30] [FixSender] (DEBUG) Receiving 8=FIX.4.4|9=237|35=8|34=85|49=DMA_HUB|56=FIXCLIENT1|52=20240226-16:49:45.114|11=HS_170896618482|37=FXZ6ooXOU|54=2|40=2|59=0|17=2024022683|150=A|39=A|38=4419|151=4419|14=0|6=0|44=197|60=20240226-16:49:44.000|22=4|48=US3390411052|207=XETR|15=EUR|55=[N/A]|10=199|
2024-02-26 17:49:45.115 [30] [FixSender] (DEBUG) Receiving 8=FIX.4.4|9=237|35=8|34=86|49=DMA_HUB|56=FIXCLIENT1|52=20240226-16:49:45.114|11=HS_170896618483|37=FXa6ooXOU|54=2|40=2|59=0|17=2024022684|150=A|39=A|38=1806|151=1806|14=0|6=0|44=197|60=20240226-16:49:44.000|22=4|48=US3390411052|207=XETR|15=EUR|55=[N/A]|10=203|
2024-02-26 17:49:45.115 [30] [FixSender] (DEBUG) Receiving 8=FIX.4.4|9=237|35=8|34=87|49=DMA_HUB|56=FIXCLIENT1|52=20240226-16:49:45.115|11=HS_170896618484|37=FXb6ooXOU|54=2|40=2|59=0|17=2024022685|150=A|39=A|38=1822|151=1822|14=0|6=0|44=197|60=20240226-16:49:44.000|22=4|48=US3390411052|207=XETR|15=EUR|55=[N/A]|10=204|
2024-02-26 17:49:45.122 [30] [FixSender] (DEBUG) Receiving 8=FIX.4.4|9=235|35=8|34=88|49=DMA_HUB|56=FIXCLIENT1|52=20240226-16:49:45.117|11=HS_170896618485|37=FXc6ooXOU|54=2|40=2|59=0|17=2024022686|150=A|39=A|38=919|151=919|14=0|6=0|44=197|60=20240226-16:49:44.000|22=4|48=US3390411052|207=XETR|15=EUR|55=[N/A]|10=124|
2024-02-26 17:49:45.122 [30] [FixSender] (DEBUG) Receiving 8=FIX.4.4|9=237|35=8|34=89|49=DMA_HUB|56=FIXCLIENT1|52=20240226-16:49:45.120|11=HS_170896618486|37=FXd6ooXOU|54=2|40=2|59=0|17=2024022687|150=A|39=A|38=4344|151=4344|14=0|6=0|44=197|60=20240226-16:49:44.000|22=4|48=US3390411052|207=XETR|15=EUR|55=[N/A]|10=212|
2024-02-26 17:49:45.123 [30] [FixSender] (DEBUG) Receiving 8=FIX.4.4|9=237|35=8|34=90|49=DMA_HUB|56=FIXCLIENT1|52=20240226-16:49:45.121|11=HS_170896618487|37=FXe6ooXOU|54=2|40=2|59=0|17=2024022688|150=A|39=A|38=3921|151=3921|14=0|6=0|44=197|60=20240226-16:49:44.000|22=4|48=US3390411052|207=XETR|15=EUR|55=[N/A]|10=208|
2024-02-26 17:49:45.124 [30] [FixSender] (DEBUG) Receiving 8=FIX.4.4|9=237|35=8|34=91|49=DMA_HUB|56=FIXCLIENT1|52=20240226-16:49:45.122|11=HS_170896618488|37=FXf6ooXOU|54=2|40=2|59=0|17=2024022689|150=A|39=A|38=2297|151=2297|14=0|6=0|44=197|60=20240226-16:49:44.000|22=4|48=US3390411052|207=XETR|15=EUR|55=[N/A]|10=223|
2024-02-26 17:49:45.124 [30] [FixSender] (DEBUG) Receiving 8=FIX.4.4|9=237|35=8|34=92|49=DMA_HUB|56=FIXCLIENT1|52=20240226-16:49:45.124|11=HS_170896618489|37=FXg6ooXOU|54=2|40=2|59=0|17=2024022690|150=A|39=A|38=1478|151=1478|14=0|6=0|44=197|60=20240226-16:49:44.000|22=4|48=US3390411052|207=XETR|15=EUR|55=[N/A]|10=220|
2024-02-26 17:49:45.125 [30] [FixSender] (DEBUG) Receiving 8=FIX.4.4|9=237|35=8|34=93|49=DMA_HUB|56=FIXCLIENT1|52=20240226-16:49:45.125|11=HS_170896618490|37=FXh6ooXOU|54=2|40=2|59=0|17=2024022691|150=A|39=A|38=1105|151=1105|14=0|6=0|44=197|60=20240226-16:49:44.000|22=4|48=US3390411052|207=XETR|15=EUR|55=[N/A]|10=190|
2024-02-26 17:49:45.126 [30] [FixSender] (DEBUG) Receiving 8=FIX.4.4|9=237|35=8|34=94|49=DMA_HUB|56=FIXCLIENT1|52=20240226-16:49:45.125|11=HS_170896618491|37=FXi6ooXOU|54=2|40=2|59=0|17=2024022692|150=A|39=A|38=2384|151=2384|14=0|6=0|44=197|60=20240226-16:49:44.000|22=4|48=US3390411052|207=XETR|15=EUR|55=[N/A]|10=214|
2024-02-26 17:49:45.126 [30] [FixSender] (DEBUG) Receiving 8=FIX.4.4|9=237|35=8|34=95|49=DMA_HUB|56=FIXCLIENT1|52=20240226-16:49:45.126|11=HS_170896618492|37=FXj6ooXOU|54=2|40=2|59=0|17=2024022693|150=A|39=A|38=3018|151=3018|14=0|6=0|44=197|60=20240226-16:49:44.000|22=4|48=US3390411052|207=XETR|15=EUR|55=[N/A]|10=209|
2024-02-26 17:49:45.127 [30] [FixSender] (DEBUG) Receiving 8=FIX.4.4|9=237|35=8|34=96|49=DMA_HUB|56=FIXCLIENT1|52=20240226-16:49:45.127|11=HS_170896618493|37=FXk6ooXOU|54=2|40=2|59=0|17=2024022694|150=A|39=A|38=2704|151=2704|14=0|6=0|44=197|60=20240226-16:49:44.000|22=4|48=US3390411052|207=XETR|15=EUR|55=[N/A]|10=216|
2024-02-26 17:49:45.128 [30] [FixSender] (DEBUG) Receiving 8=FIX.4.4|9=237|35=8|34=97|49=DMA_HUB|56=FIXCLIENT1|52=20240226-16:49:45.127|11=HS_170896618494|37=FXl6ooXOU|54=2|40=2|59=0|17=2024022695|150=A|39=A|38=4094|151=4094|14=0|6=0|44=197|60=20240226-16:49:44.000|22=4|48=US3390411052|207=XETR|15=EUR|55=[N/A]|10=228|
2024-02-26 17:49:45.128 [30] [FixSender] (DEBUG) Receiving 8=FIX.4.4|9=235|35=8|34=98|49=DMA_HUB|56=FIXCLIENT1|52=20240226-16:49:45.128|11=HS_170896618495|37=FXm6ooXOU|54=2|40=2|59=0|17=2024022696|150=A|39=A|38=828|151=828|14=0|6=0|44=197|60=20240226-16:49:44.000|22=4|48=US3390411052|207=XETR|15=EUR|55=[N/A]|10=137|
2024-02-26 17:49:45.128 [30] [FixSender] (DEBUG) Receiving 8=FIX.4.4|9=237|35=8|34=99|49=DMA_HUB|56=FIXCLIENT1|52=20240226-16:49:45.128|11=HS_170896618496|37=FXn6ooXOU|54=2|40=2|59=0|17=2024022697|150=A|39=A|38=4490|151=4490|14=0|6=0|44=197|60=20240226-16:49:44.000|22=4|48=US3390411052|207=XETR|15=EUR|55=[N/A]|10=237|
2024-02-26 17:49:45.130 [30] [FixSender] (DEBUG) Receiving 8=FIX.4.4|9=238|35=8|34=100|49=DMA_HUB|56=FIXCLIENT1|52=20240226-16:49:45.129|11=HS_170896618497|37=FXo6ooXOU|54=2|40=2|59=0|17=2024022698|150=A|39=A|38=4858|151=4858|14=0|6=0|44=197|60=20240226-16:49:44.000|22=4|48=US3390411052|207=XETR|15=EUR|55=[N/A]|10=033|
2024-02-26 17:49:45.131 [30] [FixSender] (DEBUG) Receiving 8=FIX.4.4|9=238|35=8|34=101|49=DMA_HUB|56=FIXCLIENT1|52=20240226-16:49:45.130|11=HS_170896618498|37=FXp6ooXOU|54=2|40=2|59=0|17=2024022699|150=A|39=A|38=1349|151=1349|14=0|6=0|44=197|60=20240226-16:49:44.000|22=4|48=US3390411052|207=XETR|15=EUR|55=[N/A]|10=013|
2024-02-26 17:49:45.132 [30] [FixSender] (DEBUG) Receiving 8=FIX.4.4|9=239|35=8|34=102|49=DMA_HUB|56=FIXCLIENT1|52=20240226-16:49:45.132|11=HS_170896618499|37=FXq6ooXOU|54=2|40=2|59=0|17=20240226100|150=A|39=A|38=3313|151=3313|14=0|6=0|44=197|60=20240226-16:49:44.000|22=4|48=US3390411052|207=XETR|15=EUR|55=[N/A]|10=036|
2024-02-26 17:49:45.133 [30] [FixSender] (DEBUG) Receiving 8=FIX.4.4|9=238|35=8|34=103|49=DMA_HUB|56=FIXCLIENT1|52=20240226-16:49:45.133|11=HS_1708966184100|37=FXr6ooXOU|54=2|40=2|59=0|17=20240226101|150=A|39=A|38=472|151=472|14=0|6=0|44=197|60=20240226-16:49:44.000|22=4|48=US3390411052|207=XETR|15=EUR|55=[N/A]|10=236|
2024-02-26 17:49:49.805 [36] [FixSender] (DEBUG) Sending 8=FIX.4.4|9=196|35=D|49=FIXCLIENT1|56=DMA_HUB|34=104|52=20240226-16:49:49|21=1|11=HS_1708966189101|38=3074|55=E:07G@XETR|54=2|60=20240226-16:49:49|40=2|59=0|44=197|48=US3390411052|22=4|15=EUR|207=XETR|1=bram_123|10=080|
2024-02-26 17:49:49.806 [36] [FixSender] (DEBUG) Sending 8=FIX.4.4|9=196|35=D|49=FIXCLIENT1|56=DMA_HUB|34=105|52=20240226-16:49:49|21=1|11=HS_1708966189102|38=4732|55=E:07G@XETR|54=2|60=20240226-16:49:49|40=2|59=0|44=197|48=US3390411052|22=4|15=EUR|207=XETR|1=bram_123|10=084|
2024-02-26 17:49:49.806 [36] [FixSender] (DEBUG) Sending 8=FIX.4.4|9=196|35=D|49=FIXCLIENT1|56=DMA_HUB|34=106|52=20240226-16:49:49|21=1|11=HS_1708966189103|38=3759|55=E:07G@XETR|54=2|60=20240226-16:49:49|40=2|59=0|44=197|48=US3390411052|22=4|15=EUR|207=XETR|1=bram_123|10=094|
2024-02-26 17:49:49.806 [36] [FixSender] (DEBUG) Sending 8=FIX.4.4|9=196|35=D|49=FIXCLIENT1|56=DMA_HUB|34=107|52=20240226-16:49:49|21=1|11=HS_1708966189104|38=4802|55=E:07G@XETR|54=2|60=20240226-16:49:49|40=2|59=0|44=197|48=US3390411052|22=4|15=EUR|207=XETR|1=bram_123|10=086|
2024-02-26 17:49:49.807 [36] [FixSender] (DEBUG) Sending 8=FIX.4.4|9=196|35=D|49=FIXCLIENT1|56=DMA_HUB|34=108|52=20240226-16:49:49|21=1|11=HS_1708966189105|38=3256|55=E:07G@XETR|54=2|60=20240226-16:49:49|40=2|59=0|44=197|48=US3390411052|22=4|15=EUR|207=XETR|1=bram_123|10=090|
2024-02-26 17:49:49.807 [36] [FixSender] (DEBUG) Sending 8=FIX.4.4|9=196|35=D|49=FIXCLIENT1|56=DMA_HUB|34=109|52=20240226-16:49:49|21=1|11=HS_1708966189106|38=1189|55=E:07G@XETR|54=2|60=20240226-16:49:49|40=2|59=0|44=197|48=US3390411052|22=4|15=EUR|207=XETR|1=bram_123|10=095|
2024-02-26 17:49:49.807 [36] [FixSender] (DEBUG) Sending 8=FIX.4.4|9=196|35=D|49=FIXCLIENT1|56=DMA_HUB|34=110|52=20240226-16:49:49|21=1|11=HS_1708966189107|38=3427|55=E:07G@XETR|54=2|60=20240226-16:49:49|40=2|59=0|44=197|48=US3390411052|22=4|15=EUR|207=XETR|1=bram_123|10=085|
2024-02-26 17:49:49.808 [36] [FixSender] (DEBUG) Sending 8=FIX.4.4|9=196|35=D|49=FIXCLIENT1|56=DMA_HUB|34=111|52=20240226-16:49:49|21=1|11=HS_1708966189108|38=2060|55=E:07G@XETR|54=2|60=20240226-16:49:49|40=2|59=0|44=197|48=US3390411052|22=4|15=EUR|207=XETR|1=bram_123|10=079|
2024-02-26 17:49:49.808 [36] [FixSender] (DEBUG) Sending 8=FIX.4.4|9=196|35=D|49=FIXCLIENT1|56=DMA_HUB|34=112|52=20240226-16:49:49|21=1|11=HS_1708966189109|38=2853|55=E:07G@XETR|54=2|60=20240226-16:49:49|40=2|59=0|44=197|48=US3390411052|22=4|15=EUR|207=XETR|1=bram_123|10=091|
2024-02-26 17:49:49.808 [36] [FixSender] (DEBUG) Sending 8=FIX.4.4|9=196|35=D|49=FIXCLIENT1|56=DMA_HUB|34=113|52=20240226-16:49:49|21=1|11=HS_1708966189110|38=1334|55=E:07G@XETR|54=2|60=20240226-16:49:49|40=2|59=0|44=197|48=US3390411052|22=4|15=EUR|207=XETR|1=bram_123|10=077|
2024-02-26 17:49:49.809 [36] [FixSender] (DEBUG) Sending 8=FIX.4.4|9=196|35=D|49=FIXCLIENT1|56=DMA_HUB|34=114|52=20240226-16:49:49|21=1|11=HS_1708966189111|38=2077|55=E:07G@XETR|54=2|60=20240226-16:49:49|40=2|59=0|44=197|48=US3390411052|22=4|15=EUR|207=XETR|1=bram_123|10=084|
2024-02-26 17:49:49.809 [36] [FixSender] (DEBUG) Sending 8=FIX.4.4|9=196|35=D|49=FIXCLIENT1|56=DMA_HUB|34=115|52=20240226-16:49:49|21=1|11=HS_1708966189112|38=3526|55=E:07G@XETR|54=2|60=20240226-16:49:49|40=2|59=0|44=197|48=US3390411052|22=4|15=EUR|207=XETR|1=bram_123|10=086|
2024-02-26 17:49:49.810 [36] [FixSender] (DEBUG) Sending 8=FIX.4.4|9=196|35=D|49=FIXCLIENT1|56=DMA_HUB|34=116|52=20240226-16:49:49|21=1|11=HS_1708966189113|38=3262|55=E:07G@XETR|54=2|60=20240226-16:49:49|40=2|59=0|44=197|48=US3390411052|22=4|15=EUR|207=XETR|1=bram_123|10=085|
2024-02-26 17:49:49.810 [36] [FixSender] (DEBUG) Sending 8=FIX.4.4|9=196|35=D|49=FIXCLIENT1|56=DMA_HUB|34=117|52=20240226-16:49:49|21=1|11=HS_1708966189114|38=3958|55=E:07G@XETR|54=2|60=20240226-16:49:49|40=2|59=0|44=197|48=US3390411052|22=4|15=EUR|207=XETR|1=bram_123|10=099|
2024-02-26 17:49:49.810 [36] [FixSender] (DEBUG) Sending 8=FIX.4.4|9=196|35=D|49=FIXCLIENT1|56=DMA_HUB|34=118|52=20240226-16:49:49|21=1|11=HS_1708966189115|38=4875|55=E:07G@XETR|54=2|60=20240226-16:49:49|40=2|59=0|44=197|48=US3390411052|22=4|15=EUR|207=XETR|1=bram_123|10=100|
2024-02-26 17:49:49.811 [36] [FixSender] (DEBUG) Sending 8=FIX.4.4|9=196|35=D|49=FIXCLIENT1|56=DMA_HUB|34=119|52=20240226-16:49:49|21=1|11=HS_1708966189116|38=2642|55=E:07G@XETR|54=2|60=20240226-16:49:49|40=2|59=0|44=197|48=US3390411052|22=4|15=EUR|207=XETR|1=bram_123|10=092|
2024-02-26 17:49:49.811 [36] [FixSender] (DEBUG) Sending 8=FIX.4.4|9=196|35=D|49=FIXCLIENT1|56=DMA_HUB|34=120|52=20240226-16:49:49|21=1|11=HS_1708966189117|38=4520|55=E:07G@XETR|54=2|60=20240226-16:49:49|40=2|59=0|44=197|48=US3390411052|22=4|15=EUR|207=XETR|1=bram_123|10=082|
2024-02-26 17:49:49.811 [36] [FixSender] (DEBUG) Sending 8=FIX.4.4|9=196|35=D|49=FIXCLIENT1|56=DMA_HUB|34=121|52=20240226-16:49:49|21=1|11=HS_1708966189118|38=4938|55=E:07G@XETR|54=2|60=20240226-16:49:49|40=2|59=0|44=197|48=US3390411052|22=4|15=EUR|207=XETR|1=bram_123|10=097|
2024-02-26 17:49:49.812 [36] [FixSender] (DEBUG) Sending 8=FIX.4.4|9=196|35=D|49=FIXCLIENT1|56=DMA_HUB|34=122|52=20240226-16:49:49|21=1|11=HS_1708966189119|38=4856|55=E:07G@XETR|54=2|60=20240226-16:49:49|40=2|59=0|44=197|48=US3390411052|22=4|15=EUR|207=XETR|1=bram_123|10=098|
2024-02-26 17:49:49.812 [36] [FixSender] (DEBUG) Sending 8=FIX.4.4|9=195|35=D|49=FIXCLIENT1|56=DMA_HUB|34=123|52=20240226-16:49:49|21=1|11=HS_1708966189120|38=271|55=E:07G@XETR|54=2|60=20240226-16:49:49|40=2|59=0|44=197|48=US3390411052|22=4|15=EUR|207=XETR|1=bram_123|10=029|
2024-02-26 17:49:49.812 [36] [FixSender] (DEBUG) Sending 8=FIX.4.4|9=196|35=D|49=FIXCLIENT1|56=DMA_HUB|34=124|52=20240226-16:49:49|21=1|11=HS_1708966189121|38=3329|55=E:07G@XETR|54=2|60=20240226-16:49:49|40=2|59=0|44=197|48=US3390411052|22=4|15=EUR|207=XETR|1=bram_123|10=087|
2024-02-26 17:49:49.813 [36] [FixSender] (DEBUG) Sending 8=FIX.4.4|9=195|35=D|49=FIXCLIENT1|56=DMA_HUB|34=125|52=20240226-16:49:49|21=1|11=HS_1708966189122|38=242|55=E:07G@XETR|54=2|60=20240226-16:49:49|40=2|59=0|44=197|48=US3390411052|22=4|15=EUR|207=XETR|1=bram_123|10=031|
2024-02-26 17:49:49.813 [36] [FixSender] (DEBUG) Sending 8=FIX.4.4|9=196|35=D|49=FIXCLIENT1|56=DMA_HUB|34=126|52=20240226-16:49:49|21=1|11=HS_1708966189123|38=2376|55=E:07G@XETR|54=2|60=20240226-16:49:49|40=2|59=0|44=197|48=US3390411052|22=4|15=EUR|207=XETR|1=bram_123|10=092|
2024-02-26 17:49:49.813 [36] [FixSender] (DEBUG) Sending 8=FIX.4.4|9=196|35=D|49=FIXCLIENT1|56=DMA_HUB|34=127|52=20240226-16:49:49|21=1|11=HS_1708966189124|38=3152|55=E:07G@XETR|54=2|60=20240226-16:49:49|40=2|59=0|44=197|48=US3390411052|22=4|15=EUR|207=XETR|1=bram_123|10=087|
2024-02-26 17:49:49.814 [36] [FixSender] (DEBUG) Sending 8=FIX.4.4|9=196|35=D|49=FIXCLIENT1|56=DMA_HUB|34=128|52=20240226-16:49:49|21=1|11=HS_1708966189125|38=2598|55=E:07G@XETR|54=2|60=20240226-16:49:49|40=2|59=0|44=197|48=US3390411052|22=4|15=EUR|207=XETR|1=bram_123|10=102|
2024-02-26 17:49:49.815 [36] [FixSender] (DEBUG) Sending 8=FIX.4.4|9=195|35=D|49=FIXCLIENT1|56=DMA_HUB|34=129|52=20240226-16:49:49|21=1|11=HS_1708966189126|38=338|55=E:07G@XETR|54=2|60=20240226-16:49:49|40=2|59=0|44=197|48=US3390411052|22=4|15=EUR|207=XETR|1=bram_123|10=045|
2024-02-26 17:49:49.815 [36] [FixSender] (DEBUG) Sending 8=FIX.4.4|9=196|35=D|49=FIXCLIENT1|56=DMA_HUB|34=130|52=20240226-16:49:49|21=1|11=HS_1708966189127|38=1863|55=E:07G@XETR|54=2|60=20240226-16:49:49|40=2|59=0|44=197|48=US3390411052|22=4|15=EUR|207=XETR|1=bram_123|10=091|
2024-02-26 17:49:49.815 [36] [FixSender] (DEBUG) Sending 8=FIX.4.4|9=196|35=D|49=FIXCLIENT1|56=DMA_HUB|34=131|52=20240226-16:49:49|21=1|11=HS_1708966189128|38=3383|55=E:07G@XETR|54=2|60=20240226-16:49:49|40=2|59=0|44=197|48=US3390411052|22=4|15=EUR|207=XETR|1=bram_123|10=092|
2024-02-26 17:49:49.816 [36] [FixSender] (DEBUG) Sending 8=FIX.4.4|9=196|35=D|49=FIXCLIENT1|56=DMA_HUB|34=132|52=20240226-16:49:49|21=1|11=HS_1708966189129|38=3536|55=E:07G@XETR|54=2|60=20240226-16:49:49|40=2|59=0|44=197|48=US3390411052|22=4|15=EUR|207=XETR|1=bram_123|10=094|
2024-02-26 17:49:49.816 [36] [FixSender] (DEBUG) Sending 8=FIX.4.4|9=195|35=D|49=FIXCLIENT1|56=DMA_HUB|34=133|52=20240226-16:49:49|21=1|11=HS_1708966189130|38=197|55=E:07G@XETR|54=2|60=20240226-16:49:49|40=2|59=0|44=197|48=US3390411052|22=4|15=EUR|207=XETR|1=bram_123|10=038|
2024-02-26 17:49:49.816 [36] [FixSender] (DEBUG) Sending 8=FIX.4.4|9=196|35=D|49=FIXCLIENT1|56=DMA_HUB|34=134|52=20240226-16:49:49|21=1|11=HS_1708966189131|38=3589|55=E:07G@XETR|54=2|60=20240226-16:49:49|40=2|59=0|44=197|48=US3390411052|22=4|15=EUR|207=XETR|1=bram_123|10=097|
2024-02-26 17:49:49.817 [36] [FixSender] (DEBUG) Sending 8=FIX.4.4|9=196|35=D|49=FIXCLIENT1|56=DMA_HUB|34=135|52=20240226-16:49:49|21=1|11=HS_1708966189132|38=1134|55=E:07G@XETR|54=2|60=20240226-16:49:49|40=2|59=0|44=197|48=US3390411052|22=4|15=EUR|207=XETR|1=bram_123|10=083|
2024-02-26 17:49:49.817 [36] [FixSender] (DEBUG) Sending 8=FIX.4.4|9=196|35=D|49=FIXCLIENT1|56=DMA_HUB|34=136|52=20240226-16:49:49|21=1|11=HS_1708966189133|38=2528|55=E:07G@XETR|54=2|60=20240226-16:49:49|40=2|59=0|44=197|48=US3390411052|22=4|15=EUR|207=XETR|1=bram_123|10=093|
2024-02-26 17:49:49.817 [36] [FixSender] (DEBUG) Sending 8=FIX.4.4|9=196|35=D|49=FIXCLIENT1|56=DMA_HUB|34=137|52=20240226-16:49:49|21=1|11=HS_1708966189134|38=2752|55=E:07G@XETR|54=2|60=20240226-16:49:49|40=2|59=0|44=197|48=US3390411052|22=4|15=EUR|207=XETR|1=bram_123|10=094|
2024-02-26 17:49:49.818 [36] [FixSender] (DEBUG) Sending 8=FIX.4.4|9=196|35=D|49=FIXCLIENT1|56=DMA_HUB|34=138|52=20240226-16:49:49|21=1|11=HS_1708966189135|38=4965|55=E:07G@XETR|54=2|60=20240226-16:49:49|40=2|59=0|44=197|48=US3390411052|22=4|15=EUR|207=XETR|1=bram_123|10=104|
2024-02-26 17:49:49.818 [36] [FixSender] (DEBUG) Sending 8=FIX.4.4|9=196|35=D|49=FIXCLIENT1|56=DMA_HUB|34=139|52=20240226-16:49:49|21=1|11=HS_1708966189136|38=4778|55=E:07G@XETR|54=2|60=20240226-16:49:49|40=2|59=0|44=197|48=US3390411052|22=4|15=EUR|207=XETR|1=bram_123|10=108|
2024-02-26 17:49:49.818 [36] [FixSender] (DEBUG) Sending 8=FIX.4.4|9=196|35=D|49=FIXCLIENT1|56=DMA_HUB|34=140|52=20240226-16:49:49|21=1|11=HS_1708966189137|38=2640|55=E:07G@XETR|54=2|60=20240226-16:49:49|40=2|59=0|44=197|48=US3390411052|22=4|15=EUR|207=XETR|1=bram_123|10=087|
2024-02-26 17:49:49.819 [36] [FixSender] (DEBUG) Sending 8=FIX.4.4|9=195|35=D|49=FIXCLIENT1|56=DMA_HUB|34=141|52=20240226-16:49:49|21=1|11=HS_1708966189138|38=818|55=E:07G@XETR|54=2|60=20240226-16:49:49|40=2|59=0|44=197|48=US3390411052|22=4|15=EUR|207=XETR|1=bram_123|10=045|
2024-02-26 17:49:49.820 [36] [FixSender] (DEBUG) Sending 8=FIX.4.4|9=195|35=D|49=FIXCLIENT1|56=DMA_HUB|34=142|52=20240226-16:49:49|21=1|11=HS_1708966189139|38=693|55=E:07G@XETR|54=2|60=20240226-16:49:49|40=2|59=0|44=197|48=US3390411052|22=4|15=EUR|207=XETR|1=bram_123|10=048|
2024-02-26 17:49:49.820 [36] [FixSender] (DEBUG) Sending 8=FIX.4.4|9=196|35=D|49=FIXCLIENT1|56=DMA_HUB|34=143|52=20240226-16:49:49|21=1|11=HS_1708966189140|38=4654|55=E:07G@XETR|54=2|60=20240226-16:49:49|40=2|59=0|44=197|48=US3390411052|22=4|15=EUR|207=XETR|1=bram_123|10=091|
2024-02-26 17:49:49.820 [36] [FixSender] (DEBUG) Sending 8=FIX.4.4|9=196|35=D|49=FIXCLIENT1|56=DMA_HUB|34=144|52=20240226-16:49:49|21=1|11=HS_1708966189141|38=3112|55=E:07G@XETR|54=2|60=20240226-16:49:49|40=2|59=0|44=197|48=US3390411052|22=4|15=EUR|207=XETR|1=bram_123|10=081|
2024-02-26 17:49:49.820 [36] [FixSender] (DEBUG) Sending 8=FIX.4.4|9=196|35=D|49=FIXCLIENT1|56=DMA_HUB|34=145|52=20240226-16:49:49|21=1|11=HS_1708966189142|38=3406|55=E:07G@XETR|54=2|60=20240226-16:49:49|40=2|59=0|44=197|48=US3390411052|22=4|15=EUR|207=XETR|1=bram_123|10=089|
2024-02-26 17:49:49.821 [36] [FixSender] (DEBUG) Sending 8=FIX.4.4|9=196|35=D|49=FIXCLIENT1|56=DMA_HUB|34=146|52=20240226-16:49:49|21=1|11=HS_1708966189143|38=2479|55=E:07G@XETR|54=2|60=20240226-16:49:49|40=2|59=0|44=197|48=US3390411052|22=4|15=EUR|207=XETR|1=bram_123|10=100|
2024-02-26 17:49:49.821 [36] [FixSender] (DEBUG) Sending 8=FIX.4.4|9=196|35=D|49=FIXCLIENT1|56=DMA_HUB|34=147|52=20240226-16:49:49|21=1|11=HS_1708966189144|38=2121|55=E:07G@XETR|54=2|60=20240226-16:49:49|40=2|59=0|44=197|48=US3390411052|22=4|15=EUR|207=XETR|1=bram_123|10=086|
2024-02-26 17:49:49.821 [36] [FixSender] (DEBUG) Sending 8=FIX.4.4|9=196|35=D|49=FIXCLIENT1|56=DMA_HUB|34=148|52=20240226-16:49:49|21=1|11=HS_1708966189145|38=1442|55=E:07G@XETR|54=2|60=20240226-16:49:49|40=2|59=0|44=197|48=US3390411052|22=4|15=EUR|207=XETR|1=bram_123|10=093|
2024-02-26 17:49:49.822 [36] [FixSender] (DEBUG) Sending 8=FIX.4.4|9=196|35=D|49=FIXCLIENT1|56=DMA_HUB|34=149|52=20240226-16:49:49|21=1|11=HS_1708966189146|38=2235|55=E:07G@XETR|54=2|60=20240226-16:49:49|40=2|59=0|44=197|48=US3390411052|22=4|15=EUR|207=XETR|1=bram_123|10=096|
2024-02-26 17:49:49.822 [36] [FixSender] (DEBUG) Sending 8=FIX.4.4|9=195|35=D|49=FIXCLIENT1|56=DMA_HUB|34=150|52=20240226-16:49:49|21=1|11=HS_1708966189147|38=677|55=E:07G@XETR|54=2|60=20240226-16:49:49|40=2|59=0|44=197|48=US3390411052|22=4|15=EUR|207=XETR|1=bram_123|10=048|
2024-02-26 17:49:49.822 [36] [FixSender] (DEBUG) Sending 8=FIX.4.4|9=195|35=D|49=FIXCLIENT1|56=DMA_HUB|34=151|52=20240226-16:49:49|21=1|11=HS_1708966189148|38=239|55=E:07G@XETR|54=2|60=20240226-16:49:49|40=2|59=0|44=197|48=US3390411052|22=4|15=EUR|207=XETR|1=bram_123|10=044|
2024-02-26 17:49:49.823 [36] [FixSender] (DEBUG) Sending 8=FIX.4.4|9=196|35=D|49=FIXCLIENT1|56=DMA_HUB|34=152|52=20240226-16:49:49|21=1|11=HS_1708966189149|38=1350|55=E:07G@XETR|54=2|60=20240226-16:49:49|40=2|59=0|44=197|48=US3390411052|22=4|15=EUR|207=XETR|1=bram_123|10=090|
2024-02-26 17:49:49.823 [36] [FixSender] (DEBUG) Sending 8=FIX.4.4|9=196|35=D|49=FIXCLIENT1|56=DMA_HUB|34=153|52=20240226-16:49:49|21=1|11=HS_1708966189150|38=2080|55=E:07G@XETR|54=2|60=20240226-16:49:49|40=2|59=0|44=197|48=US3390411052|22=4|15=EUR|207=XETR|1=bram_123|10=084|
2024-02-26 17:49:49.823 [36] [FixSender] (DEBUG) Sending 8=FIX.4.4|9=196|35=D|49=FIXCLIENT1|56=DMA_HUB|34=154|52=20240226-16:49:49|21=1|11=HS_1708966189151|38=3168|55=E:07G@XETR|54=2|60=20240226-16:49:49|40=2|59=0|44=197|48=US3390411052|22=4|15=EUR|207=XETR|1=bram_123|10=094|
2024-02-26 17:49:49.824 [36] [FixSender] (DEBUG) Sending 8=FIX.4.4|9=196|35=D|49=FIXCLIENT1|56=DMA_HUB|34=155|52=20240226-16:49:49|21=1|11=HS_1708966189152|38=4523|55=E:07G@XETR|54=2|60=20240226-16:49:49|40=2|59=0|44=197|48=US3390411052|22=4|15=EUR|207=XETR|1=bram_123|10=092|
2024-02-26 17:49:49.824 [36] [FixSender] (DEBUG) Sending 8=FIX.4.4|9=196|35=D|49=FIXCLIENT1|56=DMA_HUB|34=156|52=20240226-16:49:49|21=1|11=HS_1708966189153|38=3283|55=E:07G@XETR|54=2|60=20240226-16:49:49|40=2|59=0|44=197|48=US3390411052|22=4|15=EUR|207=XETR|1=bram_123|10=096|
2024-02-26 17:49:49.825 [36] [FixSender] (DEBUG) Sending 8=FIX.4.4|9=196|35=D|49=FIXCLIENT1|56=DMA_HUB|34=157|52=20240226-16:49:49|21=1|11=HS_1708966189154|38=2179|55=E:07G@XETR|54=2|60=20240226-16:49:49|40=2|59=0|44=197|48=US3390411052|22=4|15=EUR|207=XETR|1=bram_123|10=101|
2024-02-26 17:49:49.825 [36] [FixSender] (DEBUG) Sending 8=FIX.4.4|9=196|35=D|49=FIXCLIENT1|56=DMA_HUB|34=158|52=20240226-16:49:49|21=1|11=HS_1708966189155|38=2588|55=E:07G@XETR|54=2|60=20240226-16:49:49|40=2|59=0|44=197|48=US3390411052|22=4|15=EUR|207=XETR|1=bram_123|10=107|
2024-02-26 17:49:49.825 [36] [FixSender] (DEBUG) Sending 8=FIX.4.4|9=196|35=D|49=FIXCLIENT1|56=DMA_HUB|34=159|52=20240226-16:49:49|21=1|11=HS_1708966189156|38=2732|55=E:07G@XETR|54=2|60=20240226-16:49:49|40=2|59=0|44=197|48=US3390411052|22=4|15=EUR|207=XETR|1=bram_123|10=100|
2024-02-26 17:49:49.826 [36] [FixSender] (DEBUG) Sending 8=FIX.4.4|9=196|35=D|49=FIXCLIENT1|56=DMA_HUB|34=160|52=20240226-16:49:49|21=1|11=HS_1708966189157|38=1312|55=E:07G@XETR|54=2|60=20240226-16:49:49|40=2|59=0|44=197|48=US3390411052|22=4|15=EUR|207=XETR|1=bram_123|10=086|
2024-02-26 17:49:49.826 [36] [FixSender] (DEBUG) Sending 8=FIX.4.4|9=196|35=D|49=FIXCLIENT1|56=DMA_HUB|34=161|52=20240226-16:49:49|21=1|11=HS_1708966189158|38=2429|55=E:07G@XETR|54=2|60=20240226-16:49:49|40=2|59=0|44=197|48=US3390411052|22=4|15=EUR|207=XETR|1=bram_123|10=098|
2024-02-26 17:49:49.826 [30] [FixSender] (DEBUG) Receiving 8=FIX.4.4|9=240|35=8|34=104|49=DMA_HUB|56=FIXCLIENT1|52=20240226-16:49:49.823|11=HS_1708966189101|37=FXs6ooXOU|54=2|40=2|59=0|17=20240226102|150=A|39=A|38=3074|151=3074|14=0|6=0|44=197|60=20240226-16:49:49.000|22=4|48=US3390411052|207=XETR|15=EUR|55=[N/A]|10=095|
2024-02-26 17:49:49.826 [36] [FixSender] (DEBUG) Sending 8=FIX.4.4|9=196|35=D|49=FIXCLIENT1|56=DMA_HUB|34=162|52=20240226-16:49:49|21=1|11=HS_1708966189159|38=4850|55=E:07G@XETR|54=2|60=20240226-16:49:49|40=2|59=0|44=197|48=US3390411052|22=4|15=EUR|207=XETR|1=bram_123|10=100|
2024-02-26 17:49:49.826 [36] [FixSender] (DEBUG) Sending 8=FIX.4.4|9=196|35=D|49=FIXCLIENT1|56=DMA_HUB|34=163|52=20240226-16:49:49|21=1|11=HS_1708966189160|38=3247|55=E:07G@XETR|54=2|60=20240226-16:49:49|40=2|59=0|44=197|48=US3390411052|22=4|15=EUR|207=XETR|1=bram_123|10=092|
2024-02-26 17:49:49.827 [36] [FixSender] (DEBUG) Sending 8=FIX.4.4|9=196|35=D|49=FIXCLIENT1|56=DMA_HUB|34=164|52=20240226-16:49:49|21=1|11=HS_1708966189161|38=3736|55=E:07G@XETR|54=2|60=20240226-16:49:49|40=2|59=0|44=197|48=US3390411052|22=4|15=EUR|207=XETR|1=bram_123|10=097|
2024-02-26 17:49:49.827 [36] [FixSender] (DEBUG) Sending 8=FIX.4.4|9=196|35=D|49=FIXCLIENT1|56=DMA_HUB|34=165|52=20240226-16:49:49|21=1|11=HS_1708966189162|38=1852|55=E:07G@XETR|54=2|60=20240226-16:49:49|40=2|59=0|44=197|48=US3390411052|22=4|15=EUR|207=XETR|1=bram_123|10=096|
2024-02-26 17:49:49.827 [36] [FixSender] (DEBUG) Sending 8=FIX.4.4|9=196|35=D|49=FIXCLIENT1|56=DMA_HUB|34=166|52=20240226-16:49:49|21=1|11=HS_1708966189163|38=2296|55=E:07G@XETR|54=2|60=20240226-16:49:49|40=2|59=0|44=197|48=US3390411052|22=4|15=EUR|207=XETR|1=bram_123|10=101|
2024-02-26 17:49:49.828 [36] [FixSender] (DEBUG) Sending 8=FIX.4.4|9=196|35=D|49=FIXCLIENT1|56=DMA_HUB|34=167|52=20240226-16:49:49|21=1|11=HS_1708966189164|38=2546|55=E:07G@XETR|54=2|60=20240226-16:49:49|40=2|59=0|44=197|48=US3390411052|22=4|15=EUR|207=XETR|1=bram_123|10=101|
2024-02-26 17:49:49.828 [36] [FixSender] (DEBUG) Sending 8=FIX.4.4|9=195|35=D|49=FIXCLIENT1|56=DMA_HUB|34=168|52=20240226-16:49:49|21=1|11=HS_1708966189165|38=121|55=E:07G@XETR|54=2|60=20240226-16:49:49|40=2|59=0|44=197|48=US3390411052|22=4|15=EUR|207=XETR|1=bram_123|10=041|
2024-02-26 17:49:49.828 [36] [FixSender] (DEBUG) Sending 8=FIX.4.4|9=196|35=D|49=FIXCLIENT1|56=DMA_HUB|34=169|52=20240226-16:49:49|21=1|11=HS_1708966189166|38=3945|55=E:07G@XETR|54=2|60=20240226-16:49:49|40=2|59=0|44=197|48=US3390411052|22=4|15=EUR|207=XETR|1=bram_123|10=109|
2024-02-26 17:49:49.828 [36] [FixSender] (DEBUG) Sending 8=FIX.4.4|9=196|35=D|49=FIXCLIENT1|56=DMA_HUB|34=170|52=20240226-16:49:49|21=1|11=HS_1708966189167|38=3094|55=E:07G@XETR|54=2|60=20240226-16:49:49|40=2|59=0|44=197|48=US3390411052|22=4|15=EUR|207=XETR|1=bram_123|10=097|
2024-02-26 17:49:49.829 [36] [FixSender] (DEBUG) Sending 8=FIX.4.4|9=196|35=D|49=FIXCLIENT1|56=DMA_HUB|34=171|52=20240226-16:49:49|21=1|11=HS_1708966189168|38=2827|55=E:07G@XETR|54=2|60=20240226-16:49:49|40=2|59=0|44=197|48=US3390411052|22=4|15=EUR|207=XETR|1=bram_123|10=102|
2024-02-26 17:49:49.830 [36] [FixSender] (DEBUG) Sending 8=FIX.4.4|9=196|35=D|49=FIXCLIENT1|56=DMA_HUB|34=172|52=20240226-16:49:49|21=1|11=HS_1708966189169|38=1970|55=E:07G@XETR|54=2|60=20240226-16:49:49|40=2|59=0|44=197|48=US3390411052|22=4|15=EUR|207=XETR|1=bram_123|10=102|
2024-02-26 17:49:49.830 [36] [FixSender] (DEBUG) Sending 8=FIX.4.4|9=196|35=D|49=FIXCLIENT1|56=DMA_HUB|34=173|52=20240226-16:49:49|21=1|11=HS_1708966189170|38=3777|55=E:07G@XETR|54=2|60=20240226-16:49:49|40=2|59=0|44=197|48=US3390411052|22=4|15=EUR|207=XETR|1=bram_123|10=102|
2024-02-26 17:49:49.830 [36] [FixSender] (DEBUG) Sending 8=FIX.4.4|9=196|35=D|49=FIXCLIENT1|56=DMA_HUB|34=174|52=20240226-16:49:49|21=1|11=HS_1708966189171|38=3661|55=E:07G@XETR|54=2|60=20240226-16:49:49|40=2|59=0|44=197|48=US3390411052|22=4|15=EUR|207=XETR|1=bram_123|10=096|
2024-02-26 17:49:49.830 [36] [FixSender] (DEBUG) Sending 8=FIX.4.4|9=196|35=D|49=FIXCLIENT1|56=DMA_HUB|34=175|52=20240226-16:49:49|21=1|11=HS_1708966189172|38=4366|55=E:07G@XETR|54=2|60=20240226-16:49:49|40=2|59=0|44=197|48=US3390411052|22=4|15=EUR|207=XETR|1=bram_123|10=101|
2024-02-26 17:49:49.830 [36] [FixSender] (DEBUG) Sending 8=FIX.4.4|9=196|35=D|49=FIXCLIENT1|56=DMA_HUB|34=176|52=20240226-16:49:49|21=1|11=HS_1708966189173|38=3727|55=E:07G@XETR|54=2|60=20240226-16:49:49|40=2|59=0|44=197|48=US3390411052|22=4|15=EUR|207=XETR|1=bram_123|10=103|
2024-02-26 17:49:49.831 [36] [FixSender] (DEBUG) Sending 8=FIX.4.4|9=196|35=D|49=FIXCLIENT1|56=DMA_HUB|34=177|52=20240226-16:49:49|21=1|11=HS_1708966189174|38=1144|55=E:07G@XETR|54=2|60=20240226-16:49:49|40=2|59=0|44=197|48=US3390411052|22=4|15=EUR|207=XETR|1=bram_123|10=096|
2024-02-26 17:49:49.832 [36] [FixSender] (DEBUG) Sending 8=FIX.4.4|9=196|35=D|49=FIXCLIENT1|56=DMA_HUB|34=178|52=20240226-16:49:49|21=1|11=HS_1708966189175|38=4790|55=E:07G@XETR|54=2|60=20240226-16:49:49|40=2|59=0|44=197|48=US3390411052|22=4|15=EUR|207=XETR|1=bram_123|10=108|
2024-02-26 17:49:49.832 [36] [FixSender] (DEBUG) Sending 8=FIX.4.4|9=196|35=D|49=FIXCLIENT1|56=DMA_HUB|34=179|52=20240226-16:49:49|21=1|11=HS_1708966189176|38=3462|55=E:07G@XETR|54=2|60=20240226-16:49:49|40=2|59=0|44=197|48=US3390411052|22=4|15=EUR|207=XETR|1=bram_123|10=105|
2024-02-26 17:49:49.832 [36] [FixSender] (DEBUG) Sending 8=FIX.4.4|9=196|35=D|49=FIXCLIENT1|56=DMA_HUB|34=180|52=20240226-16:49:49|21=1|11=HS_1708966189177|38=3800|55=E:07G@XETR|54=2|60=20240226-16:49:49|40=2|59=0|44=197|48=US3390411052|22=4|15=EUR|207=XETR|1=bram_123|10=094|
2024-02-26 17:49:49.832 [36] [FixSender] (DEBUG) Sending 8=FIX.4.4|9=196|35=D|49=FIXCLIENT1|56=DMA_HUB|34=181|52=20240226-16:49:49|21=1|11=HS_1708966189178|38=3029|55=E:07G@XETR|54=2|60=20240226-16:49:49|40=2|59=0|44=197|48=US3390411052|22=4|15=EUR|207=XETR|1=bram_123|10=099|
2024-02-26 17:49:49.832 [36] [FixSender] (DEBUG) Sending 8=FIX.4.4|9=196|35=D|49=FIXCLIENT1|56=DMA_HUB|34=182|52=20240226-16:49:49|21=1|11=HS_1708966189179|38=1525|55=E:07G@XETR|54=2|60=20240226-16:49:49|40=2|59=0|44=197|48=US3390411052|22=4|15=EUR|207=XETR|1=bram_123|10=100|
2024-02-26 17:49:49.833 [36] [FixSender] (DEBUG) Sending 8=FIX.4.4|9=196|35=D|49=FIXCLIENT1|56=DMA_HUB|34=183|52=20240226-16:49:49|21=1|11=HS_1708966189180|38=4645|55=E:07G@XETR|54=2|60=20240226-16:49:49|40=2|59=0|44=197|48=US3390411052|22=4|15=EUR|207=XETR|1=bram_123|10=099|
2024-02-26 17:49:49.833 [36] [FixSender] (DEBUG) Sending 8=FIX.4.4|9=196|35=D|49=FIXCLIENT1|56=DMA_HUB|34=184|52=20240226-16:49:49|21=1|11=HS_1708966189181|38=3909|55=E:07G@XETR|54=2|60=20240226-16:49:49|40=2|59=0|44=197|48=US3390411052|22=4|15=EUR|207=XETR|1=bram_123|10=103|
2024-02-26 17:49:49.833 [36] [FixSender] (DEBUG) Sending 8=FIX.4.4|9=196|35=D|49=FIXCLIENT1|56=DMA_HUB|34=185|52=20240226-16:49:49|21=1|11=HS_1708966189182|38=1796|55=E:07G@XETR|54=2|60=20240226-16:49:49|40=2|59=0|44=197|48=US3390411052|22=4|15=EUR|207=XETR|1=bram_123|10=107|
2024-02-26 17:49:49.833 [36] [FixSender] (DEBUG) Sending 8=FIX.4.4|9=196|35=D|49=FIXCLIENT1|56=DMA_HUB|34=186|52=20240226-16:49:49|21=1|11=HS_1708966189183|38=2840|55=E:07G@XETR|54=2|60=20240226-16:49:49|40=2|59=0|44=197|48=US3390411052|22=4|15=EUR|207=XETR|1=bram_123|10=100|
2024-02-26 17:49:49.834 [36] [FixSender] (DEBUG) Sending 8=FIX.4.4|9=196|35=D|49=FIXCLIENT1|56=DMA_HUB|34=187|52=20240226-16:49:49|21=1|11=HS_1708966189184|38=3131|55=E:07G@XETR|54=2|60=20240226-16:49:49|40=2|59=0|44=197|48=US3390411052|22=4|15=EUR|207=XETR|1=bram_123|10=096|
2024-02-26 17:49:49.834 [36] [FixSender] (DEBUG) Sending 8=FIX.4.4|9=196|35=D|49=FIXCLIENT1|56=DMA_HUB|34=188|52=20240226-16:49:49|21=1|11=HS_1708966189185|38=2343|55=E:07G@XETR|54=2|60=20240226-16:49:49|40=2|59=0|44=197|48=US3390411052|22=4|15=EUR|207=XETR|1=bram_123|10=102|
2024-02-26 17:49:49.834 [36] [FixSender] (DEBUG) Sending 8=FIX.4.4|9=196|35=D|49=FIXCLIENT1|56=DMA_HUB|34=189|52=20240226-16:49:49|21=1|11=HS_1708966189186|38=3863|55=E:07G@XETR|54=2|60=20240226-16:49:49|40=2|59=0|44=197|48=US3390411052|22=4|15=EUR|207=XETR|1=bram_123|10=112|
2024-02-26 17:49:49.835 [36] [FixSender] (DEBUG) Sending 8=FIX.4.4|9=196|35=D|49=FIXCLIENT1|56=DMA_HUB|34=190|52=20240226-16:49:49|21=1|11=HS_1708966189187|38=1151|55=E:07G@XETR|54=2|60=20240226-16:49:49|40=2|59=0|44=197|48=US3390411052|22=4|15=EUR|207=XETR|1=bram_123|10=093|
2024-02-26 17:49:49.835 [36] [FixSender] (DEBUG) Sending 8=FIX.4.4|9=196|35=D|49=FIXCLIENT1|56=DMA_HUB|34=191|52=20240226-16:49:49|21=1|11=HS_1708966189188|38=1469|55=E:07G@XETR|54=2|60=20240226-16:49:49|40=2|59=0|44=197|48=US3390411052|22=4|15=EUR|207=XETR|1=bram_123|10=107|
2024-02-26 17:49:49.835 [36] [FixSender] (DEBUG) Sending 8=FIX.4.4|9=196|35=D|49=FIXCLIENT1|56=DMA_HUB|34=192|52=20240226-16:49:49|21=1|11=HS_1708966189189|38=1034|55=E:07G@XETR|54=2|60=20240226-16:49:49|40=2|59=0|44=197|48=US3390411052|22=4|15=EUR|207=XETR|1=bram_123|10=097|
2024-02-26 17:49:49.836 [36] [FixSender] (DEBUG) Sending 8=FIX.4.4|9=196|35=D|49=FIXCLIENT1|56=DMA_HUB|34=193|52=20240226-16:49:49|21=1|11=HS_1708966189190|38=3713|55=E:07G@XETR|54=2|60=20240226-16:49:49|40=2|59=0|44=197|48=US3390411052|22=4|15=EUR|207=XETR|1=bram_123|10=096|
2024-02-26 17:49:49.836 [36] [FixSender] (DEBUG) Sending 8=FIX.4.4|9=196|35=D|49=FIXCLIENT1|56=DMA_HUB|34=194|52=20240226-16:49:49|21=1|11=HS_1708966189191|38=1694|55=E:07G@XETR|54=2|60=20240226-16:49:49|40=2|59=0|44=197|48=US3390411052|22=4|15=EUR|207=XETR|1=bram_123|10=104|
2024-02-26 17:49:49.836 [36] [FixSender] (DEBUG) Sending 8=FIX.4.4|9=195|35=D|49=FIXCLIENT1|56=DMA_HUB|34=195|52=20240226-16:49:49|21=1|11=HS_1708966189192|38=934|55=E:07G@XETR|54=2|60=20240226-16:49:49|40=2|59=0|44=197|48=US3390411052|22=4|15=EUR|207=XETR|1=bram_123|10=053|
2024-02-26 17:49:49.837 [36] [FixSender] (DEBUG) Sending 8=FIX.4.4|9=196|35=D|49=FIXCLIENT1|56=DMA_HUB|34=196|52=20240226-16:49:49|21=1|11=HS_1708966189193|38=1852|55=E:07G@XETR|54=2|60=20240226-16:49:49|40=2|59=0|44=197|48=US3390411052|22=4|15=EUR|207=XETR|1=bram_123|10=104|
2024-02-26 17:49:49.837 [36] [FixSender] (DEBUG) Sending 8=FIX.4.4|9=196|35=D|49=FIXCLIENT1|56=DMA_HUB|34=197|52=20240226-16:49:49|21=1|11=HS_1708966189194|38=1888|55=E:07G@XETR|54=2|60=20240226-16:49:49|40=2|59=0|44=197|48=US3390411052|22=4|15=EUR|207=XETR|1=bram_123|10=115|
2024-02-26 17:49:49.837 [36] [FixSender] (DEBUG) Sending 8=FIX.4.4|9=196|35=D|49=FIXCLIENT1|56=DMA_HUB|34=198|52=20240226-16:49:49|21=1|11=HS_1708966189195|38=2789|55=E:07G@XETR|54=2|60=20240226-16:49:49|40=2|59=0|44=197|48=US3390411052|22=4|15=EUR|207=XETR|1=bram_123|10=118|
2024-02-26 17:49:49.838 [36] [FixSender] (DEBUG) Sending 8=FIX.4.4|9=196|35=D|49=FIXCLIENT1|56=DMA_HUB|34=199|52=20240226-16:49:49|21=1|11=HS_1708966189196|38=4196|55=E:07G@XETR|54=2|60=20240226-16:49:49|40=2|59=0|44=197|48=US3390411052|22=4|15=EUR|207=XETR|1=bram_123|10=114|
2024-02-26 17:49:49.838 [36] [FixSender] (DEBUG) Sending 8=FIX.4.4|9=196|35=D|49=FIXCLIENT1|56=DMA_HUB|34=200|52=20240226-16:49:49|21=1|11=HS_1708966189197|38=1551|55=E:07G@XETR|54=2|60=20240226-16:49:49|40=2|59=0|44=197|48=US3390411052|22=4|15=EUR|207=XETR|1=bram_123|10=090|
2024-02-26 17:49:49.838 [36] [FixSender] (DEBUG) Sending 8=FIX.4.4|9=196|35=D|49=FIXCLIENT1|56=DMA_HUB|34=201|52=20240226-16:49:49|21=1|11=HS_1708966189198|38=3178|55=E:07G@XETR|54=2|60=20240226-16:49:49|40=2|59=0|44=197|48=US3390411052|22=4|15=EUR|207=XETR|1=bram_123|10=099|
2024-02-26 17:49:49.839 [36] [FixSender] (DEBUG) Sending 8=FIX.4.4|9=196|35=D|49=FIXCLIENT1|56=DMA_HUB|34=202|52=20240226-16:49:49|21=1|11=HS_1708966189199|38=3435|55=E:07G@XETR|54=2|60=20240226-16:49:49|40=2|59=0|44=197|48=US3390411052|22=4|15=EUR|207=XETR|1=bram_123|10=097|
2024-02-26 17:49:49.839 [36] [FixSender] (DEBUG) Sending 8=FIX.4.4|9=196|35=D|49=FIXCLIENT1|56=DMA_HUB|34=203|52=20240226-16:49:49|21=1|11=HS_1708966189200|38=3968|55=E:07G@XETR|54=2|60=20240226-16:49:49|40=2|59=0|44=197|48=US3390411052|22=4|15=EUR|207=XETR|1=bram_123|10=092|
2024-02-26 17:49:49.850 [30] [FixSender] (DEBUG) Receiving 8=FIX.4.4|9=240|35=8|34=105|49=DMA_HUB|56=FIXCLIENT1|52=20240226-16:49:49.849|11=HS_1708966189102|37=FXt6ooXOU|54=2|40=2|59=0|17=20240226103|150=A|39=A|38=4732|151=4732|14=0|6=0|44=197|60=20240226-16:49:49.000|22=4|48=US3390411052|207=XETR|15=EUR|55=[N/A]|10=111|
2024-02-26 17:49:49.850 [30] [FixSender] (DEBUG) Receiving 8=FIX.4.4|9=240|35=8|34=106|49=DMA_HUB|56=FIXCLIENT1|52=20240226-16:49:49.850|11=HS_1708966189103|37=FXu6ooXOU|54=2|40=2|59=0|17=20240226104|150=A|39=A|38=3759|151=3759|14=0|6=0|44=197|60=20240226-16:49:49.000|22=4|48=US3390411052|207=XETR|15=EUR|55=[N/A]|10=123|
2024-02-26 17:49:49.851 [30] [FixSender] (DEBUG) Receiving 8=FIX.4.4|9=240|35=8|34=107|49=DMA_HUB|56=FIXCLIENT1|52=20240226-16:49:49.850|11=HS_1708966189104|37=FXv6ooXOU|54=2|40=2|59=0|17=20240226105|150=A|39=A|38=4802|151=4802|14=0|6=0|44=197|60=20240226-16:49:49.000|22=4|48=US3390411052|207=XETR|15=EUR|55=[N/A]|10=107|
2024-02-26 17:49:49.851 [30] [FixSender] (DEBUG) Receiving 8=FIX.4.4|9=240|35=8|34=108|49=DMA_HUB|56=FIXCLIENT1|52=20240226-16:49:49.850|11=HS_1708966189105|37=FXw6ooXOU|54=2|40=2|59=0|17=20240226106|150=A|39=A|38=3256|151=3256|14=0|6=0|44=197|60=20240226-16:49:49.000|22=4|48=US3390411052|207=XETR|15=EUR|55=[N/A]|10=115|
2024-02-26 17:49:49.852 [30] [FixSender] (DEBUG) Receiving 8=FIX.4.4|9=240|35=8|34=109|49=DMA_HUB|56=FIXCLIENT1|52=20240226-16:49:49.851|11=HS_1708966189106|37=FXx6ooXOU|54=2|40=2|59=0|17=20240226107|150=A|39=A|38=1189|151=1189|14=0|6=0|44=197|60=20240226-16:49:49.000|22=4|48=US3390411052|207=XETR|15=EUR|55=[N/A]|10=126|
2024-02-26 17:49:49.852 [30] [FixSender] (DEBUG) Receiving 8=FIX.4.4|9=240|35=8|34=110|49=DMA_HUB|56=FIXCLIENT1|52=20240226-16:49:49.852|11=HS_1708966189107|37=FXy6ooXOU|54=2|40=2|59=0|17=20240226108|150=A|39=A|38=3427|151=3427|14=0|6=0|44=197|60=20240226-16:49:49.000|22=4|48=US3390411052|207=XETR|15=EUR|55=[N/A]|10=116|
2024-02-26 17:49:49.852 [30] [FixSender] (DEBUG) Receiving 8=FIX.4.4|9=240|35=8|34=111|49=DMA_HUB|56=FIXCLIENT1|52=20240226-16:49:49.852|11=HS_1708966189108|37=FXz6ooXOU|54=2|40=2|59=0|17=20240226109|150=A|39=A|38=2060|151=2060|14=0|6=0|44=197|60=20240226-16:49:49.000|22=4|48=US3390411052|207=XETR|15=EUR|55=[N/A]|10=104|
2024-02-26 17:49:49.853 [30] [FixSender] (DEBUG) Receiving 8=FIX.4.4|9=240|35=8|34=112|49=DMA_HUB|56=FIXCLIENT1|52=20240226-16:49:49.852|11=HS_1708966189109|37=FX07ooXOU|54=2|40=2|59=0|17=20240226110|150=A|39=A|38=2853|151=2853|14=0|6=0|44=197|60=20240226-16:49:49.000|22=4|48=US3390411052|207=XETR|15=EUR|55=[N/A]|10=045|
2024-02-26 17:49:49.853 [30] [FixSender] (DEBUG) Receiving 8=FIX.4.4|9=240|35=8|34=113|49=DMA_HUB|56=FIXCLIENT1|52=20240226-16:49:49.853|11=HS_1708966189110|37=FX17ooXOU|54=2|40=2|59=0|17=20240226111|150=A|39=A|38=1334|151=1334|14=0|6=0|44=197|60=20240226-16:49:49.000|22=4|48=US3390411052|207=XETR|15=EUR|55=[N/A]|10=027|
2024-02-26 17:49:49.854 [30] [FixSender] (DEBUG) Receiving 8=FIX.4.4|9=240|35=8|34=114|49=DMA_HUB|56=FIXCLIENT1|52=20240226-16:49:49.853|11=HS_1708966189111|37=FX27ooXOU|54=2|40=2|59=0|17=20240226112|150=A|39=A|38=2077|151=2077|14=0|6=0|44=197|60=20240226-16:49:49.000|22=4|48=US3390411052|207=XETR|15=EUR|55=[N/A]|10=041|
2024-02-26 17:49:49.854 [30] [FixSender] (DEBUG) Receiving 8=FIX.4.4|9=240|35=8|34=115|49=DMA_HUB|56=FIXCLIENT1|52=20240226-16:49:49.854|11=HS_1708966189112|37=FX37ooXOU|54=2|40=2|59=0|17=20240226113|150=A|39=A|38=3526|151=3526|14=0|6=0|44=197|60=20240226-16:49:49.000|22=4|48=US3390411052|207=XETR|15=EUR|55=[N/A]|10=046|
2024-02-26 17:49:49.855 [30] [FixSender] (DEBUG) Receiving 8=FIX.4.4|9=240|35=8|34=116|49=DMA_HUB|56=FIXCLIENT1|52=20240226-16:49:49.855|11=HS_1708966189113|37=FX47ooXOU|54=2|40=2|59=0|17=20240226114|150=A|39=A|38=3262|151=3262|14=0|6=0|44=197|60=20240226-16:49:49.000|22=4|48=US3390411052|207=XETR|15=EUR|55=[N/A]|10=045|
2024-02-26 17:49:49.855 [30] [FixSender] (DEBUG) Receiving 8=FIX.4.4|9=240|35=8|34=117|49=DMA_HUB|56=FIXCLIENT1|52=20240226-16:49:49.855|11=HS_1708966189114|37=FX57ooXOU|54=2|40=2|59=0|17=20240226115|150=A|39=A|38=3958|151=3958|14=0|6=0|44=197|60=20240226-16:49:49.000|22=4|48=US3390411052|207=XETR|15=EUR|55=[N/A]|10=073|
2024-02-26 17:49:49.856 [30] [FixSender] (DEBUG) Receiving 8=FIX.4.4|9=240|35=8|34=118|49=DMA_HUB|56=FIXCLIENT1|52=20240226-16:49:49.856|11=HS_1708966189115|37=FX67ooXOU|54=2|40=2|59=0|17=20240226116|150=A|39=A|38=4875|151=4875|14=0|6=0|44=197|60=20240226-16:49:49.000|22=4|48=US3390411052|207=XETR|15=EUR|55=[N/A]|10=076|
2024-02-26 17:49:49.856 [30] [FixSender] (DEBUG) Receiving 8=FIX.4.4|9=240|35=8|34=119|49=DMA_HUB|56=FIXCLIENT1|52=20240226-16:49:49.856|11=HS_1708966189116|37=FX77ooXOU|54=2|40=2|59=0|17=20240226117|150=A|39=A|38=2642|151=2642|14=0|6=0|44=197|60=20240226-16:49:49.000|22=4|48=US3390411052|207=XETR|15=EUR|55=[N/A]|10=060|
2024-02-26 17:49:49.857 [30] [FixSender] (DEBUG) Receiving 8=FIX.4.4|9=240|35=8|34=120|49=DMA_HUB|56=FIXCLIENT1|52=20240226-16:49:49.857|11=HS_1708966189117|37=FX87ooXOU|54=2|40=2|59=0|17=20240226118|150=A|39=A|38=4520|151=4520|14=0|6=0|44=197|60=20240226-16:49:49.000|22=4|48=US3390411052|207=XETR|15=EUR|55=[N/A]|10=050|
2024-02-26 17:49:49.858 [30] [FixSender] (DEBUG) Receiving 8=FIX.4.4|9=240|35=8|34=121|49=DMA_HUB|56=FIXCLIENT1|52=20240226-16:49:49.857|11=HS_1708966189118|37=FX97ooXOU|54=2|40=2|59=0|17=20240226119|150=A|39=A|38=4938|151=4938|14=0|6=0|44=197|60=20240226-16:49:49.000|22=4|48=US3390411052|207=XETR|15=EUR|55=[N/A]|10=080|
2024-02-26 17:49:49.858 [30] [FixSender] (DEBUG) Receiving 8=FIX.4.4|9=240|35=8|34=122|49=DMA_HUB|56=FIXCLIENT1|52=20240226-16:49:49.858|11=HS_1708966189119|37=FXA7ooXOU|54=2|40=2|59=0|17=20240226120|150=A|39=A|38=4856|151=4856|14=0|6=0|44=197|60=20240226-16:49:49.000|22=4|48=US3390411052|207=XETR|15=EUR|55=[N/A]|10=081|
2024-02-26 17:49:49.859 [30] [FixSender] (DEBUG) Receiving 8=FIX.4.4|9=238|35=8|34=123|49=DMA_HUB|56=FIXCLIENT1|52=20240226-16:49:49.858|11=HS_1708966189120|37=FXB7ooXOU|54=2|40=2|59=0|17=20240226121|150=A|39=A|38=271|151=271|14=0|6=0|44=197|60=20240226-16:49:49.000|22=4|48=US3390411052|207=XETR|15=EUR|55=[N/A]|10=217|
2024-02-26 17:49:49.860 [30] [FixSender] (DEBUG) Receiving 8=FIX.4.4|9=240|35=8|34=124|49=DMA_HUB|56=FIXCLIENT1|52=20240226-16:49:49.859|11=HS_1708966189121|37=FXC7ooXOU|54=2|40=2|59=0|17=20240226122|150=A|39=A|38=3329|151=3329|14=0|6=0|44=197|60=20240226-16:49:49.000|22=4|48=US3390411052|207=XETR|15=EUR|55=[N/A]|10=069|
2024-02-26 17:49:49.860 [30] [FixSender] (DEBUG) Receiving 8=FIX.4.4|9=238|35=8|34=125|49=DMA_HUB|56=FIXCLIENT1|52=20240226-16:49:49.860|11=HS_1708966189122|37=FXD7ooXOU|54=2|40=2|59=0|17=20240226123|150=A|39=A|38=242|151=242|14=0|6=0|44=197|60=20240226-16:49:49.000|22=4|48=US3390411052|207=XETR|15=EUR|55=[N/A]|10=214|
2024-02-26 17:49:49.860 [30] [FixSender] (DEBUG) Receiving 8=FIX.4.4|9=240|35=8|34=126|49=DMA_HUB|56=FIXCLIENT1|52=20240226-16:49:49.860|11=HS_1708966189123|37=FXE7ooXOU|54=2|40=2|59=0|17=20240226124|150=A|39=A|38=2376|151=2376|14=0|6=0|44=197|60=20240226-16:49:49.000|22=4|48=US3390411052|207=XETR|15=EUR|55=[N/A]|10=071|
2024-02-26 17:49:49.861 [30] [FixSender] (DEBUG) Receiving 8=FIX.4.4|9=240|35=8|34=127|49=DMA_HUB|56=FIXCLIENT1|52=20240226-16:49:49.861|11=HS_1708966189124|37=FXF7ooXOU|54=2|40=2|59=0|17=20240226125|150=A|39=A|38=3152|151=3152|14=0|6=0|44=197|60=20240226-16:49:49.000|22=4|48=US3390411052|207=XETR|15=EUR|55=[N/A]|10=062|
2024-02-26 17:49:49.861 [30] [FixSender] (DEBUG) Receiving 8=FIX.4.4|9=240|35=8|34=128|49=DMA_HUB|56=FIXCLIENT1|52=20240226-16:49:49.861|11=HS_1708966189125|37=FXG7ooXOU|54=2|40=2|59=0|17=20240226126|150=A|39=A|38=2598|151=2598|14=0|6=0|44=197|60=20240226-16:49:49.000|22=4|48=US3390411052|207=XETR|15=EUR|55=[N/A]|10=092|
2024-02-26 17:49:49.862 [30] [FixSender] (DEBUG) Receiving 8=FIX.4.4|9=238|35=8|34=129|49=DMA_HUB|56=FIXCLIENT1|52=20240226-16:49:49.862|11=HS_1708966189126|37=FXH7ooXOU|54=2|40=2|59=0|17=20240226127|150=A|39=A|38=338|151=338|14=0|6=0|44=197|60=20240226-16:49:49.000|22=4|48=US3390411052|207=XETR|15=EUR|55=[N/A]|10=244|
2024-02-26 17:49:49.880 [30] [FixSender] (DEBUG) Receiving 8=FIX.4.4|9=240|35=8|34=130|49=DMA_HUB|56=FIXCLIENT1|52=20240226-16:49:49.880|11=HS_1708966189127|37=FXI7ooXOU|54=2|40=2|59=0|17=20240226128|150=A|39=A|38=1863|151=1863|14=0|6=0|44=197|60=20240226-16:49:49.000|22=4|48=US3390411052|207=XETR|15=EUR|55=[N/A]|10=080|
2024-02-26 17:49:49.881 [30] [FixSender] (DEBUG) Receiving 8=FIX.4.4|9=240|35=8|34=131|49=DMA_HUB|56=FIXCLIENT1|52=20240226-16:49:49.881|11=HS_1708966189128|37=FXJ7ooXOU|54=2|40=2|59=0|17=20240226129|150=A|39=A|38=3383|151=3383|14=0|6=0|44=197|60=20240226-16:49:49.000|22=4|48=US3390411052|207=XETR|15=EUR|55=[N/A]|10=083|
2024-02-26 17:49:49.882 [30] [FixSender] (DEBUG) Receiving 8=FIX.4.4|9=240|35=8|34=132|49=DMA_HUB|56=FIXCLIENT1|52=20240226-16:49:49.881|11=HS_1708966189129|37=FXK7ooXOU|54=2|40=2|59=0|17=20240226130|150=A|39=A|38=3536|151=3536|14=0|6=0|44=197|60=20240226-16:49:49.000|22=4|48=US3390411052|207=XETR|15=EUR|55=[N/A]|10=078|
2024-02-26 17:49:49.887 [30] [FixSender] (DEBUG) Receiving 8=FIX.4.4|9=238|35=8|34=133|49=DMA_HUB|56=FIXCLIENT1|52=20240226-16:49:49.882|11=HS_1708966189130|37=FXL7ooXOU|54=2|40=2|59=0|17=20240226131|150=A|39=A|38=197|151=197|14=0|6=0|44=197|60=20240226-16:49:49.000|22=4|48=US3390411052|207=XETR|15=EUR|55=[N/A]|10=241|
2024-02-26 17:49:49.887 [30] [FixSender] (DEBUG) Receiving 8=FIX.4.4|9=240|35=8|34=134|49=DMA_HUB|56=FIXCLIENT1|52=20240226-16:49:49.885|11=HS_1708966189131|37=FXM7ooXOU|54=2|40=2|59=0|17=20240226132|150=A|39=A|38=3589|151=3589|14=0|6=0|44=197|60=20240226-16:49:49.000|22=4|48=US3390411052|207=XETR|15=EUR|55=[N/A]|10=097|
2024-02-26 17:49:49.887 [30] [FixSender] (DEBUG) Receiving 8=FIX.4.4|9=240|35=8|34=135|49=DMA_HUB|56=FIXCLIENT1|52=20240226-16:49:49.885|11=HS_1708966189132|37=FXN7ooXOU|54=2|40=2|59=0|17=20240226133|150=A|39=A|38=1134|151=1134|14=0|6=0|44=197|60=20240226-16:49:49.000|22=4|48=US3390411052|207=XETR|15=EUR|55=[N/A]|10=069|
2024-02-26 17:49:49.887 [30] [FixSender] (DEBUG) Receiving 8=FIX.4.4|9=240|35=8|34=136|49=DMA_HUB|56=FIXCLIENT1|52=20240226-16:49:49.885|11=HS_1708966189133|37=FXO7ooXOU|54=2|40=2|59=0|17=20240226134|150=A|39=A|38=2528|151=2528|14=0|6=0|44=197|60=20240226-16:49:49.000|22=4|48=US3390411052|207=XETR|15=EUR|55=[N/A]|10=089|
2024-02-26 17:49:49.887 [30] [FixSender] (DEBUG) Receiving 8=FIX.4.4|9=240|35=8|34=137|49=DMA_HUB|56=FIXCLIENT1|52=20240226-16:49:49.886|11=HS_1708966189134|37=FXP7ooXOU|54=2|40=2|59=0|17=20240226135|150=A|39=A|38=2752|151=2752|14=0|6=0|44=197|60=20240226-16:49:49.000|22=4|48=US3390411052|207=XETR|15=EUR|55=[N/A]|10=092|
2024-02-26 17:49:49.887 [30] [FixSender] (DEBUG) Receiving 8=FIX.4.4|9=240|35=8|34=138|49=DMA_HUB|56=FIXCLIENT1|52=20240226-16:49:49.887|11=HS_1708966189135|37=FXQ7ooXOU|54=2|40=2|59=0|17=20240226136|150=A|39=A|38=4965|151=4965|14=0|6=0|44=197|60=20240226-16:49:49.000|22=4|48=US3390411052|207=XETR|15=EUR|55=[N/A]|10=113|
