2024-07-22 15:39:18.421 [1] [Fixsender] (INFO) (c) 2001-2011 ullink SAS. FixSender. Release 1.11.
2024-07-22 15:39:40.945 [35] [FixSender] (INFO) try to connect to : localhost port :12345
2024-07-22 15:39:40.950 [35] [FixSender] (INFO) physical cnx initiated
2024-07-22 15:39:40.959 [35] [FixSender] (DEBUG) Sending 8=FIX.4.4|9=88|35=A|49=FIXCLIENT1|56=DMA_HUB|34=242|52=20240722-13:39:40|98=0|108=30|95=9|96=null/null|10=196|
2024-07-22 15:39:40.964 [35] [FixSender] (DEBUG) Receiving 8=FIX.4.4|9=72|35=A|34=1|49=DMA_HUB|56=FIXCLIENT1|52=20240722-13:39:40.962|108=30|98=0|10=238|
2024-07-22 15:39:40.965 [35] [FixSender] (DEBUG) Sending 8=FIX.4.4|9=110|35=5|49=FIXCLIENT1|56=DMA_HUB|34=243|52=20240722-13:39:40|58=MsgSeqNum expected 246, but MsgSeqNum received 1|10=211|
2024-07-22 15:39:40.966 [35] [FixSender] (INFO) physical cnx finished Connection reset by peer
2024-07-22 15:39:40.966 [35] [FixSender] (WARNING) Disconnected
2024-07-22 15:39:42.156 [39] [FixSender] (INFO) try to connect to : localhost port :12345
2024-07-22 15:39:42.156 [39] [FixSender] (INFO) physical cnx initiated
2024-07-22 15:39:42.157 [39] [FixSender] (DEBUG) Sending 8=FIX.4.4|9=86|35=A|49=FIXCLIENT1|56=DMA_HUB|34=1|52=20240722-13:39:42|98=0|108=30|95=9|96=null/null|10=093|
2024-07-22 15:39:42.158 [39] [FixSender] (DEBUG) Receiving 8=FIX.4.4|9=72|35=A|34=4|49=DMA_HUB|56=FIXCLIENT1|52=20240722-13:39:42.157|108=30|98=0|10=239|
2024-07-22 15:39:42.158 [39] [FixSender] (WARNING) The Fix connection is open...
2024-07-22 15:39:42.164 [39] [FixSender] (DEBUG) Sending 8=FIX.4.4|9=65|35=2|49=FIXCLIENT1|56=DMA_HUB|34=2|52=20240722-13:39:42|7=1|16=0|10=119|
2024-07-22 15:39:42.167 [39] [FixSender] (DEBUG) Receiving 8=FIX.4.4|9=102|35=4|34=1|49=DMA_HUB|56=FIXCLIENT1|52=20240722-13:39:42.166|43=Y|122=20240722-13:39:42.166|36=5|123=Y|10=255|
2024-07-22 15:40:12.134 [39] [FixSender] (DEBUG) Receiving 8=FIX.4.4|9=60|35=0|34=5|49=DMA_HUB|56=FIXCLIENT1|52=20240722-13:40:12.132|10=177|
2024-07-22 15:40:12.165 [40] [FixSender] (DEBUG) Sending 8=FIX.4.4|9=56|35=0|49=FIXCLIENT1|56=DMA_HUB|34=3|52=20240722-13:40:12|10=240|
2024-07-22 15:40:42.085 [39] [FixSender] (DEBUG) Receiving 8=FIX.4.4|9=60|35=0|34=6|49=DMA_HUB|56=FIXCLIENT1|52=20240722-13:40:42.084|10=187|
2024-07-22 15:40:42.166 [40] [FixSender] (DEBUG) Sending 8=FIX.4.4|9=56|35=0|49=FIXCLIENT1|56=DMA_HUB|34=4|52=20240722-13:40:42|10=244|
2024-07-22 15:41:12.037 [39] [FixSender] (DEBUG) Receiving 8=FIX.4.4|9=60|35=0|34=7|49=DMA_HUB|56=FIXCLIENT1|52=20240722-13:41:12.036|10=183|
2024-07-22 15:41:12.167 [40] [FixSender] (DEBUG) Sending 8=FIX.4.4|9=56|35=0|49=FIXCLIENT1|56=DMA_HUB|34=5|52=20240722-13:41:12|10=243|
2024-07-22 15:41:38.933 [42] [FixSender] (DEBUG) Sending 8=FIX.4.4|9=191|35=D|49=FIXCLIENT1|56=DMA_HUB|34=6|52=20240722-13:41:38|21=1|11=HS_17216556980|38=472|55=E:07G@XETR|54=2|60=20240722-13:41:38|40=2|59=0|44=197|48=US3390411052|22=4|15=EUR|207=XETR|1=bram_123|10=060|
2024-07-22 15:41:38.942 [39] [FixSender] (DEBUG) Receiving 8=FIX.4.4|9=232|35=8|34=8|49=DMA_HUB|56=FIXCLIENT1|52=20240722-13:41:38.942|11=HS_17216556980|37=FX10YXmnQ|54=2|40=2|59=0|17=202407221|150=A|39=A|38=472|151=472|14=0|6=0|44=197|60=20240722-13:41:38.000|22=4|48=US3390411052|207=XETR|15=EUR|55=[N/A]|10=126|
2024-07-22 15:41:41.054 [43] [FixSender] (DEBUG) Sending 8=FIX.4.4|9=192|35=D|49=FIXCLIENT1|56=DMA_HUB|34=7|52=20240722-13:41:41|21=1|11=HS_17216557011|38=1778|55=E:07G@XETR|54=2|60=20240722-13:41:41|40=2|59=0|44=197|48=US3390411052|22=4|15=EUR|207=XETR|1=bram_123|10=094|
2024-07-22 15:41:41.056 [39] [FixSender] (DEBUG) Receiving 8=FIX.4.4|9=234|35=8|34=9|49=DMA_HUB|56=FIXCLIENT1|52=20240722-13:41:41.055|11=HS_17216557011|37=FX20YXmnQ|54=2|40=2|59=0|17=202407222|150=A|39=A|38=1778|151=1778|14=0|6=0|44=197|60=20240722-13:41:41.000|22=4|48=US3390411052|207=XETR|15=EUR|55=[N/A]|10=216|
2024-07-22 15:41:41.988 [39] [FixSender] (DEBUG) Receiving 8=FIX.4.4|9=61|35=0|34=10|49=DMA_HUB|56=FIXCLIENT1|52=20240722-13:41:41.988|10=244|
2024-07-22 15:41:49.211 [44] [FixSender] (DEBUG) Sending 8=FIX.4.4|9=192|35=D|49=FIXCLIENT1|56=DMA_HUB|34=8|52=20240722-13:41:49|21=1|11=HS_17216557092|38=3764|55=E:07G@XETR|54=2|60=20240722-13:41:49|40=2|59=0|44=197|48=US3390411052|22=4|15=EUR|207=XETR|1=bram_123|10=117|
2024-07-22 15:41:49.213 [39] [FixSender] (DEBUG) Receiving 8=FIX.4.4|9=235|35=8|34=11|49=DMA_HUB|56=FIXCLIENT1|52=20240722-13:41:49.212|11=HS_17216557092|37=FX30YXmnQ|54=2|40=2|59=0|17=202407223|150=A|39=A|38=3764|151=3764|14=0|6=0|44=197|60=20240722-13:41:49.000|22=4|48=US3390411052|207=XETR|15=EUR|55=[N/A]|10=018|
2024-07-22 15:41:58.857 [46] [FixSender] (DEBUG) Sending 8=FIX.4.4|9=192|35=D|49=FIXCLIENT1|56=DMA_HUB|34=9|52=20240722-13:41:58|21=1|11=HS_17216557183|38=2289|55=E:07G@XETR|54=1|60=20240722-13:41:58|40=2|59=0|44=197|48=US3390411052|22=4|15=EUR|207=XETR|1=bram_123|10=119|
2024-07-22 15:41:58.859 [39] [FixSender] (DEBUG) Receiving 8=FIX.4.4|9=235|35=8|34=12|49=DMA_HUB|56=FIXCLIENT1|52=20240722-13:41:58.859|11=HS_17216557183|37=FX40YXmnQ|54=1|40=2|59=0|17=202407224|150=A|39=A|38=2289|151=2289|14=0|6=0|44=197|60=20240722-13:41:58.000|22=4|48=US3390411052|207=XETR|15=EUR|55=[N/A]|10=040|
2024-07-22 15:42:11.941 [39] [FixSender] (DEBUG) Receiving 8=FIX.4.4|9=61|35=0|34=13|49=DMA_HUB|56=FIXCLIENT1|52=20240722-13:42:11.940|10=233|
2024-07-22 15:42:28.858 [40] [FixSender] (DEBUG) Sending 8=FIX.4.4|9=57|35=0|49=FIXCLIENT1|56=DMA_HUB|34=10|52=20240722-13:42:28|10=040|
2024-07-22 15:42:35.491 [47] [FixSender] (DEBUG) Sending 8=FIX.4.4|9=193|35=D|49=FIXCLIENT1|56=DMA_HUB|34=11|52=20240722-13:42:35|21=1|11=HS_17216557554|38=4263|55=E:07G@XETR|54=1|60=20240722-13:42:35|40=2|59=0|44=200|48=US3390411052|22=4|15=EUR|207=XETR|1=bram_123|10=134|
2024-07-22 15:42:35.492 [39] [FixSender] (DEBUG) Receiving 8=FIX.4.4|9=235|35=8|34=14|49=DMA_HUB|56=FIXCLIENT1|52=20240722-13:42:35.492|11=HS_17216557554|37=FX50YXmnQ|54=1|40=2|59=0|17=202407225|150=A|39=A|38=4263|151=4263|14=0|6=0|44=200|60=20240722-13:42:35.000|22=4|48=US3390411052|207=XETR|15=EUR|55=[N/A]|10=004|
2024-07-22 15:42:35.512 [39] [FixSender] (DEBUG) Receiving 8=FIX.4.4|9=250|35=8|34=15|49=DMA_HUB|56=FIXCLIENT1|52=20240722-13:42:35.512|11=HS_17216557554|37=FX50YXmnQ|198=h5Uuf27f20|54=1|40=2|59=0|17=202407226|150=0|39=0|38=4263|151=4263|14=0|6=0|44=200|60=20240722-13:42:35.507|22=4|48=US3390411052|207=XETR|15=EUR|55=[N/A]|10=196|
2024-07-22 15:42:35.519 [39] [FixSender] (DEBUG) Receiving 8=FIX.4.4|9=311|35=8|34=16|49=DMA_HUB|56=FIXCLIENT1|52=20240722-13:42:35.518|11=HS_17216557554|37=FX50YXmnQ|198=h5Uuf27f20|54=1|32=4263|31=126|17=202407227|527=Bi5Uuf1|150=F|39=2|38=4263|151=0|14=4263|6=126|44=200|60=20240722-13:42:35.507|22=4|48=US3390411052|207=XETR|15=EUR|55=[N/A]|453=1|448=strmrepl|447=D|452=17|40=2|59=0|10=217|
2024-07-22 15:42:36.252 [48] [FixSender] (DEBUG) Sending 8=FIX.4.4|9=192|35=D|49=FIXCLIENT1|56=DMA_HUB|34=12|52=20240722-13:42:36|21=1|11=HS_17216557565|38=593|55=E:07G@XETR|54=1|60=20240722-13:42:36|40=2|59=0|44=200|48=US3390411052|22=4|15=EUR|207=XETR|1=bram_123|10=092|
2024-07-22 15:42:36.254 [39] [FixSender] (DEBUG) Receiving 8=FIX.4.4|9=233|35=8|34=17|49=DMA_HUB|56=FIXCLIENT1|52=20240722-13:42:36.253|11=HS_17216557565|37=FX60YXmnQ|54=1|40=2|59=0|17=202407228|150=A|39=A|38=593|151=593|14=0|6=0|44=200|60=20240722-13:42:36.000|22=4|48=US3390411052|207=XETR|15=EUR|55=[N/A]|10=172|
2024-07-22 15:42:36.257 [39] [FixSender] (DEBUG) Receiving 8=FIX.4.4|9=248|35=8|34=18|49=DMA_HUB|56=FIXCLIENT1|52=20240722-13:42:36.256|11=HS_17216557565|37=FX60YXmnQ|198=h5Uuf28069|54=1|40=2|59=0|17=202407229|150=0|39=0|38=593|151=593|14=0|6=0|44=200|60=20240722-13:42:36.255|22=4|48=US3390411052|207=XETR|15=EUR|55=[N/A]|10=087|
2024-07-22 15:42:36.258 [39] [FixSender] (DEBUG) Receiving 8=FIX.4.4|9=309|35=8|34=19|49=DMA_HUB|56=FIXCLIENT1|52=20240722-13:42:36.258|11=HS_17216557565|37=FX60YXmnQ|198=h5Uuf28069|54=1|32=593|31=126|17=2024072210|527=Bi5Uuf2|150=F|39=2|38=593|151=0|14=593|6=126|44=200|60=20240722-13:42:36.255|22=4|48=US3390411052|207=XETR|15=EUR|55=[N/A]|453=1|448=strmrepl|447=D|452=17|40=2|59=0|10=098|
2024-07-22 15:42:38.494 [49] [FixSender] (DEBUG) Sending 8=FIX.4.4|9=192|35=D|49=FIXCLIENT1|56=DMA_HUB|34=13|52=20240722-13:42:38|21=1|11=HS_17216557586|38=936|55=E:07G@XETR|54=1|60=20240722-13:42:38|40=2|59=0|44=200|48=US3390411052|22=4|15=EUR|207=XETR|1=bram_123|10=101|
2024-07-22 15:42:38.496 [39] [FixSender] (DEBUG) Receiving 8=FIX.4.4|9=234|35=8|34=20|49=DMA_HUB|56=FIXCLIENT1|52=20240722-13:42:38.496|11=HS_17216557586|37=FX70YXmnQ|54=1|40=2|59=0|17=2024072211|150=A|39=A|38=936|151=936|14=0|6=0|44=200|60=20240722-13:42:38.000|22=4|48=US3390411052|207=XETR|15=EUR|55=[N/A]|10=228|
2024-07-22 15:42:38.499 [39] [FixSender] (DEBUG) Receiving 8=FIX.4.4|9=249|35=8|34=21|49=DMA_HUB|56=FIXCLIENT1|52=20240722-13:42:38.499|11=HS_17216557586|37=FX70YXmnQ|198=h5Uuf28454|54=1|40=2|59=0|17=2024072212|150=0|39=0|38=936|151=936|14=0|6=0|44=200|60=20240722-13:42:38.497|22=4|48=US3390411052|207=XETR|15=EUR|55=[N/A]|10=149|
2024-07-22 15:42:38.501 [39] [FixSender] (DEBUG) Receiving 8=FIX.4.4|9=309|35=8|34=22|49=DMA_HUB|56=FIXCLIENT1|52=20240722-13:42:38.500|11=HS_17216557586|37=FX70YXmnQ|198=h5Uuf28454|54=1|32=936|31=126|17=2024072213|527=Bi5Uuf3|150=F|39=2|38=936|151=0|14=936|6=126|44=200|60=20240722-13:42:38.497|22=4|48=US3390411052|207=XETR|15=EUR|55=[N/A]|453=1|448=strmrepl|447=D|452=17|40=2|59=0|10=103|
2024-07-22 15:42:41.893 [39] [FixSender] (DEBUG) Receiving 8=FIX.4.4|9=61|35=0|34=23|49=DMA_HUB|56=FIXCLIENT1|52=20240722-13:42:41.893|10=244|
2024-07-22 15:43:08.494 [40] [FixSender] (DEBUG) Sending 8=FIX.4.4|9=57|35=0|49=FIXCLIENT1|56=DMA_HUB|34=14|52=20240722-13:43:08|10=043|
2024-07-22 15:43:11.845 [39] [FixSender] (DEBUG) Receiving 8=FIX.4.4|9=61|35=0|34=24|49=DMA_HUB|56=FIXCLIENT1|52=20240722-13:43:11.844|10=239|
2024-07-22 15:43:38.495 [40] [FixSender] (DEBUG) Sending 8=FIX.4.4|9=57|35=0|49=FIXCLIENT1|56=DMA_HUB|34=15|52=20240722-13:43:38|10=047|
2024-07-22 15:43:41.797 [39] [FixSender] (DEBUG) Receiving 8=FIX.4.4|9=61|35=0|34=25|49=DMA_HUB|56=FIXCLIENT1|52=20240722-13:43:41.797|10=250|
2024-07-22 15:44:08.496 [40] [FixSender] (DEBUG) Sending 8=FIX.4.4|9=57|35=0|49=FIXCLIENT1|56=DMA_HUB|34=16|52=20240722-13:44:08|10=046|
2024-07-22 15:44:11.748 [39] [FixSender] (DEBUG) Receiving 8=FIX.4.4|9=61|35=0|34=26|49=DMA_HUB|56=FIXCLIENT1|52=20240722-13:44:11.748|10=245|
2024-07-22 15:44:38.497 [40] [FixSender] (DEBUG) Sending 8=FIX.4.4|9=57|35=0|49=FIXCLIENT1|56=DMA_HUB|34=17|52=20240722-13:44:38|10=050|
2024-07-22 15:44:41.701 [39] [FixSender] (DEBUG) Receiving 8=FIX.4.4|9=61|35=0|34=27|49=DMA_HUB|56=FIXCLIENT1|52=20240722-13:44:41.700|10=237|
2024-07-22 15:45:08.497 [40] [FixSender] (DEBUG) Sending 8=FIX.4.4|9=57|35=0|49=FIXCLIENT1|56=DMA_HUB|34=18|52=20240722-13:45:08|10=049|
2024-07-22 15:45:11.652 [39] [FixSender] (DEBUG) Receiving 8=FIX.4.4|9=61|35=0|34=28|49=DMA_HUB|56=FIXCLIENT1|52=20240722-13:45:11.652|10=242|
2024-07-22 15:45:38.498 [40] [FixSender] (DEBUG) Sending 8=FIX.4.4|9=57|35=0|49=FIXCLIENT1|56=DMA_HUB|34=19|52=20240722-13:45:38|10=053|
2024-07-22 15:45:41.605 [39] [FixSender] (DEBUG) Receiving 8=FIX.4.4|9=61|35=0|34=29|49=DMA_HUB|56=FIXCLIENT1|52=20240722-13:45:41.604|10=243|
2024-07-22 15:46:08.498 [40] [FixSender] (DEBUG) Sending 8=FIX.4.4|9=57|35=0|49=FIXCLIENT1|56=DMA_HUB|34=20|52=20240722-13:46:08|10=043|
2024-07-22 15:46:11.556 [39] [FixSender] (DEBUG) Receiving 8=FIX.4.4|9=61|35=0|34=30|49=DMA_HUB|56=FIXCLIENT1|52=20240722-13:46:11.556|10=239|
2024-07-22 15:46:38.499 [40] [FixSender] (DEBUG) Sending 8=FIX.4.4|9=57|35=0|49=FIXCLIENT1|56=DMA_HUB|34=21|52=20240722-13:46:38|10=047|
2024-07-22 15:46:41.509 [39] [FixSender] (DEBUG) Receiving 8=FIX.4.4|9=61|35=0|34=31|49=DMA_HUB|56=FIXCLIENT1|52=20240722-13:46:41.508|10=240|
2024-07-22 15:47:08.500 [40] [FixSender] (DEBUG) Sending 8=FIX.4.4|9=57|35=0|49=FIXCLIENT1|56=DMA_HUB|34=22|52=20240722-13:47:08|10=046|
2024-07-22 15:47:11.460 [39] [FixSender] (DEBUG) Receiving 8=FIX.4.4|9=61|35=0|34=32|49=DMA_HUB|56=FIXCLIENT1|52=20240722-13:47:11.460|10=236|
2024-07-22 15:47:38.501 [40] [FixSender] (DEBUG) Sending 8=FIX.4.4|9=57|35=0|49=FIXCLIENT1|56=DMA_HUB|34=23|52=20240722-13:47:38|10=050|
2024-07-22 15:47:41.413 [39] [FixSender] (DEBUG) Receiving 8=FIX.4.4|9=61|35=0|34=33|49=DMA_HUB|56=FIXCLIENT1|52=20240722-13:47:41.412|10=237|
2024-07-22 15:48:08.501 [40] [FixSender] (DEBUG) Sending 8=FIX.4.4|9=57|35=0|49=FIXCLIENT1|56=DMA_HUB|34=24|52=20240722-13:48:08|10=049|
2024-07-22 15:48:11.365 [39] [FixSender] (DEBUG) Receiving 8=FIX.4.4|9=61|35=0|34=34|49=DMA_HUB|56=FIXCLIENT1|52=20240722-13:48:11.365|10=243|
2024-07-22 15:48:38.502 [40] [FixSender] (DEBUG) Sending 8=FIX.4.4|9=57|35=0|49=FIXCLIENT1|56=DMA_HUB|34=25|52=20240722-13:48:38|10=053|
2024-07-22 15:48:41.316 [39] [FixSender] (DEBUG) Receiving 8=FIX.4.4|9=61|35=0|34=35|49=DMA_HUB|56=FIXCLIENT1|52=20240722-13:48:41.316|10=243|
2024-07-22 15:49:08.502 [40] [FixSender] (DEBUG) Sending 8=FIX.4.4|9=57|35=0|49=FIXCLIENT1|56=DMA_HUB|34=26|52=20240722-13:49:08|10=052|
2024-07-22 15:49:11.269 [39] [FixSender] (DEBUG) Receiving 8=FIX.4.4|9=61|35=0|34=36|49=DMA_HUB|56=FIXCLIENT1|52=20240722-13:49:11.268|10=248|
2024-07-22 15:49:38.503 [40] [FixSender] (DEBUG) Sending 8=FIX.4.4|9=57|35=0|49=FIXCLIENT1|56=DMA_HUB|34=27|52=20240722-13:49:38|10=056|
2024-07-22 15:49:41.221 [39] [FixSender] (DEBUG) Receiving 8=FIX.4.4|9=61|35=0|34=37|49=DMA_HUB|56=FIXCLIENT1|52=20240722-13:49:41.220|10=240|
2024-07-22 15:50:08.503 [40] [FixSender] (DEBUG) Sending 8=FIX.4.4|9=57|35=0|49=FIXCLIENT1|56=DMA_HUB|34=28|52=20240722-13:50:08|10=046|
2024-07-22 15:50:11.173 [39] [FixSender] (DEBUG) Receiving 8=FIX.4.4|9=61|35=0|34=38|49=DMA_HUB|56=FIXCLIENT1|52=20240722-13:50:11.172|10=236|
2024-07-22 15:50:38.504 [40] [FixSender] (DEBUG) Sending 8=FIX.4.4|9=57|35=0|49=FIXCLIENT1|56=DMA_HUB|34=29|52=20240722-13:50:38|10=050|
2024-07-22 15:50:41.124 [39] [FixSender] (DEBUG) Receiving 8=FIX.4.4|9=61|35=0|34=39|49=DMA_HUB|56=FIXCLIENT1|52=20240722-13:50:41.124|10=237|
2024-07-22 15:51:08.505 [40] [FixSender] (DEBUG) Sending 8=FIX.4.4|9=57|35=0|49=FIXCLIENT1|56=DMA_HUB|34=30|52=20240722-13:51:08|10=040|
2024-07-22 15:51:11.077 [39] [FixSender] (DEBUG) Receiving 8=FIX.4.4|9=61|35=0|34=40|49=DMA_HUB|56=FIXCLIENT1|52=20240722-13:51:11.076|10=233|
2024-07-22 15:51:38.506 [40] [FixSender] (DEBUG) Sending 8=FIX.4.4|9=57|35=0|49=FIXCLIENT1|56=DMA_HUB|34=31|52=20240722-13:51:38|10=044|
2024-07-22 15:51:41.029 [39] [FixSender] (DEBUG) Receiving 8=FIX.4.4|9=61|35=0|34=41|49=DMA_HUB|56=FIXCLIENT1|52=20240722-13:51:41.029|10=235|
2024-07-22 15:52:08.506 [40] [FixSender] (DEBUG) Sending 8=FIX.4.4|9=57|35=0|49=FIXCLIENT1|56=DMA_HUB|34=32|52=20240722-13:52:08|10=043|
2024-07-22 15:52:10.980 [39] [FixSender] (DEBUG) Receiving 8=FIX.4.4|9=61|35=0|34=42|49=DMA_HUB|56=FIXCLIENT1|52=20240722-13:52:10.980|10=239|
2024-07-22 15:52:38.506 [40] [FixSender] (DEBUG) Sending 8=FIX.4.4|9=57|35=0|49=FIXCLIENT1|56=DMA_HUB|34=33|52=20240722-13:52:38|10=047|
2024-07-22 15:52:40.933 [39] [FixSender] (DEBUG) Receiving 8=FIX.4.4|9=61|35=0|34=43|49=DMA_HUB|56=FIXCLIENT1|52=20240722-13:52:40.932|10=240|
2024-07-22 15:53:08.507 [40] [FixSender] (DEBUG) Sending 8=FIX.4.4|9=57|35=0|49=FIXCLIENT1|56=DMA_HUB|34=34|52=20240722-13:53:08|10=046|
2024-07-22 15:53:10.884 [39] [FixSender] (DEBUG) Receiving 8=FIX.4.4|9=61|35=0|34=44|49=DMA_HUB|56=FIXCLIENT1|52=20240722-13:53:10.884|10=245|
2024-07-22 15:53:38.508 [40] [FixSender] (DEBUG) Sending 8=FIX.4.4|9=57|35=0|49=FIXCLIENT1|56=DMA_HUB|34=35|52=20240722-13:53:38|10=050|
2024-07-22 15:53:40.837 [39] [FixSender] (DEBUG) Receiving 8=FIX.4.4|9=61|35=0|34=45|49=DMA_HUB|56=FIXCLIENT1|52=20240722-13:53:40.836|10=246|
2024-07-22 15:54:08.508 [40] [FixSender] (DEBUG) Sending 8=FIX.4.4|9=57|35=0|49=FIXCLIENT1|56=DMA_HUB|34=36|52=20240722-13:54:08|10=049|
2024-07-22 15:54:10.789 [39] [FixSender] (DEBUG) Receiving 8=FIX.4.4|9=61|35=0|34=46|49=DMA_HUB|56=FIXCLIENT1|52=20240722-13:54:10.789|10=252|
2024-07-22 15:54:38.509 [40] [FixSender] (DEBUG) Sending 8=FIX.4.4|9=57|35=0|49=FIXCLIENT1|56=DMA_HUB|34=37|52=20240722-13:54:38|10=053|
2024-07-22 15:54:40.740 [39] [FixSender] (DEBUG) Receiving 8=FIX.4.4|9=61|35=0|34=47|49=DMA_HUB|56=FIXCLIENT1|52=20240722-13:54:40.740|10=243|
2024-07-22 15:55:08.510 [40] [FixSender] (DEBUG) Sending 8=FIX.4.4|9=57|35=0|49=FIXCLIENT1|56=DMA_HUB|34=38|52=20240722-13:55:08|10=052|
2024-07-22 15:55:10.693 [39] [FixSender] (DEBUG) Receiving 8=FIX.4.4|9=61|35=0|34=48|49=DMA_HUB|56=FIXCLIENT1|52=20240722-13:55:10.692|10=248|
2024-07-22 15:55:38.510 [40] [FixSender] (DEBUG) Sending 8=FIX.4.4|9=57|35=0|49=FIXCLIENT1|56=DMA_HUB|34=39|52=20240722-13:55:38|10=056|
2024-07-22 15:55:40.644 [39] [FixSender] (DEBUG) Receiving 8=FIX.4.4|9=61|35=0|34=49|49=DMA_HUB|56=FIXCLIENT1|52=20240722-13:55:40.644|10=249|
2024-07-22 15:56:08.511 [40] [FixSender] (DEBUG) Sending 8=FIX.4.4|9=57|35=0|49=FIXCLIENT1|56=DMA_HUB|34=40|52=20240722-13:56:08|10=046|
2024-07-22 15:56:10.597 [39] [FixSender] (DEBUG) Receiving 8=FIX.4.4|9=61|35=0|34=50|49=DMA_HUB|56=FIXCLIENT1|52=20240722-13:56:10.596|10=245|
2024-07-22 15:56:38.512 [40] [FixSender] (DEBUG) Sending 8=FIX.4.4|9=57|35=0|49=FIXCLIENT1|56=DMA_HUB|34=41|52=20240722-13:56:38|10=050|
2024-07-22 15:56:40.548 [39] [FixSender] (DEBUG) Receiving 8=FIX.4.4|9=61|35=0|34=51|49=DMA_HUB|56=FIXCLIENT1|52=20240722-13:56:40.548|10=246|
2024-07-22 15:57:08.512 [40] [FixSender] (DEBUG) Sending 8=FIX.4.4|9=57|35=0|49=FIXCLIENT1|56=DMA_HUB|34=42|52=20240722-13:57:08|10=049|
2024-07-22 15:57:10.501 [39] [FixSender] (DEBUG) Receiving 8=FIX.4.4|9=61|35=0|34=52|49=DMA_HUB|56=FIXCLIENT1|52=20240722-13:57:10.500|10=233|
2024-07-22 15:57:38.513 [40] [FixSender] (DEBUG) Sending 8=FIX.4.4|9=57|35=0|49=FIXCLIENT1|56=DMA_HUB|34=43|52=20240722-13:57:38|10=053|
2024-07-22 15:57:40.453 [39] [FixSender] (DEBUG) Receiving 8=FIX.4.4|9=61|35=0|34=53|49=DMA_HUB|56=FIXCLIENT1|52=20240722-13:57:40.453|10=244|
2024-07-22 15:58:08.514 [40] [FixSender] (DEBUG) Sending 8=FIX.4.4|9=57|35=0|49=FIXCLIENT1|56=DMA_HUB|34=44|52=20240722-13:58:08|10=052|
2024-07-22 15:58:10.405 [39] [FixSender] (DEBUG) Receiving 8=FIX.4.4|9=61|35=0|34=54|49=DMA_HUB|56=FIXCLIENT1|52=20240722-13:58:10.404|10=239|
2024-07-22 15:58:38.514 [40] [FixSender] (DEBUG) Sending 8=FIX.4.4|9=57|35=0|49=FIXCLIENT1|56=DMA_HUB|34=45|52=20240722-13:58:38|10=056|
2024-07-22 15:58:40.357 [39] [FixSender] (DEBUG) Receiving 8=FIX.4.4|9=61|35=0|34=55|49=DMA_HUB|56=FIXCLIENT1|52=20240722-13:58:40.356|10=249|
2024-07-22 15:59:08.515 [40] [FixSender] (DEBUG) Sending 8=FIX.4.4|9=57|35=0|49=FIXCLIENT1|56=DMA_HUB|34=46|52=20240722-13:59:08|10=055|
2024-07-22 15:59:10.308 [39] [FixSender] (DEBUG) Receiving 8=FIX.4.4|9=61|35=0|34=56|49=DMA_HUB|56=FIXCLIENT1|52=20240722-13:59:10.308|10=245|
2024-07-22 15:59:38.516 [40] [FixSender] (DEBUG) Sending 8=FIX.4.4|9=57|35=0|49=FIXCLIENT1|56=DMA_HUB|34=47|52=20240722-13:59:38|10=059|
2024-07-22 15:59:40.261 [39] [FixSender] (DEBUG) Receiving 8=FIX.4.4|9=61|35=0|34=57|49=DMA_HUB|56=FIXCLIENT1|52=20240722-13:59:40.260|10=246|
2024-07-22 16:00:08.516 [40] [FixSender] (DEBUG) Sending 8=FIX.4.4|9=57|35=0|49=FIXCLIENT1|56=DMA_HUB|34=48|52=20240722-14:00:08|10=044|
2024-07-22 16:00:10.212 [39] [FixSender] (DEBUG) Receiving 8=FIX.4.4|9=61|35=0|34=58|49=DMA_HUB|56=FIXCLIENT1|52=20240722-14:00:10.212|10=228|
2024-07-22 16:00:38.517 [40] [FixSender] (DEBUG) Sending 8=FIX.4.4|9=57|35=0|49=FIXCLIENT1|56=DMA_HUB|34=49|52=20240722-14:00:38|10=048|
2024-07-22 16:00:40.165 [39] [FixSender] (DEBUG) Receiving 8=FIX.4.4|9=61|35=0|34=59|49=DMA_HUB|56=FIXCLIENT1|52=20240722-14:00:40.164|10=238|
2024-07-22 16:01:08.517 [40] [FixSender] (DEBUG) Sending 8=FIX.4.4|9=57|35=0|49=FIXCLIENT1|56=DMA_HUB|34=50|52=20240722-14:01:08|10=038|
2024-07-22 16:01:10.117 [39] [FixSender] (DEBUG) Receiving 8=FIX.4.4|9=61|35=0|34=60|49=DMA_HUB|56=FIXCLIENT1|52=20240722-14:01:10.117|10=226|
2024-07-22 16:01:38.518 [40] [FixSender] (DEBUG) Sending 8=FIX.4.4|9=57|35=0|49=FIXCLIENT1|56=DMA_HUB|34=51|52=20240722-14:01:38|10=042|
2024-07-22 16:01:40.069 [39] [FixSender] (DEBUG) Receiving 8=FIX.4.4|9=61|35=0|34=61|49=DMA_HUB|56=FIXCLIENT1|52=20240722-14:01:40.068|10=235|
2024-07-22 16:02:08.519 [40] [FixSender] (DEBUG) Sending 8=FIX.4.4|9=57|35=0|49=FIXCLIENT1|56=DMA_HUB|34=52|52=20240722-14:02:08|10=041|
2024-07-22 16:02:10.021 [39] [FixSender] (DEBUG) Receiving 8=FIX.4.4|9=61|35=0|34=62|49=DMA_HUB|56=FIXCLIENT1|52=20240722-14:02:10.021|10=223|
2024-07-22 16:02:38.519 [40] [FixSender] (DEBUG) Sending 8=FIX.4.4|9=57|35=0|49=FIXCLIENT1|56=DMA_HUB|34=53|52=20240722-14:02:38|10=045|
2024-07-22 16:02:39.973 [39] [FixSender] (DEBUG) Receiving 8=FIX.4.4|9=61|35=0|34=63|49=DMA_HUB|56=FIXCLIENT1|52=20240722-14:02:39.972|10=250|
2024-07-22 16:03:08.519 [40] [FixSender] (DEBUG) Sending 8=FIX.4.4|9=57|35=0|49=FIXCLIENT1|56=DMA_HUB|34=54|52=20240722-14:03:08|10=044|
2024-07-22 16:03:09.925 [39] [FixSender] (DEBUG) Receiving 8=FIX.4.4|9=61|35=0|34=64|49=DMA_HUB|56=FIXCLIENT1|52=20240722-14:03:09.925|10=247|
2024-07-22 16:03:38.520 [40] [FixSender] (DEBUG) Sending 8=FIX.4.4|9=57|35=0|49=FIXCLIENT1|56=DMA_HUB|34=55|52=20240722-14:03:38|10=048|
2024-07-22 16:03:39.876 [39] [FixSender] (DEBUG) Receiving 8=FIX.4.4|9=61|35=0|34=65|49=DMA_HUB|56=FIXCLIENT1|52=20240722-14:03:39.876|10=000|
2024-07-22 16:04:08.521 [40] [FixSender] (DEBUG) Sending 8=FIX.4.4|9=57|35=0|49=FIXCLIENT1|56=DMA_HUB|34=56|52=20240722-14:04:08|10=047|
2024-07-22 16:04:09.829 [39] [FixSender] (DEBUG) Receiving 8=FIX.4.4|9=61|35=0|34=66|49=DMA_HUB|56=FIXCLIENT1|52=20240722-14:04:09.828|10=252|
2024-07-22 16:04:38.521 [40] [FixSender] (DEBUG) Sending 8=FIX.4.4|9=57|35=0|49=FIXCLIENT1|56=DMA_HUB|34=57|52=20240722-14:04:38|10=051|
2024-07-22 16:04:39.780 [39] [FixSender] (DEBUG) Receiving 8=FIX.4.4|9=61|35=0|34=67|49=DMA_HUB|56=FIXCLIENT1|52=20240722-14:04:39.780|10=253|
2024-07-22 16:05:08.522 [40] [FixSender] (DEBUG) Sending 8=FIX.4.4|9=57|35=0|49=FIXCLIENT1|56=DMA_HUB|34=58|52=20240722-14:05:08|10=050|
2024-07-22 16:05:09.733 [39] [FixSender] (DEBUG) Receiving 8=FIX.4.4|9=61|35=0|34=68|49=DMA_HUB|56=FIXCLIENT1|52=20240722-14:05:09.732|10=249|
2024-07-22 16:05:38.522 [40] [FixSender] (DEBUG) Sending 8=FIX.4.4|9=57|35=0|49=FIXCLIENT1|56=DMA_HUB|34=59|52=20240722-14:05:38|10=054|
2024-07-22 16:05:39.684 [39] [FixSender] (DEBUG) Receiving 8=FIX.4.4|9=61|35=0|34=69|49=DMA_HUB|56=FIXCLIENT1|52=20240722-14:05:39.684|10=003|
2024-07-22 16:06:08.523 [40] [FixSender] (DEBUG) Sending 8=FIX.4.4|9=57|35=0|49=FIXCLIENT1|56=DMA_HUB|34=60|52=20240722-14:06:08|10=044|
2024-07-22 16:06:09.637 [39] [FixSender] (DEBUG) Receiving 8=FIX.4.4|9=61|35=0|34=70|49=DMA_HUB|56=FIXCLIENT1|52=20240722-14:06:09.636|10=246|
2024-07-22 16:06:38.524 [40] [FixSender] (DEBUG) Sending 8=FIX.4.4|9=57|35=0|49=FIXCLIENT1|56=DMA_HUB|34=61|52=20240722-14:06:38|10=048|
2024-07-22 16:06:39.589 [39] [FixSender] (DEBUG) Receiving 8=FIX.4.4|9=61|35=0|34=71|49=DMA_HUB|56=FIXCLIENT1|52=20240722-14:06:39.588|10=000|
2024-07-22 16:07:08.525 [40] [FixSender] (DEBUG) Sending 8=FIX.4.4|9=57|35=0|49=FIXCLIENT1|56=DMA_HUB|34=62|52=20240722-14:07:08|10=047|
2024-07-22 16:07:09.540 [39] [FixSender] (DEBUG) Receiving 8=FIX.4.4|9=61|35=0|34=72|49=DMA_HUB|56=FIXCLIENT1|52=20240722-14:07:09.540|10=243|
2024-07-22 16:07:38.525 [40] [FixSender] (DEBUG) Sending 8=FIX.4.4|9=57|35=0|49=FIXCLIENT1|56=DMA_HUB|34=63|52=20240722-14:07:38|10=051|
2024-07-22 16:07:39.493 [39] [FixSender] (DEBUG) Receiving 8=FIX.4.4|9=61|35=0|34=73|49=DMA_HUB|56=FIXCLIENT1|52=20240722-14:07:39.492|10=253|
2024-07-22 16:08:08.525 [40] [FixSender] (DEBUG) Sending 8=FIX.4.4|9=57|35=0|49=FIXCLIENT1|56=DMA_HUB|34=64|52=20240722-14:08:08|10=050|
2024-07-22 16:08:09.445 [39] [FixSender] (DEBUG) Receiving 8=FIX.4.4|9=61|35=0|34=74|49=DMA_HUB|56=FIXCLIENT1|52=20240722-14:08:09.445|10=250|
2024-07-22 16:08:38.526 [40] [FixSender] (DEBUG) Sending 8=FIX.4.4|9=57|35=0|49=FIXCLIENT1|56=DMA_HUB|34=65|52=20240722-14:08:38|10=054|
2024-07-22 16:08:39.397 [39] [FixSender] (DEBUG) Receiving 8=FIX.4.4|9=61|35=0|34=75|49=DMA_HUB|56=FIXCLIENT1|52=20240722-14:08:39.396|10=003|
2024-07-22 16:09:08.526 [40] [FixSender] (DEBUG) Sending 8=FIX.4.4|9=57|35=0|49=FIXCLIENT1|56=DMA_HUB|34=66|52=20240722-14:09:08|10=053|
2024-07-22 16:09:09.348 [39] [FixSender] (DEBUG) Receiving 8=FIX.4.4|9=61|35=0|34=76|49=DMA_HUB|56=FIXCLIENT1|52=20240722-14:09:09.348|10=255|
2024-07-22 16:09:38.527 [40] [FixSender] (DEBUG) Sending 8=FIX.4.4|9=57|35=0|49=FIXCLIENT1|56=DMA_HUB|34=67|52=20240722-14:09:38|10=057|
2024-07-22 16:09:39.301 [39] [FixSender] (DEBUG) Receiving 8=FIX.4.4|9=61|35=0|34=77|49=DMA_HUB|56=FIXCLIENT1|52=20240722-14:09:39.300|10=247|
2024-07-22 16:10:08.528 [40] [FixSender] (DEBUG) Sending 8=FIX.4.4|9=57|35=0|49=FIXCLIENT1|56=DMA_HUB|34=68|52=20240722-14:10:08|10=047|
2024-07-22 16:10:09.253 [39] [FixSender] (DEBUG) Receiving 8=FIX.4.4|9=61|35=0|34=78|49=DMA_HUB|56=FIXCLIENT1|52=20240722-14:10:09.253|10=244|
2024-07-22 16:10:38.528 [40] [FixSender] (DEBUG) Sending 8=FIX.4.4|9=57|35=0|49=FIXCLIENT1|56=DMA_HUB|34=69|52=20240722-14:10:38|10=051|
2024-07-22 16:10:39.204 [39] [FixSender] (DEBUG) Receiving 8=FIX.4.4|9=61|35=0|34=79|49=DMA_HUB|56=FIXCLIENT1|52=20240722-14:10:39.204|10=244|
2024-07-22 16:11:08.529 [40] [FixSender] (DEBUG) Sending 8=FIX.4.4|9=57|35=0|49=FIXCLIENT1|56=DMA_HUB|34=70|52=20240722-14:11:08|10=041|
2024-07-22 16:11:09.157 [39] [FixSender] (DEBUG) Receiving 8=FIX.4.4|9=61|35=0|34=80|49=DMA_HUB|56=FIXCLIENT1|52=20240722-14:11:09.156|10=240|
2024-07-22 16:11:38.530 [40] [FixSender] (DEBUG) Sending 8=FIX.4.4|9=57|35=0|49=FIXCLIENT1|56=DMA_HUB|34=71|52=20240722-14:11:38|10=045|
2024-07-22 16:11:39.108 [39] [FixSender] (DEBUG) Receiving 8=FIX.4.4|9=61|35=0|34=81|49=DMA_HUB|56=FIXCLIENT1|52=20240722-14:11:39.108|10=241|
2024-07-22 16:12:08.531 [40] [FixSender] (DEBUG) Sending 8=FIX.4.4|9=57|35=0|49=FIXCLIENT1|56=DMA_HUB|34=72|52=20240722-14:12:08|10=044|
2024-07-22 16:12:09.061 [39] [FixSender] (DEBUG) Receiving 8=FIX.4.4|9=61|35=0|34=82|49=DMA_HUB|56=FIXCLIENT1|52=20240722-14:12:09.061|10=238|
2024-07-22 16:12:38.532 [40] [FixSender] (DEBUG) Sending 8=FIX.4.4|9=57|35=0|49=FIXCLIENT1|56=DMA_HUB|34=73|52=20240722-14:12:38|10=048|
2024-07-22 16:12:39.012 [39] [FixSender] (DEBUG) Receiving 8=FIX.4.4|9=61|35=0|34=83|49=DMA_HUB|56=FIXCLIENT1|52=20240722-14:12:39.012|10=238|
2024-07-22 16:13:08.533 [40] [FixSender] (DEBUG) Sending 8=FIX.4.4|9=57|35=0|49=FIXCLIENT1|56=DMA_HUB|34=74|52=20240722-14:13:08|10=047|
2024-07-22 16:13:08.965 [39] [FixSender] (DEBUG) Receiving 8=FIX.4.4|9=61|35=0|34=84|49=DMA_HUB|56=FIXCLIENT1|52=20240722-14:13:08.965|10=253|
2024-07-22 16:13:38.534 [40] [FixSender] (DEBUG) Sending 8=FIX.4.4|9=57|35=0|49=FIXCLIENT1|56=DMA_HUB|34=75|52=20240722-14:13:38|10=051|
2024-07-22 16:13:38.916 [39] [FixSender] (DEBUG) Receiving 8=FIX.4.4|9=61|35=0|34=85|49=DMA_HUB|56=FIXCLIENT1|52=20240722-14:13:38.916|10=253|
2024-07-22 16:14:08.534 [40] [FixSender] (DEBUG) Sending 8=FIX.4.4|9=57|35=0|49=FIXCLIENT1|56=DMA_HUB|34=76|52=20240722-14:14:08|10=050|
2024-07-22 16:14:08.869 [39] [FixSender] (DEBUG) Receiving 8=FIX.4.4|9=61|35=0|34=86|49=DMA_HUB|56=FIXCLIENT1|52=20240722-14:14:08.868|10=002|
2024-07-22 16:14:38.535 [40] [FixSender] (DEBUG) Sending 8=FIX.4.4|9=57|35=0|49=FIXCLIENT1|56=DMA_HUB|34=77|52=20240722-14:14:38|10=054|
2024-07-22 16:14:38.821 [39] [FixSender] (DEBUG) Receiving 8=FIX.4.4|9=61|35=0|34=87|49=DMA_HUB|56=FIXCLIENT1|52=20240722-14:14:38.820|10=250|
2024-07-22 16:15:08.536 [40] [FixSender] (DEBUG) Sending 8=FIX.4.4|9=57|35=0|49=FIXCLIENT1|56=DMA_HUB|34=78|52=20240722-14:15:08|10=053|
2024-07-22 16:15:08.773 [39] [FixSender] (DEBUG) Receiving 8=FIX.4.4|9=61|35=0|34=88|49=DMA_HUB|56=FIXCLIENT1|52=20240722-14:15:08.772|10=255|
2024-07-22 16:15:38.537 [40] [FixSender] (DEBUG) Sending 8=FIX.4.4|9=57|35=0|49=FIXCLIENT1|56=DMA_HUB|34=79|52=20240722-14:15:38|10=057|
2024-07-22 16:15:38.725 [39] [FixSender] (DEBUG) Receiving 8=FIX.4.4|9=61|35=0|34=89|49=DMA_HUB|56=FIXCLIENT1|52=20240722-14:15:38.725|10=001|
2024-07-22 16:16:08.537 [40] [FixSender] (DEBUG) Sending 8=FIX.4.4|9=57|35=0|49=FIXCLIENT1|56=DMA_HUB|34=80|52=20240722-14:16:08|10=047|
2024-07-22 16:16:08.677 [39] [FixSender] (DEBUG) Receiving 8=FIX.4.4|9=61|35=0|34=90|49=DMA_HUB|56=FIXCLIENT1|52=20240722-14:16:08.676|10=252|
2024-07-22 16:16:38.538 [40] [FixSender] (DEBUG) Sending 8=FIX.4.4|9=57|35=0|49=FIXCLIENT1|56=DMA_HUB|34=81|52=20240722-14:16:38|10=051|
2024-07-22 16:16:38.629 [39] [FixSender] (DEBUG) Receiving 8=FIX.4.4|9=61|35=0|34=91|49=DMA_HUB|56=FIXCLIENT1|52=20240722-14:16:38.629|10=254|
2024-07-22 16:17:08.539 [40] [FixSender] (DEBUG) Sending 8=FIX.4.4|9=57|35=0|49=FIXCLIENT1|56=DMA_HUB|34=82|52=20240722-14:17:08|10=050|
2024-07-22 16:17:08.583 [39] [FixSender] (DEBUG) Receiving 8=FIX.4.4|9=61|35=0|34=92|49=DMA_HUB|56=FIXCLIENT1|52=20240722-14:17:08.580|10=249|
2024-07-22 16:17:38.533 [39] [FixSender] (DEBUG) Receiving 8=FIX.4.4|9=61|35=0|34=93|49=DMA_HUB|56=FIXCLIENT1|52=20240722-14:17:38.532|10=250|
2024-07-22 16:17:38.540 [40] [FixSender] (DEBUG) Sending 8=FIX.4.4|9=57|35=0|49=FIXCLIENT1|56=DMA_HUB|34=83|52=20240722-14:17:38|10=054|
2024-07-22 16:18:08.484 [39] [FixSender] (DEBUG) Receiving 8=FIX.4.4|9=61|35=0|34=94|49=DMA_HUB|56=FIXCLIENT1|52=20240722-14:18:08.484|10=255|
2024-07-22 16:18:08.540 [40] [FixSender] (DEBUG) Sending 8=FIX.4.4|9=57|35=0|49=FIXCLIENT1|56=DMA_HUB|34=84|52=20240722-14:18:08|10=053|
2024-07-22 16:18:38.437 [39] [FixSender] (DEBUG) Receiving 8=FIX.4.4|9=61|35=0|34=95|49=DMA_HUB|56=FIXCLIENT1|52=20240722-14:18:38.436|10=000|
2024-07-22 16:18:38.541 [40] [FixSender] (DEBUG) Sending 8=FIX.4.4|9=57|35=0|49=FIXCLIENT1|56=DMA_HUB|34=85|52=20240722-14:18:38|10=057|
2024-07-22 16:19:08.388 [39] [FixSender] (DEBUG) Receiving 8=FIX.4.4|9=61|35=0|34=96|49=DMA_HUB|56=FIXCLIENT1|52=20240722-14:19:08.388|10=005|
2024-07-22 16:19:08.541 [40] [FixSender] (DEBUG) Sending 8=FIX.4.4|9=57|35=0|49=FIXCLIENT1|56=DMA_HUB|34=86|52=20240722-14:19:08|10=056|
2024-07-22 16:19:38.341 [39] [FixSender] (DEBUG) Receiving 8=FIX.4.4|9=61|35=0|34=97|49=DMA_HUB|56=FIXCLIENT1|52=20240722-14:19:38.340|10=253|
2024-07-22 16:19:38.541 [40] [FixSender] (DEBUG) Sending 8=FIX.4.4|9=57|35=0|49=FIXCLIENT1|56=DMA_HUB|34=87|52=20240722-14:19:38|10=060|
2024-07-22 16:20:08.293 [39] [FixSender] (DEBUG) Receiving 8=FIX.4.4|9=61|35=0|34=98|49=DMA_HUB|56=FIXCLIENT1|52=20240722-14:20:08.293|10=250|
2024-07-22 16:20:08.542 [40] [FixSender] (DEBUG) Sending 8=FIX.4.4|9=57|35=0|49=FIXCLIENT1|56=DMA_HUB|34=88|52=20240722-14:20:08|10=050|
2024-07-22 16:20:38.245 [39] [FixSender] (DEBUG) Receiving 8=FIX.4.4|9=61|35=0|34=99|49=DMA_HUB|56=FIXCLIENT1|52=20240722-14:20:38.244|10=250|
2024-07-22 16:20:38.542 [40] [FixSender] (DEBUG) Sending 8=FIX.4.4|9=57|35=0|49=FIXCLIENT1|56=DMA_HUB|34=89|52=20240722-14:20:38|10=054|
2024-07-22 16:21:08.197 [39] [FixSender] (DEBUG) Receiving 8=FIX.4.4|9=62|35=0|34=100|49=DMA_HUB|56=FIXCLIENT1|52=20240722-14:21:08.197|10=031|
2024-07-22 16:21:08.543 [40] [FixSender] (DEBUG) Sending 8=FIX.4.4|9=57|35=0|49=FIXCLIENT1|56=DMA_HUB|34=90|52=20240722-14:21:08|10=044|
2024-07-22 16:21:38.149 [39] [FixSender] (DEBUG) Receiving 8=FIX.4.4|9=62|35=0|34=101|49=DMA_HUB|56=FIXCLIENT1|52=20240722-14:21:38.148|10=031|
2024-07-22 16:21:38.544 [40] [FixSender] (DEBUG) Sending 8=FIX.4.4|9=57|35=0|49=FIXCLIENT1|56=DMA_HUB|34=91|52=20240722-14:21:38|10=048|
2024-07-22 16:22:08.101 [39] [FixSender] (DEBUG) Receiving 8=FIX.4.4|9=62|35=0|34=102|49=DMA_HUB|56=FIXCLIENT1|52=20240722-14:22:08.101|10=019|
2024-07-22 16:22:08.544 [40] [FixSender] (DEBUG) Sending 8=FIX.4.4|9=57|35=0|49=FIXCLIENT1|56=DMA_HUB|34=92|52=20240722-14:22:08|10=047|
2024-07-22 16:22:38.052 [39] [FixSender] (DEBUG) Receiving 8=FIX.4.4|9=62|35=0|34=103|49=DMA_HUB|56=FIXCLIENT1|52=20240722-14:22:38.052|10=028|
2024-07-22 16:22:38.545 [40] [FixSender] (DEBUG) Sending 8=FIX.4.4|9=57|35=0|49=FIXCLIENT1|56=DMA_HUB|34=93|52=20240722-14:22:38|10=051|
2024-07-22 16:23:08.005 [39] [FixSender] (DEBUG) Receiving 8=FIX.4.4|9=62|35=0|34=104|49=DMA_HUB|56=FIXCLIENT1|52=20240722-14:23:08.004|10=024|
2024-07-22 16:23:08.545 [40] [FixSender] (DEBUG) Sending 8=FIX.4.4|9=57|35=0|49=FIXCLIENT1|56=DMA_HUB|34=94|52=20240722-14:23:08|10=050|
2024-07-22 16:23:37.957 [39] [FixSender] (DEBUG) Receiving 8=FIX.4.4|9=62|35=0|34=105|49=DMA_HUB|56=FIXCLIENT1|52=20240722-14:23:37.956|10=043|
2024-07-22 16:23:38.546 [40] [FixSender] (DEBUG) Sending 8=FIX.4.4|9=57|35=0|49=FIXCLIENT1|56=DMA_HUB|34=95|52=20240722-14:23:38|10=054|
2024-07-22 16:24:07.908 [39] [FixSender] (DEBUG) Receiving 8=FIX.4.4|9=62|35=0|34=106|49=DMA_HUB|56=FIXCLIENT1|52=20240722-14:24:07.908|10=039|
2024-07-22 16:24:08.547 [40] [FixSender] (DEBUG) Sending 8=FIX.4.4|9=57|35=0|49=FIXCLIENT1|56=DMA_HUB|34=96|52=20240722-14:24:08|10=053|
2024-07-22 16:24:37.861 [39] [FixSender] (DEBUG) Receiving 8=FIX.4.4|9=62|35=0|34=107|49=DMA_HUB|56=FIXCLIENT1|52=20240722-14:24:37.860|10=040|
2024-07-22 16:24:38.547 [40] [FixSender] (DEBUG) Sending 8=FIX.4.4|9=57|35=0|49=FIXCLIENT1|56=DMA_HUB|34=97|52=20240722-14:24:38|10=057|
2024-07-22 16:25:07.813 [39] [FixSender] (DEBUG) Receiving 8=FIX.4.4|9=62|35=0|34=108|49=DMA_HUB|56=FIXCLIENT1|52=20240722-14:25:07.813|10=037|
2024-07-22 16:25:08.547 [40] [FixSender] (DEBUG) Sending 8=FIX.4.4|9=57|35=0|49=FIXCLIENT1|56=DMA_HUB|34=98|52=20240722-14:25:08|10=056|
2024-07-22 16:25:37.765 [39] [FixSender] (DEBUG) Receiving 8=FIX.4.4|9=62|35=0|34=109|49=DMA_HUB|56=FIXCLIENT1|52=20240722-14:25:37.764|10=046|
2024-07-22 16:25:38.548 [40] [FixSender] (DEBUG) Sending 8=FIX.4.4|9=57|35=0|49=FIXCLIENT1|56=DMA_HUB|34=99|52=20240722-14:25:38|10=060|
2024-07-22 16:26:07.717 [39] [FixSender] (DEBUG) Receiving 8=FIX.4.4|9=62|35=0|34=110|49=DMA_HUB|56=FIXCLIENT1|52=20240722-14:26:07.716|10=033|
2024-07-22 16:26:08.548 [40] [FixSender] (DEBUG) Sending 8=FIX.4.4|9=58|35=0|49=FIXCLIENT1|56=DMA_HUB|34=100|52=20240722-14:26:08|10=090|
2024-07-22 16:26:37.668 [39] [FixSender] (DEBUG) Receiving 8=FIX.4.4|9=62|35=0|34=111|49=DMA_HUB|56=FIXCLIENT1|52=20240722-14:26:37.668|10=043|
2024-07-22 16:26:38.548 [40] [FixSender] (DEBUG) Sending 8=FIX.4.4|9=58|35=0|49=FIXCLIENT1|56=DMA_HUB|34=101|52=20240722-14:26:38|10=094|
2024-07-22 16:27:07.621 [39] [FixSender] (DEBUG) Receiving 8=FIX.4.4|9=62|35=0|34=112|49=DMA_HUB|56=FIXCLIENT1|52=20240722-14:27:07.620|10=030|
2024-07-22 16:27:08.549 [40] [FixSender] (DEBUG) Sending 8=FIX.4.4|9=58|35=0|49=FIXCLIENT1|56=DMA_HUB|34=102|52=20240722-14:27:08|10=093|
2024-07-22 16:27:37.573 [39] [FixSender] (DEBUG) Receiving 8=FIX.4.4|9=62|35=0|34=113|49=DMA_HUB|56=FIXCLIENT1|52=20240722-14:27:37.573|10=041|
2024-07-22 16:27:38.549 [40] [FixSender] (DEBUG) Sending 8=FIX.4.4|9=58|35=0|49=FIXCLIENT1|56=DMA_HUB|34=103|52=20240722-14:27:38|10=097|
2024-07-22 16:28:07.524 [39] [FixSender] (DEBUG) Receiving 8=FIX.4.4|9=62|35=0|34=114|49=DMA_HUB|56=FIXCLIENT1|52=20240722-14:28:07.524|10=036|
2024-07-22 16:28:08.550 [40] [FixSender] (DEBUG) Sending 8=FIX.4.4|9=58|35=0|49=FIXCLIENT1|56=DMA_HUB|34=104|52=20240722-14:28:08|10=096|
2024-07-22 16:28:37.477 [39] [FixSender] (DEBUG) Receiving 8=FIX.4.4|9=62|35=0|34=115|49=DMA_HUB|56=FIXCLIENT1|52=20240722-14:28:37.476|10=046|
2024-07-22 16:28:38.551 [40] [FixSender] (DEBUG) Sending 8=FIX.4.4|9=58|35=0|49=FIXCLIENT1|56=DMA_HUB|34=105|52=20240722-14:28:38|10=100|
2024-07-22 16:29:07.428 [39] [FixSender] (DEBUG) Receiving 8=FIX.4.4|9=62|35=0|34=116|49=DMA_HUB|56=FIXCLIENT1|52=20240722-14:29:07.428|10=042|
2024-07-22 16:29:08.551 [40] [FixSender] (DEBUG) Sending 8=FIX.4.4|9=58|35=0|49=FIXCLIENT1|56=DMA_HUB|34=106|52=20240722-14:29:08|10=099|
2024-07-22 16:29:37.381 [39] [FixSender] (DEBUG) Receiving 8=FIX.4.4|9=62|35=0|34=117|49=DMA_HUB|56=FIXCLIENT1|52=20240722-14:29:37.380|10=043|
2024-07-22 16:29:38.552 [40] [FixSender] (DEBUG) Sending 8=FIX.4.4|9=58|35=0|49=FIXCLIENT1|56=DMA_HUB|34=107|52=20240722-14:29:38|10=103|
2024-07-22 16:30:07.332 [39] [FixSender] (DEBUG) Receiving 8=FIX.4.4|9=62|35=0|34=118|49=DMA_HUB|56=FIXCLIENT1|52=20240722-14:30:07.332|10=030|
2024-07-22 16:30:08.552 [40] [FixSender] (DEBUG) Sending 8=FIX.4.4|9=58|35=0|49=FIXCLIENT1|56=DMA_HUB|34=108|52=20240722-14:30:08|10=093|
2024-07-22 16:30:37.285 [39] [FixSender] (DEBUG) Receiving 8=FIX.4.4|9=62|35=0|34=119|49=DMA_HUB|56=FIXCLIENT1|52=20240722-14:30:37.284|10=040|
2024-07-22 16:30:38.553 [40] [FixSender] (DEBUG) Sending 8=FIX.4.4|9=58|35=0|49=FIXCLIENT1|56=DMA_HUB|34=109|52=20240722-14:30:38|10=097|
2024-07-22 16:31:07.237 [39] [FixSender] (DEBUG) Receiving 8=FIX.4.4|9=62|35=0|34=120|49=DMA_HUB|56=FIXCLIENT1|52=20240722-14:31:07.237|10=028|
2024-07-22 16:31:08.553 [40] [FixSender] (DEBUG) Sending 8=FIX.4.4|9=58|35=0|49=FIXCLIENT1|56=DMA_HUB|34=110|52=20240722-14:31:08|10=087|
2024-07-22 16:31:37.188 [39] [FixSender] (DEBUG) Receiving 8=FIX.4.4|9=62|35=0|34=121|49=DMA_HUB|56=FIXCLIENT1|52=20240722-14:31:37.188|10=037|
2024-07-22 16:31:38.554 [40] [FixSender] (DEBUG) Sending 8=FIX.4.4|9=58|35=0|49=FIXCLIENT1|56=DMA_HUB|34=111|52=20240722-14:31:38|10=091|
2024-07-22 16:32:07.141 [39] [FixSender] (DEBUG) Receiving 8=FIX.4.4|9=62|35=0|34=122|49=DMA_HUB|56=FIXCLIENT1|52=20240722-14:32:07.140|10=024|
2024-07-22 16:32:08.555 [40] [FixSender] (DEBUG) Sending 8=FIX.4.4|9=58|35=0|49=FIXCLIENT1|56=DMA_HUB|34=112|52=20240722-14:32:08|10=090|
2024-07-22 16:32:37.092 [39] [FixSender] (DEBUG) Receiving 8=FIX.4.4|9=62|35=0|34=123|49=DMA_HUB|56=FIXCLIENT1|52=20240722-14:32:37.092|10=034|
2024-07-22 16:32:38.555 [40] [FixSender] (DEBUG) Sending 8=FIX.4.4|9=58|35=0|49=FIXCLIENT1|56=DMA_HUB|34=113|52=20240722-14:32:38|10=094|
2024-07-22 16:33:07.045 [39] [FixSender] (DEBUG) Receiving 8=FIX.4.4|9=62|35=0|34=124|49=DMA_HUB|56=FIXCLIENT1|52=20240722-14:33:07.044|10=030|
2024-07-22 16:33:08.556 [40] [FixSender] (DEBUG) Sending 8=FIX.4.4|9=58|35=0|49=FIXCLIENT1|56=DMA_HUB|34=114|52=20240722-14:33:08|10=093|
2024-07-22 16:33:36.997 [39] [FixSender] (DEBUG) Receiving 8=FIX.4.4|9=62|35=0|34=125|49=DMA_HUB|56=FIXCLIENT1|52=20240722-14:33:36.997|10=050|
2024-07-22 16:33:38.557 [40] [FixSender] (DEBUG) Sending 8=FIX.4.4|9=58|35=0|49=FIXCLIENT1|56=DMA_HUB|34=115|52=20240722-14:33:38|10=097|
2024-07-22 16:34:06.948 [39] [FixSender] (DEBUG) Receiving 8=FIX.4.4|9=62|35=0|34=126|49=DMA_HUB|56=FIXCLIENT1|52=20240722-14:34:06.948|10=045|
2024-07-22 16:34:08.557 [40] [FixSender] (DEBUG) Sending 8=FIX.4.4|9=58|35=0|49=FIXCLIENT1|56=DMA_HUB|34=116|52=20240722-14:34:08|10=096|
2024-07-22 16:34:36.901 [39] [FixSender] (DEBUG) Receiving 8=FIX.4.4|9=62|35=0|34=127|49=DMA_HUB|56=FIXCLIENT1|52=20240722-14:34:36.901|10=038|
2024-07-22 16:34:38.558 [40] [FixSender] (DEBUG) Sending 8=FIX.4.4|9=58|35=0|49=FIXCLIENT1|56=DMA_HUB|34=117|52=20240722-14:34:38|10=100|
2024-07-22 16:35:06.852 [39] [FixSender] (DEBUG) Receiving 8=FIX.4.4|9=62|35=0|34=128|49=DMA_HUB|56=FIXCLIENT1|52=20240722-14:35:06.852|10=042|
2024-07-22 16:35:08.558 [40] [FixSender] (DEBUG) Sending 8=FIX.4.4|9=58|35=0|49=FIXCLIENT1|56=DMA_HUB|34=118|52=20240722-14:35:08|10=099|
2024-07-22 16:35:36.805 [39] [FixSender] (DEBUG) Receiving 8=FIX.4.4|9=62|35=0|34=129|49=DMA_HUB|56=FIXCLIENT1|52=20240722-14:35:36.804|10=043|
2024-07-22 16:35:38.558 [40] [FixSender] (DEBUG) Sending 8=FIX.4.4|9=58|35=0|49=FIXCLIENT1|56=DMA_HUB|34=119|52=20240722-14:35:38|10=103|
2024-07-22 16:36:06.756 [39] [FixSender] (DEBUG) Receiving 8=FIX.4.4|9=62|35=0|34=130|49=DMA_HUB|56=FIXCLIENT1|52=20240722-14:36:06.756|10=039|
2024-07-22 16:36:08.559 [40] [FixSender] (DEBUG) Sending 8=FIX.4.4|9=58|35=0|49=FIXCLIENT1|56=DMA_HUB|34=120|52=20240722-14:36:08|10=093|
2024-07-22 16:36:36.709 [39] [FixSender] (DEBUG) Receiving 8=FIX.4.4|9=62|35=0|34=131|49=DMA_HUB|56=FIXCLIENT1|52=20240722-14:36:36.708|10=040|
2024-07-22 16:36:38.559 [40] [FixSender] (DEBUG) Sending 8=FIX.4.4|9=58|35=0|49=FIXCLIENT1|56=DMA_HUB|34=121|52=20240722-14:36:38|10=097|
2024-07-22 16:37:06.661 [39] [FixSender] (DEBUG) Receiving 8=FIX.4.4|9=62|35=0|34=132|49=DMA_HUB|56=FIXCLIENT1|52=20240722-14:37:06.661|10=037|
2024-07-22 16:37:08.560 [40] [FixSender] (DEBUG) Sending 8=FIX.4.4|9=58|35=0|49=FIXCLIENT1|56=DMA_HUB|34=122|52=20240722-14:37:08|10=096|
2024-07-22 16:37:36.613 [39] [FixSender] (DEBUG) Receiving 8=FIX.4.4|9=62|35=0|34=133|49=DMA_HUB|56=FIXCLIENT1|52=20240722-14:37:36.612|10=037|
2024-07-22 16:37:38.561 [40] [FixSender] (DEBUG) Sending 8=FIX.4.4|9=58|35=0|49=FIXCLIENT1|56=DMA_HUB|34=123|52=20240722-14:37:38|10=100|
2024-07-22 16:38:06.565 [39] [FixSender] (DEBUG) Receiving 8=FIX.4.4|9=62|35=0|34=134|49=DMA_HUB|56=FIXCLIENT1|52=20240722-14:38:06.565|10=043|
2024-07-22 16:38:08.561 [40] [FixSender] (DEBUG) Sending 8=FIX.4.4|9=58|35=0|49=FIXCLIENT1|56=DMA_HUB|34=124|52=20240722-14:38:08|10=099|
2024-07-22 16:38:36.516 [39] [FixSender] (DEBUG) Receiving 8=FIX.4.4|9=62|35=0|34=135|49=DMA_HUB|56=FIXCLIENT1|52=20240722-14:38:36.516|10=043|
2024-07-22 16:38:38.562 [40] [FixSender] (DEBUG) Sending 8=FIX.4.4|9=58|35=0|49=FIXCLIENT1|56=DMA_HUB|34=125|52=20240722-14:38:38|10=103|
2024-07-22 16:39:06.469 [39] [FixSender] (DEBUG) Receiving 8=FIX.4.4|9=62|35=0|34=136|49=DMA_HUB|56=FIXCLIENT1|52=20240722-14:39:06.469|10=049|
2024-07-22 16:39:08.562 [40] [FixSender] (DEBUG) Sending 8=FIX.4.4|9=58|35=0|49=FIXCLIENT1|56=DMA_HUB|34=126|52=20240722-14:39:08|10=102|
2024-07-22 16:39:36.420 [39] [FixSender] (DEBUG) Receiving 8=FIX.4.4|9=62|35=0|34=137|49=DMA_HUB|56=FIXCLIENT1|52=20240722-14:39:36.420|10=040|
2024-07-22 16:39:38.563 [40] [FixSender] (DEBUG) Sending 8=FIX.4.4|9=58|35=0|49=FIXCLIENT1|56=DMA_HUB|34=127|52=20240722-14:39:38|10=106|
2024-07-22 16:40:06.373 [39] [FixSender] (DEBUG) Receiving 8=FIX.4.4|9=62|35=0|34=138|49=DMA_HUB|56=FIXCLIENT1|52=20240722-14:40:06.372|10=036|
2024-07-22 16:40:08.563 [40] [FixSender] (DEBUG) Sending 8=FIX.4.4|9=58|35=0|49=FIXCLIENT1|56=DMA_HUB|34=128|52=20240722-14:40:08|10=096|
2024-07-22 16:40:36.325 [39] [FixSender] (DEBUG) Receiving 8=FIX.4.4|9=62|35=0|34=139|49=DMA_HUB|56=FIXCLIENT1|52=20240722-14:40:36.325|10=038|
2024-07-22 16:40:38.564 [40] [FixSender] (DEBUG) Sending 8=FIX.4.4|9=58|35=0|49=FIXCLIENT1|56=DMA_HUB|34=129|52=20240722-14:40:38|10=100|
2024-07-22 16:41:06.277 [39] [FixSender] (DEBUG) Receiving 8=FIX.4.4|9=62|35=0|34=140|49=DMA_HUB|56=FIXCLIENT1|52=20240722-14:41:06.276|10=033|
2024-07-22 16:41:08.564 [40] [FixSender] (DEBUG) Sending 8=FIX.4.4|9=58|35=0|49=FIXCLIENT1|56=DMA_HUB|34=130|52=20240722-14:41:08|10=090|
2024-07-22 16:41:36.229 [39] [FixSender] (DEBUG) Receiving 8=FIX.4.4|9=62|35=0|34=141|49=DMA_HUB|56=FIXCLIENT1|52=20240722-14:41:36.228|10=034|
2024-07-22 16:41:38.564 [40] [FixSender] (DEBUG) Sending 8=FIX.4.4|9=58|35=0|49=FIXCLIENT1|56=DMA_HUB|34=131|52=20240722-14:41:38|10=094|
2024-07-22 16:42:06.180 [39] [FixSender] (DEBUG) Receiving 8=FIX.4.4|9=62|35=0|34=142|49=DMA_HUB|56=FIXCLIENT1|52=20240722-14:42:06.180|10=030|
2024-07-22 16:42:08.565 [40] [FixSender] (DEBUG) Sending 8=FIX.4.4|9=58|35=0|49=FIXCLIENT1|56=DMA_HUB|34=132|52=20240722-14:42:08|10=093|
2024-07-22 16:42:36.133 [39] [FixSender] (DEBUG) Receiving 8=FIX.4.4|9=62|35=0|34=143|49=DMA_HUB|56=FIXCLIENT1|52=20240722-14:42:36.132|10=031|
2024-07-22 16:42:38.565 [40] [FixSender] (DEBUG) Sending 8=FIX.4.4|9=58|35=0|49=FIXCLIENT1|56=DMA_HUB|34=133|52=20240722-14:42:38|10=097|
2024-07-22 16:43:06.085 [39] [FixSender] (DEBUG) Receiving 8=FIX.4.4|9=62|35=0|34=144|49=DMA_HUB|56=FIXCLIENT1|52=20240722-14:43:06.085|10=037|
2024-07-22 16:43:08.566 [40] [FixSender] (DEBUG) Sending 8=FIX.4.4|9=58|35=0|49=FIXCLIENT1|56=DMA_HUB|34=134|52=20240722-14:43:08|10=096|
2024-07-22 16:43:36.036 [39] [FixSender] (DEBUG) Receiving 8=FIX.4.4|9=62|35=0|34=145|49=DMA_HUB|56=FIXCLIENT1|52=20240722-14:43:36.036|10=037|
2024-07-22 16:43:38.566 [40] [FixSender] (DEBUG) Sending 8=FIX.4.4|9=58|35=0|49=FIXCLIENT1|56=DMA_HUB|34=135|52=20240722-14:43:38|10=100|
2024-07-22 16:44:05.989 [39] [FixSender] (DEBUG) Receiving 8=FIX.4.4|9=62|35=0|34=146|49=DMA_HUB|56=FIXCLIENT1|52=20240722-14:44:05.988|10=051|
2024-07-22 16:44:08.566 [40] [FixSender] (DEBUG) Sending 8=FIX.4.4|9=58|35=0|49=FIXCLIENT1|56=DMA_HUB|34=136|52=20240722-14:44:08|10=099|
2024-07-22 16:44:35.940 [39] [FixSender] (DEBUG) Receiving 8=FIX.4.4|9=62|35=0|34=147|49=DMA_HUB|56=FIXCLIENT1|52=20240722-14:44:35.940|10=043|
2024-07-22 16:44:38.567 [40] [FixSender] (DEBUG) Sending 8=FIX.4.4|9=58|35=0|49=FIXCLIENT1|56=DMA_HUB|34=137|52=20240722-14:44:38|10=103|
2024-07-22 16:45:05.893 [39] [FixSender] (DEBUG) Receiving 8=FIX.4.4|9=62|35=0|34=148|49=DMA_HUB|56=FIXCLIENT1|52=20240722-14:45:05.892|10=048|
2024-07-22 16:45:08.567 [40] [FixSender] (DEBUG) Sending 8=FIX.4.4|9=58|35=0|49=FIXCLIENT1|56=DMA_HUB|34=138|52=20240722-14:45:08|10=102|
2024-07-22 16:45:35.845 [39] [FixSender] (DEBUG) Receiving 8=FIX.4.4|9=62|35=0|34=149|49=DMA_HUB|56=FIXCLIENT1|52=20240722-14:45:35.845|10=050|
2024-07-22 16:45:38.568 [40] [FixSender] (DEBUG) Sending 8=FIX.4.4|9=58|35=0|49=FIXCLIENT1|56=DMA_HUB|34=139|52=20240722-14:45:38|10=106|
2024-07-22 16:46:05.796 [39] [FixSender] (DEBUG) Receiving 8=FIX.4.4|9=62|35=0|34=150|49=DMA_HUB|56=FIXCLIENT1|52=20240722-14:46:05.796|10=045|
2024-07-22 16:46:08.568 [40] [FixSender] (DEBUG) Sending 8=FIX.4.4|9=58|35=0|49=FIXCLIENT1|56=DMA_HUB|34=140|52=20240722-14:46:08|10=096|
2024-07-22 16:46:35.749 [39] [FixSender] (DEBUG) Receiving 8=FIX.4.4|9=62|35=0|34=151|49=DMA_HUB|56=FIXCLIENT1|52=20240722-14:46:35.748|10=046|
2024-07-22 16:46:38.569 [40] [FixSender] (DEBUG) Sending 8=FIX.4.4|9=58|35=0|49=FIXCLIENT1|56=DMA_HUB|34=141|52=20240722-14:46:38|10=100|
2024-07-22 16:47:05.700 [39] [FixSender] (DEBUG) Receiving 8=FIX.4.4|9=62|35=0|34=152|49=DMA_HUB|56=FIXCLIENT1|52=20240722-14:47:05.700|10=033|
2024-07-22 16:47:08.569 [40] [FixSender] (DEBUG) Sending 8=FIX.4.4|9=58|35=0|49=FIXCLIENT1|56=DMA_HUB|34=142|52=20240722-14:47:08|10=099|
2024-07-22 16:47:35.653 [39] [FixSender] (DEBUG) Receiving 8=FIX.4.4|9=62|35=0|34=153|49=DMA_HUB|56=FIXCLIENT1|52=20240722-14:47:35.652|10=043|
2024-07-22 16:47:38.570 [40] [FixSender] (DEBUG) Sending 8=FIX.4.4|9=58|35=0|49=FIXCLIENT1|56=DMA_HUB|34=143|52=20240722-14:47:38|10=103|
2024-07-22 16:48:05.605 [39] [FixSender] (DEBUG) Receiving 8=FIX.4.4|9=62|35=0|34=154|49=DMA_HUB|56=FIXCLIENT1|52=20240722-14:48:05.605|10=040|
2024-07-22 16:48:08.570 [40] [FixSender] (DEBUG) Sending 8=FIX.4.4|9=58|35=0|49=FIXCLIENT1|56=DMA_HUB|34=144|52=20240722-14:48:08|10=102|
2024-07-22 16:48:35.556 [39] [FixSender] (DEBUG) Receiving 8=FIX.4.4|9=62|35=0|34=155|49=DMA_HUB|56=FIXCLIENT1|52=20240722-14:48:35.556|10=049|
2024-07-22 16:48:38.570 [40] [FixSender] (DEBUG) Sending 8=FIX.4.4|9=58|35=0|49=FIXCLIENT1|56=DMA_HUB|34=145|52=20240722-14:48:38|10=106|
2024-07-22 16:49:05.509 [39] [FixSender] (DEBUG) Receiving 8=FIX.4.4|9=62|35=0|34=156|49=DMA_HUB|56=FIXCLIENT1|52=20240722-14:49:05.508|10=045|
2024-07-22 16:49:08.570 [40] [FixSender] (DEBUG) Sending 8=FIX.4.4|9=58|35=0|49=FIXCLIENT1|56=DMA_HUB|34=146|52=20240722-14:49:08|10=105|
2024-07-22 16:49:35.461 [39] [FixSender] (DEBUG) Receiving 8=FIX.4.4|9=62|35=0|34=157|49=DMA_HUB|56=FIXCLIENT1|52=20240722-14:49:35.461|10=047|
2024-07-22 16:49:38.571 [40] [FixSender] (DEBUG) Sending 8=FIX.4.4|9=58|35=0|49=FIXCLIENT1|56=DMA_HUB|34=147|52=20240722-14:49:38|10=109|
2024-07-22 16:50:05.412 [39] [FixSender] (DEBUG) Receiving 8=FIX.4.4|9=62|35=0|34=158|49=DMA_HUB|56=FIXCLIENT1|52=20240722-14:50:05.412|10=033|
2024-07-22 16:50:08.571 [40] [FixSender] (DEBUG) Sending 8=FIX.4.4|9=58|35=0|49=FIXCLIENT1|56=DMA_HUB|34=148|52=20240722-14:50:08|10=099|
2024-07-22 16:50:35.365 [39] [FixSender] (DEBUG) Receiving 8=FIX.4.4|9=62|35=0|34=159|49=DMA_HUB|56=FIXCLIENT1|52=20240722-14:50:35.364|10=043|
2024-07-22 16:50:38.572 [40] [FixSender] (DEBUG) Sending 8=FIX.4.4|9=58|35=0|49=FIXCLIENT1|56=DMA_HUB|34=149|52=20240722-14:50:38|10=103|
2024-07-22 16:51:05.316 [39] [FixSender] (DEBUG) Receiving 8=FIX.4.4|9=62|35=0|34=160|49=DMA_HUB|56=FIXCLIENT1|52=20240722-14:51:05.316|10=030|
2024-07-22 16:51:08.573 [40] [FixSender] (DEBUG) Sending 8=FIX.4.4|9=58|35=0|49=FIXCLIENT1|56=DMA_HUB|34=150|52=20240722-14:51:08|10=093|
2024-07-22 16:51:35.269 [39] [FixSender] (DEBUG) Receiving 8=FIX.4.4|9=62|35=0|34=161|49=DMA_HUB|56=FIXCLIENT1|52=20240722-14:51:35.268|10=040|
2024-07-22 16:51:38.573 [40] [FixSender] (DEBUG) Sending 8=FIX.4.4|9=58|35=0|49=FIXCLIENT1|56=DMA_HUB|34=151|52=20240722-14:51:38|10=097|
2024-07-22 16:52:05.221 [39] [FixSender] (DEBUG) Receiving 8=FIX.4.4|9=62|35=0|34=162|49=DMA_HUB|56=FIXCLIENT1|52=20240722-14:52:05.221|10=028|
2024-07-22 16:52:08.574 [40] [FixSender] (DEBUG) Sending 8=FIX.4.4|9=58|35=0|49=FIXCLIENT1|56=DMA_HUB|34=152|52=20240722-14:52:08|10=096|
2024-07-22 16:52:35.173 [39] [FixSender] (DEBUG) Receiving 8=FIX.4.4|9=62|35=0|34=163|49=DMA_HUB|56=FIXCLIENT1|52=20240722-14:52:35.172|10=037|
2024-07-22 16:52:38.574 [40] [FixSender] (DEBUG) Sending 8=FIX.4.4|9=58|35=0|49=FIXCLIENT1|56=DMA_HUB|34=153|52=20240722-14:52:38|10=100|
2024-07-22 16:53:05.125 [39] [FixSender] (DEBUG) Receiving 8=FIX.4.4|9=62|35=0|34=164|49=DMA_HUB|56=FIXCLIENT1|52=20240722-14:53:05.125|10=034|
2024-07-22 16:53:08.575 [40] [FixSender] (DEBUG) Sending 8=FIX.4.4|9=58|35=0|49=FIXCLIENT1|56=DMA_HUB|34=154|52=20240722-14:53:08|10=099|
2024-07-22 16:53:35.076 [39] [FixSender] (DEBUG) Receiving 8=FIX.4.4|9=62|35=0|34=165|49=DMA_HUB|56=FIXCLIENT1|52=20240722-14:53:35.076|10=043|
2024-07-22 16:53:38.575 [40] [FixSender] (DEBUG) Sending 8=FIX.4.4|9=58|35=0|49=FIXCLIENT1|56=DMA_HUB|34=155|52=20240722-14:53:38|10=103|
2024-07-22 16:54:05.029 [39] [FixSender] (DEBUG) Receiving 8=FIX.4.4|9=62|35=0|34=166|49=DMA_HUB|56=FIXCLIENT1|52=20240722-14:54:05.028|10=039|
2024-07-22 16:54:08.576 [40] [FixSender] (DEBUG) Sending 8=FIX.4.4|9=58|35=0|49=FIXCLIENT1|56=DMA_HUB|34=156|52=20240722-14:54:08|10=102|
2024-07-22 16:54:34.981 [39] [FixSender] (DEBUG) Receiving 8=FIX.4.4|9=62|35=0|34=167|49=DMA_HUB|56=FIXCLIENT1|52=20240722-14:54:34.981|10=050|
2024-07-22 16:54:38.576 [40] [FixSender] (DEBUG) Sending 8=FIX.4.4|9=58|35=0|49=FIXCLIENT1|56=DMA_HUB|34=157|52=20240722-14:54:38|10=106|
2024-07-22 16:55:04.932 [39] [FixSender] (DEBUG) Receiving 8=FIX.4.4|9=62|35=0|34=168|49=DMA_HUB|56=FIXCLIENT1|52=20240722-14:55:04.932|10=045|
2024-07-22 16:55:08.577 [40] [FixSender] (DEBUG) Sending 8=FIX.4.4|9=58|35=0|49=FIXCLIENT1|56=DMA_HUB|34=158|52=20240722-14:55:08|10=105|
2024-07-22 16:55:34.885 [39] [FixSender] (DEBUG) Receiving 8=FIX.4.4|9=62|35=0|34=169|49=DMA_HUB|56=FIXCLIENT1|52=20240722-14:55:34.885|10=056|
2024-07-22 16:55:38.577 [40] [FixSender] (DEBUG) Sending 8=FIX.4.4|9=58|35=0|49=FIXCLIENT1|56=DMA_HUB|34=159|52=20240722-14:55:38|10=109|
2024-07-22 16:56:04.836 [39] [FixSender] (DEBUG) Receiving 8=FIX.4.4|9=62|35=0|34=170|49=DMA_HUB|56=FIXCLIENT1|52=20240722-14:56:04.836|10=042|
2024-07-22 16:56:08.578 [40] [FixSender] (DEBUG) Sending 8=FIX.4.4|9=58|35=0|49=FIXCLIENT1|56=DMA_HUB|34=160|52=20240722-14:56:08|10=099|
2024-07-22 16:56:34.789 [39] [FixSender] (DEBUG) Receiving 8=FIX.4.4|9=62|35=0|34=171|49=DMA_HUB|56=FIXCLIENT1|52=20240722-14:56:34.788|10=052|
2024-07-22 16:56:38.579 [40] [FixSender] (DEBUG) Sending 8=FIX.4.4|9=58|35=0|49=FIXCLIENT1|56=DMA_HUB|34=161|52=20240722-14:56:38|10=103|
2024-07-22 16:57:04.740 [39] [FixSender] (DEBUG) Receiving 8=FIX.4.4|9=62|35=0|34=172|49=DMA_HUB|56=FIXCLIENT1|52=20240722-14:57:04.740|10=039|
2024-07-22 16:57:08.579 [40] [FixSender] (DEBUG) Sending 8=FIX.4.4|9=58|35=0|49=FIXCLIENT1|56=DMA_HUB|34=162|52=20240722-14:57:08|10=102|
2024-07-22 16:57:34.692 [39] [FixSender] (DEBUG) Receiving 8=FIX.4.4|9=62|35=0|34=173|49=DMA_HUB|56=FIXCLIENT1|52=20240722-14:57:34.692|10=049|
2024-07-22 16:57:38.580 [40] [FixSender] (DEBUG) Sending 8=FIX.4.4|9=58|35=0|49=FIXCLIENT1|56=DMA_HUB|34=163|52=20240722-14:57:38|10=106|
2024-07-22 16:58:04.645 [39] [FixSender] (DEBUG) Receiving 8=FIX.4.4|9=62|35=0|34=174|49=DMA_HUB|56=FIXCLIENT1|52=20240722-14:58:04.644|10=045|
2024-07-22 16:58:08.581 [40] [FixSender] (DEBUG) Sending 8=FIX.4.4|9=58|35=0|49=FIXCLIENT1|56=DMA_HUB|34=164|52=20240722-14:58:08|10=105|
2024-07-22 16:58:34.596 [39] [FixSender] (DEBUG) Receiving 8=FIX.4.4|9=62|35=0|34=175|49=DMA_HUB|56=FIXCLIENT1|52=20240722-14:58:34.596|10=055|
2024-07-22 16:58:38.581 [40] [FixSender] (DEBUG) Sending 8=FIX.4.4|9=58|35=0|49=FIXCLIENT1|56=DMA_HUB|34=165|52=20240722-14:58:38|10=109|
2024-07-22 16:59:04.549 [39] [FixSender] (DEBUG) Receiving 8=FIX.4.4|9=62|35=0|34=176|49=DMA_HUB|56=FIXCLIENT1|52=20240722-14:59:04.548|10=051|
2024-07-22 16:59:08.581 [40] [FixSender] (DEBUG) Sending 8=FIX.4.4|9=58|35=0|49=FIXCLIENT1|56=DMA_HUB|34=166|52=20240722-14:59:08|10=108|
2024-07-22 16:59:34.500 [39] [FixSender] (DEBUG) Receiving 8=FIX.4.4|9=62|35=0|34=177|49=DMA_HUB|56=FIXCLIENT1|52=20240722-14:59:34.500|10=043|
2024-07-22 16:59:38.581 [40] [FixSender] (DEBUG) Sending 8=FIX.4.4|9=58|35=0|49=FIXCLIENT1|56=DMA_HUB|34=167|52=20240722-14:59:38|10=112|
2024-07-22 17:00:04.453 [39] [FixSender] (DEBUG) Receiving 8=FIX.4.4|9=62|35=0|34=178|49=DMA_HUB|56=FIXCLIENT1|52=20240722-15:00:04.452|10=034|
2024-07-22 17:00:08.582 [40] [FixSender] (DEBUG) Sending 8=FIX.4.4|9=58|35=0|49=FIXCLIENT1|56=DMA_HUB|34=168|52=20240722-15:00:08|10=097|
2024-07-22 17:00:34.405 [39] [FixSender] (DEBUG) Receiving 8=FIX.4.4|9=62|35=0|34=179|49=DMA_HUB|56=FIXCLIENT1|52=20240722-15:00:34.405|10=036|
2024-07-22 17:00:38.583 [40] [FixSender] (DEBUG) Sending 8=FIX.4.4|9=58|35=0|49=FIXCLIENT1|56=DMA_HUB|34=169|52=20240722-15:00:38|10=101|
2024-07-22 17:01:04.357 [39] [FixSender] (DEBUG) Receiving 8=FIX.4.4|9=62|35=0|34=180|49=DMA_HUB|56=FIXCLIENT1|52=20240722-15:01:04.356|10=031|
2024-07-22 17:01:08.583 [40] [FixSender] (DEBUG) Sending 8=FIX.4.4|9=58|35=0|49=FIXCLIENT1|56=DMA_HUB|34=170|52=20240722-15:01:08|10=091|
2024-07-22 17:01:34.309 [39] [FixSender] (DEBUG) Receiving 8=FIX.4.4|9=62|35=0|34=181|49=DMA_HUB|56=FIXCLIENT1|52=20240722-15:01:34.308|10=032|
2024-07-22 17:01:38.584 [40] [FixSender] (DEBUG) Sending 8=FIX.4.4|9=58|35=0|49=FIXCLIENT1|56=DMA_HUB|34=171|52=20240722-15:01:38|10=095|
2024-07-22 17:02:04.260 [39] [FixSender] (DEBUG) Receiving 8=FIX.4.4|9=62|35=0|34=182|49=DMA_HUB|56=FIXCLIENT1|52=20240722-15:02:04.260|10=028|
2024-07-22 17:02:08.584 [40] [FixSender] (DEBUG) Sending 8=FIX.4.4|9=58|35=0|49=FIXCLIENT1|56=DMA_HUB|34=172|52=20240722-15:02:08|10=094|
2024-07-22 17:02:34.213 [39] [FixSender] (DEBUG) Receiving 8=FIX.4.4|9=62|35=0|34=183|49=DMA_HUB|56=FIXCLIENT1|52=20240722-15:02:34.212|10=029|
2024-07-22 17:02:38.585 [40] [FixSender] (DEBUG) Sending 8=FIX.4.4|9=58|35=0|49=FIXCLIENT1|56=DMA_HUB|34=173|52=20240722-15:02:38|10=098|
2024-07-22 17:03:04.164 [39] [FixSender] (DEBUG) Receiving 8=FIX.4.4|9=62|35=0|34=184|49=DMA_HUB|56=FIXCLIENT1|52=20240722-15:03:04.164|10=034|
2024-07-22 17:03:08.585 [40] [FixSender] (DEBUG) Sending 8=FIX.4.4|9=58|35=0|49=FIXCLIENT1|56=DMA_HUB|34=174|52=20240722-15:03:08|10=097|
2024-07-22 17:03:34.117 [39] [FixSender] (DEBUG) Receiving 8=FIX.4.4|9=62|35=0|34=185|49=DMA_HUB|56=FIXCLIENT1|52=20240722-15:03:34.116|10=035|
2024-07-22 17:03:38.586 [40] [FixSender] (DEBUG) Sending 8=FIX.4.4|9=58|35=0|49=FIXCLIENT1|56=DMA_HUB|34=175|52=20240722-15:03:38|10=101|
2024-07-22 17:04:04.069 [39] [FixSender] (DEBUG) Receiving 8=FIX.4.4|9=62|35=0|34=186|49=DMA_HUB|56=FIXCLIENT1|52=20240722-15:04:04.069|10=041|
2024-07-22 17:04:08.586 [40] [FixSender] (DEBUG) Sending 8=FIX.4.4|9=58|35=0|49=FIXCLIENT1|56=DMA_HUB|34=176|52=20240722-15:04:08|10=100|
2024-07-22 17:04:34.020 [39] [FixSender] (DEBUG) Receiving 8=FIX.4.4|9=62|35=0|34=187|49=DMA_HUB|56=FIXCLIENT1|52=20240722-15:04:34.020|10=032|
2024-07-22 17:04:38.587 [40] [FixSender] (DEBUG) Sending 8=FIX.4.4|9=58|35=0|49=FIXCLIENT1|56=DMA_HUB|34=177|52=20240722-15:04:38|10=104|
2024-07-22 17:05:03.973 [39] [FixSender] (DEBUG) Receiving 8=FIX.4.4|9=62|35=0|34=188|49=DMA_HUB|56=FIXCLIENT1|52=20240722-15:05:03.972|10=046|
