2024-02-14 14:10:30.799 [1] [Fixsender] (INFO) (c) 2001-2011 ullink SAS. FixSender. Release 1.11.
2024-02-14 14:10:35.924 [30] [FixSender] (INFO) try to connect to : localhost port :12345
2024-02-14 14:10:35.955 [30] [FixSender] (INFO) physical cnx initiated
2024-02-14 14:10:35.980 [30] [FixSender] (DEBUG) Sending 8=FIX.4.4|9=86|35=A|49=FIXCLIENT1|56=DMA_HUB|34=1|52=20240214-13:10:35|98=0|108=30|95=9|96=null/null|10=080|
2024-02-14 14:10:35.989 [30] [FixSender] (DEBUG) Receiving 8=FIX.4.4|9=72|35=A|34=1|49=DMA_HUB|56=FIXCLIENT1|52=20240214-13:10:35.980|108=30|98=0|10=227|
2024-02-14 14:10:35.989 [30] [FixSender] (WARNING) The Fix connection is open...
2024-02-14 14:10:35.996 [30] [FixSender] (DEBUG) Sending 8=FIX.4.4|9=74|35=1|49=FIXCLIENT1|56=DMA_HUB|34=2|52=20240214-13:10:35|112=synchronized?|10=031|
2024-02-14 14:10:35.996 [30] [FixSender] (DEBUG) Receiving 8=FIX.4.4|9=78|35=0|34=2|49=DMA_HUB|56=FIXCLIENT1|52=20240214-13:10:35.996|112=synchronized?|10=248|
2024-02-14 14:10:38.555 [33] [FixSender] (DEBUG) Sending 8=FIX.4.4|9=196|35=D|49=FIXCLIENT1|56=DMA_HUB|34=3|52=20240214-13:10:38|21=1|11=HS_17079162380|38=4948|55=E:07G@XETR|54=2|60=20240214-13:10:38|40=2|59=0|44=197.111|48=US3390411052|22=4|15=EUR|207=XETR|1=bram_123|10=037|
2024-02-14 14:10:38.567 [30] [FixSender] (DEBUG) Receiving 8=FIX.4.4|9=238|35=8|34=3|49=DMA_HUB|56=FIXCLIENT1|52=20240214-13:10:38.555|11=HS_17079162380|37=FXdJfZYtO|54=2|40=2|59=0|17=202402141|150=A|39=A|38=4948|151=4948|14=0|6=0|44=197.111|60=20240214-13:10:38.000|22=4|48=US3390411052|207=XETR|15=EUR|55=[N/A]|10=234|
2024-02-14 14:11:05.948 [30] [FixSender] (DEBUG) Receiving 8=FIX.4.4|9=60|35=0|34=4|49=DMA_HUB|56=FIXCLIENT1|52=20240214-13:11:05.947|10=186|
2024-02-14 14:11:08.557 [31] [FixSender] (DEBUG) Sending 8=FIX.4.4|9=56|35=0|49=FIXCLIENT1|56=DMA_HUB|34=4|52=20240214-13:11:08|10=240|
2024-02-14 14:11:30.941 [35] [FixSender] (DEBUG) Sending 8=FIX.4.4|9=196|35=D|49=FIXCLIENT1|56=DMA_HUB|34=5|52=20240214-13:11:30|21=1|11=HS_17079162900|38=1643|55=E:07G@XETR|54=2|60=20240214-13:11:30|40=2|59=0|44=197.111|48=US3390411052|22=4|15=EUR|207=XETR|1=bram_123|10=012|
2024-02-14 14:11:30.943 [30] [FixSender] (DEBUG) Receiving 8=FIX.4.4|9=238|35=8|34=5|49=DMA_HUB|56=FIXCLIENT1|52=20240214-13:11:30.942|11=HS_17079162900|37=FXeJfZYtO|54=2|40=2|59=0|17=202402142|150=A|39=A|38=1643|151=1643|14=0|6=0|44=197.111|60=20240214-13:11:30.000|22=4|48=US3390411052|207=XETR|15=EUR|55=[N/A]|10=200|
2024-02-14 14:12:45.960 [1] [Fixsender] (INFO) (c) 2001-2011 ullink SAS. FixSender. Release 1.11.
2024-02-14 14:12:55.538 [29] [FixSender] (INFO) try to connect to : localhost port :12345
2024-02-14 14:12:55.565 [29] [FixSender] (INFO) physical cnx initiated
2024-02-14 14:12:55.580 [29] [FixSender] (DEBUG) Sending 8=FIX.4.4|9=86|35=A|49=FIXCLIENT1|56=DMA_HUB|34=6|52=20240214-13:12:55|98=0|108=30|95=9|96=null/null|10=089|
2024-02-14 14:12:55.581 [29] [FixSender] (DEBUG) Receiving 8=FIX.4.4|9=72|35=A|34=6|49=DMA_HUB|56=FIXCLIENT1|52=20240214-13:12:55.580|108=30|98=0|10=232|
2024-02-14 14:12:55.583 [29] [FixSender] (WARNING) The Fix connection is open...
2024-02-14 14:12:55.587 [29] [FixSender] (DEBUG) Sending 8=FIX.4.4|9=74|35=1|49=FIXCLIENT1|56=DMA_HUB|34=7|52=20240214-13:12:55|112=synchronized?|10=040|
2024-02-14 14:12:55.588 [29] [FixSender] (DEBUG) Receiving 8=FIX.4.4|9=78|35=0|34=7|49=DMA_HUB|56=FIXCLIENT1|52=20240214-13:12:55.588|112=synchronized?|10=254|
2024-02-14 14:13:03.583 [33] [FixSender] (DEBUG) Sending 8=FIX.4.4|9=192|35=D|49=FIXCLIENT1|56=DMA_HUB|34=8|52=20240214-13:13:03|21=1|11=HS_17079163830|38=4702|55=E:07G@XETR|54=2|60=20240214-13:13:03|40=2|59=0|44=197|48=US3390411052|22=4|15=EUR|207=XETR|1=bram_123|10=080|
2024-02-14 14:13:03.584 [29] [FixSender] (DEBUG) Receiving 8=FIX.4.4|9=234|35=8|34=8|49=DMA_HUB|56=FIXCLIENT1|52=20240214-13:13:03.584|11=HS_17079163830|37=FXfJfZYtO|54=2|40=2|59=0|17=202402143|150=A|39=A|38=4702|151=4702|14=0|6=0|44=197|60=20240214-13:13:03.000|22=4|48=US3390411052|207=XETR|15=EUR|55=[N/A]|10=015|
2024-02-14 14:13:25.540 [29] [FixSender] (DEBUG) Receiving 8=FIX.4.4|9=60|35=0|34=9|49=DMA_HUB|56=FIXCLIENT1|52=20240214-13:13:25.539|10=192|
2024-02-14 14:13:33.592 [30] [FixSender] (DEBUG) Sending 8=FIX.4.4|9=56|35=0|49=FIXCLIENT1|56=DMA_HUB|34=9|52=20240214-13:13:33|10=245|
2024-02-14 14:13:55.495 [29] [FixSender] (DEBUG) Receiving 8=FIX.4.4|9=61|35=0|34=10|49=DMA_HUB|56=FIXCLIENT1|52=20240214-13:13:55.495|10=237|
2024-02-14 14:14:03.605 [30] [FixSender] (DEBUG) Sending 8=FIX.4.4|9=57|35=0|49=FIXCLIENT1|56=DMA_HUB|34=10|52=20240214-13:14:03|10=028|
2024-02-14 14:14:25.443 [29] [FixSender] (DEBUG) Receiving 8=FIX.4.4|9=61|35=0|34=11|49=DMA_HUB|56=FIXCLIENT1|52=20240214-13:14:25.443|10=229|
2024-02-14 14:14:29.922 [34] [FixSender] (DEBUG) Sending 8=FIX.4.4|9=193|35=D|49=FIXCLIENT1|56=DMA_HUB|34=11|52=20240214-13:14:29|21=1|11=HS_17079164690|38=10|55=FBTP202106@XEUR|54=2|60=20240214-13:14:29|40=2|59=0|44=3910|15=EUR|207=XEUR|109=fidameur|1=fidameur_123|10=042|
2024-02-14 14:14:30.044 [29] [FixSender] (DEBUG) Receiving 8=FIX.4.4|9=238|35=8|34=12|49=DMA_HUB|56=FIXCLIENT1|52=20240214-13:14:30.043|11=HS_17079164690|37=NONE|38=10|151=0|14=0|17=202402144|150=8|39=8|6=0|44=3910|54=2|40=2|59=0|55=FBTP202106@XEUR|207=XEUR|15=EUR|58=Cannot resolve instrument 55=FBTP202106@XEUR|10=032|
2024-02-14 14:14:55.394 [29] [FixSender] (DEBUG) Receiving 8=FIX.4.4|9=61|35=0|34=13|49=DMA_HUB|56=FIXCLIENT1|52=20240214-13:14:55.393|10=238|
2024-02-14 14:14:59.924 [30] [FixSender] (DEBUG) Sending 8=FIX.4.4|9=57|35=0|49=FIXCLIENT1|56=DMA_HUB|34=12|52=20240214-13:14:59|10=041|
2024-02-14 14:15:09.048 [35] [FixSender] (DEBUG) Sending 8=FIX.4.4|9=213|35=D|49=FIXCLIENT1|56=DMA_HUB|34=13|52=20240214-13:15:09|21=1|11=HS_17079165091|38=2219|55=PERNOD RICARD|54=2|60=20240214-13:15:09|40=2|59=0|44=190|48=FR0000120693|22=4|15=EUR|207=XPAR|109=fidameur|1=fidameur_123|10=031|
2024-02-14 14:15:09.052 [29] [FixSender] (DEBUG) Receiving 8=FIX.4.4|9=276|35=8|34=14|49=DMA_HUB|56=FIXCLIENT1|52=20240214-13:15:09.051|11=HS_17079165091|37=NONE|38=2219|151=0|14=0|17=202402145|150=8|39=8|6=0|44=190|54=2|40=2|59=0|22=4|48=FR0000120693|55=PERNOD RICARD|207=XPAR|15=EUR|58=Cannot resolve instrument 22=4;48=FR0000120693;207=XPAR;15=EUR|10=001|
2024-02-14 14:15:18.974 [36] [FixSender] (DEBUG) Sending 8=FIX.4.4|9=210|35=D|49=FIXCLIENT1|56=DMA_HUB|34=14|52=20240214-13:15:18|21=1|11=HS_17079165182|38=2461|55=ORANGE|54=2|60=20240214-13:15:18|40=2|59=0|44=9|48=FR0000133308|22=4|15=EUR|207=XPAR|1=bram_123|109=bram|58=BROKERTOTO|10=056|
2024-02-14 14:15:18.976 [29] [FixSender] (DEBUG) Receiving 8=FIX.4.4|9=267|35=8|34=15|49=DMA_HUB|56=FIXCLIENT1|52=20240214-13:15:18.975|11=HS_17079165182|37=NONE|38=2461|151=0|14=0|17=202402146|150=8|39=8|6=0|44=9|54=2|40=2|59=0|22=4|48=FR0000133308|55=ORANGE|207=XPAR|15=EUR|58=Cannot resolve instrument 22=4;48=FR0000133308;207=XPAR;15=EUR|10=202|
2024-02-14 14:15:25.354 [29] [FixSender] (DEBUG) Receiving 8=FIX.4.4|9=61|35=0|34=16|49=DMA_HUB|56=FIXCLIENT1|52=20240214-13:15:25.353|10=235|
2024-02-14 14:15:48.975 [30] [FixSender] (DEBUG) Sending 8=FIX.4.4|9=57|35=0|49=FIXCLIENT1|56=DMA_HUB|34=15|52=20240214-13:15:48|10=043|
2024-02-14 14:15:55.301 [29] [FixSender] (DEBUG) Receiving 8=FIX.4.4|9=61|35=0|34=17|49=DMA_HUB|56=FIXCLIENT1|52=20240214-13:15:55.300|10=231|
2024-02-14 14:16:18.986 [30] [FixSender] (DEBUG) Sending 8=FIX.4.4|9=57|35=0|49=FIXCLIENT1|56=DMA_HUB|34=16|52=20240214-13:16:18|10=042|
2024-02-14 14:16:25.261 [29] [FixSender] (DEBUG) Receiving 8=FIX.4.4|9=61|35=0|34=18|49=DMA_HUB|56=FIXCLIENT1|52=20240214-13:16:25.260|10=235|
2024-02-14 14:16:44.015 [37] [FixSender] (DEBUG) Sending 8=FIX.4.4|9=192|35=D|49=FIXCLIENT1|56=DMA_HUB|34=17|52=20240214-13:16:44|21=1|11=HS_17079166043|38=552|55=E:07G@XETR|54=2|60=20240214-13:16:44|40=2|59=0|44=197|48=US3390411052|22=4|15=EUR|207=XETR|1=bram_123|10=094|
2024-02-14 14:16:44.017 [29] [FixSender] (DEBUG) Receiving 8=FIX.4.4|9=233|35=8|34=19|49=DMA_HUB|56=FIXCLIENT1|52=20240214-13:16:44.016|11=HS_17079166043|37=FXgJfZYtO|54=2|40=2|59=0|17=202402147|150=A|39=A|38=552|151=552|14=0|6=0|44=197|60=20240214-13:16:44.000|22=4|48=US3390411052|207=XETR|15=EUR|55=[N/A]|10=232|
2024-02-14 14:16:55.211 [29] [FixSender] (DEBUG) Receiving 8=FIX.4.4|9=61|35=0|34=20|49=DMA_HUB|56=FIXCLIENT1|52=20240214-13:16:55.210|10=226|
2024-02-14 14:17:14.029 [30] [FixSender] (DEBUG) Sending 8=FIX.4.4|9=57|35=0|49=FIXCLIENT1|56=DMA_HUB|34=18|52=20240214-13:17:14|10=041|
2024-02-14 14:17:25.162 [29] [FixSender] (DEBUG) Receiving 8=FIX.4.4|9=61|35=0|34=21|49=DMA_HUB|56=FIXCLIENT1|52=20240214-13:17:25.162|10=231|
2024-02-14 14:17:44.041 [30] [FixSender] (DEBUG) Sending 8=FIX.4.4|9=57|35=0|49=FIXCLIENT1|56=DMA_HUB|34=19|52=20240214-13:17:44|10=045|
2024-02-14 14:17:53.994 [38] [FixSender] (DEBUG) Sending 8=FIX.4.4|9=211|35=D|49=FIXCLIENT1|56=DMA_HUB|34=20|52=20240214-13:17:53|21=3|11=HS_17079166734|38=11847|55=AIR LIQUIDE|54=2|60=20240214-13:17:53|40=2|59=1|44=143.08|48=FR0000120073|22=4|15=EUR|207=XPAR|432=20221116|109=axa_im|10=043|
2024-02-14 14:17:53.994 [29] [FixSender] (DEBUG) Receiving 8=FIX.4.4|9=278|35=8|34=22|49=DMA_HUB|56=FIXCLIENT1|52=20240214-13:17:53.994|11=HS_17079166734|37=NONE|38=11847|151=0|14=0|17=202402148|150=8|39=8|6=0|44=143.08|54=2|40=2|59=1|22=4|48=FR0000120073|55=AIR LIQUIDE|207=XPAR|15=EUR|58=Cannot resolve instrument 22=4;48=FR0000120073;207=XPAR;15=EUR|10=067|
2024-02-14 14:17:55.113 [29] [FixSender] (DEBUG) Receiving 8=FIX.4.4|9=61|35=0|34=23|49=DMA_HUB|56=FIXCLIENT1|52=20240214-13:17:55.112|10=231|
2024-02-14 14:18:03.667 [39] [FixSender] (DEBUG) Sending 8=FIX.4.4|9=222|35=D|49=FIXCLIENT1|56=DMA_HUB|34=21|52=20240214-13:18:03|21=3|11=HS_17079166835|38=2626|55=EDENRED|54=1|60=20240214-13:18:03|40=2|59=1|44=51.18|48=FR0010908533|22=4|15=EUR|207=XPAR|432=20221116|109=fidameur|1=fidameur_123|10=078|
2024-02-14 14:18:03.670 [29] [FixSender] (DEBUG) Receiving 8=FIX.4.4|9=272|35=8|34=24|49=DMA_HUB|56=FIXCLIENT1|52=20240214-13:18:03.668|11=HS_17079166835|37=NONE|38=2626|151=0|14=0|17=202402149|150=8|39=8|6=0|44=51.18|54=1|40=2|59=1|22=4|48=FR0010908533|55=EDENRED|207=XPAR|15=EUR|58=Cannot resolve instrument 22=4;48=FR0010908533;207=XPAR;15=EUR|10=227|
2024-02-14 14:18:25.063 [29] [FixSender] (DEBUG) Receiving 8=FIX.4.4|9=61|35=0|34=25|49=DMA_HUB|56=FIXCLIENT1|52=20240214-13:18:25.063|10=236|
2024-02-14 14:18:33.668 [30] [FixSender] (DEBUG) Sending 8=FIX.4.4|9=57|35=0|49=FIXCLIENT1|56=DMA_HUB|34=22|52=20240214-13:18:33|10=038|
2024-02-14 14:18:55.019 [29] [FixSender] (DEBUG) Receiving 8=FIX.4.4|9=61|35=0|34=26|49=DMA_HUB|56=FIXCLIENT1|52=20240214-13:18:55.019|10=241|
2024-02-14 14:19:03.679 [30] [FixSender] (DEBUG) Sending 8=FIX.4.4|9=57|35=0|49=FIXCLIENT1|56=DMA_HUB|34=23|52=20240214-13:19:03|10=037|
2024-02-14 14:19:24.965 [29] [FixSender] (DEBUG) Receiving 8=FIX.4.4|9=61|35=0|34=27|49=DMA_HUB|56=FIXCLIENT1|52=20240214-13:19:24.965|10=249|
2024-02-14 14:19:33.685 [30] [FixSender] (DEBUG) Sending 8=FIX.4.4|9=57|35=0|49=FIXCLIENT1|56=DMA_HUB|34=24|52=20240214-13:19:33|10=041|
2024-02-14 14:19:54.918 [29] [FixSender] (DEBUG) Receiving 8=FIX.4.4|9=61|35=0|34=28|49=DMA_HUB|56=FIXCLIENT1|52=20240214-13:19:54.918|10=251|
2024-02-14 14:20:03.690 [30] [FixSender] (DEBUG) Sending 8=FIX.4.4|9=57|35=0|49=FIXCLIENT1|56=DMA_HUB|34=25|52=20240214-13:20:03|10=031|
2024-02-14 14:20:24.877 [29] [FixSender] (DEBUG) Receiving 8=FIX.4.4|9=61|35=0|34=29|49=DMA_HUB|56=FIXCLIENT1|52=20240214-13:20:24.877|10=245|
2024-02-14 14:20:33.700 [30] [FixSender] (DEBUG) Sending 8=FIX.4.4|9=57|35=0|49=FIXCLIENT1|56=DMA_HUB|34=26|52=20240214-13:20:33|10=035|
2024-02-14 14:20:54.826 [29] [FixSender] (DEBUG) Receiving 8=FIX.4.4|9=61|35=0|34=30|49=DMA_HUB|56=FIXCLIENT1|52=20240214-13:20:54.825|10=233|
2024-02-14 14:21:03.715 [30] [FixSender] (DEBUG) Sending 8=FIX.4.4|9=57|35=0|49=FIXCLIENT1|56=DMA_HUB|34=27|52=20240214-13:21:03|10=034|
2024-02-14 14:21:24.775 [29] [FixSender] (DEBUG) Receiving 8=FIX.4.4|9=61|35=0|34=31|49=DMA_HUB|56=FIXCLIENT1|52=20240214-13:21:24.775|10=236|
2024-02-14 14:21:33.721 [30] [FixSender] (DEBUG) Sending 8=FIX.4.4|9=57|35=0|49=FIXCLIENT1|56=DMA_HUB|34=28|52=20240214-13:21:33|10=038|
2024-02-14 14:21:54.730 [29] [FixSender] (DEBUG) Receiving 8=FIX.4.4|9=61|35=0|34=32|49=DMA_HUB|56=FIXCLIENT1|52=20240214-13:21:54.729|10=239|
2024-02-14 14:22:03.735 [30] [FixSender] (DEBUG) Sending 8=FIX.4.4|9=57|35=0|49=FIXCLIENT1|56=DMA_HUB|34=29|52=20240214-13:22:03|10=037|
2024-02-14 14:22:22.639 [40] [FixSender] (DEBUG) Sending 8=FIX.4.4|9=192|35=D|49=FIXCLIENT1|56=DMA_HUB|34=30|52=20240214-13:22:22|21=1|11=HS_17079169426|38=165|55=E:07G@XETR|54=2|60=20240214-13:22:22|40=2|59=0|44=197|48=US3390411052|22=4|15=EUR|207=XETR|1=bram_123|10=083|
2024-02-14 14:22:22.642 [29] [FixSender] (DEBUG) Receiving 8=FIX.4.4|9=234|35=8|34=33|49=DMA_HUB|56=FIXCLIENT1|52=20240214-13:22:22.640|11=HS_17079169426|37=FXhJfZYtO|54=2|40=2|59=0|17=2024021410|150=A|39=A|38=165|151=165|14=0|6=0|44=197|60=20240214-13:22:22.000|22=4|48=US3390411052|207=XETR|15=EUR|55=[N/A]|10=013|
2024-02-14 14:22:24.676 [29] [FixSender] (DEBUG) Receiving 8=FIX.4.4|9=61|35=0|34=34|49=DMA_HUB|56=FIXCLIENT1|52=20240214-13:22:24.675|10=239|
2024-02-14 14:22:36.338 [41] [FixSender] (DEBUG) Sending 8=FIX.4.4|9=200|35=D|49=FIXCLIENT1|56=DMA_HUB|34=31|52=20240214-13:22:36|21=1|11=HS_17079169567|38=3671|55=E:07G@XETR|54=2|60=20240214-13:22:36|40=2|59=0|44=197.111111|48=US3390411052|22=4|15=EUR|207=XETR|1=bram_123|10=227|
2024-02-14 14:22:36.340 [29] [FixSender] (DEBUG) Receiving 8=FIX.4.4|9=243|35=8|34=35|49=DMA_HUB|56=FIXCLIENT1|52=20240214-13:22:36.339|11=HS_17079169567|37=FXiJfZYtO|54=2|40=2|59=0|17=2024021411|150=A|39=A|38=3671|151=3671|14=0|6=0|44=197.111111|60=20240214-13:22:36.000|22=4|48=US3390411052|207=XETR|15=EUR|55=[N/A]|10=228|
2024-02-14 14:22:54.635 [29] [FixSender] (DEBUG) Receiving 8=FIX.4.4|9=61|35=0|34=36|49=DMA_HUB|56=FIXCLIENT1|52=20240214-13:22:54.635|10=240|
2024-02-14 14:23:06.344 [30] [FixSender] (DEBUG) Sending 8=FIX.4.4|9=57|35=0|49=FIXCLIENT1|56=DMA_HUB|34=32|52=20240214-13:23:06|10=035|
2024-02-14 14:23:24.582 [29] [FixSender] (DEBUG) Receiving 8=FIX.4.4|9=61|35=0|34=37|49=DMA_HUB|56=FIXCLIENT1|52=20240214-13:23:24.582|10=240|
2024-02-14 14:23:36.348 [30] [FixSender] (DEBUG) Sending 8=FIX.4.4|9=57|35=0|49=FIXCLIENT1|56=DMA_HUB|34=33|52=20240214-13:23:36|10=039|
2024-02-14 14:23:54.538 [29] [FixSender] (DEBUG) Receiving 8=FIX.4.4|9=61|35=0|34=38|49=DMA_HUB|56=FIXCLIENT1|52=20240214-13:23:54.537|10=244|
2024-02-14 14:24:06.350 [30] [FixSender] (DEBUG) Sending 8=FIX.4.4|9=57|35=0|49=FIXCLIENT1|56=DMA_HUB|34=34|52=20240214-13:24:06|10=038|
2024-02-14 14:24:24.487 [29] [FixSender] (DEBUG) Receiving 8=FIX.4.4|9=61|35=0|34=39|49=DMA_HUB|56=FIXCLIENT1|52=20240214-13:24:24.487|10=247|
2024-02-14 14:24:36.359 [30] [FixSender] (DEBUG) Sending 8=FIX.4.4|9=57|35=0|49=FIXCLIENT1|56=DMA_HUB|34=35|52=20240214-13:24:36|10=042|
2024-02-14 14:24:54.433 [29] [FixSender] (DEBUG) Receiving 8=FIX.4.4|9=61|35=0|34=40|49=DMA_HUB|56=FIXCLIENT1|52=20240214-13:24:54.433|10=233|
2024-02-14 14:25:06.365 [30] [FixSender] (DEBUG) Sending 8=FIX.4.4|9=57|35=0|49=FIXCLIENT1|56=DMA_HUB|34=36|52=20240214-13:25:06|10=041|
2024-02-14 14:25:24.389 [29] [FixSender] (DEBUG) Receiving 8=FIX.4.4|9=61|35=0|34=41|49=DMA_HUB|56=FIXCLIENT1|52=20240214-13:25:24.389|10=242|
2024-02-14 14:25:36.368 [30] [FixSender] (DEBUG) Sending 8=FIX.4.4|9=57|35=0|49=FIXCLIENT1|56=DMA_HUB|34=37|52=20240214-13:25:36|10=045|
2024-02-14 14:25:54.345 [29] [FixSender] (DEBUG) Receiving 8=FIX.4.4|9=61|35=0|34=42|49=DMA_HUB|56=FIXCLIENT1|52=20240214-13:25:54.343|10=236|
2024-02-14 14:26:06.382 [30] [FixSender] (DEBUG) Sending 8=FIX.4.4|9=57|35=0|49=FIXCLIENT1|56=DMA_HUB|34=38|52=20240214-13:26:06|10=044|
2024-02-14 14:26:24.294 [29] [FixSender] (DEBUG) Receiving 8=FIX.4.4|9=61|35=0|34=43|49=DMA_HUB|56=FIXCLIENT1|52=20240214-13:26:24.293|10=239|
2024-02-14 14:26:36.392 [30] [FixSender] (DEBUG) Sending 8=FIX.4.4|9=57|35=0|49=FIXCLIENT1|56=DMA_HUB|34=39|52=20240214-13:26:36|10=048|
2024-02-14 14:26:53.639 [42] [FixSender] (DEBUG) Sending 8=FIX.4.4|9=205|35=D|49=FIXCLIENT1|56=DMA_HUB|34=40|52=20240214-13:26:53|21=1|11=HS_17079172130|38=4361|55=F:1EAD\F22@XEUR|54=2|60=20240214-13:26:53|40=2|59=0|44=197.111111|48=US3390411052|22=4|15=EUR|207=XEUR|1=bram_123|10=045|
2024-02-14 14:26:53.647 [29] [FixSender] (DEBUG) Receiving 8=FIX.4.4|9=286|35=8|34=44|49=DMA_HUB|56=FIXCLIENT1|52=20240214-13:26:53.646|11=HS_17079172130|37=NONE|38=4361|151=0|14=0|17=2024021412|150=8|39=8|6=0|44=197.111111|54=2|40=2|59=0|22=4|48=US3390411052|55=F:1EAD\F22@XEUR|207=XEUR|15=EUR|58=Cannot resolve instrument 22=4;48=US3390411052;207=XEUR;15=EUR|10=057|
2024-02-14 14:26:54.254 [29] [FixSender] (DEBUG) Receiving 8=FIX.4.4|9=61|35=0|34=45|49=DMA_HUB|56=FIXCLIENT1|52=20240214-13:26:54.253|10=240|
2024-02-14 14:27:21.437 [43] [FixSender] (DEBUG) Sending 8=FIX.4.4|9=204|35=D|49=FIXCLIENT1|56=DMA_HUB|34=41|52=20240214-13:27:21|21=1|11=HS_17079172418|38=413|55=F:1EAD\F22@XEUR|54=2|60=20240214-13:27:21|40=2|59=0|44=197.111111|48=US3390411052|22=4|15=EUR|207=XEUR|1=bram_123|10=248|
2024-02-14 14:27:21.444 [29] [FixSender] (DEBUG) Receiving 8=FIX.4.4|9=285|35=8|34=46|49=DMA_HUB|56=FIXCLIENT1|52=20240214-13:27:21.443|11=HS_17079172418|37=NONE|38=413|151=0|14=0|17=2024021413|150=8|39=8|6=0|44=197.111111|54=2|40=2|59=0|22=4|48=US3390411052|55=F:1EAD\F22@XEUR|207=XEUR|15=EUR|58=Cannot resolve instrument 22=4;48=US3390411052;207=XEUR;15=EUR|10=005|
2024-02-14 14:27:24.197 [29] [FixSender] (DEBUG) Receiving 8=FIX.4.4|9=61|35=0|34=47|49=DMA_HUB|56=FIXCLIENT1|52=20240214-13:27:24.196|10=246|
2024-02-14 14:29:05.379 [1] [Fixsender] (INFO) (c) 2001-2011 ullink SAS. FixSender. Release 1.11.
2024-02-14 14:29:09.739 [29] [FixSender] (INFO) try to connect to : localhost port :12345
2024-02-14 14:29:09.763 [29] [FixSender] (INFO) physical cnx initiated
2024-02-14 14:29:09.778 [29] [FixSender] (DEBUG) Sending 8=FIX.4.4|9=87|35=A|49=FIXCLIENT1|56=DMA_HUB|34=42|52=20240214-13:29:09|98=0|108=30|95=9|96=null/null|10=145|
2024-02-14 14:29:09.780 [29] [FixSender] (DEBUG) Receiving 8=FIX.4.4|9=73|35=A|34=48|49=DMA_HUB|56=FIXCLIENT1|52=20240214-13:29:09.779|108=30|98=0|10=048|
2024-02-14 14:29:09.782 [29] [FixSender] (WARNING) The Fix connection is open...
2024-02-14 14:29:09.786 [29] [FixSender] (DEBUG) Sending 8=FIX.4.4|9=75|35=1|49=FIXCLIENT1|56=DMA_HUB|34=43|52=20240214-13:29:09|112=synchronized?|10=096|
2024-02-14 14:29:09.786 [29] [FixSender] (DEBUG) Receiving 8=FIX.4.4|9=79|35=0|34=49|49=DMA_HUB|56=FIXCLIENT1|52=20240214-13:29:09.786|112=synchronized?|10=060|
2024-02-14 14:29:12.442 [32] [FixSender] (DEBUG) Sending 8=FIX.4.4|9=193|35=D|49=FIXCLIENT1|56=DMA_HUB|34=44|52=20240214-13:29:12|21=1|11=HS_17079173520|38=1915|55=E:07G@XETR|54=2|60=20240214-13:29:12|40=2|59=0|44=197|48=US3390411052|22=4|15=EUR|207=XETR|1=bram_123|10=143|
2024-02-14 14:29:12.445 [29] [FixSender] (DEBUG) Receiving 8=FIX.4.4|9=236|35=8|34=50|49=DMA_HUB|56=FIXCLIENT1|52=20240214-13:29:12.443|11=HS_17079173520|37=FXjJfZYtO|54=2|40=2|59=0|17=2024021414|150=A|39=A|38=1915|151=1915|14=0|6=0|44=197|60=20240214-13:29:12.000|22=4|48=US3390411052|207=XETR|15=EUR|55=[N/A]|10=127|
2024-02-14 14:29:39.752 [29] [FixSender] (DEBUG) Receiving 8=FIX.4.4|9=61|35=0|34=51|49=DMA_HUB|56=FIXCLIENT1|52=20240214-13:29:39.751|10=246|
2024-02-14 14:29:42.453 [30] [FixSender] (DEBUG) Sending 8=FIX.4.4|9=57|35=0|49=FIXCLIENT1|56=DMA_HUB|34=45|52=20240214-13:29:42|10=045|
2024-02-14 14:29:51.417 [29] [FixSender] (INFO) physical cnx finished Connection reset by peer
2024-02-14 14:29:51.417 [29] [FixSender] (WARNING) Disconnected
2024-02-14 14:36:09.851 [33] [FixSender] (INFO) try to connect to : localhost port :12345
2024-02-14 14:36:09.852 [33] [FixSender] (INFO) physical cnx initiated
2024-02-14 14:36:09.855 [33] [FixSender] (DEBUG) Sending 8=FIX.4.4|9=87|35=A|49=FIXCLIENT1|56=DMA_HUB|34=46|52=20240214-13:36:09|98=0|108=30|95=9|96=null/null|10=147|
2024-02-14 14:36:09.862 [33] [FixSender] (DEBUG) Receiving 8=FIX.4.4|9=72|35=A|34=1|49=DMA_HUB|56=FIXCLIENT1|52=20240214-13:36:09.858|108=30|98=0|10=240|
2024-02-14 14:36:09.863 [33] [FixSender] (DEBUG) Sending 8=FIX.4.4|9=108|35=5|49=FIXCLIENT1|56=DMA_HUB|34=47|52=20240214-13:36:09|58=MsgSeqNum expected 52, but MsgSeqNum received 1|10=117|
2024-02-14 14:36:09.865 [33] [FixSender] (INFO) physical cnx finished Connection reset by peer
2024-02-14 14:36:09.866 [33] [FixSender] (WARNING) Disconnected
2024-02-14 14:36:12.589 [37] [FixSender] (INFO) try to connect to : localhost port :12345
2024-02-14 14:36:12.596 [37] [FixSender] (INFO) physical cnx initiated
2024-02-14 14:36:12.599 [37] [FixSender] (DEBUG) Sending 8=FIX.4.4|9=86|35=A|49=FIXCLIENT1|56=DMA_HUB|34=1|52=20240214-13:36:12|98=0|108=30|95=9|96=null/null|10=083|
2024-02-14 14:36:12.607 [37] [FixSender] (DEBUG) Receiving 8=FIX.4.4|9=72|35=A|34=4|49=DMA_HUB|56=FIXCLIENT1|52=20240214-13:36:12.599|108=30|98=0|10=239|
2024-02-14 14:36:12.608 [37] [FixSender] (WARNING) The Fix connection is open...
2024-02-14 14:36:12.615 [37] [FixSender] (DEBUG) Sending 8=FIX.4.4|9=65|35=2|49=FIXCLIENT1|56=DMA_HUB|34=2|52=20240214-13:36:12|7=1|16=0|10=109|
2024-02-14 14:36:12.619 [37] [FixSender] (DEBUG) Receiving 8=FIX.4.4|9=102|35=4|34=1|49=DMA_HUB|56=FIXCLIENT1|52=20240214-13:36:12.618|43=Y|122=20240214-13:36:12.618|36=5|123=Y|10=239|
2024-02-14 14:36:15.946 [40] [FixSender] (DEBUG) Sending 8=FIX.4.4|9=192|35=D|49=FIXCLIENT1|56=DMA_HUB|34=3|52=20240214-13:36:15|21=1|11=HS_17079177751|38=1513|55=E:07G@XETR|54=2|60=20240214-13:36:15|40=2|59=0|44=197|48=US3390411052|22=4|15=EUR|207=XETR|1=bram_123|10=095|
2024-02-14 14:36:15.956 [37] [FixSender] (DEBUG) Receiving 8=FIX.4.4|9=234|35=8|34=5|49=DMA_HUB|56=FIXCLIENT1|52=20240214-13:36:15.955|11=HS_17079177751|37=FXj671qtO|54=2|40=2|59=0|17=202402141|150=A|39=A|38=1513|151=1513|14=0|6=0|44=197|60=20240214-13:36:15.000|22=4|48=US3390411052|207=XETR|15=EUR|55=[N/A]|10=205|
2024-02-14 14:36:42.568 [37] [FixSender] (DEBUG) Receiving 8=FIX.4.4|9=60|35=0|34=6|49=DMA_HUB|56=FIXCLIENT1|52=20240214-13:36:42.567|10=194|
2024-02-14 14:36:45.957 [38] [FixSender] (DEBUG) Sending 8=FIX.4.4|9=56|35=0|49=FIXCLIENT1|56=DMA_HUB|34=4|52=20240214-13:36:45|10=248|
2024-02-14 14:37:04.269 [37] [FixSender] (INFO) physical cnx finished Connection reset by peer
2024-02-14 14:37:04.269 [37] [FixSender] (WARNING) Disconnected
2024-02-14 14:54:24.186 [42] [FixSender] (INFO) try to connect to : localhost port :12345
2024-02-14 14:54:24.187 [42] [FixSender] (INFO) physical cnx initiated
2024-02-14 14:54:24.189 [42] [FixSender] (DEBUG) Sending 8=FIX.4.4|9=86|35=A|49=FIXCLIENT1|56=DMA_HUB|34=1|52=20240214-13:54:24|98=0|108=30|95=9|96=null/null|10=086|
2024-02-14 14:54:24.195 [42] [FixSender] (DEBUG) Receiving 8=FIX.4.4|9=72|35=A|34=1|49=DMA_HUB|56=FIXCLIENT1|52=20240214-13:54:24.192|108=30|98=0|10=228|
2024-02-14 14:54:24.195 [42] [FixSender] (WARNING) The Fix connection is open...
2024-02-14 14:54:24.199 [42] [FixSender] (DEBUG) Sending 8=FIX.4.4|9=74|35=1|49=FIXCLIENT1|56=DMA_HUB|34=2|52=20240214-13:54:24|112=synchronized?|10=037|
2024-02-14 14:54:24.202 [42] [FixSender] (DEBUG) Receiving 8=FIX.4.4|9=78|35=0|34=2|49=DMA_HUB|56=FIXCLIENT1|52=20240214-13:54:24.201|112=synchronized?|10=233|
2024-02-14 14:54:27.231 [45] [FixSender] (DEBUG) Sending 8=FIX.4.4|9=192|35=D|49=FIXCLIENT1|56=DMA_HUB|34=3|52=20240214-13:54:27|21=1|11=HS_17079188672|38=4799|55=E:07G@XETR|54=2|60=20240214-13:54:27|40=2|59=0|44=197|48=US3390411052|22=4|15=EUR|207=XETR|1=bram_123|10=124|
2024-02-14 14:54:27.342 [42] [FixSender] (DEBUG) Receiving 8=FIX.4.4|9=234|35=8|34=3|49=DMA_HUB|56=FIXCLIENT1|52=20240214-13:54:27.341|11=HS_17079188672|37=FXDS9H2uO|54=2|40=2|59=0|17=202402141|150=A|39=A|38=4799|151=4799|14=0|6=0|44=197|60=20240214-13:54:27.000|22=4|48=US3390411052|207=XETR|15=EUR|55=[N/A]|10=194|
2024-02-14 14:54:54.151 [42] [FixSender] (DEBUG) Receiving 8=FIX.4.4|9=60|35=0|34=4|49=DMA_HUB|56=FIXCLIENT1|52=20240214-13:54:54.151|10=184|
2024-02-14 14:54:57.240 [43] [FixSender] (DEBUG) Sending 8=FIX.4.4|9=56|35=0|49=FIXCLIENT1|56=DMA_HUB|34=4|52=20240214-13:54:57|10=251|
2024-02-14 14:55:24.114 [42] [FixSender] (DEBUG) Receiving 8=FIX.4.4|9=60|35=0|34=5|49=DMA_HUB|56=FIXCLIENT1|52=20240214-13:55:24.113|10=181|
2024-02-14 14:55:27.248 [43] [FixSender] (DEBUG) Sending 8=FIX.4.4|9=56|35=0|49=FIXCLIENT1|56=DMA_HUB|34=5|52=20240214-13:55:27|10=250|
2024-02-14 14:55:54.065 [42] [FixSender] (DEBUG) Receiving 8=FIX.4.4|9=60|35=0|34=6|49=DMA_HUB|56=FIXCLIENT1|52=20240214-13:55:54.064|10=190|
2024-02-14 14:55:57.254 [43] [FixSender] (DEBUG) Sending 8=FIX.4.4|9=56|35=0|49=FIXCLIENT1|56=DMA_HUB|34=6|52=20240214-13:55:57|10=254|
2024-02-14 14:56:19.364 [42] [FixSender] (DEBUG) Receiving 8=FIX.4.4|9=60|35=5|34=7|49=DMA_HUB|56=FIXCLIENT1|52=20240214-13:56:19.362|10=199|
2024-02-14 14:56:19.365 [42] [FixSender] (DEBUG) Sending 8=FIX.4.4|9=78|35=5|49=FIXCLIENT1|56=DMA_HUB|34=7|52=20240214-13:56:19|58=Replying to logout|10=185|
2024-02-14 14:56:19.365 [42] [FixSender] (WARNING) The Fix connection is close...
2024-02-14 14:56:19.367 [42] [FixSender] (INFO) physical cnx finished Connection reset by peer
2024-02-14 14:56:19.367 [42] [FixSender] (WARNING) Disconnected
2024-02-14 14:56:57.934 [46] [FixSender] (INFO) try to connect to : localhost port :12345
2024-02-14 14:56:57.934 [46] [FixSender] (INFO) physical cnx initiated
2024-02-14 14:56:57.934 [46] [FixSender] (DEBUG) Sending 8=FIX.4.4|9=86|35=A|49=FIXCLIENT1|56=DMA_HUB|34=8|52=20240214-13:56:57|98=0|108=30|95=9|96=null/null|10=101|
2024-02-14 14:56:57.934 [46] [FixSender] (DEBUG) Receiving 8=FIX.4.4|9=72|35=A|34=8|49=DMA_HUB|56=FIXCLIENT1|52=20240214-13:56:57.934|108=30|98=0|10=247|
2024-02-14 14:56:57.934 [46] [FixSender] (WARNING) The Fix connection is open...
2024-02-14 14:56:57.934 [46] [FixSender] (DEBUG) Sending 8=FIX.4.4|9=74|35=1|49=FIXCLIENT1|56=DMA_HUB|34=9|52=20240214-13:56:57|112=synchronized?|10=052|
2024-02-14 14:56:57.952 [46] [FixSender] (DEBUG) Receiving 8=FIX.4.4|9=78|35=0|34=9|49=DMA_HUB|56=FIXCLIENT1|52=20240214-13:56:57.950|112=synchronized?|10=003|
2024-02-14 14:56:59.720 [49] [FixSender] (DEBUG) Sending 8=FIX.4.4|9=193|35=D|49=FIXCLIENT1|56=DMA_HUB|34=10|52=20240214-13:56:59|21=1|11=HS_17079190193|38=2408|55=E:07G@XETR|54=2|60=20240214-13:56:59|40=2|59=0|44=197|48=US3390411052|22=4|15=EUR|207=XETR|1=bram_123|10=161|
2024-02-14 14:56:59.727 [46] [FixSender] (DEBUG) Receiving 8=FIX.4.4|9=235|35=8|34=10|49=DMA_HUB|56=FIXCLIENT1|52=20240214-13:56:59.726|11=HS_17079190193|37=FXnyeq3uO|54=2|40=2|59=0|17=202402142|150=A|39=A|38=2408|151=2408|14=0|6=0|44=197|60=20240214-13:56:59.000|22=4|48=US3390411052|207=XETR|15=EUR|55=[N/A]|10=134|
2024-02-14 14:57:27.894 [46] [FixSender] (DEBUG) Receiving 8=FIX.4.4|9=61|35=0|34=11|49=DMA_HUB|56=FIXCLIENT1|52=20240214-13:57:27.894|10=248|
2024-02-14 14:57:29.734 [47] [FixSender] (DEBUG) Sending 8=FIX.4.4|9=57|35=0|49=FIXCLIENT1|56=DMA_HUB|34=11|52=20240214-13:57:29|10=044|
2024-02-14 14:57:57.846 [46] [FixSender] (DEBUG) Receiving 8=FIX.4.4|9=61|35=0|34=12|49=DMA_HUB|56=FIXCLIENT1|52=20240214-13:57:57.846|10=249|
2024-02-14 14:57:59.746 [47] [FixSender] (DEBUG) Sending 8=FIX.4.4|9=57|35=0|49=FIXCLIENT1|56=DMA_HUB|34=12|52=20240214-13:57:59|10=048|
2024-02-14 14:58:27.803 [46] [FixSender] (DEBUG) Receiving 8=FIX.4.4|9=61|35=0|34=13|49=DMA_HUB|56=FIXCLIENT1|52=20240214-13:58:27.801|10=239|
2024-02-14 14:58:29.747 [47] [FixSender] (DEBUG) Sending 8=FIX.4.4|9=57|35=0|49=FIXCLIENT1|56=DMA_HUB|34=13|52=20240214-13:58:29|10=047|
2024-02-14 14:58:57.746 [46] [FixSender] (DEBUG) Receiving 8=FIX.4.4|9=61|35=0|34=14|49=DMA_HUB|56=FIXCLIENT1|52=20240214-13:58:57.746|10=251|
2024-02-14 14:58:59.750 [47] [FixSender] (DEBUG) Sending 8=FIX.4.4|9=57|35=0|49=FIXCLIENT1|56=DMA_HUB|34=14|52=20240214-13:58:59|10=051|
2024-02-14 14:59:27.697 [46] [FixSender] (DEBUG) Receiving 8=FIX.4.4|9=61|35=0|34=15|49=DMA_HUB|56=FIXCLIENT1|52=20240214-13:59:27.697|10=255|
2024-02-14 14:59:29.764 [47] [FixSender] (DEBUG) Sending 8=FIX.4.4|9=57|35=0|49=FIXCLIENT1|56=DMA_HUB|34=15|52=20240214-13:59:29|10=050|
2024-02-14 14:59:57.648 [46] [FixSender] (DEBUG) Receiving 8=FIX.4.4|9=61|35=0|34=16|49=DMA_HUB|56=FIXCLIENT1|52=20240214-13:59:57.648|10=255|
2024-02-14 14:59:59.778 [47] [FixSender] (DEBUG) Sending 8=FIX.4.4|9=57|35=0|49=FIXCLIENT1|56=DMA_HUB|34=16|52=20240214-13:59:59|10=054|
2024-02-14 15:00:27.609 [46] [FixSender] (DEBUG) Receiving 8=FIX.4.4|9=61|35=0|34=17|49=DMA_HUB|56=FIXCLIENT1|52=20240214-14:00:27.609|10=237|
2024-02-14 15:00:29.794 [47] [FixSender] (DEBUG) Sending 8=FIX.4.4|9=57|35=0|49=FIXCLIENT1|56=DMA_HUB|34=17|52=20240214-14:00:29|10=039|
2024-02-14 15:00:57.563 [46] [FixSender] (DEBUG) Receiving 8=FIX.4.4|9=61|35=0|34=18|49=DMA_HUB|56=FIXCLIENT1|52=20240214-14:00:57.563|10=240|
2024-02-14 15:00:59.795 [47] [FixSender] (DEBUG) Sending 8=FIX.4.4|9=57|35=0|49=FIXCLIENT1|56=DMA_HUB|34=18|52=20240214-14:00:59|10=043|
2024-02-14 15:01:27.505 [46] [FixSender] (DEBUG) Receiving 8=FIX.4.4|9=61|35=0|34=19|49=DMA_HUB|56=FIXCLIENT1|52=20240214-14:01:27.505|10=235|
2024-02-14 15:01:29.798 [47] [FixSender] (DEBUG) Sending 8=FIX.4.4|9=57|35=0|49=FIXCLIENT1|56=DMA_HUB|34=19|52=20240214-14:01:29|10=042|
2024-02-14 15:01:43.584 [46] [FixSender] (INFO) physical cnx finished Connection reset by peer
2024-02-14 15:01:43.584 [46] [FixSender] (WARNING) Disconnected
2024-02-14 15:11:13.602 [51] [FixSender] (INFO) try to connect to : localhost port :12345
2024-02-14 15:11:13.603 [51] [FixSender] (INFO) physical cnx initiated
2024-02-14 15:11:13.605 [51] [FixSender] (DEBUG) Sending 8=FIX.4.4|9=86|35=A|49=FIXCLIENT1|56=DMA_HUB|34=1|52=20240214-14:11:13|98=0|108=30|95=9|96=null/null|10=078|
2024-02-14 15:11:13.613 [51] [FixSender] (DEBUG) Receiving 8=FIX.4.4|9=129|35=5|34=7|49=DMA_HUB|56=FIXCLIENT1|52=20240214-14:11:13.608|58=Seqnum in logon is lower than expected. Expected 5 but received 1|10=198|
2024-02-14 15:11:13.614 [51] [FixSender] (INFO) physical cnx finished Connection reset by peer
2024-02-14 15:11:13.614 [51] [FixSender] (WARNING) Disconnected
2024-02-14 15:11:15.452 [52] [FixSender] (INFO) try to connect to : localhost port :12345
2024-02-14 15:11:15.454 [52] [FixSender] (INFO) physical cnx initiated
2024-02-14 15:11:15.461 [52] [FixSender] (DEBUG) Sending 8=FIX.4.4|9=86|35=A|49=FIXCLIENT1|56=DMA_HUB|34=2|52=20240214-14:11:15|98=0|108=30|95=9|96=null/null|10=081|
2024-02-14 15:11:15.468 [52] [FixSender] (DEBUG) Receiving 8=FIX.4.4|9=129|35=5|34=8|49=DMA_HUB|56=FIXCLIENT1|52=20240214-14:11:15.461|58=Seqnum in logon is lower than expected. Expected 5 but received 2|10=199|
2024-02-14 15:11:15.470 [52] [FixSender] (INFO) physical cnx finished Connection reset by peer
2024-02-14 15:11:15.471 [52] [FixSender] (WARNING) Disconnected
2024-02-14 15:11:16.301 [53] [FixSender] (INFO) try to connect to : localhost port :12345
2024-02-14 15:11:16.302 [53] [FixSender] (INFO) physical cnx initiated
2024-02-14 15:11:16.304 [53] [FixSender] (DEBUG) Sending 8=FIX.4.4|9=86|35=A|49=FIXCLIENT1|56=DMA_HUB|34=3|52=20240214-14:11:16|98=0|108=30|95=9|96=null/null|10=083|
2024-02-14 15:11:16.474 [53] [FixSender] (DEBUG) Receiving 8=FIX.4.4|9=129|35=5|34=9|49=DMA_HUB|56=FIXCLIENT1|52=20240214-14:11:16.471|58=Seqnum in logon is lower than expected. Expected 5 but received 3|10=203|
2024-02-14 15:11:16.477 [53] [FixSender] (INFO) physical cnx finished Connection reset by peer
2024-02-14 15:11:16.479 [53] [FixSender] (WARNING) Disconnected
2024-02-14 15:11:20.408 [54] [FixSender] (INFO) try to connect to : localhost port :12345
2024-02-14 15:11:20.409 [54] [FixSender] (INFO) physical cnx initiated
2024-02-14 15:11:20.411 [54] [FixSender] (DEBUG) Sending 8=FIX.4.4|9=86|35=A|49=FIXCLIENT1|56=DMA_HUB|34=4|52=20240214-14:11:20|98=0|108=30|95=9|96=null/null|10=079|
2024-02-14 15:11:20.414 [54] [FixSender] (DEBUG) Receiving 8=FIX.4.4|9=130|35=5|34=10|49=DMA_HUB|56=FIXCLIENT1|52=20240214-14:11:20.412|58=Seqnum in logon is lower than expected. Expected 5 but received 4|10=226|
2024-02-14 15:11:20.414 [54] [FixSender] (INFO) physical cnx finished Connection reset by peer
2024-02-14 15:11:20.415 [54] [FixSender] (WARNING) Disconnected
2024-02-14 15:11:20.894 [55] [FixSender] (INFO) try to connect to : localhost port :12345
2024-02-14 15:11:20.895 [55] [FixSender] (INFO) physical cnx initiated
2024-02-14 15:11:20.897 [55] [FixSender] (DEBUG) Sending 8=FIX.4.4|9=86|35=A|49=FIXCLIENT1|56=DMA_HUB|34=5|52=20240214-14:11:20|98=0|108=30|95=9|96=null/null|10=080|
2024-02-14 15:11:21.356 [56] [FixSender] (INFO) try to connect to : localhost port :12345
2024-02-14 15:11:21.357 [56] [FixSender] (INFO) physical cnx initiated
2024-02-14 15:11:21.364 [56] [FixSender] (DEBUG) Sending 8=FIX.4.4|9=86|35=A|49=FIXCLIENT1|56=DMA_HUB|34=6|52=20240214-14:11:21|98=0|108=30|95=9|96=null/null|10=082|
2024-02-14 15:11:21.415 [55] [FixSender] (DEBUG) Receiving 8=FIX.4.4|9=73|35=A|34=11|49=DMA_HUB|56=FIXCLIENT1|52=20240214-14:11:21.414|108=30|98=0|10=010|
2024-02-14 15:11:21.416 [55] [FixSender] (WARNING) The Fix connection is open...
2024-02-14 15:11:21.419 [55] [FixSender] (DEBUG) Sending 8=FIX.4.4|9=65|35=2|49=FIXCLIENT1|56=DMA_HUB|34=7|52=20240214-14:11:21|7=1|16=0|10=108|
2024-02-14 15:11:21.422 [56] [FixSender] (INFO) physical cnx finished Connection reset by peer
2024-02-14 15:11:21.422 [56] [FixSender] (WARNING) Disconnected
2024-02-14 15:11:21.424 [55] [FixSender] (INFO) physical cnx finished Connection reset by peer
2024-02-14 15:11:21.424 [55] [FixSender] (WARNING) Disconnected
2024-02-14 15:11:23.666 [59] [FixSender] (INFO) try to connect to : localhost port :12345
2024-02-14 15:11:23.667 [59] [FixSender] (INFO) physical cnx initiated
2024-02-14 15:11:23.671 [59] [FixSender] (DEBUG) Sending 8=FIX.4.4|9=86|35=A|49=FIXCLIENT1|56=DMA_HUB|34=8|52=20240214-14:11:23|98=0|108=30|95=9|96=null/null|10=086|
2024-02-14 15:11:23.680 [59] [FixSender] (INFO) physical cnx finished Connection reset by peer
2024-02-14 15:11:23.682 [59] [FixSender] (WARNING) Disconnected
2024-02-14 15:11:24.412 [60] [FixSender] (INFO) try to connect to : localhost port :12345
2024-02-14 15:11:24.413 [60] [FixSender] (INFO) physical cnx initiated
2024-02-14 15:11:24.415 [60] [FixSender] (DEBUG) Sending 8=FIX.4.4|9=86|35=A|49=FIXCLIENT1|56=DMA_HUB|34=9|52=20240214-14:11:24|98=0|108=30|95=9|96=null/null|10=088|
2024-02-14 15:11:24.687 [60] [FixSender] (INFO) physical cnx finished Connection reset by peer
2024-02-14 15:11:24.688 [60] [FixSender] (WARNING) Disconnected
2024-02-14 15:11:25.711 [61] [FixSender] (INFO) try to connect to : localhost port :12345
2024-02-14 15:11:25.711 [61] [FixSender] (INFO) physical cnx initiated
2024-02-14 15:11:25.713 [61] [FixSender] (DEBUG) Sending 8=FIX.4.4|9=87|35=A|49=FIXCLIENT1|56=DMA_HUB|34=10|52=20240214-14:11:25|98=0|108=30|95=9|96=null/null|10=130|
2024-02-14 15:11:25.715 [61] [FixSender] (INFO) physical cnx finished Connection reset by peer
2024-02-14 15:11:25.716 [61] [FixSender] (WARNING) Disconnected
2024-02-14 15:11:26.209 [62] [FixSender] (INFO) try to connect to : localhost port :12345
2024-02-14 15:11:26.210 [62] [FixSender] (INFO) physical cnx initiated
2024-02-14 15:11:26.214 [62] [FixSender] (DEBUG) Sending 8=FIX.4.4|9=87|35=A|49=FIXCLIENT1|56=DMA_HUB|34=11|52=20240214-14:11:26|98=0|108=30|95=9|96=null/null|10=132|
2024-02-14 15:11:26.452 [63] [FixSender] (INFO) try to connect to : localhost port :12345
2024-02-14 15:11:26.452 [63] [FixSender] (INFO) physical cnx initiated
2024-02-14 15:11:26.454 [63] [FixSender] (DEBUG) Sending 8=FIX.4.4|9=87|35=A|49=FIXCLIENT1|56=DMA_HUB|34=12|52=20240214-14:11:26|98=0|108=30|95=9|96=null/null|10=133|
2024-02-14 15:11:26.677 [64] [FixSender] (INFO) try to connect to : localhost port :12345
2024-02-14 15:11:26.678 [64] [FixSender] (INFO) physical cnx initiated
2024-02-14 15:11:26.685 [64] [FixSender] (DEBUG) Sending 8=FIX.4.4|9=87|35=A|49=FIXCLIENT1|56=DMA_HUB|34=13|52=20240214-14:11:26|98=0|108=30|95=9|96=null/null|10=134|
2024-02-14 15:11:26.720 [62] [FixSender] (INFO) physical cnx finished Connection reset by peer
2024-02-14 15:11:26.721 [64] [FixSender] (INFO) physical cnx finished Connection reset by peer
2024-02-14 15:11:26.722 [64] [FixSender] (WARNING) Disconnected
2024-02-14 15:11:26.723 [62] [FixSender] (WARNING) Disconnected
2024-02-14 15:11:27.461 [65] [FixSender] (INFO) try to connect to : localhost port :12345
2024-02-14 15:11:27.461 [65] [FixSender] (INFO) physical cnx initiated
2024-02-14 15:11:27.463 [65] [FixSender] (DEBUG) Sending 8=FIX.4.4|9=87|35=A|49=FIXCLIENT1|56=DMA_HUB|34=14|52=20240214-14:11:27|98=0|108=30|95=9|96=null/null|10=136|
2024-02-14 15:11:27.701 [66] [FixSender] (INFO) try to connect to : localhost port :12345
2024-02-14 15:11:27.702 [66] [FixSender] (INFO) physical cnx initiated
2024-02-14 15:11:27.707 [66] [FixSender] (DEBUG) Sending 8=FIX.4.4|9=87|35=A|49=FIXCLIENT1|56=DMA_HUB|34=15|52=20240214-14:11:27|98=0|108=30|95=9|96=null/null|10=137|
2024-02-14 15:11:27.727 [63] [FixSender] (INFO) physical cnx finished Connection reset by peer
2024-02-14 15:11:27.727 [66] [FixSender] (INFO) physical cnx finished Connection reset by peer
2024-02-14 15:11:27.728 [66] [FixSender] (WARNING) Disconnected
2024-02-14 15:11:27.729 [63] [FixSender] (WARNING) Disconnected
2024-02-14 15:11:27.926 [67] [FixSender] (INFO) try to connect to : localhost port :12345
2024-02-14 15:11:27.928 [67] [FixSender] (INFO) physical cnx initiated
2024-02-14 15:11:27.935 [67] [FixSender] (DEBUG) Sending 8=FIX.4.4|9=87|35=A|49=FIXCLIENT1|56=DMA_HUB|34=16|52=20240214-14:11:27|98=0|108=30|95=9|96=null/null|10=138|
2024-02-14 15:11:28.373 [68] [FixSender] (INFO) try to connect to : localhost port :12345
2024-02-14 15:11:28.373 [68] [FixSender] (INFO) physical cnx initiated
2024-02-14 15:11:28.375 [68] [FixSender] (DEBUG) Sending 8=FIX.4.4|9=87|35=A|49=FIXCLIENT1|56=DMA_HUB|34=17|52=20240214-14:11:28|98=0|108=30|95=9|96=null/null|10=140|
2024-02-14 15:11:28.571 [69] [FixSender] (INFO) try to connect to : localhost port :12345
2024-02-14 15:11:28.571 [69] [FixSender] (INFO) physical cnx initiated
2024-02-14 15:11:28.575 [69] [FixSender] (DEBUG) Sending 8=FIX.4.4|9=87|35=A|49=FIXCLIENT1|56=DMA_HUB|34=18|52=20240214-14:11:28|98=0|108=30|95=9|96=null/null|10=141|
2024-02-14 15:11:28.782 [70] [FixSender] (INFO) try to connect to : localhost port :12345
2024-02-14 15:11:28.783 [70] [FixSender] (INFO) physical cnx initiated
2024-02-14 15:11:28.786 [70] [FixSender] (DEBUG) Sending 8=FIX.4.4|9=87|35=A|49=FIXCLIENT1|56=DMA_HUB|34=19|52=20240214-14:11:28|98=0|108=30|95=9|96=null/null|10=142|
2024-02-14 15:11:29.015 [71] [FixSender] (INFO) try to connect to : localhost port :12345
2024-02-14 15:11:29.015 [71] [FixSender] (INFO) physical cnx initiated
2024-02-14 15:11:29.017 [71] [FixSender] (DEBUG) Sending 8=FIX.4.4|9=87|35=A|49=FIXCLIENT1|56=DMA_HUB|34=20|52=20240214-14:11:29|98=0|108=30|95=9|96=null/null|10=135|
2024-02-14 15:11:29.245 [72] [FixSender] (INFO) try to connect to : localhost port :12345
2024-02-14 15:11:29.246 [72] [FixSender] (INFO) physical cnx initiated
2024-02-14 15:11:29.253 [72] [FixSender] (DEBUG) Sending 8=FIX.4.4|9=87|35=A|49=FIXCLIENT1|56=DMA_HUB|34=21|52=20240214-14:11:29|98=0|108=30|95=9|96=null/null|10=136|
2024-02-14 15:11:29.455 [73] [FixSender] (INFO) try to connect to : localhost port :12345
2024-02-14 15:11:29.455 [73] [FixSender] (INFO) physical cnx initiated
2024-02-14 15:11:29.457 [73] [FixSender] (DEBUG) Sending 8=FIX.4.4|9=87|35=A|49=FIXCLIENT1|56=DMA_HUB|34=22|52=20240214-14:11:29|98=0|108=30|95=9|96=null/null|10=137|
2024-02-14 15:11:29.670 [74] [FixSender] (INFO) try to connect to : localhost port :12345
2024-02-14 15:11:29.671 [74] [FixSender] (INFO) physical cnx initiated
2024-02-14 15:11:29.672 [74] [FixSender] (DEBUG) Sending 8=FIX.4.4|9=87|35=A|49=FIXCLIENT1|56=DMA_HUB|34=23|52=20240214-14:11:29|98=0|108=30|95=9|96=null/null|10=138|
2024-02-14 15:11:29.740 [65] [FixSender] (INFO) physical cnx finished Connection reset by peer
2024-02-14 15:11:29.740 [65] [FixSender] (WARNING) Disconnected
2024-02-14 15:11:29.742 [74] [FixSender] (INFO) physical cnx finished Connection reset by peer
2024-02-14 15:11:29.742 [74] [FixSender] (WARNING) Disconnected
2024-02-14 15:11:29.893 [75] [FixSender] (INFO) try to connect to : localhost port :12345
2024-02-14 15:11:29.893 [75] [FixSender] (INFO) physical cnx initiated
2024-02-14 15:11:29.897 [75] [FixSender] (DEBUG) Sending 8=FIX.4.4|9=87|35=A|49=FIXCLIENT1|56=DMA_HUB|34=24|52=20240214-14:11:29|98=0|108=30|95=9|96=null/null|10=139|
2024-02-14 15:11:30.118 [76] [FixSender] (INFO) try to connect to : localhost port :12345
2024-02-14 15:11:30.118 [76] [FixSender] (INFO) physical cnx initiated
2024-02-14 15:11:30.121 [76] [FixSender] (DEBUG) Sending 8=FIX.4.4|9=87|35=A|49=FIXCLIENT1|56=DMA_HUB|34=25|52=20240214-14:11:30|98=0|108=30|95=9|96=null/null|10=132|
2024-02-14 15:11:30.655 [77] [FixSender] (INFO) try to connect to : localhost port :12345
2024-02-14 15:11:30.655 [77] [FixSender] (INFO) physical cnx initiated
2024-02-14 15:11:30.658 [77] [FixSender] (DEBUG) Sending 8=FIX.4.4|9=87|35=A|49=FIXCLIENT1|56=DMA_HUB|34=26|52=20240214-14:11:30|98=0|108=30|95=9|96=null/null|10=133|
2024-02-14 15:11:30.883 [78] [FixSender] (INFO) try to connect to : localhost port :12345
2024-02-14 15:11:30.884 [78] [FixSender] (INFO) physical cnx initiated
2024-02-14 15:11:30.886 [78] [FixSender] (DEBUG) Sending 8=FIX.4.4|9=87|35=A|49=FIXCLIENT1|56=DMA_HUB|34=27|52=20240214-14:11:30|98=0|108=30|95=9|96=null/null|10=134|
2024-02-14 15:11:31.747 [67] [FixSender] (INFO) physical cnx finished Connection reset by peer
2024-02-14 15:11:31.748 [78] [FixSender] (INFO) physical cnx finished Connection reset by peer
2024-02-14 15:11:31.748 [67] [FixSender] (WARNING) Disconnected
2024-02-14 15:11:31.750 [78] [FixSender] (WARNING) Disconnected
2024-02-14 15:11:32.753 [68] [FixSender] (INFO) physical cnx finished Connection reset by peer
2024-02-14 15:11:32.754 [68] [FixSender] (WARNING) Disconnected
2024-02-14 15:11:33.761 [69] [FixSender] (INFO) physical cnx finished Connection reset by peer
2024-02-14 15:11:33.763 [69] [FixSender] (WARNING) Disconnected
2024-02-14 15:11:34.763 [70] [FixSender] (INFO) physical cnx finished Connection reset by peer
2024-02-14 15:11:34.763 [70] [FixSender] (WARNING) Disconnected
2024-02-14 15:39:14.808 [1] [Fixsender] (INFO) (c) 2001-2011 ullink SAS. FixSender. Release 1.11.
2024-02-14 15:39:21.344 [29] [FixSender] (INFO) try to connect to : localhost port :12345
2024-02-14 15:39:21.378 [29] [FixSender] (INFO) physical cnx initiated
2024-02-14 15:39:21.397 [29] [FixSender] (DEBUG) Sending 8=FIX.4.4|9=87|35=A|49=FIXCLIENT1|56=DMA_HUB|34=28|52=20240214-14:39:21|98=0|108=30|95=9|96=null/null|10=145|
2024-02-14 15:39:21.399 [29] [FixSender] (DEBUG) Receiving 8=FIX.4.4|9=73|35=A|34=18|49=DMA_HUB|56=FIXCLIENT1|52=20240214-14:39:21.398|108=30|98=0|10=038|
2024-02-14 15:39:21.402 [29] [FixSender] (WARNING) The Fix connection is open...
2024-02-14 15:39:21.407 [29] [FixSender] (DEBUG) Sending 8=FIX.4.4|9=66|35=2|49=FIXCLIENT1|56=DMA_HUB|34=29|52=20240214-14:39:21|7=1|16=0|10=171|
2024-02-14 15:39:21.408 [29] [FixSender] (DEBUG) Receiving 8=FIX.4.4|9=70|35=2|34=19|49=DMA_HUB|56=FIXCLIENT1|52=20240214-14:39:21.398|7=6|16=0|10=124|
2024-02-14 15:39:21.417 [29] [FixSender] (DEBUG) Sending 8=FIX.4.4|9=95|35=4|49=FIXCLIENT1|56=DMA_HUB|34=6|52=20240214-14:39:21|43=Y|122=20240214-14:39:21|123=Y|36=30|10=107|
2024-02-14 15:39:21.418 [29] [FixSender] (DEBUG) Sending 8=FIX.4.4|9=75|35=1|49=FIXCLIENT1|56=DMA_HUB|34=30|52=20240214-14:39:21|112=synchronized?|10=088|
2024-02-14 15:39:21.418 [29] [FixSender] (DEBUG) Receiving 8=FIX.4.4|9=102|35=4|34=1|49=DMA_HUB|56=FIXCLIENT1|52=20240214-14:39:21.412|43=Y|122=20240214-14:39:21.412|36=5|123=Y|10=231|
2024-02-14 15:39:21.419 [29] [FixSender] (DEBUG) Receiving 8=FIX.4.4|9=265|35=8|34=5|49=DMA_HUB|56=FIXCLIENT1|52=20240214-14:39:21.413|43=Y|122=20240214-13:36:15.955|11=HS_17079177751|37=FXj671qtO|54=2|40=2|59=0|17=202402141|150=A|39=A|38=1513|151=1513|14=0|6=0|44=197|60=20240214-13:36:15.000|22=4|48=US3390411052|207=XETR|15=EUR|55=[N/A]|10=204|
2024-02-14 15:39:21.420 [29] [FixSender] (DEBUG) Receiving 8=FIX.4.4|9=103|35=4|34=6|49=DMA_HUB|56=FIXCLIENT1|52=20240214-14:39:21.413|43=Y|122=20240214-14:39:21.413|36=20|123=Y|10=028|
2024-02-14 15:39:21.420 [29] [FixSender] (DEBUG) Receiving 8=FIX.4.4|9=79|35=0|34=20|49=DMA_HUB|56=FIXCLIENT1|52=20240214-14:39:21.418|112=synchronized?|10=037|
2024-02-14 15:39:51.378 [29] [FixSender] (DEBUG) Receiving 8=FIX.4.4|9=61|35=0|34=21|49=DMA_HUB|56=FIXCLIENT1|52=20240214-14:39:51.377|10=243|
2024-02-14 15:39:51.424 [33] [FixSender] (DEBUG) Sending 8=FIX.4.4|9=57|35=0|49=FIXCLIENT1|56=DMA_HUB|34=31|52=20240214-14:39:51|10=042|
2024-02-14 15:40:18.427 [34] [FixSender] (DEBUG) Sending 8=FIX.4.4|9=193|35=D|49=FIXCLIENT1|56=DMA_HUB|34=32|52=20240214-14:40:18|21=1|11=HS_17079216180|38=4425|55=E:07G@XETR|54=2|60=20240214-14:40:18|40=2|59=0|44=197|48=US3390411052|22=4|15=EUR|207=XETR|1=bram_123|10=139|
2024-02-14 15:40:18.428 [34] [FixSender] (DEBUG) Sending 8=FIX.4.4|9=193|35=D|49=FIXCLIENT1|56=DMA_HUB|34=33|52=20240214-14:40:18|21=1|11=HS_17079216181|38=1390|55=E:07G@XETR|54=2|60=20240214-14:40:18|40=2|59=0|44=197|48=US3390411052|22=4|15=EUR|207=XETR|1=bram_123|10=139|
2024-02-14 15:40:18.428 [34] [FixSender] (DEBUG) Sending 8=FIX.4.4|9=193|35=D|49=FIXCLIENT1|56=DMA_HUB|34=34|52=20240214-14:40:18|21=1|11=HS_17079216182|38=2924|55=E:07G@XETR|54=2|60=20240214-14:40:18|40=2|59=0|44=197|48=US3390411052|22=4|15=EUR|207=XETR|1=bram_123|10=145|
2024-02-14 15:40:18.429 [34] [FixSender] (DEBUG) Sending 8=FIX.4.4|9=193|35=D|49=FIXCLIENT1|56=DMA_HUB|34=35|52=20240214-14:40:18|21=1|11=HS_17079216183|38=4414|55=E:07G@XETR|54=2|60=20240214-14:40:18|40=2|59=0|44=197|48=US3390411052|22=4|15=EUR|207=XETR|1=bram_123|10=143|
2024-02-14 15:40:18.429 [34] [FixSender] (DEBUG) Sending 8=FIX.4.4|9=193|35=D|49=FIXCLIENT1|56=DMA_HUB|34=36|52=20240214-14:40:18|21=1|11=HS_17079216184|38=4607|55=E:07G@XETR|54=2|60=20240214-14:40:18|40=2|59=0|44=197|48=US3390411052|22=4|15=EUR|207=XETR|1=bram_123|10=149|
2024-02-14 15:40:18.429 [34] [FixSender] (DEBUG) Sending 8=FIX.4.4|9=193|35=D|49=FIXCLIENT1|56=DMA_HUB|34=37|52=20240214-14:40:18|21=1|11=HS_17079216185|38=4719|55=E:07G@XETR|54=2|60=20240214-14:40:18|40=2|59=0|44=197|48=US3390411052|22=4|15=EUR|207=XETR|1=bram_123|10=155|
2024-02-14 15:40:18.430 [34] [FixSender] (DEBUG) Sending 8=FIX.4.4|9=193|35=D|49=FIXCLIENT1|56=DMA_HUB|34=38|52=20240214-14:40:18|21=1|11=HS_17079216186|38=3324|55=E:07G@XETR|54=2|60=20240214-14:40:18|40=2|59=0|44=197|48=US3390411052|22=4|15=EUR|207=XETR|1=bram_123|10=148|
2024-02-14 15:40:18.430 [34] [FixSender] (DEBUG) Sending 8=FIX.4.4|9=193|35=D|49=FIXCLIENT1|56=DMA_HUB|34=39|52=20240214-14:40:18|21=1|11=HS_17079216187|38=4532|55=E:07G@XETR|54=2|60=20240214-14:40:18|40=2|59=0|44=197|48=US3390411052|22=4|15=EUR|207=XETR|1=bram_123|10=152|
2024-02-14 15:40:18.431 [34] [FixSender] (DEBUG) Sending 8=FIX.4.4|9=192|35=D|49=FIXCLIENT1|56=DMA_HUB|34=40|52=20240214-14:40:18|21=1|11=HS_17079216188|38=541|55=E:07G@XETR|54=2|60=20240214-14:40:18|40=2|59=0|44=197|48=US3390411052|22=4|15=EUR|207=XETR|1=bram_123|10=092|
2024-02-14 15:40:18.431 [34] [FixSender] (DEBUG) Sending 8=FIX.4.4|9=193|35=D|49=FIXCLIENT1|56=DMA_HUB|34=41|52=20240214-14:40:18|21=1|11=HS_17079216189|38=3275|55=E:07G@XETR|54=2|60=20240214-14:40:18|40=2|59=0|44=197|48=US3390411052|22=4|15=EUR|207=XETR|1=bram_123|10=150|
2024-02-14 15:40:18.432 [34] [FixSender] (DEBUG) Sending 8=FIX.4.4|9=194|35=D|49=FIXCLIENT1|56=DMA_HUB|34=42|52=20240214-14:40:18|21=1|11=HS_170792161810|38=3596|55=E:07G@XETR|54=2|60=20240214-14:40:18|40=2|59=0|44=197|48=US3390411052|22=4|15=EUR|207=XETR|1=bram_123|10=198|
2024-02-14 15:40:18.432 [34] [FixSender] (DEBUG) Sending 8=FIX.4.4|9=193|35=D|49=FIXCLIENT1|56=DMA_HUB|34=43|52=20240214-14:40:18|21=1|11=HS_170792161811|38=630|55=E:07G@XETR|54=2|60=20240214-14:40:18|40=2|59=0|44=197|48=US3390411052|22=4|15=EUR|207=XETR|1=bram_123|10=137|
2024-02-14 15:40:18.433 [34] [FixSender] (DEBUG) Sending 8=FIX.4.4|9=194|35=D|49=FIXCLIENT1|56=DMA_HUB|34=44|52=20240214-14:40:18|21=1|11=HS_170792161812|38=1956|55=E:07G@XETR|54=2|60=20240214-14:40:18|40=2|59=0|44=197|48=US3390411052|22=4|15=EUR|207=XETR|1=bram_123|10=200|
2024-02-14 15:40:18.433 [34] [FixSender] (DEBUG) Sending 8=FIX.4.4|9=194|35=D|49=FIXCLIENT1|56=DMA_HUB|34=45|52=20240214-14:40:18|21=1|11=HS_170792161813|38=4174|55=E:07G@XETR|54=2|60=20240214-14:40:18|40=2|59=0|44=197|48=US3390411052|22=4|15=EUR|207=XETR|1=bram_123|10=197|
2024-02-14 15:40:18.433 [34] [FixSender] (DEBUG) Sending 8=FIX.4.4|9=194|35=D|49=FIXCLIENT1|56=DMA_HUB|34=46|52=20240214-14:40:18|21=1|11=HS_170792161814|38=1258|55=E:07G@XETR|54=2|60=20240214-14:40:18|40=2|59=0|44=197|48=US3390411052|22=4|15=EUR|207=XETR|1=bram_123|10=199|
2024-02-14 15:40:18.434 [34] [FixSender] (DEBUG) Sending 8=FIX.4.4|9=194|35=D|49=FIXCLIENT1|56=DMA_HUB|34=47|52=20240214-14:40:18|21=1|11=HS_170792161815|38=1716|55=E:07G@XETR|54=2|60=20240214-14:40:18|40=2|59=0|44=197|48=US3390411052|22=4|15=EUR|207=XETR|1=bram_123|10=200|
2024-02-14 15:40:18.434 [34] [FixSender] (DEBUG) Sending 8=FIX.4.4|9=194|35=D|49=FIXCLIENT1|56=DMA_HUB|34=48|52=20240214-14:40:18|21=1|11=HS_170792161816|38=1878|55=E:07G@XETR|54=2|60=20240214-14:40:18|40=2|59=0|44=197|48=US3390411052|22=4|15=EUR|207=XETR|1=bram_123|10=211|
2024-02-14 15:40:18.434 [34] [FixSender] (DEBUG) Sending 8=FIX.4.4|9=194|35=D|49=FIXCLIENT1|56=DMA_HUB|34=49|52=20240214-14:40:18|21=1|11=HS_170792161817|38=1187|55=E:07G@XETR|54=2|60=20240214-14:40:18|40=2|59=0|44=197|48=US3390411052|22=4|15=EUR|207=XETR|1=bram_123|10=206|
2024-02-14 15:40:18.435 [34] [FixSender] (DEBUG) Sending 8=FIX.4.4|9=194|35=D|49=FIXCLIENT1|56=DMA_HUB|34=50|52=20240214-14:40:18|21=1|11=HS_170792161818|38=3661|55=E:07G@XETR|54=2|60=20240214-14:40:18|40=2|59=0|44=197|48=US3390411052|22=4|15=EUR|207=XETR|1=bram_123|10=198|
2024-02-14 15:40:18.435 [34] [FixSender] (DEBUG) Sending 8=FIX.4.4|9=194|35=D|49=FIXCLIENT1|56=DMA_HUB|34=51|52=20240214-14:40:18|21=1|11=HS_170792161819|38=2085|55=E:07G@XETR|54=2|60=20240214-14:40:18|40=2|59=0|44=197|48=US3390411052|22=4|15=EUR|207=XETR|1=bram_123|10=199|
2024-02-14 15:40:18.436 [34] [FixSender] (DEBUG) Sending 8=FIX.4.4|9=194|35=D|49=FIXCLIENT1|56=DMA_HUB|34=52|52=20240214-14:40:18|21=1|11=HS_170792161820|38=4896|55=E:07G@XETR|54=2|60=20240214-14:40:18|40=2|59=0|44=197|48=US3390411052|22=4|15=EUR|207=XETR|1=bram_123|10=204|
2024-02-14 15:40:18.436 [34] [FixSender] (DEBUG) Sending 8=FIX.4.4|9=194|35=D|49=FIXCLIENT1|56=DMA_HUB|34=53|52=20240214-14:40:18|21=1|11=HS_170792161821|38=1758|55=E:07G@XETR|54=2|60=20240214-14:40:18|40=2|59=0|44=197|48=US3390411052|22=4|15=EUR|207=XETR|1=bram_123|10=200|
2024-02-14 15:40:18.437 [34] [FixSender] (DEBUG) Sending 8=FIX.4.4|9=194|35=D|49=FIXCLIENT1|56=DMA_HUB|34=54|52=20240214-14:40:18|21=1|11=HS_170792161822|38=4576|55=E:07G@XETR|54=2|60=20240214-14:40:18|40=2|59=0|44=197|48=US3390411052|22=4|15=EUR|207=XETR|1=bram_123|10=203|
2024-02-14 15:40:18.437 [34] [FixSender] (DEBUG) Sending 8=FIX.4.4|9=194|35=D|49=FIXCLIENT1|56=DMA_HUB|34=55|52=20240214-14:40:18|21=1|11=HS_170792161823|38=2215|55=E:07G@XETR|54=2|60=20240214-14:40:18|40=2|59=0|44=197|48=US3390411052|22=4|15=EUR|207=XETR|1=bram_123|10=193|
2024-02-14 15:40:18.437 [34] [FixSender] (DEBUG) Sending 8=FIX.4.4|9=194|35=D|49=FIXCLIENT1|56=DMA_HUB|34=56|52=20240214-14:40:18|21=1|11=HS_170792161824|38=2613|55=E:07G@XETR|54=2|60=20240214-14:40:18|40=2|59=0|44=197|48=US3390411052|22=4|15=EUR|207=XETR|1=bram_123|10=197|
2024-02-14 15:40:18.438 [34] [FixSender] (DEBUG) Sending 8=FIX.4.4|9=194|35=D|49=FIXCLIENT1|56=DMA_HUB|34=57|52=20240214-14:40:18|21=1|11=HS_170792161825|38=2551|55=E:07G@XETR|54=2|60=20240214-14:40:18|40=2|59=0|44=197|48=US3390411052|22=4|15=EUR|207=XETR|1=bram_123|10=200|
2024-02-14 15:40:18.438 [34] [FixSender] (DEBUG) Sending 8=FIX.4.4|9=194|35=D|49=FIXCLIENT1|56=DMA_HUB|34=58|52=20240214-14:40:18|21=1|11=HS_170792161826|38=2514|55=E:07G@XETR|54=2|60=20240214-14:40:18|40=2|59=0|44=197|48=US3390411052|22=4|15=EUR|207=XETR|1=bram_123|10=201|
2024-02-14 15:40:18.438 [34] [FixSender] (DEBUG) Sending 8=FIX.4.4|9=194|35=D|49=FIXCLIENT1|56=DMA_HUB|34=59|52=20240214-14:40:18|21=1|11=HS_170792161827|38=3950|55=E:07G@XETR|54=2|60=20240214-14:40:18|40=2|59=0|44=197|48=US3390411052|22=4|15=EUR|207=XETR|1=bram_123|10=208|
2024-02-14 15:40:18.439 [34] [FixSender] (DEBUG) Sending 8=FIX.4.4|9=194|35=D|49=FIXCLIENT1|56=DMA_HUB|34=60|52=20240214-14:40:18|21=1|11=HS_170792161828|38=3522|55=E:07G@XETR|54=2|60=20240214-14:40:18|40=2|59=0|44=197|48=US3390411052|22=4|15=EUR|207=XETR|1=bram_123|10=196|
2024-02-14 15:40:18.439 [34] [FixSender] (DEBUG) Sending 8=FIX.4.4|9=194|35=D|49=FIXCLIENT1|56=DMA_HUB|34=61|52=20240214-14:40:18|21=1|11=HS_170792161829|38=3382|55=E:07G@XETR|54=2|60=20240214-14:40:18|40=2|59=0|44=197|48=US3390411052|22=4|15=EUR|207=XETR|1=bram_123|10=202|
2024-02-14 15:40:18.439 [34] [FixSender] (DEBUG) Sending 8=FIX.4.4|9=194|35=D|49=FIXCLIENT1|56=DMA_HUB|34=62|52=20240214-14:40:18|21=1|11=HS_170792161830|38=2829|55=E:07G@XETR|54=2|60=20240214-14:40:18|40=2|59=0|44=197|48=US3390411052|22=4|15=EUR|207=XETR|1=bram_123|10=200|
2024-02-14 15:40:18.440 [34] [FixSender] (DEBUG) Sending 8=FIX.4.4|9=194|35=D|49=FIXCLIENT1|56=DMA_HUB|34=63|52=20240214-14:40:18|21=1|11=HS_170792161831|38=2446|55=E:07G@XETR|54=2|60=20240214-14:40:18|40=2|59=0|44=197|48=US3390411052|22=4|15=EUR|207=XETR|1=bram_123|10=197|
2024-02-14 15:40:18.440 [34] [FixSender] (DEBUG) Sending 8=FIX.4.4|9=194|35=D|49=FIXCLIENT1|56=DMA_HUB|34=64|52=20240214-14:40:18|21=1|11=HS_170792161832|38=4160|55=E:07G@XETR|54=2|60=20240214-14:40:18|40=2|59=0|44=197|48=US3390411052|22=4|15=EUR|207=XETR|1=bram_123|10=194|
2024-02-14 15:40:18.441 [34] [FixSender] (DEBUG) Sending 8=FIX.4.4|9=194|35=D|49=FIXCLIENT1|56=DMA_HUB|34=65|52=20240214-14:40:18|21=1|11=HS_170792161833|38=3634|55=E:07G@XETR|54=2|60=20240214-14:40:18|40=2|59=0|44=197|48=US3390411052|22=4|15=EUR|207=XETR|1=bram_123|10=201|
2024-02-14 15:40:18.441 [34] [FixSender] (DEBUG) Sending 8=FIX.4.4|9=194|35=D|49=FIXCLIENT1|56=DMA_HUB|34=66|52=20240214-14:40:18|21=1|11=HS_170792161834|38=4628|55=E:07G@XETR|54=2|60=20240214-14:40:18|40=2|59=0|44=197|48=US3390411052|22=4|15=EUR|207=XETR|1=bram_123|10=207|
2024-02-14 15:40:18.441 [34] [FixSender] (DEBUG) Sending 8=FIX.4.4|9=194|35=D|49=FIXCLIENT1|56=DMA_HUB|34=67|52=20240214-14:40:18|21=1|11=HS_170792161835|38=1695|55=E:07G@XETR|54=2|60=20240214-14:40:18|40=2|59=0|44=197|48=US3390411052|22=4|15=EUR|207=XETR|1=bram_123|10=210|
2024-02-14 15:40:18.442 [34] [FixSender] (DEBUG) Sending 8=FIX.4.4|9=193|35=D|49=FIXCLIENT1|56=DMA_HUB|34=68|52=20240214-14:40:18|21=1|11=HS_170792161836|38=540|55=E:07G@XETR|54=2|60=20240214-14:40:18|40=2|59=0|44=197|48=US3390411052|22=4|15=EUR|207=XETR|1=bram_123|10=151|
2024-02-14 15:40:18.442 [34] [FixSender] (DEBUG) Sending 8=FIX.4.4|9=194|35=D|49=FIXCLIENT1|56=DMA_HUB|34=69|52=20240214-14:40:18|21=1|11=HS_170792161837|38=2513|55=E:07G@XETR|54=2|60=20240214-14:40:18|40=2|59=0|44=197|48=US3390411052|22=4|15=EUR|207=XETR|1=bram_123|10=204|
2024-02-14 15:40:18.443 [34] [FixSender] (DEBUG) Sending 8=FIX.4.4|9=194|35=D|49=FIXCLIENT1|56=DMA_HUB|34=70|52=20240214-14:40:18|21=1|11=HS_170792161838|38=1977|55=E:07G@XETR|54=2|60=20240214-14:40:18|40=2|59=0|44=197|48=US3390411052|22=4|15=EUR|207=XETR|1=bram_123|10=210|
2024-02-14 15:40:18.443 [34] [FixSender] (DEBUG) Sending 8=FIX.4.4|9=194|35=D|49=FIXCLIENT1|56=DMA_HUB|34=71|52=20240214-14:40:18|21=1|11=HS_170792161839|38=1588|55=E:07G@XETR|54=2|60=20240214-14:40:18|40=2|59=0|44=197|48=US3390411052|22=4|15=EUR|207=XETR|1=bram_123|10=210|
2024-02-14 15:40:18.444 [34] [FixSender] (DEBUG) Sending 8=FIX.4.4|9=194|35=D|49=FIXCLIENT1|56=DMA_HUB|34=72|52=20240214-14:40:18|21=1|11=HS_170792161840|38=4486|55=E:07G@XETR|54=2|60=20240214-14:40:18|40=2|59=0|44=197|48=US3390411052|22=4|15=EUR|207=XETR|1=bram_123|10=203|
2024-02-14 15:40:18.444 [34] [FixSender] (DEBUG) Sending 8=FIX.4.4|9=194|35=D|49=FIXCLIENT1|56=DMA_HUB|34=73|52=20240214-14:40:18|21=1|11=HS_170792161841|38=1511|55=E:07G@XETR|54=2|60=20240214-14:40:18|40=2|59=0|44=197|48=US3390411052|22=4|15=EUR|207=XETR|1=bram_123|10=191|
2024-02-14 15:40:18.444 [34] [FixSender] (DEBUG) Sending 8=FIX.4.4|9=194|35=D|49=FIXCLIENT1|56=DMA_HUB|34=74|52=20240214-14:40:18|21=1|11=HS_170792161842|38=2429|55=E:07G@XETR|54=2|60=20240214-14:40:18|40=2|59=0|44=197|48=US3390411052|22=4|15=EUR|207=XETR|1=bram_123|10=202|
2024-02-14 15:40:18.445 [34] [FixSender] (DEBUG) Sending 8=FIX.4.4|9=194|35=D|49=FIXCLIENT1|56=DMA_HUB|34=75|52=20240214-14:40:18|21=1|11=HS_170792161843|38=2277|55=E:07G@XETR|54=2|60=20240214-14:40:18|40=2|59=0|44=197|48=US3390411052|22=4|15=EUR|207=XETR|1=bram_123|10=205|
2024-02-14 15:40:18.445 [34] [FixSender] (DEBUG) Sending 8=FIX.4.4|9=194|35=D|49=FIXCLIENT1|56=DMA_HUB|34=76|52=20240214-14:40:18|21=1|11=HS_170792161844|38=4333|55=E:07G@XETR|54=2|60=20240214-14:40:18|40=2|59=0|44=197|48=US3390411052|22=4|15=EUR|207=XETR|1=bram_123|10=202|
2024-02-14 15:40:18.445 [34] [FixSender] (DEBUG) Sending 8=FIX.4.4|9=194|35=D|49=FIXCLIENT1|56=DMA_HUB|34=77|52=20240214-14:40:18|21=1|11=HS_170792161845|38=1763|55=E:07G@XETR|54=2|60=20240214-14:40:18|40=2|59=0|44=197|48=US3390411052|22=4|15=EUR|207=XETR|1=bram_123|10=208|
2024-02-14 15:40:18.445 [34] [FixSender] (DEBUG) Sending 8=FIX.4.4|9=194|35=D|49=FIXCLIENT1|56=DMA_HUB|34=78|52=20240214-14:40:18|21=1|11=HS_170792161846|38=4034|55=E:07G@XETR|54=2|60=20240214-14:40:18|40=2|59=0|44=197|48=US3390411052|22=4|15=EUR|207=XETR|1=bram_123|10=204|
2024-02-14 15:40:18.446 [34] [FixSender] (DEBUG) Sending 8=FIX.4.4|9=194|35=D|49=FIXCLIENT1|56=DMA_HUB|34=79|52=20240214-14:40:18|21=1|11=HS_170792161847|38=2819|55=E:07G@XETR|54=2|60=20240214-14:40:18|40=2|59=0|44=197|48=US3390411052|22=4|15=EUR|207=XETR|1=bram_123|10=215|
2024-02-14 15:40:18.446 [34] [FixSender] (DEBUG) Sending 8=FIX.4.4|9=194|35=D|49=FIXCLIENT1|56=DMA_HUB|34=80|52=20240214-14:40:18|21=1|11=HS_170792161848|38=1237|55=E:07G@XETR|54=2|60=20240214-14:40:18|40=2|59=0|44=197|48=US3390411052|22=4|15=EUR|207=XETR|1=bram_123|10=201|
2024-02-14 15:40:18.446 [34] [FixSender] (DEBUG) Sending 8=FIX.4.4|9=193|35=D|49=FIXCLIENT1|56=DMA_HUB|34=81|52=20240214-14:40:18|21=1|11=HS_170792161849|38=552|55=E:07G@XETR|54=2|60=20240214-14:40:18|40=2|59=0|44=197|48=US3390411052|22=4|15=EUR|207=XETR|1=bram_123|10=153|
2024-02-14 15:40:18.447 [34] [FixSender] (DEBUG) Sending 8=FIX.4.4|9=193|35=D|49=FIXCLIENT1|56=DMA_HUB|34=82|52=20240214-14:40:18|21=1|11=HS_170792161850|38=146|55=E:07G@XETR|54=2|60=20240214-14:40:18|40=2|59=0|44=197|48=US3390411052|22=4|15=EUR|207=XETR|1=bram_123|10=145|
2024-02-14 15:40:18.447 [34] [FixSender] (DEBUG) Sending 8=FIX.4.4|9=193|35=D|49=FIXCLIENT1|56=DMA_HUB|34=83|52=20240214-14:40:18|21=1|11=HS_170792161851|38=579|55=E:07G@XETR|54=2|60=20240214-14:40:18|40=2|59=0|44=197|48=US3390411052|22=4|15=EUR|207=XETR|1=bram_123|10=157|
2024-02-14 15:40:18.447 [29] [FixSender] (DEBUG) Receiving 8=FIX.4.4|9=235|35=8|34=22|49=DMA_HUB|56=FIXCLIENT1|52=20240214-14:40:18.445|11=HS_17079216180|37=FXRdnJ2fQ|54=2|40=2|59=0|17=202402142|150=A|39=A|38=4425|151=4425|14=0|6=0|44=197|60=20240214-14:40:18.000|22=4|48=US3390411052|207=XETR|15=EUR|55=[N/A]|10=017|
2024-02-14 15:40:18.448 [34] [FixSender] (DEBUG) Sending 8=FIX.4.4|9=194|35=D|49=FIXCLIENT1|56=DMA_HUB|34=84|52=20240214-14:40:18|21=1|11=HS_170792161852|38=4510|55=E:07G@XETR|54=2|60=20240214-14:40:18|40=2|59=0|44=197|48=US3390411052|22=4|15=EUR|207=XETR|1=bram_123|10=197|
2024-02-14 15:40:18.449 [34] [FixSender] (DEBUG) Sending 8=FIX.4.4|9=193|35=D|49=FIXCLIENT1|56=DMA_HUB|34=85|52=20240214-14:40:18|21=1|11=HS_170792161853|38=547|55=E:07G@XETR|54=2|60=20240214-14:40:18|40=2|59=0|44=197|48=US3390411052|22=4|15=EUR|207=XETR|1=bram_123|10=156|
2024-02-14 15:40:18.449 [34] [FixSender] (DEBUG) Sending 8=FIX.4.4|9=194|35=D|49=FIXCLIENT1|56=DMA_HUB|34=86|52=20240214-14:40:18|21=1|11=HS_170792161854|38=2671|55=E:07G@XETR|54=2|60=20240214-14:40:18|40=2|59=0|44=197|48=US3390411052|22=4|15=EUR|207=XETR|1=bram_123|10=207|
2024-02-14 15:40:18.449 [34] [FixSender] (DEBUG) Sending 8=FIX.4.4|9=194|35=D|49=FIXCLIENT1|56=DMA_HUB|34=87|52=20240214-14:40:18|21=1|11=HS_170792161855|38=2942|55=E:07G@XETR|54=2|60=20240214-14:40:18|40=2|59=0|44=197|48=US3390411052|22=4|15=EUR|207=XETR|1=bram_123|10=210|
2024-02-14 15:40:18.450 [34] [FixSender] (DEBUG) Sending 8=FIX.4.4|9=193|35=D|49=FIXCLIENT1|56=DMA_HUB|34=88|52=20240214-14:40:18|21=1|11=HS_170792161856|38=251|55=E:07G@XETR|54=2|60=20240214-14:40:18|40=2|59=0|44=197|48=US3390411052|22=4|15=EUR|207=XETR|1=bram_123|10=154|
2024-02-14 15:40:18.450 [34] [FixSender] (DEBUG) Sending 8=FIX.4.4|9=194|35=D|49=FIXCLIENT1|56=DMA_HUB|34=89|52=20240214-14:40:18|21=1|11=HS_170792161857|38=3377|55=E:07G@XETR|54=2|60=20240214-14:40:18|40=2|59=0|44=197|48=US3390411052|22=4|15=EUR|207=XETR|1=bram_123|10=217|
2024-02-14 15:40:18.451 [34] [FixSender] (DEBUG) Sending 8=FIX.4.4|9=194|35=D|49=FIXCLIENT1|56=DMA_HUB|34=90|52=20240214-14:40:18|21=1|11=HS_170792161858|38=4401|55=E:07G@XETR|54=2|60=20240214-14:40:18|40=2|59=0|44=197|48=US3390411052|22=4|15=EUR|207=XETR|1=bram_123|10=199|
2024-02-14 15:40:18.451 [34] [FixSender] (DEBUG) Sending 8=FIX.4.4|9=194|35=D|49=FIXCLIENT1|56=DMA_HUB|34=91|52=20240214-14:40:18|21=1|11=HS_170792161859|38=4428|55=E:07G@XETR|54=2|60=20240214-14:40:18|40=2|59=0|44=197|48=US3390411052|22=4|15=EUR|207=XETR|1=bram_123|10=210|
2024-02-14 15:40:18.451 [34] [FixSender] (DEBUG) Sending 8=FIX.4.4|9=193|35=D|49=FIXCLIENT1|56=DMA_HUB|34=92|52=20240214-14:40:18|21=1|11=HS_170792161860|38=570|55=E:07G@XETR|54=2|60=20240214-14:40:18|40=2|59=0|44=197|48=US3390411052|22=4|15=EUR|207=XETR|1=bram_123|10=148|
2024-02-14 15:40:18.452 [34] [FixSender] (DEBUG) Sending 8=FIX.4.4|9=194|35=D|49=FIXCLIENT1|56=DMA_HUB|34=93|52=20240214-14:40:18|21=1|11=HS_170792161861|38=3026|55=E:07G@XETR|54=2|60=20240214-14:40:18|40=2|59=0|44=197|48=US3390411052|22=4|15=EUR|207=XETR|1=bram_123|10=198|
2024-02-14 15:40:18.452 [34] [FixSender] (DEBUG) Sending 8=FIX.4.4|9=194|35=D|49=FIXCLIENT1|56=DMA_HUB|34=94|52=20240214-14:40:18|21=1|11=HS_170792161862|38=4440|55=E:07G@XETR|54=2|60=20240214-14:40:18|40=2|59=0|44=197|48=US3390411052|22=4|15=EUR|207=XETR|1=bram_123|10=201|
2024-02-14 15:40:18.453 [34] [FixSender] (DEBUG) Sending 8=FIX.4.4|9=193|35=D|49=FIXCLIENT1|56=DMA_HUB|34=95|52=20240214-14:40:18|21=1|11=HS_170792161863|38=433|55=E:07G@XETR|54=2|60=20240214-14:40:18|40=2|59=0|44=197|48=US3390411052|22=4|15=EUR|207=XETR|1=bram_123|10=152|
2024-02-14 15:40:18.453 [34] [FixSender] (DEBUG) Sending 8=FIX.4.4|9=194|35=D|49=FIXCLIENT1|56=DMA_HUB|34=96|52=20240214-14:40:18|21=1|11=HS_170792161864|38=2703|55=E:07G@XETR|54=2|60=20240214-14:40:18|40=2|59=0|44=197|48=US3390411052|22=4|15=EUR|207=XETR|1=bram_123|10=205|
2024-02-14 15:40:18.453 [34] [FixSender] (DEBUG) Sending 8=FIX.4.4|9=194|35=D|49=FIXCLIENT1|56=DMA_HUB|34=97|52=20240214-14:40:18|21=1|11=HS_170792161865|38=1886|55=E:07G@XETR|54=2|60=20240214-14:40:18|40=2|59=0|44=197|48=US3390411052|22=4|15=EUR|207=XETR|1=bram_123|10=218|
2024-02-14 15:40:18.454 [34] [FixSender] (DEBUG) Sending 8=FIX.4.4|9=194|35=D|49=FIXCLIENT1|56=DMA_HUB|34=98|52=20240214-14:40:18|21=1|11=HS_170792161866|38=1622|55=E:07G@XETR|54=2|60=20240214-14:40:18|40=2|59=0|44=197|48=US3390411052|22=4|15=EUR|207=XETR|1=bram_123|10=208|
2024-02-14 15:40:18.454 [34] [FixSender] (DEBUG) Sending 8=FIX.4.4|9=194|35=D|49=FIXCLIENT1|56=DMA_HUB|34=99|52=20240214-14:40:18|21=1|11=HS_170792161867|38=1635|55=E:07G@XETR|54=2|60=20240214-14:40:18|40=2|59=0|44=197|48=US3390411052|22=4|15=EUR|207=XETR|1=bram_123|10=214|
2024-02-14 15:40:18.455 [34] [FixSender] (DEBUG) Sending 8=FIX.4.4|9=195|35=D|49=FIXCLIENT1|56=DMA_HUB|34=100|52=20240214-14:40:18|21=1|11=HS_170792161868|38=3609|55=E:07G@XETR|54=2|60=20240214-14:40:18|40=2|59=0|44=197|48=US3390411052|22=4|15=EUR|207=XETR|1=bram_123|10=250|
2024-02-14 15:40:18.455 [34] [FixSender] (DEBUG) Sending 8=FIX.4.4|9=195|35=D|49=FIXCLIENT1|56=DMA_HUB|34=101|52=20240214-14:40:18|21=1|11=HS_170792161869|38=3798|55=E:07G@XETR|54=2|60=20240214-14:40:18|40=2|59=0|44=197|48=US3390411052|22=4|15=EUR|207=XETR|1=bram_123|10=005|
2024-02-14 15:40:18.455 [34] [FixSender] (DEBUG) Sending 8=FIX.4.4|9=195|35=D|49=FIXCLIENT1|56=DMA_HUB|34=102|52=20240214-14:40:18|21=1|11=HS_170792161870|38=3217|55=E:07G@XETR|54=2|60=20240214-14:40:18|40=2|59=0|44=197|48=US3390411052|22=4|15=EUR|207=XETR|1=bram_123|10=240|
2024-02-14 15:40:18.464 [34] [FixSender] (DEBUG) Sending 8=FIX.4.4|9=195|35=D|49=FIXCLIENT1|56=DMA_HUB|34=103|52=20240214-14:40:18|21=1|11=HS_170792161871|38=4161|55=E:07G@XETR|54=2|60=20240214-14:40:18|40=2|59=0|44=197|48=US3390411052|22=4|15=EUR|207=XETR|1=bram_123|10=241|
2024-02-14 15:40:18.465 [34] [FixSender] (DEBUG) Sending 8=FIX.4.4|9=195|35=D|49=FIXCLIENT1|56=DMA_HUB|34=104|52=20240214-14:40:18|21=1|11=HS_170792161872|38=4105|55=E:07G@XETR|54=2|60=20240214-14:40:18|40=2|59=0|44=197|48=US3390411052|22=4|15=EUR|207=XETR|1=bram_123|10=241|
2024-02-14 15:40:18.465 [34] [FixSender] (DEBUG) Sending 8=FIX.4.4|9=195|35=D|49=FIXCLIENT1|56=DMA_HUB|34=105|52=20240214-14:40:18|21=1|11=HS_170792161873|38=4848|55=E:07G@XETR|54=2|60=20240214-14:40:18|40=2|59=0|44=197|48=US3390411052|22=4|15=EUR|207=XETR|1=bram_123|10=001|
2024-02-14 15:40:18.465 [34] [FixSender] (DEBUG) Sending 8=FIX.4.4|9=195|35=D|49=FIXCLIENT1|56=DMA_HUB|34=106|52=20240214-14:40:18|21=1|11=HS_170792161874|38=2369|55=E:07G@XETR|54=2|60=20240214-14:40:18|40=2|59=0|44=197|48=US3390411052|22=4|15=EUR|207=XETR|1=bram_123|10=255|
2024-02-14 15:40:18.466 [34] [FixSender] (DEBUG) Sending 8=FIX.4.4|9=195|35=D|49=FIXCLIENT1|56=DMA_HUB|34=107|52=20240214-14:40:18|21=1|11=HS_170792161875|38=3822|55=E:07G@XETR|54=2|60=20240214-14:40:18|40=2|59=0|44=197|48=US3390411052|22=4|15=EUR|207=XETR|1=bram_123|10=252|
2024-02-14 15:40:18.466 [34] [FixSender] (DEBUG) Sending 8=FIX.4.4|9=194|35=D|49=FIXCLIENT1|56=DMA_HUB|34=108|52=20240214-14:40:18|21=1|11=HS_170792161876|38=815|55=E:07G@XETR|54=2|60=20240214-14:40:18|40=2|59=0|44=197|48=US3390411052|22=4|15=EUR|207=XETR|1=bram_123|10=204|
2024-02-14 15:40:18.466 [29] [FixSender] (DEBUG) Receiving 8=FIX.4.4|9=235|35=8|34=23|49=DMA_HUB|56=FIXCLIENT1|52=20240214-14:40:18.466|11=HS_17079216181|37=FXSdnJ2fQ|54=2|40=2|59=0|17=202402143|150=A|39=A|38=1390|151=1390|14=0|6=0|44=197|60=20240214-14:40:18.000|22=4|48=US3390411052|207=XETR|15=EUR|55=[N/A]|10=020|
2024-02-14 15:40:18.467 [34] [FixSender] (DEBUG) Sending 8=FIX.4.4|9=195|35=D|49=FIXCLIENT1|56=DMA_HUB|34=109|52=20240214-14:40:18|21=1|11=HS_170792161877|38=3106|55=E:07G@XETR|54=2|60=20240214-14:40:18|40=2|59=0|44=197|48=US3390411052|22=4|15=EUR|207=XETR|1=bram_123|10=251|
2024-02-14 15:40:18.467 [34] [FixSender] (DEBUG) Sending 8=FIX.4.4|9=195|35=D|49=FIXCLIENT1|56=DMA_HUB|34=110|52=20240214-14:40:18|21=1|11=HS_170792161878|38=3277|55=E:07G@XETR|54=2|60=20240214-14:40:18|40=2|59=0|44=197|48=US3390411052|22=4|15=EUR|207=XETR|1=bram_123|10=253|
2024-02-14 15:40:18.467 [34] [FixSender] (DEBUG) Sending 8=FIX.4.4|9=195|35=D|49=FIXCLIENT1|56=DMA_HUB|34=111|52=20240214-14:40:18|21=1|11=HS_170792161879|38=1778|55=E:07G@XETR|54=2|60=20240214-14:40:18|40=2|59=0|44=197|48=US3390411052|22=4|15=EUR|207=XETR|1=bram_123|10=003|
2024-02-14 15:40:18.468 [34] [FixSender] (DEBUG) Sending 8=FIX.4.4|9=194|35=D|49=FIXCLIENT1|56=DMA_HUB|34=112|52=20240214-14:40:18|21=1|11=HS_170792161880|38=458|55=E:07G@XETR|54=2|60=20240214-14:40:18|40=2|59=0|44=197|48=US3390411052|22=4|15=EUR|207=XETR|1=bram_123|10=197|
2024-02-14 15:40:18.468 [29] [FixSender] (DEBUG) Receiving 8=FIX.4.4|9=235|35=8|34=24|49=DMA_HUB|56=FIXCLIENT1|52=20240214-14:40:18.467|11=HS_17079216182|37=FXTdnJ2fQ|54=2|40=2|59=0|17=202402144|150=A|39=A|38=2924|151=2924|14=0|6=0|44=197|60=20240214-14:40:18.000|22=4|48=US3390411052|207=XETR|15=EUR|55=[N/A]|10=033|
2024-02-14 15:40:18.468 [34] [FixSender] (DEBUG) Sending 8=FIX.4.4|9=195|35=D|49=FIXCLIENT1|56=DMA_HUB|34=113|52=20240214-14:40:18|21=1|11=HS_170792161881|38=2527|55=E:07G@XETR|54=2|60=20240214-14:40:18|40=2|59=0|44=197|48=US3390411052|22=4|15=EUR|207=XETR|1=bram_123|10=247|
2024-02-14 15:40:18.468 [34] [FixSender] (DEBUG) Sending 8=FIX.4.4|9=195|35=D|49=FIXCLIENT1|56=DMA_HUB|34=114|52=20240214-14:40:18|21=1|11=HS_170792161882|38=3616|55=E:07G@XETR|54=2|60=20240214-14:40:18|40=2|59=0|44=197|48=US3390411052|22=4|15=EUR|207=XETR|1=bram_123|10=249|
2024-02-14 15:40:18.468 [29] [FixSender] (DEBUG) Receiving 8=FIX.4.4|9=235|35=8|34=25|49=DMA_HUB|56=FIXCLIENT1|52=20240214-14:40:18.468|11=HS_17079216183|37=FXUdnJ2fQ|54=2|40=2|59=0|17=202402145|150=A|39=A|38=4414|151=4414|14=0|6=0|44=197|60=20240214-14:40:18.000|22=4|48=US3390411052|207=XETR|15=EUR|55=[N/A]|10=030|
2024-02-14 15:40:18.469 [34] [FixSender] (DEBUG) Sending 8=FIX.4.4|9=195|35=D|49=FIXCLIENT1|56=DMA_HUB|34=115|52=20240214-14:40:18|21=1|11=HS_170792161883|38=4141|55=E:07G@XETR|54=2|60=20240214-14:40:18|40=2|59=0|44=197|48=US3390411052|22=4|15=EUR|207=XETR|1=bram_123|10=245|
2024-02-14 15:40:18.469 [29] [FixSender] (DEBUG) Receiving 8=FIX.4.4|9=235|35=8|34=26|49=DMA_HUB|56=FIXCLIENT1|52=20240214-14:40:18.469|11=HS_17079216184|37=FXVdnJ2fQ|54=2|40=2|59=0|17=202402146|150=A|39=A|38=4607|151=4607|14=0|6=0|44=197|60=20240214-14:40:18.000|22=4|48=US3390411052|207=XETR|15=EUR|55=[N/A]|10=043|
2024-02-14 15:40:18.469 [34] [FixSender] (DEBUG) Sending 8=FIX.4.4|9=195|35=D|49=FIXCLIENT1|56=DMA_HUB|34=116|52=20240214-14:40:18|21=1|11=HS_170792161884|38=1167|55=E:07G@XETR|54=2|60=20240214-14:40:18|40=2|59=0|44=197|48=US3390411052|22=4|15=EUR|207=XETR|1=bram_123|10=252|
2024-02-14 15:40:18.469 [34] [FixSender] (DEBUG) Sending 8=FIX.4.4|9=195|35=D|49=FIXCLIENT1|56=DMA_HUB|34=117|52=20240214-14:40:18|21=1|11=HS_170792161885|38=1662|55=E:07G@XETR|54=2|60=20240214-14:40:18|40=2|59=0|44=197|48=US3390411052|22=4|15=EUR|207=XETR|1=bram_123|10=254|
2024-02-14 15:40:18.470 [29] [FixSender] (DEBUG) Receiving 8=FIX.4.4|9=235|35=8|34=27|49=DMA_HUB|56=FIXCLIENT1|52=20240214-14:40:18.469|11=HS_17079216185|37=FXWdnJ2fQ|54=2|40=2|59=0|17=202402147|150=A|39=A|38=4719|151=4719|14=0|6=0|44=197|60=20240214-14:40:18.000|22=4|48=US3390411052|207=XETR|15=EUR|55=[N/A]|10=055|
2024-02-14 15:40:18.470 [34] [FixSender] (DEBUG) Sending 8=FIX.4.4|9=195|35=D|49=FIXCLIENT1|56=DMA_HUB|34=118|52=20240214-14:40:18|21=1|11=HS_170792161886|38=1441|55=E:07G@XETR|54=2|60=20240214-14:40:18|40=2|59=0|44=197|48=US3390411052|22=4|15=EUR|207=XETR|1=bram_123|10=251|
2024-02-14 15:40:18.470 [34] [FixSender] (DEBUG) Sending 8=FIX.4.4|9=195|35=D|49=FIXCLIENT1|56=DMA_HUB|34=119|52=20240214-14:40:18|21=1|11=HS_170792161887|38=4759|55=E:07G@XETR|54=2|60=20240214-14:40:18|40=2|59=0|44=197|48=US3390411052|22=4|15=EUR|207=XETR|1=bram_123|10=012|
2024-02-14 15:40:18.470 [29] [FixSender] (DEBUG) Receiving 8=FIX.4.4|9=235|35=8|34=28|49=DMA_HUB|56=FIXCLIENT1|52=20240214-14:40:18.470|11=HS_17079216186|37=FXXdnJ2fQ|54=2|40=2|59=0|17=202402148|150=A|39=A|38=3324|151=3324|14=0|6=0|44=197|60=20240214-14:40:18.000|22=4|48=US3390411052|207=XETR|15=EUR|55=[N/A]|10=033|
2024-02-14 15:40:18.470 [34] [FixSender] (DEBUG) Sending 8=FIX.4.4|9=195|35=D|49=FIXCLIENT1|56=DMA_HUB|34=120|52=20240214-14:40:18|21=1|11=HS_170792161888|38=2933|55=E:07G@XETR|54=2|60=20240214-14:40:18|40=2|59=0|44=197|48=US3390411052|22=4|15=EUR|207=XETR|1=bram_123|10=253|
2024-02-14 15:40:18.471 [34] [FixSender] (DEBUG) Sending 8=FIX.4.4|9=194|35=D|49=FIXCLIENT1|56=DMA_HUB|34=121|52=20240214-14:40:18|21=1|11=HS_170792161889|38=364|55=E:07G@XETR|54=2|60=20240214-14:40:18|40=2|59=0|44=197|48=US3390411052|22=4|15=EUR|207=XETR|1=bram_123|10=202|
2024-02-14 15:40:18.471 [29] [FixSender] (DEBUG) Receiving 8=FIX.4.4|9=235|35=8|34=29|49=DMA_HUB|56=FIXCLIENT1|52=20240214-14:40:18.471|11=HS_17079216187|37=FXYdnJ2fQ|54=2|40=2|59=0|17=202402149|150=A|39=A|38=4532|151=4532|14=0|6=0|44=197|60=20240214-14:40:18.000|22=4|48=US3390411052|207=XETR|15=EUR|55=[N/A]|10=042|
2024-02-14 15:40:18.471 [34] [FixSender] (DEBUG) Sending 8=FIX.4.4|9=194|35=D|49=FIXCLIENT1|56=DMA_HUB|34=122|52=20240214-14:40:18|21=1|11=HS_170792161890|38=531|55=E:07G@XETR|54=2|60=20240214-14:40:18|40=2|59=0|44=197|48=US3390411052|22=4|15=EUR|207=XETR|1=bram_123|10=191|
2024-02-14 15:40:18.472 [29] [FixSender] (DEBUG) Receiving 8=FIX.4.4|9=234|35=8|34=30|49=DMA_HUB|56=FIXCLIENT1|52=20240214-14:40:18.471|11=HS_17079216188|37=FXZdnJ2fQ|54=2|40=2|59=0|17=2024021410|150=A|39=A|38=541|151=541|14=0|6=0|44=197|60=20240214-14:40:18.000|22=4|48=US3390411052|207=XETR|15=EUR|55=[N/A]|10=227|
2024-02-14 15:40:18.472 [34] [FixSender] (DEBUG) Sending 8=FIX.4.4|9=194|35=D|49=FIXCLIENT1|56=DMA_HUB|34=123|52=20240214-14:40:18|21=1|11=HS_170792161891|38=782|55=E:07G@XETR|54=2|60=20240214-14:40:18|40=2|59=0|44=197|48=US3390411052|22=4|15=EUR|207=XETR|1=bram_123|10=201|
2024-02-14 15:40:18.472 [34] [FixSender] (DEBUG) Sending 8=FIX.4.4|9=195|35=D|49=FIXCLIENT1|56=DMA_HUB|34=124|52=20240214-14:40:18|21=1|11=HS_170792161892|38=2606|55=E:07G@XETR|54=2|60=20240214-14:40:18|40=2|59=0|44=197|48=US3390411052|22=4|15=EUR|207=XETR|1=bram_123|10=249|
2024-02-14 15:40:18.472 [29] [FixSender] (DEBUG) Receiving 8=FIX.4.4|9=236|35=8|34=31|49=DMA_HUB|56=FIXCLIENT1|52=20240214-14:40:18.472|11=HS_17079216189|37=FXadnJ2fQ|54=2|40=2|59=0|17=2024021411|150=A|39=A|38=3275|151=3275|14=0|6=0|44=197|60=20240214-14:40:18.000|22=4|48=US3390411052|207=XETR|15=EUR|55=[N/A]|10=094|
2024-02-14 15:40:18.473 [34] [FixSender] (DEBUG) Sending 8=FIX.4.4|9=195|35=D|49=FIXCLIENT1|56=DMA_HUB|34=125|52=20240214-14:40:18|21=1|11=HS_170792161893|38=4815|55=E:07G@XETR|54=2|60=20240214-14:40:18|40=2|59=0|44=197|48=US3390411052|22=4|15=EUR|207=XETR|1=bram_123|10=255|
2024-02-14 15:40:18.473 [29] [FixSender] (DEBUG) Receiving 8=FIX.4.4|9=237|35=8|34=32|49=DMA_HUB|56=FIXCLIENT1|52=20240214-14:40:18.473|11=HS_170792161810|37=FXbdnJ2fQ|54=2|40=2|59=0|17=2024021412|150=A|39=A|38=3596|151=3596|14=0|6=0|44=197|60=20240214-14:40:18.000|22=4|48=US3390411052|207=XETR|15=EUR|55=[N/A]|10=151|
2024-02-14 15:40:18.473 [34] [FixSender] (DEBUG) Sending 8=FIX.4.4|9=195|35=D|49=FIXCLIENT1|56=DMA_HUB|34=126|52=20240214-14:40:18|21=1|11=HS_170792161894|38=1660|55=E:07G@XETR|54=2|60=20240214-14:40:18|40=2|59=0|44=197|48=US3390411052|22=4|15=EUR|207=XETR|1=bram_123|10=252|
2024-02-14 15:40:18.474 [34] [FixSender] (DEBUG) Sending 8=FIX.4.4|9=195|35=D|49=FIXCLIENT1|56=DMA_HUB|34=127|52=20240214-14:40:18|21=1|11=HS_170792161895|38=4155|55=E:07G@XETR|54=2|60=20240214-14:40:18|40=2|59=0|44=197|48=US3390411052|22=4|15=EUR|207=XETR|1=bram_123|10=000|
2024-02-14 15:40:18.474 [34] [FixSender] (DEBUG) Sending 8=FIX.4.4|9=195|35=D|49=FIXCLIENT1|56=DMA_HUB|34=128|52=20240214-14:40:18|21=1|11=HS_170792161896|38=4911|55=E:07G@XETR|54=2|60=20240214-14:40:18|40=2|59=0|44=197|48=US3390411052|22=4|15=EUR|207=XETR|1=bram_123|10=002|
2024-02-14 15:40:18.475 [34] [FixSender] (DEBUG) Sending 8=FIX.4.4|9=194|35=D|49=FIXCLIENT1|56=DMA_HUB|34=129|52=20240214-14:40:18|21=1|11=HS_170792161897|38=141|55=E:07G@XETR|54=2|60=20240214-14:40:18|40=2|59=0|44=197|48=US3390411052|22=4|15=EUR|207=XETR|1=bram_123|10=202|
2024-02-14 15:40:18.475 [34] [FixSender] (DEBUG) Sending 8=FIX.4.4|9=195|35=D|49=FIXCLIENT1|56=DMA_HUB|34=130|52=20240214-14:40:18|21=1|11=HS_170792161898|38=4138|55=E:07G@XETR|54=2|60=20240214-14:40:18|40=2|59=0|44=197|48=US3390411052|22=4|15=EUR|207=XETR|1=bram_123|10=254|
2024-02-14 15:40:18.475 [29] [FixSender] (DEBUG) Receiving 8=FIX.4.4|9=235|35=8|34=33|49=DMA_HUB|56=FIXCLIENT1|52=20240214-14:40:18.473|11=HS_170792161811|37=FXcdnJ2fQ|54=2|40=2|59=0|17=2024021413|150=A|39=A|38=630|151=630|14=0|6=0|44=197|60=20240214-14:40:18.000|22=4|48=US3390411052|207=XETR|15=EUR|55=[N/A]|10=029|
2024-02-14 15:40:18.475 [34] [FixSender] (DEBUG) Sending 8=FIX.4.4|9=195|35=D|49=FIXCLIENT1|56=DMA_HUB|34=131|52=20240214-14:40:18|21=1|11=HS_170792161899|38=4249|55=E:07G@XETR|54=2|60=20240214-14:40:18|40=2|59=0|44=197|48=US3390411052|22=4|15=EUR|207=XETR|1=bram_123|10=003|
2024-02-14 15:40:18.476 [29] [FixSender] (DEBUG) Receiving 8=FIX.4.4|9=237|35=8|34=34|49=DMA_HUB|56=FIXCLIENT1|52=20240214-14:40:18.474|11=HS_170792161812|37=FXddnJ2fQ|54=2|40=2|59=0|17=2024021414|150=A|39=A|38=1956|151=1956|14=0|6=0|44=197|60=20240214-14:40:18.000|22=4|48=US3390411052|207=XETR|15=EUR|55=[N/A]|10=156|
2024-02-14 15:40:18.476 [34] [FixSender] (DEBUG) Sending 8=FIX.4.4|9=196|35=D|49=FIXCLIENT1|56=DMA_HUB|34=132|52=20240214-14:40:18|21=1|11=HS_1707921618100|38=1561|55=E:07G@XETR|54=2|60=20240214-14:40:18|40=2|59=0|44=197|48=US3390411052|22=4|15=EUR|207=XETR|1=bram_123|10=030|
2024-02-14 15:40:18.476 [29] [FixSender] (DEBUG) Receiving 8=FIX.4.4|9=237|35=8|34=35|49=DMA_HUB|56=FIXCLIENT1|52=20240214-14:40:18.475|11=HS_170792161813|37=FXednJ2fQ|54=2|40=2|59=0|17=2024021415|150=A|39=A|38=4174|151=4174|14=0|6=0|44=197|60=20240214-14:40:18.000|22=4|48=US3390411052|207=XETR|15=EUR|55=[N/A]|10=151|
2024-02-14 15:40:18.477 [34] [FixSender] (DEBUG) Sending 8=FIX.4.4|9=196|35=D|49=FIXCLIENT1|56=DMA_HUB|34=133|52=20240214-14:40:18|21=1|11=HS_1707921618101|38=3314|55=E:07G@XETR|54=2|60=20240214-14:40:18|40=2|59=0|44=197|48=US3390411052|22=4|15=EUR|207=XETR|1=bram_123|10=030|
2024-02-14 15:40:18.477 [34] [FixSender] (DEBUG) Sending 8=FIX.4.4|9=196|35=D|49=FIXCLIENT1|56=DMA_HUB|34=134|52=20240214-14:40:18|21=1|11=HS_1707921618102|38=4336|55=E:07G@XETR|54=2|60=20240214-14:40:18|40=2|59=0|44=197|48=US3390411052|22=4|15=EUR|207=XETR|1=bram_123|10=037|
2024-02-14 15:40:18.477 [34] [FixSender] (DEBUG) Sending 8=FIX.4.4|9=195|35=D|49=FIXCLIENT1|56=DMA_HUB|34=135|52=20240214-14:40:18|21=1|11=HS_1707921618103|38=591|55=E:07G@XETR|54=2|60=20240214-14:40:18|40=2|59=0|44=197|48=US3390411052|22=4|15=EUR|207=XETR|1=bram_123|10=245|
2024-02-14 15:40:18.478 [34] [FixSender] (DEBUG) Sending 8=FIX.4.4|9=196|35=D|49=FIXCLIENT1|56=DMA_HUB|34=136|52=20240214-14:40:18|21=1|11=HS_1707921618104|38=3237|55=E:07G@XETR|54=2|60=20240214-14:40:18|40=2|59=0|44=197|48=US3390411052|22=4|15=EUR|207=XETR|1=bram_123|10=040|
2024-02-14 15:40:18.478 [34] [FixSender] (DEBUG) Sending 8=FIX.4.4|9=196|35=D|49=FIXCLIENT1|56=DMA_HUB|34=137|52=20240214-14:40:18|21=1|11=HS_1707921618105|38=4311|55=E:07G@XETR|54=2|60=20240214-14:40:18|40=2|59=0|44=197|48=US3390411052|22=4|15=EUR|207=XETR|1=bram_123|10=036|
2024-02-14 15:40:18.478 [34] [FixSender] (DEBUG) Sending 8=FIX.4.4|9=196|35=D|49=FIXCLIENT1|56=DMA_HUB|34=138|52=20240214-14:40:18|21=1|11=HS_1707921618106|38=2868|55=E:07G@XETR|54=2|60=20240214-14:40:18|40=2|59=0|44=197|48=US3390411052|22=4|15=EUR|207=XETR|1=bram_123|10=053|
2024-02-14 15:40:18.479 [29] [FixSender] (DEBUG) Receiving 8=FIX.4.4|9=237|35=8|34=36|49=DMA_HUB|56=FIXCLIENT1|52=20240214-14:40:18.475|11=HS_170792161814|37=FXfdnJ2fQ|54=2|40=2|59=0|17=2024021416|150=A|39=A|38=1258|151=1258|14=0|6=0|44=197|60=20240214-14:40:18.000|22=4|48=US3390411052|207=XETR|15=EUR|55=[N/A]|10=155|
2024-02-14 15:40:18.479 [34] [FixSender] (DEBUG) Sending 8=FIX.4.4|9=196|35=D|49=FIXCLIENT1|56=DMA_HUB|34=139|52=20240214-14:40:18|21=1|11=HS_1707921618107|38=1429|55=E:07G@XETR|54=2|60=20240214-14:40:18|40=2|59=0|44=197|48=US3390411052|22=4|15=EUR|207=XETR|1=bram_123|10=047|
2024-02-14 15:40:18.479 [29] [FixSender] (DEBUG) Receiving 8=FIX.4.4|9=237|35=8|34=37|49=DMA_HUB|56=FIXCLIENT1|52=20240214-14:40:18.477|11=HS_170792161815|37=FXgdnJ2fQ|54=2|40=2|59=0|17=2024021417|150=A|39=A|38=1716|151=1716|14=0|6=0|44=197|60=20240214-14:40:18.000|22=4|48=US3390411052|207=XETR|15=EUR|55=[N/A]|10=159|
2024-02-14 15:40:18.479 [34] [FixSender] (DEBUG) Sending 8=FIX.4.4|9=195|35=D|49=FIXCLIENT1|56=DMA_HUB|34=140|52=20240214-14:40:18|21=1|11=HS_1707921618108|38=244|55=E:07G@XETR|54=2|60=20240214-14:40:18|40=2|59=0|44=197|48=US3390411052|22=4|15=EUR|207=XETR|1=bram_123|10=241|
2024-02-14 15:40:18.479 [29] [FixSender] (DEBUG) Receiving 8=FIX.4.4|9=237|35=8|34=38|49=DMA_HUB|56=FIXCLIENT1|52=20240214-14:40:18.478|11=HS_170792161816|37=FXhdnJ2fQ|54=2|40=2|59=0|17=2024021418|150=A|39=A|38=1878|151=1878|14=0|6=0|44=197|60=20240214-14:40:18.000|22=4|48=US3390411052|207=XETR|15=EUR|55=[N/A]|10=182|
2024-02-14 15:40:18.479 [29] [FixSender] (DEBUG) Receiving 8=FIX.4.4|9=237|35=8|34=39|49=DMA_HUB|56=FIXCLIENT1|52=20240214-14:40:18.478|11=HS_170792161817|37=FXidnJ2fQ|54=2|40=2|59=0|17=2024021419|150=A|39=A|38=1187|151=1187|14=0|6=0|44=197|60=20240214-14:40:18.000|22=4|48=US3390411052|207=XETR|15=EUR|55=[N/A]|10=172|
2024-02-14 15:40:18.479 [34] [FixSender] (DEBUG) Sending 8=FIX.4.4|9=196|35=D|49=FIXCLIENT1|56=DMA_HUB|34=141|52=20240214-14:40:18|21=1|11=HS_1707921618109|38=2036|55=E:07G@XETR|54=2|60=20240214-14:40:18|40=2|59=0|44=197|48=US3390411052|22=4|15=EUR|207=XETR|1=bram_123|10=037|
2024-02-14 15:40:18.480 [34] [FixSender] (DEBUG) Sending 8=FIX.4.4|9=196|35=D|49=FIXCLIENT1|56=DMA_HUB|34=142|52=20240214-14:40:18|21=1|11=HS_1707921618110|38=2076|55=E:07G@XETR|54=2|60=20240214-14:40:18|40=2|59=0|44=197|48=US3390411052|22=4|15=EUR|207=XETR|1=bram_123|10=034|
2024-02-14 15:40:18.480 [34] [FixSender] (DEBUG) Sending 8=FIX.4.4|9=196|35=D|49=FIXCLIENT1|56=DMA_HUB|34=143|52=20240214-14:40:18|21=1|11=HS_1707921618111|38=3800|55=E:07G@XETR|54=2|60=20240214-14:40:18|40=2|59=0|44=197|48=US3390411052|22=4|15=EUR|207=XETR|1=bram_123|10=032|
2024-02-14 15:40:18.481 [34] [FixSender] (DEBUG) Sending 8=FIX.4.4|9=195|35=D|49=FIXCLIENT1|56=DMA_HUB|34=144|52=20240214-14:40:18|21=1|11=HS_1707921618112|38=342|55=E:07G@XETR|54=2|60=20240214-14:40:18|40=2|59=0|44=197|48=US3390411052|22=4|15=EUR|207=XETR|1=bram_123|10=239|
2024-02-14 15:40:18.481 [29] [FixSender] (DEBUG) Receiving 8=FIX.4.4|9=237|35=8|34=40|49=DMA_HUB|56=FIXCLIENT1|52=20240214-14:40:18.479|11=HS_170792161818|37=FXjdnJ2fQ|54=2|40=2|59=0|17=2024021420|150=A|39=A|38=3661|151=3661|14=0|6=0|44=197|60=20240214-14:40:18.000|22=4|48=US3390411052|207=XETR|15=EUR|55=[N/A]|10=157|
2024-02-14 15:40:18.481 [34] [FixSender] (DEBUG) Sending 8=FIX.4.4|9=196|35=D|49=FIXCLIENT1|56=DMA_HUB|34=145|52=20240214-14:40:18|21=1|11=HS_1707921618113|38=2757|55=E:07G@XETR|54=2|60=20240214-14:40:18|40=2|59=0|44=197|48=US3390411052|22=4|15=EUR|207=XETR|1=bram_123|10=046|
2024-02-14 15:40:18.481 [34] [FixSender] (DEBUG) Sending 8=FIX.4.4|9=196|35=D|49=FIXCLIENT1|56=DMA_HUB|34=146|52=20240214-14:40:18|21=1|11=HS_1707921618114|38=3216|55=E:07G@XETR|54=2|60=20240214-14:40:18|40=2|59=0|44=197|48=US3390411052|22=4|15=EUR|207=XETR|1=bram_123|10=039|
2024-02-14 15:40:18.482 [34] [FixSender] (DEBUG) Sending 8=FIX.4.4|9=196|35=D|49=FIXCLIENT1|56=DMA_HUB|34=147|52=20240214-14:40:18|21=1|11=HS_1707921618115|38=2693|55=E:07G@XETR|54=2|60=20240214-14:40:18|40=2|59=0|44=197|48=US3390411052|22=4|15=EUR|207=XETR|1=bram_123|10=049|
2024-02-14 15:40:18.482 [34] [FixSender] (DEBUG) Sending 8=FIX.4.4|9=196|35=D|49=FIXCLIENT1|56=DMA_HUB|34=148|52=20240214-14:40:18|21=1|11=HS_1707921618116|38=2726|55=E:07G@XETR|54=2|60=20240214-14:40:18|40=2|59=0|44=197|48=US3390411052|22=4|15=EUR|207=XETR|1=bram_123|10=048|
2024-02-14 15:40:18.482 [34] [FixSender] (DEBUG) Sending 8=FIX.4.4|9=196|35=D|49=FIXCLIENT1|56=DMA_HUB|34=149|52=20240214-14:40:18|21=1|11=HS_1707921618117|38=2692|55=E:07G@XETR|54=2|60=20240214-14:40:18|40=2|59=0|44=197|48=US3390411052|22=4|15=EUR|207=XETR|1=bram_123|10=052|
2024-02-14 15:40:18.482 [29] [FixSender] (DEBUG) Receiving 8=FIX.4.4|9=237|35=8|34=41|49=DMA_HUB|56=FIXCLIENT1|52=20240214-14:40:18.480|11=HS_170792161819|37=FXkdnJ2fQ|54=2|40=2|59=0|17=2024021421|150=A|39=A|38=2085|151=2085|14=0|6=0|44=197|60=20240214-14:40:18.000|22=4|48=US3390411052|207=XETR|15=EUR|55=[N/A]|10=151|
2024-02-14 15:40:18.483 [29] [FixSender] (DEBUG) Receiving 8=FIX.4.4|9=237|35=8|34=42|49=DMA_HUB|56=FIXCLIENT1|52=20240214-14:40:18.480|11=HS_170792161820|37=FXldnJ2fQ|54=2|40=2|59=0|17=2024021422|150=A|39=A|38=4896|151=4896|14=0|6=0|44=197|60=20240214-14:40:18.000|22=4|48=US3390411052|207=XETR|15=EUR|55=[N/A]|10=170|
2024-02-14 15:40:18.483 [34] [FixSender] (DEBUG) Sending 8=FIX.4.4|9=195|35=D|49=FIXCLIENT1|56=DMA_HUB|34=150|52=20240214-14:40:18|21=1|11=HS_1707921618118|38=149|55=E:07G@XETR|54=2|60=20240214-14:40:18|40=2|59=0|44=197|48=US3390411052|22=4|15=EUR|207=XETR|1=bram_123|10=247|
2024-02-14 15:40:18.483 [29] [FixSender] (DEBUG) Receiving 8=FIX.4.4|9=237|35=8|34=43|49=DMA_HUB|56=FIXCLIENT1|52=20240214-14:40:18.481|11=HS_170792161821|37=FXmdnJ2fQ|54=2|40=2|59=0|17=2024021423|150=A|39=A|38=1758|151=1758|14=0|6=0|44=197|60=20240214-14:40:18.000|22=4|48=US3390411052|207=XETR|15=EUR|55=[N/A]|10=163|
2024-02-14 15:40:18.483 [29] [FixSender] (DEBUG) Receiving 8=FIX.4.4|9=237|35=8|34=44|49=DMA_HUB|56=FIXCLIENT1|52=20240214-14:40:18.482|11=HS_170792161822|37=FXndnJ2fQ|54=2|40=2|59=0|17=2024021424|150=A|39=A|38=4576|151=4576|14=0|6=0|44=197|60=20240214-14:40:18.000|22=4|48=US3390411052|207=XETR|15=EUR|55=[N/A]|10=170|
2024-02-14 15:40:18.483 [29] [FixSender] (DEBUG) Receiving 8=FIX.4.4|9=237|35=8|34=45|49=DMA_HUB|56=FIXCLIENT1|52=20240214-14:40:18.482|11=HS_170792161823|37=FXodnJ2fQ|54=2|40=2|59=0|17=2024021425|150=A|39=A|38=2215|151=2215|14=0|6=0|44=197|60=20240214-14:40:18.000|22=4|48=US3390411052|207=XETR|15=EUR|55=[N/A]|10=150|
2024-02-14 15:40:18.483 [34] [FixSender] (DEBUG) Sending 8=FIX.4.4|9=196|35=D|49=FIXCLIENT1|56=DMA_HUB|34=151|52=20240214-14:40:18|21=1|11=HS_1707921618119|38=1103|55=E:07G@XETR|54=2|60=20240214-14:40:18|40=2|59=0|44=197|48=US3390411052|22=4|15=EUR|207=XETR|1=bram_123|10=033|
2024-02-14 15:40:18.483 [29] [FixSender] (DEBUG) Receiving 8=FIX.4.4|9=237|35=8|34=46|49=DMA_HUB|56=FIXCLIENT1|52=20240214-14:40:18.482|11=HS_170792161824|37=FXpdnJ2fQ|54=2|40=2|59=0|17=2024021426|150=A|39=A|38=2613|151=2613|14=0|6=0|44=197|60=20240214-14:40:18.000|22=4|48=US3390411052|207=XETR|15=EUR|55=[N/A]|10=158|
2024-02-14 15:40:18.483 [34] [FixSender] (DEBUG) Sending 8=FIX.4.4|9=196|35=D|49=FIXCLIENT1|56=DMA_HUB|34=152|52=20240214-14:40:18|21=1|11=HS_1707921618120|38=3354|55=E:07G@XETR|54=2|60=20240214-14:40:18|40=2|59=0|44=197|48=US3390411052|22=4|15=EUR|207=XETR|1=bram_123|10=036|
2024-02-14 15:40:18.484 [34] [FixSender] (DEBUG) Sending 8=FIX.4.4|9=195|35=D|49=FIXCLIENT1|56=DMA_HUB|34=153|52=20240214-14:40:18|21=1|11=HS_1707921618121|38=512|55=E:07G@XETR|54=2|60=20240214-14:40:18|40=2|59=0|44=197|48=US3390411052|22=4|15=EUR|207=XETR|1=bram_123|10=238|
2024-02-14 15:40:18.484 [29] [FixSender] (DEBUG) Receiving 8=FIX.4.4|9=237|35=8|34=47|49=DMA_HUB|56=FIXCLIENT1|52=20240214-14:40:18.483|11=HS_170792161825|37=FXqdnJ2fQ|54=2|40=2|59=0|17=2024021427|150=A|39=A|38=2551|151=2551|14=0|6=0|44=197|60=20240214-14:40:18.000|22=4|48=US3390411052|207=XETR|15=EUR|55=[N/A]|10=165|
2024-02-14 15:40:18.484 [29] [FixSender] (DEBUG) Receiving 8=FIX.4.4|9=237|35=8|34=48|49=DMA_HUB|56=FIXCLIENT1|52=20240214-14:40:18.484|11=HS_170792161826|37=FXrdnJ2fQ|54=2|40=2|59=0|17=2024021428|150=A|39=A|38=2514|151=2514|14=0|6=0|44=197|60=20240214-14:40:18.000|22=4|48=US3390411052|207=XETR|15=EUR|55=[N/A]|10=168|
2024-02-14 15:40:18.484 [34] [FixSender] (DEBUG) Sending 8=FIX.4.4|9=196|35=D|49=FIXCLIENT1|56=DMA_HUB|34=154|52=20240214-14:40:18|21=1|11=HS_1707921618122|38=1773|55=E:07G@XETR|54=2|60=20240214-14:40:18|40=2|59=0|44=197|48=US3390411052|22=4|15=EUR|207=XETR|1=bram_123|10=043|
2024-02-14 15:40:18.484 [34] [FixSender] (DEBUG) Sending 8=FIX.4.4|9=195|35=D|49=FIXCLIENT1|56=DMA_HUB|34=155|52=20240214-14:40:18|21=1|11=HS_1707921618123|38=512|55=E:07G@XETR|54=2|60=20240214-14:40:18|40=2|59=0|44=197|48=US3390411052|22=4|15=EUR|207=XETR|1=bram_123|10=242|
2024-02-14 15:40:18.484 [29] [FixSender] (DEBUG) Receiving 8=FIX.4.4|9=237|35=8|34=49|49=DMA_HUB|56=FIXCLIENT1|52=20240214-14:40:18.484|11=HS_170792161827|37=FXsdnJ2fQ|54=2|40=2|59=0|17=2024021429|150=A|39=A|38=3950|151=3950|14=0|6=0|44=197|60=20240214-14:40:18.000|22=4|48=US3390411052|207=XETR|15=EUR|55=[N/A]|10=182|
2024-02-14 15:40:18.486 [34] [FixSender] (DEBUG) Sending 8=FIX.4.4|9=196|35=D|49=FIXCLIENT1|56=DMA_HUB|34=156|52=20240214-14:40:18|21=1|11=HS_1707921618124|38=1807|55=E:07G@XETR|54=2|60=20240214-14:40:18|40=2|59=0|44=197|48=US3390411052|22=4|15=EUR|207=XETR|1=bram_123|10=045|
2024-02-14 15:40:18.486 [34] [FixSender] (DEBUG) Sending 8=FIX.4.4|9=196|35=D|49=FIXCLIENT1|56=DMA_HUB|34=157|52=20240214-14:40:18|21=1|11=HS_1707921618125|38=4516|55=E:07G@XETR|54=2|60=20240214-14:40:18|40=2|59=0|44=197|48=US3390411052|22=4|15=EUR|207=XETR|1=bram_123|10=047|
2024-02-14 15:40:18.486 [29] [FixSender] (DEBUG) Receiving 8=FIX.4.4|9=237|35=8|34=50|49=DMA_HUB|56=FIXCLIENT1|52=20240214-14:40:18.486|11=HS_170792161828|37=FXtdnJ2fQ|54=2|40=2|59=0|17=2024021430|150=A|39=A|38=3522|151=3522|14=0|6=0|44=197|60=20240214-14:40:18.000|22=4|48=US3390411052|207=XETR|15=EUR|55=[N/A]|10=160|
2024-02-14 15:40:18.486 [34] [FixSender] (DEBUG) Sending 8=FIX.4.4|9=196|35=D|49=FIXCLIENT1|56=DMA_HUB|34=158|52=20240214-14:40:18|21=1|11=HS_1707921618126|38=2679|55=E:07G@XETR|54=2|60=20240214-14:40:18|40=2|59=0|44=197|48=US3390411052|22=4|15=EUR|207=XETR|1=bram_123|10=057|
2024-02-14 15:40:18.487 [34] [FixSender] (DEBUG) Sending 8=FIX.4.4|9=196|35=D|49=FIXCLIENT1|56=DMA_HUB|34=159|52=20240214-14:40:18|21=1|11=HS_1707921618127|38=3258|55=E:07G@XETR|54=2|60=20240214-14:40:18|40=2|59=0|44=197|48=US3390411052|22=4|15=EUR|207=XETR|1=bram_123|10=053|
2024-02-14 15:40:18.487 [29] [FixSender] (DEBUG) Receiving 8=FIX.4.4|9=237|35=8|34=51|49=DMA_HUB|56=FIXCLIENT1|52=20240214-14:40:18.487|11=HS_170792161829|37=FXudnJ2fQ|54=2|40=2|59=0|17=2024021431|150=A|39=A|38=3382|151=3382|14=0|6=0|44=197|60=20240214-14:40:18.000|22=4|48=US3390411052|207=XETR|15=EUR|55=[N/A]|10=173|
2024-02-14 15:40:18.487 [34] [FixSender] (DEBUG) Sending 8=FIX.4.4|9=196|35=D|49=FIXCLIENT1|56=DMA_HUB|34=160|52=20240214-14:40:18|21=1|11=HS_1707921618128|38=3194|55=E:07G@XETR|54=2|60=20240214-14:40:18|40=2|59=0|44=197|48=US3390411052|22=4|15=EUR|207=XETR|1=bram_123|10=045|
2024-02-14 15:40:18.487 [34] [FixSender] (DEBUG) Sending 8=FIX.4.4|9=196|35=D|49=FIXCLIENT1|56=DMA_HUB|34=161|52=20240214-14:40:18|21=1|11=HS_1707921618129|38=4069|55=E:07G@XETR|54=2|60=20240214-14:40:18|40=2|59=0|44=197|48=US3390411052|22=4|15=EUR|207=XETR|1=bram_123|10=049|
2024-02-14 15:40:18.489 [29] [FixSender] (DEBUG) Receiving 8=FIX.4.4|9=237|35=8|34=52|49=DMA_HUB|56=FIXCLIENT1|52=20240214-14:40:18.488|11=HS_170792161830|37=FXvdnJ2fQ|54=2|40=2|59=0|17=2024021432|150=A|39=A|38=2829|151=2829|14=0|6=0|44=197|60=20240214-14:40:18.000|22=4|48=US3390411052|207=XETR|15=EUR|55=[N/A]|10=179|
2024-02-14 15:40:18.490 [34] [FixSender] (DEBUG) Sending 8=FIX.4.4|9=196|35=D|49=FIXCLIENT1|56=DMA_HUB|34=162|52=20240214-14:40:18|21=1|11=HS_1707921618130|38=1795|55=E:07G@XETR|54=2|60=20240214-14:40:18|40=2|59=0|44=197|48=US3390411052|22=4|15=EUR|207=XETR|1=bram_123|10=045|
2024-02-14 15:40:18.490 [29] [FixSender] (DEBUG) Receiving 8=FIX.4.4|9=237|35=8|34=53|49=DMA_HUB|56=FIXCLIENT1|52=20240214-14:40:18.489|11=HS_170792161831|37=FXwdnJ2fQ|54=2|40=2|59=0|17=2024021433|150=A|39=A|38=2446|151=2446|14=0|6=0|44=197|60=20240214-14:40:18.000|22=4|48=US3390411052|207=XETR|15=EUR|55=[N/A]|10=174|
2024-02-14 15:40:18.490 [29] [FixSender] (DEBUG) Receiving 8=FIX.4.4|9=237|35=8|34=54|49=DMA_HUB|56=FIXCLIENT1|52=20240214-14:40:18.490|11=HS_170792161832|37=FXxdnJ2fQ|54=2|40=2|59=0|17=2024021434|150=A|39=A|38=4160|151=4160|14=0|6=0|44=197|60=20240214-14:40:18.000|22=4|48=US3390411052|207=XETR|15=EUR|55=[N/A]|10=160|
2024-02-14 15:40:18.491 [34] [FixSender] (DEBUG) Sending 8=FIX.4.4|9=196|35=D|49=FIXCLIENT1|56=DMA_HUB|34=163|52=20240214-14:40:18|21=1|11=HS_1707921618131|38=2558|55=E:07G@XETR|54=2|60=20240214-14:40:18|40=2|59=0|44=197|48=US3390411052|22=4|15=EUR|207=XETR|1=bram_123|10=045|
2024-02-14 15:40:18.491 [29] [FixSender] (DEBUG) Receiving 8=FIX.4.4|9=237|35=8|34=55|49=DMA_HUB|56=FIXCLIENT1|52=20240214-14:40:18.491|11=HS_170792161833|37=FXydnJ2fQ|54=2|40=2|59=0|17=2024021435|150=A|39=A|38=3634|151=3634|14=0|6=0|44=197|60=20240214-14:40:18.000|22=4|48=US3390411052|207=XETR|15=EUR|55=[N/A]|10=175|
2024-02-14 15:40:18.492 [34] [FixSender] (DEBUG) Sending 8=FIX.4.4|9=196|35=D|49=FIXCLIENT1|56=DMA_HUB|34=164|52=20240214-14:40:18|21=1|11=HS_1707921618132|38=3985|55=E:07G@XETR|54=2|60=20240214-14:40:18|40=2|59=0|44=197|48=US3390411052|22=4|15=EUR|207=XETR|1=bram_123|10=052|
2024-02-14 15:40:18.492 [29] [FixSender] (DEBUG) Receiving 8=FIX.4.4|9=237|35=8|34=56|49=DMA_HUB|56=FIXCLIENT1|52=20240214-14:40:18.492|11=HS_170792161834|37=FXzdnJ2fQ|54=2|40=2|59=0|17=2024021436|150=A|39=A|38=4628|151=4628|14=0|6=0|44=197|60=20240214-14:40:18.000|22=4|48=US3390411052|207=XETR|15=EUR|55=[N/A]|10=188|
2024-02-14 15:40:18.493 [29] [FixSender] (DEBUG) Receiving 8=FIX.4.4|9=237|35=8|34=57|49=DMA_HUB|56=FIXCLIENT1|52=20240214-14:40:18.493|11=HS_170792161835|37=FX0enJ2fQ|54=2|40=2|59=0|17=2024021437|150=A|39=A|38=1695|151=1695|14=0|6=0|44=197|60=20240214-14:40:18.000|22=4|48=US3390411052|207=XETR|15=EUR|55=[N/A]|10=121|
2024-02-14 15:40:18.493 [34] [FixSender] (DEBUG) Sending 8=FIX.4.4|9=196|35=D|49=FIXCLIENT1|56=DMA_HUB|34=165|52=20240214-14:40:18|21=1|11=HS_1707921618133|38=4909|55=E:07G@XETR|54=2|60=20240214-14:40:18|40=2|59=0|44=197|48=US3390411052|22=4|15=EUR|207=XETR|1=bram_123|10=051|
2024-02-14 15:40:18.494 [34] [FixSender] (DEBUG) Sending 8=FIX.4.4|9=196|35=D|49=FIXCLIENT1|56=DMA_HUB|34=166|52=20240214-14:40:18|21=1|11=HS_1707921618134|38=4899|55=E:07G@XETR|54=2|60=20240214-14:40:18|40=2|59=0|44=197|48=US3390411052|22=4|15=EUR|207=XETR|1=bram_123|10=061|
2024-02-14 15:40:18.494 [29] [FixSender] (DEBUG) Receiving 8=FIX.4.4|9=235|35=8|34=58|49=DMA_HUB|56=FIXCLIENT1|52=20240214-14:40:18.494|11=HS_170792161836|37=FX1enJ2fQ|54=2|40=2|59=0|17=2024021438|150=A|39=A|38=540|151=540|14=0|6=0|44=197|60=20240214-14:40:18.000|22=4|48=US3390411052|207=XETR|15=EUR|55=[N/A]|10=004|
2024-02-14 15:40:18.496 [29] [FixSender] (DEBUG) Receiving 8=FIX.4.4|9=237|35=8|34=59|49=DMA_HUB|56=FIXCLIENT1|52=20240214-14:40:18.495|11=HS_170792161837|37=FX2enJ2fQ|54=2|40=2|59=0|17=2024021439|150=A|39=A|38=2513|151=2513|14=0|6=0|44=197|60=20240214-14:40:18.000|22=4|48=US3390411052|207=XETR|15=EUR|55=[N/A]|10=111|
2024-02-14 15:40:18.496 [34] [FixSender] (DEBUG) Sending 8=FIX.4.4|9=196|35=D|49=FIXCLIENT1|56=DMA_HUB|34=167|52=20240214-14:40:18|21=1|11=HS_1707921618135|38=2946|55=E:07G@XETR|54=2|60=20240214-14:40:18|40=2|59=0|44=197|48=US3390411052|22=4|15=EUR|207=XETR|1=bram_123|10=054|
2024-02-14 15:40:18.497 [29] [FixSender] (DEBUG) Receiving 8=FIX.4.4|9=237|35=8|34=60|49=DMA_HUB|56=FIXCLIENT1|52=20240214-14:40:18.496|11=HS_170792161838|37=FX3enJ2fQ|54=2|40=2|59=0|17=2024021440|150=A|39=A|38=1977|151=1977|14=0|6=0|44=197|60=20240214-14:40:18.000|22=4|48=US3390411052|207=XETR|15=EUR|55=[N/A]|10=124|
2024-02-14 15:40:18.499 [29] [FixSender] (DEBUG) Receiving 8=FIX.4.4|9=237|35=8|34=61|49=DMA_HUB|56=FIXCLIENT1|52=20240214-14:40:18.497|11=HS_170792161839|37=FX4enJ2fQ|54=2|40=2|59=0|17=2024021441|150=A|39=A|38=1588|151=1588|14=0|6=0|44=197|60=20240214-14:40:18.000|22=4|48=US3390411052|207=XETR|15=EUR|55=[N/A]|10=125|
2024-02-14 15:40:18.500 [29] [FixSender] (DEBUG) Receiving 8=FIX.4.4|9=237|35=8|34=62|49=DMA_HUB|56=FIXCLIENT1|52=20240214-14:40:18.498|11=HS_170792161840|37=FX5enJ2fQ|54=2|40=2|59=0|17=2024021442|150=A|39=A|38=4486|151=4486|14=0|6=0|44=197|60=20240214-14:40:18.000|22=4|48=US3390411052|207=XETR|15=EUR|55=[N/A]|10=121|
2024-02-14 15:40:18.500 [29] [FixSender] (DEBUG) Receiving 8=FIX.4.4|9=237|35=8|34=63|49=DMA_HUB|56=FIXCLIENT1|52=20240214-14:40:18.499|11=HS_170792161841|37=FX6enJ2fQ|54=2|40=2|59=0|17=2024021443|150=A|39=A|38=1511|151=1511|14=0|6=0|44=197|60=20240214-14:40:18.000|22=4|48=US3390411052|207=XETR|15=EUR|55=[N/A]|10=098|
2024-02-14 15:40:18.501 [34] [FixSender] (DEBUG) Sending 8=FIX.4.4|9=196|35=D|49=FIXCLIENT1|56=DMA_HUB|34=168|52=20240214-14:40:18|21=1|11=HS_1707921618136|38=1226|55=E:07G@XETR|54=2|60=20240214-14:40:18|40=2|59=0|44=197|48=US3390411052|22=4|15=EUR|207=XETR|1=bram_123|10=046|
2024-02-14 15:40:18.501 [29] [FixSender] (DEBUG) Receiving 8=FIX.4.4|9=237|35=8|34=64|49=DMA_HUB|56=FIXCLIENT1|52=20240214-14:40:18.500|11=HS_170792161842|37=FX7enJ2fQ|54=2|40=2|59=0|17=2024021444|150=A|39=A|38=2429|151=2429|14=0|6=0|44=197|60=20240214-14:40:18.000|22=4|48=US3390411052|207=XETR|15=EUR|55=[N/A]|10=103|
2024-02-14 15:40:18.502 [29] [FixSender] (DEBUG) Receiving 8=FIX.4.4|9=237|35=8|34=65|49=DMA_HUB|56=FIXCLIENT1|52=20240214-14:40:18.500|11=HS_170792161843|37=FX8enJ2fQ|54=2|40=2|59=0|17=2024021445|150=A|39=A|38=2277|151=2277|14=0|6=0|44=197|60=20240214-14:40:18.000|22=4|48=US3390411052|207=XETR|15=EUR|55=[N/A]|10=109|
2024-02-14 15:40:18.502 [29] [FixSender] (DEBUG) Receiving 8=FIX.4.4|9=237|35=8|34=66|49=DMA_HUB|56=FIXCLIENT1|52=20240214-14:40:18.501|11=HS_170792161844|37=FX9enJ2fQ|54=2|40=2|59=0|17=2024021446|150=A|39=A|38=4333|151=4333|14=0|6=0|44=197|60=20240214-14:40:18.000|22=4|48=US3390411052|207=XETR|15=EUR|55=[N/A]|10=104|
2024-02-14 15:40:18.502 [29] [FixSender] (DEBUG) Receiving 8=FIX.4.4|9=237|35=8|34=67|49=DMA_HUB|56=FIXCLIENT1|52=20240214-14:40:18.502|11=HS_170792161845|37=FXAenJ2fQ|54=2|40=2|59=0|17=2024021447|150=A|39=A|38=1763|151=1763|14=0|6=0|44=197|60=20240214-14:40:18.000|22=4|48=US3390411052|207=XETR|15=EUR|55=[N/A]|10=124|
2024-02-14 15:40:18.504 [34] [FixSender] (DEBUG) Sending 8=FIX.4.4|9=196|35=D|49=FIXCLIENT1|56=DMA_HUB|34=169|52=20240214-14:40:18|21=1|11=HS_1707921618137|38=2746|55=E:07G@XETR|54=2|60=20240214-14:40:18|40=2|59=0|44=197|48=US3390411052|22=4|15=EUR|207=XETR|1=bram_123|10=056|
2024-02-14 15:40:18.504 [29] [FixSender] (DEBUG) Receiving 8=FIX.4.4|9=237|35=8|34=68|49=DMA_HUB|56=FIXCLIENT1|52=20240214-14:40:18.503|11=HS_170792161846|37=FXBenJ2fQ|54=2|40=2|59=0|17=2024021448|150=A|39=A|38=4034|151=4034|14=0|6=0|44=197|60=20240214-14:40:18.000|22=4|48=US3390411052|207=XETR|15=EUR|55=[N/A]|10=117|
2024-02-14 15:40:18.504 [29] [FixSender] (DEBUG) Receiving 8=FIX.4.4|9=237|35=8|34=69|49=DMA_HUB|56=FIXCLIENT1|52=20240214-14:40:18.504|11=HS_170792161847|37=FXCenJ2fQ|54=2|40=2|59=0|17=2024021449|150=A|39=A|38=2819|151=2819|14=0|6=0|44=197|60=20240214-14:40:18.000|22=4|48=US3390411052|207=XETR|15=EUR|55=[N/A]|10=140|
2024-02-14 15:40:18.506 [34] [FixSender] (DEBUG) Sending 8=FIX.4.4|9=196|35=D|49=FIXCLIENT1|56=DMA_HUB|34=170|52=20240214-14:40:18|21=1|11=HS_1707921618138|38=2528|55=E:07G@XETR|54=2|60=20240214-14:40:18|40=2|59=0|44=197|48=US3390411052|22=4|15=EUR|207=XETR|1=bram_123|10=047|
2024-02-14 15:40:18.507 [29] [FixSender] (DEBUG) Receiving 8=FIX.4.4|9=237|35=8|34=70|49=DMA_HUB|56=FIXCLIENT1|52=20240214-14:40:18.506|11=HS_170792161848|37=FXDenJ2fQ|54=2|40=2|59=0|17=2024021450|150=A|39=A|38=1237|151=1237|14=0|6=0|44=197|60=20240214-14:40:18.000|22=4|48=US3390411052|207=XETR|15=EUR|55=[N/A]|10=114|
2024-02-14 15:40:18.507 [34] [FixSender] (DEBUG) Sending 8=FIX.4.4|9=196|35=D|49=FIXCLIENT1|56=DMA_HUB|34=171|52=20240214-14:40:18|21=1|11=HS_1707921618139|38=4538|55=E:07G@XETR|54=2|60=20240214-14:40:18|40=2|59=0|44=197|48=US3390411052|22=4|15=EUR|207=XETR|1=bram_123|10=052|
2024-02-14 15:40:18.509 [29] [FixSender] (DEBUG) Receiving 8=FIX.4.4|9=235|35=8|34=71|49=DMA_HUB|56=FIXCLIENT1|52=20240214-14:40:18.508|11=HS_170792161849|37=FXEenJ2fQ|54=2|40=2|59=0|17=2024021451|150=A|39=A|38=552|151=552|14=0|6=0|44=197|60=20240214-14:40:18.000|22=4|48=US3390411052|207=XETR|15=EUR|55=[N/A]|10=020|
2024-02-14 15:40:18.510 [29] [FixSender] (DEBUG) Receiving 8=FIX.4.4|9=235|35=8|34=72|49=DMA_HUB|56=FIXCLIENT1|52=20240214-14:40:18.509|11=HS_170792161850|37=FXFenJ2fQ|54=2|40=2|59=0|17=2024021452|150=A|39=A|38=146|151=146|14=0|6=0|44=197|60=20240214-14:40:18.000|22=4|48=US3390411052|207=XETR|15=EUR|55=[N/A]|10=014|
2024-02-14 15:40:18.511 [34] [FixSender] (DEBUG) Sending 8=FIX.4.4|9=196|35=D|49=FIXCLIENT1|56=DMA_HUB|34=172|52=20240214-14:40:18|21=1|11=HS_1707921618140|38=3925|55=E:07G@XETR|54=2|60=20240214-14:40:18|40=2|59=0|44=197|48=US3390411052|22=4|15=EUR|207=XETR|1=bram_123|10=044|
