2024-07-23 15:02:54.841 [1] [Fixsender] (INFO) (c) 2001-2011 ullink SAS. FixSender. Release 1.11.
2024-07-23 17:23:24.756 [1] [Fixsender] (INFO) (c) 2001-2011 ullink SAS. FixSender. Release 1.11.
2024-07-23 17:24:15.220 [36] [FixSender] (INFO) try to connect to : localhost port :12345
2024-07-23 17:24:15.233 [36] [FixSender] (INFO) physical cnx initiated
2024-07-23 17:24:15.245 [36] [FixSender] (DEBUG) Sending 8=FIX.4.4|9=86|35=A|49=FIXCLIENT1|56=DMA_HUB|34=1|52=20240723-15:24:15|98=0|108=30|95=9|96=null/null|10=090|
2024-07-23 17:24:15.254 [36] [FixSender] (DEBUG) Receiving 8=FIX.4.4|9=72|35=A|34=1|49=DMA_HUB|56=FIXCLIENT1|52=20240723-15:24:15.251|108=30|98=0|10=228|
2024-07-23 17:24:15.256 [36] [FixSender] (WARNING) The Fix connection is open...
2024-07-23 17:24:15.260 [36] [FixSender] (DEBUG) Sending 8=FIX.4.4|9=74|35=1|49=FIXCLIENT1|56=DMA_HUB|34=2|52=20240723-15:24:15|112=synchronized?|10=041|
2024-07-23 17:24:15.262 [36] [FixSender] (DEBUG) Receiving 8=FIX.4.4|9=78|35=0|34=2|49=DMA_HUB|56=FIXCLIENT1|52=20240723-15:24:15.261|112=synchronized?|10=243|
2024-07-23 17:24:45.208 [36] [FixSender] (DEBUG) Receiving 8=FIX.4.4|9=60|35=0|34=3|49=DMA_HUB|56=FIXCLIENT1|52=20240723-15:24:45.207|10=189|
2024-07-23 17:24:45.261 [37] [FixSender] (DEBUG) Sending 8=FIX.4.4|9=56|35=0|49=FIXCLIENT1|56=DMA_HUB|34=3|52=20240723-15:24:45|10=251|
2024-07-23 17:24:51.971 [36] [FixSender] (DEBUG) Receiving 8=FIX.4.4|9=60|35=5|34=4|49=DMA_HUB|56=FIXCLIENT1|52=20240723-15:24:51.970|10=199|
2024-07-23 17:24:51.972 [36] [FixSender] (DEBUG) Sending 8=FIX.4.4|9=78|35=5|49=FIXCLIENT1|56=DMA_HUB|34=4|52=20240723-15:24:51|58=Replying to logout|10=180|
2024-07-23 17:24:51.972 [36] [FixSender] (WARNING) The Fix connection is close...
2024-07-23 17:24:51.975 [36] [FixSender] (INFO) physical cnx finished Connection reset by peer
2024-07-23 17:24:51.977 [36] [FixSender] (WARNING) Disconnected
2024-07-23 17:26:53.052 [39] [FixSender] (INFO) try to connect to : localhost port :12345
2024-07-23 17:26:53.053 [39] [FixSender] (INFO) physical cnx initiated
2024-07-23 17:26:53.054 [39] [FixSender] (DEBUG) Sending 8=FIX.4.4|9=86|35=A|49=FIXCLIENT1|56=DMA_HUB|34=5|52=20240723-15:26:53|98=0|108=30|95=9|96=null/null|10=098|
2024-07-23 17:26:53.062 [39] [FixSender] (DEBUG) Receiving 8=FIX.4.4|9=72|35=A|34=5|49=DMA_HUB|56=FIXCLIENT1|52=20240723-15:26:53.058|108=30|98=0|10=241|
2024-07-23 17:26:53.062 [39] [FixSender] (WARNING) The Fix connection is open...
2024-07-23 17:26:53.063 [39] [FixSender] (DEBUG) Sending 8=FIX.4.4|9=74|35=1|49=FIXCLIENT1|56=DMA_HUB|34=6|52=20240723-15:26:53|112=synchronized?|10=049|
2024-07-23 17:26:53.069 [39] [FixSender] (DEBUG) Receiving 8=FIX.4.4|9=78|35=0|34=6|49=DMA_HUB|56=FIXCLIENT1|52=20240723-15:26:53.068|112=synchronized?|10=000|
2024-07-23 17:27:23.016 [39] [FixSender] (DEBUG) Receiving 8=FIX.4.4|9=60|35=0|34=7|49=DMA_HUB|56=FIXCLIENT1|52=20240723-15:27:23.015|10=189|
2024-07-23 17:27:23.065 [40] [FixSender] (DEBUG) Sending 8=FIX.4.4|9=56|35=0|49=FIXCLIENT1|56=DMA_HUB|34=7|52=20240723-15:27:23|10=254|
2024-07-23 17:27:49.636 [42] [FixSender] (DEBUG) Sending 8=FIX.4.4|9=192|35=D|49=FIXCLIENT1|56=DMA_HUB|34=8|52=20240723-15:27:49|21=1|11=HS_17217484690|38=1114|55=E:07G@XETR|54=2|60=20240723-15:27:49|40=2|59=0|44=197|48=US3390411052|22=4|15=EUR|207=XETR|1=bram_123|10=122|
2024-07-23 17:27:49.646 [39] [FixSender] (DEBUG) Receiving 8=FIX.4.4|9=234|35=8|34=8|49=DMA_HUB|56=FIXCLIENT1|52=20240723-15:27:49.645|11=HS_17217484690|37=FXH28y1LU|54=2|40=2|59=0|17=202407231|150=A|39=A|38=1114|151=1114|14=0|6=0|44=197|60=20240723-15:27:49.000|22=4|48=US3390411052|207=XETR|15=EUR|55=[N/A]|10=165|
2024-07-23 17:27:52.967 [39] [FixSender] (DEBUG) Receiving 8=FIX.4.4|9=60|35=0|34=9|49=DMA_HUB|56=FIXCLIENT1|52=20240723-15:27:52.967|10=209|
2024-07-23 17:28:19.638 [40] [FixSender] (DEBUG) Sending 8=FIX.4.4|9=56|35=0|49=FIXCLIENT1|56=DMA_HUB|34=9|52=20240723-15:28:19|10=006|
2024-07-23 17:28:22.920 [39] [FixSender] (DEBUG) Receiving 8=FIX.4.4|9=61|35=0|34=10|49=DMA_HUB|56=FIXCLIENT1|52=20240723-15:28:22.919|10=245|
2024-07-23 17:28:49.639 [40] [FixSender] (DEBUG) Sending 8=FIX.4.4|9=57|35=0|49=FIXCLIENT1|56=DMA_HUB|34=10|52=20240723-15:28:49|10=050|
2024-07-23 17:28:52.871 [39] [FixSender] (DEBUG) Receiving 8=FIX.4.4|9=61|35=0|34=11|49=DMA_HUB|56=FIXCLIENT1|52=20240723-15:28:52.871|10=246|
2024-07-23 17:29:18.248 [44] [FixSender] (DEBUG) Sending 8=FIX.4.4|9=196|35=D|49=FIXCLIENT1|56=DMA_HUB|34=11|52=20240723-15:29:18|21=1|11=HS_17217485581|38=3476|55=E:07G@XETR|54=1|60=20240723-15:29:18|40=2|59=0|44=197.11|48=US3390411052|22=4|15=EUR|207=XETR|1=bram_123|10=064|
2024-07-23 17:29:18.251 [39] [FixSender] (DEBUG) Receiving 8=FIX.4.4|9=238|35=8|34=12|49=DMA_HUB|56=FIXCLIENT1|52=20240723-15:29:18.250|11=HS_17217485581|37=FXI28y1LU|54=1|40=2|59=0|17=202407232|150=A|39=A|38=3476|151=3476|14=0|6=0|44=197.11|60=20240723-15:29:18.000|22=4|48=US3390411052|207=XETR|15=EUR|55=[N/A]|10=115|
2024-07-23 17:29:22.824 [39] [FixSender] (DEBUG) Receiving 8=FIX.4.4|9=61|35=0|34=13|49=DMA_HUB|56=FIXCLIENT1|52=20240723-15:29:22.823|10=243|
2024-07-23 17:29:32.185 [39] [FixSender] (DEBUG) Receiving 8=FIX.4.4|9=235|35=8|34=14|49=DMA_HUB|56=FIXCLIENT1|52=20240723-15:29:32.181|11=HS_17217485581|37=FXI28y1LU|54=1|40=2|59=0|17=202407233|150=A|39=A|38=3476|151=3476|14=0|6=0|44=197|60=20240723-15:29:18.000|22=4|48=US3390411052|207=XETR|15=EUR|55=[N/A]|10=226|
2024-07-23 17:29:48.248 [40] [FixSender] (DEBUG) Sending 8=FIX.4.4|9=57|35=0|49=FIXCLIENT1|56=DMA_HUB|34=12|52=20240723-15:29:48|10=052|
2024-07-23 17:29:52.776 [39] [FixSender] (DEBUG) Receiving 8=FIX.4.4|9=61|35=0|34=15|49=DMA_HUB|56=FIXCLIENT1|52=20240723-15:29:52.776|10=255|
2024-07-23 17:30:00.387 [45] [FixSender] (DEBUG) Sending 8=FIX.4.4|9=196|35=D|49=FIXCLIENT1|56=DMA_HUB|34=13|52=20240723-15:30:00|21=1|11=HS_17217486002|38=4775|55=E:07G@XETR|54=1|60=20240723-15:30:00|40=2|59=0|44=297.11|48=US3390411052|22=4|15=EUR|207=XETR|1=bram_123|10=025|
2024-07-23 17:30:00.389 [39] [FixSender] (DEBUG) Receiving 8=FIX.4.4|9=238|35=8|34=16|49=DMA_HUB|56=FIXCLIENT1|52=20240723-15:30:00.388|11=HS_17217486002|37=FXJ28y1LU|54=1|40=2|59=0|17=202407234|150=A|39=A|38=4775|151=4775|14=0|6=0|44=297.11|60=20240723-15:30:00.000|22=4|48=US3390411052|207=XETR|15=EUR|55=[N/A]|10=096|
2024-07-23 17:30:22.728 [39] [FixSender] (DEBUG) Receiving 8=FIX.4.4|9=61|35=0|34=17|49=DMA_HUB|56=FIXCLIENT1|52=20240723-15:30:22.727|10=242|
2024-07-23 17:30:30.387 [40] [FixSender] (DEBUG) Sending 8=FIX.4.4|9=57|35=0|49=FIXCLIENT1|56=DMA_HUB|34=14|52=20240723-15:30:30|10=037|
2024-07-23 17:30:30.449 [46] [FixSender] (DEBUG) Sending 8=FIX.4.4|9=195|35=D|49=FIXCLIENT1|56=DMA_HUB|34=15|52=20240723-15:30:30|21=1|11=HS_17217486303|38=593|55=E:07G@XETR|54=1|60=20240723-15:30:30|40=2|59=0|44=297.11|48=US3390411052|22=4|15=EUR|207=XETR|1=bram_123|10=238|
2024-07-23 17:30:30.451 [39] [FixSender] (DEBUG) Receiving 8=FIX.4.4|9=236|35=8|34=18|49=DMA_HUB|56=FIXCLIENT1|52=20240723-15:30:30.450|11=HS_17217486303|37=FXK28y1LU|54=1|40=2|59=0|17=202407235|150=A|39=A|38=593|151=593|14=0|6=0|44=297.11|60=20240723-15:30:30.000|22=4|48=US3390411052|207=XETR|15=EUR|55=[N/A]|10=246|
2024-07-23 17:30:45.118 [39] [FixSender] (DEBUG) Receiving 8=FIX.4.4|9=233|35=8|34=19|49=DMA_HUB|56=FIXCLIENT1|52=20240723-15:30:45.117|11=HS_17217486303|37=FXK28y1LU|54=1|40=2|59=0|17=202407236|150=A|39=A|38=593|151=593|14=0|6=0|44=297|60=20240723-15:30:30.000|22=4|48=US3390411052|207=XETR|15=EUR|55=[N/A]|10=107|
2024-07-23 17:30:52.680 [39] [FixSender] (DEBUG) Receiving 8=FIX.4.4|9=61|35=0|34=20|49=DMA_HUB|56=FIXCLIENT1|52=20240723-15:30:52.680|10=237|
2024-07-23 17:31:00.450 [40] [FixSender] (DEBUG) Sending 8=FIX.4.4|9=57|35=0|49=FIXCLIENT1|56=DMA_HUB|34=16|52=20240723-15:31:00|10=037|
2024-07-23 17:31:20.255 [47] [FixSender] (DEBUG) Sending 8=FIX.4.4|9=196|35=D|49=FIXCLIENT1|56=DMA_HUB|34=17|52=20240723-15:31:20|21=1|11=HS_17217486804|38=2032|55=E:07G@XETR|54=1|60=20240723-15:31:20|40=2|59=0|44=197.11|48=US3390411052|22=4|15=EUR|207=XETR|1=bram_123|10=028|
2024-07-23 17:31:20.257 [39] [FixSender] (DEBUG) Receiving 8=FIX.4.4|9=238|35=8|34=21|49=DMA_HUB|56=FIXCLIENT1|52=20240723-15:31:20.256|11=HS_17217486804|37=FXL28y1LU|54=1|40=2|59=0|17=202407237|150=A|39=A|38=2032|151=2032|14=0|6=0|44=197.11|60=20240723-15:31:20.000|22=4|48=US3390411052|207=XETR|15=EUR|55=[N/A]|10=074|
2024-07-23 17:31:22.632 [39] [FixSender] (DEBUG) Receiving 8=FIX.4.4|9=61|35=0|34=22|49=DMA_HUB|56=FIXCLIENT1|52=20240723-15:31:22.631|10=233|
2024-07-23 17:31:35.246 [39] [FixSender] (DEBUG) Receiving 8=FIX.4.4|9=235|35=8|34=23|49=DMA_HUB|56=FIXCLIENT1|52=20240723-15:31:35.245|11=HS_17217486804|37=FXL28y1LU|54=1|40=2|59=0|17=202407238|150=A|39=A|38=2032|151=2032|14=0|6=0|44=197|60=20240723-15:31:20.000|22=4|48=US3390411052|207=XETR|15=EUR|55=[N/A]|10=190|
2024-07-23 17:31:35.252 [39] [FixSender] (DEBUG) Receiving 8=FIX.4.4|9=250|35=8|34=24|49=DMA_HUB|56=FIXCLIENT1|52=20240723-15:31:35.252|11=HS_17217486804|37=FXL28y1LU|198=IS1Nl23df0|54=1|40=2|59=0|17=202407239|150=0|39=0|38=2032|151=2032|14=0|6=0|44=197|60=20240723-15:31:35.247|22=4|48=US3390411052|207=XETR|15=EUR|55=[N/A]|10=114|
2024-07-23 17:31:35.264 [39] [FixSender] (DEBUG) Receiving 8=FIX.4.4|9=314|35=8|34=25|49=DMA_HUB|56=FIXCLIENT1|52=20240723-15:31:35.264|11=HS_17217486804|37=FXL28y1LU|198=IS1Nl23df0|54=1|32=2032|31=65.5|17=2024072310|527=BIS1Nl1|150=F|39=2|38=2032|151=0|14=2032|6=65.5|44=197|60=20240723-15:31:35.247|22=4|48=US3390411052|207=XETR|15=EUR|55=[N/A]|453=1|448=strmrepl|447=D|452=17|40=2|59=0|10=201|
2024-07-23 17:31:50.256 [40] [FixSender] (DEBUG) Sending 8=FIX.4.4|9=57|35=0|49=FIXCLIENT1|56=DMA_HUB|34=18|52=20240723-15:31:50|10=044|
2024-07-23 17:31:52.584 [39] [FixSender] (DEBUG) Receiving 8=FIX.4.4|9=61|35=0|34=26|49=DMA_HUB|56=FIXCLIENT1|52=20240723-15:31:52.584|10=247|
2024-07-23 17:32:12.689 [48] [FixSender] (DEBUG) Sending 8=FIX.4.4|9=195|35=D|49=FIXCLIENT1|56=DMA_HUB|34=19|52=20240723-15:32:12|21=1|11=HS_17217487325|38=770|55=E:07G@XETR|54=1|60=20240723-15:32:12|40=2|59=0|44=197.11|48=US3390411052|22=4|15=EUR|207=XETR|1=bram_123|10=247|
2024-07-23 17:32:12.690 [39] [FixSender] (DEBUG) Receiving 8=FIX.4.4|9=237|35=8|34=27|49=DMA_HUB|56=FIXCLIENT1|52=20240723-15:32:12.690|11=HS_17217487325|37=FXM28y1LU|54=1|40=2|59=0|17=2024072311|150=A|39=A|38=770|151=770|14=0|6=0|44=197.11|60=20240723-15:32:12.000|22=4|48=US3390411052|207=XETR|15=EUR|55=[N/A]|10=046|
2024-07-23 17:32:22.535 [39] [FixSender] (DEBUG) Receiving 8=FIX.4.4|9=61|35=0|34=28|49=DMA_HUB|56=FIXCLIENT1|52=20240723-15:32:22.535|10=243|
2024-07-23 17:32:24.847 [39] [FixSender] (DEBUG) Receiving 8=FIX.4.4|9=234|35=8|34=29|49=DMA_HUB|56=FIXCLIENT1|52=20240723-15:32:24.846|11=HS_17217487325|37=FXM28y1LU|54=1|40=2|59=0|17=2024072312|150=A|39=A|38=770|151=770|14=0|6=0|44=197|60=20240723-15:32:12.000|22=4|48=US3390411052|207=XETR|15=EUR|55=[N/A]|10=164|
2024-07-23 17:32:24.849 [39] [FixSender] (DEBUG) Receiving 8=FIX.4.4|9=249|35=8|34=30|49=DMA_HUB|56=FIXCLIENT1|52=20240723-15:32:24.849|11=HS_17217487325|37=FXM28y1LU|198=IS1Nl294bc|54=1|40=2|59=0|17=2024072313|150=0|39=0|38=770|151=770|14=0|6=0|44=197|60=20240723-15:32:24.847|22=4|48=US3390411052|207=XETR|15=EUR|55=[N/A]|10=101|
2024-07-23 17:32:24.852 [39] [FixSender] (DEBUG) Receiving 8=FIX.4.4|9=307|35=8|34=31|49=DMA_HUB|56=FIXCLIENT1|52=20240723-15:32:24.852|11=HS_17217487325|37=FXM28y1LU|198=IS1Nl294bc|54=1|32=770|31=66|17=2024072314|527=BIS1Nl2|150=F|39=2|38=770|151=0|14=770|6=66|44=197|60=20240723-15:32:24.847|22=4|48=US3390411052|207=XETR|15=EUR|55=[N/A]|453=1|448=strmrepl|447=D|452=17|40=2|59=0|10=154|
2024-07-23 17:32:31.449 [49] [FixSender] (DEBUG) Sending 8=FIX.4.4|9=184|35=D|49=FIXCLIENT1|56=DMA_HUB|34=20|52=20240723-15:32:31|21=1|11=HS_17217487516|38=3623|55=E:07G@XETR_mauvaius|54=1|60=20240723-15:32:31|40=2|59=0|44=197.11|15=EUR|207=XETR|1=bram_123|10=199|
2024-07-23 17:32:31.549 [39] [FixSender] (DEBUG) Receiving 8=FIX.4.4|9=225|35=8|34=32|49=DMA_HUB|56=FIXCLIENT1|52=20240723-15:32:31.548|11=HS_17217487516|37=FXN28y1LU|54=1|40=2|59=0|17=2024072315|150=A|39=A|38=3623|151=3623|14=0|6=0|44=197.11|60=20240723-15:32:31.000|55=uniqueId=E:07G@XETR_mauvaius|10=073|
2024-07-23 17:32:42.998 [50] [FixSender] (DEBUG) Sending 8=FIX.4.4|9=180|35=D|49=FIXCLIENT1|56=DMA_HUB|34=21|52=20240723-15:32:42|21=1|11=HS_17217487627|38=2204|55=E:07G@XETR_mauvaius|54=1|60=20240723-15:32:42|40=2|59=0|44=10|15=EUR|207=XETR|1=bram_123|10=245|
2024-07-23 17:32:43.003 [39] [FixSender] (DEBUG) Receiving 8=FIX.4.4|9=221|35=8|34=33|49=DMA_HUB|56=FIXCLIENT1|52=20240723-15:32:43.002|11=HS_17217487627|37=FXO28y1LU|54=1|40=2|59=0|17=2024072316|150=A|39=A|38=2204|151=2204|14=0|6=0|44=10|60=20240723-15:32:42.000|55=uniqueId=E:07G@XETR_mauvaius|10=101|
2024-07-23 17:32:52.488 [39] [FixSender] (DEBUG) Receiving 8=FIX.4.4|9=61|35=0|34=34|49=DMA_HUB|56=FIXCLIENT1|52=20240723-15:32:52.487|10=249|
2024-07-23 17:32:54.287 [39] [FixSender] (DEBUG) Receiving 8=FIX.4.4|9=221|35=8|34=35|49=DMA_HUB|56=FIXCLIENT1|52=20240723-15:32:54.287|11=HS_17217487627|37=FXO28y1LU|54=1|40=2|59=0|17=2024072317|150=A|39=A|38=2204|151=2204|14=0|6=0|44=10|60=20240723-15:32:42.000|55=uniqueId=E:07G@XETR_mauvaius|10=121|
2024-07-23 17:33:12.999 [40] [FixSender] (DEBUG) Sending 8=FIX.4.4|9=57|35=0|49=FIXCLIENT1|56=DMA_HUB|34=22|52=20240723-15:33:12|10=039|
2024-07-23 17:33:18.812 [39] [FixSender] (DEBUG) Receiving 8=FIX.4.4|9=203|35=8|34=36|49=DMA_HUB|56=FIXCLIENT1|52=20240723-15:33:18.811|11=HS_17217487627|37=FXO28y1LU|54=1|40=2|59=0|17=2024072318|150=A|39=A|38=2204|151=2204|14=0|6=0|44=10|60=20240723-15:32:42.000|55=E:07G@XETR|10=042|
2024-07-23 17:33:18.814 [39] [FixSender] (DEBUG) Receiving 8=FIX.4.4|9=218|35=8|34=37|49=DMA_HUB|56=FIXCLIENT1|52=20240723-15:33:18.813|11=HS_17217487627|37=FXO28y1LU|198=IS1Nl2f395|54=1|40=2|59=0|17=2024072319|150=0|39=0|38=2204|151=2204|14=0|6=0|44=10|60=20240723-15:33:18.812|55=E:07G@XETR|10=193|
2024-07-23 17:33:22.439 [39] [FixSender] (DEBUG) Receiving 8=FIX.4.4|9=61|35=0|34=38|49=DMA_HUB|56=FIXCLIENT1|52=20240723-15:33:22.439|10=248|
2024-07-23 17:33:37.074 [51] [FixSender] (DEBUG) Sending 8=FIX.4.4|9=195|35=G|49=FIXCLIENT1|56=DMA_HUB|34=23|52=20240723-15:33:37|21=1|11=17217488170|38=3000|55=E:07G@XETR_mauvaius|54=1|60=20240723-15:32:42|40=2|59=0|44=10|15=EUR|207=XETR|1=bram_123|41=HS_17217487627|10=225|
2024-07-23 17:33:37.077 [39] [FixSender] (DEBUG) Receiving 8=FIX.4.4|9=233|35=8|34=39|49=DMA_HUB|56=FIXCLIENT1|52=20240723-15:33:37.077|11=17217488170|41=HS_17217487627|37=FXO28y1LU|198=IS1Nl2f395|54=1|40=2|59=0|17=2024072320|150=E|39=E|38=3000|151=3000|14=0|6=0|44=10|60=20240723-15:33:37.076|55=E:07G@XETR|10=191|
2024-07-23 17:33:37.081 [39] [FixSender] (DEBUG) Receiving 8=FIX.4.4|9=233|35=8|34=40|49=DMA_HUB|56=FIXCLIENT1|52=20240723-15:33:37.081|11=17217488170|41=HS_17217487627|37=FXO28y1LU|198=IS1Nl2f395|54=1|40=2|59=0|17=2024072321|150=5|39=0|38=3000|151=3000|14=0|6=0|44=10|60=20240723-15:33:37.079|55=E:07G@XETR|10=145|
2024-07-23 17:33:46.637 [1] [Fixsender] (INFO) (c) 2001-2011 ullink SAS. FixSender. Release 1.11.
2024-07-23 17:33:49.858 [35] [FixSender] (INFO) try to connect to : localhost port :12345
2024-07-23 17:33:49.865 [35] [FixSender] (INFO) physical cnx initiated
2024-07-23 17:33:49.874 [35] [FixSender] (DEBUG) Sending 8=FIX.4.4|9=87|35=A|49=FIXCLIENT1|56=DMA_HUB|34=24|52=20240723-15:33:49|98=0|108=30|95=9|96=null/null|10=151|
2024-07-23 17:33:49.875 [35] [FixSender] (DEBUG) Receiving 8=FIX.4.4|9=73|35=A|34=41|49=DMA_HUB|56=FIXCLIENT1|52=20240723-15:33:49.874|108=30|98=0|10=043|
2024-07-23 17:33:49.876 [35] [FixSender] (WARNING) The Fix connection is open...
2024-07-23 17:33:49.878 [35] [FixSender] (DEBUG) Sending 8=FIX.4.4|9=75|35=1|49=FIXCLIENT1|56=DMA_HUB|34=25|52=20240723-15:33:49|112=synchronized?|10=102|
2024-07-23 17:33:49.879 [35] [FixSender] (DEBUG) Receiving 8=FIX.4.4|9=79|35=0|34=42|49=DMA_HUB|56=FIXCLIENT1|52=20240723-15:33:49.878|112=synchronized?|10=061|
2024-07-23 17:33:51.990 [38] [FixSender] (DEBUG) Sending 8=FIX.4.4|9=196|35=D|49=FIXCLIENT1|56=DMA_HUB|34=26|52=20240723-15:33:51|21=1|11=HS_17217488310|38=1968|55=E:07G@XETR|54=1|60=20240723-15:33:51|40=2|59=0|44=197.11|48=US3390411052|22=4|15=EUR|207=XETR|1=bram_123|10=051|
2024-07-23 17:33:51.992 [35] [FixSender] (DEBUG) Receiving 8=FIX.4.4|9=239|35=8|34=43|49=DMA_HUB|56=FIXCLIENT1|52=20240723-15:33:51.991|11=HS_17217488310|37=FXP28y1LU|54=1|40=2|59=0|17=2024072322|150=A|39=A|38=1968|151=1968|14=0|6=0|44=197.11|60=20240723-15:33:51.000|22=4|48=US3390411052|207=XETR|15=EUR|55=[N/A]|10=174|
2024-07-23 17:33:55.331 [35] [FixSender] (DEBUG) Receiving 8=FIX.4.4|9=320|35=8|34=44|49=DMA_HUB|56=FIXCLIENT1|52=20240723-15:33:55.329|11=HS_17217488310|37=FXP28y1LU|198=FXP28y1LU|54=1|40=2|59=0|17=2024072323|150=8|39=8|38=1968|151=0|14=0|6=0|44=197.11|60=20240723-15:33:55.328|22=4|48=US3390411052|207=XETR|15=EUR|55=[N/A]|58=Price does not abide by tick rules (rounded price would be 197.0).|10=148|
2024-07-23 17:34:13.164 [39] [FixSender] (DEBUG) Sending 8=FIX.4.4|9=196|35=D|49=FIXCLIENT1|56=DMA_HUB|34=27|52=20240723-15:34:13|21=1|11=HS_17217488531|38=4316|55=E:07G@XETR|54=1|60=20240723-15:34:13|40=2|59=0|44=197.11|48=US3390411052|22=4|15=EUR|207=XETR|1=bram_123|10=045|
2024-07-23 17:34:13.166 [35] [FixSender] (DEBUG) Receiving 8=FIX.4.4|9=239|35=8|34=45|49=DMA_HUB|56=FIXCLIENT1|52=20240723-15:34:13.165|11=HS_17217488531|37=FXQ28y1LU|54=1|40=2|59=0|17=2024072324|150=A|39=A|38=4316|151=4316|14=0|6=0|44=197.11|60=20240723-15:34:13.000|22=4|48=US3390411052|207=XETR|15=EUR|55=[N/A]|10=155|
2024-07-23 17:34:19.847 [35] [FixSender] (DEBUG) Receiving 8=FIX.4.4|9=61|35=0|34=46|49=DMA_HUB|56=FIXCLIENT1|52=20240723-15:34:19.847|10=001|
2024-07-23 17:34:20.799 [35] [FixSender] (DEBUG) Receiving 8=FIX.4.4|9=320|35=8|34=47|49=DMA_HUB|56=FIXCLIENT1|52=20240723-15:34:20.798|11=HS_17217488531|37=FXQ28y1LU|198=FXQ28y1LU|54=1|40=2|59=0|17=2024072325|150=8|39=8|38=4316|151=0|14=0|6=0|44=197.11|60=20240723-15:34:20.798|22=4|48=US3390411052|207=XETR|15=EUR|55=[N/A]|58=Price does not abide by tick rules (rounded price would be 197.0).|10=157|
2024-07-23 17:34:43.165 [36] [FixSender] (DEBUG) Sending 8=FIX.4.4|9=57|35=0|49=FIXCLIENT1|56=DMA_HUB|34=28|52=20240723-15:34:43|10=050|
2024-07-23 17:34:48.167 [40] [FixSender] (DEBUG) Sending 8=FIX.4.4|9=196|35=D|49=FIXCLIENT1|56=DMA_HUB|34=29|52=20240723-15:34:48|21=1|11=HS_17217488882|38=4155|55=E:07G@XETR|54=1|60=20240723-15:34:48|40=2|59=0|44=197.11|48=US3390411052|22=4|15=EUR|207=XETR|1=bram_123|10=073|
2024-07-23 17:34:48.169 [35] [FixSender] (DEBUG) Receiving 8=FIX.4.4|9=239|35=8|34=48|49=DMA_HUB|56=FIXCLIENT1|52=20240723-15:34:48.168|11=HS_17217488882|37=FXR28y1LU|54=1|40=2|59=0|17=2024072326|150=A|39=A|38=4155|151=4155|14=0|6=0|44=197.11|60=20240723-15:34:48.000|22=4|48=US3390411052|207=XETR|15=EUR|55=[N/A]|10=191|
2024-07-23 17:34:49.800 [35] [FixSender] (DEBUG) Receiving 8=FIX.4.4|9=61|35=0|34=49|49=DMA_HUB|56=FIXCLIENT1|52=20240723-15:34:49.799|10=013|
2024-07-23 17:34:51.605 [35] [FixSender] (DEBUG) Receiving 8=FIX.4.4|9=320|35=8|34=50|49=DMA_HUB|56=FIXCLIENT1|52=20240723-15:34:51.605|11=HS_17217488882|37=FXR28y1LU|198=FXR28y1LU|54=1|40=2|59=0|17=2024072327|150=8|39=8|38=4155|151=0|14=0|6=0|44=197.11|60=20240723-15:34:51.604|22=4|48=US3390411052|207=XETR|15=EUR|55=[N/A]|58=Price does not abide by tick rules (rounded price would be 197.0).|10=146|
2024-07-23 17:35:18.168 [36] [FixSender] (DEBUG) Sending 8=FIX.4.4|9=57|35=0|49=FIXCLIENT1|56=DMA_HUB|34=30|52=20240723-15:35:18|10=046|
2024-07-23 17:35:19.752 [35] [FixSender] (DEBUG) Receiving 8=FIX.4.4|9=61|35=0|34=51|49=DMA_HUB|56=FIXCLIENT1|52=20240723-15:35:19.751|10=248|
2024-07-23 17:35:27.528 [42] [FixSender] (DEBUG) Sending 8=FIX.4.4|9=196|35=D|49=FIXCLIENT1|56=DMA_HUB|34=31|52=20240723-15:35:27|21=1|11=HS_17217489273|38=3957|55=E:07G@XETR|54=1|60=20240723-15:35:27|40=2|59=0|44=197.11|48=US3390411052|22=4|15=EUR|207=XETR|1=bram_123|10=066|
2024-07-23 17:35:27.530 [35] [FixSender] (DEBUG) Receiving 8=FIX.4.4|9=239|35=8|34=52|49=DMA_HUB|56=FIXCLIENT1|52=20240723-15:35:27.529|11=HS_17217489273|37=FXS28y1LU|54=1|40=2|59=0|17=2024072328|150=A|39=A|38=3957|151=3957|14=0|6=0|44=197.11|60=20240723-15:35:27.000|22=4|48=US3390411052|207=XETR|15=EUR|55=[N/A]|10=199|
2024-07-23 17:35:34.667 [35] [FixSender] (DEBUG) Receiving 8=FIX.4.4|9=320|35=8|34=53|49=DMA_HUB|56=FIXCLIENT1|52=20240723-15:35:34.666|11=HS_17217489273|37=FXS28y1LU|198=FXS28y1LU|54=1|40=2|59=0|17=2024072329|150=8|39=8|38=3957|151=0|14=0|6=0|44=197.11|60=20240723-15:35:34.666|22=4|48=US3390411052|207=XETR|15=EUR|55=[N/A]|58=Price does not abide by tick rules (rounded price would be 197.0).|10=176|
2024-07-23 17:35:57.416 [35] [FixSender] (DEBUG) Receiving 8=FIX.4.4|9=61|35=0|34=54|49=DMA_HUB|56=FIXCLIENT1|52=20240723-15:35:57.415|10=250|
2024-07-23 17:35:57.529 [36] [FixSender] (DEBUG) Sending 8=FIX.4.4|9=57|35=0|49=FIXCLIENT1|56=DMA_HUB|34=32|52=20240723-15:35:57|10=051|
2024-07-23 17:36:27.530 [36] [FixSender] (DEBUG) Sending 8=FIX.4.4|9=57|35=0|49=FIXCLIENT1|56=DMA_HUB|34=33|52=20240723-15:36:27|10=050|
2024-07-23 17:36:29.417 [37] [FixSender] (DEBUG) Sending 8=FIX.4.4|9=80|35=1|49=FIXCLIENT1|56=DMA_HUB|34=34|52=20240723-15:36:29|112=HeartBtExt Timeout|10=230|
2024-07-23 17:36:59.417 [36] [FixSender] (DEBUG) Sending 8=FIX.4.4|9=57|35=0|49=FIXCLIENT1|56=DMA_HUB|34=35|52=20240723-15:36:59|10=057|
2024-07-23 17:37:01.418 [35] [FixSender] (INFO) physical cnx finished Connection reset by peer
2024-07-23 17:37:01.418 [35] [FixSender] (WARNING) Disconnected
2024-07-23 17:37:14.709 [43] [FixSender] (INFO) try to connect to : localhost port :12345
2024-07-23 17:37:14.710 [43] [FixSender] (INFO) physical cnx initiated
2024-07-23 17:37:14.712 [43] [FixSender] (DEBUG) Sending 8=FIX.4.4|9=87|35=A|49=FIXCLIENT1|56=DMA_HUB|34=36|52=20240723-15:37:14|98=0|108=30|95=9|96=null/null|10=150|
2024-07-23 17:37:14.713 [43] [FixSender] (DEBUG) Receiving 8=FIX.4.4|9=73|35=A|34=57|49=DMA_HUB|56=FIXCLIENT1|52=20240723-15:37:14.713|108=30|98=0|10=038|
2024-07-23 17:37:14.713 [43] [FixSender] (WARNING) The Fix connection is open...
2024-07-23 17:37:14.715 [43] [FixSender] (DEBUG) Sending 8=FIX.4.4|9=67|35=2|49=FIXCLIENT1|56=DMA_HUB|34=37|52=20240723-15:37:14|7=55|16=0|10=234|
2024-07-23 17:37:14.717 [43] [FixSender] (DEBUG) Receiving 8=FIX.4.4|9=104|35=4|34=55|49=DMA_HUB|56=FIXCLIENT1|52=20240723-15:37:14.717|43=Y|122=20240723-15:37:14.717|36=58|123=Y|10=118|
2024-07-23 17:37:15.560 [46] [FixSender] (DEBUG) Sending 8=FIX.4.4|9=196|35=D|49=FIXCLIENT1|56=DMA_HUB|34=38|52=20240723-15:37:15|21=1|11=HS_17217490354|38=4184|55=E:07G@XETR|54=1|60=20240723-15:37:15|40=2|59=0|44=197.11|48=US3390411052|22=4|15=EUR|207=XETR|1=bram_123|10=056|
2024-07-23 17:37:15.561 [43] [FixSender] (DEBUG) Receiving 8=FIX.4.4|9=239|35=8|34=58|49=DMA_HUB|56=FIXCLIENT1|52=20240723-15:37:15.561|11=HS_17217490354|37=FXT28y1LU|54=1|40=2|59=0|17=2024072330|150=A|39=A|38=4184|151=4184|14=0|6=0|44=197.11|60=20240723-15:37:15.000|22=4|48=US3390411052|207=XETR|15=EUR|55=[N/A]|10=171|
2024-07-23 17:37:23.030 [43] [FixSender] (DEBUG) Receiving 8=FIX.4.4|9=320|35=8|34=59|49=DMA_HUB|56=FIXCLIENT1|52=20240723-15:37:23.029|11=HS_17217490354|37=FXT28y1LU|198=FXT28y1LU|54=1|40=2|59=0|17=2024072331|150=8|39=8|38=4184|151=0|14=0|6=0|44=197.11|60=20240723-15:37:23.029|22=4|48=US3390411052|207=XETR|15=EUR|55=[N/A]|58=Price does not abide by tick rules (rounded price would be 197.0).|10=148|
2024-07-23 17:37:45.560 [44] [FixSender] (DEBUG) Sending 8=FIX.4.4|9=57|35=0|49=FIXCLIENT1|56=DMA_HUB|34=39|52=20240723-15:37:45|10=057|
2024-07-23 17:37:55.030 [45] [FixSender] (DEBUG) Sending 8=FIX.4.4|9=80|35=1|49=FIXCLIENT1|56=DMA_HUB|34=40|52=20240723-15:37:55|112=HeartBtExt Timeout|10=227|
2024-07-23 17:37:55.253 [43] [FixSender] (DEBUG) Receiving 8=FIX.4.4|9=61|35=0|34=60|49=DMA_HUB|56=FIXCLIENT1|52=20240723-15:37:55.252|10=246|
2024-07-23 17:37:55.253 [43] [FixSender] (DEBUG) Receiving 8=FIX.4.4|9=84|35=0|34=61|49=DMA_HUB|56=FIXCLIENT1|52=20240723-15:37:55.252|112=HeartBtExt Timeout|10=176|
2024-07-23 17:38:25.031 [44] [FixSender] (DEBUG) Sending 8=FIX.4.4|9=57|35=0|49=FIXCLIENT1|56=DMA_HUB|34=41|52=20240723-15:38:25|10=049|
2024-07-23 17:38:27.254 [45] [FixSender] (DEBUG) Sending 8=FIX.4.4|9=80|35=1|49=FIXCLIENT1|56=DMA_HUB|34=42|52=20240723-15:38:27|112=HeartBtExt Timeout|10=229|
2024-07-23 17:38:54.720 [43] [FixSender] (DEBUG) Receiving 8=FIX.4.4|9=61|35=0|34=62|49=DMA_HUB|56=FIXCLIENT1|52=20240723-15:38:54.720|10=248|
2024-07-23 17:38:54.721 [43] [FixSender] (DEBUG) Receiving 8=FIX.4.4|9=84|35=0|34=63|49=DMA_HUB|56=FIXCLIENT1|52=20240723-15:38:54.720|112=HeartBtExt Timeout|10=178|
2024-07-23 17:38:57.255 [44] [FixSender] (DEBUG) Sending 8=FIX.4.4|9=57|35=0|49=FIXCLIENT1|56=DMA_HUB|34=43|52=20240723-15:38:57|10=056|
2024-07-23 17:38:57.532 [47] [FixSender] (DEBUG) Sending 8=FIX.4.4|9=196|35=D|49=FIXCLIENT1|56=DMA_HUB|34=44|52=20240723-15:38:57|21=1|11=HS_17217491375|38=2004|55=E:07G@XETR|54=1|60=20240723-15:38:57|40=2|59=0|44=197.11|48=US3390411052|22=4|15=EUR|207=XETR|1=bram_123|10=060|
2024-07-23 17:38:57.534 [43] [FixSender] (DEBUG) Receiving 8=FIX.4.4|9=239|35=8|34=64|49=DMA_HUB|56=FIXCLIENT1|52=20240723-15:38:57.533|11=HS_17217491375|37=FXU28y1LU|54=1|40=2|59=0|17=2024072332|150=A|39=A|38=2004|151=2004|14=0|6=0|44=197.11|60=20240723-15:38:57.000|22=4|48=US3390411052|207=XETR|15=EUR|55=[N/A]|10=166|
2024-07-23 17:39:09.730 [43] [FixSender] (DEBUG) Receiving 8=FIX.4.4|9=320|35=8|34=65|49=DMA_HUB|56=FIXCLIENT1|52=20240723-15:39:09.729|11=HS_17217491375|37=FXU28y1LU|198=FXU28y1LU|54=1|40=2|59=0|17=2024072333|150=8|39=8|38=2004|151=0|14=0|6=0|44=197.11|60=20240723-15:39:09.728|22=4|48=US3390411052|207=XETR|15=EUR|55=[N/A]|58=Price does not abide by tick rules (rounded price would be 197.0).|10=167|
2024-07-23 17:39:27.533 [44] [FixSender] (DEBUG) Sending 8=FIX.4.4|9=57|35=0|49=FIXCLIENT1|56=DMA_HUB|34=45|52=20240723-15:39:27|10=056|
2024-07-23 17:39:31.089 [43] [FixSender] (DEBUG) Receiving 8=FIX.4.4|9=61|35=0|34=66|49=DMA_HUB|56=FIXCLIENT1|52=20240723-15:39:31.089|10=000|
2024-07-23 17:39:57.533 [44] [FixSender] (DEBUG) Sending 8=FIX.4.4|9=57|35=0|49=FIXCLIENT1|56=DMA_HUB|34=46|52=20240723-15:39:57|10=060|
2024-07-23 17:40:03.091 [45] [FixSender] (DEBUG) Sending 8=FIX.4.4|9=80|35=1|49=FIXCLIENT1|56=DMA_HUB|34=47|52=20240723-15:40:03|112=HeartBtExt Timeout|10=221|
2024-07-23 17:40:33.092 [44] [FixSender] (DEBUG) Sending 8=FIX.4.4|9=57|35=0|49=FIXCLIENT1|56=DMA_HUB|34=48|52=20240723-15:40:33|10=048|
2024-07-23 17:40:35.092 [43] [FixSender] (INFO) physical cnx finished Connection reset by peer
2024-07-23 17:40:35.092 [43] [FixSender] (WARNING) Disconnected
2024-07-23 17:53:37.521 [48] [FixSender] (INFO) try to connect to : localhost port :12345
2024-07-23 17:53:37.521 [48] [FixSender] (INFO) physical cnx initiated
2024-07-23 17:53:37.525 [48] [FixSender] (DEBUG) Sending 8=FIX.4.4|9=87|35=A|49=FIXCLIENT1|56=DMA_HUB|34=49|52=20240723-15:53:37|98=0|108=30|95=9|96=null/null|10=157|
2024-07-23 17:53:37.531 [48] [FixSender] (DEBUG) Receiving 8=FIX.4.4|9=72|35=A|34=1|49=DMA_HUB|56=FIXCLIENT1|52=20240723-15:53:37.529|108=30|98=0|10=242|
2024-07-23 17:53:37.531 [48] [FixSender] (DEBUG) Sending 8=FIX.4.4|9=108|35=5|49=FIXCLIENT1|56=DMA_HUB|34=50|52=20240723-15:53:37|58=MsgSeqNum expected 67, but MsgSeqNum received 1|10=124|
2024-07-23 17:53:37.532 [48] [FixSender] (INFO) physical cnx finished Connection reset by peer
2024-07-23 17:53:37.532 [48] [FixSender] (WARNING) Disconnected
2024-07-23 17:53:38.788 [52] [FixSender] (INFO) try to connect to : localhost port :12345
2024-07-23 17:53:38.788 [52] [FixSender] (INFO) physical cnx initiated
2024-07-23 17:53:38.789 [52] [FixSender] (DEBUG) Sending 8=FIX.4.4|9=86|35=A|49=FIXCLIENT1|56=DMA_HUB|34=1|52=20240723-15:53:38|98=0|108=30|95=9|96=null/null|10=097|
2024-07-23 17:53:38.791 [52] [FixSender] (DEBUG) Receiving 8=FIX.4.4|9=72|35=A|34=4|49=DMA_HUB|56=FIXCLIENT1|52=20240723-15:53:38.789|108=30|98=0|10=254|
2024-07-23 17:53:38.792 [52] [FixSender] (WARNING) The Fix connection is open...
2024-07-23 17:53:38.793 [52] [FixSender] (DEBUG) Sending 8=FIX.4.4|9=65|35=2|49=FIXCLIENT1|56=DMA_HUB|34=2|52=20240723-15:53:38|7=1|16=0|10=123|
2024-07-23 17:53:38.796 [52] [FixSender] (DEBUG) Receiving 8=FIX.4.4|9=102|35=4|34=1|49=DMA_HUB|56=FIXCLIENT1|52=20240723-15:53:38.795|43=Y|122=20240723-15:53:38.795|36=5|123=Y|10=023|
2024-07-23 17:54:08.764 [52] [FixSender] (DEBUG) Receiving 8=FIX.4.4|9=60|35=0|34=5|49=DMA_HUB|56=FIXCLIENT1|52=20240723-15:54:08.763|10=200|
2024-07-23 17:54:08.794 [53] [FixSender] (DEBUG) Sending 8=FIX.4.4|9=56|35=0|49=FIXCLIENT1|56=DMA_HUB|34=3|52=20240723-15:54:08|10=253|
2024-07-23 17:54:24.310 [55] [FixSender] (DEBUG) Sending 8=FIX.4.4|9=195|35=D|49=FIXCLIENT1|56=DMA_HUB|34=4|52=20240723-15:54:24|21=1|11=HS_17217500646|38=3144|55=E:07G@XETR|54=1|60=20240723-15:54:24|40=2|59=0|44=197.11|48=US3390411052|22=4|15=EUR|207=XETR|1=bram_123|10=245|
2024-07-23 17:54:24.322 [52] [FixSender] (DEBUG) Receiving 8=FIX.4.4|9=237|35=8|34=6|49=DMA_HUB|56=FIXCLIENT1|52=20240723-15:54:24.321|11=HS_17217500646|37=FXDYO4KLU|54=1|40=2|59=0|17=202407231|150=A|39=A|38=3144|151=3144|14=0|6=0|44=197.11|60=20240723-15:54:24.000|22=4|48=US3390411052|207=XETR|15=EUR|55=[N/A]|10=045|
2024-07-23 17:54:34.371 [52] [FixSender] (DEBUG) Receiving 8=FIX.4.4|9=318|35=8|34=7|49=DMA_HUB|56=FIXCLIENT1|52=20240723-15:54:34.364|11=HS_17217500646|37=FXDYO4KLU|198=FXDYO4KLU|54=1|40=2|59=0|17=202407232|150=8|39=8|38=3144|151=0|14=0|6=0|44=197.11|60=20240723-15:54:34.363|22=4|48=US3390411052|207=XETR|15=EUR|55=[N/A]|58=Price does not abide by tick rules (rounded price would be 197.0).|10=052|
2024-07-23 17:54:38.715 [52] [FixSender] (DEBUG) Receiving 8=FIX.4.4|9=60|35=0|34=8|49=DMA_HUB|56=FIXCLIENT1|52=20240723-15:54:38.715|10=203|
2024-07-23 17:54:51.045 [56] [FixSender] (DEBUG) Sending 8=FIX.4.4|9=195|35=D|49=FIXCLIENT1|56=DMA_HUB|34=5|52=20240723-15:54:51|21=1|11=HS_17217500917|38=4100|55=E:07G@XETR|54=1|60=20240723-15:54:51|40=2|59=0|44=197.11|48=US3390411052|22=4|15=EUR|207=XETR|1=bram_123|10=240|
2024-07-23 17:54:51.047 [52] [FixSender] (DEBUG) Receiving 8=FIX.4.4|9=237|35=8|34=9|49=DMA_HUB|56=FIXCLIENT1|52=20240723-15:54:51.046|11=HS_17217500917|37=FXEYO4KLU|54=1|40=2|59=0|17=202407233|150=A|39=A|38=4100|151=4100|14=0|6=0|44=197.11|60=20240723-15:54:51.000|22=4|48=US3390411052|207=XETR|15=EUR|55=[N/A]|10=042|
2024-07-23 17:54:58.564 [52] [FixSender] (DEBUG) Receiving 8=FIX.4.4|9=319|35=8|34=10|49=DMA_HUB|56=FIXCLIENT1|52=20240723-15:54:58.563|11=HS_17217500917|37=FXEYO4KLU|198=FXEYO4KLU|54=1|40=2|59=0|17=202407234|150=8|39=8|38=4100|151=0|14=0|6=0|44=197.11|60=20240723-15:54:58.562|22=4|48=US3390411052|207=XETR|15=EUR|55=[N/A]|58=Price does not abide by tick rules (rounded price would be 197.0).|10=107|
2024-07-23 17:55:08.668 [52] [FixSender] (DEBUG) Receiving 8=FIX.4.4|9=61|35=0|34=11|49=DMA_HUB|56=FIXCLIENT1|52=20240723-15:55:08.667|10=250|
2024-07-23 17:55:21.045 [53] [FixSender] (DEBUG) Sending 8=FIX.4.4|9=56|35=0|49=FIXCLIENT1|56=DMA_HUB|34=6|52=20240723-15:55:21|10=252|
2024-07-23 17:55:30.238 [57] [FixSender] (DEBUG) Sending 8=FIX.4.4|9=195|35=D|49=FIXCLIENT1|56=DMA_HUB|34=7|52=20240723-15:55:30|21=1|11=HS_17217501308|38=4655|55=E:07G@XETR|54=1|60=20240723-15:55:30|40=2|59=0|44=197.11|48=US3390411052|22=4|15=EUR|207=XETR|1=bram_123|10=248|
2024-07-23 17:55:30.241 [52] [FixSender] (DEBUG) Receiving 8=FIX.4.4|9=238|35=8|34=12|49=DMA_HUB|56=FIXCLIENT1|52=20240723-15:55:30.239|11=HS_17217501308|37=FXFYO4KLU|54=1|40=2|59=0|17=202407235|150=A|39=A|38=4655|151=4655|14=0|6=0|44=197.11|60=20240723-15:55:30.000|22=4|48=US3390411052|207=XETR|15=EUR|55=[N/A]|10=113|
2024-07-23 17:55:37.431 [52] [FixSender] (DEBUG) Receiving 8=FIX.4.4|9=319|35=8|34=13|49=DMA_HUB|56=FIXCLIENT1|52=20240723-15:55:37.430|11=HS_17217501308|37=FXFYO4KLU|198=FXFYO4KLU|54=1|40=2|59=0|17=202407236|150=8|39=8|38=4655|151=0|14=0|6=0|44=197.11|60=20240723-15:55:37.429|22=4|48=US3390411052|207=XETR|15=EUR|55=[N/A]|58=Price does not abide by tick rules (rounded price would be 197.0).|10=115|
2024-07-23 17:55:38.619 [52] [FixSender] (DEBUG) Receiving 8=FIX.4.4|9=61|35=0|34=14|49=DMA_HUB|56=FIXCLIENT1|52=20240723-15:55:38.619|10=253|
2024-07-23 17:55:42.255 [58] [FixSender] (DEBUG) Sending 8=FIX.4.4|9=194|35=D|49=FIXCLIENT1|56=DMA_HUB|34=8|52=20240723-15:55:42|21=1|11=HS_17217501429|38=882|55=E:07G@XETR|54=1|60=20240723-15:55:42|40=2|59=0|44=197.11|48=US3390411052|22=4|15=EUR|207=XETR|1=bram_123|10=208|
2024-07-23 17:55:42.257 [52] [FixSender] (DEBUG) Receiving 8=FIX.4.4|9=236|35=8|34=15|49=DMA_HUB|56=FIXCLIENT1|52=20240723-15:55:42.256|11=HS_17217501429|37=FXGYO4KLU|54=1|40=2|59=0|17=202407237|150=A|39=A|38=882|151=882|14=0|6=0|44=197.11|60=20240723-15:55:42.000|22=4|48=US3390411052|207=XETR|15=EUR|55=[N/A]|10=026|
2024-07-23 17:55:52.779 [52] [FixSender] (DEBUG) Receiving 8=FIX.4.4|9=233|35=8|34=16|49=DMA_HUB|56=FIXCLIENT1|52=20240723-15:55:52.778|11=HS_17217501429|37=FXGYO4KLU|54=1|40=2|59=0|17=202407238|150=A|39=A|38=882|151=882|14=0|6=0|44=197|60=20240723-15:55:42.000|22=4|48=US3390411052|207=XETR|15=EUR|55=[N/A]|10=147|
2024-07-23 17:55:52.789 [52] [FixSender] (DEBUG) Receiving 8=FIX.4.4|9=248|35=8|34=17|49=DMA_HUB|56=FIXCLIENT1|52=20240723-15:55:52.788|11=HS_17217501429|37=FXGYO4KLU|198=Im1Tl2726c|54=1|40=2|59=0|17=202407239|150=0|39=0|38=882|151=882|14=0|6=0|44=197|60=20240723-15:55:52.780|22=4|48=US3390411052|207=XETR|15=EUR|55=[N/A]|10=069|
2024-07-23 17:55:52.804 [52] [FixSender] (DEBUG) Receiving 8=FIX.4.4|9=311|35=8|34=18|49=DMA_HUB|56=FIXCLIENT1|52=20240723-15:55:52.803|11=HS_17217501429|37=FXGYO4KLU|198=Im1Tl2726c|54=1|32=882|31=8.35|17=2024072310|527=BIm1Tl1|150=F|39=2|38=882|151=0|14=882|6=8.35|44=197|60=20240723-15:55:52.781|22=4|48=US3390411052|207=XETR|15=EUR|55=[N/A]|453=1|448=strmrepl|447=D|452=17|40=2|59=0|10=127|
2024-07-23 17:56:05.704 [59] [FixSender] (DEBUG) Sending 8=FIX.4.4|9=180|35=D|49=FIXCLIENT1|56=DMA_HUB|34=9|52=20240723-15:56:05|21=1|11=HS_172175016510|38=2703|55=E:07G@XETR_mauvaius|54=1|60=20240723-15:56:05|40=2|59=0|44=10|15=EUR|207=XETR|1=bram_123|10=249|
2024-07-23 17:56:05.791 [52] [FixSender] (DEBUG) Receiving 8=FIX.4.4|9=222|35=8|34=19|49=DMA_HUB|56=FIXCLIENT1|52=20240723-15:56:05.791|11=HS_172175016510|37=FXHYO4KLU|54=1|40=2|59=0|17=2024072311|150=A|39=A|38=2703|151=2703|14=0|6=0|44=10|60=20240723-15:56:05.000|55=uniqueId=E:07G@XETR_mauvaius|10=177|
2024-07-23 17:56:08.572 [52] [FixSender] (DEBUG) Receiving 8=FIX.4.4|9=61|35=0|34=20|49=DMA_HUB|56=FIXCLIENT1|52=20240723-15:56:08.571|10=245|
2024-07-23 17:56:28.044 [52] [FixSender] (DEBUG) Receiving 8=FIX.4.4|9=222|35=8|34=21|49=DMA_HUB|56=FIXCLIENT1|52=20240723-15:56:28.043|11=HS_172175016510|37=FXHYO4KLU|54=1|40=2|59=0|17=2024072312|150=A|39=A|38=2703|151=2703|14=0|6=0|44=10|60=20240723-15:56:05.000|55=uniqueId=E:07G@XETR_mauvaius|10=166|
2024-07-23 17:56:35.705 [53] [FixSender] (DEBUG) Sending 8=FIX.4.4|9=57|35=0|49=FIXCLIENT1|56=DMA_HUB|34=10|52=20240723-15:56:35|10=046|
2024-07-23 17:56:38.523 [52] [FixSender] (DEBUG) Receiving 8=FIX.4.4|9=61|35=0|34=22|49=DMA_HUB|56=FIXCLIENT1|52=20240723-15:56:38.523|10=247|
2024-07-23 17:56:52.985 [52] [FixSender] (DEBUG) Receiving 8=FIX.4.4|9=204|35=8|34=23|49=DMA_HUB|56=FIXCLIENT1|52=20240723-15:56:52.985|11=HS_172175016510|37=FXHYO4KLU|54=1|40=2|59=0|17=2024072313|150=A|39=A|38=2703|151=2703|14=0|6=0|44=10|60=20240723-15:56:05.000|55=E:07G@XETR|10=106|
2024-07-23 17:56:52.988 [52] [FixSender] (DEBUG) Receiving 8=FIX.4.4|9=219|35=8|34=24|49=DMA_HUB|56=FIXCLIENT1|52=20240723-15:56:52.987|11=HS_172175016510|37=FXHYO4KLU|198=Im1Tl2dbb4|54=1|40=2|59=0|17=2024072314|150=0|39=0|38=2703|151=2703|14=0|6=0|44=10|60=20240723-15:56:52.986|55=E:07G@XETR|10=128|
2024-07-23 17:56:52.990 [52] [FixSender] (DEBUG) Receiving 8=FIX.4.4|9=280|35=8|34=25|49=DMA_HUB|56=FIXCLIENT1|52=20240723-15:56:52.990|11=HS_172175016510|37=FXHYO4KLU|198=Im1Tl2dbb4|54=1|32=2703|31=8.4|17=2024072315|527=BIm1Tl2|150=F|39=2|38=2703|151=0|14=2703|6=8.4|44=10|60=20240723-15:56:52.986|55=E:07G@XETR|453=1|448=strmrepl|447=D|452=17|40=2|59=0|10=098|
2024-07-23 17:57:05.705 [53] [FixSender] (DEBUG) Sending 8=FIX.4.4|9=57|35=0|49=FIXCLIENT1|56=DMA_HUB|34=11|52=20240723-15:57:05|10=045|
2024-07-23 17:57:08.476 [52] [FixSender] (DEBUG) Receiving 8=FIX.4.4|9=61|35=0|34=26|49=DMA_HUB|56=FIXCLIENT1|52=20240723-15:57:08.475|10=255|
2024-07-23 17:57:11.932 [61] [FixSender] (DEBUG) Sending 8=FIX.4.4|9=196|35=G|49=FIXCLIENT1|56=DMA_HUB|34=12|52=20240723-15:57:11|21=1|11=17217502310|38=3000|55=E:07G@XETR_mauvaius|54=1|60=20240723-15:56:05|40=2|59=0|44=10|15=EUR|207=XETR|1=bram_123|41=HS_172175016510|10=242|
2024-07-23 17:57:11.937 [52] [FixSender] (DEBUG) Receiving 8=FIX.4.4|9=147|35=9|34=27|49=DMA_HUB|56=FIXCLIENT1|52=20240723-15:57:11.937|39=2|434=2|11=17217502310|41=HS_172175016510|37=NONE|58=Unknown order HS_172175016510|10=029|
2024-07-23 17:57:38.428 [52] [FixSender] (DEBUG) Receiving 8=FIX.4.4|9=61|35=0|34=28|49=DMA_HUB|56=FIXCLIENT1|52=20240723-15:57:38.428|10=002|
2024-07-23 17:57:41.933 [53] [FixSender] (DEBUG) Sending 8=FIX.4.4|9=57|35=0|49=FIXCLIENT1|56=DMA_HUB|34=13|52=20240723-15:57:41|10=047|
2024-07-23 17:58:08.380 [52] [FixSender] (DEBUG) Receiving 8=FIX.4.4|9=61|35=0|34=29|49=DMA_HUB|56=FIXCLIENT1|52=20240723-15:58:08.379|10=006|
2024-07-23 17:58:11.934 [53] [FixSender] (DEBUG) Sending 8=FIX.4.4|9=57|35=0|49=FIXCLIENT1|56=DMA_HUB|34=14|52=20240723-15:58:11|10=046|
2024-07-23 17:58:38.332 [52] [FixSender] (DEBUG) Receiving 8=FIX.4.4|9=61|35=0|34=30|49=DMA_HUB|56=FIXCLIENT1|52=20240723-15:58:38.332|10=246|
2024-07-23 17:58:41.934 [53] [FixSender] (DEBUG) Sending 8=FIX.4.4|9=57|35=0|49=FIXCLIENT1|56=DMA_HUB|34=15|52=20240723-15:58:41|10=050|
2024-07-23 17:59:08.283 [52] [FixSender] (DEBUG) Receiving 8=FIX.4.4|9=61|35=0|34=31|49=DMA_HUB|56=FIXCLIENT1|52=20240723-15:59:08.283|10=250|
2024-07-23 17:59:11.935 [53] [FixSender] (DEBUG) Sending 8=FIX.4.4|9=57|35=0|49=FIXCLIENT1|56=DMA_HUB|34=16|52=20240723-15:59:11|10=049|
2024-07-23 17:59:38.236 [52] [FixSender] (DEBUG) Receiving 8=FIX.4.4|9=61|35=0|34=32|49=DMA_HUB|56=FIXCLIENT1|52=20240723-15:59:38.235|10=251|
2024-07-23 17:59:41.935 [53] [FixSender] (DEBUG) Sending 8=FIX.4.4|9=57|35=0|49=FIXCLIENT1|56=DMA_HUB|34=17|52=20240723-15:59:41|10=053|
2024-07-23 18:00:08.187 [52] [FixSender] (DEBUG) Receiving 8=FIX.4.4|9=61|35=0|34=33|49=DMA_HUB|56=FIXCLIENT1|52=20240723-16:00:08.187|10=242|
2024-07-23 18:00:11.936 [53] [FixSender] (DEBUG) Sending 8=FIX.4.4|9=57|35=0|49=FIXCLIENT1|56=DMA_HUB|34=18|52=20240723-16:00:11|10=038|
2024-07-23 18:00:38.140 [52] [FixSender] (DEBUG) Receiving 8=FIX.4.4|9=61|35=0|34=34|49=DMA_HUB|56=FIXCLIENT1|52=20240723-16:00:38.139|10=243|
2024-07-23 18:00:41.937 [53] [FixSender] (DEBUG) Sending 8=FIX.4.4|9=57|35=0|49=FIXCLIENT1|56=DMA_HUB|34=19|52=20240723-16:00:41|10=042|
2024-07-23 18:01:08.092 [52] [FixSender] (DEBUG) Receiving 8=FIX.4.4|9=61|35=0|34=35|49=DMA_HUB|56=FIXCLIENT1|52=20240723-16:01:08.092|10=240|
2024-07-23 18:01:11.937 [53] [FixSender] (DEBUG) Sending 8=FIX.4.4|9=57|35=0|49=FIXCLIENT1|56=DMA_HUB|34=20|52=20240723-16:01:11|10=032|
2024-07-23 18:01:38.043 [52] [FixSender] (DEBUG) Receiving 8=FIX.4.4|9=61|35=0|34=36|49=DMA_HUB|56=FIXCLIENT1|52=20240723-16:01:38.043|10=240|
2024-07-23 18:01:41.938 [53] [FixSender] (DEBUG) Sending 8=FIX.4.4|9=57|35=0|49=FIXCLIENT1|56=DMA_HUB|34=21|52=20240723-16:01:41|10=036|
2024-07-23 18:02:07.996 [52] [FixSender] (DEBUG) Receiving 8=FIX.4.4|9=61|35=0|34=37|49=DMA_HUB|56=FIXCLIENT1|52=20240723-16:02:07.995|10=254|
2024-07-23 18:02:11.938 [53] [FixSender] (DEBUG) Sending 8=FIX.4.4|9=57|35=0|49=FIXCLIENT1|56=DMA_HUB|34=22|52=20240723-16:02:11|10=035|
2024-07-23 18:02:37.948 [52] [FixSender] (DEBUG) Receiving 8=FIX.4.4|9=61|35=0|34=38|49=DMA_HUB|56=FIXCLIENT1|52=20240723-16:02:37.947|10=255|
2024-07-23 18:02:41.938 [53] [FixSender] (DEBUG) Sending 8=FIX.4.4|9=57|35=0|49=FIXCLIENT1|56=DMA_HUB|34=23|52=20240723-16:02:41|10=039|
2024-07-23 18:03:07.900 [52] [FixSender] (DEBUG) Receiving 8=FIX.4.4|9=61|35=0|34=39|49=DMA_HUB|56=FIXCLIENT1|52=20240723-16:03:07.899|10=004|
2024-07-23 18:03:11.939 [53] [FixSender] (DEBUG) Sending 8=FIX.4.4|9=57|35=0|49=FIXCLIENT1|56=DMA_HUB|34=24|52=20240723-16:03:11|10=038|
2024-07-23 18:03:37.851 [52] [FixSender] (DEBUG) Receiving 8=FIX.4.4|9=61|35=0|34=40|49=DMA_HUB|56=FIXCLIENT1|52=20240723-16:03:37.851|10=243|
2024-07-23 18:03:41.939 [53] [FixSender] (DEBUG) Sending 8=FIX.4.4|9=57|35=0|49=FIXCLIENT1|56=DMA_HUB|34=25|52=20240723-16:03:41|10=042|
2024-07-23 18:04:07.804 [52] [FixSender] (DEBUG) Receiving 8=FIX.4.4|9=61|35=0|34=41|49=DMA_HUB|56=FIXCLIENT1|52=20240723-16:04:07.803|10=239|
2024-07-23 18:04:11.940 [53] [FixSender] (DEBUG) Sending 8=FIX.4.4|9=57|35=0|49=FIXCLIENT1|56=DMA_HUB|34=26|52=20240723-16:04:11|10=041|
2024-07-23 18:04:37.755 [52] [FixSender] (DEBUG) Receiving 8=FIX.4.4|9=61|35=0|34=42|49=DMA_HUB|56=FIXCLIENT1|52=20240723-16:04:37.755|10=249|
2024-07-23 18:04:41.940 [53] [FixSender] (DEBUG) Sending 8=FIX.4.4|9=57|35=0|49=FIXCLIENT1|56=DMA_HUB|34=27|52=20240723-16:04:41|10=045|
2024-07-23 18:05:07.708 [52] [FixSender] (DEBUG) Receiving 8=FIX.4.4|9=61|35=0|34=43|49=DMA_HUB|56=FIXCLIENT1|52=20240723-16:05:07.707|10=245|
2024-07-23 18:05:11.940 [53] [FixSender] (DEBUG) Sending 8=FIX.4.4|9=57|35=0|49=FIXCLIENT1|56=DMA_HUB|34=28|52=20240723-16:05:11|10=044|
2024-07-23 18:05:37.660 [52] [FixSender] (DEBUG) Receiving 8=FIX.4.4|9=61|35=0|34=44|49=DMA_HUB|56=FIXCLIENT1|52=20240723-16:05:37.660|10=247|
2024-07-23 18:05:41.941 [53] [FixSender] (DEBUG) Sending 8=FIX.4.4|9=57|35=0|49=FIXCLIENT1|56=DMA_HUB|34=29|52=20240723-16:05:41|10=048|
2024-07-23 18:06:07.611 [52] [FixSender] (DEBUG) Receiving 8=FIX.4.4|9=61|35=0|34=45|49=DMA_HUB|56=FIXCLIENT1|52=20240723-16:06:07.611|10=242|
2024-07-23 18:06:11.941 [53] [FixSender] (DEBUG) Sending 8=FIX.4.4|9=57|35=0|49=FIXCLIENT1|56=DMA_HUB|34=30|52=20240723-16:06:11|10=038|
2024-07-23 18:06:37.564 [52] [FixSender] (DEBUG) Receiving 8=FIX.4.4|9=61|35=0|34=46|49=DMA_HUB|56=FIXCLIENT1|52=20240723-16:06:37.564|10=253|
2024-07-23 18:06:41.942 [53] [FixSender] (DEBUG) Sending 8=FIX.4.4|9=57|35=0|49=FIXCLIENT1|56=DMA_HUB|34=31|52=20240723-16:06:41|10=042|
2024-07-23 18:07:07.515 [52] [FixSender] (DEBUG) Receiving 8=FIX.4.4|9=61|35=0|34=47|49=DMA_HUB|56=FIXCLIENT1|52=20240723-16:07:07.515|10=248|
2024-07-23 18:07:11.943 [53] [FixSender] (DEBUG) Sending 8=FIX.4.4|9=57|35=0|49=FIXCLIENT1|56=DMA_HUB|34=32|52=20240723-16:07:11|10=041|
2024-07-23 18:07:37.468 [52] [FixSender] (DEBUG) Receiving 8=FIX.4.4|9=61|35=0|34=48|49=DMA_HUB|56=FIXCLIENT1|52=20240723-16:07:37.467|10=002|
2024-07-23 18:07:41.943 [53] [FixSender] (DEBUG) Sending 8=FIX.4.4|9=57|35=0|49=FIXCLIENT1|56=DMA_HUB|34=33|52=20240723-16:07:41|10=045|
2024-07-23 18:08:07.420 [52] [FixSender] (DEBUG) Receiving 8=FIX.4.4|9=61|35=0|34=49|49=DMA_HUB|56=FIXCLIENT1|52=20240723-16:08:07.419|10=254|
2024-07-23 18:08:11.944 [53] [FixSender] (DEBUG) Sending 8=FIX.4.4|9=57|35=0|49=FIXCLIENT1|56=DMA_HUB|34=34|52=20240723-16:08:11|10=044|
2024-07-23 18:08:37.372 [52] [FixSender] (DEBUG) Receiving 8=FIX.4.4|9=61|35=0|34=50|49=DMA_HUB|56=FIXCLIENT1|52=20240723-16:08:37.371|10=246|
2024-07-23 18:08:41.944 [53] [FixSender] (DEBUG) Sending 8=FIX.4.4|9=57|35=0|49=FIXCLIENT1|56=DMA_HUB|34=35|52=20240723-16:08:41|10=048|
2024-07-23 18:09:01.597 [52] [FixSender] (DEBUG) Receiving 8=FIX.4.4|9=61|35=5|34=51|49=DMA_HUB|56=FIXCLIENT1|52=20240723-16:09:01.570|10=245|
2024-07-23 18:09:01.599 [52] [FixSender] (DEBUG) Sending 8=FIX.4.4|9=79|35=5|49=FIXCLIENT1|56=DMA_HUB|34=36|52=20240723-16:09:01|58=Replying to logout|10=233|
2024-07-23 18:09:01.600 [52] [FixSender] (WARNING) The Fix connection is close...
2024-07-23 18:09:01.653 [52] [FixSender] (INFO) physical cnx finished Connection reset by peer
2024-07-23 18:09:01.655 [52] [FixSender] (WARNING) Disconnected
