2024-01-03 09:51:31.393 [1] [Fixsender] (INFO) (c) 2001-2011 ullink SAS. FixSender. Release 1.11.
2024-01-03 09:51:33.605 [29] [FixSender] (INFO) try to connect to : localhost port :12345
2024-01-03 09:51:33.621 [29] [FixSender] (INFO) physical cnx initiated
2024-01-03 09:51:33.634 [29] [FixSender] (DEBUG) Sending 8=FIX.4.4|9=87|35=A|49=FIXCLIENT1|56=DMA_HUB|34=22|52=20240103-08:51:33|98=0|108=30|95=9|96=null/null|10=136|
2024-01-03 09:51:33.641 [29] [FixSender] (DEBUG) Receiving 8=FIX.4.4|9=72|35=A|34=1|49=DMA_HUB|56=FIXCLIENT1|52=20240103-08:51:33.637|108=30|98=0|10=230|
2024-01-03 09:51:33.643 [29] [FixSender] (DEBUG) Sending 8=FIX.4.4|9=108|35=5|49=FIXCLIENT1|56=DMA_HUB|34=23|52=20240103-08:51:33|58=MsgSeqNum expected 23, but MsgSeqNum received 1|10=104|
2024-01-03 09:51:33.644 [29] [FixSender] (INFO) physical cnx finished Connection reset by peer
2024-01-03 09:51:33.645 [29] [FixSender] (WARNING) Disconnected
2024-01-03 09:51:34.745 [33] [FixSender] (INFO) try to connect to : localhost port :12345
2024-01-03 09:51:34.746 [33] [FixSender] (INFO) physical cnx initiated
2024-01-03 09:51:34.750 [33] [FixSender] (DEBUG) Sending 8=FIX.4.4|9=86|35=A|49=FIXCLIENT1|56=DMA_HUB|34=1|52=20240103-08:51:34|98=0|108=30|95=9|96=null/null|10=085|
2024-01-03 09:51:34.751 [33] [FixSender] (DEBUG) Receiving 8=FIX.4.4|9=72|35=A|34=4|49=DMA_HUB|56=FIXCLIENT1|52=20240103-08:51:34.751|108=30|98=0|10=231|
2024-01-03 09:51:34.752 [33] [FixSender] (WARNING) The Fix connection is open...
2024-01-03 09:51:34.755 [33] [FixSender] (DEBUG) Sending 8=FIX.4.4|9=65|35=2|49=FIXCLIENT1|56=DMA_HUB|34=2|52=20240103-08:51:34|7=1|16=0|10=111|
2024-01-03 09:51:34.758 [33] [FixSender] (DEBUG) Receiving 8=FIX.4.4|9=102|35=4|34=1|49=DMA_HUB|56=FIXCLIENT1|52=20240103-08:51:34.758|43=Y|122=20240103-08:51:34.758|36=5|123=Y|10=253|
2024-01-03 09:51:36.915 [36] [FixSender] (DEBUG) Sending 8=FIX.4.4|9=196|35=D|49=FIXCLIENT1|56=DMA_HUB|34=3|52=20240103-08:51:36|21=1|11=HS_17042718960|38=1580|55=E:07G@XETR|54=2|60=20240103-08:51:36|40=2|59=0|44=197.111|48=US3390411052|22=4|15=EUR|207=XETR|1=bram_123|10=035|
2024-01-03 09:51:36.925 [33] [FixSender] (DEBUG) Receiving 8=FIX.4.4|9=238|35=8|34=5|49=DMA_HUB|56=FIXCLIENT1|52=20240103-08:51:36.924|11=HS_17042718960|37=FX39NzDuF|54=2|40=2|59=0|17=202401031|150=A|39=A|38=1580|151=1580|14=0|6=0|44=197.111|60=20240103-08:51:36.000|22=4|48=US3390411052|207=XETR|15=EUR|55=[N/A]|10=133|
2024-01-03 09:52:04.750 [33] [FixSender] (DEBUG) Receiving 8=FIX.4.4|9=60|35=0|34=6|49=DMA_HUB|56=FIXCLIENT1|52=20240103-08:52:04.750|10=185|
2024-01-03 09:52:06.919 [34] [FixSender] (DEBUG) Sending 8=FIX.4.4|9=56|35=0|49=FIXCLIENT1|56=DMA_HUB|34=4|52=20240103-08:52:06|10=244|
2024-01-03 09:52:34.700 [33] [FixSender] (DEBUG) Receiving 8=FIX.4.4|9=60|35=0|34=7|49=DMA_HUB|56=FIXCLIENT1|52=20240103-08:52:34.699|10=201|
2024-01-03 09:52:36.926 [34] [FixSender] (DEBUG) Sending 8=FIX.4.4|9=56|35=0|49=FIXCLIENT1|56=DMA_HUB|34=5|52=20240103-08:52:36|10=248|
2024-01-03 09:53:04.660 [33] [FixSender] (DEBUG) Receiving 8=FIX.4.4|9=60|35=0|34=8|49=DMA_HUB|56=FIXCLIENT1|52=20240103-08:53:04.659|10=196|
2024-01-03 09:53:06.927 [34] [FixSender] (DEBUG) Sending 8=FIX.4.4|9=56|35=0|49=FIXCLIENT1|56=DMA_HUB|34=6|52=20240103-08:53:06|10=247|
2024-01-03 09:53:34.614 [33] [FixSender] (DEBUG) Receiving 8=FIX.4.4|9=60|35=0|34=9|49=DMA_HUB|56=FIXCLIENT1|52=20240103-08:53:34.614|10=191|
2024-01-03 09:53:36.936 [34] [FixSender] (DEBUG) Sending 8=FIX.4.4|9=56|35=0|49=FIXCLIENT1|56=DMA_HUB|34=7|52=20240103-08:53:36|10=251|
2024-01-03 09:54:04.558 [33] [FixSender] (DEBUG) Receiving 8=FIX.4.4|9=61|35=0|34=10|49=DMA_HUB|56=FIXCLIENT1|52=20240103-08:54:04.558|10=237|
2024-01-03 09:54:06.950 [34] [FixSender] (DEBUG) Sending 8=FIX.4.4|9=56|35=0|49=FIXCLIENT1|56=DMA_HUB|34=8|52=20240103-08:54:06|10=250|
2024-01-03 09:54:34.571 [33] [FixSender] (DEBUG) Receiving 8=FIX.4.4|9=61|35=0|34=11|49=DMA_HUB|56=FIXCLIENT1|52=20240103-08:54:34.571|10=236|
2024-01-03 09:54:36.964 [34] [FixSender] (DEBUG) Sending 8=FIX.4.4|9=56|35=0|49=FIXCLIENT1|56=DMA_HUB|34=9|52=20240103-08:54:36|10=254|
2024-01-03 09:55:04.528 [33] [FixSender] (DEBUG) Receiving 8=FIX.4.4|9=61|35=0|34=12|49=DMA_HUB|56=FIXCLIENT1|52=20240103-08:55:04.528|10=237|
2024-01-03 09:55:06.975 [34] [FixSender] (DEBUG) Sending 8=FIX.4.4|9=57|35=0|49=FIXCLIENT1|56=DMA_HUB|34=10|52=20240103-08:55:06|10=037|
2024-01-03 09:55:34.489 [33] [FixSender] (DEBUG) Receiving 8=FIX.4.4|9=61|35=0|34=13|49=DMA_HUB|56=FIXCLIENT1|52=20240103-08:55:34.485|10=243|
2024-01-03 09:55:36.977 [34] [FixSender] (DEBUG) Sending 8=FIX.4.4|9=57|35=0|49=FIXCLIENT1|56=DMA_HUB|34=11|52=20240103-08:55:36|10=041|
2024-01-03 09:56:04.436 [33] [FixSender] (DEBUG) Receiving 8=FIX.4.4|9=61|35=0|34=14|49=DMA_HUB|56=FIXCLIENT1|52=20240103-08:56:04.435|10=237|
2024-01-03 09:56:06.980 [34] [FixSender] (DEBUG) Sending 8=FIX.4.4|9=57|35=0|49=FIXCLIENT1|56=DMA_HUB|34=12|52=20240103-08:56:06|10=040|
2024-01-03 09:56:34.381 [33] [FixSender] (DEBUG) Receiving 8=FIX.4.4|9=61|35=0|34=15|49=DMA_HUB|56=FIXCLIENT1|52=20240103-08:56:34.378|10=247|
2024-01-03 09:56:36.999 [34] [FixSender] (DEBUG) Sending 8=FIX.4.4|9=57|35=0|49=FIXCLIENT1|56=DMA_HUB|34=13|52=20240103-08:56:36|10=044|
2024-01-03 09:57:04.337 [33] [FixSender] (DEBUG) Receiving 8=FIX.4.4|9=61|35=0|34=16|49=DMA_HUB|56=FIXCLIENT1|52=20240103-08:57:04.336|10=240|
2024-01-03 09:57:07.015 [34] [FixSender] (DEBUG) Sending 8=FIX.4.4|9=57|35=0|49=FIXCLIENT1|56=DMA_HUB|34=14|52=20240103-08:57:07|10=044|
2024-01-03 09:57:34.291 [33] [FixSender] (DEBUG) Receiving 8=FIX.4.4|9=61|35=0|34=17|49=DMA_HUB|56=FIXCLIENT1|52=20240103-08:57:34.290|10=243|
2024-01-03 09:57:37.028 [34] [FixSender] (DEBUG) Sending 8=FIX.4.4|9=57|35=0|49=FIXCLIENT1|56=DMA_HUB|34=15|52=20240103-08:57:37|10=048|
2024-01-03 09:58:04.247 [33] [FixSender] (DEBUG) Receiving 8=FIX.4.4|9=61|35=0|34=18|49=DMA_HUB|56=FIXCLIENT1|52=20240103-08:58:04.246|10=243|
2024-01-03 09:58:07.033 [34] [FixSender] (DEBUG) Sending 8=FIX.4.4|9=57|35=0|49=FIXCLIENT1|56=DMA_HUB|34=16|52=20240103-08:58:07|10=047|
2024-01-03 09:58:34.199 [33] [FixSender] (DEBUG) Receiving 8=FIX.4.4|9=61|35=0|34=19|49=DMA_HUB|56=FIXCLIENT1|52=20240103-08:58:34.198|10=253|
2024-01-03 09:58:37.042 [34] [FixSender] (DEBUG) Sending 8=FIX.4.4|9=57|35=0|49=FIXCLIENT1|56=DMA_HUB|34=17|52=20240103-08:58:37|10=051|
2024-01-03 09:59:04.141 [33] [FixSender] (DEBUG) Receiving 8=FIX.4.4|9=61|35=0|34=20|49=DMA_HUB|56=FIXCLIENT1|52=20240103-08:59:04.140|10=230|
2024-01-03 09:59:07.043 [34] [FixSender] (DEBUG) Sending 8=FIX.4.4|9=57|35=0|49=FIXCLIENT1|56=DMA_HUB|34=18|52=20240103-08:59:07|10=050|
2024-01-03 09:59:34.101 [33] [FixSender] (DEBUG) Receiving 8=FIX.4.4|9=61|35=0|34=21|49=DMA_HUB|56=FIXCLIENT1|52=20240103-08:59:34.101|10=231|
2024-01-03 09:59:37.059 [34] [FixSender] (DEBUG) Sending 8=FIX.4.4|9=57|35=0|49=FIXCLIENT1|56=DMA_HUB|34=19|52=20240103-08:59:37|10=054|
2024-01-03 10:00:04.053 [33] [FixSender] (DEBUG) Receiving 8=FIX.4.4|9=61|35=0|34=22|49=DMA_HUB|56=FIXCLIENT1|52=20240103-09:00:04.052|10=221|
2024-01-03 10:00:07.072 [34] [FixSender] (DEBUG) Sending 8=FIX.4.4|9=57|35=0|49=FIXCLIENT1|56=DMA_HUB|34=20|52=20240103-09:00:07|10=030|
2024-01-03 10:00:34.004 [33] [FixSender] (DEBUG) Receiving 8=FIX.4.4|9=61|35=0|34=23|49=DMA_HUB|56=FIXCLIENT1|52=20240103-09:00:34.001|10=219|
2024-01-03 10:00:37.074 [34] [FixSender] (DEBUG) Sending 8=FIX.4.4|9=57|35=0|49=FIXCLIENT1|56=DMA_HUB|34=21|52=20240103-09:00:37|10=034|
2024-01-03 10:01:03.955 [33] [FixSender] (DEBUG) Receiving 8=FIX.4.4|9=61|35=0|34=24|49=DMA_HUB|56=FIXCLIENT1|52=20240103-09:01:03.954|10=234|
2024-01-03 10:01:07.083 [34] [FixSender] (DEBUG) Sending 8=FIX.4.4|9=57|35=0|49=FIXCLIENT1|56=DMA_HUB|34=22|52=20240103-09:01:07|10=033|
2024-01-03 10:01:33.912 [33] [FixSender] (DEBUG) Receiving 8=FIX.4.4|9=61|35=0|34=25|49=DMA_HUB|56=FIXCLIENT1|52=20240103-09:01:33.912|10=232|
2024-01-03 10:01:37.085 [34] [FixSender] (DEBUG) Sending 8=FIX.4.4|9=57|35=0|49=FIXCLIENT1|56=DMA_HUB|34=23|52=20240103-09:01:37|10=037|
2024-01-03 10:02:03.856 [33] [FixSender] (DEBUG) Receiving 8=FIX.4.4|9=61|35=0|34=26|49=DMA_HUB|56=FIXCLIENT1|52=20240103-09:02:03.855|10=237|
2024-01-03 10:02:07.091 [34] [FixSender] (DEBUG) Sending 8=FIX.4.4|9=57|35=0|49=FIXCLIENT1|56=DMA_HUB|34=24|52=20240103-09:02:07|10=036|
2024-01-03 10:02:33.809 [33] [FixSender] (DEBUG) Receiving 8=FIX.4.4|9=61|35=0|34=27|49=DMA_HUB|56=FIXCLIENT1|52=20240103-09:02:33.804|10=235|
2024-01-03 10:02:37.093 [34] [FixSender] (DEBUG) Sending 8=FIX.4.4|9=57|35=0|49=FIXCLIENT1|56=DMA_HUB|34=25|52=20240103-09:02:37|10=040|
2024-01-03 10:03:03.764 [33] [FixSender] (DEBUG) Receiving 8=FIX.4.4|9=61|35=0|34=28|49=DMA_HUB|56=FIXCLIENT1|52=20240103-09:03:03.764|10=239|
2024-01-03 10:03:07.110 [34] [FixSender] (DEBUG) Sending 8=FIX.4.4|9=57|35=0|49=FIXCLIENT1|56=DMA_HUB|34=26|52=20240103-09:03:07|10=039|
2024-01-03 10:03:33.716 [33] [FixSender] (DEBUG) Receiving 8=FIX.4.4|9=61|35=0|34=29|49=DMA_HUB|56=FIXCLIENT1|52=20240103-09:03:33.715|10=239|
2024-01-03 10:03:37.118 [34] [FixSender] (DEBUG) Sending 8=FIX.4.4|9=57|35=0|49=FIXCLIENT1|56=DMA_HUB|34=27|52=20240103-09:03:37|10=043|
2024-01-03 10:04:03.669 [33] [FixSender] (DEBUG) Receiving 8=FIX.4.4|9=61|35=0|34=30|49=DMA_HUB|56=FIXCLIENT1|52=20240103-09:04:03.668|10=236|
2024-01-03 10:04:07.134 [34] [FixSender] (DEBUG) Sending 8=FIX.4.4|9=57|35=0|49=FIXCLIENT1|56=DMA_HUB|34=28|52=20240103-09:04:07|10=042|
2024-01-03 10:04:33.624 [33] [FixSender] (DEBUG) Receiving 8=FIX.4.4|9=61|35=0|34=31|49=DMA_HUB|56=FIXCLIENT1|52=20240103-09:04:33.623|10=231|
2024-01-03 10:04:37.146 [34] [FixSender] (DEBUG) Sending 8=FIX.4.4|9=57|35=0|49=FIXCLIENT1|56=DMA_HUB|34=29|52=20240103-09:04:37|10=046|
2024-01-03 10:05:03.569 [33] [FixSender] (DEBUG) Receiving 8=FIX.4.4|9=61|35=0|34=32|49=DMA_HUB|56=FIXCLIENT1|52=20240103-09:05:03.568|10=238|
2024-01-03 10:05:07.147 [34] [FixSender] (DEBUG) Sending 8=FIX.4.4|9=57|35=0|49=FIXCLIENT1|56=DMA_HUB|34=30|52=20240103-09:05:07|10=036|
2024-01-03 10:05:33.534 [33] [FixSender] (DEBUG) Receiving 8=FIX.4.4|9=61|35=0|34=33|49=DMA_HUB|56=FIXCLIENT1|52=20240103-09:05:33.529|10=239|
2024-01-03 10:05:37.161 [34] [FixSender] (DEBUG) Sending 8=FIX.4.4|9=57|35=0|49=FIXCLIENT1|56=DMA_HUB|34=31|52=20240103-09:05:37|10=040|
2024-01-03 10:06:03.541 [33] [FixSender] (DEBUG) Receiving 8=FIX.4.4|9=61|35=0|34=34|49=DMA_HUB|56=FIXCLIENT1|52=20240103-09:06:03.541|10=232|
2024-01-03 10:06:07.166 [34] [FixSender] (DEBUG) Sending 8=FIX.4.4|9=57|35=0|49=FIXCLIENT1|56=DMA_HUB|34=32|52=20240103-09:06:07|10=039|
2024-01-03 10:06:33.496 [33] [FixSender] (DEBUG) Receiving 8=FIX.4.4|9=61|35=0|34=35|49=DMA_HUB|56=FIXCLIENT1|52=20240103-09:06:33.491|10=240|
2024-01-03 10:06:37.181 [34] [FixSender] (DEBUG) Sending 8=FIX.4.4|9=57|35=0|49=FIXCLIENT1|56=DMA_HUB|34=33|52=20240103-09:06:37|10=043|
2024-01-03 10:07:03.443 [33] [FixSender] (DEBUG) Receiving 8=FIX.4.4|9=61|35=0|34=36|49=DMA_HUB|56=FIXCLIENT1|52=20240103-09:07:03.442|10=235|
2024-01-03 10:07:07.197 [34] [FixSender] (DEBUG) Sending 8=FIX.4.4|9=57|35=0|49=FIXCLIENT1|56=DMA_HUB|34=34|52=20240103-09:07:07|10=042|
2024-01-03 10:07:33.391 [33] [FixSender] (DEBUG) Receiving 8=FIX.4.4|9=61|35=0|34=37|49=DMA_HUB|56=FIXCLIENT1|52=20240103-09:07:33.388|10=248|
2024-01-03 10:07:37.207 [34] [FixSender] (DEBUG) Sending 8=FIX.4.4|9=57|35=0|49=FIXCLIENT1|56=DMA_HUB|34=35|52=20240103-09:07:37|10=046|
2024-01-03 10:08:03.340 [33] [FixSender] (DEBUG) Receiving 8=FIX.4.4|9=61|35=0|34=38|49=DMA_HUB|56=FIXCLIENT1|52=20240103-09:08:03.340|10=235|
2024-01-03 10:08:07.211 [34] [FixSender] (DEBUG) Sending 8=FIX.4.4|9=57|35=0|49=FIXCLIENT1|56=DMA_HUB|34=36|52=20240103-09:08:07|10=045|
2024-01-03 10:08:33.303 [33] [FixSender] (DEBUG) Receiving 8=FIX.4.4|9=61|35=0|34=39|49=DMA_HUB|56=FIXCLIENT1|52=20240103-09:08:33.301|10=236|
2024-01-03 10:08:37.213 [34] [FixSender] (DEBUG) Sending 8=FIX.4.4|9=57|35=0|49=FIXCLIENT1|56=DMA_HUB|34=37|52=20240103-09:08:37|10=049|
2024-01-03 10:09:03.254 [33] [FixSender] (DEBUG) Receiving 8=FIX.4.4|9=61|35=0|34=40|49=DMA_HUB|56=FIXCLIENT1|52=20240103-09:09:03.253|10=232|
2024-01-03 10:09:07.216 [34] [FixSender] (DEBUG) Sending 8=FIX.4.4|9=57|35=0|49=FIXCLIENT1|56=DMA_HUB|34=38|52=20240103-09:09:07|10=048|
2024-01-03 10:09:33.196 [33] [FixSender] (DEBUG) Receiving 8=FIX.4.4|9=61|35=0|34=41|49=DMA_HUB|56=FIXCLIENT1|52=20240103-09:09:33.196|10=242|
2024-01-03 10:09:37.218 [34] [FixSender] (DEBUG) Sending 8=FIX.4.4|9=57|35=0|49=FIXCLIENT1|56=DMA_HUB|34=39|52=20240103-09:09:37|10=052|
2024-01-03 10:10:03.155 [33] [FixSender] (DEBUG) Receiving 8=FIX.4.4|9=61|35=0|34=42|49=DMA_HUB|56=FIXCLIENT1|52=20240103-09:10:03.154|10=226|
2024-01-03 10:10:07.218 [34] [FixSender] (DEBUG) Sending 8=FIX.4.4|9=57|35=0|49=FIXCLIENT1|56=DMA_HUB|34=40|52=20240103-09:10:07|10=033|
2024-01-03 10:10:33.104 [33] [FixSender] (DEBUG) Receiving 8=FIX.4.4|9=61|35=0|34=43|49=DMA_HUB|56=FIXCLIENT1|52=20240103-09:10:33.103|10=224|
2024-01-03 10:10:37.221 [34] [FixSender] (DEBUG) Sending 8=FIX.4.4|9=57|35=0|49=FIXCLIENT1|56=DMA_HUB|34=41|52=20240103-09:10:37|10=037|
2024-01-03 10:11:03.054 [33] [FixSender] (DEBUG) Receiving 8=FIX.4.4|9=61|35=0|34=44|49=DMA_HUB|56=FIXCLIENT1|52=20240103-09:11:03.053|10=227|
2024-01-03 10:11:07.230 [34] [FixSender] (DEBUG) Sending 8=FIX.4.4|9=57|35=0|49=FIXCLIENT1|56=DMA_HUB|34=42|52=20240103-09:11:07|10=036|
2024-01-03 10:11:33.008 [33] [FixSender] (DEBUG) Receiving 8=FIX.4.4|9=61|35=0|34=45|49=DMA_HUB|56=FIXCLIENT1|52=20240103-09:11:33.007|10=230|
2024-01-03 10:11:37.231 [34] [FixSender] (DEBUG) Sending 8=FIX.4.4|9=57|35=0|49=FIXCLIENT1|56=DMA_HUB|34=43|52=20240103-09:11:37|10=040|
2024-01-03 10:12:05.008 [35] [FixSender] (DEBUG) Sending 8=FIX.4.4|9=80|35=1|49=FIXCLIENT1|56=DMA_HUB|34=44|52=20240103-09:12:05|112=HeartBtExt Timeout|10=214|
2024-01-03 10:12:35.009 [34] [FixSender] (DEBUG) Sending 8=FIX.4.4|9=57|35=0|49=FIXCLIENT1|56=DMA_HUB|34=45|52=20240103-09:12:35|10=041|
2024-01-03 10:12:37.011 [33] [FixSender] (INFO) physical cnx finished Connection reset by peer
2024-01-03 10:12:37.011 [33] [FixSender] (WARNING) Disconnected
2024-01-03 10:14:06.886 [37] [FixSender] (INFO) try to connect to : localhost port :12345
2024-01-03 10:14:06.887 [37] [FixSender] (INFO) physical cnx initiated
2024-01-03 10:14:06.892 [37] [FixSender] (DEBUG) Sending 8=FIX.4.4|9=87|35=A|49=FIXCLIENT1|56=DMA_HUB|34=46|52=20240103-09:14:06|98=0|108=30|95=9|96=null/null|10=142|
2024-01-03 10:14:06.894 [37] [FixSender] (DEBUG) Receiving 8=FIX.4.4|9=73|35=A|34=49|49=DMA_HUB|56=FIXCLIENT1|52=20240103-09:14:06.892|108=30|98=0|10=038|
2024-01-03 10:14:06.894 [37] [FixSender] (WARNING) The Fix connection is open...
2024-01-03 10:14:06.898 [37] [FixSender] (DEBUG) Sending 8=FIX.4.4|9=67|35=2|49=FIXCLIENT1|56=DMA_HUB|34=47|52=20240103-09:14:06|7=46|16=0|10=226|
2024-01-03 10:14:06.899 [37] [FixSender] (DEBUG) Receiving 8=FIX.4.4|9=104|35=4|34=46|49=DMA_HUB|56=FIXCLIENT1|52=20240103-09:14:06.899|43=Y|122=20240103-09:14:06.899|36=48|123=Y|10=121|
2024-01-03 10:14:06.899 [37] [FixSender] (DEBUG) Receiving 8=FIX.4.4|9=266|35=8|34=48|49=DMA_HUB|56=FIXCLIENT1|52=20240103-09:14:06.899|43=Y|122=20240103-09:13:08.644|11=HS_17042718960|37=FX39NzDuF|54=2|40=2|59=0|17=202401032|150=A|39=A|38=1580|151=1580|14=0|6=0|44=197|60=20240103-08:51:36.000|22=4|48=US3390411052|207=XETR|15=EUR|55=[N/A]|10=004|
2024-01-03 10:14:06.900 [37] [FixSender] (DEBUG) Receiving 8=FIX.4.4|9=104|35=4|34=49|49=DMA_HUB|56=FIXCLIENT1|52=20240103-09:14:06.899|43=Y|122=20240103-09:14:06.899|36=50|123=Y|10=117|
2024-01-03 10:14:08.834 [40] [FixSender] (DEBUG) Sending 8=FIX.4.4|9=196|35=D|49=FIXCLIENT1|56=DMA_HUB|34=48|52=20240103-09:14:08|21=1|11=HS_17042732481|38=265|55=E:07G@XETR|54=2|60=20240103-09:14:08|40=2|59=0|44=197.111|48=US3390411052|22=4|15=EUR|207=XETR|1=bram_123|10=035|
2024-01-03 10:14:08.836 [37] [FixSender] (DEBUG) Receiving 8=FIX.4.4|9=237|35=8|34=50|49=DMA_HUB|56=FIXCLIENT1|52=20240103-09:14:08.835|11=HS_17042732481|37=FX49NzDuF|54=2|40=2|59=0|17=202401033|150=A|39=A|38=265|151=265|14=0|6=0|44=197.111|60=20240103-09:14:08.000|22=4|48=US3390411052|207=XETR|15=EUR|55=[N/A]|10=078|
2024-01-03 10:14:36.889 [37] [FixSender] (DEBUG) Receiving 8=FIX.4.4|9=61|35=0|34=51|49=DMA_HUB|56=FIXCLIENT1|52=20240103-09:14:36.889|10=251|
2024-01-03 10:14:38.840 [38] [FixSender] (DEBUG) Sending 8=FIX.4.4|9=57|35=0|49=FIXCLIENT1|56=DMA_HUB|34=49|52=20240103-09:14:38|10=050|
2024-01-03 10:15:06.845 [37] [FixSender] (DEBUG) Receiving 8=FIX.4.4|9=61|35=0|34=52|49=DMA_HUB|56=FIXCLIENT1|52=20240103-09:15:06.839|10=245|
2024-01-03 10:15:08.851 [38] [FixSender] (DEBUG) Sending 8=FIX.4.4|9=57|35=0|49=FIXCLIENT1|56=DMA_HUB|34=50|52=20240103-09:15:08|10=040|
2024-01-03 10:15:36.792 [37] [FixSender] (DEBUG) Receiving 8=FIX.4.4|9=61|35=0|34=53|49=DMA_HUB|56=FIXCLIENT1|52=20240103-09:15:36.792|10=247|
2024-01-03 10:15:38.866 [38] [FixSender] (DEBUG) Sending 8=FIX.4.4|9=57|35=0|49=FIXCLIENT1|56=DMA_HUB|34=51|52=20240103-09:15:38|10=044|
2024-01-03 10:16:06.745 [37] [FixSender] (DEBUG) Receiving 8=FIX.4.4|9=61|35=0|34=54|49=DMA_HUB|56=FIXCLIENT1|52=20240103-09:16:06.744|10=243|
2024-01-03 10:16:08.867 [38] [FixSender] (DEBUG) Sending 8=FIX.4.4|9=57|35=0|49=FIXCLIENT1|56=DMA_HUB|34=52|52=20240103-09:16:08|10=043|
2024-01-03 10:16:31.050 [37] [FixSender] (DEBUG) Receiving 8=FIX.4.4|9=233|35=8|34=55|49=DMA_HUB|56=FIXCLIENT1|52=20240103-09:16:31.049|11=HS_17042732481|37=FX49NzDuF|54=2|40=2|59=0|17=202401034|150=A|39=A|38=265|151=265|14=0|6=0|44=197|60=20240103-09:14:08.000|22=4|48=US3390411052|207=XETR|15=EUR|55=[N/A]|10=138|
2024-01-03 10:16:38.873 [38] [FixSender] (DEBUG) Sending 8=FIX.4.4|9=57|35=0|49=FIXCLIENT1|56=DMA_HUB|34=53|52=20240103-09:16:38|10=047|
2024-01-03 10:17:03.058 [39] [FixSender] (DEBUG) Sending 8=FIX.4.4|9=80|35=1|49=FIXCLIENT1|56=DMA_HUB|34=54|52=20240103-09:17:03|112=HeartBtExt Timeout|10=218|
2024-01-03 10:17:25.379 [37] [FixSender] (DEBUG) Receiving 8=FIX.4.4|9=61|35=0|34=56|49=DMA_HUB|56=FIXCLIENT1|52=20240103-09:17:25.379|10=251|
2024-01-03 10:17:25.380 [37] [FixSender] (DEBUG) Receiving 8=FIX.4.4|9=84|35=0|34=57|49=DMA_HUB|56=FIXCLIENT1|52=20240103-09:17:25.379|112=HeartBtExt Timeout|10=181|
2024-01-03 10:17:25.380 [37] [FixSender] (DEBUG) Receiving 8=FIX.4.4|9=248|35=8|34=58|49=DMA_HUB|56=FIXCLIENT1|52=20240103-09:17:25.380|11=HS_17042732481|37=FX49NzDuF|198=EQ8Mpbbaf2|54=2|40=2|59=0|17=202401035|150=0|39=0|38=265|151=265|14=0|6=0|44=197|60=20240103-09:16:31.051|22=4|48=US3390411052|207=XETR|15=EUR|55=[N/A]|10=160|
2024-01-03 10:17:33.068 [38] [FixSender] (DEBUG) Sending 8=FIX.4.4|9=57|35=0|49=FIXCLIENT1|56=DMA_HUB|34=55|52=20240103-09:17:33|10=045|
2024-01-03 10:17:57.385 [39] [FixSender] (DEBUG) Sending 8=FIX.4.4|9=80|35=1|49=FIXCLIENT1|56=DMA_HUB|34=56|52=20240103-09:17:57|112=HeartBtExt Timeout|10=229|
2024-01-03 10:18:27.414 [38] [FixSender] (DEBUG) Sending 8=FIX.4.4|9=57|35=0|49=FIXCLIENT1|56=DMA_HUB|34=57|52=20240103-09:18:27|10=051|
2024-01-03 10:18:29.402 [37] [FixSender] (INFO) physical cnx finished Connection reset by peer
2024-01-03 10:18:29.402 [37] [FixSender] (WARNING) Disconnected
2024-01-03 10:21:04.727 [41] [FixSender] (INFO) try to connect to : localhost port :12345
2024-01-03 10:21:04.728 [41] [FixSender] (INFO) physical cnx initiated
2024-01-03 10:21:04.730 [41] [FixSender] (DEBUG) Sending 8=FIX.4.4|9=87|35=A|49=FIXCLIENT1|56=DMA_HUB|34=58|52=20240103-09:21:04|98=0|108=30|95=9|96=null/null|10=141|
2024-01-03 10:21:04.734 [41] [FixSender] (DEBUG) Receiving 8=FIX.4.4|9=73|35=A|34=61|49=DMA_HUB|56=FIXCLIENT1|52=20240103-09:21:04.730|108=30|98=0|10=019|
2024-01-03 10:21:04.735 [41] [FixSender] (WARNING) The Fix connection is open...
2024-01-03 10:21:04.738 [41] [FixSender] (DEBUG) Sending 8=FIX.4.4|9=67|35=2|49=FIXCLIENT1|56=DMA_HUB|34=59|52=20240103-09:21:04|7=59|16=0|10=229|
2024-01-03 10:21:04.739 [41] [FixSender] (DEBUG) Receiving 8=FIX.4.4|9=104|35=4|34=59|49=DMA_HUB|56=FIXCLIENT1|52=20240103-09:21:04.739|43=Y|122=20240103-09:21:04.739|36=62|123=Y|10=099|
2024-01-03 10:21:06.530 [44] [FixSender] (DEBUG) Sending 8=FIX.4.4|9=197|35=D|49=FIXCLIENT1|56=DMA_HUB|34=60|52=20240103-09:21:06|21=1|11=HS_17042736662|38=1378|55=E:07G@XETR|54=2|60=20240103-09:21:06|40=2|59=0|44=197.111|48=US3390411052|22=4|15=EUR|207=XETR|1=bram_123|10=081|
2024-01-03 10:21:06.533 [41] [FixSender] (DEBUG) Receiving 8=FIX.4.4|9=239|35=8|34=62|49=DMA_HUB|56=FIXCLIENT1|52=20240103-09:21:06.531|11=HS_17042736662|37=FX59NzDuF|54=2|40=2|59=0|17=202401036|150=A|39=A|38=1378|151=1378|14=0|6=0|44=197.111|60=20240103-09:21:06.000|22=4|48=US3390411052|207=XETR|15=EUR|55=[N/A]|10=185|
2024-01-03 10:21:34.682 [41] [FixSender] (DEBUG) Receiving 8=FIX.4.4|9=61|35=0|34=63|49=DMA_HUB|56=FIXCLIENT1|52=20240103-09:21:34.682|10=241|
2024-01-03 10:21:36.545 [42] [FixSender] (DEBUG) Sending 8=FIX.4.4|9=57|35=0|49=FIXCLIENT1|56=DMA_HUB|34=61|52=20240103-09:21:36|10=040|
2024-01-03 10:22:06.553 [42] [FixSender] (DEBUG) Sending 8=FIX.4.4|9=57|35=0|49=FIXCLIENT1|56=DMA_HUB|34=62|52=20240103-09:22:06|10=039|
2024-01-03 10:22:06.684 [43] [FixSender] (DEBUG) Sending 8=FIX.4.4|9=80|35=1|49=FIXCLIENT1|56=DMA_HUB|34=63|52=20240103-09:22:06|112=HeartBtExt Timeout|10=217|
2024-01-03 10:22:24.110 [41] [FixSender] (DEBUG) Receiving 8=FIX.4.4|9=84|35=0|34=64|49=DMA_HUB|56=FIXCLIENT1|52=20240103-09:22:24.109|112=HeartBtExt Timeout|10=165|
2024-01-03 10:22:24.110 [41] [FixSender] (DEBUG) Receiving 8=FIX.4.4|9=61|35=0|34=65|49=DMA_HUB|56=FIXCLIENT1|52=20240103-09:22:24.109|10=237|
2024-01-03 10:22:28.592 [41] [FixSender] (DEBUG) Receiving 8=FIX.4.4|9=233|35=8|34=66|49=DMA_HUB|56=FIXCLIENT1|52=20240103-09:22:28.591|11=HS_17042736662|37=FX59NzDuF|54=2|40=2|59=0|17=202401037|150=A|39=A|38=1378|151=1378|14=0|6=0|44=5|60=20240103-09:21:06.000|22=4|48=US3390411052|207=XETR|15=EUR|55=[N/A]|10=150|
2024-01-03 10:22:36.684 [42] [FixSender] (DEBUG) Sending 8=FIX.4.4|9=57|35=0|49=FIXCLIENT1|56=DMA_HUB|34=64|52=20240103-09:22:36|10=044|
2024-01-03 10:23:00.594 [43] [FixSender] (DEBUG) Sending 8=FIX.4.4|9=80|35=1|49=FIXCLIENT1|56=DMA_HUB|34=65|52=20240103-09:23:00|112=HeartBtExt Timeout|10=214|
2024-01-03 10:23:30.595 [42] [FixSender] (DEBUG) Sending 8=FIX.4.4|9=57|35=0|49=FIXCLIENT1|56=DMA_HUB|34=66|52=20240103-09:23:30|10=041|
2024-01-03 10:23:32.600 [41] [FixSender] (INFO) physical cnx finished Connection reset by peer
2024-01-03 10:23:32.601 [41] [FixSender] (WARNING) Disconnected
2024-01-03 10:36:10.906 [45] [FixSender] (INFO) try to connect to : localhost port :12345
2024-01-03 10:36:10.907 [45] [FixSender] (INFO) physical cnx initiated
2024-01-03 10:36:10.909 [45] [FixSender] (DEBUG) Sending 8=FIX.4.4|9=87|35=A|49=FIXCLIENT1|56=DMA_HUB|34=67|52=20240103-09:36:10|98=0|108=30|95=9|96=null/null|10=144|
2024-01-03 10:36:10.913 [45] [FixSender] (DEBUG) Receiving 8=FIX.4.4|9=73|35=A|34=71|49=DMA_HUB|56=FIXCLIENT1|52=20240103-09:36:10.910|108=30|98=0|10=023|
2024-01-03 10:36:10.914 [45] [FixSender] (WARNING) The Fix connection is open...
2024-01-03 10:36:10.916 [45] [FixSender] (DEBUG) Sending 8=FIX.4.4|9=67|35=2|49=FIXCLIENT1|56=DMA_HUB|34=68|52=20240103-09:36:10|7=67|16=0|10=231|
2024-01-03 10:36:10.921 [45] [FixSender] (DEBUG) Receiving 8=FIX.4.4|9=104|35=4|34=67|49=DMA_HUB|56=FIXCLIENT1|52=20240103-09:36:10.921|43=Y|122=20240103-09:36:10.921|36=69|123=Y|10=097|
2024-01-03 10:36:10.922 [45] [FixSender] (DEBUG) Receiving 8=FIX.4.4|9=279|35=8|34=69|49=DMA_HUB|56=FIXCLIENT1|52=20240103-09:36:10.921|43=Y|122=20240103-09:24:05.129|11=HS_17042736662|37=FX59NzDuF|198=EQ8Mpe2788|54=2|40=2|59=0|17=202401038|150=0|39=0|38=1378|151=1378|14=0|6=0|44=5|60=20240103-09:22:28.594|22=4|48=US3390411052|207=XETR|15=EUR|55=[N/A]|10=055|
2024-01-03 10:36:10.922 [45] [FixSender] (DEBUG) Receiving 8=FIX.4.4|9=338|35=8|34=70|49=DMA_HUB|56=FIXCLIENT1|52=20240103-09:36:10.921|43=Y|122=20240103-09:33:29.456|11=HS_17042736662|37=FX59NzDuF|198=EQ8Mpe2788|54=2|32=1378|31=78|17=202401039|527=AFQ8Mp1|150=F|39=2|38=1378|151=0|14=1378|6=78|44=5|60=20240103-09:22:28.595|22=4|48=US3390411052|207=XETR|15=EUR|55=[N/A]|453=1|448=strmrepl|447=D|452=17|40=2|59=0|10=178|
2024-01-03 10:36:10.922 [45] [FixSender] (DEBUG) Receiving 8=FIX.4.4|9=104|35=4|34=71|49=DMA_HUB|56=FIXCLIENT1|52=20240103-09:36:10.922|43=Y|122=20240103-09:36:10.921|36=72|123=Y|10=087|
2024-01-03 10:36:18.938 [48] [FixSender] (DEBUG) Sending 8=FIX.4.4|9=196|35=D|49=FIXCLIENT1|56=DMA_HUB|34=69|52=20240103-09:36:18|21=1|11=HS_17042745783|38=198|55=E:07G@XETR|54=2|60=20240103-09:36:18|40=2|59=0|44=197.111|48=US3390411052|22=4|15=EUR|207=XETR|1=bram_123|10=062|
2024-01-03 10:36:18.944 [45] [FixSender] (DEBUG) Receiving 8=FIX.4.4|9=238|35=8|34=72|49=DMA_HUB|56=FIXCLIENT1|52=20240103-09:36:18.943|11=HS_17042745783|37=FXrmFIDfH|54=2|40=2|59=0|17=2024010310|150=A|39=A|38=198|151=198|14=0|6=0|44=197.111|60=20240103-09:36:18.000|22=4|48=US3390411052|207=XETR|15=EUR|55=[N/A]|10=202|
2024-01-03 10:36:40.887 [45] [FixSender] (DEBUG) Receiving 8=FIX.4.4|9=61|35=0|34=73|49=DMA_HUB|56=FIXCLIENT1|52=20240103-09:36:40.880|10=245|
2024-01-03 10:36:48.939 [46] [FixSender] (DEBUG) Sending 8=FIX.4.4|9=57|35=0|49=FIXCLIENT1|56=DMA_HUB|34=70|52=20240103-09:36:48|10=049|
2024-01-03 10:37:10.828 [45] [FixSender] (DEBUG) Receiving 8=FIX.4.4|9=61|35=0|34=74|49=DMA_HUB|56=FIXCLIENT1|52=20240103-09:37:10.828|10=246|
2024-01-03 10:37:18.941 [46] [FixSender] (DEBUG) Sending 8=FIX.4.4|9=57|35=0|49=FIXCLIENT1|56=DMA_HUB|34=71|52=20240103-09:37:18|10=048|
2024-01-03 10:37:42.830 [47] [FixSender] (DEBUG) Sending 8=FIX.4.4|9=80|35=1|49=FIXCLIENT1|56=DMA_HUB|34=72|52=20240103-09:37:42|112=HeartBtExt Timeout|10=223|
2024-01-03 10:38:12.831 [46] [FixSender] (DEBUG) Sending 8=FIX.4.4|9=57|35=0|49=FIXCLIENT1|56=DMA_HUB|34=73|52=20240103-09:38:12|10=045|
2024-01-03 10:38:14.835 [45] [FixSender] (INFO) physical cnx finished Connection reset by peer
2024-01-03 10:38:14.835 [45] [FixSender] (WARNING) Disconnected
2024-01-03 10:39:56.403 [49] [FixSender] (INFO) try to connect to : localhost port :12345
2024-01-03 10:39:56.405 [49] [FixSender] (INFO) physical cnx initiated
2024-01-03 10:39:56.406 [49] [FixSender] (DEBUG) Sending 8=FIX.4.4|9=87|35=A|49=FIXCLIENT1|56=DMA_HUB|34=74|52=20240103-09:39:56|98=0|108=30|95=9|96=null/null|10=155|
2024-01-03 10:39:56.408 [49] [FixSender] (DEBUG) Receiving 8=FIX.4.4|9=73|35=A|34=78|49=DMA_HUB|56=FIXCLIENT1|52=20240103-09:39:56.407|108=30|98=0|10=044|
2024-01-03 10:39:56.409 [49] [FixSender] (WARNING) The Fix connection is open...
2024-01-03 10:39:56.412 [49] [FixSender] (DEBUG) Sending 8=FIX.4.4|9=67|35=2|49=FIXCLIENT1|56=DMA_HUB|34=75|52=20240103-09:39:56|7=75|16=0|10=241|
2024-01-03 10:39:56.413 [49] [FixSender] (DEBUG) Receiving 8=FIX.4.4|9=104|35=4|34=75|49=DMA_HUB|56=FIXCLIENT1|52=20240103-09:39:56.413|43=Y|122=20240103-09:39:56.413|36=77|123=Y|10=113|
2024-01-03 10:39:56.413 [49] [FixSender] (DEBUG) Receiving 8=FIX.4.4|9=265|35=8|34=77|49=DMA_HUB|56=FIXCLIENT1|52=20240103-09:39:56.413|43=Y|122=20240103-09:39:14.997|11=HS_17042745783|37=FXrmFIDfH|54=2|40=2|59=0|17=2024010311|150=A|39=A|38=198|151=198|14=0|6=0|44=197|60=20240103-09:36:18.000|22=4|48=US3390411052|207=XETR|15=EUR|55=[N/A]|10=027|
2024-01-03 10:39:56.413 [49] [FixSender] (DEBUG) Receiving 8=FIX.4.4|9=104|35=4|34=78|49=DMA_HUB|56=FIXCLIENT1|52=20240103-09:39:56.413|43=Y|122=20240103-09:39:56.413|36=79|123=Y|10=118|
2024-01-03 10:39:58.380 [52] [FixSender] (DEBUG) Sending 8=FIX.4.4|9=197|35=D|49=FIXCLIENT1|56=DMA_HUB|34=76|52=20240103-09:39:58|21=1|11=HS_17042747984|38=3666|55=E:07G@XETR|54=2|60=20240103-09:39:58|40=2|59=0|44=197.111|48=US3390411052|22=4|15=EUR|207=XETR|1=bram_123|10=131|
2024-01-03 10:39:58.382 [49] [FixSender] (DEBUG) Receiving 8=FIX.4.4|9=240|35=8|34=79|49=DMA_HUB|56=FIXCLIENT1|52=20240103-09:39:58.381|11=HS_17042747984|37=FXsmFIDfH|54=2|40=2|59=0|17=2024010312|150=A|39=A|38=3666|151=3666|14=0|6=0|44=197.111|60=20240103-09:39:58.000|22=4|48=US3390411052|207=XETR|15=EUR|55=[N/A]|10=066|
2024-01-03 10:40:20.454 [49] [FixSender] (DEBUG) Receiving 8=FIX.4.4|9=235|35=8|34=80|49=DMA_HUB|56=FIXCLIENT1|52=20240103-09:40:20.453|11=HS_17042747984|37=FXsmFIDfH|54=2|40=2|59=0|17=2024010313|150=A|39=A|38=3666|151=3666|14=0|6=0|44=10|60=20240103-09:39:58.000|22=4|48=US3390411052|207=XETR|15=EUR|55=[N/A]|10=043|
2024-01-03 10:40:20.459 [49] [FixSender] (DEBUG) Receiving 8=FIX.4.4|9=251|35=8|34=81|49=DMA_HUB|56=FIXCLIENT1|52=20240103-09:40:20.458|11=HS_17042747984|37=FXsmFIDfH|198=EQ8Mp156cf7|54=2|40=2|59=0|17=2024010314|150=0|39=0|38=3666|151=3666|14=0|6=0|44=10|60=20240103-09:40:20.456|22=4|48=US3390411052|207=XETR|15=EUR|55=[N/A]|10=017|
2024-01-03 10:40:20.464 [49] [FixSender] (DEBUG) Receiving 8=FIX.4.4|9=310|35=8|34=82|49=DMA_HUB|56=FIXCLIENT1|52=20240103-09:40:20.463|11=HS_17042747984|37=FXsmFIDfH|198=EQ8Mp156cf7|54=2|32=3666|31=69|17=2024010315|527=AFQ8Mp2|150=F|39=2|38=3666|151=0|14=3666|6=69|44=10|60=20240103-09:40:20.456|22=4|48=US3390411052|207=XETR|15=EUR|55=[N/A]|453=1|448=strmrepl|447=D|452=17|40=2|59=0|10=138|
2024-01-03 10:40:26.409 [49] [FixSender] (DEBUG) Receiving 8=FIX.4.4|9=61|35=0|34=83|49=DMA_HUB|56=FIXCLIENT1|52=20240103-09:40:26.408|10=241|
2024-01-03 10:40:28.380 [50] [FixSender] (DEBUG) Sending 8=FIX.4.4|9=57|35=0|49=FIXCLIENT1|56=DMA_HUB|34=77|52=20240103-09:40:28|10=049|
2024-01-03 10:40:44.907 [53] [FixSender] (DEBUG) Sending 8=FIX.4.4|9=197|35=D|49=FIXCLIENT1|56=DMA_HUB|34=78|52=20240103-09:40:44|21=1|11=HS_17042748445|38=1844|55=E:07G@XETR|54=2|60=20240103-09:40:44|40=2|59=0|44=197.111|48=US3390411052|22=4|15=EUR|207=XETR|1=bram_123|10=096|
2024-01-03 10:40:44.919 [49] [FixSender] (DEBUG) Receiving 8=FIX.4.4|9=240|35=8|34=84|49=DMA_HUB|56=FIXCLIENT1|52=20240103-09:40:44.908|11=HS_17042748445|37=FXtmFIDfH|54=2|40=2|59=0|17=2024010316|150=A|39=A|38=1844|151=1844|14=0|6=0|44=197.111|60=20240103-09:40:44.000|22=4|48=US3390411052|207=XETR|15=EUR|55=[N/A]|10=031|
2024-01-03 10:40:56.365 [49] [FixSender] (DEBUG) Receiving 8=FIX.4.4|9=61|35=0|34=85|49=DMA_HUB|56=FIXCLIENT1|52=20240103-09:40:56.364|10=247|
2024-01-03 10:41:12.859 [49] [FixSender] (DEBUG) Receiving 8=FIX.4.4|9=235|35=8|34=86|49=DMA_HUB|56=FIXCLIENT1|52=20240103-09:41:12.858|11=HS_17042748445|37=FXtmFIDfH|54=2|40=2|59=0|17=2024010317|150=A|39=A|38=1844|151=1844|14=0|6=0|44=10|60=20240103-09:40:44.000|22=4|48=US3390411052|207=XETR|15=EUR|55=[N/A]|10=037|
2024-01-03 10:41:14.907 [50] [FixSender] (DEBUG) Sending 8=FIX.4.4|9=57|35=0|49=FIXCLIENT1|56=DMA_HUB|34=79|52=20240103-09:41:14|10=047|
2024-01-03 10:41:44.860 [51] [FixSender] (DEBUG) Sending 8=FIX.4.4|9=80|35=1|49=FIXCLIENT1|56=DMA_HUB|34=80|52=20240103-09:41:44|112=HeartBtExt Timeout|10=219|
2024-01-03 10:41:45.015 [49] [FixSender] (DEBUG) Receiving 8=FIX.4.4|9=61|35=0|34=87|49=DMA_HUB|56=FIXCLIENT1|52=20240103-09:41:45.014|10=240|
2024-01-03 10:41:45.015 [49] [FixSender] (DEBUG) Receiving 8=FIX.4.4|9=84|35=0|34=88|49=DMA_HUB|56=FIXCLIENT1|52=20240103-09:41:45.014|112=HeartBtExt Timeout|10=170|
2024-01-03 10:42:14.861 [50] [FixSender] (DEBUG) Sending 8=FIX.4.4|9=57|35=0|49=FIXCLIENT1|56=DMA_HUB|34=81|52=20240103-09:42:14|10=041|
2024-01-03 10:42:17.017 [51] [FixSender] (DEBUG) Sending 8=FIX.4.4|9=80|35=1|49=FIXCLIENT1|56=DMA_HUB|34=82|52=20240103-09:42:17|112=HeartBtExt Timeout|10=222|
2024-01-03 10:42:34.808 [49] [FixSender] (DEBUG) Receiving 8=FIX.4.4|9=61|35=0|34=89|49=DMA_HUB|56=FIXCLIENT1|52=20240103-09:42:34.807|10=251|
2024-01-03 10:42:34.809 [49] [FixSender] (DEBUG) Receiving 8=FIX.4.4|9=84|35=0|34=90|49=DMA_HUB|56=FIXCLIENT1|52=20240103-09:42:34.808|112=HeartBtExt Timeout|10=173|
2024-01-03 10:42:47.020 [50] [FixSender] (DEBUG) Sending 8=FIX.4.4|9=57|35=0|49=FIXCLIENT1|56=DMA_HUB|34=83|52=20240103-09:42:47|10=049|
2024-01-03 10:43:06.811 [51] [FixSender] (DEBUG) Sending 8=FIX.4.4|9=80|35=1|49=FIXCLIENT1|56=DMA_HUB|34=84|52=20240103-09:43:06|112=HeartBtExt Timeout|10=223|
2024-01-03 10:43:17.907 [49] [FixSender] (DEBUG) Receiving 8=FIX.4.4|9=61|35=0|34=91|49=DMA_HUB|56=FIXCLIENT1|52=20240103-09:43:17.906|10=246|
2024-01-03 10:43:17.908 [49] [FixSender] (DEBUG) Receiving 8=FIX.4.4|9=84|35=0|34=92|49=DMA_HUB|56=FIXCLIENT1|52=20240103-09:43:17.907|112=HeartBtExt Timeout|10=177|
2024-01-03 10:43:17.908 [49] [FixSender] (DEBUG) Receiving 8=FIX.4.4|9=251|35=8|34=93|49=DMA_HUB|56=FIXCLIENT1|52=20240103-09:43:17.907|11=HS_17042748445|37=FXtmFIDfH|198=EQ8Mp15c979|54=2|40=2|59=0|17=2024010318|150=0|39=0|38=1844|151=1844|14=0|6=0|44=10|60=20240103-09:41:13.947|22=4|48=US3390411052|207=XETR|15=EUR|55=[N/A]|10=240|
2024-01-03 10:43:36.813 [50] [FixSender] (DEBUG) Sending 8=FIX.4.4|9=57|35=0|49=FIXCLIENT1|56=DMA_HUB|34=85|52=20240103-09:43:36|10=050|
2024-01-03 10:43:49.910 [51] [FixSender] (DEBUG) Sending 8=FIX.4.4|9=80|35=1|49=FIXCLIENT1|56=DMA_HUB|34=86|52=20240103-09:43:49|112=HeartBtExt Timeout|10=232|
2024-01-03 10:44:19.911 [50] [FixSender] (DEBUG) Sending 8=FIX.4.4|9=57|35=0|49=FIXCLIENT1|56=DMA_HUB|34=87|52=20240103-09:44:19|10=054|
2024-01-03 10:44:21.915 [49] [FixSender] (INFO) physical cnx finished Connection reset by peer
2024-01-03 10:44:21.915 [49] [FixSender] (WARNING) Disconnected
2024-01-03 10:54:06.465 [54] [FixSender] (INFO) try to connect to : localhost port :12345
2024-01-03 10:54:06.467 [54] [FixSender] (INFO) physical cnx initiated
2024-01-03 10:54:06.469 [54] [FixSender] (DEBUG) Sending 8=FIX.4.4|9=87|35=A|49=FIXCLIENT1|56=DMA_HUB|34=88|52=20240103-09:54:06|98=0|108=30|95=9|96=null/null|10=152|
2024-01-03 10:54:06.473 [54] [FixSender] (DEBUG) Receiving 8=FIX.4.4|9=73|35=A|34=97|49=DMA_HUB|56=FIXCLIENT1|52=20240103-09:54:06.469|108=30|98=0|10=045|
2024-01-03 10:54:06.473 [54] [FixSender] (WARNING) The Fix connection is open...
2024-01-03 10:54:06.476 [54] [FixSender] (DEBUG) Sending 8=FIX.4.4|9=67|35=2|49=FIXCLIENT1|56=DMA_HUB|34=89|52=20240103-09:54:06|7=94|16=0|10=239|
2024-01-03 10:54:06.478 [54] [FixSender] (DEBUG) Receiving 8=FIX.4.4|9=104|35=4|34=94|49=DMA_HUB|56=FIXCLIENT1|52=20240103-09:54:06.478|43=Y|122=20240103-09:54:06.477|36=96|123=Y|10=120|
2024-01-03 10:54:06.478 [54] [FixSender] (DEBUG) Receiving 8=FIX.4.4|9=341|35=8|34=96|49=DMA_HUB|56=FIXCLIENT1|52=20240103-09:54:06.478|43=Y|122=20240103-09:53:36.114|11=HS_17042748445|37=FXtmFIDfH|198=EQ8Mp15c979|54=2|32=1844|31=69|17=2024010319|527=AFQ8Mp3|150=F|39=2|38=1844|151=0|14=1844|6=69|44=10|60=20240103-09:41:13.947|22=4|48=US3390411052|207=XETR|15=EUR|55=[N/A]|453=1|448=strmrepl|447=D|452=17|40=2|59=0|10=111|
2024-01-03 10:54:06.478 [54] [FixSender] (DEBUG) Receiving 8=FIX.4.4|9=104|35=4|34=97|49=DMA_HUB|56=FIXCLIENT1|52=20240103-09:54:06.478|43=Y|122=20240103-09:54:06.478|36=98|123=Y|10=126|
2024-01-03 10:54:07.848 [57] [FixSender] (DEBUG) Sending 8=FIX.4.4|9=197|35=D|49=FIXCLIENT1|56=DMA_HUB|34=90|52=20240103-09:54:07|21=1|11=HS_17042756476|38=2962|55=E:07G@XETR|54=2|60=20240103-09:54:07|40=2|59=0|44=197.111|48=US3390411052|22=4|15=EUR|207=XETR|1=bram_123|10=103|
2024-01-03 10:54:07.855 [54] [FixSender] (DEBUG) Receiving 8=FIX.4.4|9=240|35=8|34=98|49=DMA_HUB|56=FIXCLIENT1|52=20240103-09:54:07.849|11=HS_17042756476|37=FXumFIDfH|54=2|40=2|59=0|17=2024010320|150=A|39=A|38=2962|151=2962|14=0|6=0|44=197.111|60=20240103-09:54:07.000|22=4|48=US3390411052|207=XETR|15=EUR|55=[N/A]|10=051|
2024-01-03 10:54:32.499 [54] [FixSender] (DEBUG) Receiving 8=FIX.4.4|9=236|35=8|34=99|49=DMA_HUB|56=FIXCLIENT1|52=20240103-09:54:32.498|11=HS_17042756476|37=FXumFIDfH|54=2|40=2|59=0|17=2024010321|150=A|39=A|38=2962|151=2962|14=0|6=0|44=197|60=20240103-09:54:07.000|22=4|48=US3390411052|207=XETR|15=EUR|55=[N/A]|10=119|
2024-01-03 10:54:32.500 [54] [FixSender] (DEBUG) Receiving 8=FIX.4.4|9=253|35=8|34=100|49=DMA_HUB|56=FIXCLIENT1|52=20240103-09:54:32.500|11=HS_17042756476|37=FXumFIDfH|198=EQ8Mp1b3136|54=2|40=2|59=0|17=2024010322|150=0|39=0|38=2962|151=2962|14=0|6=0|44=197|60=20240103-09:54:32.499|22=4|48=US3390411052|207=XETR|15=EUR|55=[N/A]|10=067|
2024-01-03 10:54:36.467 [54] [FixSender] (DEBUG) Receiving 8=FIX.4.4|9=62|35=0|34=101|49=DMA_HUB|56=FIXCLIENT1|52=20240103-09:54:36.467|10=036|
2024-01-03 10:54:37.848 [55] [FixSender] (DEBUG) Sending 8=FIX.4.4|9=57|35=0|49=FIXCLIENT1|56=DMA_HUB|34=91|52=20240103-09:54:37|10=050|
2024-01-03 10:55:06.410 [54] [FixSender] (DEBUG) Receiving 8=FIX.4.4|9=62|35=0|34=102|49=DMA_HUB|56=FIXCLIENT1|52=20240103-09:55:06.409|10=031|
2024-01-03 10:55:07.864 [55] [FixSender] (DEBUG) Sending 8=FIX.4.4|9=57|35=0|49=FIXCLIENT1|56=DMA_HUB|34=92|52=20240103-09:55:07|10=049|
2024-01-03 10:55:11.443 [58] [FixSender] (DEBUG) Sending 8=FIX.4.4|9=197|35=D|49=FIXCLIENT1|56=DMA_HUB|34=93|52=20240103-09:55:11|21=1|11=HS_17042757117|38=3105|55=E:07G@XETR|54=2|60=20240103-09:55:11|40=2|59=0|44=197.111|48=US3390411052|22=4|15=EUR|207=XETR|1=bram_123|10=081|
2024-01-03 10:55:11.446 [54] [FixSender] (DEBUG) Receiving 8=FIX.4.4|9=241|35=8|34=103|49=DMA_HUB|56=FIXCLIENT1|52=20240103-09:55:11.445|11=HS_17042757117|37=FXvmFIDfH|54=2|40=2|59=0|17=2024010323|150=A|39=A|38=3105|151=3105|14=0|6=0|44=197.111|60=20240103-09:55:11.000|22=4|48=US3390411052|207=XETR|15=EUR|55=[N/A]|10=048|
2024-01-03 10:55:27.213 [54] [FixSender] (DEBUG) Receiving 8=FIX.4.4|9=237|35=8|34=104|49=DMA_HUB|56=FIXCLIENT1|52=20240103-09:55:27.212|11=HS_17042757117|37=FXvmFIDfH|54=2|40=2|59=0|17=2024010324|150=A|39=A|38=3105|151=3105|14=0|6=0|44=100|60=20240103-09:55:11.000|22=4|48=US3390411052|207=XETR|15=EUR|55=[N/A]|10=101|
2024-01-03 10:55:27.215 [54] [FixSender] (DEBUG) Receiving 8=FIX.4.4|9=253|35=8|34=105|49=DMA_HUB|56=FIXCLIENT1|52=20240103-09:55:27.215|11=HS_17042757117|37=FXvmFIDfH|198=EQ8Mp1b9057|54=2|40=2|59=0|17=2024010325|150=0|39=0|38=3105|151=3105|14=0|6=0|44=100|60=20240103-09:55:27.214|22=4|48=US3390411052|207=XETR|15=EUR|55=[N/A]|10=039|
2024-01-03 10:55:36.359 [54] [FixSender] (DEBUG) Receiving 8=FIX.4.4|9=62|35=0|34=106|49=DMA_HUB|56=FIXCLIENT1|52=20240103-09:55:36.358|10=041|
2024-01-03 10:55:41.445 [55] [FixSender] (DEBUG) Sending 8=FIX.4.4|9=57|35=0|49=FIXCLIENT1|56=DMA_HUB|34=94|52=20240103-09:55:41|10=049|
2024-01-03 10:55:57.140 [59] [FixSender] (DEBUG) Sending 8=FIX.4.4|9=197|35=D|49=FIXCLIENT1|56=DMA_HUB|34=95|52=20240103-09:55:57|21=1|11=HS_17042757578|38=4689|55=E:07G@XETR|54=2|60=20240103-09:55:57|40=2|59=0|44=197.111|48=US3390411052|22=4|15=EUR|207=XETR|1=bram_123|10=132|
2024-01-03 10:55:57.151 [54] [FixSender] (DEBUG) Receiving 8=FIX.4.4|9=241|35=8|34=107|49=DMA_HUB|56=FIXCLIENT1|52=20240103-09:55:57.141|11=HS_17042757578|37=FXwmFIDfH|54=2|40=2|59=0|17=2024010326|150=A|39=A|38=4689|151=4689|14=0|6=0|44=197.111|60=20240103-09:55:57.000|22=4|48=US3390411052|207=XETR|15=EUR|55=[N/A]|10=116|
2024-01-03 10:56:06.322 [54] [FixSender] (DEBUG) Receiving 8=FIX.4.4|9=62|35=0|34=108|49=DMA_HUB|56=FIXCLIENT1|52=20240103-09:56:06.321|10=031|
2024-01-03 10:56:15.903 [54] [FixSender] (DEBUG) Receiving 8=FIX.4.4|9=237|35=8|34=109|49=DMA_HUB|56=FIXCLIENT1|52=20240103-09:56:15.903|11=HS_17042757578|37=FXwmFIDfH|54=2|40=2|59=0|17=2024010327|150=A|39=A|38=4689|151=4689|14=0|6=0|44=100|60=20240103-09:55:57.000|22=4|48=US3390411052|207=XETR|15=EUR|55=[N/A]|10=172|
2024-01-03 10:56:15.905 [54] [FixSender] (DEBUG) Receiving 8=FIX.4.4|9=253|35=8|34=110|49=DMA_HUB|56=FIXCLIENT1|52=20240103-09:56:15.904|11=HS_17042757578|37=FXwmFIDfH|198=EQ8Mp1be58e|54=2|40=2|59=0|17=2024010328|150=0|39=0|38=4689|151=4689|14=0|6=0|44=100|60=20240103-09:56:15.903|22=4|48=US3390411052|207=XETR|15=EUR|55=[N/A]|10=190|
2024-01-03 10:56:27.141 [55] [FixSender] (DEBUG) Sending 8=FIX.4.4|9=57|35=0|49=FIXCLIENT1|56=DMA_HUB|34=96|52=20240103-09:56:27|10=056|
2024-01-03 10:56:36.274 [54] [FixSender] (DEBUG) Receiving 8=FIX.4.4|9=62|35=0|34=111|49=DMA_HUB|56=FIXCLIENT1|52=20240103-09:56:36.274|10=035|
2024-01-03 10:56:41.229 [60] [FixSender] (DEBUG) Sending 8=FIX.4.4|9=197|35=D|49=FIXCLIENT1|56=DMA_HUB|34=97|52=20240103-09:56:41|21=1|11=HS_17042758019|38=4105|55=E:07G@XETR|54=2|60=20240103-09:56:41|40=2|59=0|44=197.111|48=US3390411052|22=4|15=EUR|207=XETR|1=bram_123|10=096|
2024-01-03 10:56:41.235 [54] [FixSender] (DEBUG) Receiving 8=FIX.4.4|9=241|35=8|34=112|49=DMA_HUB|56=FIXCLIENT1|52=20240103-09:56:41.230|11=HS_17042758019|37=FXxmFIDfH|54=2|40=2|59=0|17=2024010329|150=A|39=A|38=4105|151=4105|14=0|6=0|44=197.111|60=20240103-09:56:41.000|22=4|48=US3390411052|207=XETR|15=EUR|55=[N/A]|10=060|
2024-01-03 10:57:09.335 [54] [FixSender] (DEBUG) Receiving 8=FIX.4.4|9=62|35=0|34=113|49=DMA_HUB|56=FIXCLIENT1|52=20240103-09:57:09.334|10=035|
2024-01-03 10:57:09.336 [54] [FixSender] (DEBUG) Receiving 8=FIX.4.4|9=236|35=8|34=114|49=DMA_HUB|56=FIXCLIENT1|52=20240103-09:57:09.336|11=HS_17042758019|37=FXxmFIDfH|54=2|40=2|59=0|17=2024010330|150=A|39=A|38=4105|151=4105|14=0|6=0|44=12|60=20240103-09:56:41.000|22=4|48=US3390411052|207=XETR|15=EUR|55=[N/A]|10=071|
2024-01-03 10:57:09.339 [54] [FixSender] (DEBUG) Receiving 8=FIX.4.4|9=252|35=8|34=115|49=DMA_HUB|56=FIXCLIENT1|52=20240103-09:57:09.339|11=HS_17042758019|37=FXxmFIDfH|198=EQ8Mp1c4244|54=2|40=2|59=0|17=2024010331|150=0|39=0|38=4105|151=4105|14=0|6=0|44=12|60=20240103-09:57:09.337|22=4|48=US3390411052|207=XETR|15=EUR|55=[N/A]|10=007|
2024-01-03 10:57:09.341 [54] [FixSender] (DEBUG) Receiving 8=FIX.4.4|9=311|35=8|34=116|49=DMA_HUB|56=FIXCLIENT1|52=20240103-09:57:09.341|11=HS_17042758019|37=FXxmFIDfH|198=EQ8Mp1c4244|54=2|32=4105|31=62|17=2024010332|527=AFQ8Mp4|150=F|39=2|38=4105|151=0|14=4105|6=62|44=12|60=20240103-09:57:09.337|22=4|48=US3390411052|207=XETR|15=EUR|55=[N/A]|453=1|448=strmrepl|447=D|452=17|40=2|59=0|10=102|
2024-01-03 10:57:11.244 [55] [FixSender] (DEBUG) Sending 8=FIX.4.4|9=57|35=0|49=FIXCLIENT1|56=DMA_HUB|34=98|52=20240103-09:57:11|10=052|
2024-01-03 10:57:39.316 [54] [FixSender] (DEBUG) Receiving 8=FIX.4.4|9=62|35=0|34=117|49=DMA_HUB|56=FIXCLIENT1|52=20240103-09:57:39.316|10=042|
2024-01-03 10:57:41.254 [55] [FixSender] (DEBUG) Sending 8=FIX.4.4|9=57|35=0|49=FIXCLIENT1|56=DMA_HUB|34=99|52=20240103-09:57:41|10=056|
2024-01-03 10:58:06.209 [61] [FixSender] (DEBUG) Sending 8=FIX.4.4|9=199|35=D|49=FIXCLIENT1|56=DMA_HUB|34=100|52=20240103-09:58:06|21=1|11=HS_170427588610|38=2271|55=E:07G@XETR|54=2|60=20240103-09:58:06|40=2|59=0|44=197.111|48=US3390411052|22=4|15=EUR|207=XETR|1=bram_123|10=192|
2024-01-03 10:58:06.210 [54] [FixSender] (DEBUG) Receiving 8=FIX.4.4|9=242|35=8|34=118|49=DMA_HUB|56=FIXCLIENT1|52=20240103-09:58:06.210|11=HS_170427588610|37=FXymFIDfH|54=2|40=2|59=0|17=2024010333|150=A|39=A|38=2271|151=2271|14=0|6=0|44=197.111|60=20240103-09:58:06.000|22=4|48=US3390411052|207=XETR|15=EUR|55=[N/A]|10=124|
2024-01-03 10:58:09.258 [54] [FixSender] (DEBUG) Receiving 8=FIX.4.4|9=62|35=0|34=119|49=DMA_HUB|56=FIXCLIENT1|52=20240103-09:58:09.257|10=046|
2024-01-03 10:58:29.220 [54] [FixSender] (DEBUG) Receiving 8=FIX.4.4|9=238|35=8|34=120|49=DMA_HUB|56=FIXCLIENT1|52=20240103-09:58:29.220|11=HS_170427588610|37=FXymFIDfH|54=2|40=2|59=0|17=2024010334|150=A|39=A|38=2271|151=2271|14=0|6=0|44=100|60=20240103-09:58:06.000|22=4|48=US3390411052|207=XETR|15=EUR|55=[N/A]|10=176|
2024-01-03 10:58:29.223 [54] [FixSender] (DEBUG) Receiving 8=FIX.4.4|9=254|35=8|34=121|49=DMA_HUB|56=FIXCLIENT1|52=20240103-09:58:29.222|11=HS_170427588610|37=FXymFIDfH|198=EQ8Mp1cccf8|54=2|40=2|59=0|17=2024010335|150=0|39=0|38=2271|151=2271|14=0|6=0|44=100|60=20240103-09:58:29.221|22=4|48=US3390411052|207=XETR|15=EUR|55=[N/A]|10=253|
2024-01-03 10:58:36.209 [55] [FixSender] (DEBUG) Sending 8=FIX.4.4|9=58|35=0|49=FIXCLIENT1|56=DMA_HUB|34=101|52=20240103-09:58:36|10=094|
2024-01-03 10:58:39.235 [54] [FixSender] (DEBUG) Receiving 8=FIX.4.4|9=62|35=0|34=122|49=DMA_HUB|56=FIXCLIENT1|52=20240103-09:58:39.212|10=034|
2024-01-03 10:58:47.106 [62] [FixSender] (DEBUG) Sending 8=FIX.4.4|9=199|35=D|49=FIXCLIENT1|56=DMA_HUB|34=102|52=20240103-09:58:47|21=1|11=HS_170427592711|38=1124|55=E:07G@XETR|54=2|60=20240103-09:58:47|40=2|59=0|44=197.111|48=US3390411052|22=4|15=EUR|207=XETR|1=bram_123|10=197|
2024-01-03 10:58:47.108 [54] [FixSender] (DEBUG) Receiving 8=FIX.4.4|9=242|35=8|34=123|49=DMA_HUB|56=FIXCLIENT1|52=20240103-09:58:47.107|11=HS_170427592711|37=FXzmFIDfH|54=2|40=2|59=0|17=2024010336|150=A|39=A|38=1124|151=1124|14=0|6=0|44=197.111|60=20240103-09:58:47.000|22=4|48=US3390411052|207=XETR|15=EUR|55=[N/A]|10=128|
2024-01-03 11:07:33.913 [1] [Fixsender] (INFO) (c) 2001-2011 ullink SAS. FixSender. Release 1.11.
2024-01-03 11:07:36.398 [29] [FixSender] (INFO) try to connect to : localhost port :12345
2024-01-03 11:07:36.412 [29] [FixSender] (INFO) physical cnx initiated
2024-01-03 11:07:36.423 [29] [FixSender] (DEBUG) Sending 8=FIX.4.4|9=88|35=A|49=FIXCLIENT1|56=DMA_HUB|34=103|52=20240103-10:07:36|98=0|108=30|95=9|96=null/null|10=182|
2024-01-03 11:07:36.429 [29] [FixSender] (DEBUG) Receiving 8=FIX.4.4|9=74|35=A|34=126|49=DMA_HUB|56=FIXCLIENT1|52=20240103-10:07:36.424|108=30|98=0|10=071|
2024-01-03 11:07:36.430 [29] [FixSender] (WARNING) The Fix connection is open...
2024-01-03 11:07:36.432 [29] [FixSender] (DEBUG) Sending 8=FIX.4.4|9=69|35=2|49=FIXCLIENT1|56=DMA_HUB|34=104|52=20240103-10:07:36|7=124|16=0|10=056|
2024-01-03 11:07:36.434 [29] [FixSender] (DEBUG) Receiving 8=FIX.4.4|9=269|35=8|34=124|49=DMA_HUB|56=FIXCLIENT1|52=20240103-10:07:36.434|43=Y|122=20240103-09:59:21.652|11=HS_170427592711|37=FXzmFIDfH|54=2|40=2|59=0|17=2024010337|150=A|39=A|38=1124|151=1124|14=0|6=0|44=100|60=20240103-09:58:47.000|22=4|48=US3390411052|207=XETR|15=EUR|55=[N/A]|10=176|
2024-01-03 11:07:36.434 [29] [FixSender] (DEBUG) Receiving 8=FIX.4.4|9=285|35=8|34=125|49=DMA_HUB|56=FIXCLIENT1|52=20240103-10:07:36.434|43=Y|122=20240103-10:07:20.355|11=HS_170427592711|37=FXzmFIDfH|198=EQ8Mp1d27d9|54=2|40=2|59=0|17=2024010338|150=0|39=0|38=1124|151=1124|14=0|6=0|44=100|60=20240103-09:59:21.653|22=4|48=US3390411052|207=XETR|15=EUR|55=[N/A]|10=139|
2024-01-03 11:07:36.435 [29] [FixSender] (DEBUG) Receiving 8=FIX.4.4|9=106|35=4|34=126|49=DMA_HUB|56=FIXCLIENT1|52=20240103-10:07:36.434|43=Y|122=20240103-10:07:36.434|36=127|123=Y|10=180|
2024-01-03 11:07:37.975 [32] [FixSender] (DEBUG) Sending 8=FIX.4.4|9=197|35=D|49=FIXCLIENT1|56=DMA_HUB|34=105|52=20240103-10:07:37|21=1|11=HS_17042764570|38=836|55=E:07G@XETR|54=2|60=20240103-10:07:37|40=2|59=0|44=197.111|48=US3390411052|22=4|15=EUR|207=XETR|1=bram_123|10=078|
2024-01-03 11:07:37.978 [29] [FixSender] (DEBUG) Receiving 8=FIX.4.4|9=239|35=8|34=127|49=DMA_HUB|56=FIXCLIENT1|52=20240103-10:07:37.976|11=HS_17042764570|37=FX0nFIDfH|54=2|40=2|59=0|17=2024010339|150=A|39=A|38=836|151=836|14=0|6=0|44=197.111|60=20240103-10:07:37.000|22=4|48=US3390411052|207=XETR|15=EUR|55=[N/A]|10=179|
2024-01-03 11:08:06.403 [29] [FixSender] (DEBUG) Receiving 8=FIX.4.4|9=62|35=0|34=128|49=DMA_HUB|56=FIXCLIENT1|52=20240103-10:08:06.403|10=023|
2024-01-03 11:08:07.979 [30] [FixSender] (DEBUG) Sending 8=FIX.4.4|9=58|35=0|49=FIXCLIENT1|56=DMA_HUB|34=106|52=20240103-10:08:07|10=084|
2024-01-03 11:08:37.981 [30] [FixSender] (DEBUG) Sending 8=FIX.4.4|9=58|35=0|49=FIXCLIENT1|56=DMA_HUB|34=107|52=20240103-10:08:37|10=088|
2024-01-03 11:08:38.404 [31] [FixSender] (DEBUG) Sending 8=FIX.4.4|9=81|35=1|49=FIXCLIENT1|56=DMA_HUB|34=108|52=20240103-10:08:38|112=HeartBtExt Timeout|10=011|
2024-01-03 11:08:41.016 [29] [FixSender] (DEBUG) Receiving 8=FIX.4.4|9=62|35=0|34=129|49=DMA_HUB|56=FIXCLIENT1|52=20240103-10:08:41.015|10=022|
2024-01-03 11:08:41.017 [29] [FixSender] (DEBUG) Receiving 8=FIX.4.4|9=85|35=0|34=130|49=DMA_HUB|56=FIXCLIENT1|52=20240103-10:08:41.016|112=HeartBtExt Timeout|10=200|
2024-01-03 11:09:08.404 [30] [FixSender] (DEBUG) Sending 8=FIX.4.4|9=58|35=0|49=FIXCLIENT1|56=DMA_HUB|34=109|52=20240103-10:09:08|10=089|
2024-01-03 11:09:13.022 [31] [FixSender] (DEBUG) Sending 8=FIX.4.4|9=81|35=1|49=FIXCLIENT1|56=DMA_HUB|34=110|52=20240103-10:09:13|112=HeartBtExt Timeout|10=254|
2024-01-03 11:09:16.553 [29] [FixSender] (DEBUG) Receiving 8=FIX.4.4|9=62|35=0|34=131|49=DMA_HUB|56=FIXCLIENT1|52=20240103-10:09:16.552|10=024|
2024-01-03 11:09:16.553 [29] [FixSender] (DEBUG) Receiving 8=FIX.4.4|9=85|35=0|34=132|49=DMA_HUB|56=FIXCLIENT1|52=20240103-10:09:16.552|112=HeartBtExt Timeout|10=210|
2024-01-03 11:09:16.556 [29] [FixSender] (DEBUG) Receiving 8=FIX.4.4|9=235|35=8|34=133|49=DMA_HUB|56=FIXCLIENT1|52=20240103-10:09:16.555|11=HS_17042764570|37=FX0nFIDfH|54=2|40=2|59=0|17=2024010340|150=A|39=A|38=836|151=836|14=0|6=0|44=100|60=20240103-10:07:37.000|22=4|48=US3390411052|207=XETR|15=EUR|55=[N/A]|10=203|
2024-01-03 11:09:16.557 [29] [FixSender] (DEBUG) Receiving 8=FIX.4.4|9=251|35=8|34=134|49=DMA_HUB|56=FIXCLIENT1|52=20240103-10:09:16.557|11=HS_17042764570|37=FX0nFIDfH|198=EQ8Mp21301c|54=2|40=2|59=0|17=2024010341|150=0|39=0|38=836|151=836|14=0|6=0|44=100|60=20240103-10:09:16.556|22=4|48=US3390411052|207=XETR|15=EUR|55=[N/A]|10=127|
2024-01-03 11:09:43.024 [30] [FixSender] (DEBUG) Sending 8=FIX.4.4|9=58|35=0|49=FIXCLIENT1|56=DMA_HUB|34=111|52=20240103-10:09:43|10=081|
2024-01-03 11:09:46.496 [29] [FixSender] (DEBUG) Receiving 8=FIX.4.4|9=62|35=0|34=135|49=DMA_HUB|56=FIXCLIENT1|52=20240103-10:09:46.495|10=037|
2024-01-03 11:09:47.486 [33] [FixSender] (DEBUG) Sending 8=FIX.4.4|9=198|35=D|49=FIXCLIENT1|56=DMA_HUB|34=112|52=20240103-10:09:47|21=1|11=HS_17042765871|38=4048|55=E:07G@XETR|54=2|60=20240103-10:09:47|40=2|59=0|44=197.111|48=US3390411052|22=4|15=EUR|207=XETR|1=bram_123|10=135|
2024-01-03 11:09:47.488 [29] [FixSender] (DEBUG) Receiving 8=FIX.4.4|9=241|35=8|34=136|49=DMA_HUB|56=FIXCLIENT1|52=20240103-10:09:47.487|11=HS_17042765871|37=FX1nFIDfH|54=2|40=2|59=0|17=2024010342|150=A|39=A|38=4048|151=4048|14=0|6=0|44=197.111|60=20240103-10:09:47.000|22=4|48=US3390411052|207=XETR|15=EUR|55=[N/A]|10=013|
2024-01-03 11:10:17.219 [29] [FixSender] (DEBUG) Receiving 8=FIX.4.4|9=62|35=0|34=137|49=DMA_HUB|56=FIXCLIENT1|52=20240103-10:10:17.218|10=022|
2024-01-03 11:10:17.221 [29] [FixSender] (DEBUG) Receiving 8=FIX.4.4|9=235|35=8|34=138|49=DMA_HUB|56=FIXCLIENT1|52=20240103-10:10:17.220|11=HS_17042765871|37=FX1nFIDfH|54=2|40=2|59=0|17=2024010343|150=A|39=A|38=4048|151=4048|14=0|6=0|44=5|60=20240103-10:09:47.000|22=4|48=US3390411052|207=XETR|15=EUR|55=[N/A]|10=204|
2024-01-03 11:10:17.223 [29] [FixSender] (DEBUG) Receiving 8=FIX.4.4|9=251|35=8|34=139|49=DMA_HUB|56=FIXCLIENT1|52=20240103-10:10:17.223|11=HS_17042765871|37=FX1nFIDfH|198=EQ8Mp2198d3|54=2|40=2|59=0|17=2024010344|150=0|39=0|38=4048|151=4048|14=0|6=0|44=5|60=20240103-10:10:17.222|22=4|48=US3390411052|207=XETR|15=EUR|55=[N/A]|10=126|
2024-01-03 11:10:17.225 [29] [FixSender] (DEBUG) Receiving 8=FIX.4.4|9=314|35=8|34=140|49=DMA_HUB|56=FIXCLIENT1|52=20240103-10:10:17.224|11=HS_17042765871|37=FX1nFIDfH|198=EQ8Mp2198d3|54=2|32=4048|31=54.5|17=2024010345|527=AFQ8Mp5|150=F|39=2|38=4048|151=0|14=4048|6=54.5|44=5|60=20240103-10:10:17.222|22=4|48=US3390411052|207=XETR|15=EUR|55=[N/A]|453=1|448=strmrepl|447=D|452=17|40=2|59=0|10=175|
2024-01-03 11:10:17.487 [30] [FixSender] (DEBUG) Sending 8=FIX.4.4|9=58|35=0|49=FIXCLIENT1|56=DMA_HUB|34=113|52=20240103-10:10:17|10=076|
2024-01-03 11:10:47.174 [29] [FixSender] (DEBUG) Receiving 8=FIX.4.4|9=62|35=0|34=141|49=DMA_HUB|56=FIXCLIENT1|52=20240103-10:10:47.174|10=021|
2024-01-03 11:10:47.490 [30] [FixSender] (DEBUG) Sending 8=FIX.4.4|9=58|35=0|49=FIXCLIENT1|56=DMA_HUB|34=114|52=20240103-10:10:47|10=080|
2024-01-03 11:10:56.790 [34] [FixSender] (DEBUG) Sending 8=FIX.4.4|9=197|35=D|49=FIXCLIENT1|56=DMA_HUB|34=115|52=20240103-10:10:56|21=1|11=HS_17042766562|38=218|55=E:07G@XETR|54=2|60=20240103-10:10:56|40=2|59=0|44=197.111|48=US3390411052|22=4|15=EUR|207=XETR|1=bram_123|10=066|
2024-01-03 11:10:56.791 [29] [FixSender] (DEBUG) Receiving 8=FIX.4.4|9=239|35=8|34=142|49=DMA_HUB|56=FIXCLIENT1|52=20240103-10:10:56.791|11=HS_17042766562|37=FX2nFIDfH|54=2|40=2|59=0|17=2024010346|150=A|39=A|38=218|151=218|14=0|6=0|44=197.111|60=20240103-10:10:56.000|22=4|48=US3390411052|207=XETR|15=EUR|55=[N/A]|10=152|
2024-01-03 11:11:09.307 [29] [FixSender] (DEBUG) Receiving 8=FIX.4.4|9=234|35=8|34=143|49=DMA_HUB|56=FIXCLIENT1|52=20240103-10:11:09.306|11=HS_17042766562|37=FX2nFIDfH|54=2|40=2|59=0|17=2024010347|150=A|39=A|38=218|151=218|14=0|6=0|44=11|60=20240103-10:10:56.000|22=4|48=US3390411052|207=XETR|15=EUR|55=[N/A]|10=140|
2024-01-03 11:11:18.377 [29] [FixSender] (DEBUG) Receiving 8=FIX.4.4|9=62|35=0|34=144|49=DMA_HUB|56=FIXCLIENT1|52=20240103-10:11:18.376|10=027|
2024-01-03 11:11:26.791 [30] [FixSender] (DEBUG) Sending 8=FIX.4.4|9=58|35=0|49=FIXCLIENT1|56=DMA_HUB|34=116|52=20240103-10:11:26|10=080|
2024-01-03 11:11:50.378 [31] [FixSender] (DEBUG) Sending 8=FIX.4.4|9=81|35=1|49=FIXCLIENT1|56=DMA_HUB|34=117|52=20240103-10:11:50|112=HeartBtExt Timeout|10=255|
2024-01-03 11:11:56.895 [29] [FixSender] (DEBUG) Receiving 8=FIX.4.4|9=62|35=0|34=145|49=DMA_HUB|56=FIXCLIENT1|52=20240103-10:11:56.893|10=034|
2024-01-03 11:11:56.895 [29] [FixSender] (DEBUG) Receiving 8=FIX.4.4|9=85|35=0|34=146|49=DMA_HUB|56=FIXCLIENT1|52=20240103-10:11:56.894|112=HeartBtExt Timeout|10=221|
2024-01-03 11:12:20.379 [30] [FixSender] (DEBUG) Sending 8=FIX.4.4|9=58|35=0|49=FIXCLIENT1|56=DMA_HUB|34=118|52=20240103-10:12:20|10=077|
2024-01-03 11:12:28.896 [31] [FixSender] (DEBUG) Sending 8=FIX.4.4|9=81|35=1|49=FIXCLIENT1|56=DMA_HUB|34=119|52=20240103-10:12:28|112=HeartBtExt Timeout|10=007|
2024-01-03 11:12:58.897 [30] [FixSender] (DEBUG) Sending 8=FIX.4.4|9=58|35=0|49=FIXCLIENT1|56=DMA_HUB|34=120|52=20240103-10:12:58|10=081|
2024-01-03 11:13:00.597 [29] [FixSender] (DEBUG) Receiving 8=FIX.4.4|9=62|35=0|34=147|49=DMA_HUB|56=FIXCLIENT1|52=20240103-10:13:00.596|10=027|
2024-01-03 11:13:00.597 [29] [FixSender] (DEBUG) Receiving 8=FIX.4.4|9=85|35=0|34=148|49=DMA_HUB|56=FIXCLIENT1|52=20240103-10:13:00.597|112=HeartBtExt Timeout|10=214|
2024-01-03 11:13:02.654 [29] [FixSender] (DEBUG) Receiving 8=FIX.4.4|9=250|35=8|34=149|49=DMA_HUB|56=FIXCLIENT1|52=20240103-10:13:02.652|11=HS_17042766562|37=FX2nFIDfH|198=EQ8Mp21f2f7|54=2|40=2|59=0|17=2024010348|150=0|39=0|38=218|151=218|14=0|6=0|44=11|60=20240103-10:11:09.307|22=4|48=US3390411052|207=XETR|15=EUR|55=[N/A]|10=122|
2024-01-03 11:13:28.923 [30] [FixSender] (DEBUG) Sending 8=FIX.4.4|9=58|35=0|49=FIXCLIENT1|56=DMA_HUB|34=121|52=20240103-10:13:28|10=080|
2024-01-03 11:13:34.658 [31] [FixSender] (DEBUG) Sending 8=FIX.4.4|9=81|35=1|49=FIXCLIENT1|56=DMA_HUB|34=122|52=20240103-10:13:34|112=HeartBtExt Timeout|10=255|
2024-01-03 11:14:04.659 [30] [FixSender] (DEBUG) Sending 8=FIX.4.4|9=58|35=0|49=FIXCLIENT1|56=DMA_HUB|34=123|52=20240103-10:14:04|10=077|
2024-01-03 11:14:06.675 [29] [FixSender] (INFO) physical cnx finished Connection reset by peer
2024-01-03 11:14:06.676 [29] [FixSender] (WARNING) Disconnected
2024-01-03 11:23:48.701 [35] [FixSender] (INFO) try to connect to : localhost port :12345
2024-01-03 11:23:48.702 [35] [FixSender] (INFO) physical cnx initiated
2024-01-03 11:23:48.706 [35] [FixSender] (DEBUG) Sending 8=FIX.4.4|9=88|35=A|49=FIXCLIENT1|56=DMA_HUB|34=124|52=20240103-10:23:48|98=0|108=30|95=9|96=null/null|10=186|
2024-01-03 11:23:48.708 [35] [FixSender] (DEBUG) Receiving 8=FIX.4.4|9=74|35=A|34=153|49=DMA_HUB|56=FIXCLIENT1|52=20240103-10:23:48.707|108=30|98=0|10=076|
2024-01-03 11:23:48.708 [35] [FixSender] (WARNING) The Fix connection is open...
2024-01-03 11:23:48.711 [35] [FixSender] (DEBUG) Sending 8=FIX.4.4|9=69|35=2|49=FIXCLIENT1|56=DMA_HUB|34=125|52=20240103-10:23:48|7=150|16=0|10=059|
2024-01-03 11:23:48.712 [35] [FixSender] (DEBUG) Receiving 8=FIX.4.4|9=106|35=4|34=150|49=DMA_HUB|56=FIXCLIENT1|52=20240103-10:23:48.712|43=Y|122=20240103-10:23:48.712|36=152|123=Y|10=175|
2024-01-03 11:23:48.713 [35] [FixSender] (DEBUG) Receiving 8=FIX.4.4|9=339|35=8|34=152|49=DMA_HUB|56=FIXCLIENT1|52=20240103-10:23:48.712|43=Y|122=20240103-10:19:50.829|11=HS_17042766562|37=FX2nFIDfH|198=EQ8Mp21f2f7|54=2|32=218|31=54|17=2024010349|527=AFQ8Mp6|150=F|39=2|38=218|151=0|14=218|6=54|44=11|60=20240103-10:11:09.307|22=4|48=US3390411052|207=XETR|15=EUR|55=[N/A]|453=1|448=strmrepl|447=D|452=17|40=2|59=0|10=193|
2024-01-03 11:23:48.713 [35] [FixSender] (DEBUG) Receiving 8=FIX.4.4|9=106|35=4|34=153|49=DMA_HUB|56=FIXCLIENT1|52=20240103-10:23:48.712|43=Y|122=20240103-10:23:48.712|36=154|123=Y|10=180|
2024-01-03 11:23:49.419 [38] [FixSender] (DEBUG) Sending 8=FIX.4.4|9=198|35=D|49=FIXCLIENT1|56=DMA_HUB|34=126|52=20240103-10:23:49|21=1|11=HS_17042774293|38=3845|55=E:07G@XETR|54=2|60=20240103-10:23:49|40=2|59=0|44=197.111|48=US3390411052|22=4|15=EUR|207=XETR|1=bram_123|10=138|
2024-01-03 11:23:49.421 [35] [FixSender] (DEBUG) Receiving 8=FIX.4.4|9=241|35=8|34=154|49=DMA_HUB|56=FIXCLIENT1|52=20240103-10:23:49.420|11=HS_17042774293|37=FX3nFIDfH|54=2|40=2|59=0|17=2024010350|150=A|39=A|38=3845|151=3845|14=0|6=0|44=197.111|60=20240103-10:23:49.000|22=4|48=US3390411052|207=XETR|15=EUR|55=[N/A]|10=003|
2024-01-03 11:24:18.689 [35] [FixSender] (DEBUG) Receiving 8=FIX.4.4|9=62|35=0|34=155|49=DMA_HUB|56=FIXCLIENT1|52=20240103-10:24:18.688|10=039|
2024-01-03 11:24:19.427 [36] [FixSender] (DEBUG) Sending 8=FIX.4.4|9=58|35=0|49=FIXCLIENT1|56=DMA_HUB|34=127|52=20240103-10:24:19|10=088|
2024-01-03 11:24:48.652 [35] [FixSender] (DEBUG) Receiving 8=FIX.4.4|9=62|35=0|34=156|49=DMA_HUB|56=FIXCLIENT1|52=20240103-10:24:48.651|10=033|
2024-01-03 11:24:49.436 [36] [FixSender] (DEBUG) Sending 8=FIX.4.4|9=58|35=0|49=FIXCLIENT1|56=DMA_HUB|34=128|52=20240103-10:24:49|10=092|
2024-01-03 11:25:18.606 [35] [FixSender] (DEBUG) Receiving 8=FIX.4.4|9=62|35=0|34=157|49=DMA_HUB|56=FIXCLIENT1|52=20240103-10:25:18.606|10=032|
2024-01-03 11:25:19.450 [36] [FixSender] (DEBUG) Sending 8=FIX.4.4|9=58|35=0|49=FIXCLIENT1|56=DMA_HUB|34=129|52=20240103-10:25:19|10=091|
2024-01-03 11:25:48.620 [35] [FixSender] (DEBUG) Receiving 8=FIX.4.4|9=62|35=0|34=158|49=DMA_HUB|56=FIXCLIENT1|52=20240103-10:25:48.620|10=032|
2024-01-03 11:25:49.464 [36] [FixSender] (DEBUG) Sending 8=FIX.4.4|9=58|35=0|49=FIXCLIENT1|56=DMA_HUB|34=130|52=20240103-10:25:49|10=086|
2024-01-03 11:26:18.572 [35] [FixSender] (DEBUG) Receiving 8=FIX.4.4|9=62|35=0|34=159|49=DMA_HUB|56=FIXCLIENT1|52=20240103-10:26:18.572|10=037|
2024-01-03 11:26:19.480 [36] [FixSender] (DEBUG) Sending 8=FIX.4.4|9=58|35=0|49=FIXCLIENT1|56=DMA_HUB|34=131|52=20240103-10:26:19|10=085|
2024-01-03 11:26:48.588 [35] [FixSender] (DEBUG) Receiving 8=FIX.4.4|9=62|35=0|34=160|49=DMA_HUB|56=FIXCLIENT1|52=20240103-10:26:48.587|10=038|
2024-01-03 11:26:49.492 [36] [FixSender] (DEBUG) Sending 8=FIX.4.4|9=58|35=0|49=FIXCLIENT1|56=DMA_HUB|34=132|52=20240103-10:26:49|10=089|
2024-01-03 11:27:18.528 [35] [FixSender] (DEBUG) Receiving 8=FIX.4.4|9=62|35=0|34=161|49=DMA_HUB|56=FIXCLIENT1|52=20240103-10:27:18.527|10=031|
2024-01-03 11:27:19.506 [36] [FixSender] (DEBUG) Sending 8=FIX.4.4|9=58|35=0|49=FIXCLIENT1|56=DMA_HUB|34=133|52=20240103-10:27:19|10=088|
2024-01-03 11:27:48.494 [35] [FixSender] (DEBUG) Receiving 8=FIX.4.4|9=62|35=0|34=162|49=DMA_HUB|56=FIXCLIENT1|52=20240103-10:27:48.493|10=037|
2024-01-03 11:27:49.518 [36] [FixSender] (DEBUG) Sending 8=FIX.4.4|9=58|35=0|49=FIXCLIENT1|56=DMA_HUB|34=134|52=20240103-10:27:49|10=092|
2024-01-03 11:28:18.432 [35] [FixSender] (DEBUG) Receiving 8=FIX.4.4|9=62|35=0|34=163|49=DMA_HUB|56=FIXCLIENT1|52=20240103-10:28:18.431|10=028|
2024-01-03 11:28:19.532 [36] [FixSender] (DEBUG) Sending 8=FIX.4.4|9=58|35=0|49=FIXCLIENT1|56=DMA_HUB|34=135|52=20240103-10:28:19|10=091|
2024-01-03 11:28:34.174 [39] [FixSender] (DEBUG) Sending 8=FIX.4.4|9=197|35=D|49=FIXCLIENT1|56=DMA_HUB|34=136|52=20240103-10:28:34|21=1|11=HS_17042777144|38=206|55=E:07G@XETR|54=2|60=20240103-10:28:34|40=2|59=0|44=197.111|48=US3390411052|22=4|15=EUR|207=XETR|1=bram_123|10=074|
2024-01-03 11:28:34.176 [35] [FixSender] (DEBUG) Receiving 8=FIX.4.4|9=239|35=8|34=164|49=DMA_HUB|56=FIXCLIENT1|52=20240103-10:28:34.175|11=HS_17042777144|37=FX4nFIDfH|54=2|40=2|59=0|17=2024010351|150=A|39=A|38=206|151=206|14=0|6=0|44=197.111|60=20240103-10:28:34.000|22=4|48=US3390411052|207=XETR|15=EUR|55=[N/A]|10=152|
2024-01-03 11:28:48.390 [35] [FixSender] (DEBUG) Receiving 8=FIX.4.4|9=62|35=0|34=165|49=DMA_HUB|56=FIXCLIENT1|52=20240103-10:28:48.389|10=045|
2024-01-03 11:28:48.530 [35] [FixSender] (DEBUG) Receiving 8=FIX.4.4|9=234|35=8|34=166|49=DMA_HUB|56=FIXCLIENT1|52=20240103-10:28:48.529|11=HS_17042777144|37=FX4nFIDfH|54=2|40=2|59=0|17=2024010352|150=A|39=A|38=206|151=206|14=0|6=0|44=10|60=20240103-10:28:34.000|22=4|48=US3390411052|207=XETR|15=EUR|55=[N/A]|10=157|
2024-01-03 11:28:48.533 [35] [FixSender] (DEBUG) Receiving 8=FIX.4.4|9=250|35=8|34=167|49=DMA_HUB|56=FIXCLIENT1|52=20240103-10:28:48.532|11=HS_17042777144|37=FX4nFIDfH|198=EQ8Mp291f2a|54=2|40=2|59=0|17=2024010353|150=0|39=0|38=206|151=206|14=0|6=0|44=10|60=20240103-10:28:48.531|22=4|48=US3390411052|207=XETR|15=EUR|55=[N/A]|10=131|
2024-01-03 11:28:48.537 [35] [FixSender] (DEBUG) Receiving 8=FIX.4.4|9=312|35=8|34=168|49=DMA_HUB|56=FIXCLIENT1|52=20240103-10:28:48.536|11=HS_17042777144|37=FX4nFIDfH|198=EQ8Mp291f2a|54=2|32=206|31=48.6|17=2024010354|527=AFQ8Mp7|150=F|39=2|38=206|151=0|14=206|6=48.6|44=10|60=20240103-10:28:48.531|22=4|48=US3390411052|207=XETR|15=EUR|55=[N/A]|453=1|448=strmrepl|447=D|452=17|40=2|59=0|10=145|
2024-01-03 11:29:04.175 [36] [FixSender] (DEBUG) Sending 8=FIX.4.4|9=58|35=0|49=FIXCLIENT1|56=DMA_HUB|34=137|52=20240103-10:29:04|10=088|
2024-01-03 11:29:18.338 [35] [FixSender] (DEBUG) Receiving 8=FIX.4.4|9=62|35=0|34=169|49=DMA_HUB|56=FIXCLIENT1|52=20240103-10:29:18.337|10=040|
2024-01-03 11:29:34.177 [36] [FixSender] (DEBUG) Sending 8=FIX.4.4|9=58|35=0|49=FIXCLIENT1|56=DMA_HUB|34=138|52=20240103-10:29:34|10=092|
2024-01-03 11:29:48.301 [35] [FixSender] (DEBUG) Receiving 8=FIX.4.4|9=62|35=0|34=170|49=DMA_HUB|56=FIXCLIENT1|52=20240103-10:29:48.300|10=025|
2024-01-03 11:30:04.189 [36] [FixSender] (DEBUG) Sending 8=FIX.4.4|9=58|35=0|49=FIXCLIENT1|56=DMA_HUB|34=139|52=20240103-10:30:04|10=082|
2024-01-03 11:30:18.253 [35] [FixSender] (DEBUG) Receiving 8=FIX.4.4|9=62|35=0|34=171|49=DMA_HUB|56=FIXCLIENT1|52=20240103-10:30:18.252|10=021|
2024-01-03 11:30:34.201 [36] [FixSender] (DEBUG) Sending 8=FIX.4.4|9=58|35=0|49=FIXCLIENT1|56=DMA_HUB|34=140|52=20240103-10:30:34|10=077|
2024-01-03 11:30:48.198 [35] [FixSender] (DEBUG) Receiving 8=FIX.4.4|9=62|35=0|34=172|49=DMA_HUB|56=FIXCLIENT1|52=20240103-10:30:48.198|10=034|
2024-01-03 11:31:04.209 [36] [FixSender] (DEBUG) Sending 8=FIX.4.4|9=58|35=0|49=FIXCLIENT1|56=DMA_HUB|34=141|52=20240103-10:31:04|10=076|
2024-01-03 11:31:18.150 [35] [FixSender] (DEBUG) Receiving 8=FIX.4.4|9=62|35=0|34=173|49=DMA_HUB|56=FIXCLIENT1|52=20240103-10:31:18.149|10=029|
2024-01-03 11:31:34.210 [36] [FixSender] (DEBUG) Sending 8=FIX.4.4|9=58|35=0|49=FIXCLIENT1|56=DMA_HUB|34=142|52=20240103-10:31:34|10=080|
2024-01-03 11:31:48.106 [35] [FixSender] (DEBUG) Receiving 8=FIX.4.4|9=62|35=0|34=174|49=DMA_HUB|56=FIXCLIENT1|52=20240103-10:31:48.105|10=025|
2024-01-03 11:32:04.212 [36] [FixSender] (DEBUG) Sending 8=FIX.4.4|9=58|35=0|49=FIXCLIENT1|56=DMA_HUB|34=143|52=20240103-10:32:04|10=079|
2024-01-03 11:32:18.064 [35] [FixSender] (DEBUG) Receiving 8=FIX.4.4|9=62|35=0|34=175|49=DMA_HUB|56=FIXCLIENT1|52=20240103-10:32:18.058|10=031|
2024-01-03 11:32:34.225 [36] [FixSender] (DEBUG) Sending 8=FIX.4.4|9=58|35=0|49=FIXCLIENT1|56=DMA_HUB|34=144|52=20240103-10:32:34|10=083|
2024-01-03 11:32:48.007 [35] [FixSender] (DEBUG) Receiving 8=FIX.4.4|9=62|35=0|34=176|49=DMA_HUB|56=FIXCLIENT1|52=20240103-10:32:48.007|10=029|
2024-01-03 11:32:48.339 [35] [FixSender] (DEBUG) Receiving 8=FIX.4.4|9=236|35=8|34=177|49=DMA_HUB|56=FIXCLIENT1|52=20240103-10:32:48.338|11=HS_17042774293|37=FX3nFIDfH|54=2|40=2|59=0|17=2024010355|150=A|39=A|38=3845|151=3845|14=0|6=0|44=10|60=20240103-10:23:49.000|22=4|48=US3390411052|207=XETR|15=EUR|55=[N/A]|10=023|
2024-01-03 11:32:48.344 [35] [FixSender] (DEBUG) Receiving 8=FIX.4.4|9=252|35=8|34=178|49=DMA_HUB|56=FIXCLIENT1|52=20240103-10:32:48.341|11=HS_17042774293|37=FX3nFIDfH|198=EQ8Mp2abfd4|54=2|40=2|59=0|17=2024010356|150=0|39=0|38=3845|151=3845|14=0|6=0|44=10|60=20240103-10:32:48.339|22=4|48=US3390411052|207=XETR|15=EUR|55=[N/A]|10=091|
2024-01-03 11:32:48.346 [35] [FixSender] (DEBUG) Receiving 8=FIX.4.4|9=315|35=8|34=179|49=DMA_HUB|56=FIXCLIENT1|52=20240103-10:32:48.345|11=HS_17042774293|37=FX3nFIDfH|198=EQ8Mp2abfd4|54=2|32=3845|31=47.4|17=2024010357|527=AFQ8Mp8|150=F|39=2|38=3845|151=0|14=3845|6=47.4|44=10|60=20240103-10:32:48.339|22=4|48=US3390411052|207=XETR|15=EUR|55=[N/A]|453=1|448=strmrepl|447=D|452=17|40=2|59=0|10=161|
2024-01-03 11:33:04.232 [36] [FixSender] (DEBUG) Sending 8=FIX.4.4|9=58|35=0|49=FIXCLIENT1|56=DMA_HUB|34=145|52=20240103-10:33:04|10=082|
2024-01-03 11:33:07.882 [40] [FixSender] (DEBUG) Sending 8=FIX.4.4|9=198|35=D|49=FIXCLIENT1|56=DMA_HUB|34=146|52=20240103-10:33:07|21=1|11=HS_17042779875|38=4437|55=E:07G@XETR|54=2|60=20240103-10:33:07|40=2|59=0|44=197.111|48=US3390411052|22=4|15=EUR|207=XETR|1=bram_123|10=139|
2024-01-03 11:33:07.884 [35] [FixSender] (DEBUG) Receiving 8=FIX.4.4|9=241|35=8|34=180|49=DMA_HUB|56=FIXCLIENT1|52=20240103-10:33:07.883|11=HS_17042779875|37=FX5nFIDfH|54=2|40=2|59=0|17=2024010358|150=A|39=A|38=4437|151=4437|14=0|6=0|44=197.111|60=20240103-10:33:07.000|22=4|48=US3390411052|207=XETR|15=EUR|55=[N/A]|10=022|
2024-01-03 11:33:25.770 [35] [FixSender] (DEBUG) Receiving 8=FIX.4.4|9=62|35=0|34=181|49=DMA_HUB|56=FIXCLIENT1|52=20240103-10:33:25.769|10=036|
2024-01-03 11:33:37.907 [36] [FixSender] (DEBUG) Sending 8=FIX.4.4|9=58|35=0|49=FIXCLIENT1|56=DMA_HUB|34=147|52=20240103-10:33:37|10=090|
2024-01-03 11:33:55.720 [35] [FixSender] (DEBUG) Receiving 8=FIX.4.4|9=62|35=0|34=182|49=DMA_HUB|56=FIXCLIENT1|52=20240103-10:33:55.720|10=027|
2024-01-03 11:34:07.918 [36] [FixSender] (DEBUG) Sending 8=FIX.4.4|9=58|35=0|49=FIXCLIENT1|56=DMA_HUB|34=148|52=20240103-10:34:07|10=089|
2024-01-03 11:34:21.070 [35] [FixSender] (DEBUG) Receiving 8=FIX.4.4|9=236|35=8|34=183|49=DMA_HUB|56=FIXCLIENT1|52=20240103-10:34:21.069|11=HS_17042779875|37=FX5nFIDfH|54=2|40=2|59=0|17=2024010359|150=A|39=A|38=4437|151=4437|14=0|6=0|44=10|60=20240103-10:33:07.000|22=4|48=US3390411052|207=XETR|15=EUR|55=[N/A]|10=022|
2024-01-03 11:34:26.867 [35] [FixSender] (DEBUG) Receiving 8=FIX.4.4|9=62|35=0|34=184|49=DMA_HUB|56=FIXCLIENT1|52=20240103-10:34:26.866|10=039|
2024-01-03 11:34:37.932 [36] [FixSender] (DEBUG) Sending 8=FIX.4.4|9=58|35=0|49=FIXCLIENT1|56=DMA_HUB|34=149|52=20240103-10:34:37|10=093|
2024-01-03 11:34:52.787 [35] [FixSender] (DEBUG) Receiving 8=FIX.4.4|9=252|35=8|34=185|49=DMA_HUB|56=FIXCLIENT1|52=20240103-10:34:52.785|11=HS_17042779875|37=FX5nFIDfH|198=EQ8Mp2b6119|54=2|40=2|59=0|17=2024010360|150=0|39=0|38=4437|151=4437|14=0|6=0|44=10|60=20240103-10:34:21.070|22=4|48=US3390411052|207=XETR|15=EUR|55=[N/A]|10=201|
2024-01-03 11:34:52.788 [35] [FixSender] (DEBUG) Receiving 8=FIX.4.4|9=315|35=8|34=186|49=DMA_HUB|56=FIXCLIENT1|52=20240103-10:34:52.788|11=HS_17042779875|37=FX5nFIDfH|198=EQ8Mp2b6119|54=2|32=4437|31=47.6|17=2024010361|527=AFQ8Mp9|150=F|39=2|38=4437|151=0|14=4437|6=47.6|44=10|60=20240103-10:34:21.070|22=4|48=US3390411052|207=XETR|15=EUR|55=[N/A]|453=1|448=strmrepl|447=D|452=17|40=2|59=0|10=017|
2024-01-03 11:34:56.840 [35] [FixSender] (DEBUG) Receiving 8=FIX.4.4|9=62|35=0|34=187|49=DMA_HUB|56=FIXCLIENT1|52=20240103-10:34:56.840|10=037|
2024-01-03 11:35:07.941 [36] [FixSender] (DEBUG) Sending 8=FIX.4.4|9=58|35=0|49=FIXCLIENT1|56=DMA_HUB|34=150|52=20240103-10:35:07|10=083|
2024-01-03 11:35:26.796 [35] [FixSender] (DEBUG) Receiving 8=FIX.4.4|9=62|35=0|34=188|49=DMA_HUB|56=FIXCLIENT1|52=20240103-10:35:26.796|10=046|
2024-01-03 11:35:37.950 [36] [FixSender] (DEBUG) Sending 8=FIX.4.4|9=58|35=0|49=FIXCLIENT1|56=DMA_HUB|34=151|52=20240103-10:35:37|10=087|
2024-01-03 11:35:56.746 [35] [FixSender] (DEBUG) Receiving 8=FIX.4.4|9=62|35=0|34=189|49=DMA_HUB|56=FIXCLIENT1|52=20240103-10:35:56.745|10=044|
2024-01-03 11:36:07.959 [36] [FixSender] (DEBUG) Sending 8=FIX.4.4|9=58|35=0|49=FIXCLIENT1|56=DMA_HUB|34=152|52=20240103-10:36:07|10=086|
2024-01-03 11:36:26.701 [35] [FixSender] (DEBUG) Receiving 8=FIX.4.4|9=62|35=0|34=190|49=DMA_HUB|56=FIXCLIENT1|52=20240103-10:36:26.700|10=025|
2024-01-03 11:36:37.961 [36] [FixSender] (DEBUG) Sending 8=FIX.4.4|9=58|35=0|49=FIXCLIENT1|56=DMA_HUB|34=153|52=20240103-10:36:37|10=090|
2024-01-03 11:36:56.647 [35] [FixSender] (DEBUG) Receiving 8=FIX.4.4|9=62|35=0|34=191|49=DMA_HUB|56=FIXCLIENT1|52=20240103-10:36:56.647|10=039|
2024-01-03 11:37:07.961 [36] [FixSender] (DEBUG) Sending 8=FIX.4.4|9=58|35=0|49=FIXCLIENT1|56=DMA_HUB|34=154|52=20240103-10:37:07|10=089|
2024-01-03 11:37:26.596 [35] [FixSender] (DEBUG) Receiving 8=FIX.4.4|9=62|35=0|34=192|49=DMA_HUB|56=FIXCLIENT1|52=20240103-10:37:26.596|10=041|
2024-01-03 11:37:37.973 [36] [FixSender] (DEBUG) Sending 8=FIX.4.4|9=58|35=0|49=FIXCLIENT1|56=DMA_HUB|34=155|52=20240103-10:37:37|10=093|
2024-01-03 11:37:56.556 [35] [FixSender] (DEBUG) Receiving 8=FIX.4.4|9=62|35=0|34=193|49=DMA_HUB|56=FIXCLIENT1|52=20240103-10:37:56.554|10=039|
2024-01-03 11:38:07.985 [36] [FixSender] (DEBUG) Sending 8=FIX.4.4|9=58|35=0|49=FIXCLIENT1|56=DMA_HUB|34=156|52=20240103-10:38:07|10=092|
2024-01-03 11:38:26.499 [35] [FixSender] (DEBUG) Receiving 8=FIX.4.4|9=62|35=0|34=194|49=DMA_HUB|56=FIXCLIENT1|52=20240103-10:38:26.499|10=046|
2024-01-03 11:38:37.993 [36] [FixSender] (DEBUG) Sending 8=FIX.4.4|9=58|35=0|49=FIXCLIENT1|56=DMA_HUB|34=157|52=20240103-10:38:37|10=096|
2024-01-03 11:38:56.455 [35] [FixSender] (DEBUG) Receiving 8=FIX.4.4|9=62|35=0|34=195|49=DMA_HUB|56=FIXCLIENT1|52=20240103-10:38:56.455|10=042|
2024-01-03 11:39:08.008 [36] [FixSender] (DEBUG) Sending 8=FIX.4.4|9=58|35=0|49=FIXCLIENT1|56=DMA_HUB|34=158|52=20240103-10:39:08|10=096|
2024-01-03 11:39:26.402 [35] [FixSender] (DEBUG) Receiving 8=FIX.4.4|9=62|35=0|34=196|49=DMA_HUB|56=FIXCLIENT1|52=20240103-10:39:26.402|10=033|
2024-01-03 11:39:38.009 [36] [FixSender] (DEBUG) Sending 8=FIX.4.4|9=58|35=0|49=FIXCLIENT1|56=DMA_HUB|34=159|52=20240103-10:39:38|10=100|
2024-01-03 11:39:56.354 [35] [FixSender] (DEBUG) Receiving 8=FIX.4.4|9=62|35=0|34=197|49=DMA_HUB|56=FIXCLIENT1|52=20240103-10:39:56.354|10=043|
2024-01-03 11:40:08.020 [36] [FixSender] (DEBUG) Sending 8=FIX.4.4|9=58|35=0|49=FIXCLIENT1|56=DMA_HUB|34=160|52=20240103-10:40:08|10=081|
2024-01-03 11:40:26.318 [35] [FixSender] (DEBUG) Receiving 8=FIX.4.4|9=62|35=0|34=198|49=DMA_HUB|56=FIXCLIENT1|52=20240103-10:40:26.317|10=032|
2024-01-03 11:40:38.029 [36] [FixSender] (DEBUG) Sending 8=FIX.4.4|9=58|35=0|49=FIXCLIENT1|56=DMA_HUB|34=161|52=20240103-10:40:38|10=085|
2024-01-03 11:40:56.269 [35] [FixSender] (DEBUG) Receiving 8=FIX.4.4|9=62|35=0|34=199|49=DMA_HUB|56=FIXCLIENT1|52=20240103-10:40:56.268|10=041|
2024-01-03 11:41:08.045 [36] [FixSender] (DEBUG) Sending 8=FIX.4.4|9=58|35=0|49=FIXCLIENT1|56=DMA_HUB|34=162|52=20240103-10:41:08|10=084|
2024-01-03 11:41:26.208 [35] [FixSender] (DEBUG) Receiving 8=FIX.4.4|9=62|35=0|34=200|49=DMA_HUB|56=FIXCLIENT1|52=20240103-10:41:26.207|10=015|
2024-01-03 11:41:38.053 [36] [FixSender] (DEBUG) Sending 8=FIX.4.4|9=58|35=0|49=FIXCLIENT1|56=DMA_HUB|34=163|52=20240103-10:41:38|10=088|
2024-01-03 11:41:56.161 [35] [FixSender] (DEBUG) Receiving 8=FIX.4.4|9=62|35=0|34=201|49=DMA_HUB|56=FIXCLIENT1|52=20240103-10:41:56.160|10=017|
2024-01-03 11:42:08.066 [36] [FixSender] (DEBUG) Sending 8=FIX.4.4|9=58|35=0|49=FIXCLIENT1|56=DMA_HUB|34=164|52=20240103-10:42:08|10=087|
2024-01-03 11:42:26.123 [35] [FixSender] (DEBUG) Receiving 8=FIX.4.4|9=62|35=0|34=202|49=DMA_HUB|56=FIXCLIENT1|52=20240103-10:42:26.123|10=015|
2024-01-03 11:42:38.079 [36] [FixSender] (DEBUG) Sending 8=FIX.4.4|9=58|35=0|49=FIXCLIENT1|56=DMA_HUB|34=165|52=20240103-10:42:38|10=091|
2024-01-03 11:42:56.069 [35] [FixSender] (DEBUG) Receiving 8=FIX.4.4|9=62|35=0|34=203|49=DMA_HUB|56=FIXCLIENT1|52=20240103-10:42:56.066|10=025|
2024-01-03 11:43:08.090 [36] [FixSender] (DEBUG) Sending 8=FIX.4.4|9=58|35=0|49=FIXCLIENT1|56=DMA_HUB|34=166|52=20240103-10:43:08|10=090|
2024-01-03 11:43:26.025 [35] [FixSender] (DEBUG) Receiving 8=FIX.4.4|9=62|35=0|34=204|49=DMA_HUB|56=FIXCLIENT1|52=20240103-10:43:26.025|10=019|
2024-01-03 11:43:38.105 [36] [FixSender] (DEBUG) Sending 8=FIX.4.4|9=58|35=0|49=FIXCLIENT1|56=DMA_HUB|34=167|52=20240103-10:43:38|10=094|
2024-01-03 11:43:55.968 [35] [FixSender] (DEBUG) Receiving 8=FIX.4.4|9=62|35=0|34=205|49=DMA_HUB|56=FIXCLIENT1|52=20240103-10:43:55.968|10=038|
2024-01-03 11:44:08.111 [36] [FixSender] (DEBUG) Sending 8=FIX.4.4|9=58|35=0|49=FIXCLIENT1|56=DMA_HUB|34=168|52=20240103-10:44:08|10=093|
2024-01-03 11:44:25.926 [35] [FixSender] (DEBUG) Receiving 8=FIX.4.4|9=62|35=0|34=206|49=DMA_HUB|56=FIXCLIENT1|52=20240103-10:44:25.925|10=030|
2024-01-03 11:44:38.122 [36] [FixSender] (DEBUG) Sending 8=FIX.4.4|9=58|35=0|49=FIXCLIENT1|56=DMA_HUB|34=169|52=20240103-10:44:38|10=097|
2024-01-03 11:44:55.876 [35] [FixSender] (DEBUG) Receiving 8=FIX.4.4|9=62|35=0|34=207|49=DMA_HUB|56=FIXCLIENT1|52=20240103-10:44:55.876|10=039|
2024-01-03 11:45:08.134 [36] [FixSender] (DEBUG) Sending 8=FIX.4.4|9=58|35=0|49=FIXCLIENT1|56=DMA_HUB|34=170|52=20240103-10:45:08|10=087|
2024-01-03 11:45:25.823 [35] [FixSender] (DEBUG) Receiving 8=FIX.4.4|9=62|35=0|34=208|49=DMA_HUB|56=FIXCLIENT1|52=20240103-10:45:25.823|10=030|
2024-01-03 11:45:38.145 [36] [FixSender] (DEBUG) Sending 8=FIX.4.4|9=58|35=0|49=FIXCLIENT1|56=DMA_HUB|34=171|52=20240103-10:45:38|10=091|
2024-01-03 11:45:55.778 [35] [FixSender] (DEBUG) Receiving 8=FIX.4.4|9=62|35=0|34=209|49=DMA_HUB|56=FIXCLIENT1|52=20240103-10:45:55.775|10=040|
2024-01-03 11:46:08.148 [36] [FixSender] (DEBUG) Sending 8=FIX.4.4|9=58|35=0|49=FIXCLIENT1|56=DMA_HUB|34=172|52=20240103-10:46:08|10=090|
2024-01-03 11:46:25.736 [35] [FixSender] (DEBUG) Receiving 8=FIX.4.4|9=62|35=0|34=210|49=DMA_HUB|56=FIXCLIENT1|52=20240103-10:46:25.736|10=027|
2024-01-03 11:46:38.156 [36] [FixSender] (DEBUG) Sending 8=FIX.4.4|9=58|35=0|49=FIXCLIENT1|56=DMA_HUB|34=173|52=20240103-10:46:38|10=094|
2024-01-03 11:46:55.682 [35] [FixSender] (DEBUG) Receiving 8=FIX.4.4|9=62|35=0|34=211|49=DMA_HUB|56=FIXCLIENT1|52=20240103-10:46:55.681|10=030|
2024-01-03 11:47:08.158 [36] [FixSender] (DEBUG) Sending 8=FIX.4.4|9=58|35=0|49=FIXCLIENT1|56=DMA_HUB|34=174|52=20240103-10:47:08|10=093|
2024-01-03 11:47:25.642 [35] [FixSender] (DEBUG) Receiving 8=FIX.4.4|9=62|35=0|34=212|49=DMA_HUB|56=FIXCLIENT1|52=20240103-10:47:25.642|10=026|
2024-01-03 11:47:38.160 [36] [FixSender] (DEBUG) Sending 8=FIX.4.4|9=58|35=0|49=FIXCLIENT1|56=DMA_HUB|34=175|52=20240103-10:47:38|10=097|
2024-01-03 11:47:55.585 [35] [FixSender] (DEBUG) Receiving 8=FIX.4.4|9=62|35=0|34=213|49=DMA_HUB|56=FIXCLIENT1|52=20240103-10:47:55.585|10=036|
2024-01-03 11:48:08.176 [36] [FixSender] (DEBUG) Sending 8=FIX.4.4|9=58|35=0|49=FIXCLIENT1|56=DMA_HUB|34=176|52=20240103-10:48:08|10=096|
2024-01-03 11:48:25.545 [35] [FixSender] (DEBUG) Receiving 8=FIX.4.4|9=62|35=0|34=214|49=DMA_HUB|56=FIXCLIENT1|52=20240103-10:48:25.545|10=031|
2024-01-03 11:48:38.189 [36] [FixSender] (DEBUG) Sending 8=FIX.4.4|9=58|35=0|49=FIXCLIENT1|56=DMA_HUB|34=177|52=20240103-10:48:38|10=100|
2024-01-03 11:48:55.500 [35] [FixSender] (DEBUG) Receiving 8=FIX.4.4|9=62|35=0|34=215|49=DMA_HUB|56=FIXCLIENT1|52=20240103-10:48:55.500|10=026|
2024-01-03 11:49:08.193 [36] [FixSender] (DEBUG) Sending 8=FIX.4.4|9=58|35=0|49=FIXCLIENT1|56=DMA_HUB|34=178|52=20240103-10:49:08|10=099|
2024-01-03 11:49:25.442 [35] [FixSender] (DEBUG) Receiving 8=FIX.4.4|9=62|35=0|34=216|49=DMA_HUB|56=FIXCLIENT1|52=20240103-10:49:25.439|10=036|
2024-01-03 11:49:38.208 [36] [FixSender] (DEBUG) Sending 8=FIX.4.4|9=58|35=0|49=FIXCLIENT1|56=DMA_HUB|34=179|52=20240103-10:49:38|10=103|
2024-01-03 11:49:55.398 [35] [FixSender] (DEBUG) Receiving 8=FIX.4.4|9=62|35=0|34=217|49=DMA_HUB|56=FIXCLIENT1|52=20240103-10:49:55.397|10=043|
2024-01-03 11:50:08.214 [36] [FixSender] (DEBUG) Sending 8=FIX.4.4|9=58|35=0|49=FIXCLIENT1|56=DMA_HUB|34=180|52=20240103-10:50:08|10=084|
2024-01-03 11:50:25.347 [35] [FixSender] (DEBUG) Receiving 8=FIX.4.4|9=62|35=0|34=218|49=DMA_HUB|56=FIXCLIENT1|52=20240103-10:50:25.345|10=026|
2024-01-03 11:50:38.216 [36] [FixSender] (DEBUG) Sending 8=FIX.4.4|9=58|35=0|49=FIXCLIENT1|56=DMA_HUB|34=181|52=20240103-10:50:38|10=088|
2024-01-03 11:50:55.303 [35] [FixSender] (DEBUG) Receiving 8=FIX.4.4|9=62|35=0|34=219|49=DMA_HUB|56=FIXCLIENT1|52=20240103-10:50:55.303|10=024|
2024-01-03 11:51:08.220 [36] [FixSender] (DEBUG) Sending 8=FIX.4.4|9=58|35=0|49=FIXCLIENT1|56=DMA_HUB|34=182|52=20240103-10:51:08|10=087|
2024-01-03 11:51:25.246 [35] [FixSender] (DEBUG) Receiving 8=FIX.4.4|9=62|35=0|34=220|49=DMA_HUB|56=FIXCLIENT1|52=20240103-10:51:25.246|10=020|
2024-01-03 11:51:38.227 [36] [FixSender] (DEBUG) Sending 8=FIX.4.4|9=58|35=0|49=FIXCLIENT1|56=DMA_HUB|34=183|52=20240103-10:51:38|10=091|
2024-01-03 11:51:55.207 [35] [FixSender] (DEBUG) Receiving 8=FIX.4.4|9=62|35=0|34=221|49=DMA_HUB|56=FIXCLIENT1|52=20240103-10:51:55.198|10=030|
2024-01-03 11:52:08.229 [36] [FixSender] (DEBUG) Sending 8=FIX.4.4|9=58|35=0|49=FIXCLIENT1|56=DMA_HUB|34=184|52=20240103-10:52:08|10=090|
2024-01-03 11:52:25.165 [35] [FixSender] (DEBUG) Receiving 8=FIX.4.4|9=62|35=0|34=222|49=DMA_HUB|56=FIXCLIENT1|52=20240103-10:52:25.165|10=023|
2024-01-03 11:52:38.237 [36] [FixSender] (DEBUG) Sending 8=FIX.4.4|9=58|35=0|49=FIXCLIENT1|56=DMA_HUB|34=185|52=20240103-10:52:38|10=094|
2024-01-03 11:52:55.109 [35] [FixSender] (DEBUG) Receiving 8=FIX.4.4|9=62|35=0|34=223|49=DMA_HUB|56=FIXCLIENT1|52=20240103-10:52:55.106|10=022|
2024-01-03 11:53:08.249 [36] [FixSender] (DEBUG) Sending 8=FIX.4.4|9=58|35=0|49=FIXCLIENT1|56=DMA_HUB|34=186|52=20240103-10:53:08|10=093|
2024-01-03 11:53:25.062 [35] [FixSender] (DEBUG) Receiving 8=FIX.4.4|9=62|35=0|34=224|49=DMA_HUB|56=FIXCLIENT1|52=20240103-10:53:25.062|10=022|
2024-01-03 11:53:38.263 [36] [FixSender] (DEBUG) Sending 8=FIX.4.4|9=58|35=0|49=FIXCLIENT1|56=DMA_HUB|34=187|52=20240103-10:53:38|10=097|
2024-01-03 11:53:55.007 [35] [FixSender] (DEBUG) Receiving 8=FIX.4.4|9=62|35=0|34=225|49=DMA_HUB|56=FIXCLIENT1|52=20240103-10:53:55.006|10=024|
2024-01-03 11:54:08.281 [36] [FixSender] (DEBUG) Sending 8=FIX.4.4|9=58|35=0|49=FIXCLIENT1|56=DMA_HUB|34=188|52=20240103-10:54:08|10=096|
2024-01-03 11:54:24.965 [35] [FixSender] (DEBUG) Receiving 8=FIX.4.4|9=62|35=0|34=226|49=DMA_HUB|56=FIXCLIENT1|52=20240103-10:54:24.964|10=035|
2024-01-03 11:54:38.282 [36] [FixSender] (DEBUG) Sending 8=FIX.4.4|9=58|35=0|49=FIXCLIENT1|56=DMA_HUB|34=189|52=20240103-10:54:38|10=100|
2024-01-03 11:54:54.914 [35] [FixSender] (DEBUG) Receiving 8=FIX.4.4|9=62|35=0|34=227|49=DMA_HUB|56=FIXCLIENT1|52=20240103-10:54:54.914|10=034|
2024-01-03 11:55:08.300 [36] [FixSender] (DEBUG) Sending 8=FIX.4.4|9=58|35=0|49=FIXCLIENT1|56=DMA_HUB|34=190|52=20240103-10:55:08|10=090|
2024-01-03 11:55:24.878 [35] [FixSender] (DEBUG) Receiving 8=FIX.4.4|9=62|35=0|34=228|49=DMA_HUB|56=FIXCLIENT1|52=20240103-10:55:24.874|10=038|
2024-01-03 11:55:38.312 [36] [FixSender] (DEBUG) Sending 8=FIX.4.4|9=58|35=0|49=FIXCLIENT1|56=DMA_HUB|34=191|52=20240103-10:55:38|10=094|
2024-01-03 11:55:54.825 [35] [FixSender] (DEBUG) Receiving 8=FIX.4.4|9=62|35=0|34=229|49=DMA_HUB|56=FIXCLIENT1|52=20240103-10:55:54.823|10=036|
2024-01-03 11:56:08.319 [36] [FixSender] (DEBUG) Sending 8=FIX.4.4|9=58|35=0|49=FIXCLIENT1|56=DMA_HUB|34=192|52=20240103-10:56:08|10=093|
2024-01-03 11:56:24.779 [35] [FixSender] (DEBUG) Receiving 8=FIX.4.4|9=62|35=0|34=230|49=DMA_HUB|56=FIXCLIENT1|52=20240103-10:56:24.776|10=033|
2024-01-03 11:56:38.326 [36] [FixSender] (DEBUG) Sending 8=FIX.4.4|9=58|35=0|49=FIXCLIENT1|56=DMA_HUB|34=193|52=20240103-10:56:38|10=097|
2024-01-03 11:56:54.722 [35] [FixSender] (DEBUG) Receiving 8=FIX.4.4|9=62|35=0|34=231|49=DMA_HUB|56=FIXCLIENT1|52=20240103-10:56:54.722|10=028|
2024-01-03 11:57:08.333 [36] [FixSender] (DEBUG) Sending 8=FIX.4.4|9=58|35=0|49=FIXCLIENT1|56=DMA_HUB|34=194|52=20240103-10:57:08|10=096|
2024-01-03 11:57:24.680 [35] [FixSender] (DEBUG) Receiving 8=FIX.4.4|9=62|35=0|34=232|49=DMA_HUB|56=FIXCLIENT1|52=20240103-10:57:24.680|10=030|
2024-01-03 11:57:38.352 [36] [FixSender] (DEBUG) Sending 8=FIX.4.4|9=58|35=0|49=FIXCLIENT1|56=DMA_HUB|34=195|52=20240103-10:57:38|10=100|
2024-01-03 11:57:54.634 [35] [FixSender] (DEBUG) Receiving 8=FIX.4.4|9=62|35=0|34=233|49=DMA_HUB|56=FIXCLIENT1|52=20240103-10:57:54.634|10=033|
2024-01-03 11:58:08.355 [36] [FixSender] (DEBUG) Sending 8=FIX.4.4|9=58|35=0|49=FIXCLIENT1|56=DMA_HUB|34=196|52=20240103-10:58:08|10=099|
2024-01-03 11:58:24.587 [35] [FixSender] (DEBUG) Receiving 8=FIX.4.4|9=62|35=0|34=234|49=DMA_HUB|56=FIXCLIENT1|52=20240103-10:58:24.587|10=039|
2024-01-03 11:58:38.357 [36] [FixSender] (DEBUG) Sending 8=FIX.4.4|9=58|35=0|49=FIXCLIENT1|56=DMA_HUB|34=197|52=20240103-10:58:38|10=103|
2024-01-03 11:58:54.536 [35] [FixSender] (DEBUG) Receiving 8=FIX.4.4|9=62|35=0|34=235|49=DMA_HUB|56=FIXCLIENT1|52=20240103-10:58:54.536|10=037|
2024-01-03 11:59:08.358 [36] [FixSender] (DEBUG) Sending 8=FIX.4.4|9=58|35=0|49=FIXCLIENT1|56=DMA_HUB|34=198|52=20240103-10:59:08|10=102|
2024-01-03 11:59:24.482 [35] [FixSender] (DEBUG) Receiving 8=FIX.4.4|9=62|35=0|34=236|49=DMA_HUB|56=FIXCLIENT1|52=20240103-10:59:24.482|10=036|
2024-01-03 11:59:38.359 [36] [FixSender] (DEBUG) Sending 8=FIX.4.4|9=58|35=0|49=FIXCLIENT1|56=DMA_HUB|34=199|52=20240103-10:59:38|10=106|
2024-01-03 11:59:54.437 [35] [FixSender] (DEBUG) Receiving 8=FIX.4.4|9=62|35=0|34=237|49=DMA_HUB|56=FIXCLIENT1|52=20240103-10:59:54.437|10=040|
2024-01-03 12:00:08.361 [36] [FixSender] (DEBUG) Sending 8=FIX.4.4|9=58|35=0|49=FIXCLIENT1|56=DMA_HUB|34=200|52=20240103-11:00:08|10=073|
2024-01-03 12:00:24.396 [35] [FixSender] (DEBUG) Receiving 8=FIX.4.4|9=62|35=0|34=238|49=DMA_HUB|56=FIXCLIENT1|52=20240103-11:00:24.396|10=029|
2024-01-03 12:00:38.362 [36] [FixSender] (DEBUG) Sending 8=FIX.4.4|9=58|35=0|49=FIXCLIENT1|56=DMA_HUB|34=201|52=20240103-11:00:38|10=077|
2024-01-03 12:00:54.347 [35] [FixSender] (DEBUG) Receiving 8=FIX.4.4|9=62|35=0|34=239|49=DMA_HUB|56=FIXCLIENT1|52=20240103-11:00:54.347|10=029|
2024-01-03 12:01:08.366 [36] [FixSender] (DEBUG) Sending 8=FIX.4.4|9=58|35=0|49=FIXCLIENT1|56=DMA_HUB|34=202|52=20240103-11:01:08|10=076|
2024-01-03 12:01:24.292 [35] [FixSender] (DEBUG) Receiving 8=FIX.4.4|9=62|35=0|34=240|49=DMA_HUB|56=FIXCLIENT1|52=20240103-11:01:24.291|10=017|
2024-01-03 12:01:38.381 [36] [FixSender] (DEBUG) Sending 8=FIX.4.4|9=58|35=0|49=FIXCLIENT1|56=DMA_HUB|34=203|52=20240103-11:01:38|10=080|
2024-01-03 12:01:54.258 [35] [FixSender] (DEBUG) Receiving 8=FIX.4.4|9=62|35=0|34=241|49=DMA_HUB|56=FIXCLIENT1|52=20240103-11:01:54.254|10=020|
2024-01-03 12:02:08.388 [36] [FixSender] (DEBUG) Sending 8=FIX.4.4|9=58|35=0|49=FIXCLIENT1|56=DMA_HUB|34=204|52=20240103-11:02:08|10=079|
2024-01-03 12:02:24.255 [35] [FixSender] (DEBUG) Receiving 8=FIX.4.4|9=62|35=0|34=242|49=DMA_HUB|56=FIXCLIENT1|52=20240103-11:02:24.255|10=020|
2024-01-03 12:02:38.402 [36] [FixSender] (DEBUG) Sending 8=FIX.4.4|9=58|35=0|49=FIXCLIENT1|56=DMA_HUB|34=205|52=20240103-11:02:38|10=083|
2024-01-03 12:02:54.220 [35] [FixSender] (DEBUG) Receiving 8=FIX.4.4|9=62|35=0|34=243|49=DMA_HUB|56=FIXCLIENT1|52=20240103-11:02:54.220|10=016|
2024-01-03 12:03:08.413 [36] [FixSender] (DEBUG) Sending 8=FIX.4.4|9=58|35=0|49=FIXCLIENT1|56=DMA_HUB|34=206|52=20240103-11:03:08|10=082|
2024-01-03 12:03:24.273 [35] [FixSender] (DEBUG) Receiving 8=FIX.4.4|9=62|35=0|34=244|49=DMA_HUB|56=FIXCLIENT1|52=20240103-11:03:24.173|10=022|
2024-01-03 12:03:38.429 [36] [FixSender] (DEBUG) Sending 8=FIX.4.4|9=58|35=0|49=FIXCLIENT1|56=DMA_HUB|34=207|52=20240103-11:03:38|10=086|
2024-01-03 12:03:54.124 [35] [FixSender] (DEBUG) Receiving 8=FIX.4.4|9=62|35=0|34=245|49=DMA_HUB|56=FIXCLIENT1|52=20240103-11:03:54.122|10=020|
2024-01-03 12:04:08.433 [36] [FixSender] (DEBUG) Sending 8=FIX.4.4|9=58|35=0|49=FIXCLIENT1|56=DMA_HUB|34=208|52=20240103-11:04:08|10=085|
2024-01-03 12:04:24.075 [35] [FixSender] (DEBUG) Receiving 8=FIX.4.4|9=62|35=0|34=246|49=DMA_HUB|56=FIXCLIENT1|52=20240103-11:04:24.067|10=027|
2024-01-03 12:04:38.438 [36] [FixSender] (DEBUG) Sending 8=FIX.4.4|9=58|35=0|49=FIXCLIENT1|56=DMA_HUB|34=209|52=20240103-11:04:38|10=089|
2024-01-03 12:04:54.017 [35] [FixSender] (DEBUG) Receiving 8=FIX.4.4|9=62|35=0|34=247|49=DMA_HUB|56=FIXCLIENT1|52=20240103-11:04:54.016|10=025|
2024-01-03 12:05:08.441 [36] [FixSender] (DEBUG) Sending 8=FIX.4.4|9=58|35=0|49=FIXCLIENT1|56=DMA_HUB|34=210|52=20240103-11:05:08|10=079|
2024-01-03 12:05:23.971 [35] [FixSender] (DEBUG) Receiving 8=FIX.4.4|9=62|35=0|34=248|49=DMA_HUB|56=FIXCLIENT1|52=20240103-11:05:23.970|10=032|
2024-01-03 12:05:38.447 [36] [FixSender] (DEBUG) Sending 8=FIX.4.4|9=58|35=0|49=FIXCLIENT1|56=DMA_HUB|34=211|52=20240103-11:05:38|10=083|
2024-01-03 12:05:53.923 [35] [FixSender] (DEBUG) Receiving 8=FIX.4.4|9=62|35=0|34=249|49=DMA_HUB|56=FIXCLIENT1|52=20240103-11:05:53.923|10=034|
2024-01-03 12:06:08.457 [36] [FixSender] (DEBUG) Sending 8=FIX.4.4|9=58|35=0|49=FIXCLIENT1|56=DMA_HUB|34=212|52=20240103-11:06:08|10=082|
2024-01-03 12:06:23.873 [35] [FixSender] (DEBUG) Receiving 8=FIX.4.4|9=62|35=0|34=250|49=DMA_HUB|56=FIXCLIENT1|52=20240103-11:06:23.872|10=027|
2024-01-03 12:06:38.462 [36] [FixSender] (DEBUG) Sending 8=FIX.4.4|9=58|35=0|49=FIXCLIENT1|56=DMA_HUB|34=213|52=20240103-11:06:38|10=086|
2024-01-03 12:06:53.825 [35] [FixSender] (DEBUG) Receiving 8=FIX.4.4|9=62|35=0|34=251|49=DMA_HUB|56=FIXCLIENT1|52=20240103-11:06:53.825|10=029|
2024-01-03 12:07:08.487 [36] [FixSender] (DEBUG) Sending 8=FIX.4.4|9=58|35=0|49=FIXCLIENT1|56=DMA_HUB|34=214|52=20240103-11:07:08|10=085|
2024-01-03 12:07:23.775 [35] [FixSender] (DEBUG) Receiving 8=FIX.4.4|9=62|35=0|34=252|49=DMA_HUB|56=FIXCLIENT1|52=20240103-11:07:23.775|10=032|
2024-01-03 12:07:38.496 [36] [FixSender] (DEBUG) Sending 8=FIX.4.4|9=58|35=0|49=FIXCLIENT1|56=DMA_HUB|34=215|52=20240103-11:07:38|10=089|
2024-01-03 12:07:53.727 [35] [FixSender] (DEBUG) Receiving 8=FIX.4.4|9=62|35=0|34=253|49=DMA_HUB|56=FIXCLIENT1|52=20240103-11:07:53.727|10=033|
2024-01-03 12:08:08.511 [36] [FixSender] (DEBUG) Sending 8=FIX.4.4|9=58|35=0|49=FIXCLIENT1|56=DMA_HUB|34=216|52=20240103-11:08:08|10=088|
2024-01-03 12:08:23.691 [35] [FixSender] (DEBUG) Receiving 8=FIX.4.4|9=62|35=0|34=254|49=DMA_HUB|56=FIXCLIENT1|52=20240103-11:08:23.690|10=031|
2024-01-03 12:08:38.527 [36] [FixSender] (DEBUG) Sending 8=FIX.4.4|9=58|35=0|49=FIXCLIENT1|56=DMA_HUB|34=217|52=20240103-11:08:38|10=092|
2024-01-03 12:08:53.640 [35] [FixSender] (DEBUG) Receiving 8=FIX.4.4|9=62|35=0|34=255|49=DMA_HUB|56=FIXCLIENT1|52=20240103-11:08:53.639|10=038|
2024-01-03 12:09:08.532 [36] [FixSender] (DEBUG) Sending 8=FIX.4.4|9=58|35=0|49=FIXCLIENT1|56=DMA_HUB|34=218|52=20240103-11:09:08|10=091|
2024-01-03 12:09:23.586 [35] [FixSender] (DEBUG) Receiving 8=FIX.4.4|9=62|35=0|34=256|49=DMA_HUB|56=FIXCLIENT1|52=20240103-11:09:23.585|10=037|
2024-01-03 12:09:38.542 [36] [FixSender] (DEBUG) Sending 8=FIX.4.4|9=58|35=0|49=FIXCLIENT1|56=DMA_HUB|34=219|52=20240103-11:09:38|10=095|
2024-01-03 12:09:53.538 [35] [FixSender] (DEBUG) Receiving 8=FIX.4.4|9=62|35=0|34=257|49=DMA_HUB|56=FIXCLIENT1|52=20240103-11:09:53.537|10=038|
2024-01-03 12:10:08.557 [36] [FixSender] (DEBUG) Sending 8=FIX.4.4|9=58|35=0|49=FIXCLIENT1|56=DMA_HUB|34=220|52=20240103-11:10:08|10=076|
2024-01-03 12:10:23.500 [35] [FixSender] (DEBUG) Receiving 8=FIX.4.4|9=62|35=0|34=258|49=DMA_HUB|56=FIXCLIENT1|52=20240103-11:10:23.500|10=018|
2024-01-03 12:10:38.566 [36] [FixSender] (DEBUG) Sending 8=FIX.4.4|9=58|35=0|49=FIXCLIENT1|56=DMA_HUB|34=221|52=20240103-11:10:38|10=080|
2024-01-03 12:10:53.438 [35] [FixSender] (DEBUG) Receiving 8=FIX.4.4|9=62|35=0|34=259|49=DMA_HUB|56=FIXCLIENT1|52=20240103-11:10:53.438|10=032|
2024-01-03 12:11:08.577 [36] [FixSender] (DEBUG) Sending 8=FIX.4.4|9=58|35=0|49=FIXCLIENT1|56=DMA_HUB|34=222|52=20240103-11:11:08|10=079|
2024-01-03 12:11:23.397 [35] [FixSender] (DEBUG) Receiving 8=FIX.4.4|9=62|35=0|34=260|49=DMA_HUB|56=FIXCLIENT1|52=20240103-11:11:23.397|10=026|
2024-01-03 12:11:38.586 [36] [FixSender] (DEBUG) Sending 8=FIX.4.4|9=58|35=0|49=FIXCLIENT1|56=DMA_HUB|34=223|52=20240103-11:11:38|10=083|
2024-01-03 12:11:53.357 [35] [FixSender] (DEBUG) Receiving 8=FIX.4.4|9=62|35=0|34=261|49=DMA_HUB|56=FIXCLIENT1|52=20240103-11:11:53.350|10=019|
2024-01-03 12:12:08.595 [36] [FixSender] (DEBUG) Sending 8=FIX.4.4|9=58|35=0|49=FIXCLIENT1|56=DMA_HUB|34=224|52=20240103-11:12:08|10=082|
2024-01-03 12:12:23.305 [35] [FixSender] (DEBUG) Receiving 8=FIX.4.4|9=62|35=0|34=262|49=DMA_HUB|56=FIXCLIENT1|52=20240103-11:12:23.305|10=018|
2024-01-03 12:12:38.603 [36] [FixSender] (DEBUG) Sending 8=FIX.4.4|9=58|35=0|49=FIXCLIENT1|56=DMA_HUB|34=225|52=20240103-11:12:38|10=086|
2024-01-03 12:12:53.252 [35] [FixSender] (DEBUG) Receiving 8=FIX.4.4|9=62|35=0|34=263|49=DMA_HUB|56=FIXCLIENT1|52=20240103-11:12:53.251|10=022|
2024-01-03 12:13:08.610 [36] [FixSender] (DEBUG) Sending 8=FIX.4.4|9=58|35=0|49=FIXCLIENT1|56=DMA_HUB|34=226|52=20240103-11:13:08|10=085|
2024-01-03 12:13:23.210 [35] [FixSender] (DEBUG) Receiving 8=FIX.4.4|9=62|35=0|34=264|49=DMA_HUB|56=FIXCLIENT1|52=20240103-11:13:23.209|10=024|
2024-01-03 12:13:38.624 [36] [FixSender] (DEBUG) Sending 8=FIX.4.4|9=58|35=0|49=FIXCLIENT1|56=DMA_HUB|34=227|52=20240103-11:13:38|10=089|
2024-01-03 12:13:53.154 [35] [FixSender] (DEBUG) Receiving 8=FIX.4.4|9=62|35=0|34=265|49=DMA_HUB|56=FIXCLIENT1|52=20240103-11:13:53.152|10=025|
2024-01-03 12:14:08.626 [36] [FixSender] (DEBUG) Sending 8=FIX.4.4|9=58|35=0|49=FIXCLIENT1|56=DMA_HUB|34=228|52=20240103-11:14:08|10=088|
2024-01-03 12:14:23.114 [35] [FixSender] (DEBUG) Receiving 8=FIX.4.4|9=62|35=0|34=266|49=DMA_HUB|56=FIXCLIENT1|52=20240103-11:14:23.114|10=022|
2024-01-03 12:14:38.636 [36] [FixSender] (DEBUG) Sending 8=FIX.4.4|9=58|35=0|49=FIXCLIENT1|56=DMA_HUB|34=229|52=20240103-11:14:38|10=092|
2024-01-03 12:14:53.057 [35] [FixSender] (DEBUG) Receiving 8=FIX.4.4|9=62|35=0|34=267|49=DMA_HUB|56=FIXCLIENT1|52=20240103-11:14:53.057|10=032|
2024-01-03 12:15:08.650 [36] [FixSender] (DEBUG) Sending 8=FIX.4.4|9=58|35=0|49=FIXCLIENT1|56=DMA_HUB|34=230|52=20240103-11:15:08|10=082|
2024-01-03 12:15:23.007 [35] [FixSender] (DEBUG) Receiving 8=FIX.4.4|9=62|35=0|34=268|49=DMA_HUB|56=FIXCLIENT1|52=20240103-11:15:23.007|10=026|
2024-01-03 12:15:38.662 [36] [FixSender] (DEBUG) Sending 8=FIX.4.4|9=58|35=0|49=FIXCLIENT1|56=DMA_HUB|34=231|52=20240103-11:15:38|10=086|
2024-01-03 12:15:52.966 [35] [FixSender] (DEBUG) Receiving 8=FIX.4.4|9=62|35=0|34=269|49=DMA_HUB|56=FIXCLIENT1|52=20240103-11:15:52.966|10=043|
2024-01-03 12:16:08.676 [36] [FixSender] (DEBUG) Sending 8=FIX.4.4|9=58|35=0|49=FIXCLIENT1|56=DMA_HUB|34=232|52=20240103-11:16:08|10=085|
2024-01-03 12:16:22.918 [35] [FixSender] (DEBUG) Receiving 8=FIX.4.4|9=62|35=0|34=270|49=DMA_HUB|56=FIXCLIENT1|52=20240103-11:16:22.917|10=029|
2024-01-03 12:16:38.695 [36] [FixSender] (DEBUG) Sending 8=FIX.4.4|9=58|35=0|49=FIXCLIENT1|56=DMA_HUB|34=233|52=20240103-11:16:38|10=089|
2024-01-03 12:16:52.864 [35] [FixSender] (DEBUG) Receiving 8=FIX.4.4|9=62|35=0|34=271|49=DMA_HUB|56=FIXCLIENT1|52=20240103-11:16:52.863|10=033|
2024-01-03 12:17:08.700 [36] [FixSender] (DEBUG) Sending 8=FIX.4.4|9=58|35=0|49=FIXCLIENT1|56=DMA_HUB|34=234|52=20240103-11:17:08|10=088|
2024-01-03 12:17:22.817 [35] [FixSender] (DEBUG) Receiving 8=FIX.4.4|9=62|35=0|34=272|49=DMA_HUB|56=FIXCLIENT1|52=20240103-11:17:22.817|10=031|
2024-01-03 12:17:38.710 [36] [FixSender] (DEBUG) Sending 8=FIX.4.4|9=58|35=0|49=FIXCLIENT1|56=DMA_HUB|34=235|52=20240103-11:17:38|10=092|
2024-01-03 12:17:52.781 [35] [FixSender] (DEBUG) Receiving 8=FIX.4.4|9=62|35=0|34=273|49=DMA_HUB|56=FIXCLIENT1|52=20240103-11:17:52.781|10=035|
2024-01-03 12:18:08.714 [36] [FixSender] (DEBUG) Sending 8=FIX.4.4|9=58|35=0|49=FIXCLIENT1|56=DMA_HUB|34=236|52=20240103-11:18:08|10=091|
2024-01-03 12:18:22.731 [35] [FixSender] (DEBUG) Receiving 8=FIX.4.4|9=62|35=0|34=274|49=DMA_HUB|56=FIXCLIENT1|52=20240103-11:18:22.731|10=029|
2024-01-03 12:18:38.720 [36] [FixSender] (DEBUG) Sending 8=FIX.4.4|9=58|35=0|49=FIXCLIENT1|56=DMA_HUB|34=237|52=20240103-11:18:38|10=095|
2024-01-03 12:18:52.674 [35] [FixSender] (DEBUG) Receiving 8=FIX.4.4|9=62|35=0|34=275|49=DMA_HUB|56=FIXCLIENT1|52=20240103-11:18:52.674|10=039|
2024-01-03 12:19:08.734 [36] [FixSender] (DEBUG) Sending 8=FIX.4.4|9=58|35=0|49=FIXCLIENT1|56=DMA_HUB|34=238|52=20240103-11:19:08|10=094|
2024-01-03 12:19:22.627 [35] [FixSender] (DEBUG) Receiving 8=FIX.4.4|9=62|35=0|34=276|49=DMA_HUB|56=FIXCLIENT1|52=20240103-11:19:22.623|10=032|
2024-01-03 12:19:38.741 [36] [FixSender] (DEBUG) Sending 8=FIX.4.4|9=58|35=0|49=FIXCLIENT1|56=DMA_HUB|34=239|52=20240103-11:19:38|10=098|
2024-01-03 12:19:52.590 [35] [FixSender] (DEBUG) Receiving 8=FIX.4.4|9=62|35=0|34=277|49=DMA_HUB|56=FIXCLIENT1|52=20240103-11:19:52.587|10=045|
2024-01-03 12:20:08.754 [36] [FixSender] (DEBUG) Sending 8=FIX.4.4|9=58|35=0|49=FIXCLIENT1|56=DMA_HUB|34=240|52=20240103-11:20:08|10=079|
2024-01-03 12:20:22.534 [35] [FixSender] (DEBUG) Receiving 8=FIX.4.4|9=62|35=0|34=278|49=DMA_HUB|56=FIXCLIENT1|52=20240103-11:20:22.534|10=027|
2024-01-03 12:20:38.768 [36] [FixSender] (DEBUG) Sending 8=FIX.4.4|9=58|35=0|49=FIXCLIENT1|56=DMA_HUB|34=241|52=20240103-11:20:38|10=083|
2024-01-03 12:20:52.489 [35] [FixSender] (DEBUG) Receiving 8=FIX.4.4|9=62|35=0|34=279|49=DMA_HUB|56=FIXCLIENT1|52=20240103-11:20:52.489|10=040|
2024-01-03 12:21:08.786 [36] [FixSender] (DEBUG) Sending 8=FIX.4.4|9=58|35=0|49=FIXCLIENT1|56=DMA_HUB|34=242|52=20240103-11:21:08|10=082|
2024-01-03 12:21:22.446 [35] [FixSender] (DEBUG) Receiving 8=FIX.4.4|9=62|35=0|34=280|49=DMA_HUB|56=FIXCLIENT1|52=20240103-11:21:22.444|10=021|
2024-01-03 12:21:38.790 [36] [FixSender] (DEBUG) Sending 8=FIX.4.4|9=58|35=0|49=FIXCLIENT1|56=DMA_HUB|34=243|52=20240103-11:21:38|10=086|
2024-01-03 12:21:52.391 [35] [FixSender] (DEBUG) Receiving 8=FIX.4.4|9=62|35=0|34=281|49=DMA_HUB|56=FIXCLIENT1|52=20240103-11:21:52.391|10=026|
2024-01-03 12:22:08.802 [36] [FixSender] (DEBUG) Sending 8=FIX.4.4|9=58|35=0|49=FIXCLIENT1|56=DMA_HUB|34=244|52=20240103-11:22:08|10=085|
2024-01-03 12:22:22.346 [35] [FixSender] (DEBUG) Receiving 8=FIX.4.4|9=62|35=0|34=282|49=DMA_HUB|56=FIXCLIENT1|52=20240103-11:22:22.346|10=025|
2024-01-03 12:22:38.813 [36] [FixSender] (DEBUG) Sending 8=FIX.4.4|9=58|35=0|49=FIXCLIENT1|56=DMA_HUB|34=245|52=20240103-11:22:38|10=089|
2024-01-03 12:22:52.297 [35] [FixSender] (DEBUG) Receiving 8=FIX.4.4|9=62|35=0|34=283|49=DMA_HUB|56=FIXCLIENT1|52=20240103-11:22:52.293|10=030|
2024-01-03 12:23:08.825 [36] [FixSender] (DEBUG) Sending 8=FIX.4.4|9=58|35=0|49=FIXCLIENT1|56=DMA_HUB|34=246|52=20240103-11:23:08|10=088|
2024-01-03 12:23:22.248 [35] [FixSender] (DEBUG) Receiving 8=FIX.4.4|9=62|35=0|34=284|49=DMA_HUB|56=FIXCLIENT1|52=20240103-11:23:22.248|10=029|
2024-01-03 12:23:38.834 [36] [FixSender] (DEBUG) Sending 8=FIX.4.4|9=58|35=0|49=FIXCLIENT1|56=DMA_HUB|34=247|52=20240103-11:23:38|10=092|
2024-01-03 12:23:52.204 [35] [FixSender] (DEBUG) Receiving 8=FIX.4.4|9=62|35=0|34=285|49=DMA_HUB|56=FIXCLIENT1|52=20240103-11:23:52.204|10=025|
2024-01-03 12:24:08.839 [36] [FixSender] (DEBUG) Sending 8=FIX.4.4|9=58|35=0|49=FIXCLIENT1|56=DMA_HUB|34=248|52=20240103-11:24:08|10=091|
2024-01-03 12:24:22.154 [35] [FixSender] (DEBUG) Receiving 8=FIX.4.4|9=62|35=0|34=286|49=DMA_HUB|56=FIXCLIENT1|52=20240103-11:24:22.154|10=028|
2024-01-03 12:24:38.853 [36] [FixSender] (DEBUG) Sending 8=FIX.4.4|9=58|35=0|49=FIXCLIENT1|56=DMA_HUB|34=249|52=20240103-11:24:38|10=095|
2024-01-03 12:24:52.097 [35] [FixSender] (DEBUG) Receiving 8=FIX.4.4|9=62|35=0|34=287|49=DMA_HUB|56=FIXCLIENT1|52=20240103-11:24:52.096|10=037|
2024-01-03 12:25:08.859 [36] [FixSender] (DEBUG) Sending 8=FIX.4.4|9=58|35=0|49=FIXCLIENT1|56=DMA_HUB|34=250|52=20240103-11:25:08|10=085|
2024-01-03 12:25:22.059 [35] [FixSender] (DEBUG) Receiving 8=FIX.4.4|9=62|35=0|34=288|49=DMA_HUB|56=FIXCLIENT1|52=20240103-11:25:22.059|10=035|
2024-01-03 12:25:38.867 [36] [FixSender] (DEBUG) Sending 8=FIX.4.4|9=58|35=0|49=FIXCLIENT1|56=DMA_HUB|34=251|52=20240103-11:25:38|10=089|
2024-01-03 12:25:52.002 [35] [FixSender] (DEBUG) Receiving 8=FIX.4.4|9=62|35=0|34=289|49=DMA_HUB|56=FIXCLIENT1|52=20240103-11:25:52.002|10=027|
2024-01-03 12:26:08.872 [36] [FixSender] (DEBUG) Sending 8=FIX.4.4|9=58|35=0|49=FIXCLIENT1|56=DMA_HUB|34=252|52=20240103-11:26:08|10=088|
2024-01-03 12:26:21.960 [35] [FixSender] (DEBUG) Receiving 8=FIX.4.4|9=62|35=0|34=290|49=DMA_HUB|56=FIXCLIENT1|52=20240103-11:26:21.959|10=037|
2024-01-03 12:26:38.886 [36] [FixSender] (DEBUG) Sending 8=FIX.4.4|9=58|35=0|49=FIXCLIENT1|56=DMA_HUB|34=253|52=20240103-11:26:38|10=092|
2024-01-03 12:26:51.910 [35] [FixSender] (DEBUG) Receiving 8=FIX.4.4|9=62|35=0|34=291|49=DMA_HUB|56=FIXCLIENT1|52=20240103-11:26:51.910|10=028|
2024-01-03 12:27:08.897 [36] [FixSender] (DEBUG) Sending 8=FIX.4.4|9=58|35=0|49=FIXCLIENT1|56=DMA_HUB|34=254|52=20240103-11:27:08|10=091|
2024-01-03 12:27:21.855 [35] [FixSender] (DEBUG) Receiving 8=FIX.4.4|9=62|35=0|34=292|49=DMA_HUB|56=FIXCLIENT1|52=20240103-11:27:21.854|10=034|
2024-01-03 12:27:38.902 [36] [FixSender] (DEBUG) Sending 8=FIX.4.4|9=58|35=0|49=FIXCLIENT1|56=DMA_HUB|34=255|52=20240103-11:27:38|10=095|
2024-01-03 12:27:51.820 [35] [FixSender] (DEBUG) Receiving 8=FIX.4.4|9=62|35=0|34=293|49=DMA_HUB|56=FIXCLIENT1|52=20240103-11:27:51.820|10=031|
2024-01-03 12:28:08.905 [36] [FixSender] (DEBUG) Sending 8=FIX.4.4|9=58|35=0|49=FIXCLIENT1|56=DMA_HUB|34=256|52=20240103-11:28:08|10=094|
2024-01-03 12:28:21.758 [35] [FixSender] (DEBUG) Receiving 8=FIX.4.4|9=62|35=0|34=294|49=DMA_HUB|56=FIXCLIENT1|52=20240103-11:28:21.758|10=040|
2024-01-03 12:28:38.910 [36] [FixSender] (DEBUG) Sending 8=FIX.4.4|9=58|35=0|49=FIXCLIENT1|56=DMA_HUB|34=257|52=20240103-11:28:38|10=098|
2024-01-03 12:28:51.719 [35] [FixSender] (DEBUG) Receiving 8=FIX.4.4|9=62|35=0|34=295|49=DMA_HUB|56=FIXCLIENT1|52=20240103-11:28:51.718|10=040|
2024-01-03 12:29:08.924 [36] [FixSender] (DEBUG) Sending 8=FIX.4.4|9=58|35=0|49=FIXCLIENT1|56=DMA_HUB|34=258|52=20240103-11:29:08|10=097|
2024-01-03 12:29:21.671 [35] [FixSender] (DEBUG) Receiving 8=FIX.4.4|9=62|35=0|34=296|49=DMA_HUB|56=FIXCLIENT1|52=20240103-11:29:21.671|10=037|
2024-01-03 12:29:38.934 [36] [FixSender] (DEBUG) Sending 8=FIX.4.4|9=58|35=0|49=FIXCLIENT1|56=DMA_HUB|34=259|52=20240103-11:29:38|10=101|
2024-01-03 12:29:51.627 [35] [FixSender] (DEBUG) Receiving 8=FIX.4.4|9=62|35=0|34=297|49=DMA_HUB|56=FIXCLIENT1|52=20240103-11:29:51.627|10=042|
2024-01-03 12:30:08.940 [36] [FixSender] (DEBUG) Sending 8=FIX.4.4|9=58|35=0|49=FIXCLIENT1|56=DMA_HUB|34=260|52=20240103-11:30:08|10=082|
2024-01-03 12:30:21.581 [35] [FixSender] (DEBUG) Receiving 8=FIX.4.4|9=62|35=0|34=298|49=DMA_HUB|56=FIXCLIENT1|52=20240103-11:30:21.580|10=030|
2024-01-03 12:30:38.958 [36] [FixSender] (DEBUG) Sending 8=FIX.4.4|9=58|35=0|49=FIXCLIENT1|56=DMA_HUB|34=261|52=20240103-11:30:38|10=086|
2024-01-03 12:30:51.538 [35] [FixSender] (DEBUG) Receiving 8=FIX.4.4|9=62|35=0|34=299|49=DMA_HUB|56=FIXCLIENT1|52=20240103-11:30:51.534|10=033|
2024-01-03 12:31:08.964 [36] [FixSender] (DEBUG) Sending 8=FIX.4.4|9=58|35=0|49=FIXCLIENT1|56=DMA_HUB|34=262|52=20240103-11:31:08|10=085|
2024-01-03 12:31:21.542 [35] [FixSender] (DEBUG) Receiving 8=FIX.4.4|9=62|35=0|34=300|49=DMA_HUB|56=FIXCLIENT1|52=20240103-11:31:21.542|10=013|
2024-01-03 12:31:38.978 [36] [FixSender] (DEBUG) Sending 8=FIX.4.4|9=58|35=0|49=FIXCLIENT1|56=DMA_HUB|34=263|52=20240103-11:31:38|10=089|
2024-01-03 12:31:51.499 [35] [FixSender] (DEBUG) Receiving 8=FIX.4.4|9=62|35=0|34=301|49=DMA_HUB|56=FIXCLIENT1|52=20240103-11:31:51.498|10=027|
2024-01-03 12:32:08.986 [36] [FixSender] (DEBUG) Sending 8=FIX.4.4|9=58|35=0|49=FIXCLIENT1|56=DMA_HUB|34=264|52=20240103-11:32:08|10=088|
2024-01-03 12:32:21.440 [35] [FixSender] (DEBUG) Receiving 8=FIX.4.4|9=62|35=0|34=302|49=DMA_HUB|56=FIXCLIENT1|52=20240103-11:32:21.440|10=013|
2024-01-03 12:32:38.998 [36] [FixSender] (DEBUG) Sending 8=FIX.4.4|9=58|35=0|49=FIXCLIENT1|56=DMA_HUB|34=265|52=20240103-11:32:38|10=092|
2024-01-03 12:32:51.397 [35] [FixSender] (DEBUG) Receiving 8=FIX.4.4|9=62|35=0|34=303|49=DMA_HUB|56=FIXCLIENT1|52=20240103-11:32:51.397|10=028|
2024-01-03 12:33:09.006 [36] [FixSender] (DEBUG) Sending 8=FIX.4.4|9=58|35=0|49=FIXCLIENT1|56=DMA_HUB|34=266|52=20240103-11:33:09|10=092|
2024-01-03 12:33:21.347 [35] [FixSender] (DEBUG) Receiving 8=FIX.4.4|9=62|35=0|34=304|49=DMA_HUB|56=FIXCLIENT1|52=20240103-11:33:21.347|10=022|
