2024-07-30 15:50:12.611 [1] [Fixsender] (INFO) (c) 2001-2011 ullink SAS. FixSender. Release 1.11.
2024-07-30 15:50:26.218 [35] [FixSender] (INFO) try to connect to : localhost port :12345
2024-07-30 15:50:26.224 [35] [FixSender] (INFO) physical cnx initiated
2024-07-30 15:50:26.231 [35] [FixSender] (DEBUG) Sending 8=FIX.4.4|9=88|35=A|49=FIXCLIENT1|56=DMA_HUB|34=170|52=20240730-13:50:26|98=0|108=30|95=9|96=null/null|10=192|
2024-07-30 15:50:26.238 [35] [FixSender] (DEBUG) Receiving 8=FIX.4.4|9=72|35=A|34=1|49=DMA_HUB|56=FIXCLIENT1|52=20240730-13:50:26.236|108=30|98=0|10=228|
2024-07-30 15:50:26.239 [35] [FixSender] (DEBUG) Sending 8=FIX.4.4|9=110|35=5|49=FIXCLIENT1|56=DMA_HUB|34=171|52=20240730-13:50:26|58=MsgSeqNum expected 214, but MsgSeqNum received 1|10=202|
2024-07-30 15:50:26.240 [35] [FixSender] (INFO) physical cnx finished Connection reset by peer
2024-07-30 15:50:26.240 [35] [FixSender] (WARNING) Disconnected
2024-07-30 15:50:27.464 [39] [FixSender] (INFO) try to connect to : localhost port :12345
2024-07-30 15:50:27.464 [39] [FixSender] (INFO) physical cnx initiated
2024-07-30 15:50:27.468 [39] [FixSender] (DEBUG) Sending 8=FIX.4.4|9=86|35=A|49=FIXCLIENT1|56=DMA_HUB|34=1|52=20240730-13:50:27|98=0|108=30|95=9|96=null/null|10=088|
2024-07-30 15:50:27.471 [39] [FixSender] (DEBUG) Receiving 8=FIX.4.4|9=72|35=A|34=4|49=DMA_HUB|56=FIXCLIENT1|52=20240730-13:50:27.469|108=30|98=0|10=240|
2024-07-30 15:50:27.472 [39] [FixSender] (WARNING) The Fix connection is open...
2024-07-30 15:50:27.473 [39] [FixSender] (DEBUG) Sending 8=FIX.4.4|9=65|35=2|49=FIXCLIENT1|56=DMA_HUB|34=2|52=20240730-13:50:27|7=1|16=0|10=114|
2024-07-30 15:50:27.477 [39] [FixSender] (DEBUG) Receiving 8=FIX.4.4|9=102|35=4|34=1|49=DMA_HUB|56=FIXCLIENT1|52=20240730-13:50:27.476|43=Y|122=20240730-13:50:27.476|36=5|123=Y|10=253|
2024-07-30 15:50:36.788 [42] [FixSender] (DEBUG) Sending 8=FIX.4.4|9=192|35=D|49=FIXCLIENT1|56=DMA_HUB|34=3|52=20240730-13:50:36|21=1|11=HS_17223474360|38=1495|55=E:07G@XETR|54=1|60=20240730-13:50:36|40=2|59=0|44=350|48=US3390411052|22=4|15=EUR|207=XETR|1=bram_123|10=085|
2024-07-30 15:50:36.800 [39] [FixSender] (DEBUG) Receiving 8=FIX.4.4|9=234|35=8|34=5|49=DMA_HUB|56=FIXCLIENT1|52=20240730-13:50:36.799|11=HS_17223474360|37=FXJlS1cwQ|54=1|40=2|59=0|17=202407301|150=A|39=A|38=1495|151=1495|14=0|6=0|44=350|60=20240730-13:50:36.000|22=4|48=US3390411052|207=XETR|15=EUR|55=[N/A]|10=254|
2024-07-30 15:50:57.408 [39] [FixSender] (DEBUG) Receiving 8=FIX.4.4|9=60|35=0|34=6|49=DMA_HUB|56=FIXCLIENT1|52=20240730-13:50:57.408|10=193|
2024-07-30 15:51:01.291 [43] [FixSender] (DEBUG) Sending 8=FIX.4.4|9=192|35=D|49=FIXCLIENT1|56=DMA_HUB|34=4|52=20240730-13:51:01|21=1|11=HS_17223474611|38=4888|55=E:07G@XETR|54=1|60=20240730-13:51:01|40=2|59=0|44=350|48=US3390411052|22=4|15=EUR|207=XETR|1=bram_123|10=080|
2024-07-30 15:51:01.294 [39] [FixSender] (DEBUG) Receiving 8=FIX.4.4|9=234|35=8|34=7|49=DMA_HUB|56=FIXCLIENT1|52=20240730-13:51:01.293|11=HS_17223474611|37=FXKlS1cwQ|54=1|40=2|59=0|17=202407302|150=A|39=A|38=4888|151=4888|14=0|6=0|44=350|60=20240730-13:51:01.000|22=4|48=US3390411052|207=XETR|15=EUR|55=[N/A]|10=250|
2024-07-30 15:51:06.144 [44] [FixSender] (DEBUG) Sending 8=FIX.4.4|9=192|35=D|49=FIXCLIENT1|56=DMA_HUB|34=5|52=20240730-13:51:06|21=1|11=HS_17223474662|38=3700|55=E:07G@XETR|54=1|60=20240730-13:51:06|40=2|59=0|44=350|48=US3390411052|22=4|15=EUR|207=XETR|1=bram_123|10=079|
2024-07-30 15:51:06.145 [39] [FixSender] (DEBUG) Receiving 8=FIX.4.4|9=234|35=8|34=8|49=DMA_HUB|56=FIXCLIENT1|52=20240730-13:51:06.145|11=HS_17223474662|37=FXLlS1cwQ|54=1|40=2|59=0|17=202407303|150=A|39=A|38=3700|151=3700|14=0|6=0|44=350|60=20240730-13:51:06.000|22=4|48=US3390411052|207=XETR|15=EUR|55=[N/A]|10=229|
2024-07-30 15:51:06.172 [39] [FixSender] (DEBUG) Receiving 8=FIX.4.4|9=249|35=8|34=9|49=DMA_HUB|56=FIXCLIENT1|52=20240730-13:51:06.171|11=HS_17223474662|37=FXLlS1cwQ|198=SKhol15785|54=1|40=2|59=0|17=202407304|150=0|39=0|38=3700|151=3700|14=0|6=0|44=350|60=20240730-13:51:06.164|22=4|48=US3390411052|207=XETR|15=EUR|55=[N/A]|10=160|
2024-07-30 15:51:06.182 [39] [FixSender] (DEBUG) Receiving 8=FIX.4.4|9=313|35=8|34=10|49=DMA_HUB|56=FIXCLIENT1|52=20240730-13:51:06.181|11=HS_17223474662|37=FXLlS1cwQ|198=SKhol15785|54=1|32=3700|31=87.5|17=202407305|527=BSKhol1|150=F|39=2|38=3700|151=0|14=3700|6=87.5|44=350|60=20240730-13:51:06.165|22=4|48=US3390411052|207=XETR|15=EUR|55=[N/A]|453=1|448=strmrepl|447=D|452=17|40=2|59=0|10=082|
2024-07-30 15:51:06.901 [45] [FixSender] (DEBUG) Sending 8=FIX.4.4|9=192|35=D|49=FIXCLIENT1|56=DMA_HUB|34=6|52=20240730-13:51:06|21=1|11=HS_17223474663|38=1312|55=E:07G@XETR|54=1|60=20240730-13:51:06|40=2|59=0|44=350|48=US3390411052|22=4|15=EUR|207=XETR|1=bram_123|10=078|
2024-07-30 15:51:06.904 [39] [FixSender] (DEBUG) Receiving 8=FIX.4.4|9=235|35=8|34=11|49=DMA_HUB|56=FIXCLIENT1|52=20240730-13:51:06.903|11=HS_17223474663|37=FXMlS1cwQ|54=1|40=2|59=0|17=202407306|150=A|39=A|38=1312|151=1312|14=0|6=0|44=350|60=20240730-13:51:06.000|22=4|48=US3390411052|207=XETR|15=EUR|55=[N/A]|10=017|
2024-07-30 15:51:06.906 [39] [FixSender] (DEBUG) Receiving 8=FIX.4.4|9=250|35=8|34=12|49=DMA_HUB|56=FIXCLIENT1|52=20240730-13:51:06.906|11=HS_17223474663|37=FXMlS1cwQ|198=SKhol158c2|54=1|40=2|59=0|17=202407307|150=0|39=0|38=1312|151=1312|14=0|6=0|44=350|60=20240730-13:51:06.904|22=4|48=US3390411052|207=XETR|15=EUR|55=[N/A]|10=242|
2024-07-30 15:51:06.908 [39] [FixSender] (DEBUG) Receiving 8=FIX.4.4|9=313|35=8|34=13|49=DMA_HUB|56=FIXCLIENT1|52=20240730-13:51:06.907|11=HS_17223474663|37=FXMlS1cwQ|198=SKhol158c2|54=1|32=1312|31=87.5|17=202407308|527=BSKhol2|150=F|39=2|38=1312|151=0|14=1312|6=87.5|44=350|60=20240730-13:51:06.904|22=4|48=US3390411052|207=XETR|15=EUR|55=[N/A]|453=1|448=strmrepl|447=D|452=17|40=2|59=0|10=130|
2024-07-30 15:51:27.360 [39] [FixSender] (DEBUG) Receiving 8=FIX.4.4|9=61|35=0|34=14|49=DMA_HUB|56=FIXCLIENT1|52=20240730-13:51:27.359|10=244|
2024-07-30 15:51:36.902 [40] [FixSender] (DEBUG) Sending 8=FIX.4.4|9=56|35=0|49=FIXCLIENT1|56=DMA_HUB|34=7|52=20240730-13:51:36|10=251|
2024-07-30 15:51:54.255 [46] [FixSender] (DEBUG) Sending 8=FIX.4.4|9=191|35=D|49=FIXCLIENT1|56=DMA_HUB|34=8|52=20240730-13:51:54|21=1|11=HS_17223475144|38=330|55=E:07G@XETR|54=1|60=20240730-13:51:54|40=2|59=0|44=350|48=US3390411052|22=4|15=EUR|207=XETR|1=bram_123|10=031|
2024-07-30 15:51:54.257 [39] [FixSender] (DEBUG) Receiving 8=FIX.4.4|9=233|35=8|34=15|49=DMA_HUB|56=FIXCLIENT1|52=20240730-13:51:54.256|11=HS_17223475144|37=FXNlS1cwQ|54=1|40=2|59=0|17=202407309|150=A|39=A|38=330|151=330|14=0|6=0|44=350|60=20240730-13:51:54.000|22=4|48=US3390411052|207=XETR|15=EUR|55=[N/A]|10=183|
2024-07-30 15:51:56.225 [47] [FixSender] (DEBUG) Sending 8=FIX.4.4|9=191|35=D|49=FIXCLIENT1|56=DMA_HUB|34=9|52=20240730-13:51:56|21=1|11=HS_17223475165|38=479|55=E:07G@XETR|54=1|60=20240730-13:51:56|40=2|59=0|44=350|48=US3390411052|22=4|15=EUR|207=XETR|1=bram_123|10=053|
2024-07-30 15:51:56.227 [39] [FixSender] (DEBUG) Receiving 8=FIX.4.4|9=234|35=8|34=16|49=DMA_HUB|56=FIXCLIENT1|52=20240730-13:51:56.226|11=HS_17223475165|37=FXOlS1cwQ|54=1|40=2|59=0|17=2024073010|150=A|39=A|38=479|151=479|14=0|6=0|44=350|60=20240730-13:51:56.000|22=4|48=US3390411052|207=XETR|15=EUR|55=[N/A]|10=002|
2024-07-30 15:51:56.638 [48] [FixSender] (DEBUG) Sending 8=FIX.4.4|9=193|35=D|49=FIXCLIENT1|56=DMA_HUB|34=10|52=20240730-13:51:56|21=1|11=HS_17223475166|38=2280|55=E:07G@XETR|54=1|60=20240730-13:51:56|40=2|59=0|44=350|48=US3390411052|22=4|15=EUR|207=XETR|1=bram_123|10=136|
2024-07-30 15:51:56.640 [39] [FixSender] (DEBUG) Receiving 8=FIX.4.4|9=236|35=8|34=17|49=DMA_HUB|56=FIXCLIENT1|52=20240730-13:51:56.639|11=HS_17223475166|37=FXPlS1cwQ|54=1|40=2|59=0|17=2024073011|150=A|39=A|38=2280|151=2280|14=0|6=0|44=350|60=20240730-13:51:56.000|22=4|48=US3390411052|207=XETR|15=EUR|55=[N/A]|10=096|
2024-07-30 15:51:57.311 [39] [FixSender] (DEBUG) Receiving 8=FIX.4.4|9=61|35=0|34=18|49=DMA_HUB|56=FIXCLIENT1|52=20240730-13:51:57.311|10=239|
2024-07-30 15:52:26.639 [40] [FixSender] (DEBUG) Sending 8=FIX.4.4|9=57|35=0|49=FIXCLIENT1|56=DMA_HUB|34=11|52=20240730-13:52:26|10=039|
2024-07-30 15:52:27.269 [39] [FixSender] (DEBUG) Receiving 8=FIX.4.4|9=61|35=0|34=19|49=DMA_HUB|56=FIXCLIENT1|52=20240730-13:52:27.263|10=244|
2024-07-30 15:52:56.640 [40] [FixSender] (DEBUG) Sending 8=FIX.4.4|9=57|35=0|49=FIXCLIENT1|56=DMA_HUB|34=12|52=20240730-13:52:56|10=043|
2024-07-30 15:52:57.216 [39] [FixSender] (DEBUG) Receiving 8=FIX.4.4|9=61|35=0|34=20|49=DMA_HUB|56=FIXCLIENT1|52=20240730-13:52:57.216|10=237|
2024-07-30 15:53:04.884 [50] [FixSender] (DEBUG) Sending 8=FIX.4.4|9=193|35=D|49=FIXCLIENT1|56=DMA_HUB|34=13|52=20240730-13:53:04|21=1|11=HS_17223475840|38=4195|55=E:07G@XETR|54=1|60=20240730-13:53:04|40=2|59=0|44=200|48=US3390411052|22=4|15=EUR|207=XETR|1=bram_123|10=129|
2024-07-30 15:53:04.886 [39] [FixSender] (DEBUG) Receiving 8=FIX.4.4|9=236|35=8|34=21|49=DMA_HUB|56=FIXCLIENT1|52=20240730-13:53:04.885|11=HS_17223475840|37=FXQlS1cwQ|54=1|40=2|59=0|17=2024073012|150=A|39=A|38=4195|151=4195|14=0|6=0|44=200|60=20240730-13:53:04.000|22=4|48=US3390411052|207=XETR|15=EUR|55=[N/A]|10=093|
2024-07-30 15:53:06.569 [51] [FixSender] (DEBUG) Sending 8=FIX.4.4|9=193|35=D|49=FIXCLIENT1|56=DMA_HUB|34=14|52=20240730-13:53:06|21=1|11=HS_17223475861|38=2939|55=E:07G@XETR|54=1|60=20240730-13:53:06|40=2|59=0|44=200|48=US3390411052|22=4|15=EUR|207=XETR|1=bram_123|10=141|
2024-07-30 15:53:06.571 [39] [FixSender] (DEBUG) Receiving 8=FIX.4.4|9=236|35=8|34=22|49=DMA_HUB|56=FIXCLIENT1|52=20240730-13:53:06.570|11=HS_17223475861|37=FXRlS1cwQ|54=1|40=2|59=0|17=2024073013|150=A|39=A|38=2939|151=2939|14=0|6=0|44=200|60=20240730-13:53:06.000|22=4|48=US3390411052|207=XETR|15=EUR|55=[N/A]|10=102|
2024-07-30 15:53:11.825 [52] [FixSender] (DEBUG) Sending 8=FIX.4.4|9=193|35=D|49=FIXCLIENT1|56=DMA_HUB|34=15|52=20240730-13:53:11|21=1|11=HS_17223475912|38=1265|55=E:07G@XETR|54=1|60=20240730-13:53:11|40=2|59=0|44=199|48=US3390411052|22=4|15=EUR|207=XETR|1=bram_123|10=139|
2024-07-30 15:53:11.827 [39] [FixSender] (DEBUG) Receiving 8=FIX.4.4|9=236|35=8|34=23|49=DMA_HUB|56=FIXCLIENT1|52=20240730-13:53:11.826|11=HS_17223475912|37=FXSlS1cwQ|54=1|40=2|59=0|17=2024073014|150=A|39=A|38=1265|151=1265|14=0|6=0|44=199|60=20240730-13:53:11.000|22=4|48=US3390411052|207=XETR|15=EUR|55=[N/A]|10=097|
2024-07-30 15:53:11.831 [39] [FixSender] (DEBUG) Receiving 8=FIX.4.4|9=251|35=8|34=24|49=DMA_HUB|56=FIXCLIENT1|52=20240730-13:53:11.831|11=HS_17223475912|37=FXSlS1cwQ|198=SKhol23306|54=1|40=2|59=0|17=2024073015|150=0|39=0|38=1265|151=1265|14=0|6=0|44=199|60=20240730-13:53:11.828|22=4|48=US3390411052|207=XETR|15=EUR|55=[N/A]|10=011|
2024-07-30 15:53:11.834 [39] [FixSender] (DEBUG) Receiving 8=FIX.4.4|9=314|35=8|34=25|49=DMA_HUB|56=FIXCLIENT1|52=20240730-13:53:11.833|11=HS_17223475912|37=FXSlS1cwQ|198=SKhol23306|54=1|32=1265|31=87.5|17=2024073016|527=BSKhol3|150=F|39=2|38=1265|151=0|14=1265|6=87.5|44=199|60=20240730-13:53:11.828|22=4|48=US3390411052|207=XETR|15=EUR|55=[N/A]|453=1|448=strmrepl|447=D|452=17|40=2|59=0|10=164|
2024-07-30 15:53:27.168 [39] [FixSender] (DEBUG) Receiving 8=FIX.4.4|9=61|35=0|34=26|49=DMA_HUB|56=FIXCLIENT1|52=20240730-13:53:27.167|10=246|
2024-07-30 15:53:41.826 [40] [FixSender] (DEBUG) Sending 8=FIX.4.4|9=57|35=0|49=FIXCLIENT1|56=DMA_HUB|34=16|52=20240730-13:53:41|10=042|
2024-07-30 15:53:57.122 [39] [FixSender] (DEBUG) Receiving 8=FIX.4.4|9=61|35=0|34=27|49=DMA_HUB|56=FIXCLIENT1|52=20240730-13:53:57.120|10=239|
2024-07-30 15:54:11.827 [40] [FixSender] (DEBUG) Sending 8=FIX.4.4|9=57|35=0|49=FIXCLIENT1|56=DMA_HUB|34=17|52=20240730-13:54:11|10=041|
2024-07-30 15:54:27.072 [39] [FixSender] (DEBUG) Receiving 8=FIX.4.4|9=61|35=0|34=28|49=DMA_HUB|56=FIXCLIENT1|52=20240730-13:54:27.071|10=243|
2024-07-30 15:54:41.827 [40] [FixSender] (DEBUG) Sending 8=FIX.4.4|9=57|35=0|49=FIXCLIENT1|56=DMA_HUB|34=18|52=20240730-13:54:41|10=045|
2024-07-30 15:54:57.024 [39] [FixSender] (DEBUG) Receiving 8=FIX.4.4|9=61|35=0|34=29|49=DMA_HUB|56=FIXCLIENT1|52=20240730-13:54:57.024|10=245|
2024-07-30 15:55:11.827 [40] [FixSender] (DEBUG) Sending 8=FIX.4.4|9=57|35=0|49=FIXCLIENT1|56=DMA_HUB|34=19|52=20240730-13:55:11|10=044|
2024-07-30 15:55:26.976 [39] [FixSender] (DEBUG) Receiving 8=FIX.4.4|9=61|35=0|34=30|49=DMA_HUB|56=FIXCLIENT1|52=20240730-13:55:26.975|10=249|
2024-07-30 15:55:41.828 [40] [FixSender] (DEBUG) Sending 8=FIX.4.4|9=57|35=0|49=FIXCLIENT1|56=DMA_HUB|34=20|52=20240730-13:55:41|10=039|
2024-07-30 15:55:46.904 [39] [FixSender] (DEBUG) Receiving 8=FIX.4.4|9=61|35=5|34=31|49=DMA_HUB|56=FIXCLIENT1|52=20240730-13:55:46.904|10=249|
2024-07-30 15:55:46.905 [39] [FixSender] (DEBUG) Sending 8=FIX.4.4|9=79|35=5|49=FIXCLIENT1|56=DMA_HUB|34=21|52=20240730-13:55:46|58=Replying to logout|10=232|
2024-07-30 15:55:46.905 [39] [FixSender] (WARNING) The Fix connection is close...
2024-07-30 15:55:46.906 [39] [FixSender] (INFO) physical cnx finished Connection reset by peer
2024-07-30 15:55:46.908 [39] [FixSender] (WARNING) Disconnected
2024-07-30 17:02:28.519 [1] [Fixsender] (INFO) (c) 2001-2011 ullink SAS. FixSender. Release 1.11.
2024-07-30 17:02:31.749 [35] [FixSender] (INFO) try to connect to : localhost port :12345
2024-07-30 17:02:31.757 [35] [FixSender] (INFO) physical cnx initiated
2024-07-30 17:02:31.766 [35] [FixSender] (DEBUG) Sending 8=FIX.4.4|9=87|35=A|49=FIXCLIENT1|56=DMA_HUB|34=22|52=20240730-15:02:31|98=0|108=30|95=9|96=null/null|10=134|
2024-07-30 17:02:31.770 [35] [FixSender] (DEBUG) Receiving 8=FIX.4.4|9=73|35=A|34=32|49=DMA_HUB|56=FIXCLIENT1|52=20240730-15:02:31.768|108=30|98=0|10=030|
2024-07-30 17:02:31.772 [35] [FixSender] (WARNING) The Fix connection is open...
2024-07-30 17:02:31.774 [35] [FixSender] (DEBUG) Sending 8=FIX.4.4|9=75|35=1|49=FIXCLIENT1|56=DMA_HUB|34=23|52=20240730-15:02:31|112=synchronized?|10=085|
2024-07-30 17:02:31.780 [35] [FixSender] (DEBUG) Receiving 8=FIX.4.4|9=79|35=0|34=33|49=DMA_HUB|56=FIXCLIENT1|52=20240730-15:02:31.779|112=synchronized?|10=046|
2024-07-30 17:02:36.437 [38] [FixSender] (DEBUG) Sending 8=FIX.4.4|9=193|35=D|49=FIXCLIENT1|56=DMA_HUB|34=24|52=20240730-15:02:36|21=1|11=HS_17223517560|38=2847|55=E:07G@XETR|54=1|60=20240730-15:02:36|40=2|59=0|44=199|48=US3390411052|22=4|15=EUR|207=XETR|1=bram_123|10=148|
2024-07-30 17:02:36.445 [35] [FixSender] (DEBUG) Receiving 8=FIX.4.4|9=236|35=8|34=34|49=DMA_HUB|56=FIXCLIENT1|52=20240730-15:02:36.445|11=HS_17223517560|37=FXJ1ugOSU|54=1|40=2|59=0|17=2024073017|150=A|39=A|38=2847|151=2847|14=0|6=0|44=199|60=20240730-15:02:36.000|22=4|48=US3390411052|207=XETR|15=EUR|55=[N/A]|10=083|
2024-07-30 17:02:36.472 [35] [FixSender] (DEBUG) Receiving 8=FIX.4.4|9=251|35=8|34=35|49=DMA_HUB|56=FIXCLIENT1|52=20240730-15:02:36.471|11=HS_17223517560|37=FXJ1ugOSU|198=TXbGl17ef2|54=1|40=2|59=0|17=2024073018|150=0|39=0|38=2847|151=2847|14=0|6=0|44=199|60=20240730-15:02:36.465|22=4|48=US3390411052|207=XETR|15=EUR|55=[N/A]|10=068|
2024-07-30 17:02:36.481 [35] [FixSender] (DEBUG) Receiving 8=FIX.4.4|9=312|35=8|34=36|49=DMA_HUB|56=FIXCLIENT1|52=20240730-15:02:36.481|11=HS_17223517560|37=FXJ1ugOSU|198=TXbGl17ef2|54=1|32=2847|31=181|17=2024073019|527=BTXbGl1|150=F|39=2|38=2847|151=0|14=2847|6=181|44=199|60=20240730-15:02:36.466|22=4|48=US3390411052|207=XETR|15=EUR|55=[N/A]|453=1|448=strmrepl|447=D|452=17|40=2|59=0|10=080|
2024-07-30 17:02:36.572 [39] [FixSender] (DEBUG) Sending 8=FIX.4.4|9=193|35=D|49=FIXCLIENT1|56=DMA_HUB|34=25|52=20240730-15:02:36|21=1|11=HS_17223517561|38=1854|55=E:07G@XETR|54=1|60=20240730-15:02:36|40=2|59=0|44=199|48=US3390411052|22=4|15=EUR|207=XETR|1=bram_123|10=147|
2024-07-30 17:02:36.574 [35] [FixSender] (DEBUG) Receiving 8=FIX.4.4|9=236|35=8|34=37|49=DMA_HUB|56=FIXCLIENT1|52=20240730-15:02:36.573|11=HS_17223517561|37=FXK1ugOSU|54=1|40=2|59=0|17=2024073020|150=A|39=A|38=1854|151=1854|14=0|6=0|44=199|60=20240730-15:02:36.000|22=4|48=US3390411052|207=XETR|15=EUR|55=[N/A]|10=078|
2024-07-30 17:02:36.577 [35] [FixSender] (DEBUG) Receiving 8=FIX.4.4|9=251|35=8|34=38|49=DMA_HUB|56=FIXCLIENT1|52=20240730-15:02:36.576|11=HS_17223517561|37=FXK1ugOSU|198=TXbGl17f1f|54=1|40=2|59=0|17=2024073021|150=0|39=0|38=1854|151=1854|14=0|6=0|44=199|60=20240730-15:02:36.575|22=4|48=US3390411052|207=XETR|15=EUR|55=[N/A]|10=069|
2024-07-30 17:02:36.579 [35] [FixSender] (DEBUG) Receiving 8=FIX.4.4|9=312|35=8|34=39|49=DMA_HUB|56=FIXCLIENT1|52=20240730-15:02:36.578|11=HS_17223517561|37=FXK1ugOSU|198=TXbGl17f1f|54=1|32=1854|31=181|17=2024073022|527=BTXbGl2|150=F|39=2|38=1854|151=0|14=1854|6=181|44=199|60=20240730-15:02:36.575|22=4|48=US3390411052|207=XETR|15=EUR|55=[N/A]|453=1|448=strmrepl|447=D|452=17|40=2|59=0|10=079|
2024-07-30 17:02:45.339 [40] [FixSender] (DEBUG) Sending 8=FIX.4.4|9=193|35=D|49=FIXCLIENT1|56=DMA_HUB|34=26|52=20240730-15:02:45|21=1|11=HS_17223517650|38=4775|55=E:07G@XETR|54=1|60=20240730-15:02:45|40=2|59=0|44=200|48=US3390411052|22=4|15=EUR|207=XETR|1=bram_123|10=135|
2024-07-30 17:02:45.341 [35] [FixSender] (DEBUG) Receiving 8=FIX.4.4|9=236|35=8|34=40|49=DMA_HUB|56=FIXCLIENT1|52=20240730-15:02:45.341|11=HS_17223517650|37=FXL1ugOSU|54=1|40=2|59=0|17=2024073023|150=A|39=A|38=4775|151=4775|14=0|6=0|44=200|60=20240730-15:02:45.000|22=4|48=US3390411052|207=XETR|15=EUR|55=[N/A]|10=061|
2024-07-30 17:02:45.344 [35] [FixSender] (DEBUG) Receiving 8=FIX.4.4|9=251|35=8|34=41|49=DMA_HUB|56=FIXCLIENT1|52=20240730-15:02:45.344|11=HS_17223517650|37=FXL1ugOSU|198=TXbGl18e71|54=1|40=2|59=0|17=2024073024|150=0|39=0|38=4775|151=4775|14=0|6=0|44=200|60=20240730-15:02:45.342|22=4|48=US3390411052|207=XETR|15=EUR|55=[N/A]|10=253|
2024-07-30 17:02:45.346 [35] [FixSender] (DEBUG) Receiving 8=FIX.4.4|9=312|35=8|34=42|49=DMA_HUB|56=FIXCLIENT1|52=20240730-15:02:45.346|11=HS_17223517650|37=FXL1ugOSU|198=TXbGl18e71|54=1|32=4775|31=181|17=2024073025|527=BTXbGl3|150=F|39=2|38=4775|151=0|14=4775|6=181|44=200|60=20240730-15:02:45.342|22=4|48=US3390411052|207=XETR|15=EUR|55=[N/A]|453=1|448=strmrepl|447=D|452=17|40=2|59=0|10=013|
2024-07-30 17:02:45.476 [41] [FixSender] (DEBUG) Sending 8=FIX.4.4|9=193|35=D|49=FIXCLIENT1|56=DMA_HUB|34=27|52=20240730-15:02:45|21=1|11=HS_17223517651|38=2357|55=E:07G@XETR|54=1|60=20240730-15:02:45|40=2|59=0|44=200|48=US3390411052|22=4|15=EUR|207=XETR|1=bram_123|10=131|
2024-07-30 17:02:45.478 [35] [FixSender] (DEBUG) Receiving 8=FIX.4.4|9=236|35=8|34=43|49=DMA_HUB|56=FIXCLIENT1|52=20240730-15:02:45.478|11=HS_17223517651|37=FXM1ugOSU|54=1|40=2|59=0|17=2024073026|150=A|39=A|38=2357|151=2357|14=0|6=0|44=200|60=20240730-15:02:45.000|22=4|48=US3390411052|207=XETR|15=EUR|55=[N/A]|10=068|
2024-07-30 17:02:45.481 [35] [FixSender] (DEBUG) Receiving 8=FIX.4.4|9=251|35=8|34=44|49=DMA_HUB|56=FIXCLIENT1|52=20240730-15:02:45.481|11=HS_17223517651|37=FXM1ugOSU|198=TXbGl18eb3|54=1|40=2|59=0|17=2024073027|150=0|39=0|38=2357|151=2357|14=0|6=0|44=200|60=20240730-15:02:45.479|22=4|48=US3390411052|207=XETR|15=EUR|55=[N/A]|10=051|
2024-07-30 17:02:45.482 [35] [FixSender] (DEBUG) Receiving 8=FIX.4.4|9=312|35=8|34=45|49=DMA_HUB|56=FIXCLIENT1|52=20240730-15:02:45.482|11=HS_17223517651|37=FXM1ugOSU|198=TXbGl18eb3|54=1|32=2357|31=181|17=2024073028|527=BTXbGl4|150=F|39=2|38=2357|151=0|14=2357|6=181|44=200|60=20240730-15:02:45.479|22=4|48=US3390411052|207=XETR|15=EUR|55=[N/A]|453=1|448=strmrepl|447=D|452=17|40=2|59=0|10=061|
2024-07-30 17:02:45.578 [42] [FixSender] (DEBUG) Sending 8=FIX.4.4|9=193|35=D|49=FIXCLIENT1|56=DMA_HUB|34=28|52=20240730-15:02:45|21=1|11=HS_17223517652|38=4654|55=E:07G@XETR|54=1|60=20240730-15:02:45|40=2|59=0|44=200|48=US3390411052|22=4|15=EUR|207=XETR|1=bram_123|10=135|
2024-07-30 17:02:45.580 [35] [FixSender] (DEBUG) Receiving 8=FIX.4.4|9=236|35=8|34=46|49=DMA_HUB|56=FIXCLIENT1|52=20240730-15:02:45.579|11=HS_17223517652|37=FXN1ugOSU|54=1|40=2|59=0|17=2024073029|150=A|39=A|38=4654|151=4654|14=0|6=0|44=200|60=20240730-15:02:45.000|22=4|48=US3390411052|207=XETR|15=EUR|55=[N/A]|10=082|
2024-07-30 17:02:45.583 [35] [FixSender] (DEBUG) Receiving 8=FIX.4.4|9=251|35=8|34=47|49=DMA_HUB|56=FIXCLIENT1|52=20240730-15:02:45.583|11=HS_17223517652|37=FXN1ugOSU|198=TXbGl18edb|54=1|40=2|59=0|17=2024073030|150=0|39=0|38=4654|151=4654|14=0|6=0|44=200|60=20240730-15:02:45.581|22=4|48=US3390411052|207=XETR|15=EUR|55=[N/A]|10=100|
2024-07-30 17:02:45.585 [35] [FixSender] (DEBUG) Receiving 8=FIX.4.4|9=312|35=8|34=48|49=DMA_HUB|56=FIXCLIENT1|52=20240730-15:02:45.584|11=HS_17223517652|37=FXN1ugOSU|198=TXbGl18edb|54=1|32=4654|31=181|17=2024073031|527=BTXbGl5|150=F|39=2|38=4654|151=0|14=4654|6=181|44=200|60=20240730-15:02:45.581|22=4|48=US3390411052|207=XETR|15=EUR|55=[N/A]|453=1|448=strmrepl|447=D|452=17|40=2|59=0|10=113|
2024-07-30 17:02:46.234 [43] [FixSender] (DEBUG) Sending 8=FIX.4.4|9=192|35=D|49=FIXCLIENT1|56=DMA_HUB|34=29|52=20240730-15:02:46|21=1|11=HS_17223517663|38=266|55=E:07G@XETR|54=1|60=20240730-15:02:46|40=2|59=0|44=200|48=US3390411052|22=4|15=EUR|207=XETR|1=bram_123|10=086|
2024-07-30 17:02:46.237 [35] [FixSender] (DEBUG) Receiving 8=FIX.4.4|9=234|35=8|34=49|49=DMA_HUB|56=FIXCLIENT1|52=20240730-15:02:46.236|11=HS_17223517663|37=FXO1ugOSU|54=1|40=2|59=0|17=2024073032|150=A|39=A|38=266|151=266|14=0|6=0|44=200|60=20240730-15:02:46.000|22=4|48=US3390411052|207=XETR|15=EUR|55=[N/A]|10=222|
2024-07-30 17:02:46.339 [44] [FixSender] (DEBUG) Sending 8=FIX.4.4|9=193|35=D|49=FIXCLIENT1|56=DMA_HUB|34=30|52=20240730-15:02:46|21=1|11=HS_17223517664|38=1294|55=E:07G@XETR|54=1|60=20240730-15:02:46|40=2|59=0|44=200|48=US3390411052|22=4|15=EUR|207=XETR|1=bram_123|10=130|
2024-07-30 17:02:46.340 [35] [FixSender] (DEBUG) Receiving 8=FIX.4.4|9=236|35=8|34=50|49=DMA_HUB|56=FIXCLIENT1|52=20240730-15:02:46.340|11=HS_17223517664|37=FXP1ugOSU|54=1|40=2|59=0|17=2024073033|150=A|39=A|38=1294|151=1294|14=0|6=0|44=200|60=20240730-15:02:46.000|22=4|48=US3390411052|207=XETR|15=EUR|55=[N/A]|10=059|
2024-07-30 17:02:46.343 [35] [FixSender] (DEBUG) Receiving 8=FIX.4.4|9=251|35=8|34=51|49=DMA_HUB|56=FIXCLIENT1|52=20240730-15:02:46.343|11=HS_17223517664|37=FXP1ugOSU|198=TXbGl19030|54=1|40=2|59=0|17=2024073034|150=0|39=0|38=1294|151=1294|14=0|6=0|44=200|60=20240730-15:02:46.341|22=4|48=US3390411052|207=XETR|15=EUR|55=[N/A]|10=193|
2024-07-30 17:02:46.344 [35] [FixSender] (DEBUG) Receiving 8=FIX.4.4|9=312|35=8|34=52|49=DMA_HUB|56=FIXCLIENT1|52=20240730-15:02:46.344|11=HS_17223517664|37=FXP1ugOSU|198=TXbGl19030|54=1|32=1294|31=181|17=2024073035|527=BTXbGl6|150=F|39=2|38=1294|151=0|14=1294|6=181|44=200|60=20240730-15:02:46.341|22=4|48=US3390411052|207=XETR|15=EUR|55=[N/A]|453=1|448=strmrepl|447=D|452=17|40=2|59=0|10=204|
2024-07-30 17:02:47.006 [45] [FixSender] (DEBUG) Sending 8=FIX.4.4|9=193|35=D|49=FIXCLIENT1|56=DMA_HUB|34=31|52=20240730-15:02:47|21=1|11=HS_17223517675|38=2694|55=E:07G@XETR|54=1|60=20240730-15:02:47|40=2|59=0|44=200|48=US3390411052|22=4|15=EUR|207=XETR|1=bram_123|10=140|
2024-07-30 17:02:47.008 [35] [FixSender] (DEBUG) Receiving 8=FIX.4.4|9=236|35=8|34=53|49=DMA_HUB|56=FIXCLIENT1|52=20240730-15:02:47.007|11=HS_17223517675|37=FXQ1ugOSU|54=1|40=2|59=0|17=2024073036|150=A|39=A|38=2694|151=2694|14=0|6=0|44=200|60=20240730-15:02:47.000|22=4|48=US3390411052|207=XETR|15=EUR|55=[N/A]|10=080|
2024-07-30 17:02:47.011 [35] [FixSender] (DEBUG) Receiving 8=FIX.4.4|9=251|35=8|34=54|49=DMA_HUB|56=FIXCLIENT1|52=20240730-15:02:47.010|11=HS_17223517675|37=FXQ1ugOSU|198=TXbGl19161|54=1|40=2|59=0|17=2024073037|150=0|39=0|38=2694|151=2694|14=0|6=0|44=200|60=20240730-15:02:47.009|22=4|48=US3390411052|207=XETR|15=EUR|55=[N/A]|10=211|
2024-07-30 17:02:47.012 [35] [FixSender] (DEBUG) Receiving 8=FIX.4.4|9=312|35=8|34=55|49=DMA_HUB|56=FIXCLIENT1|52=20240730-15:02:47.012|11=HS_17223517675|37=FXQ1ugOSU|198=TXbGl19161|54=1|32=2694|31=181|17=2024073038|527=BTXbGl7|150=F|39=2|38=2694|151=0|14=2694|6=181|44=200|60=20240730-15:02:47.009|22=4|48=US3390411052|207=XETR|15=EUR|55=[N/A]|453=1|448=strmrepl|447=D|452=17|40=2|59=0|10=229|
2024-07-30 17:02:47.129 [46] [FixSender] (DEBUG) Sending 8=FIX.4.4|9=193|35=D|49=FIXCLIENT1|56=DMA_HUB|34=32|52=20240730-15:02:47|21=1|11=HS_17223517676|38=1950|55=E:07G@XETR|54=1|60=20240730-15:02:47|40=2|59=0|44=200|48=US3390411052|22=4|15=EUR|207=XETR|1=bram_123|10=136|
2024-07-30 17:02:47.131 [35] [FixSender] (DEBUG) Receiving 8=FIX.4.4|9=236|35=8|34=56|49=DMA_HUB|56=FIXCLIENT1|52=20240730-15:02:47.130|11=HS_17223517676|37=FXR1ugOSU|54=1|40=2|59=0|17=2024073039|150=A|39=A|38=1950|151=1950|14=0|6=0|44=200|60=20240730-15:02:47.000|22=4|48=US3390411052|207=XETR|15=EUR|55=[N/A]|10=073|
2024-07-30 17:02:47.134 [35] [FixSender] (DEBUG) Receiving 8=FIX.4.4|9=251|35=8|34=57|49=DMA_HUB|56=FIXCLIENT1|52=20240730-15:02:47.133|11=HS_17223517676|37=FXR1ugOSU|198=TXbGl1919f|54=1|40=2|59=0|17=2024073040|150=0|39=0|38=1950|151=1950|14=0|6=0|44=200|60=20240730-15:02:47.132|22=4|48=US3390411052|207=XETR|15=EUR|55=[N/A]|10=001|
2024-07-30 17:02:47.135 [35] [FixSender] (DEBUG) Receiving 8=FIX.4.4|9=312|35=8|34=58|49=DMA_HUB|56=FIXCLIENT1|52=20240730-15:02:47.135|11=HS_17223517676|37=FXR1ugOSU|198=TXbGl1919f|54=1|32=1950|31=181|17=2024073041|527=BTXbGl8|150=F|39=2|38=1950|151=0|14=1950|6=181|44=200|60=20240730-15:02:47.132|22=4|48=US3390411052|207=XETR|15=EUR|55=[N/A]|453=1|448=strmrepl|447=D|452=17|40=2|59=0|10=014|
2024-07-30 17:02:47.582 [47] [FixSender] (DEBUG) Sending 8=FIX.4.4|9=193|35=D|49=FIXCLIENT1|56=DMA_HUB|34=33|52=20240730-15:02:47|21=1|11=HS_17223517677|38=1257|55=E:07G@XETR|54=1|60=20240730-15:02:47|40=2|59=0|44=200|48=US3390411052|22=4|15=EUR|207=XETR|1=bram_123|10=138|
2024-07-30 17:02:47.584 [35] [FixSender] (DEBUG) Receiving 8=FIX.4.4|9=236|35=8|34=59|49=DMA_HUB|56=FIXCLIENT1|52=20240730-15:02:47.584|11=HS_17223517677|37=FXS1ugOSU|54=1|40=2|59=0|17=2024073042|150=A|39=A|38=1257|151=1257|14=0|6=0|44=200|60=20240730-15:02:47.000|22=4|48=US3390411052|207=XETR|15=EUR|55=[N/A]|10=085|
2024-07-30 17:02:47.587 [35] [FixSender] (DEBUG) Receiving 8=FIX.4.4|9=251|35=8|34=60|49=DMA_HUB|56=FIXCLIENT1|52=20240730-15:02:47.587|11=HS_17223517677|37=FXS1ugOSU|198=TXbGl19282|54=1|40=2|59=0|17=2024073043|150=0|39=0|38=1257|151=1257|14=0|6=0|44=200|60=20240730-15:02:47.585|22=4|48=US3390411052|207=XETR|15=EUR|55=[N/A]|10=229|
2024-07-30 17:02:47.588 [35] [FixSender] (DEBUG) Receiving 8=FIX.4.4|9=312|35=8|34=61|49=DMA_HUB|56=FIXCLIENT1|52=20240730-15:02:47.588|11=HS_17223517677|37=FXS1ugOSU|198=TXbGl19282|54=1|32=1257|31=181|17=2024073044|527=BTXbGl9|150=F|39=2|38=1257|151=0|14=1257|6=181|44=200|60=20240730-15:02:47.585|22=4|48=US3390411052|207=XETR|15=EUR|55=[N/A]|453=1|448=strmrepl|447=D|452=17|40=2|59=0|10=242|
2024-07-30 17:02:49.028 [48] [FixSender] (DEBUG) Sending 8=FIX.4.4|9=193|35=D|49=FIXCLIENT1|56=DMA_HUB|34=34|52=20240730-15:02:49|21=1|11=HS_17223517698|38=3982|55=E:07G@XETR|54=1|60=20240730-15:02:49|40=2|59=0|44=200|48=US3390411052|22=4|15=EUR|207=XETR|1=bram_123|10=153|
2024-07-30 17:02:49.030 [35] [FixSender] (DEBUG) Receiving 8=FIX.4.4|9=236|35=8|34=62|49=DMA_HUB|56=FIXCLIENT1|52=20240730-15:02:49.029|11=HS_17223517698|37=FXT1ugOSU|54=1|40=2|59=0|17=2024073045|150=A|39=A|38=3982|151=3982|14=0|6=0|44=200|60=20240730-15:02:49.000|22=4|48=US3390411052|207=XETR|15=EUR|55=[N/A]|10=098|
2024-07-30 17:02:49.033 [35] [FixSender] (DEBUG) Receiving 8=FIX.4.4|9=251|35=8|34=63|49=DMA_HUB|56=FIXCLIENT1|52=20240730-15:02:49.032|11=HS_17223517698|37=FXT1ugOSU|198=TXbGl19504|54=1|40=2|59=0|17=2024073046|150=0|39=0|38=3982|151=3982|14=0|6=0|44=200|60=20240730-15:02:49.031|22=4|48=US3390411052|207=XETR|15=EUR|55=[N/A]|10=225|
2024-07-30 17:02:49.034 [35] [FixSender] (DEBUG) Receiving 8=FIX.4.4|9=312|35=8|34=64|49=DMA_HUB|56=FIXCLIENT1|52=20240730-15:02:49.034|11=HS_17223517698|37=FXT1ugOSU|198=TXbGl19504|54=1|32=3982|31=181|17=2024073047|527=BTXbGla|150=F|39=2|38=3982|151=0|14=3982|6=181|44=200|60=20240730-15:02:49.031|22=4|48=US3390411052|207=XETR|15=EUR|55=[N/A]|453=1|448=strmrepl|447=D|452=17|40=2|59=0|10=030|
2024-07-30 17:02:51.872 [49] [FixSender] (DEBUG) Sending 8=FIX.4.4|9=192|35=D|49=FIXCLIENT1|56=DMA_HUB|34=35|52=20240730-15:02:51|21=1|11=HS_17223517719|38=640|55=E:07G@XETR|54=1|60=20240730-15:02:51|40=2|59=0|44=200|48=US3390411052|22=4|15=EUR|207=XETR|1=bram_123|10=073|
2024-07-30 17:02:51.874 [35] [FixSender] (DEBUG) Receiving 8=FIX.4.4|9=234|35=8|34=65|49=DMA_HUB|56=FIXCLIENT1|52=20240730-15:02:51.873|11=HS_17223517719|37=FXU1ugOSU|54=1|40=2|59=0|17=2024073048|150=A|39=A|38=640|151=640|14=0|6=0|44=200|60=20240730-15:02:51.000|22=4|48=US3390411052|207=XETR|15=EUR|55=[N/A]|10=226|
2024-07-30 17:02:51.877 [35] [FixSender] (DEBUG) Receiving 8=FIX.4.4|9=249|35=8|34=66|49=DMA_HUB|56=FIXCLIENT1|52=20240730-15:02:51.876|11=HS_17223517719|37=FXU1ugOSU|198=TXbGl199f3|54=1|40=2|59=0|17=2024073049|150=0|39=0|38=640|151=640|14=0|6=0|44=200|60=20240730-15:02:51.875|22=4|48=US3390411052|207=XETR|15=EUR|55=[N/A]|10=188|
2024-07-30 17:02:51.878 [35] [FixSender] (DEBUG) Receiving 8=FIX.4.4|9=309|35=8|34=67|49=DMA_HUB|56=FIXCLIENT1|52=20240730-15:02:51.878|11=HS_17223517719|37=FXU1ugOSU|198=TXbGl199f3|54=1|32=640|31=180|17=2024073050|527=BTXbGlb|150=F|39=2|38=640|151=0|14=640|6=180|44=200|60=20240730-15:02:51.875|22=4|48=US3390411052|207=XETR|15=EUR|55=[N/A]|453=1|448=strmrepl|447=D|452=17|40=2|59=0|10=178|
2024-07-30 17:02:52.363 [50] [FixSender] (DEBUG) Sending 8=FIX.4.4|9=194|35=D|49=FIXCLIENT1|56=DMA_HUB|34=36|52=20240730-15:02:52|21=1|11=HS_172235177210|38=2521|55=E:07G@XETR|54=1|60=20240730-15:02:52|40=2|59=0|44=200|48=US3390411052|22=4|15=EUR|207=XETR|1=bram_123|10=167|
2024-07-30 17:02:52.365 [35] [FixSender] (DEBUG) Receiving 8=FIX.4.4|9=237|35=8|34=68|49=DMA_HUB|56=FIXCLIENT1|52=20240730-15:02:52.364|11=HS_172235177210|37=FXV1ugOSU|54=1|40=2|59=0|17=2024073051|150=A|39=A|38=2521|151=2521|14=0|6=0|44=200|60=20240730-15:02:52.000|22=4|48=US3390411052|207=XETR|15=EUR|55=[N/A]|10=105|
2024-07-30 17:02:52.367 [35] [FixSender] (DEBUG) Receiving 8=FIX.4.4|9=252|35=8|34=69|49=DMA_HUB|56=FIXCLIENT1|52=20240730-15:02:52.367|11=HS_172235177210|37=FXV1ugOSU|198=TXbGl19aec|54=1|40=2|59=0|17=2024073052|150=0|39=0|38=2521|151=2521|14=0|6=0|44=200|60=20240730-15:02:52.365|22=4|48=US3390411052|207=XETR|15=EUR|55=[N/A]|10=139|
2024-07-30 17:02:52.369 [35] [FixSender] (DEBUG) Receiving 8=FIX.4.4|9=313|35=8|34=70|49=DMA_HUB|56=FIXCLIENT1|52=20240730-15:02:52.368|11=HS_172235177210|37=FXV1ugOSU|198=TXbGl19aec|54=1|32=2521|31=180|17=2024073053|527=BTXbGlc|150=F|39=2|38=2521|151=0|14=2521|6=180|44=200|60=20240730-15:02:52.365|22=4|48=US3390411052|207=XETR|15=EUR|55=[N/A]|453=1|448=strmrepl|447=D|452=17|40=2|59=0|10=178|
2024-07-30 17:02:52.727 [51] [FixSender] (DEBUG) Sending 8=FIX.4.4|9=194|35=D|49=FIXCLIENT1|56=DMA_HUB|34=37|52=20240730-15:02:52|21=1|11=HS_172235177211|38=2319|55=E:07G@XETR|54=1|60=20240730-15:02:52|40=2|59=0|44=200|48=US3390411052|22=4|15=EUR|207=XETR|1=bram_123|10=174|
2024-07-30 17:02:52.728 [35] [FixSender] (DEBUG) Receiving 8=FIX.4.4|9=237|35=8|34=71|49=DMA_HUB|56=FIXCLIENT1|52=20240730-15:02:52.728|11=HS_172235177211|37=FXW1ugOSU|54=1|40=2|59=0|17=2024073054|150=A|39=A|38=2319|151=2319|14=0|6=0|44=200|60=20240730-15:02:52.000|22=4|48=US3390411052|207=XETR|15=EUR|55=[N/A]|10=118|
2024-07-30 17:02:52.731 [35] [FixSender] (DEBUG) Receiving 8=FIX.4.4|9=252|35=8|34=72|49=DMA_HUB|56=FIXCLIENT1|52=20240730-15:02:52.731|11=HS_172235177211|37=FXW1ugOSU|198=TXbGl19b8e|54=1|40=2|59=0|17=2024073055|150=0|39=0|38=2319|151=2319|14=0|6=0|44=200|60=20240730-15:02:52.729|22=4|48=US3390411052|207=XETR|15=EUR|55=[N/A]|10=105|
2024-07-30 17:02:52.732 [35] [FixSender] (DEBUG) Receiving 8=FIX.4.4|9=313|35=8|34=73|49=DMA_HUB|56=FIXCLIENT1|52=20240730-15:02:52.732|11=HS_172235177211|37=FXW1ugOSU|198=TXbGl19b8e|54=1|32=2319|31=180|17=2024073056|527=BTXbGld|150=F|39=2|38=2319|151=0|14=2319|6=180|44=200|60=20240730-15:02:52.729|22=4|48=US3390411052|207=XETR|15=EUR|55=[N/A]|453=1|448=strmrepl|447=D|452=17|40=2|59=0|10=159|
2024-07-30 17:03:01.723 [35] [FixSender] (DEBUG) Receiving 8=FIX.4.4|9=61|35=0|34=74|49=DMA_HUB|56=FIXCLIENT1|52=20240730-15:03:01.723|10=236|
2024-07-30 17:03:20.181 [52] [FixSender] (DEBUG) Sending 8=FIX.4.4|9=193|35=D|49=FIXCLIENT1|56=DMA_HUB|34=38|52=20240730-15:03:20|21=1|11=HS_172235180012|38=200|55=E:07G@XETR|54=1|60=20240730-15:03:20|40=2|59=0|44=200|48=US3390411052|22=4|15=EUR|207=XETR|1=bram_123|10=098|
2024-07-30 17:03:20.183 [35] [FixSender] (DEBUG) Receiving 8=FIX.4.4|9=235|35=8|34=75|49=DMA_HUB|56=FIXCLIENT1|52=20240730-15:03:20.182|11=HS_172235180012|37=FXX1ugOSU|54=1|40=2|59=0|17=2024073057|150=A|39=A|38=200|151=200|14=0|6=0|44=200|60=20240730-15:03:20.000|22=4|48=US3390411052|207=XETR|15=EUR|55=[N/A]|10=237|
2024-07-30 17:03:21.087 [53] [FixSender] (DEBUG) Sending 8=FIX.4.4|9=193|35=D|49=FIXCLIENT1|56=DMA_HUB|34=39|52=20240730-15:03:21|21=1|11=HS_172235180113|38=200|55=E:07G@XETR|54=1|60=20240730-15:03:21|40=2|59=0|44=200|48=US3390411052|22=4|15=EUR|207=XETR|1=bram_123|10=103|
2024-07-30 17:03:21.090 [35] [FixSender] (DEBUG) Receiving 8=FIX.4.4|9=235|35=8|34=76|49=DMA_HUB|56=FIXCLIENT1|52=20240730-15:03:21.088|11=HS_172235180113|37=FXY1ugOSU|54=1|40=2|59=0|17=2024073058|150=A|39=A|38=200|151=200|14=0|6=0|44=200|60=20240730-15:03:21.000|22=4|48=US3390411052|207=XETR|15=EUR|55=[N/A]|10=249|
2024-07-30 17:03:21.587 [54] [FixSender] (DEBUG) Sending 8=FIX.4.4|9=193|35=D|49=FIXCLIENT1|56=DMA_HUB|34=40|52=20240730-15:03:21|21=1|11=HS_172235180114|38=200|55=E:07G@XETR|54=1|60=20240730-15:03:21|40=2|59=0|44=200|48=US3390411052|22=4|15=EUR|207=XETR|1=bram_123|10=096|
2024-07-30 17:03:21.589 [35] [FixSender] (DEBUG) Receiving 8=FIX.4.4|9=235|35=8|34=77|49=DMA_HUB|56=FIXCLIENT1|52=20240730-15:03:21.588|11=HS_172235180114|37=FXZ1ugOSU|54=1|40=2|59=0|17=2024073059|150=A|39=A|38=200|151=200|14=0|6=0|44=200|60=20240730-15:03:21.000|22=4|48=US3390411052|207=XETR|15=EUR|55=[N/A]|10=002|
2024-07-30 17:03:22.015 [55] [FixSender] (DEBUG) Sending 8=FIX.4.4|9=193|35=D|49=FIXCLIENT1|56=DMA_HUB|34=41|52=20240730-15:03:22|21=1|11=HS_172235180215|38=200|55=E:07G@XETR|54=1|60=20240730-15:03:22|40=2|59=0|44=200|48=US3390411052|22=4|15=EUR|207=XETR|1=bram_123|10=101|
2024-07-30 17:03:22.016 [35] [FixSender] (DEBUG) Receiving 8=FIX.4.4|9=235|35=8|34=78|49=DMA_HUB|56=FIXCLIENT1|52=20240730-15:03:22.016|11=HS_172235180215|37=FXa1ugOSU|54=1|40=2|59=0|17=2024073060|150=A|39=A|38=200|151=200|14=0|6=0|44=200|60=20240730-15:03:22.000|22=4|48=US3390411052|207=XETR|15=EUR|55=[N/A]|10=248|
2024-07-30 17:03:22.469 [56] [FixSender] (DEBUG) Sending 8=FIX.4.4|9=193|35=D|49=FIXCLIENT1|56=DMA_HUB|34=42|52=20240730-15:03:22|21=1|11=HS_172235180216|38=200|55=E:07G@XETR|54=1|60=20240730-15:03:22|40=2|59=0|44=200|48=US3390411052|22=4|15=EUR|207=XETR|1=bram_123|10=103|
2024-07-30 17:03:22.471 [35] [FixSender] (DEBUG) Receiving 8=FIX.4.4|9=235|35=8|34=79|49=DMA_HUB|56=FIXCLIENT1|52=20240730-15:03:22.470|11=HS_172235180216|37=FXb1ugOSU|54=1|40=2|59=0|17=2024073061|150=A|39=A|38=200|151=200|14=0|6=0|44=200|60=20240730-15:03:22.000|22=4|48=US3390411052|207=XETR|15=EUR|55=[N/A]|10=000|
2024-07-30 17:03:31.676 [35] [FixSender] (DEBUG) Receiving 8=FIX.4.4|9=61|35=0|34=80|49=DMA_HUB|56=FIXCLIENT1|52=20240730-15:03:31.675|10=242|
2024-07-30 17:03:52.470 [36] [FixSender] (DEBUG) Sending 8=FIX.4.4|9=57|35=0|49=FIXCLIENT1|56=DMA_HUB|34=43|52=20240730-15:03:52|10=041|
2024-07-30 17:04:01.628 [35] [FixSender] (DEBUG) Receiving 8=FIX.4.4|9=61|35=0|34=81|49=DMA_HUB|56=FIXCLIENT1|52=20240730-15:04:01.628|10=239|
2024-07-30 17:04:22.471 [36] [FixSender] (DEBUG) Sending 8=FIX.4.4|9=57|35=0|49=FIXCLIENT1|56=DMA_HUB|34=44|52=20240730-15:04:22|10=040|
2024-07-30 17:04:31.580 [35] [FixSender] (DEBUG) Receiving 8=FIX.4.4|9=61|35=0|34=82|49=DMA_HUB|56=FIXCLIENT1|52=20240730-15:04:31.579|10=248|
2024-07-30 17:04:52.471 [36] [FixSender] (DEBUG) Sending 8=FIX.4.4|9=57|35=0|49=FIXCLIENT1|56=DMA_HUB|34=45|52=20240730-15:04:52|10=044|
2024-07-30 17:05:01.532 [35] [FixSender] (DEBUG) Receiving 8=FIX.4.4|9=61|35=0|34=83|49=DMA_HUB|56=FIXCLIENT1|52=20240730-15:05:01.532|10=236|
2024-07-30 17:05:22.472 [36] [FixSender] (DEBUG) Sending 8=FIX.4.4|9=57|35=0|49=FIXCLIENT1|56=DMA_HUB|34=46|52=20240730-15:05:22|10=043|
2024-07-30 17:05:31.483 [35] [FixSender] (DEBUG) Receiving 8=FIX.4.4|9=61|35=0|34=84|49=DMA_HUB|56=FIXCLIENT1|52=20240730-15:05:31.483|10=245|
2024-07-30 17:05:34.046 [35] [FixSender] (DEBUG) Receiving 8=FIX.4.4|9=61|35=5|34=85|49=DMA_HUB|56=FIXCLIENT1|52=20240730-15:05:34.045|10=248|
2024-07-30 17:05:34.046 [35] [FixSender] (DEBUG) Sending 8=FIX.4.4|9=79|35=5|49=FIXCLIENT1|56=DMA_HUB|34=47|52=20240730-15:05:34|58=Replying to logout|10=234|
2024-07-30 17:05:34.047 [35] [FixSender] (WARNING) The Fix connection is close...
2024-07-30 17:05:34.049 [35] [FixSender] (INFO) physical cnx finished Connection reset by peer
2024-07-30 17:05:34.056 [35] [FixSender] (WARNING) Disconnected
2024-07-30 17:34:35.233 [57] [FixSender] (INFO) try to connect to : localhost port :12345
2024-07-30 17:34:35.252 [57] [FixSender] (INFO) physical cnx initiated
2024-07-30 17:34:35.273 [57] [FixSender] (DEBUG) Sending 8=FIX.4.4|9=87|35=A|49=FIXCLIENT1|56=DMA_HUB|34=48|52=20240730-15:34:35|98=0|108=30|95=9|96=null/null|10=151|
2024-07-30 17:34:35.285 [57] [FixSender] (DEBUG) Receiving 8=FIX.4.4|9=73|35=A|34=86|49=DMA_HUB|56=FIXCLIENT1|52=20240730-15:34:35.277|108=30|98=0|10=043|
2024-07-30 17:34:35.286 [57] [FixSender] (WARNING) The Fix connection is open...
2024-07-30 17:34:35.292 [57] [FixSender] (DEBUG) Sending 8=FIX.4.4|9=75|35=1|49=FIXCLIENT1|56=DMA_HUB|34=49|52=20240730-15:34:35|112=synchronized?|10=102|
2024-07-30 17:34:35.294 [57] [FixSender] (DEBUG) Receiving 8=FIX.4.4|9=79|35=0|34=87|49=DMA_HUB|56=FIXCLIENT1|52=20240730-15:34:35.293|112=synchronized?|10=055|
2024-07-30 17:35:05.232 [57] [FixSender] (DEBUG) Receiving 8=FIX.4.4|9=61|35=0|34=88|49=DMA_HUB|56=FIXCLIENT1|52=20240730-15:35:05.232|10=245|
2024-07-30 17:35:05.292 [58] [FixSender] (DEBUG) Sending 8=FIX.4.4|9=57|35=0|49=FIXCLIENT1|56=DMA_HUB|34=50|52=20240730-15:35:05|10=042|
2024-07-30 17:35:35.185 [57] [FixSender] (DEBUG) Receiving 8=FIX.4.4|9=61|35=0|34=89|49=DMA_HUB|56=FIXCLIENT1|52=20240730-15:35:35.184|10=255|
2024-07-30 17:35:35.292 [58] [FixSender] (DEBUG) Sending 8=FIX.4.4|9=57|35=0|49=FIXCLIENT1|56=DMA_HUB|34=51|52=20240730-15:35:35|10=046|
2024-07-30 17:36:02.699 [61] [FixSender] (DEBUG) Sending 8=FIX.4.4|9=193|35=D|49=FIXCLIENT1|56=DMA_HUB|34=52|52=20240730-15:36:02|21=1|11=HS_17223537622|38=200|55=E:07G@XETR|54=1|60=20240730-15:36:02|40=2|59=0|44=2564|48=US3390411052|22=4|15=EUR|207=XETR|1=bram_123|10=129|
2024-07-30 17:36:02.709 [57] [FixSender] (DEBUG) Receiving 8=FIX.4.4|9=235|35=8|34=90|49=DMA_HUB|56=FIXCLIENT1|52=20240730-15:36:02.709|11=HS_17223537622|37=FXltLTlSU|54=1|40=2|59=0|17=2024073062|150=A|39=A|38=200|151=200|14=0|6=0|44=2564|60=20240730-15:36:02.000|22=4|48=US3390411052|207=XETR|15=EUR|55=[N/A]|10=070|
2024-07-30 17:36:11.617 [57] [FixSender] (DEBUG) Receiving 8=FIX.4.4|9=61|35=0|34=91|49=DMA_HUB|56=FIXCLIENT1|52=20240730-15:36:11.615|10=242|
2024-07-30 17:36:32.701 [58] [FixSender] (DEBUG) Sending 8=FIX.4.4|9=57|35=0|49=FIXCLIENT1|56=DMA_HUB|34=53|52=20240730-15:36:32|10=046|
2024-07-30 17:36:41.553 [57] [FixSender] (DEBUG) Receiving 8=FIX.4.4|9=61|35=0|34=92|49=DMA_HUB|56=FIXCLIENT1|52=20240730-15:36:41.552|10=246|
2024-07-30 17:37:02.703 [58] [FixSender] (DEBUG) Sending 8=FIX.4.4|9=57|35=0|49=FIXCLIENT1|56=DMA_HUB|34=54|52=20240730-15:37:02|10=045|
2024-07-30 17:37:11.504 [57] [FixSender] (DEBUG) Receiving 8=FIX.4.4|9=61|35=0|34=93|49=DMA_HUB|56=FIXCLIENT1|52=20240730-15:37:11.504|10=242|
2024-07-30 17:37:32.705 [58] [FixSender] (DEBUG) Sending 8=FIX.4.4|9=57|35=0|49=FIXCLIENT1|56=DMA_HUB|34=55|52=20240730-15:37:32|10=049|
2024-07-30 17:37:41.458 [57] [FixSender] (DEBUG) Receiving 8=FIX.4.4|9=61|35=0|34=94|49=DMA_HUB|56=FIXCLIENT1|52=20240730-15:37:41.457|10=253|
2024-07-30 17:38:02.707 [58] [FixSender] (DEBUG) Sending 8=FIX.4.4|9=57|35=0|49=FIXCLIENT1|56=DMA_HUB|34=56|52=20240730-15:38:02|10=048|
2024-07-30 17:38:11.409 [57] [FixSender] (DEBUG) Receiving 8=FIX.4.4|9=61|35=0|34=95|49=DMA_HUB|56=FIXCLIENT1|52=20240730-15:38:11.408|10=248|
2024-07-30 17:38:32.709 [58] [FixSender] (DEBUG) Sending 8=FIX.4.4|9=57|35=0|49=FIXCLIENT1|56=DMA_HUB|34=57|52=20240730-15:38:32|10=052|
2024-07-30 17:38:41.361 [57] [FixSender] (DEBUG) Receiving 8=FIX.4.4|9=61|35=0|34=96|49=DMA_HUB|56=FIXCLIENT1|52=20240730-15:38:41.361|10=250|
2024-07-30 17:39:02.711 [58] [FixSender] (DEBUG) Sending 8=FIX.4.4|9=57|35=0|49=FIXCLIENT1|56=DMA_HUB|34=58|52=20240730-15:39:02|10=051|
2024-07-30 17:39:11.313 [57] [FixSender] (DEBUG) Receiving 8=FIX.4.4|9=61|35=0|34=97|49=DMA_HUB|56=FIXCLIENT1|52=20240730-15:39:11.312|10=245|
2024-07-30 17:39:32.713 [58] [FixSender] (DEBUG) Sending 8=FIX.4.4|9=57|35=0|49=FIXCLIENT1|56=DMA_HUB|34=59|52=20240730-15:39:32|10=055|
2024-07-30 17:39:41.265 [57] [FixSender] (DEBUG) Receiving 8=FIX.4.4|9=61|35=0|34=98|49=DMA_HUB|56=FIXCLIENT1|52=20240730-15:39:41.265|10=000|
2024-07-30 17:40:02.713 [58] [FixSender] (DEBUG) Sending 8=FIX.4.4|9=57|35=0|49=FIXCLIENT1|56=DMA_HUB|34=60|52=20240730-15:40:02|10=036|
2024-07-30 17:40:11.217 [57] [FixSender] (DEBUG) Receiving 8=FIX.4.4|9=61|35=0|34=99|49=DMA_HUB|56=FIXCLIENT1|52=20240730-15:40:11.216|10=242|
2024-07-30 17:40:32.716 [58] [FixSender] (DEBUG) Sending 8=FIX.4.4|9=57|35=0|49=FIXCLIENT1|56=DMA_HUB|34=61|52=20240730-15:40:32|10=040|
2024-07-30 17:40:41.169 [57] [FixSender] (DEBUG) Receiving 8=FIX.4.4|9=62|35=0|34=100|49=DMA_HUB|56=FIXCLIENT1|52=20240730-15:40:41.169|10=028|
2024-07-30 17:41:02.718 [58] [FixSender] (DEBUG) Sending 8=FIX.4.4|9=57|35=0|49=FIXCLIENT1|56=DMA_HUB|34=62|52=20240730-15:41:02|10=039|
2024-07-30 17:41:11.121 [57] [FixSender] (DEBUG) Receiving 8=FIX.4.4|9=62|35=0|34=101|49=DMA_HUB|56=FIXCLIENT1|52=20240730-15:41:11.120|10=014|
2024-07-30 17:41:32.721 [58] [FixSender] (DEBUG) Sending 8=FIX.4.4|9=57|35=0|49=FIXCLIENT1|56=DMA_HUB|34=63|52=20240730-15:41:32|10=043|
2024-07-30 17:41:41.073 [57] [FixSender] (DEBUG) Receiving 8=FIX.4.4|9=62|35=0|34=102|49=DMA_HUB|56=FIXCLIENT1|52=20240730-15:41:41.072|10=024|
2024-07-30 17:42:02.721 [58] [FixSender] (DEBUG) Sending 8=FIX.4.4|9=57|35=0|49=FIXCLIENT1|56=DMA_HUB|34=64|52=20240730-15:42:02|10=042|
2024-07-30 17:42:11.024 [57] [FixSender] (DEBUG) Receiving 8=FIX.4.4|9=62|35=0|34=103|49=DMA_HUB|56=FIXCLIENT1|52=20240730-15:42:11.024|10=020|
2024-07-30 17:42:32.722 [58] [FixSender] (DEBUG) Sending 8=FIX.4.4|9=57|35=0|49=FIXCLIENT1|56=DMA_HUB|34=65|52=20240730-15:42:32|10=046|
2024-07-30 17:42:40.977 [57] [FixSender] (DEBUG) Receiving 8=FIX.4.4|9=62|35=0|34=104|49=DMA_HUB|56=FIXCLIENT1|52=20240730-15:42:40.976|10=039|
2024-07-30 17:43:02.723 [58] [FixSender] (DEBUG) Sending 8=FIX.4.4|9=57|35=0|49=FIXCLIENT1|56=DMA_HUB|34=66|52=20240730-15:43:02|10=045|
2024-07-30 17:43:10.928 [57] [FixSender] (DEBUG) Receiving 8=FIX.4.4|9=62|35=0|34=105|49=DMA_HUB|56=FIXCLIENT1|52=20240730-15:43:10.928|10=035|
2024-07-30 17:43:32.723 [58] [FixSender] (DEBUG) Sending 8=FIX.4.4|9=57|35=0|49=FIXCLIENT1|56=DMA_HUB|34=67|52=20240730-15:43:32|10=049|
2024-07-30 17:43:40.881 [57] [FixSender] (DEBUG) Receiving 8=FIX.4.4|9=62|35=0|34=106|49=DMA_HUB|56=FIXCLIENT1|52=20240730-15:43:40.880|10=036|
2024-07-30 17:44:02.725 [58] [FixSender] (DEBUG) Sending 8=FIX.4.4|9=57|35=0|49=FIXCLIENT1|56=DMA_HUB|34=68|52=20240730-15:44:02|10=048|
2024-07-30 17:44:10.769 [57] [FixSender] (DEBUG) Receiving 8=FIX.4.4|9=62|35=0|34=107|49=DMA_HUB|56=FIXCLIENT1|52=20240730-15:44:10.769|10=041|
2024-07-30 17:44:32.725 [58] [FixSender] (DEBUG) Sending 8=FIX.4.4|9=57|35=0|49=FIXCLIENT1|56=DMA_HUB|34=69|52=20240730-15:44:32|10=052|
2024-07-30 17:44:40.721 [57] [FixSender] (DEBUG) Receiving 8=FIX.4.4|9=62|35=0|34=108|49=DMA_HUB|56=FIXCLIENT1|52=20240730-15:44:40.720|10=032|
2024-07-30 17:45:02.726 [58] [FixSender] (DEBUG) Sending 8=FIX.4.4|9=57|35=0|49=FIXCLIENT1|56=DMA_HUB|34=70|52=20240730-15:45:02|10=042|
2024-07-30 17:45:10.673 [57] [FixSender] (DEBUG) Receiving 8=FIX.4.4|9=62|35=0|34=109|49=DMA_HUB|56=FIXCLIENT1|52=20240730-15:45:10.673|10=038|
2024-07-30 17:45:32.727 [58] [FixSender] (DEBUG) Sending 8=FIX.4.4|9=57|35=0|49=FIXCLIENT1|56=DMA_HUB|34=71|52=20240730-15:45:32|10=046|
2024-07-30 17:45:40.625 [57] [FixSender] (DEBUG) Receiving 8=FIX.4.4|9=62|35=0|34=110|49=DMA_HUB|56=FIXCLIENT1|52=20240730-15:45:40.624|10=029|
2024-07-30 17:45:42.626 [57] [FixSender] (DEBUG) Receiving 8=FIX.4.4|9=62|35=5|34=111|49=DMA_HUB|56=FIXCLIENT1|52=20240730-15:45:42.625|10=038|
2024-07-30 17:45:42.626 [57] [FixSender] (DEBUG) Sending 8=FIX.4.4|9=79|35=5|49=FIXCLIENT1|56=DMA_HUB|34=72|52=20240730-15:45:42|58=Replying to logout|10=235|
2024-07-30 17:45:42.626 [57] [FixSender] (WARNING) The Fix connection is close...
2024-07-30 17:45:42.628 [57] [FixSender] (INFO) physical cnx finished Connection reset by peer
2024-07-30 17:45:42.628 [57] [FixSender] (WARNING) Disconnected
2024-07-30 17:52:31.210 [62] [FixSender] (INFO) try to connect to : localhost port :12345
2024-07-30 17:52:31.247 [62] [FixSender] (INFO) physical cnx initiated
2024-07-30 17:52:31.276 [62] [FixSender] (DEBUG) Sending 8=FIX.4.4|9=87|35=A|49=FIXCLIENT1|56=DMA_HUB|34=73|52=20240730-15:52:31|98=0|108=30|95=9|96=null/null|10=145|
2024-07-30 17:52:31.291 [62] [FixSender] (DEBUG) Receiving 8=FIX.4.4|9=74|35=A|34=112|49=DMA_HUB|56=FIXCLIENT1|52=20240730-15:52:31.289|108=30|98=0|10=081|
2024-07-30 17:52:31.295 [62] [FixSender] (WARNING) The Fix connection is open...
2024-07-30 17:52:31.302 [62] [FixSender] (DEBUG) Sending 8=FIX.4.4|9=75|35=1|49=FIXCLIENT1|56=DMA_HUB|34=74|52=20240730-15:52:31|112=synchronized?|10=096|
2024-07-30 17:52:31.304 [62] [FixSender] (DEBUG) Receiving 8=FIX.4.4|9=80|35=0|34=113|49=DMA_HUB|56=FIXCLIENT1|52=20240730-15:52:31.303|112=synchronized?|10=073|
2024-07-30 17:52:45.328 [65] [FixSender] (DEBUG) Sending 8=FIX.4.4|9=193|35=D|49=FIXCLIENT1|56=DMA_HUB|34=75|52=20240730-15:52:45|21=1|11=HS_17223547653|38=200|55=E:07G@XETR|54=1|60=20240730-15:52:45|40=2|59=0|44=2863|48=US3390411052|22=4|15=EUR|207=XETR|1=bram_123|10=151|
2024-07-30 17:52:45.343 [62] [FixSender] (DEBUG) Receiving 8=FIX.4.4|9=236|35=8|34=114|49=DMA_HUB|56=FIXCLIENT1|52=20240730-15:52:45.341|11=HS_17223547653|37=FXbEaawSU|54=1|40=2|59=0|17=2024073063|150=A|39=A|38=200|151=200|14=0|6=0|44=2863|60=20240730-15:52:45.000|22=4|48=US3390411052|207=XETR|15=EUR|55=[N/A]|10=114|
2024-07-30 17:52:46.047 [66] [FixSender] (DEBUG) Sending 8=FIX.4.4|9=193|35=D|49=FIXCLIENT1|56=DMA_HUB|34=76|52=20240730-15:52:46|21=1|11=HS_17223547664|38=200|55=E:07G@XETR|54=1|60=20240730-15:52:46|40=2|59=0|44=2738|48=US3390411052|22=4|15=EUR|207=XETR|1=bram_123|10=157|
2024-07-30 17:52:46.050 [62] [FixSender] (DEBUG) Receiving 8=FIX.4.4|9=236|35=8|34=115|49=DMA_HUB|56=FIXCLIENT1|52=20240730-15:52:46.048|11=HS_17223547664|37=FXcEaawSU|54=1|40=2|59=0|17=2024073064|150=A|39=A|38=200|151=200|14=0|6=0|44=2738|60=20240730-15:52:46.000|22=4|48=US3390411052|207=XETR|15=EUR|55=[N/A]|10=126|
2024-07-30 17:53:01.244 [62] [FixSender] (DEBUG) Receiving 8=FIX.4.4|9=62|35=0|34=116|49=DMA_HUB|56=FIXCLIENT1|52=20240730-15:53:01.244|10=029|
2024-07-30 17:53:16.048 [63] [FixSender] (DEBUG) Sending 8=FIX.4.4|9=57|35=0|49=FIXCLIENT1|56=DMA_HUB|34=77|52=20240730-15:53:16|10=053|
2024-07-30 17:53:31.199 [62] [FixSender] (DEBUG) Receiving 8=FIX.4.4|9=62|35=0|34=117|49=DMA_HUB|56=FIXCLIENT1|52=20240730-15:53:31.196|10=039|
2024-07-30 17:53:46.051 [63] [FixSender] (DEBUG) Sending 8=FIX.4.4|9=57|35=0|49=FIXCLIENT1|56=DMA_HUB|34=78|52=20240730-15:53:46|10=057|
2024-07-30 17:53:56.744 [67] [FixSender] (DEBUG) Sending 8=FIX.4.4|9=195|35=D|49=FIXCLIENT1|56=DMA_HUB|34=79|52=20240730-15:53:56|21=1|11=HS_17223548365|38=200|55=E:07G@XETR|54=1|60=20240730-15:53:56|40=2|59=0|44=197.11|48=US3390411052|22=4|15=EUR|207=XETR|1=bram_123|10=002|
2024-07-30 17:53:56.749 [62] [FixSender] (DEBUG) Receiving 8=FIX.4.4|9=238|35=8|34=118|49=DMA_HUB|56=FIXCLIENT1|52=20240730-15:53:56.746|11=HS_17223548365|37=FXdEaawSU|54=1|40=2|59=0|17=2024073065|150=A|39=A|38=200|151=200|14=0|6=0|44=197.11|60=20240730-15:53:56.000|22=4|48=US3390411052|207=XETR|15=EUR|55=[N/A]|10=234|
2024-07-30 17:54:01.148 [62] [FixSender] (DEBUG) Receiving 8=FIX.4.4|9=62|35=0|34=119|49=DMA_HUB|56=FIXCLIENT1|52=20240730-15:54:01.148|10=036|
2024-07-30 17:54:07.727 [62] [FixSender] (DEBUG) Receiving 8=FIX.4.4|9=320|35=8|34=120|49=DMA_HUB|56=FIXCLIENT1|52=20240730-15:54:07.726|11=HS_17223548365|37=FXdEaawSU|198=FXdEaawSU|54=1|40=2|59=0|17=2024073066|150=8|39=8|38=200|151=0|14=0|6=0|44=197.11|60=20240730-15:54:07.724|22=4|48=US3390411052|207=XETR|15=EUR|55=[N/A]|58=Price does not abide by tick rules (rounded price would be 197.0).|10=137|
2024-07-30 17:54:10.722 [68] [FixSender] (DEBUG) Sending 8=FIX.4.4|9=195|35=D|49=FIXCLIENT1|56=DMA_HUB|34=80|52=20240730-15:54:10|21=1|11=HS_17223548506|38=200|55=E:07G@XETR|54=1|60=20240730-15:54:10|40=2|59=0|44=197.11|48=US3390411052|22=4|15=EUR|207=XETR|1=bram_123|10=229|
2024-07-30 17:54:10.726 [62] [FixSender] (DEBUG) Receiving 8=FIX.4.4|9=238|35=8|34=121|49=DMA_HUB|56=FIXCLIENT1|52=20240730-15:54:10.723|11=HS_17223548506|37=FXeEaawSU|54=1|40=2|59=0|17=2024073067|150=A|39=A|38=200|151=200|14=0|6=0|44=197.11|60=20240730-15:54:10.000|22=4|48=US3390411052|207=XETR|15=EUR|55=[N/A]|10=205|
2024-07-30 17:54:13.945 [62] [FixSender] (DEBUG) Receiving 8=FIX.4.4|9=238|35=8|34=122|49=DMA_HUB|56=FIXCLIENT1|52=20240730-15:54:13.945|11=HS_17223548506|37=FXeEaawSU|54=1|40=2|59=0|17=2024073068|150=A|39=A|38=200|151=200|14=0|6=0|44=197.11|60=20240730-15:54:10.000|22=4|48=US3390411052|207=XETR|15=EUR|55=[N/A]|10=216|
2024-07-30 17:54:23.804 [62] [FixSender] (DEBUG) Receiving 8=FIX.4.4|9=235|35=8|34=123|49=DMA_HUB|56=FIXCLIENT1|52=20240730-15:54:23.803|11=HS_17223548506|37=FXeEaawSU|54=1|40=2|59=0|17=2024073069|150=A|39=A|38=200|151=200|14=0|6=0|44=197|60=20240730-15:54:10.000|22=4|48=US3390411052|207=XETR|15=EUR|55=[N/A]|10=065|
2024-07-30 17:54:23.811 [62] [FixSender] (DEBUG) Receiving 8=FIX.4.4|9=250|35=8|34=124|49=DMA_HUB|56=FIXCLIENT1|52=20240730-15:54:23.810|11=HS_17223548506|37=FXeEaawSU|198=CaJSl25004|54=1|40=2|59=0|17=2024073070|150=0|39=0|38=200|151=200|14=0|6=0|44=197|60=20240730-15:54:23.805|22=4|48=US3390411052|207=XETR|15=EUR|55=[N/A]|10=172|
2024-07-30 17:54:23.828 [62] [FixSender] (DEBUG) Receiving 8=FIX.4.4|9=312|35=8|34=125|49=DMA_HUB|56=FIXCLIENT1|52=20240730-15:54:23.827|11=HS_17223548506|37=FXeEaawSU|198=CaJSl25004|54=1|32=200|31=74.5|17=2024073071|527=BCaJSl1|150=F|39=2|38=200|151=0|14=200|6=74.5|44=197|60=20240730-15:54:23.805|22=4|48=US3390411052|207=XETR|15=EUR|55=[N/A]|453=1|448=strmrepl|447=D|452=17|40=2|59=0|10=208|
2024-07-30 17:54:28.838 [69] [FixSender] (DEBUG) Sending 8=FIX.4.4|9=195|35=D|49=FIXCLIENT1|56=DMA_HUB|34=81|52=20240730-15:54:28|21=1|11=HS_17223548687|38=200|55=E:07G@XETR|54=1|60=20240730-15:54:28|40=2|59=0|44=197.11|48=US3390411052|22=4|15=EUR|207=XETR|1=bram_123|10=002|
2024-07-30 17:54:28.844 [62] [FixSender] (DEBUG) Receiving 8=FIX.4.4|9=238|35=8|34=126|49=DMA_HUB|56=FIXCLIENT1|52=20240730-15:54:28.839|11=HS_17223548687|37=FXfEaawSU|54=1|40=2|59=0|17=2024073072|150=A|39=A|38=200|151=200|14=0|6=0|44=197.11|60=20240730-15:54:28.000|22=4|48=US3390411052|207=XETR|15=EUR|55=[N/A]|10=243|
2024-07-30 17:54:31.101 [62] [FixSender] (DEBUG) Receiving 8=FIX.4.4|9=62|35=0|34=127|49=DMA_HUB|56=FIXCLIENT1|52=20240730-15:54:31.100|10=026|
2024-07-30 17:54:58.839 [63] [FixSender] (DEBUG) Sending 8=FIX.4.4|9=57|35=0|49=FIXCLIENT1|56=DMA_HUB|34=82|52=20240730-15:54:58|10=056|
2024-07-30 17:55:01.052 [62] [FixSender] (DEBUG) Receiving 8=FIX.4.4|9=62|35=0|34=128|49=DMA_HUB|56=FIXCLIENT1|52=20240730-15:55:01.052|10=031|
2024-07-30 17:55:03.947 [70] [FixSender] (DEBUG) Sending 8=FIX.4.4|9=180|35=D|49=FIXCLIENT1|56=DMA_HUB|34=83|52=20240730-15:55:03|21=1|11=HS_17223549038|38=2248|55=E:07G@XETR_mauvaius|54=1|60=20240730-15:55:03|40=2|59=0|44=10|15=EUR|207=XETR|1=bram_123|10=253|
2024-07-30 17:55:04.046 [62] [FixSender] (DEBUG) Receiving 8=FIX.4.4|9=222|35=8|34=129|49=DMA_HUB|56=FIXCLIENT1|52=20240730-15:55:04.046|11=HS_17223549038|37=FXgEaawSU|54=1|40=2|59=0|17=2024073073|150=A|39=A|38=2248|151=2248|14=0|6=0|44=10|60=20240730-15:55:03.000|55=uniqueId=E:07G@XETR_mauvaius|10=054|
2024-07-30 17:55:31.006 [62] [FixSender] (DEBUG) Receiving 8=FIX.4.4|9=62|35=0|34=130|49=DMA_HUB|56=FIXCLIENT1|52=20240730-15:55:31.004|10=024|
2024-07-30 17:55:33.950 [63] [FixSender] (DEBUG) Sending 8=FIX.4.4|9=57|35=0|49=FIXCLIENT1|56=DMA_HUB|34=84|52=20240730-15:55:33|10=052|
2024-07-30 17:56:00.957 [62] [FixSender] (DEBUG) Receiving 8=FIX.4.4|9=62|35=0|34=131|49=DMA_HUB|56=FIXCLIENT1|52=20240730-15:56:00.957|10=039|
2024-07-30 17:56:03.952 [63] [FixSender] (DEBUG) Sending 8=FIX.4.4|9=57|35=0|49=FIXCLIENT1|56=DMA_HUB|34=85|52=20240730-15:56:03|10=051|
2024-07-30 17:56:30.909 [62] [FixSender] (DEBUG) Receiving 8=FIX.4.4|9=62|35=0|34=132|49=DMA_HUB|56=FIXCLIENT1|52=20240730-15:56:30.908|10=039|
2024-07-30 17:56:33.306 [62] [FixSender] (DEBUG) Receiving 8=FIX.4.4|9=222|35=8|34=133|49=DMA_HUB|56=FIXCLIENT1|52=20240730-15:56:33.304|11=HS_17223549038|37=FXgEaawSU|54=1|40=2|59=0|17=2024073074|150=A|39=A|38=2248|151=2248|14=0|6=0|44=10|60=20240730-15:55:03.000|55=uniqueId=E:07G@XETR_mauvaius|10=050|
2024-07-30 17:56:33.953 [63] [FixSender] (DEBUG) Sending 8=FIX.4.4|9=57|35=0|49=FIXCLIENT1|56=DMA_HUB|34=86|52=20240730-15:56:33|10=055|
2024-07-30 17:56:46.203 [62] [FixSender] (DEBUG) Receiving 8=FIX.4.4|9=222|35=8|34=134|49=DMA_HUB|56=FIXCLIENT1|52=20240730-15:56:46.202|11=HS_17223549038|37=FXgEaawSU|54=1|40=2|59=0|17=2024073075|150=A|39=A|38=2248|151=2248|14=0|6=0|44=10|60=20240730-15:55:03.000|55=uniqueId=E:07G@XETR_mauvaius|10=053|
2024-07-30 17:56:58.545 [62] [FixSender] (DEBUG) Receiving 8=FIX.4.4|9=222|35=8|34=135|49=DMA_HUB|56=FIXCLIENT1|52=20240730-15:56:58.544|11=HS_17223549038|37=FXgEaawSU|54=1|40=2|59=0|17=2024073076|150=A|39=A|38=2248|151=2248|14=0|6=0|44=10|60=20240730-15:55:03.000|55=uniqueId=E:07G@XETR_mauvaius|10=067|
2024-07-30 17:57:00.863 [62] [FixSender] (DEBUG) Receiving 8=FIX.4.4|9=62|35=0|34=136|49=DMA_HUB|56=FIXCLIENT1|52=20240730-15:57:00.861|10=039|
2024-07-30 17:57:03.956 [63] [FixSender] (DEBUG) Sending 8=FIX.4.4|9=57|35=0|49=FIXCLIENT1|56=DMA_HUB|34=87|52=20240730-15:57:03|10=054|
2024-07-30 17:57:30.813 [62] [FixSender] (DEBUG) Receiving 8=FIX.4.4|9=62|35=0|34=137|49=DMA_HUB|56=FIXCLIENT1|52=20240730-15:57:30.812|10=039|
2024-07-30 17:57:33.958 [63] [FixSender] (DEBUG) Sending 8=FIX.4.4|9=57|35=0|49=FIXCLIENT1|56=DMA_HUB|34=88|52=20240730-15:57:33|10=058|
2024-07-30 17:58:00.765 [62] [FixSender] (DEBUG) Receiving 8=FIX.4.4|9=62|35=0|34=138|49=DMA_HUB|56=FIXCLIENT1|52=20240730-15:58:00.765|10=045|
2024-07-30 17:58:03.959 [63] [FixSender] (DEBUG) Sending 8=FIX.4.4|9=57|35=0|49=FIXCLIENT1|56=DMA_HUB|34=89|52=20240730-15:58:03|10=057|
2024-07-30 17:58:30.718 [62] [FixSender] (DEBUG) Receiving 8=FIX.4.4|9=62|35=0|34=139|49=DMA_HUB|56=FIXCLIENT1|52=20240730-15:58:30.716|10=045|
2024-07-30 17:58:31.006 [62] [FixSender] (DEBUG) Receiving 8=FIX.4.4|9=222|35=8|34=140|49=DMA_HUB|56=FIXCLIENT1|52=20240730-15:58:31.005|11=HS_17223549038|37=FXgEaawSU|54=1|40=2|59=0|17=2024073077|150=A|39=A|38=2248|151=2248|14=0|6=0|44=10|60=20240730-15:55:03.000|55=uniqueId=E:07G@XETR_mauvaius|10=049|
2024-07-30 17:58:33.961 [63] [FixSender] (DEBUG) Sending 8=FIX.4.4|9=57|35=0|49=FIXCLIENT1|56=DMA_HUB|34=90|52=20240730-15:58:33|10=052|
2024-07-30 17:59:00.669 [62] [FixSender] (DEBUG) Receiving 8=FIX.4.4|9=62|35=0|34=141|49=DMA_HUB|56=FIXCLIENT1|52=20240730-15:59:00.669|10=043|
2024-07-30 17:59:03.962 [63] [FixSender] (DEBUG) Sending 8=FIX.4.4|9=57|35=0|49=FIXCLIENT1|56=DMA_HUB|34=91|52=20240730-15:59:03|10=051|
2024-07-30 17:59:30.620 [62] [FixSender] (DEBUG) Receiving 8=FIX.4.4|9=62|35=0|34=142|49=DMA_HUB|56=FIXCLIENT1|52=20240730-15:59:30.620|10=034|
2024-07-30 17:59:33.962 [63] [FixSender] (DEBUG) Sending 8=FIX.4.4|9=57|35=0|49=FIXCLIENT1|56=DMA_HUB|34=92|52=20240730-15:59:33|10=055|
2024-07-30 18:00:00.573 [62] [FixSender] (DEBUG) Receiving 8=FIX.4.4|9=62|35=0|34=143|49=DMA_HUB|56=FIXCLIENT1|52=20240730-16:00:00.572|10=025|
2024-07-30 18:00:03.964 [63] [FixSender] (DEBUG) Sending 8=FIX.4.4|9=57|35=0|49=FIXCLIENT1|56=DMA_HUB|34=93|52=20240730-16:00:03|10=040|
2024-07-30 18:00:30.524 [62] [FixSender] (DEBUG) Receiving 8=FIX.4.4|9=62|35=0|34=144|49=DMA_HUB|56=FIXCLIENT1|52=20240730-16:00:30.524|10=026|
2024-07-30 18:00:33.966 [63] [FixSender] (DEBUG) Sending 8=FIX.4.4|9=57|35=0|49=FIXCLIENT1|56=DMA_HUB|34=94|52=20240730-16:00:33|10=044|
2024-07-30 18:01:00.477 [62] [FixSender] (DEBUG) Receiving 8=FIX.4.4|9=62|35=0|34=145|49=DMA_HUB|56=FIXCLIENT1|52=20240730-16:01:00.476|10=031|
2024-07-30 18:01:03.968 [63] [FixSender] (DEBUG) Sending 8=FIX.4.4|9=57|35=0|49=FIXCLIENT1|56=DMA_HUB|34=95|52=20240730-16:01:03|10=043|
2024-07-30 18:01:30.431 [62] [FixSender] (DEBUG) Receiving 8=FIX.4.4|9=62|35=0|34=146|49=DMA_HUB|56=FIXCLIENT1|52=20240730-16:01:30.429|10=033|
2024-07-30 18:01:33.970 [63] [FixSender] (DEBUG) Sending 8=FIX.4.4|9=57|35=0|49=FIXCLIENT1|56=DMA_HUB|34=96|52=20240730-16:01:33|10=047|
2024-07-30 18:02:00.381 [62] [FixSender] (DEBUG) Receiving 8=FIX.4.4|9=62|35=0|34=147|49=DMA_HUB|56=FIXCLIENT1|52=20240730-16:02:00.380|10=028|
2024-07-30 18:02:03.971 [63] [FixSender] (DEBUG) Sending 8=FIX.4.4|9=57|35=0|49=FIXCLIENT1|56=DMA_HUB|34=97|52=20240730-16:02:03|10=046|
2024-07-30 18:02:30.334 [62] [FixSender] (DEBUG) Receiving 8=FIX.4.4|9=62|35=0|34=148|49=DMA_HUB|56=FIXCLIENT1|52=20240730-16:02:30.333|10=030|
2024-07-30 18:02:33.973 [63] [FixSender] (DEBUG) Sending 8=FIX.4.4|9=57|35=0|49=FIXCLIENT1|56=DMA_HUB|34=98|52=20240730-16:02:33|10=050|
2024-07-30 18:03:00.284 [62] [FixSender] (DEBUG) Receiving 8=FIX.4.4|9=62|35=0|34=149|49=DMA_HUB|56=FIXCLIENT1|52=20240730-16:03:00.284|10=034|
2024-07-30 18:03:03.975 [63] [FixSender] (DEBUG) Sending 8=FIX.4.4|9=57|35=0|49=FIXCLIENT1|56=DMA_HUB|34=99|52=20240730-16:03:03|10=049|
2024-07-30 18:03:30.237 [62] [FixSender] (DEBUG) Receiving 8=FIX.4.4|9=62|35=0|34=150|49=DMA_HUB|56=FIXCLIENT1|52=20240730-16:03:30.237|10=027|
2024-07-30 18:03:33.977 [63] [FixSender] (DEBUG) Sending 8=FIX.4.4|9=58|35=0|49=FIXCLIENT1|56=DMA_HUB|34=100|52=20240730-16:03:33|10=084|
2024-07-30 18:04:00.188 [62] [FixSender] (DEBUG) Receiving 8=FIX.4.4|9=62|35=0|34=151|49=DMA_HUB|56=FIXCLIENT1|52=20240730-16:04:00.188|10=031|
2024-07-30 18:04:03.979 [63] [FixSender] (DEBUG) Sending 8=FIX.4.4|9=58|35=0|49=FIXCLIENT1|56=DMA_HUB|34=101|52=20240730-16:04:03|10=083|
2024-07-30 18:04:22.619 [62] [FixSender] (DEBUG) Receiving 8=FIX.4.4|9=222|35=8|34=152|49=DMA_HUB|56=FIXCLIENT1|52=20240730-16:04:22.616|11=HS_17223549038|37=FXgEaawSU|54=1|40=2|59=0|17=2024073078|150=A|39=A|38=2248|151=2248|14=0|6=0|44=10|60=20240730-15:55:03.000|55=uniqueId=E:07G@XETR_mauvaius|10=053|
2024-07-30 18:04:30.141 [62] [FixSender] (DEBUG) Receiving 8=FIX.4.4|9=62|35=0|34=153|49=DMA_HUB|56=FIXCLIENT1|52=20240730-16:04:30.140|10=024|
2024-07-30 18:04:33.980 [63] [FixSender] (DEBUG) Sending 8=FIX.4.4|9=58|35=0|49=FIXCLIENT1|56=DMA_HUB|34=102|52=20240730-16:04:33|10=087|
2024-07-30 18:05:00.094 [62] [FixSender] (DEBUG) Receiving 8=FIX.4.4|9=62|35=0|34=154|49=DMA_HUB|56=FIXCLIENT1|52=20240730-16:05:00.092|10=029|
2024-07-30 18:05:03.982 [63] [FixSender] (DEBUG) Sending 8=FIX.4.4|9=58|35=0|49=FIXCLIENT1|56=DMA_HUB|34=103|52=20240730-16:05:03|10=086|
2024-07-30 18:05:22.643 [62] [FixSender] (DEBUG) Receiving 8=FIX.4.4|9=222|35=8|34=155|49=DMA_HUB|56=FIXCLIENT1|52=20240730-16:05:22.640|11=HS_17223549038|37=FXgEaawSU|54=1|40=2|59=0|17=2024073079|150=A|39=A|38=2248|151=2248|14=0|6=0|44=10|60=20240730-15:55:03.000|55=uniqueId=E:07G@XETR_mauvaius|10=055|
2024-07-30 18:05:30.045 [62] [FixSender] (DEBUG) Receiving 8=FIX.4.4|9=62|35=0|34=156|49=DMA_HUB|56=FIXCLIENT1|52=20240730-16:05:30.044|10=031|
2024-07-30 18:05:33.984 [63] [FixSender] (DEBUG) Sending 8=FIX.4.4|9=58|35=0|49=FIXCLIENT1|56=DMA_HUB|34=104|52=20240730-16:05:33|10=090|
2024-07-30 18:05:48.369 [62] [FixSender] (DEBUG) Receiving 8=FIX.4.4|9=62|35=5|34=157|49=DMA_HUB|56=FIXCLIENT1|52=20240730-16:05:48.368|10=055|
2024-07-30 18:05:48.369 [62] [FixSender] (DEBUG) Sending 8=FIX.4.4|9=80|35=5|49=FIXCLIENT1|56=DMA_HUB|34=105|52=20240730-16:05:48|58=Replying to logout|10=019|
2024-07-30 18:05:48.370 [62] [FixSender] (WARNING) The Fix connection is close...
2024-07-30 18:05:48.370 [62] [FixSender] (INFO) physical cnx finished Connection reset by peer
2024-07-30 18:05:48.370 [62] [FixSender] (WARNING) Disconnected
2024-07-30 18:12:49.561 [1] [Fixsender] (INFO) (c) 2001-2011 ullink SAS. FixSender. Release 1.11.
2024-07-30 18:12:55.161 [35] [FixSender] (INFO) try to connect to : localhost port :12345
2024-07-30 18:12:55.167 [35] [FixSender] (INFO) physical cnx initiated
2024-07-30 18:12:55.177 [35] [FixSender] (DEBUG) Sending 8=FIX.4.4|9=88|35=A|49=FIXCLIENT1|56=DMA_HUB|34=106|52=20240730-16:12:55|98=0|108=30|95=9|96=null/null|10=194|
2024-07-30 18:12:55.180 [35] [FixSender] (DEBUG) Receiving 8=FIX.4.4|9=74|35=A|34=158|49=DMA_HUB|56=FIXCLIENT1|52=20240730-16:12:55.178|108=30|98=0|10=091|
2024-07-30 18:12:55.181 [35] [FixSender] (WARNING) The Fix connection is open...
2024-07-30 18:12:55.182 [35] [FixSender] (DEBUG) Sending 8=FIX.4.4|9=76|35=1|49=FIXCLIENT1|56=DMA_HUB|34=107|52=20240730-16:12:55|112=synchronized?|10=145|
2024-07-30 18:12:55.186 [35] [FixSender] (DEBUG) Receiving 8=FIX.4.4|9=80|35=0|34=159|49=DMA_HUB|56=FIXCLIENT1|52=20240730-16:12:55.185|112=synchronized?|10=094|
2024-07-30 18:13:25.133 [35] [FixSender] (DEBUG) Receiving 8=FIX.4.4|9=62|35=0|34=160|49=DMA_HUB|56=FIXCLIENT1|52=20240730-16:13:25.132|10=027|
2024-07-30 18:13:25.183 [36] [FixSender] (DEBUG) Sending 8=FIX.4.4|9=58|35=0|49=FIXCLIENT1|56=DMA_HUB|34=108|52=20240730-16:13:25|10=094|
2024-07-30 18:13:55.085 [35] [FixSender] (DEBUG) Receiving 8=FIX.4.4|9=62|35=0|34=161|49=DMA_HUB|56=FIXCLIENT1|52=20240730-16:13:55.084|10=037|
2024-07-30 18:13:55.183 [36] [FixSender] (DEBUG) Sending 8=FIX.4.4|9=58|35=0|49=FIXCLIENT1|56=DMA_HUB|34=109|52=20240730-16:13:55|10=098|
2024-07-30 18:14:25.036 [35] [FixSender] (DEBUG) Receiving 8=FIX.4.4|9=62|35=0|34=162|49=DMA_HUB|56=FIXCLIENT1|52=20240730-16:14:25.036|10=033|
2024-07-30 18:14:25.183 [36] [FixSender] (DEBUG) Sending 8=FIX.4.4|9=58|35=0|49=FIXCLIENT1|56=DMA_HUB|34=110|52=20240730-16:14:25|10=088|
2024-07-30 18:14:54.989 [35] [FixSender] (DEBUG) Receiving 8=FIX.4.4|9=62|35=0|34=163|49=DMA_HUB|56=FIXCLIENT1|52=20240730-16:14:54.988|10=052|
2024-07-30 18:14:55.184 [36] [FixSender] (DEBUG) Sending 8=FIX.4.4|9=58|35=0|49=FIXCLIENT1|56=DMA_HUB|34=111|52=20240730-16:14:55|10=092|
2024-07-30 18:15:24.941 [35] [FixSender] (DEBUG) Receiving 8=FIX.4.4|9=62|35=0|34=164|49=DMA_HUB|56=FIXCLIENT1|52=20240730-16:15:24.940|10=039|
2024-07-30 18:15:25.184 [36] [FixSender] (DEBUG) Sending 8=FIX.4.4|9=58|35=0|49=FIXCLIENT1|56=DMA_HUB|34=112|52=20240730-16:15:25|10=091|
2024-07-30 18:15:54.893 [35] [FixSender] (DEBUG) Receiving 8=FIX.4.4|9=62|35=0|34=165|49=DMA_HUB|56=FIXCLIENT1|52=20240730-16:15:54.892|10=049|
2024-07-30 18:15:55.185 [36] [FixSender] (DEBUG) Sending 8=FIX.4.4|9=58|35=0|49=FIXCLIENT1|56=DMA_HUB|34=113|52=20240730-16:15:55|10=095|
2024-07-30 18:16:24.845 [35] [FixSender] (DEBUG) Receiving 8=FIX.4.4|9=62|35=0|34=166|49=DMA_HUB|56=FIXCLIENT1|52=20240730-16:16:24.845|10=046|
2024-07-30 18:16:25.186 [36] [FixSender] (DEBUG) Sending 8=FIX.4.4|9=58|35=0|49=FIXCLIENT1|56=DMA_HUB|34=114|52=20240730-16:16:25|10=094|
2024-07-30 18:16:54.200 [38] [FixSender] (DEBUG) Sending 8=FIX.4.4|9=181|35=D|49=FIXCLIENT1|56=DMA_HUB|34=115|52=20240730-16:16:54|21=1|11=HS_17223562140|38=4722|55=E:07G@XETR_mauvaius|54=1|60=20240730-16:16:54|40=2|59=0|44=10|15=EUR|207=XETR|1=bram_123|10=038|
2024-07-30 18:16:54.311 [35] [FixSender] (DEBUG) Receiving 8=FIX.4.4|9=222|35=8|34=167|49=DMA_HUB|56=FIXCLIENT1|52=20240730-16:16:54.310|11=HS_17223562140|37=FXlLdrhDW|54=1|40=2|59=0|17=2024073080|150=A|39=A|38=4722|151=4722|14=0|6=0|44=10|60=20240730-16:16:54.000|55=uniqueId=E:07G@XETR_mauvaius|10=046|
2024-07-30 18:16:54.797 [35] [FixSender] (DEBUG) Receiving 8=FIX.4.4|9=62|35=0|34=168|49=DMA_HUB|56=FIXCLIENT1|52=20240730-16:16:54.796|10=056|
2024-07-30 18:17:09.486 [35] [FixSender] (DEBUG) Receiving 8=FIX.4.4|9=204|35=8|34=169|49=DMA_HUB|56=FIXCLIENT1|52=20240730-16:17:09.485|11=HS_17223562140|37=FXlLdrhDW|54=1|40=2|59=0|17=2024073081|150=A|39=A|38=4722|151=4722|14=0|6=0|44=10|60=20240730-16:16:54.000|55=E:07G@XETR|10=244|
2024-07-30 18:17:09.507 [35] [FixSender] (DEBUG) Receiving 8=FIX.4.4|9=219|35=8|34=170|49=DMA_HUB|56=FIXCLIENT1|52=20240730-16:17:09.506|11=HS_17223562140|37=FXlLdrhDW|198=YNSXl33df1|54=1|40=2|59=0|17=2024073082|150=0|39=0|38=4722|151=4722|14=0|6=0|44=10|60=20240730-16:17:09.501|55=E:07G@XETR|10=209|
2024-07-30 18:17:24.200 [36] [FixSender] (DEBUG) Sending 8=FIX.4.4|9=58|35=0|49=FIXCLIENT1|56=DMA_HUB|34=116|52=20240730-16:17:24|10=096|
2024-07-30 18:17:24.749 [35] [FixSender] (DEBUG) Receiving 8=FIX.4.4|9=62|35=0|34=171|49=DMA_HUB|56=FIXCLIENT1|52=20240730-16:17:24.749|10=046|
2024-07-30 18:17:28.819 [40] [FixSender] (DEBUG) Sending 8=FIX.4.4|9=196|35=G|49=FIXCLIENT1|56=DMA_HUB|34=117|52=20240730-16:17:28|21=1|11=17223562480|38=5000|55=E:07G@XETR_mauvaius|54=1|60=20240730-16:16:54|40=2|59=0|44=10|15=EUR|207=XETR|1=bram_123|41=HS_17223562140|10=004|
2024-07-30 18:17:28.823 [35] [FixSender] (DEBUG) Receiving 8=FIX.4.4|9=234|35=8|34=172|49=DMA_HUB|56=FIXCLIENT1|52=20240730-16:17:28.821|11=17223562480|41=HS_17223562140|37=FXlLdrhDW|198=YNSXl33df1|54=1|40=2|59=0|17=2024073083|150=E|39=E|38=5000|151=5000|14=0|6=0|44=10|60=20240730-16:17:28.820|55=E:07G@XETR|10=200|
2024-07-30 18:17:28.827 [35] [FixSender] (DEBUG) Receiving 8=FIX.4.4|9=234|35=8|34=173|49=DMA_HUB|56=FIXCLIENT1|52=20240730-16:17:28.826|11=17223562480|41=HS_17223562140|37=FXlLdrhDW|198=YNSXl33df1|54=1|40=2|59=0|17=2024073084|150=5|39=0|38=5000|151=5000|14=0|6=0|44=10|60=20240730-16:17:28.824|55=E:07G@XETR|10=174|
2024-07-30 18:17:54.701 [35] [FixSender] (DEBUG) Receiving 8=FIX.4.4|9=62|35=0|34=174|49=DMA_HUB|56=FIXCLIENT1|52=20240730-16:17:54.700|10=039|
2024-07-30 18:17:58.819 [36] [FixSender] (DEBUG) Sending 8=FIX.4.4|9=58|35=0|49=FIXCLIENT1|56=DMA_HUB|34=118|52=20240730-16:17:58|10=105|
2024-07-30 18:18:24.656 [35] [FixSender] (DEBUG) Receiving 8=FIX.4.4|9=62|35=0|34=175|49=DMA_HUB|56=FIXCLIENT1|52=20240730-16:18:24.653|10=045|
2024-07-30 18:18:28.822 [36] [FixSender] (DEBUG) Sending 8=FIX.4.4|9=58|35=0|49=FIXCLIENT1|56=DMA_HUB|34=119|52=20240730-16:18:28|10=104|
2024-07-30 18:18:54.605 [35] [FixSender] (DEBUG) Receiving 8=FIX.4.4|9=62|35=0|34=176|49=DMA_HUB|56=FIXCLIENT1|52=20240730-16:18:54.605|10=046|
2024-07-30 18:18:58.823 [36] [FixSender] (DEBUG) Sending 8=FIX.4.4|9=58|35=0|49=FIXCLIENT1|56=DMA_HUB|34=120|52=20240730-16:18:58|10=099|
2024-07-30 18:19:24.557 [35] [FixSender] (DEBUG) Receiving 8=FIX.4.4|9=62|35=0|34=177|49=DMA_HUB|56=FIXCLIENT1|52=20240730-16:19:24.556|10=050|
2024-07-30 18:19:28.824 [36] [FixSender] (DEBUG) Sending 8=FIX.4.4|9=58|35=0|49=FIXCLIENT1|56=DMA_HUB|34=121|52=20240730-16:19:28|10=098|
2024-07-30 18:19:54.509 [35] [FixSender] (DEBUG) Receiving 8=FIX.4.4|9=62|35=0|34=178|49=DMA_HUB|56=FIXCLIENT1|52=20240730-16:19:54.509|10=052|
2024-07-30 18:19:58.824 [36] [FixSender] (DEBUG) Sending 8=FIX.4.4|9=58|35=0|49=FIXCLIENT1|56=DMA_HUB|34=122|52=20240730-16:19:58|10=102|
2024-07-30 18:20:24.461 [35] [FixSender] (DEBUG) Receiving 8=FIX.4.4|9=62|35=0|34=179|49=DMA_HUB|56=FIXCLIENT1|52=20240730-16:20:24.460|10=038|
2024-07-30 18:20:28.825 [36] [FixSender] (DEBUG) Sending 8=FIX.4.4|9=58|35=0|49=FIXCLIENT1|56=DMA_HUB|34=123|52=20240730-16:20:28|10=092|
2024-07-30 18:20:54.413 [35] [FixSender] (DEBUG) Receiving 8=FIX.4.4|9=62|35=0|34=180|49=DMA_HUB|56=FIXCLIENT1|52=20240730-16:20:54.413|10=031|
2024-07-30 18:20:58.826 [36] [FixSender] (DEBUG) Sending 8=FIX.4.4|9=58|35=0|49=FIXCLIENT1|56=DMA_HUB|34=124|52=20240730-16:20:58|10=096|
2024-07-30 18:21:24.365 [35] [FixSender] (DEBUG) Receiving 8=FIX.4.4|9=62|35=0|34=181|49=DMA_HUB|56=FIXCLIENT1|52=20240730-16:21:24.364|10=035|
2024-07-30 18:21:28.827 [36] [FixSender] (DEBUG) Sending 8=FIX.4.4|9=58|35=0|49=FIXCLIENT1|56=DMA_HUB|34=125|52=20240730-16:21:28|10=095|
2024-07-30 18:21:54.317 [35] [FixSender] (DEBUG) Receiving 8=FIX.4.4|9=62|35=0|34=182|49=DMA_HUB|56=FIXCLIENT1|52=20240730-16:21:54.316|10=036|
2024-07-30 18:21:58.827 [36] [FixSender] (DEBUG) Sending 8=FIX.4.4|9=58|35=0|49=FIXCLIENT1|56=DMA_HUB|34=126|52=20240730-16:21:58|10=099|
2024-07-30 18:22:24.269 [35] [FixSender] (DEBUG) Receiving 8=FIX.4.4|9=62|35=0|34=183|49=DMA_HUB|56=FIXCLIENT1|52=20240730-16:22:24.268|10=041|
2024-07-30 18:22:28.828 [36] [FixSender] (DEBUG) Sending 8=FIX.4.4|9=58|35=0|49=FIXCLIENT1|56=DMA_HUB|34=127|52=20240730-16:22:28|10=098|
2024-07-30 18:22:54.222 [35] [FixSender] (DEBUG) Receiving 8=FIX.4.4|9=62|35=0|34=184|49=DMA_HUB|56=FIXCLIENT1|52=20240730-16:22:54.221|10=034|
2024-07-30 18:22:58.829 [36] [FixSender] (DEBUG) Sending 8=FIX.4.4|9=58|35=0|49=FIXCLIENT1|56=DMA_HUB|34=128|52=20240730-16:22:58|10=102|
2024-07-30 18:23:24.173 [35] [FixSender] (DEBUG) Receiving 8=FIX.4.4|9=62|35=0|34=185|49=DMA_HUB|56=FIXCLIENT1|52=20240730-16:23:24.172|10=038|
2024-07-30 18:23:28.830 [36] [FixSender] (DEBUG) Sending 8=FIX.4.4|9=58|35=0|49=FIXCLIENT1|56=DMA_HUB|34=129|52=20240730-16:23:28|10=101|
2024-07-30 18:23:54.124 [35] [FixSender] (DEBUG) Receiving 8=FIX.4.4|9=62|35=0|34=186|49=DMA_HUB|56=FIXCLIENT1|52=20240730-16:23:54.124|10=039|
2024-07-30 18:23:58.830 [36] [FixSender] (DEBUG) Sending 8=FIX.4.4|9=58|35=0|49=FIXCLIENT1|56=DMA_HUB|34=130|52=20240730-16:23:58|10=096|
2024-07-30 18:24:24.077 [35] [FixSender] (DEBUG) Receiving 8=FIX.4.4|9=62|35=0|34=187|49=DMA_HUB|56=FIXCLIENT1|52=20240730-16:24:24.076|10=044|
2024-07-30 18:24:28.831 [36] [FixSender] (DEBUG) Sending 8=FIX.4.4|9=58|35=0|49=FIXCLIENT1|56=DMA_HUB|34=131|52=20240730-16:24:28|10=095|
2024-07-30 18:24:54.029 [35] [FixSender] (DEBUG) Receiving 8=FIX.4.4|9=62|35=0|34=188|49=DMA_HUB|56=FIXCLIENT1|52=20240730-16:24:54.028|10=045|
2024-07-30 18:24:58.831 [36] [FixSender] (DEBUG) Sending 8=FIX.4.4|9=58|35=0|49=FIXCLIENT1|56=DMA_HUB|34=132|52=20240730-16:24:58|10=099|
2024-07-30 18:25:23.981 [35] [FixSender] (DEBUG) Receiving 8=FIX.4.4|9=62|35=0|34=189|49=DMA_HUB|56=FIXCLIENT1|52=20240730-16:25:23.980|10=050|
2024-07-30 18:25:28.832 [36] [FixSender] (DEBUG) Sending 8=FIX.4.4|9=58|35=0|49=FIXCLIENT1|56=DMA_HUB|34=133|52=20240730-16:25:28|10=098|
2024-07-30 18:25:53.933 [35] [FixSender] (DEBUG) Receiving 8=FIX.4.4|9=62|35=0|34=190|49=DMA_HUB|56=FIXCLIENT1|52=20240730-16:25:53.932|10=042|
2024-07-30 18:25:58.833 [36] [FixSender] (DEBUG) Sending 8=FIX.4.4|9=58|35=0|49=FIXCLIENT1|56=DMA_HUB|34=134|52=20240730-16:25:58|10=102|
2024-07-30 18:26:23.885 [35] [FixSender] (DEBUG) Receiving 8=FIX.4.4|9=62|35=0|34=191|49=DMA_HUB|56=FIXCLIENT1|52=20240730-16:26:23.884|10=047|
2024-07-30 18:26:28.834 [36] [FixSender] (DEBUG) Sending 8=FIX.4.4|9=58|35=0|49=FIXCLIENT1|56=DMA_HUB|34=135|52=20240730-16:26:28|10=101|
2024-07-30 18:26:53.837 [35] [FixSender] (DEBUG) Receiving 8=FIX.4.4|9=62|35=0|34=192|49=DMA_HUB|56=FIXCLIENT1|52=20240730-16:26:53.836|10=048|
2024-07-30 18:26:58.834 [36] [FixSender] (DEBUG) Sending 8=FIX.4.4|9=58|35=0|49=FIXCLIENT1|56=DMA_HUB|34=136|52=20240730-16:26:58|10=105|
2024-07-30 18:27:23.789 [35] [FixSender] (DEBUG) Receiving 8=FIX.4.4|9=62|35=0|34=193|49=DMA_HUB|56=FIXCLIENT1|52=20240730-16:27:23.789|10=054|
2024-07-30 18:27:28.834 [36] [FixSender] (DEBUG) Sending 8=FIX.4.4|9=58|35=0|49=FIXCLIENT1|56=DMA_HUB|34=137|52=20240730-16:27:28|10=104|
2024-07-30 18:27:53.740 [35] [FixSender] (DEBUG) Receiving 8=FIX.4.4|9=62|35=0|34=194|49=DMA_HUB|56=FIXCLIENT1|52=20240730-16:27:53.740|10=045|
2024-07-30 18:27:58.835 [36] [FixSender] (DEBUG) Sending 8=FIX.4.4|9=58|35=0|49=FIXCLIENT1|56=DMA_HUB|34=138|52=20240730-16:27:58|10=108|
2024-07-30 18:28:23.693 [35] [FixSender] (DEBUG) Receiving 8=FIX.4.4|9=62|35=0|34=195|49=DMA_HUB|56=FIXCLIENT1|52=20240730-16:28:23.692|10=050|
