2024-02-13  [44] [FixSender] (DEBUG) Receiving 8=FIX.4.4|9=63|35=0|34=1452|49=DMA_HUB|56=FIXCLIENT1|52=20240213-08:42:01.466|10=084|
2024-02-13 09:42:24.706 [45] [FixSender] (DEBUG) Sending 8=FIX.4.4|9=59|35=0|49=FIXCLIENT1|56=DMA_HUB|34=1443|52=20240213-08:42:24|10=144|
2024-02-13 09:42:31.467 [44] [FixSender] (DEBUG) Receiving 8=FIX.4.4|9=63|35=0|34=1453|49=DMA_HUB|56=FIXCLIENT1|52=20240213-08:42:31.467|10=089|
2024-02-13 09:42:54.721 [45] [FixSender] (DEBUG) Sending 8=FIX.4.4|9=59|35=0|49=FIXCLIENT1|56=DMA_HUB|34=1444|52=20240213-08:42:54|10=148|
2024-02-13 09:43:01.425 [44] [FixSender] (DEBUG) Receiving 8=FIX.4.4|9=63|35=0|34=1454|49=DMA_HUB|56=FIXCLIENT1|52=20240213-08:43:01.425|10=082|
2024-02-13 09:43:24.735 [45] [FixSender] (DEBUG) Sending 8=FIX.4.4|9=59|35=0|49=FIXCLIENT1|56=DMA_HUB|34=1445|52=20240213-08:43:24|10=147|
2024-02-13 09:43:31.372 [44] [FixSender] (DEBUG) Receiving 8=FIX.4.4|9=63|35=0|34=1455|49=DMA_HUB|56=FIXCLIENT1|52=20240213-08:43:31.372|10=087|
2024-02-13 09:43:54.744 [45] [FixSender] (DEBUG) Sending 8=FIX.4.4|9=59|35=0|49=FIXCLIENT1|56=DMA_HUB|34=1446|52=20240213-08:43:54|10=151|
2024-02-13 09:44:01.326 [44] [FixSender] (DEBUG) Receiving 8=FIX.4.4|9=63|35=0|34=1456|49=DMA_HUB|56=FIXCLIENT1|52=20240213-08:44:01.326|10=085|
2024-02-13 09:44:24.746 [45] [FixSender] (DEBUG) Sending 8=FIX.4.4|9=59|35=0|49=FIXCLIENT1|56=DMA_HUB|34=1447|52=20240213-08:44:24|10=150|
2024-02-13 09:44:31.274 [44] [FixSender] (DEBUG) Receiving 8=FIX.4.4|9=63|35=0|34=1457|49=DMA_HUB|56=FIXCLIENT1|52=20240213-08:44:31.274|10=091|
2024-02-13 09:44:54.750 [45] [FixSender] (DEBUG) Sending 8=FIX.4.4|9=59|35=0|49=FIXCLIENT1|56=DMA_HUB|34=1448|52=20240213-08:44:54|10=154|
2024-02-13 09:45:01.297 [44] [FixSender] (DEBUG) Receiving 8=FIX.4.4|9=63|35=0|34=1458|49=DMA_HUB|56=FIXCLIENT1|52=20240213-08:45:01.297|10=095|
2024-02-13 09:45:24.763 [45] [FixSender] (DEBUG) Sending 8=FIX.4.4|9=59|35=0|49=FIXCLIENT1|56=DMA_HUB|34=1449|52=20240213-08:45:24|10=153|
2024-02-13 09:45:31.252 [44] [FixSender] (DEBUG) Receiving 8=FIX.4.4|9=63|35=0|34=1459|49=DMA_HUB|56=FIXCLIENT1|52=20240213-08:45:31.252|10=090|
2024-02-13 09:45:54.772 [45] [FixSender] (DEBUG) Sending 8=FIX.4.4|9=59|35=0|49=FIXCLIENT1|56=DMA_HUB|34=1450|52=20240213-08:45:54|10=148|
2024-02-13 09:46:01.205 [44] [FixSender] (DEBUG) Receiving 8=FIX.4.4|9=63|35=0|34=1460|49=DMA_HUB|56=FIXCLIENT1|52=20240213-08:46:01.205|10=078|
2024-02-13 09:46:24.781 [45] [FixSender] (DEBUG) Sending 8=FIX.4.4|9=59|35=0|49=FIXCLIENT1|56=DMA_HUB|34=1451|52=20240213-08:46:24|10=147|
2024-02-13 09:46:31.147 [44] [FixSender] (DEBUG) Receiving 8=FIX.4.4|9=63|35=0|34=1461|49=DMA_HUB|56=FIXCLIENT1|52=20240213-08:46:31.146|10=086|
2024-02-13 09:46:54.793 [45] [FixSender] (DEBUG) Sending 8=FIX.4.4|9=59|35=0|49=FIXCLIENT1|56=DMA_HUB|34=1452|52=20240213-08:46:54|10=151|
2024-02-13 09:47:01.097 [44] [FixSender] (DEBUG) Receiving 8=FIX.4.4|9=63|35=0|34=1462|49=DMA_HUB|56=FIXCLIENT1|52=20240213-08:47:01.097|10=090|
2024-02-13 09:47:24.802 [45] [FixSender] (DEBUG) Sending 8=FIX.4.4|9=59|35=0|49=FIXCLIENT1|56=DMA_HUB|34=1453|52=20240213-08:47:24|10=150|
2024-02-13 09:47:31.062 [44] [FixSender] (DEBUG) Receiving 8=FIX.4.4|9=63|35=0|34=1463|49=DMA_HUB|56=FIXCLIENT1|52=20240213-08:47:31.062|10=086|
2024-02-13 09:47:54.812 [45] [FixSender] (DEBUG) Sending 8=FIX.4.4|9=59|35=0|49=FIXCLIENT1|56=DMA_HUB|34=1454|52=20240213-08:47:54|10=154|
2024-02-13 09:48:01.001 [44] [FixSender] (DEBUG) Receiving 8=FIX.4.4|9=63|35=0|34=1464|49=DMA_HUB|56=FIXCLIENT1|52=20240213-08:48:01.001|10=078|
2024-02-13 09:48:24.820 [45] [FixSender] (DEBUG) Sending 8=FIX.4.4|9=59|35=0|49=FIXCLIENT1|56=DMA_HUB|34=1455|52=20240213-08:48:24|10=153|
2024-02-13 09:48:30.962 [44] [FixSender] (DEBUG) Receiving 8=FIX.4.4|9=63|35=0|34=1465|49=DMA_HUB|56=FIXCLIENT1|52=20240213-08:48:30.961|10=096|
2024-02-13 09:48:54.821 [45] [FixSender] (DEBUG) Sending 8=FIX.4.4|9=59|35=0|49=FIXCLIENT1|56=DMA_HUB|34=1456|52=20240213-08:48:54|10=157|
2024-02-13 09:49:00.906 [44] [FixSender] (DEBUG) Receiving 8=FIX.4.4|9=63|35=0|34=1466|49=DMA_HUB|56=FIXCLIENT1|52=20240213-08:49:00.906|10=094|
2024-02-13 09:49:19.821 [44] [FixSender] (DEBUG) Receiving 8=FIX.4.4|9=472|35=8|34=1467|49=DMA_HUB|56=FIXCLIENT1|52=20240213-08:49:19.820|11=FXB1sYF6N|37=FXB1sYF6N|198=FXB1sYF6N|54=2|40=2|59=0|17=202402121027|150=8|39=8|38=4991|151=0|14=0|6=0|44=197|60=20240213-08:49:19.818|55=E:07G@XETR|58=Could not create order book persistence: File locked by another FFS instance (possibly in another process). File = C:\Users\rli\Horizon\Server\Agent\environments\LTOMS-1\processes\STREAM-REPL-XETRA\run\.\InternalMarketDriver-internal-stream-replicator-1\|10=145|
2024-02-13 09:49:24.825 [45] [FixSender] (DEBUG) Sending 8=FIX.4.4|9=59|35=0|49=FIXCLIENT1|56=DMA_HUB|34=1457|52=20240213-08:49:24|10=156|
2024-02-13 09:49:30.872 [44] [FixSender] (DEBUG) Receiving 8=FIX.4.4|9=63|35=0|34=1468|49=DMA_HUB|56=FIXCLIENT1|52=20240213-08:49:30.870|10=099|
2024-02-13 09:49:54.835 [45] [FixSender] (DEBUG) Sending 8=FIX.4.4|9=59|35=0|49=FIXCLIENT1|56=DMA_HUB|34=1458|52=20240213-08:49:54|10=160|
2024-02-13 09:50:00.822 [44] [FixSender] (DEBUG) Receiving 8=FIX.4.4|9=63|35=0|34=1469|49=DMA_HUB|56=FIXCLIENT1|52=20240213-08:50:00.822|10=086|
2024-02-13 09:50:24.844 [45] [FixSender] (DEBUG) Sending 8=FIX.4.4|9=59|35=0|49=FIXCLIENT1|56=DMA_HUB|34=1459|52=20240213-08:50:24|10=150|
2024-02-13 09:50:30.773 [44] [FixSender] (DEBUG) Receiving 8=FIX.4.4|9=63|35=0|34=1470|49=DMA_HUB|56=FIXCLIENT1|52=20240213-08:50:30.772|10=085|
2024-02-13 09:50:54.846 [45] [FixSender] (DEBUG) Sending 8=FIX.4.4|9=59|35=0|49=FIXCLIENT1|56=DMA_HUB|34=1460|52=20240213-08:50:54|10=145|
2024-02-13 09:51:00.712 [44] [FixSender] (DEBUG) Receiving 8=FIX.4.4|9=63|35=0|34=1471|49=DMA_HUB|56=FIXCLIENT1|52=20240213-08:51:00.712|10=078|
2024-02-13 09:51:24.857 [45] [FixSender] (DEBUG) Sending 8=FIX.4.4|9=59|35=0|49=FIXCLIENT1|56=DMA_HUB|34=1461|52=20240213-08:51:24|10=144|
2024-02-13 09:51:30.678 [44] [FixSender] (DEBUG) Receiving 8=FIX.4.4|9=63|35=0|34=1472|49=DMA_HUB|56=FIXCLIENT1|52=20240213-08:51:30.677|10=092|
2024-02-13 09:51:54.865 [45] [FixSender] (DEBUG) Sending 8=FIX.4.4|9=59|35=0|49=FIXCLIENT1|56=DMA_HUB|34=1462|52=20240213-08:51:54|10=148|
2024-02-13 09:52:00.626 [44] [FixSender] (DEBUG) Receiving 8=FIX.4.4|9=63|35=0|34=1473|49=DMA_HUB|56=FIXCLIENT1|52=20240213-08:52:00.626|10=085|
2024-02-13 09:52:24.866 [45] [FixSender] (DEBUG) Sending 8=FIX.4.4|9=59|35=0|49=FIXCLIENT1|56=DMA_HUB|34=1463|52=20240213-08:52:24|10=147|
2024-02-13 09:52:30.568 [44] [FixSender] (DEBUG) Receiving 8=FIX.4.4|9=63|35=0|34=1474|49=DMA_HUB|56=FIXCLIENT1|52=20240213-08:52:30.568|10=094|
2024-02-13 09:52:54.866 [45] [FixSender] (DEBUG) Sending 8=FIX.4.4|9=59|35=0|49=FIXCLIENT1|56=DMA_HUB|34=1464|52=20240213-08:52:54|10=151|
2024-02-13 09:53:00.519 [44] [FixSender] (DEBUG) Receiving 8=FIX.4.4|9=63|35=0|34=1475|49=DMA_HUB|56=FIXCLIENT1|52=20240213-08:53:00.519|10=089|
2024-02-13 09:53:10.055 [44] [FixSender] (DEBUG) Receiving 8=FIX.4.4|9=472|35=8|34=1476|49=DMA_HUB|56=FIXCLIENT1|52=20240213-08:53:10.054|11=FX5xrYF6N|37=FX5xrYF6N|198=FX5xrYF6N|54=2|40=2|59=0|17=202402121028|150=8|39=8|38=4975|151=0|14=0|6=0|44=197|60=20240213-08:53:10.053|55=E:07G@XETR|58=Could not create order book persistence: File locked by another FFS instance (possibly in another process). File = C:\Users\rli\Horizon\Server\Agent\environments\LTOMS-1\processes\STREAM-REPL-XETRA\run\.\InternalMarketDriver-internal-stream-replicator-1\|10=025|
2024-02-13 09:53:24.866 [45] [FixSender] (DEBUG) Sending 8=FIX.4.4|9=59|35=0|49=FIXCLIENT1|56=DMA_HUB|34=1465|52=20240213-08:53:24|10=150|
2024-02-13 09:53:30.471 [44] [FixSender] (DEBUG) Receiving 8=FIX.4.4|9=63|35=0|34=1477|49=DMA_HUB|56=FIXCLIENT1|52=20240213-08:53:30.471|10=091|
2024-02-13 09:53:54.867 [45] [FixSender] (DEBUG) Sending 8=FIX.4.4|9=59|35=0|49=FIXCLIENT1|56=DMA_HUB|34=1466|52=20240213-08:53:54|10=154|
2024-02-13 09:54:00.423 [44] [FixSender] (DEBUG) Receiving 8=FIX.4.4|9=63|35=0|34=1478|49=DMA_HUB|56=FIXCLIENT1|52=20240213-08:54:00.423|10=087|
2024-02-13 09:54:24.870 [45] [FixSender] (DEBUG) Sending 8=FIX.4.4|9=59|35=0|49=FIXCLIENT1|56=DMA_HUB|34=1467|52=20240213-08:54:24|10=153|
2024-02-13 09:54:30.375 [44] [FixSender] (DEBUG) Receiving 8=FIX.4.4|9=63|35=0|34=1479|49=DMA_HUB|56=FIXCLIENT1|52=20240213-08:54:30.375|10=097|
2024-02-13 09:54:54.873 [45] [FixSender] (DEBUG) Sending 8=FIX.4.4|9=59|35=0|49=FIXCLIENT1|56=DMA_HUB|34=1468|52=20240213-08:54:54|10=157|
2024-02-13 09:55:00.329 [44] [FixSender] (DEBUG) Receiving 8=FIX.4.4|9=63|35=0|34=1480|49=DMA_HUB|56=FIXCLIENT1|52=20240213-08:55:00.327|10=084|
2024-02-13 09:55:24.876 [45] [FixSender] (DEBUG) Sending 8=FIX.4.4|9=59|35=0|49=FIXCLIENT1|56=DMA_HUB|34=1469|52=20240213-08:55:24|10=156|
2024-02-13 09:55:30.280 [44] [FixSender] (DEBUG) Receiving 8=FIX.4.4|9=63|35=0|34=1481|49=DMA_HUB|56=FIXCLIENT1|52=20240213-08:55:30.280|10=086|
2024-02-13 09:55:54.876 [45] [FixSender] (DEBUG) Sending 8=FIX.4.4|9=59|35=0|49=FIXCLIENT1|56=DMA_HUB|34=1470|52=20240213-08:55:54|10=151|
2024-02-13 09:56:00.232 [44] [FixSender] (DEBUG) Receiving 8=FIX.4.4|9=63|35=0|34=1482|49=DMA_HUB|56=FIXCLIENT1|52=20240213-08:56:00.232|10=082|
2024-02-13 09:56:24.878 [45] [FixSender] (DEBUG) Sending 8=FIX.4.4|9=59|35=0|49=FIXCLIENT1|56=DMA_HUB|34=1471|52=20240213-08:56:24|10=150|
2024-02-13 09:56:30.184 [44] [FixSender] (DEBUG) Receiving 8=FIX.4.4|9=63|35=0|34=1483|49=DMA_HUB|56=FIXCLIENT1|52=20240213-08:56:30.184|10=092|
2024-02-13 09:56:54.879 [45] [FixSender] (DEBUG) Sending 8=FIX.4.4|9=59|35=0|49=FIXCLIENT1|56=DMA_HUB|34=1472|52=20240213-08:56:54|10=154|
2024-02-13 09:57:00.136 [44] [FixSender] (DEBUG) Receiving 8=FIX.4.4|9=63|35=0|34=1484|49=DMA_HUB|56=FIXCLIENT1|52=20240213-08:57:00.136|10=088|
2024-02-13 09:57:24.880 [45] [FixSender] (DEBUG) Sending 8=FIX.4.4|9=59|35=0|49=FIXCLIENT1|56=DMA_HUB|34=1473|52=20240213-08:57:24|10=153|
2024-02-13 09:57:30.088 [44] [FixSender] (DEBUG) Receiving 8=FIX.4.4|9=63|35=0|34=1485|49=DMA_HUB|56=FIXCLIENT1|52=20240213-08:57:30.088|10=098|
2024-02-13 09:57:54.881 [45] [FixSender] (DEBUG) Sending 8=FIX.4.4|9=59|35=0|49=FIXCLIENT1|56=DMA_HUB|34=1474|52=20240213-08:57:54|10=157|
2024-02-13 09:58:00.040 [44] [FixSender] (DEBUG) Receiving 8=FIX.4.4|9=63|35=0|34=1486|49=DMA_HUB|56=FIXCLIENT1|52=20240213-08:58:00.040|10=085|
2024-02-13 09:58:24.883 [45] [FixSender] (DEBUG) Sending 8=FIX.4.4|9=59|35=0|49=FIXCLIENT1|56=DMA_HUB|34=1475|52=20240213-08:58:24|10=156|
2024-02-13 09:58:29.992 [44] [FixSender] (DEBUG) Receiving 8=FIX.4.4|9=63|35=0|34=1487|49=DMA_HUB|56=FIXCLIENT1|52=20240213-08:58:29.992|10=113|
2024-02-13 09:58:54.884 [45] [FixSender] (DEBUG) Sending 8=FIX.4.4|9=59|35=0|49=FIXCLIENT1|56=DMA_HUB|34=1476|52=20240213-08:58:54|10=160|
2024-02-13 09:58:59.943 [44] [FixSender] (DEBUG) Receiving 8=FIX.4.4|9=63|35=0|34=1488|49=DMA_HUB|56=FIXCLIENT1|52=20240213-08:58:59.943|10=113|
2024-02-13 09:59:24.886 [45] [FixSender] (DEBUG) Sending 8=FIX.4.4|9=59|35=0|49=FIXCLIENT1|56=DMA_HUB|34=1477|52=20240213-08:59:24|10=159|
2024-02-13 09:59:29.895 [44] [FixSender] (DEBUG) Receiving 8=FIX.4.4|9=63|35=0|34=1489|49=DMA_HUB|56=FIXCLIENT1|52=20240213-08:59:29.895|10=118|
2024-02-13 09:59:54.887 [45] [FixSender] (DEBUG) Sending 8=FIX.4.4|9=59|35=0|49=FIXCLIENT1|56=DMA_HUB|34=1478|52=20240213-08:59:54|10=163|
2024-02-13 09:59:59.859 [44] [FixSender] (DEBUG) Receiving 8=FIX.4.4|9=63|35=0|34=1490|49=DMA_HUB|56=FIXCLIENT1|52=20240213-08:59:59.859|10=113|
2024-02-13 10:00:24.899 [45] [FixSender] (DEBUG) Sending 8=FIX.4.4|9=59|35=0|49=FIXCLIENT1|56=DMA_HUB|34=1479|52=20240213-09:00:24|10=148|
2024-02-13 10:00:29.807 [44] [FixSender] (DEBUG) Receiving 8=FIX.4.4|9=63|35=0|34=1491|49=DMA_HUB|56=FIXCLIENT1|52=20240213-09:00:29.807|10=091|
2024-02-13 10:00:54.901 [45] [FixSender] (DEBUG) Sending 8=FIX.4.4|9=59|35=0|49=FIXCLIENT1|56=DMA_HUB|34=1480|52=20240213-09:00:54|10=143|
2024-02-13 10:00:59.762 [44] [FixSender] (DEBUG) Receiving 8=FIX.4.4|9=63|35=0|34=1492|49=DMA_HUB|56=FIXCLIENT1|52=20240213-09:00:59.762|10=095|
2024-02-13 10:01:24.902 [45] [FixSender] (DEBUG) Sending 8=FIX.4.4|9=59|35=0|49=FIXCLIENT1|56=DMA_HUB|34=1481|52=20240213-09:01:24|10=142|
2024-02-13 10:01:29.707 [44] [FixSender] (DEBUG) Receiving 8=FIX.4.4|9=63|35=0|34=1493|49=DMA_HUB|56=FIXCLIENT1|52=20240213-09:01:29.707|10=093|
2024-02-13 10:01:54.903 [45] [FixSender] (DEBUG) Sending 8=FIX.4.4|9=59|35=0|49=FIXCLIENT1|56=DMA_HUB|34=1482|52=20240213-09:01:54|10=146|
2024-02-13 10:01:59.658 [44] [FixSender] (DEBUG) Receiving 8=FIX.4.4|9=63|35=0|34=1494|49=DMA_HUB|56=FIXCLIENT1|52=20240213-09:01:59.657|10=101|
2024-02-13 10:02:24.905 [45] [FixSender] (DEBUG) Sending 8=FIX.4.4|9=59|35=0|49=FIXCLIENT1|56=DMA_HUB|34=1483|52=20240213-09:02:24|10=145|
2024-02-13 10:02:29.614 [44] [FixSender] (DEBUG) Receiving 8=FIX.4.4|9=63|35=0|34=1495|49=DMA_HUB|56=FIXCLIENT1|52=20240213-09:02:29.611|10=090|
2024-02-13 10:02:54.906 [45] [FixSender] (DEBUG) Sending 8=FIX.4.4|9=59|35=0|49=FIXCLIENT1|56=DMA_HUB|34=1484|52=20240213-09:02:54|10=149|
2024-02-13 10:02:59.567 [44] [FixSender] (DEBUG) Receiving 8=FIX.4.4|9=63|35=0|34=1496|49=DMA_HUB|56=FIXCLIENT1|52=20240213-09:02:59.566|10=103|
2024-02-13 10:03:24.910 [45] [FixSender] (DEBUG) Sending 8=FIX.4.4|9=59|35=0|49=FIXCLIENT1|56=DMA_HUB|34=1485|52=20240213-09:03:24|10=148|
2024-02-13 10:03:29.515 [44] [FixSender] (DEBUG) Receiving 8=FIX.4.4|9=63|35=0|34=1497|49=DMA_HUB|56=FIXCLIENT1|52=20240213-09:03:29.514|10=095|
2024-02-13 10:03:54.911 [45] [FixSender] (DEBUG) Sending 8=FIX.4.4|9=59|35=0|49=FIXCLIENT1|56=DMA_HUB|34=1486|52=20240213-09:03:54|10=152|
2024-02-13 10:03:59.471 [44] [FixSender] (DEBUG) Receiving 8=FIX.4.4|9=63|35=0|34=1498|49=DMA_HUB|56=FIXCLIENT1|52=20240213-09:03:59.471|10=101|
2024-02-13 10:04:24.912 [45] [FixSender] (DEBUG) Sending 8=FIX.4.4|9=59|35=0|49=FIXCLIENT1|56=DMA_HUB|34=1487|52=20240213-09:04:24|10=151|
2024-02-13 10:04:29.415 [44] [FixSender] (DEBUG) Receiving 8=FIX.4.4|9=63|35=0|34=1499|49=DMA_HUB|56=FIXCLIENT1|52=20240213-09:04:29.415|10=098|
2024-02-13 10:04:54.913 [45] [FixSender] (DEBUG) Sending 8=FIX.4.4|9=59|35=0|49=FIXCLIENT1|56=DMA_HUB|34=1488|52=20240213-09:04:54|10=155|
2024-02-13 10:04:59.379 [44] [FixSender] (DEBUG) Receiving 8=FIX.4.4|9=63|35=0|34=1500|49=DMA_HUB|56=FIXCLIENT1|52=20240213-09:04:59.379|10=093|
2024-02-13 10:05:24.915 [45] [FixSender] (DEBUG) Sending 8=FIX.4.4|9=59|35=0|49=FIXCLIENT1|56=DMA_HUB|34=1489|52=20240213-09:05:24|10=154|
2024-02-13 10:05:29.326 [44] [FixSender] (DEBUG) Receiving 8=FIX.4.4|9=63|35=0|34=1501|49=DMA_HUB|56=FIXCLIENT1|52=20240213-09:05:29.326|10=084|
2024-02-13 10:05:54.916 [45] [FixSender] (DEBUG) Sending 8=FIX.4.4|9=59|35=0|49=FIXCLIENT1|56=DMA_HUB|34=1490|52=20240213-09:05:54|10=149|
2024-02-13 10:05:59.277 [44] [FixSender] (DEBUG) Receiving 8=FIX.4.4|9=63|35=0|34=1502|49=DMA_HUB|56=FIXCLIENT1|52=20240213-09:05:59.276|10=092|
2024-02-13 10:06:24.917 [45] [FixSender] (DEBUG) Sending 8=FIX.4.4|9=59|35=0|49=FIXCLIENT1|56=DMA_HUB|34=1491|52=20240213-09:06:24|10=148|
2024-02-13 10:06:29.229 [44] [FixSender] (DEBUG) Receiving 8=FIX.4.4|9=63|35=0|34=1503|49=DMA_HUB|56=FIXCLIENT1|52=20240213-09:06:29.228|10=088|
2024-02-13 10:06:54.927 [45] [FixSender] (DEBUG) Sending 8=FIX.4.4|9=59|35=0|49=FIXCLIENT1|56=DMA_HUB|34=1492|52=20240213-09:06:54|10=152|
2024-02-13 10:06:59.188 [44] [FixSender] (DEBUG) Receiving 8=FIX.4.4|9=63|35=0|34=1504|49=DMA_HUB|56=FIXCLIENT1|52=20240213-09:06:59.187|10=096|
2024-02-13 10:07:24.928 [45] [FixSender] (DEBUG) Sending 8=FIX.4.4|9=59|35=0|49=FIXCLIENT1|56=DMA_HUB|34=1493|52=20240213-09:07:24|10=151|
2024-02-13 10:07:29.139 [44] [FixSender] (DEBUG) Receiving 8=FIX.4.4|9=63|35=0|34=1505|49=DMA_HUB|56=FIXCLIENT1|52=20240213-09:07:29.137|10=090|
2024-02-13 10:07:54.931 [45] [FixSender] (DEBUG) Sending 8=FIX.4.4|9=59|35=0|49=FIXCLIENT1|56=DMA_HUB|34=1494|52=20240213-09:07:54|10=155|
2024-02-13 10:07:59.080 [44] [FixSender] (DEBUG) Receiving 8=FIX.4.4|9=63|35=0|34=1506|49=DMA_HUB|56=FIXCLIENT1|52=20240213-09:07:59.080|10=091|
2024-02-13 10:08:24.934 [45] [FixSender] (DEBUG) Sending 8=FIX.4.4|9=59|35=0|49=FIXCLIENT1|56=DMA_HUB|34=1495|52=20240213-09:08:24|10=154|
2024-02-13 10:08:29.042 [44] [FixSender] (DEBUG) Receiving 8=FIX.4.4|9=63|35=0|34=1507|49=DMA_HUB|56=FIXCLIENT1|52=20240213-09:08:29.041|10=087|
2024-02-13 10:08:54.938 [45] [FixSender] (DEBUG) Sending 8=FIX.4.4|9=59|35=0|49=FIXCLIENT1|56=DMA_HUB|34=1496|52=20240213-09:08:54|10=158|
2024-02-13 10:08:58.999 [44] [FixSender] (DEBUG) Receiving 8=FIX.4.4|9=63|35=0|34=1508|49=DMA_HUB|56=FIXCLIENT1|52=20240213-09:08:58.997|10=110|
2024-02-13 10:09:24.938 [45] [FixSender] (DEBUG) Sending 8=FIX.4.4|9=59|35=0|49=FIXCLIENT1|56=DMA_HUB|34=1497|52=20240213-09:09:24|10=157|
2024-02-13 10:09:28.938 [44] [FixSender] (DEBUG) Receiving 8=FIX.4.4|9=63|35=0|34=1509|49=DMA_HUB|56=FIXCLIENT1|52=20240213-09:09:28.938|10=104|
2024-02-13 10:09:54.941 [45] [FixSender] (DEBUG) Sending 8=FIX.4.4|9=59|35=0|49=FIXCLIENT1|56=DMA_HUB|34=1498|52=20240213-09:09:54|10=161|
2024-02-13 10:09:58.891 [44] [FixSender] (DEBUG) Receiving 8=FIX.4.4|9=63|35=0|34=1510|49=DMA_HUB|56=FIXCLIENT1|52=20240213-09:09:58.891|10=097|
2024-02-13 10:10:24.944 [45] [FixSender] (DEBUG) Sending 8=FIX.4.4|9=59|35=0|49=FIXCLIENT1|56=DMA_HUB|34=1499|52=20240213-09:10:24|10=151|
2024-02-13 10:10:28.841 [44] [FixSender] (DEBUG) Receiving 8=FIX.4.4|9=63|35=0|34=1511|49=DMA_HUB|56=FIXCLIENT1|52=20240213-09:10:28.839|10=089|
2024-02-13 10:10:54.945 [45] [FixSender] (DEBUG) Sending 8=FIX.4.4|9=59|35=0|49=FIXCLIENT1|56=DMA_HUB|34=1500|52=20240213-09:10:54|10=137|
2024-02-13 10:10:58.802 [44] [FixSender] (DEBUG) Receiving 8=FIX.4.4|9=63|35=0|34=1512|49=DMA_HUB|56=FIXCLIENT1|52=20240213-09:10:58.800|10=081|
2024-02-13 10:11:24.947 [45] [FixSender] (DEBUG) Sending 8=FIX.4.4|9=59|35=0|49=FIXCLIENT1|56=DMA_HUB|34=1501|52=20240213-09:11:24|10=136|
2024-02-13 10:11:28.743 [44] [FixSender] (DEBUG) Receiving 8=FIX.4.4|9=63|35=0|34=1513|49=DMA_HUB|56=FIXCLIENT1|52=20240213-09:11:28.743|10=086|
2024-02-13 10:11:54.953 [45] [FixSender] (DEBUG) Sending 8=FIX.4.4|9=59|35=0|49=FIXCLIENT1|56=DMA_HUB|34=1502|52=20240213-09:11:54|10=140|
2024-02-13 10:11:58.701 [44] [FixSender] (DEBUG) Receiving 8=FIX.4.4|9=63|35=0|34=1514|49=DMA_HUB|56=FIXCLIENT1|52=20240213-09:11:58.701|10=084|
2024-02-13 10:12:24.954 [45] [FixSender] (DEBUG) Sending 8=FIX.4.4|9=59|35=0|49=FIXCLIENT1|56=DMA_HUB|34=1503|52=20240213-09:12:24|10=139|
2024-02-13 10:12:28.655 [44] [FixSender] (DEBUG) Receiving 8=FIX.4.4|9=63|35=0|34=1515|49=DMA_HUB|56=FIXCLIENT1|52=20240213-09:12:28.654|10=090|
2024-02-13 10:12:54.957 [45] [FixSender] (DEBUG) Sending 8=FIX.4.4|9=59|35=0|49=FIXCLIENT1|56=DMA_HUB|34=1504|52=20240213-09:12:54|10=143|
2024-02-13 10:12:58.606 [44] [FixSender] (DEBUG) Receiving 8=FIX.4.4|9=63|35=0|34=1516|49=DMA_HUB|56=FIXCLIENT1|52=20240213-09:12:58.603|10=088|
2024-02-13 10:13:24.957 [45] [FixSender] (DEBUG) Sending 8=FIX.4.4|9=59|35=0|49=FIXCLIENT1|56=DMA_HUB|34=1505|52=20240213-09:13:24|10=142|
2024-02-13 10:13:28.558 [44] [FixSender] (DEBUG) Receiving 8=FIX.4.4|9=63|35=0|34=1517|49=DMA_HUB|56=FIXCLIENT1|52=20240213-09:13:28.556|10=094|
2024-02-13 10:13:54.958 [45] [FixSender] (DEBUG) Sending 8=FIX.4.4|9=59|35=0|49=FIXCLIENT1|56=DMA_HUB|34=1506|52=20240213-09:13:54|10=146|
2024-02-13 10:13:58.511 [44] [FixSender] (DEBUG) Receiving 8=FIX.4.4|9=63|35=0|34=1518|49=DMA_HUB|56=FIXCLIENT1|52=20240213-09:13:58.509|10=096|
2024-02-13 10:14:24.960 [45] [FixSender] (DEBUG) Sending 8=FIX.4.4|9=59|35=0|49=FIXCLIENT1|56=DMA_HUB|34=1507|52=20240213-09:14:24|10=145|
2024-02-13 10:14:28.471 [44] [FixSender] (DEBUG) Receiving 8=FIX.4.4|9=63|35=0|34=1519|49=DMA_HUB|56=FIXCLIENT1|52=20240213-09:14:28.470|10=092|
2024-02-13 10:14:54.961 [45] [FixSender] (DEBUG) Sending 8=FIX.4.4|9=59|35=0|49=FIXCLIENT1|56=DMA_HUB|34=1508|52=20240213-09:14:54|10=149|
2024-02-13 10:14:58.412 [44] [FixSender] (DEBUG) Receiving 8=FIX.4.4|9=63|35=0|34=1520|49=DMA_HUB|56=FIXCLIENT1|52=20240213-09:14:58.412|10=083|
2024-02-13 10:15:24.963 [45] [FixSender] (DEBUG) Sending 8=FIX.4.4|9=59|35=0|49=FIXCLIENT1|56=DMA_HUB|34=1509|52=20240213-09:15:24|10=148|
2024-02-13 10:15:28.371 [44] [FixSender] (DEBUG) Receiving 8=FIX.4.4|9=63|35=0|34=1521|49=DMA_HUB|56=FIXCLIENT1|52=20240213-09:15:28.371|10=086|
2024-02-13 10:15:54.964 [45] [FixSender] (DEBUG) Sending 8=FIX.4.4|9=59|35=0|49=FIXCLIENT1|56=DMA_HUB|34=1510|52=20240213-09:15:54|10=143|
2024-02-13 10:15:58.319 [44] [FixSender] (DEBUG) Receiving 8=FIX.4.4|9=63|35=0|34=1522|49=DMA_HUB|56=FIXCLIENT1|52=20240213-09:15:58.319|10=092|
2024-02-13 10:16:24.966 [45] [FixSender] (DEBUG) Sending 8=FIX.4.4|9=59|35=0|49=FIXCLIENT1|56=DMA_HUB|34=1511|52=20240213-09:16:24|10=142|
2024-02-13 10:16:28.273 [44] [FixSender] (DEBUG) Receiving 8=FIX.4.4|9=63|35=0|34=1523|49=DMA_HUB|56=FIXCLIENT1|52=20240213-09:16:28.272|10=089|
2024-02-13 10:16:54.967 [45] [FixSender] (DEBUG) Sending 8=FIX.4.4|9=59|35=0|49=FIXCLIENT1|56=DMA_HUB|34=1512|52=20240213-09:16:54|10=146|
2024-02-13 10:16:58.223 [44] [FixSender] (DEBUG) Receiving 8=FIX.4.4|9=63|35=0|34=1524|49=DMA_HUB|56=FIXCLIENT1|52=20240213-09:16:58.222|10=088|
2024-02-13 10:17:24.969 [45] [FixSender] (DEBUG) Sending 8=FIX.4.4|9=59|35=0|49=FIXCLIENT1|56=DMA_HUB|34=1513|52=20240213-09:17:24|10=145|
2024-02-13 10:17:28.170 [44] [FixSender] (DEBUG) Receiving 8=FIX.4.4|9=63|35=0|34=1525|49=DMA_HUB|56=FIXCLIENT1|52=20240213-09:17:28.170|10=089|
2024-02-13 10:17:54.971 [45] [FixSender] (DEBUG) Sending 8=FIX.4.4|9=59|35=0|49=FIXCLIENT1|56=DMA_HUB|34=1514|52=20240213-09:17:54|10=149|
2024-02-13 10:17:58.129 [44] [FixSender] (DEBUG) Receiving 8=FIX.4.4|9=63|35=0|34=1526|49=DMA_HUB|56=FIXCLIENT1|52=20240213-09:17:58.127|10=095|
2024-02-13 10:18:24.973 [45] [FixSender] (DEBUG) Sending 8=FIX.4.4|9=59|35=0|49=FIXCLIENT1|56=DMA_HUB|34=1515|52=20240213-09:18:24|10=148|
2024-02-13 10:18:28.088 [44] [FixSender] (DEBUG) Receiving 8=FIX.4.4|9=63|35=0|34=1527|49=DMA_HUB|56=FIXCLIENT1|52=20240213-09:18:28.085|10=097|
2024-02-13 10:18:54.976 [45] [FixSender] (DEBUG) Sending 8=FIX.4.4|9=59|35=0|49=FIXCLIENT1|56=DMA_HUB|34=1516|52=20240213-09:18:54|10=152|
2024-02-13 10:18:58.038 [44] [FixSender] (DEBUG) Receiving 8=FIX.4.4|9=63|35=0|34=1528|49=DMA_HUB|56=FIXCLIENT1|52=20240213-09:18:58.036|10=097|
2024-02-13 10:19:24.980 [45] [FixSender] (DEBUG) Sending 8=FIX.4.4|9=59|35=0|49=FIXCLIENT1|56=DMA_HUB|34=1517|52=20240213-09:19:24|10=151|
2024-02-13 10:19:27.983 [44] [FixSender] (DEBUG) Receiving 8=FIX.4.4|9=63|35=0|34=1529|49=DMA_HUB|56=FIXCLIENT1|52=20240213-09:19:27.982|10=105|
2024-02-13 10:19:54.981 [45] [FixSender] (DEBUG) Sending 8=FIX.4.4|9=59|35=0|49=FIXCLIENT1|56=DMA_HUB|34=1518|52=20240213-09:19:54|10=155|
2024-02-13 10:19:57.940 [44] [FixSender] (DEBUG) Receiving 8=FIX.4.4|9=63|35=0|34=1530|49=DMA_HUB|56=FIXCLIENT1|52=20240213-09:19:57.939|10=102|
2024-02-13 10:20:24.983 [45] [FixSender] (DEBUG) Sending 8=FIX.4.4|9=59|35=0|49=FIXCLIENT1|56=DMA_HUB|34=1519|52=20240213-09:20:24|10=145|
2024-02-13 10:20:27.893 [44] [FixSender] (DEBUG) Receiving 8=FIX.4.4|9=63|35=0|34=1531|49=DMA_HUB|56=FIXCLIENT1|52=20240213-09:20:27.893|10=091|
2024-02-13 10:20:54.985 [45] [FixSender] (DEBUG) Sending 8=FIX.4.4|9=59|35=0|49=FIXCLIENT1|56=DMA_HUB|34=1520|52=20240213-09:20:54|10=140|
2024-02-13 10:20:57.837 [44] [FixSender] (DEBUG) Receiving 8=FIX.4.4|9=63|35=0|34=1532|49=DMA_HUB|56=FIXCLIENT1|52=20240213-09:20:57.835|10=091|
2024-02-13 10:21:24.988 [45] [FixSender] (DEBUG) Sending 8=FIX.4.4|9=59|35=0|49=FIXCLIENT1|56=DMA_HUB|34=1521|52=20240213-09:21:24|10=139|
2024-02-13 10:21:27.790 [44] [FixSender] (DEBUG) Receiving 8=FIX.4.4|9=63|35=0|34=1533|49=DMA_HUB|56=FIXCLIENT1|52=20240213-09:21:27.790|10=090|
2024-02-13 10:21:54.990 [45] [FixSender] (DEBUG) Sending 8=FIX.4.4|9=59|35=0|49=FIXCLIENT1|56=DMA_HUB|34=1522|52=20240213-09:21:54|10=143|
2024-02-13 10:21:57.751 [44] [FixSender] (DEBUG) Receiving 8=FIX.4.4|9=63|35=0|34=1534|49=DMA_HUB|56=FIXCLIENT1|52=20240213-09:21:57.750|10=090|
2024-02-13 10:22:24.993 [45] [FixSender] (DEBUG) Sending 8=FIX.4.4|9=59|35=0|49=FIXCLIENT1|56=DMA_HUB|34=1523|52=20240213-09:22:24|10=142|
2024-02-13 10:22:27.699 [44] [FixSender] (DEBUG) Receiving 8=FIX.4.4|9=63|35=0|34=1535|49=DMA_HUB|56=FIXCLIENT1|52=20240213-09:22:27.695|10=097|
2024-02-13 10:22:54.994 [45] [FixSender] (DEBUG) Sending 8=FIX.4.4|9=59|35=0|49=FIXCLIENT1|56=DMA_HUB|34=1524|52=20240213-09:22:54|10=146|
2024-02-13 10:22:57.653 [44] [FixSender] (DEBUG) Receiving 8=FIX.4.4|9=63|35=0|34=1536|49=DMA_HUB|56=FIXCLIENT1|52=20240213-09:22:57.652|10=094|
2024-02-13 10:23:24.996 [45] [FixSender] (DEBUG) Sending 8=FIX.4.4|9=59|35=0|49=FIXCLIENT1|56=DMA_HUB|34=1525|52=20240213-09:23:24|10=145|
2024-02-13 10:23:27.599 [44] [FixSender] (DEBUG) Receiving 8=FIX.4.4|9=63|35=0|34=1537|49=DMA_HUB|56=FIXCLIENT1|52=20240213-09:23:27.598|10=102|
2024-02-13 10:23:55.006 [45] [FixSender] (DEBUG) Sending 8=FIX.4.4|9=59|35=0|49=FIXCLIENT1|56=DMA_HUB|34=1526|52=20240213-09:23:55|10=150|
2024-02-13 10:23:57.557 [44] [FixSender] (DEBUG) Receiving 8=FIX.4.4|9=63|35=0|34=1538|49=DMA_HUB|56=FIXCLIENT1|52=20240213-09:23:57.556|10=100|
2024-02-13 10:24:25.008 [45] [FixSender] (DEBUG) Sending 8=FIX.4.4|9=59|35=0|49=FIXCLIENT1|56=DMA_HUB|34=1527|52=20240213-09:24:25|10=149|
2024-02-13 10:24:27.500 [44] [FixSender] (DEBUG) Receiving 8=FIX.4.4|9=63|35=0|34=1539|49=DMA_HUB|56=FIXCLIENT1|52=20240213-09:24:27.500|10=088|
2024-02-13 10:24:55.008 [45] [FixSender] (DEBUG) Sending 8=FIX.4.4|9=59|35=0|49=FIXCLIENT1|56=DMA_HUB|34=1528|52=20240213-09:24:55|10=153|
2024-02-13 10:24:57.449 [44] [FixSender] (DEBUG) Receiving 8=FIX.4.4|9=63|35=0|34=1540|49=DMA_HUB|56=FIXCLIENT1|52=20240213-09:24:57.449|10=095|
2024-02-13 10:25:25.010 [45] [FixSender] (DEBUG) Sending 8=FIX.4.4|9=59|35=0|49=FIXCLIENT1|56=DMA_HUB|34=1529|52=20240213-09:25:25|10=152|
2024-02-13 10:25:27.402 [44] [FixSender] (DEBUG) Receiving 8=FIX.4.4|9=63|35=0|34=1541|49=DMA_HUB|56=FIXCLIENT1|52=20240213-09:25:27.401|10=082|
2024-02-13 10:25:55.012 [45] [FixSender] (DEBUG) Sending 8=FIX.4.4|9=59|35=0|49=FIXCLIENT1|56=DMA_HUB|34=1530|52=20240213-09:25:55|10=147|
2024-02-13 10:25:57.355 [44] [FixSender] (DEBUG) Receiving 8=FIX.4.4|9=63|35=0|34=1542|49=DMA_HUB|56=FIXCLIENT1|52=20240213-09:25:57.355|10=094|
2024-02-13 10:26:25.013 [45] [FixSender] (DEBUG) Sending 8=FIX.4.4|9=59|35=0|49=FIXCLIENT1|56=DMA_HUB|34=1531|52=20240213-09:26:25|10=146|
2024-02-13 10:26:27.306 [44] [FixSender] (DEBUG) Receiving 8=FIX.4.4|9=63|35=0|34=1543|49=DMA_HUB|56=FIXCLIENT1|52=20240213-09:26:27.305|10=088|
2024-02-13 10:26:55.015 [45] [FixSender] (DEBUG) Sending 8=FIX.4.4|9=59|35=0|49=FIXCLIENT1|56=DMA_HUB|34=1532|52=20240213-09:26:55|10=150|
2024-02-13 10:26:57.257 [44] [FixSender] (DEBUG) Receiving 8=FIX.4.4|9=63|35=0|34=1544|49=DMA_HUB|56=FIXCLIENT1|52=20240213-09:26:57.257|10=098|
2024-02-13 10:27:25.019 [45] [FixSender] (DEBUG) Sending 8=FIX.4.4|9=59|35=0|49=FIXCLIENT1|56=DMA_HUB|34=1533|52=20240213-09:27:25|10=149|
2024-02-13 10:27:27.218 [44] [FixSender] (DEBUG) Receiving 8=FIX.4.4|9=63|35=0|34=1545|49=DMA_HUB|56=FIXCLIENT1|52=20240213-09:27:27.218|10=094|
2024-02-13 10:27:55.020 [45] [FixSender] (DEBUG) Sending 8=FIX.4.4|9=59|35=0|49=FIXCLIENT1|56=DMA_HUB|34=1534|52=20240213-09:27:55|10=153|
2024-02-13 10:27:57.172 [44] [FixSender] (DEBUG) Receiving 8=FIX.4.4|9=63|35=0|34=1546|49=DMA_HUB|56=FIXCLIENT1|52=20240213-09:27:57.170|10=095|
2024-02-13 10:28:25.028 [45] [FixSender] (DEBUG) Sending 8=FIX.4.4|9=59|35=0|49=FIXCLIENT1|56=DMA_HUB|34=1535|52=20240213-09:28:25|10=152|
2024-02-13 10:28:27.127 [44] [FixSender] (DEBUG) Receiving 8=FIX.4.4|9=63|35=0|34=1547|49=DMA_HUB|56=FIXCLIENT1|52=20240213-09:28:27.126|10=095|
2024-02-13 10:28:55.032 [45] [FixSender] (DEBUG) Sending 8=FIX.4.4|9=59|35=0|49=FIXCLIENT1|56=DMA_HUB|34=1536|52=20240213-09:28:55|10=156|
2024-02-13 10:28:57.068 [44] [FixSender] (DEBUG) Receiving 8=FIX.4.4|9=63|35=0|34=1548|49=DMA_HUB|56=FIXCLIENT1|52=20240213-09:28:57.068|10=104|
2024-02-13 10:29:25.034 [45] [FixSender] (DEBUG) Sending 8=FIX.4.4|9=59|35=0|49=FIXCLIENT1|56=DMA_HUB|34=1537|52=20240213-09:29:25|10=155|
2024-02-13 10:29:27.021 [44] [FixSender] (DEBUG) Receiving 8=FIX.4.4|9=63|35=0|34=1549|49=DMA_HUB|56=FIXCLIENT1|52=20240213-09:29:27.021|10=092|
2024-02-13 10:29:55.035 [45] [FixSender] (DEBUG) Sending 8=FIX.4.4|9=59|35=0|49=FIXCLIENT1|56=DMA_HUB|34=1538|52=20240213-09:29:55|10=159|
2024-02-13 10:29:56.968 [44] [FixSender] (DEBUG) Receiving 8=FIX.4.4|9=63|35=0|34=1550|49=DMA_HUB|56=FIXCLIENT1|52=20240213-09:29:56.967|10=105|
2024-02-13 10:30:25.036 [45] [FixSender] (DEBUG) Sending 8=FIX.4.4|9=59|35=0|49=FIXCLIENT1|56=DMA_HUB|34=1539|52=20240213-09:30:25|10=149|
2024-02-13 10:30:26.920 [44] [FixSender] (DEBUG) Receiving 8=FIX.4.4|9=63|35=0|34=1551|49=DMA_HUB|56=FIXCLIENT1|52=20240213-09:30:26.920|10=084|
2024-02-13 10:30:55.038 [45] [FixSender] (DEBUG) Sending 8=FIX.4.4|9=59|35=0|49=FIXCLIENT1|56=DMA_HUB|34=1540|52=20240213-09:30:55|10=144|
2024-02-13 10:30:56.882 [44] [FixSender] (DEBUG) Receiving 8=FIX.4.4|9=63|35=0|34=1552|49=DMA_HUB|56=FIXCLIENT1|52=20240213-09:30:56.882|10=095|
2024-02-13 10:31:25.039 [45] [FixSender] (DEBUG) Sending 8=FIX.4.4|9=59|35=0|49=FIXCLIENT1|56=DMA_HUB|34=1541|52=20240213-09:31:25|10=143|
2024-02-13 10:31:26.835 [44] [FixSender] (DEBUG) Receiving 8=FIX.4.4|9=63|35=0|34=1553|49=DMA_HUB|56=FIXCLIENT1|52=20240213-09:31:26.835|10=092|
2024-02-13 10:31:55.040 [45] [FixSender] (DEBUG) Sending 8=FIX.4.4|9=59|35=0|49=FIXCLIENT1|56=DMA_HUB|34=1542|52=20240213-09:31:55|10=147|
2024-02-13 10:31:56.784 [44] [FixSender] (DEBUG) Receiving 8=FIX.4.4|9=63|35=0|34=1554|49=DMA_HUB|56=FIXCLIENT1|52=20240213-09:31:56.784|10=099|
2024-02-13 10:32:25.043 [45] [FixSender] (DEBUG) Sending 8=FIX.4.4|9=59|35=0|49=FIXCLIENT1|56=DMA_HUB|34=1543|52=20240213-09:32:25|10=146|
2024-02-13 10:32:26.728 [44] [FixSender] (DEBUG) Receiving 8=FIX.4.4|9=63|35=0|34=1555|49=DMA_HUB|56=FIXCLIENT1|52=20240213-09:32:26.727|10=095|
2024-02-13 10:32:55.043 [45] [FixSender] (DEBUG) Sending 8=FIX.4.4|9=59|35=0|49=FIXCLIENT1|56=DMA_HUB|34=1544|52=20240213-09:32:55|10=150|
2024-02-13 10:32:56.690 [44] [FixSender] (DEBUG) Receiving 8=FIX.4.4|9=63|35=0|34=1556|49=DMA_HUB|56=FIXCLIENT1|52=20240213-09:32:56.690|10=098|
2024-02-13 10:33:25.045 [45] [FixSender] (DEBUG) Sending 8=FIX.4.4|9=59|35=0|49=FIXCLIENT1|56=DMA_HUB|34=1545|52=20240213-09:33:25|10=149|
2024-02-13 10:33:26.643 [44] [FixSender] (DEBUG) Receiving 8=FIX.4.4|9=63|35=0|34=1557|49=DMA_HUB|56=FIXCLIENT1|52=20240213-09:33:26.643|10=095|
2024-02-13 10:33:55.047 [45] [FixSender] (DEBUG) Sending 8=FIX.4.4|9=59|35=0|49=FIXCLIENT1|56=DMA_HUB|34=1546|52=20240213-09:33:55|10=153|
2024-02-13 10:33:56.585 [44] [FixSender] (DEBUG) Receiving 8=FIX.4.4|9=63|35=0|34=1558|49=DMA_HUB|56=FIXCLIENT1|52=20240213-09:33:56.585|10=104|
2024-02-13 10:34:25.047 [45] [FixSender] (DEBUG) Sending 8=FIX.4.4|9=59|35=0|49=FIXCLIENT1|56=DMA_HUB|34=1547|52=20240213-09:34:25|10=152|
2024-02-13 10:34:26.539 [44] [FixSender] (DEBUG) Receiving 8=FIX.4.4|9=63|35=0|34=1559|49=DMA_HUB|56=FIXCLIENT1|52=20240213-09:34:26.539|10=102|
2024-02-13 10:34:55.048 [45] [FixSender] (DEBUG) Sending 8=FIX.4.4|9=59|35=0|49=FIXCLIENT1|56=DMA_HUB|34=1548|52=20240213-09:34:55|10=156|
2024-02-13 10:34:56.499 [44] [FixSender] (DEBUG) Receiving 8=FIX.4.4|9=63|35=0|34=1560|49=DMA_HUB|56=FIXCLIENT1|52=20240213-09:34:56.499|10=102|
2024-02-13 10:35:25.048 [45] [FixSender] (DEBUG) Sending 8=FIX.4.4|9=59|35=0|49=FIXCLIENT1|56=DMA_HUB|34=1549|52=20240213-09:35:25|10=155|
2024-02-13 10:35:26.440 [44] [FixSender] (DEBUG) Receiving 8=FIX.4.4|9=63|35=0|34=1561|49=DMA_HUB|56=FIXCLIENT1|52=20240213-09:35:26.440|10=087|
2024-02-13 10:35:55.049 [45] [FixSender] (DEBUG) Sending 8=FIX.4.4|9=59|35=0|49=FIXCLIENT1|56=DMA_HUB|34=1550|52=20240213-09:35:55|10=150|
2024-02-13 10:35:56.403 [44] [FixSender] (DEBUG) Receiving 8=FIX.4.4|9=63|35=0|34=1562|49=DMA_HUB|56=FIXCLIENT1|52=20240213-09:35:56.402|10=089|
2024-02-13 10:36:25.050 [45] [FixSender] (DEBUG) Sending 8=FIX.4.4|9=59|35=0|49=FIXCLIENT1|56=DMA_HUB|34=1551|52=20240213-09:36:25|10=149|
2024-02-13 10:36:26.355 [44] [FixSender] (DEBUG) Receiving 8=FIX.4.4|9=63|35=0|34=1563|49=DMA_HUB|56=FIXCLIENT1|52=20240213-09:36:26.355|10=095|
2024-02-13 10:36:55.051 [45] [FixSender] (DEBUG) Sending 8=FIX.4.4|9=59|35=0|49=FIXCLIENT1|56=DMA_HUB|34=1552|52=20240213-09:36:55|10=153|
2024-02-13 10:36:56.305 [44] [FixSender] (DEBUG) Receiving 8=FIX.4.4|9=63|35=0|34=1564|49=DMA_HUB|56=FIXCLIENT1|52=20240213-09:36:56.305|10=094|
2024-02-13 10:37:25.054 [45] [FixSender] (DEBUG) Sending 8=FIX.4.4|9=59|35=0|49=FIXCLIENT1|56=DMA_HUB|34=1553|52=20240213-09:37:25|10=152|
2024-02-13 10:37:26.260 [44] [FixSender] (DEBUG) Receiving 8=FIX.4.4|9=63|35=0|34=1565|49=DMA_HUB|56=FIXCLIENT1|52=20240213-09:37:26.259|10=101|
2024-02-13 10:37:55.063 [45] [FixSender] (DEBUG) Sending 8=FIX.4.4|9=59|35=0|49=FIXCLIENT1|56=DMA_HUB|34=1554|52=20240213-09:37:55|10=156|
2024-02-13 10:37:56.210 [44] [FixSender] (DEBUG) Receiving 8=FIX.4.4|9=63|35=0|34=1566|49=DMA_HUB|56=FIXCLIENT1|52=20240213-09:37:56.210|10=092|
2024-02-13 10:38:25.063 [45] [FixSender] (DEBUG) Sending 8=FIX.4.4|9=59|35=0|49=FIXCLIENT1|56=DMA_HUB|34=1555|52=20240213-09:38:25|10=155|
2024-02-13 10:38:26.158 [44] [FixSender] (DEBUG) Receiving 8=FIX.4.4|9=63|35=0|34=1567|49=DMA_HUB|56=FIXCLIENT1|52=20240213-09:38:26.158|10=102|
2024-02-13 10:38:55.066 [45] [FixSender] (DEBUG) Sending 8=FIX.4.4|9=59|35=0|49=FIXCLIENT1|56=DMA_HUB|34=1556|52=20240213-09:38:55|10=159|
2024-02-13 10:38:56.110 [44] [FixSender] (DEBUG) Receiving 8=FIX.4.4|9=63|35=0|34=1568|49=DMA_HUB|56=FIXCLIENT1|52=20240213-09:38:56.109|10=102|
2024-02-13 10:39:25.068 [45] [FixSender] (DEBUG) Sending 8=FIX.4.4|9=59|35=0|49=FIXCLIENT1|56=DMA_HUB|34=1557|52=20240213-09:39:25|10=158|
2024-02-13 10:39:26.069 [44] [FixSender] (DEBUG) Receiving 8=FIX.4.4|9=63|35=0|34=1569|49=DMA_HUB|56=FIXCLIENT1|52=20240213-09:39:26.068|10=105|
2024-02-13 10:39:55.069 [45] [FixSender] (DEBUG) Sending 8=FIX.4.4|9=59|35=0|49=FIXCLIENT1|56=DMA_HUB|34=1558|52=20240213-09:39:55|10=162|
2024-02-13 10:39:56.017 [44] [FixSender] (DEBUG) Receiving 8=FIX.4.4|9=63|35=0|34=1570|49=DMA_HUB|56=FIXCLIENT1|52=20240213-09:39:56.016|10=093|
2024-02-13 10:40:25.072 [45] [FixSender] (DEBUG) Sending 8=FIX.4.4|9=59|35=0|49=FIXCLIENT1|56=DMA_HUB|34=1559|52=20240213-09:40:25|10=152|
2024-02-13 10:40:25.965 [44] [FixSender] (DEBUG) Receiving 8=FIX.4.4|9=63|35=0|34=1571|49=DMA_HUB|56=FIXCLIENT1|52=20240213-09:40:25.965|10=095|
2024-02-13 10:40:55.074 [45] [FixSender] (DEBUG) Sending 8=FIX.4.4|9=59|35=0|49=FIXCLIENT1|56=DMA_HUB|34=1560|52=20240213-09:40:55|10=147|
2024-02-13 10:40:55.929 [44] [FixSender] (DEBUG) Receiving 8=FIX.4.4|9=63|35=0|34=1572|49=DMA_HUB|56=FIXCLIENT1|52=20240213-09:40:55.926|10=096|
2024-02-13 10:41:25.078 [45] [FixSender] (DEBUG) Sending 8=FIX.4.4|9=59|35=0|49=FIXCLIENT1|56=DMA_HUB|34=1561|52=20240213-09:41:25|10=146|
2024-02-13 10:41:25.879 [44] [FixSender] (DEBUG) Receiving 8=FIX.4.4|9=63|35=0|34=1573|49=DMA_HUB|56=FIXCLIENT1|52=20240213-09:41:25.876|10=099|
2024-02-13 10:41:55.081 [45] [FixSender] (DEBUG) Sending 8=FIX.4.4|9=59|35=0|49=FIXCLIENT1|56=DMA_HUB|34=1562|52=20240213-09:41:55|10=150|
2024-02-13 10:41:55.823 [44] [FixSender] (DEBUG) Receiving 8=FIX.4.4|9=63|35=0|34=1574|49=DMA_HUB|56=FIXCLIENT1|52=20240213-09:41:55.822|10=094|
2024-02-13 10:42:25.081 [45] [FixSender] (DEBUG) Sending 8=FIX.4.4|9=59|35=0|49=FIXCLIENT1|56=DMA_HUB|34=1563|52=20240213-09:42:25|10=149|
2024-02-13 10:42:25.770 [44] [FixSender] (DEBUG) Receiving 8=FIX.4.4|9=63|35=0|34=1575|49=DMA_HUB|56=FIXCLIENT1|52=20240213-09:42:25.768|10=102|
2024-02-13 10:42:55.085 [45] [FixSender] (DEBUG) Sending 8=FIX.4.4|9=59|35=0|49=FIXCLIENT1|56=DMA_HUB|34=1564|52=20240213-09:42:55|10=153|
2024-02-13 10:42:55.733 [44] [FixSender] (DEBUG) Receiving 8=FIX.4.4|9=63|35=0|34=1576|49=DMA_HUB|56=FIXCLIENT1|52=20240213-09:42:55.732|10=097|
2024-02-13 10:43:25.088 [45] [FixSender] (DEBUG) Sending 8=FIX.4.4|9=59|35=0|49=FIXCLIENT1|56=DMA_HUB|34=1565|52=20240213-09:43:25|10=152|
2024-02-13 10:43:25.679 [44] [FixSender] (DEBUG) Receiving 8=FIX.4.4|9=63|35=0|34=1577|49=DMA_HUB|56=FIXCLIENT1|52=20240213-09:43:25.677|10=104|
2024-02-13 10:43:55.089 [45] [FixSender] (DEBUG) Sending 8=FIX.4.4|9=59|35=0|49=FIXCLIENT1|56=DMA_HUB|34=1566|52=20240213-09:43:55|10=156|
2024-02-13 10:43:55.630 [44] [FixSender] (DEBUG) Receiving 8=FIX.4.4|9=63|35=0|34=1578|49=DMA_HUB|56=FIXCLIENT1|52=20240213-09:43:55.629|10=105|
2024-02-13 10:44:25.089 [45] [FixSender] (DEBUG) Sending 8=FIX.4.4|9=59|35=0|49=FIXCLIENT1|56=DMA_HUB|34=1567|52=20240213-09:44:25|10=155|
2024-02-13 10:44:25.589 [44] [FixSender] (DEBUG) Receiving 8=FIX.4.4|9=63|35=0|34=1579|49=DMA_HUB|56=FIXCLIENT1|52=20240213-09:44:25.588|10=108|
2024-02-13 10:44:55.090 [45] [FixSender] (DEBUG) Sending 8=FIX.4.4|9=59|35=0|49=FIXCLIENT1|56=DMA_HUB|34=1568|52=20240213-09:44:55|10=159|
2024-02-13 10:44:55.534 [44] [FixSender] (DEBUG) Receiving 8=FIX.4.4|9=63|35=0|34=1580|49=DMA_HUB|56=FIXCLIENT1|52=20240213-09:44:55.533|10=093|
2024-02-13 10:45:25.091 [45] [FixSender] (DEBUG) Sending 8=FIX.4.4|9=59|35=0|49=FIXCLIENT1|56=DMA_HUB|34=1569|52=20240213-09:45:25|10=158|
2024-02-13 10:45:25.493 [44] [FixSender] (DEBUG) Receiving 8=FIX.4.4|9=63|35=0|34=1581|49=DMA_HUB|56=FIXCLIENT1|52=20240213-09:45:25.492|10=096|
2024-02-13 10:45:55.095 [45] [FixSender] (DEBUG) Sending 8=FIX.4.4|9=59|35=0|49=FIXCLIENT1|56=DMA_HUB|34=1570|52=20240213-09:45:55|10=153|
2024-02-13 10:45:55.438 [44] [FixSender] (DEBUG) Receiving 8=FIX.4.4|9=63|35=0|34=1582|49=DMA_HUB|56=FIXCLIENT1|52=20240213-09:45:55.437|10=099|
2024-02-13 10:46:25.097 [45] [FixSender] (DEBUG) Sending 8=FIX.4.4|9=59|35=0|49=FIXCLIENT1|56=DMA_HUB|34=1571|52=20240213-09:46:25|10=152|
2024-02-13 10:46:25.385 [44] [FixSender] (DEBUG) Receiving 8=FIX.4.4|9=63|35=0|34=1583|49=DMA_HUB|56=FIXCLIENT1|52=20240213-09:46:25.384|10=099|
2024-02-13 10:46:55.098 [45] [FixSender] (DEBUG) Sending 8=FIX.4.4|9=59|35=0|49=FIXCLIENT1|56=DMA_HUB|34=1572|52=20240213-09:46:55|10=156|
2024-02-13 10:46:55.348 [44] [FixSender] (DEBUG) Receiving 8=FIX.4.4|9=63|35=0|34=1584|49=DMA_HUB|56=FIXCLIENT1|52=20240213-09:46:55.348|10=103|
2024-02-13 10:47:25.098 [45] [FixSender] (DEBUG) Sending 8=FIX.4.4|9=59|35=0|49=FIXCLIENT1|56=DMA_HUB|34=1573|52=20240213-09:47:25|10=155|
2024-02-13 10:47:25.300 [44] [FixSender] (DEBUG) Receiving 8=FIX.4.4|9=63|35=0|34=1585|49=DMA_HUB|56=FIXCLIENT1|52=20240213-09:47:25.300|10=090|
2024-02-13 10:47:55.101 [45] [FixSender] (DEBUG) Sending 8=FIX.4.4|9=59|35=0|49=FIXCLIENT1|56=DMA_HUB|34=1574|52=20240213-09:47:55|10=159|
2024-02-13 10:47:55.254 [44] [FixSender] (DEBUG) Receiving 8=FIX.4.4|9=63|35=0|34=1586|49=DMA_HUB|56=FIXCLIENT1|52=20240213-09:47:55.254|10=102|
2024-02-13 10:48:25.101 [45] [FixSender] (DEBUG) Sending 8=FIX.4.4|9=59|35=0|49=FIXCLIENT1|56=DMA_HUB|34=1575|52=20240213-09:48:25|10=158|
2024-02-13 10:48:25.207 [44] [FixSender] (DEBUG) Receiving 8=FIX.4.4|9=63|35=0|34=1587|49=DMA_HUB|56=FIXCLIENT1|52=20240213-09:48:25.205|10=097|
2024-02-13 10:48:55.104 [45] [FixSender] (DEBUG) Sending 8=FIX.4.4|9=59|35=0|49=FIXCLIENT1|56=DMA_HUB|34=1576|52=20240213-09:48:55|10=162|
2024-02-13 10:48:55.154 [44] [FixSender] (DEBUG) Receiving 8=FIX.4.4|9=63|35=0|34=1588|49=DMA_HUB|56=FIXCLIENT1|52=20240213-09:48:55.154|10=104|
2024-02-13 10:49:25.105 [45] [FixSender] (DEBUG) Sending 8=FIX.4.4|9=59|35=0|49=FIXCLIENT1|56=DMA_HUB|34=1577|52=20240213-09:49:25|10=161|
2024-02-13 10:49:25.108 [44] [FixSender] (DEBUG) Receiving 8=FIX.4.4|9=63|35=0|34=1589|49=DMA_HUB|56=FIXCLIENT1|52=20240213-09:49:25.107|10=101|
2024-02-13 10:49:55.055 [44] [FixSender] (DEBUG) Receiving 8=FIX.4.4|9=63|35=0|34=1590|49=DMA_HUB|56=FIXCLIENT1|52=20240213-09:49:55.054|10=097|
2024-02-13 10:49:55.106 [45] [FixSender] (DEBUG) Sending 8=FIX.4.4|9=59|35=0|49=FIXCLIENT1|56=DMA_HUB|34=1578|52=20240213-09:49:55|10=165|
2024-02-13 10:50:25.012 [44] [FixSender] (DEBUG) Receiving 8=FIX.4.4|9=63|35=0|34=1591|49=DMA_HUB|56=FIXCLIENT1|52=20240213-09:50:25.012|10=081|
2024-02-13 10:50:25.107 [45] [FixSender] (DEBUG) Sending 8=FIX.4.4|9=59|35=0|49=FIXCLIENT1|56=DMA_HUB|34=1579|52=20240213-09:50:25|10=155|
2024-02-13 10:50:54.953 [44] [FixSender] (DEBUG) Receiving 8=FIX.4.4|9=63|35=0|34=1592|49=DMA_HUB|56=FIXCLIENT1|52=20240213-09:50:54.952|10=097|
2024-02-13 10:50:55.109 [45] [FixSender] (DEBUG) Sending 8=FIX.4.4|9=59|35=0|49=FIXCLIENT1|56=DMA_HUB|34=1580|52=20240213-09:50:55|10=150|
2024-02-13 10:51:24.915 [44] [FixSender] (DEBUG) Receiving 8=FIX.4.4|9=63|35=0|34=1593|49=DMA_HUB|56=FIXCLIENT1|52=20240213-09:51:24.914|10=094|
2024-02-13 10:51:25.110 [45] [FixSender] (DEBUG) Sending 8=FIX.4.4|9=59|35=0|49=FIXCLIENT1|56=DMA_HUB|34=1581|52=20240213-09:51:25|10=149|
2024-02-13 10:51:54.857 [44] [FixSender] (DEBUG) Receiving 8=FIX.4.4|9=63|35=0|34=1594|49=DMA_HUB|56=FIXCLIENT1|52=20240213-09:51:54.856|10=103|
2024-02-13 10:51:55.113 [45] [FixSender] (DEBUG) Sending 8=FIX.4.4|9=59|35=0|49=FIXCLIENT1|56=DMA_HUB|34=1582|52=20240213-09:51:55|10=153|
2024-02-13 10:52:24.819 [44] [FixSender] (DEBUG) Receiving 8=FIX.4.4|9=63|35=0|34=1595|49=DMA_HUB|56=FIXCLIENT1|52=20240213-09:52:24.819|10=101|
2024-02-13 10:52:25.115 [45] [FixSender] (DEBUG) Sending 8=FIX.4.4|9=59|35=0|49=FIXCLIENT1|56=DMA_HUB|34=1583|52=20240213-09:52:25|10=152|
2024-02-13 10:52:54.764 [44] [FixSender] (DEBUG) Receiving 8=FIX.4.4|9=63|35=0|34=1596|49=DMA_HUB|56=FIXCLIENT1|52=20240213-09:52:54.763|10=103|
2024-02-13 10:52:55.117 [45] [FixSender] (DEBUG) Sending 8=FIX.4.4|9=59|35=0|49=FIXCLIENT1|56=DMA_HUB|34=1584|52=20240213-09:52:55|10=156|
2024-02-13 10:53:24.718 [44] [FixSender] (DEBUG) Receiving 8=FIX.4.4|9=63|35=0|34=1597|49=DMA_HUB|56=FIXCLIENT1|52=20240213-09:53:24.717|10=101|
2024-02-13 10:53:25.119 [45] [FixSender] (DEBUG) Sending 8=FIX.4.4|9=59|35=0|49=FIXCLIENT1|56=DMA_HUB|34=1585|52=20240213-09:53:25|10=155|
2024-02-13 10:53:54.666 [44] [FixSender] (DEBUG) Receiving 8=FIX.4.4|9=63|35=0|34=1598|49=DMA_HUB|56=FIXCLIENT1|52=20240213-09:53:54.665|10=107|
2024-02-13 10:53:55.122 [45] [FixSender] (DEBUG) Sending 8=FIX.4.4|9=59|35=0|49=FIXCLIENT1|56=DMA_HUB|34=1586|52=20240213-09:53:55|10=159|
2024-02-13 10:54:24.623 [44] [FixSender] (DEBUG) Receiving 8=FIX.4.4|9=63|35=0|34=1599|49=DMA_HUB|56=FIXCLIENT1|52=20240213-09:54:24.623|10=100|
2024-02-13 10:54:25.138 [45] [FixSender] (DEBUG) Sending 8=FIX.4.4|9=59|35=0|49=FIXCLIENT1|56=DMA_HUB|34=1587|52=20240213-09:54:25|10=158|
2024-02-13 10:54:54.571 [44] [FixSender] (DEBUG) Receiving 8=FIX.4.4|9=63|35=0|34=1600|49=DMA_HUB|56=FIXCLIENT1|52=20240213-09:54:54.571|10=088|
2024-02-13 10:54:55.150 [45] [FixSender] (DEBUG) Sending 8=FIX.4.4|9=59|35=0|49=FIXCLIENT1|56=DMA_HUB|34=1588|52=20240213-09:54:55|10=162|
2024-02-13 10:55:24.534 [44] [FixSender] (DEBUG) Receiving 8=FIX.4.4|9=63|35=0|34=1601|49=DMA_HUB|56=FIXCLIENT1|52=20240213-09:55:24.534|10=086|
2024-02-13 10:55:25.162 [45] [FixSender] (DEBUG) Sending 8=FIX.4.4|9=59|35=0|49=FIXCLIENT1|56=DMA_HUB|34=1589|52=20240213-09:55:25|10=161|
2024-02-13 10:55:54.485 [44] [FixSender] (DEBUG) Receiving 8=FIX.4.4|9=63|35=0|34=1602|49=DMA_HUB|56=FIXCLIENT1|52=20240213-09:55:54.485|10=095|
2024-02-13 10:55:55.174 [45] [FixSender] (DEBUG) Sending 8=FIX.4.4|9=59|35=0|49=FIXCLIENT1|56=DMA_HUB|34=1590|52=20240213-09:55:55|10=156|
2024-02-13 10:56:24.436 [44] [FixSender] (DEBUG) Receiving 8=FIX.4.4|9=63|35=0|34=1603|49=DMA_HUB|56=FIXCLIENT1|52=20240213-09:56:24.436|10=090|
2024-02-13 10:56:25.187 [45] [FixSender] (DEBUG) Sending 8=FIX.4.4|9=59|35=0|49=FIXCLIENT1|56=DMA_HUB|34=1591|52=20240213-09:56:25|10=155|
2024-02-13 10:56:54.382 [44] [FixSender] (DEBUG) Receiving 8=FIX.4.4|9=63|35=0|34=1604|49=DMA_HUB|56=FIXCLIENT1|52=20240213-09:56:54.382|10=094|
2024-02-13 10:56:55.199 [45] [FixSender] (DEBUG) Sending 8=FIX.4.4|9=59|35=0|49=FIXCLIENT1|56=DMA_HUB|34=1592|52=20240213-09:56:55|10=159|
2024-02-13 10:57:24.332 [44] [FixSender] (DEBUG) Receiving 8=FIX.4.4|9=63|35=0|34=1605|49=DMA_HUB|56=FIXCLIENT1|52=20240213-09:57:24.332|10=088|
2024-02-13 10:57:25.210 [45] [FixSender] (DEBUG) Sending 8=FIX.4.4|9=59|35=0|49=FIXCLIENT1|56=DMA_HUB|34=1593|52=20240213-09:57:25|10=158|
2024-02-13 10:57:54.280 [44] [FixSender] (DEBUG) Receiving 8=FIX.4.4|9=63|35=0|34=1606|49=DMA_HUB|56=FIXCLIENT1|52=20240213-09:57:54.280|10=094|
2024-02-13 10:57:55.225 [45] [FixSender] (DEBUG) Sending 8=FIX.4.4|9=59|35=0|49=FIXCLIENT1|56=DMA_HUB|34=1594|52=20240213-09:57:55|10=162|
2024-02-13 10:58:24.245 [44] [FixSender] (DEBUG) Receiving 8=FIX.4.4|9=63|35=0|34=1607|49=DMA_HUB|56=FIXCLIENT1|52=20240213-09:58:24.245|10=094|
2024-02-13 10:58:25.234 [45] [FixSender] (DEBUG) Sending 8=FIX.4.4|9=59|35=0|49=FIXCLIENT1|56=DMA_HUB|34=1595|52=20240213-09:58:25|10=161|
2024-02-13 10:58:54.194 [44] [FixSender] (DEBUG) Receiving 8=FIX.4.4|9=63|35=0|34=1608|49=DMA_HUB|56=FIXCLIENT1|52=20240213-09:58:54.194|10=101|
2024-02-13 10:58:55.243 [45] [FixSender] (DEBUG) Sending 8=FIX.4.4|9=59|35=0|49=FIXCLIENT1|56=DMA_HUB|34=1596|52=20240213-09:58:55|10=165|
2024-02-13 10:59:24.135 [44] [FixSender] (DEBUG) Receiving 8=FIX.4.4|9=63|35=0|34=1609|49=DMA_HUB|56=FIXCLIENT1|52=20240213-09:59:24.135|10=095|
2024-02-13 10:59:25.252 [45] [FixSender] (DEBUG) Sending 8=FIX.4.4|9=59|35=0|49=FIXCLIENT1|56=DMA_HUB|34=1597|52=20240213-09:59:25|10=164|
2024-02-13 10:59:54.092 [44] [FixSender] (DEBUG) Receiving 8=FIX.4.4|9=63|35=0|34=1610|49=DMA_HUB|56=FIXCLIENT1|52=20240213-09:59:54.092|10=092|
2024-02-13 10:59:55.259 [45] [FixSender] (DEBUG) Sending 8=FIX.4.4|9=59|35=0|49=FIXCLIENT1|56=DMA_HUB|34=1598|52=20240213-09:59:55|10=168|
2024-02-13 11:00:24.046 [44] [FixSender] (DEBUG) Receiving 8=FIX.4.4|9=63|35=0|34=1611|49=DMA_HUB|56=FIXCLIENT1|52=20240213-10:00:24.046|10=067|
2024-02-13 11:00:25.260 [45] [FixSender] (DEBUG) Sending 8=FIX.4.4|9=59|35=0|49=FIXCLIENT1|56=DMA_HUB|34=1599|52=20240213-10:00:25|10=144|
2024-02-13 11:00:53.999 [44] [FixSender] (DEBUG) Receiving 8=FIX.4.4|9=63|35=0|34=1612|49=DMA_HUB|56=FIXCLIENT1|52=20240213-10:00:53.999|10=087|
2024-02-13 11:00:55.263 [45] [FixSender] (DEBUG) Sending 8=FIX.4.4|9=59|35=0|49=FIXCLIENT1|56=DMA_HUB|34=1600|52=20240213-10:00:55|10=130|
2024-02-13 11:01:23.958 [44] [FixSender] (DEBUG) Receiving 8=FIX.4.4|9=63|35=0|34=1613|49=DMA_HUB|56=FIXCLIENT1|52=20240213-10:01:23.958|10=081|
2024-02-13 11:01:25.275 [45] [FixSender] (DEBUG) Sending 8=FIX.4.4|9=59|35=0|49=FIXCLIENT1|56=DMA_HUB|34=1601|52=20240213-10:01:25|10=129|
2024-02-13 11:01:53.904 [44] [FixSender] (DEBUG) Receiving 8=FIX.4.4|9=63|35=0|34=1614|49=DMA_HUB|56=FIXCLIENT1|52=20240213-10:01:53.903|10=075|
2024-02-13 11:01:55.282 [45] [FixSender] (DEBUG) Sending 8=FIX.4.4|9=59|35=0|49=FIXCLIENT1|56=DMA_HUB|34=1602|52=20240213-10:01:55|10=133|
2024-02-13 11:02:23.853 [44] [FixSender] (DEBUG) Receiving 8=FIX.4.4|9=63|35=0|34=1615|49=DMA_HUB|56=FIXCLIENT1|52=20240213-10:02:23.853|10=078|
2024-02-13 11:02:25.287 [45] [FixSender] (DEBUG) Sending 8=FIX.4.4|9=59|35=0|49=FIXCLIENT1|56=DMA_HUB|34=1603|52=20240213-10:02:25|10=132|
2024-02-13 11:02:53.815 [44] [FixSender] (DEBUG) Receiving 8=FIX.4.4|9=63|35=0|34=1616|49=DMA_HUB|56=FIXCLIENT1|52=20240213-10:02:53.814|10=079|
2024-02-13 11:02:55.297 [45] [FixSender] (DEBUG) Sending 8=FIX.4.4|9=59|35=0|49=FIXCLIENT1|56=DMA_HUB|34=1604|52=20240213-10:02:55|10=136|
2024-02-13 11:03:23.755 [44] [FixSender] (DEBUG) Receiving 8=FIX.4.4|9=63|35=0|34=1617|49=DMA_HUB|56=FIXCLIENT1|52=20240213-10:03:23.755|10=082|
2024-02-13 11:03:25.299 [45] [FixSender] (DEBUG) Sending 8=FIX.4.4|9=59|35=0|49=FIXCLIENT1|56=DMA_HUB|34=1605|52=20240213-10:03:25|10=135|
2024-02-13 11:03:53.719 [44] [FixSender] (DEBUG) Receiving 8=FIX.4.4|9=63|35=0|34=1618|49=DMA_HUB|56=FIXCLIENT1|52=20240213-10:03:53.718|10=085|
2024-02-13 11:03:55.308 [45] [FixSender] (DEBUG) Sending 8=FIX.4.4|9=59|35=0|49=FIXCLIENT1|56=DMA_HUB|34=1606|52=20240213-10:03:55|10=139|
2024-02-13 11:04:23.657 [44] [FixSender] (DEBUG) Receiving 8=FIX.4.4|9=63|35=0|34=1619|49=DMA_HUB|56=FIXCLIENT1|52=20240213-10:04:23.656|10=085|
2024-02-13 11:04:25.322 [45] [FixSender] (DEBUG) Sending 8=FIX.4.4|9=59|35=0|49=FIXCLIENT1|56=DMA_HUB|34=1607|52=20240213-10:04:25|10=138|
2024-02-13 11:04:53.609 [44] [FixSender] (DEBUG) Receiving 8=FIX.4.4|9=63|35=0|34=1620|49=DMA_HUB|56=FIXCLIENT1|52=20240213-10:04:53.608|10=077|
2024-02-13 11:04:55.333 [45] [FixSender] (DEBUG) Sending 8=FIX.4.4|9=59|35=0|49=FIXCLIENT1|56=DMA_HUB|34=1608|52=20240213-10:04:55|10=142|
2024-02-13 11:05:23.565 [44] [FixSender] (DEBUG) Receiving 8=FIX.4.4|9=63|35=0|34=1621|49=DMA_HUB|56=FIXCLIENT1|52=20240213-10:05:23.565|10=078|
2024-02-13 11:05:25.340 [45] [FixSender] (DEBUG) Sending 8=FIX.4.4|9=59|35=0|49=FIXCLIENT1|56=DMA_HUB|34=1609|52=20240213-10:05:25|10=141|
2024-02-13 11:05:53.522 [44] [FixSender] (DEBUG) Receiving 8=FIX.4.4|9=63|35=0|34=1622|49=DMA_HUB|56=FIXCLIENT1|52=20240213-10:05:53.521|10=074|
2024-02-13 11:05:55.342 [45] [FixSender] (DEBUG) Sending 8=FIX.4.4|9=59|35=0|49=FIXCLIENT1|56=DMA_HUB|34=1610|52=20240213-10:05:55|10=136|
2024-02-13 11:06:23.471 [44] [FixSender] (DEBUG) Receiving 8=FIX.4.4|9=63|35=0|34=1623|49=DMA_HUB|56=FIXCLIENT1|52=20240213-10:06:23.471|10=077|
2024-02-13 11:06:25.354 [45] [FixSender] (DEBUG) Sending 8=FIX.4.4|9=59|35=0|49=FIXCLIENT1|56=DMA_HUB|34=1611|52=20240213-10:06:25|10=135|
2024-02-13 11:06:53.421 [44] [FixSender] (DEBUG) Receiving 8=FIX.4.4|9=63|35=0|34=1624|49=DMA_HUB|56=FIXCLIENT1|52=20240213-10:06:53.420|10=075|
2024-02-13 11:06:55.358 [45] [FixSender] (DEBUG) Sending 8=FIX.4.4|9=59|35=0|49=FIXCLIENT1|56=DMA_HUB|34=1612|52=20240213-10:06:55|10=139|
2024-02-13 11:07:23.384 [44] [FixSender] (DEBUG) Receiving 8=FIX.4.4|9=63|35=0|34=1625|49=DMA_HUB|56=FIXCLIENT1|52=20240213-10:07:23.383|10=082|
2024-02-13 11:07:25.369 [45] [FixSender] (DEBUG) Sending 8=FIX.4.4|9=59|35=0|49=FIXCLIENT1|56=DMA_HUB|34=1613|52=20240213-10:07:25|10=138|
2024-02-13 11:07:53.393 [44] [FixSender] (DEBUG) Receiving 8=FIX.4.4|9=63|35=0|34=1626|49=DMA_HUB|56=FIXCLIENT1|52=20240213-10:07:53.393|10=087|
2024-02-13 11:07:55.371 [45] [FixSender] (DEBUG) Sending 8=FIX.4.4|9=59|35=0|49=FIXCLIENT1|56=DMA_HUB|34=1614|52=20240213-10:07:55|10=142|
2024-02-13 11:08:23.341 [44] [FixSender] (DEBUG) Receiving 8=FIX.4.4|9=63|35=0|34=1627|49=DMA_HUB|56=FIXCLIENT1|52=20240213-10:08:23.341|10=079|
2024-02-13 11:08:25.380 [45] [FixSender] (DEBUG) Sending 8=FIX.4.4|9=59|35=0|49=FIXCLIENT1|56=DMA_HUB|34=1615|52=20240213-10:08:25|10=141|
2024-02-13 11:08:53.297 [44] [FixSender] (DEBUG) Receiving 8=FIX.4.4|9=63|35=0|34=1628|49=DMA_HUB|56=FIXCLIENT1|52=20240213-10:08:53.296|10=092|
2024-02-13 11:08:55.392 [45] [FixSender] (DEBUG) Sending 8=FIX.4.4|9=59|35=0|49=FIXCLIENT1|56=DMA_HUB|34=1616|52=20240213-10:08:55|10=145|
2024-02-13 11:09:23.251 [44] [FixSender] (DEBUG) Receiving 8=FIX.4.4|9=63|35=0|34=1629|49=DMA_HUB|56=FIXCLIENT1|52=20240213-10:09:23.250|10=081|
2024-02-13 11:09:25.405 [45] [FixSender] (DEBUG) Sending 8=FIX.4.4|9=59|35=0|49=FIXCLIENT1|56=DMA_HUB|34=1617|52=20240213-10:09:25|10=144|
2024-02-13 11:09:53.205 [44] [FixSender] (DEBUG) Receiving 8=FIX.4.4|9=63|35=0|34=1630|49=DMA_HUB|56=FIXCLIENT1|52=20240213-10:09:53.204|10=075|
2024-02-13 11:09:55.406 [45] [FixSender] (DEBUG) Sending 8=FIX.4.4|9=59|35=0|49=FIXCLIENT1|56=DMA_HUB|34=1618|52=20240213-10:09:55|10=148|
2024-02-13 11:10:23.150 [44] [FixSender] (DEBUG) Receiving 8=FIX.4.4|9=63|35=0|34=1631|49=DMA_HUB|56=FIXCLIENT1|52=20240213-10:10:23.150|10=065|
2024-02-13 11:10:25.408 [45] [FixSender] (DEBUG) Sending 8=FIX.4.4|9=59|35=0|49=FIXCLIENT1|56=DMA_HUB|34=1619|52=20240213-10:10:25|10=138|
2024-02-13 11:10:53.103 [44] [FixSender] (DEBUG) Receiving 8=FIX.4.4|9=63|35=0|34=1632|49=DMA_HUB|56=FIXCLIENT1|52=20240213-10:10:53.102|10=066|
2024-02-13 11:10:55.415 [45] [FixSender] (DEBUG) Sending 8=FIX.4.4|9=59|35=0|49=FIXCLIENT1|56=DMA_HUB|34=1620|52=20240213-10:10:55|10=133|
2024-02-13 11:11:23.061 [44] [FixSender] (DEBUG) Receiving 8=FIX.4.4|9=63|35=0|34=1633|49=DMA_HUB|56=FIXCLIENT1|52=20240213-10:11:23.059|10=076|
2024-02-13 11:11:25.423 [45] [FixSender] (DEBUG) Sending 8=FIX.4.4|9=59|35=0|49=FIXCLIENT1|56=DMA_HUB|34=1621|52=20240213-10:11:25|10=132|
2024-02-13 11:11:53.011 [44] [FixSender] (DEBUG) Receiving 8=FIX.4.4|9=63|35=0|34=1634|49=DMA_HUB|56=FIXCLIENT1|52=20240213-10:11:53.007|10=073|
2024-02-13 11:11:55.438 [45] [FixSender] (DEBUG) Sending 8=FIX.4.4|9=59|35=0|49=FIXCLIENT1|56=DMA_HUB|34=1622|52=20240213-10:11:55|10=136|
2024-02-13 11:12:22.964 [44] [FixSender] (DEBUG) Receiving 8=FIX.4.4|9=63|35=0|34=1635|49=DMA_HUB|56=FIXCLIENT1|52=20240213-10:12:22.963|10=082|
2024-02-13 11:12:25.452 [45] [FixSender] (DEBUG) Sending 8=FIX.4.4|9=59|35=0|49=FIXCLIENT1|56=DMA_HUB|34=1623|52=20240213-10:12:25|10=135|
2024-02-13 11:12:52.912 [44] [FixSender] (DEBUG) Receiving 8=FIX.4.4|9=63|35=0|34=1636|49=DMA_HUB|56=FIXCLIENT1|52=20240213-10:12:52.911|10=079|
2024-02-13 11:12:55.468 [45] [FixSender] (DEBUG) Sending 8=FIX.4.4|9=59|35=0|49=FIXCLIENT1|56=DMA_HUB|34=1624|52=20240213-10:12:55|10=139|
2024-02-13 11:13:22.868 [44] [FixSender] (DEBUG) Receiving 8=FIX.4.4|9=63|35=0|34=1637|49=DMA_HUB|56=FIXCLIENT1|52=20240213-10:13:22.868|10=089|
2024-02-13 11:13:25.473 [45] [FixSender] (DEBUG) Sending 8=FIX.4.4|9=59|35=0|49=FIXCLIENT1|56=DMA_HUB|34=1625|52=20240213-10:13:25|10=138|
2024-02-13 11:13:52.809 [44] [FixSender] (DEBUG) Receiving 8=FIX.4.4|9=63|35=0|34=1638|49=DMA_HUB|56=FIXCLIENT1|52=20240213-10:13:52.808|10=087|
2024-02-13 11:13:55.483 [45] [FixSender] (DEBUG) Sending 8=FIX.4.4|9=59|35=0|49=FIXCLIENT1|56=DMA_HUB|34=1626|52=20240213-10:13:55|10=142|
2024-02-13 11:14:22.761 [44] [FixSender] (DEBUG) Receiving 8=FIX.4.4|9=63|35=0|34=1639|49=DMA_HUB|56=FIXCLIENT1|52=20240213-10:14:22.761|10=084|
2024-02-13 11:14:25.495 [45] [FixSender] (DEBUG) Sending 8=FIX.4.4|9=59|35=0|49=FIXCLIENT1|56=DMA_HUB|34=1627|52=20240213-10:14:25|10=141|
2024-02-13 11:14:52.713 [44] [FixSender] (DEBUG) Receiving 8=FIX.4.4|9=63|35=0|34=1640|49=DMA_HUB|56=FIXCLIENT1|52=20240213-10:14:52.712|10=075|
2024-02-13 11:14:55.511 [45] [FixSender] (DEBUG) Sending 8=FIX.4.4|9=59|35=0|49=FIXCLIENT1|56=DMA_HUB|34=1628|52=20240213-10:14:55|10=145|
2024-02-13 11:15:22.673 [44] [FixSender] (DEBUG) Receiving 8=FIX.4.4|9=63|35=0|34=1641|49=DMA_HUB|56=FIXCLIENT1|52=20240213-10:15:22.673|10=080|
2024-02-13 11:15:25.517 [45] [FixSender] (DEBUG) Sending 8=FIX.4.4|9=59|35=0|49=FIXCLIENT1|56=DMA_HUB|34=1629|52=20240213-10:15:25|10=144|
2024-02-13 11:15:52.628 [44] [FixSender] (DEBUG) Receiving 8=FIX.4.4|9=63|35=0|34=1642|49=DMA_HUB|56=FIXCLIENT1|52=20240213-10:15:52.628|10=084|
2024-02-13 11:15:55.526 [45] [FixSender] (DEBUG) Sending 8=FIX.4.4|9=59|35=0|49=FIXCLIENT1|56=DMA_HUB|34=1630|52=20240213-10:15:55|10=139|
2024-02-13 11:16:22.569 [44] [FixSender] (DEBUG) Receiving 8=FIX.4.4|9=63|35=0|34=1643|49=DMA_HUB|56=FIXCLIENT1|52=20240213-10:16:22.569|10=087|
2024-02-13 11:16:25.535 [45] [FixSender] (DEBUG) Sending 8=FIX.4.4|9=59|35=0|49=FIXCLIENT1|56=DMA_HUB|34=1631|52=20240213-10:16:25|10=138|
2024-02-13 11:16:52.527 [44] [FixSender] (DEBUG) Receiving 8=FIX.4.4|9=63|35=0|34=1644|49=DMA_HUB|56=FIXCLIENT1|52=20240213-10:16:52.527|10=085|
2024-02-13 11:16:55.548 [45] [FixSender] (DEBUG) Sending 8=FIX.4.4|9=59|35=0|49=FIXCLIENT1|56=DMA_HUB|34=1632|52=20240213-10:16:55|10=142|
2024-02-13 11:17:22.474 [44] [FixSender] (DEBUG) Receiving 8=FIX.4.4|9=63|35=0|34=1645|49=DMA_HUB|56=FIXCLIENT1|52=20240213-10:17:22.474|10=085|
2024-02-13 11:17:25.560 [45] [FixSender] (DEBUG) Sending 8=FIX.4.4|9=59|35=0|49=FIXCLIENT1|56=DMA_HUB|34=1633|52=20240213-10:17:25|10=141|
2024-02-13 11:17:52.437 [44] [FixSender] (DEBUG) Receiving 8=FIX.4.4|9=63|35=0|34=1646|49=DMA_HUB|56=FIXCLIENT1|52=20240213-10:17:52.437|10=088|
2024-02-13 11:17:55.571 [45] [FixSender] (DEBUG) Sending 8=FIX.4.4|9=59|35=0|49=FIXCLIENT1|56=DMA_HUB|34=1634|52=20240213-10:17:55|10=145|
2024-02-13 11:18:22.388 [44] [FixSender] (DEBUG) Receiving 8=FIX.4.4|9=63|35=0|34=1647|49=DMA_HUB|56=FIXCLIENT1|52=20240213-10:18:22.388|10=092|
2024-02-13 11:18:25.584 [45] [FixSender] (DEBUG) Sending 8=FIX.4.4|9=59|35=0|49=FIXCLIENT1|56=DMA_HUB|34=1635|52=20240213-10:18:25|10=144|
2024-02-13 11:18:52.335 [44] [FixSender] (DEBUG) Receiving 8=FIX.4.4|9=63|35=0|34=1648|49=DMA_HUB|56=FIXCLIENT1|52=20240213-10:18:52.334|10=087|
2024-02-13 11:18:55.593 [45] [FixSender] (DEBUG) Sending 8=FIX.4.4|9=59|35=0|49=FIXCLIENT1|56=DMA_HUB|34=1636|52=20240213-10:18:55|10=148|
2024-02-13 11:19:22.288 [44] [FixSender] (DEBUG) Receiving 8=FIX.4.4|9=63|35=0|34=1649|49=DMA_HUB|56=FIXCLIENT1|52=20240213-10:19:22.288|10=094|
2024-02-13 11:19:25.601 [45] [FixSender] (DEBUG) Sending 8=FIX.4.4|9=59|35=0|49=FIXCLIENT1|56=DMA_HUB|34=1637|52=20240213-10:19:25|10=147|
2024-02-13 11:19:52.238 [44] [FixSender] (DEBUG) Receiving 8=FIX.4.4|9=63|35=0|34=1650|49=DMA_HUB|56=FIXCLIENT1|52=20240213-10:19:52.237|10=083|
2024-02-13 11:19:55.606 [45] [FixSender] (DEBUG) Sending 8=FIX.4.4|9=59|35=0|49=FIXCLIENT1|56=DMA_HUB|34=1638|52=20240213-10:19:55|10=151|
2024-02-13 11:20:22.187 [44] [FixSender] (DEBUG) Receiving 8=FIX.4.4|9=63|35=0|34=1651|49=DMA_HUB|56=FIXCLIENT1|52=20240213-10:20:22.185|10=075|
2024-02-13 11:20:25.622 [45] [FixSender] (DEBUG) Sending 8=FIX.4.4|9=59|35=0|49=FIXCLIENT1|56=DMA_HUB|34=1639|52=20240213-10:20:25|10=141|
2024-02-13 11:20:52.145 [44] [FixSender] (DEBUG) Receiving 8=FIX.4.4|9=63|35=0|34=1652|49=DMA_HUB|56=FIXCLIENT1|52=20240213-10:20:52.141|10=071|
2024-02-13 11:20:55.627 [45] [FixSender] (DEBUG) Sending 8=FIX.4.4|9=59|35=0|49=FIXCLIENT1|56=DMA_HUB|34=1640|52=20240213-10:20:55|10=136|
2024-02-13 11:21:22.095 [44] [FixSender] (DEBUG) Receiving 8=FIX.4.4|9=63|35=0|34=1653|49=DMA_HUB|56=FIXCLIENT1|52=20240213-10:21:22.094|10=077|
2024-02-13 11:21:25.631 [45] [FixSender] (DEBUG) Sending 8=FIX.4.4|9=59|35=0|49=FIXCLIENT1|56=DMA_HUB|34=1641|52=20240213-10:21:25|10=135|
2024-02-13 11:21:52.048 [44] [FixSender] (DEBUG) Receiving 8=FIX.4.4|9=63|35=0|34=1654|49=DMA_HUB|56=FIXCLIENT1|52=20240213-10:21:52.047|10=079|
2024-02-13 11:21:55.635 [45] [FixSender] (DEBUG) Sending 8=FIX.4.4|9=59|35=0|49=FIXCLIENT1|56=DMA_HUB|34=1642|52=20240213-10:21:55|10=139|
2024-02-13 11:22:21.998 [44] [FixSender] (DEBUG) Receiving 8=FIX.4.4|9=63|35=0|34=1655|49=DMA_HUB|56=FIXCLIENT1|52=20240213-10:22:21.997|10=091|
2024-02-13 11:22:25.643 [45] [FixSender] (DEBUG) Sending 8=FIX.4.4|9=59|35=0|49=FIXCLIENT1|56=DMA_HUB|34=1643|52=20240213-10:22:25|10=138|
2024-02-13 11:22:51.956 [44] [FixSender] (DEBUG) Receiving 8=FIX.4.4|9=63|35=0|34=1656|49=DMA_HUB|56=FIXCLIENT1|52=20240213-10:22:51.956|10=090|
2024-02-13 11:22:55.646 [45] [FixSender] (DEBUG) Sending 8=FIX.4.4|9=59|35=0|49=FIXCLIENT1|56=DMA_HUB|34=1644|52=20240213-10:22:55|10=142|
2024-02-13 11:23:21.909 [44] [FixSender] (DEBUG) Receiving 8=FIX.4.4|9=63|35=0|34=1657|49=DMA_HUB|56=FIXCLIENT1|52=20240213-10:23:21.909|10=087|
2024-02-13 11:23:25.652 [45] [FixSender] (DEBUG) Sending 8=FIX.4.4|9=59|35=0|49=FIXCLIENT1|56=DMA_HUB|34=1645|52=20240213-10:23:25|10=141|
2024-02-13 11:23:51.856 [44] [FixSender] (DEBUG) Receiving 8=FIX.4.4|9=63|35=0|34=1658|49=DMA_HUB|56=FIXCLIENT1|52=20240213-10:23:51.856|10=092|
2024-02-13 11:23:55.666 [45] [FixSender] (DEBUG) Sending 8=FIX.4.4|9=59|35=0|49=FIXCLIENT1|56=DMA_HUB|34=1646|52=20240213-10:23:55|10=145|
2024-02-13 11:24:21.809 [44] [FixSender] (DEBUG) Receiving 8=FIX.4.4|9=63|35=0|34=1659|49=DMA_HUB|56=FIXCLIENT1|52=20240213-10:24:21.807|10=087|
2024-02-13 11:24:25.667 [45] [FixSender] (DEBUG) Sending 8=FIX.4.4|9=59|35=0|49=FIXCLIENT1|56=DMA_HUB|34=1647|52=20240213-10:24:25|10=144|
2024-02-13 11:24:51.759 [44] [FixSender] (DEBUG) Receiving 8=FIX.4.4|9=63|35=0|34=1660|49=DMA_HUB|56=FIXCLIENT1|52=20240213-10:24:51.759|10=088|
2024-02-13 11:24:55.671 [45] [FixSender] (DEBUG) Sending 8=FIX.4.4|9=59|35=0|49=FIXCLIENT1|56=DMA_HUB|34=1648|52=20240213-10:24:55|10=148|
2024-02-13 11:25:21.717 [44] [FixSender] (DEBUG) Receiving 8=FIX.4.4|9=63|35=0|34=1661|49=DMA_HUB|56=FIXCLIENT1|52=20240213-10:25:21.716|10=080|
2024-02-13 11:25:25.686 [45] [FixSender] (DEBUG) Sending 8=FIX.4.4|9=59|35=0|49=FIXCLIENT1|56=DMA_HUB|34=1649|52=20240213-10:25:25|10=147|
2024-02-13 11:25:51.669 [44] [FixSender] (DEBUG) Receiving 8=FIX.4.4|9=63|35=0|34=1662|49=DMA_HUB|56=FIXCLIENT1|52=20240213-10:25:51.669|10=091|
2024-02-13 11:25:55.687 [45] [FixSender] (DEBUG) Sending 8=FIX.4.4|9=59|35=0|49=FIXCLIENT1|56=DMA_HUB|34=1650|52=20240213-10:25:55|10=142|
2024-02-13 11:26:21.612 [44] [FixSender] (DEBUG) Receiving 8=FIX.4.4|9=63|35=0|34=1663|49=DMA_HUB|56=FIXCLIENT1|52=20240213-10:26:21.612|10=078|
2024-02-13 11:26:25.704 [45] [FixSender] (DEBUG) Sending 8=FIX.4.4|9=59|35=0|49=FIXCLIENT1|56=DMA_HUB|34=1651|52=20240213-10:26:25|10=141|
2024-02-13 11:26:51.570 [44] [FixSender] (DEBUG) Receiving 8=FIX.4.4|9=63|35=0|34=1664|49=DMA_HUB|56=FIXCLIENT1|52=20240213-10:26:51.570|10=085|
2024-02-13 11:26:55.707 [45] [FixSender] (DEBUG) Sending 8=FIX.4.4|9=59|35=0|49=FIXCLIENT1|56=DMA_HUB|34=1652|52=20240213-10:26:55|10=145|
2024-02-13 11:27:21.521 [44] [FixSender] (DEBUG) Receiving 8=FIX.4.4|9=63|35=0|34=1665|49=DMA_HUB|56=FIXCLIENT1|52=20240213-10:27:21.521|10=080|
2024-02-13 11:27:25.717 [45] [FixSender] (DEBUG) Sending 8=FIX.4.4|9=59|35=0|49=FIXCLIENT1|56=DMA_HUB|34=1653|52=20240213-10:27:25|10=144|
2024-02-13 11:27:51.472 [44] [FixSender] (DEBUG) Receiving 8=FIX.4.4|9=63|35=0|34=1666|49=DMA_HUB|56=FIXCLIENT1|52=20240213-10:27:51.472|10=089|
2024-02-13 11:27:55.732 [45] [FixSender] (DEBUG) Sending 8=FIX.4.4|9=59|35=0|49=FIXCLIENT1|56=DMA_HUB|34=1654|52=20240213-10:27:55|10=148|
2024-02-13 11:28:21.426 [44] [FixSender] (DEBUG) Receiving 8=FIX.4.4|9=63|35=0|34=1667|49=DMA_HUB|56=FIXCLIENT1|52=20240213-10:28:21.426|10=087|
2024-02-13 11:28:25.741 [45] [FixSender] (DEBUG) Sending 8=FIX.4.4|9=59|35=0|49=FIXCLIENT1|56=DMA_HUB|34=1655|52=20240213-10:28:25|10=147|
2024-02-13 11:28:51.375 [44] [FixSender] (DEBUG) Receiving 8=FIX.4.4|9=63|35=0|34=1668|49=DMA_HUB|56=FIXCLIENT1|52=20240213-10:28:51.375|10=094|
2024-02-13 11:28:55.749 [45] [FixSender] (DEBUG) Sending 8=FIX.4.4|9=59|35=0|49=FIXCLIENT1|56=DMA_HUB|34=1656|52=20240213-10:28:55|10=151|
2024-02-13 11:29:21.324 [44] [FixSender] (DEBUG) Receiving 8=FIX.4.4|9=63|35=0|34=1669|49=DMA_HUB|56=FIXCLIENT1|52=20240213-10:29:21.324|10=087|
2024-02-13 11:29:25.764 [45] [FixSender] (DEBUG) Sending 8=FIX.4.4|9=59|35=0|49=FIXCLIENT1|56=DMA_HUB|34=1657|52=20240213-10:29:25|10=150|
2024-02-13 11:29:51.286 [44] [FixSender] (DEBUG) Receiving 8=FIX.4.4|9=63|35=0|34=1670|49=DMA_HUB|56=FIXCLIENT1|52=20240213-10:29:51.283|10=086|
2024-02-13 11:29:55.770 [45] [FixSender] (DEBUG) Sending 8=FIX.4.4|9=59|35=0|49=FIXCLIENT1|56=DMA_HUB|34=1658|52=20240213-10:29:55|10=154|
2024-02-13 11:30:21.239 [44] [FixSender] (DEBUG) Receiving 8=FIX.4.4|9=63|35=0|34=1671|49=DMA_HUB|56=FIXCLIENT1|52=20240213-10:30:21.238|10=076|
2024-02-13 11:30:25.780 [45] [FixSender] (DEBUG) Sending 8=FIX.4.4|9=59|35=0|49=FIXCLIENT1|56=DMA_HUB|34=1659|52=20240213-10:30:25|10=144|
2024-02-13 11:30:51.190 [44] [FixSender] (DEBUG) Receiving 8=FIX.4.4|9=63|35=0|34=1672|49=DMA_HUB|56=FIXCLIENT1|52=20240213-10:30:51.189|10=085|
2024-02-13 11:30:55.795 [45] [FixSender] (DEBUG) Sending 8=FIX.4.4|9=59|35=0|49=FIXCLIENT1|56=DMA_HUB|34=1660|52=20240213-10:30:55|10=139|
2024-02-13 11:31:21.139 [44] [FixSender] (DEBUG) Receiving 8=FIX.4.4|9=63|35=0|34=1673|49=DMA_HUB|56=FIXCLIENT1|52=20240213-10:31:21.139|10=079|
2024-02-13 11:31:25.803 [45] [FixSender] (DEBUG) Sending 8=FIX.4.4|9=59|35=0|49=FIXCLIENT1|56=DMA_HUB|34=1661|52=20240213-10:31:25|10=138|
2024-02-13 11:31:51.086 [44] [FixSender] (DEBUG) Receiving 8=FIX.4.4|9=63|35=0|34=1674|49=DMA_HUB|56=FIXCLIENT1|52=20240213-10:31:51.086|10=084|
2024-02-13 11:31:55.806 [45] [FixSender] (DEBUG) Sending 8=FIX.4.4|9=59|35=0|49=FIXCLIENT1|56=DMA_HUB|34=1662|52=20240213-10:31:55|10=142|
2024-02-13 11:32:21.034 [44] [FixSender] (DEBUG) Receiving 8=FIX.4.4|9=63|35=0|34=1675|49=DMA_HUB|56=FIXCLIENT1|52=20240213-10:32:21.034|10=076|
2024-02-13 11:32:25.808 [45] [FixSender] (DEBUG) Sending 8=FIX.4.4|9=59|35=0|49=FIXCLIENT1|56=DMA_HUB|34=1663|52=20240213-10:32:25|10=141|
2024-02-13 11:32:50.986 [44] [FixSender] (DEBUG) Receiving 8=FIX.4.4|9=63|35=0|34=1676|49=DMA_HUB|56=FIXCLIENT1|52=20240213-10:32:50.986|10=095|
2024-02-13 11:32:55.811 [45] [FixSender] (DEBUG) Sending 8=FIX.4.4|9=59|35=0|49=FIXCLIENT1|56=DMA_HUB|34=1664|52=20240213-10:32:55|10=145|
2024-02-13 11:33:20.940 [44] [FixSender] (DEBUG) Receiving 8=FIX.4.4|9=63|35=0|34=1677|49=DMA_HUB|56=FIXCLIENT1|52=20240213-10:33:20.940|10=084|
2024-02-13 11:33:25.816 [45] [FixSender] (DEBUG) Sending 8=FIX.4.4|9=59|35=0|49=FIXCLIENT1|56=DMA_HUB|34=1665|52=20240213-10:33:25|10=144|
2024-02-13 11:33:50.888 [44] [FixSender] (DEBUG) Receiving 8=FIX.4.4|9=63|35=0|34=1678|49=DMA_HUB|56=FIXCLIENT1|52=20240213-10:33:50.888|10=099|
2024-02-13 11:33:55.817 [45] [FixSender] (DEBUG) Sending 8=FIX.4.4|9=59|35=0|49=FIXCLIENT1|56=DMA_HUB|34=1666|52=20240213-10:33:55|10=148|
2024-02-13 11:34:20.849 [44] [FixSender] (DEBUG) Receiving 8=FIX.4.4|9=63|35=0|34=1679|49=DMA_HUB|56=FIXCLIENT1|52=20240213-10:34:20.848|10=094|
2024-02-13 11:34:25.822 [45] [FixSender] (DEBUG) Sending 8=FIX.4.4|9=59|35=0|49=FIXCLIENT1|56=DMA_HUB|34=1667|52=20240213-10:34:25|10=147|
2024-02-13 11:34:50.799 [44] [FixSender] (DEBUG) Receiving 8=FIX.4.4|9=63|35=0|34=1680|49=DMA_HUB|56=FIXCLIENT1|52=20240213-10:34:50.796|10=091|
2024-02-13 11:34:55.836 [45] [FixSender] (DEBUG) Sending 8=FIX.4.4|9=59|35=0|49=FIXCLIENT1|56=DMA_HUB|34=1668|52=20240213-10:34:55|10=151|
2024-02-13 11:35:20.752 [44] [FixSender] (DEBUG) Receiving 8=FIX.4.4|9=63|35=0|34=1681|49=DMA_HUB|56=FIXCLIENT1|52=20240213-10:35:20.751|10=081|
2024-02-13 11:35:25.851 [45] [FixSender] (DEBUG) Sending 8=FIX.4.4|9=59|35=0|49=FIXCLIENT1|56=DMA_HUB|34=1669|52=20240213-10:35:25|10=150|
2024-02-13 11:35:50.708 [44] [FixSender] (DEBUG) Receiving 8=FIX.4.4|9=63|35=0|34=1682|49=DMA_HUB|56=FIXCLIENT1|52=20240213-10:35:50.708|10=087|
2024-02-13 11:35:55.866 [45] [FixSender] (DEBUG) Sending 8=FIX.4.4|9=59|35=0|49=FIXCLIENT1|56=DMA_HUB|34=1670|52=20240213-10:35:55|10=145|
2024-02-13 11:36:20.654 [44] [FixSender] (DEBUG) Receiving 8=FIX.4.4|9=63|35=0|34=1683|49=DMA_HUB|56=FIXCLIENT1|52=20240213-10:36:20.654|10=086|
2024-02-13 11:36:25.873 [45] [FixSender] (DEBUG) Sending 8=FIX.4.4|9=59|35=0|49=FIXCLIENT1|56=DMA_HUB|34=1671|52=20240213-10:36:25|10=144|
2024-02-13 11:36:50.609 [44] [FixSender] (DEBUG) Receiving 8=FIX.4.4|9=63|35=0|34=1684|49=DMA_HUB|56=FIXCLIENT1|52=20240213-10:36:50.609|10=090|
2024-02-13 11:36:55.879 [45] [FixSender] (DEBUG) Sending 8=FIX.4.4|9=59|35=0|49=FIXCLIENT1|56=DMA_HUB|34=1672|52=20240213-10:36:55|10=148|
2024-02-13 11:37:20.553 [44] [FixSender] (DEBUG) Receiving 8=FIX.4.4|9=63|35=0|34=1685|49=DMA_HUB|56=FIXCLIENT1|52=20240213-10:37:20.553|10=087|
2024-02-13 11:37:25.880 [45] [FixSender] (DEBUG) Sending 8=FIX.4.4|9=59|35=0|49=FIXCLIENT1|56=DMA_HUB|34=1673|52=20240213-10:37:25|10=147|
2024-02-13 11:37:50.507 [44] [FixSender] (DEBUG) Receiving 8=FIX.4.4|9=63|35=0|34=1686|49=DMA_HUB|56=FIXCLIENT1|52=20240213-10:37:50.507|10=090|
2024-02-13 11:37:55.896 [45] [FixSender] (DEBUG) Sending 8=FIX.4.4|9=59|35=0|49=FIXCLIENT1|56=DMA_HUB|34=1674|52=20240213-10:37:55|10=151|
2024-02-13 11:38:20.463 [44] [FixSender] (DEBUG) Receiving 8=FIX.4.4|9=63|35=0|34=1687|49=DMA_HUB|56=FIXCLIENT1|52=20240213-10:38:20.463|10=090|
2024-02-13 11:38:25.909 [45] [FixSender] (DEBUG) Sending 8=FIX.4.4|9=59|35=0|49=FIXCLIENT1|56=DMA_HUB|34=1675|52=20240213-10:38:25|10=150|
2024-02-13 11:38:50.422 [44] [FixSender] (DEBUG) Receiving 8=FIX.4.4|9=63|35=0|34=1688|49=DMA_HUB|56=FIXCLIENT1|52=20240213-10:38:50.421|10=088|
2024-02-13 11:38:55.917 [45] [FixSender] (DEBUG) Sending 8=FIX.4.4|9=59|35=0|49=FIXCLIENT1|56=DMA_HUB|34=1676|52=20240213-10:38:55|10=154|
2024-02-13 11:39:20.364 [44] [FixSender] (DEBUG) Receiving 8=FIX.4.4|9=63|35=0|34=1689|49=DMA_HUB|56=FIXCLIENT1|52=20240213-10:39:20.364|10=093|
2024-02-13 11:39:25.922 [45] [FixSender] (DEBUG) Sending 8=FIX.4.4|9=59|35=0|49=FIXCLIENT1|56=DMA_HUB|34=1677|52=20240213-10:39:25|10=153|
2024-02-13 11:39:50.312 [44] [FixSender] (DEBUG) Receiving 8=FIX.4.4|9=63|35=0|34=1690|49=DMA_HUB|56=FIXCLIENT1|52=20240213-10:39:50.312|10=081|
2024-02-13 11:39:55.934 [45] [FixSender] (DEBUG) Sending 8=FIX.4.4|9=59|35=0|49=FIXCLIENT1|56=DMA_HUB|34=1678|52=20240213-10:39:55|10=157|
2024-02-13 11:40:20.264 [44] [FixSender] (DEBUG) Receiving 8=FIX.4.4|9=63|35=0|34=1691|49=DMA_HUB|56=FIXCLIENT1|52=20240213-10:40:20.264|10=077|
2024-02-13 11:40:25.943 [45] [FixSender] (DEBUG) Sending 8=FIX.4.4|9=59|35=0|49=FIXCLIENT1|56=DMA_HUB|34=1679|52=20240213-10:40:25|10=147|
2024-02-13 11:40:50.224 [44] [FixSender] (DEBUG) Receiving 8=FIX.4.4|9=63|35=0|34=1692|49=DMA_HUB|56=FIXCLIENT1|52=20240213-10:40:50.223|10=076|
2024-02-13 11:40:55.960 [45] [FixSender] (DEBUG) Sending 8=FIX.4.4|9=59|35=0|49=FIXCLIENT1|56=DMA_HUB|34=1680|52=20240213-10:40:55|10=142|
2024-02-13 11:41:20.169 [44] [FixSender] (DEBUG) Receiving 8=FIX.4.4|9=63|35=0|34=1693|49=DMA_HUB|56=FIXCLIENT1|52=20240213-10:41:20.169|10=084|
2024-02-13 11:41:25.974 [45] [FixSender] (DEBUG) Sending 8=FIX.4.4|9=59|35=0|49=FIXCLIENT1|56=DMA_HUB|34=1681|52=20240213-10:41:25|10=141|
2024-02-13 11:41:50.130 [44] [FixSender] (DEBUG) Receiving 8=FIX.4.4|9=63|35=0|34=1694|49=DMA_HUB|56=FIXCLIENT1|52=20240213-10:41:50.130|10=076|
2024-02-13 11:41:55.974 [45] [FixSender] (DEBUG) Sending 8=FIX.4.4|9=59|35=0|49=FIXCLIENT1|56=DMA_HUB|34=1682|52=20240213-10:41:55|10=145|
2024-02-13 11:42:20.077 [44] [FixSender] (DEBUG) Receiving 8=FIX.4.4|9=63|35=0|34=1695|49=DMA_HUB|56=FIXCLIENT1|52=20240213-10:42:20.077|10=085|
2024-02-13 11:42:25.990 [45] [FixSender] (DEBUG) Sending 8=FIX.4.4|9=59|35=0|49=FIXCLIENT1|56=DMA_HUB|34=1683|52=20240213-10:42:25|10=144|
2024-02-13 11:42:50.033 [44] [FixSender] (DEBUG) Receiving 8=FIX.4.4|9=63|35=0|34=1696|49=DMA_HUB|56=FIXCLIENT1|52=20240213-10:42:50.033|10=081|
2024-02-13 11:42:55.997 [45] [FixSender] (DEBUG) Sending 8=FIX.4.4|9=59|35=0|49=FIXCLIENT1|56=DMA_HUB|34=1684|52=20240213-10:42:55|10=148|
2024-02-13 11:43:19.982 [44] [FixSender] (DEBUG) Receiving 8=FIX.4.4|9=63|35=0|34=1697|49=DMA_HUB|56=FIXCLIENT1|52=20240213-10:43:19.982|10=101|
2024-02-13 11:43:26.009 [45] [FixSender] (DEBUG) Sending 8=FIX.4.4|9=59|35=0|49=FIXCLIENT1|56=DMA_HUB|34=1685|52=20240213-10:43:26|10=148|
2024-02-13 11:43:49.938 [44] [FixSender] (DEBUG) Receiving 8=FIX.4.4|9=63|35=0|34=1698|49=DMA_HUB|56=FIXCLIENT1|52=20240213-10:43:49.938|10=106|
2024-02-13 11:43:56.014 [45] [FixSender] (DEBUG) Sending 8=FIX.4.4|9=59|35=0|49=FIXCLIENT1|56=DMA_HUB|34=1686|52=20240213-10:43:56|10=152|
2024-02-13 11:44:19.892 [44] [FixSender] (DEBUG) Receiving 8=FIX.4.4|9=63|35=0|34=1699|49=DMA_HUB|56=FIXCLIENT1|52=20240213-10:44:19.891|10=103|
2024-02-13 11:44:26.018 [45] [FixSender] (DEBUG) Sending 8=FIX.4.4|9=59|35=0|49=FIXCLIENT1|56=DMA_HUB|34=1687|52=20240213-10:44:26|10=151|
2024-02-13 11:44:49.834 [44] [FixSender] (DEBUG) Receiving 8=FIX.4.4|9=63|35=0|34=1700|49=DMA_HUB|56=FIXCLIENT1|52=20240213-10:44:49.834|10=086|
2024-02-13 11:44:56.029 [45] [FixSender] (DEBUG) Sending 8=FIX.4.4|9=59|35=0|49=FIXCLIENT1|56=DMA_HUB|34=1688|52=20240213-10:44:56|10=155|
2024-02-13 11:45:19.792 [44] [FixSender] (DEBUG) Receiving 8=FIX.4.4|9=63|35=0|34=1701|49=DMA_HUB|56=FIXCLIENT1|52=20240213-10:45:19.790|10=086|
2024-02-13 11:45:26.034 [45] [FixSender] (DEBUG) Sending 8=FIX.4.4|9=59|35=0|49=FIXCLIENT1|56=DMA_HUB|34=1689|52=20240213-10:45:26|10=154|
2024-02-13 11:45:49.745 [44] [FixSender] (DEBUG) Receiving 8=FIX.4.4|9=63|35=0|34=1702|49=DMA_HUB|56=FIXCLIENT1|52=20240213-10:45:49.745|10=090|
2024-02-13 11:45:56.036 [45] [FixSender] (DEBUG) Sending 8=FIX.4.4|9=59|35=0|49=FIXCLIENT1|56=DMA_HUB|34=1690|52=20240213-10:45:56|10=149|
2024-02-13 11:46:19.693 [44] [FixSender] (DEBUG) Receiving 8=FIX.4.4|9=63|35=0|34=1703|49=DMA_HUB|56=FIXCLIENT1|52=20240213-10:46:19.692|10=090|
2024-02-13 11:46:26.039 [45] [FixSender] (DEBUG) Sending 8=FIX.4.4|9=59|35=0|49=FIXCLIENT1|56=DMA_HUB|34=1691|52=20240213-10:46:26|10=148|
2024-02-13 11:46:49.647 [44] [FixSender] (DEBUG) Receiving 8=FIX.4.4|9=63|35=0|34=1704|49=DMA_HUB|56=FIXCLIENT1|52=20240213-10:46:49.647|10=094|
2024-02-13 11:46:56.054 [45] [FixSender] (DEBUG) Sending 8=FIX.4.4|9=59|35=0|49=FIXCLIENT1|56=DMA_HUB|34=1692|52=20240213-10:46:56|10=152|
2024-02-13 11:47:19.599 [44] [FixSender] (DEBUG) Receiving 8=FIX.4.4|9=63|35=0|34=1705|49=DMA_HUB|56=FIXCLIENT1|52=20240213-10:47:19.598|10=098|
2024-02-13 11:47:26.063 [45] [FixSender] (DEBUG) Sending 8=FIX.4.4|9=59|35=0|49=FIXCLIENT1|56=DMA_HUB|34=1693|52=20240213-10:47:26|10=151|
2024-02-13 11:47:49.556 [44] [FixSender] (DEBUG) Receiving 8=FIX.4.4|9=63|35=0|34=1706|49=DMA_HUB|56=FIXCLIENT1|52=20240213-10:47:49.556|10=096|
2024-02-13 11:47:56.066 [45] [FixSender] (DEBUG) Sending 8=FIX.4.4|9=59|35=0|49=FIXCLIENT1|56=DMA_HUB|34=1694|52=20240213-10:47:56|10=155|
2024-02-13 11:48:19.498 [44] [FixSender] (DEBUG) Receiving 8=FIX.4.4|9=63|35=0|34=1707|49=DMA_HUB|56=FIXCLIENT1|52=20240213-10:48:19.498|10=100|
2024-02-13 11:48:26.076 [45] [FixSender] (DEBUG) Sending 8=FIX.4.4|9=59|35=0|49=FIXCLIENT1|56=DMA_HUB|34=1695|52=20240213-10:48:26|10=154|
2024-02-13 11:48:49.458 [44] [FixSender] (DEBUG) Receiving 8=FIX.4.4|9=63|35=0|34=1708|49=DMA_HUB|56=FIXCLIENT1|52=20240213-10:48:49.458|10=100|
2024-02-13 11:48:56.080 [45] [FixSender] (DEBUG) Sending 8=FIX.4.4|9=59|35=0|49=FIXCLIENT1|56=DMA_HUB|34=1696|52=20240213-10:48:56|10=158|
2024-02-13 11:49:19.402 [44] [FixSender] (DEBUG) Receiving 8=FIX.4.4|9=63|35=0|34=1709|49=DMA_HUB|56=FIXCLIENT1|52=20240213-10:49:19.402|10=088|
2024-02-13 11:49:26.091 [45] [FixSender] (DEBUG) Sending 8=FIX.4.4|9=59|35=0|49=FIXCLIENT1|56=DMA_HUB|34=1697|52=20240213-10:49:26|10=157|
2024-02-13 11:49:49.354 [44] [FixSender] (DEBUG) Receiving 8=FIX.4.4|9=63|35=0|34=1710|49=DMA_HUB|56=FIXCLIENT1|52=20240213-10:49:49.354|10=089|
2024-02-13 11:49:56.097 [45] [FixSender] (DEBUG) Sending 8=FIX.4.4|9=59|35=0|49=FIXCLIENT1|56=DMA_HUB|34=1698|52=20240213-10:49:56|10=161|
2024-02-13 11:50:19.303 [44] [FixSender] (DEBUG) Receiving 8=FIX.4.4|9=63|35=0|34=1711|49=DMA_HUB|56=FIXCLIENT1|52=20240213-10:50:19.303|10=073|
2024-02-13 11:50:26.100 [45] [FixSender] (DEBUG) Sending 8=FIX.4.4|9=59|35=0|49=FIXCLIENT1|56=DMA_HUB|34=1699|52=20240213-10:50:26|10=151|
2024-02-13 11:50:49.256 [44] [FixSender] (DEBUG) Receiving 8=FIX.4.4|9=63|35=0|34=1712|49=DMA_HUB|56=FIXCLIENT1|52=20240213-10:50:49.256|10=084|
2024-02-13 11:50:56.106 [45] [FixSender] (DEBUG) Sending 8=FIX.4.4|9=59|35=0|49=FIXCLIENT1|56=DMA_HUB|34=1700|52=20240213-10:50:56|10=137|
2024-02-13 11:51:19.219 [44] [FixSender] (DEBUG) Receiving 8=FIX.4.4|9=63|35=0|34=1713|49=DMA_HUB|56=FIXCLIENT1|52=20240213-10:51:19.219|10=082|
2024-02-13 11:51:26.120 [45] [FixSender] (DEBUG) Sending 8=FIX.4.4|9=59|35=0|49=FIXCLIENT1|56=DMA_HUB|34=1701|52=20240213-10:51:26|10=136|
2024-02-13 11:51:49.166 [44] [FixSender] (DEBUG) Receiving 8=FIX.4.4|9=63|35=0|34=1714|49=DMA_HUB|56=FIXCLIENT1|52=20240213-10:51:49.166|10=087|
2024-02-13 11:51:56.128 [45] [FixSender] (DEBUG) Sending 8=FIX.4.4|9=59|35=0|49=FIXCLIENT1|56=DMA_HUB|34=1702|52=20240213-10:51:56|10=140|
2024-02-13 11:52:19.111 [44] [FixSender] (DEBUG) Receiving 8=FIX.4.4|9=63|35=0|34=1715|49=DMA_HUB|56=FIXCLIENT1|52=20240213-10:52:19.111|10=076|
2024-02-13 11:52:26.135 [45] [FixSender] (DEBUG) Sending 8=FIX.4.4|9=59|35=0|49=FIXCLIENT1|56=DMA_HUB|34=1703|52=20240213-10:52:26|10=139|
2024-02-13 11:52:49.087 [44] [FixSender] (DEBUG) Receiving 8=FIX.4.4|9=63|35=0|34=1716|49=DMA_HUB|56=FIXCLIENT1|52=20240213-10:52:49.071|10=085|
2024-02-13 13:30:47.266 [44] [FixSender] (INFO) physical cnx finished Connection reset by peer
2024-02-13 13:30:47.266 [44] [FixSender] (WARNING) Disconnected
2024-02-13 13:59:46.251 [50] [FixSender] (INFO) try to connect to : localhost port :12345
2024-02-13 13:59:46.255 [50] [FixSender] (INFO) physical cnx initiated
2024-02-13 13:59:46.260 [50] [FixSender] (DEBUG) Sending 8=FIX.4.4|9=89|35=A|49=FIXCLIENT1|56=DMA_HUB|34=1704|52=20240213-12:59:46|98=0|108=30|95=9|96=null/null|10=251|
2024-02-13 13:59:46.265 [50] [FixSender] (DEBUG) Receiving 8=FIX.4.4|9=72|35=A|34=1|49=DMA_HUB|56=FIXCLIENT1|52=20240213-12:59:46.263|108=30|98=0|10=234|
2024-02-13 13:59:46.267 [50] [FixSender] (DEBUG) Sending 8=FIX.4.4|9=112|35=5|49=FIXCLIENT1|56=DMA_HUB|34=1705|52=20240213-12:59:46|58=MsgSeqNum expected 1717, but MsgSeqNum received 1|10=063|
2024-02-13 13:59:46.268 [50] [FixSender] (INFO) physical cnx finished Connection reset by peer
2024-02-13 13:59:46.269 [50] [FixSender] (WARNING) Disconnected
2024-02-13 13:59:46.660 [53] [FixSender] (INFO) try to connect to : localhost port :12345
2024-02-13 13:59:46.660 [53] [FixSender] (INFO) physical cnx initiated
2024-02-13 13:59:46.662 [53] [FixSender] (DEBUG) Sending 8=FIX.4.4|9=89|35=A|49=FIXCLIENT1|56=DMA_HUB|34=1706|52=20240213-12:59:46|98=0|108=30|95=9|96=null/null|10=253|
2024-02-13 13:59:46.664 [53] [FixSender] (INFO) physical cnx finished Connection reset by peer
2024-02-13 13:59:46.664 [53] [FixSender] (WARNING) Disconnected
2024-02-13 13:59:48.830 [55] [FixSender] (INFO) try to connect to : localhost port :12345
2024-02-13 13:59:48.830 [55] [FixSender] (INFO) physical cnx initiated
2024-02-13 13:59:48.832 [55] [FixSender] (DEBUG) Sending 8=FIX.4.4|9=86|35=A|49=FIXCLIENT1|56=DMA_HUB|34=1|52=20240213-12:59:48|98=0|108=30|95=9|96=null/null|10=095|
2024-02-13 13:59:48.834 [55] [FixSender] (DEBUG) Receiving 8=FIX.4.4|9=72|35=A|34=4|49=DMA_HUB|56=FIXCLIENT1|52=20240213-12:59:48.832|108=30|98=0|10=241|
2024-02-13 13:59:48.835 [55] [FixSender] (WARNING) The Fix connection is open...
2024-02-13 13:59:48.837 [55] [FixSender] (DEBUG) Sending 8=FIX.4.4|9=65|35=2|49=FIXCLIENT1|56=DMA_HUB|34=2|52=20240213-12:59:48|7=1|16=0|10=121|
2024-02-13 13:59:48.840 [55] [FixSender] (DEBUG) Receiving 8=FIX.4.4|9=102|35=4|34=1|49=DMA_HUB|56=FIXCLIENT1|52=20240213-12:59:48.840|43=Y|122=20240213-12:59:48.840|36=5|123=Y|10=001|
2024-02-13 13:59:50.703 [58] [FixSender] (DEBUG) Sending 8=FIX.4.4|9=192|35=D|49=FIXCLIENT1|56=DMA_HUB|34=3|52=20240213-12:59:50|21=1|11=HS_17078291904|38=1080|55=E:07G@XETR|54=2|60=20240213-12:59:50|40=2|59=0|44=197|48=US3390411052|22=4|15=EUR|207=XETR|1=bram_123|10=094|
2024-02-13 13:59:50.797 [55] [FixSender] (DEBUG) Receiving 8=FIX.4.4|9=234|35=8|34=5|49=DMA_HUB|56=FIXCLIENT1|52=20240213-12:59:50.796|11=HS_17078291904|37=FX165Zq7N|54=2|40=2|59=0|17=202402131|150=A|39=A|38=1080|151=1080|14=0|6=0|44=197|60=20240213-12:59:50.000|22=4|48=US3390411052|207=XETR|15=EUR|55=[N/A]|10=125|
2024-02-13 13:59:50.828 [55] [FixSender] (DEBUG) Receiving 8=FIX.4.4|9=245|35=8|34=6|49=DMA_HUB|56=FIXCLIENT1|52=20240213-12:59:50.828|11=HS_17078291904|37=FX165Zq7N|198=Uw1Uk1|54=2|40=2|59=0|17=202402132|150=0|39=0|38=1080|151=1080|14=0|6=0|44=197|60=20240213-12:59:50.821|22=4|48=US3390411052|207=XETR|15=EUR|55=[N/A]|10=052|
2024-02-13 14:00:03.319 [59] [FixSender] (DEBUG) Sending 8=FIX.4.4|9=192|35=D|49=FIXCLIENT1|56=DMA_HUB|34=4|52=20240213-13:00:03|21=1|11=HS_17078292035|38=3657|55=E:07G@XETR|54=2|60=20240213-13:00:03|40=2|59=0|44=197|48=US3390411052|22=4|15=EUR|207=XETR|1=bram_123|10=073|
2024-02-13 14:00:03.319 [59] [FixSender] (DEBUG) Sending 8=FIX.4.4|9=192|35=D|49=FIXCLIENT1|56=DMA_HUB|34=5|52=20240213-13:00:03|21=1|11=HS_17078292036|38=3477|55=E:07G@XETR|54=2|60=20240213-13:00:03|40=2|59=0|44=197|48=US3390411052|22=4|15=EUR|207=XETR|1=bram_123|10=075|
2024-02-13 14:00:03.319 [59] [FixSender] (DEBUG) Sending 8=FIX.4.4|9=191|35=D|49=FIXCLIENT1|56=DMA_HUB|34=6|52=20240213-13:00:03|21=1|11=HS_17078292037|38=420|55=E:07G@XETR|54=2|60=20240213-13:00:03|40=2|59=0|44=197|48=US3390411052|22=4|15=EUR|207=XETR|1=bram_123|10=013|
2024-02-13 14:00:03.319 [59] [FixSender] (DEBUG) Sending 8=FIX.4.4|9=191|35=D|49=FIXCLIENT1|56=DMA_HUB|34=7|52=20240213-13:00:03|21=1|11=HS_17078292038|38=498|55=E:07G@XETR|54=2|60=20240213-13:00:03|40=2|59=0|44=197|48=US3390411052|22=4|15=EUR|207=XETR|1=bram_123|10=030|
2024-02-13 14:00:03.320 [59] [FixSender] (DEBUG) Sending 8=FIX.4.4|9=191|35=D|49=FIXCLIENT1|56=DMA_HUB|34=8|52=20240213-13:00:03|21=1|11=HS_17078292039|38=975|55=E:07G@XETR|54=2|60=20240213-13:00:03|40=2|59=0|44=197|48=US3390411052|22=4|15=EUR|207=XETR|1=bram_123|10=032|
2024-02-13 14:00:03.320 [59] [FixSender] (DEBUG) Sending 8=FIX.4.4|9=193|35=D|49=FIXCLIENT1|56=DMA_HUB|34=9|52=20240213-13:00:03|21=1|11=HS_170782920310|38=4571|55=E:07G@XETR|54=2|60=20240213-13:00:03|40=2|59=0|44=197|48=US3390411052|22=4|15=EUR|207=XETR|1=bram_123|10=119|
2024-02-13 14:00:03.320 [59] [FixSender] (DEBUG) Sending 8=FIX.4.4|9=194|35=D|49=FIXCLIENT1|56=DMA_HUB|34=10|52=20240213-13:00:03|21=1|11=HS_170782920311|38=3887|55=E:07G@XETR|54=2|60=20240213-13:00:03|40=2|59=0|44=197|48=US3390411052|22=4|15=EUR|207=XETR|1=bram_123|10=170|
2024-02-13 14:00:03.320 [59] [FixSender] (DEBUG) Sending 8=FIX.4.4|9=194|35=D|49=FIXCLIENT1|56=DMA_HUB|34=11|52=20240213-13:00:03|21=1|11=HS_170782920312|38=1278|55=E:07G@XETR|54=2|60=20240213-13:00:03|40=2|59=0|44=197|48=US3390411052|22=4|15=EUR|207=XETR|1=bram_123|10=164|
2024-02-13 14:00:03.320 [59] [FixSender] (DEBUG) Sending 8=FIX.4.4|9=193|35=D|49=FIXCLIENT1|56=DMA_HUB|34=12|52=20240213-13:00:03|21=1|11=HS_170782920313|38=304|55=E:07G@XETR|54=2|60=20240213-13:00:03|40=2|59=0|44=197|48=US3390411052|22=4|15=EUR|207=XETR|1=bram_123|10=106|
2024-02-13 14:00:03.320 [59] [FixSender] (DEBUG) Sending 8=FIX.4.4|9=194|35=D|49=FIXCLIENT1|56=DMA_HUB|34=13|52=20240213-13:00:03|21=1|11=HS_170782920314|38=1983|55=E:07G@XETR|54=2|60=20240213-13:00:03|40=2|59=0|44=197|48=US3390411052|22=4|15=EUR|207=XETR|1=bram_123|10=171|
2024-02-13 14:00:03.320 [59] [FixSender] (DEBUG) Sending 8=FIX.4.4|9=194|35=D|49=FIXCLIENT1|56=DMA_HUB|34=14|52=20240213-13:00:03|21=1|11=HS_170782920315|38=1499|55=E:07G@XETR|54=2|60=20240213-13:00:03|40=2|59=0|44=197|48=US3390411052|22=4|15=EUR|207=XETR|1=bram_123|10=175|
2024-02-13 14:00:03.321 [59] [FixSender] (DEBUG) Sending 8=FIX.4.4|9=194|35=D|49=FIXCLIENT1|56=DMA_HUB|34=15|52=20240213-13:00:03|21=1|11=HS_170782920316|38=4460|55=E:07G@XETR|54=2|60=20240213-13:00:03|40=2|59=0|44=197|48=US3390411052|22=4|15=EUR|207=XETR|1=bram_123|10=168|
2024-02-13 14:00:03.321 [59] [FixSender] (DEBUG) Sending 8=FIX.4.4|9=194|35=D|49=FIXCLIENT1|56=DMA_HUB|34=16|52=20240213-13:00:03|21=1|11=HS_170782920317|38=1620|55=E:07G@XETR|54=2|60=20240213-13:00:03|40=2|59=0|44=197|48=US3390411052|22=4|15=EUR|207=XETR|1=bram_123|10=165|
2024-02-13 14:00:03.321 [59] [FixSender] (DEBUG) Sending 8=FIX.4.4|9=194|35=D|49=FIXCLIENT1|56=DMA_HUB|34=17|52=20240213-13:00:03|21=1|11=HS_170782920318|38=4467|55=E:07G@XETR|54=2|60=20240213-13:00:03|40=2|59=0|44=197|48=US3390411052|22=4|15=EUR|207=XETR|1=bram_123|10=179|
2024-02-13 14:00:03.321 [59] [FixSender] (DEBUG) Sending 8=FIX.4.4|9=194|35=D|49=FIXCLIENT1|56=DMA_HUB|34=18|52=20240213-13:00:03|21=1|11=HS_170782920319|38=1419|55=E:07G@XETR|54=2|60=20240213-13:00:03|40=2|59=0|44=197|48=US3390411052|22=4|15=EUR|207=XETR|1=bram_123|10=175|
2024-02-13 14:00:03.321 [59] [FixSender] (DEBUG) Sending 8=FIX.4.4|9=194|35=D|49=FIXCLIENT1|56=DMA_HUB|34=19|52=20240213-13:00:03|21=1|11=HS_170782920320|38=1129|55=E:07G@XETR|54=2|60=20240213-13:00:03|40=2|59=0|44=197|48=US3390411052|22=4|15=EUR|207=XETR|1=bram_123|10=166|
2024-02-13 14:00:03.321 [59] [FixSender] (DEBUG) Sending 8=FIX.4.4|9=194|35=D|49=FIXCLIENT1|56=DMA_HUB|34=20|52=20240213-13:00:03|21=1|11=HS_170782920321|38=3674|55=E:07G@XETR|54=2|60=20240213-13:00:03|40=2|59=0|44=197|48=US3390411052|22=4|15=EUR|207=XETR|1=bram_123|10=166|
2024-02-13 14:00:03.321 [59] [FixSender] (DEBUG) Sending 8=FIX.4.4|9=194|35=D|49=FIXCLIENT1|56=DMA_HUB|34=21|52=20240213-13:00:03|21=1|11=HS_170782920322|38=3652|55=E:07G@XETR|54=2|60=20240213-13:00:03|40=2|59=0|44=197|48=US3390411052|22=4|15=EUR|207=XETR|1=bram_123|10=164|
2024-02-13 14:00:03.321 [59] [FixSender] (DEBUG) Sending 8=FIX.4.4|9=194|35=D|49=FIXCLIENT1|56=DMA_HUB|34=22|52=20240213-13:00:03|21=1|11=HS_170782920323|38=2304|55=E:07G@XETR|54=2|60=20240213-13:00:03|40=2|59=0|44=197|48=US3390411052|22=4|15=EUR|207=XETR|1=bram_123|10=159|
2024-02-13 14:00:03.322 [59] [FixSender] (DEBUG) Sending 8=FIX.4.4|9=194|35=D|49=FIXCLIENT1|56=DMA_HUB|34=23|52=20240213-13:00:03|21=1|11=HS_170782920324|38=3938|55=E:07G@XETR|54=2|60=20240213-13:00:03|40=2|59=0|44=197|48=US3390411052|22=4|15=EUR|207=XETR|1=bram_123|10=175|
2024-02-13 14:00:03.322 [59] [FixSender] (DEBUG) Sending 8=FIX.4.4|9=194|35=D|49=FIXCLIENT1|56=DMA_HUB|34=24|52=20240213-13:00:03|21=1|11=HS_170782920325|38=2924|55=E:07G@XETR|54=2|60=20240213-13:00:03|40=2|59=0|44=197|48=US3390411052|22=4|15=EUR|207=XETR|1=bram_123|10=171|
2024-02-13 14:00:03.322 [59] [FixSender] (DEBUG) Sending 8=FIX.4.4|9=193|35=D|49=FIXCLIENT1|56=DMA_HUB|34=25|52=20240213-13:00:03|21=1|11=HS_170782920326|38=180|55=E:07G@XETR|54=2|60=20240213-13:00:03|40=2|59=0|44=197|48=US3390411052|22=4|15=EUR|207=XETR|1=bram_123|10=116|
2024-02-13 14:00:03.322 [59] [FixSender] (DEBUG) Sending 8=FIX.4.4|9=194|35=D|49=FIXCLIENT1|56=DMA_HUB|34=26|52=20240213-13:00:03|21=1|11=HS_170782920327|38=2234|55=E:07G@XETR|54=2|60=20240213-13:00:03|40=2|59=0|44=197|48=US3390411052|22=4|15=EUR|207=XETR|1=bram_123|10=169|
2024-02-13 14:00:03.322 [59] [FixSender] (DEBUG) Sending 8=FIX.4.4|9=194|35=D|49=FIXCLIENT1|56=DMA_HUB|34=27|52=20240213-13:00:03|21=1|11=HS_170782920328|38=3389|55=E:07G@XETR|54=2|60=20240213-13:00:03|40=2|59=0|44=197|48=US3390411052|22=4|15=EUR|207=XETR|1=bram_123|10=183|
2024-02-13 14:00:03.322 [59] [FixSender] (DEBUG) Sending 8=FIX.4.4|9=194|35=D|49=FIXCLIENT1|56=DMA_HUB|34=28|52=20240213-13:00:03|21=1|11=HS_170782920329|38=3877|55=E:07G@XETR|54=2|60=20240213-13:00:03|40=2|59=0|44=197|48=US3390411052|22=4|15=EUR|207=XETR|1=bram_123|10=187|
2024-02-13 14:00:03.322 [59] [FixSender] (DEBUG) Sending 8=FIX.4.4|9=193|35=D|49=FIXCLIENT1|56=DMA_HUB|34=29|52=20240213-13:00:03|21=1|11=HS_170782920330|38=424|55=E:07G@XETR|54=2|60=20240213-13:00:03|40=2|59=0|44=197|48=US3390411052|22=4|15=EUR|207=XETR|1=bram_123|10=116|
2024-02-13 14:00:03.322 [59] [FixSender] (DEBUG) Sending 8=FIX.4.4|9=194|35=D|49=FIXCLIENT1|56=DMA_HUB|34=30|52=20240213-13:00:03|21=1|11=HS_170782920331|38=2182|55=E:07G@XETR|54=2|60=20240213-13:00:03|40=2|59=0|44=197|48=US3390411052|22=4|15=EUR|207=XETR|1=bram_123|10=161|
2024-02-13 14:00:03.322 [59] [FixSender] (DEBUG) Sending 8=FIX.4.4|9=194|35=D|49=FIXCLIENT1|56=DMA_HUB|34=31|52=20240213-13:00:03|21=1|11=HS_170782920332|38=3048|55=E:07G@XETR|54=2|60=20240213-13:00:03|40=2|59=0|44=197|48=US3390411052|22=4|15=EUR|207=XETR|1=bram_123|10=165|
2024-02-13 14:00:03.323 [59] [FixSender] (DEBUG) Sending 8=FIX.4.4|9=193|35=D|49=FIXCLIENT1|56=DMA_HUB|34=32|52=20240213-13:00:03|21=1|11=HS_170782920333|38=374|55=E:07G@XETR|54=2|60=20240213-13:00:03|40=2|59=0|44=197|48=US3390411052|22=4|15=EUR|207=XETR|1=bram_123|10=117|
2024-02-13 14:00:03.323 [59] [FixSender] (DEBUG) Sending 8=FIX.4.4|9=194|35=D|49=FIXCLIENT1|56=DMA_HUB|34=33|52=20240213-13:00:03|21=1|11=HS_170782920334|38=3971|55=E:07G@XETR|54=2|60=20240213-13:00:03|40=2|59=0|44=197|48=US3390411052|22=4|15=EUR|207=XETR|1=bram_123|10=174|
2024-02-13 14:00:03.323 [59] [FixSender] (DEBUG) Sending 8=FIX.4.4|9=194|35=D|49=FIXCLIENT1|56=DMA_HUB|34=34|52=20240213-13:00:03|21=1|11=HS_170782920335|38=1767|55=E:07G@XETR|54=2|60=20240213-13:00:03|40=2|59=0|44=197|48=US3390411052|22=4|15=EUR|207=XETR|1=bram_123|10=177|
2024-02-13 14:00:03.323 [59] [FixSender] (DEBUG) Sending 8=FIX.4.4|9=194|35=D|49=FIXCLIENT1|56=DMA_HUB|34=35|52=20240213-13:00:03|21=1|11=HS_170782920336|38=1854|55=E:07G@XETR|54=2|60=20240213-13:00:03|40=2|59=0|44=197|48=US3390411052|22=4|15=EUR|207=XETR|1=bram_123|10=176|
2024-02-13 14:00:03.323 [59] [FixSender] (DEBUG) Sending 8=FIX.4.4|9=194|35=D|49=FIXCLIENT1|56=DMA_HUB|34=36|52=20240213-13:00:03|21=1|11=HS_170782920337|38=1219|55=E:07G@XETR|54=2|60=20240213-13:00:03|40=2|59=0|44=197|48=US3390411052|22=4|15=EUR|207=XETR|1=bram_123|10=173|
2024-02-13 14:00:03.323 [59] [FixSender] (DEBUG) Sending 8=FIX.4.4|9=194|35=D|49=FIXCLIENT1|56=DMA_HUB|34=37|52=20240213-13:00:03|21=1|11=HS_170782920338|38=3978|55=E:07G@XETR|54=2|60=20240213-13:00:03|40=2|59=0|44=197|48=US3390411052|22=4|15=EUR|207=XETR|1=bram_123|10=189|
2024-02-13 14:00:03.323 [59] [FixSender] (DEBUG) Sending 8=FIX.4.4|9=194|35=D|49=FIXCLIENT1|56=DMA_HUB|34=38|52=20240213-13:00:03|21=1|11=HS_170782920339|38=2808|55=E:07G@XETR|54=2|60=20240213-13:00:03|40=2|59=0|44=197|48=US3390411052|22=4|15=EUR|207=XETR|1=bram_123|10=182|
2024-02-13 14:00:03.323 [59] [FixSender] (DEBUG) Sending 8=FIX.4.4|9=194|35=D|49=FIXCLIENT1|56=DMA_HUB|34=39|52=20240213-13:00:03|21=1|11=HS_170782920340|38=4382|55=E:07G@XETR|54=2|60=20240213-13:00:03|40=2|59=0|44=197|48=US3390411052|22=4|15=EUR|207=XETR|1=bram_123|10=174|
2024-02-13 14:00:03.323 [59] [FixSender] (DEBUG) Sending 8=FIX.4.4|9=194|35=D|49=FIXCLIENT1|56=DMA_HUB|34=40|52=20240213-13:00:03|21=1|11=HS_170782920341|38=3255|55=E:07G@XETR|54=2|60=20240213-13:00:03|40=2|59=0|44=197|48=US3390411052|22=4|15=EUR|207=XETR|1=bram_123|10=165|
2024-02-13 14:00:03.324 [59] [FixSender] (DEBUG) Sending 8=FIX.4.4|9=194|35=D|49=FIXCLIENT1|56=DMA_HUB|34=41|52=20240213-13:00:03|21=1|11=HS_170782920342|38=1302|55=E:07G@XETR|54=2|60=20240213-13:00:03|40=2|59=0|44=197|48=US3390411052|22=4|15=EUR|207=XETR|1=bram_123|10=158|
2024-02-13 14:00:03.324 [59] [FixSender] (DEBUG) Sending 8=FIX.4.4|9=194|35=D|49=FIXCLIENT1|56=DMA_HUB|34=42|52=20240213-13:00:03|21=1|11=HS_170782920343|38=2566|55=E:07G@XETR|54=2|60=20240213-13:00:03|40=2|59=0|44=197|48=US3390411052|22=4|15=EUR|207=XETR|1=bram_123|10=173|
2024-02-13 14:00:03.324 [59] [FixSender] (DEBUG) Sending 8=FIX.4.4|9=194|35=D|49=FIXCLIENT1|56=DMA_HUB|34=43|52=20240213-13:00:03|21=1|11=HS_170782920344|38=3618|55=E:07G@XETR|54=2|60=20240213-13:00:03|40=2|59=0|44=197|48=US3390411052|22=4|15=EUR|207=XETR|1=bram_123|10=174|
2024-02-13 14:00:03.324 [59] [FixSender] (DEBUG) Sending 8=FIX.4.4|9=194|35=D|49=FIXCLIENT1|56=DMA_HUB|34=44|52=20240213-13:00:03|21=1|11=HS_170782920345|38=2668|55=E:07G@XETR|54=2|60=20240213-13:00:03|40=2|59=0|44=197|48=US3390411052|22=4|15=EUR|207=XETR|1=bram_123|10=180|
2024-02-13 14:00:03.324 [59] [FixSender] (DEBUG) Sending 8=FIX.4.4|9=194|35=D|49=FIXCLIENT1|56=DMA_HUB|34=45|52=20240213-13:00:03|21=1|11=HS_170782920346|38=3682|55=E:07G@XETR|54=2|60=20240213-13:00:03|40=2|59=0|44=197|48=US3390411052|22=4|15=EUR|207=XETR|1=bram_123|10=179|
2024-02-13 14:00:03.324 [59] [FixSender] (DEBUG) Sending 8=FIX.4.4|9=194|35=D|49=FIXCLIENT1|56=DMA_HUB|34=46|52=20240213-13:00:03|21=1|11=HS_170782920347|38=1164|55=E:07G@XETR|54=2|60=20240213-13:00:03|40=2|59=0|44=197|48=US3390411052|22=4|15=EUR|207=XETR|1=bram_123|10=174|
2024-02-13 14:00:03.324 [59] [FixSender] (DEBUG) Sending 8=FIX.4.4|9=194|35=D|49=FIXCLIENT1|56=DMA_HUB|34=47|52=20240213-13:00:03|21=1|11=HS_170782920348|38=3183|55=E:07G@XETR|54=2|60=20240213-13:00:03|40=2|59=0|44=197|48=US3390411052|22=4|15=EUR|207=XETR|1=bram_123|10=179|
2024-02-13 14:00:03.324 [59] [FixSender] (DEBUG) Sending 8=FIX.4.4|9=194|35=D|49=FIXCLIENT1|56=DMA_HUB|34=48|52=20240213-13:00:03|21=1|11=HS_170782920349|38=4538|55=E:07G@XETR|54=2|60=20240213-13:00:03|40=2|59=0|44=197|48=US3390411052|22=4|15=EUR|207=XETR|1=bram_123|10=186|
2024-02-13 14:00:03.324 [59] [FixSender] (DEBUG) Sending 8=FIX.4.4|9=194|35=D|49=FIXCLIENT1|56=DMA_HUB|34=49|52=20240213-13:00:03|21=1|11=HS_170782920350|38=2008|55=E:07G@XETR|54=2|60=20240213-13:00:03|40=2|59=0|44=197|48=US3390411052|22=4|15=EUR|207=XETR|1=bram_123|10=169|
2024-02-13 14:00:03.325 [59] [FixSender] (DEBUG) Sending 8=FIX.4.4|9=194|35=D|49=FIXCLIENT1|56=DMA_HUB|34=50|52=20240213-13:00:03|21=1|11=HS_170782920351|38=4559|55=E:07G@XETR|54=2|60=20240213-13:00:03|40=2|59=0|44=197|48=US3390411052|22=4|15=EUR|207=XETR|1=bram_123|10=175|
2024-02-13 14:00:03.325 [59] [FixSender] (DEBUG) Sending 8=FIX.4.4|9=194|35=D|49=FIXCLIENT1|56=DMA_HUB|34=51|52=20240213-13:00:03|21=1|11=HS_170782920352|38=2618|55=E:07G@XETR|54=2|60=20240213-13:00:03|40=2|59=0|44=197|48=US3390411052|22=4|15=EUR|207=XETR|1=bram_123|10=171|
2024-02-13 14:00:03.325 [59] [FixSender] (DEBUG) Sending 8=FIX.4.4|9=194|35=D|49=FIXCLIENT1|56=DMA_HUB|34=52|52=20240213-13:00:03|21=1|11=HS_170782920353|38=2207|55=E:07G@XETR|54=2|60=20240213-13:00:03|40=2|59=0|44=197|48=US3390411052|22=4|15=EUR|207=XETR|1=bram_123|10=167|
2024-02-13 14:00:03.325 [59] [FixSender] (DEBUG) Sending 8=FIX.4.4|9=194|35=D|49=FIXCLIENT1|56=DMA_HUB|34=53|52=20240213-13:00:03|21=1|11=HS_170782920354|38=1538|55=E:07G@XETR|54=2|60=20240213-13:00:03|40=2|59=0|44=197|48=US3390411052|22=4|15=EUR|207=XETR|1=bram_123|10=175|
2024-02-13 14:00:03.325 [59] [FixSender] (DEBUG) Sending 8=FIX.4.4|9=194|35=D|49=FIXCLIENT1|56=DMA_HUB|34=54|52=20240213-13:00:03|21=1|11=HS_170782920355|38=3208|55=E:07G@XETR|54=2|60=20240213-13:00:03|40=2|59=0|44=197|48=US3390411052|22=4|15=EUR|207=XETR|1=bram_123|10=173|
2024-02-13 14:00:03.325 [59] [FixSender] (DEBUG) Sending 8=FIX.4.4|9=194|35=D|49=FIXCLIENT1|56=DMA_HUB|34=55|52=20240213-13:00:03|21=1|11=HS_170782920356|38=4228|55=E:07G@XETR|54=2|60=20240213-13:00:03|40=2|59=0|44=197|48=US3390411052|22=4|15=EUR|207=XETR|1=bram_123|10=178|
2024-02-13 14:00:03.325 [59] [FixSender] (DEBUG) Sending 8=FIX.4.4|9=194|35=D|49=FIXCLIENT1|56=DMA_HUB|34=56|52=20240213-13:00:03|21=1|11=HS_170782920357|38=2794|55=E:07G@XETR|54=2|60=20240213-13:00:03|40=2|59=0|44=197|48=US3390411052|22=4|15=EUR|207=XETR|1=bram_123|10=186|
2024-02-13 14:00:03.325 [59] [FixSender] (DEBUG) Sending 8=FIX.4.4|9=194|35=D|49=FIXCLIENT1|56=DMA_HUB|34=57|52=20240213-13:00:03|21=1|11=HS_170782920358|38=3635|55=E:07G@XETR|54=2|60=20240213-13:00:03|40=2|59=0|44=197|48=US3390411052|22=4|15=EUR|207=XETR|1=bram_123|10=183|
2024-02-13 14:00:03.326 [59] [FixSender] (DEBUG) Sending 8=FIX.4.4|9=194|35=D|49=FIXCLIENT1|56=DMA_HUB|34=58|52=20240213-13:00:03|21=1|11=HS_170782920359|38=1015|55=E:07G@XETR|54=2|60=20240213-13:00:03|40=2|59=0|44=197|48=US3390411052|22=4|15=EUR|207=XETR|1=bram_123|10=175|
2024-02-13 14:00:03.326 [59] [FixSender] (DEBUG) Sending 8=FIX.4.4|9=194|35=D|49=FIXCLIENT1|56=DMA_HUB|34=59|52=20240213-13:00:03|21=1|11=HS_170782920360|38=3551|55=E:07G@XETR|54=2|60=20240213-13:00:03|40=2|59=0|44=197|48=US3390411052|22=4|15=EUR|207=XETR|1=bram_123|10=175|
2024-02-13 14:00:03.326 [59] [FixSender] (DEBUG) Sending 8=FIX.4.4|9=193|35=D|49=FIXCLIENT1|56=DMA_HUB|34=60|52=20240213-13:00:03|21=1|11=HS_170782920361|38=840|55=E:07G@XETR|54=2|60=20240213-13:00:03|40=2|59=0|44=197|48=US3390411052|22=4|15=EUR|207=XETR|1=bram_123|10=117|
2024-02-13 14:00:03.326 [59] [FixSender] (DEBUG) Sending 8=FIX.4.4|9=193|35=D|49=FIXCLIENT1|56=DMA_HUB|34=61|52=20240213-13:00:03|21=1|11=HS_170782920362|38=583|55=E:07G@XETR|54=2|60=20240213-13:00:03|40=2|59=0|44=197|48=US3390411052|22=4|15=EUR|207=XETR|1=bram_123|10=123|
2024-02-13 14:00:03.326 [59] [FixSender] (DEBUG) Sending 8=FIX.4.4|9=194|35=D|49=FIXCLIENT1|56=DMA_HUB|34=62|52=20240213-13:00:03|21=1|11=HS_170782920363|38=1582|55=E:07G@XETR|54=2|60=20240213-13:00:03|40=2|59=0|44=197|48=US3390411052|22=4|15=EUR|207=XETR|1=bram_123|10=174|
2024-02-13 14:00:03.326 [59] [FixSender] (DEBUG) Sending 8=FIX.4.4|9=194|35=D|49=FIXCLIENT1|56=DMA_HUB|34=63|52=20240213-13:00:03|21=1|11=HS_170782920364|38=4357|55=E:07G@XETR|54=2|60=20240213-13:00:03|40=2|59=0|44=197|48=US3390411052|22=4|15=EUR|207=XETR|1=bram_123|10=179|
2024-02-13 14:00:03.326 [59] [FixSender] (DEBUG) Sending 8=FIX.4.4|9=193|35=D|49=FIXCLIENT1|56=DMA_HUB|34=64|52=20240213-13:00:03|21=1|11=HS_170782920365|38=233|55=E:07G@XETR|54=2|60=20240213-13:00:03|40=2|59=0|44=197|48=US3390411052|22=4|15=EUR|207=XETR|1=bram_123|10=121|
2024-02-13 14:00:03.326 [59] [FixSender] (DEBUG) Sending 8=FIX.4.4|9=194|35=D|49=FIXCLIENT1|56=DMA_HUB|34=65|52=20240213-13:00:03|21=1|11=HS_170782920366|38=3716|55=E:07G@XETR|54=2|60=20240213-13:00:03|40=2|59=0|44=197|48=US3390411052|22=4|15=EUR|207=XETR|1=bram_123|10=181|
2024-02-13 14:00:03.326 [59] [FixSender] (DEBUG) Sending 8=FIX.4.4|9=194|35=D|49=FIXCLIENT1|56=DMA_HUB|34=66|52=20240213-13:00:03|21=1|11=HS_170782920367|38=2551|55=E:07G@XETR|54=2|60=20240213-13:00:03|40=2|59=0|44=197|48=US3390411052|22=4|15=EUR|207=XETR|1=bram_123|10=179|
2024-02-13 14:00:03.327 [59] [FixSender] (DEBUG) Sending 8=FIX.4.4|9=193|35=D|49=FIXCLIENT1|56=DMA_HUB|34=67|52=20240213-13:00:03|21=1|11=HS_170782920368|38=484|55=E:07G@XETR|54=2|60=20240213-13:00:03|40=2|59=0|44=197|48=US3390411052|22=4|15=EUR|207=XETR|1=bram_123|10=135|
2024-02-13 14:00:03.327 [59] [FixSender] (DEBUG) Sending 8=FIX.4.4|9=193|35=D|49=FIXCLIENT1|56=DMA_HUB|34=68|52=20240213-13:00:03|21=1|11=HS_170782920369|38=726|55=E:07G@XETR|54=2|60=20240213-13:00:03|40=2|59=0|44=197|48=US3390411052|22=4|15=EUR|207=XETR|1=bram_123|10=136|
2024-02-13 14:00:03.327 [59] [FixSender] (DEBUG) Sending 8=FIX.4.4|9=193|35=D|49=FIXCLIENT1|56=DMA_HUB|34=69|52=20240213-13:00:03|21=1|11=HS_170782920370|38=811|55=E:07G@XETR|54=2|60=20240213-13:00:03|40=2|59=0|44=197|48=US3390411052|22=4|15=EUR|207=XETR|1=bram_123|10=124|
2024-02-13 14:00:03.327 [59] [FixSender] (DEBUG) Sending 8=FIX.4.4|9=194|35=D|49=FIXCLIENT1|56=DMA_HUB|34=70|52=20240213-13:00:03|21=1|11=HS_170782920371|38=4062|55=E:07G@XETR|54=2|60=20240213-13:00:03|40=2|59=0|44=197|48=US3390411052|22=4|15=EUR|207=XETR|1=bram_123|10=168|
2024-02-13 14:00:03.327 [59] [FixSender] (DEBUG) Sending 8=FIX.4.4|9=194|35=D|49=FIXCLIENT1|56=DMA_HUB|34=71|52=20240213-13:00:03|21=1|11=HS_170782920372|38=2348|55=E:07G@XETR|54=2|60=20240213-13:00:03|40=2|59=0|44=197|48=US3390411052|22=4|15=EUR|207=XETR|1=bram_123|10=175|
2024-02-13 14:00:03.327 [59] [FixSender] (DEBUG) Sending 8=FIX.4.4|9=193|35=D|49=FIXCLIENT1|56=DMA_HUB|34=72|52=20240213-13:00:03|21=1|11=HS_170782920373|38=133|55=E:07G@XETR|54=2|60=20240213-13:00:03|40=2|59=0|44=197|48=US3390411052|22=4|15=EUR|207=XETR|1=bram_123|10=118|
2024-02-13 14:00:03.327 [59] [FixSender] (DEBUG) Sending 8=FIX.4.4|9=194|35=D|49=FIXCLIENT1|56=DMA_HUB|34=73|52=20240213-13:00:03|21=1|11=HS_170782920374|38=2964|55=E:07G@XETR|54=2|60=20240213-13:00:03|40=2|59=0|44=197|48=US3390411052|22=4|15=EUR|207=XETR|1=bram_123|10=183|
2024-02-13 14:00:03.327 [59] [FixSender] (DEBUG) Sending 8=FIX.4.4|9=193|35=D|49=FIXCLIENT1|56=DMA_HUB|34=74|52=20240213-13:00:03|21=1|11=HS_170782920375|38=125|55=E:07G@XETR|54=2|60=20240213-13:00:03|40=2|59=0|44=197|48=US3390411052|22=4|15=EUR|207=XETR|1=bram_123|10=123|
2024-02-13 14:00:03.327 [59] [FixSender] (DEBUG) Sending 8=FIX.4.4|9=194|35=D|49=FIXCLIENT1|56=DMA_HUB|34=75|52=20240213-13:00:03|21=1|11=HS_170782920376|38=1886|55=E:07G@XETR|54=2|60=20240213-13:00:03|40=2|59=0|44=197|48=US3390411052|22=4|15=EUR|207=XETR|1=bram_123|10=189|
2024-02-13 14:00:03.327 [59] [FixSender] (DEBUG) Sending 8=FIX.4.4|9=194|35=D|49=FIXCLIENT1|56=DMA_HUB|34=76|52=20240213-13:00:03|21=1|11=HS_170782920377|38=2246|55=E:07G@XETR|54=2|60=20240213-13:00:03|40=2|59=0|44=197|48=US3390411052|22=4|15=EUR|207=XETR|1=bram_123|10=182|
2024-02-13 14:00:03.328 [59] [FixSender] (DEBUG) Sending 8=FIX.4.4|9=194|35=D|49=FIXCLIENT1|56=DMA_HUB|34=77|52=20240213-13:00:03|21=1|11=HS_170782920378|38=4012|55=E:07G@XETR|54=2|60=20240213-13:00:03|40=2|59=0|44=197|48=US3390411052|22=4|15=EUR|207=XETR|1=bram_123|10=177|
2024-02-13 14:00:03.328 [59] [FixSender] (DEBUG) Sending 8=FIX.4.4|9=194|35=D|49=FIXCLIENT1|56=DMA_HUB|34=78|52=20240213-13:00:03|21=1|11=HS_170782920379|38=4656|55=E:07G@XETR|54=2|60=20240213-13:00:03|40=2|59=0|44=197|48=US3390411052|22=4|15=EUR|207=XETR|1=bram_123|10=193|
2024-02-13 14:00:03.328 [59] [FixSender] (DEBUG) Sending 8=FIX.4.4|9=194|35=D|49=FIXCLIENT1|56=DMA_HUB|34=79|52=20240213-13:00:03|21=1|11=HS_170782920380|38=1104|55=E:07G@XETR|54=2|60=20240213-13:00:03|40=2|59=0|44=197|48=US3390411052|22=4|15=EUR|207=XETR|1=bram_123|10=171|
2024-02-13 14:00:03.328 [59] [FixSender] (DEBUG) Sending 8=FIX.4.4|9=194|35=D|49=FIXCLIENT1|56=DMA_HUB|34=80|52=20240213-13:00:03|21=1|11=HS_170782920381|38=3707|55=E:07G@XETR|54=2|60=20240213-13:00:03|40=2|59=0|44=197|48=US3390411052|22=4|15=EUR|207=XETR|1=bram_123|10=175|
