2024-02-01 15:45:10.093 [1] [Fixsender] (INFO) (c) 2001-2011 ullink SAS. FixSender. Release 1.11.
2024-02-01 15:45:25.729 [30] [FixSender] (INFO) try to connect to : localhost port :12345
2024-02-01 15:45:25.761 [30] [FixSender] (INFO) physical cnx initiated
2024-02-01 15:45:25.779 [30] [FixSender] (DEBUG) Sending 8=FIX.4.4|9=88|35=A|49=FIXCLIENT1|56=DMA_HUB|34=200|52=20240201-14:45:25|98=0|108=30|95=9|96=null/null|10=183|
2024-02-01 15:45:25.794 [30] [FixSender] (DEBUG) Receiving 8=FIX.4.4|9=72|35=A|34=1|49=DMA_HUB|56=FIXCLIENT1|52=20240201-14:45:25.787|108=30|98=0|10=236|
2024-02-01 15:45:25.797 [30] [FixSender] (DEBUG) Sending 8=FIX.4.4|9=110|35=5|49=FIXCLIENT1|56=DMA_HUB|34=201|52=20240201-14:45:25|58=MsgSeqNum expected 228, but MsgSeqNum received 1|10=198|
2024-02-01 15:45:25.800 [30] [FixSender] (INFO) physical cnx finished Connection reset by peer
2024-02-01 15:45:25.801 [30] [FixSender] (WARNING) Disconnected
2024-02-01 15:45:28.399 [34] [FixSender] (INFO) try to connect to : localhost port :12345
2024-02-01 15:45:28.400 [34] [FixSender] (INFO) physical cnx initiated
2024-02-01 15:45:28.403 [34] [FixSender] (DEBUG) Sending 8=FIX.4.4|9=86|35=A|49=FIXCLIENT1|56=DMA_HUB|34=1|52=20240201-14:45:28|98=0|108=30|95=9|96=null/null|10=087|
2024-02-01 15:45:28.412 [34] [FixSender] (DEBUG) Receiving 8=FIX.4.4|9=72|35=A|34=4|49=DMA_HUB|56=FIXCLIENT1|52=20240201-14:45:28.404|108=30|98=0|10=228|
2024-02-01 15:45:28.413 [34] [FixSender] (WARNING) The Fix connection is open...
2024-02-01 15:45:28.417 [34] [FixSender] (DEBUG) Sending 8=FIX.4.4|9=65|35=2|49=FIXCLIENT1|56=DMA_HUB|34=2|52=20240201-14:45:28|7=1|16=0|10=113|
2024-02-01 15:45:28.421 [34] [FixSender] (DEBUG) Receiving 8=FIX.4.4|9=102|35=4|34=1|49=DMA_HUB|56=FIXCLIENT1|52=20240201-14:45:28.420|43=Y|122=20240201-14:45:28.420|36=5|123=Y|10=229|
2024-02-01 15:45:30.077 [37] [FixSender] (DEBUG) Sending 8=FIX.4.4|9=195|35=D|49=FIXCLIENT1|56=DMA_HUB|34=3|52=20240201-14:45:30|21=1|11=HS_17067987300|38=181|55=E:07G@XETR|54=1|60=20240201-14:45:30|40=2|59=0|44=197.111|48=US3390411052|22=4|15=EUR|207=XETR|1=bram_123|10=226|
2024-02-01 15:45:30.104 [34] [FixSender] (DEBUG) Receiving 8=FIX.4.4|9=236|35=8|34=5|49=DMA_HUB|56=FIXCLIENT1|52=20240201-14:45:30.102|11=HS_17067987300|37=FX5GoztQQ|54=1|40=2|59=0|17=202402011|150=A|39=A|38=181|151=181|14=0|6=0|44=197.111|60=20240201-14:45:30.000|22=4|48=US3390411052|207=XETR|15=EUR|55=[N/A]|10=074|
2024-02-01 15:45:58.374 [34] [FixSender] (DEBUG) Receiving 8=FIX.4.4|9=60|35=0|34=6|49=DMA_HUB|56=FIXCLIENT1|52=20240201-14:45:58.372|10=192|
2024-02-01 15:46:00.094 [35] [FixSender] (DEBUG) Sending 8=FIX.4.4|9=56|35=0|49=FIXCLIENT1|56=DMA_HUB|34=4|52=20240201-14:46:00|10=237|
2024-02-01 15:46:28.324 [34] [FixSender] (DEBUG) Receiving 8=FIX.4.4|9=60|35=0|34=7|49=DMA_HUB|56=FIXCLIENT1|52=20240201-14:46:28.324|10=188|
2024-02-01 15:46:30.107 [35] [FixSender] (DEBUG) Sending 8=FIX.4.4|9=56|35=0|49=FIXCLIENT1|56=DMA_HUB|34=5|52=20240201-14:46:30|10=241|
2024-02-01 15:46:58.277 [34] [FixSender] (DEBUG) Receiving 8=FIX.4.4|9=60|35=0|34=8|49=DMA_HUB|56=FIXCLIENT1|52=20240201-14:46:58.275|10=197|
2024-02-01 15:47:00.123 [35] [FixSender] (DEBUG) Sending 8=FIX.4.4|9=56|35=0|49=FIXCLIENT1|56=DMA_HUB|34=6|52=20240201-14:47:00|10=240|
2024-02-01 15:47:28.229 [34] [FixSender] (DEBUG) Receiving 8=FIX.4.4|9=60|35=0|34=9|49=DMA_HUB|56=FIXCLIENT1|52=20240201-14:47:28.228|10=194|
2024-02-01 15:47:30.135 [35] [FixSender] (DEBUG) Sending 8=FIX.4.4|9=56|35=0|49=FIXCLIENT1|56=DMA_HUB|34=7|52=20240201-14:47:30|10=244|
2024-02-01 15:47:58.180 [34] [FixSender] (DEBUG) Receiving 8=FIX.4.4|9=61|35=0|34=10|49=DMA_HUB|56=FIXCLIENT1|52=20240201-14:47:58.179|10=243|
2024-02-01 15:48:00.151 [35] [FixSender] (DEBUG) Sending 8=FIX.4.4|9=56|35=0|49=FIXCLIENT1|56=DMA_HUB|34=8|52=20240201-14:48:00|10=243|
2024-02-01 15:48:28.132 [34] [FixSender] (DEBUG) Receiving 8=FIX.4.4|9=61|35=0|34=11|49=DMA_HUB|56=FIXCLIENT1|52=20240201-14:48:28.131|10=230|
2024-02-01 15:48:30.156 [35] [FixSender] (DEBUG) Sending 8=FIX.4.4|9=56|35=0|49=FIXCLIENT1|56=DMA_HUB|34=9|52=20240201-14:48:30|10=247|
2024-02-01 15:48:58.084 [34] [FixSender] (DEBUG) Receiving 8=FIX.4.4|9=61|35=0|34=12|49=DMA_HUB|56=FIXCLIENT1|52=20240201-14:48:58.083|10=240|
2024-02-01 15:49:00.169 [35] [FixSender] (DEBUG) Sending 8=FIX.4.4|9=57|35=0|49=FIXCLIENT1|56=DMA_HUB|34=10|52=20240201-14:49:00|10=030|
2024-02-01 15:49:28.038 [34] [FixSender] (DEBUG) Receiving 8=FIX.4.4|9=61|35=0|34=13|49=DMA_HUB|56=FIXCLIENT1|52=20240201-14:49:28.036|10=237|
2024-02-01 15:49:30.177 [35] [FixSender] (DEBUG) Sending 8=FIX.4.4|9=57|35=0|49=FIXCLIENT1|56=DMA_HUB|34=11|52=20240201-14:49:30|10=034|
2024-02-01 15:49:57.987 [34] [FixSender] (DEBUG) Receiving 8=FIX.4.4|9=61|35=0|34=14|49=DMA_HUB|56=FIXCLIENT1|52=20240201-14:49:57.987|10=255|
2024-02-01 15:50:00.187 [35] [FixSender] (DEBUG) Sending 8=FIX.4.4|9=57|35=0|49=FIXCLIENT1|56=DMA_HUB|34=12|52=20240201-14:50:00|10=024|
2024-02-01 15:50:27.941 [34] [FixSender] (DEBUG) Receiving 8=FIX.4.4|9=61|35=0|34=15|49=DMA_HUB|56=FIXCLIENT1|52=20240201-14:50:27.940|10=234|
2024-02-01 15:50:30.195 [35] [FixSender] (DEBUG) Sending 8=FIX.4.4|9=57|35=0|49=FIXCLIENT1|56=DMA_HUB|34=13|52=20240201-14:50:30|10=028|
2024-02-01 15:50:57.891 [34] [FixSender] (DEBUG) Receiving 8=FIX.4.4|9=61|35=0|34=16|49=DMA_HUB|56=FIXCLIENT1|52=20240201-14:50:57.891|10=243|
2024-02-01 15:51:00.205 [35] [FixSender] (DEBUG) Sending 8=FIX.4.4|9=57|35=0|49=FIXCLIENT1|56=DMA_HUB|34=14|52=20240201-14:51:00|10=027|
2024-02-01 15:51:27.845 [34] [FixSender] (DEBUG) Receiving 8=FIX.4.4|9=61|35=0|34=17|49=DMA_HUB|56=FIXCLIENT1|52=20240201-14:51:27.844|10=240|
2024-02-01 15:51:30.217 [35] [FixSender] (DEBUG) Sending 8=FIX.4.4|9=57|35=0|49=FIXCLIENT1|56=DMA_HUB|34=15|52=20240201-14:51:30|10=031|
2024-02-01 15:51:57.797 [34] [FixSender] (DEBUG) Receiving 8=FIX.4.4|9=61|35=0|34=18|49=DMA_HUB|56=FIXCLIENT1|52=20240201-14:51:57.796|10=250|
2024-02-01 15:52:00.219 [35] [FixSender] (DEBUG) Sending 8=FIX.4.4|9=57|35=0|49=FIXCLIENT1|56=DMA_HUB|34=16|52=20240201-14:52:00|10=030|
2024-02-01 15:52:27.749 [34] [FixSender] (DEBUG) Receiving 8=FIX.4.4|9=61|35=0|34=19|49=DMA_HUB|56=FIXCLIENT1|52=20240201-14:52:27.748|10=246|
2024-02-01 15:52:30.236 [35] [FixSender] (DEBUG) Sending 8=FIX.4.4|9=57|35=0|49=FIXCLIENT1|56=DMA_HUB|34=17|52=20240201-14:52:30|10=034|
2024-02-01 15:52:57.703 [34] [FixSender] (DEBUG) Receiving 8=FIX.4.4|9=61|35=0|34=20|49=DMA_HUB|56=FIXCLIENT1|52=20240201-14:52:57.700|10=229|
2024-02-01 15:53:00.245 [35] [FixSender] (DEBUG) Sending 8=FIX.4.4|9=57|35=0|49=FIXCLIENT1|56=DMA_HUB|34=18|52=20240201-14:53:00|10=033|
2024-02-01 15:53:27.653 [34] [FixSender] (DEBUG) Receiving 8=FIX.4.4|9=61|35=0|34=21|49=DMA_HUB|56=FIXCLIENT1|52=20240201-14:53:27.652|10=234|
2024-02-01 15:53:30.251 [35] [FixSender] (DEBUG) Sending 8=FIX.4.4|9=57|35=0|49=FIXCLIENT1|56=DMA_HUB|34=19|52=20240201-14:53:30|10=037|
2024-02-01 15:53:57.605 [34] [FixSender] (DEBUG) Receiving 8=FIX.4.4|9=61|35=0|34=22|49=DMA_HUB|56=FIXCLIENT1|52=20240201-14:53:57.604|10=235|
2024-02-01 15:54:00.254 [35] [FixSender] (DEBUG) Sending 8=FIX.4.4|9=57|35=0|49=FIXCLIENT1|56=DMA_HUB|34=20|52=20240201-14:54:00|10=027|
2024-02-01 15:54:27.556 [34] [FixSender] (DEBUG) Receiving 8=FIX.4.4|9=61|35=0|34=23|49=DMA_HUB|56=FIXCLIENT1|52=20240201-14:54:27.555|10=239|
2024-02-01 15:54:30.271 [35] [FixSender] (DEBUG) Sending 8=FIX.4.4|9=57|35=0|49=FIXCLIENT1|56=DMA_HUB|34=21|52=20240201-14:54:30|10=031|
2024-02-01 15:54:57.509 [34] [FixSender] (DEBUG) Receiving 8=FIX.4.4|9=61|35=0|34=24|49=DMA_HUB|56=FIXCLIENT1|52=20240201-14:54:57.508|10=241|
2024-02-01 15:55:00.275 [35] [FixSender] (DEBUG) Sending 8=FIX.4.4|9=57|35=0|49=FIXCLIENT1|56=DMA_HUB|34=22|52=20240201-14:55:00|10=030|
2024-02-01 15:55:27.462 [34] [FixSender] (DEBUG) Receiving 8=FIX.4.4|9=61|35=0|34=25|49=DMA_HUB|56=FIXCLIENT1|52=20240201-14:55:27.461|10=238|
2024-02-01 15:55:30.288 [35] [FixSender] (DEBUG) Sending 8=FIX.4.4|9=57|35=0|49=FIXCLIENT1|56=DMA_HUB|34=23|52=20240201-14:55:30|10=034|
2024-02-01 15:55:57.412 [34] [FixSender] (DEBUG) Receiving 8=FIX.4.4|9=61|35=0|34=26|49=DMA_HUB|56=FIXCLIENT1|52=20240201-14:55:57.412|10=238|
2024-02-01 15:56:00.303 [35] [FixSender] (DEBUG) Sending 8=FIX.4.4|9=57|35=0|49=FIXCLIENT1|56=DMA_HUB|34=24|52=20240201-14:56:00|10=033|
2024-02-01 15:56:27.365 [34] [FixSender] (DEBUG) Receiving 8=FIX.4.4|9=61|35=0|34=27|49=DMA_HUB|56=FIXCLIENT1|52=20240201-14:56:27.364|10=243|
2024-02-01 15:56:30.307 [35] [FixSender] (DEBUG) Sending 8=FIX.4.4|9=57|35=0|49=FIXCLIENT1|56=DMA_HUB|34=25|52=20240201-14:56:30|10=037|
2024-02-01 15:56:57.316 [34] [FixSender] (DEBUG) Receiving 8=FIX.4.4|9=61|35=0|34=28|49=DMA_HUB|56=FIXCLIENT1|52=20240201-14:56:57.315|10=243|
2024-02-01 15:57:00.318 [35] [FixSender] (DEBUG) Sending 8=FIX.4.4|9=57|35=0|49=FIXCLIENT1|56=DMA_HUB|34=26|52=20240201-14:57:00|10=036|
2024-02-01 15:57:27.270 [34] [FixSender] (DEBUG) Receiving 8=FIX.4.4|9=61|35=0|34=29|49=DMA_HUB|56=FIXCLIENT1|52=20240201-14:57:27.269|10=250|
2024-02-01 15:57:30.332 [35] [FixSender] (DEBUG) Sending 8=FIX.4.4|9=57|35=0|49=FIXCLIENT1|56=DMA_HUB|34=27|52=20240201-14:57:30|10=040|
2024-02-01 15:57:57.221 [34] [FixSender] (DEBUG) Receiving 8=FIX.4.4|9=61|35=0|34=30|49=DMA_HUB|56=FIXCLIENT1|52=20240201-14:57:57.220|10=232|
2024-02-01 15:58:00.334 [35] [FixSender] (DEBUG) Sending 8=FIX.4.4|9=57|35=0|49=FIXCLIENT1|56=DMA_HUB|34=28|52=20240201-14:58:00|10=039|
2024-02-01 15:58:27.173 [34] [FixSender] (DEBUG) Receiving 8=FIX.4.4|9=61|35=0|34=31|49=DMA_HUB|56=FIXCLIENT1|52=20240201-14:58:27.172|10=237|
2024-02-01 15:58:30.347 [35] [FixSender] (DEBUG) Sending 8=FIX.4.4|9=57|35=0|49=FIXCLIENT1|56=DMA_HUB|34=29|52=20240201-14:58:30|10=043|
2024-02-01 15:58:57.124 [34] [FixSender] (DEBUG) Receiving 8=FIX.4.4|9=61|35=0|34=32|49=DMA_HUB|56=FIXCLIENT1|52=20240201-14:58:57.124|10=238|
2024-02-01 15:59:00.361 [35] [FixSender] (DEBUG) Sending 8=FIX.4.4|9=57|35=0|49=FIXCLIENT1|56=DMA_HUB|34=30|52=20240201-14:59:00|10=033|
2024-02-01 15:59:27.076 [34] [FixSender] (DEBUG) Receiving 8=FIX.4.4|9=61|35=0|34=33|49=DMA_HUB|56=FIXCLIENT1|52=20240201-14:59:27.075|10=242|
2024-02-01 15:59:30.363 [35] [FixSender] (DEBUG) Sending 8=FIX.4.4|9=57|35=0|49=FIXCLIENT1|56=DMA_HUB|34=31|52=20240201-14:59:30|10=037|
2024-02-01 15:59:57.028 [34] [FixSender] (DEBUG) Receiving 8=FIX.4.4|9=61|35=0|34=34|49=DMA_HUB|56=FIXCLIENT1|52=20240201-14:59:57.028|10=244|
2024-02-01 16:00:00.371 [35] [FixSender] (DEBUG) Sending 8=FIX.4.4|9=57|35=0|49=FIXCLIENT1|56=DMA_HUB|34=32|52=20240201-15:00:00|10=022|
2024-02-01 16:00:26.981 [34] [FixSender] (DEBUG) Receiving 8=FIX.4.4|9=61|35=0|34=35|49=DMA_HUB|56=FIXCLIENT1|52=20240201-15:00:26.980|10=235|
2024-02-01 16:00:30.377 [35] [FixSender] (DEBUG) Sending 8=FIX.4.4|9=57|35=0|49=FIXCLIENT1|56=DMA_HUB|34=33|52=20240201-15:00:30|10=026|
2024-02-01 16:00:56.933 [34] [FixSender] (DEBUG) Receiving 8=FIX.4.4|9=61|35=0|34=36|49=DMA_HUB|56=FIXCLIENT1|52=20240201-15:00:56.932|10=236|
2024-02-01 16:01:00.388 [35] [FixSender] (DEBUG) Sending 8=FIX.4.4|9=57|35=0|49=FIXCLIENT1|56=DMA_HUB|34=34|52=20240201-15:01:00|10=025|
2024-02-01 16:01:26.885 [34] [FixSender] (DEBUG) Receiving 8=FIX.4.4|9=61|35=0|34=37|49=DMA_HUB|56=FIXCLIENT1|52=20240201-15:01:26.884|10=241|
2024-02-01 16:01:30.397 [35] [FixSender] (DEBUG) Sending 8=FIX.4.4|9=57|35=0|49=FIXCLIENT1|56=DMA_HUB|34=35|52=20240201-15:01:30|10=029|
2024-02-01 16:01:56.836 [34] [FixSender] (DEBUG) Receiving 8=FIX.4.4|9=61|35=0|34=38|49=DMA_HUB|56=FIXCLIENT1|52=20240201-15:01:56.836|10=242|
2024-02-01 16:02:00.405 [35] [FixSender] (DEBUG) Sending 8=FIX.4.4|9=57|35=0|49=FIXCLIENT1|56=DMA_HUB|34=36|52=20240201-15:02:00|10=028|
2024-02-01 16:02:26.788 [34] [FixSender] (DEBUG) Receiving 8=FIX.4.4|9=61|35=0|34=39|49=DMA_HUB|56=FIXCLIENT1|52=20240201-15:02:26.788|10=247|
2024-02-01 16:02:30.416 [35] [FixSender] (DEBUG) Sending 8=FIX.4.4|9=57|35=0|49=FIXCLIENT1|56=DMA_HUB|34=37|52=20240201-15:02:30|10=032|
2024-02-01 16:02:56.740 [34] [FixSender] (DEBUG) Receiving 8=FIX.4.4|9=61|35=0|34=40|49=DMA_HUB|56=FIXCLIENT1|52=20240201-15:02:56.740|10=230|
2024-02-01 16:03:00.418 [35] [FixSender] (DEBUG) Sending 8=FIX.4.4|9=57|35=0|49=FIXCLIENT1|56=DMA_HUB|34=38|52=20240201-15:03:00|10=031|
2024-02-01 16:03:26.692 [34] [FixSender] (DEBUG) Receiving 8=FIX.4.4|9=61|35=0|34=41|49=DMA_HUB|56=FIXCLIENT1|52=20240201-15:03:26.691|10=234|
2024-02-01 16:03:30.434 [35] [FixSender] (DEBUG) Sending 8=FIX.4.4|9=57|35=0|49=FIXCLIENT1|56=DMA_HUB|34=39|52=20240201-15:03:30|10=035|
2024-02-01 16:03:56.644 [34] [FixSender] (DEBUG) Receiving 8=FIX.4.4|9=61|35=0|34=42|49=DMA_HUB|56=FIXCLIENT1|52=20240201-15:03:56.644|10=236|
2024-02-01 16:04:00.438 [35] [FixSender] (DEBUG) Sending 8=FIX.4.4|9=57|35=0|49=FIXCLIENT1|56=DMA_HUB|34=40|52=20240201-15:04:00|10=025|
2024-02-01 16:04:26.597 [34] [FixSender] (DEBUG) Receiving 8=FIX.4.4|9=61|35=0|34=43|49=DMA_HUB|56=FIXCLIENT1|52=20240201-15:04:26.596|10=241|
2024-02-01 16:04:30.450 [35] [FixSender] (DEBUG) Sending 8=FIX.4.4|9=57|35=0|49=FIXCLIENT1|56=DMA_HUB|34=41|52=20240201-15:04:30|10=029|
2024-02-01 16:04:56.549 [34] [FixSender] (DEBUG) Receiving 8=FIX.4.4|9=61|35=0|34=44|49=DMA_HUB|56=FIXCLIENT1|52=20240201-15:04:56.548|10=242|
2024-02-01 16:05:00.464 [35] [FixSender] (DEBUG) Sending 8=FIX.4.4|9=57|35=0|49=FIXCLIENT1|56=DMA_HUB|34=42|52=20240201-15:05:00|10=028|
2024-02-01 16:05:26.500 [34] [FixSender] (DEBUG) Receiving 8=FIX.4.4|9=61|35=0|34=45|49=DMA_HUB|56=FIXCLIENT1|52=20240201-15:05:26.500|10=229|
2024-02-01 16:05:30.474 [35] [FixSender] (DEBUG) Sending 8=FIX.4.4|9=57|35=0|49=FIXCLIENT1|56=DMA_HUB|34=43|52=20240201-15:05:30|10=032|
2024-02-01 16:05:56.452 [34] [FixSender] (DEBUG) Receiving 8=FIX.4.4|9=61|35=0|34=46|49=DMA_HUB|56=FIXCLIENT1|52=20240201-15:05:56.452|10=239|
2024-02-01 16:06:00.479 [35] [FixSender] (DEBUG) Sending 8=FIX.4.4|9=57|35=0|49=FIXCLIENT1|56=DMA_HUB|34=44|52=20240201-15:06:00|10=031|
2024-02-01 16:06:26.404 [34] [FixSender] (DEBUG) Receiving 8=FIX.4.4|9=61|35=0|34=47|49=DMA_HUB|56=FIXCLIENT1|52=20240201-15:06:26.403|10=234|
2024-02-01 16:06:30.494 [35] [FixSender] (DEBUG) Sending 8=FIX.4.4|9=57|35=0|49=FIXCLIENT1|56=DMA_HUB|34=45|52=20240201-15:06:30|10=035|
2024-02-01 16:06:56.358 [34] [FixSender] (DEBUG) Receiving 8=FIX.4.4|9=61|35=0|34=48|49=DMA_HUB|56=FIXCLIENT1|52=20240201-15:06:56.356|10=245|
2024-02-01 16:07:00.504 [35] [FixSender] (DEBUG) Sending 8=FIX.4.4|9=57|35=0|49=FIXCLIENT1|56=DMA_HUB|34=46|52=20240201-15:07:00|10=034|
2024-02-01 16:07:26.309 [34] [FixSender] (DEBUG) Receiving 8=FIX.4.4|9=61|35=0|34=49|49=DMA_HUB|56=FIXCLIENT1|52=20240201-15:07:26.308|10=241|
2024-02-01 16:07:30.513 [35] [FixSender] (DEBUG) Sending 8=FIX.4.4|9=57|35=0|49=FIXCLIENT1|56=DMA_HUB|34=47|52=20240201-15:07:30|10=038|
2024-02-01 16:07:56.261 [34] [FixSender] (DEBUG) Receiving 8=FIX.4.4|9=61|35=0|34=50|49=DMA_HUB|56=FIXCLIENT1|52=20240201-15:07:56.260|10=233|
2024-02-01 16:08:00.520 [35] [FixSender] (DEBUG) Sending 8=FIX.4.4|9=57|35=0|49=FIXCLIENT1|56=DMA_HUB|34=48|52=20240201-15:08:00|10=037|
2024-02-01 16:08:26.212 [34] [FixSender] (DEBUG) Receiving 8=FIX.4.4|9=61|35=0|34=51|49=DMA_HUB|56=FIXCLIENT1|52=20240201-15:08:26.212|10=229|
2024-02-01 16:08:30.535 [35] [FixSender] (DEBUG) Sending 8=FIX.4.4|9=57|35=0|49=FIXCLIENT1|56=DMA_HUB|34=49|52=20240201-15:08:30|10=041|
2024-02-01 16:08:56.165 [34] [FixSender] (DEBUG) Receiving 8=FIX.4.4|9=61|35=0|34=52|49=DMA_HUB|56=FIXCLIENT1|52=20240201-15:08:56.164|10=239|
2024-02-01 16:09:00.545 [35] [FixSender] (DEBUG) Sending 8=FIX.4.4|9=57|35=0|49=FIXCLIENT1|56=DMA_HUB|34=50|52=20240201-15:09:00|10=031|
2024-02-01 16:09:26.117 [34] [FixSender] (DEBUG) Receiving 8=FIX.4.4|9=61|35=0|34=53|49=DMA_HUB|56=FIXCLIENT1|52=20240201-15:09:26.116|10=235|
2024-02-01 16:09:30.551 [35] [FixSender] (DEBUG) Sending 8=FIX.4.4|9=57|35=0|49=FIXCLIENT1|56=DMA_HUB|34=51|52=20240201-15:09:30|10=035|
2024-02-01 16:09:56.068 [34] [FixSender] (DEBUG) Receiving 8=FIX.4.4|9=61|35=0|34=54|49=DMA_HUB|56=FIXCLIENT1|52=20240201-15:09:56.068|10=245|
2024-02-01 16:10:00.567 [35] [FixSender] (DEBUG) Sending 8=FIX.4.4|9=57|35=0|49=FIXCLIENT1|56=DMA_HUB|34=52|52=20240201-15:10:00|10=025|
2024-02-01 16:10:26.020 [34] [FixSender] (DEBUG) Receiving 8=FIX.4.4|9=61|35=0|34=55|49=DMA_HUB|56=FIXCLIENT1|52=20240201-15:10:26.019|10=231|
2024-02-01 16:10:30.581 [35] [FixSender] (DEBUG) Sending 8=FIX.4.4|9=57|35=0|49=FIXCLIENT1|56=DMA_HUB|34=53|52=20240201-15:10:30|10=029|
2024-02-01 16:10:55.972 [34] [FixSender] (DEBUG) Receiving 8=FIX.4.4|9=61|35=0|34=56|49=DMA_HUB|56=FIXCLIENT1|52=20240201-15:10:55.972|10=242|
2024-02-01 16:11:00.588 [35] [FixSender] (DEBUG) Sending 8=FIX.4.4|9=57|35=0|49=FIXCLIENT1|56=DMA_HUB|34=54|52=20240201-15:11:00|10=028|
2024-02-01 16:11:25.924 [34] [FixSender] (DEBUG) Receiving 8=FIX.4.4|9=61|35=0|34=57|49=DMA_HUB|56=FIXCLIENT1|52=20240201-15:11:25.923|10=237|
2024-02-01 16:11:30.603 [35] [FixSender] (DEBUG) Sending 8=FIX.4.4|9=57|35=0|49=FIXCLIENT1|56=DMA_HUB|34=55|52=20240201-15:11:30|10=032|
2024-02-01 16:11:55.875 [34] [FixSender] (DEBUG) Receiving 8=FIX.4.4|9=61|35=0|34=58|49=DMA_HUB|56=FIXCLIENT1|52=20240201-15:11:55.875|10=247|
2024-02-01 16:12:00.614 [35] [FixSender] (DEBUG) Sending 8=FIX.4.4|9=57|35=0|49=FIXCLIENT1|56=DMA_HUB|34=56|52=20240201-15:12:00|10=031|
2024-02-01 16:12:25.828 [34] [FixSender] (DEBUG) Receiving 8=FIX.4.4|9=61|35=0|34=59|49=DMA_HUB|56=FIXCLIENT1|52=20240201-15:12:25.828|10=244|
2024-02-01 16:12:30.622 [35] [FixSender] (DEBUG) Sending 8=FIX.4.4|9=57|35=0|49=FIXCLIENT1|56=DMA_HUB|34=57|52=20240201-15:12:30|10=035|
2024-02-01 16:12:55.782 [34] [FixSender] (DEBUG) Receiving 8=FIX.4.4|9=61|35=0|34=60|49=DMA_HUB|56=FIXCLIENT1|52=20240201-15:12:55.781|10=237|
2024-02-01 16:13:00.623 [35] [FixSender] (DEBUG) Sending 8=FIX.4.4|9=57|35=0|49=FIXCLIENT1|56=DMA_HUB|34=58|52=20240201-15:13:00|10=034|
2024-02-01 16:13:25.732 [34] [FixSender] (DEBUG) Receiving 8=FIX.4.4|9=61|35=0|34=61|49=DMA_HUB|56=FIXCLIENT1|52=20240201-15:13:25.732|10=232|
2024-02-01 16:13:30.629 [35] [FixSender] (DEBUG) Sending 8=FIX.4.4|9=57|35=0|49=FIXCLIENT1|56=DMA_HUB|34=59|52=20240201-15:13:30|10=038|
2024-02-01 16:13:55.684 [34] [FixSender] (DEBUG) Receiving 8=FIX.4.4|9=61|35=0|34=62|49=DMA_HUB|56=FIXCLIENT1|52=20240201-15:13:55.684|10=242|
2024-02-01 16:14:00.634 [35] [FixSender] (DEBUG) Sending 8=FIX.4.4|9=57|35=0|49=FIXCLIENT1|56=DMA_HUB|34=60|52=20240201-15:14:00|10=028|
2024-02-01 16:14:25.635 [34] [FixSender] (DEBUG) Receiving 8=FIX.4.4|9=61|35=0|34=63|49=DMA_HUB|56=FIXCLIENT1|52=20240201-15:14:25.635|10=237|
2024-02-01 16:14:30.651 [35] [FixSender] (DEBUG) Sending 8=FIX.4.4|9=57|35=0|49=FIXCLIENT1|56=DMA_HUB|34=61|52=20240201-15:14:30|10=032|
2024-02-01 16:14:55.588 [34] [FixSender] (DEBUG) Receiving 8=FIX.4.4|9=61|35=0|34=64|49=DMA_HUB|56=FIXCLIENT1|52=20240201-15:14:55.587|10=247|
2024-02-01 16:15:00.655 [35] [FixSender] (DEBUG) Sending 8=FIX.4.4|9=57|35=0|49=FIXCLIENT1|56=DMA_HUB|34=62|52=20240201-15:15:00|10=031|
2024-02-01 16:15:25.542 [34] [FixSender] (DEBUG) Receiving 8=FIX.4.4|9=61|35=0|34=65|49=DMA_HUB|56=FIXCLIENT1|52=20240201-15:15:25.541|10=236|
2024-02-01 16:15:30.669 [35] [FixSender] (DEBUG) Sending 8=FIX.4.4|9=57|35=0|49=FIXCLIENT1|56=DMA_HUB|34=63|52=20240201-15:15:30|10=035|
2024-02-01 16:15:55.492 [34] [FixSender] (DEBUG) Receiving 8=FIX.4.4|9=61|35=0|34=66|49=DMA_HUB|56=FIXCLIENT1|52=20240201-15:15:55.492|10=245|
2024-02-01 16:16:00.678 [35] [FixSender] (DEBUG) Sending 8=FIX.4.4|9=57|35=0|49=FIXCLIENT1|56=DMA_HUB|34=64|52=20240201-15:16:00|10=034|
2024-02-01 16:16:25.444 [34] [FixSender] (DEBUG) Receiving 8=FIX.4.4|9=61|35=0|34=67|49=DMA_HUB|56=FIXCLIENT1|52=20240201-15:16:25.444|10=241|
2024-02-01 16:16:30.687 [35] [FixSender] (DEBUG) Sending 8=FIX.4.4|9=57|35=0|49=FIXCLIENT1|56=DMA_HUB|34=65|52=20240201-15:16:30|10=038|
2024-02-01 16:16:55.397 [34] [FixSender] (DEBUG) Receiving 8=FIX.4.4|9=61|35=0|34=68|49=DMA_HUB|56=FIXCLIENT1|52=20240201-15:16:55.396|10=251|
2024-02-01 16:17:00.690 [35] [FixSender] (DEBUG) Sending 8=FIX.4.4|9=57|35=0|49=FIXCLIENT1|56=DMA_HUB|34=66|52=20240201-15:17:00|10=037|
2024-02-01 16:17:25.348 [34] [FixSender] (DEBUG) Receiving 8=FIX.4.4|9=61|35=0|34=69|49=DMA_HUB|56=FIXCLIENT1|52=20240201-15:17:25.348|10=247|
2024-02-01 16:17:30.703 [35] [FixSender] (DEBUG) Sending 8=FIX.4.4|9=57|35=0|49=FIXCLIENT1|56=DMA_HUB|34=67|52=20240201-15:17:30|10=041|
2024-02-01 16:17:55.300 [34] [FixSender] (DEBUG) Receiving 8=FIX.4.4|9=61|35=0|34=70|49=DMA_HUB|56=FIXCLIENT1|52=20240201-15:17:55.300|10=230|
2024-02-01 16:18:00.708 [35] [FixSender] (DEBUG) Sending 8=FIX.4.4|9=57|35=0|49=FIXCLIENT1|56=DMA_HUB|34=68|52=20240201-15:18:00|10=040|
2024-02-01 16:18:25.253 [34] [FixSender] (DEBUG) Receiving 8=FIX.4.4|9=61|35=0|34=71|49=DMA_HUB|56=FIXCLIENT1|52=20240201-15:18:25.252|10=235|
2024-02-01 16:18:30.718 [35] [FixSender] (DEBUG) Sending 8=FIX.4.4|9=57|35=0|49=FIXCLIENT1|56=DMA_HUB|34=69|52=20240201-15:18:30|10=044|
2024-02-01 16:18:55.204 [34] [FixSender] (DEBUG) Receiving 8=FIX.4.4|9=61|35=0|34=72|49=DMA_HUB|56=FIXCLIENT1|52=20240201-15:18:55.204|10=236|
2024-02-01 16:19:00.720 [35] [FixSender] (DEBUG) Sending 8=FIX.4.4|9=57|35=0|49=FIXCLIENT1|56=DMA_HUB|34=70|52=20240201-15:19:00|10=034|
2024-02-01 16:19:25.156 [34] [FixSender] (DEBUG) Receiving 8=FIX.4.4|9=61|35=0|34=73|49=DMA_HUB|56=FIXCLIENT1|52=20240201-15:19:25.156|10=241|
2024-02-01 16:19:30.733 [35] [FixSender] (DEBUG) Sending 8=FIX.4.4|9=57|35=0|49=FIXCLIENT1|56=DMA_HUB|34=71|52=20240201-15:19:30|10=038|
2024-02-01 16:19:55.109 [34] [FixSender] (DEBUG) Receiving 8=FIX.4.4|9=61|35=0|34=74|49=DMA_HUB|56=FIXCLIENT1|52=20240201-15:19:55.108|10=242|
2024-02-01 16:20:00.748 [35] [FixSender] (DEBUG) Sending 8=FIX.4.4|9=57|35=0|49=FIXCLIENT1|56=DMA_HUB|34=72|52=20240201-15:20:00|10=028|
2024-02-01 16:20:25.061 [34] [FixSender] (DEBUG) Receiving 8=FIX.4.4|9=61|35=0|34=75|49=DMA_HUB|56=FIXCLIENT1|52=20240201-15:20:25.059|10=237|
2024-02-01 16:20:30.757 [35] [FixSender] (DEBUG) Sending 8=FIX.4.4|9=57|35=0|49=FIXCLIENT1|56=DMA_HUB|34=73|52=20240201-15:20:30|10=032|
2024-02-01 16:20:55.013 [34] [FixSender] (DEBUG) Receiving 8=FIX.4.4|9=61|35=0|34=76|49=DMA_HUB|56=FIXCLIENT1|52=20240201-15:20:55.012|10=230|
2024-02-01 16:21:00.765 [35] [FixSender] (DEBUG) Sending 8=FIX.4.4|9=57|35=0|49=FIXCLIENT1|56=DMA_HUB|34=74|52=20240201-15:21:00|10=031|
2024-02-01 16:21:24.964 [34] [FixSender] (DEBUG) Receiving 8=FIX.4.4|9=61|35=0|34=77|49=DMA_HUB|56=FIXCLIENT1|52=20240201-15:21:24.964|10=244|
2024-02-01 16:21:30.778 [35] [FixSender] (DEBUG) Sending 8=FIX.4.4|9=57|35=0|49=FIXCLIENT1|56=DMA_HUB|34=75|52=20240201-15:21:30|10=035|
2024-02-01 16:21:54.916 [34] [FixSender] (DEBUG) Receiving 8=FIX.4.4|9=61|35=0|34=78|49=DMA_HUB|56=FIXCLIENT1|52=20240201-15:21:54.916|10=245|
2024-02-01 16:22:00.794 [35] [FixSender] (DEBUG) Sending 8=FIX.4.4|9=57|35=0|49=FIXCLIENT1|56=DMA_HUB|34=76|52=20240201-15:22:00|10=034|
2024-02-01 16:22:24.867 [34] [FixSender] (DEBUG) Receiving 8=FIX.4.4|9=61|35=0|34=79|49=DMA_HUB|56=FIXCLIENT1|52=20240201-15:22:24.867|10=249|
2024-02-01 16:22:30.797 [35] [FixSender] (DEBUG) Sending 8=FIX.4.4|9=57|35=0|49=FIXCLIENT1|56=DMA_HUB|34=77|52=20240201-15:22:30|10=038|
2024-02-01 16:22:54.819 [34] [FixSender] (DEBUG) Receiving 8=FIX.4.4|9=61|35=0|34=80|49=DMA_HUB|56=FIXCLIENT1|52=20240201-15:22:54.819|10=241|
2024-02-01 16:23:00.801 [35] [FixSender] (DEBUG) Sending 8=FIX.4.4|9=57|35=0|49=FIXCLIENT1|56=DMA_HUB|34=78|52=20240201-15:23:00|10=037|
2024-02-01 16:23:24.771 [34] [FixSender] (DEBUG) Receiving 8=FIX.4.4|9=61|35=0|34=81|49=DMA_HUB|56=FIXCLIENT1|52=20240201-15:23:24.771|10=237|
2024-02-01 16:23:30.803 [35] [FixSender] (DEBUG) Sending 8=FIX.4.4|9=57|35=0|49=FIXCLIENT1|56=DMA_HUB|34=79|52=20240201-15:23:30|10=041|
2024-02-01 16:23:54.723 [34] [FixSender] (DEBUG) Receiving 8=FIX.4.4|9=61|35=0|34=82|49=DMA_HUB|56=FIXCLIENT1|52=20240201-15:23:54.723|10=238|
2024-02-01 16:24:00.804 [35] [FixSender] (DEBUG) Sending 8=FIX.4.4|9=57|35=0|49=FIXCLIENT1|56=DMA_HUB|34=80|52=20240201-15:24:00|10=031|
2024-02-01 16:24:24.676 [34] [FixSender] (DEBUG) Receiving 8=FIX.4.4|9=61|35=0|34=83|49=DMA_HUB|56=FIXCLIENT1|52=20240201-15:24:24.676|10=244|
2024-02-01 16:24:30.820 [35] [FixSender] (DEBUG) Sending 8=FIX.4.4|9=57|35=0|49=FIXCLIENT1|56=DMA_HUB|34=81|52=20240201-15:24:30|10=035|
2024-02-01 16:24:54.629 [34] [FixSender] (DEBUG) Receiving 8=FIX.4.4|9=61|35=0|34=84|49=DMA_HUB|56=FIXCLIENT1|52=20240201-15:24:54.628|10=245|
2024-02-01 16:25:00.829 [35] [FixSender] (DEBUG) Sending 8=FIX.4.4|9=57|35=0|49=FIXCLIENT1|56=DMA_HUB|34=82|52=20240201-15:25:00|10=034|
2024-02-01 16:25:24.580 [34] [FixSender] (DEBUG) Receiving 8=FIX.4.4|9=61|35=0|34=85|49=DMA_HUB|56=FIXCLIENT1|52=20240201-15:25:24.580|10=241|
2024-02-01 16:25:30.836 [35] [FixSender] (DEBUG) Sending 8=FIX.4.4|9=57|35=0|49=FIXCLIENT1|56=DMA_HUB|34=83|52=20240201-15:25:30|10=038|
2024-02-01 16:25:54.531 [34] [FixSender] (DEBUG) Receiving 8=FIX.4.4|9=61|35=0|34=86|49=DMA_HUB|56=FIXCLIENT1|52=20240201-15:25:54.531|10=241|
2024-02-01 16:26:00.846 [35] [FixSender] (DEBUG) Sending 8=FIX.4.4|9=57|35=0|49=FIXCLIENT1|56=DMA_HUB|34=84|52=20240201-15:26:00|10=037|
2024-02-01 16:26:24.484 [34] [FixSender] (DEBUG) Receiving 8=FIX.4.4|9=61|35=0|34=87|49=DMA_HUB|56=FIXCLIENT1|52=20240201-15:26:24.484|10=247|
2024-02-01 16:26:30.849 [35] [FixSender] (DEBUG) Sending 8=FIX.4.4|9=57|35=0|49=FIXCLIENT1|56=DMA_HUB|34=85|52=20240201-15:26:30|10=041|
2024-02-01 16:26:54.437 [34] [FixSender] (DEBUG) Receiving 8=FIX.4.4|9=61|35=0|34=88|49=DMA_HUB|56=FIXCLIENT1|52=20240201-15:26:54.436|10=248|
2024-02-01 16:27:00.864 [35] [FixSender] (DEBUG) Sending 8=FIX.4.4|9=57|35=0|49=FIXCLIENT1|56=DMA_HUB|34=86|52=20240201-15:27:00|10=040|
2024-02-01 16:27:24.387 [34] [FixSender] (DEBUG) Receiving 8=FIX.4.4|9=61|35=0|34=89|49=DMA_HUB|56=FIXCLIENT1|52=20240201-15:27:24.387|10=252|
2024-02-01 16:27:30.878 [35] [FixSender] (DEBUG) Sending 8=FIX.4.4|9=57|35=0|49=FIXCLIENT1|56=DMA_HUB|34=87|52=20240201-15:27:30|10=044|
2024-02-01 16:27:54.341 [34] [FixSender] (DEBUG) Receiving 8=FIX.4.4|9=61|35=0|34=90|49=DMA_HUB|56=FIXCLIENT1|52=20240201-15:27:54.340|10=236|
2024-02-01 16:28:00.881 [35] [FixSender] (DEBUG) Sending 8=FIX.4.4|9=57|35=0|49=FIXCLIENT1|56=DMA_HUB|34=88|52=20240201-15:28:00|10=043|
2024-02-01 16:28:24.302 [34] [FixSender] (DEBUG) Receiving 8=FIX.4.4|9=61|35=0|34=91|49=DMA_HUB|56=FIXCLIENT1|52=20240201-15:28:24.292|10=241|
2024-02-01 16:28:30.886 [35] [FixSender] (DEBUG) Sending 8=FIX.4.4|9=57|35=0|49=FIXCLIENT1|56=DMA_HUB|34=89|52=20240201-15:28:30|10=047|
2024-02-01 16:28:54.245 [34] [FixSender] (DEBUG) Receiving 8=FIX.4.4|9=61|35=0|34=92|49=DMA_HUB|56=FIXCLIENT1|52=20240201-15:28:54.244|10=242|
2024-02-01 16:29:00.891 [35] [FixSender] (DEBUG) Sending 8=FIX.4.4|9=57|35=0|49=FIXCLIENT1|56=DMA_HUB|34=90|52=20240201-15:29:00|10=037|
2024-02-01 16:29:24.196 [34] [FixSender] (DEBUG) Receiving 8=FIX.4.4|9=61|35=0|34=93|49=DMA_HUB|56=FIXCLIENT1|52=20240201-15:29:24.196|10=247|
2024-02-01 16:29:30.906 [35] [FixSender] (DEBUG) Sending 8=FIX.4.4|9=57|35=0|49=FIXCLIENT1|56=DMA_HUB|34=91|52=20240201-15:29:30|10=041|
2024-02-01 16:29:54.149 [34] [FixSender] (DEBUG) Receiving 8=FIX.4.4|9=61|35=0|34=94|49=DMA_HUB|56=FIXCLIENT1|52=20240201-15:29:54.148|10=248|
2024-02-01 16:30:00.920 [35] [FixSender] (DEBUG) Sending 8=FIX.4.4|9=57|35=0|49=FIXCLIENT1|56=DMA_HUB|34=92|52=20240201-15:30:00|10=031|
2024-02-01 16:30:24.100 [34] [FixSender] (DEBUG) Receiving 8=FIX.4.4|9=61|35=0|34=95|49=DMA_HUB|56=FIXCLIENT1|52=20240201-15:30:24.100|10=226|
2024-02-01 16:30:30.924 [35] [FixSender] (DEBUG) Sending 8=FIX.4.4|9=57|35=0|49=FIXCLIENT1|56=DMA_HUB|34=93|52=20240201-15:30:30|10=035|
2024-02-01 16:30:54.051 [34] [FixSender] (DEBUG) Receiving 8=FIX.4.4|9=61|35=0|34=96|49=DMA_HUB|56=FIXCLIENT1|52=20240201-15:30:54.051|10=235|
2024-02-01 16:31:00.926 [35] [FixSender] (DEBUG) Sending 8=FIX.4.4|9=57|35=0|49=FIXCLIENT1|56=DMA_HUB|34=94|52=20240201-15:31:00|10=034|
2024-02-01 16:31:24.004 [34] [FixSender] (DEBUG) Receiving 8=FIX.4.4|9=61|35=0|34=97|49=DMA_HUB|56=FIXCLIENT1|52=20240201-15:31:24.004|10=232|
2024-02-01 16:31:30.927 [35] [FixSender] (DEBUG) Sending 8=FIX.4.4|9=57|35=0|49=FIXCLIENT1|56=DMA_HUB|34=95|52=20240201-15:31:30|10=038|
2024-02-01 16:31:53.956 [34] [FixSender] (DEBUG) Receiving 8=FIX.4.4|9=61|35=0|34=98|49=DMA_HUB|56=FIXCLIENT1|52=20240201-15:31:53.956|10=251|
2024-02-01 16:32:00.931 [35] [FixSender] (DEBUG) Sending 8=FIX.4.4|9=57|35=0|49=FIXCLIENT1|56=DMA_HUB|34=96|52=20240201-15:32:00|10=037|
2024-02-01 16:32:23.907 [34] [FixSender] (DEBUG) Receiving 8=FIX.4.4|9=61|35=0|34=99|49=DMA_HUB|56=FIXCLIENT1|52=20240201-15:32:23.907|10=246|
2024-02-01 16:32:30.939 [35] [FixSender] (DEBUG) Sending 8=FIX.4.4|9=57|35=0|49=FIXCLIENT1|56=DMA_HUB|34=97|52=20240201-15:32:30|10=041|
2024-02-01 16:32:53.861 [34] [FixSender] (DEBUG) Receiving 8=FIX.4.4|9=62|35=0|34=100|49=DMA_HUB|56=FIXCLIENT1|52=20240201-15:32:53.860|10=023|
2024-02-01 16:33:00.941 [35] [FixSender] (DEBUG) Sending 8=FIX.4.4|9=57|35=0|49=FIXCLIENT1|56=DMA_HUB|34=98|52=20240201-15:33:00|10=040|
2024-02-01 16:33:23.812 [34] [FixSender] (DEBUG) Receiving 8=FIX.4.4|9=62|35=0|34=101|49=DMA_HUB|56=FIXCLIENT1|52=20240201-15:33:23.812|10=019|
2024-02-01 16:33:30.947 [35] [FixSender] (DEBUG) Sending 8=FIX.4.4|9=57|35=0|49=FIXCLIENT1|56=DMA_HUB|34=99|52=20240201-15:33:30|10=044|
2024-02-01 16:33:53.764 [34] [FixSender] (DEBUG) Receiving 8=FIX.4.4|9=62|35=0|34=102|49=DMA_HUB|56=FIXCLIENT1|52=20240201-15:33:53.764|10=029|
2024-02-01 16:34:00.950 [35] [FixSender] (DEBUG) Sending 8=FIX.4.4|9=58|35=0|49=FIXCLIENT1|56=DMA_HUB|34=100|52=20240201-15:34:00|10=074|
2024-02-01 16:34:23.717 [34] [FixSender] (DEBUG) Receiving 8=FIX.4.4|9=62|35=0|34=103|49=DMA_HUB|56=FIXCLIENT1|52=20240201-15:34:23.716|10=025|
2024-02-01 16:34:30.963 [35] [FixSender] (DEBUG) Sending 8=FIX.4.4|9=58|35=0|49=FIXCLIENT1|56=DMA_HUB|34=101|52=20240201-15:34:30|10=078|
2024-02-01 16:34:53.668 [34] [FixSender] (DEBUG) Receiving 8=FIX.4.4|9=62|35=0|34=104|49=DMA_HUB|56=FIXCLIENT1|52=20240201-15:34:53.667|10=034|
2024-02-01 16:35:00.971 [35] [FixSender] (DEBUG) Sending 8=FIX.4.4|9=58|35=0|49=FIXCLIENT1|56=DMA_HUB|34=102|52=20240201-15:35:00|10=077|
2024-02-01 16:35:23.620 [34] [FixSender] (DEBUG) Receiving 8=FIX.4.4|9=62|35=0|34=105|49=DMA_HUB|56=FIXCLIENT1|52=20240201-15:35:23.619|10=030|
2024-02-01 16:35:30.973 [35] [FixSender] (DEBUG) Sending 8=FIX.4.4|9=58|35=0|49=FIXCLIENT1|56=DMA_HUB|34=103|52=20240201-15:35:30|10=081|
2024-02-01 16:35:53.572 [34] [FixSender] (DEBUG) Receiving 8=FIX.4.4|9=62|35=0|34=106|49=DMA_HUB|56=FIXCLIENT1|52=20240201-15:35:53.572|10=032|
2024-02-01 16:36:00.976 [35] [FixSender] (DEBUG) Sending 8=FIX.4.4|9=58|35=0|49=FIXCLIENT1|56=DMA_HUB|34=104|52=20240201-15:36:00|10=080|
2024-02-01 16:36:23.525 [34] [FixSender] (DEBUG) Receiving 8=FIX.4.4|9=62|35=0|34=107|49=DMA_HUB|56=FIXCLIENT1|52=20240201-15:36:23.524|10=028|
2024-02-01 16:36:30.984 [35] [FixSender] (DEBUG) Sending 8=FIX.4.4|9=58|35=0|49=FIXCLIENT1|56=DMA_HUB|34=105|52=20240201-15:36:30|10=084|
2024-02-01 16:36:53.478 [34] [FixSender] (DEBUG) Receiving 8=FIX.4.4|9=62|35=0|34=108|49=DMA_HUB|56=FIXCLIENT1|52=20240201-15:36:53.476|10=038|
2024-02-01 16:37:00.984 [35] [FixSender] (DEBUG) Sending 8=FIX.4.4|9=58|35=0|49=FIXCLIENT1|56=DMA_HUB|34=106|52=20240201-15:37:00|10=083|
2024-02-01 16:37:23.428 [34] [FixSender] (DEBUG) Receiving 8=FIX.4.4|9=62|35=0|34=109|49=DMA_HUB|56=FIXCLIENT1|52=20240201-15:37:23.428|10=034|
2024-02-01 16:37:30.995 [35] [FixSender] (DEBUG) Sending 8=FIX.4.4|9=58|35=0|49=FIXCLIENT1|56=DMA_HUB|34=107|52=20240201-15:37:30|10=087|
2024-02-01 16:37:53.380 [34] [FixSender] (DEBUG) Receiving 8=FIX.4.4|9=62|35=0|34=110|49=DMA_HUB|56=FIXCLIENT1|52=20240201-15:37:53.379|10=034|
2024-02-01 16:38:01.007 [35] [FixSender] (DEBUG) Sending 8=FIX.4.4|9=58|35=0|49=FIXCLIENT1|56=DMA_HUB|34=108|52=20240201-15:38:01|10=087|
2024-02-01 16:38:23.332 [34] [FixSender] (DEBUG) Receiving 8=FIX.4.4|9=62|35=0|34=111|49=DMA_HUB|56=FIXCLIENT1|52=20240201-15:38:23.331|10=021|
2024-02-01 16:38:31.016 [35] [FixSender] (DEBUG) Sending 8=FIX.4.4|9=58|35=0|49=FIXCLIENT1|56=DMA_HUB|34=109|52=20240201-15:38:31|10=091|
2024-02-01 16:38:53.283 [34] [FixSender] (DEBUG) Receiving 8=FIX.4.4|9=62|35=0|34=112|49=DMA_HUB|56=FIXCLIENT1|52=20240201-15:38:53.283|10=031|
2024-02-01 16:39:01.023 [35] [FixSender] (DEBUG) Sending 8=FIX.4.4|9=58|35=0|49=FIXCLIENT1|56=DMA_HUB|34=110|52=20240201-15:39:01|10=081|
2024-02-01 16:39:23.236 [34] [FixSender] (DEBUG) Receiving 8=FIX.4.4|9=62|35=0|34=113|49=DMA_HUB|56=FIXCLIENT1|52=20240201-15:39:23.236|10=028|
2024-02-01 16:39:31.028 [35] [FixSender] (DEBUG) Sending 8=FIX.4.4|9=58|35=0|49=FIXCLIENT1|56=DMA_HUB|34=111|52=20240201-15:39:31|10=085|
2024-02-01 16:39:53.187 [34] [FixSender] (DEBUG) Receiving 8=FIX.4.4|9=62|35=0|34=114|49=DMA_HUB|56=FIXCLIENT1|52=20240201-15:39:53.187|10=037|
2024-02-01 16:40:01.031 [35] [FixSender] (DEBUG) Sending 8=FIX.4.4|9=58|35=0|49=FIXCLIENT1|56=DMA_HUB|34=112|52=20240201-15:40:01|10=075|
2024-02-01 16:40:23.140 [34] [FixSender] (DEBUG) Receiving 8=FIX.4.4|9=62|35=0|34=115|49=DMA_HUB|56=FIXCLIENT1|52=20240201-15:40:23.140|10=016|
2024-02-01 16:40:31.039 [35] [FixSender] (DEBUG) Sending 8=FIX.4.4|9=58|35=0|49=FIXCLIENT1|56=DMA_HUB|34=113|52=20240201-15:40:31|10=079|
2024-02-01 16:40:53.092 [34] [FixSender] (DEBUG) Receiving 8=FIX.4.4|9=62|35=0|34=116|49=DMA_HUB|56=FIXCLIENT1|52=20240201-15:40:53.091|10=025|
2024-02-01 16:41:01.052 [35] [FixSender] (DEBUG) Sending 8=FIX.4.4|9=58|35=0|49=FIXCLIENT1|56=DMA_HUB|34=114|52=20240201-15:41:01|10=078|
2024-02-01 16:41:23.044 [34] [FixSender] (DEBUG) Receiving 8=FIX.4.4|9=62|35=0|34=117|49=DMA_HUB|56=FIXCLIENT1|52=20240201-15:41:23.043|10=021|
2024-02-01 16:41:31.059 [35] [FixSender] (DEBUG) Sending 8=FIX.4.4|9=58|35=0|49=FIXCLIENT1|56=DMA_HUB|34=115|52=20240201-15:41:31|10=082|
2024-02-01 16:41:52.997 [34] [FixSender] (DEBUG) Receiving 8=FIX.4.4|9=62|35=0|34=118|49=DMA_HUB|56=FIXCLIENT1|52=20240201-15:41:52.996|10=041|
2024-02-01 16:42:01.062 [35] [FixSender] (DEBUG) Sending 8=FIX.4.4|9=58|35=0|49=FIXCLIENT1|56=DMA_HUB|34=116|52=20240201-15:42:01|10=081|
2024-02-01 16:42:22.947 [34] [FixSender] (DEBUG) Receiving 8=FIX.4.4|9=62|35=0|34=119|49=DMA_HUB|56=FIXCLIENT1|52=20240201-15:42:22.947|10=036|
2024-02-01 16:42:31.070 [35] [FixSender] (DEBUG) Sending 8=FIX.4.4|9=58|35=0|49=FIXCLIENT1|56=DMA_HUB|34=117|52=20240201-15:42:31|10=085|
2024-02-01 16:42:52.899 [34] [FixSender] (DEBUG) Receiving 8=FIX.4.4|9=62|35=0|34=120|49=DMA_HUB|56=FIXCLIENT1|52=20240201-15:42:52.899|10=037|
2024-02-01 16:43:01.083 [35] [FixSender] (DEBUG) Sending 8=FIX.4.4|9=58|35=0|49=FIXCLIENT1|56=DMA_HUB|34=118|52=20240201-15:43:01|10=084|
2024-02-01 16:43:22.852 [34] [FixSender] (DEBUG) Receiving 8=FIX.4.4|9=62|35=0|34=121|49=DMA_HUB|56=FIXCLIENT1|52=20240201-15:43:22.852|10=025|
2024-02-01 16:43:31.088 [35] [FixSender] (DEBUG) Sending 8=FIX.4.4|9=58|35=0|49=FIXCLIENT1|56=DMA_HUB|34=119|52=20240201-15:43:31|10=088|
2024-02-01 16:43:52.804 [34] [FixSender] (DEBUG) Receiving 8=FIX.4.4|9=62|35=0|34=122|49=DMA_HUB|56=FIXCLIENT1|52=20240201-15:43:52.804|10=026|
2024-02-01 16:44:01.101 [35] [FixSender] (DEBUG) Sending 8=FIX.4.4|9=58|35=0|49=FIXCLIENT1|56=DMA_HUB|34=120|52=20240201-15:44:01|10=078|
2024-02-01 16:44:22.756 [34] [FixSender] (DEBUG) Receiving 8=FIX.4.4|9=62|35=0|34=123|49=DMA_HUB|56=FIXCLIENT1|52=20240201-15:44:22.756|10=031|
2024-02-01 16:44:31.102 [35] [FixSender] (DEBUG) Sending 8=FIX.4.4|9=58|35=0|49=FIXCLIENT1|56=DMA_HUB|34=121|52=20240201-15:44:31|10=082|
2024-02-01 16:44:52.708 [34] [FixSender] (DEBUG) Receiving 8=FIX.4.4|9=62|35=0|34=124|49=DMA_HUB|56=FIXCLIENT1|52=20240201-15:44:52.708|10=032|
2024-02-01 16:45:01.114 [35] [FixSender] (DEBUG) Sending 8=FIX.4.4|9=58|35=0|49=FIXCLIENT1|56=DMA_HUB|34=122|52=20240201-15:45:01|10=081|
2024-02-01 16:45:22.660 [34] [FixSender] (DEBUG) Receiving 8=FIX.4.4|9=62|35=0|34=125|49=DMA_HUB|56=FIXCLIENT1|52=20240201-15:45:22.660|10=028|
2024-02-01 16:45:31.125 [35] [FixSender] (DEBUG) Sending 8=FIX.4.4|9=58|35=0|49=FIXCLIENT1|56=DMA_HUB|34=123|52=20240201-15:45:31|10=085|
2024-02-01 16:45:52.613 [34] [FixSender] (DEBUG) Receiving 8=FIX.4.4|9=62|35=0|34=126|49=DMA_HUB|56=FIXCLIENT1|52=20240201-15:45:52.612|10=029|
2024-02-01 16:46:01.136 [35] [FixSender] (DEBUG) Sending 8=FIX.4.4|9=58|35=0|49=FIXCLIENT1|56=DMA_HUB|34=124|52=20240201-15:46:01|10=084|
2024-02-01 16:46:22.564 [34] [FixSender] (DEBUG) Receiving 8=FIX.4.4|9=62|35=0|34=127|49=DMA_HUB|56=FIXCLIENT1|52=20240201-15:46:22.564|10=034|
2024-02-01 16:46:31.151 [35] [FixSender] (DEBUG) Sending 8=FIX.4.4|9=58|35=0|49=FIXCLIENT1|56=DMA_HUB|34=125|52=20240201-15:46:31|10=088|
2024-02-01 16:46:52.516 [34] [FixSender] (DEBUG) Receiving 8=FIX.4.4|9=62|35=0|34=128|49=DMA_HUB|56=FIXCLIENT1|52=20240201-15:46:52.516|10=035|
2024-02-01 16:47:01.157 [35] [FixSender] (DEBUG) Sending 8=FIX.4.4|9=58|35=0|49=FIXCLIENT1|56=DMA_HUB|34=126|52=20240201-15:47:01|10=087|
2024-02-01 16:47:22.470 [34] [FixSender] (DEBUG) Receiving 8=FIX.4.4|9=62|35=0|34=129|49=DMA_HUB|56=FIXCLIENT1|52=20240201-15:47:22.468|10=040|
2024-02-01 16:47:31.172 [35] [FixSender] (DEBUG) Sending 8=FIX.4.4|9=58|35=0|49=FIXCLIENT1|56=DMA_HUB|34=127|52=20240201-15:47:31|10=091|
2024-02-01 16:47:52.419 [34] [FixSender] (DEBUG) Receiving 8=FIX.4.4|9=62|35=0|34=130|49=DMA_HUB|56=FIXCLIENT1|52=20240201-15:47:52.419|10=031|
2024-02-01 16:48:01.179 [35] [FixSender] (DEBUG) Sending 8=FIX.4.4|9=58|35=0|49=FIXCLIENT1|56=DMA_HUB|34=128|52=20240201-15:48:01|10=090|
2024-02-01 16:48:22.372 [34] [FixSender] (DEBUG) Receiving 8=FIX.4.4|9=62|35=0|34=131|49=DMA_HUB|56=FIXCLIENT1|52=20240201-15:48:22.372|10=028|
2024-02-01 16:48:31.182 [35] [FixSender] (DEBUG) Sending 8=FIX.4.4|9=58|35=0|49=FIXCLIENT1|56=DMA_HUB|34=129|52=20240201-15:48:31|10=094|
2024-02-01 16:48:52.324 [34] [FixSender] (DEBUG) Receiving 8=FIX.4.4|9=62|35=0|34=132|49=DMA_HUB|56=FIXCLIENT1|52=20240201-15:48:52.324|10=029|
2024-02-01 16:49:01.185 [35] [FixSender] (DEBUG) Sending 8=FIX.4.4|9=58|35=0|49=FIXCLIENT1|56=DMA_HUB|34=130|52=20240201-15:49:01|10=084|
2024-02-01 16:49:22.276 [34] [FixSender] (DEBUG) Receiving 8=FIX.4.4|9=62|35=0|34=133|49=DMA_HUB|56=FIXCLIENT1|52=20240201-15:49:22.276|10=034|
2024-02-01 16:49:31.187 [35] [FixSender] (DEBUG) Sending 8=FIX.4.4|9=58|35=0|49=FIXCLIENT1|56=DMA_HUB|34=131|52=20240201-15:49:31|10=088|
2024-02-01 16:49:52.228 [34] [FixSender] (DEBUG) Receiving 8=FIX.4.4|9=62|35=0|34=134|49=DMA_HUB|56=FIXCLIENT1|52=20240201-15:49:52.228|10=035|
2024-02-01 16:50:01.190 [35] [FixSender] (DEBUG) Sending 8=FIX.4.4|9=58|35=0|49=FIXCLIENT1|56=DMA_HUB|34=132|52=20240201-15:50:01|10=078|
2024-02-01 16:50:22.182 [34] [FixSender] (DEBUG) Receiving 8=FIX.4.4|9=62|35=0|34=135|49=DMA_HUB|56=FIXCLIENT1|52=20240201-15:50:22.180|10=022|
2024-02-01 16:50:31.191 [35] [FixSender] (DEBUG) Sending 8=FIX.4.4|9=58|35=0|49=FIXCLIENT1|56=DMA_HUB|34=133|52=20240201-15:50:31|10=082|
2024-02-01 16:50:52.132 [34] [FixSender] (DEBUG) Receiving 8=FIX.4.4|9=62|35=0|34=136|49=DMA_HUB|56=FIXCLIENT1|52=20240201-15:50:52.132|10=023|
2024-02-01 16:51:01.192 [35] [FixSender] (DEBUG) Sending 8=FIX.4.4|9=58|35=0|49=FIXCLIENT1|56=DMA_HUB|34=134|52=20240201-15:51:01|10=081|
2024-02-01 16:51:22.084 [34] [FixSender] (DEBUG) Receiving 8=FIX.4.4|9=62|35=0|34=137|49=DMA_HUB|56=FIXCLIENT1|52=20240201-15:51:22.084|10=028|
2024-02-01 16:51:31.193 [35] [FixSender] (DEBUG) Sending 8=FIX.4.4|9=58|35=0|49=FIXCLIENT1|56=DMA_HUB|34=135|52=20240201-15:51:31|10=085|
2024-02-01 16:51:52.036 [34] [FixSender] (DEBUG) Receiving 8=FIX.4.4|9=62|35=0|34=138|49=DMA_HUB|56=FIXCLIENT1|52=20240201-15:51:52.036|10=029|
2024-02-01 16:52:01.195 [35] [FixSender] (DEBUG) Sending 8=FIX.4.4|9=58|35=0|49=FIXCLIENT1|56=DMA_HUB|34=136|52=20240201-15:52:01|10=084|
2024-02-01 16:52:21.987 [34] [FixSender] (DEBUG) Receiving 8=FIX.4.4|9=62|35=0|34=139|49=DMA_HUB|56=FIXCLIENT1|52=20240201-15:52:21.987|10=042|
2024-02-01 16:52:31.197 [35] [FixSender] (DEBUG) Sending 8=FIX.4.4|9=58|35=0|49=FIXCLIENT1|56=DMA_HUB|34=137|52=20240201-15:52:31|10=088|
2024-02-01 16:52:51.940 [34] [FixSender] (DEBUG) Receiving 8=FIX.4.4|9=62|35=0|34=140|49=DMA_HUB|56=FIXCLIENT1|52=20240201-15:52:51.940|10=026|
2024-02-01 16:53:01.213 [35] [FixSender] (DEBUG) Sending 8=FIX.4.4|9=58|35=0|49=FIXCLIENT1|56=DMA_HUB|34=138|52=20240201-15:53:01|10=087|
2024-02-01 16:53:21.892 [34] [FixSender] (DEBUG) Receiving 8=FIX.4.4|9=62|35=0|34=141|49=DMA_HUB|56=FIXCLIENT1|52=20240201-15:53:21.892|10=031|
2024-02-01 16:53:31.214 [35] [FixSender] (DEBUG) Sending 8=FIX.4.4|9=58|35=0|49=FIXCLIENT1|56=DMA_HUB|34=139|52=20240201-15:53:31|10=091|
2024-02-01 16:53:51.864 [34] [FixSender] (DEBUG) Receiving 8=FIX.4.4|9=62|35=0|34=142|49=DMA_HUB|56=FIXCLIENT1|52=20240201-15:53:51.863|10=033|
2024-02-01 16:54:01.217 [35] [FixSender] (DEBUG) Sending 8=FIX.4.4|9=58|35=0|49=FIXCLIENT1|56=DMA_HUB|34=140|52=20240201-15:54:01|10=081|
2024-02-01 16:54:21.860 [34] [FixSender] (DEBUG) Receiving 8=FIX.4.4|9=62|35=0|34=143|49=DMA_HUB|56=FIXCLIENT1|52=20240201-15:54:21.860|10=029|
2024-02-01 16:54:31.220 [35] [FixSender] (DEBUG) Sending 8=FIX.4.4|9=58|35=0|49=FIXCLIENT1|56=DMA_HUB|34=141|52=20240201-15:54:31|10=085|
2024-02-01 16:54:51.812 [34] [FixSender] (DEBUG) Receiving 8=FIX.4.4|9=62|35=0|34=144|49=DMA_HUB|56=FIXCLIENT1|52=20240201-15:54:51.812|10=030|
2024-02-01 16:55:01.221 [35] [FixSender] (DEBUG) Sending 8=FIX.4.4|9=58|35=0|49=FIXCLIENT1|56=DMA_HUB|34=142|52=20240201-15:55:01|10=084|
2024-02-01 16:55:21.763 [34] [FixSender] (DEBUG) Receiving 8=FIX.4.4|9=62|35=0|34=145|49=DMA_HUB|56=FIXCLIENT1|52=20240201-15:55:21.763|10=034|
2024-02-01 16:55:31.222 [35] [FixSender] (DEBUG) Sending 8=FIX.4.4|9=58|35=0|49=FIXCLIENT1|56=DMA_HUB|34=143|52=20240201-15:55:31|10=088|
2024-02-01 16:55:51.716 [34] [FixSender] (DEBUG) Receiving 8=FIX.4.4|9=62|35=0|34=146|49=DMA_HUB|56=FIXCLIENT1|52=20240201-15:55:51.716|10=036|
2024-02-01 16:56:01.225 [35] [FixSender] (DEBUG) Sending 8=FIX.4.4|9=58|35=0|49=FIXCLIENT1|56=DMA_HUB|34=144|52=20240201-15:56:01|10=087|
2024-02-01 16:56:21.667 [34] [FixSender] (DEBUG) Receiving 8=FIX.4.4|9=62|35=0|34=147|49=DMA_HUB|56=FIXCLIENT1|52=20240201-15:56:21.667|10=040|
2024-02-01 16:56:31.227 [35] [FixSender] (DEBUG) Sending 8=FIX.4.4|9=58|35=0|49=FIXCLIENT1|56=DMA_HUB|34=145|52=20240201-15:56:31|10=091|
2024-02-01 16:56:51.620 [34] [FixSender] (DEBUG) Receiving 8=FIX.4.4|9=62|35=0|34=148|49=DMA_HUB|56=FIXCLIENT1|52=20240201-15:56:51.620|10=033|
2024-02-01 16:57:01.228 [35] [FixSender] (DEBUG) Sending 8=FIX.4.4|9=58|35=0|49=FIXCLIENT1|56=DMA_HUB|34=146|52=20240201-15:57:01|10=090|
2024-02-01 16:57:21.573 [34] [FixSender] (DEBUG) Receiving 8=FIX.4.4|9=62|35=0|34=149|49=DMA_HUB|56=FIXCLIENT1|52=20240201-15:57:21.572|10=038|
2024-02-01 16:57:31.229 [35] [FixSender] (DEBUG) Sending 8=FIX.4.4|9=58|35=0|49=FIXCLIENT1|56=DMA_HUB|34=147|52=20240201-15:57:31|10=094|
2024-02-01 16:57:51.523 [34] [FixSender] (DEBUG) Receiving 8=FIX.4.4|9=62|35=0|34=150|49=DMA_HUB|56=FIXCLIENT1|52=20240201-15:57:51.523|10=029|
2024-02-01 16:58:01.233 [35] [FixSender] (DEBUG) Sending 8=FIX.4.4|9=58|35=0|49=FIXCLIENT1|56=DMA_HUB|34=148|52=20240201-15:58:01|10=093|
2024-02-01 16:58:21.475 [34] [FixSender] (DEBUG) Receiving 8=FIX.4.4|9=62|35=0|34=151|49=DMA_HUB|56=FIXCLIENT1|52=20240201-15:58:21.475|10=034|
2024-02-01 16:58:31.234 [35] [FixSender] (DEBUG) Sending 8=FIX.4.4|9=58|35=0|49=FIXCLIENT1|56=DMA_HUB|34=149|52=20240201-15:58:31|10=097|
2024-02-01 16:58:51.427 [34] [FixSender] (DEBUG) Receiving 8=FIX.4.4|9=62|35=0|34=152|49=DMA_HUB|56=FIXCLIENT1|52=20240201-15:58:51.427|10=035|
2024-02-01 16:59:01.234 [35] [FixSender] (DEBUG) Sending 8=FIX.4.4|9=58|35=0|49=FIXCLIENT1|56=DMA_HUB|34=150|52=20240201-15:59:01|10=087|
2024-02-01 16:59:21.380 [34] [FixSender] (DEBUG) Receiving 8=FIX.4.4|9=62|35=0|34=153|49=DMA_HUB|56=FIXCLIENT1|52=20240201-15:59:21.380|10=032|
2024-02-01 16:59:31.237 [35] [FixSender] (DEBUG) Sending 8=FIX.4.4|9=58|35=0|49=FIXCLIENT1|56=DMA_HUB|34=151|52=20240201-15:59:31|10=091|
2024-02-01 16:59:51.332 [34] [FixSender] (DEBUG) Receiving 8=FIX.4.4|9=62|35=0|34=154|49=DMA_HUB|56=FIXCLIENT1|52=20240201-15:59:51.332|10=033|
2024-02-01 17:00:01.238 [35] [FixSender] (DEBUG) Sending 8=FIX.4.4|9=58|35=0|49=FIXCLIENT1|56=DMA_HUB|34=152|52=20240201-16:00:01|10=076|
2024-02-01 17:00:21.284 [34] [FixSender] (DEBUG) Receiving 8=FIX.4.4|9=62|35=0|34=155|49=DMA_HUB|56=FIXCLIENT1|52=20240201-16:00:21.283|10=023|
2024-02-01 17:00:31.240 [35] [FixSender] (DEBUG) Sending 8=FIX.4.4|9=58|35=0|49=FIXCLIENT1|56=DMA_HUB|34=153|52=20240201-16:00:31|10=080|
2024-02-01 17:00:51.235 [34] [FixSender] (DEBUG) Receiving 8=FIX.4.4|9=62|35=0|34=156|49=DMA_HUB|56=FIXCLIENT1|52=20240201-16:00:51.235|10=024|
2024-02-01 17:01:01.241 [35] [FixSender] (DEBUG) Sending 8=FIX.4.4|9=58|35=0|49=FIXCLIENT1|56=DMA_HUB|34=154|52=20240201-16:01:01|10=079|
2024-02-01 17:01:21.188 [34] [FixSender] (DEBUG) Receiving 8=FIX.4.4|9=62|35=0|34=157|49=DMA_HUB|56=FIXCLIENT1|52=20240201-16:01:21.188|10=030|
2024-02-01 17:01:31.257 [35] [FixSender] (DEBUG) Sending 8=FIX.4.4|9=58|35=0|49=FIXCLIENT1|56=DMA_HUB|34=155|52=20240201-16:01:31|10=083|
2024-02-01 17:01:51.140 [34] [FixSender] (DEBUG) Receiving 8=FIX.4.4|9=62|35=0|34=158|49=DMA_HUB|56=FIXCLIENT1|52=20240201-16:01:51.140|10=022|
2024-02-01 17:02:01.271 [35] [FixSender] (DEBUG) Sending 8=FIX.4.4|9=58|35=0|49=FIXCLIENT1|56=DMA_HUB|34=156|52=20240201-16:02:01|10=082|
2024-02-01 17:02:21.092 [34] [FixSender] (DEBUG) Receiving 8=FIX.4.4|9=62|35=0|34=159|49=DMA_HUB|56=FIXCLIENT1|52=20240201-16:02:21.091|10=026|
2024-02-01 17:02:31.282 [35] [FixSender] (DEBUG) Sending 8=FIX.4.4|9=58|35=0|49=FIXCLIENT1|56=DMA_HUB|34=157|52=20240201-16:02:31|10=086|
2024-02-01 17:02:51.045 [34] [FixSender] (DEBUG) Receiving 8=FIX.4.4|9=62|35=0|34=160|49=DMA_HUB|56=FIXCLIENT1|52=20240201-16:02:51.044|10=019|
2024-02-01 17:03:01.291 [35] [FixSender] (DEBUG) Sending 8=FIX.4.4|9=58|35=0|49=FIXCLIENT1|56=DMA_HUB|34=158|52=20240201-16:03:01|10=085|
2024-02-01 17:03:20.996 [34] [FixSender] (DEBUG) Receiving 8=FIX.4.4|9=62|35=0|34=161|49=DMA_HUB|56=FIXCLIENT1|52=20240201-16:03:20.996|10=033|
2024-02-01 17:03:31.297 [35] [FixSender] (DEBUG) Sending 8=FIX.4.4|9=58|35=0|49=FIXCLIENT1|56=DMA_HUB|34=159|52=20240201-16:03:31|10=089|
2024-02-01 17:03:50.948 [34] [FixSender] (DEBUG) Receiving 8=FIX.4.4|9=62|35=0|34=162|49=DMA_HUB|56=FIXCLIENT1|52=20240201-16:03:50.948|10=034|
2024-02-01 17:04:01.308 [35] [FixSender] (DEBUG) Sending 8=FIX.4.4|9=58|35=0|49=FIXCLIENT1|56=DMA_HUB|34=160|52=20240201-16:04:01|10=079|
2024-02-01 17:04:20.900 [34] [FixSender] (DEBUG) Receiving 8=FIX.4.4|9=62|35=0|34=163|49=DMA_HUB|56=FIXCLIENT1|52=20240201-16:04:20.900|10=021|
2024-02-01 17:04:31.312 [35] [FixSender] (DEBUG) Sending 8=FIX.4.4|9=58|35=0|49=FIXCLIENT1|56=DMA_HUB|34=161|52=20240201-16:04:31|10=083|
2024-02-01 17:04:50.851 [34] [FixSender] (DEBUG) Receiving 8=FIX.4.4|9=62|35=0|34=164|49=DMA_HUB|56=FIXCLIENT1|52=20240201-16:04:50.851|10=030|
2024-02-01 17:05:01.320 [35] [FixSender] (DEBUG) Sending 8=FIX.4.4|9=58|35=0|49=FIXCLIENT1|56=DMA_HUB|34=162|52=20240201-16:05:01|10=082|
2024-02-01 17:05:20.804 [34] [FixSender] (DEBUG) Receiving 8=FIX.4.4|9=62|35=0|34=165|49=DMA_HUB|56=FIXCLIENT1|52=20240201-16:05:20.804|10=027|
2024-02-01 17:05:31.328 [35] [FixSender] (DEBUG) Sending 8=FIX.4.4|9=58|35=0|49=FIXCLIENT1|56=DMA_HUB|34=163|52=20240201-16:05:31|10=086|
2024-02-01 17:05:50.755 [34] [FixSender] (DEBUG) Receiving 8=FIX.4.4|9=62|35=0|34=166|49=DMA_HUB|56=FIXCLIENT1|52=20240201-16:05:50.755|10=036|
2024-02-01 17:06:01.333 [35] [FixSender] (DEBUG) Sending 8=FIX.4.4|9=58|35=0|49=FIXCLIENT1|56=DMA_HUB|34=164|52=20240201-16:06:01|10=085|
2024-02-01 17:06:20.708 [34] [FixSender] (DEBUG) Receiving 8=FIX.4.4|9=62|35=0|34=167|49=DMA_HUB|56=FIXCLIENT1|52=20240201-16:06:20.708|10=033|
2024-02-01 17:06:31.338 [35] [FixSender] (DEBUG) Sending 8=FIX.4.4|9=58|35=0|49=FIXCLIENT1|56=DMA_HUB|34=165|52=20240201-16:06:31|10=089|
2024-02-01 17:06:50.660 [34] [FixSender] (DEBUG) Receiving 8=FIX.4.4|9=62|35=0|34=168|49=DMA_HUB|56=FIXCLIENT1|52=20240201-16:06:50.660|10=034|
2024-02-01 17:07:01.348 [35] [FixSender] (DEBUG) Sending 8=FIX.4.4|9=58|35=0|49=FIXCLIENT1|56=DMA_HUB|34=166|52=20240201-16:07:01|10=088|
2024-02-01 17:07:20.611 [34] [FixSender] (DEBUG) Receiving 8=FIX.4.4|9=62|35=0|34=169|49=DMA_HUB|56=FIXCLIENT1|52=20240201-16:07:20.611|10=029|
2024-02-01 17:07:31.359 [35] [FixSender] (DEBUG) Sending 8=FIX.4.4|9=58|35=0|49=FIXCLIENT1|56=DMA_HUB|34=167|52=20240201-16:07:31|10=092|
2024-02-01 17:07:50.563 [34] [FixSender] (DEBUG) Receiving 8=FIX.4.4|9=62|35=0|34=170|49=DMA_HUB|56=FIXCLIENT1|52=20240201-16:07:50.563|10=030|
2024-02-01 17:08:01.369 [35] [FixSender] (DEBUG) Sending 8=FIX.4.4|9=58|35=0|49=FIXCLIENT1|56=DMA_HUB|34=168|52=20240201-16:08:01|10=091|
2024-02-01 17:08:20.516 [34] [FixSender] (DEBUG) Receiving 8=FIX.4.4|9=62|35=0|34=171|49=DMA_HUB|56=FIXCLIENT1|52=20240201-16:08:20.515|10=026|
2024-02-01 17:08:31.380 [35] [FixSender] (DEBUG) Sending 8=FIX.4.4|9=58|35=0|49=FIXCLIENT1|56=DMA_HUB|34=169|52=20240201-16:08:31|10=095|
2024-02-01 17:08:50.467 [34] [FixSender] (DEBUG) Receiving 8=FIX.4.4|9=62|35=0|34=172|49=DMA_HUB|56=FIXCLIENT1|52=20240201-16:08:50.467|10=036|
2024-02-01 17:09:01.385 [35] [FixSender] (DEBUG) Sending 8=FIX.4.4|9=58|35=0|49=FIXCLIENT1|56=DMA_HUB|34=170|52=20240201-16:09:01|10=085|
2024-02-01 17:09:20.419 [34] [FixSender] (DEBUG) Receiving 8=FIX.4.4|9=62|35=0|34=173|49=DMA_HUB|56=FIXCLIENT1|52=20240201-16:09:20.419|10=032|
2024-02-01 17:09:31.392 [35] [FixSender] (DEBUG) Sending 8=FIX.4.4|9=58|35=0|49=FIXCLIENT1|56=DMA_HUB|34=171|52=20240201-16:09:31|10=089|
2024-02-01 17:09:50.373 [34] [FixSender] (DEBUG) Receiving 8=FIX.4.4|9=62|35=0|34=174|49=DMA_HUB|56=FIXCLIENT1|52=20240201-16:09:50.372|10=034|
2024-02-01 17:10:01.397 [35] [FixSender] (DEBUG) Sending 8=FIX.4.4|9=58|35=0|49=FIXCLIENT1|56=DMA_HUB|34=172|52=20240201-16:10:01|10=079|
2024-02-01 17:10:20.335 [34] [FixSender] (DEBUG) Receiving 8=FIX.4.4|9=62|35=0|34=175|49=DMA_HUB|56=FIXCLIENT1|52=20240201-16:10:20.327|10=024|
2024-02-01 17:10:31.403 [35] [FixSender] (DEBUG) Sending 8=FIX.4.4|9=58|35=0|49=FIXCLIENT1|56=DMA_HUB|34=173|52=20240201-16:10:31|10=083|
2024-02-01 17:10:50.277 [34] [FixSender] (DEBUG) Receiving 8=FIX.4.4|9=62|35=0|34=176|49=DMA_HUB|56=FIXCLIENT1|52=20240201-16:10:50.276|10=031|
2024-02-01 17:11:01.407 [35] [FixSender] (DEBUG) Sending 8=FIX.4.4|9=58|35=0|49=FIXCLIENT1|56=DMA_HUB|34=174|52=20240201-16:11:01|10=082|
2024-02-01 17:11:20.235 [34] [FixSender] (DEBUG) Receiving 8=FIX.4.4|9=62|35=0|34=177|49=DMA_HUB|56=FIXCLIENT1|52=20240201-16:11:20.235|10=025|
2024-02-01 17:11:31.408 [35] [FixSender] (DEBUG) Sending 8=FIX.4.4|9=58|35=0|49=FIXCLIENT1|56=DMA_HUB|34=175|52=20240201-16:11:31|10=086|
2024-02-01 17:11:50.180 [34] [FixSender] (DEBUG) Receiving 8=FIX.4.4|9=62|35=0|34=178|49=DMA_HUB|56=FIXCLIENT1|52=20240201-16:11:50.180|10=028|
2024-02-01 17:12:01.409 [35] [FixSender] (DEBUG) Sending 8=FIX.4.4|9=58|35=0|49=FIXCLIENT1|56=DMA_HUB|34=176|52=20240201-16:12:01|10=085|
2024-02-01 17:12:20.133 [34] [FixSender] (DEBUG) Receiving 8=FIX.4.4|9=62|35=0|34=179|49=DMA_HUB|56=FIXCLIENT1|52=20240201-16:12:20.132|10=024|
2024-02-01 17:12:31.424 [35] [FixSender] (DEBUG) Sending 8=FIX.4.4|9=58|35=0|49=FIXCLIENT1|56=DMA_HUB|34=177|52=20240201-16:12:31|10=089|
2024-02-01 17:12:50.086 [34] [FixSender] (DEBUG) Receiving 8=FIX.4.4|9=62|35=0|34=180|49=DMA_HUB|56=FIXCLIENT1|52=20240201-16:12:50.084|10=025|
2024-02-01 17:13:01.428 [35] [FixSender] (DEBUG) Sending 8=FIX.4.4|9=58|35=0|49=FIXCLIENT1|56=DMA_HUB|34=178|52=20240201-16:13:01|10=088|
2024-02-01 17:13:20.036 [34] [FixSender] (DEBUG) Receiving 8=FIX.4.4|9=62|35=0|34=181|49=DMA_HUB|56=FIXCLIENT1|52=20240201-16:13:20.036|10=021|
2024-02-01 17:13:31.437 [35] [FixSender] (DEBUG) Sending 8=FIX.4.4|9=58|35=0|49=FIXCLIENT1|56=DMA_HUB|34=179|52=20240201-16:13:31|10=092|
2024-02-01 17:13:49.987 [34] [FixSender] (DEBUG) Receiving 8=FIX.4.4|9=62|35=0|34=182|49=DMA_HUB|56=FIXCLIENT1|52=20240201-16:13:49.987|10=048|
2024-02-01 17:14:01.448 [35] [FixSender] (DEBUG) Sending 8=FIX.4.4|9=58|35=0|49=FIXCLIENT1|56=DMA_HUB|34=180|52=20240201-16:14:01|10=082|
2024-02-01 17:14:19.941 [34] [FixSender] (DEBUG) Receiving 8=FIX.4.4|9=62|35=0|34=183|49=DMA_HUB|56=FIXCLIENT1|52=20240201-16:14:19.940|10=036|
2024-02-01 17:14:31.456 [35] [FixSender] (DEBUG) Sending 8=FIX.4.4|9=58|35=0|49=FIXCLIENT1|56=DMA_HUB|34=181|52=20240201-16:14:31|10=086|
2024-02-01 17:14:49.892 [34] [FixSender] (DEBUG) Receiving 8=FIX.4.4|9=62|35=0|34=184|49=DMA_HUB|56=FIXCLIENT1|52=20240201-16:14:49.892|10=046|
2024-02-01 17:15:01.465 [35] [FixSender] (DEBUG) Sending 8=FIX.4.4|9=58|35=0|49=FIXCLIENT1|56=DMA_HUB|34=182|52=20240201-16:15:01|10=085|
2024-02-01 17:15:19.843 [34] [FixSender] (DEBUG) Receiving 8=FIX.4.4|9=62|35=0|34=185|49=DMA_HUB|56=FIXCLIENT1|52=20240201-16:15:19.843|10=041|
2024-02-01 17:15:31.479 [35] [FixSender] (DEBUG) Sending 8=FIX.4.4|9=58|35=0|49=FIXCLIENT1|56=DMA_HUB|34=183|52=20240201-16:15:31|10=089|
2024-02-01 17:15:49.796 [34] [FixSender] (DEBUG) Receiving 8=FIX.4.4|9=62|35=0|34=186|49=DMA_HUB|56=FIXCLIENT1|52=20240201-16:15:49.796|10=052|
2024-02-01 17:16:01.486 [35] [FixSender] (DEBUG) Sending 8=FIX.4.4|9=58|35=0|49=FIXCLIENT1|56=DMA_HUB|34=184|52=20240201-16:16:01|10=088|
2024-02-01 17:16:19.748 [34] [FixSender] (DEBUG) Receiving 8=FIX.4.4|9=62|35=0|34=187|49=DMA_HUB|56=FIXCLIENT1|52=20240201-16:16:19.748|10=048|
2024-02-01 17:16:31.503 [35] [FixSender] (DEBUG) Sending 8=FIX.4.4|9=58|35=0|49=FIXCLIENT1|56=DMA_HUB|34=185|52=20240201-16:16:31|10=092|
2024-02-01 17:16:49.701 [34] [FixSender] (DEBUG) Receiving 8=FIX.4.4|9=62|35=0|34=188|49=DMA_HUB|56=FIXCLIENT1|52=20240201-16:16:49.700|10=040|
2024-02-01 17:17:01.511 [35] [FixSender] (DEBUG) Sending 8=FIX.4.4|9=58|35=0|49=FIXCLIENT1|56=DMA_HUB|34=186|52=20240201-16:17:01|10=091|
2024-02-01 17:17:19.651 [34] [FixSender] (DEBUG) Receiving 8=FIX.4.4|9=62|35=0|34=189|49=DMA_HUB|56=FIXCLIENT1|52=20240201-16:17:19.651|10=044|
2024-02-01 17:17:31.537 [35] [FixSender] (DEBUG) Sending 8=FIX.4.4|9=58|35=0|49=FIXCLIENT1|56=DMA_HUB|34=187|52=20240201-16:17:31|10=095|
2024-02-01 17:17:49.604 [34] [FixSender] (DEBUG) Receiving 8=FIX.4.4|9=62|35=0|34=190|49=DMA_HUB|56=FIXCLIENT1|52=20240201-16:17:49.604|10=037|
2024-02-01 17:18:01.554 [35] [FixSender] (DEBUG) Sending 8=FIX.4.4|9=58|35=0|49=FIXCLIENT1|56=DMA_HUB|34=188|52=20240201-16:18:01|10=094|
2024-02-01 17:18:19.555 [34] [FixSender] (DEBUG) Receiving 8=FIX.4.4|9=62|35=0|34=191|49=DMA_HUB|56=FIXCLIENT1|52=20240201-16:18:19.555|10=041|
2024-02-01 17:18:31.563 [35] [FixSender] (DEBUG) Sending 8=FIX.4.4|9=58|35=0|49=FIXCLIENT1|56=DMA_HUB|34=189|52=20240201-16:18:31|10=098|
2024-02-01 17:18:49.517 [34] [FixSender] (DEBUG) Receiving 8=FIX.4.4|9=62|35=0|34=192|49=DMA_HUB|56=FIXCLIENT1|52=20240201-16:18:49.516|10=042|
2024-02-01 17:19:01.577 [35] [FixSender] (DEBUG) Sending 8=FIX.4.4|9=58|35=0|49=FIXCLIENT1|56=DMA_HUB|34=190|52=20240201-16:19:01|10=088|
2024-02-01 17:19:19.460 [34] [FixSender] (DEBUG) Receiving 8=FIX.4.4|9=62|35=0|34=193|49=DMA_HUB|56=FIXCLIENT1|52=20240201-16:19:19.460|10=039|
2024-02-01 17:19:31.589 [35] [FixSender] (DEBUG) Sending 8=FIX.4.4|9=58|35=0|49=FIXCLIENT1|56=DMA_HUB|34=191|52=20240201-16:19:31|10=092|
2024-02-01 17:19:49.411 [34] [FixSender] (DEBUG) Receiving 8=FIX.4.4|9=62|35=0|34=194|49=DMA_HUB|56=FIXCLIENT1|52=20240201-16:19:49.411|10=039|
2024-02-01 17:20:01.599 [35] [FixSender] (DEBUG) Sending 8=FIX.4.4|9=58|35=0|49=FIXCLIENT1|56=DMA_HUB|34=192|52=20240201-16:20:01|10=082|
2024-02-01 17:20:19.363 [34] [FixSender] (DEBUG) Receiving 8=FIX.4.4|9=62|35=0|34=195|49=DMA_HUB|56=FIXCLIENT1|52=20240201-16:20:19.363|10=035|
2024-02-01 17:20:31.608 [35] [FixSender] (DEBUG) Sending 8=FIX.4.4|9=58|35=0|49=FIXCLIENT1|56=DMA_HUB|34=193|52=20240201-16:20:31|10=086|
2024-02-01 17:20:49.316 [34] [FixSender] (DEBUG) Receiving 8=FIX.4.4|9=62|35=0|34=196|49=DMA_HUB|56=FIXCLIENT1|52=20240201-16:20:49.316|10=037|
2024-02-01 17:21:01.618 [35] [FixSender] (DEBUG) Sending 8=FIX.4.4|9=58|35=0|49=FIXCLIENT1|56=DMA_HUB|34=194|52=20240201-16:21:01|10=085|
2024-02-01 17:21:19.267 [34] [FixSender] (DEBUG) Receiving 8=FIX.4.4|9=62|35=0|34=197|49=DMA_HUB|56=FIXCLIENT1|52=20240201-16:21:19.267|10=041|
2024-02-01 17:21:31.622 [35] [FixSender] (DEBUG) Sending 8=FIX.4.4|9=58|35=0|49=FIXCLIENT1|56=DMA_HUB|34=195|52=20240201-16:21:31|10=089|
2024-02-01 17:21:49.219 [34] [FixSender] (DEBUG) Receiving 8=FIX.4.4|9=62|35=0|34=198|49=DMA_HUB|56=FIXCLIENT1|52=20240201-16:21:49.219|10=042|
2024-02-01 17:22:01.633 [35] [FixSender] (DEBUG) Sending 8=FIX.4.4|9=58|35=0|49=FIXCLIENT1|56=DMA_HUB|34=196|52=20240201-16:22:01|10=088|
2024-02-01 17:22:19.171 [34] [FixSender] (DEBUG) Receiving 8=FIX.4.4|9=62|35=0|34=199|49=DMA_HUB|56=FIXCLIENT1|52=20240201-16:22:19.171|10=038|
2024-02-01 17:22:31.645 [35] [FixSender] (DEBUG) Sending 8=FIX.4.4|9=58|35=0|49=FIXCLIENT1|56=DMA_HUB|34=197|52=20240201-16:22:31|10=092|
2024-02-01 17:22:49.124 [34] [FixSender] (DEBUG) Receiving 8=FIX.4.4|9=62|35=0|34=200|49=DMA_HUB|56=FIXCLIENT1|52=20240201-16:22:49.124|10=022|
2024-02-01 17:23:01.658 [35] [FixSender] (DEBUG) Sending 8=FIX.4.4|9=58|35=0|49=FIXCLIENT1|56=DMA_HUB|34=198|52=20240201-16:23:01|10=091|
2024-02-01 17:23:19.077 [34] [FixSender] (DEBUG) Receiving 8=FIX.4.4|9=62|35=0|34=201|49=DMA_HUB|56=FIXCLIENT1|52=20240201-16:23:19.076|10=027|
2024-02-01 17:23:31.672 [35] [FixSender] (DEBUG) Sending 8=FIX.4.4|9=58|35=0|49=FIXCLIENT1|56=DMA_HUB|34=199|52=20240201-16:23:31|10=095|
2024-02-01 17:23:49.028 [34] [FixSender] (DEBUG) Receiving 8=FIX.4.4|9=62|35=0|34=202|49=DMA_HUB|56=FIXCLIENT1|52=20240201-16:23:49.028|10=028|
2024-02-01 17:24:01.676 [35] [FixSender] (DEBUG) Sending 8=FIX.4.4|9=58|35=0|49=FIXCLIENT1|56=DMA_HUB|34=200|52=20240201-16:24:01|10=076|
2024-02-01 17:24:18.979 [34] [FixSender] (DEBUG) Receiving 8=FIX.4.4|9=62|35=0|34=203|49=DMA_HUB|56=FIXCLIENT1|52=20240201-16:24:18.979|10=041|
2024-02-01 17:24:31.682 [35] [FixSender] (DEBUG) Sending 8=FIX.4.4|9=58|35=0|49=FIXCLIENT1|56=DMA_HUB|34=201|52=20240201-16:24:31|10=080|
2024-02-01 17:24:48.932 [34] [FixSender] (DEBUG) Receiving 8=FIX.4.4|9=62|35=0|34=204|49=DMA_HUB|56=FIXCLIENT1|52=20240201-16:24:48.932|10=034|
2024-02-01 17:25:01.689 [35] [FixSender] (DEBUG) Sending 8=FIX.4.4|9=58|35=0|49=FIXCLIENT1|56=DMA_HUB|34=202|52=20240201-16:25:01|10=079|
2024-02-01 17:25:18.883 [34] [FixSender] (DEBUG) Receiving 8=FIX.4.4|9=62|35=0|34=205|49=DMA_HUB|56=FIXCLIENT1|52=20240201-16:25:18.883|10=038|
2024-02-01 17:25:31.695 [35] [FixSender] (DEBUG) Sending 8=FIX.4.4|9=58|35=0|49=FIXCLIENT1|56=DMA_HUB|34=203|52=20240201-16:25:31|10=083|
2024-02-01 17:25:48.836 [34] [FixSender] (DEBUG) Receiving 8=FIX.4.4|9=62|35=0|34=206|49=DMA_HUB|56=FIXCLIENT1|52=20240201-16:25:48.836|10=040|
2024-02-01 17:26:01.710 [35] [FixSender] (DEBUG) Sending 8=FIX.4.4|9=58|35=0|49=FIXCLIENT1|56=DMA_HUB|34=204|52=20240201-16:26:01|10=082|
2024-02-01 17:26:18.787 [34] [FixSender] (DEBUG) Receiving 8=FIX.4.4|9=62|35=0|34=207|49=DMA_HUB|56=FIXCLIENT1|52=20240201-16:26:18.787|10=044|
2024-02-01 17:26:31.711 [35] [FixSender] (DEBUG) Sending 8=FIX.4.4|9=58|35=0|49=FIXCLIENT1|56=DMA_HUB|34=205|52=20240201-16:26:31|10=086|
2024-02-01 17:26:48.740 [34] [FixSender] (DEBUG) Receiving 8=FIX.4.4|9=62|35=0|34=208|49=DMA_HUB|56=FIXCLIENT1|52=20240201-16:26:48.739|10=045|
2024-02-01 17:27:01.720 [35] [FixSender] (DEBUG) Sending 8=FIX.4.4|9=58|35=0|49=FIXCLIENT1|56=DMA_HUB|34=206|52=20240201-16:27:01|10=085|
2024-02-01 17:27:18.692 [34] [FixSender] (DEBUG) Receiving 8=FIX.4.4|9=62|35=0|34=209|49=DMA_HUB|56=FIXCLIENT1|52=20240201-16:27:18.692|10=042|
2024-02-01 17:27:31.731 [35] [FixSender] (DEBUG) Sending 8=FIX.4.4|9=58|35=0|49=FIXCLIENT1|56=DMA_HUB|34=207|52=20240201-16:27:31|10=089|
2024-02-01 17:27:48.643 [34] [FixSender] (DEBUG) Receiving 8=FIX.4.4|9=62|35=0|34=210|49=DMA_HUB|56=FIXCLIENT1|52=20240201-16:27:48.643|10=033|
2024-02-01 17:28:01.742 [35] [FixSender] (DEBUG) Sending 8=FIX.4.4|9=58|35=0|49=FIXCLIENT1|56=DMA_HUB|34=208|52=20240201-16:28:01|10=088|
2024-02-01 17:28:18.596 [34] [FixSender] (DEBUG) Receiving 8=FIX.4.4|9=62|35=0|34=211|49=DMA_HUB|56=FIXCLIENT1|52=20240201-16:28:18.596|10=039|
2024-02-01 17:28:31.753 [35] [FixSender] (DEBUG) Sending 8=FIX.4.4|9=58|35=0|49=FIXCLIENT1|56=DMA_HUB|34=209|52=20240201-16:28:31|10=092|
2024-02-01 17:28:48.548 [34] [FixSender] (DEBUG) Receiving 8=FIX.4.4|9=62|35=0|34=212|49=DMA_HUB|56=FIXCLIENT1|52=20240201-16:28:48.548|10=040|
2024-02-01 17:29:01.756 [35] [FixSender] (DEBUG) Sending 8=FIX.4.4|9=58|35=0|49=FIXCLIENT1|56=DMA_HUB|34=210|52=20240201-16:29:01|10=082|
2024-02-01 17:29:18.499 [34] [FixSender] (DEBUG) Receiving 8=FIX.4.4|9=62|35=0|34=213|49=DMA_HUB|56=FIXCLIENT1|52=20240201-16:29:18.499|10=044|
2024-02-01 17:29:31.764 [35] [FixSender] (DEBUG) Sending 8=FIX.4.4|9=58|35=0|49=FIXCLIENT1|56=DMA_HUB|34=211|52=20240201-16:29:31|10=086|
2024-02-01 17:29:48.452 [34] [FixSender] (DEBUG) Receiving 8=FIX.4.4|9=62|35=0|34=214|49=DMA_HUB|56=FIXCLIENT1|52=20240201-16:29:48.452|10=037|
2024-02-01 17:30:01.772 [35] [FixSender] (DEBUG) Sending 8=FIX.4.4|9=58|35=0|49=FIXCLIENT1|56=DMA_HUB|34=212|52=20240201-16:30:01|10=076|
2024-02-01 17:30:18.404 [34] [FixSender] (DEBUG) Receiving 8=FIX.4.4|9=62|35=0|34=215|49=DMA_HUB|56=FIXCLIENT1|52=20240201-16:30:18.404|10=024|
2024-02-01 17:30:31.777 [35] [FixSender] (DEBUG) Sending 8=FIX.4.4|9=58|35=0|49=FIXCLIENT1|56=DMA_HUB|34=213|52=20240201-16:30:31|10=080|
2024-02-01 17:30:48.356 [34] [FixSender] (DEBUG) Receiving 8=FIX.4.4|9=62|35=0|34=216|49=DMA_HUB|56=FIXCLIENT1|52=20240201-16:30:48.356|10=034|
2024-02-01 17:31:01.793 [35] [FixSender] (DEBUG) Sending 8=FIX.4.4|9=58|35=0|49=FIXCLIENT1|56=DMA_HUB|34=214|52=20240201-16:31:01|10=079|
2024-02-01 17:31:18.308 [34] [FixSender] (DEBUG) Receiving 8=FIX.4.4|9=62|35=0|34=217|49=DMA_HUB|56=FIXCLIENT1|52=20240201-16:31:18.308|10=030|
2024-02-01 17:31:31.797 [35] [FixSender] (DEBUG) Sending 8=FIX.4.4|9=58|35=0|49=FIXCLIENT1|56=DMA_HUB|34=215|52=20240201-16:31:31|10=083|
2024-02-01 17:31:48.261 [34] [FixSender] (DEBUG) Receiving 8=FIX.4.4|9=62|35=0|34=218|49=DMA_HUB|56=FIXCLIENT1|52=20240201-16:31:48.260|10=031|
2024-02-01 17:32:01.804 [35] [FixSender] (DEBUG) Sending 8=FIX.4.4|9=58|35=0|49=FIXCLIENT1|56=DMA_HUB|34=216|52=20240201-16:32:01|10=082|
2024-02-01 17:32:18.211 [34] [FixSender] (DEBUG) Receiving 8=FIX.4.4|9=62|35=0|34=219|49=DMA_HUB|56=FIXCLIENT1|52=20240201-16:32:18.211|10=026|
2024-02-01 17:32:31.810 [35] [FixSender] (DEBUG) Sending 8=FIX.4.4|9=58|35=0|49=FIXCLIENT1|56=DMA_HUB|34=217|52=20240201-16:32:31|10=086|
2024-02-01 17:32:48.163 [34] [FixSender] (DEBUG) Receiving 8=FIX.4.4|9=62|35=0|34=220|49=DMA_HUB|56=FIXCLIENT1|52=20240201-16:32:48.163|10=027|
2024-02-01 17:33:01.813 [35] [FixSender] (DEBUG) Sending 8=FIX.4.4|9=58|35=0|49=FIXCLIENT1|56=DMA_HUB|34=218|52=20240201-16:33:01|10=085|
2024-02-01 17:33:18.116 [34] [FixSender] (DEBUG) Receiving 8=FIX.4.4|9=62|35=0|34=221|49=DMA_HUB|56=FIXCLIENT1|52=20240201-16:33:18.116|10=024|
2024-02-01 17:33:31.827 [35] [FixSender] (DEBUG) Sending 8=FIX.4.4|9=58|35=0|49=FIXCLIENT1|56=DMA_HUB|34=219|52=20240201-16:33:31|10=089|
2024-02-01 17:33:48.068 [34] [FixSender] (DEBUG) Receiving 8=FIX.4.4|9=62|35=0|34=222|49=DMA_HUB|56=FIXCLIENT1|52=20240201-16:33:48.068|10=034|
2024-02-01 17:34:01.833 [35] [FixSender] (DEBUG) Sending 8=FIX.4.4|9=58|35=0|49=FIXCLIENT1|56=DMA_HUB|34=220|52=20240201-16:34:01|10=079|
2024-02-01 17:34:18.020 [34] [FixSender] (DEBUG) Receiving 8=FIX.4.4|9=62|35=0|34=223|49=DMA_HUB|56=FIXCLIENT1|52=20240201-16:34:18.020|10=021|
2024-02-01 17:34:31.852 [35] [FixSender] (DEBUG) Sending 8=FIX.4.4|9=58|35=0|49=FIXCLIENT1|56=DMA_HUB|34=221|52=20240201-16:34:31|10=083|
2024-02-01 17:34:47.973 [34] [FixSender] (DEBUG) Receiving 8=FIX.4.4|9=62|35=0|34=224|49=DMA_HUB|56=FIXCLIENT1|52=20240201-16:34:47.973|10=041|
2024-02-01 17:35:01.863 [35] [FixSender] (DEBUG) Sending 8=FIX.4.4|9=58|35=0|49=FIXCLIENT1|56=DMA_HUB|34=222|52=20240201-16:35:01|10=082|
2024-02-01 17:35:17.923 [34] [FixSender] (DEBUG) Receiving 8=FIX.4.4|9=62|35=0|34=225|49=DMA_HUB|56=FIXCLIENT1|52=20240201-16:35:17.923|10=035|
2024-02-01 17:35:31.871 [35] [FixSender] (DEBUG) Sending 8=FIX.4.4|9=58|35=0|49=FIXCLIENT1|56=DMA_HUB|34=223|52=20240201-16:35:31|10=086|
2024-02-01 17:35:47.875 [34] [FixSender] (DEBUG) Receiving 8=FIX.4.4|9=62|35=0|34=226|49=DMA_HUB|56=FIXCLIENT1|52=20240201-16:35:47.875|10=045|
2024-02-01 17:36:01.884 [35] [FixSender] (DEBUG) Sending 8=FIX.4.4|9=58|35=0|49=FIXCLIENT1|56=DMA_HUB|34=224|52=20240201-16:36:01|10=085|
2024-02-01 17:36:17.829 [34] [FixSender] (DEBUG) Receiving 8=FIX.4.4|9=62|35=0|34=227|49=DMA_HUB|56=FIXCLIENT1|52=20240201-16:36:17.829|10=043|
2024-02-01 17:36:31.900 [35] [FixSender] (DEBUG) Sending 8=FIX.4.4|9=58|35=0|49=FIXCLIENT1|56=DMA_HUB|34=225|52=20240201-16:36:31|10=089|
2024-02-01 17:36:47.781 [34] [FixSender] (DEBUG) Receiving 8=FIX.4.4|9=62|35=0|34=228|49=DMA_HUB|56=FIXCLIENT1|52=20240201-16:36:47.781|10=044|
2024-02-01 17:37:01.913 [35] [FixSender] (DEBUG) Sending 8=FIX.4.4|9=58|35=0|49=FIXCLIENT1|56=DMA_HUB|34=226|52=20240201-16:37:01|10=088|
2024-02-01 17:37:17.734 [34] [FixSender] (DEBUG) Receiving 8=FIX.4.4|9=62|35=0|34=229|49=DMA_HUB|56=FIXCLIENT1|52=20240201-16:37:17.733|10=040|
2024-02-01 17:37:31.921 [35] [FixSender] (DEBUG) Sending 8=FIX.4.4|9=58|35=0|49=FIXCLIENT1|56=DMA_HUB|34=227|52=20240201-16:37:31|10=092|
2024-02-01 17:37:47.684 [34] [FixSender] (DEBUG) Receiving 8=FIX.4.4|9=62|35=0|34=230|49=DMA_HUB|56=FIXCLIENT1|52=20240201-16:37:47.683|10=039|
2024-02-01 17:38:01.932 [35] [FixSender] (DEBUG) Sending 8=FIX.4.4|9=58|35=0|49=FIXCLIENT1|56=DMA_HUB|34=228|52=20240201-16:38:01|10=091|
2024-02-01 17:38:17.770 [34] [FixSender] (DEBUG) Receiving 8=FIX.4.4|9=62|35=0|34=231|49=DMA_HUB|56=FIXCLIENT1|52=20240201-16:38:17.748|10=040|
2024-02-01 17:38:31.939 [35] [FixSender] (DEBUG) Sending 8=FIX.4.4|9=58|35=0|49=FIXCLIENT1|56=DMA_HUB|34=229|52=20240201-16:38:31|10=095|
2024-02-01 17:38:47.715 [34] [FixSender] (DEBUG) Receiving 8=FIX.4.4|9=62|35=0|34=232|49=DMA_HUB|56=FIXCLIENT1|52=20240201-16:38:47.715|10=038|
2024-02-01 17:39:01.947 [35] [FixSender] (DEBUG) Sending 8=FIX.4.4|9=58|35=0|49=FIXCLIENT1|56=DMA_HUB|34=230|52=20240201-16:39:01|10=085|
2024-02-01 17:39:17.668 [34] [FixSender] (DEBUG) Receiving 8=FIX.4.4|9=62|35=0|34=233|49=DMA_HUB|56=FIXCLIENT1|52=20240201-16:39:17.668|10=044|
2024-02-01 17:39:31.952 [35] [FixSender] (DEBUG) Sending 8=FIX.4.4|9=58|35=0|49=FIXCLIENT1|56=DMA_HUB|34=231|52=20240201-16:39:31|10=089|
2024-02-01 17:39:47.621 [34] [FixSender] (DEBUG) Receiving 8=FIX.4.4|9=62|35=0|34=234|49=DMA_HUB|56=FIXCLIENT1|52=20240201-16:39:47.620|10=036|
2024-02-01 17:40:01.955 [35] [FixSender] (DEBUG) Sending 8=FIX.4.4|9=58|35=0|49=FIXCLIENT1|56=DMA_HUB|34=232|52=20240201-16:40:01|10=079|
2024-02-01 17:40:17.572 [34] [FixSender] (DEBUG) Receiving 8=FIX.4.4|9=62|35=0|34=235|49=DMA_HUB|56=FIXCLIENT1|52=20240201-16:40:17.572|10=032|
2024-02-01 17:40:31.973 [35] [FixSender] (DEBUG) Sending 8=FIX.4.4|9=58|35=0|49=FIXCLIENT1|56=DMA_HUB|34=233|52=20240201-16:40:31|10=083|
2024-02-01 17:40:47.524 [34] [FixSender] (DEBUG) Receiving 8=FIX.4.4|9=62|35=0|34=236|49=DMA_HUB|56=FIXCLIENT1|52=20240201-16:40:47.524|10=033|
2024-02-01 17:41:01.982 [35] [FixSender] (DEBUG) Sending 8=FIX.4.4|9=58|35=0|49=FIXCLIENT1|56=DMA_HUB|34=234|52=20240201-16:41:01|10=082|
2024-02-01 17:41:17.476 [34] [FixSender] (DEBUG) Receiving 8=FIX.4.4|9=62|35=0|34=237|49=DMA_HUB|56=FIXCLIENT1|52=20240201-16:41:17.476|10=038|
2024-02-01 17:41:31.993 [35] [FixSender] (DEBUG) Sending 8=FIX.4.4|9=58|35=0|49=FIXCLIENT1|56=DMA_HUB|34=235|52=20240201-16:41:31|10=086|
2024-02-01 17:41:47.427 [34] [FixSender] (DEBUG) Receiving 8=FIX.4.4|9=62|35=0|34=238|49=DMA_HUB|56=FIXCLIENT1|52=20240201-16:41:47.427|10=038|
2024-02-01 17:42:02.007 [35] [FixSender] (DEBUG) Sending 8=FIX.4.4|9=58|35=0|49=FIXCLIENT1|56=DMA_HUB|34=236|52=20240201-16:42:02|10=086|
2024-02-01 17:42:17.380 [34] [FixSender] (DEBUG) Receiving 8=FIX.4.4|9=62|35=0|34=239|49=DMA_HUB|56=FIXCLIENT1|52=20240201-16:42:17.380|10=035|
2024-02-01 17:42:32.012 [35] [FixSender] (DEBUG) Sending 8=FIX.4.4|9=58|35=0|49=FIXCLIENT1|56=DMA_HUB|34=237|52=20240201-16:42:32|10=090|
2024-02-01 17:42:47.333 [34] [FixSender] (DEBUG) Receiving 8=FIX.4.4|9=62|35=0|34=240|49=DMA_HUB|56=FIXCLIENT1|52=20240201-16:42:47.332|10=027|
2024-02-01 17:43:02.019 [35] [FixSender] (DEBUG) Sending 8=FIX.4.4|9=58|35=0|49=FIXCLIENT1|56=DMA_HUB|34=238|52=20240201-16:43:02|10=089|
2024-02-01 17:43:17.283 [34] [FixSender] (DEBUG) Receiving 8=FIX.4.4|9=62|35=0|34=241|49=DMA_HUB|56=FIXCLIENT1|52=20240201-16:43:17.283|10=031|
2024-02-01 17:43:32.033 [35] [FixSender] (DEBUG) Sending 8=FIX.4.4|9=58|35=0|49=FIXCLIENT1|56=DMA_HUB|34=239|52=20240201-16:43:32|10=093|
2024-02-01 17:43:47.237 [34] [FixSender] (DEBUG) Receiving 8=FIX.4.4|9=62|35=0|34=242|49=DMA_HUB|56=FIXCLIENT1|52=20240201-16:43:47.236|10=033|
2024-02-01 17:44:02.037 [35] [FixSender] (DEBUG) Sending 8=FIX.4.4|9=58|35=0|49=FIXCLIENT1|56=DMA_HUB|34=240|52=20240201-16:44:02|10=083|
2024-02-01 17:44:17.189 [34] [FixSender] (DEBUG) Receiving 8=FIX.4.4|9=62|35=0|34=243|49=DMA_HUB|56=FIXCLIENT1|52=20240201-16:44:17.188|10=038|
2024-02-01 17:44:32.043 [35] [FixSender] (DEBUG) Sending 8=FIX.4.4|9=58|35=0|49=FIXCLIENT1|56=DMA_HUB|34=241|52=20240201-16:44:32|10=087|
2024-02-01 17:44:47.139 [34] [FixSender] (DEBUG) Receiving 8=FIX.4.4|9=62|35=0|34=244|49=DMA_HUB|56=FIXCLIENT1|52=20240201-16:44:47.139|10=038|
2024-02-01 17:45:02.058 [35] [FixSender] (DEBUG) Sending 8=FIX.4.4|9=58|35=0|49=FIXCLIENT1|56=DMA_HUB|34=242|52=20240201-16:45:02|10=086|
2024-02-01 17:45:17.092 [34] [FixSender] (DEBUG) Receiving 8=FIX.4.4|9=62|35=0|34=245|49=DMA_HUB|56=FIXCLIENT1|52=20240201-16:45:17.092|10=035|
2024-02-01 17:45:32.061 [35] [FixSender] (DEBUG) Sending 8=FIX.4.4|9=58|35=0|49=FIXCLIENT1|56=DMA_HUB|34=243|52=20240201-16:45:32|10=090|
2024-02-01 17:45:47.043 [34] [FixSender] (DEBUG) Receiving 8=FIX.4.4|9=62|35=0|34=246|49=DMA_HUB|56=FIXCLIENT1|52=20240201-16:45:47.043|10=035|
2024-02-01 17:46:02.067 [35] [FixSender] (DEBUG) Sending 8=FIX.4.4|9=58|35=0|49=FIXCLIENT1|56=DMA_HUB|34=244|52=20240201-16:46:02|10=089|
2024-02-01 17:46:16.996 [34] [FixSender] (DEBUG) Receiving 8=FIX.4.4|9=62|35=0|34=247|49=DMA_HUB|56=FIXCLIENT1|52=20240201-16:46:16.996|10=050|
2024-02-01 17:46:32.083 [35] [FixSender] (DEBUG) Sending 8=FIX.4.4|9=58|35=0|49=FIXCLIENT1|56=DMA_HUB|34=245|52=20240201-16:46:32|10=093|
2024-02-01 17:46:46.947 [34] [FixSender] (DEBUG) Receiving 8=FIX.4.4|9=62|35=0|34=248|49=DMA_HUB|56=FIXCLIENT1|52=20240201-16:46:46.947|10=050|
2024-02-01 17:47:02.086 [35] [FixSender] (DEBUG) Sending 8=FIX.4.4|9=58|35=0|49=FIXCLIENT1|56=DMA_HUB|34=246|52=20240201-16:47:02|10=092|
2024-02-01 17:47:16.900 [34] [FixSender] (DEBUG) Receiving 8=FIX.4.4|9=62|35=0|34=249|49=DMA_HUB|56=FIXCLIENT1|52=20240201-16:47:16.900|10=038|
2024-02-01 17:47:32.097 [35] [FixSender] (DEBUG) Sending 8=FIX.4.4|9=58|35=0|49=FIXCLIENT1|56=DMA_HUB|34=247|52=20240201-16:47:32|10=096|
2024-02-01 17:47:46.852 [34] [FixSender] (DEBUG) Receiving 8=FIX.4.4|9=62|35=0|34=250|49=DMA_HUB|56=FIXCLIENT1|52=20240201-16:47:46.851|10=038|
2024-02-01 17:48:02.100 [35] [FixSender] (DEBUG) Sending 8=FIX.4.4|9=58|35=0|49=FIXCLIENT1|56=DMA_HUB|34=248|52=20240201-16:48:02|10=095|
2024-02-01 17:48:16.805 [34] [FixSender] (DEBUG) Receiving 8=FIX.4.4|9=62|35=0|34=251|49=DMA_HUB|56=FIXCLIENT1|52=20240201-16:48:16.804|10=035|
2024-02-01 17:48:32.106 [35] [FixSender] (DEBUG) Sending 8=FIX.4.4|9=58|35=0|49=FIXCLIENT1|56=DMA_HUB|34=249|52=20240201-16:48:32|10=099|
2024-02-01 17:48:46.755 [34] [FixSender] (DEBUG) Receiving 8=FIX.4.4|9=62|35=0|34=252|49=DMA_HUB|56=FIXCLIENT1|52=20240201-16:48:46.755|10=044|
2024-02-01 17:49:02.114 [35] [FixSender] (DEBUG) Sending 8=FIX.4.4|9=58|35=0|49=FIXCLIENT1|56=DMA_HUB|34=250|52=20240201-16:49:02|10=089|
2024-02-01 17:49:16.709 [34] [FixSender] (DEBUG) Receiving 8=FIX.4.4|9=62|35=0|34=253|49=DMA_HUB|56=FIXCLIENT1|52=20240201-16:49:16.708|10=041|
2024-02-01 17:49:32.116 [35] [FixSender] (DEBUG) Sending 8=FIX.4.4|9=58|35=0|49=FIXCLIENT1|56=DMA_HUB|34=251|52=20240201-16:49:32|10=093|
2024-02-01 17:49:46.660 [34] [FixSender] (DEBUG) Receiving 8=FIX.4.4|9=62|35=0|34=254|49=DMA_HUB|56=FIXCLIENT1|52=20240201-16:49:46.660|10=042|
2024-02-01 17:50:02.123 [35] [FixSender] (DEBUG) Sending 8=FIX.4.4|9=58|35=0|49=FIXCLIENT1|56=DMA_HUB|34=252|52=20240201-16:50:02|10=083|
2024-02-01 17:50:16.611 [34] [FixSender] (DEBUG) Receiving 8=FIX.4.4|9=62|35=0|34=255|49=DMA_HUB|56=FIXCLIENT1|52=20240201-16:50:16.611|10=028|
2024-02-01 17:50:32.127 [35] [FixSender] (DEBUG) Sending 8=FIX.4.4|9=58|35=0|49=FIXCLIENT1|56=DMA_HUB|34=253|52=20240201-16:50:32|10=087|
2024-02-01 17:50:46.563 [34] [FixSender] (DEBUG) Receiving 8=FIX.4.4|9=62|35=0|34=256|49=DMA_HUB|56=FIXCLIENT1|52=20240201-16:50:46.563|10=038|
2024-02-01 17:51:02.130 [35] [FixSender] (DEBUG) Sending 8=FIX.4.4|9=58|35=0|49=FIXCLIENT1|56=DMA_HUB|34=254|52=20240201-16:51:02|10=086|
2024-02-01 17:51:16.516 [34] [FixSender] (DEBUG) Receiving 8=FIX.4.4|9=62|35=0|34=257|49=DMA_HUB|56=FIXCLIENT1|52=20240201-16:51:16.516|10=035|
2024-02-01 17:51:32.142 [35] [FixSender] (DEBUG) Sending 8=FIX.4.4|9=58|35=0|49=FIXCLIENT1|56=DMA_HUB|34=255|52=20240201-16:51:32|10=090|
2024-02-01 17:51:46.468 [34] [FixSender] (DEBUG) Receiving 8=FIX.4.4|9=62|35=0|34=258|49=DMA_HUB|56=FIXCLIENT1|52=20240201-16:51:46.467|10=044|
2024-02-01 17:52:02.144 [35] [FixSender] (DEBUG) Sending 8=FIX.4.4|9=58|35=0|49=FIXCLIENT1|56=DMA_HUB|34=256|52=20240201-16:52:02|10=089|
2024-02-01 17:52:16.421 [34] [FixSender] (DEBUG) Receiving 8=FIX.4.4|9=62|35=0|34=259|49=DMA_HUB|56=FIXCLIENT1|52=20240201-16:52:16.420|10=032|
2024-02-01 17:52:32.149 [35] [FixSender] (DEBUG) Sending 8=FIX.4.4|9=58|35=0|49=FIXCLIENT1|56=DMA_HUB|34=257|52=20240201-16:52:32|10=093|
2024-02-01 17:52:46.372 [34] [FixSender] (DEBUG) Receiving 8=FIX.4.4|9=62|35=0|34=260|49=DMA_HUB|56=FIXCLIENT1|52=20240201-16:52:46.372|10=033|
2024-02-01 17:53:02.155 [35] [FixSender] (DEBUG) Sending 8=FIX.4.4|9=58|35=0|49=FIXCLIENT1|56=DMA_HUB|34=258|52=20240201-16:53:02|10=092|
2024-02-01 17:53:16.323 [34] [FixSender] (DEBUG) Receiving 8=FIX.4.4|9=62|35=0|34=261|49=DMA_HUB|56=FIXCLIENT1|52=20240201-16:53:16.323|10=028|
2024-02-01 17:53:32.162 [35] [FixSender] (DEBUG) Sending 8=FIX.4.4|9=58|35=0|49=FIXCLIENT1|56=DMA_HUB|34=259|52=20240201-16:53:32|10=096|
2024-02-01 17:53:46.277 [34] [FixSender] (DEBUG) Receiving 8=FIX.4.4|9=62|35=0|34=262|49=DMA_HUB|56=FIXCLIENT1|52=20240201-16:53:46.276|10=039|
2024-02-01 17:54:02.163 [35] [FixSender] (DEBUG) Sending 8=FIX.4.4|9=58|35=0|49=FIXCLIENT1|56=DMA_HUB|34=260|52=20240201-16:54:02|10=086|
2024-02-01 17:54:16.229 [34] [FixSender] (DEBUG) Receiving 8=FIX.4.4|9=62|35=0|34=263|49=DMA_HUB|56=FIXCLIENT1|52=20240201-16:54:16.228|10=035|
2024-02-01 17:54:32.164 [35] [FixSender] (DEBUG) Sending 8=FIX.4.4|9=58|35=0|49=FIXCLIENT1|56=DMA_HUB|34=261|52=20240201-16:54:32|10=090|
2024-02-01 17:54:46.182 [34] [FixSender] (DEBUG) Receiving 8=FIX.4.4|9=62|35=0|34=264|49=DMA_HUB|56=FIXCLIENT1|52=20240201-16:54:46.180|10=036|
2024-02-01 17:55:02.167 [35] [FixSender] (DEBUG) Sending 8=FIX.4.4|9=58|35=0|49=FIXCLIENT1|56=DMA_HUB|34=262|52=20240201-16:55:02|10=089|
2024-02-01 17:55:16.132 [34] [FixSender] (DEBUG) Receiving 8=FIX.4.4|9=62|35=0|34=265|49=DMA_HUB|56=FIXCLIENT1|52=20240201-16:55:16.131|10=031|
2024-02-01 17:55:32.170 [35] [FixSender] (DEBUG) Sending 8=FIX.4.4|9=58|35=0|49=FIXCLIENT1|56=DMA_HUB|34=263|52=20240201-16:55:32|10=093|
2024-02-01 17:55:46.084 [34] [FixSender] (DEBUG) Receiving 8=FIX.4.4|9=62|35=0|34=266|49=DMA_HUB|56=FIXCLIENT1|52=20240201-16:55:46.084|10=042|
2024-02-01 17:56:02.170 [35] [FixSender] (DEBUG) Sending 8=FIX.4.4|9=58|35=0|49=FIXCLIENT1|56=DMA_HUB|34=264|52=20240201-16:56:02|10=092|
2024-02-01 17:56:16.037 [34] [FixSender] (DEBUG) Receiving 8=FIX.4.4|9=62|35=0|34=267|49=DMA_HUB|56=FIXCLIENT1|52=20240201-16:56:16.036|10=038|
2024-02-01 17:56:32.173 [35] [FixSender] (DEBUG) Sending 8=FIX.4.4|9=58|35=0|49=FIXCLIENT1|56=DMA_HUB|34=265|52=20240201-16:56:32|10=096|
2024-02-01 17:56:45.987 [34] [FixSender] (DEBUG) Receiving 8=FIX.4.4|9=62|35=0|34=268|49=DMA_HUB|56=FIXCLIENT1|52=20240201-16:56:45.987|10=056|
2024-02-01 17:57:02.174 [35] [FixSender] (DEBUG) Sending 8=FIX.4.4|9=58|35=0|49=FIXCLIENT1|56=DMA_HUB|34=266|52=20240201-16:57:02|10=095|
2024-02-01 17:57:15.940 [34] [FixSender] (DEBUG) Receiving 8=FIX.4.4|9=62|35=0|34=269|49=DMA_HUB|56=FIXCLIENT1|52=20240201-16:57:15.940|10=044|
2024-02-01 17:57:32.175 [35] [FixSender] (DEBUG) Sending 8=FIX.4.4|9=58|35=0|49=FIXCLIENT1|56=DMA_HUB|34=267|52=20240201-16:57:32|10=099|
2024-02-01 17:57:45.892 [34] [FixSender] (DEBUG) Receiving 8=FIX.4.4|9=62|35=0|34=270|49=DMA_HUB|56=FIXCLIENT1|52=20240201-16:57:45.892|10=045|
2024-02-01 17:58:02.178 [35] [FixSender] (DEBUG) Sending 8=FIX.4.4|9=58|35=0|49=FIXCLIENT1|56=DMA_HUB|34=268|52=20240201-16:58:02|10=098|
2024-02-01 17:58:15.845 [34] [FixSender] (DEBUG) Receiving 8=FIX.4.4|9=62|35=0|34=271|49=DMA_HUB|56=FIXCLIENT1|52=20240201-16:58:15.844|10=041|
2024-02-01 17:58:32.194 [35] [FixSender] (DEBUG) Sending 8=FIX.4.4|9=58|35=0|49=FIXCLIENT1|56=DMA_HUB|34=269|52=20240201-16:58:32|10=102|
2024-02-01 17:58:45.795 [34] [FixSender] (DEBUG) Receiving 8=FIX.4.4|9=62|35=0|34=272|49=DMA_HUB|56=FIXCLIENT1|52=20240201-16:58:45.795|10=050|
2024-02-01 17:59:02.196 [35] [FixSender] (DEBUG) Sending 8=FIX.4.4|9=58|35=0|49=FIXCLIENT1|56=DMA_HUB|34=270|52=20240201-16:59:02|10=092|
2024-02-01 17:59:15.748 [34] [FixSender] (DEBUG) Receiving 8=FIX.4.4|9=62|35=0|34=273|49=DMA_HUB|56=FIXCLIENT1|52=20240201-16:59:15.748|10=047|
2024-02-01 17:59:32.209 [35] [FixSender] (DEBUG) Sending 8=FIX.4.4|9=58|35=0|49=FIXCLIENT1|56=DMA_HUB|34=271|52=20240201-16:59:32|10=096|
2024-02-01 17:59:45.699 [34] [FixSender] (DEBUG) Receiving 8=FIX.4.4|9=62|35=0|34=274|49=DMA_HUB|56=FIXCLIENT1|52=20240201-16:59:45.699|10=056|
2024-02-01 18:00:02.222 [35] [FixSender] (DEBUG) Sending 8=FIX.4.4|9=58|35=0|49=FIXCLIENT1|56=DMA_HUB|34=272|52=20240201-17:00:02|10=081|
2024-02-01 18:00:15.651 [34] [FixSender] (DEBUG) Receiving 8=FIX.4.4|9=62|35=0|34=275|49=DMA_HUB|56=FIXCLIENT1|52=20240201-17:00:15.651|10=029|
2024-02-01 18:00:32.223 [35] [FixSender] (DEBUG) Sending 8=FIX.4.4|9=58|35=0|49=FIXCLIENT1|56=DMA_HUB|34=273|52=20240201-17:00:32|10=085|
2024-02-01 18:00:45.603 [34] [FixSender] (DEBUG) Receiving 8=FIX.4.4|9=62|35=0|34=276|49=DMA_HUB|56=FIXCLIENT1|52=20240201-17:00:45.603|10=030|
2024-02-01 18:01:02.226 [35] [FixSender] (DEBUG) Sending 8=FIX.4.4|9=58|35=0|49=FIXCLIENT1|56=DMA_HUB|34=274|52=20240201-17:01:02|10=084|
2024-02-01 18:01:15.555 [34] [FixSender] (DEBUG) Receiving 8=FIX.4.4|9=62|35=0|34=277|49=DMA_HUB|56=FIXCLIENT1|52=20240201-17:01:15.555|10=035|
2024-02-01 18:01:32.226 [35] [FixSender] (DEBUG) Sending 8=FIX.4.4|9=58|35=0|49=FIXCLIENT1|56=DMA_HUB|34=275|52=20240201-17:01:32|10=088|
2024-02-01 18:01:45.508 [34] [FixSender] (DEBUG) Receiving 8=FIX.4.4|9=62|35=0|34=278|49=DMA_HUB|56=FIXCLIENT1|52=20240201-17:01:45.508|10=037|
2024-02-01 18:02:02.237 [35] [FixSender] (DEBUG) Sending 8=FIX.4.4|9=58|35=0|49=FIXCLIENT1|56=DMA_HUB|34=276|52=20240201-17:02:02|10=087|
2024-02-01 18:02:15.459 [34] [FixSender] (DEBUG) Receiving 8=FIX.4.4|9=62|35=0|34=279|49=DMA_HUB|56=FIXCLIENT1|52=20240201-17:02:15.459|10=041|
2024-02-01 18:02:32.240 [35] [FixSender] (DEBUG) Sending 8=FIX.4.4|9=58|35=0|49=FIXCLIENT1|56=DMA_HUB|34=277|52=20240201-17:02:32|10=091|
2024-02-01 18:02:45.412 [34] [FixSender] (DEBUG) Receiving 8=FIX.4.4|9=62|35=0|34=280|49=DMA_HUB|56=FIXCLIENT1|52=20240201-17:02:45.412|10=025|
2024-02-01 18:03:02.244 [35] [FixSender] (DEBUG) Sending 8=FIX.4.4|9=58|35=0|49=FIXCLIENT1|56=DMA_HUB|34=278|52=20240201-17:03:02|10=090|
2024-02-01 18:03:15.363 [34] [FixSender] (DEBUG) Receiving 8=FIX.4.4|9=62|35=0|34=281|49=DMA_HUB|56=FIXCLIENT1|52=20240201-17:03:15.363|10=029|
2024-02-01 18:03:32.247 [35] [FixSender] (DEBUG) Sending 8=FIX.4.4|9=58|35=0|49=FIXCLIENT1|56=DMA_HUB|34=279|52=20240201-17:03:32|10=094|
2024-02-01 18:03:45.316 [34] [FixSender] (DEBUG) Receiving 8=FIX.4.4|9=62|35=0|34=282|49=DMA_HUB|56=FIXCLIENT1|52=20240201-17:03:45.316|10=031|
2024-02-01 18:04:02.258 [35] [FixSender] (DEBUG) Sending 8=FIX.4.4|9=58|35=0|49=FIXCLIENT1|56=DMA_HUB|34=280|52=20240201-17:04:02|10=084|
2024-02-01 18:04:15.267 [34] [FixSender] (DEBUG) Receiving 8=FIX.4.4|9=62|35=0|34=283|49=DMA_HUB|56=FIXCLIENT1|52=20240201-17:04:15.267|10=035|
2024-02-01 18:04:32.272 [35] [FixSender] (DEBUG) Sending 8=FIX.4.4|9=58|35=0|49=FIXCLIENT1|56=DMA_HUB|34=281|52=20240201-17:04:32|10=088|
2024-02-01 18:04:45.220 [34] [FixSender] (DEBUG) Receiving 8=FIX.4.4|9=62|35=0|34=284|49=DMA_HUB|56=FIXCLIENT1|52=20240201-17:04:45.219|10=036|
2024-02-01 18:05:02.281 [35] [FixSender] (DEBUG) Sending 8=FIX.4.4|9=58|35=0|49=FIXCLIENT1|56=DMA_HUB|34=282|52=20240201-17:05:02|10=087|
2024-02-01 18:05:15.171 [34] [FixSender] (DEBUG) Receiving 8=FIX.4.4|9=62|35=0|34=285|49=DMA_HUB|56=FIXCLIENT1|52=20240201-17:05:15.171|10=032|
2024-02-01 18:05:32.287 [35] [FixSender] (DEBUG) Sending 8=FIX.4.4|9=58|35=0|49=FIXCLIENT1|56=DMA_HUB|34=283|52=20240201-17:05:32|10=091|
2024-02-01 18:05:45.125 [34] [FixSender] (DEBUG) Receiving 8=FIX.4.4|9=62|35=0|34=286|49=DMA_HUB|56=FIXCLIENT1|52=20240201-17:05:45.123|10=033|
2024-02-01 18:06:02.291 [35] [FixSender] (DEBUG) Sending 8=FIX.4.4|9=58|35=0|49=FIXCLIENT1|56=DMA_HUB|34=284|52=20240201-17:06:02|10=090|
2024-02-01 18:06:15.075 [34] [FixSender] (DEBUG) Receiving 8=FIX.4.4|9=62|35=0|34=287|49=DMA_HUB|56=FIXCLIENT1|52=20240201-17:06:15.075|10=038|
2024-02-01 18:06:32.296 [35] [FixSender] (DEBUG) Sending 8=FIX.4.4|9=58|35=0|49=FIXCLIENT1|56=DMA_HUB|34=285|52=20240201-17:06:32|10=094|
2024-02-01 18:06:45.027 [34] [FixSender] (DEBUG) Receiving 8=FIX.4.4|9=62|35=0|34=288|49=DMA_HUB|56=FIXCLIENT1|52=20240201-17:06:45.027|10=039|
2024-02-01 18:07:02.307 [35] [FixSender] (DEBUG) Sending 8=FIX.4.4|9=58|35=0|49=FIXCLIENT1|56=DMA_HUB|34=286|52=20240201-17:07:02|10=093|
2024-02-01 18:07:14.979 [34] [FixSender] (DEBUG) Receiving 8=FIX.4.4|9=62|35=0|34=289|49=DMA_HUB|56=FIXCLIENT1|52=20240201-17:07:14.979|10=053|
2024-02-01 18:07:32.317 [35] [FixSender] (DEBUG) Sending 8=FIX.4.4|9=58|35=0|49=FIXCLIENT1|56=DMA_HUB|34=287|52=20240201-17:07:32|10=097|
2024-02-01 18:07:44.931 [34] [FixSender] (DEBUG) Receiving 8=FIX.4.4|9=62|35=0|34=290|49=DMA_HUB|56=FIXCLIENT1|52=20240201-17:07:44.931|10=036|
2024-02-01 18:08:02.321 [35] [FixSender] (DEBUG) Sending 8=FIX.4.4|9=58|35=0|49=FIXCLIENT1|56=DMA_HUB|34=288|52=20240201-17:08:02|10=096|
2024-02-01 18:08:14.884 [34] [FixSender] (DEBUG) Receiving 8=FIX.4.4|9=62|35=0|34=291|49=DMA_HUB|56=FIXCLIENT1|52=20240201-17:08:14.884|10=042|
2024-02-01 18:08:32.326 [35] [FixSender] (DEBUG) Sending 8=FIX.4.4|9=58|35=0|49=FIXCLIENT1|56=DMA_HUB|34=289|52=20240201-17:08:32|10=100|
2024-02-01 18:08:44.772 [34] [FixSender] (DEBUG) Receiving 8=FIX.4.4|9=62|35=0|34=292|49=DMA_HUB|56=FIXCLIENT1|52=20240201-17:08:44.772|10=042|
2024-02-01 18:09:02.333 [35] [FixSender] (DEBUG) Sending 8=FIX.4.4|9=58|35=0|49=FIXCLIENT1|56=DMA_HUB|34=290|52=20240201-17:09:02|10=090|
2024-02-01 18:09:14.887 [34] [FixSender] (DEBUG) Receiving 8=FIX.4.4|9=62|35=0|34=293|49=DMA_HUB|56=FIXCLIENT1|52=20240201-17:09:14.886|10=047|
2024-02-01 18:09:32.336 [35] [FixSender] (DEBUG) Sending 8=FIX.4.4|9=58|35=0|49=FIXCLIENT1|56=DMA_HUB|34=291|52=20240201-17:09:32|10=094|
2024-02-01 18:09:44.867 [34] [FixSender] (DEBUG) Receiving 8=FIX.4.4|9=62|35=0|34=294|49=DMA_HUB|56=FIXCLIENT1|52=20240201-17:09:44.867|10=050|
2024-02-01 18:10:02.344 [35] [FixSender] (DEBUG) Sending 8=FIX.4.4|9=58|35=0|49=FIXCLIENT1|56=DMA_HUB|34=292|52=20240201-17:10:02|10=084|
2024-02-01 18:10:14.827 [34] [FixSender] (DEBUG) Receiving 8=FIX.4.4|9=62|35=0|34=295|49=DMA_HUB|56=FIXCLIENT1|52=20240201-17:10:14.822|10=031|
2024-02-01 18:10:32.351 [35] [FixSender] (DEBUG) Sending 8=FIX.4.4|9=58|35=0|49=FIXCLIENT1|56=DMA_HUB|34=293|52=20240201-17:10:32|10=088|
2024-02-01 18:10:44.772 [34] [FixSender] (DEBUG) Receiving 8=FIX.4.4|9=62|35=0|34=296|49=DMA_HUB|56=FIXCLIENT1|52=20240201-17:10:44.772|10=039|
2024-02-01 18:11:02.365 [35] [FixSender] (DEBUG) Sending 8=FIX.4.4|9=58|35=0|49=FIXCLIENT1|56=DMA_HUB|34=294|52=20240201-17:11:02|10=087|
2024-02-01 18:11:14.723 [34] [FixSender] (DEBUG) Receiving 8=FIX.4.4|9=62|35=0|34=297|49=DMA_HUB|56=FIXCLIENT1|52=20240201-17:11:14.723|10=034|
2024-02-01 18:11:32.370 [35] [FixSender] (DEBUG) Sending 8=FIX.4.4|9=58|35=0|49=FIXCLIENT1|56=DMA_HUB|34=295|52=20240201-17:11:32|10=091|
2024-02-01 18:11:44.613 [34] [FixSender] (DEBUG) Receiving 8=FIX.4.4|9=62|35=0|34=298|49=DMA_HUB|56=FIXCLIENT1|52=20240201-17:11:44.612|10=035|
2024-02-01 18:12:02.381 [35] [FixSender] (DEBUG) Sending 8=FIX.4.4|9=58|35=0|49=FIXCLIENT1|56=DMA_HUB|34=296|52=20240201-17:12:02|10=090|
2024-02-01 18:12:14.564 [34] [FixSender] (DEBUG) Receiving 8=FIX.4.4|9=62|35=0|34=299|49=DMA_HUB|56=FIXCLIENT1|52=20240201-17:12:14.564|10=040|
2024-02-01 18:12:32.387 [35] [FixSender] (DEBUG) Sending 8=FIX.4.4|9=58|35=0|49=FIXCLIENT1|56=DMA_HUB|34=297|52=20240201-17:12:32|10=094|
2024-02-01 18:12:44.516 [34] [FixSender] (DEBUG) Receiving 8=FIX.4.4|9=62|35=0|34=300|49=DMA_HUB|56=FIXCLIENT1|52=20240201-17:12:44.516|10=023|
2024-02-01 18:13:02.390 [35] [FixSender] (DEBUG) Sending 8=FIX.4.4|9=58|35=0|49=FIXCLIENT1|56=DMA_HUB|34=298|52=20240201-17:13:02|10=093|
2024-02-01 18:13:14.468 [34] [FixSender] (DEBUG) Receiving 8=FIX.4.4|9=62|35=0|34=301|49=DMA_HUB|56=FIXCLIENT1|52=20240201-17:13:14.468|10=028|
2024-02-01 18:13:32.393 [35] [FixSender] (DEBUG) Sending 8=FIX.4.4|9=58|35=0|49=FIXCLIENT1|56=DMA_HUB|34=299|52=20240201-17:13:32|10=097|
2024-02-01 18:13:44.422 [34] [FixSender] (DEBUG) Receiving 8=FIX.4.4|9=62|35=0|34=302|49=DMA_HUB|56=FIXCLIENT1|52=20240201-17:13:44.421|10=021|
2024-02-01 18:14:02.394 [35] [FixSender] (DEBUG) Sending 8=FIX.4.4|9=58|35=0|49=FIXCLIENT1|56=DMA_HUB|34=300|52=20240201-17:14:02|10=078|
2024-02-01 18:14:14.371 [34] [FixSender] (DEBUG) Receiving 8=FIX.4.4|9=62|35=0|34=303|49=DMA_HUB|56=FIXCLIENT1|52=20240201-17:14:14.371|10=024|
2024-02-01 18:14:32.396 [35] [FixSender] (DEBUG) Sending 8=FIX.4.4|9=58|35=0|49=FIXCLIENT1|56=DMA_HUB|34=301|52=20240201-17:14:32|10=082|
2024-02-01 18:14:44.324 [34] [FixSender] (DEBUG) Receiving 8=FIX.4.4|9=62|35=0|34=304|49=DMA_HUB|56=FIXCLIENT1|52=20240201-17:14:44.324|10=026|
2024-02-01 18:15:02.397 [35] [FixSender] (DEBUG) Sending 8=FIX.4.4|9=58|35=0|49=FIXCLIENT1|56=DMA_HUB|34=302|52=20240201-17:15:02|10=081|
2024-02-01 18:15:14.305 [34] [FixSender] (DEBUG) Receiving 8=FIX.4.4|9=62|35=0|34=305|49=DMA_HUB|56=FIXCLIENT1|52=20240201-17:15:14.298|10=035|
2024-02-01 18:15:32.399 [35] [FixSender] (DEBUG) Sending 8=FIX.4.4|9=58|35=0|49=FIXCLIENT1|56=DMA_HUB|34=303|52=20240201-17:15:32|10=085|
2024-02-01 18:15:44.301 [34] [FixSender] (DEBUG) Receiving 8=FIX.4.4|9=62|35=0|34=306|49=DMA_HUB|56=FIXCLIENT1|52=20240201-17:15:44.292|10=033|
2024-02-01 18:16:02.401 [35] [FixSender] (DEBUG) Sending 8=FIX.4.4|9=58|35=0|49=FIXCLIENT1|56=DMA_HUB|34=304|52=20240201-17:16:02|10=084|
2024-02-01 18:16:14.244 [34] [FixSender] (DEBUG) Receiving 8=FIX.4.4|9=62|35=0|34=307|49=DMA_HUB|56=FIXCLIENT1|52=20240201-17:16:14.244|10=029|
2024-02-01 18:16:32.403 [35] [FixSender] (DEBUG) Sending 8=FIX.4.4|9=58|35=0|49=FIXCLIENT1|56=DMA_HUB|34=305|52=20240201-17:16:32|10=088|
2024-02-01 18:16:44.196 [34] [FixSender] (DEBUG) Receiving 8=FIX.4.4|9=62|35=0|34=308|49=DMA_HUB|56=FIXCLIENT1|52=20240201-17:16:44.196|10=039|
2024-02-01 18:17:02.405 [35] [FixSender] (DEBUG) Sending 8=FIX.4.4|9=58|35=0|49=FIXCLIENT1|56=DMA_HUB|34=306|52=20240201-17:17:02|10=087|
2024-02-01 18:17:14.149 [34] [FixSender] (DEBUG) Receiving 8=FIX.4.4|9=62|35=0|34=309|49=DMA_HUB|56=FIXCLIENT1|52=20240201-17:17:14.149|10=036|
2024-02-01 18:17:32.407 [35] [FixSender] (DEBUG) Sending 8=FIX.4.4|9=58|35=0|49=FIXCLIENT1|56=DMA_HUB|34=307|52=20240201-17:17:32|10=091|
2024-02-01 18:17:44.101 [34] [FixSender] (DEBUG) Receiving 8=FIX.4.4|9=62|35=0|34=310|49=DMA_HUB|56=FIXCLIENT1|52=20240201-17:17:44.100|10=018|
2024-02-01 18:18:02.408 [35] [FixSender] (DEBUG) Sending 8=FIX.4.4|9=58|35=0|49=FIXCLIENT1|56=DMA_HUB|34=308|52=20240201-17:18:02|10=090|
2024-02-01 18:18:14.052 [34] [FixSender] (DEBUG) Receiving 8=FIX.4.4|9=62|35=0|34=311|49=DMA_HUB|56=FIXCLIENT1|52=20240201-17:18:14.052|10=023|
2024-02-01 18:18:32.409 [35] [FixSender] (DEBUG) Sending 8=FIX.4.4|9=58|35=0|49=FIXCLIENT1|56=DMA_HUB|34=309|52=20240201-17:18:32|10=094|
2024-02-01 18:18:44.004 [34] [FixSender] (DEBUG) Receiving 8=FIX.4.4|9=62|35=0|34=312|49=DMA_HUB|56=FIXCLIENT1|52=20240201-17:18:44.004|10=024|
2024-02-01 18:19:02.424 [35] [FixSender] (DEBUG) Sending 8=FIX.4.4|9=58|35=0|49=FIXCLIENT1|56=DMA_HUB|34=310|52=20240201-17:19:02|10=084|
2024-02-01 18:19:13.956 [34] [FixSender] (DEBUG) Receiving 8=FIX.4.4|9=62|35=0|34=313|49=DMA_HUB|56=FIXCLIENT1|52=20240201-17:19:13.956|10=038|
2024-02-01 18:19:32.426 [35] [FixSender] (DEBUG) Sending 8=FIX.4.4|9=58|35=0|49=FIXCLIENT1|56=DMA_HUB|34=311|52=20240201-17:19:32|10=088|
2024-02-01 18:19:43.908 [34] [FixSender] (DEBUG) Receiving 8=FIX.4.4|9=62|35=0|34=314|49=DMA_HUB|56=FIXCLIENT1|52=20240201-17:19:43.908|10=039|
2024-02-01 18:20:02.427 [35] [FixSender] (DEBUG) Sending 8=FIX.4.4|9=58|35=0|49=FIXCLIENT1|56=DMA_HUB|34=312|52=20240201-17:20:02|10=078|
2024-02-01 18:20:13.860 [34] [FixSender] (DEBUG) Receiving 8=FIX.4.4|9=62|35=0|34=315|49=DMA_HUB|56=FIXCLIENT1|52=20240201-17:20:13.860|10=026|
2024-02-01 18:20:32.428 [35] [FixSender] (DEBUG) Sending 8=FIX.4.4|9=58|35=0|49=FIXCLIENT1|56=DMA_HUB|34=313|52=20240201-17:20:32|10=082|
2024-02-01 18:20:43.812 [34] [FixSender] (DEBUG) Receiving 8=FIX.4.4|9=62|35=0|34=316|49=DMA_HUB|56=FIXCLIENT1|52=20240201-17:20:43.812|10=027|
2024-02-01 18:21:02.429 [35] [FixSender] (DEBUG) Sending 8=FIX.4.4|9=58|35=0|49=FIXCLIENT1|56=DMA_HUB|34=314|52=20240201-17:21:02|10=081|
2024-02-01 18:21:13.763 [34] [FixSender] (DEBUG) Receiving 8=FIX.4.4|9=62|35=0|34=317|49=DMA_HUB|56=FIXCLIENT1|52=20240201-17:21:13.763|10=031|
2024-02-01 18:21:32.430 [35] [FixSender] (DEBUG) Sending 8=FIX.4.4|9=58|35=0|49=FIXCLIENT1|56=DMA_HUB|34=315|52=20240201-17:21:32|10=085|
2024-02-01 18:21:43.717 [34] [FixSender] (DEBUG) Receiving 8=FIX.4.4|9=62|35=0|34=318|49=DMA_HUB|56=FIXCLIENT1|52=20240201-17:21:43.716|10=033|
2024-02-01 18:22:02.437 [35] [FixSender] (DEBUG) Sending 8=FIX.4.4|9=58|35=0|49=FIXCLIENT1|56=DMA_HUB|34=316|52=20240201-17:22:02|10=084|
2024-02-01 18:22:13.668 [34] [FixSender] (DEBUG) Receiving 8=FIX.4.4|9=62|35=0|34=319|49=DMA_HUB|56=FIXCLIENT1|52=20240201-17:22:13.668|10=038|
2024-02-01 18:22:32.439 [35] [FixSender] (DEBUG) Sending 8=FIX.4.4|9=58|35=0|49=FIXCLIENT1|56=DMA_HUB|34=317|52=20240201-17:22:32|10=088|
2024-02-01 18:22:43.619 [34] [FixSender] (DEBUG) Receiving 8=FIX.4.4|9=62|35=0|34=320|49=DMA_HUB|56=FIXCLIENT1|52=20240201-17:22:43.619|10=029|
2024-02-01 18:23:02.447 [35] [FixSender] (DEBUG) Sending 8=FIX.4.4|9=58|35=0|49=FIXCLIENT1|56=DMA_HUB|34=318|52=20240201-17:23:02|10=087|
2024-02-01 18:23:13.571 [34] [FixSender] (DEBUG) Receiving 8=FIX.4.4|9=62|35=0|34=321|49=DMA_HUB|56=FIXCLIENT1|52=20240201-17:23:13.571|10=025|
2024-02-01 18:23:32.453 [35] [FixSender] (DEBUG) Sending 8=FIX.4.4|9=58|35=0|49=FIXCLIENT1|56=DMA_HUB|34=319|52=20240201-17:23:32|10=091|
2024-02-01 18:23:43.524 [34] [FixSender] (DEBUG) Receiving 8=FIX.4.4|9=62|35=0|34=322|49=DMA_HUB|56=FIXCLIENT1|52=20240201-17:23:43.524|10=027|
2024-02-01 18:24:02.455 [35] [FixSender] (DEBUG) Sending 8=FIX.4.4|9=58|35=0|49=FIXCLIENT1|56=DMA_HUB|34=320|52=20240201-17:24:02|10=081|
2024-02-01 18:24:13.476 [34] [FixSender] (DEBUG) Receiving 8=FIX.4.4|9=62|35=0|34=323|49=DMA_HUB|56=FIXCLIENT1|52=20240201-17:24:13.476|10=032|
2024-02-01 18:24:32.457 [35] [FixSender] (DEBUG) Sending 8=FIX.4.4|9=58|35=0|49=FIXCLIENT1|56=DMA_HUB|34=321|52=20240201-17:24:32|10=085|
2024-02-01 18:24:43.427 [34] [FixSender] (DEBUG) Receiving 8=FIX.4.4|9=62|35=0|34=324|49=DMA_HUB|56=FIXCLIENT1|52=20240201-17:24:43.427|10=032|
2024-02-01 18:25:02.459 [35] [FixSender] (DEBUG) Sending 8=FIX.4.4|9=58|35=0|49=FIXCLIENT1|56=DMA_HUB|34=322|52=20240201-17:25:02|10=084|
2024-02-01 18:25:13.380 [34] [FixSender] (DEBUG) Receiving 8=FIX.4.4|9=62|35=0|34=325|49=DMA_HUB|56=FIXCLIENT1|52=20240201-17:25:13.380|10=029|
2024-02-01 18:25:32.461 [35] [FixSender] (DEBUG) Sending 8=FIX.4.4|9=58|35=0|49=FIXCLIENT1|56=DMA_HUB|34=323|52=20240201-17:25:32|10=088|
2024-02-01 18:25:43.332 [34] [FixSender] (DEBUG) Receiving 8=FIX.4.4|9=62|35=0|34=326|49=DMA_HUB|56=FIXCLIENT1|52=20240201-17:25:43.332|10=030|
2024-02-01 18:26:02.462 [35] [FixSender] (DEBUG) Sending 8=FIX.4.4|9=58|35=0|49=FIXCLIENT1|56=DMA_HUB|34=324|52=20240201-17:26:02|10=087|
2024-02-01 18:26:13.283 [34] [FixSender] (DEBUG) Receiving 8=FIX.4.4|9=62|35=0|34=327|49=DMA_HUB|56=FIXCLIENT1|52=20240201-17:26:13.283|10=034|
2024-02-01 18:26:32.463 [35] [FixSender] (DEBUG) Sending 8=FIX.4.4|9=58|35=0|49=FIXCLIENT1|56=DMA_HUB|34=325|52=20240201-17:26:32|10=091|
2024-02-01 18:26:43.236 [34] [FixSender] (DEBUG) Receiving 8=FIX.4.4|9=62|35=0|34=328|49=DMA_HUB|56=FIXCLIENT1|52=20240201-17:26:43.236|10=036|
2024-02-01 18:27:02.478 [35] [FixSender] (DEBUG) Sending 8=FIX.4.4|9=58|35=0|49=FIXCLIENT1|56=DMA_HUB|34=326|52=20240201-17:27:02|10=090|
2024-02-01 18:27:13.188 [34] [FixSender] (DEBUG) Receiving 8=FIX.4.4|9=62|35=0|34=329|49=DMA_HUB|56=FIXCLIENT1|52=20240201-17:27:13.188|10=041|
2024-02-01 18:27:32.480 [35] [FixSender] (DEBUG) Sending 8=FIX.4.4|9=58|35=0|49=FIXCLIENT1|56=DMA_HUB|34=327|52=20240201-17:27:32|10=094|
2024-02-01 18:27:43.140 [34] [FixSender] (DEBUG) Receiving 8=FIX.4.4|9=62|35=0|34=330|49=DMA_HUB|56=FIXCLIENT1|52=20240201-17:27:43.140|10=024|
2024-02-01 18:28:02.481 [35] [FixSender] (DEBUG) Sending 8=FIX.4.4|9=58|35=0|49=FIXCLIENT1|56=DMA_HUB|34=328|52=20240201-17:28:02|10=093|
2024-02-01 18:28:13.091 [34] [FixSender] (DEBUG) Receiving 8=FIX.4.4|9=62|35=0|34=331|49=DMA_HUB|56=FIXCLIENT1|52=20240201-17:28:13.091|10=028|
2024-02-01 18:28:32.543 [35] [FixSender] (DEBUG) Sending 8=FIX.4.4|9=58|35=0|49=FIXCLIENT1|56=DMA_HUB|34=329|52=20240201-17:28:32|10=097|
2024-02-01 18:28:43.050 [34] [FixSender] (DEBUG) Receiving 8=FIX.4.4|9=62|35=0|34=332|49=DMA_HUB|56=FIXCLIENT1|52=20240201-17:28:43.044|10=030|
2024-02-01 18:29:02.544 [35] [FixSender] (DEBUG) Sending 8=FIX.4.4|9=58|35=0|49=FIXCLIENT1|56=DMA_HUB|34=330|52=20240201-17:29:02|10=087|
2024-02-01 18:29:12.995 [34] [FixSender] (DEBUG) Receiving 8=FIX.4.4|9=62|35=0|34=333|49=DMA_HUB|56=FIXCLIENT1|52=20240201-17:29:12.995|10=043|
2024-02-01 18:29:32.545 [35] [FixSender] (DEBUG) Sending 8=FIX.4.4|9=58|35=0|49=FIXCLIENT1|56=DMA_HUB|34=331|52=20240201-17:29:32|10=091|
2024-02-01 18:29:42.948 [34] [FixSender] (DEBUG) Receiving 8=FIX.4.4|9=62|35=0|34=334|49=DMA_HUB|56=FIXCLIENT1|52=20240201-17:29:42.948|10=045|
2024-02-01 18:30:02.552 [35] [FixSender] (DEBUG) Sending 8=FIX.4.4|9=58|35=0|49=FIXCLIENT1|56=DMA_HUB|34=332|52=20240201-17:30:02|10=081|
2024-02-01 18:30:12.899 [34] [FixSender] (DEBUG) Receiving 8=FIX.4.4|9=62|35=0|34=335|49=DMA_HUB|56=FIXCLIENT1|52=20240201-17:30:12.899|10=040|
2024-02-01 18:30:32.555 [35] [FixSender] (DEBUG) Sending 8=FIX.4.4|9=58|35=0|49=FIXCLIENT1|56=DMA_HUB|34=333|52=20240201-17:30:32|10=085|
2024-02-01 18:30:42.852 [34] [FixSender] (DEBUG) Receiving 8=FIX.4.4|9=62|35=0|34=336|49=DMA_HUB|56=FIXCLIENT1|52=20240201-17:30:42.852|10=033|
2024-02-01 18:31:02.565 [35] [FixSender] (DEBUG) Sending 8=FIX.4.4|9=58|35=0|49=FIXCLIENT1|56=DMA_HUB|34=334|52=20240201-17:31:02|10=084|
2024-02-01 18:31:12.803 [34] [FixSender] (DEBUG) Receiving 8=FIX.4.4|9=62|35=0|34=337|49=DMA_HUB|56=FIXCLIENT1|52=20240201-17:31:12.803|10=028|
2024-02-01 18:31:32.569 [35] [FixSender] (DEBUG) Sending 8=FIX.4.4|9=58|35=0|49=FIXCLIENT1|56=DMA_HUB|34=335|52=20240201-17:31:32|10=088|
2024-02-01 18:31:42.757 [34] [FixSender] (DEBUG) Receiving 8=FIX.4.4|9=62|35=0|34=338|49=DMA_HUB|56=FIXCLIENT1|52=20240201-17:31:42.756|10=039|
2024-02-01 18:32:02.572 [35] [FixSender] (DEBUG) Sending 8=FIX.4.4|9=58|35=0|49=FIXCLIENT1|56=DMA_HUB|34=336|52=20240201-17:32:02|10=087|
2024-02-01 18:32:12.708 [34] [FixSender] (DEBUG) Receiving 8=FIX.4.4|9=62|35=0|34=339|49=DMA_HUB|56=FIXCLIENT1|52=20240201-17:32:12.708|10=035|
2024-02-01 18:32:32.583 [35] [FixSender] (DEBUG) Sending 8=FIX.4.4|9=58|35=0|49=FIXCLIENT1|56=DMA_HUB|34=337|52=20240201-17:32:32|10=091|
2024-02-01 18:32:42.659 [34] [FixSender] (DEBUG) Receiving 8=FIX.4.4|9=62|35=0|34=340|49=DMA_HUB|56=FIXCLIENT1|52=20240201-17:32:42.659|10=035|
2024-02-01 18:33:02.598 [35] [FixSender] (DEBUG) Sending 8=FIX.4.4|9=58|35=0|49=FIXCLIENT1|56=DMA_HUB|34=338|52=20240201-17:33:02|10=090|
2024-02-01 18:33:12.625 [34] [FixSender] (DEBUG) Receiving 8=FIX.4.4|9=62|35=0|34=341|49=DMA_HUB|56=FIXCLIENT1|52=20240201-17:33:12.612|10=023|
2024-02-01 18:33:32.609 [35] [FixSender] (DEBUG) Sending 8=FIX.4.4|9=58|35=0|49=FIXCLIENT1|56=DMA_HUB|34=339|52=20240201-17:33:32|10=094|
2024-02-01 18:33:42.564 [34] [FixSender] (DEBUG) Receiving 8=FIX.4.4|9=62|35=0|34=342|49=DMA_HUB|56=FIXCLIENT1|52=20240201-17:33:42.564|10=033|
2024-02-01 18:34:02.617 [35] [FixSender] (DEBUG) Sending 8=FIX.4.4|9=58|35=0|49=FIXCLIENT1|56=DMA_HUB|34=340|52=20240201-17:34:02|10=084|
2024-02-01 18:34:12.516 [34] [FixSender] (DEBUG) Receiving 8=FIX.4.4|9=62|35=0|34=343|49=DMA_HUB|56=FIXCLIENT1|52=20240201-17:34:12.516|10=029|
2024-02-01 18:34:32.630 [35] [FixSender] (DEBUG) Sending 8=FIX.4.4|9=58|35=0|49=FIXCLIENT1|56=DMA_HUB|34=341|52=20240201-17:34:32|10=088|
2024-02-01 18:34:42.468 [34] [FixSender] (DEBUG) Receiving 8=FIX.4.4|9=62|35=0|34=344|49=DMA_HUB|56=FIXCLIENT1|52=20240201-17:34:42.468|10=039|
2024-02-01 18:35:02.638 [35] [FixSender] (DEBUG) Sending 8=FIX.4.4|9=58|35=0|49=FIXCLIENT1|56=DMA_HUB|34=342|52=20240201-17:35:02|10=087|
2024-02-01 18:35:12.420 [34] [FixSender] (DEBUG) Receiving 8=FIX.4.4|9=62|35=0|34=345|49=DMA_HUB|56=FIXCLIENT1|52=20240201-17:35:12.420|10=026|
2024-02-01 18:35:32.650 [35] [FixSender] (DEBUG) Sending 8=FIX.4.4|9=58|35=0|49=FIXCLIENT1|56=DMA_HUB|34=343|52=20240201-17:35:32|10=091|
2024-02-01 18:35:42.371 [34] [FixSender] (DEBUG) Receiving 8=FIX.4.4|9=62|35=0|34=346|49=DMA_HUB|56=FIXCLIENT1|52=20240201-17:35:42.371|10=035|
2024-02-01 18:36:02.652 [35] [FixSender] (DEBUG) Sending 8=FIX.4.4|9=58|35=0|49=FIXCLIENT1|56=DMA_HUB|34=344|52=20240201-17:36:02|10=090|
2024-02-01 18:36:12.325 [34] [FixSender] (DEBUG) Receiving 8=FIX.4.4|9=62|35=0|34=347|49=DMA_HUB|56=FIXCLIENT1|52=20240201-17:36:12.324|10=032|
2024-02-01 18:36:32.667 [35] [FixSender] (DEBUG) Sending 8=FIX.4.4|9=58|35=0|49=FIXCLIENT1|56=DMA_HUB|34=345|52=20240201-17:36:32|10=094|
2024-02-01 18:36:42.275 [34] [FixSender] (DEBUG) Receiving 8=FIX.4.4|9=62|35=0|34=348|49=DMA_HUB|56=FIXCLIENT1|52=20240201-17:36:42.275|10=041|
2024-02-01 18:37:02.675 [35] [FixSender] (DEBUG) Sending 8=FIX.4.4|9=58|35=0|49=FIXCLIENT1|56=DMA_HUB|34=346|52=20240201-17:37:02|10=093|
2024-02-01 18:37:12.228 [34] [FixSender] (DEBUG) Receiving 8=FIX.4.4|9=62|35=0|34=349|49=DMA_HUB|56=FIXCLIENT1|52=20240201-17:37:12.228|10=038|
2024-02-01 18:37:32.868 [35] [FixSender] (DEBUG) Sending 8=FIX.4.4|9=58|35=0|49=FIXCLIENT1|56=DMA_HUB|34=347|52=20240201-17:37:32|10=097|
2024-02-01 18:37:42.180 [34] [FixSender] (DEBUG) Receiving 8=FIX.4.4|9=62|35=0|34=350|49=DMA_HUB|56=FIXCLIENT1|52=20240201-17:37:42.180|10=030|
2024-02-01 18:38:02.869 [35] [FixSender] (DEBUG) Sending 8=FIX.4.4|9=58|35=0|49=FIXCLIENT1|56=DMA_HUB|34=348|52=20240201-17:38:02|10=096|
2024-02-01 18:38:12.132 [34] [FixSender] (DEBUG) Receiving 8=FIX.4.4|9=62|35=0|34=351|49=DMA_HUB|56=FIXCLIENT1|52=20240201-17:38:12.132|10=026|
2024-02-01 18:38:32.884 [35] [FixSender] (DEBUG) Sending 8=FIX.4.4|9=58|35=0|49=FIXCLIENT1|56=DMA_HUB|34=349|52=20240201-17:38:32|10=100|
2024-02-01 18:38:42.084 [34] [FixSender] (DEBUG) Receiving 8=FIX.4.4|9=62|35=0|34=352|49=DMA_HUB|56=FIXCLIENT1|52=20240201-17:38:42.084|10=036|
