2024-02-22 13:54:29.938 [1] [Fixsender] (INFO) (c) 2001-2011 ullink SAS. FixSender. Release 1.11.
2024-02-22 13:54:35.159 [30] [FixSender] (INFO) try to connect to : localhost port :12345
2024-02-22 13:54:35.183 [30] [FixSender] (INFO) physical cnx initiated
2024-02-22 13:54:35.198 [30] [FixSender] (DEBUG) Sending 8=FIX.4.4|9=86|35=A|49=FIXCLIENT1|56=DMA_HUB|34=1|52=20240222-12:54:35|98=0|108=30|95=9|96=null/null|10=086|
2024-02-22 13:54:35.204 [30] [FixSender] (DEBUG) Receiving 8=FIX.4.4|9=72|35=A|34=1|49=DMA_HUB|56=FIXCLIENT1|52=20240222-12:54:35.198|108=30|98=0|10=234|
2024-02-22 13:54:35.204 [30] [FixSender] (WARNING) The Fix connection is open...
2024-02-22 13:54:35.210 [30] [FixSender] (DEBUG) Sending 8=FIX.4.4|9=74|35=1|49=FIXCLIENT1|56=DMA_HUB|34=2|52=20240222-12:54:35|112=synchronized?|10=037|
2024-02-22 13:54:35.210 [30] [FixSender] (DEBUG) Receiving 8=FIX.4.4|9=78|35=0|34=2|49=DMA_HUB|56=FIXCLIENT1|52=20240222-12:54:35.210|112=synchronized?|10=233|
2024-02-22 13:54:37.963 [33] [FixSender] (DEBUG) Sending 8=FIX.4.4|9=196|35=D|49=FIXCLIENT1|56=DMA_HUB|34=3|52=20240222-12:54:37|21=1|11=HS_17086064770|38=4145|55=E:07G@XETR|54=2|60=20240222-12:54:37|40=2|59=0|44=197.111|48=US3390411052|22=4|15=EUR|207=XETR|1=bram_123|10=038|
2024-02-22 13:54:37.973 [30] [FixSender] (DEBUG) Receiving 8=FIX.4.4|9=238|35=8|34=3|49=DMA_HUB|56=FIXCLIENT1|52=20240222-12:54:37.963|11=HS_17086064770|37=FXFJzAcHN|54=2|40=2|59=0|17=202402221|150=A|39=A|38=4145|151=4145|14=0|6=0|44=197.111|60=20240222-12:54:37.000|22=4|48=US3390411052|207=XETR|15=EUR|55=[N/A]|10=156|
2024-02-22 13:55:03.784 [30] [FixSender] (DEBUG) Receiving 8=FIX.4.4|9=233|35=8|34=4|49=DMA_HUB|56=FIXCLIENT1|52=20240222-12:55:03.783|11=HS_17086064770|37=FXFJzAcHN|54=2|40=2|59=0|17=202402222|150=A|39=A|38=4145|151=4145|14=0|6=0|44=97|60=20240222-12:54:37.989|22=4|48=US3390411052|207=XETR|15=EUR|55=[N/A]|10=187|
2024-02-22 13:55:05.164 [30] [FixSender] (DEBUG) Receiving 8=FIX.4.4|9=60|35=0|34=5|49=DMA_HUB|56=FIXCLIENT1|52=20240222-12:55:05.163|10=183|
2024-02-22 13:55:07.967 [31] [FixSender] (DEBUG) Sending 8=FIX.4.4|9=56|35=0|49=FIXCLIENT1|56=DMA_HUB|34=4|52=20240222-12:55:07|10=245|
2024-02-22 13:55:35.111 [30] [FixSender] (DEBUG) Receiving 8=FIX.4.4|9=60|35=0|34=6|49=DMA_HUB|56=FIXCLIENT1|52=20240222-12:55:35.111|10=180|
2024-02-22 13:55:37.969 [31] [FixSender] (DEBUG) Sending 8=FIX.4.4|9=56|35=0|49=FIXCLIENT1|56=DMA_HUB|34=5|52=20240222-12:55:37|10=249|
2024-02-22 13:56:05.062 [30] [FixSender] (DEBUG) Receiving 8=FIX.4.4|9=60|35=0|34=7|49=DMA_HUB|56=FIXCLIENT1|52=20240222-12:56:05.062|10=184|
2024-02-22 13:56:07.971 [31] [FixSender] (DEBUG) Sending 8=FIX.4.4|9=56|35=0|49=FIXCLIENT1|56=DMA_HUB|34=6|52=20240222-12:56:07|10=248|
2024-02-22 13:56:35.018 [30] [FixSender] (DEBUG) Receiving 8=FIX.4.4|9=60|35=0|34=8|49=DMA_HUB|56=FIXCLIENT1|52=20240222-12:56:35.018|10=189|
2024-02-22 13:56:37.981 [31] [FixSender] (DEBUG) Sending 8=FIX.4.4|9=56|35=0|49=FIXCLIENT1|56=DMA_HUB|34=7|52=20240222-12:56:37|10=252|
2024-02-22 13:57:04.970 [30] [FixSender] (DEBUG) Receiving 8=FIX.4.4|9=60|35=0|34=9|49=DMA_HUB|56=FIXCLIENT1|52=20240222-12:57:04.970|10=194|
2024-02-22 13:57:07.988 [31] [FixSender] (DEBUG) Sending 8=FIX.4.4|9=56|35=0|49=FIXCLIENT1|56=DMA_HUB|34=8|52=20240222-12:57:07|10=251|
2024-02-22 13:57:34.931 [30] [FixSender] (DEBUG) Receiving 8=FIX.4.4|9=61|35=0|34=10|49=DMA_HUB|56=FIXCLIENT1|52=20240222-12:57:34.929|10=242|
2024-02-22 13:57:37.993 [31] [FixSender] (DEBUG) Sending 8=FIX.4.4|9=56|35=0|49=FIXCLIENT1|56=DMA_HUB|34=9|52=20240222-12:57:37|10=255|
2024-02-22 13:57:39.921 [34] [FixSender] (DEBUG) Sending 8=FIX.4.4|9=204|35=D|49=FIXCLIENT1|56=DMA_HUB|34=10|52=20240222-12:57:39|21=3|11=HS_17086066591|38=2|55=ORANGE|54=1|60=20240222-12:57:39|40=2|59=0|44=50|48=FR0000133308|22=4|15=EUR|207=XPAR|58=Urgent|109=bram|1=bram_123|10=067|
2024-02-22 13:57:39.931 [30] [FixSender] (DEBUG) Receiving 8=FIX.4.4|9=265|35=8|34=11|49=DMA_HUB|56=FIXCLIENT1|52=20240222-12:57:39.921|11=HS_17086066591|37=NONE|38=2|151=0|14=0|17=202402223|150=8|39=8|6=0|44=50|54=1|40=2|59=0|22=4|48=FR0000133308|55=ORANGE|207=XPAR|15=EUR|58=Cannot resolve instrument 22=4;48=FR0000133308;207=XPAR;15=EUR|10=080|
2024-02-22 13:57:43.577 [35] [FixSender] (DEBUG) Sending 8=FIX.4.4|9=212|35=D|49=FIXCLIENT1|56=DMA_HUB|34=11|52=20240222-12:57:43|21=1|11=HS_17086066632|38=861|55=PERNOD RICARD|54=2|60=20240222-12:57:43|40=2|59=0|44=190|48=FR0000120693|22=4|15=EUR|207=XPAR|109=fidameur|1=fidameur_123|10=240|
2024-02-22 13:57:43.579 [30] [FixSender] (DEBUG) Receiving 8=FIX.4.4|9=275|35=8|34=12|49=DMA_HUB|56=FIXCLIENT1|52=20240222-12:57:43.578|11=HS_17086066632|37=NONE|38=861|151=0|14=0|17=202402224|150=8|39=8|6=0|44=190|54=2|40=2|59=0|22=4|48=FR0000120693|55=PERNOD RICARD|207=XPAR|15=EUR|58=Cannot resolve instrument 22=4;48=FR0000120693;207=XPAR;15=EUR|10=220|
2024-02-22 14:00:50.764 [1] [Fixsender] (INFO) (c) 2001-2011 ullink SAS. FixSender. Release 1.11.
2024-02-22 14:00:54.923 [29] [FixSender] (INFO) try to connect to : localhost port :12345
2024-02-22 14:00:54.939 [29] [FixSender] (INFO) physical cnx initiated
2024-02-22 14:00:54.962 [29] [FixSender] (DEBUG) Sending 8=FIX.4.4|9=87|35=A|49=FIXCLIENT1|56=DMA_HUB|34=12|52=20240222-13:00:54|98=0|108=30|95=9|96=null/null|10=130|
2024-02-22 14:00:54.962 [29] [FixSender] (DEBUG) Receiving 8=FIX.4.4|9=73|35=A|34=13|49=DMA_HUB|56=FIXCLIENT1|52=20240222-13:00:54.962|108=30|98=0|10=022|
2024-02-22 14:00:54.962 [29] [FixSender] (WARNING) The Fix connection is open...
2024-02-22 14:00:54.970 [29] [FixSender] (DEBUG) Sending 8=FIX.4.4|9=75|35=1|49=FIXCLIENT1|56=DMA_HUB|34=13|52=20240222-13:00:54|112=synchronized?|10=081|
2024-02-22 14:00:54.970 [29] [FixSender] (DEBUG) Receiving 8=FIX.4.4|9=79|35=0|34=14|49=DMA_HUB|56=FIXCLIENT1|52=20240222-13:00:54.970|112=synchronized?|10=035|
2024-02-22 14:00:56.576 [32] [FixSender] (DEBUG) Sending 8=FIX.4.4|9=197|35=D|49=FIXCLIENT1|56=DMA_HUB|34=14|52=20240222-13:00:56|21=1|11=HS_17086068560|38=4528|55=E:07G@XETR|54=2|60=20240222-13:00:56|40=2|59=0|44=197.111|48=US3390411052|22=4|15=EUR|207=XETR|1=bram_123|10=081|
2024-02-22 14:00:56.580 [29] [FixSender] (DEBUG) Receiving 8=FIX.4.4|9=239|35=8|34=15|49=DMA_HUB|56=FIXCLIENT1|52=20240222-13:00:56.576|11=HS_17086068560|37=FXGJzAcHN|54=2|40=2|59=0|17=202402225|150=A|39=A|38=4528|151=4528|14=0|6=0|44=197.111|60=20240222-13:00:56.000|22=4|48=US3390411052|207=XETR|15=EUR|55=[N/A]|10=210|
2024-02-22 14:01:24.949 [29] [FixSender] (DEBUG) Receiving 8=FIX.4.4|9=61|35=0|34=16|49=DMA_HUB|56=FIXCLIENT1|52=20240222-13:01:24.948|10=238|
2024-02-22 14:01:26.578 [30] [FixSender] (DEBUG) Sending 8=FIX.4.4|9=57|35=0|49=FIXCLIENT1|56=DMA_HUB|34=15|52=20240222-13:01:26|10=033|
2024-02-22 14:01:54.948 [29] [FixSender] (DEBUG) Receiving 8=FIX.4.4|9=61|35=0|34=17|49=DMA_HUB|56=FIXCLIENT1|52=20240222-13:01:54.948|10=242|
2024-02-22 14:01:56.589 [30] [FixSender] (DEBUG) Sending 8=FIX.4.4|9=57|35=0|49=FIXCLIENT1|56=DMA_HUB|34=16|52=20240222-13:01:56|10=037|
2024-02-22 14:02:24.911 [29] [FixSender] (DEBUG) Receiving 8=FIX.4.4|9=61|35=0|34=18|49=DMA_HUB|56=FIXCLIENT1|52=20240222-13:02:24.911|10=231|
2024-02-22 14:02:26.597 [30] [FixSender] (DEBUG) Sending 8=FIX.4.4|9=57|35=0|49=FIXCLIENT1|56=DMA_HUB|34=17|52=20240222-13:02:26|10=036|
2024-02-22 14:02:54.859 [29] [FixSender] (DEBUG) Receiving 8=FIX.4.4|9=61|35=0|34=19|49=DMA_HUB|56=FIXCLIENT1|52=20240222-13:02:54.856|10=243|
2024-02-22 14:02:56.612 [30] [FixSender] (DEBUG) Sending 8=FIX.4.4|9=57|35=0|49=FIXCLIENT1|56=DMA_HUB|34=18|52=20240222-13:02:56|10=040|
2024-02-22 14:03:24.820 [29] [FixSender] (DEBUG) Receiving 8=FIX.4.4|9=61|35=0|34=20|49=DMA_HUB|56=FIXCLIENT1|52=20240222-13:03:24.819|10=232|
2024-02-22 14:03:26.618 [30] [FixSender] (DEBUG) Sending 8=FIX.4.4|9=57|35=0|49=FIXCLIENT1|56=DMA_HUB|34=19|52=20240222-13:03:26|10=039|
2024-02-22 14:03:54.827 [29] [FixSender] (DEBUG) Receiving 8=FIX.4.4|9=61|35=0|34=21|49=DMA_HUB|56=FIXCLIENT1|52=20240222-13:03:54.827|10=235|
2024-02-22 14:03:56.631 [30] [FixSender] (DEBUG) Sending 8=FIX.4.4|9=57|35=0|49=FIXCLIENT1|56=DMA_HUB|34=20|52=20240222-13:03:56|10=034|
2024-02-22 14:04:24.780 [29] [FixSender] (DEBUG) Receiving 8=FIX.4.4|9=61|35=0|34=22|49=DMA_HUB|56=FIXCLIENT1|52=20240222-13:04:24.779|10=240|
2024-02-22 14:04:26.645 [30] [FixSender] (DEBUG) Sending 8=FIX.4.4|9=57|35=0|49=FIXCLIENT1|56=DMA_HUB|34=21|52=20240222-13:04:26|10=033|
2024-02-22 14:04:54.733 [29] [FixSender] (DEBUG) Receiving 8=FIX.4.4|9=61|35=0|34=23|49=DMA_HUB|56=FIXCLIENT1|52=20240222-13:04:54.733|10=234|
2024-02-22 14:04:56.657 [30] [FixSender] (DEBUG) Sending 8=FIX.4.4|9=57|35=0|49=FIXCLIENT1|56=DMA_HUB|34=22|52=20240222-13:04:56|10=037|
2024-02-22 14:05:24.685 [29] [FixSender] (DEBUG) Receiving 8=FIX.4.4|9=61|35=0|34=24|49=DMA_HUB|56=FIXCLIENT1|52=20240222-13:05:24.684|10=238|
2024-02-22 14:05:26.660 [30] [FixSender] (DEBUG) Sending 8=FIX.4.4|9=57|35=0|49=FIXCLIENT1|56=DMA_HUB|34=23|52=20240222-13:05:26|10=036|
2024-02-22 14:05:54.642 [29] [FixSender] (DEBUG) Receiving 8=FIX.4.4|9=61|35=0|34=25|49=DMA_HUB|56=FIXCLIENT1|52=20240222-13:05:54.642|10=236|
2024-02-22 14:05:56.666 [30] [FixSender] (DEBUG) Sending 8=FIX.4.4|9=57|35=0|49=FIXCLIENT1|56=DMA_HUB|34=24|52=20240222-13:05:56|10=040|
2024-02-22 14:06:24.581 [29] [FixSender] (DEBUG) Receiving 8=FIX.4.4|9=61|35=0|34=26|49=DMA_HUB|56=FIXCLIENT1|52=20240222-13:06:24.581|10=237|
2024-02-22 14:06:26.671 [30] [FixSender] (DEBUG) Sending 8=FIX.4.4|9=57|35=0|49=FIXCLIENT1|56=DMA_HUB|34=25|52=20240222-13:06:26|10=039|
2024-02-22 14:06:52.544 [33] [FixSender] (DEBUG) Sending 8=FIX.4.4|9=197|35=D|49=FIXCLIENT1|56=DMA_HUB|34=26|52=20240222-13:06:52|21=1|11=HS_17086072121|38=2751|55=E:07G@XETR|54=2|60=20240222-13:06:52|40=2|59=0|44=197.111|48=US3390411052|22=4|15=EUR|207=XETR|1=bram_123|10=072|
2024-02-22 14:06:52.544 [29] [FixSender] (DEBUG) Receiving 8=FIX.4.4|9=239|35=8|34=27|49=DMA_HUB|56=FIXCLIENT1|52=20240222-13:06:52.544|11=HS_17086072121|37=FXHJzAcHN|54=2|40=2|59=0|17=202402226|150=A|39=A|38=2751|151=2751|14=0|6=0|44=197.111|60=20240222-13:06:52.000|22=4|48=US3390411052|207=XETR|15=EUR|55=[N/A]|10=194|
2024-02-22 14:06:54.544 [29] [FixSender] (DEBUG) Receiving 8=FIX.4.4|9=61|35=0|34=28|49=DMA_HUB|56=FIXCLIENT1|52=20240222-13:06:54.543|10=240|
2024-02-22 14:07:22.550 [30] [FixSender] (DEBUG) Sending 8=FIX.4.4|9=57|35=0|49=FIXCLIENT1|56=DMA_HUB|34=27|52=20240222-13:07:22|10=038|
2024-02-22 14:07:24.489 [29] [FixSender] (DEBUG) Receiving 8=FIX.4.4|9=61|35=0|34=29|49=DMA_HUB|56=FIXCLIENT1|52=20240222-13:07:24.489|10=248|
2024-02-22 14:07:52.557 [30] [FixSender] (DEBUG) Sending 8=FIX.4.4|9=57|35=0|49=FIXCLIENT1|56=DMA_HUB|34=28|52=20240222-13:07:52|10=042|
2024-02-22 14:07:54.437 [29] [FixSender] (DEBUG) Receiving 8=FIX.4.4|9=61|35=0|34=30|49=DMA_HUB|56=FIXCLIENT1|52=20240222-13:07:54.437|10=236|
2024-02-22 14:08:22.575 [30] [FixSender] (DEBUG) Sending 8=FIX.4.4|9=57|35=0|49=FIXCLIENT1|56=DMA_HUB|34=29|52=20240222-13:08:22|10=041|
2024-02-22 14:08:24.400 [29] [FixSender] (DEBUG) Receiving 8=FIX.4.4|9=61|35=0|34=31|49=DMA_HUB|56=FIXCLIENT1|52=20240222-13:08:24.399|10=242|
2024-02-22 14:08:52.590 [30] [FixSender] (DEBUG) Sending 8=FIX.4.4|9=57|35=0|49=FIXCLIENT1|56=DMA_HUB|34=30|52=20240222-13:08:52|10=036|
2024-02-22 14:08:54.351 [29] [FixSender] (DEBUG) Receiving 8=FIX.4.4|9=61|35=0|34=32|49=DMA_HUB|56=FIXCLIENT1|52=20240222-13:08:54.350|10=233|
2024-02-22 14:09:22.597 [30] [FixSender] (DEBUG) Sending 8=FIX.4.4|9=57|35=0|49=FIXCLIENT1|56=DMA_HUB|34=31|52=20240222-13:09:22|10=035|
2024-02-22 14:09:23.382 [29] [FixSender] (DEBUG) Receiving 8=FIX.4.4|9=61|35=5|34=33|49=DMA_HUB|56=FIXCLIENT1|52=20240222-13:09:23.382|10=241|
2024-02-22 14:09:23.382 [29] [FixSender] (DEBUG) Sending 8=FIX.4.4|9=79|35=5|49=FIXCLIENT1|56=DMA_HUB|34=32|52=20240222-13:09:23|58=Replying to logout|10=224|
2024-02-22 14:09:23.382 [29] [FixSender] (WARNING) The Fix connection is close...
2024-02-22 14:09:23.382 [29] [FixSender] (INFO) physical cnx finished Connection reset by peer
2024-02-22 14:09:23.382 [29] [FixSender] (WARNING) Disconnected
2024-02-22 14:13:31.389 [34] [FixSender] (INFO) try to connect to : localhost port :12345
2024-02-22 14:13:31.389 [34] [FixSender] (INFO) physical cnx initiated
2024-02-22 14:13:31.389 [34] [FixSender] (DEBUG) Sending 8=FIX.4.4|9=87|35=A|49=FIXCLIENT1|56=DMA_HUB|34=33|52=20240222-13:13:31|98=0|108=30|95=9|96=null/null|10=132|
2024-02-22 14:13:31.395 [34] [FixSender] (DEBUG) Receiving 8=FIX.4.4|9=73|35=A|34=34|49=DMA_HUB|56=FIXCLIENT1|52=20240222-13:13:31.395|108=30|98=0|10=024|
2024-02-22 14:13:31.395 [34] [FixSender] (WARNING) The Fix connection is open...
2024-02-22 14:13:31.395 [34] [FixSender] (DEBUG) Sending 8=FIX.4.4|9=75|35=1|49=FIXCLIENT1|56=DMA_HUB|34=34|52=20240222-13:13:31|112=synchronized?|10=083|
2024-02-22 14:13:31.405 [34] [FixSender] (DEBUG) Receiving 8=FIX.4.4|9=79|35=0|34=35|49=DMA_HUB|56=FIXCLIENT1|52=20240222-13:13:31.405|112=synchronized?|10=030|
2024-02-22 14:13:32.733 [37] [FixSender] (DEBUG) Sending 8=FIX.4.4|9=197|35=D|49=FIXCLIENT1|56=DMA_HUB|34=35|52=20240222-13:13:32|21=1|11=HS_17086076122|38=4222|55=E:07G@XETR|54=2|60=20240222-13:13:32|40=2|59=0|44=197.111|48=US3390411052|22=4|15=EUR|207=XETR|1=bram_123|10=064|
2024-02-22 14:13:32.733 [34] [FixSender] (DEBUG) Receiving 8=FIX.4.4|9=239|35=8|34=36|49=DMA_HUB|56=FIXCLIENT1|52=20240222-13:13:32.733|11=HS_17086076122|37=FXLgHyJ2P|54=2|40=2|59=0|17=202402227|150=A|39=A|38=4222|151=4222|14=0|6=0|44=197.111|60=20240222-13:13:32.000|22=4|48=US3390411052|207=XETR|15=EUR|55=[N/A]|10=176|
2024-02-22 14:14:01.362 [34] [FixSender] (DEBUG) Receiving 8=FIX.4.4|9=61|35=0|34=37|49=DMA_HUB|56=FIXCLIENT1|52=20240222-13:14:01.361|10=229|
2024-02-22 14:14:02.744 [35] [FixSender] (DEBUG) Sending 8=FIX.4.4|9=57|35=0|49=FIXCLIENT1|56=DMA_HUB|34=36|52=20240222-13:14:02|10=034|
2024-02-22 14:14:31.302 [34] [FixSender] (DEBUG) Receiving 8=FIX.4.4|9=61|35=0|34=38|49=DMA_HUB|56=FIXCLIENT1|52=20240222-13:14:31.302|10=228|
2024-02-22 14:14:32.757 [35] [FixSender] (DEBUG) Sending 8=FIX.4.4|9=57|35=0|49=FIXCLIENT1|56=DMA_HUB|34=37|52=20240222-13:14:32|10=038|
2024-02-22 14:15:01.263 [34] [FixSender] (DEBUG) Receiving 8=FIX.4.4|9=61|35=0|34=39|49=DMA_HUB|56=FIXCLIENT1|52=20240222-13:15:01.262|10=232|
2024-02-22 14:15:02.770 [35] [FixSender] (DEBUG) Sending 8=FIX.4.4|9=57|35=0|49=FIXCLIENT1|56=DMA_HUB|34=38|52=20240222-13:15:02|10=037|
2024-02-22 14:15:29.874 [39] [FixSender] (DEBUG) Sending 8=FIX.4.4|9=193|35=D|49=FIXCLIENT1|56=DMA_HUB|34=39|52=20240222-13:15:29|21=1|11=HS_17086077290|38=4089|55=E:07G@XETR|54=2|60=20240222-13:15:29|40=2|59=0|44=197|48=US3390411052|22=4|15=EUR|207=XETR|1=bram_123|10=161|
2024-02-22 14:15:29.876 [34] [FixSender] (DEBUG) Receiving 8=FIX.4.4|9=235|35=8|34=40|49=DMA_HUB|56=FIXCLIENT1|52=20240222-13:15:29.875|11=HS_17086077290|37=FXMgHyJ2P|54=2|40=2|59=0|17=202402228|150=A|39=A|38=4089|151=4089|14=0|6=0|44=197|60=20240222-13:15:29.000|22=4|48=US3390411052|207=XETR|15=EUR|55=[N/A]|10=028|
2024-02-22 14:15:31.211 [34] [FixSender] (DEBUG) Receiving 8=FIX.4.4|9=61|35=0|34=41|49=DMA_HUB|56=FIXCLIENT1|52=20240222-13:15:31.210|10=221|
2024-02-22 14:15:59.875 [35] [FixSender] (DEBUG) Sending 8=FIX.4.4|9=57|35=0|49=FIXCLIENT1|56=DMA_HUB|34=40|52=20240222-13:15:59|10=042|
2024-02-22 14:16:01.164 [34] [FixSender] (DEBUG) Receiving 8=FIX.4.4|9=61|35=0|34=42|49=DMA_HUB|56=FIXCLIENT1|52=20240222-13:16:01.163|10=227|
2024-02-22 14:16:29.883 [35] [FixSender] (DEBUG) Sending 8=FIX.4.4|9=57|35=0|49=FIXCLIENT1|56=DMA_HUB|34=41|52=20240222-13:16:29|10=041|
2024-02-22 14:16:31.121 [34] [FixSender] (DEBUG) Receiving 8=FIX.4.4|9=61|35=0|34=43|49=DMA_HUB|56=FIXCLIENT1|52=20240222-13:16:31.120|10=224|
2024-02-22 14:16:59.897 [35] [FixSender] (DEBUG) Sending 8=FIX.4.4|9=57|35=0|49=FIXCLIENT1|56=DMA_HUB|34=42|52=20240222-13:16:59|10=045|
2024-02-22 14:17:01.074 [34] [FixSender] (DEBUG) Receiving 8=FIX.4.4|9=61|35=0|34=44|49=DMA_HUB|56=FIXCLIENT1|52=20240222-13:17:01.073|10=230|
2024-02-22 14:17:29.901 [35] [FixSender] (DEBUG) Sending 8=FIX.4.4|9=57|35=0|49=FIXCLIENT1|56=DMA_HUB|34=43|52=20240222-13:17:29|10=044|
2024-02-22 14:17:31.016 [34] [FixSender] (DEBUG) Receiving 8=FIX.4.4|9=61|35=0|34=45|49=DMA_HUB|56=FIXCLIENT1|52=20240222-13:17:31.016|10=231|
2024-02-22 14:17:59.913 [35] [FixSender] (DEBUG) Sending 8=FIX.4.4|9=57|35=0|49=FIXCLIENT1|56=DMA_HUB|34=44|52=20240222-13:17:59|10=048|
2024-02-22 14:18:00.976 [34] [FixSender] (DEBUG) Receiving 8=FIX.4.4|9=61|35=0|34=46|49=DMA_HUB|56=FIXCLIENT1|52=20240222-13:18:00.975|10=243|
2024-02-22 14:18:29.922 [35] [FixSender] (DEBUG) Sending 8=FIX.4.4|9=57|35=0|49=FIXCLIENT1|56=DMA_HUB|34=45|52=20240222-13:18:29|10=047|
2024-02-22 14:18:30.923 [34] [FixSender] (DEBUG) Receiving 8=FIX.4.4|9=61|35=0|34=47|49=DMA_HUB|56=FIXCLIENT1|52=20240222-13:18:30.923|10=240|
2024-02-22 14:19:48.896 [1] [Fixsender] (INFO) (c) 2001-2011 ullink SAS. FixSender. Release 1.11.
2024-02-22 14:20:06.487 [29] [FixSender] (INFO) try to connect to : localhost port :12345
2024-02-22 14:20:06.513 [29] [FixSender] (INFO) physical cnx initiated
2024-02-22 14:20:06.524 [29] [FixSender] (DEBUG) Sending 8=FIX.4.4|9=87|35=A|49=FIXCLIENT1|56=DMA_HUB|34=46|52=20240222-13:20:06|98=0|108=30|95=9|96=null/null|10=136|
2024-02-22 14:20:06.525 [29] [FixSender] (DEBUG) Receiving 8=FIX.4.4|9=73|35=A|34=48|49=DMA_HUB|56=FIXCLIENT1|52=20240222-13:20:06.525|108=30|98=0|10=024|
2024-02-22 14:20:06.528 [29] [FixSender] (WARNING) The Fix connection is open...
2024-02-22 14:20:06.534 [29] [FixSender] (DEBUG) Sending 8=FIX.4.4|9=75|35=1|49=FIXCLIENT1|56=DMA_HUB|34=47|52=20240222-13:20:06|112=synchronized?|10=087|
2024-02-22 14:20:06.535 [29] [FixSender] (DEBUG) Receiving 8=FIX.4.4|9=79|35=0|34=49|49=DMA_HUB|56=FIXCLIENT1|52=20240222-13:20:06.535|112=synchronized?|10=039|
2024-02-22 14:20:08.466 [32] [FixSender] (DEBUG) Sending 8=FIX.4.4|9=192|35=D|49=FIXCLIENT1|56=DMA_HUB|34=48|52=20240222-13:20:08|21=1|11=HS_17086080080|38=473|55=E:07G@XETR|54=1|60=20240222-13:20:08|40=2|59=0|44=197|48=US3390411052|22=4|15=EUR|207=XETR|1=bram_123|10=081|
2024-02-22 14:20:08.469 [29] [FixSender] (DEBUG) Receiving 8=FIX.4.4|9=233|35=8|34=50|49=DMA_HUB|56=FIXCLIENT1|52=20240222-13:20:08.467|11=HS_17086080080|37=FXNgHyJ2P|54=1|40=2|59=0|17=202402229|150=A|39=A|38=473|151=473|14=0|6=0|44=197|60=20240222-13:20:08.000|22=4|48=US3390411052|207=XETR|15=EUR|55=[N/A]|10=148|
2024-02-22 14:20:18.804 [33] [FixSender] (DEBUG) Sending 8=FIX.4.4|9=193|35=D|49=FIXCLIENT1|56=DMA_HUB|34=49|52=20240222-13:20:18|21=1|11=HS_17086080181|38=2203|55=E:07G@XETR|54=2|60=20240222-13:20:18|40=2|59=0|44=197|48=US3390411052|22=4|15=EUR|207=XETR|1=bram_123|10=129|
2024-02-22 14:20:18.806 [29] [FixSender] (DEBUG) Receiving 8=FIX.4.4|9=236|35=8|34=51|49=DMA_HUB|56=FIXCLIENT1|52=20240222-13:20:18.805|11=HS_17086080181|37=FXOgHyJ2P|54=2|40=2|59=0|17=2024022210|150=A|39=A|38=2203|151=2203|14=0|6=0|44=197|60=20240222-13:20:18.000|22=4|48=US3390411052|207=XETR|15=EUR|55=[N/A]|10=020|
2024-02-22 14:20:36.502 [29] [FixSender] (DEBUG) Receiving 8=FIX.4.4|9=61|35=0|34=52|49=DMA_HUB|56=FIXCLIENT1|52=20240222-13:20:36.501|10=227|
2024-02-22 14:20:48.813 [30] [FixSender] (DEBUG) Sending 8=FIX.4.4|9=57|35=0|49=FIXCLIENT1|56=DMA_HUB|34=50|52=20240222-13:20:48|10=037|
2024-02-22 14:21:06.452 [29] [FixSender] (DEBUG) Receiving 8=FIX.4.4|9=61|35=0|34=53|49=DMA_HUB|56=FIXCLIENT1|52=20240222-13:21:06.451|10=230|
2024-02-22 14:21:18.823 [30] [FixSender] (DEBUG) Sending 8=FIX.4.4|9=57|35=0|49=FIXCLIENT1|56=DMA_HUB|34=51|52=20240222-13:21:18|10=036|
2024-02-22 14:21:36.397 [29] [FixSender] (DEBUG) Receiving 8=FIX.4.4|9=61|35=0|34=54|49=DMA_HUB|56=FIXCLIENT1|52=20240222-13:21:36.396|10=242|
2024-02-22 14:21:48.834 [30] [FixSender] (DEBUG) Sending 8=FIX.4.4|9=57|35=0|49=FIXCLIENT1|56=DMA_HUB|34=52|52=20240222-13:21:48|10=040|
2024-02-22 14:22:06.363 [29] [FixSender] (DEBUG) Receiving 8=FIX.4.4|9=61|35=0|34=55|49=DMA_HUB|56=FIXCLIENT1|52=20240222-13:22:06.359|10=240|
2024-02-22 14:22:18.837 [30] [FixSender] (DEBUG) Sending 8=FIX.4.4|9=57|35=0|49=FIXCLIENT1|56=DMA_HUB|34=53|52=20240222-13:22:18|10=039|
2024-02-22 14:22:36.313 [29] [FixSender] (DEBUG) Receiving 8=FIX.4.4|9=61|35=0|34=56|49=DMA_HUB|56=FIXCLIENT1|52=20240222-13:22:36.310|10=231|
2024-02-22 14:22:48.841 [30] [FixSender] (DEBUG) Sending 8=FIX.4.4|9=57|35=0|49=FIXCLIENT1|56=DMA_HUB|34=54|52=20240222-13:22:48|10=043|
2024-02-22 14:23:06.263 [29] [FixSender] (DEBUG) Receiving 8=FIX.4.4|9=61|35=0|34=57|49=DMA_HUB|56=FIXCLIENT1|52=20240222-13:23:06.263|10=237|
2024-02-22 14:23:18.848 [30] [FixSender] (DEBUG) Sending 8=FIX.4.4|9=57|35=0|49=FIXCLIENT1|56=DMA_HUB|34=55|52=20240222-13:23:18|10=042|
2024-02-22 14:23:36.216 [29] [FixSender] (DEBUG) Receiving 8=FIX.4.4|9=61|35=0|34=58|49=DMA_HUB|56=FIXCLIENT1|52=20240222-13:23:36.215|10=238|
2024-02-22 14:23:48.855 [30] [FixSender] (DEBUG) Sending 8=FIX.4.4|9=57|35=0|49=FIXCLIENT1|56=DMA_HUB|34=56|52=20240222-13:23:48|10=046|
2024-02-22 14:24:06.158 [29] [FixSender] (DEBUG) Receiving 8=FIX.4.4|9=61|35=0|34=59|49=DMA_HUB|56=FIXCLIENT1|52=20240222-13:24:06.158|10=243|
2024-02-22 14:24:18.863 [30] [FixSender] (DEBUG) Sending 8=FIX.4.4|9=57|35=0|49=FIXCLIENT1|56=DMA_HUB|34=57|52=20240222-13:24:18|10=045|
2024-02-22 14:24:36.123 [29] [FixSender] (DEBUG) Receiving 8=FIX.4.4|9=61|35=0|34=60|49=DMA_HUB|56=FIXCLIENT1|52=20240222-13:24:36.122|10=229|
2024-02-22 14:24:48.872 [30] [FixSender] (DEBUG) Sending 8=FIX.4.4|9=57|35=0|49=FIXCLIENT1|56=DMA_HUB|34=58|52=20240222-13:24:48|10=049|
2024-02-22 14:25:06.122 [29] [FixSender] (DEBUG) Receiving 8=FIX.4.4|9=61|35=0|34=61|49=DMA_HUB|56=FIXCLIENT1|52=20240222-13:25:06.122|10=228|
2024-02-22 14:25:18.888 [30] [FixSender] (DEBUG) Sending 8=FIX.4.4|9=57|35=0|49=FIXCLIENT1|56=DMA_HUB|34=59|52=20240222-13:25:18|10=048|
2024-02-22 14:25:36.088 [29] [FixSender] (DEBUG) Receiving 8=FIX.4.4|9=61|35=0|34=62|49=DMA_HUB|56=FIXCLIENT1|52=20240222-13:25:36.087|10=242|
2024-02-22 14:25:48.903 [30] [FixSender] (DEBUG) Sending 8=FIX.4.4|9=57|35=0|49=FIXCLIENT1|56=DMA_HUB|34=60|52=20240222-13:25:48|10=043|
2024-02-22 14:26:06.036 [29] [FixSender] (DEBUG) Receiving 8=FIX.4.4|9=61|35=0|34=63|49=DMA_HUB|56=FIXCLIENT1|52=20240222-13:26:06.036|10=235|
2024-02-22 14:26:18.908 [30] [FixSender] (DEBUG) Sending 8=FIX.4.4|9=57|35=0|49=FIXCLIENT1|56=DMA_HUB|34=61|52=20240222-13:26:18|10=042|
2024-02-22 14:26:35.979 [29] [FixSender] (DEBUG) Receiving 8=FIX.4.4|9=61|35=0|34=64|49=DMA_HUB|56=FIXCLIENT1|52=20240222-13:26:35.978|10=253|
2024-02-22 14:26:48.916 [30] [FixSender] (DEBUG) Sending 8=FIX.4.4|9=57|35=0|49=FIXCLIENT1|56=DMA_HUB|34=62|52=20240222-13:26:48|10=046|
2024-02-22 14:27:05.937 [29] [FixSender] (DEBUG) Receiving 8=FIX.4.4|9=61|35=0|34=65|49=DMA_HUB|56=FIXCLIENT1|52=20240222-13:27:05.937|10=247|
2024-02-22 14:27:18.931 [30] [FixSender] (DEBUG) Sending 8=FIX.4.4|9=57|35=0|49=FIXCLIENT1|56=DMA_HUB|34=63|52=20240222-13:27:18|10=045|
2024-02-22 14:27:35.889 [29] [FixSender] (DEBUG) Receiving 8=FIX.4.4|9=61|35=0|34=66|49=DMA_HUB|56=FIXCLIENT1|52=20240222-13:27:35.889|10=001|
2024-02-22 14:27:48.943 [30] [FixSender] (DEBUG) Sending 8=FIX.4.4|9=57|35=0|49=FIXCLIENT1|56=DMA_HUB|34=64|52=20240222-13:27:48|10=049|
2024-02-22 14:28:05.841 [29] [FixSender] (DEBUG) Receiving 8=FIX.4.4|9=61|35=0|34=67|49=DMA_HUB|56=FIXCLIENT1|52=20240222-13:28:05.840|10=243|
2024-02-22 14:28:18.948 [30] [FixSender] (DEBUG) Sending 8=FIX.4.4|9=57|35=0|49=FIXCLIENT1|56=DMA_HUB|34=65|52=20240222-13:28:18|10=048|
2024-02-22 14:28:35.796 [29] [FixSender] (DEBUG) Receiving 8=FIX.4.4|9=61|35=0|34=68|49=DMA_HUB|56=FIXCLIENT1|52=20240222-13:28:35.796|10=001|
2024-02-22 14:28:48.964 [30] [FixSender] (DEBUG) Sending 8=FIX.4.4|9=57|35=0|49=FIXCLIENT1|56=DMA_HUB|34=66|52=20240222-13:28:48|10=052|
2024-02-22 14:29:05.745 [29] [FixSender] (DEBUG) Receiving 8=FIX.4.4|9=61|35=0|34=69|49=DMA_HUB|56=FIXCLIENT1|52=20240222-13:29:05.744|10=249|
2024-02-22 14:29:18.979 [30] [FixSender] (DEBUG) Sending 8=FIX.4.4|9=57|35=0|49=FIXCLIENT1|56=DMA_HUB|34=67|52=20240222-13:29:18|10=051|
2024-02-22 14:29:35.705 [29] [FixSender] (DEBUG) Receiving 8=FIX.4.4|9=61|35=0|34=70|49=DMA_HUB|56=FIXCLIENT1|52=20240222-13:29:35.705|10=241|
2024-02-22 14:29:48.988 [30] [FixSender] (DEBUG) Sending 8=FIX.4.4|9=57|35=0|49=FIXCLIENT1|56=DMA_HUB|34=68|52=20240222-13:29:48|10=055|
2024-02-22 14:30:05.648 [29] [FixSender] (DEBUG) Receiving 8=FIX.4.4|9=61|35=0|34=71|49=DMA_HUB|56=FIXCLIENT1|52=20240222-13:30:05.648|10=237|
2024-02-22 14:30:18.998 [30] [FixSender] (DEBUG) Sending 8=FIX.4.4|9=57|35=0|49=FIXCLIENT1|56=DMA_HUB|34=69|52=20240222-13:30:18|10=045|
2024-02-22 14:30:35.608 [29] [FixSender] (DEBUG) Receiving 8=FIX.4.4|9=61|35=0|34=72|49=DMA_HUB|56=FIXCLIENT1|52=20240222-13:30:35.607|10=236|
2024-02-22 14:30:49.013 [30] [FixSender] (DEBUG) Sending 8=FIX.4.4|9=57|35=0|49=FIXCLIENT1|56=DMA_HUB|34=70|52=20240222-13:30:49|10=041|
2024-02-22 14:31:05.561 [29] [FixSender] (DEBUG) Receiving 8=FIX.4.4|9=61|35=0|34=73|49=DMA_HUB|56=FIXCLIENT1|52=20240222-13:31:05.561|10=234|
2024-02-22 14:31:19.018 [30] [FixSender] (DEBUG) Sending 8=FIX.4.4|9=57|35=0|49=FIXCLIENT1|56=DMA_HUB|34=71|52=20240222-13:31:19|10=040|
2024-02-22 14:31:35.508 [29] [FixSender] (DEBUG) Receiving 8=FIX.4.4|9=61|35=0|34=74|49=DMA_HUB|56=FIXCLIENT1|52=20240222-13:31:35.508|10=239|
2024-02-22 14:31:49.020 [30] [FixSender] (DEBUG) Sending 8=FIX.4.4|9=57|35=0|49=FIXCLIENT1|56=DMA_HUB|34=72|52=20240222-13:31:49|10=044|
2024-02-22 14:32:05.465 [29] [FixSender] (DEBUG) Receiving 8=FIX.4.4|9=61|35=0|34=75|49=DMA_HUB|56=FIXCLIENT1|52=20240222-13:32:05.464|10=239|
2024-02-22 14:32:19.025 [30] [FixSender] (DEBUG) Sending 8=FIX.4.4|9=57|35=0|49=FIXCLIENT1|56=DMA_HUB|34=73|52=20240222-13:32:19|10=043|
2024-02-22 14:32:35.405 [29] [FixSender] (DEBUG) Receiving 8=FIX.4.4|9=61|35=0|34=76|49=DMA_HUB|56=FIXCLIENT1|52=20240222-13:32:35.404|10=237|
2024-02-22 14:32:49.028 [30] [FixSender] (DEBUG) Sending 8=FIX.4.4|9=57|35=0|49=FIXCLIENT1|56=DMA_HUB|34=74|52=20240222-13:32:49|10=047|
2024-02-22 14:33:05.359 [29] [FixSender] (DEBUG) Receiving 8=FIX.4.4|9=61|35=0|34=77|49=DMA_HUB|56=FIXCLIENT1|52=20240222-13:33:05.358|10=244|
2024-02-22 14:33:19.036 [30] [FixSender] (DEBUG) Sending 8=FIX.4.4|9=57|35=0|49=FIXCLIENT1|56=DMA_HUB|34=75|52=20240222-13:33:19|10=046|
2024-02-22 14:33:35.310 [29] [FixSender] (DEBUG) Receiving 8=FIX.4.4|9=61|35=0|34=78|49=DMA_HUB|56=FIXCLIENT1|52=20240222-13:33:35.309|10=244|
2024-02-22 14:33:49.050 [30] [FixSender] (DEBUG) Sending 8=FIX.4.4|9=57|35=0|49=FIXCLIENT1|56=DMA_HUB|34=76|52=20240222-13:33:49|10=050|
2024-02-22 14:34:05.264 [29] [FixSender] (DEBUG) Receiving 8=FIX.4.4|9=61|35=0|34=79|49=DMA_HUB|56=FIXCLIENT1|52=20240222-13:34:05.262|10=241|
2024-02-22 14:34:19.055 [30] [FixSender] (DEBUG) Sending 8=FIX.4.4|9=57|35=0|49=FIXCLIENT1|56=DMA_HUB|34=77|52=20240222-13:34:19|10=049|
2024-02-22 14:34:35.222 [29] [FixSender] (DEBUG) Receiving 8=FIX.4.4|9=61|35=0|34=80|49=DMA_HUB|56=FIXCLIENT1|52=20240222-13:34:35.221|10=231|
2024-02-22 14:34:49.063 [30] [FixSender] (DEBUG) Sending 8=FIX.4.4|9=57|35=0|49=FIXCLIENT1|56=DMA_HUB|34=78|52=20240222-13:34:49|10=053|
2024-02-22 14:35:05.167 [29] [FixSender] (DEBUG) Receiving 8=FIX.4.4|9=61|35=0|34=81|49=DMA_HUB|56=FIXCLIENT1|52=20240222-13:35:05.166|10=238|
2024-02-22 14:35:19.071 [30] [FixSender] (DEBUG) Sending 8=FIX.4.4|9=57|35=0|49=FIXCLIENT1|56=DMA_HUB|34=79|52=20240222-13:35:19|10=052|
2024-02-22 14:35:35.121 [29] [FixSender] (DEBUG) Receiving 8=FIX.4.4|9=61|35=0|34=82|49=DMA_HUB|56=FIXCLIENT1|52=20240222-13:35:35.121|10=233|
2024-02-22 14:35:49.076 [30] [FixSender] (DEBUG) Sending 8=FIX.4.4|9=57|35=0|49=FIXCLIENT1|56=DMA_HUB|34=80|52=20240222-13:35:49|10=047|
2024-02-22 14:36:05.081 [29] [FixSender] (DEBUG) Receiving 8=FIX.4.4|9=61|35=0|34=83|49=DMA_HUB|56=FIXCLIENT1|52=20240222-13:36:05.080|10=236|
2024-02-22 14:36:19.078 [30] [FixSender] (DEBUG) Sending 8=FIX.4.4|9=57|35=0|49=FIXCLIENT1|56=DMA_HUB|34=81|52=20240222-13:36:19|10=046|
2024-02-22 14:36:35.031 [29] [FixSender] (DEBUG) Receiving 8=FIX.4.4|9=61|35=0|34=84|49=DMA_HUB|56=FIXCLIENT1|52=20240222-13:36:35.029|10=243|
2024-02-22 14:36:49.090 [30] [FixSender] (DEBUG) Sending 8=FIX.4.4|9=57|35=0|49=FIXCLIENT1|56=DMA_HUB|34=82|52=20240222-13:36:49|10=050|
2024-02-22 14:37:04.979 [29] [FixSender] (DEBUG) Receiving 8=FIX.4.4|9=61|35=0|34=85|49=DMA_HUB|56=FIXCLIENT1|52=20240222-13:37:04.978|10=254|
2024-02-22 14:37:19.105 [30] [FixSender] (DEBUG) Sending 8=FIX.4.4|9=57|35=0|49=FIXCLIENT1|56=DMA_HUB|34=83|52=20240222-13:37:19|10=049|
2024-02-22 14:37:34.929 [29] [FixSender] (DEBUG) Receiving 8=FIX.4.4|9=61|35=0|34=86|49=DMA_HUB|56=FIXCLIENT1|52=20240222-13:37:34.928|10=253|
2024-02-22 14:37:49.118 [30] [FixSender] (DEBUG) Sending 8=FIX.4.4|9=57|35=0|49=FIXCLIENT1|56=DMA_HUB|34=84|52=20240222-13:37:49|10=053|
2024-02-22 14:38:04.883 [29] [FixSender] (DEBUG) Receiving 8=FIX.4.4|9=61|35=0|34=87|49=DMA_HUB|56=FIXCLIENT1|52=20240222-13:38:04.883|10=252|
2024-02-22 14:38:19.127 [30] [FixSender] (DEBUG) Sending 8=FIX.4.4|9=57|35=0|49=FIXCLIENT1|56=DMA_HUB|34=85|52=20240222-13:38:19|10=052|
2024-02-22 14:38:34.836 [29] [FixSender] (DEBUG) Receiving 8=FIX.4.4|9=61|35=0|34=88|49=DMA_HUB|56=FIXCLIENT1|52=20240222-13:38:34.835|10=253|
2024-02-22 14:38:49.132 [30] [FixSender] (DEBUG) Sending 8=FIX.4.4|9=57|35=0|49=FIXCLIENT1|56=DMA_HUB|34=86|52=20240222-13:38:49|10=056|
2024-02-22 14:39:04.786 [29] [FixSender] (DEBUG) Receiving 8=FIX.4.4|9=61|35=0|34=89|49=DMA_HUB|56=FIXCLIENT1|52=20240222-13:39:04.785|10=000|
2024-02-22 14:39:19.138 [30] [FixSender] (DEBUG) Sending 8=FIX.4.4|9=57|35=0|49=FIXCLIENT1|56=DMA_HUB|34=87|52=20240222-13:39:19|10=055|
2024-02-22 14:39:34.742 [29] [FixSender] (DEBUG) Receiving 8=FIX.4.4|9=61|35=0|34=90|49=DMA_HUB|56=FIXCLIENT1|52=20240222-13:39:34.742|10=244|
2024-02-22 14:39:49.148 [30] [FixSender] (DEBUG) Sending 8=FIX.4.4|9=57|35=0|49=FIXCLIENT1|56=DMA_HUB|34=88|52=20240222-13:39:49|10=059|
2024-02-22 14:40:04.696 [29] [FixSender] (DEBUG) Receiving 8=FIX.4.4|9=61|35=0|34=91|49=DMA_HUB|56=FIXCLIENT1|52=20240222-13:40:04.695|10=241|
2024-02-22 14:40:19.153 [30] [FixSender] (DEBUG) Sending 8=FIX.4.4|9=57|35=0|49=FIXCLIENT1|56=DMA_HUB|34=89|52=20240222-13:40:19|10=049|
2024-02-22 14:40:34.648 [29] [FixSender] (DEBUG) Receiving 8=FIX.4.4|9=61|35=0|34=92|49=DMA_HUB|56=FIXCLIENT1|52=20240222-13:40:34.647|10=242|
2024-02-22 14:40:49.162 [30] [FixSender] (DEBUG) Sending 8=FIX.4.4|9=57|35=0|49=FIXCLIENT1|56=DMA_HUB|34=90|52=20240222-13:40:49|10=044|
2024-02-22 14:41:04.602 [29] [FixSender] (DEBUG) Receiving 8=FIX.4.4|9=61|35=0|34=93|49=DMA_HUB|56=FIXCLIENT1|52=20240222-13:41:04.601|10=231|
2024-02-22 14:41:19.174 [30] [FixSender] (DEBUG) Sending 8=FIX.4.4|9=57|35=0|49=FIXCLIENT1|56=DMA_HUB|34=91|52=20240222-13:41:19|10=043|
2024-02-22 14:41:34.544 [29] [FixSender] (DEBUG) Receiving 8=FIX.4.4|9=61|35=0|34=94|49=DMA_HUB|56=FIXCLIENT1|52=20240222-13:41:34.544|10=241|
2024-02-22 14:41:49.185 [30] [FixSender] (DEBUG) Sending 8=FIX.4.4|9=57|35=0|49=FIXCLIENT1|56=DMA_HUB|34=92|52=20240222-13:41:49|10=047|
2024-02-22 14:42:04.497 [29] [FixSender] (DEBUG) Receiving 8=FIX.4.4|9=61|35=0|34=95|49=DMA_HUB|56=FIXCLIENT1|52=20240222-13:42:04.496|10=246|
2024-02-22 14:42:19.192 [30] [FixSender] (DEBUG) Sending 8=FIX.4.4|9=57|35=0|49=FIXCLIENT1|56=DMA_HUB|34=93|52=20240222-13:42:19|10=046|
2024-02-22 14:42:34.450 [29] [FixSender] (DEBUG) Receiving 8=FIX.4.4|9=61|35=0|34=96|49=DMA_HUB|56=FIXCLIENT1|52=20240222-13:42:34.449|10=248|
2024-02-22 14:42:49.199 [30] [FixSender] (DEBUG) Sending 8=FIX.4.4|9=57|35=0|49=FIXCLIENT1|56=DMA_HUB|34=94|52=20240222-13:42:49|10=050|
2024-02-22 14:43:04.396 [29] [FixSender] (DEBUG) Receiving 8=FIX.4.4|9=61|35=0|34=97|49=DMA_HUB|56=FIXCLIENT1|52=20240222-13:43:04.395|10=247|
2024-02-22 14:43:19.212 [30] [FixSender] (DEBUG) Sending 8=FIX.4.4|9=57|35=0|49=FIXCLIENT1|56=DMA_HUB|34=95|52=20240222-13:43:19|10=049|
2024-02-22 14:43:34.347 [29] [FixSender] (DEBUG) Receiving 8=FIX.4.4|9=61|35=0|34=98|49=DMA_HUB|56=FIXCLIENT1|52=20240222-13:43:34.346|10=247|
2024-02-22 14:43:49.226 [30] [FixSender] (DEBUG) Sending 8=FIX.4.4|9=57|35=0|49=FIXCLIENT1|56=DMA_HUB|34=96|52=20240222-13:43:49|10=053|
2024-02-22 14:44:04.307 [29] [FixSender] (DEBUG) Receiving 8=FIX.4.4|9=61|35=0|34=99|49=DMA_HUB|56=FIXCLIENT1|52=20240222-13:44:04.307|10=243|
2024-02-22 14:44:19.228 [30] [FixSender] (DEBUG) Sending 8=FIX.4.4|9=57|35=0|49=FIXCLIENT1|56=DMA_HUB|34=97|52=20240222-13:44:19|10=052|
2024-02-22 14:44:34.259 [29] [FixSender] (DEBUG) Receiving 8=FIX.4.4|9=62|35=0|34=100|49=DMA_HUB|56=FIXCLIENT1|52=20240222-13:44:34.259|10=028|
2024-02-22 14:44:49.239 [30] [FixSender] (DEBUG) Sending 8=FIX.4.4|9=57|35=0|49=FIXCLIENT1|56=DMA_HUB|34=98|52=20240222-13:44:49|10=056|
2024-02-22 14:45:04.204 [29] [FixSender] (DEBUG) Receiving 8=FIX.4.4|9=62|35=0|34=101|49=DMA_HUB|56=FIXCLIENT1|52=20240222-13:45:04.203|10=016|
2024-02-22 14:45:19.241 [30] [FixSender] (DEBUG) Sending 8=FIX.4.4|9=57|35=0|49=FIXCLIENT1|56=DMA_HUB|34=99|52=20240222-13:45:19|10=055|
2024-02-22 14:45:34.160 [29] [FixSender] (DEBUG) Receiving 8=FIX.4.4|9=62|35=0|34=102|49=DMA_HUB|56=FIXCLIENT1|52=20240222-13:45:34.159|10=030|
2024-02-22 14:45:49.245 [30] [FixSender] (DEBUG) Sending 8=FIX.4.4|9=58|35=0|49=FIXCLIENT1|56=DMA_HUB|34=100|52=20240222-13:45:49|10=090|
2024-02-22 14:46:04.108 [29] [FixSender] (DEBUG) Receiving 8=FIX.4.4|9=62|35=0|34=103|49=DMA_HUB|56=FIXCLIENT1|52=20240222-13:46:04.107|10=022|
2024-02-22 14:46:19.250 [30] [FixSender] (DEBUG) Sending 8=FIX.4.4|9=58|35=0|49=FIXCLIENT1|56=DMA_HUB|34=101|52=20240222-13:46:19|10=089|
2024-02-22 14:46:34.060 [29] [FixSender] (DEBUG) Receiving 8=FIX.4.4|9=62|35=0|34=104|49=DMA_HUB|56=FIXCLIENT1|52=20240222-13:46:34.060|10=024|
2024-02-22 14:46:49.264 [30] [FixSender] (DEBUG) Sending 8=FIX.4.4|9=58|35=0|49=FIXCLIENT1|56=DMA_HUB|34=102|52=20240222-13:46:49|10=093|
2024-02-22 14:47:04.012 [29] [FixSender] (DEBUG) Receiving 8=FIX.4.4|9=62|35=0|34=105|49=DMA_HUB|56=FIXCLIENT1|52=20240222-13:47:04.011|10=019|
2024-02-22 14:47:19.277 [30] [FixSender] (DEBUG) Sending 8=FIX.4.4|9=58|35=0|49=FIXCLIENT1|56=DMA_HUB|34=103|52=20240222-13:47:19|10=092|
2024-02-22 14:47:33.972 [29] [FixSender] (DEBUG) Receiving 8=FIX.4.4|9=62|35=0|34=106|49=DMA_HUB|56=FIXCLIENT1|52=20240222-13:47:33.972|10=038|
2024-02-22 14:47:49.292 [30] [FixSender] (DEBUG) Sending 8=FIX.4.4|9=58|35=0|49=FIXCLIENT1|56=DMA_HUB|34=104|52=20240222-13:47:49|10=096|
2024-02-22 14:48:03.926 [29] [FixSender] (DEBUG) Receiving 8=FIX.4.4|9=62|35=0|34=107|49=DMA_HUB|56=FIXCLIENT1|52=20240222-13:48:03.925|10=035|
2024-02-22 14:48:19.302 [30] [FixSender] (DEBUG) Sending 8=FIX.4.4|9=58|35=0|49=FIXCLIENT1|56=DMA_HUB|34=105|52=20240222-13:48:19|10=095|
2024-02-22 14:48:33.878 [29] [FixSender] (DEBUG) Receiving 8=FIX.4.4|9=62|35=0|34=108|49=DMA_HUB|56=FIXCLIENT1|52=20240222-13:48:33.877|10=045|
2024-02-22 14:48:49.304 [30] [FixSender] (DEBUG) Sending 8=FIX.4.4|9=58|35=0|49=FIXCLIENT1|56=DMA_HUB|34=106|52=20240222-13:48:49|10=099|
2024-02-22 14:49:03.831 [29] [FixSender] (DEBUG) Receiving 8=FIX.4.4|9=62|35=0|34=109|49=DMA_HUB|56=FIXCLIENT1|52=20240222-13:49:03.831|10=034|
2024-02-22 14:49:19.317 [30] [FixSender] (DEBUG) Sending 8=FIX.4.4|9=58|35=0|49=FIXCLIENT1|56=DMA_HUB|34=107|52=20240222-13:49:19|10=098|
2024-02-22 14:49:33.771 [29] [FixSender] (DEBUG) Receiving 8=FIX.4.4|9=62|35=0|34=110|49=DMA_HUB|56=FIXCLIENT1|52=20240222-13:49:33.771|10=032|
2024-02-22 14:49:49.328 [30] [FixSender] (DEBUG) Sending 8=FIX.4.4|9=58|35=0|49=FIXCLIENT1|56=DMA_HUB|34=108|52=20240222-13:49:49|10=102|
2024-02-22 14:50:03.732 [29] [FixSender] (DEBUG) Receiving 8=FIX.4.4|9=62|35=0|34=111|49=DMA_HUB|56=FIXCLIENT1|52=20240222-13:50:03.731|10=018|
2024-02-22 14:50:19.357 [30] [FixSender] (DEBUG) Sending 8=FIX.4.4|9=58|35=0|49=FIXCLIENT1|56=DMA_HUB|34=109|52=20240222-13:50:19|10=092|
2024-02-22 14:50:33.686 [29] [FixSender] (DEBUG) Receiving 8=FIX.4.4|9=62|35=0|34=112|49=DMA_HUB|56=FIXCLIENT1|52=20240222-13:50:33.686|10=031|
2024-02-22 14:50:49.360 [30] [FixSender] (DEBUG) Sending 8=FIX.4.4|9=58|35=0|49=FIXCLIENT1|56=DMA_HUB|34=110|52=20240222-13:50:49|10=087|
2024-02-22 14:51:03.636 [29] [FixSender] (DEBUG) Receiving 8=FIX.4.4|9=62|35=0|34=113|49=DMA_HUB|56=FIXCLIENT1|52=20240222-13:51:03.635|10=024|
2024-02-22 14:51:19.365 [30] [FixSender] (DEBUG) Sending 8=FIX.4.4|9=58|35=0|49=FIXCLIENT1|56=DMA_HUB|34=111|52=20240222-13:51:19|10=086|
2024-02-22 14:51:33.588 [29] [FixSender] (DEBUG) Receiving 8=FIX.4.4|9=62|35=0|34=114|49=DMA_HUB|56=FIXCLIENT1|52=20240222-13:51:33.586|10=033|
2024-02-22 14:51:49.375 [30] [FixSender] (DEBUG) Sending 8=FIX.4.4|9=58|35=0|49=FIXCLIENT1|56=DMA_HUB|34=112|52=20240222-13:51:49|10=090|
2024-02-22 14:52:03.536 [29] [FixSender] (DEBUG) Receiving 8=FIX.4.4|9=62|35=0|34=115|49=DMA_HUB|56=FIXCLIENT1|52=20240222-13:52:03.535|10=026|
2024-02-22 14:52:19.387 [30] [FixSender] (DEBUG) Sending 8=FIX.4.4|9=58|35=0|49=FIXCLIENT1|56=DMA_HUB|34=113|52=20240222-13:52:19|10=089|
2024-02-22 14:52:33.493 [29] [FixSender] (DEBUG) Receiving 8=FIX.4.4|9=62|35=0|34=116|49=DMA_HUB|56=FIXCLIENT1|52=20240222-13:52:33.492|10=032|
2024-02-22 14:52:49.398 [30] [FixSender] (DEBUG) Sending 8=FIX.4.4|9=58|35=0|49=FIXCLIENT1|56=DMA_HUB|34=114|52=20240222-13:52:49|10=093|
2024-02-22 14:53:03.443 [29] [FixSender] (DEBUG) Receiving 8=FIX.4.4|9=62|35=0|34=117|49=DMA_HUB|56=FIXCLIENT1|52=20240222-13:53:03.443|10=027|
2024-02-22 14:53:19.411 [30] [FixSender] (DEBUG) Sending 8=FIX.4.4|9=58|35=0|49=FIXCLIENT1|56=DMA_HUB|34=115|52=20240222-13:53:19|10=092|
2024-02-22 14:53:33.393 [29] [FixSender] (DEBUG) Receiving 8=FIX.4.4|9=62|35=0|34=118|49=DMA_HUB|56=FIXCLIENT1|52=20240222-13:53:33.392|10=034|
2024-02-22 14:53:49.413 [30] [FixSender] (DEBUG) Sending 8=FIX.4.4|9=58|35=0|49=FIXCLIENT1|56=DMA_HUB|34=116|52=20240222-13:53:49|10=096|
2024-02-22 14:54:03.339 [29] [FixSender] (DEBUG) Receiving 8=FIX.4.4|9=62|35=0|34=119|49=DMA_HUB|56=FIXCLIENT1|52=20240222-13:54:03.339|10=034|
2024-02-22 14:54:19.427 [30] [FixSender] (DEBUG) Sending 8=FIX.4.4|9=58|35=0|49=FIXCLIENT1|56=DMA_HUB|34=117|52=20240222-13:54:19|10=095|
2024-02-22 14:54:33.297 [29] [FixSender] (DEBUG) Receiving 8=FIX.4.4|9=62|35=0|34=120|49=DMA_HUB|56=FIXCLIENT1|52=20240222-13:54:33.297|10=032|
2024-02-22 14:54:49.429 [30] [FixSender] (DEBUG) Sending 8=FIX.4.4|9=58|35=0|49=FIXCLIENT1|56=DMA_HUB|34=118|52=20240222-13:54:49|10=099|
2024-02-22 14:55:03.248 [29] [FixSender] (DEBUG) Receiving 8=FIX.4.4|9=62|35=0|34=121|49=DMA_HUB|56=FIXCLIENT1|52=20240222-13:55:03.247|10=026|
2024-02-22 14:55:19.444 [30] [FixSender] (DEBUG) Sending 8=FIX.4.4|9=58|35=0|49=FIXCLIENT1|56=DMA_HUB|34=119|52=20240222-13:55:19|10=098|
2024-02-22 14:55:33.200 [29] [FixSender] (DEBUG) Receiving 8=FIX.4.4|9=62|35=0|34=122|49=DMA_HUB|56=FIXCLIENT1|52=20240222-13:55:33.199|10=036|
2024-02-22 14:55:49.461 [30] [FixSender] (DEBUG) Sending 8=FIX.4.4|9=58|35=0|49=FIXCLIENT1|56=DMA_HUB|34=120|52=20240222-13:55:49|10=093|
2024-02-22 14:56:03.154 [29] [FixSender] (DEBUG) Receiving 8=FIX.4.4|9=62|35=0|34=123|49=DMA_HUB|56=FIXCLIENT1|52=20240222-13:56:03.154|10=026|
2024-02-22 14:56:19.465 [30] [FixSender] (DEBUG) Sending 8=FIX.4.4|9=58|35=0|49=FIXCLIENT1|56=DMA_HUB|34=121|52=20240222-13:56:19|10=092|
2024-02-22 14:56:33.104 [29] [FixSender] (DEBUG) Receiving 8=FIX.4.4|9=62|35=0|34=124|49=DMA_HUB|56=FIXCLIENT1|52=20240222-13:56:33.104|10=025|
2024-02-22 14:56:49.468 [30] [FixSender] (DEBUG) Sending 8=FIX.4.4|9=58|35=0|49=FIXCLIENT1|56=DMA_HUB|34=122|52=20240222-13:56:49|10=096|
2024-02-22 14:57:03.062 [29] [FixSender] (DEBUG) Receiving 8=FIX.4.4|9=62|35=0|34=125|49=DMA_HUB|56=FIXCLIENT1|52=20240222-13:57:03.061|10=026|
2024-02-22 14:57:19.471 [30] [FixSender] (DEBUG) Sending 8=FIX.4.4|9=58|35=0|49=FIXCLIENT1|56=DMA_HUB|34=123|52=20240222-13:57:19|10=095|
2024-02-22 14:57:33.013 [29] [FixSender] (DEBUG) Receiving 8=FIX.4.4|9=62|35=0|34=126|49=DMA_HUB|56=FIXCLIENT1|52=20240222-13:57:33.012|10=026|
2024-02-22 14:57:49.476 [30] [FixSender] (DEBUG) Sending 8=FIX.4.4|9=58|35=0|49=FIXCLIENT1|56=DMA_HUB|34=124|52=20240222-13:57:49|10=099|
2024-02-22 14:58:02.964 [29] [FixSender] (DEBUG) Receiving 8=FIX.4.4|9=62|35=0|34=127|49=DMA_HUB|56=FIXCLIENT1|52=20240222-13:58:02.963|10=039|
2024-02-22 14:58:19.477 [30] [FixSender] (DEBUG) Sending 8=FIX.4.4|9=58|35=0|49=FIXCLIENT1|56=DMA_HUB|34=125|52=20240222-13:58:19|10=098|
2024-02-22 14:58:32.908 [29] [FixSender] (DEBUG) Receiving 8=FIX.4.4|9=62|35=0|34=128|49=DMA_HUB|56=FIXCLIENT1|52=20240222-13:58:32.908|10=042|
2024-02-22 14:58:49.486 [30] [FixSender] (DEBUG) Sending 8=FIX.4.4|9=58|35=0|49=FIXCLIENT1|56=DMA_HUB|34=126|52=20240222-13:58:49|10=102|
2024-02-22 14:59:02.867 [29] [FixSender] (DEBUG) Receiving 8=FIX.4.4|9=62|35=0|34=129|49=DMA_HUB|56=FIXCLIENT1|52=20240222-13:59:02.866|10=044|
2024-02-22 14:59:19.503 [30] [FixSender] (DEBUG) Sending 8=FIX.4.4|9=58|35=0|49=FIXCLIENT1|56=DMA_HUB|34=127|52=20240222-13:59:19|10=101|
2024-02-22 14:59:32.811 [29] [FixSender] (DEBUG) Receiving 8=FIX.4.4|9=62|35=0|34=130|49=DMA_HUB|56=FIXCLIENT1|52=20240222-13:59:32.811|10=029|
2024-02-22 14:59:49.518 [30] [FixSender] (DEBUG) Sending 8=FIX.4.4|9=58|35=0|49=FIXCLIENT1|56=DMA_HUB|34=128|52=20240222-13:59:49|10=105|
2024-02-22 15:00:02.768 [29] [FixSender] (DEBUG) Receiving 8=FIX.4.4|9=62|35=0|34=131|49=DMA_HUB|56=FIXCLIENT1|52=20240222-14:00:02.767|10=024|
2024-02-22 15:00:19.533 [30] [FixSender] (DEBUG) Sending 8=FIX.4.4|9=58|35=0|49=FIXCLIENT1|56=DMA_HUB|34=129|52=20240222-14:00:19|10=090|
2024-02-22 15:00:32.724 [29] [FixSender] (DEBUG) Receiving 8=FIX.4.4|9=62|35=0|34=132|49=DMA_HUB|56=FIXCLIENT1|52=20240222-14:00:32.723|10=020|
2024-02-22 15:00:49.534 [30] [FixSender] (DEBUG) Sending 8=FIX.4.4|9=58|35=0|49=FIXCLIENT1|56=DMA_HUB|34=130|52=20240222-14:00:49|10=085|
2024-02-22 15:01:02.678 [29] [FixSender] (DEBUG) Receiving 8=FIX.4.4|9=62|35=0|34=133|49=DMA_HUB|56=FIXCLIENT1|52=20240222-14:01:02.677|10=027|
2024-02-22 15:01:19.542 [30] [FixSender] (DEBUG) Sending 8=FIX.4.4|9=58|35=0|49=FIXCLIENT1|56=DMA_HUB|34=131|52=20240222-14:01:19|10=084|
2024-02-22 15:01:32.622 [29] [FixSender] (DEBUG) Receiving 8=FIX.4.4|9=62|35=0|34=134|49=DMA_HUB|56=FIXCLIENT1|52=20240222-14:01:32.621|10=020|
2024-02-22 15:01:49.555 [30] [FixSender] (DEBUG) Sending 8=FIX.4.4|9=58|35=0|49=FIXCLIENT1|56=DMA_HUB|34=132|52=20240222-14:01:49|10=088|
2024-02-22 15:02:02.574 [29] [FixSender] (DEBUG) Receiving 8=FIX.4.4|9=62|35=0|34=135|49=DMA_HUB|56=FIXCLIENT1|52=20240222-14:02:02.574|10=026|
2024-02-22 15:02:19.559 [30] [FixSender] (DEBUG) Sending 8=FIX.4.4|9=58|35=0|49=FIXCLIENT1|56=DMA_HUB|34=133|52=20240222-14:02:19|10=087|
2024-02-22 15:02:32.530 [29] [FixSender] (DEBUG) Receiving 8=FIX.4.4|9=62|35=0|34=136|49=DMA_HUB|56=FIXCLIENT1|52=20240222-14:02:32.529|10=030|
2024-02-22 15:02:49.562 [30] [FixSender] (DEBUG) Sending 8=FIX.4.4|9=58|35=0|49=FIXCLIENT1|56=DMA_HUB|34=134|52=20240222-14:02:49|10=091|
2024-02-22 15:03:02.480 [29] [FixSender] (DEBUG) Receiving 8=FIX.4.4|9=62|35=0|34=137|49=DMA_HUB|56=FIXCLIENT1|52=20240222-14:03:02.480|10=025|
2024-02-22 15:03:19.571 [30] [FixSender] (DEBUG) Sending 8=FIX.4.4|9=58|35=0|49=FIXCLIENT1|56=DMA_HUB|34=135|52=20240222-14:03:19|10=090|
2024-02-22 15:03:32.428 [29] [FixSender] (DEBUG) Receiving 8=FIX.4.4|9=62|35=0|34=138|49=DMA_HUB|56=FIXCLIENT1|52=20240222-14:03:32.428|10=031|
2024-02-22 15:03:49.581 [30] [FixSender] (DEBUG) Sending 8=FIX.4.4|9=58|35=0|49=FIXCLIENT1|56=DMA_HUB|34=136|52=20240222-14:03:49|10=094|
2024-02-22 15:04:02.387 [29] [FixSender] (DEBUG) Receiving 8=FIX.4.4|9=62|35=0|34=139|49=DMA_HUB|56=FIXCLIENT1|52=20240222-14:04:02.386|10=033|
2024-02-22 15:04:19.596 [30] [FixSender] (DEBUG) Sending 8=FIX.4.4|9=58|35=0|49=FIXCLIENT1|56=DMA_HUB|34=137|52=20240222-14:04:19|10=093|
2024-02-22 15:04:32.340 [29] [FixSender] (DEBUG) Receiving 8=FIX.4.4|9=62|35=0|34=140|49=DMA_HUB|56=FIXCLIENT1|52=20240222-14:04:32.340|10=018|
2024-02-22 15:04:49.602 [30] [FixSender] (DEBUG) Sending 8=FIX.4.4|9=58|35=0|49=FIXCLIENT1|56=DMA_HUB|34=138|52=20240222-14:04:49|10=097|
2024-02-22 15:05:02.297 [29] [FixSender] (DEBUG) Receiving 8=FIX.4.4|9=62|35=0|34=141|49=DMA_HUB|56=FIXCLIENT1|52=20240222-14:05:02.296|10=027|
2024-02-22 15:05:19.607 [30] [FixSender] (DEBUG) Sending 8=FIX.4.4|9=58|35=0|49=FIXCLIENT1|56=DMA_HUB|34=139|52=20240222-14:05:19|10=096|
2024-02-22 15:05:32.242 [29] [FixSender] (DEBUG) Receiving 8=FIX.4.4|9=62|35=0|34=142|49=DMA_HUB|56=FIXCLIENT1|52=20240222-14:05:32.241|10=021|
2024-02-22 15:05:49.621 [30] [FixSender] (DEBUG) Sending 8=FIX.4.4|9=58|35=0|49=FIXCLIENT1|56=DMA_HUB|34=140|52=20240222-14:05:49|10=091|
2024-02-22 15:06:02.191 [29] [FixSender] (DEBUG) Receiving 8=FIX.4.4|9=62|35=0|34=143|49=DMA_HUB|56=FIXCLIENT1|52=20240222-14:06:02.190|10=023|
2024-02-22 15:06:19.624 [30] [FixSender] (DEBUG) Sending 8=FIX.4.4|9=58|35=0|49=FIXCLIENT1|56=DMA_HUB|34=141|52=20240222-14:06:19|10=090|
2024-02-22 15:06:32.148 [29] [FixSender] (DEBUG) Receiving 8=FIX.4.4|9=62|35=0|34=144|49=DMA_HUB|56=FIXCLIENT1|52=20240222-14:06:32.146|10=028|
2024-02-22 15:06:49.637 [30] [FixSender] (DEBUG) Sending 8=FIX.4.4|9=58|35=0|49=FIXCLIENT1|56=DMA_HUB|34=142|52=20240222-14:06:49|10=094|
2024-02-22 15:07:02.099 [29] [FixSender] (DEBUG) Receiving 8=FIX.4.4|9=62|35=0|34=145|49=DMA_HUB|56=FIXCLIENT1|52=20240222-14:07:02.099|10=034|
2024-02-22 15:07:19.645 [30] [FixSender] (DEBUG) Sending 8=FIX.4.4|9=58|35=0|49=FIXCLIENT1|56=DMA_HUB|34=143|52=20240222-14:07:19|10=093|
2024-02-22 15:07:32.056 [29] [FixSender] (DEBUG) Receiving 8=FIX.4.4|9=62|35=0|34=146|49=DMA_HUB|56=FIXCLIENT1|52=20240222-14:07:32.056|10=031|
2024-02-22 15:07:49.653 [30] [FixSender] (DEBUG) Sending 8=FIX.4.4|9=58|35=0|49=FIXCLIENT1|56=DMA_HUB|34=144|52=20240222-14:07:49|10=097|
2024-02-22 15:08:02.007 [29] [FixSender] (DEBUG) Receiving 8=FIX.4.4|9=62|35=0|34=147|49=DMA_HUB|56=FIXCLIENT1|52=20240222-14:08:02.007|10=026|
2024-02-22 15:08:19.663 [30] [FixSender] (DEBUG) Sending 8=FIX.4.4|9=58|35=0|49=FIXCLIENT1|56=DMA_HUB|34=145|52=20240222-14:08:19|10=096|
2024-02-22 15:08:31.960 [29] [FixSender] (DEBUG) Receiving 8=FIX.4.4|9=62|35=0|34=148|49=DMA_HUB|56=FIXCLIENT1|52=20240222-14:08:31.959|10=045|
2024-02-22 15:08:49.665 [30] [FixSender] (DEBUG) Sending 8=FIX.4.4|9=58|35=0|49=FIXCLIENT1|56=DMA_HUB|34=146|52=20240222-14:08:49|10=100|
2024-02-22 15:09:01.905 [29] [FixSender] (DEBUG) Receiving 8=FIX.4.4|9=62|35=0|34=149|49=DMA_HUB|56=FIXCLIENT1|52=20240222-14:09:01.904|10=034|
2024-02-22 15:09:19.677 [30] [FixSender] (DEBUG) Sending 8=FIX.4.4|9=58|35=0|49=FIXCLIENT1|56=DMA_HUB|34=147|52=20240222-14:09:19|10=099|
2024-02-22 15:09:31.857 [29] [FixSender] (DEBUG) Receiving 8=FIX.4.4|9=62|35=0|34=150|49=DMA_HUB|56=FIXCLIENT1|52=20240222-14:09:31.857|10=036|
2024-02-22 15:09:49.678 [30] [FixSender] (DEBUG) Sending 8=FIX.4.4|9=58|35=0|49=FIXCLIENT1|56=DMA_HUB|34=148|52=20240222-14:09:49|10=103|
2024-02-22 15:10:01.806 [29] [FixSender] (DEBUG) Receiving 8=FIX.4.4|9=62|35=0|34=151|49=DMA_HUB|56=FIXCLIENT1|52=20240222-14:10:01.806|10=020|
2024-02-22 15:10:19.679 [30] [FixSender] (DEBUG) Sending 8=FIX.4.4|9=58|35=0|49=FIXCLIENT1|56=DMA_HUB|34=149|52=20240222-14:10:19|10=093|
2024-02-22 15:10:31.768 [29] [FixSender] (DEBUG) Receiving 8=FIX.4.4|9=62|35=0|34=152|49=DMA_HUB|56=FIXCLIENT1|52=20240222-14:10:31.767|10=030|
2024-02-22 15:10:49.695 [30] [FixSender] (DEBUG) Sending 8=FIX.4.4|9=58|35=0|49=FIXCLIENT1|56=DMA_HUB|34=150|52=20240222-14:10:49|10=088|
2024-02-22 15:11:01.720 [29] [FixSender] (DEBUG) Receiving 8=FIX.4.4|9=62|35=0|34=153|49=DMA_HUB|56=FIXCLIENT1|52=20240222-14:11:01.719|10=026|
2024-02-22 15:11:19.704 [30] [FixSender] (DEBUG) Sending 8=FIX.4.4|9=58|35=0|49=FIXCLIENT1|56=DMA_HUB|34=151|52=20240222-14:11:19|10=087|
2024-02-22 15:11:31.669 [29] [FixSender] (DEBUG) Receiving 8=FIX.4.4|9=62|35=0|34=154|49=DMA_HUB|56=FIXCLIENT1|52=20240222-14:11:31.666|10=031|
2024-02-22 15:11:49.711 [30] [FixSender] (DEBUG) Sending 8=FIX.4.4|9=58|35=0|49=FIXCLIENT1|56=DMA_HUB|34=152|52=20240222-14:11:49|10=091|
2024-02-22 15:12:01.616 [29] [FixSender] (DEBUG) Receiving 8=FIX.4.4|9=62|35=0|34=155|49=DMA_HUB|56=FIXCLIENT1|52=20240222-14:12:01.616|10=025|
2024-02-22 15:12:19.721 [30] [FixSender] (DEBUG) Sending 8=FIX.4.4|9=58|35=0|49=FIXCLIENT1|56=DMA_HUB|34=153|52=20240222-14:12:19|10=090|
2024-02-22 15:12:31.564 [29] [FixSender] (DEBUG) Receiving 8=FIX.4.4|9=62|35=0|34=156|49=DMA_HUB|56=FIXCLIENT1|52=20240222-14:12:31.563|10=030|
2024-02-22 15:12:49.729 [30] [FixSender] (DEBUG) Sending 8=FIX.4.4|9=58|35=0|49=FIXCLIENT1|56=DMA_HUB|34=154|52=20240222-14:12:49|10=094|
2024-02-22 15:13:01.518 [29] [FixSender] (DEBUG) Receiving 8=FIX.4.4|9=62|35=0|34=157|49=DMA_HUB|56=FIXCLIENT1|52=20240222-14:13:01.517|10=028|
2024-02-22 15:13:19.733 [30] [FixSender] (DEBUG) Sending 8=FIX.4.4|9=58|35=0|49=FIXCLIENT1|56=DMA_HUB|34=155|52=20240222-14:13:19|10=093|
2024-02-22 15:13:31.470 [29] [FixSender] (DEBUG) Receiving 8=FIX.4.4|9=62|35=0|34=158|49=DMA_HUB|56=FIXCLIENT1|52=20240222-14:13:31.470|10=030|
2024-02-22 15:13:49.748 [30] [FixSender] (DEBUG) Sending 8=FIX.4.4|9=58|35=0|49=FIXCLIENT1|56=DMA_HUB|34=156|52=20240222-14:13:49|10=097|
2024-02-22 15:14:01.432 [29] [FixSender] (DEBUG) Receiving 8=FIX.4.4|9=62|35=0|34=159|49=DMA_HUB|56=FIXCLIENT1|52=20240222-14:14:01.431|10=026|
2024-02-22 15:14:19.758 [30] [FixSender] (DEBUG) Sending 8=FIX.4.4|9=58|35=0|49=FIXCLIENT1|56=DMA_HUB|34=157|52=20240222-14:14:19|10=096|
2024-02-22 15:14:31.376 [29] [FixSender] (DEBUG) Receiving 8=FIX.4.4|9=62|35=0|34=160|49=DMA_HUB|56=FIXCLIENT1|52=20240222-14:14:31.376|10=029|
2024-02-22 15:14:49.759 [30] [FixSender] (DEBUG) Sending 8=FIX.4.4|9=58|35=0|49=FIXCLIENT1|56=DMA_HUB|34=158|52=20240222-14:14:49|10=100|
2024-02-22 15:15:01.330 [29] [FixSender] (DEBUG) Receiving 8=FIX.4.4|9=62|35=0|34=161|49=DMA_HUB|56=FIXCLIENT1|52=20240222-14:15:01.329|10=026|
2024-02-22 15:15:19.762 [30] [FixSender] (DEBUG) Sending 8=FIX.4.4|9=58|35=0|49=FIXCLIENT1|56=DMA_HUB|34=159|52=20240222-14:15:19|10=099|
2024-02-22 15:15:31.283 [29] [FixSender] (DEBUG) Receiving 8=FIX.4.4|9=62|35=0|34=162|49=DMA_HUB|56=FIXCLIENT1|52=20240222-14:15:31.282|10=028|
2024-02-22 15:15:49.771 [30] [FixSender] (DEBUG) Sending 8=FIX.4.4|9=58|35=0|49=FIXCLIENT1|56=DMA_HUB|34=160|52=20240222-14:15:49|10=094|
2024-02-22 15:16:01.230 [29] [FixSender] (DEBUG) Receiving 8=FIX.4.4|9=62|35=0|34=163|49=DMA_HUB|56=FIXCLIENT1|52=20240222-14:16:01.229|10=028|
2024-02-22 15:16:19.780 [30] [FixSender] (DEBUG) Sending 8=FIX.4.4|9=58|35=0|49=FIXCLIENT1|56=DMA_HUB|34=161|52=20240222-14:16:19|10=093|
2024-02-22 15:16:31.186 [29] [FixSender] (DEBUG) Receiving 8=FIX.4.4|9=62|35=0|34=164|49=DMA_HUB|56=FIXCLIENT1|52=20240222-14:16:31.185|10=033|
2024-02-22 15:16:49.792 [30] [FixSender] (DEBUG) Sending 8=FIX.4.4|9=58|35=0|49=FIXCLIENT1|56=DMA_HUB|34=162|52=20240222-14:16:49|10=097|
2024-02-22 15:17:01.141 [29] [FixSender] (DEBUG) Receiving 8=FIX.4.4|9=62|35=0|34=165|49=DMA_HUB|56=FIXCLIENT1|52=20240222-14:17:01.140|10=023|
2024-02-22 15:17:19.796 [30] [FixSender] (DEBUG) Sending 8=FIX.4.4|9=58|35=0|49=FIXCLIENT1|56=DMA_HUB|34=163|52=20240222-14:17:19|10=096|
2024-02-22 15:17:31.090 [29] [FixSender] (DEBUG) Receiving 8=FIX.4.4|9=62|35=0|34=166|49=DMA_HUB|56=FIXCLIENT1|52=20240222-14:17:31.090|10=031|
2024-02-22 15:17:49.796 [30] [FixSender] (DEBUG) Sending 8=FIX.4.4|9=58|35=0|49=FIXCLIENT1|56=DMA_HUB|34=164|52=20240222-14:17:49|10=100|
2024-02-22 15:18:01.045 [29] [FixSender] (DEBUG) Receiving 8=FIX.4.4|9=62|35=0|34=167|49=DMA_HUB|56=FIXCLIENT1|52=20240222-14:18:01.044|10=029|
2024-02-22 15:18:19.802 [30] [FixSender] (DEBUG) Sending 8=FIX.4.4|9=58|35=0|49=FIXCLIENT1|56=DMA_HUB|34=165|52=20240222-14:18:19|10=099|
2024-02-22 15:18:30.990 [29] [FixSender] (DEBUG) Receiving 8=FIX.4.4|9=62|35=0|34=168|49=DMA_HUB|56=FIXCLIENT1|52=20240222-14:18:30.990|10=042|
2024-02-22 15:18:49.804 [30] [FixSender] (DEBUG) Sending 8=FIX.4.4|9=58|35=0|49=FIXCLIENT1|56=DMA_HUB|34=166|52=20240222-14:18:49|10=103|
2024-02-22 15:19:00.942 [29] [FixSender] (DEBUG) Receiving 8=FIX.4.4|9=62|35=0|34=169|49=DMA_HUB|56=FIXCLIENT1|52=20240222-14:19:00.942|10=038|
2024-02-22 15:19:19.817 [30] [FixSender] (DEBUG) Sending 8=FIX.4.4|9=58|35=0|49=FIXCLIENT1|56=DMA_HUB|34=167|52=20240222-14:19:19|10=102|
2024-02-22 15:19:30.896 [29] [FixSender] (DEBUG) Receiving 8=FIX.4.4|9=62|35=0|34=170|49=DMA_HUB|56=FIXCLIENT1|52=20240222-14:19:30.896|10=041|
2024-02-22 15:19:49.827 [30] [FixSender] (DEBUG) Sending 8=FIX.4.4|9=58|35=0|49=FIXCLIENT1|56=DMA_HUB|34=168|52=20240222-14:19:49|10=106|
2024-02-22 15:20:00.847 [29] [FixSender] (DEBUG) Receiving 8=FIX.4.4|9=62|35=0|34=171|49=DMA_HUB|56=FIXCLIENT1|52=20240222-14:20:00.846|10=026|
2024-02-22 15:20:19.841 [30] [FixSender] (DEBUG) Sending 8=FIX.4.4|9=58|35=0|49=FIXCLIENT1|56=DMA_HUB|34=169|52=20240222-14:20:19|10=096|
2024-02-22 15:20:30.800 [29] [FixSender] (DEBUG) Receiving 8=FIX.4.4|9=62|35=0|34=172|49=DMA_HUB|56=FIXCLIENT1|52=20240222-14:20:30.800|10=020|
2024-02-22 15:20:49.842 [30] [FixSender] (DEBUG) Sending 8=FIX.4.4|9=58|35=0|49=FIXCLIENT1|56=DMA_HUB|34=170|52=20240222-14:20:49|10=091|
2024-02-22 15:21:00.758 [29] [FixSender] (DEBUG) Receiving 8=FIX.4.4|9=62|35=0|34=173|49=DMA_HUB|56=FIXCLIENT1|52=20240222-14:21:00.758|10=031|
2024-02-22 15:21:19.856 [30] [FixSender] (DEBUG) Sending 8=FIX.4.4|9=58|35=0|49=FIXCLIENT1|56=DMA_HUB|34=171|52=20240222-14:21:19|10=090|
2024-02-22 15:21:30.713 [29] [FixSender] (DEBUG) Receiving 8=FIX.4.4|9=62|35=0|34=174|49=DMA_HUB|56=FIXCLIENT1|52=20240222-14:21:30.712|10=025|
2024-02-22 15:21:49.857 [30] [FixSender] (DEBUG) Sending 8=FIX.4.4|9=58|35=0|49=FIXCLIENT1|56=DMA_HUB|34=172|52=20240222-14:21:49|10=094|
2024-02-22 15:22:00.665 [29] [FixSender] (DEBUG) Receiving 8=FIX.4.4|9=62|35=0|34=175|49=DMA_HUB|56=FIXCLIENT1|52=20240222-14:22:00.664|10=030|
2024-02-22 15:22:19.864 [30] [FixSender] (DEBUG) Sending 8=FIX.4.4|9=58|35=0|49=FIXCLIENT1|56=DMA_HUB|34=173|52=20240222-14:22:19|10=093|
2024-02-22 15:22:30.604 [29] [FixSender] (DEBUG) Receiving 8=FIX.4.4|9=62|35=0|34=176|49=DMA_HUB|56=FIXCLIENT1|52=20240222-14:22:30.604|10=028|
2024-02-22 15:22:49.871 [30] [FixSender] (DEBUG) Sending 8=FIX.4.4|9=58|35=0|49=FIXCLIENT1|56=DMA_HUB|34=174|52=20240222-14:22:49|10=097|
2024-02-22 15:23:00.558 [29] [FixSender] (DEBUG) Receiving 8=FIX.4.4|9=62|35=0|34=177|49=DMA_HUB|56=FIXCLIENT1|52=20240222-14:23:00.558|10=035|
2024-02-22 15:23:19.878 [30] [FixSender] (DEBUG) Sending 8=FIX.4.4|9=58|35=0|49=FIXCLIENT1|56=DMA_HUB|34=175|52=20240222-14:23:19|10=096|
2024-02-22 15:23:30.510 [29] [FixSender] (DEBUG) Receiving 8=FIX.4.4|9=62|35=0|34=178|49=DMA_HUB|56=FIXCLIENT1|52=20240222-14:23:30.510|10=027|
2024-02-22 15:23:49.885 [30] [FixSender] (DEBUG) Sending 8=FIX.4.4|9=58|35=0|49=FIXCLIENT1|56=DMA_HUB|34=176|52=20240222-14:23:49|10=100|
2024-02-22 15:24:00.458 [29] [FixSender] (DEBUG) Receiving 8=FIX.4.4|9=62|35=0|34=179|49=DMA_HUB|56=FIXCLIENT1|52=20240222-14:24:00.458|10=037|
2024-02-22 15:24:19.899 [30] [FixSender] (DEBUG) Sending 8=FIX.4.4|9=58|35=0|49=FIXCLIENT1|56=DMA_HUB|34=177|52=20240222-14:24:19|10=099|
2024-02-22 15:24:30.413 [29] [FixSender] (DEBUG) Receiving 8=FIX.4.4|9=62|35=0|34=180|49=DMA_HUB|56=FIXCLIENT1|52=20240222-14:24:30.413|10=023|
2024-02-22 15:24:49.909 [30] [FixSender] (DEBUG) Sending 8=FIX.4.4|9=58|35=0|49=FIXCLIENT1|56=DMA_HUB|34=178|52=20240222-14:24:49|10=103|
2024-02-22 15:25:00.378 [29] [FixSender] (DEBUG) Receiving 8=FIX.4.4|9=62|35=0|34=181|49=DMA_HUB|56=FIXCLIENT1|52=20240222-14:25:00.378|10=032|
2024-02-22 15:25:19.911 [30] [FixSender] (DEBUG) Sending 8=FIX.4.4|9=58|35=0|49=FIXCLIENT1|56=DMA_HUB|34=179|52=20240222-14:25:19|10=102|
2024-02-22 15:25:30.378 [29] [FixSender] (DEBUG) Receiving 8=FIX.4.4|9=62|35=0|34=182|49=DMA_HUB|56=FIXCLIENT1|52=20240222-14:25:30.378|10=036|
2024-02-22 15:25:49.926 [30] [FixSender] (DEBUG) Sending 8=FIX.4.4|9=58|35=0|49=FIXCLIENT1|56=DMA_HUB|34=180|52=20240222-14:25:49|10=097|
2024-02-22 15:26:00.338 [29] [FixSender] (DEBUG) Receiving 8=FIX.4.4|9=62|35=0|34=183|49=DMA_HUB|56=FIXCLIENT1|52=20240222-14:26:00.338|10=031|
2024-02-22 15:26:19.940 [30] [FixSender] (DEBUG) Sending 8=FIX.4.4|9=58|35=0|49=FIXCLIENT1|56=DMA_HUB|34=181|52=20240222-14:26:19|10=096|
2024-02-22 15:26:30.292 [29] [FixSender] (DEBUG) Receiving 8=FIX.4.4|9=62|35=0|34=184|49=DMA_HUB|56=FIXCLIENT1|52=20240222-14:26:30.292|10=034|
2024-02-22 15:26:49.955 [30] [FixSender] (DEBUG) Sending 8=FIX.4.4|9=58|35=0|49=FIXCLIENT1|56=DMA_HUB|34=182|52=20240222-14:26:49|10=100|
2024-02-22 15:27:00.241 [29] [FixSender] (DEBUG) Receiving 8=FIX.4.4|9=62|35=0|34=185|49=DMA_HUB|56=FIXCLIENT1|52=20240222-14:27:00.241|10=027|
2024-02-22 15:27:19.966 [30] [FixSender] (DEBUG) Sending 8=FIX.4.4|9=58|35=0|49=FIXCLIENT1|56=DMA_HUB|34=183|52=20240222-14:27:19|10=099|
2024-02-22 15:27:30.201 [29] [FixSender] (DEBUG) Receiving 8=FIX.4.4|9=62|35=0|34=186|49=DMA_HUB|56=FIXCLIENT1|52=20240222-14:27:30.200|10=026|
2024-02-22 15:27:49.976 [30] [FixSender] (DEBUG) Sending 8=FIX.4.4|9=58|35=0|49=FIXCLIENT1|56=DMA_HUB|34=184|52=20240222-14:27:49|10=103|
2024-02-22 15:28:00.147 [29] [FixSender] (DEBUG) Receiving 8=FIX.4.4|9=62|35=0|34=187|49=DMA_HUB|56=FIXCLIENT1|52=20240222-14:28:00.147|10=035|
2024-02-22 15:28:19.981 [30] [FixSender] (DEBUG) Sending 8=FIX.4.4|9=58|35=0|49=FIXCLIENT1|56=DMA_HUB|34=185|52=20240222-14:28:19|10=102|
2024-02-22 15:28:30.097 [29] [FixSender] (DEBUG) Receiving 8=FIX.4.4|9=62|35=0|34=188|49=DMA_HUB|56=FIXCLIENT1|52=20240222-14:28:30.097|10=043|
2024-02-22 15:28:49.986 [30] [FixSender] (DEBUG) Sending 8=FIX.4.4|9=58|35=0|49=FIXCLIENT1|56=DMA_HUB|34=186|52=20240222-14:28:49|10=106|
2024-02-22 15:29:00.054 [29] [FixSender] (DEBUG) Receiving 8=FIX.4.4|9=62|35=0|34=189|49=DMA_HUB|56=FIXCLIENT1|52=20240222-14:29:00.054|10=035|
2024-02-22 15:29:19.999 [30] [FixSender] (DEBUG) Sending 8=FIX.4.4|9=58|35=0|49=FIXCLIENT1|56=DMA_HUB|34=187|52=20240222-14:29:19|10=105|
2024-02-22 15:29:29.999 [29] [FixSender] (DEBUG) Receiving 8=FIX.4.4|9=62|35=0|34=190|49=DMA_HUB|56=FIXCLIENT1|52=20240222-14:29:29.999|10=056|
2024-02-22 15:29:50.011 [30] [FixSender] (DEBUG) Sending 8=FIX.4.4|9=58|35=0|49=FIXCLIENT1|56=DMA_HUB|34=188|52=20240222-14:29:50|10=101|
2024-02-22 15:29:59.951 [29] [FixSender] (DEBUG) Receiving 8=FIX.4.4|9=62|35=0|34=191|49=DMA_HUB|56=FIXCLIENT1|52=20240222-14:29:59.950|10=047|
2024-02-22 15:30:20.016 [30] [FixSender] (DEBUG) Sending 8=FIX.4.4|9=58|35=0|49=FIXCLIENT1|56=DMA_HUB|34=189|52=20240222-14:30:20|10=091|
2024-02-22 15:30:29.899 [29] [FixSender] (DEBUG) Receiving 8=FIX.4.4|9=62|35=0|34=192|49=DMA_HUB|56=FIXCLIENT1|52=20240222-14:30:29.899|10=049|
2024-02-22 15:30:50.027 [30] [FixSender] (DEBUG) Sending 8=FIX.4.4|9=58|35=0|49=FIXCLIENT1|56=DMA_HUB|34=190|52=20240222-14:30:50|10=086|
2024-02-22 15:30:59.863 [29] [FixSender] (DEBUG) Receiving 8=FIX.4.4|9=62|35=0|34=193|49=DMA_HUB|56=FIXCLIENT1|52=20240222-14:30:59.863|10=044|
2024-02-22 15:31:20.039 [30] [FixSender] (DEBUG) Sending 8=FIX.4.4|9=58|35=0|49=FIXCLIENT1|56=DMA_HUB|34=191|52=20240222-14:31:20|10=085|
2024-02-22 15:31:29.812 [29] [FixSender] (DEBUG) Receiving 8=FIX.4.4|9=62|35=0|34=194|49=DMA_HUB|56=FIXCLIENT1|52=20240222-14:31:29.812|10=037|
2024-02-22 15:31:50.052 [30] [FixSender] (DEBUG) Sending 8=FIX.4.4|9=58|35=0|49=FIXCLIENT1|56=DMA_HUB|34=192|52=20240222-14:31:50|10=089|
2024-02-22 15:31:59.769 [29] [FixSender] (DEBUG) Receiving 8=FIX.4.4|9=62|35=0|34=195|49=DMA_HUB|56=FIXCLIENT1|52=20240222-14:31:59.769|10=052|
2024-02-22 15:32:20.063 [30] [FixSender] (DEBUG) Sending 8=FIX.4.4|9=58|35=0|49=FIXCLIENT1|56=DMA_HUB|34=193|52=20240222-14:32:20|10=088|
2024-02-22 15:32:29.711 [29] [FixSender] (DEBUG) Receiving 8=FIX.4.4|9=62|35=0|34=196|49=DMA_HUB|56=FIXCLIENT1|52=20240222-14:32:29.711|10=038|
2024-02-22 15:32:50.066 [30] [FixSender] (DEBUG) Sending 8=FIX.4.4|9=58|35=0|49=FIXCLIENT1|56=DMA_HUB|34=194|52=20240222-14:32:50|10=092|
2024-02-22 15:32:59.670 [29] [FixSender] (DEBUG) Receiving 8=FIX.4.4|9=62|35=0|34=197|49=DMA_HUB|56=FIXCLIENT1|52=20240222-14:32:59.670|10=046|
2024-02-22 15:33:20.078 [30] [FixSender] (DEBUG) Sending 8=FIX.4.4|9=58|35=0|49=FIXCLIENT1|56=DMA_HUB|34=195|52=20240222-14:33:20|10=091|
2024-02-22 15:33:29.613 [29] [FixSender] (DEBUG) Receiving 8=FIX.4.4|9=62|35=0|34=198|49=DMA_HUB|56=FIXCLIENT1|52=20240222-14:33:29.612|10=041|
2024-02-22 15:33:50.083 [30] [FixSender] (DEBUG) Sending 8=FIX.4.4|9=58|35=0|49=FIXCLIENT1|56=DMA_HUB|34=196|52=20240222-14:33:50|10=095|
2024-02-22 15:33:59.576 [29] [FixSender] (DEBUG) Receiving 8=FIX.4.4|9=62|35=0|34=199|49=DMA_HUB|56=FIXCLIENT1|52=20240222-14:33:59.575|10=053|
2024-02-22 15:34:20.095 [30] [FixSender] (DEBUG) Sending 8=FIX.4.4|9=58|35=0|49=FIXCLIENT1|56=DMA_HUB|34=197|52=20240222-14:34:20|10=094|
2024-02-22 15:34:29.520 [29] [FixSender] (DEBUG) Receiving 8=FIX.4.4|9=62|35=0|34=200|49=DMA_HUB|56=FIXCLIENT1|52=20240222-14:34:29.520|10=024|
2024-02-22 15:34:50.101 [30] [FixSender] (DEBUG) Sending 8=FIX.4.4|9=58|35=0|49=FIXCLIENT1|56=DMA_HUB|34=198|52=20240222-14:34:50|10=098|
2024-02-22 15:34:59.470 [29] [FixSender] (DEBUG) Receiving 8=FIX.4.4|9=62|35=0|34=201|49=DMA_HUB|56=FIXCLIENT1|52=20240222-14:34:59.469|10=040|
2024-02-22 15:35:20.104 [30] [FixSender] (DEBUG) Sending 8=FIX.4.4|9=58|35=0|49=FIXCLIENT1|56=DMA_HUB|34=199|52=20240222-14:35:20|10=097|
2024-02-22 15:35:29.428 [29] [FixSender] (DEBUG) Receiving 8=FIX.4.4|9=62|35=0|34=202|49=DMA_HUB|56=FIXCLIENT1|52=20240222-14:35:29.427|10=033|
2024-02-22 15:35:50.116 [30] [FixSender] (DEBUG) Sending 8=FIX.4.4|9=58|35=0|49=FIXCLIENT1|56=DMA_HUB|34=200|52=20240222-14:35:50|10=083|
2024-02-22 15:35:59.379 [29] [FixSender] (DEBUG) Receiving 8=FIX.4.4|9=62|35=0|34=203|49=DMA_HUB|56=FIXCLIENT1|52=20240222-14:35:59.379|10=043|
2024-02-22 15:36:20.127 [30] [FixSender] (DEBUG) Sending 8=FIX.4.4|9=58|35=0|49=FIXCLIENT1|56=DMA_HUB|34=201|52=20240222-14:36:20|10=082|
2024-02-22 15:36:29.328 [29] [FixSender] (DEBUG) Receiving 8=FIX.4.4|9=62|35=0|34=204|49=DMA_HUB|56=FIXCLIENT1|52=20240222-14:36:29.328|10=036|
2024-02-22 15:36:50.141 [30] [FixSender] (DEBUG) Sending 8=FIX.4.4|9=58|35=0|49=FIXCLIENT1|56=DMA_HUB|34=202|52=20240222-14:36:50|10=086|
2024-02-22 15:36:59.281 [29] [FixSender] (DEBUG) Receiving 8=FIX.4.4|9=62|35=0|34=205|49=DMA_HUB|56=FIXCLIENT1|52=20240222-14:36:59.281|10=038|
2024-02-22 15:37:20.154 [30] [FixSender] (DEBUG) Sending 8=FIX.4.4|9=58|35=0|49=FIXCLIENT1|56=DMA_HUB|34=203|52=20240222-14:37:20|10=085|
2024-02-22 15:37:29.231 [29] [FixSender] (DEBUG) Receiving 8=FIX.4.4|9=62|35=0|34=206|49=DMA_HUB|56=FIXCLIENT1|52=20240222-14:37:29.231|10=032|
2024-02-22 15:37:50.163 [30] [FixSender] (DEBUG) Sending 8=FIX.4.4|9=58|35=0|49=FIXCLIENT1|56=DMA_HUB|34=204|52=20240222-14:37:50|10=089|
2024-02-22 15:37:59.193 [29] [FixSender] (DEBUG) Receiving 8=FIX.4.4|9=62|35=0|34=207|49=DMA_HUB|56=FIXCLIENT1|52=20240222-14:37:59.192|10=042|
2024-02-22 15:38:20.166 [30] [FixSender] (DEBUG) Sending 8=FIX.4.4|9=58|35=0|49=FIXCLIENT1|56=DMA_HUB|34=205|52=20240222-14:38:20|10=088|
2024-02-22 15:38:29.146 [29] [FixSender] (DEBUG) Receiving 8=FIX.4.4|9=62|35=0|34=208|49=DMA_HUB|56=FIXCLIENT1|52=20240222-14:38:29.145|10=039|
2024-02-22 15:38:50.172 [30] [FixSender] (DEBUG) Sending 8=FIX.4.4|9=58|35=0|49=FIXCLIENT1|56=DMA_HUB|34=206|52=20240222-14:38:50|10=092|
2024-02-22 15:38:59.089 [29] [FixSender] (DEBUG) Receiving 8=FIX.4.4|9=62|35=0|34=209|49=DMA_HUB|56=FIXCLIENT1|52=20240222-14:38:59.089|10=050|
2024-02-22 15:39:20.184 [30] [FixSender] (DEBUG) Sending 8=FIX.4.4|9=58|35=0|49=FIXCLIENT1|56=DMA_HUB|34=207|52=20240222-14:39:20|10=091|
2024-02-22 15:39:29.037 [29] [FixSender] (DEBUG) Receiving 8=FIX.4.4|9=62|35=0|34=210|49=DMA_HUB|56=FIXCLIENT1|52=20240222-14:39:29.037|10=033|
2024-02-22 15:39:50.200 [30] [FixSender] (DEBUG) Sending 8=FIX.4.4|9=58|35=0|49=FIXCLIENT1|56=DMA_HUB|34=208|52=20240222-14:39:50|10=095|
2024-02-22 15:39:58.992 [29] [FixSender] (DEBUG) Receiving 8=FIX.4.4|9=62|35=0|34=211|49=DMA_HUB|56=FIXCLIENT1|52=20240222-14:39:58.992|10=046|
2024-02-22 15:40:20.210 [30] [FixSender] (DEBUG) Sending 8=FIX.4.4|9=58|35=0|49=FIXCLIENT1|56=DMA_HUB|34=209|52=20240222-14:40:20|10=085|
2024-02-22 15:40:28.950 [29] [FixSender] (DEBUG) Receiving 8=FIX.4.4|9=62|35=0|34=212|49=DMA_HUB|56=FIXCLIENT1|52=20240222-14:40:28.949|10=038|
2024-02-22 15:40:50.218 [30] [FixSender] (DEBUG) Sending 8=FIX.4.4|9=58|35=0|49=FIXCLIENT1|56=DMA_HUB|34=210|52=20240222-14:40:50|10=080|
2024-02-22 15:40:58.896 [29] [FixSender] (DEBUG) Receiving 8=FIX.4.4|9=62|35=0|34=213|49=DMA_HUB|56=FIXCLIENT1|52=20240222-14:40:58.896|10=043|
2024-02-22 15:41:20.232 [30] [FixSender] (DEBUG) Sending 8=FIX.4.4|9=58|35=0|49=FIXCLIENT1|56=DMA_HUB|34=211|52=20240222-14:41:20|10=079|
2024-02-22 15:41:28.848 [29] [FixSender] (DEBUG) Receiving 8=FIX.4.4|9=62|35=0|34=214|49=DMA_HUB|56=FIXCLIENT1|52=20240222-14:41:28.848|10=039|
2024-02-22 15:41:50.234 [30] [FixSender] (DEBUG) Sending 8=FIX.4.4|9=58|35=0|49=FIXCLIENT1|56=DMA_HUB|34=212|52=20240222-14:41:50|10=083|
2024-02-22 15:41:58.803 [29] [FixSender] (DEBUG) Receiving 8=FIX.4.4|9=62|35=0|34=215|49=DMA_HUB|56=FIXCLIENT1|52=20240222-14:41:58.803|10=034|
2024-02-22 15:42:20.237 [30] [FixSender] (DEBUG) Sending 8=FIX.4.4|9=58|35=0|49=FIXCLIENT1|56=DMA_HUB|34=213|52=20240222-14:42:20|10=082|
2024-02-22 15:42:28.758 [29] [FixSender] (DEBUG) Receiving 8=FIX.4.4|9=62|35=0|34=216|49=DMA_HUB|56=FIXCLIENT1|52=20240222-14:42:28.758|10=042|
2024-02-22 15:42:50.243 [30] [FixSender] (DEBUG) Sending 8=FIX.4.4|9=58|35=0|49=FIXCLIENT1|56=DMA_HUB|34=214|52=20240222-14:42:50|10=086|
2024-02-22 15:42:58.703 [29] [FixSender] (DEBUG) Receiving 8=FIX.4.4|9=62|35=0|34=217|49=DMA_HUB|56=FIXCLIENT1|52=20240222-14:42:58.703|10=036|
2024-02-22 15:43:20.259 [30] [FixSender] (DEBUG) Sending 8=FIX.4.4|9=58|35=0|49=FIXCLIENT1|56=DMA_HUB|34=215|52=20240222-14:43:20|10=085|
2024-02-22 15:43:28.663 [29] [FixSender] (DEBUG) Receiving 8=FIX.4.4|9=62|35=0|34=218|49=DMA_HUB|56=FIXCLIENT1|52=20240222-14:43:28.663|10=040|
2024-02-22 15:43:50.261 [30] [FixSender] (DEBUG) Sending 8=FIX.4.4|9=58|35=0|49=FIXCLIENT1|56=DMA_HUB|34=216|52=20240222-14:43:50|10=089|
2024-02-22 15:43:58.612 [29] [FixSender] (DEBUG) Receiving 8=FIX.4.4|9=62|35=0|34=219|49=DMA_HUB|56=FIXCLIENT1|52=20240222-14:43:58.611|10=037|
2024-02-22 15:44:20.273 [30] [FixSender] (DEBUG) Sending 8=FIX.4.4|9=58|35=0|49=FIXCLIENT1|56=DMA_HUB|34=217|52=20240222-14:44:20|10=088|
2024-02-22 15:44:28.562 [29] [FixSender] (DEBUG) Receiving 8=FIX.4.4|9=62|35=0|34=220|49=DMA_HUB|56=FIXCLIENT1|52=20240222-14:44:28.562|10=032|
2024-02-22 15:44:50.281 [30] [FixSender] (DEBUG) Sending 8=FIX.4.4|9=58|35=0|49=FIXCLIENT1|56=DMA_HUB|34=218|52=20240222-14:44:50|10=092|
2024-02-22 15:44:58.523 [29] [FixSender] (DEBUG) Receiving 8=FIX.4.4|9=62|35=0|34=221|49=DMA_HUB|56=FIXCLIENT1|52=20240222-14:44:58.522|10=032|
2024-02-22 15:45:20.291 [30] [FixSender] (DEBUG) Sending 8=FIX.4.4|9=58|35=0|49=FIXCLIENT1|56=DMA_HUB|34=219|52=20240222-14:45:20|10=091|
2024-02-22 15:45:28.527 [29] [FixSender] (DEBUG) Receiving 8=FIX.4.4|9=62|35=0|34=222|49=DMA_HUB|56=FIXCLIENT1|52=20240222-14:45:28.527|10=036|
2024-02-22 15:45:50.293 [30] [FixSender] (DEBUG) Sending 8=FIX.4.4|9=58|35=0|49=FIXCLIENT1|56=DMA_HUB|34=220|52=20240222-14:45:50|10=086|
2024-02-22 15:45:58.482 [29] [FixSender] (DEBUG) Receiving 8=FIX.4.4|9=62|35=0|34=223|49=DMA_HUB|56=FIXCLIENT1|52=20240222-14:45:58.482|10=040|
2024-02-22 15:46:20.304 [30] [FixSender] (DEBUG) Sending 8=FIX.4.4|9=58|35=0|49=FIXCLIENT1|56=DMA_HUB|34=221|52=20240222-14:46:20|10=085|
2024-02-22 15:46:28.436 [29] [FixSender] (DEBUG) Receiving 8=FIX.4.4|9=62|35=0|34=224|49=DMA_HUB|56=FIXCLIENT1|52=20240222-14:46:28.436|10=038|
2024-02-22 15:46:50.319 [30] [FixSender] (DEBUG) Sending 8=FIX.4.4|9=58|35=0|49=FIXCLIENT1|56=DMA_HUB|34=222|52=20240222-14:46:50|10=089|
2024-02-22 15:46:58.390 [29] [FixSender] (DEBUG) Receiving 8=FIX.4.4|9=62|35=0|34=225|49=DMA_HUB|56=FIXCLIENT1|52=20240222-14:46:58.390|10=041|
2024-02-22 15:47:20.323 [30] [FixSender] (DEBUG) Sending 8=FIX.4.4|9=58|35=0|49=FIXCLIENT1|56=DMA_HUB|34=223|52=20240222-14:47:20|10=088|
2024-02-22 15:47:28.332 [29] [FixSender] (DEBUG) Receiving 8=FIX.4.4|9=62|35=0|34=226|49=DMA_HUB|56=FIXCLIENT1|52=20240222-14:47:28.332|10=036|
2024-02-22 15:47:50.326 [30] [FixSender] (DEBUG) Sending 8=FIX.4.4|9=58|35=0|49=FIXCLIENT1|56=DMA_HUB|34=224|52=20240222-14:47:50|10=092|
2024-02-22 15:47:58.292 [29] [FixSender] (DEBUG) Receiving 8=FIX.4.4|9=62|35=0|34=227|49=DMA_HUB|56=FIXCLIENT1|52=20240222-14:47:58.292|10=045|
2024-02-22 15:48:20.329 [30] [FixSender] (DEBUG) Sending 8=FIX.4.4|9=58|35=0|49=FIXCLIENT1|56=DMA_HUB|34=225|52=20240222-14:48:20|10=091|
2024-02-22 15:48:28.234 [29] [FixSender] (DEBUG) Receiving 8=FIX.4.4|9=62|35=0|34=228|49=DMA_HUB|56=FIXCLIENT1|52=20240222-14:48:28.234|10=040|
2024-02-22 15:48:50.330 [30] [FixSender] (DEBUG) Sending 8=FIX.4.4|9=58|35=0|49=FIXCLIENT1|56=DMA_HUB|34=226|52=20240222-14:48:50|10=095|
2024-02-22 15:48:58.189 [29] [FixSender] (DEBUG) Receiving 8=FIX.4.4|9=62|35=0|34=229|49=DMA_HUB|56=FIXCLIENT1|52=20240222-14:48:58.189|10=053|
2024-02-22 15:49:20.334 [30] [FixSender] (DEBUG) Sending 8=FIX.4.4|9=58|35=0|49=FIXCLIENT1|56=DMA_HUB|34=227|52=20240222-14:49:20|10=094|
2024-02-22 15:49:28.149 [29] [FixSender] (DEBUG) Receiving 8=FIX.4.4|9=62|35=0|34=230|49=DMA_HUB|56=FIXCLIENT1|52=20240222-14:49:28.149|10=039|
2024-02-22 15:49:50.339 [30] [FixSender] (DEBUG) Sending 8=FIX.4.4|9=58|35=0|49=FIXCLIENT1|56=DMA_HUB|34=228|52=20240222-14:49:50|10=098|
2024-02-22 15:49:58.104 [29] [FixSender] (DEBUG) Receiving 8=FIX.4.4|9=62|35=0|34=231|49=DMA_HUB|56=FIXCLIENT1|52=20240222-14:49:58.103|10=033|
2024-02-22 15:50:20.352 [30] [FixSender] (DEBUG) Sending 8=FIX.4.4|9=58|35=0|49=FIXCLIENT1|56=DMA_HUB|34=229|52=20240222-14:50:20|10=088|
2024-02-22 15:50:28.045 [29] [FixSender] (DEBUG) Receiving 8=FIX.4.4|9=62|35=0|34=232|49=DMA_HUB|56=FIXCLIENT1|52=20240222-14:50:28.045|10=028|
2024-02-22 15:50:50.354 [30] [FixSender] (DEBUG) Sending 8=FIX.4.4|9=58|35=0|49=FIXCLIENT1|56=DMA_HUB|34=230|52=20240222-14:50:50|10=083|
2024-02-22 15:50:58.001 [29] [FixSender] (DEBUG) Receiving 8=FIX.4.4|9=62|35=0|34=233|49=DMA_HUB|56=FIXCLIENT1|52=20240222-14:50:58.001|10=024|
2024-02-22 15:51:20.365 [30] [FixSender] (DEBUG) Sending 8=FIX.4.4|9=58|35=0|49=FIXCLIENT1|56=DMA_HUB|34=231|52=20240222-14:51:20|10=082|
2024-02-22 15:51:27.951 [29] [FixSender] (DEBUG) Receiving 8=FIX.4.4|9=62|35=0|34=234|49=DMA_HUB|56=FIXCLIENT1|52=20240222-14:51:27.951|10=036|
2024-02-22 15:51:50.381 [30] [FixSender] (DEBUG) Sending 8=FIX.4.4|9=58|35=0|49=FIXCLIENT1|56=DMA_HUB|34=232|52=20240222-14:51:50|10=086|
2024-02-22 15:51:57.907 [29] [FixSender] (DEBUG) Receiving 8=FIX.4.4|9=62|35=0|34=235|49=DMA_HUB|56=FIXCLIENT1|52=20240222-14:51:57.907|10=041|
2024-02-22 15:52:20.385 [30] [FixSender] (DEBUG) Sending 8=FIX.4.4|9=58|35=0|49=FIXCLIENT1|56=DMA_HUB|34=233|52=20240222-14:52:20|10=085|
2024-02-22 15:52:27.864 [29] [FixSender] (DEBUG) Receiving 8=FIX.4.4|9=62|35=0|34=236|49=DMA_HUB|56=FIXCLIENT1|52=20240222-14:52:27.863|10=041|
2024-02-22 15:52:50.388 [30] [FixSender] (DEBUG) Sending 8=FIX.4.4|9=58|35=0|49=FIXCLIENT1|56=DMA_HUB|34=234|52=20240222-14:52:50|10=089|
2024-02-22 15:52:57.819 [29] [FixSender] (DEBUG) Receiving 8=FIX.4.4|9=62|35=0|34=237|49=DMA_HUB|56=FIXCLIENT1|52=20240222-14:52:57.810|10=037|
2024-02-22 15:53:20.400 [30] [FixSender] (DEBUG) Sending 8=FIX.4.4|9=58|35=0|49=FIXCLIENT1|56=DMA_HUB|34=235|52=20240222-14:53:20|10=088|
2024-02-22 15:53:27.766 [29] [FixSender] (DEBUG) Receiving 8=FIX.4.4|9=62|35=0|34=238|49=DMA_HUB|56=FIXCLIENT1|52=20240222-14:53:27.766|10=046|
2024-02-22 15:53:50.408 [30] [FixSender] (DEBUG) Sending 8=FIX.4.4|9=58|35=0|49=FIXCLIENT1|56=DMA_HUB|34=236|52=20240222-14:53:50|10=092|
2024-02-22 15:53:57.721 [29] [FixSender] (DEBUG) Receiving 8=FIX.4.4|9=62|35=0|34=239|49=DMA_HUB|56=FIXCLIENT1|52=20240222-14:53:57.720|10=040|
2024-02-22 15:54:20.423 [30] [FixSender] (DEBUG) Sending 8=FIX.4.4|9=58|35=0|49=FIXCLIENT1|56=DMA_HUB|34=237|52=20240222-14:54:20|10=091|
2024-02-22 15:54:27.665 [29] [FixSender] (DEBUG) Receiving 8=FIX.4.4|9=62|35=0|34=240|49=DMA_HUB|56=FIXCLIENT1|52=20240222-14:54:27.663|10=036|
2024-02-22 15:54:50.433 [30] [FixSender] (DEBUG) Sending 8=FIX.4.4|9=58|35=0|49=FIXCLIENT1|56=DMA_HUB|34=238|52=20240222-14:54:50|10=095|
2024-02-22 15:54:57.617 [29] [FixSender] (DEBUG) Receiving 8=FIX.4.4|9=62|35=0|34=241|49=DMA_HUB|56=FIXCLIENT1|52=20240222-14:54:57.617|10=039|
2024-02-22 15:55:20.449 [30] [FixSender] (DEBUG) Sending 8=FIX.4.4|9=58|35=0|49=FIXCLIENT1|56=DMA_HUB|34=239|52=20240222-14:55:20|10=094|
2024-02-22 15:55:27.569 [29] [FixSender] (DEBUG) Receiving 8=FIX.4.4|9=62|35=0|34=242|49=DMA_HUB|56=FIXCLIENT1|52=20240222-14:55:27.569|10=044|
2024-02-22 15:55:50.461 [30] [FixSender] (DEBUG) Sending 8=FIX.4.4|9=58|35=0|49=FIXCLIENT1|56=DMA_HUB|34=240|52=20240222-14:55:50|10=089|
2024-02-22 15:55:57.519 [29] [FixSender] (DEBUG) Receiving 8=FIX.4.4|9=62|35=0|34=243|49=DMA_HUB|56=FIXCLIENT1|52=20240222-14:55:57.519|10=043|
2024-02-22 15:56:20.477 [30] [FixSender] (DEBUG) Sending 8=FIX.4.4|9=58|35=0|49=FIXCLIENT1|56=DMA_HUB|34=241|52=20240222-14:56:20|10=088|
2024-02-22 15:56:27.474 [29] [FixSender] (DEBUG) Receiving 8=FIX.4.4|9=62|35=0|34=244|49=DMA_HUB|56=FIXCLIENT1|52=20240222-14:56:27.474|10=042|
2024-02-22 15:56:50.485 [30] [FixSender] (DEBUG) Sending 8=FIX.4.4|9=58|35=0|49=FIXCLIENT1|56=DMA_HUB|34=242|52=20240222-14:56:50|10=092|
2024-02-22 15:56:57.425 [29] [FixSender] (DEBUG) Receiving 8=FIX.4.4|9=62|35=0|34=245|49=DMA_HUB|56=FIXCLIENT1|52=20240222-14:56:57.424|10=041|
2024-02-22 15:57:20.491 [30] [FixSender] (DEBUG) Sending 8=FIX.4.4|9=58|35=0|49=FIXCLIENT1|56=DMA_HUB|34=243|52=20240222-14:57:20|10=091|
2024-02-22 15:57:27.375 [29] [FixSender] (DEBUG) Receiving 8=FIX.4.4|9=62|35=0|34=246|49=DMA_HUB|56=FIXCLIENT1|52=20240222-14:57:27.375|10=045|
2024-02-22 15:57:50.500 [30] [FixSender] (DEBUG) Sending 8=FIX.4.4|9=58|35=0|49=FIXCLIENT1|56=DMA_HUB|34=244|52=20240222-14:57:50|10=095|
2024-02-22 15:57:57.332 [29] [FixSender] (DEBUG) Receiving 8=FIX.4.4|9=62|35=0|34=247|49=DMA_HUB|56=FIXCLIENT1|52=20240222-14:57:57.331|10=041|
2024-02-22 15:58:20.508 [30] [FixSender] (DEBUG) Sending 8=FIX.4.4|9=58|35=0|49=FIXCLIENT1|56=DMA_HUB|34=245|52=20240222-14:58:20|10=094|
2024-02-22 15:58:27.284 [29] [FixSender] (DEBUG) Receiving 8=FIX.4.4|9=62|35=0|34=248|49=DMA_HUB|56=FIXCLIENT1|52=20240222-14:58:27.284|10=047|
2024-02-22 15:58:50.513 [30] [FixSender] (DEBUG) Sending 8=FIX.4.4|9=58|35=0|49=FIXCLIENT1|56=DMA_HUB|34=246|52=20240222-14:58:50|10=098|
2024-02-22 15:58:57.238 [29] [FixSender] (DEBUG) Receiving 8=FIX.4.4|9=62|35=0|34=249|49=DMA_HUB|56=FIXCLIENT1|52=20240222-14:58:57.238|10=050|
2024-02-22 15:59:20.517 [30] [FixSender] (DEBUG) Sending 8=FIX.4.4|9=58|35=0|49=FIXCLIENT1|56=DMA_HUB|34=247|52=20240222-14:59:20|10=097|
2024-02-22 15:59:27.188 [29] [FixSender] (DEBUG) Receiving 8=FIX.4.4|9=62|35=0|34=250|49=DMA_HUB|56=FIXCLIENT1|52=20240222-14:59:27.188|10=044|
2024-02-22 15:59:50.518 [30] [FixSender] (DEBUG) Sending 8=FIX.4.4|9=58|35=0|49=FIXCLIENT1|56=DMA_HUB|34=248|52=20240222-14:59:50|10=101|
2024-02-22 15:59:57.139 [29] [FixSender] (DEBUG) Receiving 8=FIX.4.4|9=62|35=0|34=251|49=DMA_HUB|56=FIXCLIENT1|52=20240222-14:59:57.138|10=043|
2024-02-22 16:00:20.523 [30] [FixSender] (DEBUG) Sending 8=FIX.4.4|9=58|35=0|49=FIXCLIENT1|56=DMA_HUB|34=249|52=20240222-15:00:20|10=086|
2024-02-22 16:00:27.084 [29] [FixSender] (DEBUG) Receiving 8=FIX.4.4|9=62|35=0|34=252|49=DMA_HUB|56=FIXCLIENT1|52=20240222-15:00:27.084|10=028|
2024-02-22 16:00:50.526 [30] [FixSender] (DEBUG) Sending 8=FIX.4.4|9=58|35=0|49=FIXCLIENT1|56=DMA_HUB|34=250|52=20240222-15:00:50|10=081|
2024-02-22 16:00:57.036 [29] [FixSender] (DEBUG) Receiving 8=FIX.4.4|9=62|35=0|34=253|49=DMA_HUB|56=FIXCLIENT1|52=20240222-15:00:57.036|10=029|
2024-02-22 16:01:20.541 [30] [FixSender] (DEBUG) Sending 8=FIX.4.4|9=58|35=0|49=FIXCLIENT1|56=DMA_HUB|34=251|52=20240222-15:01:20|10=080|
2024-02-22 16:01:26.998 [29] [FixSender] (DEBUG) Receiving 8=FIX.4.4|9=62|35=0|34=254|49=DMA_HUB|56=FIXCLIENT1|52=20240222-15:01:26.998|10=044|
2024-02-22 16:01:50.544 [30] [FixSender] (DEBUG) Sending 8=FIX.4.4|9=58|35=0|49=FIXCLIENT1|56=DMA_HUB|34=252|52=20240222-15:01:50|10=084|
2024-02-22 16:01:56.952 [29] [FixSender] (DEBUG) Receiving 8=FIX.4.4|9=62|35=0|34=255|49=DMA_HUB|56=FIXCLIENT1|52=20240222-15:01:56.952|10=038|
2024-02-22 16:02:20.556 [30] [FixSender] (DEBUG) Sending 8=FIX.4.4|9=58|35=0|49=FIXCLIENT1|56=DMA_HUB|34=253|52=20240222-15:02:20|10=083|
2024-02-22 16:02:26.906 [29] [FixSender] (DEBUG) Receiving 8=FIX.4.4|9=62|35=0|34=256|49=DMA_HUB|56=FIXCLIENT1|52=20240222-15:02:26.906|10=036|
2024-02-22 16:02:50.564 [30] [FixSender] (DEBUG) Sending 8=FIX.4.4|9=58|35=0|49=FIXCLIENT1|56=DMA_HUB|34=254|52=20240222-15:02:50|10=087|
2024-02-22 16:02:56.916 [29] [FixSender] (DEBUG) Receiving 8=FIX.4.4|9=62|35=0|34=257|49=DMA_HUB|56=FIXCLIENT1|52=20240222-15:02:56.916|10=041|
2024-02-22 16:03:20.570 [30] [FixSender] (DEBUG) Sending 8=FIX.4.4|9=58|35=0|49=FIXCLIENT1|56=DMA_HUB|34=255|52=20240222-15:03:20|10=086|
2024-02-22 16:03:26.859 [29] [FixSender] (DEBUG) Receiving 8=FIX.4.4|9=62|35=0|34=258|49=DMA_HUB|56=FIXCLIENT1|52=20240222-15:03:26.859|10=046|
2024-02-22 16:03:50.585 [30] [FixSender] (DEBUG) Sending 8=FIX.4.4|9=58|35=0|49=FIXCLIENT1|56=DMA_HUB|34=256|52=20240222-15:03:50|10=090|
2024-02-22 16:03:56.822 [29] [FixSender] (DEBUG) Receiving 8=FIX.4.4|9=62|35=0|34=259|49=DMA_HUB|56=FIXCLIENT1|52=20240222-15:03:56.819|10=046|
2024-02-22 16:04:20.594 [30] [FixSender] (DEBUG) Sending 8=FIX.4.4|9=58|35=0|49=FIXCLIENT1|56=DMA_HUB|34=257|52=20240222-15:04:20|10=089|
2024-02-22 16:04:26.772 [29] [FixSender] (DEBUG) Receiving 8=FIX.4.4|9=62|35=0|34=260|49=DMA_HUB|56=FIXCLIENT1|52=20240222-15:04:26.772|10=034|
2024-02-22 16:04:50.601 [30] [FixSender] (DEBUG) Sending 8=FIX.4.4|9=58|35=0|49=FIXCLIENT1|56=DMA_HUB|34=258|52=20240222-15:04:50|10=093|
2024-02-22 16:04:56.730 [29] [FixSender] (DEBUG) Receiving 8=FIX.4.4|9=62|35=0|34=261|49=DMA_HUB|56=FIXCLIENT1|52=20240222-15:04:56.730|10=032|
2024-02-22 16:05:20.614 [30] [FixSender] (DEBUG) Sending 8=FIX.4.4|9=58|35=0|49=FIXCLIENT1|56=DMA_HUB|34=259|52=20240222-15:05:20|10=092|
2024-02-22 16:05:26.744 [29] [FixSender] (DEBUG) Receiving 8=FIX.4.4|9=62|35=0|34=262|49=DMA_HUB|56=FIXCLIENT1|52=20240222-15:05:26.744|10=036|
2024-02-22 16:05:50.631 [30] [FixSender] (DEBUG) Sending 8=FIX.4.4|9=58|35=0|49=FIXCLIENT1|56=DMA_HUB|34=260|52=20240222-15:05:50|10=087|
2024-02-22 16:05:56.692 [29] [FixSender] (DEBUG) Receiving 8=FIX.4.4|9=62|35=0|34=263|49=DMA_HUB|56=FIXCLIENT1|52=20240222-15:05:56.691|10=041|
2024-02-22 16:06:20.642 [30] [FixSender] (DEBUG) Sending 8=FIX.4.4|9=58|35=0|49=FIXCLIENT1|56=DMA_HUB|34=261|52=20240222-15:06:20|10=086|
2024-02-22 16:06:26.643 [29] [FixSender] (DEBUG) Receiving 8=FIX.4.4|9=62|35=0|34=264|49=DMA_HUB|56=FIXCLIENT1|52=20240222-15:06:26.643|10=037|
2024-02-22 16:06:50.654 [30] [FixSender] (DEBUG) Sending 8=FIX.4.4|9=58|35=0|49=FIXCLIENT1|56=DMA_HUB|34=262|52=20240222-15:06:50|10=090|
2024-02-22 16:06:56.591 [29] [FixSender] (DEBUG) Receiving 8=FIX.4.4|9=62|35=0|34=265|49=DMA_HUB|56=FIXCLIENT1|52=20240222-15:06:56.591|10=043|
2024-02-22 16:07:20.661 [30] [FixSender] (DEBUG) Sending 8=FIX.4.4|9=58|35=0|49=FIXCLIENT1|56=DMA_HUB|34=263|52=20240222-15:07:20|10=089|
2024-02-22 16:07:26.545 [29] [FixSender] (DEBUG) Receiving 8=FIX.4.4|9=62|35=0|34=266|49=DMA_HUB|56=FIXCLIENT1|52=20240222-15:07:26.545|10=041|
2024-02-22 16:07:50.664 [30] [FixSender] (DEBUG) Sending 8=FIX.4.4|9=58|35=0|49=FIXCLIENT1|56=DMA_HUB|34=264|52=20240222-15:07:50|10=093|
2024-02-22 16:07:56.499 [29] [FixSender] (DEBUG) Receiving 8=FIX.4.4|9=62|35=0|34=267|49=DMA_HUB|56=FIXCLIENT1|52=20240222-15:07:56.498|10=052|
2024-02-22 16:08:20.672 [30] [FixSender] (DEBUG) Sending 8=FIX.4.4|9=58|35=0|49=FIXCLIENT1|56=DMA_HUB|34=265|52=20240222-15:08:20|10=092|
2024-02-22 16:08:26.449 [29] [FixSender] (DEBUG) Receiving 8=FIX.4.4|9=62|35=0|34=268|49=DMA_HUB|56=FIXCLIENT1|52=20240222-15:08:26.449|10=047|
2024-02-22 16:08:50.686 [30] [FixSender] (DEBUG) Sending 8=FIX.4.4|9=58|35=0|49=FIXCLIENT1|56=DMA_HUB|34=266|52=20240222-15:08:50|10=096|
2024-02-22 16:08:56.408 [29] [FixSender] (DEBUG) Receiving 8=FIX.4.4|9=62|35=0|34=269|49=DMA_HUB|56=FIXCLIENT1|52=20240222-15:08:56.407|10=045|
2024-02-22 16:09:20.696 [30] [FixSender] (DEBUG) Sending 8=FIX.4.4|9=58|35=0|49=FIXCLIENT1|56=DMA_HUB|34=267|52=20240222-15:09:20|10=095|
2024-02-22 16:09:26.362 [29] [FixSender] (DEBUG) Receiving 8=FIX.4.4|9=62|35=0|34=270|49=DMA_HUB|56=FIXCLIENT1|52=20240222-15:09:26.361|10=034|
2024-02-22 16:09:50.703 [30] [FixSender] (DEBUG) Sending 8=FIX.4.4|9=58|35=0|49=FIXCLIENT1|56=DMA_HUB|34=268|52=20240222-15:09:50|10=099|
2024-02-22 16:09:56.311 [29] [FixSender] (DEBUG) Receiving 8=FIX.4.4|9=62|35=0|34=271|49=DMA_HUB|56=FIXCLIENT1|52=20240222-15:09:56.310|10=032|
2024-02-22 16:10:20.706 [30] [FixSender] (DEBUG) Sending 8=FIX.4.4|9=58|35=0|49=FIXCLIENT1|56=DMA_HUB|34=269|52=20240222-15:10:20|10=089|
2024-02-22 16:10:26.258 [29] [FixSender] (DEBUG) Receiving 8=FIX.4.4|9=62|35=0|34=272|49=DMA_HUB|56=FIXCLIENT1|52=20240222-15:10:26.258|10=033|
2024-02-22 16:10:50.714 [30] [FixSender] (DEBUG) Sending 8=FIX.4.4|9=58|35=0|49=FIXCLIENT1|56=DMA_HUB|34=270|52=20240222-15:10:50|10=084|
2024-02-22 16:10:56.205 [29] [FixSender] (DEBUG) Receiving 8=FIX.4.4|9=62|35=0|34=273|49=DMA_HUB|56=FIXCLIENT1|52=20240222-15:10:56.204|10=028|
2024-02-22 16:11:20.715 [30] [FixSender] (DEBUG) Sending 8=FIX.4.4|9=58|35=0|49=FIXCLIENT1|56=DMA_HUB|34=271|52=20240222-15:11:20|10=083|
2024-02-22 16:11:26.158 [29] [FixSender] (DEBUG) Receiving 8=FIX.4.4|9=62|35=0|34=274|49=DMA_HUB|56=FIXCLIENT1|52=20240222-15:11:26.158|10=035|
2024-02-22 16:11:50.725 [30] [FixSender] (DEBUG) Sending 8=FIX.4.4|9=58|35=0|49=FIXCLIENT1|56=DMA_HUB|34=272|52=20240222-15:11:50|10=087|
2024-02-22 16:11:56.110 [29] [FixSender] (DEBUG) Receiving 8=FIX.4.4|9=62|35=0|34=275|49=DMA_HUB|56=FIXCLIENT1|52=20240222-15:11:56.110|10=027|
2024-02-22 16:12:20.739 [30] [FixSender] (DEBUG) Sending 8=FIX.4.4|9=58|35=0|49=FIXCLIENT1|56=DMA_HUB|34=273|52=20240222-15:12:20|10=086|
2024-02-22 16:12:26.062 [29] [FixSender] (DEBUG) Receiving 8=FIX.4.4|9=62|35=0|34=276|49=DMA_HUB|56=FIXCLIENT1|52=20240222-15:12:26.062|10=032|
2024-02-22 16:12:50.750 [30] [FixSender] (DEBUG) Sending 8=FIX.4.4|9=58|35=0|49=FIXCLIENT1|56=DMA_HUB|34=274|52=20240222-15:12:50|10=090|
2024-02-22 16:12:56.013 [29] [FixSender] (DEBUG) Receiving 8=FIX.4.4|9=62|35=0|34=277|49=DMA_HUB|56=FIXCLIENT1|52=20240222-15:12:56.012|10=031|
2024-02-22 16:13:20.752 [30] [FixSender] (DEBUG) Sending 8=FIX.4.4|9=58|35=0|49=FIXCLIENT1|56=DMA_HUB|34=275|52=20240222-15:13:20|10=089|
2024-02-22 16:13:25.977 [29] [FixSender] (DEBUG) Receiving 8=FIX.4.4|9=62|35=0|34=278|49=DMA_HUB|56=FIXCLIENT1|52=20240222-15:13:25.977|10=049|
2024-02-22 16:13:50.758 [30] [FixSender] (DEBUG) Sending 8=FIX.4.4|9=58|35=0|49=FIXCLIENT1|56=DMA_HUB|34=276|52=20240222-15:13:50|10=093|
2024-02-22 16:13:55.935 [29] [FixSender] (DEBUG) Receiving 8=FIX.4.4|9=62|35=0|34=279|49=DMA_HUB|56=FIXCLIENT1|52=20240222-15:13:55.929|10=050|
2024-02-22 16:14:20.772 [30] [FixSender] (DEBUG) Sending 8=FIX.4.4|9=58|35=0|49=FIXCLIENT1|56=DMA_HUB|34=277|52=20240222-15:14:20|10=092|
2024-02-22 16:14:25.869 [29] [FixSender] (DEBUG) Receiving 8=FIX.4.4|9=62|35=0|34=280|49=DMA_HUB|56=FIXCLIENT1|52=20240222-15:14:25.869|10=043|
2024-02-22 16:14:50.785 [30] [FixSender] (DEBUG) Sending 8=FIX.4.4|9=58|35=0|49=FIXCLIENT1|56=DMA_HUB|34=278|52=20240222-15:14:50|10=096|
2024-02-22 16:14:55.825 [29] [FixSender] (DEBUG) Receiving 8=FIX.4.4|9=62|35=0|34=281|49=DMA_HUB|56=FIXCLIENT1|52=20240222-15:14:55.825|10=039|
2024-02-22 16:15:20.789 [30] [FixSender] (DEBUG) Sending 8=FIX.4.4|9=58|35=0|49=FIXCLIENT1|56=DMA_HUB|34=279|52=20240222-15:15:20|10=095|
2024-02-22 16:15:25.780 [29] [FixSender] (DEBUG) Receiving 8=FIX.4.4|9=62|35=0|34=282|49=DMA_HUB|56=FIXCLIENT1|52=20240222-15:15:25.780|10=038|
2024-02-22 16:15:50.794 [30] [FixSender] (DEBUG) Sending 8=FIX.4.4|9=58|35=0|49=FIXCLIENT1|56=DMA_HUB|34=280|52=20240222-15:15:50|10=090|
2024-02-22 16:15:55.726 [29] [FixSender] (DEBUG) Receiving 8=FIX.4.4|9=62|35=0|34=283|49=DMA_HUB|56=FIXCLIENT1|52=20240222-15:15:55.726|10=042|
2024-02-22 16:16:20.796 [30] [FixSender] (DEBUG) Sending 8=FIX.4.4|9=58|35=0|49=FIXCLIENT1|56=DMA_HUB|34=281|52=20240222-15:16:20|10=089|
2024-02-22 16:16:25.683 [29] [FixSender] (DEBUG) Receiving 8=FIX.4.4|9=62|35=0|34=284|49=DMA_HUB|56=FIXCLIENT1|52=20240222-15:16:25.683|10=043|
2024-02-22 16:16:50.801 [30] [FixSender] (DEBUG) Sending 8=FIX.4.4|9=58|35=0|49=FIXCLIENT1|56=DMA_HUB|34=282|52=20240222-15:16:50|10=093|
2024-02-22 16:16:55.632 [29] [FixSender] (DEBUG) Receiving 8=FIX.4.4|9=62|35=0|34=285|49=DMA_HUB|56=FIXCLIENT1|52=20240222-15:16:55.631|10=040|
2024-02-22 16:17:20.813 [30] [FixSender] (DEBUG) Sending 8=FIX.4.4|9=58|35=0|49=FIXCLIENT1|56=DMA_HUB|34=283|52=20240222-15:17:20|10=092|
2024-02-22 16:17:25.586 [29] [FixSender] (DEBUG) Receiving 8=FIX.4.4|9=62|35=0|34=286|49=DMA_HUB|56=FIXCLIENT1|52=20240222-15:17:25.586|10=048|
2024-02-22 16:17:50.826 [30] [FixSender] (DEBUG) Sending 8=FIX.4.4|9=58|35=0|49=FIXCLIENT1|56=DMA_HUB|34=284|52=20240222-15:17:50|10=096|
2024-02-22 16:17:55.533 [29] [FixSender] (DEBUG) Receiving 8=FIX.4.4|9=62|35=0|34=287|49=DMA_HUB|56=FIXCLIENT1|52=20240222-15:17:55.532|10=043|
2024-02-22 16:18:20.835 [30] [FixSender] (DEBUG) Sending 8=FIX.4.4|9=58|35=0|49=FIXCLIENT1|56=DMA_HUB|34=285|52=20240222-15:18:20|10=095|
2024-02-22 16:18:25.485 [29] [FixSender] (DEBUG) Receiving 8=FIX.4.4|9=62|35=0|34=288|49=DMA_HUB|56=FIXCLIENT1|52=20240222-15:18:25.485|10=049|
2024-02-22 16:18:50.842 [30] [FixSender] (DEBUG) Sending 8=FIX.4.4|9=58|35=0|49=FIXCLIENT1|56=DMA_HUB|34=286|52=20240222-15:18:50|10=099|
2024-02-22 16:18:55.446 [29] [FixSender] (DEBUG) Receiving 8=FIX.4.4|9=62|35=0|34=289|49=DMA_HUB|56=FIXCLIENT1|52=20240222-15:18:55.446|10=050|
2024-02-22 16:19:20.844 [30] [FixSender] (DEBUG) Sending 8=FIX.4.4|9=58|35=0|49=FIXCLIENT1|56=DMA_HUB|34=287|52=20240222-15:19:20|10=098|
2024-02-22 16:19:25.401 [29] [FixSender] (DEBUG) Receiving 8=FIX.4.4|9=62|35=0|34=290|49=DMA_HUB|56=FIXCLIENT1|52=20240222-15:19:25.401|10=031|
2024-02-22 16:19:50.857 [30] [FixSender] (DEBUG) Sending 8=FIX.4.4|9=58|35=0|49=FIXCLIENT1|56=DMA_HUB|34=288|52=20240222-15:19:50|10=102|
2024-02-22 16:19:55.350 [29] [FixSender] (DEBUG) Receiving 8=FIX.4.4|9=62|35=0|34=291|49=DMA_HUB|56=FIXCLIENT1|52=20240222-15:19:55.349|10=046|
2024-02-22 16:20:20.867 [30] [FixSender] (DEBUG) Sending 8=FIX.4.4|9=58|35=0|49=FIXCLIENT1|56=DMA_HUB|34=289|52=20240222-15:20:20|10=092|
2024-02-22 16:20:25.303 [29] [FixSender] (DEBUG) Receiving 8=FIX.4.4|9=62|35=0|34=292|49=DMA_HUB|56=FIXCLIENT1|52=20240222-15:20:25.302|10=025|
2024-02-22 16:20:50.872 [30] [FixSender] (DEBUG) Sending 8=FIX.4.4|9=58|35=0|49=FIXCLIENT1|56=DMA_HUB|34=290|52=20240222-15:20:50|10=087|
2024-02-22 16:20:55.245 [29] [FixSender] (DEBUG) Receiving 8=FIX.4.4|9=62|35=0|34=293|49=DMA_HUB|56=FIXCLIENT1|52=20240222-15:20:55.244|10=034|
2024-02-22 16:21:20.885 [30] [FixSender] (DEBUG) Sending 8=FIX.4.4|9=58|35=0|49=FIXCLIENT1|56=DMA_HUB|34=291|52=20240222-15:21:20|10=086|
2024-02-22 16:21:25.196 [29] [FixSender] (DEBUG) Receiving 8=FIX.4.4|9=62|35=0|34=294|49=DMA_HUB|56=FIXCLIENT1|52=20240222-15:21:25.195|10=038|
2024-02-22 16:21:50.888 [30] [FixSender] (DEBUG) Sending 8=FIX.4.4|9=58|35=0|49=FIXCLIENT1|56=DMA_HUB|34=292|52=20240222-15:21:50|10=090|
2024-02-22 16:21:55.158 [29] [FixSender] (DEBUG) Receiving 8=FIX.4.4|9=62|35=0|34=295|49=DMA_HUB|56=FIXCLIENT1|52=20240222-15:21:55.157|10=040|
2024-02-22 16:22:20.896 [30] [FixSender] (DEBUG) Sending 8=FIX.4.4|9=58|35=0|49=FIXCLIENT1|56=DMA_HUB|34=293|52=20240222-15:22:20|10=089|
2024-02-22 16:22:25.102 [29] [FixSender] (DEBUG) Receiving 8=FIX.4.4|9=62|35=0|34=296|49=DMA_HUB|56=FIXCLIENT1|52=20240222-15:22:25.101|10=028|
2024-02-22 16:22:50.908 [30] [FixSender] (DEBUG) Sending 8=FIX.4.4|9=58|35=0|49=FIXCLIENT1|56=DMA_HUB|34=294|52=20240222-15:22:50|10=093|
2024-02-22 16:22:55.053 [29] [FixSender] (DEBUG) Receiving 8=FIX.4.4|9=62|35=0|34=297|49=DMA_HUB|56=FIXCLIENT1|52=20240222-15:22:55.053|10=038|
2024-02-22 16:23:20.914 [30] [FixSender] (DEBUG) Sending 8=FIX.4.4|9=58|35=0|49=FIXCLIENT1|56=DMA_HUB|34=295|52=20240222-15:23:20|10=092|
2024-02-22 16:23:25.017 [29] [FixSender] (DEBUG) Receiving 8=FIX.4.4|9=62|35=0|34=298|49=DMA_HUB|56=FIXCLIENT1|52=20240222-15:23:25.017|10=037|
2024-02-22 16:23:50.918 [30] [FixSender] (DEBUG) Sending 8=FIX.4.4|9=58|35=0|49=FIXCLIENT1|56=DMA_HUB|34=296|52=20240222-15:23:50|10=096|
2024-02-22 16:23:54.960 [29] [FixSender] (DEBUG) Receiving 8=FIX.4.4|9=62|35=0|34=299|49=DMA_HUB|56=FIXCLIENT1|52=20240222-15:23:54.960|10=047|
2024-02-22 16:24:20.932 [30] [FixSender] (DEBUG) Sending 8=FIX.4.4|9=58|35=0|49=FIXCLIENT1|56=DMA_HUB|34=297|52=20240222-15:24:20|10=095|
2024-02-22 16:24:24.921 [29] [FixSender] (DEBUG) Receiving 8=FIX.4.4|9=62|35=0|34=300|49=DMA_HUB|56=FIXCLIENT1|52=20240222-15:24:24.921|10=025|
2024-02-22 16:24:50.937 [30] [FixSender] (DEBUG) Sending 8=FIX.4.4|9=58|35=0|49=FIXCLIENT1|56=DMA_HUB|34=298|52=20240222-15:24:50|10=099|
2024-02-22 16:24:54.871 [29] [FixSender] (DEBUG) Receiving 8=FIX.4.4|9=62|35=0|34=301|49=DMA_HUB|56=FIXCLIENT1|52=20240222-15:24:54.871|10=033|
2024-02-22 16:25:20.941 [30] [FixSender] (DEBUG) Sending 8=FIX.4.4|9=58|35=0|49=FIXCLIENT1|56=DMA_HUB|34=299|52=20240222-15:25:20|10=098|
2024-02-22 16:25:24.822 [29] [FixSender] (DEBUG) Receiving 8=FIX.4.4|9=62|35=0|34=302|49=DMA_HUB|56=FIXCLIENT1|52=20240222-15:25:24.822|10=028|
2024-02-22 16:25:50.950 [30] [FixSender] (DEBUG) Sending 8=FIX.4.4|9=58|35=0|49=FIXCLIENT1|56=DMA_HUB|34=300|52=20240222-15:25:50|10=084|
2024-02-22 16:25:54.776 [29] [FixSender] (DEBUG) Receiving 8=FIX.4.4|9=62|35=0|34=303|49=DMA_HUB|56=FIXCLIENT1|52=20240222-15:25:54.776|10=040|
2024-02-22 16:26:20.953 [30] [FixSender] (DEBUG) Sending 8=FIX.4.4|9=58|35=0|49=FIXCLIENT1|56=DMA_HUB|34=301|52=20240222-15:26:20|10=083|
2024-02-22 16:26:24.724 [29] [FixSender] (DEBUG) Receiving 8=FIX.4.4|9=62|35=0|34=304|49=DMA_HUB|56=FIXCLIENT1|52=20240222-15:26:24.724|10=032|
2024-02-22 16:26:50.964 [30] [FixSender] (DEBUG) Sending 8=FIX.4.4|9=58|35=0|49=FIXCLIENT1|56=DMA_HUB|34=302|52=20240222-15:26:50|10=087|
2024-02-22 16:26:54.674 [29] [FixSender] (DEBUG) Receiving 8=FIX.4.4|9=62|35=0|34=305|49=DMA_HUB|56=FIXCLIENT1|52=20240222-15:26:54.674|10=040|
2024-02-22 16:27:20.974 [30] [FixSender] (DEBUG) Sending 8=FIX.4.4|9=58|35=0|49=FIXCLIENT1|56=DMA_HUB|34=303|52=20240222-15:27:20|10=086|
2024-02-22 16:27:24.629 [29] [FixSender] (DEBUG) Receiving 8=FIX.4.4|9=62|35=0|34=306|49=DMA_HUB|56=FIXCLIENT1|52=20240222-15:27:24.628|10=038|
2024-02-22 16:27:50.975 [30] [FixSender] (DEBUG) Sending 8=FIX.4.4|9=58|35=0|49=FIXCLIENT1|56=DMA_HUB|34=304|52=20240222-15:27:50|10=090|
2024-02-22 16:27:54.573 [29] [FixSender] (DEBUG) Receiving 8=FIX.4.4|9=62|35=0|34=307|49=DMA_HUB|56=FIXCLIENT1|52=20240222-15:27:54.573|10=041|
2024-02-22 16:28:20.990 [30] [FixSender] (DEBUG) Sending 8=FIX.4.4|9=58|35=0|49=FIXCLIENT1|56=DMA_HUB|34=305|52=20240222-15:28:20|10=089|
2024-02-22 16:28:24.524 [29] [FixSender] (DEBUG) Receiving 8=FIX.4.4|9=62|35=0|34=308|49=DMA_HUB|56=FIXCLIENT1|52=20240222-15:28:24.524|10=036|
2024-02-22 16:28:51.002 [30] [FixSender] (DEBUG) Sending 8=FIX.4.4|9=58|35=0|49=FIXCLIENT1|56=DMA_HUB|34=306|52=20240222-15:28:51|10=094|
2024-02-22 16:28:54.477 [29] [FixSender] (DEBUG) Receiving 8=FIX.4.4|9=62|35=0|34=309|49=DMA_HUB|56=FIXCLIENT1|52=20240222-15:28:54.477|10=047|
2024-02-22 16:29:21.017 [30] [FixSender] (DEBUG) Sending 8=FIX.4.4|9=58|35=0|49=FIXCLIENT1|56=DMA_HUB|34=307|52=20240222-15:29:21|10=093|
2024-02-22 16:29:24.436 [29] [FixSender] (DEBUG) Receiving 8=FIX.4.4|9=62|35=0|34=310|49=DMA_HUB|56=FIXCLIENT1|52=20240222-15:29:24.436|10=032|
2024-02-22 16:29:51.027 [30] [FixSender] (DEBUG) Sending 8=FIX.4.4|9=58|35=0|49=FIXCLIENT1|56=DMA_HUB|34=308|52=20240222-15:29:51|10=097|
2024-02-22 16:29:54.388 [29] [FixSender] (DEBUG) Receiving 8=FIX.4.4|9=62|35=0|34=311|49=DMA_HUB|56=FIXCLIENT1|52=20240222-15:29:54.388|10=042|
2024-02-22 16:30:21.030 [30] [FixSender] (DEBUG) Sending 8=FIX.4.4|9=58|35=0|49=FIXCLIENT1|56=DMA_HUB|34=309|52=20240222-15:30:21|10=087|
2024-02-22 16:30:24.332 [29] [FixSender] (DEBUG) Receiving 8=FIX.4.4|9=62|35=0|34=312|49=DMA_HUB|56=FIXCLIENT1|52=20240222-15:30:24.331|10=020|
2024-02-22 16:30:51.040 [30] [FixSender] (DEBUG) Sending 8=FIX.4.4|9=58|35=0|49=FIXCLIENT1|56=DMA_HUB|34=310|52=20240222-15:30:51|10=082|
2024-02-22 16:30:54.292 [29] [FixSender] (DEBUG) Receiving 8=FIX.4.4|9=62|35=0|34=313|49=DMA_HUB|56=FIXCLIENT1|52=20240222-15:30:54.291|10=029|
2024-02-22 16:31:21.054 [30] [FixSender] (DEBUG) Sending 8=FIX.4.4|9=58|35=0|49=FIXCLIENT1|56=DMA_HUB|34=311|52=20240222-15:31:21|10=081|
2024-02-22 16:31:24.239 [29] [FixSender] (DEBUG) Receiving 8=FIX.4.4|9=62|35=0|34=314|49=DMA_HUB|56=FIXCLIENT1|52=20240222-15:31:24.239|10=030|
2024-02-22 16:31:51.067 [30] [FixSender] (DEBUG) Sending 8=FIX.4.4|9=58|35=0|49=FIXCLIENT1|56=DMA_HUB|34=312|52=20240222-15:31:51|10=085|
2024-02-22 16:31:54.190 [29] [FixSender] (DEBUG) Receiving 8=FIX.4.4|9=62|35=0|34=315|49=DMA_HUB|56=FIXCLIENT1|52=20240222-15:31:54.190|10=030|
2024-02-22 16:32:21.074 [30] [FixSender] (DEBUG) Sending 8=FIX.4.4|9=58|35=0|49=FIXCLIENT1|56=DMA_HUB|34=313|52=20240222-15:32:21|10=084|
2024-02-22 16:32:24.147 [29] [FixSender] (DEBUG) Receiving 8=FIX.4.4|9=62|35=0|34=316|49=DMA_HUB|56=FIXCLIENT1|52=20240222-15:32:24.147|10=031|
2024-02-22 16:32:51.090 [30] [FixSender] (DEBUG) Sending 8=FIX.4.4|9=58|35=0|49=FIXCLIENT1|56=DMA_HUB|34=314|52=20240222-15:32:51|10=088|
2024-02-22 16:32:54.104 [29] [FixSender] (DEBUG) Receiving 8=FIX.4.4|9=62|35=0|34=317|49=DMA_HUB|56=FIXCLIENT1|52=20240222-15:32:54.103|10=027|
2024-02-22 16:33:21.104 [30] [FixSender] (DEBUG) Sending 8=FIX.4.4|9=58|35=0|49=FIXCLIENT1|56=DMA_HUB|34=315|52=20240222-15:33:21|10=087|
2024-02-22 16:33:24.054 [29] [FixSender] (DEBUG) Receiving 8=FIX.4.4|9=62|35=0|34=318|49=DMA_HUB|56=FIXCLIENT1|52=20240222-15:33:24.054|10=031|
2024-02-22 16:33:51.114 [30] [FixSender] (DEBUG) Sending 8=FIX.4.4|9=58|35=0|49=FIXCLIENT1|56=DMA_HUB|34=316|52=20240222-15:33:51|10=091|
2024-02-22 16:33:53.999 [29] [FixSender] (DEBUG) Receiving 8=FIX.4.4|9=62|35=0|34=319|49=DMA_HUB|56=FIXCLIENT1|52=20240222-15:33:53.999|10=052|
2024-02-22 16:34:21.120 [30] [FixSender] (DEBUG) Sending 8=FIX.4.4|9=58|35=0|49=FIXCLIENT1|56=DMA_HUB|34=317|52=20240222-15:34:21|10=090|
2024-02-22 16:34:23.947 [29] [FixSender] (DEBUG) Receiving 8=FIX.4.4|9=62|35=0|34=320|49=DMA_HUB|56=FIXCLIENT1|52=20240222-15:34:23.947|10=035|
2024-02-22 16:34:51.133 [30] [FixSender] (DEBUG) Sending 8=FIX.4.4|9=58|35=0|49=FIXCLIENT1|56=DMA_HUB|34=318|52=20240222-15:34:51|10=094|
2024-02-22 16:34:53.899 [29] [FixSender] (DEBUG) Receiving 8=FIX.4.4|9=62|35=0|34=321|49=DMA_HUB|56=FIXCLIENT1|52=20240222-15:34:53.899|10=045|
2024-02-22 16:35:21.143 [30] [FixSender] (DEBUG) Sending 8=FIX.4.4|9=58|35=0|49=FIXCLIENT1|56=DMA_HUB|34=319|52=20240222-15:35:21|10=093|
2024-02-22 16:35:23.867 [29] [FixSender] (DEBUG) Receiving 8=FIX.4.4|9=62|35=0|34=322|49=DMA_HUB|56=FIXCLIENT1|52=20240222-15:35:23.865|10=037|
2024-02-22 16:35:51.149 [30] [FixSender] (DEBUG) Sending 8=FIX.4.4|9=58|35=0|49=FIXCLIENT1|56=DMA_HUB|34=320|52=20240222-15:35:51|10=088|
2024-02-22 16:35:53.817 [29] [FixSender] (DEBUG) Receiving 8=FIX.4.4|9=62|35=0|34=323|49=DMA_HUB|56=FIXCLIENT1|52=20240222-15:35:53.817|10=038|
2024-02-22 16:36:21.160 [30] [FixSender] (DEBUG) Sending 8=FIX.4.4|9=58|35=0|49=FIXCLIENT1|56=DMA_HUB|34=321|52=20240222-15:36:21|10=087|
2024-02-22 16:36:23.766 [29] [FixSender] (DEBUG) Receiving 8=FIX.4.4|9=62|35=0|34=324|49=DMA_HUB|56=FIXCLIENT1|52=20240222-15:36:23.766|10=040|
2024-02-22 16:36:51.175 [30] [FixSender] (DEBUG) Sending 8=FIX.4.4|9=58|35=0|49=FIXCLIENT1|56=DMA_HUB|34=322|52=20240222-15:36:51|10=091|
2024-02-22 16:36:53.717 [29] [FixSender] (DEBUG) Receiving 8=FIX.4.4|9=62|35=0|34=325|49=DMA_HUB|56=FIXCLIENT1|52=20240222-15:36:53.717|10=040|
2024-02-22 16:37:21.190 [30] [FixSender] (DEBUG) Sending 8=FIX.4.4|9=58|35=0|49=FIXCLIENT1|56=DMA_HUB|34=323|52=20240222-15:37:21|10=090|
2024-02-22 16:37:23.670 [29] [FixSender] (DEBUG) Receiving 8=FIX.4.4|9=62|35=0|34=326|49=DMA_HUB|56=FIXCLIENT1|52=20240222-15:37:23.670|10=037|
2024-02-22 16:37:51.197 [30] [FixSender] (DEBUG) Sending 8=FIX.4.4|9=58|35=0|49=FIXCLIENT1|56=DMA_HUB|34=324|52=20240222-15:37:51|10=094|
2024-02-22 16:37:53.622 [29] [FixSender] (DEBUG) Receiving 8=FIX.4.4|9=62|35=0|34=327|49=DMA_HUB|56=FIXCLIENT1|52=20240222-15:37:53.622|10=038|
2024-02-22 16:38:21.212 [30] [FixSender] (DEBUG) Sending 8=FIX.4.4|9=58|35=0|49=FIXCLIENT1|56=DMA_HUB|34=325|52=20240222-15:38:21|10=093|
2024-02-22 16:38:23.565 [29] [FixSender] (DEBUG) Receiving 8=FIX.4.4|9=62|35=0|34=328|49=DMA_HUB|56=FIXCLIENT1|52=20240222-15:38:23.565|10=043|
2024-02-22 16:38:51.222 [30] [FixSender] (DEBUG) Sending 8=FIX.4.4|9=58|35=0|49=FIXCLIENT1|56=DMA_HUB|34=326|52=20240222-15:38:51|10=097|
2024-02-22 16:38:53.514 [29] [FixSender] (DEBUG) Receiving 8=FIX.4.4|9=62|35=0|34=329|49=DMA_HUB|56=FIXCLIENT1|52=20240222-15:38:53.514|10=041|
2024-02-22 16:39:21.228 [30] [FixSender] (DEBUG) Sending 8=FIX.4.4|9=58|35=0|49=FIXCLIENT1|56=DMA_HUB|34=327|52=20240222-15:39:21|10=096|
2024-02-22 16:39:23.473 [29] [FixSender] (DEBUG) Receiving 8=FIX.4.4|9=62|35=0|34=330|49=DMA_HUB|56=FIXCLIENT1|52=20240222-15:39:23.473|10=035|
2024-02-22 16:39:51.241 [30] [FixSender] (DEBUG) Sending 8=FIX.4.4|9=58|35=0|49=FIXCLIENT1|56=DMA_HUB|34=328|52=20240222-15:39:51|10=100|
2024-02-22 16:39:53.424 [29] [FixSender] (DEBUG) Receiving 8=FIX.4.4|9=62|35=0|34=331|49=DMA_HUB|56=FIXCLIENT1|52=20240222-15:39:53.424|10=035|
2024-02-22 16:40:21.256 [30] [FixSender] (DEBUG) Sending 8=FIX.4.4|9=58|35=0|49=FIXCLIENT1|56=DMA_HUB|34=329|52=20240222-15:40:21|10=090|
2024-02-22 16:40:23.374 [29] [FixSender] (DEBUG) Receiving 8=FIX.4.4|9=62|35=0|34=332|49=DMA_HUB|56=FIXCLIENT1|52=20240222-15:40:23.374|10=029|
2024-02-22 16:40:51.259 [30] [FixSender] (DEBUG) Sending 8=FIX.4.4|9=58|35=0|49=FIXCLIENT1|56=DMA_HUB|34=330|52=20240222-15:40:51|10=085|
2024-02-22 16:40:53.326 [29] [FixSender] (DEBUG) Receiving 8=FIX.4.4|9=62|35=0|34=333|49=DMA_HUB|56=FIXCLIENT1|52=20240222-15:40:53.326|10=030|
2024-02-22 16:41:21.269 [30] [FixSender] (DEBUG) Sending 8=FIX.4.4|9=58|35=0|49=FIXCLIENT1|56=DMA_HUB|34=331|52=20240222-15:41:21|10=084|
2024-02-22 16:41:23.288 [29] [FixSender] (DEBUG) Receiving 8=FIX.4.4|9=62|35=0|34=334|49=DMA_HUB|56=FIXCLIENT1|52=20240222-15:41:23.288|10=036|
2024-02-22 16:41:51.277 [30] [FixSender] (DEBUG) Sending 8=FIX.4.4|9=58|35=0|49=FIXCLIENT1|56=DMA_HUB|34=332|52=20240222-15:41:51|10=088|
2024-02-22 16:41:53.227 [29] [FixSender] (DEBUG) Receiving 8=FIX.4.4|9=62|35=0|34=335|49=DMA_HUB|56=FIXCLIENT1|52=20240222-15:41:53.227|10=033|
2024-02-22 16:42:21.278 [30] [FixSender] (DEBUG) Sending 8=FIX.4.4|9=58|35=0|49=FIXCLIENT1|56=DMA_HUB|34=333|52=20240222-15:42:21|10=087|
2024-02-22 16:42:23.193 [29] [FixSender] (DEBUG) Receiving 8=FIX.4.4|9=62|35=0|34=336|49=DMA_HUB|56=FIXCLIENT1|52=20240222-15:42:23.193|10=034|
2024-02-22 16:42:51.286 [30] [FixSender] (DEBUG) Sending 8=FIX.4.4|9=58|35=0|49=FIXCLIENT1|56=DMA_HUB|34=334|52=20240222-15:42:51|10=091|
2024-02-22 16:42:53.138 [29] [FixSender] (DEBUG) Receiving 8=FIX.4.4|9=62|35=0|34=337|49=DMA_HUB|56=FIXCLIENT1|52=20240222-15:42:53.138|10=037|
2024-02-22 16:43:21.296 [30] [FixSender] (DEBUG) Sending 8=FIX.4.4|9=58|35=0|49=FIXCLIENT1|56=DMA_HUB|34=335|52=20240222-15:43:21|10=090|
2024-02-22 16:43:23.085 [29] [FixSender] (DEBUG) Receiving 8=FIX.4.4|9=62|35=0|34=338|49=DMA_HUB|56=FIXCLIENT1|52=20240222-15:43:23.085|10=037|
2024-02-22 16:43:51.309 [30] [FixSender] (DEBUG) Sending 8=FIX.4.4|9=58|35=0|49=FIXCLIENT1|56=DMA_HUB|34=336|52=20240222-15:43:51|10=094|
2024-02-22 16:43:53.050 [29] [FixSender] (DEBUG) Receiving 8=FIX.4.4|9=62|35=0|34=339|49=DMA_HUB|56=FIXCLIENT1|52=20240222-15:43:53.050|10=033|
