2024-02-15  [30] [FixSender] (DEBUG) Sending 8=FIX.4.4|9=59|35=0|49=FIXCLIENT1|56=DMA_HUB|34=2015|52=20240214-23:00:06|10=132|
2024-02-15 00:00:17.815 [29] [FixSender] (DEBUG) Receiving 8=FIX.4.4|9=63|35=0|34=2011|49=DMA_HUB|56=FIXCLIENT1|52=20240214-23:00:17.815|10=073|
2024-02-15 00:00:36.726 [30] [FixSender] (DEBUG) Sending 8=FIX.4.4|9=59|35=0|49=FIXCLIENT1|56=DMA_HUB|34=2016|52=20240214-23:00:36|10=136|
2024-02-15 00:00:47.766 [29] [FixSender] (DEBUG) Receiving 8=FIX.4.4|9=63|35=0|34=2012|49=DMA_HUB|56=FIXCLIENT1|52=20240214-23:00:47.766|10=082|
2024-02-15 00:01:06.739 [30] [FixSender] (DEBUG) Sending 8=FIX.4.4|9=59|35=0|49=FIXCLIENT1|56=DMA_HUB|34=2017|52=20240214-23:01:06|10=135|
2024-02-15 00:01:17.711 [29] [FixSender] (DEBUG) Receiving 8=FIX.4.4|9=63|35=0|34=2013|49=DMA_HUB|56=FIXCLIENT1|52=20240214-23:01:17.711|10=071|
2024-02-15 00:01:36.745 [30] [FixSender] (DEBUG) Sending 8=FIX.4.4|9=59|35=0|49=FIXCLIENT1|56=DMA_HUB|34=2018|52=20240214-23:01:36|10=139|
2024-02-15 00:01:47.677 [29] [FixSender] (DEBUG) Receiving 8=FIX.4.4|9=63|35=0|34=2014|49=DMA_HUB|56=FIXCLIENT1|52=20240214-23:01:47.677|10=086|
2024-02-15 00:02:06.757 [30] [FixSender] (DEBUG) Sending 8=FIX.4.4|9=59|35=0|49=FIXCLIENT1|56=DMA_HUB|34=2019|52=20240214-23:02:06|10=138|
2024-02-15 00:02:17.686 [29] [FixSender] (DEBUG) Receiving 8=FIX.4.4|9=63|35=0|34=2015|49=DMA_HUB|56=FIXCLIENT1|52=20240214-23:02:17.686|10=085|
2024-02-15 00:02:36.773 [30] [FixSender] (DEBUG) Sending 8=FIX.4.4|9=59|35=0|49=FIXCLIENT1|56=DMA_HUB|34=2020|52=20240214-23:02:36|10=133|
2024-02-15 00:02:47.642 [29] [FixSender] (DEBUG) Receiving 8=FIX.4.4|9=63|35=0|34=2016|49=DMA_HUB|56=FIXCLIENT1|52=20240214-23:02:47.642|10=081|
2024-02-15 00:03:06.783 [30] [FixSender] (DEBUG) Sending 8=FIX.4.4|9=59|35=0|49=FIXCLIENT1|56=DMA_HUB|34=2021|52=20240214-23:03:06|10=132|
2024-02-15 00:03:17.595 [29] [FixSender] (DEBUG) Receiving 8=FIX.4.4|9=63|35=0|34=2017|49=DMA_HUB|56=FIXCLIENT1|52=20240214-23:03:17.595|10=087|
2024-02-15 00:03:36.789 [30] [FixSender] (DEBUG) Sending 8=FIX.4.4|9=59|35=0|49=FIXCLIENT1|56=DMA_HUB|34=2022|52=20240214-23:03:36|10=136|
2024-02-15 00:03:47.548 [29] [FixSender] (DEBUG) Receiving 8=FIX.4.4|9=63|35=0|34=2018|49=DMA_HUB|56=FIXCLIENT1|52=20240214-23:03:47.548|10=089|
2024-02-15 00:04:06.792 [30] [FixSender] (DEBUG) Sending 8=FIX.4.4|9=59|35=0|49=FIXCLIENT1|56=DMA_HUB|34=2023|52=20240214-23:04:06|10=135|
2024-02-15 00:04:17.495 [29] [FixSender] (DEBUG) Receiving 8=FIX.4.4|9=63|35=0|34=2019|49=DMA_HUB|56=FIXCLIENT1|52=20240214-23:04:17.495|10=089|
2024-02-15 00:04:36.800 [30] [FixSender] (DEBUG) Sending 8=FIX.4.4|9=59|35=0|49=FIXCLIENT1|56=DMA_HUB|34=2024|52=20240214-23:04:36|10=139|
2024-02-15 00:04:47.439 [29] [FixSender] (DEBUG) Receiving 8=FIX.4.4|9=63|35=0|34=2020|49=DMA_HUB|56=FIXCLIENT1|52=20240214-23:04:47.439|10=082|
2024-02-15 00:05:06.808 [30] [FixSender] (DEBUG) Sending 8=FIX.4.4|9=59|35=0|49=FIXCLIENT1|56=DMA_HUB|34=2025|52=20240214-23:05:06|10=138|
2024-02-15 00:05:17.399 [29] [FixSender] (DEBUG) Receiving 8=FIX.4.4|9=63|35=0|34=2021|49=DMA_HUB|56=FIXCLIENT1|52=20240214-23:05:17.398|10=085|
2024-02-15 00:05:36.810 [30] [FixSender] (DEBUG) Sending 8=FIX.4.4|9=59|35=0|49=FIXCLIENT1|56=DMA_HUB|34=2026|52=20240214-23:05:36|10=142|
2024-02-15 00:05:47.348 [29] [FixSender] (DEBUG) Receiving 8=FIX.4.4|9=63|35=0|34=2022|49=DMA_HUB|56=FIXCLIENT1|52=20240214-23:05:47.348|10=084|
2024-02-15 00:06:06.824 [30] [FixSender] (DEBUG) Sending 8=FIX.4.4|9=59|35=0|49=FIXCLIENT1|56=DMA_HUB|34=2027|52=20240214-23:06:06|10=141|
2024-02-15 00:06:17.301 [29] [FixSender] (DEBUG) Receiving 8=FIX.4.4|9=63|35=0|34=2023|49=DMA_HUB|56=FIXCLIENT1|52=20240214-23:06:17.301|10=072|
2024-02-15 00:06:36.837 [30] [FixSender] (DEBUG) Sending 8=FIX.4.4|9=59|35=0|49=FIXCLIENT1|56=DMA_HUB|34=2028|52=20240214-23:06:36|10=145|
2024-02-15 00:06:47.191 [29] [FixSender] (DEBUG) Receiving 8=FIX.4.4|9=63|35=0|34=2024|49=DMA_HUB|56=FIXCLIENT1|52=20240214-23:06:47.191|10=083|
2024-02-15 00:07:06.854 [30] [FixSender] (DEBUG) Sending 8=FIX.4.4|9=59|35=0|49=FIXCLIENT1|56=DMA_HUB|34=2029|52=20240214-23:07:06|10=144|
2024-02-15 00:07:17.142 [29] [FixSender] (DEBUG) Receiving 8=FIX.4.4|9=63|35=0|34=2025|49=DMA_HUB|56=FIXCLIENT1|52=20240214-23:07:17.142|10=078|
2024-02-15 00:07:36.863 [30] [FixSender] (DEBUG) Sending 8=FIX.4.4|9=59|35=0|49=FIXCLIENT1|56=DMA_HUB|34=2030|52=20240214-23:07:36|10=139|
2024-02-15 00:07:47.095 [29] [FixSender] (DEBUG) Receiving 8=FIX.4.4|9=63|35=0|34=2026|49=DMA_HUB|56=FIXCLIENT1|52=20240214-23:07:47.095|10=089|
2024-02-15 00:08:06.872 [30] [FixSender] (DEBUG) Sending 8=FIX.4.4|9=59|35=0|49=FIXCLIENT1|56=DMA_HUB|34=2031|52=20240214-23:08:06|10=138|
2024-02-15 00:08:17.047 [29] [FixSender] (DEBUG) Receiving 8=FIX.4.4|9=63|35=0|34=2027|49=DMA_HUB|56=FIXCLIENT1|52=20240214-23:08:17.046|10=084|
2024-02-15 00:08:36.875 [30] [FixSender] (DEBUG) Sending 8=FIX.4.4|9=59|35=0|49=FIXCLIENT1|56=DMA_HUB|34=2032|52=20240214-23:08:36|10=142|
2024-02-15 00:08:47.002 [29] [FixSender] (DEBUG) Receiving 8=FIX.4.4|9=63|35=0|34=2028|49=DMA_HUB|56=FIXCLIENT1|52=20240214-23:08:47.002|10=080|
2024-02-15 00:09:06.889 [30] [FixSender] (DEBUG) Sending 8=FIX.4.4|9=59|35=0|49=FIXCLIENT1|56=DMA_HUB|34=2033|52=20240214-23:09:06|10=141|
2024-02-15 00:09:16.949 [29] [FixSender] (DEBUG) Receiving 8=FIX.4.4|9=63|35=0|34=2029|49=DMA_HUB|56=FIXCLIENT1|52=20240214-23:09:16.949|10=098|
2024-02-15 00:09:36.902 [30] [FixSender] (DEBUG) Sending 8=FIX.4.4|9=59|35=0|49=FIXCLIENT1|56=DMA_HUB|34=2034|52=20240214-23:09:36|10=145|
2024-02-15 00:09:46.896 [29] [FixSender] (DEBUG) Receiving 8=FIX.4.4|9=63|35=0|34=2030|49=DMA_HUB|56=FIXCLIENT1|52=20240214-23:09:46.896|10=094|
2024-02-15 00:10:06.919 [30] [FixSender] (DEBUG) Sending 8=FIX.4.4|9=59|35=0|49=FIXCLIENT1|56=DMA_HUB|34=2035|52=20240214-23:10:06|10=135|
2024-02-15 00:10:16.849 [29] [FixSender] (DEBUG) Receiving 8=FIX.4.4|9=63|35=0|34=2031|49=DMA_HUB|56=FIXCLIENT1|52=20240214-23:10:16.848|10=081|
2024-02-15 00:10:36.920 [30] [FixSender] (DEBUG) Sending 8=FIX.4.4|9=59|35=0|49=FIXCLIENT1|56=DMA_HUB|34=2036|52=20240214-23:10:36|10=139|
2024-02-15 00:10:46.808 [29] [FixSender] (DEBUG) Receiving 8=FIX.4.4|9=63|35=0|34=2032|49=DMA_HUB|56=FIXCLIENT1|52=20240214-23:10:46.808|10=081|
2024-02-15 00:11:06.939 [30] [FixSender] (DEBUG) Sending 8=FIX.4.4|9=59|35=0|49=FIXCLIENT1|56=DMA_HUB|34=2037|52=20240214-23:11:06|10=138|
2024-02-15 00:11:16.761 [29] [FixSender] (DEBUG) Receiving 8=FIX.4.4|9=63|35=0|34=2033|49=DMA_HUB|56=FIXCLIENT1|52=20240214-23:11:16.760|10=077|
2024-02-15 00:11:36.954 [30] [FixSender] (DEBUG) Sending 8=FIX.4.4|9=59|35=0|49=FIXCLIENT1|56=DMA_HUB|34=2038|52=20240214-23:11:36|10=142|
2024-02-15 00:11:46.712 [29] [FixSender] (DEBUG) Receiving 8=FIX.4.4|9=63|35=0|34=2034|49=DMA_HUB|56=FIXCLIENT1|52=20240214-23:11:46.712|10=078|
2024-02-15 00:12:06.956 [30] [FixSender] (DEBUG) Sending 8=FIX.4.4|9=59|35=0|49=FIXCLIENT1|56=DMA_HUB|34=2039|52=20240214-23:12:06|10=141|
2024-02-15 00:12:16.654 [29] [FixSender] (DEBUG) Receiving 8=FIX.4.4|9=63|35=0|34=2035|49=DMA_HUB|56=FIXCLIENT1|52=20240214-23:12:16.654|10=082|
2024-02-15 00:12:36.971 [30] [FixSender] (DEBUG) Sending 8=FIX.4.4|9=59|35=0|49=FIXCLIENT1|56=DMA_HUB|34=2040|52=20240214-23:12:36|10=136|
2024-02-15 00:12:46.620 [29] [FixSender] (DEBUG) Receiving 8=FIX.4.4|9=63|35=0|34=2036|49=DMA_HUB|56=FIXCLIENT1|52=20240214-23:12:46.620|10=079|
2024-02-15 00:13:06.987 [30] [FixSender] (DEBUG) Sending 8=FIX.4.4|9=59|35=0|49=FIXCLIENT1|56=DMA_HUB|34=2041|52=20240214-23:13:06|10=135|
2024-02-15 00:13:16.559 [29] [FixSender] (DEBUG) Receiving 8=FIX.4.4|9=63|35=0|34=2037|49=DMA_HUB|56=FIXCLIENT1|52=20240214-23:13:16.559|10=089|
2024-02-15 00:13:37.002 [30] [FixSender] (DEBUG) Sending 8=FIX.4.4|9=59|35=0|49=FIXCLIENT1|56=DMA_HUB|34=2042|52=20240214-23:13:37|10=140|
2024-02-15 00:13:46.525 [29] [FixSender] (DEBUG) Receiving 8=FIX.4.4|9=63|35=0|34=2038|49=DMA_HUB|56=FIXCLIENT1|52=20240214-23:13:46.525|10=086|
2024-02-15 00:14:07.004 [30] [FixSender] (DEBUG) Sending 8=FIX.4.4|9=59|35=0|49=FIXCLIENT1|56=DMA_HUB|34=2043|52=20240214-23:14:07|10=139|
2024-02-15 00:14:16.532 [29] [FixSender] (DEBUG) Receiving 8=FIX.4.4|9=63|35=0|34=2039|49=DMA_HUB|56=FIXCLIENT1|52=20240214-23:14:16.532|10=083|
2024-02-15 00:14:37.019 [30] [FixSender] (DEBUG) Sending 8=FIX.4.4|9=59|35=0|49=FIXCLIENT1|56=DMA_HUB|34=2044|52=20240214-23:14:37|10=143|
2024-02-15 00:14:46.477 [29] [FixSender] (DEBUG) Receiving 8=FIX.4.4|9=63|35=0|34=2040|49=DMA_HUB|56=FIXCLIENT1|52=20240214-23:14:46.477|10=086|
2024-02-15 00:15:07.035 [30] [FixSender] (DEBUG) Sending 8=FIX.4.4|9=59|35=0|49=FIXCLIENT1|56=DMA_HUB|34=2045|52=20240214-23:15:07|10=142|
2024-02-15 00:15:16.432 [29] [FixSender] (DEBUG) Receiving 8=FIX.4.4|9=63|35=0|34=2041|49=DMA_HUB|56=FIXCLIENT1|52=20240214-23:15:16.431|10=075|
2024-02-15 00:15:37.051 [30] [FixSender] (DEBUG) Sending 8=FIX.4.4|9=59|35=0|49=FIXCLIENT1|56=DMA_HUB|34=2046|52=20240214-23:15:37|10=146|
2024-02-15 00:15:46.384 [29] [FixSender] (DEBUG) Receiving 8=FIX.4.4|9=63|35=0|34=2042|49=DMA_HUB|56=FIXCLIENT1|52=20240214-23:15:46.384|10=086|
2024-02-15 00:16:07.067 [30] [FixSender] (DEBUG) Sending 8=FIX.4.4|9=59|35=0|49=FIXCLIENT1|56=DMA_HUB|34=2047|52=20240214-23:16:07|10=145|
2024-02-15 00:16:16.343 [29] [FixSender] (DEBUG) Receiving 8=FIX.4.4|9=63|35=0|34=2043|49=DMA_HUB|56=FIXCLIENT1|52=20240214-23:16:16.342|10=079|
2024-02-15 00:16:37.083 [30] [FixSender] (DEBUG) Sending 8=FIX.4.4|9=59|35=0|49=FIXCLIENT1|56=DMA_HUB|34=2048|52=20240214-23:16:37|10=149|
2024-02-15 00:16:46.289 [29] [FixSender] (DEBUG) Receiving 8=FIX.4.4|9=63|35=0|34=2044|49=DMA_HUB|56=FIXCLIENT1|52=20240214-23:16:46.289|10=093|
2024-02-15 00:17:07.085 [30] [FixSender] (DEBUG) Sending 8=FIX.4.4|9=59|35=0|49=FIXCLIENT1|56=DMA_HUB|34=2049|52=20240214-23:17:07|10=148|
2024-02-15 00:17:16.239 [29] [FixSender] (DEBUG) Receiving 8=FIX.4.4|9=63|35=0|34=2045|49=DMA_HUB|56=FIXCLIENT1|52=20240214-23:17:16.239|10=087|
2024-02-15 00:17:37.099 [30] [FixSender] (DEBUG) Sending 8=FIX.4.4|9=59|35=0|49=FIXCLIENT1|56=DMA_HUB|34=2050|52=20240214-23:17:37|10=143|
2024-02-15 00:17:46.195 [29] [FixSender] (DEBUG) Receiving 8=FIX.4.4|9=63|35=0|34=2046|49=DMA_HUB|56=FIXCLIENT1|52=20240214-23:17:46.195|10=092|
2024-02-15 00:18:07.115 [30] [FixSender] (DEBUG) Sending 8=FIX.4.4|9=59|35=0|49=FIXCLIENT1|56=DMA_HUB|34=2051|52=20240214-23:18:07|10=142|
2024-02-15 00:18:16.156 [29] [FixSender] (DEBUG) Receiving 8=FIX.4.4|9=63|35=0|34=2047|49=DMA_HUB|56=FIXCLIENT1|52=20240214-23:18:16.155|10=087|
2024-02-15 00:18:37.129 [30] [FixSender] (DEBUG) Sending 8=FIX.4.4|9=59|35=0|49=FIXCLIENT1|56=DMA_HUB|34=2052|52=20240214-23:18:37|10=146|
2024-02-15 00:18:46.099 [29] [FixSender] (DEBUG) Receiving 8=FIX.4.4|9=63|35=0|34=2048|49=DMA_HUB|56=FIXCLIENT1|52=20240214-23:18:46.099|10=098|
2024-02-15 00:19:07.130 [30] [FixSender] (DEBUG) Sending 8=FIX.4.4|9=59|35=0|49=FIXCLIENT1|56=DMA_HUB|34=2053|52=20240214-23:19:07|10=145|
2024-02-15 00:19:16.049 [29] [FixSender] (DEBUG) Receiving 8=FIX.4.4|9=63|35=0|34=2049|49=DMA_HUB|56=FIXCLIENT1|52=20240214-23:19:16.049|10=092|
2024-02-15 00:19:37.132 [30] [FixSender] (DEBUG) Sending 8=FIX.4.4|9=59|35=0|49=FIXCLIENT1|56=DMA_HUB|34=2054|52=20240214-23:19:37|10=149|
2024-02-15 00:19:46.004 [29] [FixSender] (DEBUG) Receiving 8=FIX.4.4|9=63|35=0|34=2050|49=DMA_HUB|56=FIXCLIENT1|52=20240214-23:19:46.004|10=078|
2024-02-15 00:20:07.148 [30] [FixSender] (DEBUG) Sending 8=FIX.4.4|9=59|35=0|49=FIXCLIENT1|56=DMA_HUB|34=2055|52=20240214-23:20:07|10=139|
2024-02-15 00:20:15.960 [29] [FixSender] (DEBUG) Receiving 8=FIX.4.4|9=63|35=0|34=2051|49=DMA_HUB|56=FIXCLIENT1|52=20240214-23:20:15.960|10=078|
2024-02-15 00:20:37.163 [30] [FixSender] (DEBUG) Sending 8=FIX.4.4|9=59|35=0|49=FIXCLIENT1|56=DMA_HUB|34=2056|52=20240214-23:20:37|10=143|
2024-02-15 00:20:45.905 [29] [FixSender] (DEBUG) Receiving 8=FIX.4.4|9=63|35=0|34=2052|49=DMA_HUB|56=FIXCLIENT1|52=20240214-23:20:45.905|10=081|
2024-02-15 00:21:07.179 [30] [FixSender] (DEBUG) Sending 8=FIX.4.4|9=59|35=0|49=FIXCLIENT1|56=DMA_HUB|34=2057|52=20240214-23:21:07|10=142|
2024-02-15 00:21:15.854 [29] [FixSender] (DEBUG) Receiving 8=FIX.4.4|9=63|35=0|34=2053|49=DMA_HUB|56=FIXCLIENT1|52=20240214-23:21:15.854|10=083|
2024-02-15 00:21:37.195 [30] [FixSender] (DEBUG) Sending 8=FIX.4.4|9=59|35=0|49=FIXCLIENT1|56=DMA_HUB|34=2058|52=20240214-23:21:37|10=146|
2024-02-15 00:21:45.814 [29] [FixSender] (DEBUG) Receiving 8=FIX.4.4|9=63|35=0|34=2054|49=DMA_HUB|56=FIXCLIENT1|52=20240214-23:21:45.814|10=083|
2024-02-15 00:22:07.212 [30] [FixSender] (DEBUG) Sending 8=FIX.4.4|9=59|35=0|49=FIXCLIENT1|56=DMA_HUB|34=2059|52=20240214-23:22:07|10=145|
2024-02-15 00:22:15.768 [29] [FixSender] (DEBUG) Receiving 8=FIX.4.4|9=63|35=0|34=2055|49=DMA_HUB|56=FIXCLIENT1|52=20240214-23:22:15.767|10=089|
2024-02-15 00:22:37.226 [30] [FixSender] (DEBUG) Sending 8=FIX.4.4|9=59|35=0|49=FIXCLIENT1|56=DMA_HUB|34=2060|52=20240214-23:22:37|10=140|
2024-02-15 00:22:45.717 [29] [FixSender] (DEBUG) Receiving 8=FIX.4.4|9=63|35=0|34=2056|49=DMA_HUB|56=FIXCLIENT1|52=20240214-23:22:45.717|10=088|
2024-02-15 00:23:07.226 [30] [FixSender] (DEBUG) Sending 8=FIX.4.4|9=59|35=0|49=FIXCLIENT1|56=DMA_HUB|34=2061|52=20240214-23:23:07|10=139|
2024-02-15 00:23:15.676 [29] [FixSender] (DEBUG) Receiving 8=FIX.4.4|9=63|35=0|34=2057|49=DMA_HUB|56=FIXCLIENT1|52=20240214-23:23:15.676|10=091|
2024-02-15 00:23:37.241 [30] [FixSender] (DEBUG) Sending 8=FIX.4.4|9=59|35=0|49=FIXCLIENT1|56=DMA_HUB|34=2062|52=20240214-23:23:37|10=143|
2024-02-15 00:23:45.624 [29] [FixSender] (DEBUG) Receiving 8=FIX.4.4|9=63|35=0|34=2058|49=DMA_HUB|56=FIXCLIENT1|52=20240214-23:23:45.624|10=088|
2024-02-15 00:24:07.244 [30] [FixSender] (DEBUG) Sending 8=FIX.4.4|9=59|35=0|49=FIXCLIENT1|56=DMA_HUB|34=2063|52=20240214-23:24:07|10=142|
2024-02-15 00:24:15.576 [29] [FixSender] (DEBUG) Receiving 8=FIX.4.4|9=63|35=0|34=2059|49=DMA_HUB|56=FIXCLIENT1|52=20240214-23:24:15.575|10=092|
2024-02-15 00:24:37.257 [30] [FixSender] (DEBUG) Sending 8=FIX.4.4|9=59|35=0|49=FIXCLIENT1|56=DMA_HUB|34=2064|52=20240214-23:24:37|10=146|
2024-02-15 00:24:45.524 [29] [FixSender] (DEBUG) Receiving 8=FIX.4.4|9=63|35=0|34=2060|49=DMA_HUB|56=FIXCLIENT1|52=20240214-23:24:45.524|10=081|
2024-02-15 00:25:07.261 [30] [FixSender] (DEBUG) Sending 8=FIX.4.4|9=59|35=0|49=FIXCLIENT1|56=DMA_HUB|34=2065|52=20240214-23:25:07|10=145|
2024-02-15 00:25:15.482 [29] [FixSender] (DEBUG) Receiving 8=FIX.4.4|9=63|35=0|34=2061|49=DMA_HUB|56=FIXCLIENT1|52=20240214-23:25:15.482|10=083|
2024-02-15 00:25:37.272 [30] [FixSender] (DEBUG) Sending 8=FIX.4.4|9=59|35=0|49=FIXCLIENT1|56=DMA_HUB|34=2066|52=20240214-23:25:37|10=149|
2024-02-15 00:25:45.437 [29] [FixSender] (DEBUG) Receiving 8=FIX.4.4|9=63|35=0|34=2062|49=DMA_HUB|56=FIXCLIENT1|52=20240214-23:25:45.437|10=087|
2024-02-15 00:26:07.275 [30] [FixSender] (DEBUG) Sending 8=FIX.4.4|9=59|35=0|49=FIXCLIENT1|56=DMA_HUB|34=2067|52=20240214-23:26:07|10=148|
2024-02-15 00:26:15.447 [29] [FixSender] (DEBUG) Receiving 8=FIX.4.4|9=63|35=0|34=2063|49=DMA_HUB|56=FIXCLIENT1|52=20240214-23:26:15.447|10=087|
2024-02-15 00:26:37.281 [30] [FixSender] (DEBUG) Sending 8=FIX.4.4|9=59|35=0|49=FIXCLIENT1|56=DMA_HUB|34=2068|52=20240214-23:26:37|10=152|
2024-02-15 00:26:45.401 [29] [FixSender] (DEBUG) Receiving 8=FIX.4.4|9=63|35=0|34=2064|49=DMA_HUB|56=FIXCLIENT1|52=20240214-23:26:45.401|10=081|
2024-02-15 00:27:07.290 [30] [FixSender] (DEBUG) Sending 8=FIX.4.4|9=59|35=0|49=FIXCLIENT1|56=DMA_HUB|34=2069|52=20240214-23:27:07|10=151|
2024-02-15 00:27:15.355 [29] [FixSender] (DEBUG) Receiving 8=FIX.4.4|9=63|35=0|34=2065|49=DMA_HUB|56=FIXCLIENT1|52=20240214-23:27:15.355|10=088|
2024-02-15 00:27:37.291 [30] [FixSender] (DEBUG) Sending 8=FIX.4.4|9=59|35=0|49=FIXCLIENT1|56=DMA_HUB|34=2070|52=20240214-23:27:37|10=146|
2024-02-15 00:27:45.309 [29] [FixSender] (DEBUG) Receiving 8=FIX.4.4|9=63|35=0|34=2066|49=DMA_HUB|56=FIXCLIENT1|52=20240214-23:27:45.309|10=091|
2024-02-15 00:28:07.307 [30] [FixSender] (DEBUG) Sending 8=FIX.4.4|9=59|35=0|49=FIXCLIENT1|56=DMA_HUB|34=2071|52=20240214-23:28:07|10=145|
2024-02-15 00:28:15.322 [29] [FixSender] (DEBUG) Receiving 8=FIX.4.4|9=63|35=0|34=2067|49=DMA_HUB|56=FIXCLIENT1|52=20240214-23:28:15.322|10=085|
2024-02-15 00:28:37.321 [30] [FixSender] (DEBUG) Sending 8=FIX.4.4|9=59|35=0|49=FIXCLIENT1|56=DMA_HUB|34=2072|52=20240214-23:28:37|10=149|
2024-02-15 00:28:45.276 [29] [FixSender] (DEBUG) Receiving 8=FIX.4.4|9=63|35=0|34=2068|49=DMA_HUB|56=FIXCLIENT1|52=20240214-23:28:45.276|10=097|
2024-02-15 00:29:07.337 [30] [FixSender] (DEBUG) Sending 8=FIX.4.4|9=59|35=0|49=FIXCLIENT1|56=DMA_HUB|34=2073|52=20240214-23:29:07|10=148|
2024-02-15 00:29:15.228 [29] [FixSender] (DEBUG) Receiving 8=FIX.4.4|9=63|35=0|34=2069|49=DMA_HUB|56=FIXCLIENT1|52=20240214-23:29:15.228|10=093|
2024-02-15 00:29:37.338 [30] [FixSender] (DEBUG) Sending 8=FIX.4.4|9=59|35=0|49=FIXCLIENT1|56=DMA_HUB|34=2074|52=20240214-23:29:37|10=152|
2024-02-15 00:29:45.180 [29] [FixSender] (DEBUG) Receiving 8=FIX.4.4|9=63|35=0|34=2070|49=DMA_HUB|56=FIXCLIENT1|52=20240214-23:29:45.180|10=085|
2024-02-15 00:30:07.341 [30] [FixSender] (DEBUG) Sending 8=FIX.4.4|9=59|35=0|49=FIXCLIENT1|56=DMA_HUB|34=2075|52=20240214-23:30:07|10=142|
2024-02-15 00:30:15.120 [29] [FixSender] (DEBUG) Receiving 8=FIX.4.4|9=63|35=0|34=2071|49=DMA_HUB|56=FIXCLIENT1|52=20240214-23:30:15.120|10=069|
2024-02-15 00:30:37.353 [30] [FixSender] (DEBUG) Sending 8=FIX.4.4|9=59|35=0|49=FIXCLIENT1|56=DMA_HUB|34=2076|52=20240214-23:30:37|10=146|
2024-02-15 00:30:45.070 [29] [FixSender] (DEBUG) Receiving 8=FIX.4.4|9=63|35=0|34=2072|49=DMA_HUB|56=FIXCLIENT1|52=20240214-23:30:45.070|10=077|
2024-02-15 00:31:07.369 [30] [FixSender] (DEBUG) Sending 8=FIX.4.4|9=59|35=0|49=FIXCLIENT1|56=DMA_HUB|34=2077|52=20240214-23:31:07|10=145|
2024-02-15 00:31:15.023 [29] [FixSender] (DEBUG) Receiving 8=FIX.4.4|9=63|35=0|34=2073|49=DMA_HUB|56=FIXCLIENT1|52=20240214-23:31:15.023|10=074|
2024-02-15 00:31:37.373 [30] [FixSender] (DEBUG) Sending 8=FIX.4.4|9=59|35=0|49=FIXCLIENT1|56=DMA_HUB|34=2078|52=20240214-23:31:37|10=149|
2024-02-15 00:31:44.976 [29] [FixSender] (DEBUG) Receiving 8=FIX.4.4|9=63|35=0|34=2074|49=DMA_HUB|56=FIXCLIENT1|52=20240214-23:31:44.976|10=094|
2024-02-15 00:32:07.375 [30] [FixSender] (DEBUG) Sending 8=FIX.4.4|9=59|35=0|49=FIXCLIENT1|56=DMA_HUB|34=2079|52=20240214-23:32:07|10=148|
2024-02-15 00:32:14.928 [29] [FixSender] (DEBUG) Receiving 8=FIX.4.4|9=63|35=0|34=2075|49=DMA_HUB|56=FIXCLIENT1|52=20240214-23:32:14.928|10=090|
2024-02-15 00:32:37.386 [30] [FixSender] (DEBUG) Sending 8=FIX.4.4|9=59|35=0|49=FIXCLIENT1|56=DMA_HUB|34=2080|52=20240214-23:32:37|10=143|
2024-02-15 00:32:44.892 [29] [FixSender] (DEBUG) Receiving 8=FIX.4.4|9=63|35=0|34=2076|49=DMA_HUB|56=FIXCLIENT1|52=20240214-23:32:44.892|10=094|
2024-02-15 00:33:07.402 [30] [FixSender] (DEBUG) Sending 8=FIX.4.4|9=59|35=0|49=FIXCLIENT1|56=DMA_HUB|34=2081|52=20240214-23:33:07|10=142|
2024-02-15 00:33:14.830 [29] [FixSender] (DEBUG) Receiving 8=FIX.4.4|9=63|35=0|34=2077|49=DMA_HUB|56=FIXCLIENT1|52=20240214-23:33:14.830|10=085|
2024-02-15 00:33:37.416 [30] [FixSender] (DEBUG) Sending 8=FIX.4.4|9=59|35=0|49=FIXCLIENT1|56=DMA_HUB|34=2082|52=20240214-23:33:37|10=146|
2024-02-15 00:33:44.783 [29] [FixSender] (DEBUG) Receiving 8=FIX.4.4|9=63|35=0|34=2078|49=DMA_HUB|56=FIXCLIENT1|52=20240214-23:33:44.783|10=096|
2024-02-15 00:34:07.419 [30] [FixSender] (DEBUG) Sending 8=FIX.4.4|9=59|35=0|49=FIXCLIENT1|56=DMA_HUB|34=2083|52=20240214-23:34:07|10=145|
2024-02-15 00:34:14.749 [29] [FixSender] (DEBUG) Receiving 8=FIX.4.4|9=63|35=0|34=2079|49=DMA_HUB|56=FIXCLIENT1|52=20240214-23:34:14.749|10=097|
2024-02-15 00:34:37.433 [30] [FixSender] (DEBUG) Sending 8=FIX.4.4|9=59|35=0|49=FIXCLIENT1|56=DMA_HUB|34=2084|52=20240214-23:34:37|10=149|
2024-02-15 00:34:44.764 [29] [FixSender] (DEBUG) Receiving 8=FIX.4.4|9=63|35=0|34=2080|49=DMA_HUB|56=FIXCLIENT1|52=20240214-23:34:44.764|10=089|
2024-02-15 00:35:07.450 [30] [FixSender] (DEBUG) Sending 8=FIX.4.4|9=59|35=0|49=FIXCLIENT1|56=DMA_HUB|34=2085|52=20240214-23:35:07|10=148|
2024-02-15 00:35:14.707 [29] [FixSender] (DEBUG) Receiving 8=FIX.4.4|9=63|35=0|34=2081|49=DMA_HUB|56=FIXCLIENT1|52=20240214-23:35:14.707|10=085|
2024-02-15 00:35:37.454 [30] [FixSender] (DEBUG) Sending 8=FIX.4.4|9=59|35=0|49=FIXCLIENT1|56=DMA_HUB|34=2086|52=20240214-23:35:37|10=152|
2024-02-15 00:35:44.668 [29] [FixSender] (DEBUG) Receiving 8=FIX.4.4|9=63|35=0|34=2082|49=DMA_HUB|56=FIXCLIENT1|52=20240214-23:35:44.668|10=095|
2024-02-15 00:36:07.468 [30] [FixSender] (DEBUG) Sending 8=FIX.4.4|9=59|35=0|49=FIXCLIENT1|56=DMA_HUB|34=2087|52=20240214-23:36:07|10=151|
2024-02-15 00:36:14.611 [29] [FixSender] (DEBUG) Receiving 8=FIX.4.4|9=63|35=0|34=2083|49=DMA_HUB|56=FIXCLIENT1|52=20240214-23:36:14.610|10=081|
2024-02-15 00:36:37.479 [30] [FixSender] (DEBUG) Sending 8=FIX.4.4|9=59|35=0|49=FIXCLIENT1|56=DMA_HUB|34=2088|52=20240214-23:36:37|10=155|
2024-02-15 00:36:44.559 [29] [FixSender] (DEBUG) Receiving 8=FIX.4.4|9=63|35=0|34=2084|49=DMA_HUB|56=FIXCLIENT1|52=20240214-23:36:44.559|10=097|
2024-02-15 00:37:07.483 [30] [FixSender] (DEBUG) Sending 8=FIX.4.4|9=59|35=0|49=FIXCLIENT1|56=DMA_HUB|34=2089|52=20240214-23:37:07|10=154|
2024-02-15 00:37:14.511 [29] [FixSender] (DEBUG) Receiving 8=FIX.4.4|9=63|35=0|34=2085|49=DMA_HUB|56=FIXCLIENT1|52=20240214-23:37:14.511|10=084|
2024-02-15 00:37:37.488 [30] [FixSender] (DEBUG) Sending 8=FIX.4.4|9=59|35=0|49=FIXCLIENT1|56=DMA_HUB|34=2090|52=20240214-23:37:37|10=149|
2024-02-15 00:37:44.470 [29] [FixSender] (DEBUG) Receiving 8=FIX.4.4|9=63|35=0|34=2086|49=DMA_HUB|56=FIXCLIENT1|52=20240214-23:37:44.470|10=092|
2024-02-15 00:38:07.500 [30] [FixSender] (DEBUG) Sending 8=FIX.4.4|9=59|35=0|49=FIXCLIENT1|56=DMA_HUB|34=2091|52=20240214-23:38:07|10=148|
2024-02-15 00:38:14.418 [29] [FixSender] (DEBUG) Receiving 8=FIX.4.4|9=63|35=0|34=2087|49=DMA_HUB|56=FIXCLIENT1|52=20240214-23:38:14.418|10=093|
2024-02-15 00:38:37.515 [30] [FixSender] (DEBUG) Sending 8=FIX.4.4|9=59|35=0|49=FIXCLIENT1|56=DMA_HUB|34=2092|52=20240214-23:38:37|10=152|
2024-02-15 00:38:44.371 [29] [FixSender] (DEBUG) Receiving 8=FIX.4.4|9=63|35=0|34=2088|49=DMA_HUB|56=FIXCLIENT1|52=20240214-23:38:44.371|10=095|
2024-02-15 00:39:07.531 [30] [FixSender] (DEBUG) Sending 8=FIX.4.4|9=59|35=0|49=FIXCLIENT1|56=DMA_HUB|34=2093|52=20240214-23:39:07|10=151|
2024-02-15 00:39:14.320 [29] [FixSender] (DEBUG) Receiving 8=FIX.4.4|9=63|35=0|34=2089|49=DMA_HUB|56=FIXCLIENT1|52=20240214-23:39:14.320|10=088|
2024-02-15 00:39:37.547 [30] [FixSender] (DEBUG) Sending 8=FIX.4.4|9=59|35=0|49=FIXCLIENT1|56=DMA_HUB|34=2094|52=20240214-23:39:37|10=155|
2024-02-15 00:39:44.278 [29] [FixSender] (DEBUG) Receiving 8=FIX.4.4|9=63|35=0|34=2090|49=DMA_HUB|56=FIXCLIENT1|52=20240214-23:39:44.278|10=095|
2024-02-15 00:40:07.560 [30] [FixSender] (DEBUG) Sending 8=FIX.4.4|9=59|35=0|49=FIXCLIENT1|56=DMA_HUB|34=2095|52=20240214-23:40:07|10=145|
2024-02-15 00:40:14.227 [29] [FixSender] (DEBUG) Receiving 8=FIX.4.4|9=63|35=0|34=2091|49=DMA_HUB|56=FIXCLIENT1|52=20240214-23:40:14.227|10=079|
2024-02-15 00:40:37.565 [30] [FixSender] (DEBUG) Sending 8=FIX.4.4|9=59|35=0|49=FIXCLIENT1|56=DMA_HUB|34=2096|52=20240214-23:40:37|10=149|
2024-02-15 00:40:44.183 [29] [FixSender] (DEBUG) Receiving 8=FIX.4.4|9=63|35=0|34=2092|49=DMA_HUB|56=FIXCLIENT1|52=20240214-23:40:44.183|10=084|
2024-02-15 00:41:07.579 [30] [FixSender] (DEBUG) Sending 8=FIX.4.4|9=59|35=0|49=FIXCLIENT1|56=DMA_HUB|34=2097|52=20240214-23:41:07|10=148|
2024-02-15 00:41:14.140 [29] [FixSender] (DEBUG) Receiving 8=FIX.4.4|9=63|35=0|34=2093|49=DMA_HUB|56=FIXCLIENT1|52=20240214-23:41:14.140|10=076|
2024-02-15 00:41:37.593 [30] [FixSender] (DEBUG) Sending 8=FIX.4.4|9=59|35=0|49=FIXCLIENT1|56=DMA_HUB|34=2098|52=20240214-23:41:37|10=152|
2024-02-15 00:41:44.088 [29] [FixSender] (DEBUG) Receiving 8=FIX.4.4|9=63|35=0|34=2094|49=DMA_HUB|56=FIXCLIENT1|52=20240214-23:41:44.088|10=091|
2024-02-15 00:42:07.608 [30] [FixSender] (DEBUG) Sending 8=FIX.4.4|9=59|35=0|49=FIXCLIENT1|56=DMA_HUB|34=2099|52=20240214-23:42:07|10=151|
2024-02-15 00:42:14.043 [29] [FixSender] (DEBUG) Receiving 8=FIX.4.4|9=63|35=0|34=2095|49=DMA_HUB|56=FIXCLIENT1|52=20240214-23:42:14.043|10=081|
2024-02-15 00:42:37.613 [30] [FixSender] (DEBUG) Sending 8=FIX.4.4|9=59|35=0|49=FIXCLIENT1|56=DMA_HUB|34=2100|52=20240214-23:42:37|10=137|
2024-02-15 00:42:43.995 [29] [FixSender] (DEBUG) Receiving 8=FIX.4.4|9=63|35=0|34=2096|49=DMA_HUB|56=FIXCLIENT1|52=20240214-23:42:43.995|10=100|
2024-02-15 00:43:07.629 [30] [FixSender] (DEBUG) Sending 8=FIX.4.4|9=59|35=0|49=FIXCLIENT1|56=DMA_HUB|34=2101|52=20240214-23:43:07|10=136|
2024-02-15 00:43:13.941 [29] [FixSender] (DEBUG) Receiving 8=FIX.4.4|9=63|35=0|34=2097|49=DMA_HUB|56=FIXCLIENT1|52=20240214-23:43:13.941|10=090|
2024-02-15 00:43:37.631 [30] [FixSender] (DEBUG) Sending 8=FIX.4.4|9=59|35=0|49=FIXCLIENT1|56=DMA_HUB|34=2102|52=20240214-23:43:37|10=140|
2024-02-15 00:43:43.896 [29] [FixSender] (DEBUG) Receiving 8=FIX.4.4|9=63|35=0|34=2098|49=DMA_HUB|56=FIXCLIENT1|52=20240214-23:43:43.896|10=103|
2024-02-15 00:44:07.639 [30] [FixSender] (DEBUG) Sending 8=FIX.4.4|9=59|35=0|49=FIXCLIENT1|56=DMA_HUB|34=2103|52=20240214-23:44:07|10=139|
2024-02-15 00:44:13.846 [29] [FixSender] (DEBUG) Receiving 8=FIX.4.4|9=63|35=0|34=2099|49=DMA_HUB|56=FIXCLIENT1|52=20240214-23:44:13.845|10=096|
2024-02-15 00:44:37.643 [30] [FixSender] (DEBUG) Sending 8=FIX.4.4|9=59|35=0|49=FIXCLIENT1|56=DMA_HUB|34=2104|52=20240214-23:44:37|10=143|
2024-02-15 00:44:43.797 [29] [FixSender] (DEBUG) Receiving 8=FIX.4.4|9=63|35=0|34=2100|49=DMA_HUB|56=FIXCLIENT1|52=20240214-23:44:43.797|10=088|
2024-02-15 00:45:07.657 [30] [FixSender] (DEBUG) Sending 8=FIX.4.4|9=59|35=0|49=FIXCLIENT1|56=DMA_HUB|34=2105|52=20240214-23:45:07|10=142|
2024-02-15 00:45:13.744 [29] [FixSender] (DEBUG) Receiving 8=FIX.4.4|9=63|35=0|34=2101|49=DMA_HUB|56=FIXCLIENT1|52=20240214-23:45:13.744|10=079|
2024-02-15 00:45:37.673 [30] [FixSender] (DEBUG) Sending 8=FIX.4.4|9=59|35=0|49=FIXCLIENT1|56=DMA_HUB|34=2106|52=20240214-23:45:37|10=146|
2024-02-15 00:45:43.693 [29] [FixSender] (DEBUG) Receiving 8=FIX.4.4|9=63|35=0|34=2102|49=DMA_HUB|56=FIXCLIENT1|52=20240214-23:45:43.693|10=086|
2024-02-15 00:46:07.690 [30] [FixSender] (DEBUG) Sending 8=FIX.4.4|9=59|35=0|49=FIXCLIENT1|56=DMA_HUB|34=2107|52=20240214-23:46:07|10=145|
2024-02-15 00:46:13.649 [29] [FixSender] (DEBUG) Receiving 8=FIX.4.4|9=63|35=0|34=2103|49=DMA_HUB|56=FIXCLIENT1|52=20240214-23:46:13.648|10=085|
2024-02-15 00:46:37.704 [30] [FixSender] (DEBUG) Sending 8=FIX.4.4|9=59|35=0|49=FIXCLIENT1|56=DMA_HUB|34=2108|52=20240214-23:46:37|10=149|
2024-02-15 00:46:43.612 [29] [FixSender] (DEBUG) Receiving 8=FIX.4.4|9=63|35=0|34=2104|49=DMA_HUB|56=FIXCLIENT1|52=20240214-23:46:43.612|10=080|
2024-02-15 00:47:07.710 [30] [FixSender] (DEBUG) Sending 8=FIX.4.4|9=59|35=0|49=FIXCLIENT1|56=DMA_HUB|34=2109|52=20240214-23:47:07|10=148|
2024-02-15 00:47:13.564 [29] [FixSender] (DEBUG) Receiving 8=FIX.4.4|9=63|35=0|34=2105|49=DMA_HUB|56=FIXCLIENT1|52=20240214-23:47:13.563|10=084|
2024-02-15 00:47:37.724 [30] [FixSender] (DEBUG) Sending 8=FIX.4.4|9=59|35=0|49=FIXCLIENT1|56=DMA_HUB|34=2110|52=20240214-23:47:37|10=143|
2024-02-15 00:47:43.504 [29] [FixSender] (DEBUG) Receiving 8=FIX.4.4|9=63|35=0|34=2106|49=DMA_HUB|56=FIXCLIENT1|52=20240214-23:47:43.504|10=083|
2024-02-15 00:48:07.732 [30] [FixSender] (DEBUG) Sending 8=FIX.4.4|9=59|35=0|49=FIXCLIENT1|56=DMA_HUB|34=2111|52=20240214-23:48:07|10=142|
2024-02-15 00:48:13.463 [29] [FixSender] (DEBUG) Receiving 8=FIX.4.4|9=63|35=0|34=2107|49=DMA_HUB|56=FIXCLIENT1|52=20240214-23:48:13.463|10=086|
2024-02-15 00:48:37.739 [30] [FixSender] (DEBUG) Sending 8=FIX.4.4|9=59|35=0|49=FIXCLIENT1|56=DMA_HUB|34=2112|52=20240214-23:48:37|10=146|
2024-02-15 00:48:43.410 [29] [FixSender] (DEBUG) Receiving 8=FIX.4.4|9=63|35=0|34=2108|49=DMA_HUB|56=FIXCLIENT1|52=20240214-23:48:43.410|10=082|
2024-02-15 00:49:07.749 [30] [FixSender] (DEBUG) Sending 8=FIX.4.4|9=59|35=0|49=FIXCLIENT1|56=DMA_HUB|34=2113|52=20240214-23:49:07|10=145|
2024-02-15 00:49:13.368 [29] [FixSender] (DEBUG) Receiving 8=FIX.4.4|9=63|35=0|34=2109|49=DMA_HUB|56=FIXCLIENT1|52=20240214-23:49:13.368|10=093|
2024-02-15 00:49:37.754 [30] [FixSender] (DEBUG) Sending 8=FIX.4.4|9=59|35=0|49=FIXCLIENT1|56=DMA_HUB|34=2114|52=20240214-23:49:37|10=149|
2024-02-15 00:49:43.313 [29] [FixSender] (DEBUG) Receiving 8=FIX.4.4|9=63|35=0|34=2110|49=DMA_HUB|56=FIXCLIENT1|52=20240214-23:49:43.313|10=078|
2024-02-15 00:50:07.757 [30] [FixSender] (DEBUG) Sending 8=FIX.4.4|9=59|35=0|49=FIXCLIENT1|56=DMA_HUB|34=2115|52=20240214-23:50:07|10=139|
2024-02-15 00:50:13.276 [29] [FixSender] (DEBUG) Receiving 8=FIX.4.4|9=63|35=0|34=2111|49=DMA_HUB|56=FIXCLIENT1|52=20240214-23:50:13.276|10=076|
2024-02-15 00:50:37.773 [30] [FixSender] (DEBUG) Sending 8=FIX.4.4|9=59|35=0|49=FIXCLIENT1|56=DMA_HUB|34=2116|52=20240214-23:50:37|10=143|
2024-02-15 00:50:43.218 [29] [FixSender] (DEBUG) Receiving 8=FIX.4.4|9=63|35=0|34=2112|49=DMA_HUB|56=FIXCLIENT1|52=20240214-23:50:43.218|10=076|
2024-02-15 00:51:07.787 [30] [FixSender] (DEBUG) Sending 8=FIX.4.4|9=59|35=0|49=FIXCLIENT1|56=DMA_HUB|34=2117|52=20240214-23:51:07|10=142|
2024-02-15 00:51:13.172 [29] [FixSender] (DEBUG) Receiving 8=FIX.4.4|9=63|35=0|34=2113|49=DMA_HUB|56=FIXCLIENT1|52=20240214-23:51:13.170|10=072|
2024-02-15 00:51:37.800 [30] [FixSender] (DEBUG) Sending 8=FIX.4.4|9=59|35=0|49=FIXCLIENT1|56=DMA_HUB|34=2118|52=20240214-23:51:37|10=146|
2024-02-15 00:51:43.126 [29] [FixSender] (DEBUG) Receiving 8=FIX.4.4|9=63|35=0|34=2114|49=DMA_HUB|56=FIXCLIENT1|52=20240214-23:51:43.126|10=077|
2024-02-15 00:52:07.804 [30] [FixSender] (DEBUG) Sending 8=FIX.4.4|9=59|35=0|49=FIXCLIENT1|56=DMA_HUB|34=2119|52=20240214-23:52:07|10=145|
2024-02-15 00:52:13.079 [29] [FixSender] (DEBUG) Receiving 8=FIX.4.4|9=63|35=0|34=2115|49=DMA_HUB|56=FIXCLIENT1|52=20240214-23:52:13.077|10=081|
2024-02-15 00:52:37.807 [30] [FixSender] (DEBUG) Sending 8=FIX.4.4|9=59|35=0|49=FIXCLIENT1|56=DMA_HUB|34=2120|52=20240214-23:52:37|10=140|
2024-02-15 00:52:43.029 [29] [FixSender] (DEBUG) Receiving 8=FIX.4.4|9=63|35=0|34=2116|49=DMA_HUB|56=FIXCLIENT1|52=20240214-23:52:43.029|10=082|
2024-02-15 00:53:07.821 [30] [FixSender] (DEBUG) Sending 8=FIX.4.4|9=59|35=0|49=FIXCLIENT1|56=DMA_HUB|34=2121|52=20240214-23:53:07|10=139|
2024-02-15 00:53:12.983 [29] [FixSender] (DEBUG) Receiving 8=FIX.4.4|9=63|35=0|34=2117|49=DMA_HUB|56=FIXCLIENT1|52=20240214-23:53:12.983|10=089|
2024-02-15 00:53:37.836 [30] [FixSender] (DEBUG) Sending 8=FIX.4.4|9=59|35=0|49=FIXCLIENT1|56=DMA_HUB|34=2122|52=20240214-23:53:37|10=143|
2024-02-15 00:53:42.932 [29] [FixSender] (DEBUG) Receiving 8=FIX.4.4|9=63|35=0|34=2118|49=DMA_HUB|56=FIXCLIENT1|52=20240214-23:53:42.932|10=087|
2024-02-15 00:54:07.851 [30] [FixSender] (DEBUG) Sending 8=FIX.4.4|9=59|35=0|49=FIXCLIENT1|56=DMA_HUB|34=2123|52=20240214-23:54:07|10=142|
2024-02-15 00:54:12.886 [29] [FixSender] (DEBUG) Receiving 8=FIX.4.4|9=63|35=0|34=2119|49=DMA_HUB|56=FIXCLIENT1|52=20240214-23:54:12.886|10=094|
2024-02-15 00:54:37.868 [30] [FixSender] (DEBUG) Sending 8=FIX.4.4|9=59|35=0|49=FIXCLIENT1|56=DMA_HUB|34=2124|52=20240214-23:54:37|10=146|
2024-02-15 00:54:42.844 [29] [FixSender] (DEBUG) Receiving 8=FIX.4.4|9=63|35=0|34=2120|49=DMA_HUB|56=FIXCLIENT1|52=20240214-23:54:42.844|10=083|
2024-02-15 00:55:07.870 [30] [FixSender] (DEBUG) Sending 8=FIX.4.4|9=59|35=0|49=FIXCLIENT1|56=DMA_HUB|34=2125|52=20240214-23:55:07|10=145|
2024-02-15 00:55:12.789 [29] [FixSender] (DEBUG) Receiving 8=FIX.4.4|9=63|35=0|34=2121|49=DMA_HUB|56=FIXCLIENT1|52=20240214-23:55:12.789|10=090|
2024-02-15 00:55:37.884 [30] [FixSender] (DEBUG) Sending 8=FIX.4.4|9=59|35=0|49=FIXCLIENT1|56=DMA_HUB|34=2126|52=20240214-23:55:37|10=149|
2024-02-15 00:55:42.743 [29] [FixSender] (DEBUG) Receiving 8=FIX.4.4|9=63|35=0|34=2122|49=DMA_HUB|56=FIXCLIENT1|52=20240214-23:55:42.743|10=084|
2024-02-15 00:56:07.902 [30] [FixSender] (DEBUG) Sending 8=FIX.4.4|9=59|35=0|49=FIXCLIENT1|56=DMA_HUB|34=2127|52=20240214-23:56:07|10=148|
2024-02-15 00:56:12.696 [29] [FixSender] (DEBUG) Receiving 8=FIX.4.4|9=63|35=0|34=2123|49=DMA_HUB|56=FIXCLIENT1|52=20240214-23:56:12.696|10=090|
2024-02-15 00:56:37.905 [30] [FixSender] (DEBUG) Sending 8=FIX.4.4|9=59|35=0|49=FIXCLIENT1|56=DMA_HUB|34=2128|52=20240214-23:56:37|10=152|
2024-02-15 00:56:42.649 [29] [FixSender] (DEBUG) Receiving 8=FIX.4.4|9=63|35=0|34=2124|49=DMA_HUB|56=FIXCLIENT1|52=20240214-23:56:42.649|10=092|
2024-02-15 00:57:07.920 [30] [FixSender] (DEBUG) Sending 8=FIX.4.4|9=59|35=0|49=FIXCLIENT1|56=DMA_HUB|34=2129|52=20240214-23:57:07|10=151|
2024-02-15 00:57:12.600 [29] [FixSender] (DEBUG) Receiving 8=FIX.4.4|9=63|35=0|34=2125|49=DMA_HUB|56=FIXCLIENT1|52=20240214-23:57:12.600|10=078|
2024-02-15 00:57:37.935 [30] [FixSender] (DEBUG) Sending 8=FIX.4.4|9=59|35=0|49=FIXCLIENT1|56=DMA_HUB|34=2130|52=20240214-23:57:37|10=146|
2024-02-15 00:57:42.544 [29] [FixSender] (DEBUG) Receiving 8=FIX.4.4|9=63|35=0|34=2126|49=DMA_HUB|56=FIXCLIENT1|52=20240214-23:57:42.544|10=089|
2024-02-15 00:58:07.955 [30] [FixSender] (DEBUG) Sending 8=FIX.4.4|9=59|35=0|49=FIXCLIENT1|56=DMA_HUB|34=2131|52=20240214-23:58:07|10=145|
2024-02-15 00:58:12.497 [29] [FixSender] (DEBUG) Receiving 8=FIX.4.4|9=63|35=0|34=2127|49=DMA_HUB|56=FIXCLIENT1|52=20240214-23:58:12.497|10=095|
2024-02-15 00:58:37.972 [30] [FixSender] (DEBUG) Sending 8=FIX.4.4|9=59|35=0|49=FIXCLIENT1|56=DMA_HUB|34=2132|52=20240214-23:58:37|10=149|
2024-02-15 00:58:42.446 [29] [FixSender] (DEBUG) Receiving 8=FIX.4.4|9=63|35=0|34=2128|49=DMA_HUB|56=FIXCLIENT1|52=20240214-23:58:42.446|10=093|
2024-02-15 00:59:07.987 [30] [FixSender] (DEBUG) Sending 8=FIX.4.4|9=59|35=0|49=FIXCLIENT1|56=DMA_HUB|34=2133|52=20240214-23:59:07|10=148|
2024-02-15 00:59:12.401 [29] [FixSender] (DEBUG) Receiving 8=FIX.4.4|9=63|35=0|34=2129|49=DMA_HUB|56=FIXCLIENT1|52=20240214-23:59:12.401|10=083|
2024-02-15 00:59:37.988 [30] [FixSender] (DEBUG) Sending 8=FIX.4.4|9=59|35=0|49=FIXCLIENT1|56=DMA_HUB|34=2134|52=20240214-23:59:37|10=152|
2024-02-15 00:59:42.351 [29] [FixSender] (DEBUG) Receiving 8=FIX.4.4|9=63|35=0|34=2130|49=DMA_HUB|56=FIXCLIENT1|52=20240214-23:59:42.351|10=082|
2024-02-15 01:00:07.990 [30] [FixSender] (DEBUG) Sending 8=FIX.4.4|9=59|35=0|49=FIXCLIENT1|56=DMA_HUB|34=2135|52=20240215-00:00:07|10=132|
2024-02-15 01:00:12.303 [29] [FixSender] (DEBUG) Receiving 8=FIX.4.4|9=63|35=0|34=2131|49=DMA_HUB|56=FIXCLIENT1|52=20240215-00:00:12.303|10=059|
2024-02-15 01:00:38.004 [30] [FixSender] (DEBUG) Sending 8=FIX.4.4|9=59|35=0|49=FIXCLIENT1|56=DMA_HUB|34=2136|52=20240215-00:00:38|10=137|
2024-02-15 01:00:42.257 [29] [FixSender] (DEBUG) Receiving 8=FIX.4.4|9=63|35=0|34=2132|49=DMA_HUB|56=FIXCLIENT1|52=20240215-00:00:42.257|10=071|
2024-02-15 01:01:08.007 [30] [FixSender] (DEBUG) Sending 8=FIX.4.4|9=59|35=0|49=FIXCLIENT1|56=DMA_HUB|34=2137|52=20240215-00:01:08|10=136|
2024-02-15 01:01:12.211 [29] [FixSender] (DEBUG) Receiving 8=FIX.4.4|9=63|35=0|34=2133|49=DMA_HUB|56=FIXCLIENT1|52=20240215-00:01:12.211|10=060|
2024-02-15 01:01:38.021 [30] [FixSender] (DEBUG) Sending 8=FIX.4.4|9=59|35=0|49=FIXCLIENT1|56=DMA_HUB|34=2138|52=20240215-00:01:38|10=140|
2024-02-15 01:01:42.166 [29] [FixSender] (DEBUG) Receiving 8=FIX.4.4|9=63|35=0|34=2134|49=DMA_HUB|56=FIXCLIENT1|52=20240215-00:01:42.166|10=073|
2024-02-15 01:02:08.037 [30] [FixSender] (DEBUG) Sending 8=FIX.4.4|9=59|35=0|49=FIXCLIENT1|56=DMA_HUB|34=2139|52=20240215-00:02:08|10=139|
2024-02-15 01:02:12.115 [29] [FixSender] (DEBUG) Receiving 8=FIX.4.4|9=63|35=0|34=2135|49=DMA_HUB|56=FIXCLIENT1|52=20240215-00:02:12.115|10=066|
2024-02-15 01:02:38.053 [30] [FixSender] (DEBUG) Sending 8=FIX.4.4|9=59|35=0|49=FIXCLIENT1|56=DMA_HUB|34=2140|52=20240215-00:02:38|10=134|
2024-02-15 01:02:42.069 [29] [FixSender] (DEBUG) Receiving 8=FIX.4.4|9=63|35=0|34=2136|49=DMA_HUB|56=FIXCLIENT1|52=20240215-00:02:42.069|10=078|
2024-02-15 01:03:08.068 [30] [FixSender] (DEBUG) Sending 8=FIX.4.4|9=59|35=0|49=FIXCLIENT1|56=DMA_HUB|34=2141|52=20240215-00:03:08|10=133|
2024-02-15 01:03:12.022 [29] [FixSender] (DEBUG) Receiving 8=FIX.4.4|9=63|35=0|34=2137|49=DMA_HUB|56=FIXCLIENT1|52=20240215-00:03:12.022|10=066|
2024-02-15 01:03:38.069 [30] [FixSender] (DEBUG) Sending 8=FIX.4.4|9=59|35=0|49=FIXCLIENT1|56=DMA_HUB|34=2142|52=20240215-00:03:38|10=137|
2024-02-15 01:03:41.975 [29] [FixSender] (DEBUG) Receiving 8=FIX.4.4|9=63|35=0|34=2138|49=DMA_HUB|56=FIXCLIENT1|52=20240215-00:03:41.975|10=086|
2024-02-15 01:04:08.071 [30] [FixSender] (DEBUG) Sending 8=FIX.4.4|9=59|35=0|49=FIXCLIENT1|56=DMA_HUB|34=2143|52=20240215-00:04:08|10=136|
2024-02-15 01:04:11.924 [29] [FixSender] (DEBUG) Receiving 8=FIX.4.4|9=63|35=0|34=2139|49=DMA_HUB|56=FIXCLIENT1|52=20240215-00:04:11.924|10=079|
2024-02-15 01:04:38.086 [30] [FixSender] (DEBUG) Sending 8=FIX.4.4|9=59|35=0|49=FIXCLIENT1|56=DMA_HUB|34=2144|52=20240215-00:04:38|10=140|
2024-02-15 01:04:41.876 [29] [FixSender] (DEBUG) Receiving 8=FIX.4.4|9=63|35=0|34=2140|49=DMA_HUB|56=FIXCLIENT1|52=20240215-00:04:41.876|10=080|
2024-02-15 01:05:08.088 [30] [FixSender] (DEBUG) Sending 8=FIX.4.4|9=59|35=0|49=FIXCLIENT1|56=DMA_HUB|34=2145|52=20240215-00:05:08|10=139|
2024-02-15 01:05:11.831 [29] [FixSender] (DEBUG) Receiving 8=FIX.4.4|9=63|35=0|34=2141|49=DMA_HUB|56=FIXCLIENT1|52=20240215-00:05:11.831|10=070|
2024-02-15 01:05:38.101 [30] [FixSender] (DEBUG) Sending 8=FIX.4.4|9=59|35=0|49=FIXCLIENT1|56=DMA_HUB|34=2146|52=20240215-00:05:38|10=143|
2024-02-15 01:05:41.784 [29] [FixSender] (DEBUG) Receiving 8=FIX.4.4|9=63|35=0|34=2142|49=DMA_HUB|56=FIXCLIENT1|52=20240215-00:05:41.784|10=081|
2024-02-15 01:06:08.103 [30] [FixSender] (DEBUG) Sending 8=FIX.4.4|9=59|35=0|49=FIXCLIENT1|56=DMA_HUB|34=2147|52=20240215-00:06:08|10=142|
2024-02-15 01:06:11.737 [29] [FixSender] (DEBUG) Receiving 8=FIX.4.4|9=63|35=0|34=2143|49=DMA_HUB|56=FIXCLIENT1|52=20240215-00:06:11.737|10=078|
2024-02-15 01:06:38.119 [30] [FixSender] (DEBUG) Sending 8=FIX.4.4|9=59|35=0|49=FIXCLIENT1|56=DMA_HUB|34=2148|52=20240215-00:06:38|10=146|
2024-02-15 01:06:41.683 [29] [FixSender] (DEBUG) Receiving 8=FIX.4.4|9=63|35=0|34=2144|49=DMA_HUB|56=FIXCLIENT1|52=20240215-00:06:41.682|10=081|
2024-02-15 01:07:08.121 [30] [FixSender] (DEBUG) Sending 8=FIX.4.4|9=59|35=0|49=FIXCLIENT1|56=DMA_HUB|34=2149|52=20240215-00:07:08|10=145|
2024-02-15 01:07:11.639 [29] [FixSender] (DEBUG) Receiving 8=FIX.4.4|9=63|35=0|34=2145|49=DMA_HUB|56=FIXCLIENT1|52=20240215-00:07:11.639|10=082|
2024-02-15 01:07:38.135 [30] [FixSender] (DEBUG) Sending 8=FIX.4.4|9=59|35=0|49=FIXCLIENT1|56=DMA_HUB|34=2150|52=20240215-00:07:38|10=140|
2024-02-15 01:07:41.591 [29] [FixSender] (DEBUG) Receiving 8=FIX.4.4|9=63|35=0|34=2146|49=DMA_HUB|56=FIXCLIENT1|52=20240215-00:07:41.591|10=083|
2024-02-15 01:08:08.150 [30] [FixSender] (DEBUG) Sending 8=FIX.4.4|9=59|35=0|49=FIXCLIENT1|56=DMA_HUB|34=2151|52=20240215-00:08:08|10=139|
2024-02-15 01:08:11.544 [29] [FixSender] (DEBUG) Receiving 8=FIX.4.4|9=63|35=0|34=2147|49=DMA_HUB|56=FIXCLIENT1|52=20240215-00:08:11.544|10=080|
2024-02-15 01:08:38.152 [30] [FixSender] (DEBUG) Sending 8=FIX.4.4|9=59|35=0|49=FIXCLIENT1|56=DMA_HUB|34=2152|52=20240215-00:08:38|10=143|
2024-02-15 01:08:41.501 [29] [FixSender] (DEBUG) Receiving 8=FIX.4.4|9=63|35=0|34=2148|49=DMA_HUB|56=FIXCLIENT1|52=20240215-00:08:41.501|10=077|
2024-02-15 01:09:08.167 [30] [FixSender] (DEBUG) Sending 8=FIX.4.4|9=59|35=0|49=FIXCLIENT1|56=DMA_HUB|34=2153|52=20240215-00:09:08|10=142|
2024-02-15 01:09:11.513 [29] [FixSender] (DEBUG) Receiving 8=FIX.4.4|9=63|35=0|34=2149|49=DMA_HUB|56=FIXCLIENT1|52=20240215-00:09:11.513|10=079|
2024-02-15 01:09:38.168 [30] [FixSender] (DEBUG) Sending 8=FIX.4.4|9=59|35=0|49=FIXCLIENT1|56=DMA_HUB|34=2154|52=20240215-00:09:38|10=146|
2024-02-15 01:09:41.468 [29] [FixSender] (DEBUG) Receiving 8=FIX.4.4|9=63|35=0|34=2150|49=DMA_HUB|56=FIXCLIENT1|52=20240215-00:09:41.468|10=083|
2024-02-15 01:10:08.184 [30] [FixSender] (DEBUG) Sending 8=FIX.4.4|9=59|35=0|49=FIXCLIENT1|56=DMA_HUB|34=2155|52=20240215-00:10:08|10=136|
2024-02-15 01:10:11.419 [29] [FixSender] (DEBUG) Receiving 8=FIX.4.4|9=63|35=0|34=2151|49=DMA_HUB|56=FIXCLIENT1|52=20240215-00:10:11.419|10=069|
2024-02-15 01:10:38.199 [30] [FixSender] (DEBUG) Sending 8=FIX.4.4|9=59|35=0|49=FIXCLIENT1|56=DMA_HUB|34=2156|52=20240215-00:10:38|10=140|
2024-02-15 01:10:41.358 [29] [FixSender] (DEBUG) Receiving 8=FIX.4.4|9=63|35=0|34=2152|49=DMA_HUB|56=FIXCLIENT1|52=20240215-00:10:41.358|10=075|
2024-02-15 01:11:08.216 [30] [FixSender] (DEBUG) Sending 8=FIX.4.4|9=59|35=0|49=FIXCLIENT1|56=DMA_HUB|34=2157|52=20240215-00:11:08|10=139|
2024-02-15 01:11:11.323 [29] [FixSender] (DEBUG) Receiving 8=FIX.4.4|9=63|35=0|34=2153|49=DMA_HUB|56=FIXCLIENT1|52=20240215-00:11:11.323|10=066|
2024-02-15 01:11:38.217 [30] [FixSender] (DEBUG) Sending 8=FIX.4.4|9=59|35=0|49=FIXCLIENT1|56=DMA_HUB|34=2158|52=20240215-00:11:38|10=143|
2024-02-15 01:11:41.264 [29] [FixSender] (DEBUG) Receiving 8=FIX.4.4|9=63|35=0|34=2154|49=DMA_HUB|56=FIXCLIENT1|52=20240215-00:11:41.264|10=074|
2024-02-15 01:12:08.232 [30] [FixSender] (DEBUG) Sending 8=FIX.4.4|9=59|35=0|49=FIXCLIENT1|56=DMA_HUB|34=2159|52=20240215-00:12:08|10=142|
2024-02-15 01:12:11.215 [29] [FixSender] (DEBUG) Receiving 8=FIX.4.4|9=63|35=0|34=2155|49=DMA_HUB|56=FIXCLIENT1|52=20240215-00:12:11.215|10=069|
2024-02-15 01:12:38.247 [30] [FixSender] (DEBUG) Sending 8=FIX.4.4|9=59|35=0|49=FIXCLIENT1|56=DMA_HUB|34=2160|52=20240215-00:12:38|10=137|
2024-02-15 01:12:41.168 [29] [FixSender] (DEBUG) Receiving 8=FIX.4.4|9=63|35=0|34=2156|49=DMA_HUB|56=FIXCLIENT1|52=20240215-00:12:41.168|10=080|
2024-02-15 01:13:08.263 [30] [FixSender] (DEBUG) Sending 8=FIX.4.4|9=59|35=0|49=FIXCLIENT1|56=DMA_HUB|34=2161|52=20240215-00:13:08|10=136|
2024-02-15 01:13:11.122 [29] [FixSender] (DEBUG) Receiving 8=FIX.4.4|9=63|35=0|34=2157|49=DMA_HUB|56=FIXCLIENT1|52=20240215-00:13:11.122|10=069|
2024-02-15 01:13:38.265 [30] [FixSender] (DEBUG) Sending 8=FIX.4.4|9=59|35=0|49=FIXCLIENT1|56=DMA_HUB|34=2162|52=20240215-00:13:38|10=140|
2024-02-15 01:13:41.075 [29] [FixSender] (DEBUG) Receiving 8=FIX.4.4|9=63|35=0|34=2158|49=DMA_HUB|56=FIXCLIENT1|52=20240215-00:13:41.075|10=080|
2024-02-15 01:14:08.279 [30] [FixSender] (DEBUG) Sending 8=FIX.4.4|9=59|35=0|49=FIXCLIENT1|56=DMA_HUB|34=2163|52=20240215-00:14:08|10=139|
2024-02-15 01:14:11.027 [29] [FixSender] (DEBUG) Receiving 8=FIX.4.4|9=63|35=0|34=2159|49=DMA_HUB|56=FIXCLIENT1|52=20240215-00:14:11.027|10=076|
2024-02-15 01:14:38.280 [30] [FixSender] (DEBUG) Sending 8=FIX.4.4|9=59|35=0|49=FIXCLIENT1|56=DMA_HUB|34=2164|52=20240215-00:14:38|10=143|
2024-02-15 01:14:40.980 [29] [FixSender] (DEBUG) Receiving 8=FIX.4.4|9=63|35=0|34=2160|49=DMA_HUB|56=FIXCLIENT1|52=20240215-00:14:40.980|10=078|
2024-02-15 01:15:08.282 [30] [FixSender] (DEBUG) Sending 8=FIX.4.4|9=59|35=0|49=FIXCLIENT1|56=DMA_HUB|34=2165|52=20240215-00:15:08|10=142|
2024-02-15 01:15:10.930 [29] [FixSender] (DEBUG) Receiving 8=FIX.4.4|9=63|35=0|34=2161|49=DMA_HUB|56=FIXCLIENT1|52=20240215-00:15:10.930|10=072|
2024-02-15 01:15:38.297 [30] [FixSender] (DEBUG) Sending 8=FIX.4.4|9=59|35=0|49=FIXCLIENT1|56=DMA_HUB|34=2166|52=20240215-00:15:38|10=146|
2024-02-15 01:15:40.881 [29] [FixSender] (DEBUG) Receiving 8=FIX.4.4|9=63|35=0|34=2162|49=DMA_HUB|56=FIXCLIENT1|52=20240215-00:15:40.881|10=081|
2024-02-15 01:16:08.300 [30] [FixSender] (DEBUG) Sending 8=FIX.4.4|9=59|35=0|49=FIXCLIENT1|56=DMA_HUB|34=2167|52=20240215-00:16:08|10=145|
2024-02-15 01:16:10.838 [29] [FixSender] (DEBUG) Receiving 8=FIX.4.4|9=63|35=0|34=2163|49=DMA_HUB|56=FIXCLIENT1|52=20240215-00:16:10.838|10=082|
2024-02-15 01:16:38.314 [30] [FixSender] (DEBUG) Sending 8=FIX.4.4|9=59|35=0|49=FIXCLIENT1|56=DMA_HUB|34=2168|52=20240215-00:16:38|10=149|
2024-02-15 01:16:40.792 [29] [FixSender] (DEBUG) Receiving 8=FIX.4.4|9=63|35=0|34=2164|49=DMA_HUB|56=FIXCLIENT1|52=20240215-00:16:40.792|10=085|
2024-02-15 01:17:08.329 [30] [FixSender] (DEBUG) Sending 8=FIX.4.4|9=59|35=0|49=FIXCLIENT1|56=DMA_HUB|34=2169|52=20240215-00:17:08|10=148|
2024-02-15 01:17:10.741 [29] [FixSender] (DEBUG) Receiving 8=FIX.4.4|9=63|35=0|34=2165|49=DMA_HUB|56=FIXCLIENT1|52=20240215-00:17:10.741|10=078|
2024-02-15 01:17:38.331 [30] [FixSender] (DEBUG) Sending 8=FIX.4.4|9=59|35=0|49=FIXCLIENT1|56=DMA_HUB|34=2170|52=20240215-00:17:38|10=143|
2024-02-15 01:17:40.694 [29] [FixSender] (DEBUG) Receiving 8=FIX.4.4|9=63|35=0|34=2166|49=DMA_HUB|56=FIXCLIENT1|52=20240215-00:17:40.694|10=089|
2024-02-15 01:18:08.343 [30] [FixSender] (DEBUG) Sending 8=FIX.4.4|9=59|35=0|49=FIXCLIENT1|56=DMA_HUB|34=2171|52=20240215-00:18:08|10=142|
2024-02-15 01:18:10.644 [29] [FixSender] (DEBUG) Receiving 8=FIX.4.4|9=63|35=0|34=2167|49=DMA_HUB|56=FIXCLIENT1|52=20240215-00:18:10.644|10=083|
2024-02-15 01:18:38.359 [30] [FixSender] (DEBUG) Sending 8=FIX.4.4|9=59|35=0|49=FIXCLIENT1|56=DMA_HUB|34=2172|52=20240215-00:18:38|10=146|
2024-02-15 01:18:40.598 [29] [FixSender] (DEBUG) Receiving 8=FIX.4.4|9=63|35=0|34=2168|49=DMA_HUB|56=FIXCLIENT1|52=20240215-00:18:40.598|10=095|
2024-02-15 01:19:08.361 [30] [FixSender] (DEBUG) Sending 8=FIX.4.4|9=59|35=0|49=FIXCLIENT1|56=DMA_HUB|34=2173|52=20240215-00:19:08|10=145|
2024-02-15 01:19:10.552 [29] [FixSender] (DEBUG) Receiving 8=FIX.4.4|9=63|35=0|34=2169|49=DMA_HUB|56=FIXCLIENT1|52=20240215-00:19:10.552|10=084|
2024-02-15 01:19:38.364 [30] [FixSender] (DEBUG) Sending 8=FIX.4.4|9=59|35=0|49=FIXCLIENT1|56=DMA_HUB|34=2174|52=20240215-00:19:38|10=149|
2024-02-15 01:19:40.504 [29] [FixSender] (DEBUG) Receiving 8=FIX.4.4|9=63|35=0|34=2170|49=DMA_HUB|56=FIXCLIENT1|52=20240215-00:19:40.504|10=076|
2024-02-15 01:20:08.379 [30] [FixSender] (DEBUG) Sending 8=FIX.4.4|9=59|35=0|49=FIXCLIENT1|56=DMA_HUB|34=2175|52=20240215-00:20:08|10=139|
2024-02-15 01:20:10.459 [29] [FixSender] (DEBUG) Receiving 8=FIX.4.4|9=63|35=0|34=2171|49=DMA_HUB|56=FIXCLIENT1|52=20240215-00:20:10.459|10=075|
2024-02-15 01:20:38.392 [30] [FixSender] (DEBUG) Sending 8=FIX.4.4|9=59|35=0|49=FIXCLIENT1|56=DMA_HUB|34=2176|52=20240215-00:20:38|10=143|
2024-02-15 01:20:40.410 [29] [FixSender] (DEBUG) Receiving 8=FIX.4.4|9=63|35=0|34=2172|49=DMA_HUB|56=FIXCLIENT1|52=20240215-00:20:40.410|10=066|
2024-02-15 01:21:08.409 [30] [FixSender] (DEBUG) Sending 8=FIX.4.4|9=59|35=0|49=FIXCLIENT1|56=DMA_HUB|34=2177|52=20240215-00:21:08|10=142|
2024-02-15 01:21:10.363 [29] [FixSender] (DEBUG) Receiving 8=FIX.4.4|9=63|35=0|34=2173|49=DMA_HUB|56=FIXCLIENT1|52=20240215-00:21:10.363|10=072|
2024-02-15 01:21:38.423 [30] [FixSender] (DEBUG) Sending 8=FIX.4.4|9=59|35=0|49=FIXCLIENT1|56=DMA_HUB|34=2178|52=20240215-00:21:38|10=146|
2024-02-15 01:21:40.312 [29] [FixSender] (DEBUG) Receiving 8=FIX.4.4|9=63|35=0|34=2174|49=DMA_HUB|56=FIXCLIENT1|52=20240215-00:21:40.312|10=070|
2024-02-15 01:22:08.426 [30] [FixSender] (DEBUG) Sending 8=FIX.4.4|9=59|35=0|49=FIXCLIENT1|56=DMA_HUB|34=2179|52=20240215-00:22:08|10=145|
2024-02-15 01:22:10.269 [29] [FixSender] (DEBUG) Receiving 8=FIX.4.4|9=63|35=0|34=2175|49=DMA_HUB|56=FIXCLIENT1|52=20240215-00:22:10.269|10=080|
2024-02-15 01:22:38.441 [30] [FixSender] (DEBUG) Sending 8=FIX.4.4|9=59|35=0|49=FIXCLIENT1|56=DMA_HUB|34=2180|52=20240215-00:22:38|10=140|
2024-02-15 01:22:40.284 [29] [FixSender] (DEBUG) Receiving 8=FIX.4.4|9=63|35=0|34=2176|49=DMA_HUB|56=FIXCLIENT1|52=20240215-00:22:40.284|10=081|
2024-02-15 01:23:08.456 [30] [FixSender] (DEBUG) Sending 8=FIX.4.4|9=59|35=0|49=FIXCLIENT1|56=DMA_HUB|34=2181|52=20240215-00:23:08|10=139|
2024-02-15 01:23:10.235 [29] [FixSender] (DEBUG) Receiving 8=FIX.4.4|9=63|35=0|34=2177|49=DMA_HUB|56=FIXCLIENT1|52=20240215-00:23:10.235|10=076|
2024-02-15 01:23:38.458 [30] [FixSender] (DEBUG) Sending 8=FIX.4.4|9=59|35=0|49=FIXCLIENT1|56=DMA_HUB|34=2182|52=20240215-00:23:38|10=143|
2024-02-15 01:23:40.176 [29] [FixSender] (DEBUG) Receiving 8=FIX.4.4|9=63|35=0|34=2178|49=DMA_HUB|56=FIXCLIENT1|52=20240215-00:23:40.176|10=084|
2024-02-15 01:24:08.473 [30] [FixSender] (DEBUG) Sending 8=FIX.4.4|9=59|35=0|49=FIXCLIENT1|56=DMA_HUB|34=2183|52=20240215-00:24:08|10=142|
2024-02-15 01:24:10.127 [29] [FixSender] (DEBUG) Receiving 8=FIX.4.4|9=63|35=0|34=2179|49=DMA_HUB|56=FIXCLIENT1|52=20240215-00:24:10.127|10=079|
2024-02-15 01:24:38.477 [30] [FixSender] (DEBUG) Sending 8=FIX.4.4|9=59|35=0|49=FIXCLIENT1|56=DMA_HUB|34=2184|52=20240215-00:24:38|10=146|
2024-02-15 01:24:40.082 [29] [FixSender] (DEBUG) Receiving 8=FIX.4.4|9=63|35=0|34=2180|49=DMA_HUB|56=FIXCLIENT1|52=20240215-00:24:40.082|10=074|
2024-02-15 01:25:08.490 [30] [FixSender] (DEBUG) Sending 8=FIX.4.4|9=59|35=0|49=FIXCLIENT1|56=DMA_HUB|34=2185|52=20240215-00:25:08|10=145|
2024-02-15 01:25:10.032 [29] [FixSender] (DEBUG) Receiving 8=FIX.4.4|9=63|35=0|34=2181|49=DMA_HUB|56=FIXCLIENT1|52=20240215-00:25:10.032|10=068|
2024-02-15 01:25:38.507 [30] [FixSender] (DEBUG) Sending 8=FIX.4.4|9=59|35=0|49=FIXCLIENT1|56=DMA_HUB|34=2186|52=20240215-00:25:38|10=149|
2024-02-15 01:25:39.985 [29] [FixSender] (DEBUG) Receiving 8=FIX.4.4|9=63|35=0|34=2182|49=DMA_HUB|56=FIXCLIENT1|52=20240215-00:25:39.985|10=097|
2024-02-15 01:26:08.510 [30] [FixSender] (DEBUG) Sending 8=FIX.4.4|9=59|35=0|49=FIXCLIENT1|56=DMA_HUB|34=2187|52=20240215-00:26:08|10=148|
2024-02-15 01:26:09.943 [29] [FixSender] (DEBUG) Receiving 8=FIX.4.4|9=63|35=0|34=2183|49=DMA_HUB|56=FIXCLIENT1|52=20240215-00:26:09.943|10=090|
2024-02-15 01:26:38.522 [30] [FixSender] (DEBUG) Sending 8=FIX.4.4|9=59|35=0|49=FIXCLIENT1|56=DMA_HUB|34=2188|52=20240215-00:26:38|10=152|
2024-02-15 01:26:39.900 [29] [FixSender] (DEBUG) Receiving 8=FIX.4.4|9=63|35=0|34=2184|49=DMA_HUB|56=FIXCLIENT1|52=20240215-00:26:39.900|10=087|
2024-02-15 01:27:08.536 [30] [FixSender] (DEBUG) Sending 8=FIX.4.4|9=59|35=0|49=FIXCLIENT1|56=DMA_HUB|34=2189|52=20240215-00:27:08|10=151|
2024-02-15 01:27:09.839 [29] [FixSender] (DEBUG) Receiving 8=FIX.4.4|9=63|35=0|34=2185|49=DMA_HUB|56=FIXCLIENT1|52=20240215-00:27:09.839|10=097|
2024-02-15 01:27:38.553 [30] [FixSender] (DEBUG) Sending 8=FIX.4.4|9=59|35=0|49=FIXCLIENT1|56=DMA_HUB|34=2190|52=20240215-00:27:38|10=146|
2024-02-15 01:27:39.792 [29] [FixSender] (DEBUG) Receiving 8=FIX.4.4|9=63|35=0|34=2186|49=DMA_HUB|56=FIXCLIENT1|52=20240215-00:27:39.792|10=099|
2024-02-15 01:28:08.557 [30] [FixSender] (DEBUG) Sending 8=FIX.4.4|9=59|35=0|49=FIXCLIENT1|56=DMA_HUB|34=2191|52=20240215-00:28:08|10=145|
2024-02-15 01:28:09.753 [29] [FixSender] (DEBUG) Receiving 8=FIX.4.4|9=63|35=0|34=2187|49=DMA_HUB|56=FIXCLIENT1|52=20240215-00:28:09.753|10=095|
2024-02-15 01:28:38.570 [30] [FixSender] (DEBUG) Sending 8=FIX.4.4|9=59|35=0|49=FIXCLIENT1|56=DMA_HUB|34=2192|52=20240215-00:28:38|10=149|
2024-02-15 01:28:39.699 [29] [FixSender] (DEBUG) Receiving 8=FIX.4.4|9=63|35=0|34=2188|49=DMA_HUB|56=FIXCLIENT1|52=20240215-00:28:39.699|10=108|
2024-02-15 01:29:08.582 [30] [FixSender] (DEBUG) Sending 8=FIX.4.4|9=59|35=0|49=FIXCLIENT1|56=DMA_HUB|34=2193|52=20240215-00:29:08|10=148|
2024-02-15 01:29:09.660 [29] [FixSender] (DEBUG) Receiving 8=FIX.4.4|9=63|35=0|34=2189|49=DMA_HUB|56=FIXCLIENT1|52=20240215-00:29:09.660|10=095|
2024-02-15 01:29:38.589 [30] [FixSender] (DEBUG) Sending 8=FIX.4.4|9=59|35=0|49=FIXCLIENT1|56=DMA_HUB|34=2194|52=20240215-00:29:38|10=152|
2024-02-15 01:29:39.602 [29] [FixSender] (DEBUG) Receiving 8=FIX.4.4|9=63|35=0|34=2190|49=DMA_HUB|56=FIXCLIENT1|52=20240215-00:29:39.602|10=086|
2024-02-15 01:30:08.605 [30] [FixSender] (DEBUG) Sending 8=FIX.4.4|9=59|35=0|49=FIXCLIENT1|56=DMA_HUB|34=2195|52=20240215-00:30:08|10=142|
2024-02-15 01:30:09.555 [29] [FixSender] (DEBUG) Receiving 8=FIX.4.4|9=63|35=0|34=2191|49=DMA_HUB|56=FIXCLIENT1|52=20240215-00:30:09.555|10=083|
2024-02-15 01:30:38.614 [30] [FixSender] (DEBUG) Sending 8=FIX.4.4|9=59|35=0|49=FIXCLIENT1|56=DMA_HUB|34=2196|52=20240215-00:30:38|10=146|
2024-02-15 01:30:39.504 [29] [FixSender] (DEBUG) Receiving 8=FIX.4.4|9=63|35=0|34=2192|49=DMA_HUB|56=FIXCLIENT1|52=20240215-00:30:39.504|10=081|
2024-02-15 01:31:08.615 [30] [FixSender] (DEBUG) Sending 8=FIX.4.4|9=59|35=0|49=FIXCLIENT1|56=DMA_HUB|34=2197|52=20240215-00:31:08|10=145|
2024-02-15 01:31:09.457 [29] [FixSender] (DEBUG) Receiving 8=FIX.4.4|9=63|35=0|34=2193|49=DMA_HUB|56=FIXCLIENT1|52=20240215-00:31:09.457|10=087|
2024-02-15 01:31:38.619 [30] [FixSender] (DEBUG) Sending 8=FIX.4.4|9=59|35=0|49=FIXCLIENT1|56=DMA_HUB|34=2198|52=20240215-00:31:38|10=149|
2024-02-15 01:31:39.412 [29] [FixSender] (DEBUG) Receiving 8=FIX.4.4|9=63|35=0|34=2194|49=DMA_HUB|56=FIXCLIENT1|52=20240215-00:31:39.412|10=082|
2024-02-15 01:32:08.634 [30] [FixSender] (DEBUG) Sending 8=FIX.4.4|9=59|35=0|49=FIXCLIENT1|56=DMA_HUB|34=2199|52=20240215-00:32:08|10=148|
2024-02-15 01:32:09.365 [29] [FixSender] (DEBUG) Receiving 8=FIX.4.4|9=63|35=0|34=2195|49=DMA_HUB|56=FIXCLIENT1|52=20240215-00:32:09.365|10=088|
2024-02-15 01:32:38.649 [30] [FixSender] (DEBUG) Sending 8=FIX.4.4|9=59|35=0|49=FIXCLIENT1|56=DMA_HUB|34=2200|52=20240215-00:32:38|10=134|
2024-02-15 01:32:39.320 [29] [FixSender] (DEBUG) Receiving 8=FIX.4.4|9=63|35=0|34=2196|49=DMA_HUB|56=FIXCLIENT1|52=20240215-00:32:39.320|10=083|
2024-02-15 01:33:08.665 [30] [FixSender] (DEBUG) Sending 8=FIX.4.4|9=59|35=0|49=FIXCLIENT1|56=DMA_HUB|34=2201|52=20240215-00:33:08|10=133|
2024-02-15 01:33:09.271 [29] [FixSender] (DEBUG) Receiving 8=FIX.4.4|9=63|35=0|34=2197|49=DMA_HUB|56=FIXCLIENT1|52=20240215-00:33:09.271|10=087|
2024-02-15 01:33:38.668 [30] [FixSender] (DEBUG) Sending 8=FIX.4.4|9=59|35=0|49=FIXCLIENT1|56=DMA_HUB|34=2202|52=20240215-00:33:38|10=137|
2024-02-15 01:33:39.223 [29] [FixSender] (DEBUG) Receiving 8=FIX.4.4|9=63|35=0|34=2198|49=DMA_HUB|56=FIXCLIENT1|52=20240215-00:33:39.223|10=088|
2024-02-15 01:34:08.670 [30] [FixSender] (DEBUG) Sending 8=FIX.4.4|9=59|35=0|49=FIXCLIENT1|56=DMA_HUB|34=2203|52=20240215-00:34:08|10=136|
2024-02-15 01:34:09.177 [29] [FixSender] (DEBUG) Receiving 8=FIX.4.4|9=63|35=0|34=2199|49=DMA_HUB|56=FIXCLIENT1|52=20240215-00:34:09.177|10=095|
2024-02-15 01:34:38.683 [30] [FixSender] (DEBUG) Sending 8=FIX.4.4|9=59|35=0|49=FIXCLIENT1|56=DMA_HUB|34=2204|52=20240215-00:34:38|10=140|
2024-02-15 01:34:39.131 [29] [FixSender] (DEBUG) Receiving 8=FIX.4.4|9=63|35=0|34=2200|49=DMA_HUB|56=FIXCLIENT1|52=20240215-00:34:39.131|10=071|
2024-02-15 01:35:08.685 [30] [FixSender] (DEBUG) Sending 8=FIX.4.4|9=59|35=0|49=FIXCLIENT1|56=DMA_HUB|34=2205|52=20240215-00:35:08|10=139|
2024-02-15 01:35:09.082 [29] [FixSender] (DEBUG) Receiving 8=FIX.4.4|9=63|35=0|34=2201|49=DMA_HUB|56=FIXCLIENT1|52=20240215-00:35:09.082|10=075|
2024-02-15 01:35:38.693 [30] [FixSender] (DEBUG) Sending 8=FIX.4.4|9=59|35=0|49=FIXCLIENT1|56=DMA_HUB|34=2206|52=20240215-00:35:38|10=143|
2024-02-15 01:35:39.035 [29] [FixSender] (DEBUG) Receiving 8=FIX.4.4|9=63|35=0|34=2202|49=DMA_HUB|56=FIXCLIENT1|52=20240215-00:35:39.035|10=077|
2024-02-15 01:36:08.697 [30] [FixSender] (DEBUG) Sending 8=FIX.4.4|9=59|35=0|49=FIXCLIENT1|56=DMA_HUB|34=2207|52=20240215-00:36:08|10=142|
2024-02-15 01:36:08.987 [29] [FixSender] (DEBUG) Receiving 8=FIX.4.4|9=63|35=0|34=2203|49=DMA_HUB|56=FIXCLIENT1|52=20240215-00:36:08.987|10=091|
2024-02-15 01:36:38.699 [30] [FixSender] (DEBUG) Sending 8=FIX.4.4|9=59|35=0|49=FIXCLIENT1|56=DMA_HUB|34=2208|52=20240215-00:36:38|10=146|
2024-02-15 01:36:38.935 [29] [FixSender] (DEBUG) Receiving 8=FIX.4.4|9=63|35=0|34=2204|49=DMA_HUB|56=FIXCLIENT1|52=20240215-00:36:38.935|10=088|
2024-02-15 01:37:08.713 [30] [FixSender] (DEBUG) Sending 8=FIX.4.4|9=59|35=0|49=FIXCLIENT1|56=DMA_HUB|34=2209|52=20240215-00:37:08|10=145|
2024-02-15 01:37:08.886 [29] [FixSender] (DEBUG) Receiving 8=FIX.4.4|9=63|35=0|34=2205|49=DMA_HUB|56=FIXCLIENT1|52=20240215-00:37:08.886|10=092|
2024-02-15 01:37:38.719 [30] [FixSender] (DEBUG) Sending 8=FIX.4.4|9=59|35=0|49=FIXCLIENT1|56=DMA_HUB|34=2210|52=20240215-00:37:38|10=140|
2024-02-15 01:37:38.844 [29] [FixSender] (DEBUG) Receiving 8=FIX.4.4|9=63|35=0|34=2206|49=DMA_HUB|56=FIXCLIENT1|52=20240215-00:37:38.844|10=090|
2024-02-15 01:38:08.734 [30] [FixSender] (DEBUG) Sending 8=FIX.4.4|9=59|35=0|49=FIXCLIENT1|56=DMA_HUB|34=2211|52=20240215-00:38:08|10=139|
2024-02-15 01:38:08.796 [29] [FixSender] (DEBUG) Receiving 8=FIX.4.4|9=63|35=0|34=2207|49=DMA_HUB|56=FIXCLIENT1|52=20240215-00:38:08.796|10=095|
2024-02-15 01:38:38.748 [29] [FixSender] (DEBUG) Receiving 8=FIX.4.4|9=63|35=0|34=2208|49=DMA_HUB|56=FIXCLIENT1|52=20240215-00:38:38.748|10=096|
2024-02-15 01:38:38.748 [30] [FixSender] (DEBUG) Sending 8=FIX.4.4|9=59|35=0|49=FIXCLIENT1|56=DMA_HUB|34=2212|52=20240215-00:38:38|10=143|
2024-02-15 01:39:08.695 [29] [FixSender] (DEBUG) Receiving 8=FIX.4.4|9=63|35=0|34=2209|49=DMA_HUB|56=FIXCLIENT1|52=20240215-00:39:08.695|10=096|
2024-02-15 01:39:08.758 [30] [FixSender] (DEBUG) Sending 8=FIX.4.4|9=59|35=0|49=FIXCLIENT1|56=DMA_HUB|34=2213|52=20240215-00:39:08|10=142|
2024-02-15 01:39:38.641 [29] [FixSender] (DEBUG) Receiving 8=FIX.4.4|9=63|35=0|34=2210|49=DMA_HUB|56=FIXCLIENT1|52=20240215-00:39:38.641|10=082|
2024-02-15 01:39:38.768 [30] [FixSender] (DEBUG) Sending 8=FIX.4.4|9=59|35=0|49=FIXCLIENT1|56=DMA_HUB|34=2214|52=20240215-00:39:38|10=146|
2024-02-15 01:40:08.604 [29] [FixSender] (DEBUG) Receiving 8=FIX.4.4|9=63|35=0|34=2211|49=DMA_HUB|56=FIXCLIENT1|52=20240215-00:40:08.604|10=071|
2024-02-15 01:40:08.778 [30] [FixSender] (DEBUG) Sending 8=FIX.4.4|9=59|35=0|49=FIXCLIENT1|56=DMA_HUB|34=2215|52=20240215-00:40:08|10=136|
2024-02-15 01:40:38.541 [29] [FixSender] (DEBUG) Receiving 8=FIX.4.4|9=63|35=0|34=2212|49=DMA_HUB|56=FIXCLIENT1|52=20240215-00:40:38.541|10=075|
2024-02-15 01:40:38.793 [30] [FixSender] (DEBUG) Sending 8=FIX.4.4|9=59|35=0|49=FIXCLIENT1|56=DMA_HUB|34=2216|52=20240215-00:40:38|10=140|
2024-02-15 01:41:08.496 [29] [FixSender] (DEBUG) Receiving 8=FIX.4.4|9=63|35=0|34=2213|49=DMA_HUB|56=FIXCLIENT1|52=20240215-00:41:08.496|10=083|
2024-02-15 01:41:08.795 [30] [FixSender] (DEBUG) Sending 8=FIX.4.4|9=59|35=0|49=FIXCLIENT1|56=DMA_HUB|34=2217|52=20240215-00:41:08|10=139|
2024-02-15 01:41:38.451 [29] [FixSender] (DEBUG) Receiving 8=FIX.4.4|9=63|35=0|34=2214|49=DMA_HUB|56=FIXCLIENT1|52=20240215-00:41:38.451|10=078|
2024-02-15 01:41:38.812 [30] [FixSender] (DEBUG) Sending 8=FIX.4.4|9=59|35=0|49=FIXCLIENT1|56=DMA_HUB|34=2218|52=20240215-00:41:38|10=143|
2024-02-15 01:42:08.401 [29] [FixSender] (DEBUG) Receiving 8=FIX.4.4|9=63|35=0|34=2215|49=DMA_HUB|56=FIXCLIENT1|52=20240215-00:42:08.401|10=072|
2024-02-15 01:42:08.827 [30] [FixSender] (DEBUG) Sending 8=FIX.4.4|9=59|35=0|49=FIXCLIENT1|56=DMA_HUB|34=2219|52=20240215-00:42:08|10=142|
2024-02-15 01:42:38.352 [29] [FixSender] (DEBUG) Receiving 8=FIX.4.4|9=63|35=0|34=2216|49=DMA_HUB|56=FIXCLIENT1|52=20240215-00:42:38.352|10=081|
2024-02-15 01:42:38.841 [30] [FixSender] (DEBUG) Sending 8=FIX.4.4|9=59|35=0|49=FIXCLIENT1|56=DMA_HUB|34=2220|52=20240215-00:42:38|10=137|
2024-02-15 01:43:08.303 [29] [FixSender] (DEBUG) Receiving 8=FIX.4.4|9=63|35=0|34=2217|49=DMA_HUB|56=FIXCLIENT1|52=20240215-00:43:08.303|10=076|
2024-02-15 01:43:08.852 [30] [FixSender] (DEBUG) Sending 8=FIX.4.4|9=59|35=0|49=FIXCLIENT1|56=DMA_HUB|34=2221|52=20240215-00:43:08|10=136|
2024-02-15 01:43:38.259 [29] [FixSender] (DEBUG) Receiving 8=FIX.4.4|9=63|35=0|34=2218|49=DMA_HUB|56=FIXCLIENT1|52=20240215-00:43:38.259|10=090|
2024-02-15 01:43:38.856 [30] [FixSender] (DEBUG) Sending 8=FIX.4.4|9=59|35=0|49=FIXCLIENT1|56=DMA_HUB|34=2222|52=20240215-00:43:38|10=140|
2024-02-15 01:44:08.210 [29] [FixSender] (DEBUG) Receiving 8=FIX.4.4|9=63|35=0|34=2219|49=DMA_HUB|56=FIXCLIENT1|52=20240215-00:44:08.210|10=076|
2024-02-15 01:44:08.871 [30] [FixSender] (DEBUG) Sending 8=FIX.4.4|9=59|35=0|49=FIXCLIENT1|56=DMA_HUB|34=2223|52=20240215-00:44:08|10=139|
2024-02-15 01:44:38.162 [29] [FixSender] (DEBUG) Receiving 8=FIX.4.4|9=63|35=0|34=2220|49=DMA_HUB|56=FIXCLIENT1|52=20240215-00:44:38.162|10=077|
2024-02-15 01:44:38.875 [30] [FixSender] (DEBUG) Sending 8=FIX.4.4|9=59|35=0|49=FIXCLIENT1|56=DMA_HUB|34=2224|52=20240215-00:44:38|10=143|
2024-02-15 01:45:08.115 [29] [FixSender] (DEBUG) Receiving 8=FIX.4.4|9=63|35=0|34=2221|49=DMA_HUB|56=FIXCLIENT1|52=20240215-00:45:08.115|10=074|
2024-02-15 01:45:08.881 [30] [FixSender] (DEBUG) Sending 8=FIX.4.4|9=59|35=0|49=FIXCLIENT1|56=DMA_HUB|34=2225|52=20240215-00:45:08|10=142|
2024-02-15 01:45:38.069 [29] [FixSender] (DEBUG) Receiving 8=FIX.4.4|9=63|35=0|34=2222|49=DMA_HUB|56=FIXCLIENT1|52=20240215-00:45:38.069|10=086|
2024-02-15 01:45:38.888 [30] [FixSender] (DEBUG) Sending 8=FIX.4.4|9=59|35=0|49=FIXCLIENT1|56=DMA_HUB|34=2226|52=20240215-00:45:38|10=146|
2024-02-15 01:46:08.022 [29] [FixSender] (DEBUG) Receiving 8=FIX.4.4|9=63|35=0|34=2223|49=DMA_HUB|56=FIXCLIENT1|52=20240215-00:46:08.022|10=074|
2024-02-15 01:46:08.890 [30] [FixSender] (DEBUG) Sending 8=FIX.4.4|9=59|35=0|49=FIXCLIENT1|56=DMA_HUB|34=2227|52=20240215-00:46:08|10=145|
2024-02-15 01:46:37.966 [29] [FixSender] (DEBUG) Receiving 8=FIX.4.4|9=63|35=0|34=2224|49=DMA_HUB|56=FIXCLIENT1|52=20240215-00:46:37.966|10=094|
2024-02-15 01:46:38.899 [30] [FixSender] (DEBUG) Sending 8=FIX.4.4|9=59|35=0|49=FIXCLIENT1|56=DMA_HUB|34=2228|52=20240215-00:46:38|10=149|
2024-02-15 01:47:07.924 [29] [FixSender] (DEBUG) Receiving 8=FIX.4.4|9=63|35=0|34=2225|49=DMA_HUB|56=FIXCLIENT1|52=20240215-00:47:07.924|10=087|
2024-02-15 01:47:08.909 [30] [FixSender] (DEBUG) Sending 8=FIX.4.4|9=59|35=0|49=FIXCLIENT1|56=DMA_HUB|34=2229|52=20240215-00:47:08|10=148|
2024-02-15 01:47:37.876 [29] [FixSender] (DEBUG) Receiving 8=FIX.4.4|9=63|35=0|34=2226|49=DMA_HUB|56=FIXCLIENT1|52=20240215-00:47:37.876|10=097|
2024-02-15 01:47:38.924 [30] [FixSender] (DEBUG) Sending 8=FIX.4.4|9=59|35=0|49=FIXCLIENT1|56=DMA_HUB|34=2230|52=20240215-00:47:38|10=143|
2024-02-15 01:48:07.828 [29] [FixSender] (DEBUG) Receiving 8=FIX.4.4|9=63|35=0|34=2227|49=DMA_HUB|56=FIXCLIENT1|52=20240215-00:48:07.828|10=093|
2024-02-15 01:48:08.926 [30] [FixSender] (DEBUG) Sending 8=FIX.4.4|9=59|35=0|49=FIXCLIENT1|56=DMA_HUB|34=2231|52=20240215-00:48:08|10=142|
2024-02-15 01:48:37.779 [29] [FixSender] (DEBUG) Receiving 8=FIX.4.4|9=63|35=0|34=2228|49=DMA_HUB|56=FIXCLIENT1|52=20240215-00:48:37.779|10=102|
2024-02-15 01:48:38.940 [30] [FixSender] (DEBUG) Sending 8=FIX.4.4|9=59|35=0|49=FIXCLIENT1|56=DMA_HUB|34=2232|52=20240215-00:48:38|10=146|
2024-02-15 01:49:07.733 [29] [FixSender] (DEBUG) Receiving 8=FIX.4.4|9=63|35=0|34=2229|49=DMA_HUB|56=FIXCLIENT1|52=20240215-00:49:07.733|10=091|
2024-02-15 01:49:08.947 [30] [FixSender] (DEBUG) Sending 8=FIX.4.4|9=59|35=0|49=FIXCLIENT1|56=DMA_HUB|34=2233|52=20240215-00:49:08|10=145|
2024-02-15 01:49:37.682 [29] [FixSender] (DEBUG) Receiving 8=FIX.4.4|9=63|35=0|34=2230|49=DMA_HUB|56=FIXCLIENT1|52=20240215-00:49:37.682|10=089|
2024-02-15 01:49:38.955 [30] [FixSender] (DEBUG) Sending 8=FIX.4.4|9=59|35=0|49=FIXCLIENT1|56=DMA_HUB|34=2234|52=20240215-00:49:38|10=149|
2024-02-15 01:50:07.638 [29] [FixSender] (DEBUG) Receiving 8=FIX.4.4|9=63|35=0|34=2231|49=DMA_HUB|56=FIXCLIENT1|52=20240215-00:50:07.638|10=080|
2024-02-15 01:50:08.957 [30] [FixSender] (DEBUG) Sending 8=FIX.4.4|9=59|35=0|49=FIXCLIENT1|56=DMA_HUB|34=2235|52=20240215-00:50:08|10=139|
2024-02-15 01:50:37.594 [29] [FixSender] (DEBUG) Receiving 8=FIX.4.4|9=63|35=0|34=2232|49=DMA_HUB|56=FIXCLIENT1|52=20240215-00:50:37.594|10=085|
2024-02-15 01:50:38.974 [30] [FixSender] (DEBUG) Sending 8=FIX.4.4|9=59|35=0|49=FIXCLIENT1|56=DMA_HUB|34=2236|52=20240215-00:50:38|10=143|
2024-02-15 01:51:07.545 [29] [FixSender] (DEBUG) Receiving 8=FIX.4.4|9=63|35=0|34=2233|49=DMA_HUB|56=FIXCLIENT1|52=20240215-00:51:07.545|10=080|
2024-02-15 01:51:08.990 [30] [FixSender] (DEBUG) Sending 8=FIX.4.4|9=59|35=0|49=FIXCLIENT1|56=DMA_HUB|34=2237|52=20240215-00:51:08|10=142|
2024-02-15 01:51:37.497 [29] [FixSender] (DEBUG) Receiving 8=FIX.4.4|9=63|35=0|34=2234|49=DMA_HUB|56=FIXCLIENT1|52=20240215-00:51:37.497|10=090|
2024-02-15 01:51:39.007 [30] [FixSender] (DEBUG) Sending 8=FIX.4.4|9=59|35=0|49=FIXCLIENT1|56=DMA_HUB|34=2238|52=20240215-00:51:39|10=147|
2024-02-15 01:52:07.437 [29] [FixSender] (DEBUG) Receiving 8=FIX.4.4|9=63|35=0|34=2235|49=DMA_HUB|56=FIXCLIENT1|52=20240215-00:52:07.437|10=083|
2024-02-15 01:52:09.022 [30] [FixSender] (DEBUG) Sending 8=FIX.4.4|9=59|35=0|49=FIXCLIENT1|56=DMA_HUB|34=2239|52=20240215-00:52:09|10=146|
2024-02-15 01:52:37.404 [29] [FixSender] (DEBUG) Receiving 8=FIX.4.4|9=63|35=0|34=2236|49=DMA_HUB|56=FIXCLIENT1|52=20240215-00:52:37.404|10=081|
2024-02-15 01:52:39.037 [30] [FixSender] (DEBUG) Sending 8=FIX.4.4|9=59|35=0|49=FIXCLIENT1|56=DMA_HUB|34=2240|52=20240215-00:52:39|10=141|
2024-02-15 01:53:07.352 [29] [FixSender] (DEBUG) Receiving 8=FIX.4.4|9=63|35=0|34=2237|49=DMA_HUB|56=FIXCLIENT1|52=20240215-00:53:07.352|10=082|
2024-02-15 01:53:09.039 [30] [FixSender] (DEBUG) Sending 8=FIX.4.4|9=59|35=0|49=FIXCLIENT1|56=DMA_HUB|34=2241|52=20240215-00:53:09|10=140|
2024-02-15 01:53:37.308 [29] [FixSender] (DEBUG) Receiving 8=FIX.4.4|9=63|35=0|34=2238|49=DMA_HUB|56=FIXCLIENT1|52=20240215-00:53:37.308|10=087|
2024-02-15 01:53:39.040 [30] [FixSender] (DEBUG) Sending 8=FIX.4.4|9=59|35=0|49=FIXCLIENT1|56=DMA_HUB|34=2242|52=20240215-00:53:39|10=144|
2024-02-15 01:54:07.246 [29] [FixSender] (DEBUG) Receiving 8=FIX.4.4|9=63|35=0|34=2239|49=DMA_HUB|56=FIXCLIENT1|52=20240215-00:54:07.246|10=087|
2024-02-15 01:54:09.055 [30] [FixSender] (DEBUG) Sending 8=FIX.4.4|9=59|35=0|49=FIXCLIENT1|56=DMA_HUB|34=2243|52=20240215-00:54:09|10=143|
2024-02-15 01:54:37.199 [29] [FixSender] (DEBUG) Receiving 8=FIX.4.4|9=63|35=0|34=2240|49=DMA_HUB|56=FIXCLIENT1|52=20240215-00:54:37.199|10=089|
2024-02-15 01:54:39.071 [30] [FixSender] (DEBUG) Sending 8=FIX.4.4|9=59|35=0|49=FIXCLIENT1|56=DMA_HUB|34=2244|52=20240215-00:54:39|10=147|
2024-02-15 01:55:07.151 [29] [FixSender] (DEBUG) Receiving 8=FIX.4.4|9=63|35=0|34=2241|49=DMA_HUB|56=FIXCLIENT1|52=20240215-00:55:07.151|10=076|
2024-02-15 01:55:09.086 [30] [FixSender] (DEBUG) Sending 8=FIX.4.4|9=59|35=0|49=FIXCLIENT1|56=DMA_HUB|34=2245|52=20240215-00:55:09|10=146|
2024-02-15 01:55:37.103 [29] [FixSender] (DEBUG) Receiving 8=FIX.4.4|9=63|35=0|34=2242|49=DMA_HUB|56=FIXCLIENT1|52=20240215-00:55:37.103|10=077|
2024-02-15 01:55:39.101 [30] [FixSender] (DEBUG) Sending 8=FIX.4.4|9=59|35=0|49=FIXCLIENT1|56=DMA_HUB|34=2246|52=20240215-00:55:39|10=150|
2024-02-15 01:56:07.057 [29] [FixSender] (DEBUG) Receiving 8=FIX.4.4|9=63|35=0|34=2243|49=DMA_HUB|56=FIXCLIENT1|52=20240215-00:56:07.057|10=084|
2024-02-15 01:56:09.117 [30] [FixSender] (DEBUG) Sending 8=FIX.4.4|9=59|35=0|49=FIXCLIENT1|56=DMA_HUB|34=2247|52=20240215-00:56:09|10=149|
2024-02-15 01:56:37.007 [29] [FixSender] (DEBUG) Receiving 8=FIX.4.4|9=63|35=0|34=2244|49=DMA_HUB|56=FIXCLIENT1|52=20240215-00:56:37.007|10=083|
2024-02-15 01:56:39.133 [30] [FixSender] (DEBUG) Sending 8=FIX.4.4|9=59|35=0|49=FIXCLIENT1|56=DMA_HUB|34=2248|52=20240215-00:56:39|10=153|
2024-02-15 01:57:06.978 [29] [FixSender] (DEBUG) Receiving 8=FIX.4.4|9=63|35=0|34=2245|49=DMA_HUB|56=FIXCLIENT1|52=20240215-00:57:06.978|10=098|
2024-02-15 01:57:09.136 [30] [FixSender] (DEBUG) Sending 8=FIX.4.4|9=59|35=0|49=FIXCLIENT1|56=DMA_HUB|34=2249|52=20240215-00:57:09|10=152|
2024-02-15 01:57:36.977 [29] [FixSender] (DEBUG) Receiving 8=FIX.4.4|9=63|35=0|34=2246|49=DMA_HUB|56=FIXCLIENT1|52=20240215-00:57:36.977|10=101|
2024-02-15 01:57:39.153 [30] [FixSender] (DEBUG) Sending 8=FIX.4.4|9=59|35=0|49=FIXCLIENT1|56=DMA_HUB|34=2250|52=20240215-00:57:39|10=147|
2024-02-15 01:58:06.940 [29] [FixSender] (DEBUG) Receiving 8=FIX.4.4|9=63|35=0|34=2247|49=DMA_HUB|56=FIXCLIENT1|52=20240215-00:58:06.940|10=090|
2024-02-15 01:58:09.166 [30] [FixSender] (DEBUG) Sending 8=FIX.4.4|9=59|35=0|49=FIXCLIENT1|56=DMA_HUB|34=2251|52=20240215-00:58:09|10=146|
2024-02-15 01:58:36.878 [29] [FixSender] (DEBUG) Receiving 8=FIX.4.4|9=63|35=0|34=2248|49=DMA_HUB|56=FIXCLIENT1|52=20240215-00:58:36.878|10=104|
2024-02-15 01:58:39.168 [30] [FixSender] (DEBUG) Sending 8=FIX.4.4|9=59|35=0|49=FIXCLIENT1|56=DMA_HUB|34=2252|52=20240215-00:58:39|10=150|
2024-02-15 01:59:06.832 [29] [FixSender] (DEBUG) Receiving 8=FIX.4.4|9=63|35=0|34=2249|49=DMA_HUB|56=FIXCLIENT1|52=20240215-00:59:06.832|10=093|
2024-02-15 01:59:09.185 [30] [FixSender] (DEBUG) Sending 8=FIX.4.4|9=59|35=0|49=FIXCLIENT1|56=DMA_HUB|34=2253|52=20240215-00:59:09|10=149|
2024-02-15 01:59:36.788 [29] [FixSender] (DEBUG) Receiving 8=FIX.4.4|9=63|35=0|34=2250|49=DMA_HUB|56=FIXCLIENT1|52=20240215-00:59:36.788|10=098|
2024-02-15 01:59:39.194 [30] [FixSender] (DEBUG) Sending 8=FIX.4.4|9=59|35=0|49=FIXCLIENT1|56=DMA_HUB|34=2254|52=20240215-00:59:39|10=153|
2024-02-15 02:00:06.734 [29] [FixSender] (DEBUG) Receiving 8=FIX.4.4|9=63|35=0|34=2251|49=DMA_HUB|56=FIXCLIENT1|52=20240215-01:00:06.734|10=074|
2024-02-15 02:00:09.207 [30] [FixSender] (DEBUG) Sending 8=FIX.4.4|9=59|35=0|49=FIXCLIENT1|56=DMA_HUB|34=2255|52=20240215-01:00:09|10=138|
2024-02-15 02:00:36.701 [29] [FixSender] (DEBUG) Receiving 8=FIX.4.4|9=63|35=0|34=2252|49=DMA_HUB|56=FIXCLIENT1|52=20240215-01:00:36.701|10=072|
2024-02-15 02:00:39.224 [30] [FixSender] (DEBUG) Sending 8=FIX.4.4|9=59|35=0|49=FIXCLIENT1|56=DMA_HUB|34=2256|52=20240215-01:00:39|10=142|
2024-02-15 02:01:06.705 [29] [FixSender] (DEBUG) Receiving 8=FIX.4.4|9=63|35=0|34=2253|49=DMA_HUB|56=FIXCLIENT1|52=20240215-01:01:06.705|10=075|
2024-02-15 02:01:09.232 [30] [FixSender] (DEBUG) Sending 8=FIX.4.4|9=59|35=0|49=FIXCLIENT1|56=DMA_HUB|34=2257|52=20240215-01:01:09|10=141|
2024-02-15 02:01:36.665 [29] [FixSender] (DEBUG) Receiving 8=FIX.4.4|9=63|35=0|34=2254|49=DMA_HUB|56=FIXCLIENT1|52=20240215-01:01:36.665|10=084|
2024-02-15 02:01:39.242 [30] [FixSender] (DEBUG) Sending 8=FIX.4.4|9=59|35=0|49=FIXCLIENT1|56=DMA_HUB|34=2258|52=20240215-01:01:39|10=145|
2024-02-15 02:02:06.615 [29] [FixSender] (DEBUG) Receiving 8=FIX.4.4|9=63|35=0|34=2255|49=DMA_HUB|56=FIXCLIENT1|52=20240215-01:02:06.615|10=078|
2024-02-15 02:02:09.256 [30] [FixSender] (DEBUG) Sending 8=FIX.4.4|9=59|35=0|49=FIXCLIENT1|56=DMA_HUB|34=2259|52=20240215-01:02:09|10=144|
2024-02-15 02:02:36.572 [29] [FixSender] (DEBUG) Receiving 8=FIX.4.4|9=63|35=0|34=2256|49=DMA_HUB|56=FIXCLIENT1|52=20240215-01:02:36.572|10=084|
2024-02-15 02:02:39.268 [30] [FixSender] (DEBUG) Sending 8=FIX.4.4|9=59|35=0|49=FIXCLIENT1|56=DMA_HUB|34=2260|52=20240215-01:02:39|10=139|
2024-02-15 02:03:06.512 [29] [FixSender] (DEBUG) Receiving 8=FIX.4.4|9=63|35=0|34=2257|49=DMA_HUB|56=FIXCLIENT1|52=20240215-01:03:06.512|10=077|
2024-02-15 02:03:09.277 [30] [FixSender] (DEBUG) Sending 8=FIX.4.4|9=59|35=0|49=FIXCLIENT1|56=DMA_HUB|34=2261|52=20240215-01:03:09|10=138|
2024-02-15 02:03:36.472 [29] [FixSender] (DEBUG) Receiving 8=FIX.4.4|9=63|35=0|34=2258|49=DMA_HUB|56=FIXCLIENT1|52=20240215-01:03:36.472|10=086|
2024-02-15 02:03:39.284 [30] [FixSender] (DEBUG) Sending 8=FIX.4.4|9=59|35=0|49=FIXCLIENT1|56=DMA_HUB|34=2262|52=20240215-01:03:39|10=142|
2024-02-15 02:04:06.420 [29] [FixSender] (DEBUG) Receiving 8=FIX.4.4|9=63|35=0|34=2259|49=DMA_HUB|56=FIXCLIENT1|52=20240215-01:04:06.420|10=078|
2024-02-15 02:04:09.297 [30] [FixSender] (DEBUG) Sending 8=FIX.4.4|9=59|35=0|49=FIXCLIENT1|56=DMA_HUB|34=2263|52=20240215-01:04:09|10=141|
2024-02-15 02:04:36.377 [29] [FixSender] (DEBUG) Receiving 8=FIX.4.4|9=63|35=0|34=2260|49=DMA_HUB|56=FIXCLIENT1|52=20240215-01:04:36.377|10=084|
2024-02-15 02:04:39.299 [30] [FixSender] (DEBUG) Sending 8=FIX.4.4|9=59|35=0|49=FIXCLIENT1|56=DMA_HUB|34=2264|52=20240215-01:04:39|10=145|
2024-02-15 02:05:06.328 [29] [FixSender] (DEBUG) Receiving 8=FIX.4.4|9=63|35=0|34=2261|49=DMA_HUB|56=FIXCLIENT1|52=20240215-01:05:06.328|10=079|
2024-02-15 02:05:09.313 [30] [FixSender] (DEBUG) Sending 8=FIX.4.4|9=59|35=0|49=FIXCLIENT1|56=DMA_HUB|34=2265|52=20240215-01:05:09|10=144|
2024-02-15 02:05:36.282 [29] [FixSender] (DEBUG) Receiving 8=FIX.4.4|9=63|35=0|34=2262|49=DMA_HUB|56=FIXCLIENT1|52=20240215-01:05:36.282|10=082|
2024-02-15 02:05:39.318 [30] [FixSender] (DEBUG) Sending 8=FIX.4.4|9=59|35=0|49=FIXCLIENT1|56=DMA_HUB|34=2266|52=20240215-01:05:39|10=148|
2024-02-15 02:06:06.222 [29] [FixSender] (DEBUG) Receiving 8=FIX.4.4|9=63|35=0|34=2263|49=DMA_HUB|56=FIXCLIENT1|52=20240215-01:06:06.222|10=075|
2024-02-15 02:06:09.334 [30] [FixSender] (DEBUG) Sending 8=FIX.4.4|9=59|35=0|49=FIXCLIENT1|56=DMA_HUB|34=2267|52=20240215-01:06:09|10=147|
2024-02-15 02:06:36.179 [29] [FixSender] (DEBUG) Receiving 8=FIX.4.4|9=63|35=0|34=2264|49=DMA_HUB|56=FIXCLIENT1|52=20240215-01:06:36.179|10=090|
2024-02-15 02:06:39.341 [30] [FixSender] (DEBUG) Sending 8=FIX.4.4|9=59|35=0|49=FIXCLIENT1|56=DMA_HUB|34=2268|52=20240215-01:06:39|10=151|
2024-02-15 02:07:06.139 [29] [FixSender] (DEBUG) Receiving 8=FIX.4.4|9=63|35=0|34=2265|49=DMA_HUB|56=FIXCLIENT1|52=20240215-01:07:06.139|10=085|
2024-02-15 02:07:09.346 [30] [FixSender] (DEBUG) Sending 8=FIX.4.4|9=59|35=0|49=FIXCLIENT1|56=DMA_HUB|34=2269|52=20240215-01:07:09|10=150|
2024-02-15 02:07:36.090 [29] [FixSender] (DEBUG) Receiving 8=FIX.4.4|9=63|35=0|34=2266|49=DMA_HUB|56=FIXCLIENT1|52=20240215-01:07:36.090|10=085|
2024-02-15 02:07:39.360 [30] [FixSender] (DEBUG) Sending 8=FIX.4.4|9=59|35=0|49=FIXCLIENT1|56=DMA_HUB|34=2270|52=20240215-01:07:39|10=145|
2024-02-15 02:08:06.030 [29] [FixSender] (DEBUG) Receiving 8=FIX.4.4|9=63|35=0|34=2267|49=DMA_HUB|56=FIXCLIENT1|52=20240215-01:08:06.030|10=078|
2024-02-15 02:08:09.367 [30] [FixSender] (DEBUG) Sending 8=FIX.4.4|9=59|35=0|49=FIXCLIENT1|56=DMA_HUB|34=2271|52=20240215-01:08:09|10=144|
2024-02-15 02:08:35.995 [29] [FixSender] (DEBUG) Receiving 8=FIX.4.4|9=63|35=0|34=2268|49=DMA_HUB|56=FIXCLIENT1|52=20240215-01:08:35.995|10=101|
2024-02-15 02:08:39.378 [30] [FixSender] (DEBUG) Sending 8=FIX.4.4|9=59|35=0|49=FIXCLIENT1|56=DMA_HUB|34=2272|52=20240215-01:08:39|10=148|
2024-02-15 02:09:05.942 [29] [FixSender] (DEBUG) Receiving 8=FIX.4.4|9=63|35=0|34=2269|49=DMA_HUB|56=FIXCLIENT1|52=20240215-01:09:05.942|10=092|
2024-02-15 02:09:09.380 [30] [FixSender] (DEBUG) Sending 8=FIX.4.4|9=59|35=0|49=FIXCLIENT1|56=DMA_HUB|34=2273|52=20240215-01:09:09|10=147|
2024-02-15 02:09:35.901 [29] [FixSender] (DEBUG) Receiving 8=FIX.4.4|9=63|35=0|34=2270|49=DMA_HUB|56=FIXCLIENT1|52=20240215-01:09:35.901|10=082|
2024-02-15 02:09:39.385 [30] [FixSender] (DEBUG) Sending 8=FIX.4.4|9=59|35=0|49=FIXCLIENT1|56=DMA_HUB|34=2274|52=20240215-01:09:39|10=151|
2024-02-15 02:10:05.910 [29] [FixSender] (DEBUG) Receiving 8=FIX.4.4|9=63|35=0|34=2271|49=DMA_HUB|56=FIXCLIENT1|52=20240215-01:10:05.910|10=072|
2024-02-15 02:10:09.402 [30] [FixSender] (DEBUG) Sending 8=FIX.4.4|9=59|35=0|49=FIXCLIENT1|56=DMA_HUB|34=2275|52=20240215-01:10:09|10=141|
2024-02-15 02:10:35.865 [29] [FixSender] (DEBUG) Receiving 8=FIX.4.4|9=63|35=0|34=2272|49=DMA_HUB|56=FIXCLIENT1|52=20240215-01:10:35.865|10=085|
2024-02-15 02:10:39.403 [30] [FixSender] (DEBUG) Sending 8=FIX.4.4|9=59|35=0|49=FIXCLIENT1|56=DMA_HUB|34=2276|52=20240215-01:10:39|10=145|
2024-02-15 02:11:05.820 [29] [FixSender] (DEBUG) Receiving 8=FIX.4.4|9=63|35=0|34=2273|49=DMA_HUB|56=FIXCLIENT1|52=20240215-01:11:05.820|10=075|
2024-02-15 02:11:09.411 [30] [FixSender] (DEBUG) Sending 8=FIX.4.4|9=59|35=0|49=FIXCLIENT1|56=DMA_HUB|34=2277|52=20240215-01:11:09|10=144|
2024-02-15 02:11:35.761 [29] [FixSender] (DEBUG) Receiving 8=FIX.4.4|9=63|35=0|34=2274|49=DMA_HUB|56=FIXCLIENT1|52=20240215-01:11:35.761|10=083|
2024-02-15 02:11:39.423 [30] [FixSender] (DEBUG) Sending 8=FIX.4.4|9=59|35=0|49=FIXCLIENT1|56=DMA_HUB|34=2278|52=20240215-01:11:39|10=148|
2024-02-15 02:12:05.710 [29] [FixSender] (DEBUG) Receiving 8=FIX.4.4|9=63|35=0|34=2275|49=DMA_HUB|56=FIXCLIENT1|52=20240215-01:12:05.710|10=076|
2024-02-15 02:12:09.431 [30] [FixSender] (DEBUG) Sending 8=FIX.4.4|9=59|35=0|49=FIXCLIENT1|56=DMA_HUB|34=2279|52=20240215-01:12:09|10=147|
2024-02-15 02:12:35.670 [29] [FixSender] (DEBUG) Receiving 8=FIX.4.4|9=63|35=0|34=2276|49=DMA_HUB|56=FIXCLIENT1|52=20240215-01:12:35.670|10=085|
2024-02-15 02:12:39.447 [30] [FixSender] (DEBUG) Sending 8=FIX.4.4|9=59|35=0|49=FIXCLIENT1|56=DMA_HUB|34=2280|52=20240215-01:12:39|10=142|
2024-02-15 02:13:05.616 [29] [FixSender] (DEBUG) Receiving 8=FIX.4.4|9=63|35=0|34=2277|49=DMA_HUB|56=FIXCLIENT1|52=20240215-01:13:05.616|10=084|
2024-02-15 02:13:09.460 [30] [FixSender] (DEBUG) Sending 8=FIX.4.4|9=59|35=0|49=FIXCLIENT1|56=DMA_HUB|34=2281|52=20240215-01:13:09|10=141|
2024-02-15 02:13:35.568 [29] [FixSender] (DEBUG) Receiving 8=FIX.4.4|9=63|35=0|34=2278|49=DMA_HUB|56=FIXCLIENT1|52=20240215-01:13:35.568|10=094|
2024-02-15 02:13:39.471 [30] [FixSender] (DEBUG) Sending 8=FIX.4.4|9=59|35=0|49=FIXCLIENT1|56=DMA_HUB|34=2282|52=20240215-01:13:39|10=145|
2024-02-15 02:14:05.521 [29] [FixSender] (DEBUG) Receiving 8=FIX.4.4|9=63|35=0|34=2279|49=DMA_HUB|56=FIXCLIENT1|52=20240215-01:14:05.521|10=082|
2024-02-15 02:14:09.488 [30] [FixSender] (DEBUG) Sending 8=FIX.4.4|9=59|35=0|49=FIXCLIENT1|56=DMA_HUB|34=2283|52=20240215-01:14:09|10=144|
2024-02-15 02:14:35.475 [29] [FixSender] (DEBUG) Receiving 8=FIX.4.4|9=63|35=0|34=2280|49=DMA_HUB|56=FIXCLIENT1|52=20240215-01:14:35.475|10=085|
2024-02-15 02:14:39.489 [30] [FixSender] (DEBUG) Sending 8=FIX.4.4|9=59|35=0|49=FIXCLIENT1|56=DMA_HUB|34=2284|52=20240215-01:14:39|10=148|
2024-02-15 02:15:05.432 [29] [FixSender] (DEBUG) Receiving 8=FIX.4.4|9=63|35=0|34=2281|49=DMA_HUB|56=FIXCLIENT1|52=20240215-01:15:05.432|10=077|
2024-02-15 02:15:09.503 [30] [FixSender] (DEBUG) Sending 8=FIX.4.4|9=59|35=0|49=FIXCLIENT1|56=DMA_HUB|34=2285|52=20240215-01:15:09|10=147|
2024-02-15 02:15:35.381 [29] [FixSender] (DEBUG) Receiving 8=FIX.4.4|9=63|35=0|34=2282|49=DMA_HUB|56=FIXCLIENT1|52=20240215-01:15:35.381|10=084|
2024-02-15 02:15:39.508 [30] [FixSender] (DEBUG) Sending 8=FIX.4.4|9=59|35=0|49=FIXCLIENT1|56=DMA_HUB|34=2286|52=20240215-01:15:39|10=151|
2024-02-15 02:16:05.332 [29] [FixSender] (DEBUG) Receiving 8=FIX.4.4|9=63|35=0|34=2283|49=DMA_HUB|56=FIXCLIENT1|52=20240215-01:16:05.332|10=079|
2024-02-15 02:16:09.522 [30] [FixSender] (DEBUG) Sending 8=FIX.4.4|9=59|35=0|49=FIXCLIENT1|56=DMA_HUB|34=2287|52=20240215-01:16:09|10=150|
2024-02-15 02:16:35.284 [29] [FixSender] (DEBUG) Receiving 8=FIX.4.4|9=63|35=0|34=2284|49=DMA_HUB|56=FIXCLIENT1|52=20240215-01:16:35.284|10=089|
2024-02-15 02:16:39.536 [30] [FixSender] (DEBUG) Sending 8=FIX.4.4|9=59|35=0|49=FIXCLIENT1|56=DMA_HUB|34=2288|52=20240215-01:16:39|10=154|
2024-02-15 02:17:05.241 [29] [FixSender] (DEBUG) Receiving 8=FIX.4.4|9=63|35=0|34=2285|49=DMA_HUB|56=FIXCLIENT1|52=20240215-01:17:05.241|10=081|
2024-02-15 02:17:09.540 [30] [FixSender] (DEBUG) Sending 8=FIX.4.4|9=59|35=0|49=FIXCLIENT1|56=DMA_HUB|34=2289|52=20240215-01:17:09|10=153|
2024-02-15 02:17:35.188 [29] [FixSender] (DEBUG) Receiving 8=FIX.4.4|9=63|35=0|34=2286|49=DMA_HUB|56=FIXCLIENT1|52=20240215-01:17:35.188|10=095|
2024-02-15 02:17:39.544 [30] [FixSender] (DEBUG) Sending 8=FIX.4.4|9=59|35=0|49=FIXCLIENT1|56=DMA_HUB|34=2290|52=20240215-01:17:39|10=148|
2024-02-15 02:18:05.144 [29] [FixSender] (DEBUG) Receiving 8=FIX.4.4|9=63|35=0|34=2287|49=DMA_HUB|56=FIXCLIENT1|52=20240215-01:18:05.144|10=086|
2024-02-15 02:18:09.552 [30] [FixSender] (DEBUG) Sending 8=FIX.4.4|9=59|35=0|49=FIXCLIENT1|56=DMA_HUB|34=2291|52=20240215-01:18:09|10=147|
2024-02-15 02:18:35.096 [29] [FixSender] (DEBUG) Receiving 8=FIX.4.4|9=63|35=0|34=2288|49=DMA_HUB|56=FIXCLIENT1|52=20240215-01:18:35.096|10=096|
2024-02-15 02:18:39.561 [30] [FixSender] (DEBUG) Sending 8=FIX.4.4|9=59|35=0|49=FIXCLIENT1|56=DMA_HUB|34=2292|52=20240215-01:18:39|10=151|
2024-02-15 02:19:05.039 [29] [FixSender] (DEBUG) Receiving 8=FIX.4.4|9=63|35=0|34=2289|49=DMA_HUB|56=FIXCLIENT1|52=20240215-01:19:05.039|10=092|
2024-02-15 02:19:09.565 [30] [FixSender] (DEBUG) Sending 8=FIX.4.4|9=59|35=0|49=FIXCLIENT1|56=DMA_HUB|34=2293|52=20240215-01:19:09|10=150|
2024-02-15 02:19:34.989 [29] [FixSender] (DEBUG) Receiving 8=FIX.4.4|9=63|35=0|34=2290|49=DMA_HUB|56=FIXCLIENT1|52=20240215-01:19:34.989|10=100|
2024-02-15 02:19:39.568 [30] [FixSender] (DEBUG) Sending 8=FIX.4.4|9=59|35=0|49=FIXCLIENT1|56=DMA_HUB|34=2294|52=20240215-01:19:39|10=154|
2024-02-15 02:20:04.953 [29] [FixSender] (DEBUG) Receiving 8=FIX.4.4|9=63|35=0|34=2291|49=DMA_HUB|56=FIXCLIENT1|52=20240215-01:20:04.953|10=081|
2024-02-15 02:20:09.579 [30] [FixSender] (DEBUG) Sending 8=FIX.4.4|9=59|35=0|49=FIXCLIENT1|56=DMA_HUB|34=2295|52=20240215-01:20:09|10=144|
2024-02-15 02:20:34.898 [29] [FixSender] (DEBUG) Receiving 8=FIX.4.4|9=63|35=0|34=2292|49=DMA_HUB|56=FIXCLIENT1|52=20240215-01:20:34.898|10=093|
2024-02-15 02:20:39.594 [30] [FixSender] (DEBUG) Sending 8=FIX.4.4|9=59|35=0|49=FIXCLIENT1|56=DMA_HUB|34=2296|52=20240215-01:20:39|10=148|
2024-02-15 02:21:04.851 [29] [FixSender] (DEBUG) Receiving 8=FIX.4.4|9=63|35=0|34=2293|49=DMA_HUB|56=FIXCLIENT1|52=20240215-01:21:04.851|10=081|
2024-02-15 02:21:09.597 [30] [FixSender] (DEBUG) Sending 8=FIX.4.4|9=59|35=0|49=FIXCLIENT1|56=DMA_HUB|34=2297|52=20240215-01:21:09|10=147|
2024-02-15 02:21:34.810 [29] [FixSender] (DEBUG) Receiving 8=FIX.4.4|9=63|35=0|34=2294|49=DMA_HUB|56=FIXCLIENT1|52=20240215-01:21:34.810|10=080|
2024-02-15 02:21:39.614 [30] [FixSender] (DEBUG) Sending 8=FIX.4.4|9=59|35=0|49=FIXCLIENT1|56=DMA_HUB|34=2298|52=20240215-01:21:39|10=151|
2024-02-15 02:22:04.753 [29] [FixSender] (DEBUG) Receiving 8=FIX.4.4|9=63|35=0|34=2295|49=DMA_HUB|56=FIXCLIENT1|52=20240215-01:22:04.753|10=085|
2024-02-15 02:22:09.624 [30] [FixSender] (DEBUG) Sending 8=FIX.4.4|9=59|35=0|49=FIXCLIENT1|56=DMA_HUB|34=2299|52=20240215-01:22:09|10=150|
2024-02-15 02:22:34.717 [29] [FixSender] (DEBUG) Receiving 8=FIX.4.4|9=63|35=0|34=2296|49=DMA_HUB|56=FIXCLIENT1|52=20240215-01:22:34.717|10=089|
2024-02-15 02:22:39.633 [30] [FixSender] (DEBUG) Sending 8=FIX.4.4|9=59|35=0|49=FIXCLIENT1|56=DMA_HUB|34=2300|52=20240215-01:22:39|10=136|
2024-02-15 02:23:04.720 [29] [FixSender] (DEBUG) Receiving 8=FIX.4.4|9=63|35=0|34=2297|49=DMA_HUB|56=FIXCLIENT1|52=20240215-01:23:04.720|10=082|
2024-02-15 02:23:09.642 [30] [FixSender] (DEBUG) Sending 8=FIX.4.4|9=59|35=0|49=FIXCLIENT1|56=DMA_HUB|34=2301|52=20240215-01:23:09|10=135|
2024-02-15 02:23:34.680 [29] [FixSender] (DEBUG) Receiving 8=FIX.4.4|9=63|35=0|34=2298|49=DMA_HUB|56=FIXCLIENT1|52=20240215-01:23:34.680|10=091|
2024-02-15 02:23:39.654 [30] [FixSender] (DEBUG) Sending 8=FIX.4.4|9=59|35=0|49=FIXCLIENT1|56=DMA_HUB|34=2302|52=20240215-01:23:39|10=139|
2024-02-15 02:24:04.631 [29] [FixSender] (DEBUG) Receiving 8=FIX.4.4|9=63|35=0|34=2299|49=DMA_HUB|56=FIXCLIENT1|52=20240215-01:24:04.631|10=086|
2024-02-15 02:24:09.658 [30] [FixSender] (DEBUG) Sending 8=FIX.4.4|9=59|35=0|49=FIXCLIENT1|56=DMA_HUB|34=2303|52=20240215-01:24:09|10=138|
2024-02-15 02:24:34.578 [29] [FixSender] (DEBUG) Receiving 8=FIX.4.4|9=63|35=0|34=2300|49=DMA_HUB|56=FIXCLIENT1|52=20240215-01:24:34.578|10=082|
2024-02-15 02:24:39.665 [30] [FixSender] (DEBUG) Sending 8=FIX.4.4|9=59|35=0|49=FIXCLIENT1|56=DMA_HUB|34=2304|52=20240215-01:24:39|10=142|
2024-02-15 02:25:04.536 [29] [FixSender] (DEBUG) Receiving 8=FIX.4.4|9=63|35=0|34=2301|49=DMA_HUB|56=FIXCLIENT1|52=20240215-01:25:04.536|10=075|
2024-02-15 02:25:09.678 [30] [FixSender] (DEBUG) Sending 8=FIX.4.4|9=59|35=0|49=FIXCLIENT1|56=DMA_HUB|34=2305|52=20240215-01:25:09|10=141|
2024-02-15 02:25:34.485 [29] [FixSender] (DEBUG) Receiving 8=FIX.4.4|9=63|35=0|34=2302|49=DMA_HUB|56=FIXCLIENT1|52=20240215-01:25:34.485|10=082|
2024-02-15 02:25:39.687 [30] [FixSender] (DEBUG) Sending 8=FIX.4.4|9=59|35=0|49=FIXCLIENT1|56=DMA_HUB|34=2306|52=20240215-01:25:39|10=145|
2024-02-15 02:26:04.442 [29] [FixSender] (DEBUG) Receiving 8=FIX.4.4|9=63|35=0|34=2303|49=DMA_HUB|56=FIXCLIENT1|52=20240215-01:26:04.442|10=074|
2024-02-15 02:26:09.691 [30] [FixSender] (DEBUG) Sending 8=FIX.4.4|9=59|35=0|49=FIXCLIENT1|56=DMA_HUB|34=2307|52=20240215-01:26:09|10=144|
2024-02-15 02:26:34.394 [29] [FixSender] (DEBUG) Receiving 8=FIX.4.4|9=63|35=0|34=2304|49=DMA_HUB|56=FIXCLIENT1|52=20240215-01:26:34.394|10=084|
2024-02-15 02:26:39.697 [30] [FixSender] (DEBUG) Sending 8=FIX.4.4|9=59|35=0|49=FIXCLIENT1|56=DMA_HUB|34=2308|52=20240215-01:26:39|10=148|
2024-02-15 02:27:04.338 [29] [FixSender] (DEBUG) Receiving 8=FIX.4.4|9=63|35=0|34=2305|49=DMA_HUB|56=FIXCLIENT1|52=20240215-01:27:04.338|10=081|
2024-02-15 02:27:09.702 [30] [FixSender] (DEBUG) Sending 8=FIX.4.4|9=59|35=0|49=FIXCLIENT1|56=DMA_HUB|34=2309|52=20240215-01:27:09|10=147|
2024-02-15 02:27:34.299 [29] [FixSender] (DEBUG) Receiving 8=FIX.4.4|9=63|35=0|34=2306|49=DMA_HUB|56=FIXCLIENT1|52=20240215-01:27:34.299|10=091|
2024-02-15 02:27:39.717 [30] [FixSender] (DEBUG) Sending 8=FIX.4.4|9=59|35=0|49=FIXCLIENT1|56=DMA_HUB|34=2310|52=20240215-01:27:39|10=142|
2024-02-15 02:28:04.242 [29] [FixSender] (DEBUG) Receiving 8=FIX.4.4|9=63|35=0|34=2307|49=DMA_HUB|56=FIXCLIENT1|52=20240215-01:28:04.242|10=078|
2024-02-15 02:28:09.730 [30] [FixSender] (DEBUG) Sending 8=FIX.4.4|9=59|35=0|49=FIXCLIENT1|56=DMA_HUB|34=2311|52=20240215-01:28:09|10=141|
2024-02-15 02:28:34.193 [29] [FixSender] (DEBUG) Receiving 8=FIX.4.4|9=63|35=0|34=2308|49=DMA_HUB|56=FIXCLIENT1|52=20240215-01:28:34.193|10=087|
2024-02-15 02:28:39.734 [30] [FixSender] (DEBUG) Sending 8=FIX.4.4|9=59|35=0|49=FIXCLIENT1|56=DMA_HUB|34=2312|52=20240215-01:28:39|10=145|
2024-02-15 02:29:04.149 [29] [FixSender] (DEBUG) Receiving 8=FIX.4.4|9=63|35=0|34=2309|49=DMA_HUB|56=FIXCLIENT1|52=20240215-01:29:04.149|10=087|
2024-02-15 02:29:09.743 [30] [FixSender] (DEBUG) Sending 8=FIX.4.4|9=59|35=0|49=FIXCLIENT1|56=DMA_HUB|34=2313|52=20240215-01:29:09|10=144|
2024-02-15 02:29:34.097 [29] [FixSender] (DEBUG) Receiving 8=FIX.4.4|9=63|35=0|34=2310|49=DMA_HUB|56=FIXCLIENT1|52=20240215-01:29:34.097|10=084|
2024-02-15 02:29:39.744 [30] [FixSender] (DEBUG) Sending 8=FIX.4.4|9=59|35=0|49=FIXCLIENT1|56=DMA_HUB|34=2314|52=20240215-01:29:39|10=148|
2024-02-15 02:30:04.060 [29] [FixSender] (DEBUG) Receiving 8=FIX.4.4|9=63|35=0|34=2311|49=DMA_HUB|56=FIXCLIENT1|52=20240215-01:30:04.060|10=064|
2024-02-15 02:30:09.752 [30] [FixSender] (DEBUG) Sending 8=FIX.4.4|9=59|35=0|49=FIXCLIENT1|56=DMA_HUB|34=2315|52=20240215-01:30:09|10=138|
2024-02-15 02:30:34.008 [29] [FixSender] (DEBUG) Receiving 8=FIX.4.4|9=63|35=0|34=2312|49=DMA_HUB|56=FIXCLIENT1|52=20240215-01:30:34.008|10=070|
2024-02-15 02:30:39.754 [30] [FixSender] (DEBUG) Sending 8=FIX.4.4|9=59|35=0|49=FIXCLIENT1|56=DMA_HUB|34=2316|52=20240215-01:30:39|10=142|
2024-02-15 02:31:03.963 [29] [FixSender] (DEBUG) Receiving 8=FIX.4.4|9=63|35=0|34=2313|49=DMA_HUB|56=FIXCLIENT1|52=20240215-01:31:03.963|10=078|
2024-02-15 02:31:09.765 [30] [FixSender] (DEBUG) Sending 8=FIX.4.4|9=59|35=0|49=FIXCLIENT1|56=DMA_HUB|34=2317|52=20240215-01:31:09|10=141|
2024-02-15 02:31:33.911 [29] [FixSender] (DEBUG) Receiving 8=FIX.4.4|9=63|35=0|34=2314|49=DMA_HUB|56=FIXCLIENT1|52=20240215-01:31:33.911|10=075|
2024-02-15 02:31:39.773 [30] [FixSender] (DEBUG) Sending 8=FIX.4.4|9=59|35=0|49=FIXCLIENT1|56=DMA_HUB|34=2318|52=20240215-01:31:39|10=145|
2024-02-15 02:32:03.867 [29] [FixSender] (DEBUG) Receiving 8=FIX.4.4|9=63|35=0|34=2315|49=DMA_HUB|56=FIXCLIENT1|52=20240215-01:32:03.867|10=084|
2024-02-15 02:32:09.783 [30] [FixSender] (DEBUG) Sending 8=FIX.4.4|9=59|35=0|49=FIXCLIENT1|56=DMA_HUB|34=2319|52=20240215-01:32:09|10=144|
2024-02-15 02:32:33.813 [29] [FixSender] (DEBUG) Receiving 8=FIX.4.4|9=63|35=0|34=2316|49=DMA_HUB|56=FIXCLIENT1|52=20240215-01:32:33.813|10=079|
2024-02-15 02:32:39.791 [30] [FixSender] (DEBUG) Sending 8=FIX.4.4|9=59|35=0|49=FIXCLIENT1|56=DMA_HUB|34=2320|52=20240215-01:32:39|10=139|
2024-02-15 02:33:03.759 [29] [FixSender] (DEBUG) Receiving 8=FIX.4.4|9=63|35=0|34=2317|49=DMA_HUB|56=FIXCLIENT1|52=20240215-01:33:03.759|10=087|
2024-02-15 02:33:09.796 [30] [FixSender] (DEBUG) Sending 8=FIX.4.4|9=59|35=0|49=FIXCLIENT1|56=DMA_HUB|34=2321|52=20240215-01:33:09|10=138|
2024-02-15 02:33:33.716 [29] [FixSender] (DEBUG) Receiving 8=FIX.4.4|9=63|35=0|34=2318|49=DMA_HUB|56=FIXCLIENT1|52=20240215-01:33:33.716|10=084|
2024-02-15 02:33:39.806 [30] [FixSender] (DEBUG) Sending 8=FIX.4.4|9=59|35=0|49=FIXCLIENT1|56=DMA_HUB|34=2322|52=20240215-01:33:39|10=142|
2024-02-15 02:34:03.675 [29] [FixSender] (DEBUG) Receiving 8=FIX.4.4|9=63|35=0|34=2319|49=DMA_HUB|56=FIXCLIENT1|52=20240215-01:34:03.675|10=087|
2024-02-15 02:34:09.822 [30] [FixSender] (DEBUG) Sending 8=FIX.4.4|9=59|35=0|49=FIXCLIENT1|56=DMA_HUB|34=2323|52=20240215-01:34:09|10=141|
2024-02-15 02:34:33.619 [29] [FixSender] (DEBUG) Receiving 8=FIX.4.4|9=63|35=0|34=2320|49=DMA_HUB|56=FIXCLIENT1|52=20240215-01:34:33.619|10=080|
2024-02-15 02:34:39.833 [30] [FixSender] (DEBUG) Sending 8=FIX.4.4|9=59|35=0|49=FIXCLIENT1|56=DMA_HUB|34=2324|52=20240215-01:34:39|10=145|
2024-02-15 02:35:03.578 [29] [FixSender] (DEBUG) Receiving 8=FIX.4.4|9=63|35=0|34=2321|49=DMA_HUB|56=FIXCLIENT1|52=20240215-01:35:03.578|10=083|
2024-02-15 02:35:09.842 [30] [FixSender] (DEBUG) Sending 8=FIX.4.4|9=59|35=0|49=FIXCLIENT1|56=DMA_HUB|34=2325|52=20240215-01:35:09|10=144|
2024-02-15 02:35:33.522 [29] [FixSender] (DEBUG) Receiving 8=FIX.4.4|9=63|35=0|34=2322|49=DMA_HUB|56=FIXCLIENT1|52=20240215-01:35:33.522|10=076|
2024-02-15 02:35:39.845 [30] [FixSender] (DEBUG) Sending 8=FIX.4.4|9=59|35=0|49=FIXCLIENT1|56=DMA_HUB|34=2326|52=20240215-01:35:39|10=148|
2024-02-15 02:36:03.472 [29] [FixSender] (DEBUG) Receiving 8=FIX.4.4|9=63|35=0|34=2323|49=DMA_HUB|56=FIXCLIENT1|52=20240215-01:36:03.472|10=079|
2024-02-15 02:36:09.854 [30] [FixSender] (DEBUG) Sending 8=FIX.4.4|9=59|35=0|49=FIXCLIENT1|56=DMA_HUB|34=2327|52=20240215-01:36:09|10=147|
2024-02-15 02:36:33.431 [29] [FixSender] (DEBUG) Receiving 8=FIX.4.4|9=63|35=0|34=2324|49=DMA_HUB|56=FIXCLIENT1|52=20240215-01:36:33.431|10=078|
2024-02-15 02:36:39.871 [30] [FixSender] (DEBUG) Sending 8=FIX.4.4|9=59|35=0|49=FIXCLIENT1|56=DMA_HUB|34=2328|52=20240215-01:36:39|10=151|
2024-02-15 02:37:03.385 [29] [FixSender] (DEBUG) Receiving 8=FIX.4.4|9=63|35=0|34=2325|49=DMA_HUB|56=FIXCLIENT1|52=20240215-01:37:03.385|10=085|
2024-02-15 02:37:09.879 [30] [FixSender] (DEBUG) Sending 8=FIX.4.4|9=59|35=0|49=FIXCLIENT1|56=DMA_HUB|34=2329|52=20240215-01:37:09|10=150|
2024-02-15 02:37:33.335 [29] [FixSender] (DEBUG) Receiving 8=FIX.4.4|9=63|35=0|34=2326|49=DMA_HUB|56=FIXCLIENT1|52=20240215-01:37:33.335|10=084|
2024-02-15 02:37:39.891 [30] [FixSender] (DEBUG) Sending 8=FIX.4.4|9=59|35=0|49=FIXCLIENT1|56=DMA_HUB|34=2330|52=20240215-01:37:39|10=145|
2024-02-15 02:38:03.277 [29] [FixSender] (DEBUG) Receiving 8=FIX.4.4|9=63|35=0|34=2327|49=DMA_HUB|56=FIXCLIENT1|52=20240215-01:38:03.277|10=088|
2024-02-15 02:38:09.907 [30] [FixSender] (DEBUG) Sending 8=FIX.4.4|9=59|35=0|49=FIXCLIENT1|56=DMA_HUB|34=2331|52=20240215-01:38:09|10=144|
2024-02-15 02:38:33.233 [29] [FixSender] (DEBUG) Receiving 8=FIX.4.4|9=63|35=0|34=2328|49=DMA_HUB|56=FIXCLIENT1|52=20240215-01:38:33.233|10=084|
2024-02-15 02:38:39.915 [30] [FixSender] (DEBUG) Sending 8=FIX.4.4|9=59|35=0|49=FIXCLIENT1|56=DMA_HUB|34=2332|52=20240215-01:38:39|10=148|
2024-02-15 02:39:03.181 [29] [FixSender] (DEBUG) Receiving 8=FIX.4.4|9=63|35=0|34=2329|49=DMA_HUB|56=FIXCLIENT1|52=20240215-01:39:03.181|10=085|
2024-02-15 02:39:09.918 [30] [FixSender] (DEBUG) Sending 8=FIX.4.4|9=59|35=0|49=FIXCLIENT1|56=DMA_HUB|34=2333|52=20240215-01:39:09|10=147|
2024-02-15 02:39:33.134 [29] [FixSender] (DEBUG) Receiving 8=FIX.4.4|9=63|35=0|34=2330|49=DMA_HUB|56=FIXCLIENT1|52=20240215-01:39:33.134|10=078|
2024-02-15 02:39:39.930 [30] [FixSender] (DEBUG) Sending 8=FIX.4.4|9=59|35=0|49=FIXCLIENT1|56=DMA_HUB|34=2334|52=20240215-01:39:39|10=151|
2024-02-15 02:40:03.090 [29] [FixSender] (DEBUG) Receiving 8=FIX.4.4|9=63|35=0|34=2331|49=DMA_HUB|56=FIXCLIENT1|52=20240215-01:40:03.090|10=069|
2024-02-15 02:40:09.935 [30] [FixSender] (DEBUG) Sending 8=FIX.4.4|9=59|35=0|49=FIXCLIENT1|56=DMA_HUB|34=2335|52=20240215-01:40:09|10=141|
2024-02-15 02:40:33.052 [29] [FixSender] (DEBUG) Receiving 8=FIX.4.4|9=63|35=0|34=2332|49=DMA_HUB|56=FIXCLIENT1|52=20240215-01:40:33.052|10=071|
2024-02-15 02:40:39.951 [30] [FixSender] (DEBUG) Sending 8=FIX.4.4|9=59|35=0|49=FIXCLIENT1|56=DMA_HUB|34=2336|52=20240215-01:40:39|10=145|
2024-02-15 02:41:03.000 [29] [FixSender] (DEBUG) Receiving 8=FIX.4.4|9=63|35=0|34=2333|49=DMA_HUB|56=FIXCLIENT1|52=20240215-01:41:03.000|10=063|
2024-02-15 02:41:09.955 [30] [FixSender] (DEBUG) Sending 8=FIX.4.4|9=59|35=0|49=FIXCLIENT1|56=DMA_HUB|34=2337|52=20240215-01:41:09|10=144|
2024-02-15 02:41:32.945 [29] [FixSender] (DEBUG) Receiving 8=FIX.4.4|9=63|35=0|34=2334|49=DMA_HUB|56=FIXCLIENT1|52=20240215-01:41:32.945|10=084|
2024-02-15 02:41:39.959 [30] [FixSender] (DEBUG) Sending 8=FIX.4.4|9=59|35=0|49=FIXCLIENT1|56=DMA_HUB|34=2338|52=20240215-01:41:39|10=148|
2024-02-15 02:42:02.894 [29] [FixSender] (DEBUG) Receiving 8=FIX.4.4|9=63|35=0|34=2335|49=DMA_HUB|56=FIXCLIENT1|52=20240215-01:42:02.894|10=086|
2024-02-15 02:42:09.976 [30] [FixSender] (DEBUG) Sending 8=FIX.4.4|9=59|35=0|49=FIXCLIENT1|56=DMA_HUB|34=2339|52=20240215-01:42:09|10=147|
2024-02-15 02:42:32.852 [29] [FixSender] (DEBUG) Receiving 8=FIX.4.4|9=63|35=0|34=2336|49=DMA_HUB|56=FIXCLIENT1|52=20240215-01:42:32.852|10=084|
2024-02-15 02:42:39.979 [30] [FixSender] (DEBUG) Sending 8=FIX.4.4|9=59|35=0|49=FIXCLIENT1|56=DMA_HUB|34=2340|52=20240215-01:42:39|10=142|
2024-02-15 02:43:02.807 [29] [FixSender] (DEBUG) Receiving 8=FIX.4.4|9=63|35=0|34=2337|49=DMA_HUB|56=FIXCLIENT1|52=20240215-01:43:02.807|10=083|
2024-02-15 02:43:09.980 [30] [FixSender] (DEBUG) Sending 8=FIX.4.4|9=59|35=0|49=FIXCLIENT1|56=DMA_HUB|34=2341|52=20240215-01:43:09|10=141|
2024-02-15 02:43:32.758 [29] [FixSender] (DEBUG) Receiving 8=FIX.4.4|9=63|35=0|34=2338|49=DMA_HUB|56=FIXCLIENT1|52=20240215-01:43:32.758|10=092|
2024-02-15 02:43:39.985 [30] [FixSender] (DEBUG) Sending 8=FIX.4.4|9=59|35=0|49=FIXCLIENT1|56=DMA_HUB|34=2342|52=20240215-01:43:39|10=145|
2024-02-15 02:44:02.702 [29] [FixSender] (DEBUG) Receiving 8=FIX.4.4|9=63|35=0|34=2339|49=DMA_HUB|56=FIXCLIENT1|52=20240215-01:44:02.702|10=080|
2024-02-15 02:44:09.989 [30] [FixSender] (DEBUG) Sending 8=FIX.4.4|9=59|35=0|49=FIXCLIENT1|56=DMA_HUB|34=2343|52=20240215-01:44:09|10=144|
2024-02-15 02:44:32.656 [29] [FixSender] (DEBUG) Receiving 8=FIX.4.4|9=63|35=0|34=2340|49=DMA_HUB|56=FIXCLIENT1|52=20240215-01:44:32.656|10=083|
2024-02-15 02:44:39.999 [30] [FixSender] (DEBUG) Sending 8=FIX.4.4|9=59|35=0|49=FIXCLIENT1|56=DMA_HUB|34=2344|52=20240215-01:44:39|10=148|
2024-02-15 02:45:02.615 [29] [FixSender] (DEBUG) Receiving 8=FIX.4.4|9=63|35=0|34=2341|49=DMA_HUB|56=FIXCLIENT1|52=20240215-01:45:02.615|10=077|
2024-02-15 02:45:10.005 [30] [FixSender] (DEBUG) Sending 8=FIX.4.4|9=59|35=0|49=FIXCLIENT1|56=DMA_HUB|34=2345|52=20240215-01:45:10|10=139|
2024-02-15 02:45:32.564 [29] [FixSender] (DEBUG) Receiving 8=FIX.4.4|9=63|35=0|34=2342|49=DMA_HUB|56=FIXCLIENT1|52=20240215-01:45:32.562|10=082|
2024-02-15 02:45:40.009 [30] [FixSender] (DEBUG) Sending 8=FIX.4.4|9=59|35=0|49=FIXCLIENT1|56=DMA_HUB|34=2346|52=20240215-01:45:40|10=143|
2024-02-15 02:46:02.515 [29] [FixSender] (DEBUG) Receiving 8=FIX.4.4|9=63|35=0|34=2343|49=DMA_HUB|56=FIXCLIENT1|52=20240215-01:46:02.515|10=079|
2024-02-15 02:46:10.025 [30] [FixSender] (DEBUG) Sending 8=FIX.4.4|9=59|35=0|49=FIXCLIENT1|56=DMA_HUB|34=2347|52=20240215-01:46:10|10=142|
2024-02-15 02:46:32.472 [29] [FixSender] (DEBUG) Receiving 8=FIX.4.4|9=63|35=0|34=2344|49=DMA_HUB|56=FIXCLIENT1|52=20240215-01:46:32.472|10=085|
2024-02-15 02:46:40.031 [30] [FixSender] (DEBUG) Sending 8=FIX.4.4|9=59|35=0|49=FIXCLIENT1|56=DMA_HUB|34=2348|52=20240215-01:46:40|10=146|
2024-02-15 02:47:02.421 [29] [FixSender] (DEBUG) Receiving 8=FIX.4.4|9=63|35=0|34=2345|49=DMA_HUB|56=FIXCLIENT1|52=20240215-01:47:02.421|10=078|
2024-02-15 02:47:10.039 [30] [FixSender] (DEBUG) Sending 8=FIX.4.4|9=59|35=0|49=FIXCLIENT1|56=DMA_HUB|34=2349|52=20240215-01:47:10|10=145|
2024-02-15 02:47:32.374 [29] [FixSender] (DEBUG) Receiving 8=FIX.4.4|9=63|35=0|34=2346|49=DMA_HUB|56=FIXCLIENT1|52=20240215-01:47:32.374|10=089|
2024-02-15 02:47:40.054 [30] [FixSender] (DEBUG) Sending 8=FIX.4.4|9=59|35=0|49=FIXCLIENT1|56=DMA_HUB|34=2350|52=20240215-01:47:40|10=140|
2024-02-15 02:48:02.325 [29] [FixSender] (DEBUG) Receiving 8=FIX.4.4|9=63|35=0|34=2347|49=DMA_HUB|56=FIXCLIENT1|52=20240215-01:48:02.325|10=084|
2024-02-15 02:48:10.065 [30] [FixSender] (DEBUG) Sending 8=FIX.4.4|9=59|35=0|49=FIXCLIENT1|56=DMA_HUB|34=2351|52=20240215-01:48:10|10=139|
2024-02-15 02:48:32.279 [29] [FixSender] (DEBUG) Receiving 8=FIX.4.4|9=63|35=0|34=2348|49=DMA_HUB|56=FIXCLIENT1|52=20240215-01:48:32.279|10=096|
2024-02-15 02:48:40.079 [30] [FixSender] (DEBUG) Sending 8=FIX.4.4|9=59|35=0|49=FIXCLIENT1|56=DMA_HUB|34=2352|52=20240215-01:48:40|10=143|
2024-02-15 02:49:02.233 [29] [FixSender] (DEBUG) Receiving 8=FIX.4.4|9=63|35=0|34=2349|49=DMA_HUB|56=FIXCLIENT1|52=20240215-01:49:02.233|10=085|
2024-02-15 02:49:10.086 [30] [FixSender] (DEBUG) Sending 8=FIX.4.4|9=59|35=0|49=FIXCLIENT1|56=DMA_HUB|34=2353|52=20240215-01:49:10|10=142|
2024-02-15 02:49:32.182 [29] [FixSender] (DEBUG) Receiving 8=FIX.4.4|9=63|35=0|34=2350|49=DMA_HUB|56=FIXCLIENT1|52=20240215-01:49:32.182|10=083|
2024-02-15 02:49:40.093 [30] [FixSender] (DEBUG) Sending 8=FIX.4.4|9=59|35=0|49=FIXCLIENT1|56=DMA_HUB|34=2354|52=20240215-01:49:40|10=146|
2024-02-15 02:50:02.134 [29] [FixSender] (DEBUG) Receiving 8=FIX.4.4|9=63|35=0|34=2351|49=DMA_HUB|56=FIXCLIENT1|52=20240215-01:50:02.134|10=070|
2024-02-15 02:50:10.094 [30] [FixSender] (DEBUG) Sending 8=FIX.4.4|9=59|35=0|49=FIXCLIENT1|56=DMA_HUB|34=2355|52=20240215-01:50:10|10=136|
2024-02-15 02:50:32.086 [29] [FixSender] (DEBUG) Receiving 8=FIX.4.4|9=63|35=0|34=2352|49=DMA_HUB|56=FIXCLIENT1|52=20240215-01:50:32.086|10=080|
2024-02-15 02:50:40.108 [30] [FixSender] (DEBUG) Sending 8=FIX.4.4|9=59|35=0|49=FIXCLIENT1|56=DMA_HUB|34=2356|52=20240215-01:50:40|10=140|
2024-02-15 02:51:02.032 [29] [FixSender] (DEBUG) Receiving 8=FIX.4.4|9=63|35=0|34=2353|49=DMA_HUB|56=FIXCLIENT1|52=20240215-01:51:02.032|10=070|
2024-02-15 02:51:10.117 [30] [FixSender] (DEBUG) Sending 8=FIX.4.4|9=59|35=0|49=FIXCLIENT1|56=DMA_HUB|34=2357|52=20240215-01:51:10|10=139|
2024-02-15 02:51:31.989 [29] [FixSender] (DEBUG) Receiving 8=FIX.4.4|9=63|35=0|34=2354|49=DMA_HUB|56=FIXCLIENT1|52=20240215-01:51:31.989|10=094|
2024-02-15 02:51:40.122 [30] [FixSender] (DEBUG) Sending 8=FIX.4.4|9=59|35=0|49=FIXCLIENT1|56=DMA_HUB|34=2358|52=20240215-01:51:40|10=143|
2024-02-15 02:52:01.937 [29] [FixSender] (DEBUG) Receiving 8=FIX.4.4|9=63|35=0|34=2355|49=DMA_HUB|56=FIXCLIENT1|52=20240215-01:52:01.937|10=086|
2024-02-15 02:52:10.133 [30] [FixSender] (DEBUG) Sending 8=FIX.4.4|9=59|35=0|49=FIXCLIENT1|56=DMA_HUB|34=2359|52=20240215-01:52:10|10=142|
2024-02-15 02:52:31.894 [29] [FixSender] (DEBUG) Receiving 8=FIX.4.4|9=63|35=0|34=2356|49=DMA_HUB|56=FIXCLIENT1|52=20240215-01:52:31.894|10=092|
2024-02-15 02:52:40.137 [30] [FixSender] (DEBUG) Sending 8=FIX.4.4|9=59|35=0|49=FIXCLIENT1|56=DMA_HUB|34=2360|52=20240215-01:52:40|10=137|
2024-02-15 02:53:01.850 [29] [FixSender] (DEBUG) Receiving 8=FIX.4.4|9=63|35=0|34=2357|49=DMA_HUB|56=FIXCLIENT1|52=20240215-01:53:01.850|10=083|
2024-02-15 02:53:10.139 [30] [FixSender] (DEBUG) Sending 8=FIX.4.4|9=59|35=0|49=FIXCLIENT1|56=DMA_HUB|34=2361|52=20240215-01:53:10|10=136|
2024-02-15 02:53:31.798 [29] [FixSender] (DEBUG) Receiving 8=FIX.4.4|9=63|35=0|34=2358|49=DMA_HUB|56=FIXCLIENT1|52=20240215-01:53:31.798|10=098|
2024-02-15 02:53:40.141 [30] [FixSender] (DEBUG) Sending 8=FIX.4.4|9=59|35=0|49=FIXCLIENT1|56=DMA_HUB|34=2362|52=20240215-01:53:40|10=140|
2024-02-15 02:54:01.755 [29] [FixSender] (DEBUG) Receiving 8=FIX.4.4|9=63|35=0|34=2359|49=DMA_HUB|56=FIXCLIENT1|52=20240215-01:54:01.755|10=090|
2024-02-15 02:54:10.147 [30] [FixSender] (DEBUG) Sending 8=FIX.4.4|9=59|35=0|49=FIXCLIENT1|56=DMA_HUB|34=2363|52=20240215-01:54:10|10=139|
2024-02-15 02:54:31.696 [29] [FixSender] (DEBUG) Receiving 8=FIX.4.4|9=63|35=0|34=2360|49=DMA_HUB|56=FIXCLIENT1|52=20240215-01:54:31.696|10=089|
2024-02-15 02:54:40.150 [30] [FixSender] (DEBUG) Sending 8=FIX.4.4|9=59|35=0|49=FIXCLIENT1|56=DMA_HUB|34=2364|52=20240215-01:54:40|10=143|
2024-02-15 02:55:01.654 [29] [FixSender] (DEBUG) Receiving 8=FIX.4.4|9=63|35=0|34=2361|49=DMA_HUB|56=FIXCLIENT1|52=20240215-01:55:01.654|10=082|
2024-02-15 02:55:10.157 [30] [FixSender] (DEBUG) Sending 8=FIX.4.4|9=59|35=0|49=FIXCLIENT1|56=DMA_HUB|34=2365|52=20240215-01:55:10|10=142|
2024-02-15 02:55:31.611 [29] [FixSender] (DEBUG) Receiving 8=FIX.4.4|9=63|35=0|34=2362|49=DMA_HUB|56=FIXCLIENT1|52=20240215-01:55:31.611|10=079|
2024-02-15 02:55:40.161 [30] [FixSender] (DEBUG) Sending 8=FIX.4.4|9=59|35=0|49=FIXCLIENT1|56=DMA_HUB|34=2366|52=20240215-01:55:40|10=146|
