2024-02-05 10:01:57.010 [1] [Fixsender] (INFO) (c) 2001-2011 ullink SAS. FixSender. Release 1.11.
2024-02-05 10:01:59.848 [29] [FixSender] (INFO) try to connect to : localhost port :12345
2024-02-05 10:01:59.883 [29] [FixSender] (INFO) physical cnx initiated
2024-02-05 10:01:59.909 [29] [FixSender] (DEBUG) Sending 8=FIX.4.4|9=88|35=A|49=FIXCLIENT1|56=DMA_HUB|34=316|52=20240205-09:01:59|98=0|108=30|95=9|96=null/null|10=198|
2024-02-05 10:01:59.919 [29] [FixSender] (DEBUG) Receiving 8=FIX.4.4|9=72|35=A|34=1|49=DMA_HUB|56=FIXCLIENT1|52=20240205-09:01:59.913|108=30|98=0|10=234|
2024-02-05 10:01:59.923 [29] [FixSender] (DEBUG) Sending 8=FIX.4.4|9=110|35=5|49=FIXCLIENT1|56=DMA_HUB|34=317|52=20240205-09:01:59|58=MsgSeqNum expected 334, but MsgSeqNum received 1|10=211|
2024-02-05 10:01:59.926 [29] [FixSender] (INFO) physical cnx finished Connection reset by peer
2024-02-05 10:01:59.928 [29] [FixSender] (WARNING) Disconnected
2024-02-05 10:02:01.206 [33] [FixSender] (INFO) try to connect to : localhost port :12345
2024-02-05 10:02:01.207 [33] [FixSender] (INFO) physical cnx initiated
2024-02-05 10:02:01.215 [33] [FixSender] (DEBUG) Sending 8=FIX.4.4|9=86|35=A|49=FIXCLIENT1|56=DMA_HUB|34=1|52=20240205-09:02:01|98=0|108=30|95=9|96=null/null|10=079|
2024-02-05 10:02:01.218 [33] [FixSender] (DEBUG) Receiving 8=FIX.4.4|9=72|35=A|34=4|49=DMA_HUB|56=FIXCLIENT1|52=20240205-09:02:01.216|108=30|98=0|10=221|
2024-02-05 10:02:01.220 [33] [FixSender] (WARNING) The Fix connection is open...
2024-02-05 10:02:01.230 [33] [FixSender] (DEBUG) Sending 8=FIX.4.4|9=65|35=2|49=FIXCLIENT1|56=DMA_HUB|34=2|52=20240205-09:02:01|7=1|16=0|10=105|
2024-02-05 10:02:01.237 [33] [FixSender] (DEBUG) Receiving 8=FIX.4.4|9=102|35=4|34=1|49=DMA_HUB|56=FIXCLIENT1|52=20240205-09:02:01.236|43=Y|122=20240205-09:02:01.236|36=5|123=Y|10=223|
2024-02-05 10:02:04.465 [36] [FixSender] (DEBUG) Sending 8=FIX.4.4|9=191|35=D|49=FIXCLIENT1|56=DMA_HUB|34=3|52=20240205-09:02:04|21=1|11=HS_17071237240|38=500|55=E:07G@XETR|54=1|60=20240205-09:02:04|40=2|59=0|44=197|48=US3390411052|22=4|15=EUR|207=XETR|1=bram_123|10=014|
2024-02-05 10:02:04.481 [33] [FixSender] (DEBUG) Receiving 8=FIX.4.4|9=232|35=8|34=5|49=DMA_HUB|56=FIXCLIENT1|52=20240205-09:02:04.479|11=HS_17071237240|37=FX5ANX1hH|54=1|40=2|59=0|17=202402051|150=A|39=A|38=500|151=500|14=0|6=0|44=197|60=20240205-09:02:04.000|22=4|48=US3390411052|207=XETR|15=EUR|55=[N/A]|10=008|
2024-02-05 10:02:04.535 [33] [FixSender] (DEBUG) Receiving 8=FIX.4.4|9=244|35=8|34=6|49=DMA_HUB|56=FIXCLIENT1|52=20240205-09:02:04.534|11=HS_17071237240|37=FX5ANX1hH|198=Z5LRAwF|54=1|40=2|59=0|17=202402052|150=0|39=0|38=500|151=500|14=0|6=0|44=197|60=20240205-09:02:04.505|22=4|48=US3390411052|207=XETR|15=EUR|55=[N/A]|10=248|
2024-02-05 10:02:04.544 [33] [FixSender] (DEBUG) Receiving 8=FIX.4.4|9=304|35=8|34=7|49=DMA_HUB|56=FIXCLIENT1|52=20240205-09:02:04.542|11=HS_17071237240|37=FX5ANX1hH|198=Z5LRAwF|54=1|32=500|31=171|17=202402053|527=BDAr0e1|150=F|39=2|38=500|151=0|14=500|6=171|44=197|60=20240205-09:02:04.506|22=4|48=US3390411052|207=XETR|15=EUR|55=[N/A]|453=1|448=strmrepl|447=D|452=17|40=2|59=0|10=138|
2024-02-05 10:02:31.233 [33] [FixSender] (DEBUG) Receiving 8=FIX.4.4|9=60|35=0|34=8|49=DMA_HUB|56=FIXCLIENT1|52=20240205-09:02:31.231|10=180|
2024-02-05 10:02:34.466 [34] [FixSender] (DEBUG) Sending 8=FIX.4.4|9=56|35=0|49=FIXCLIENT1|56=DMA_HUB|34=4|52=20240205-09:02:34|10=244|
2024-02-05 10:03:01.182 [33] [FixSender] (DEBUG) Receiving 8=FIX.4.4|9=60|35=0|34=9|49=DMA_HUB|56=FIXCLIENT1|52=20240205-09:03:01.180|10=182|
2024-02-05 10:03:04.468 [34] [FixSender] (DEBUG) Sending 8=FIX.4.4|9=56|35=0|49=FIXCLIENT1|56=DMA_HUB|34=5|52=20240205-09:03:04|10=243|
2024-02-05 10:03:31.127 [33] [FixSender] (DEBUG) Receiving 8=FIX.4.4|9=61|35=0|34=10|49=DMA_HUB|56=FIXCLIENT1|52=20240205-09:03:31.126|10=226|
2024-02-05 10:03:34.471 [34] [FixSender] (DEBUG) Sending 8=FIX.4.4|9=56|35=0|49=FIXCLIENT1|56=DMA_HUB|34=6|52=20240205-09:03:34|10=247|
2024-02-05 10:04:01.083 [33] [FixSender] (DEBUG) Receiving 8=FIX.4.4|9=61|35=0|34=11|49=DMA_HUB|56=FIXCLIENT1|52=20240205-09:04:01.083|10=227|
2024-02-05 10:04:04.473 [34] [FixSender] (DEBUG) Sending 8=FIX.4.4|9=56|35=0|49=FIXCLIENT1|56=DMA_HUB|34=7|52=20240205-09:04:04|10=246|
2024-02-05 10:04:31.029 [33] [FixSender] (DEBUG) Receiving 8=FIX.4.4|9=61|35=0|34=12|49=DMA_HUB|56=FIXCLIENT1|52=20240205-09:04:31.028|10=230|
2024-02-05 10:04:34.475 [34] [FixSender] (DEBUG) Sending 8=FIX.4.4|9=56|35=0|49=FIXCLIENT1|56=DMA_HUB|34=8|52=20240205-09:04:34|10=250|
2024-02-05 10:05:01.087 [33] [FixSender] (DEBUG) Receiving 8=FIX.4.4|9=61|35=0|34=13|49=DMA_HUB|56=FIXCLIENT1|52=20240205-09:05:01.052|10=226|
2024-02-05 10:05:04.475 [34] [FixSender] (DEBUG) Sending 8=FIX.4.4|9=56|35=0|49=FIXCLIENT1|56=DMA_HUB|34=9|52=20240205-09:05:04|10=249|
2024-02-05 10:05:31.006 [33] [FixSender] (DEBUG) Receiving 8=FIX.4.4|9=61|35=0|34=14|49=DMA_HUB|56=FIXCLIENT1|52=20240205-09:05:31.005|10=228|
2024-02-05 10:05:34.486 [34] [FixSender] (DEBUG) Sending 8=FIX.4.4|9=57|35=0|49=FIXCLIENT1|56=DMA_HUB|34=10|52=20240205-09:05:34|10=037|
2024-02-05 10:06:00.949 [33] [FixSender] (DEBUG) Receiving 8=FIX.4.4|9=61|35=0|34=15|49=DMA_HUB|56=FIXCLIENT1|52=20240205-09:06:00.947|10=241|
2024-02-05 10:06:04.498 [34] [FixSender] (DEBUG) Sending 8=FIX.4.4|9=57|35=0|49=FIXCLIENT1|56=DMA_HUB|34=11|52=20240205-09:06:04|10=036|
2024-02-05 10:06:30.912 [33] [FixSender] (DEBUG) Receiving 8=FIX.4.4|9=61|35=0|34=16|49=DMA_HUB|56=FIXCLIENT1|52=20240205-09:06:30.911|10=236|
2024-02-05 10:06:34.507 [34] [FixSender] (DEBUG) Sending 8=FIX.4.4|9=57|35=0|49=FIXCLIENT1|56=DMA_HUB|34=12|52=20240205-09:06:34|10=040|
2024-02-05 10:07:00.863 [33] [FixSender] (DEBUG) Receiving 8=FIX.4.4|9=61|35=0|34=17|49=DMA_HUB|56=FIXCLIENT1|52=20240205-09:07:00.862|10=240|
2024-02-05 10:07:04.509 [34] [FixSender] (DEBUG) Sending 8=FIX.4.4|9=57|35=0|49=FIXCLIENT1|56=DMA_HUB|34=13|52=20240205-09:07:04|10=039|
2024-02-05 10:07:30.806 [33] [FixSender] (DEBUG) Receiving 8=FIX.4.4|9=61|35=0|34=18|49=DMA_HUB|56=FIXCLIENT1|52=20240205-09:07:30.805|10=241|
2024-02-05 10:07:34.516 [34] [FixSender] (DEBUG) Sending 8=FIX.4.4|9=57|35=0|49=FIXCLIENT1|56=DMA_HUB|34=14|52=20240205-09:07:34|10=043|
2024-02-05 10:08:00.762 [33] [FixSender] (DEBUG) Receiving 8=FIX.4.4|9=61|35=0|34=19|49=DMA_HUB|56=FIXCLIENT1|52=20240205-09:08:00.761|10=241|
2024-02-05 10:08:04.532 [34] [FixSender] (DEBUG) Sending 8=FIX.4.4|9=57|35=0|49=FIXCLIENT1|56=DMA_HUB|34=15|52=20240205-09:08:04|10=042|
2024-02-05 10:08:30.719 [33] [FixSender] (DEBUG) Receiving 8=FIX.4.4|9=61|35=0|34=20|49=DMA_HUB|56=FIXCLIENT1|52=20240205-09:08:30.719|10=239|
2024-02-05 10:08:34.542 [34] [FixSender] (DEBUG) Sending 8=FIX.4.4|9=57|35=0|49=FIXCLIENT1|56=DMA_HUB|34=16|52=20240205-09:08:34|10=046|
2024-02-05 10:09:00.659 [33] [FixSender] (DEBUG) Receiving 8=FIX.4.4|9=61|35=0|34=21|49=DMA_HUB|56=FIXCLIENT1|52=20240205-09:09:00.658|10=240|
2024-02-05 10:09:04.548 [34] [FixSender] (DEBUG) Sending 8=FIX.4.4|9=57|35=0|49=FIXCLIENT1|56=DMA_HUB|34=17|52=20240205-09:09:04|10=045|
2024-02-05 10:09:30.624 [33] [FixSender] (DEBUG) Receiving 8=FIX.4.4|9=61|35=0|34=22|49=DMA_HUB|56=FIXCLIENT1|52=20240205-09:09:30.623|10=236|
2024-02-05 10:09:34.561 [34] [FixSender] (DEBUG) Sending 8=FIX.4.4|9=57|35=0|49=FIXCLIENT1|56=DMA_HUB|34=18|52=20240205-09:09:34|10=049|
2024-02-05 10:10:00.567 [33] [FixSender] (DEBUG) Receiving 8=FIX.4.4|9=61|35=0|34=23|49=DMA_HUB|56=FIXCLIENT1|52=20240205-09:10:00.566|10=232|
2024-02-05 10:10:04.573 [34] [FixSender] (DEBUG) Sending 8=FIX.4.4|9=57|35=0|49=FIXCLIENT1|56=DMA_HUB|34=19|52=20240205-09:10:04|10=039|
2024-02-05 10:10:30.522 [33] [FixSender] (DEBUG) Receiving 8=FIX.4.4|9=61|35=0|34=24|49=DMA_HUB|56=FIXCLIENT1|52=20240205-09:10:30.521|10=227|
2024-02-05 10:10:34.587 [34] [FixSender] (DEBUG) Sending 8=FIX.4.4|9=57|35=0|49=FIXCLIENT1|56=DMA_HUB|34=20|52=20240205-09:10:34|10=034|
2024-02-05 10:11:00.482 [33] [FixSender] (DEBUG) Receiving 8=FIX.4.4|9=61|35=0|34=25|49=DMA_HUB|56=FIXCLIENT1|52=20240205-09:11:00.479|10=238|
2024-02-05 10:11:04.604 [34] [FixSender] (DEBUG) Sending 8=FIX.4.4|9=57|35=0|49=FIXCLIENT1|56=DMA_HUB|34=21|52=20240205-09:11:04|10=033|
2024-02-05 10:11:30.420 [33] [FixSender] (DEBUG) Receiving 8=FIX.4.4|9=61|35=0|34=26|49=DMA_HUB|56=FIXCLIENT1|52=20240205-09:11:30.419|10=236|
2024-02-05 10:11:34.617 [34] [FixSender] (DEBUG) Sending 8=FIX.4.4|9=57|35=0|49=FIXCLIENT1|56=DMA_HUB|34=22|52=20240205-09:11:34|10=037|
2024-02-05 10:12:00.377 [33] [FixSender] (DEBUG) Receiving 8=FIX.4.4|9=61|35=0|34=27|49=DMA_HUB|56=FIXCLIENT1|52=20240205-09:12:00.376|10=237|
2024-02-05 10:12:04.621 [34] [FixSender] (DEBUG) Sending 8=FIX.4.4|9=57|35=0|49=FIXCLIENT1|56=DMA_HUB|34=23|52=20240205-09:12:04|10=036|
2024-02-05 10:12:30.326 [33] [FixSender] (DEBUG) Receiving 8=FIX.4.4|9=61|35=0|34=28|49=DMA_HUB|56=FIXCLIENT1|52=20240205-09:12:30.325|10=235|
2024-02-05 10:12:34.636 [34] [FixSender] (DEBUG) Sending 8=FIX.4.4|9=57|35=0|49=FIXCLIENT1|56=DMA_HUB|34=24|52=20240205-09:12:34|10=040|
2024-02-05 10:13:00.283 [33] [FixSender] (DEBUG) Receiving 8=FIX.4.4|9=61|35=0|34=29|49=DMA_HUB|56=FIXCLIENT1|52=20240205-09:13:00.282|10=236|
2024-02-05 10:13:04.648 [34] [FixSender] (DEBUG) Sending 8=FIX.4.4|9=57|35=0|49=FIXCLIENT1|56=DMA_HUB|34=25|52=20240205-09:13:04|10=039|
2024-02-05 10:13:30.238 [33] [FixSender] (DEBUG) Receiving 8=FIX.4.4|9=61|35=0|34=30|49=DMA_HUB|56=FIXCLIENT1|52=20240205-09:13:30.236|10=230|
2024-02-05 10:13:34.654 [34] [FixSender] (DEBUG) Sending 8=FIX.4.4|9=57|35=0|49=FIXCLIENT1|56=DMA_HUB|34=26|52=20240205-09:13:34|10=043|
2024-02-05 10:14:00.188 [33] [FixSender] (DEBUG) Receiving 8=FIX.4.4|9=61|35=0|34=31|49=DMA_HUB|56=FIXCLIENT1|52=20240205-09:14:00.187|10=234|
2024-02-05 10:14:04.658 [34] [FixSender] (DEBUG) Sending 8=FIX.4.4|9=57|35=0|49=FIXCLIENT1|56=DMA_HUB|34=27|52=20240205-09:14:04|10=042|
2024-02-05 10:14:30.132 [33] [FixSender] (DEBUG) Receiving 8=FIX.4.4|9=61|35=0|34=32|49=DMA_HUB|56=FIXCLIENT1|52=20240205-09:14:30.131|10=227|
2024-02-05 10:14:34.668 [34] [FixSender] (DEBUG) Sending 8=FIX.4.4|9=57|35=0|49=FIXCLIENT1|56=DMA_HUB|34=28|52=20240205-09:14:34|10=046|
2024-02-05 10:15:00.087 [33] [FixSender] (DEBUG) Receiving 8=FIX.4.4|9=61|35=0|34=33|49=DMA_HUB|56=FIXCLIENT1|52=20240205-09:15:00.086|10=235|
2024-02-05 10:15:04.670 [34] [FixSender] (DEBUG) Sending 8=FIX.4.4|9=57|35=0|49=FIXCLIENT1|56=DMA_HUB|34=29|52=20240205-09:15:04|10=045|
2024-02-05 10:15:30.039 [33] [FixSender] (DEBUG) Receiving 8=FIX.4.4|9=61|35=0|34=34|49=DMA_HUB|56=FIXCLIENT1|52=20240205-09:15:30.038|10=236|
2024-02-05 10:15:34.672 [34] [FixSender] (DEBUG) Sending 8=FIX.4.4|9=57|35=0|49=FIXCLIENT1|56=DMA_HUB|34=30|52=20240205-09:15:34|10=040|
2024-02-05 10:16:00.033 [33] [FixSender] (DEBUG) Receiving 8=FIX.4.4|9=61|35=0|34=35|49=DMA_HUB|56=FIXCLIENT1|52=20240205-09:16:00.026|10=232|
2024-02-05 10:16:04.673 [34] [FixSender] (DEBUG) Sending 8=FIX.4.4|9=57|35=0|49=FIXCLIENT1|56=DMA_HUB|34=31|52=20240205-09:16:04|10=039|
2024-02-05 10:16:30.014 [33] [FixSender] (DEBUG) Receiving 8=FIX.4.4|9=61|35=0|34=36|49=DMA_HUB|56=FIXCLIENT1|52=20240205-09:16:30.012|10=231|
2024-02-05 10:16:34.674 [34] [FixSender] (DEBUG) Sending 8=FIX.4.4|9=57|35=0|49=FIXCLIENT1|56=DMA_HUB|34=32|52=20240205-09:16:34|10=043|
2024-02-05 10:16:59.956 [33] [FixSender] (DEBUG) Receiving 8=FIX.4.4|9=61|35=0|34=37|49=DMA_HUB|56=FIXCLIENT1|52=20240205-09:16:59.955|10=003|
2024-02-05 10:17:04.676 [34] [FixSender] (DEBUG) Sending 8=FIX.4.4|9=57|35=0|49=FIXCLIENT1|56=DMA_HUB|34=33|52=20240205-09:17:04|10=042|
2024-02-05 10:17:29.916 [33] [FixSender] (DEBUG) Receiving 8=FIX.4.4|9=61|35=0|34=38|49=DMA_HUB|56=FIXCLIENT1|52=20240205-09:17:29.915|10=254|
2024-02-05 10:17:34.709 [34] [FixSender] (DEBUG) Sending 8=FIX.4.4|9=57|35=0|49=FIXCLIENT1|56=DMA_HUB|34=34|52=20240205-09:17:34|10=046|
2024-02-05 10:17:59.870 [33] [FixSender] (DEBUG) Receiving 8=FIX.4.4|9=61|35=0|34=39|49=DMA_HUB|56=FIXCLIENT1|52=20240205-09:17:59.869|10=010|
2024-02-05 10:18:04.720 [34] [FixSender] (DEBUG) Sending 8=FIX.4.4|9=57|35=0|49=FIXCLIENT1|56=DMA_HUB|34=35|52=20240205-09:18:04|10=045|
2024-02-05 10:18:29.811 [33] [FixSender] (DEBUG) Receiving 8=FIX.4.4|9=61|35=0|34=40|49=DMA_HUB|56=FIXCLIENT1|52=20240205-09:18:29.810|10=242|
2024-02-05 10:18:34.722 [34] [FixSender] (DEBUG) Sending 8=FIX.4.4|9=57|35=0|49=FIXCLIENT1|56=DMA_HUB|34=36|52=20240205-09:18:34|10=049|
2024-02-05 10:18:59.776 [33] [FixSender] (DEBUG) Receiving 8=FIX.4.4|9=61|35=0|34=41|49=DMA_HUB|56=FIXCLIENT1|52=20240205-09:18:59.774|10=255|
2024-02-05 10:19:04.736 [34] [FixSender] (DEBUG) Sending 8=FIX.4.4|9=57|35=0|49=FIXCLIENT1|56=DMA_HUB|34=37|52=20240205-09:19:04|10=048|
2024-02-05 10:19:29.728 [33] [FixSender] (DEBUG) Receiving 8=FIX.4.4|9=61|35=0|34=42|49=DMA_HUB|56=FIXCLIENT1|52=20240205-09:19:29.727|10=252|
2024-02-05 10:19:34.738 [34] [FixSender] (DEBUG) Sending 8=FIX.4.4|9=57|35=0|49=FIXCLIENT1|56=DMA_HUB|34=38|52=20240205-09:19:34|10=052|
2024-02-05 10:19:59.673 [33] [FixSender] (DEBUG) Receiving 8=FIX.4.4|9=61|35=0|34=43|49=DMA_HUB|56=FIXCLIENT1|52=20240205-09:19:59.671|10=254|
2024-02-05 10:20:04.739 [34] [FixSender] (DEBUG) Sending 8=FIX.4.4|9=57|35=0|49=FIXCLIENT1|56=DMA_HUB|34=39|52=20240205-09:20:04|10=042|
2024-02-05 10:20:29.620 [33] [FixSender] (DEBUG) Receiving 8=FIX.4.4|9=61|35=0|34=44|49=DMA_HUB|56=FIXCLIENT1|52=20240205-09:20:29.619|10=246|
2024-02-05 10:20:34.740 [34] [FixSender] (DEBUG) Sending 8=FIX.4.4|9=57|35=0|49=FIXCLIENT1|56=DMA_HUB|34=40|52=20240205-09:20:34|10=037|
2024-02-05 10:20:59.582 [33] [FixSender] (DEBUG) Receiving 8=FIX.4.4|9=61|35=0|34=45|49=DMA_HUB|56=FIXCLIENT1|52=20240205-09:20:59.582|10=249|
2024-02-05 10:21:04.742 [34] [FixSender] (DEBUG) Sending 8=FIX.4.4|9=57|35=0|49=FIXCLIENT1|56=DMA_HUB|34=41|52=20240205-09:21:04|10=036|
2024-02-05 10:21:29.522 [33] [FixSender] (DEBUG) Receiving 8=FIX.4.4|9=61|35=0|34=46|49=DMA_HUB|56=FIXCLIENT1|52=20240205-09:21:29.521|10=241|
2024-02-05 10:21:34.745 [34] [FixSender] (DEBUG) Sending 8=FIX.4.4|9=57|35=0|49=FIXCLIENT1|56=DMA_HUB|34=42|52=20240205-09:21:34|10=040|
2024-02-05 10:21:59.484 [33] [FixSender] (DEBUG) Receiving 8=FIX.4.4|9=61|35=0|34=47|49=DMA_HUB|56=FIXCLIENT1|52=20240205-09:21:59.483|10=252|
2024-02-05 10:22:04.748 [34] [FixSender] (DEBUG) Sending 8=FIX.4.4|9=57|35=0|49=FIXCLIENT1|56=DMA_HUB|34=43|52=20240205-09:22:04|10=039|
2024-02-05 10:22:29.438 [33] [FixSender] (DEBUG) Receiving 8=FIX.4.4|9=61|35=0|34=48|49=DMA_HUB|56=FIXCLIENT1|52=20240205-09:22:29.437|10=250|
2024-02-05 10:22:34.751 [34] [FixSender] (DEBUG) Sending 8=FIX.4.4|9=57|35=0|49=FIXCLIENT1|56=DMA_HUB|34=44|52=20240205-09:22:34|10=043|
2024-02-05 10:22:59.389 [33] [FixSender] (DEBUG) Receiving 8=FIX.4.4|9=61|35=0|34=49|49=DMA_HUB|56=FIXCLIENT1|52=20240205-09:22:59.388|10=003|
2024-02-05 10:23:04.755 [34] [FixSender] (DEBUG) Sending 8=FIX.4.4|9=57|35=0|49=FIXCLIENT1|56=DMA_HUB|34=45|52=20240205-09:23:04|10=042|
2024-02-05 10:23:29.334 [33] [FixSender] (DEBUG) Receiving 8=FIX.4.4|9=61|35=0|34=50|49=DMA_HUB|56=FIXCLIENT1|52=20240205-09:23:29.333|10=239|
2024-02-05 10:23:34.758 [34] [FixSender] (DEBUG) Sending 8=FIX.4.4|9=57|35=0|49=FIXCLIENT1|56=DMA_HUB|34=46|52=20240205-09:23:34|10=046|
2024-02-05 10:23:59.284 [33] [FixSender] (DEBUG) Receiving 8=FIX.4.4|9=61|35=0|34=51|49=DMA_HUB|56=FIXCLIENT1|52=20240205-09:23:59.283|10=247|
2024-02-05 10:24:04.759 [34] [FixSender] (DEBUG) Sending 8=FIX.4.4|9=57|35=0|49=FIXCLIENT1|56=DMA_HUB|34=47|52=20240205-09:24:04|10=045|
2024-02-05 10:24:29.243 [33] [FixSender] (DEBUG) Receiving 8=FIX.4.4|9=61|35=0|34=52|49=DMA_HUB|56=FIXCLIENT1|52=20240205-09:24:29.242|10=241|
2024-02-05 10:24:34.761 [34] [FixSender] (DEBUG) Sending 8=FIX.4.4|9=57|35=0|49=FIXCLIENT1|56=DMA_HUB|34=48|52=20240205-09:24:34|10=049|
2024-02-05 10:24:59.189 [33] [FixSender] (DEBUG) Receiving 8=FIX.4.4|9=61|35=0|34=53|49=DMA_HUB|56=FIXCLIENT1|52=20240205-09:24:59.188|10=254|
2024-02-05 10:25:04.762 [34] [FixSender] (DEBUG) Sending 8=FIX.4.4|9=57|35=0|49=FIXCLIENT1|56=DMA_HUB|34=49|52=20240205-09:25:04|10=048|
2024-02-05 10:25:29.145 [33] [FixSender] (DEBUG) Receiving 8=FIX.4.4|9=61|35=0|34=54|49=DMA_HUB|56=FIXCLIENT1|52=20240205-09:25:29.144|10=245|
2024-02-05 10:25:34.763 [34] [FixSender] (DEBUG) Sending 8=FIX.4.4|9=57|35=0|49=FIXCLIENT1|56=DMA_HUB|34=50|52=20240205-09:25:34|10=043|
2024-02-05 10:25:59.100 [33] [FixSender] (DEBUG) Receiving 8=FIX.4.4|9=61|35=0|34=55|49=DMA_HUB|56=FIXCLIENT1|52=20240205-09:25:59.099|10=002|
2024-02-05 10:26:04.767 [34] [FixSender] (DEBUG) Sending 8=FIX.4.4|9=57|35=0|49=FIXCLIENT1|56=DMA_HUB|34=51|52=20240205-09:26:04|10=042|
2024-02-05 10:26:29.049 [33] [FixSender] (DEBUG) Receiving 8=FIX.4.4|9=61|35=0|34=56|49=DMA_HUB|56=FIXCLIENT1|52=20240205-09:26:29.049|10=252|
2024-02-05 10:26:34.767 [34] [FixSender] (DEBUG) Sending 8=FIX.4.4|9=57|35=0|49=FIXCLIENT1|56=DMA_HUB|34=52|52=20240205-09:26:34|10=046|
2024-02-05 10:26:59.006 [33] [FixSender] (DEBUG) Receiving 8=FIX.4.4|9=61|35=0|34=57|49=DMA_HUB|56=FIXCLIENT1|52=20240205-09:26:59.005|10=248|
2024-02-05 10:27:04.769 [34] [FixSender] (DEBUG) Sending 8=FIX.4.4|9=57|35=0|49=FIXCLIENT1|56=DMA_HUB|34=53|52=20240205-09:27:04|10=045|
2024-02-05 10:27:28.956 [33] [FixSender] (DEBUG) Receiving 8=FIX.4.4|9=61|35=0|34=58|49=DMA_HUB|56=FIXCLIENT1|52=20240205-09:27:28.956|10=005|
2024-02-05 10:27:34.772 [34] [FixSender] (DEBUG) Sending 8=FIX.4.4|9=57|35=0|49=FIXCLIENT1|56=DMA_HUB|34=54|52=20240205-09:27:34|10=049|
2024-02-05 10:27:35.137 [33] [FixSender] (DEBUG) Receiving 8=FIX.4.4|9=61|35=5|34=59|49=DMA_HUB|56=FIXCLIENT1|52=20240205-09:27:35.135|10=254|
2024-02-05 10:27:35.138 [33] [FixSender] (DEBUG) Sending 8=FIX.4.4|9=79|35=5|49=FIXCLIENT1|56=DMA_HUB|34=55|52=20240205-09:27:35|58=Replying to logout|10=238|
2024-02-05 10:27:35.138 [33] [FixSender] (WARNING) The Fix connection is close...
2024-02-05 10:27:35.142 [33] [FixSender] (INFO) physical cnx finished Connection reset by peer
2024-02-05 10:27:35.143 [33] [FixSender] (WARNING) Disconnected
2024-02-05 11:23:39.049 [38] [FixSender] (INFO) try to connect to : localhost port :12345
2024-02-05 11:23:39.051 [38] [FixSender] (INFO) physical cnx initiated
2024-02-05 11:23:39.054 [38] [FixSender] (DEBUG) Sending 8=FIX.4.4|9=87|35=A|49=FIXCLIENT1|56=DMA_HUB|34=56|52=20240205-10:23:39|98=0|108=30|95=9|96=null/null|10=144|
2024-02-05 11:23:39.063 [38] [FixSender] (DEBUG) Receiving 8=FIX.4.4|9=73|35=A|34=60|49=DMA_HUB|56=FIXCLIENT1|52=20240205-10:23:39.059|108=30|98=0|10=027|
2024-02-05 11:23:39.064 [38] [FixSender] (WARNING) The Fix connection is open...
2024-02-05 11:23:39.068 [38] [FixSender] (DEBUG) Sending 8=FIX.4.4|9=75|35=1|49=FIXCLIENT1|56=DMA_HUB|34=57|52=20240205-10:23:39|112=synchronized?|10=095|
2024-02-05 11:23:39.071 [38] [FixSender] (DEBUG) Receiving 8=FIX.4.4|9=79|35=0|34=61|49=DMA_HUB|56=FIXCLIENT1|52=20240205-10:23:39.070|112=synchronized?|10=034|
2024-02-05 11:23:39.820 [41] [FixSender] (DEBUG) Sending 8=FIX.4.4|9=196|35=D|49=FIXCLIENT1|56=DMA_HUB|34=58|52=20240205-10:23:39|21=1|11=HS_17071286191|38=500|55=E:07G@XETR|54=1|60=20240205-10:23:39|40=2|59=0|44=197.111|48=US3390411052|22=4|15=EUR|207=XETR|1=bram_123|10=029|
2024-02-05 11:23:39.835 [38] [FixSender] (DEBUG) Receiving 8=FIX.4.4|9=237|35=8|34=62|49=DMA_HUB|56=FIXCLIENT1|52=20240205-10:23:39.834|11=HS_17071286191|37=FXTg9ZPSJ|54=1|40=2|59=0|17=202402054|150=A|39=A|38=500|151=500|14=0|6=0|44=197.111|60=20240205-10:23:39.000|22=4|48=US3390411052|207=XETR|15=EUR|55=[N/A]|10=076|
2024-02-05 11:24:09.031 [38] [FixSender] (DEBUG) Receiving 8=FIX.4.4|9=61|35=0|34=63|49=DMA_HUB|56=FIXCLIENT1|52=20240205-10:24:09.030|10=228|
2024-02-05 11:24:09.829 [39] [FixSender] (DEBUG) Sending 8=FIX.4.4|9=57|35=0|49=FIXCLIENT1|56=DMA_HUB|34=59|52=20240205-10:24:09|10=045|
2024-02-05 11:24:38.979 [38] [FixSender] (DEBUG) Receiving 8=FIX.4.4|9=61|35=0|34=64|49=DMA_HUB|56=FIXCLIENT1|52=20240205-10:24:38.978|10=252|
2024-02-05 11:24:39.841 [39] [FixSender] (DEBUG) Sending 8=FIX.4.4|9=57|35=0|49=FIXCLIENT1|56=DMA_HUB|34=60|52=20240205-10:24:39|10=040|
2024-02-05 11:25:08.926 [38] [FixSender] (DEBUG) Receiving 8=FIX.4.4|9=61|35=0|34=65|49=DMA_HUB|56=FIXCLIENT1|52=20240205-10:25:08.923|10=241|
2024-02-05 11:25:09.844 [39] [FixSender] (DEBUG) Sending 8=FIX.4.4|9=57|35=0|49=FIXCLIENT1|56=DMA_HUB|34=61|52=20240205-10:25:09|10=039|
2024-02-05 11:25:38.873 [38] [FixSender] (DEBUG) Receiving 8=FIX.4.4|9=61|35=0|34=66|49=DMA_HUB|56=FIXCLIENT1|52=20240205-10:25:38.872|10=248|
2024-02-05 11:25:39.853 [39] [FixSender] (DEBUG) Sending 8=FIX.4.4|9=57|35=0|49=FIXCLIENT1|56=DMA_HUB|34=62|52=20240205-10:25:39|10=043|
2024-02-05 11:26:08.833 [38] [FixSender] (DEBUG) Receiving 8=FIX.4.4|9=61|35=0|34=67|49=DMA_HUB|56=FIXCLIENT1|52=20240205-10:26:08.832|10=243|
2024-02-05 11:26:09.859 [39] [FixSender] (DEBUG) Sending 8=FIX.4.4|9=57|35=0|49=FIXCLIENT1|56=DMA_HUB|34=63|52=20240205-10:26:09|10=042|
2024-02-05 11:26:38.791 [38] [FixSender] (DEBUG) Receiving 8=FIX.4.4|9=61|35=0|34=68|49=DMA_HUB|56=FIXCLIENT1|52=20240205-10:26:38.790|10=250|
2024-02-05 11:26:39.864 [39] [FixSender] (DEBUG) Sending 8=FIX.4.4|9=57|35=0|49=FIXCLIENT1|56=DMA_HUB|34=64|52=20240205-10:26:39|10=046|
2024-02-05 11:27:08.753 [38] [FixSender] (DEBUG) Receiving 8=FIX.4.4|9=61|35=0|34=69|49=DMA_HUB|56=FIXCLIENT1|52=20240205-10:27:08.741|10=245|
2024-02-05 11:27:09.867 [39] [FixSender] (DEBUG) Sending 8=FIX.4.4|9=57|35=0|49=FIXCLIENT1|56=DMA_HUB|34=65|52=20240205-10:27:09|10=045|
2024-02-05 11:27:38.681 [38] [FixSender] (DEBUG) Receiving 8=FIX.4.4|9=61|35=0|34=70|49=DMA_HUB|56=FIXCLIENT1|52=20240205-10:27:38.681|10=243|
2024-02-05 11:27:39.870 [39] [FixSender] (DEBUG) Sending 8=FIX.4.4|9=57|35=0|49=FIXCLIENT1|56=DMA_HUB|34=66|52=20240205-10:27:39|10=049|
2024-02-05 11:28:08.650 [38] [FixSender] (DEBUG) Receiving 8=FIX.4.4|9=61|35=0|34=71|49=DMA_HUB|56=FIXCLIENT1|52=20240205-10:28:08.647|10=244|
2024-02-05 11:28:09.871 [39] [FixSender] (DEBUG) Sending 8=FIX.4.4|9=57|35=0|49=FIXCLIENT1|56=DMA_HUB|34=67|52=20240205-10:28:09|10=048|
2024-02-05 11:28:38.627 [38] [FixSender] (DEBUG) Receiving 8=FIX.4.4|9=61|35=0|34=72|49=DMA_HUB|56=FIXCLIENT1|52=20240205-10:28:38.610|10=238|
2024-02-05 11:28:39.872 [39] [FixSender] (DEBUG) Sending 8=FIX.4.4|9=57|35=0|49=FIXCLIENT1|56=DMA_HUB|34=68|52=20240205-10:28:39|10=052|
2024-02-05 11:29:08.606 [38] [FixSender] (DEBUG) Receiving 8=FIX.4.4|9=61|35=0|34=73|49=DMA_HUB|56=FIXCLIENT1|52=20240205-10:29:08.606|10=242|
2024-02-05 11:29:09.872 [39] [FixSender] (DEBUG) Sending 8=FIX.4.4|9=57|35=0|49=FIXCLIENT1|56=DMA_HUB|34=69|52=20240205-10:29:09|10=051|
2024-02-05 11:29:38.565 [38] [FixSender] (DEBUG) Receiving 8=FIX.4.4|9=61|35=0|34=74|49=DMA_HUB|56=FIXCLIENT1|52=20240205-10:29:38.565|10=250|
2024-02-05 11:29:39.875 [39] [FixSender] (DEBUG) Sending 8=FIX.4.4|9=57|35=0|49=FIXCLIENT1|56=DMA_HUB|34=70|52=20240205-10:29:39|10=046|
2024-02-05 11:30:08.510 [38] [FixSender] (DEBUG) Receiving 8=FIX.4.4|9=61|35=0|34=75|49=DMA_HUB|56=FIXCLIENT1|52=20240205-10:30:08.509|10=238|
2024-02-05 11:30:09.876 [39] [FixSender] (DEBUG) Sending 8=FIX.4.4|9=57|35=0|49=FIXCLIENT1|56=DMA_HUB|34=71|52=20240205-10:30:09|10=036|
2024-02-05 11:30:38.459 [38] [FixSender] (DEBUG) Receiving 8=FIX.4.4|9=61|35=0|34=76|49=DMA_HUB|56=FIXCLIENT1|52=20240205-10:30:38.458|10=245|
2024-02-05 11:30:39.878 [39] [FixSender] (DEBUG) Sending 8=FIX.4.4|9=57|35=0|49=FIXCLIENT1|56=DMA_HUB|34=72|52=20240205-10:30:39|10=040|
2024-02-05 11:31:08.422 [38] [FixSender] (DEBUG) Receiving 8=FIX.4.4|9=61|35=0|34=77|49=DMA_HUB|56=FIXCLIENT1|52=20240205-10:31:08.421|10=234|
2024-02-05 11:31:09.881 [39] [FixSender] (DEBUG) Sending 8=FIX.4.4|9=57|35=0|49=FIXCLIENT1|56=DMA_HUB|34=73|52=20240205-10:31:09|10=039|
2024-02-05 11:31:38.367 [38] [FixSender] (DEBUG) Receiving 8=FIX.4.4|9=61|35=0|34=78|49=DMA_HUB|56=FIXCLIENT1|52=20240205-10:31:38.367|10=247|
2024-02-05 11:31:39.885 [39] [FixSender] (DEBUG) Sending 8=FIX.4.4|9=57|35=0|49=FIXCLIENT1|56=DMA_HUB|34=74|52=20240205-10:31:39|10=043|
2024-02-05 11:32:08.325 [38] [FixSender] (DEBUG) Receiving 8=FIX.4.4|9=61|35=0|34=79|49=DMA_HUB|56=FIXCLIENT1|52=20240205-10:32:08.324|10=239|
2024-02-05 11:32:09.887 [39] [FixSender] (DEBUG) Sending 8=FIX.4.4|9=57|35=0|49=FIXCLIENT1|56=DMA_HUB|34=75|52=20240205-10:32:09|10=042|
2024-02-05 11:32:38.274 [38] [FixSender] (DEBUG) Receiving 8=FIX.4.4|9=61|35=0|34=80|49=DMA_HUB|56=FIXCLIENT1|52=20240205-10:32:38.273|10=237|
2024-02-05 11:32:39.888 [39] [FixSender] (DEBUG) Sending 8=FIX.4.4|9=57|35=0|49=FIXCLIENT1|56=DMA_HUB|34=76|52=20240205-10:32:39|10=046|
2024-02-05 11:33:08.222 [38] [FixSender] (DEBUG) Receiving 8=FIX.4.4|9=61|35=0|34=81|49=DMA_HUB|56=FIXCLIENT1|52=20240205-10:33:08.221|10=229|
2024-02-05 11:33:09.890 [39] [FixSender] (DEBUG) Sending 8=FIX.4.4|9=57|35=0|49=FIXCLIENT1|56=DMA_HUB|34=77|52=20240205-10:33:09|10=045|
2024-02-05 11:33:38.179 [38] [FixSender] (DEBUG) Receiving 8=FIX.4.4|9=61|35=0|34=82|49=DMA_HUB|56=FIXCLIENT1|52=20240205-10:33:38.178|10=244|
2024-02-05 11:33:39.892 [39] [FixSender] (DEBUG) Sending 8=FIX.4.4|9=57|35=0|49=FIXCLIENT1|56=DMA_HUB|34=78|52=20240205-10:33:39|10=049|
2024-02-05 11:34:08.134 [38] [FixSender] (DEBUG) Receiving 8=FIX.4.4|9=61|35=0|34=83|49=DMA_HUB|56=FIXCLIENT1|52=20240205-10:34:08.133|10=234|
2024-02-05 11:34:09.892 [39] [FixSender] (DEBUG) Sending 8=FIX.4.4|9=57|35=0|49=FIXCLIENT1|56=DMA_HUB|34=79|52=20240205-10:34:09|10=048|
2024-02-05 11:34:38.074 [38] [FixSender] (DEBUG) Receiving 8=FIX.4.4|9=61|35=0|34=84|49=DMA_HUB|56=FIXCLIENT1|52=20240205-10:34:38.073|10=241|
2024-02-05 11:34:39.894 [39] [FixSender] (DEBUG) Sending 8=FIX.4.4|9=57|35=0|49=FIXCLIENT1|56=DMA_HUB|34=80|52=20240205-10:34:39|10=043|
2024-02-05 11:35:08.030 [38] [FixSender] (DEBUG) Receiving 8=FIX.4.4|9=61|35=0|34=85|49=DMA_HUB|56=FIXCLIENT1|52=20240205-10:35:08.029|10=241|
2024-02-05 11:35:09.896 [39] [FixSender] (DEBUG) Sending 8=FIX.4.4|9=57|35=0|49=FIXCLIENT1|56=DMA_HUB|34=81|52=20240205-10:35:09|10=042|
2024-02-05 11:35:37.979 [38] [FixSender] (DEBUG) Receiving 8=FIX.4.4|9=61|35=0|34=86|49=DMA_HUB|56=FIXCLIENT1|52=20240205-10:35:37.978|10=001|
2024-02-05 11:35:39.908 [39] [FixSender] (DEBUG) Sending 8=FIX.4.4|9=57|35=0|49=FIXCLIENT1|56=DMA_HUB|34=82|52=20240205-10:35:39|10=046|
2024-02-05 11:36:07.933 [38] [FixSender] (DEBUG) Receiving 8=FIX.4.4|9=61|35=0|34=87|49=DMA_HUB|56=FIXCLIENT1|52=20240205-10:36:07.932|10=246|
2024-02-05 11:36:09.909 [39] [FixSender] (DEBUG) Sending 8=FIX.4.4|9=57|35=0|49=FIXCLIENT1|56=DMA_HUB|34=83|52=20240205-10:36:09|10=045|
2024-02-05 11:36:37.885 [38] [FixSender] (DEBUG) Receiving 8=FIX.4.4|9=61|35=0|34=88|49=DMA_HUB|56=FIXCLIENT1|52=20240205-10:36:37.884|10=000|
2024-02-05 11:36:39.913 [39] [FixSender] (DEBUG) Sending 8=FIX.4.4|9=57|35=0|49=FIXCLIENT1|56=DMA_HUB|34=84|52=20240205-10:36:39|10=049|
2024-02-05 11:37:07.833 [38] [FixSender] (DEBUG) Receiving 8=FIX.4.4|9=61|35=0|34=89|49=DMA_HUB|56=FIXCLIENT1|52=20240205-10:37:07.832|10=248|
2024-02-05 11:37:09.914 [39] [FixSender] (DEBUG) Sending 8=FIX.4.4|9=57|35=0|49=FIXCLIENT1|56=DMA_HUB|34=85|52=20240205-10:37:09|10=048|
2024-02-05 11:37:37.798 [38] [FixSender] (DEBUG) Receiving 8=FIX.4.4|9=61|35=0|34=90|49=DMA_HUB|56=FIXCLIENT1|52=20240205-10:37:37.798|10=254|
2024-02-05 11:37:39.917 [39] [FixSender] (DEBUG) Sending 8=FIX.4.4|9=57|35=0|49=FIXCLIENT1|56=DMA_HUB|34=86|52=20240205-10:37:39|10=052|
2024-02-05 11:38:07.752 [38] [FixSender] (DEBUG) Receiving 8=FIX.4.4|9=61|35=0|34=91|49=DMA_HUB|56=FIXCLIENT1|52=20240205-10:38:07.750|10=241|
2024-02-05 11:38:09.919 [39] [FixSender] (DEBUG) Sending 8=FIX.4.4|9=57|35=0|49=FIXCLIENT1|56=DMA_HUB|34=87|52=20240205-10:38:09|10=051|
2024-02-05 11:38:37.692 [38] [FixSender] (DEBUG) Receiving 8=FIX.4.4|9=61|35=0|34=92|49=DMA_HUB|56=FIXCLIENT1|52=20240205-10:38:37.691|10=249|
2024-02-05 11:38:39.922 [39] [FixSender] (DEBUG) Sending 8=FIX.4.4|9=57|35=0|49=FIXCLIENT1|56=DMA_HUB|34=88|52=20240205-10:38:39|10=055|
2024-02-05 11:39:07.643 [38] [FixSender] (DEBUG) Receiving 8=FIX.4.4|9=61|35=0|34=93|49=DMA_HUB|56=FIXCLIENT1|52=20240205-10:39:07.642|10=244|
2024-02-05 11:39:09.924 [39] [FixSender] (DEBUG) Sending 8=FIX.4.4|9=57|35=0|49=FIXCLIENT1|56=DMA_HUB|34=89|52=20240205-10:39:09|10=054|
2024-02-05 11:39:37.608 [38] [FixSender] (DEBUG) Receiving 8=FIX.4.4|9=61|35=0|34=94|49=DMA_HUB|56=FIXCLIENT1|52=20240205-10:39:37.607|10=249|
2024-02-05 11:39:39.939 [39] [FixSender] (DEBUG) Sending 8=FIX.4.4|9=57|35=0|49=FIXCLIENT1|56=DMA_HUB|34=90|52=20240205-10:39:39|10=049|
2024-02-05 11:40:07.552 [38] [FixSender] (DEBUG) Receiving 8=FIX.4.4|9=61|35=0|34=95|49=DMA_HUB|56=FIXCLIENT1|52=20240205-10:40:07.551|10=237|
2024-02-05 11:40:09.941 [39] [FixSender] (DEBUG) Sending 8=FIX.4.4|9=57|35=0|49=FIXCLIENT1|56=DMA_HUB|34=91|52=20240205-10:40:09|10=039|
2024-02-05 11:40:37.505 [38] [FixSender] (DEBUG) Receiving 8=FIX.4.4|9=61|35=0|34=96|49=DMA_HUB|56=FIXCLIENT1|52=20240205-10:40:37.505|10=240|
2024-02-05 11:40:39.943 [39] [FixSender] (DEBUG) Sending 8=FIX.4.4|9=57|35=0|49=FIXCLIENT1|56=DMA_HUB|34=92|52=20240205-10:40:39|10=043|
2024-02-05 11:41:07.451 [38] [FixSender] (DEBUG) Receiving 8=FIX.4.4|9=61|35=0|34=97|49=DMA_HUB|56=FIXCLIENT1|52=20240205-10:41:07.450|10=238|
2024-02-05 11:41:09.946 [39] [FixSender] (DEBUG) Sending 8=FIX.4.4|9=57|35=0|49=FIXCLIENT1|56=DMA_HUB|34=93|52=20240205-10:41:09|10=042|
2024-02-05 11:41:37.413 [38] [FixSender] (DEBUG) Receiving 8=FIX.4.4|9=61|35=0|34=98|49=DMA_HUB|56=FIXCLIENT1|52=20240205-10:41:37.412|10=240|
2024-02-05 11:41:39.949 [39] [FixSender] (DEBUG) Sending 8=FIX.4.4|9=57|35=0|49=FIXCLIENT1|56=DMA_HUB|34=94|52=20240205-10:41:39|10=046|
2024-02-05 11:42:07.362 [38] [FixSender] (DEBUG) Receiving 8=FIX.4.4|9=61|35=0|34=99|49=DMA_HUB|56=FIXCLIENT1|52=20240205-10:42:07.361|10=242|
2024-02-05 11:42:09.951 [39] [FixSender] (DEBUG) Sending 8=FIX.4.4|9=57|35=0|49=FIXCLIENT1|56=DMA_HUB|34=95|52=20240205-10:42:09|10=045|
2024-02-05 11:42:37.313 [38] [FixSender] (DEBUG) Receiving 8=FIX.4.4|9=62|35=0|34=100|49=DMA_HUB|56=FIXCLIENT1|52=20240205-10:42:37.312|10=017|
2024-02-05 11:42:39.953 [39] [FixSender] (DEBUG) Sending 8=FIX.4.4|9=57|35=0|49=FIXCLIENT1|56=DMA_HUB|34=96|52=20240205-10:42:39|10=049|
2024-02-05 11:43:07.269 [38] [FixSender] (DEBUG) Receiving 8=FIX.4.4|9=62|35=0|34=101|49=DMA_HUB|56=FIXCLIENT1|52=20240205-10:43:07.267|10=025|
2024-02-05 11:43:09.962 [39] [FixSender] (DEBUG) Sending 8=FIX.4.4|9=57|35=0|49=FIXCLIENT1|56=DMA_HUB|34=97|52=20240205-10:43:09|10=048|
2024-02-05 11:43:37.217 [38] [FixSender] (DEBUG) Receiving 8=FIX.4.4|9=62|35=0|34=102|49=DMA_HUB|56=FIXCLIENT1|52=20240205-10:43:37.216|10=023|
2024-02-05 11:43:39.962 [39] [FixSender] (DEBUG) Sending 8=FIX.4.4|9=57|35=0|49=FIXCLIENT1|56=DMA_HUB|34=98|52=20240205-10:43:39|10=052|
2024-02-05 11:44:07.162 [38] [FixSender] (DEBUG) Receiving 8=FIX.4.4|9=62|35=0|34=103|49=DMA_HUB|56=FIXCLIENT1|52=20240205-10:44:07.161|10=021|
2024-02-05 11:44:09.963 [39] [FixSender] (DEBUG) Sending 8=FIX.4.4|9=57|35=0|49=FIXCLIENT1|56=DMA_HUB|34=99|52=20240205-10:44:09|10=051|
2024-02-05 11:44:37.121 [38] [FixSender] (DEBUG) Receiving 8=FIX.4.4|9=62|35=0|34=104|49=DMA_HUB|56=FIXCLIENT1|52=20240205-10:44:37.117|10=026|
2024-02-05 11:44:39.967 [39] [FixSender] (DEBUG) Sending 8=FIX.4.4|9=58|35=0|49=FIXCLIENT1|56=DMA_HUB|34=100|52=20240205-10:44:39|10=086|
2024-02-05 11:45:07.075 [38] [FixSender] (DEBUG) Receiving 8=FIX.4.4|9=62|35=0|34=105|49=DMA_HUB|56=FIXCLIENT1|52=20240205-10:45:07.075|10=028|
2024-02-05 11:45:09.969 [39] [FixSender] (DEBUG) Sending 8=FIX.4.4|9=58|35=0|49=FIXCLIENT1|56=DMA_HUB|34=101|52=20240205-10:45:09|10=085|
2024-02-05 11:45:37.025 [38] [FixSender] (DEBUG) Receiving 8=FIX.4.4|9=62|35=0|34=106|49=DMA_HUB|56=FIXCLIENT1|52=20240205-10:45:37.024|10=026|
2024-02-05 11:45:39.971 [39] [FixSender] (DEBUG) Sending 8=FIX.4.4|9=58|35=0|49=FIXCLIENT1|56=DMA_HUB|34=102|52=20240205-10:45:39|10=089|
2024-02-05 11:46:06.970 [38] [FixSender] (DEBUG) Receiving 8=FIX.4.4|9=62|35=0|34=107|49=DMA_HUB|56=FIXCLIENT1|52=20240205-10:46:06.969|10=042|
2024-02-05 11:46:09.971 [39] [FixSender] (DEBUG) Sending 8=FIX.4.4|9=58|35=0|49=FIXCLIENT1|56=DMA_HUB|34=103|52=20240205-10:46:09|10=088|
2024-02-05 11:46:36.932 [38] [FixSender] (DEBUG) Receiving 8=FIX.4.4|9=62|35=0|34=108|49=DMA_HUB|56=FIXCLIENT1|52=20240205-10:46:36.931|10=035|
2024-02-05 11:46:39.972 [39] [FixSender] (DEBUG) Sending 8=FIX.4.4|9=58|35=0|49=FIXCLIENT1|56=DMA_HUB|34=104|52=20240205-10:46:39|10=092|
2024-02-05 11:47:06.884 [38] [FixSender] (DEBUG) Receiving 8=FIX.4.4|9=62|35=0|34=109|49=DMA_HUB|56=FIXCLIENT1|52=20240205-10:47:06.883|10=040|
2024-02-05 11:47:09.976 [39] [FixSender] (DEBUG) Sending 8=FIX.4.4|9=58|35=0|49=FIXCLIENT1|56=DMA_HUB|34=105|52=20240205-10:47:09|10=091|
2024-02-05 11:47:36.836 [38] [FixSender] (DEBUG) Receiving 8=FIX.4.4|9=62|35=0|34=110|49=DMA_HUB|56=FIXCLIENT1|52=20240205-10:47:36.834|10=031|
2024-02-05 11:47:39.978 [39] [FixSender] (DEBUG) Sending 8=FIX.4.4|9=58|35=0|49=FIXCLIENT1|56=DMA_HUB|34=106|52=20240205-10:47:39|10=095|
2024-02-05 11:48:06.793 [38] [FixSender] (DEBUG) Receiving 8=FIX.4.4|9=62|35=0|34=111|49=DMA_HUB|56=FIXCLIENT1|52=20240205-10:48:06.791|10=032|
2024-02-05 11:48:09.980 [39] [FixSender] (DEBUG) Sending 8=FIX.4.4|9=58|35=0|49=FIXCLIENT1|56=DMA_HUB|34=107|52=20240205-10:48:09|10=094|
2024-02-05 11:48:36.733 [38] [FixSender] (DEBUG) Receiving 8=FIX.4.4|9=62|35=0|34=112|49=DMA_HUB|56=FIXCLIENT1|52=20240205-10:48:36.732|10=031|
2024-02-05 11:48:39.982 [39] [FixSender] (DEBUG) Sending 8=FIX.4.4|9=58|35=0|49=FIXCLIENT1|56=DMA_HUB|34=108|52=20240205-10:48:39|10=098|
2024-02-05 11:49:06.693 [38] [FixSender] (DEBUG) Receiving 8=FIX.4.4|9=62|35=0|34=113|49=DMA_HUB|56=FIXCLIENT1|52=20240205-10:49:06.692|10=035|
2024-02-05 11:49:09.985 [39] [FixSender] (DEBUG) Sending 8=FIX.4.4|9=58|35=0|49=FIXCLIENT1|56=DMA_HUB|34=109|52=20240205-10:49:09|10=097|
2024-02-05 11:49:36.643 [38] [FixSender] (DEBUG) Receiving 8=FIX.4.4|9=62|35=0|34=114|49=DMA_HUB|56=FIXCLIENT1|52=20240205-10:49:36.643|10=035|
2024-02-05 11:49:39.987 [39] [FixSender] (DEBUG) Sending 8=FIX.4.4|9=58|35=0|49=FIXCLIENT1|56=DMA_HUB|34=110|52=20240205-10:49:39|10=092|
2024-02-05 11:50:06.598 [38] [FixSender] (DEBUG) Receiving 8=FIX.4.4|9=62|35=0|34=115|49=DMA_HUB|56=FIXCLIENT1|52=20240205-10:50:06.597|10=033|
2024-02-05 11:50:09.988 [39] [FixSender] (DEBUG) Sending 8=FIX.4.4|9=58|35=0|49=FIXCLIENT1|56=DMA_HUB|34=111|52=20240205-10:50:09|10=082|
2024-02-05 11:50:36.545 [38] [FixSender] (DEBUG) Receiving 8=FIX.4.4|9=62|35=0|34=116|49=DMA_HUB|56=FIXCLIENT1|52=20240205-10:50:36.545|10=030|
2024-02-05 11:50:39.991 [39] [FixSender] (DEBUG) Sending 8=FIX.4.4|9=58|35=0|49=FIXCLIENT1|56=DMA_HUB|34=112|52=20240205-10:50:39|10=086|
2024-02-05 11:51:06.492 [38] [FixSender] (DEBUG) Receiving 8=FIX.4.4|9=62|35=0|34=117|49=DMA_HUB|56=FIXCLIENT1|52=20240205-10:51:06.491|10=029|
2024-02-05 11:51:09.993 [39] [FixSender] (DEBUG) Sending 8=FIX.4.4|9=58|35=0|49=FIXCLIENT1|56=DMA_HUB|34=113|52=20240205-10:51:09|10=085|
2024-02-05 11:51:36.446 [38] [FixSender] (DEBUG) Receiving 8=FIX.4.4|9=62|35=0|34=118|49=DMA_HUB|56=FIXCLIENT1|52=20240205-10:51:36.445|10=032|
2024-02-05 11:51:39.994 [39] [FixSender] (DEBUG) Sending 8=FIX.4.4|9=58|35=0|49=FIXCLIENT1|56=DMA_HUB|34=114|52=20240205-10:51:39|10=089|
2024-02-05 11:52:06.396 [38] [FixSender] (DEBUG) Receiving 8=FIX.4.4|9=62|35=0|34=119|49=DMA_HUB|56=FIXCLIENT1|52=20240205-10:52:06.395|10=035|
2024-02-05 11:52:09.997 [39] [FixSender] (DEBUG) Sending 8=FIX.4.4|9=58|35=0|49=FIXCLIENT1|56=DMA_HUB|34=115|52=20240205-10:52:09|10=088|
2024-02-05 11:52:36.345 [38] [FixSender] (DEBUG) Receiving 8=FIX.4.4|9=62|35=0|34=120|49=DMA_HUB|56=FIXCLIENT1|52=20240205-10:52:36.344|10=024|
2024-02-05 11:52:39.999 [39] [FixSender] (DEBUG) Sending 8=FIX.4.4|9=58|35=0|49=FIXCLIENT1|56=DMA_HUB|34=116|52=20240205-10:52:39|10=092|
2024-02-05 11:53:06.312 [38] [FixSender] (DEBUG) Receiving 8=FIX.4.4|9=62|35=0|34=121|49=DMA_HUB|56=FIXCLIENT1|52=20240205-10:53:06.311|10=017|
2024-02-05 11:53:10.002 [39] [FixSender] (DEBUG) Sending 8=FIX.4.4|9=58|35=0|49=FIXCLIENT1|56=DMA_HUB|34=117|52=20240205-10:53:10|10=083|
2024-02-05 11:53:36.254 [38] [FixSender] (DEBUG) Receiving 8=FIX.4.4|9=62|35=0|34=122|49=DMA_HUB|56=FIXCLIENT1|52=20240205-10:53:36.253|10=026|
2024-02-05 11:53:40.005 [39] [FixSender] (DEBUG) Sending 8=FIX.4.4|9=58|35=0|49=FIXCLIENT1|56=DMA_HUB|34=118|52=20240205-10:53:40|10=087|
2024-02-05 11:54:06.206 [38] [FixSender] (DEBUG) Receiving 8=FIX.4.4|9=62|35=0|34=123|49=DMA_HUB|56=FIXCLIENT1|52=20240205-10:54:06.206|10=023|
2024-02-05 11:54:10.007 [39] [FixSender] (DEBUG) Sending 8=FIX.4.4|9=58|35=0|49=FIXCLIENT1|56=DMA_HUB|34=119|52=20240205-10:54:10|10=086|
2024-02-05 11:54:36.154 [38] [FixSender] (DEBUG) Receiving 8=FIX.4.4|9=62|35=0|34=124|49=DMA_HUB|56=FIXCLIENT1|52=20240205-10:54:36.153|10=028|
2024-02-05 11:54:40.010 [39] [FixSender] (DEBUG) Sending 8=FIX.4.4|9=58|35=0|49=FIXCLIENT1|56=DMA_HUB|34=120|52=20240205-10:54:40|10=081|
2024-02-05 11:55:06.118 [38] [FixSender] (DEBUG) Receiving 8=FIX.4.4|9=62|35=0|34=125|49=DMA_HUB|56=FIXCLIENT1|52=20240205-10:55:06.117|10=027|
2024-02-05 11:55:10.014 [39] [FixSender] (DEBUG) Sending 8=FIX.4.4|9=58|35=0|49=FIXCLIENT1|56=DMA_HUB|34=121|52=20240205-10:55:10|10=080|
2024-02-05 11:55:36.069 [38] [FixSender] (DEBUG) Receiving 8=FIX.4.4|9=62|35=0|34=126|49=DMA_HUB|56=FIXCLIENT1|52=20240205-10:55:36.069|10=037|
2024-02-05 11:55:40.016 [39] [FixSender] (DEBUG) Sending 8=FIX.4.4|9=58|35=0|49=FIXCLIENT1|56=DMA_HUB|34=122|52=20240205-10:55:40|10=084|
2024-02-05 11:56:06.023 [38] [FixSender] (DEBUG) Receiving 8=FIX.4.4|9=62|35=0|34=127|49=DMA_HUB|56=FIXCLIENT1|52=20240205-10:56:06.022|10=025|
2024-02-05 11:56:10.019 [39] [FixSender] (DEBUG) Sending 8=FIX.4.4|9=58|35=0|49=FIXCLIENT1|56=DMA_HUB|34=123|52=20240205-10:56:10|10=083|
2024-02-05 11:56:35.967 [38] [FixSender] (DEBUG) Receiving 8=FIX.4.4|9=62|35=0|34=128|49=DMA_HUB|56=FIXCLIENT1|52=20240205-10:56:35.966|10=045|
2024-02-05 11:56:40.021 [39] [FixSender] (DEBUG) Sending 8=FIX.4.4|9=58|35=0|49=FIXCLIENT1|56=DMA_HUB|34=124|52=20240205-10:56:40|10=087|
2024-02-05 11:57:05.924 [38] [FixSender] (DEBUG) Receiving 8=FIX.4.4|9=62|35=0|34=129|49=DMA_HUB|56=FIXCLIENT1|52=20240205-10:57:05.923|10=037|
2024-02-05 11:57:10.023 [39] [FixSender] (DEBUG) Sending 8=FIX.4.4|9=58|35=0|49=FIXCLIENT1|56=DMA_HUB|34=125|52=20240205-10:57:10|10=086|
2024-02-05 11:57:35.874 [38] [FixSender] (DEBUG) Receiving 8=FIX.4.4|9=62|35=0|34=130|49=DMA_HUB|56=FIXCLIENT1|52=20240205-10:57:35.873|10=036|
2024-02-05 11:57:40.025 [39] [FixSender] (DEBUG) Sending 8=FIX.4.4|9=58|35=0|49=FIXCLIENT1|56=DMA_HUB|34=126|52=20240205-10:57:40|10=090|
2024-02-05 11:58:05.826 [38] [FixSender] (DEBUG) Receiving 8=FIX.4.4|9=62|35=0|34=131|49=DMA_HUB|56=FIXCLIENT1|52=20240205-10:58:05.824|10=031|
2024-02-05 11:58:10.027 [39] [FixSender] (DEBUG) Sending 8=FIX.4.4|9=58|35=0|49=FIXCLIENT1|56=DMA_HUB|34=127|52=20240205-10:58:10|10=089|
2024-02-05 11:58:35.775 [38] [FixSender] (DEBUG) Receiving 8=FIX.4.4|9=62|35=0|34=132|49=DMA_HUB|56=FIXCLIENT1|52=20240205-10:58:35.773|10=038|
2024-02-05 11:58:40.028 [39] [FixSender] (DEBUG) Sending 8=FIX.4.4|9=58|35=0|49=FIXCLIENT1|56=DMA_HUB|34=128|52=20240205-10:58:40|10=093|
2024-02-05 11:59:05.724 [38] [FixSender] (DEBUG) Receiving 8=FIX.4.4|9=62|35=0|34=133|49=DMA_HUB|56=FIXCLIENT1|52=20240205-10:59:05.724|10=033|
2024-02-05 11:59:10.030 [39] [FixSender] (DEBUG) Sending 8=FIX.4.4|9=58|35=0|49=FIXCLIENT1|56=DMA_HUB|34=129|52=20240205-10:59:10|10=092|
2024-02-05 11:59:35.682 [38] [FixSender] (DEBUG) Receiving 8=FIX.4.4|9=62|35=0|34=134|49=DMA_HUB|56=FIXCLIENT1|52=20240205-10:59:35.681|10=039|
2024-02-05 11:59:40.036 [39] [FixSender] (DEBUG) Sending 8=FIX.4.4|9=58|35=0|49=FIXCLIENT1|56=DMA_HUB|34=130|52=20240205-10:59:40|10=087|
2024-02-05 12:00:05.633 [38] [FixSender] (DEBUG) Receiving 8=FIX.4.4|9=62|35=0|34=135|49=DMA_HUB|56=FIXCLIENT1|52=20240205-11:00:05.632|10=020|
2024-02-05 12:00:10.038 [39] [FixSender] (DEBUG) Sending 8=FIX.4.4|9=58|35=0|49=FIXCLIENT1|56=DMA_HUB|34=131|52=20240205-11:00:10|10=072|
2024-02-05 12:00:35.583 [38] [FixSender] (DEBUG) Receiving 8=FIX.4.4|9=62|35=0|34=136|49=DMA_HUB|56=FIXCLIENT1|52=20240205-11:00:35.582|10=028|
2024-02-05 12:00:40.041 [39] [FixSender] (DEBUG) Sending 8=FIX.4.4|9=58|35=0|49=FIXCLIENT1|56=DMA_HUB|34=132|52=20240205-11:00:40|10=076|
2024-02-05 12:01:05.534 [38] [FixSender] (DEBUG) Receiving 8=FIX.4.4|9=62|35=0|34=137|49=DMA_HUB|56=FIXCLIENT1|52=20240205-11:01:05.533|10=023|
2024-02-05 12:01:10.042 [39] [FixSender] (DEBUG) Sending 8=FIX.4.4|9=58|35=0|49=FIXCLIENT1|56=DMA_HUB|34=133|52=20240205-11:01:10|10=075|
2024-02-05 12:01:35.494 [38] [FixSender] (DEBUG) Receiving 8=FIX.4.4|9=62|35=0|34=138|49=DMA_HUB|56=FIXCLIENT1|52=20240205-11:01:35.493|10=032|
2024-02-05 12:01:40.045 [39] [FixSender] (DEBUG) Sending 8=FIX.4.4|9=58|35=0|49=FIXCLIENT1|56=DMA_HUB|34=134|52=20240205-11:01:40|10=079|
2024-02-05 12:02:05.443 [38] [FixSender] (DEBUG) Receiving 8=FIX.4.4|9=62|35=0|34=139|49=DMA_HUB|56=FIXCLIENT1|52=20240205-11:02:05.443|10=026|
2024-02-05 12:02:10.048 [39] [FixSender] (DEBUG) Sending 8=FIX.4.4|9=58|35=0|49=FIXCLIENT1|56=DMA_HUB|34=135|52=20240205-11:02:10|10=078|
2024-02-05 12:02:35.390 [38] [FixSender] (DEBUG) Receiving 8=FIX.4.4|9=62|35=0|34=140|49=DMA_HUB|56=FIXCLIENT1|52=20240205-11:02:35.389|10=030|
2024-02-05 12:02:40.050 [39] [FixSender] (DEBUG) Sending 8=FIX.4.4|9=58|35=0|49=FIXCLIENT1|56=DMA_HUB|34=136|52=20240205-11:02:40|10=082|
2024-02-05 12:03:05.350 [38] [FixSender] (DEBUG) Receiving 8=FIX.4.4|9=62|35=0|34=141|49=DMA_HUB|56=FIXCLIENT1|52=20240205-11:03:05.350|10=017|
2024-02-05 12:03:10.051 [39] [FixSender] (DEBUG) Sending 8=FIX.4.4|9=58|35=0|49=FIXCLIENT1|56=DMA_HUB|34=137|52=20240205-11:03:10|10=081|
2024-02-05 12:03:35.298 [38] [FixSender] (DEBUG) Receiving 8=FIX.4.4|9=62|35=0|34=142|49=DMA_HUB|56=FIXCLIENT1|52=20240205-11:03:35.297|10=031|
2024-02-05 12:03:40.052 [39] [FixSender] (DEBUG) Sending 8=FIX.4.4|9=58|35=0|49=FIXCLIENT1|56=DMA_HUB|34=138|52=20240205-11:03:40|10=085|
2024-02-05 12:04:05.256 [38] [FixSender] (DEBUG) Receiving 8=FIX.4.4|9=62|35=0|34=143|49=DMA_HUB|56=FIXCLIENT1|52=20240205-11:04:05.255|10=024|
2024-02-05 12:04:10.053 [39] [FixSender] (DEBUG) Sending 8=FIX.4.4|9=58|35=0|49=FIXCLIENT1|56=DMA_HUB|34=139|52=20240205-11:04:10|10=084|
2024-02-05 12:04:35.194 [38] [FixSender] (DEBUG) Receiving 8=FIX.4.4|9=62|35=0|34=144|49=DMA_HUB|56=FIXCLIENT1|52=20240205-11:04:35.194|10=030|
2024-02-05 12:04:40.056 [39] [FixSender] (DEBUG) Sending 8=FIX.4.4|9=58|35=0|49=FIXCLIENT1|56=DMA_HUB|34=140|52=20240205-11:04:40|10=079|
2024-02-05 12:05:05.151 [38] [FixSender] (DEBUG) Receiving 8=FIX.4.4|9=62|35=0|34=145|49=DMA_HUB|56=FIXCLIENT1|52=20240205-11:05:05.151|10=022|
2024-02-05 12:05:10.057 [39] [FixSender] (DEBUG) Sending 8=FIX.4.4|9=58|35=0|49=FIXCLIENT1|56=DMA_HUB|34=141|52=20240205-11:05:10|10=078|
2024-02-05 12:05:35.098 [38] [FixSender] (DEBUG) Receiving 8=FIX.4.4|9=62|35=0|34=146|49=DMA_HUB|56=FIXCLIENT1|52=20240205-11:05:35.097|10=035|
2024-02-05 12:05:40.058 [39] [FixSender] (DEBUG) Sending 8=FIX.4.4|9=58|35=0|49=FIXCLIENT1|56=DMA_HUB|34=142|52=20240205-11:05:40|10=082|
2024-02-05 12:06:05.054 [38] [FixSender] (DEBUG) Receiving 8=FIX.4.4|9=62|35=0|34=147|49=DMA_HUB|56=FIXCLIENT1|52=20240205-11:06:05.053|10=026|
2024-02-05 12:06:10.059 [39] [FixSender] (DEBUG) Sending 8=FIX.4.4|9=58|35=0|49=FIXCLIENT1|56=DMA_HUB|34=143|52=20240205-11:06:10|10=081|
2024-02-05 12:06:35.005 [38] [FixSender] (DEBUG) Receiving 8=FIX.4.4|9=62|35=0|34=148|49=DMA_HUB|56=FIXCLIENT1|52=20240205-11:06:35.004|10=026|
2024-02-05 12:06:40.060 [39] [FixSender] (DEBUG) Sending 8=FIX.4.4|9=58|35=0|49=FIXCLIENT1|56=DMA_HUB|34=144|52=20240205-11:06:40|10=085|
2024-02-05 12:07:04.960 [38] [FixSender] (DEBUG) Receiving 8=FIX.4.4|9=62|35=0|34=149|49=DMA_HUB|56=FIXCLIENT1|52=20240205-11:07:04.960|10=035|
2024-02-05 12:07:10.068 [39] [FixSender] (DEBUG) Sending 8=FIX.4.4|9=58|35=0|49=FIXCLIENT1|56=DMA_HUB|34=145|52=20240205-11:07:10|10=084|
2024-02-05 12:07:34.907 [38] [FixSender] (DEBUG) Receiving 8=FIX.4.4|9=62|35=0|34=150|49=DMA_HUB|56=FIXCLIENT1|52=20240205-11:07:34.906|10=030|
2024-02-05 12:07:40.069 [39] [FixSender] (DEBUG) Sending 8=FIX.4.4|9=58|35=0|49=FIXCLIENT1|56=DMA_HUB|34=146|52=20240205-11:07:40|10=088|
2024-02-05 12:08:04.866 [38] [FixSender] (DEBUG) Receiving 8=FIX.4.4|9=62|35=0|34=151|49=DMA_HUB|56=FIXCLIENT1|52=20240205-11:08:04.865|10=033|
2024-02-05 12:08:10.071 [39] [FixSender] (DEBUG) Sending 8=FIX.4.4|9=58|35=0|49=FIXCLIENT1|56=DMA_HUB|34=147|52=20240205-11:08:10|10=087|
2024-02-05 12:08:34.820 [38] [FixSender] (DEBUG) Receiving 8=FIX.4.4|9=62|35=0|34=152|49=DMA_HUB|56=FIXCLIENT1|52=20240205-11:08:34.819|10=036|
2024-02-05 12:08:40.073 [39] [FixSender] (DEBUG) Sending 8=FIX.4.4|9=58|35=0|49=FIXCLIENT1|56=DMA_HUB|34=148|52=20240205-11:08:40|10=091|
2024-02-05 12:09:04.774 [38] [FixSender] (DEBUG) Receiving 8=FIX.4.4|9=62|35=0|34=153|49=DMA_HUB|56=FIXCLIENT1|52=20240205-11:09:04.772|10=033|
2024-02-05 12:09:10.073 [39] [FixSender] (DEBUG) Sending 8=FIX.4.4|9=58|35=0|49=FIXCLIENT1|56=DMA_HUB|34=149|52=20240205-11:09:10|10=090|
2024-02-05 12:09:34.725 [38] [FixSender] (DEBUG) Receiving 8=FIX.4.4|9=62|35=0|34=154|49=DMA_HUB|56=FIXCLIENT1|52=20240205-11:09:34.724|10=034|
2024-02-05 12:09:40.074 [39] [FixSender] (DEBUG) Sending 8=FIX.4.4|9=58|35=0|49=FIXCLIENT1|56=DMA_HUB|34=150|52=20240205-11:09:40|10=085|
2024-02-05 12:10:04.678 [38] [FixSender] (DEBUG) Receiving 8=FIX.4.4|9=62|35=0|34=155|49=DMA_HUB|56=FIXCLIENT1|52=20240205-11:10:04.678|10=032|
2024-02-05 12:10:10.083 [39] [FixSender] (DEBUG) Sending 8=FIX.4.4|9=58|35=0|49=FIXCLIENT1|56=DMA_HUB|34=151|52=20240205-11:10:10|10=075|
2024-02-05 12:10:34.620 [38] [FixSender] (DEBUG) Receiving 8=FIX.4.4|9=62|35=0|34=156|49=DMA_HUB|56=FIXCLIENT1|52=20240205-11:10:34.619|10=031|
2024-02-05 12:10:40.085 [39] [FixSender] (DEBUG) Sending 8=FIX.4.4|9=58|35=0|49=FIXCLIENT1|56=DMA_HUB|34=152|52=20240205-11:10:40|10=079|
2024-02-05 12:11:04.570 [38] [FixSender] (DEBUG) Receiving 8=FIX.4.4|9=62|35=0|34=157|49=DMA_HUB|56=FIXCLIENT1|52=20240205-11:11:04.569|10=034|
2024-02-05 12:11:10.092 [39] [FixSender] (DEBUG) Sending 8=FIX.4.4|9=58|35=0|49=FIXCLIENT1|56=DMA_HUB|34=153|52=20240205-11:11:10|10=078|
2024-02-05 12:11:34.530 [38] [FixSender] (DEBUG) Receiving 8=FIX.4.4|9=62|35=0|34=158|49=DMA_HUB|56=FIXCLIENT1|52=20240205-11:11:34.530|10=026|
2024-02-05 12:11:40.093 [39] [FixSender] (DEBUG) Sending 8=FIX.4.4|9=58|35=0|49=FIXCLIENT1|56=DMA_HUB|34=154|52=20240205-11:11:40|10=082|
2024-02-05 12:12:04.482 [38] [FixSender] (DEBUG) Receiving 8=FIX.4.4|9=62|35=0|34=159|49=DMA_HUB|56=FIXCLIENT1|52=20240205-11:12:04.482|10=031|
2024-02-05 12:12:10.097 [39] [FixSender] (DEBUG) Sending 8=FIX.4.4|9=58|35=0|49=FIXCLIENT1|56=DMA_HUB|34=155|52=20240205-11:12:10|10=081|
2024-02-05 12:12:34.432 [38] [FixSender] (DEBUG) Receiving 8=FIX.4.4|9=62|35=0|34=160|49=DMA_HUB|56=FIXCLIENT1|52=20240205-11:12:34.431|10=020|
2024-02-05 12:12:40.100 [39] [FixSender] (DEBUG) Sending 8=FIX.4.4|9=58|35=0|49=FIXCLIENT1|56=DMA_HUB|34=156|52=20240205-11:12:40|10=085|
2024-02-05 12:13:04.389 [38] [FixSender] (DEBUG) Receiving 8=FIX.4.4|9=62|35=0|34=161|49=DMA_HUB|56=FIXCLIENT1|52=20240205-11:13:04.389|10=031|
2024-02-05 12:13:10.105 [39] [FixSender] (DEBUG) Sending 8=FIX.4.4|9=58|35=0|49=FIXCLIENT1|56=DMA_HUB|34=157|52=20240205-11:13:10|10=084|
2024-02-05 12:13:34.336 [38] [FixSender] (DEBUG) Receiving 8=FIX.4.4|9=62|35=0|34=162|49=DMA_HUB|56=FIXCLIENT1|52=20240205-11:13:34.336|10=027|
2024-02-05 12:13:40.107 [39] [FixSender] (DEBUG) Sending 8=FIX.4.4|9=58|35=0|49=FIXCLIENT1|56=DMA_HUB|34=158|52=20240205-11:13:40|10=088|
2024-02-05 12:14:04.282 [38] [FixSender] (DEBUG) Receiving 8=FIX.4.4|9=62|35=0|34=163|49=DMA_HUB|56=FIXCLIENT1|52=20240205-11:14:04.282|10=026|
2024-02-05 12:14:10.110 [39] [FixSender] (DEBUG) Sending 8=FIX.4.4|9=58|35=0|49=FIXCLIENT1|56=DMA_HUB|34=159|52=20240205-11:14:10|10=087|
2024-02-05 12:14:34.246 [38] [FixSender] (DEBUG) Receiving 8=FIX.4.4|9=62|35=0|34=164|49=DMA_HUB|56=FIXCLIENT1|52=20240205-11:14:34.245|10=029|
2024-02-05 12:14:40.114 [39] [FixSender] (DEBUG) Sending 8=FIX.4.4|9=58|35=0|49=FIXCLIENT1|56=DMA_HUB|34=160|52=20240205-11:14:40|10=082|
2024-02-05 12:15:04.190 [38] [FixSender] (DEBUG) Receiving 8=FIX.4.4|9=62|35=0|34=165|49=DMA_HUB|56=FIXCLIENT1|52=20240205-11:15:04.189|10=035|
2024-02-05 12:15:10.116 [39] [FixSender] (DEBUG) Sending 8=FIX.4.4|9=58|35=0|49=FIXCLIENT1|56=DMA_HUB|34=161|52=20240205-11:15:10|10=081|
2024-02-05 12:15:34.142 [38] [FixSender] (DEBUG) Receiving 8=FIX.4.4|9=62|35=0|34=166|49=DMA_HUB|56=FIXCLIENT1|52=20240205-11:15:34.141|10=027|
2024-02-05 12:15:40.117 [39] [FixSender] (DEBUG) Sending 8=FIX.4.4|9=58|35=0|49=FIXCLIENT1|56=DMA_HUB|34=162|52=20240205-11:15:40|10=085|
2024-02-05 12:16:04.097 [38] [FixSender] (DEBUG) Receiving 8=FIX.4.4|9=62|35=0|34=167|49=DMA_HUB|56=FIXCLIENT1|52=20240205-11:16:04.096|10=035|
2024-02-05 12:16:10.121 [39] [FixSender] (DEBUG) Sending 8=FIX.4.4|9=58|35=0|49=FIXCLIENT1|56=DMA_HUB|34=163|52=20240205-11:16:10|10=084|
2024-02-05 12:16:34.052 [38] [FixSender] (DEBUG) Receiving 8=FIX.4.4|9=62|35=0|34=168|49=DMA_HUB|56=FIXCLIENT1|52=20240205-11:16:34.051|10=030|
2024-02-05 12:16:40.121 [39] [FixSender] (DEBUG) Sending 8=FIX.4.4|9=58|35=0|49=FIXCLIENT1|56=DMA_HUB|34=164|52=20240205-11:16:40|10=088|
2024-02-05 12:17:03.996 [38] [FixSender] (DEBUG) Receiving 8=FIX.4.4|9=62|35=0|34=169|49=DMA_HUB|56=FIXCLIENT1|52=20240205-11:17:03.996|10=046|
2024-02-05 12:17:10.123 [39] [FixSender] (DEBUG) Sending 8=FIX.4.4|9=58|35=0|49=FIXCLIENT1|56=DMA_HUB|34=165|52=20240205-11:17:10|10=087|
2024-02-05 12:17:33.950 [38] [FixSender] (DEBUG) Receiving 8=FIX.4.4|9=62|35=0|34=170|49=DMA_HUB|56=FIXCLIENT1|52=20240205-11:17:33.949|10=039|
2024-02-05 12:17:40.123 [39] [FixSender] (DEBUG) Sending 8=FIX.4.4|9=58|35=0|49=FIXCLIENT1|56=DMA_HUB|34=166|52=20240205-11:17:40|10=091|
2024-02-05 12:18:03.906 [38] [FixSender] (DEBUG) Receiving 8=FIX.4.4|9=62|35=0|34=171|49=DMA_HUB|56=FIXCLIENT1|52=20240205-11:18:03.905|10=030|
2024-02-05 12:18:10.124 [39] [FixSender] (DEBUG) Sending 8=FIX.4.4|9=58|35=0|49=FIXCLIENT1|56=DMA_HUB|34=167|52=20240205-11:18:10|10=090|
2024-02-05 12:18:33.852 [38] [FixSender] (DEBUG) Receiving 8=FIX.4.4|9=62|35=0|34=172|49=DMA_HUB|56=FIXCLIENT1|52=20240205-11:18:33.851|10=034|
2024-02-05 12:18:40.127 [39] [FixSender] (DEBUG) Sending 8=FIX.4.4|9=58|35=0|49=FIXCLIENT1|56=DMA_HUB|34=168|52=20240205-11:18:40|10=094|
2024-02-05 12:19:03.807 [38] [FixSender] (DEBUG) Receiving 8=FIX.4.4|9=62|35=0|34=173|49=DMA_HUB|56=FIXCLIENT1|52=20240205-11:19:03.806|10=033|
2024-02-05 12:19:10.127 [39] [FixSender] (DEBUG) Sending 8=FIX.4.4|9=58|35=0|49=FIXCLIENT1|56=DMA_HUB|34=169|52=20240205-11:19:10|10=093|
2024-02-05 12:19:33.761 [38] [FixSender] (DEBUG) Receiving 8=FIX.4.4|9=62|35=0|34=174|49=DMA_HUB|56=FIXCLIENT1|52=20240205-11:19:33.761|10=037|
2024-02-05 12:19:40.129 [39] [FixSender] (DEBUG) Sending 8=FIX.4.4|9=58|35=0|49=FIXCLIENT1|56=DMA_HUB|34=170|52=20240205-11:19:40|10=088|
2024-02-05 12:20:03.715 [38] [FixSender] (DEBUG) Receiving 8=FIX.4.4|9=62|35=0|34=175|49=DMA_HUB|56=FIXCLIENT1|52=20240205-11:20:03.714|10=025|
2024-02-05 12:20:10.130 [39] [FixSender] (DEBUG) Sending 8=FIX.4.4|9=58|35=0|49=FIXCLIENT1|56=DMA_HUB|34=171|52=20240205-11:20:10|10=078|
2024-02-05 12:20:33.663 [38] [FixSender] (DEBUG) Receiving 8=FIX.4.4|9=62|35=0|34=176|49=DMA_HUB|56=FIXCLIENT1|52=20240205-11:20:33.662|10=031|
2024-02-05 12:20:40.131 [39] [FixSender] (DEBUG) Sending 8=FIX.4.4|9=58|35=0|49=FIXCLIENT1|56=DMA_HUB|34=172|52=20240205-11:20:40|10=082|
2024-02-05 12:21:03.623 [38] [FixSender] (DEBUG) Receiving 8=FIX.4.4|9=62|35=0|34=177|49=DMA_HUB|56=FIXCLIENT1|52=20240205-11:21:03.622|10=026|
2024-02-05 12:21:10.133 [39] [FixSender] (DEBUG) Sending 8=FIX.4.4|9=58|35=0|49=FIXCLIENT1|56=DMA_HUB|34=173|52=20240205-11:21:10|10=081|
2024-02-05 12:21:33.564 [38] [FixSender] (DEBUG) Receiving 8=FIX.4.4|9=62|35=0|34=178|49=DMA_HUB|56=FIXCLIENT1|52=20240205-11:21:33.564|10=035|
2024-02-05 12:21:40.142 [39] [FixSender] (DEBUG) Sending 8=FIX.4.4|9=58|35=0|49=FIXCLIENT1|56=DMA_HUB|34=174|52=20240205-11:21:40|10=085|
2024-02-05 12:22:03.515 [38] [FixSender] (DEBUG) Receiving 8=FIX.4.4|9=62|35=0|34=179|49=DMA_HUB|56=FIXCLIENT1|52=20240205-11:22:03.513|10=028|
2024-02-05 12:22:10.143 [39] [FixSender] (DEBUG) Sending 8=FIX.4.4|9=58|35=0|49=FIXCLIENT1|56=DMA_HUB|34=175|52=20240205-11:22:10|10=084|
2024-02-05 12:22:33.471 [38] [FixSender] (DEBUG) Receiving 8=FIX.4.4|9=62|35=0|34=180|49=DMA_HUB|56=FIXCLIENT1|52=20240205-11:22:33.469|10=033|
2024-02-05 12:22:40.145 [39] [FixSender] (DEBUG) Sending 8=FIX.4.4|9=58|35=0|49=FIXCLIENT1|56=DMA_HUB|34=176|52=20240205-11:22:40|10=088|
2024-02-05 12:23:03.423 [38] [FixSender] (DEBUG) Receiving 8=FIX.4.4|9=62|35=0|34=181|49=DMA_HUB|56=FIXCLIENT1|52=20240205-11:23:03.422|10=021|
2024-02-05 12:23:10.148 [39] [FixSender] (DEBUG) Sending 8=FIX.4.4|9=58|35=0|49=FIXCLIENT1|56=DMA_HUB|34=177|52=20240205-11:23:10|10=087|
2024-02-05 12:23:33.371 [38] [FixSender] (DEBUG) Receiving 8=FIX.4.4|9=62|35=0|34=182|49=DMA_HUB|56=FIXCLIENT1|52=20240205-11:23:33.370|10=027|
2024-02-05 12:23:40.148 [39] [FixSender] (DEBUG) Sending 8=FIX.4.4|9=58|35=0|49=FIXCLIENT1|56=DMA_HUB|34=178|52=20240205-11:23:40|10=091|
2024-02-05 12:24:03.334 [38] [FixSender] (DEBUG) Receiving 8=FIX.4.4|9=62|35=0|34=183|49=DMA_HUB|56=FIXCLIENT1|52=20240205-11:24:03.333|10=025|
2024-02-05 12:24:10.152 [39] [FixSender] (DEBUG) Sending 8=FIX.4.4|9=58|35=0|49=FIXCLIENT1|56=DMA_HUB|34=179|52=20240205-11:24:10|10=090|
2024-02-05 12:24:33.285 [38] [FixSender] (DEBUG) Receiving 8=FIX.4.4|9=62|35=0|34=184|49=DMA_HUB|56=FIXCLIENT1|52=20240205-11:24:33.284|10=034|
2024-02-05 12:24:40.153 [39] [FixSender] (DEBUG) Sending 8=FIX.4.4|9=58|35=0|49=FIXCLIENT1|56=DMA_HUB|34=180|52=20240205-11:24:40|10=085|
2024-02-05 12:25:03.237 [38] [FixSender] (DEBUG) Receiving 8=FIX.4.4|9=62|35=0|34=185|49=DMA_HUB|56=FIXCLIENT1|52=20240205-11:25:03.236|10=030|
2024-02-05 12:25:10.156 [39] [FixSender] (DEBUG) Sending 8=FIX.4.4|9=58|35=0|49=FIXCLIENT1|56=DMA_HUB|34=181|52=20240205-11:25:10|10=084|
2024-02-05 12:25:33.182 [38] [FixSender] (DEBUG) Receiving 8=FIX.4.4|9=62|35=0|34=186|49=DMA_HUB|56=FIXCLIENT1|52=20240205-11:25:33.182|10=034|
2024-02-05 12:25:40.166 [39] [FixSender] (DEBUG) Sending 8=FIX.4.4|9=58|35=0|49=FIXCLIENT1|56=DMA_HUB|34=182|52=20240205-11:25:40|10=088|
2024-02-05 12:26:03.142 [38] [FixSender] (DEBUG) Receiving 8=FIX.4.4|9=62|35=0|34=187|49=DMA_HUB|56=FIXCLIENT1|52=20240205-11:26:03.141|10=028|
2024-02-05 12:26:10.167 [39] [FixSender] (DEBUG) Sending 8=FIX.4.4|9=58|35=0|49=FIXCLIENT1|56=DMA_HUB|34=183|52=20240205-11:26:10|10=087|
2024-02-05 12:26:33.091 [38] [FixSender] (DEBUG) Receiving 8=FIX.4.4|9=62|35=0|34=188|49=DMA_HUB|56=FIXCLIENT1|52=20240205-11:26:33.090|10=035|
2024-02-05 12:26:40.169 [39] [FixSender] (DEBUG) Sending 8=FIX.4.4|9=58|35=0|49=FIXCLIENT1|56=DMA_HUB|34=184|52=20240205-11:26:40|10=091|
2024-02-05 12:27:03.037 [38] [FixSender] (DEBUG) Receiving 8=FIX.4.4|9=62|35=0|34=189|49=DMA_HUB|56=FIXCLIENT1|52=20240205-11:27:03.036|10=034|
2024-02-05 12:27:10.172 [39] [FixSender] (DEBUG) Sending 8=FIX.4.4|9=58|35=0|49=FIXCLIENT1|56=DMA_HUB|34=185|52=20240205-11:27:10|10=090|
2024-02-05 12:27:32.988 [38] [FixSender] (DEBUG) Receiving 8=FIX.4.4|9=62|35=0|34=190|49=DMA_HUB|56=FIXCLIENT1|52=20240205-11:27:32.987|10=043|
2024-02-05 12:27:40.174 [39] [FixSender] (DEBUG) Sending 8=FIX.4.4|9=58|35=0|49=FIXCLIENT1|56=DMA_HUB|34=186|52=20240205-11:27:40|10=094|
2024-02-05 12:28:02.951 [38] [FixSender] (DEBUG) Receiving 8=FIX.4.4|9=62|35=0|34=191|49=DMA_HUB|56=FIXCLIENT1|52=20240205-11:28:02.950|10=032|
2024-02-05 12:28:10.177 [39] [FixSender] (DEBUG) Sending 8=FIX.4.4|9=58|35=0|49=FIXCLIENT1|56=DMA_HUB|34=187|52=20240205-11:28:10|10=093|
2024-02-05 12:28:32.896 [38] [FixSender] (DEBUG) Receiving 8=FIX.4.4|9=62|35=0|34=192|49=DMA_HUB|56=FIXCLIENT1|52=20240205-11:28:32.895|10=044|
2024-02-05 12:28:40.178 [39] [FixSender] (DEBUG) Sending 8=FIX.4.4|9=58|35=0|49=FIXCLIENT1|56=DMA_HUB|34=188|52=20240205-11:28:40|10=097|
2024-02-05 12:29:02.849 [38] [FixSender] (DEBUG) Receiving 8=FIX.4.4|9=62|35=0|34=193|49=DMA_HUB|56=FIXCLIENT1|52=20240205-11:29:02.847|10=040|
2024-02-05 12:29:10.182 [39] [FixSender] (DEBUG) Sending 8=FIX.4.4|9=58|35=0|49=FIXCLIENT1|56=DMA_HUB|34=189|52=20240205-11:29:10|10=096|
2024-02-05 12:29:32.799 [38] [FixSender] (DEBUG) Receiving 8=FIX.4.4|9=62|35=0|34=194|49=DMA_HUB|56=FIXCLIENT1|52=20240205-11:29:32.799|10=050|
2024-02-05 12:29:40.184 [39] [FixSender] (DEBUG) Sending 8=FIX.4.4|9=58|35=0|49=FIXCLIENT1|56=DMA_HUB|34=190|52=20240205-11:29:40|10=091|
2024-02-05 12:30:02.756 [38] [FixSender] (DEBUG) Receiving 8=FIX.4.4|9=62|35=0|34=195|49=DMA_HUB|56=FIXCLIENT1|52=20240205-11:30:02.756|10=033|
2024-02-05 12:30:10.187 [39] [FixSender] (DEBUG) Sending 8=FIX.4.4|9=58|35=0|49=FIXCLIENT1|56=DMA_HUB|34=191|52=20240205-11:30:10|10=081|
2024-02-05 12:30:32.711 [38] [FixSender] (DEBUG) Receiving 8=FIX.4.4|9=62|35=0|34=196|49=DMA_HUB|56=FIXCLIENT1|52=20240205-11:30:32.710|10=027|
2024-02-05 12:30:40.189 [39] [FixSender] (DEBUG) Sending 8=FIX.4.4|9=58|35=0|49=FIXCLIENT1|56=DMA_HUB|34=192|52=20240205-11:30:40|10=085|
2024-02-05 12:31:02.659 [38] [FixSender] (DEBUG) Receiving 8=FIX.4.4|9=62|35=0|34=197|49=DMA_HUB|56=FIXCLIENT1|52=20240205-11:31:02.658|10=037|
2024-02-05 12:31:10.191 [39] [FixSender] (DEBUG) Sending 8=FIX.4.4|9=58|35=0|49=FIXCLIENT1|56=DMA_HUB|34=193|52=20240205-11:31:10|10=084|
2024-02-05 12:31:32.601 [38] [FixSender] (DEBUG) Receiving 8=FIX.4.4|9=62|35=0|34=198|49=DMA_HUB|56=FIXCLIENT1|52=20240205-11:31:32.600|10=028|
2024-02-05 12:31:40.194 [39] [FixSender] (DEBUG) Sending 8=FIX.4.4|9=58|35=0|49=FIXCLIENT1|56=DMA_HUB|34=194|52=20240205-11:31:40|10=088|
2024-02-05 12:32:02.560 [38] [FixSender] (DEBUG) Receiving 8=FIX.4.4|9=62|35=0|34=199|49=DMA_HUB|56=FIXCLIENT1|52=20240205-11:32:02.560|10=032|
2024-02-05 12:32:10.196 [39] [FixSender] (DEBUG) Sending 8=FIX.4.4|9=58|35=0|49=FIXCLIENT1|56=DMA_HUB|34=195|52=20240205-11:32:10|10=087|
2024-02-05 12:32:32.507 [38] [FixSender] (DEBUG) Receiving 8=FIX.4.4|9=62|35=0|34=200|49=DMA_HUB|56=FIXCLIENT1|52=20240205-11:32:32.505|10=017|
2024-02-05 12:32:40.199 [39] [FixSender] (DEBUG) Sending 8=FIX.4.4|9=58|35=0|49=FIXCLIENT1|56=DMA_HUB|34=196|52=20240205-11:32:40|10=091|
2024-02-05 12:33:02.469 [38] [FixSender] (DEBUG) Receiving 8=FIX.4.4|9=62|35=0|34=201|49=DMA_HUB|56=FIXCLIENT1|52=20240205-11:33:02.469|10=025|
2024-02-05 12:33:10.201 [39] [FixSender] (DEBUG) Sending 8=FIX.4.4|9=58|35=0|49=FIXCLIENT1|56=DMA_HUB|34=197|52=20240205-11:33:10|10=090|
2024-02-05 12:33:32.415 [38] [FixSender] (DEBUG) Receiving 8=FIX.4.4|9=62|35=0|34=202|49=DMA_HUB|56=FIXCLIENT1|52=20240205-11:33:32.414|10=019|
2024-02-05 12:33:40.204 [39] [FixSender] (DEBUG) Sending 8=FIX.4.4|9=58|35=0|49=FIXCLIENT1|56=DMA_HUB|34=198|52=20240205-11:33:40|10=094|
2024-02-05 12:34:02.367 [38] [FixSender] (DEBUG) Receiving 8=FIX.4.4|9=62|35=0|34=203|49=DMA_HUB|56=FIXCLIENT1|52=20240205-11:34:02.366|10=024|
2024-02-05 12:34:10.207 [39] [FixSender] (DEBUG) Sending 8=FIX.4.4|9=58|35=0|49=FIXCLIENT1|56=DMA_HUB|34=199|52=20240205-11:34:10|10=093|
2024-02-05 12:34:32.323 [38] [FixSender] (DEBUG) Receiving 8=FIX.4.4|9=62|35=0|34=204|49=DMA_HUB|56=FIXCLIENT1|52=20240205-11:34:32.323|10=021|
2024-02-05 12:34:40.209 [39] [FixSender] (DEBUG) Sending 8=FIX.4.4|9=58|35=0|49=FIXCLIENT1|56=DMA_HUB|34=200|52=20240205-11:34:40|10=079|
2024-02-05 12:35:02.269 [38] [FixSender] (DEBUG) Receiving 8=FIX.4.4|9=62|35=0|34=205|49=DMA_HUB|56=FIXCLIENT1|52=20240205-11:35:02.269|10=029|
2024-02-05 12:35:10.210 [39] [FixSender] (DEBUG) Sending 8=FIX.4.4|9=58|35=0|49=FIXCLIENT1|56=DMA_HUB|34=201|52=20240205-11:35:10|10=078|
2024-02-05 12:35:32.227 [38] [FixSender] (DEBUG) Receiving 8=FIX.4.4|9=62|35=0|34=206|49=DMA_HUB|56=FIXCLIENT1|52=20240205-11:35:32.226|10=026|
2024-02-05 12:35:40.212 [39] [FixSender] (DEBUG) Sending 8=FIX.4.4|9=58|35=0|49=FIXCLIENT1|56=DMA_HUB|34=202|52=20240205-11:35:40|10=082|
2024-02-05 12:36:02.180 [38] [FixSender] (DEBUG) Receiving 8=FIX.4.4|9=62|35=0|34=207|49=DMA_HUB|56=FIXCLIENT1|52=20240205-11:36:02.179|10=032|
2024-02-05 12:36:10.213 [39] [FixSender] (DEBUG) Sending 8=FIX.4.4|9=58|35=0|49=FIXCLIENT1|56=DMA_HUB|34=203|52=20240205-11:36:10|10=081|
2024-02-05 12:36:32.133 [38] [FixSender] (DEBUG) Receiving 8=FIX.4.4|9=62|35=0|34=208|49=DMA_HUB|56=FIXCLIENT1|52=20240205-11:36:32.132|10=025|
2024-02-05 12:36:40.214 [39] [FixSender] (DEBUG) Sending 8=FIX.4.4|9=58|35=0|49=FIXCLIENT1|56=DMA_HUB|34=204|52=20240205-11:36:40|10=085|
2024-02-05 12:37:02.081 [38] [FixSender] (DEBUG) Receiving 8=FIX.4.4|9=62|35=0|34=209|49=DMA_HUB|56=FIXCLIENT1|52=20240205-11:37:02.080|10=026|
2024-02-05 12:37:10.218 [39] [FixSender] (DEBUG) Sending 8=FIX.4.4|9=58|35=0|49=FIXCLIENT1|56=DMA_HUB|34=205|52=20240205-11:37:10|10=084|
2024-02-05 12:37:32.036 [38] [FixSender] (DEBUG) Receiving 8=FIX.4.4|9=62|35=0|34=210|49=DMA_HUB|56=FIXCLIENT1|52=20240205-11:37:32.035|10=021|
2024-02-05 12:37:40.221 [39] [FixSender] (DEBUG) Sending 8=FIX.4.4|9=58|35=0|49=FIXCLIENT1|56=DMA_HUB|34=206|52=20240205-11:37:40|10=088|
2024-02-05 12:38:01.982 [38] [FixSender] (DEBUG) Receiving 8=FIX.4.4|9=62|35=0|34=211|49=DMA_HUB|56=FIXCLIENT1|52=20240205-11:38:01.981|10=029|
2024-02-05 12:38:10.222 [39] [FixSender] (DEBUG) Sending 8=FIX.4.4|9=58|35=0|49=FIXCLIENT1|56=DMA_HUB|34=207|52=20240205-11:38:10|10=087|
2024-02-05 12:38:31.941 [38] [FixSender] (DEBUG) Receiving 8=FIX.4.4|9=62|35=0|34=212|49=DMA_HUB|56=FIXCLIENT1|52=20240205-11:38:31.940|10=028|
2024-02-05 12:38:40.224 [39] [FixSender] (DEBUG) Sending 8=FIX.4.4|9=58|35=0|49=FIXCLIENT1|56=DMA_HUB|34=208|52=20240205-11:38:40|10=091|
2024-02-05 12:39:01.883 [38] [FixSender] (DEBUG) Receiving 8=FIX.4.4|9=62|35=0|34=213|49=DMA_HUB|56=FIXCLIENT1|52=20240205-11:39:01.882|10=032|
2024-02-05 12:39:10.228 [39] [FixSender] (DEBUG) Sending 8=FIX.4.4|9=58|35=0|49=FIXCLIENT1|56=DMA_HUB|34=209|52=20240205-11:39:10|10=090|
2024-02-05 12:39:31.836 [38] [FixSender] (DEBUG) Receiving 8=FIX.4.4|9=62|35=0|34=214|49=DMA_HUB|56=FIXCLIENT1|52=20240205-11:39:31.835|10=034|
2024-02-05 12:39:40.231 [39] [FixSender] (DEBUG) Sending 8=FIX.4.4|9=58|35=0|49=FIXCLIENT1|56=DMA_HUB|34=210|52=20240205-11:39:40|10=085|
2024-02-05 12:40:01.800 [38] [FixSender] (DEBUG) Receiving 8=FIX.4.4|9=62|35=0|34=215|49=DMA_HUB|56=FIXCLIENT1|52=20240205-11:40:01.799|10=033|
2024-02-05 12:40:10.232 [39] [FixSender] (DEBUG) Sending 8=FIX.4.4|9=58|35=0|49=FIXCLIENT1|56=DMA_HUB|34=211|52=20240205-11:40:10|10=075|
2024-02-05 12:40:31.741 [38] [FixSender] (DEBUG) Receiving 8=FIX.4.4|9=62|35=0|34=216|49=DMA_HUB|56=FIXCLIENT1|52=20240205-11:40:31.740|10=023|
2024-02-05 12:40:40.234 [39] [FixSender] (DEBUG) Sending 8=FIX.4.4|9=58|35=0|49=FIXCLIENT1|56=DMA_HUB|34=212|52=20240205-11:40:40|10=079|
2024-02-05 12:41:01.698 [38] [FixSender] (DEBUG) Receiving 8=FIX.4.4|9=62|35=0|34=217|49=DMA_HUB|56=FIXCLIENT1|52=20240205-11:41:01.698|10=034|
2024-02-05 12:41:10.247 [39] [FixSender] (DEBUG) Sending 8=FIX.4.4|9=58|35=0|49=FIXCLIENT1|56=DMA_HUB|34=213|52=20240205-11:41:10|10=078|
2024-02-05 12:41:31.641 [38] [FixSender] (DEBUG) Receiving 8=FIX.4.4|9=62|35=0|34=218|49=DMA_HUB|56=FIXCLIENT1|52=20240205-11:41:31.641|10=026|
2024-02-05 12:41:40.249 [39] [FixSender] (DEBUG) Sending 8=FIX.4.4|9=58|35=0|49=FIXCLIENT1|56=DMA_HUB|34=214|52=20240205-11:41:40|10=082|
2024-02-05 12:42:01.598 [38] [FixSender] (DEBUG) Receiving 8=FIX.4.4|9=62|35=0|34=219|49=DMA_HUB|56=FIXCLIENT1|52=20240205-11:42:01.597|10=035|
2024-02-05 12:42:10.250 [39] [FixSender] (DEBUG) Sending 8=FIX.4.4|9=58|35=0|49=FIXCLIENT1|56=DMA_HUB|34=215|52=20240205-11:42:10|10=081|
2024-02-05 12:42:31.549 [38] [FixSender] (DEBUG) Receiving 8=FIX.4.4|9=62|35=0|34=220|49=DMA_HUB|56=FIXCLIENT1|52=20240205-11:42:31.549|10=027|
2024-02-05 12:42:40.252 [39] [FixSender] (DEBUG) Sending 8=FIX.4.4|9=58|35=0|49=FIXCLIENT1|56=DMA_HUB|34=216|52=20240205-11:42:40|10=085|
2024-02-05 12:43:01.503 [38] [FixSender] (DEBUG) Receiving 8=FIX.4.4|9=62|35=0|34=221|49=DMA_HUB|56=FIXCLIENT1|52=20240205-11:43:01.503|10=016|
2024-02-05 12:43:10.253 [39] [FixSender] (DEBUG) Sending 8=FIX.4.4|9=58|35=0|49=FIXCLIENT1|56=DMA_HUB|34=217|52=20240205-11:43:10|10=084|
2024-02-05 12:43:31.451 [38] [FixSender] (DEBUG) Receiving 8=FIX.4.4|9=62|35=0|34=222|49=DMA_HUB|56=FIXCLIENT1|52=20240205-11:43:31.451|10=022|
2024-02-05 12:43:40.254 [39] [FixSender] (DEBUG) Sending 8=FIX.4.4|9=58|35=0|49=FIXCLIENT1|56=DMA_HUB|34=218|52=20240205-11:43:40|10=088|
2024-02-05 12:44:01.412 [38] [FixSender] (DEBUG) Receiving 8=FIX.4.4|9=62|35=0|34=223|49=DMA_HUB|56=FIXCLIENT1|52=20240205-11:44:01.412|10=018|
2024-02-05 12:44:10.255 [39] [FixSender] (DEBUG) Sending 8=FIX.4.4|9=58|35=0|49=FIXCLIENT1|56=DMA_HUB|34=219|52=20240205-11:44:10|10=087|
2024-02-05 12:44:31.364 [38] [FixSender] (DEBUG) Receiving 8=FIX.4.4|9=62|35=0|34=224|49=DMA_HUB|56=FIXCLIENT1|52=20240205-11:44:31.364|10=028|
2024-02-05 12:44:40.257 [39] [FixSender] (DEBUG) Sending 8=FIX.4.4|9=58|35=0|49=FIXCLIENT1|56=DMA_HUB|34=220|52=20240205-11:44:40|10=082|
2024-02-05 12:45:01.317 [38] [FixSender] (DEBUG) Receiving 8=FIX.4.4|9=62|35=0|34=225|49=DMA_HUB|56=FIXCLIENT1|52=20240205-11:45:01.316|10=024|
2024-02-05 12:45:10.258 [39] [FixSender] (DEBUG) Sending 8=FIX.4.4|9=58|35=0|49=FIXCLIENT1|56=DMA_HUB|34=221|52=20240205-11:45:10|10=081|
2024-02-05 12:45:31.265 [38] [FixSender] (DEBUG) Receiving 8=FIX.4.4|9=62|35=0|34=226|49=DMA_HUB|56=FIXCLIENT1|52=20240205-11:45:31.265|10=031|
2024-02-05 12:45:40.259 [39] [FixSender] (DEBUG) Sending 8=FIX.4.4|9=58|35=0|49=FIXCLIENT1|56=DMA_HUB|34=222|52=20240205-11:45:40|10=085|
2024-02-05 12:46:01.212 [38] [FixSender] (DEBUG) Receiving 8=FIX.4.4|9=62|35=0|34=227|49=DMA_HUB|56=FIXCLIENT1|52=20240205-11:46:01.212|10=022|
2024-02-05 12:46:10.261 [39] [FixSender] (DEBUG) Sending 8=FIX.4.4|9=58|35=0|49=FIXCLIENT1|56=DMA_HUB|34=223|52=20240205-11:46:10|10=084|
2024-02-05 12:46:31.170 [38] [FixSender] (DEBUG) Receiving 8=FIX.4.4|9=62|35=0|34=228|49=DMA_HUB|56=FIXCLIENT1|52=20240205-11:46:31.169|10=037|
2024-02-05 12:46:40.265 [39] [FixSender] (DEBUG) Sending 8=FIX.4.4|9=58|35=0|49=FIXCLIENT1|56=DMA_HUB|34=224|52=20240205-11:46:40|10=088|
2024-02-05 12:47:01.119 [38] [FixSender] (DEBUG) Receiving 8=FIX.4.4|9=62|35=0|34=229|49=DMA_HUB|56=FIXCLIENT1|52=20240205-11:47:01.119|10=031|
2024-02-05 12:47:10.267 [39] [FixSender] (DEBUG) Sending 8=FIX.4.4|9=58|35=0|49=FIXCLIENT1|56=DMA_HUB|34=225|52=20240205-11:47:10|10=087|
2024-02-05 12:47:31.071 [38] [FixSender] (DEBUG) Receiving 8=FIX.4.4|9=62|35=0|34=230|49=DMA_HUB|56=FIXCLIENT1|52=20240205-11:47:31.070|10=022|
2024-02-05 12:47:40.270 [39] [FixSender] (DEBUG) Sending 8=FIX.4.4|9=58|35=0|49=FIXCLIENT1|56=DMA_HUB|34=226|52=20240205-11:47:40|10=091|
2024-02-05 12:48:01.021 [38] [FixSender] (DEBUG) Receiving 8=FIX.4.4|9=62|35=0|34=231|49=DMA_HUB|56=FIXCLIENT1|52=20240205-11:48:01.021|10=017|
2024-02-05 12:48:10.270 [39] [FixSender] (DEBUG) Sending 8=FIX.4.4|9=58|35=0|49=FIXCLIENT1|56=DMA_HUB|34=227|52=20240205-11:48:10|10=090|
2024-02-05 12:48:30.973 [38] [FixSender] (DEBUG) Receiving 8=FIX.4.4|9=62|35=0|34=232|49=DMA_HUB|56=FIXCLIENT1|52=20240205-11:48:30.973|10=036|
2024-02-05 12:48:40.272 [39] [FixSender] (DEBUG) Sending 8=FIX.4.4|9=58|35=0|49=FIXCLIENT1|56=DMA_HUB|34=228|52=20240205-11:48:40|10=094|
2024-02-05 12:49:00.924 [38] [FixSender] (DEBUG) Receiving 8=FIX.4.4|9=62|35=0|34=233|49=DMA_HUB|56=FIXCLIENT1|52=20240205-11:49:00.924|10=031|
2024-02-05 12:49:10.273 [39] [FixSender] (DEBUG) Sending 8=FIX.4.4|9=58|35=0|49=FIXCLIENT1|56=DMA_HUB|34=229|52=20240205-11:49:10|10=093|
2024-02-05 12:49:30.874 [38] [FixSender] (DEBUG) Receiving 8=FIX.4.4|9=62|35=0|34=234|49=DMA_HUB|56=FIXCLIENT1|52=20240205-11:49:30.874|10=039|
2024-02-05 12:49:40.274 [39] [FixSender] (DEBUG) Sending 8=FIX.4.4|9=58|35=0|49=FIXCLIENT1|56=DMA_HUB|34=230|52=20240205-11:49:40|10=088|
2024-02-05 12:50:00.827 [38] [FixSender] (DEBUG) Receiving 8=FIX.4.4|9=62|35=0|34=235|49=DMA_HUB|56=FIXCLIENT1|52=20240205-11:50:00.827|10=027|
2024-02-05 12:50:10.276 [39] [FixSender] (DEBUG) Sending 8=FIX.4.4|9=58|35=0|49=FIXCLIENT1|56=DMA_HUB|34=231|52=20240205-11:50:10|10=078|
2024-02-05 12:50:30.783 [38] [FixSender] (DEBUG) Receiving 8=FIX.4.4|9=62|35=0|34=236|49=DMA_HUB|56=FIXCLIENT1|52=20240205-11:50:30.783|10=032|
2024-02-05 12:50:40.277 [39] [FixSender] (DEBUG) Sending 8=FIX.4.4|9=58|35=0|49=FIXCLIENT1|56=DMA_HUB|34=232|52=20240205-11:50:40|10=082|
2024-02-05 12:51:00.737 [38] [FixSender] (DEBUG) Receiving 8=FIX.4.4|9=62|35=0|34=237|49=DMA_HUB|56=FIXCLIENT1|52=20240205-11:51:00.734|10=027|
2024-02-05 12:51:10.281 [39] [FixSender] (DEBUG) Sending 8=FIX.4.4|9=58|35=0|49=FIXCLIENT1|56=DMA_HUB|34=233|52=20240205-11:51:10|10=081|
2024-02-05 12:51:30.686 [38] [FixSender] (DEBUG) Receiving 8=FIX.4.4|9=62|35=0|34=238|49=DMA_HUB|56=FIXCLIENT1|52=20240205-11:51:30.685|10=036|
2024-02-05 12:51:40.285 [39] [FixSender] (DEBUG) Sending 8=FIX.4.4|9=58|35=0|49=FIXCLIENT1|56=DMA_HUB|34=234|52=20240205-11:51:40|10=085|
2024-02-05 12:52:00.641 [38] [FixSender] (DEBUG) Receiving 8=FIX.4.4|9=62|35=0|34=239|49=DMA_HUB|56=FIXCLIENT1|52=20240205-11:52:00.641|10=027|
2024-02-05 12:52:10.288 [39] [FixSender] (DEBUG) Sending 8=FIX.4.4|9=58|35=0|49=FIXCLIENT1|56=DMA_HUB|34=235|52=20240205-11:52:10|10=084|
2024-02-05 12:52:30.593 [38] [FixSender] (DEBUG) Receiving 8=FIX.4.4|9=62|35=0|34=240|49=DMA_HUB|56=FIXCLIENT1|52=20240205-11:52:30.593|10=028|
2024-02-05 12:52:40.289 [39] [FixSender] (DEBUG) Sending 8=FIX.4.4|9=58|35=0|49=FIXCLIENT1|56=DMA_HUB|34=236|52=20240205-11:52:40|10=088|
2024-02-05 12:53:00.543 [38] [FixSender] (DEBUG) Receiving 8=FIX.4.4|9=62|35=0|34=241|49=DMA_HUB|56=FIXCLIENT1|52=20240205-11:53:00.543|10=022|
2024-02-05 12:53:10.290 [39] [FixSender] (DEBUG) Sending 8=FIX.4.4|9=58|35=0|49=FIXCLIENT1|56=DMA_HUB|34=237|52=20240205-11:53:10|10=087|
2024-02-05 12:53:30.494 [38] [FixSender] (DEBUG) Receiving 8=FIX.4.4|9=62|35=0|34=242|49=DMA_HUB|56=FIXCLIENT1|52=20240205-11:53:30.494|10=031|
2024-02-05 12:53:40.292 [39] [FixSender] (DEBUG) Sending 8=FIX.4.4|9=58|35=0|49=FIXCLIENT1|56=DMA_HUB|34=238|52=20240205-11:53:40|10=091|
2024-02-05 12:54:00.441 [38] [FixSender] (DEBUG) Receiving 8=FIX.4.4|9=62|35=0|34=243|49=DMA_HUB|56=FIXCLIENT1|52=20240205-11:54:00.441|10=022|
2024-02-05 12:54:10.294 [39] [FixSender] (DEBUG) Sending 8=FIX.4.4|9=58|35=0|49=FIXCLIENT1|56=DMA_HUB|34=239|52=20240205-11:54:10|10=090|
2024-02-05 12:54:30.398 [38] [FixSender] (DEBUG) Receiving 8=FIX.4.4|9=62|35=0|34=244|49=DMA_HUB|56=FIXCLIENT1|52=20240205-11:54:30.396|10=035|
2024-02-05 12:54:40.294 [39] [FixSender] (DEBUG) Sending 8=FIX.4.4|9=58|35=0|49=FIXCLIENT1|56=DMA_HUB|34=240|52=20240205-11:54:40|10=085|
2024-02-05 12:55:00.350 [38] [FixSender] (DEBUG) Receiving 8=FIX.4.4|9=62|35=0|34=245|49=DMA_HUB|56=FIXCLIENT1|52=20240205-11:55:00.350|10=024|
2024-02-05 12:55:10.295 [39] [FixSender] (DEBUG) Sending 8=FIX.4.4|9=58|35=0|49=FIXCLIENT1|56=DMA_HUB|34=241|52=20240205-11:55:10|10=084|
2024-02-05 12:55:30.303 [38] [FixSender] (DEBUG) Receiving 8=FIX.4.4|9=62|35=0|34=246|49=DMA_HUB|56=FIXCLIENT1|52=20240205-11:55:30.303|10=026|
2024-02-05 12:55:40.299 [39] [FixSender] (DEBUG) Sending 8=FIX.4.4|9=58|35=0|49=FIXCLIENT1|56=DMA_HUB|34=242|52=20240205-11:55:40|10=088|
2024-02-05 12:56:00.258 [38] [FixSender] (DEBUG) Receiving 8=FIX.4.4|9=62|35=0|34=247|49=DMA_HUB|56=FIXCLIENT1|52=20240205-11:56:00.258|10=034|
2024-02-05 12:56:10.301 [39] [FixSender] (DEBUG) Sending 8=FIX.4.4|9=58|35=0|49=FIXCLIENT1|56=DMA_HUB|34=243|52=20240205-11:56:10|10=087|
2024-02-05 12:56:30.211 [38] [FixSender] (DEBUG) Receiving 8=FIX.4.4|9=62|35=0|34=248|49=DMA_HUB|56=FIXCLIENT1|52=20240205-11:56:30.210|10=026|
2024-02-05 12:56:40.302 [39] [FixSender] (DEBUG) Sending 8=FIX.4.4|9=58|35=0|49=FIXCLIENT1|56=DMA_HUB|34=244|52=20240205-11:56:40|10=091|
2024-02-05 12:57:00.165 [38] [FixSender] (DEBUG) Receiving 8=FIX.4.4|9=62|35=0|34=249|49=DMA_HUB|56=FIXCLIENT1|52=20240205-11:57:00.164|10=033|
2024-02-05 12:57:10.304 [39] [FixSender] (DEBUG) Sending 8=FIX.4.4|9=58|35=0|49=FIXCLIENT1|56=DMA_HUB|34=245|52=20240205-11:57:10|10=090|
2024-02-05 12:57:30.117 [38] [FixSender] (DEBUG) Receiving 8=FIX.4.4|9=62|35=0|34=250|49=DMA_HUB|56=FIXCLIENT1|52=20240205-11:57:30.116|10=025|
2024-02-05 12:57:40.306 [39] [FixSender] (DEBUG) Sending 8=FIX.4.4|9=58|35=0|49=FIXCLIENT1|56=DMA_HUB|34=246|52=20240205-11:57:40|10=094|
2024-02-05 12:58:00.070 [38] [FixSender] (DEBUG) Receiving 8=FIX.4.4|9=62|35=0|34=251|49=DMA_HUB|56=FIXCLIENT1|52=20240205-11:58:00.070|10=023|
2024-02-05 12:58:10.307 [39] [FixSender] (DEBUG) Sending 8=FIX.4.4|9=58|35=0|49=FIXCLIENT1|56=DMA_HUB|34=247|52=20240205-11:58:10|10=093|
2024-02-05 12:58:30.018 [38] [FixSender] (DEBUG) Receiving 8=FIX.4.4|9=62|35=0|34=252|49=DMA_HUB|56=FIXCLIENT1|52=20240205-11:58:30.018|10=029|
2024-02-05 12:58:40.309 [39] [FixSender] (DEBUG) Sending 8=FIX.4.4|9=58|35=0|49=FIXCLIENT1|56=DMA_HUB|34=248|52=20240205-11:58:40|10=097|
2024-02-05 12:58:59.968 [38] [FixSender] (DEBUG) Receiving 8=FIX.4.4|9=62|35=0|34=253|49=DMA_HUB|56=FIXCLIENT1|52=20240205-11:58:59.967|10=054|
2024-02-05 12:59:10.310 [39] [FixSender] (DEBUG) Sending 8=FIX.4.4|9=58|35=0|49=FIXCLIENT1|56=DMA_HUB|34=249|52=20240205-11:59:10|10=096|
2024-02-05 12:59:29.926 [38] [FixSender] (DEBUG) Receiving 8=FIX.4.4|9=62|35=0|34=254|49=DMA_HUB|56=FIXCLIENT1|52=20240205-11:59:29.926|10=048|
2024-02-05 12:59:40.311 [39] [FixSender] (DEBUG) Sending 8=FIX.4.4|9=58|35=0|49=FIXCLIENT1|56=DMA_HUB|34=250|52=20240205-11:59:40|10=091|
2024-02-05 12:59:59.865 [38] [FixSender] (DEBUG) Receiving 8=FIX.4.4|9=62|35=0|34=255|49=DMA_HUB|56=FIXCLIENT1|52=20240205-11:59:59.865|10=054|
2024-02-05 13:00:10.313 [39] [FixSender] (DEBUG) Sending 8=FIX.4.4|9=58|35=0|49=FIXCLIENT1|56=DMA_HUB|34=251|52=20240205-12:00:10|10=076|
2024-02-05 13:00:29.830 [38] [FixSender] (DEBUG) Receiving 8=FIX.4.4|9=62|35=0|34=256|49=DMA_HUB|56=FIXCLIENT1|52=20240205-12:00:29.830|10=031|
2024-02-05 13:00:40.315 [39] [FixSender] (DEBUG) Sending 8=FIX.4.4|9=58|35=0|49=FIXCLIENT1|56=DMA_HUB|34=252|52=20240205-12:00:40|10=080|
2024-02-05 13:00:59.780 [38] [FixSender] (DEBUG) Receiving 8=FIX.4.4|9=62|35=0|34=257|49=DMA_HUB|56=FIXCLIENT1|52=20240205-12:00:59.780|10=039|
2024-02-05 13:01:10.318 [39] [FixSender] (DEBUG) Sending 8=FIX.4.4|9=58|35=0|49=FIXCLIENT1|56=DMA_HUB|34=253|52=20240205-12:01:10|10=079|
2024-02-05 13:01:29.725 [38] [FixSender] (DEBUG) Receiving 8=FIX.4.4|9=62|35=0|34=258|49=DMA_HUB|56=FIXCLIENT1|52=20240205-12:01:29.725|10=037|
2024-02-05 13:01:40.322 [39] [FixSender] (DEBUG) Sending 8=FIX.4.4|9=58|35=0|49=FIXCLIENT1|56=DMA_HUB|34=254|52=20240205-12:01:40|10=083|
2024-02-05 13:01:59.687 [38] [FixSender] (DEBUG) Receiving 8=FIX.4.4|9=62|35=0|34=259|49=DMA_HUB|56=FIXCLIENT1|52=20240205-12:01:59.686|10=047|
2024-02-05 13:02:10.323 [39] [FixSender] (DEBUG) Sending 8=FIX.4.4|9=58|35=0|49=FIXCLIENT1|56=DMA_HUB|34=255|52=20240205-12:02:10|10=082|
2024-02-05 13:02:29.633 [38] [FixSender] (DEBUG) Receiving 8=FIX.4.4|9=62|35=0|34=260|49=DMA_HUB|56=FIXCLIENT1|52=20240205-12:02:29.633|10=029|
2024-02-05 13:02:40.325 [39] [FixSender] (DEBUG) Sending 8=FIX.4.4|9=58|35=0|49=FIXCLIENT1|56=DMA_HUB|34=256|52=20240205-12:02:40|10=086|
2024-02-05 13:02:59.578 [38] [FixSender] (DEBUG) Receiving 8=FIX.4.4|9=62|35=0|34=261|49=DMA_HUB|56=FIXCLIENT1|52=20240205-12:02:59.578|10=041|
2024-02-05 13:03:10.327 [39] [FixSender] (DEBUG) Sending 8=FIX.4.4|9=58|35=0|49=FIXCLIENT1|56=DMA_HUB|34=257|52=20240205-12:03:10|10=085|
2024-02-05 13:03:29.541 [38] [FixSender] (DEBUG) Receiving 8=FIX.4.4|9=62|35=0|34=262|49=DMA_HUB|56=FIXCLIENT1|52=20240205-12:03:29.541|10=030|
2024-02-05 13:03:40.330 [39] [FixSender] (DEBUG) Sending 8=FIX.4.4|9=58|35=0|49=FIXCLIENT1|56=DMA_HUB|34=258|52=20240205-12:03:40|10=089|
2024-02-05 13:03:59.480 [38] [FixSender] (DEBUG) Receiving 8=FIX.4.4|9=62|35=0|34=263|49=DMA_HUB|56=FIXCLIENT1|52=20240205-12:03:59.480|10=036|
2024-02-05 13:04:10.334 [39] [FixSender] (DEBUG) Sending 8=FIX.4.4|9=58|35=0|49=FIXCLIENT1|56=DMA_HUB|34=259|52=20240205-12:04:10|10=088|
2024-02-05 13:04:29.436 [38] [FixSender] (DEBUG) Receiving 8=FIX.4.4|9=62|35=0|34=264|49=DMA_HUB|56=FIXCLIENT1|52=20240205-12:04:29.436|10=036|
2024-02-05 13:04:40.336 [39] [FixSender] (DEBUG) Sending 8=FIX.4.4|9=58|35=0|49=FIXCLIENT1|56=DMA_HUB|34=260|52=20240205-12:04:40|10=083|
2024-02-05 13:04:59.385 [38] [FixSender] (DEBUG) Receiving 8=FIX.4.4|9=62|35=0|34=265|49=DMA_HUB|56=FIXCLIENT1|52=20240205-12:04:59.384|10=042|
2024-02-05 13:05:10.339 [39] [FixSender] (DEBUG) Sending 8=FIX.4.4|9=58|35=0|49=FIXCLIENT1|56=DMA_HUB|34=261|52=20240205-12:05:10|10=082|
2024-02-05 13:05:29.341 [38] [FixSender] (DEBUG) Receiving 8=FIX.4.4|9=62|35=0|34=266|49=DMA_HUB|56=FIXCLIENT1|52=20240205-12:05:29.341|10=034|
2024-02-05 13:05:40.340 [39] [FixSender] (DEBUG) Sending 8=FIX.4.4|9=58|35=0|49=FIXCLIENT1|56=DMA_HUB|34=262|52=20240205-12:05:40|10=086|
2024-02-05 13:05:59.297 [38] [FixSender] (DEBUG) Receiving 8=FIX.4.4|9=62|35=0|34=267|49=DMA_HUB|56=FIXCLIENT1|52=20240205-12:05:59.297|10=048|
2024-02-05 13:06:10.342 [39] [FixSender] (DEBUG) Sending 8=FIX.4.4|9=58|35=0|49=FIXCLIENT1|56=DMA_HUB|34=263|52=20240205-12:06:10|10=085|
2024-02-05 13:06:29.247 [38] [FixSender] (DEBUG) Receiving 8=FIX.4.4|9=62|35=0|34=268|49=DMA_HUB|56=FIXCLIENT1|52=20240205-12:06:29.247|10=042|
2024-02-05 13:06:40.344 [39] [FixSender] (DEBUG) Sending 8=FIX.4.4|9=58|35=0|49=FIXCLIENT1|56=DMA_HUB|34=264|52=20240205-12:06:40|10=089|
2024-02-05 13:06:59.206 [38] [FixSender] (DEBUG) Receiving 8=FIX.4.4|9=62|35=0|34=269|49=DMA_HUB|56=FIXCLIENT1|52=20240205-12:06:59.206|10=041|
2024-02-05 13:07:10.346 [39] [FixSender] (DEBUG) Sending 8=FIX.4.4|9=58|35=0|49=FIXCLIENT1|56=DMA_HUB|34=265|52=20240205-12:07:10|10=088|
2024-02-05 13:07:29.149 [38] [FixSender] (DEBUG) Receiving 8=FIX.4.4|9=62|35=0|34=270|49=DMA_HUB|56=FIXCLIENT1|52=20240205-12:07:29.149|10=037|
2024-02-05 13:07:40.347 [39] [FixSender] (DEBUG) Sending 8=FIX.4.4|9=58|35=0|49=FIXCLIENT1|56=DMA_HUB|34=266|52=20240205-12:07:40|10=092|
2024-02-05 13:07:59.100 [38] [FixSender] (DEBUG) Receiving 8=FIX.4.4|9=62|35=0|34=271|49=DMA_HUB|56=FIXCLIENT1|52=20240205-12:07:59.100|10=028|
2024-02-05 13:08:10.348 [39] [FixSender] (DEBUG) Sending 8=FIX.4.4|9=58|35=0|49=FIXCLIENT1|56=DMA_HUB|34=267|52=20240205-12:08:10|10=091|
2024-02-05 13:08:29.054 [38] [FixSender] (DEBUG) Receiving 8=FIX.4.4|9=62|35=0|34=272|49=DMA_HUB|56=FIXCLIENT1|52=20240205-12:08:29.054|10=035|
2024-02-05 13:08:40.355 [39] [FixSender] (DEBUG) Sending 8=FIX.4.4|9=58|35=0|49=FIXCLIENT1|56=DMA_HUB|34=268|52=20240205-12:08:40|10=095|
2024-02-05 13:08:59.010 [38] [FixSender] (DEBUG) Receiving 8=FIX.4.4|9=62|35=0|34=273|49=DMA_HUB|56=FIXCLIENT1|52=20240205-12:08:59.009|10=039|
2024-02-05 13:09:10.359 [39] [FixSender] (DEBUG) Sending 8=FIX.4.4|9=58|35=0|49=FIXCLIENT1|56=DMA_HUB|34=269|52=20240205-12:09:10|10=094|
2024-02-05 13:09:28.959 [38] [FixSender] (DEBUG) Receiving 8=FIX.4.4|9=62|35=0|34=274|49=DMA_HUB|56=FIXCLIENT1|52=20240205-12:09:28.958|10=050|
2024-02-05 13:09:40.360 [39] [FixSender] (DEBUG) Sending 8=FIX.4.4|9=58|35=0|49=FIXCLIENT1|56=DMA_HUB|34=270|52=20240205-12:09:40|10=089|
2024-02-05 13:09:58.917 [38] [FixSender] (DEBUG) Receiving 8=FIX.4.4|9=62|35=0|34=275|49=DMA_HUB|56=FIXCLIENT1|52=20240205-12:09:58.916|10=048|
2024-02-05 13:10:10.363 [39] [FixSender] (DEBUG) Sending 8=FIX.4.4|9=58|35=0|49=FIXCLIENT1|56=DMA_HUB|34=271|52=20240205-12:10:10|10=079|
2024-02-05 13:10:28.871 [38] [FixSender] (DEBUG) Receiving 8=FIX.4.4|9=62|35=0|34=276|49=DMA_HUB|56=FIXCLIENT1|52=20240205-12:10:28.871|10=038|
2024-02-05 13:10:40.364 [39] [FixSender] (DEBUG) Sending 8=FIX.4.4|9=58|35=0|49=FIXCLIENT1|56=DMA_HUB|34=272|52=20240205-12:10:40|10=083|
2024-02-05 13:10:58.813 [38] [FixSender] (DEBUG) Receiving 8=FIX.4.4|9=62|35=0|34=277|49=DMA_HUB|56=FIXCLIENT1|52=20240205-12:10:58.813|10=038|
2024-02-05 13:11:10.365 [39] [FixSender] (DEBUG) Sending 8=FIX.4.4|9=58|35=0|49=FIXCLIENT1|56=DMA_HUB|34=273|52=20240205-12:11:10|10=082|
2024-02-05 13:11:28.771 [38] [FixSender] (DEBUG) Receiving 8=FIX.4.4|9=62|35=0|34=278|49=DMA_HUB|56=FIXCLIENT1|52=20240205-12:11:28.771|10=040|
2024-02-05 13:11:40.366 [39] [FixSender] (DEBUG) Sending 8=FIX.4.4|9=58|35=0|49=FIXCLIENT1|56=DMA_HUB|34=274|52=20240205-12:11:40|10=086|
2024-02-05 13:11:58.722 [38] [FixSender] (DEBUG) Receiving 8=FIX.4.4|9=62|35=0|34=279|49=DMA_HUB|56=FIXCLIENT1|52=20240205-12:11:58.722|10=040|
2024-02-05 13:12:10.368 [39] [FixSender] (DEBUG) Sending 8=FIX.4.4|9=58|35=0|49=FIXCLIENT1|56=DMA_HUB|34=275|52=20240205-12:12:10|10=085|
2024-02-05 13:12:28.674 [38] [FixSender] (DEBUG) Receiving 8=FIX.4.4|9=62|35=0|34=280|49=DMA_HUB|56=FIXCLIENT1|52=20240205-12:12:28.674|10=036|
2024-02-05 13:12:40.382 [39] [FixSender] (DEBUG) Sending 8=FIX.4.4|9=58|35=0|49=FIXCLIENT1|56=DMA_HUB|34=276|52=20240205-12:12:40|10=089|
2024-02-05 13:12:58.627 [38] [FixSender] (DEBUG) Receiving 8=FIX.4.4|9=62|35=0|34=281|49=DMA_HUB|56=FIXCLIENT1|52=20240205-12:12:58.627|10=038|
2024-02-05 13:13:05.306 [38] [FixSender] (DEBUG) Receiving 8=FIX.4.4|9=234|35=8|34=282|49=DMA_HUB|56=FIXCLIENT1|52=20240205-12:13:05.304|11=HS_17071286191|37=FXTg9ZPSJ|54=1|40=2|59=0|17=202402055|150=A|39=A|38=500|151=500|14=0|6=0|44=197|60=20240205-10:23:39.000|22=4|48=US3390411052|207=XETR|15=EUR|55=[N/A]|10=175|
2024-02-05 13:13:05.341 [38] [FixSender] (DEBUG) Receiving 8=FIX.4.4|9=246|35=8|34=283|49=DMA_HUB|56=FIXCLIENT1|52=20240205-12:13:05.340|11=HS_17071286191|37=FXTg9ZPSJ|198=b5LRAwF|54=1|40=2|59=0|17=202402056|150=0|39=0|38=500|151=500|14=0|6=0|44=197|60=20240205-12:13:05.318|22=4|48=US3390411052|207=XETR|15=EUR|55=[N/A]|10=171|
2024-02-05 13:13:05.349 [38] [FixSender] (DEBUG) Receiving 8=FIX.4.4|9=306|35=8|34=284|49=DMA_HUB|56=FIXCLIENT1|52=20240205-12:13:05.349|11=HS_17071286191|37=FXTg9ZPSJ|198=b5LRAwF|54=1|32=500|31=116|17=202402057|527=BDAr0e2|150=F|39=2|38=500|151=0|14=500|6=116|44=197|60=20240205-12:13:05.320|22=4|48=US3390411052|207=XETR|15=EUR|55=[N/A]|453=1|448=strmrepl|447=D|452=17|40=2|59=0|10=062|
2024-02-05 13:13:10.383 [39] [FixSender] (DEBUG) Sending 8=FIX.4.4|9=58|35=0|49=FIXCLIENT1|56=DMA_HUB|34=277|52=20240205-12:13:10|10=088|
2024-02-05 13:13:22.273 [42] [FixSender] (DEBUG) Sending 8=FIX.4.4|9=198|35=D|49=FIXCLIENT1|56=DMA_HUB|34=278|52=20240205-12:13:22|21=1|11=HS_17071352022|38=5000|55=E:07G@XETR|54=1|60=20240205-12:13:22|40=2|59=0|44=197.111|48=US3390411052|22=4|15=EUR|207=XETR|1=bram_123|10=104|
2024-02-05 13:13:22.276 [38] [FixSender] (DEBUG) Receiving 8=FIX.4.4|9=240|35=8|34=285|49=DMA_HUB|56=FIXCLIENT1|52=20240205-12:13:22.275|11=HS_17071352022|37=FXUg9ZPSJ|54=1|40=2|59=0|17=202402058|150=A|39=A|38=5000|151=5000|14=0|6=0|44=197.111|60=20240205-12:13:22.000|22=4|48=US3390411052|207=XETR|15=EUR|55=[N/A]|10=198|
2024-02-05 13:13:45.744 [1] [Fixsender] (INFO) (c) 2001-2011 ullink SAS. FixSender. Release 1.11.
2024-02-05 13:14:01.856 [29] [FixSender] (INFO) try to connect to : localhost port :12345
2024-02-05 13:14:01.884 [29] [FixSender] (INFO) physical cnx initiated
2024-02-05 13:14:01.891 [29] [FixSender] (DEBUG) Sending 8=FIX.4.4|9=88|35=A|49=FIXCLIENT1|56=DMA_HUB|34=279|52=20240205-12:14:01|98=0|108=30|95=9|96=null/null|10=191|
2024-02-05 13:14:01.893 [29] [FixSender] (DEBUG) Receiving 8=FIX.4.4|9=74|35=A|34=289|49=DMA_HUB|56=FIXCLIENT1|52=20240205-12:14:01.892|108=30|98=0|10=085|
2024-02-05 13:14:01.894 [29] [FixSender] (WARNING) The Fix connection is open...
2024-02-05 13:14:01.897 [29] [FixSender] (DEBUG) Sending 8=FIX.4.4|9=69|35=2|49=FIXCLIENT1|56=DMA_HUB|34=280|52=20240205-12:14:01|7=286|16=0|10=065|
2024-02-05 13:14:01.901 [29] [FixSender] (DEBUG) Receiving 8=FIX.4.4|9=267|35=8|34=286|49=DMA_HUB|56=FIXCLIENT1|52=20240205-12:14:01.900|43=Y|122=20240205-12:13:31.365|11=HS_17071352022|37=FXUg9ZPSJ|54=1|40=2|59=0|17=202402059|150=A|39=A|38=5000|151=5000|14=0|6=0|44=197|60=20240205-12:13:22.000|22=4|48=US3390411052|207=XETR|15=EUR|55=[N/A]|10=001|
2024-02-05 13:14:01.901 [29] [FixSender] (DEBUG) Receiving 8=FIX.4.4|9=280|35=8|34=287|49=DMA_HUB|56=FIXCLIENT1|52=20240205-12:14:01.900|43=Y|122=20240205-12:13:31.369|11=HS_17071352022|37=FXUg9ZPSJ|198=d5LRAwF|54=1|40=2|59=0|17=2024020510|150=0|39=0|38=5000|151=5000|14=0|6=0|44=197|60=20240205-12:13:31.366|22=4|48=US3390411052|207=XETR|15=EUR|55=[N/A]|10=043|
2024-02-05 13:14:01.902 [29] [FixSender] (DEBUG) Receiving 8=FIX.4.4|9=341|35=8|34=288|49=DMA_HUB|56=FIXCLIENT1|52=20240205-12:14:01.900|43=Y|122=20240205-12:13:31.371|11=HS_17071352022|37=FXUg9ZPSJ|198=d5LRAwF|54=1|32=5000|31=116|17=2024020511|527=BDAr0e3|150=F|39=2|38=5000|151=0|14=5000|6=116|44=197|60=20240205-12:13:31.366|22=4|48=US3390411052|207=XETR|15=EUR|55=[N/A]|453=1|448=strmrepl|447=D|452=17|40=2|59=0|10=231|
2024-02-05 13:14:01.902 [29] [FixSender] (DEBUG) Receiving 8=FIX.4.4|9=106|35=4|34=289|49=DMA_HUB|56=FIXCLIENT1|52=20240205-12:14:01.901|43=Y|122=20240205-12:14:01.901|36=290|123=Y|10=179|
2024-02-05 13:14:02.546 [32] [FixSender] (DEBUG) Sending 8=FIX.4.4|9=197|35=D|49=FIXCLIENT1|56=DMA_HUB|34=281|52=20240205-12:14:02|21=1|11=HS_17071352420|38=231|55=E:07G@XETR|54=1|60=20240205-12:14:02|40=2|59=0|44=197.111|48=US3390411052|22=4|15=EUR|207=XETR|1=bram_123|10=050|
2024-02-05 13:14:02.549 [29] [FixSender] (DEBUG) Receiving 8=FIX.4.4|9=239|35=8|34=290|49=DMA_HUB|56=FIXCLIENT1|52=20240205-12:14:02.548|11=HS_17071352420|37=FXVg9ZPSJ|54=1|40=2|59=0|17=2024020512|150=A|39=A|38=231|151=231|14=0|6=0|44=197.111|60=20240205-12:14:02.000|22=4|48=US3390411052|207=XETR|15=EUR|55=[N/A]|10=155|
2024-02-05 13:14:12.033 [29] [FixSender] (DEBUG) Receiving 8=FIX.4.4|9=235|35=8|34=291|49=DMA_HUB|56=FIXCLIENT1|52=20240205-12:14:12.032|11=HS_17071352420|37=FXVg9ZPSJ|54=1|40=2|59=0|17=2024020513|150=A|39=A|38=231|151=231|14=0|6=0|44=197|60=20240205-12:14:02.000|22=4|48=US3390411052|207=XETR|15=EUR|55=[N/A]|10=205|
2024-02-05 13:14:12.038 [29] [FixSender] (DEBUG) Receiving 8=FIX.4.4|9=247|35=8|34=292|49=DMA_HUB|56=FIXCLIENT1|52=20240205-12:14:12.037|11=HS_17071352420|37=FXVg9ZPSJ|198=f5LRAwF|54=1|40=2|59=0|17=2024020514|150=0|39=0|38=231|151=231|14=0|6=0|44=197|60=20240205-12:14:12.033|22=4|48=US3390411052|207=XETR|15=EUR|55=[N/A]|10=211|
2024-02-05 13:14:12.042 [29] [FixSender] (DEBUG) Receiving 8=FIX.4.4|9=307|35=8|34=293|49=DMA_HUB|56=FIXCLIENT1|52=20240205-12:14:12.040|11=HS_17071352420|37=FXVg9ZPSJ|198=f5LRAwF|54=1|32=231|31=114|17=2024020515|527=BDAr0e4|150=F|39=2|38=231|151=0|14=231|6=114|44=197|60=20240205-12:14:12.033|22=4|48=US3390411052|207=XETR|15=EUR|55=[N/A]|453=1|448=strmrepl|447=D|452=17|40=2|59=0|10=093|
2024-02-05 13:14:31.882 [29] [FixSender] (DEBUG) Receiving 8=FIX.4.4|9=62|35=0|34=294|49=DMA_HUB|56=FIXCLIENT1|52=20240205-12:14:31.881|10=037|
2024-02-05 13:14:32.548 [30] [FixSender] (DEBUG) Sending 8=FIX.4.4|9=58|35=0|49=FIXCLIENT1|56=DMA_HUB|34=282|52=20240205-12:14:32|10=089|
2024-02-05 13:14:41.678 [33] [FixSender] (DEBUG) Sending 8=FIX.4.4|9=191|35=D|49=FIXCLIENT1|56=DMA_HUB|34=283|52=20240205-12:14:41|21=1|11=HS_17071352811|38=231|55=E:07G@XETR|54=1|60=20240205-12:14:41|40=2|59=0|44=1|48=US3390411052|22=4|15=EUR|207=XETR|1=bram_123|10=007|
2024-02-05 13:14:41.678 [29] [FixSender] (DEBUG) Receiving 8=FIX.4.4|9=233|35=8|34=295|49=DMA_HUB|56=FIXCLIENT1|52=20240205-12:14:41.678|11=HS_17071352811|37=FXWg9ZPSJ|54=1|40=2|59=0|17=2024020516|150=A|39=A|38=231|151=231|14=0|6=0|44=1|60=20240205-12:14:41.000|22=4|48=US3390411052|207=XETR|15=EUR|55=[N/A]|10=124|
2024-02-05 13:14:41.681 [29] [FixSender] (DEBUG) Receiving 8=FIX.4.4|9=245|35=8|34=296|49=DMA_HUB|56=FIXCLIENT1|52=20240205-12:14:41.681|11=HS_17071352811|37=FXWg9ZPSJ|198=g5LRAwF|54=1|40=2|59=0|17=2024020517|150=0|39=0|38=231|151=231|14=0|6=0|44=1|60=20240205-12:14:41.680|22=4|48=US3390411052|207=XETR|15=EUR|55=[N/A]|10=127|
2024-02-05 13:15:01.826 [29] [FixSender] (DEBUG) Receiving 8=FIX.4.4|9=62|35=0|34=297|49=DMA_HUB|56=FIXCLIENT1|52=20240205-12:15:01.825|10=036|
2024-02-05 13:15:11.681 [30] [FixSender] (DEBUG) Sending 8=FIX.4.4|9=58|35=0|49=FIXCLIENT1|56=DMA_HUB|34=284|52=20240205-12:15:11|10=089|
2024-02-05 13:15:31.776 [29] [FixSender] (DEBUG) Receiving 8=FIX.4.4|9=62|35=0|34=298|49=DMA_HUB|56=FIXCLIENT1|52=20240205-12:15:31.775|10=044|
2024-02-05 13:15:41.684 [30] [FixSender] (DEBUG) Sending 8=FIX.4.4|9=58|35=0|49=FIXCLIENT1|56=DMA_HUB|34=285|52=20240205-12:15:41|10=093|
2024-02-05 13:16:01.731 [29] [FixSender] (DEBUG) Receiving 8=FIX.4.4|9=62|35=0|34=299|49=DMA_HUB|56=FIXCLIENT1|52=20240205-12:16:01.730|10=034|
2024-02-05 13:16:11.696 [30] [FixSender] (DEBUG) Sending 8=FIX.4.4|9=58|35=0|49=FIXCLIENT1|56=DMA_HUB|34=286|52=20240205-12:16:11|10=092|
2024-02-05 13:16:31.690 [29] [FixSender] (DEBUG) Receiving 8=FIX.4.4|9=62|35=0|34=300|49=DMA_HUB|56=FIXCLIENT1|52=20240205-12:16:31.689|10=033|
2024-02-05 13:16:41.698 [30] [FixSender] (DEBUG) Sending 8=FIX.4.4|9=58|35=0|49=FIXCLIENT1|56=DMA_HUB|34=287|52=20240205-12:16:41|10=096|
2024-02-05 13:17:01.643 [29] [FixSender] (DEBUG) Receiving 8=FIX.4.4|9=62|35=0|34=301|49=DMA_HUB|56=FIXCLIENT1|52=20240205-12:17:01.641|10=020|
2024-02-05 13:17:11.700 [30] [FixSender] (DEBUG) Sending 8=FIX.4.4|9=58|35=0|49=FIXCLIENT1|56=DMA_HUB|34=288|52=20240205-12:17:11|10=095|
2024-02-05 13:17:31.597 [29] [FixSender] (DEBUG) Receiving 8=FIX.4.4|9=62|35=0|34=302|49=DMA_HUB|56=FIXCLIENT1|52=20240205-12:17:31.597|10=034|
2024-02-05 13:17:41.724 [30] [FixSender] (DEBUG) Sending 8=FIX.4.4|9=58|35=0|49=FIXCLIENT1|56=DMA_HUB|34=289|52=20240205-12:17:41|10=099|
2024-02-05 13:18:01.541 [29] [FixSender] (DEBUG) Receiving 8=FIX.4.4|9=62|35=0|34=303|49=DMA_HUB|56=FIXCLIENT1|52=20240205-12:18:01.540|10=021|
2024-02-05 13:18:11.725 [30] [FixSender] (DEBUG) Sending 8=FIX.4.4|9=58|35=0|49=FIXCLIENT1|56=DMA_HUB|34=290|52=20240205-12:18:11|10=089|
2024-02-05 13:18:31.496 [29] [FixSender] (DEBUG) Receiving 8=FIX.4.4|9=62|35=0|34=304|49=DMA_HUB|56=FIXCLIENT1|52=20240205-12:18:31.495|10=034|
2024-02-05 13:18:41.728 [30] [FixSender] (DEBUG) Sending 8=FIX.4.4|9=58|35=0|49=FIXCLIENT1|56=DMA_HUB|34=291|52=20240205-12:18:41|10=093|
2024-02-05 13:19:01.445 [29] [FixSender] (DEBUG) Receiving 8=FIX.4.4|9=62|35=0|34=305|49=DMA_HUB|56=FIXCLIENT1|52=20240205-12:19:01.443|10=026|
2024-02-05 13:19:11.732 [30] [FixSender] (DEBUG) Sending 8=FIX.4.4|9=58|35=0|49=FIXCLIENT1|56=DMA_HUB|34=292|52=20240205-12:19:11|10=092|
2024-02-05 13:19:31.404 [29] [FixSender] (DEBUG) Receiving 8=FIX.4.4|9=62|35=0|34=306|49=DMA_HUB|56=FIXCLIENT1|52=20240205-12:19:31.402|10=025|
2024-02-05 13:19:41.733 [30] [FixSender] (DEBUG) Sending 8=FIX.4.4|9=58|35=0|49=FIXCLIENT1|56=DMA_HUB|34=293|52=20240205-12:19:41|10=096|
2024-02-05 13:20:01.351 [29] [FixSender] (DEBUG) Receiving 8=FIX.4.4|9=62|35=0|34=307|49=DMA_HUB|56=FIXCLIENT1|52=20240205-12:20:01.350|10=017|
2024-02-05 13:20:11.736 [30] [FixSender] (DEBUG) Sending 8=FIX.4.4|9=58|35=0|49=FIXCLIENT1|56=DMA_HUB|34=294|52=20240205-12:20:11|10=086|
2024-02-05 13:20:31.298 [29] [FixSender] (DEBUG) Receiving 8=FIX.4.4|9=62|35=0|34=308|49=DMA_HUB|56=FIXCLIENT1|52=20240205-12:20:31.297|10=031|
2024-02-05 13:20:41.739 [30] [FixSender] (DEBUG) Sending 8=FIX.4.4|9=58|35=0|49=FIXCLIENT1|56=DMA_HUB|34=295|52=20240205-12:20:41|10=090|
2024-02-05 13:21:01.259 [29] [FixSender] (DEBUG) Receiving 8=FIX.4.4|9=62|35=0|34=309|49=DMA_HUB|56=FIXCLIENT1|52=20240205-12:21:01.258|10=027|
2024-02-05 13:21:11.741 [30] [FixSender] (DEBUG) Sending 8=FIX.4.4|9=58|35=0|49=FIXCLIENT1|56=DMA_HUB|34=296|52=20240205-12:21:11|10=089|
2024-02-05 13:21:31.205 [29] [FixSender] (DEBUG) Receiving 8=FIX.4.4|9=62|35=0|34=310|49=DMA_HUB|56=FIXCLIENT1|52=20240205-12:21:31.203|10=012|
2024-02-05 13:21:41.746 [30] [FixSender] (DEBUG) Sending 8=FIX.4.4|9=58|35=0|49=FIXCLIENT1|56=DMA_HUB|34=297|52=20240205-12:21:41|10=093|
2024-02-05 13:22:01.165 [29] [FixSender] (DEBUG) Receiving 8=FIX.4.4|9=62|35=0|34=311|49=DMA_HUB|56=FIXCLIENT1|52=20240205-12:22:01.163|10=016|
2024-02-05 13:22:11.747 [30] [FixSender] (DEBUG) Sending 8=FIX.4.4|9=58|35=0|49=FIXCLIENT1|56=DMA_HUB|34=298|52=20240205-12:22:11|10=092|
2024-02-05 13:22:31.110 [29] [FixSender] (DEBUG) Receiving 8=FIX.4.4|9=62|35=0|34=312|49=DMA_HUB|56=FIXCLIENT1|52=20240205-12:22:31.109|10=020|
2024-02-05 13:22:41.748 [30] [FixSender] (DEBUG) Sending 8=FIX.4.4|9=58|35=0|49=FIXCLIENT1|56=DMA_HUB|34=299|52=20240205-12:22:41|10=096|
2024-02-05 13:23:01.062 [29] [FixSender] (DEBUG) Receiving 8=FIX.4.4|9=62|35=0|34=313|49=DMA_HUB|56=FIXCLIENT1|52=20240205-12:23:01.061|10=016|
2024-02-05 13:23:11.752 [30] [FixSender] (DEBUG) Sending 8=FIX.4.4|9=58|35=0|49=FIXCLIENT1|56=DMA_HUB|34=300|52=20240205-12:23:11|10=077|
2024-02-05 13:23:31.011 [29] [FixSender] (DEBUG) Receiving 8=FIX.4.4|9=62|35=0|34=314|49=DMA_HUB|56=FIXCLIENT1|52=20240205-12:23:31.011|10=015|
2024-02-05 13:23:41.755 [30] [FixSender] (DEBUG) Sending 8=FIX.4.4|9=58|35=0|49=FIXCLIENT1|56=DMA_HUB|34=301|52=20240205-12:23:41|10=081|
2024-02-05 13:24:00.967 [29] [FixSender] (DEBUG) Receiving 8=FIX.4.4|9=62|35=0|34=315|49=DMA_HUB|56=FIXCLIENT1|52=20240205-12:24:00.966|10=032|
2024-02-05 13:24:11.756 [30] [FixSender] (DEBUG) Sending 8=FIX.4.4|9=58|35=0|49=FIXCLIENT1|56=DMA_HUB|34=302|52=20240205-12:24:11|10=080|
2024-02-05 13:24:30.921 [29] [FixSender] (DEBUG) Receiving 8=FIX.4.4|9=62|35=0|34=316|49=DMA_HUB|56=FIXCLIENT1|52=20240205-12:24:30.921|10=027|
2024-02-05 13:24:41.758 [30] [FixSender] (DEBUG) Sending 8=FIX.4.4|9=58|35=0|49=FIXCLIENT1|56=DMA_HUB|34=303|52=20240205-12:24:41|10=084|
2024-02-05 13:25:00.867 [29] [FixSender] (DEBUG) Receiving 8=FIX.4.4|9=62|35=0|34=317|49=DMA_HUB|56=FIXCLIENT1|52=20240205-12:25:00.865|10=033|
2024-02-05 13:25:11.759 [30] [FixSender] (DEBUG) Sending 8=FIX.4.4|9=58|35=0|49=FIXCLIENT1|56=DMA_HUB|34=304|52=20240205-12:25:11|10=083|
2024-02-05 13:25:30.819 [29] [FixSender] (DEBUG) Receiving 8=FIX.4.4|9=62|35=0|34=318|49=DMA_HUB|56=FIXCLIENT1|52=20240205-12:25:30.817|10=034|
2024-02-05 13:25:41.761 [30] [FixSender] (DEBUG) Sending 8=FIX.4.4|9=58|35=0|49=FIXCLIENT1|56=DMA_HUB|34=305|52=20240205-12:25:41|10=087|
2024-02-05 13:26:00.769 [29] [FixSender] (DEBUG) Receiving 8=FIX.4.4|9=62|35=0|34=319|49=DMA_HUB|56=FIXCLIENT1|52=20240205-12:26:00.769|10=039|
2024-02-05 13:26:11.761 [30] [FixSender] (DEBUG) Sending 8=FIX.4.4|9=58|35=0|49=FIXCLIENT1|56=DMA_HUB|34=306|52=20240205-12:26:11|10=086|
2024-02-05 13:26:30.727 [29] [FixSender] (DEBUG) Receiving 8=FIX.4.4|9=62|35=0|34=320|49=DMA_HUB|56=FIXCLIENT1|52=20240205-12:26:30.726|10=027|
2024-02-05 13:26:41.763 [30] [FixSender] (DEBUG) Sending 8=FIX.4.4|9=58|35=0|49=FIXCLIENT1|56=DMA_HUB|34=307|52=20240205-12:26:41|10=090|
2024-02-05 13:27:00.685 [29] [FixSender] (DEBUG) Receiving 8=FIX.4.4|9=62|35=0|34=321|49=DMA_HUB|56=FIXCLIENT1|52=20240205-12:27:00.684|10=029|
2024-02-05 13:27:11.766 [30] [FixSender] (DEBUG) Sending 8=FIX.4.4|9=58|35=0|49=FIXCLIENT1|56=DMA_HUB|34=308|52=20240205-12:27:11|10=089|
2024-02-05 13:27:30.635 [29] [FixSender] (DEBUG) Receiving 8=FIX.4.4|9=62|35=0|34=322|49=DMA_HUB|56=FIXCLIENT1|52=20240205-12:27:30.635|10=029|
2024-02-05 13:27:41.767 [30] [FixSender] (DEBUG) Sending 8=FIX.4.4|9=58|35=0|49=FIXCLIENT1|56=DMA_HUB|34=309|52=20240205-12:27:41|10=093|
2024-02-05 13:28:00.583 [29] [FixSender] (DEBUG) Receiving 8=FIX.4.4|9=62|35=0|34=323|49=DMA_HUB|56=FIXCLIENT1|52=20240205-12:28:00.582|10=029|
2024-02-05 13:28:11.768 [30] [FixSender] (DEBUG) Sending 8=FIX.4.4|9=58|35=0|49=FIXCLIENT1|56=DMA_HUB|34=310|52=20240205-12:28:11|10=083|
2024-02-05 13:28:30.539 [29] [FixSender] (DEBUG) Receiving 8=FIX.4.4|9=62|35=0|34=324|49=DMA_HUB|56=FIXCLIENT1|52=20240205-12:28:30.538|10=034|
2024-02-05 13:28:41.771 [30] [FixSender] (DEBUG) Sending 8=FIX.4.4|9=58|35=0|49=FIXCLIENT1|56=DMA_HUB|34=311|52=20240205-12:28:41|10=087|
2024-02-05 13:29:00.481 [29] [FixSender] (DEBUG) Receiving 8=FIX.4.4|9=62|35=0|34=325|49=DMA_HUB|56=FIXCLIENT1|52=20240205-12:29:00.480|10=029|
2024-02-05 13:29:11.773 [30] [FixSender] (DEBUG) Sending 8=FIX.4.4|9=58|35=0|49=FIXCLIENT1|56=DMA_HUB|34=312|52=20240205-12:29:11|10=086|
2024-02-05 13:29:30.439 [29] [FixSender] (DEBUG) Receiving 8=FIX.4.4|9=62|35=0|34=326|49=DMA_HUB|56=FIXCLIENT1|52=20240205-12:29:30.436|10=034|
2024-02-05 13:29:41.775 [30] [FixSender] (DEBUG) Sending 8=FIX.4.4|9=58|35=0|49=FIXCLIENT1|56=DMA_HUB|34=313|52=20240205-12:29:41|10=090|
2024-02-05 13:30:00.390 [29] [FixSender] (DEBUG) Receiving 8=FIX.4.4|9=62|35=0|34=327|49=DMA_HUB|56=FIXCLIENT1|52=20240205-12:30:00.389|10=031|
2024-02-05 13:30:11.778 [30] [FixSender] (DEBUG) Sending 8=FIX.4.4|9=58|35=0|49=FIXCLIENT1|56=DMA_HUB|34=314|52=20240205-12:30:11|10=080|
2024-02-05 13:30:30.349 [29] [FixSender] (DEBUG) Receiving 8=FIX.4.4|9=62|35=0|34=328|49=DMA_HUB|56=FIXCLIENT1|52=20240205-12:30:30.347|10=029|
2024-02-05 13:30:41.792 [30] [FixSender] (DEBUG) Sending 8=FIX.4.4|9=58|35=0|49=FIXCLIENT1|56=DMA_HUB|34=315|52=20240205-12:30:41|10=084|
2024-02-05 13:31:00.289 [29] [FixSender] (DEBUG) Receiving 8=FIX.4.4|9=62|35=0|34=329|49=DMA_HUB|56=FIXCLIENT1|52=20240205-12:31:00.288|10=032|
2024-02-05 13:31:11.793 [30] [FixSender] (DEBUG) Sending 8=FIX.4.4|9=58|35=0|49=FIXCLIENT1|56=DMA_HUB|34=316|52=20240205-12:31:11|10=083|
2024-02-05 13:31:30.245 [29] [FixSender] (DEBUG) Receiving 8=FIX.4.4|9=62|35=0|34=330|49=DMA_HUB|56=FIXCLIENT1|52=20240205-12:31:30.245|10=020|
2024-02-05 13:31:41.795 [30] [FixSender] (DEBUG) Sending 8=FIX.4.4|9=58|35=0|49=FIXCLIENT1|56=DMA_HUB|34=317|52=20240205-12:31:41|10=087|
2024-02-05 13:32:00.206 [29] [FixSender] (DEBUG) Receiving 8=FIX.4.4|9=62|35=0|34=331|49=DMA_HUB|56=FIXCLIENT1|52=20240205-12:32:00.206|10=016|
2024-02-05 13:32:11.797 [30] [FixSender] (DEBUG) Sending 8=FIX.4.4|9=58|35=0|49=FIXCLIENT1|56=DMA_HUB|34=318|52=20240205-12:32:11|10=086|
2024-02-05 13:32:30.150 [29] [FixSender] (DEBUG) Receiving 8=FIX.4.4|9=62|35=0|34=332|49=DMA_HUB|56=FIXCLIENT1|52=20240205-12:32:30.150|10=018|
2024-02-05 13:32:41.807 [30] [FixSender] (DEBUG) Sending 8=FIX.4.4|9=58|35=0|49=FIXCLIENT1|56=DMA_HUB|34=319|52=20240205-12:32:41|10=090|
2024-02-05 13:33:00.101 [29] [FixSender] (DEBUG) Receiving 8=FIX.4.4|9=62|35=0|34=333|49=DMA_HUB|56=FIXCLIENT1|52=20240205-12:33:00.100|10=012|
2024-02-05 13:33:11.807 [30] [FixSender] (DEBUG) Sending 8=FIX.4.4|9=58|35=0|49=FIXCLIENT1|56=DMA_HUB|34=320|52=20240205-12:33:11|10=080|
2024-02-05 13:33:30.050 [29] [FixSender] (DEBUG) Receiving 8=FIX.4.4|9=62|35=0|34=334|49=DMA_HUB|56=FIXCLIENT1|52=20240205-12:33:30.049|10=028|
2024-02-05 13:33:41.819 [30] [FixSender] (DEBUG) Sending 8=FIX.4.4|9=58|35=0|49=FIXCLIENT1|56=DMA_HUB|34=321|52=20240205-12:33:41|10=084|
2024-02-05 13:34:00.008 [29] [FixSender] (DEBUG) Receiving 8=FIX.4.4|9=62|35=0|34=335|49=DMA_HUB|56=FIXCLIENT1|52=20240205-12:34:00.008|10=022|
2024-02-05 13:34:11.822 [30] [FixSender] (DEBUG) Sending 8=FIX.4.4|9=58|35=0|49=FIXCLIENT1|56=DMA_HUB|34=322|52=20240205-12:34:11|10=083|
2024-02-05 13:34:29.963 [29] [FixSender] (DEBUG) Receiving 8=FIX.4.4|9=62|35=0|34=336|49=DMA_HUB|56=FIXCLIENT1|52=20240205-12:34:29.962|10=043|
2024-02-05 13:34:41.823 [30] [FixSender] (DEBUG) Sending 8=FIX.4.4|9=58|35=0|49=FIXCLIENT1|56=DMA_HUB|34=323|52=20240205-12:34:41|10=087|
2024-02-05 13:34:59.917 [29] [FixSender] (DEBUG) Receiving 8=FIX.4.4|9=62|35=0|34=337|49=DMA_HUB|56=FIXCLIENT1|52=20240205-12:34:59.916|10=046|
2024-02-05 13:35:11.825 [30] [FixSender] (DEBUG) Sending 8=FIX.4.4|9=58|35=0|49=FIXCLIENT1|56=DMA_HUB|34=324|52=20240205-12:35:11|10=086|
2024-02-05 13:35:29.867 [29] [FixSender] (DEBUG) Receiving 8=FIX.4.4|9=62|35=0|34=338|49=DMA_HUB|56=FIXCLIENT1|52=20240205-12:35:29.867|10=050|
2024-02-05 13:35:41.828 [30] [FixSender] (DEBUG) Sending 8=FIX.4.4|9=58|35=0|49=FIXCLIENT1|56=DMA_HUB|34=325|52=20240205-12:35:41|10=090|
2024-02-05 13:35:59.822 [29] [FixSender] (DEBUG) Receiving 8=FIX.4.4|9=62|35=0|34=339|49=DMA_HUB|56=FIXCLIENT1|52=20240205-12:35:59.822|10=045|
2024-02-05 13:36:11.830 [30] [FixSender] (DEBUG) Sending 8=FIX.4.4|9=58|35=0|49=FIXCLIENT1|56=DMA_HUB|34=326|52=20240205-12:36:11|10=089|
2024-02-05 13:36:29.765 [29] [FixSender] (DEBUG) Receiving 8=FIX.4.4|9=62|35=0|34=340|49=DMA_HUB|56=FIXCLIENT1|52=20240205-12:36:29.765|10=041|
