2024-07-26 10:25:31.186 [1] [Fixsender] (INFO) (c) 2001-2011 ullink SAS. FixSender. Release 1.11.
2024-07-26 10:26:35.569 [36] [FixSender] (INFO) try to connect to : localhost port :12345
2024-07-26 10:26:35.575 [36] [FixSender] (INFO) physical cnx initiated
2024-07-26 10:26:35.581 [36] [FixSender] (DEBUG) Sending 8=FIX.4.4|9=88|35=A|49=FIXCLIENT1|56=DMA_HUB|34=162|52=20240726-08:26:35|98=0|108=30|95=9|96=null/null|10=205|
2024-07-26 10:26:35.586 [36] [FixSender] (DEBUG) Receiving 8=FIX.4.4|9=72|35=A|34=1|49=DMA_HUB|56=FIXCLIENT1|52=20240726-08:26:35.584|108=30|98=0|10=246|
2024-07-26 10:26:35.587 [36] [FixSender] (DEBUG) Sending 8=FIX.4.4|9=110|35=5|49=FIXCLIENT1|56=DMA_HUB|34=163|52=20240726-08:26:35|58=MsgSeqNum expected 223, but MsgSeqNum received 1|10=215|
2024-07-26 10:26:35.588 [36] [FixSender] (INFO) physical cnx finished Connection reset by peer
2024-07-26 10:26:35.590 [36] [FixSender] (WARNING) Disconnected
2024-07-26 10:26:36.822 [40] [FixSender] (INFO) try to connect to : localhost port :12345
2024-07-26 10:26:36.823 [40] [FixSender] (INFO) physical cnx initiated
2024-07-26 10:26:36.824 [40] [FixSender] (DEBUG) Sending 8=FIX.4.4|9=86|35=A|49=FIXCLIENT1|56=DMA_HUB|34=1|52=20240726-08:26:36|98=0|108=30|95=9|96=null/null|10=100|
2024-07-26 10:26:36.827 [40] [FixSender] (DEBUG) Receiving 8=FIX.4.4|9=72|35=A|34=4|49=DMA_HUB|56=FIXCLIENT1|52=20240726-08:26:36.825|108=30|98=0|10=248|
2024-07-26 10:26:36.828 [40] [FixSender] (WARNING) The Fix connection is open...
2024-07-26 10:26:36.829 [40] [FixSender] (DEBUG) Sending 8=FIX.4.4|9=65|35=2|49=FIXCLIENT1|56=DMA_HUB|34=2|52=20240726-08:26:36|7=1|16=0|10=126|
2024-07-26 10:26:36.834 [40] [FixSender] (DEBUG) Receiving 8=FIX.4.4|9=102|35=4|34=1|49=DMA_HUB|56=FIXCLIENT1|52=20240726-08:26:36.834|43=Y|122=20240726-08:26:36.834|36=5|123=Y|10=017|
2024-07-26 10:26:44.880 [43] [FixSender] (DEBUG) Sending 8=FIX.4.4|9=113|35=|49=FIXCLIENT1|56=DMA_HUB|34=3|52=20240726-08:26:44|847=1201|24102=Y|24118=300|24128=SECONDS|24119=6|5958=1.0|10=108|
2024-07-26 10:26:44.883 [40] [FixSender] (DEBUG) Receiving 8=FIX.4.4|9=108|35=j|34=5|49=DMA_HUB|56=FIXCLIENT1|52=20240726-08:26:44.882|58=Unsupported message type 35=|45=3|372=|380=3|10=251|
2024-07-26 10:26:44.883 [40] [FixSender] (DEBUG) Sending 8=FIX.4.4|9=107|35=3|49=FIXCLIENT1|56=DMA_HUB|34=4|52=20240726-08:26:44|45=5|371=372|372=j|373=4|58=Tag(372) Without Value|10=187|
2024-07-26 10:26:45.768 [44] [FixSender] (DEBUG) Sending 8=FIX.4.4|9=113|35=|49=FIXCLIENT1|56=DMA_HUB|34=5|52=20240726-08:26:45|847=1201|24102=Y|24118=300|24128=SECONDS|24119=6|5958=1.0|10=111|
2024-07-26 10:26:45.769 [40] [FixSender] (DEBUG) Receiving 8=FIX.4.4|9=108|35=j|34=6|49=DMA_HUB|56=FIXCLIENT1|52=20240726-08:26:45.769|58=Unsupported message type 35=|45=5|372=|380=3|10=003|
2024-07-26 10:26:45.770 [40] [FixSender] (DEBUG) Sending 8=FIX.4.4|9=107|35=3|49=FIXCLIENT1|56=DMA_HUB|34=6|52=20240726-08:26:45|45=6|371=372|372=j|373=4|58=Tag(372) Without Value|10=191|
2024-07-26 10:27:06.820 [40] [FixSender] (DEBUG) Receiving 8=FIX.4.4|9=60|35=0|34=7|49=DMA_HUB|56=FIXCLIENT1|52=20240726-08:27:06.819|10=207|
2024-07-26 10:27:15.771 [41] [FixSender] (DEBUG) Sending 8=FIX.4.4|9=56|35=0|49=FIXCLIENT1|56=DMA_HUB|34=7|52=20240726-08:27:15|10=004|
2024-07-26 10:27:36.772 [40] [FixSender] (DEBUG) Receiving 8=FIX.4.4|9=60|35=0|34=8|49=DMA_HUB|56=FIXCLIENT1|52=20240726-08:27:36.771|10=208|
2024-07-26 10:27:45.771 [41] [FixSender] (DEBUG) Sending 8=FIX.4.4|9=56|35=0|49=FIXCLIENT1|56=DMA_HUB|34=8|52=20240726-08:27:45|10=008|
2024-07-26 10:28:06.724 [40] [FixSender] (DEBUG) Receiving 8=FIX.4.4|9=60|35=0|34=9|49=DMA_HUB|56=FIXCLIENT1|52=20240726-08:28:06.724|10=205|
2024-07-26 10:28:15.772 [41] [FixSender] (DEBUG) Sending 8=FIX.4.4|9=56|35=0|49=FIXCLIENT1|56=DMA_HUB|34=9|52=20240726-08:28:15|10=007|
2024-07-26 10:28:36.676 [40] [FixSender] (DEBUG) Receiving 8=FIX.4.4|9=61|35=0|34=10|49=DMA_HUB|56=FIXCLIENT1|52=20240726-08:28:36.675|10=254|
2024-07-26 10:28:45.773 [41] [FixSender] (DEBUG) Sending 8=FIX.4.4|9=57|35=0|49=FIXCLIENT1|56=DMA_HUB|34=10|52=20240726-08:28:45|10=051|
2024-07-26 10:28:54.658 [45] [FixSender] (DEBUG) Sending 8=FIX.4.4|9=253|35=|49=FIXCLIENT1|56=DMA_HUB|34=11|52=20240726-08:28:54|21=1|11=HS_17219825340|38=1233|55=E:07G@XETR|54=1|60=20240726-08:28:54|40=2|59=0|44=197.11|48=US3390411052|22=4|15=EUR|207=XETR|1=bram_123|847=1201|24102=Y|24118=300|24128=SECONDS|24119=6|5958=1.0|10=093|
2024-07-26 10:28:54.659 [40] [FixSender] (DEBUG) Receiving 8=FIX.4.4|9=110|35=j|34=11|49=DMA_HUB|56=FIXCLIENT1|52=20240726-08:28:54.658|58=Unsupported message type 35=|45=11|372=|380=3|10=084|
2024-07-26 10:28:54.659 [40] [FixSender] (DEBUG) Sending 8=FIX.4.4|9=109|35=3|49=FIXCLIENT1|56=DMA_HUB|34=12|52=20240726-08:28:54|45=11|371=372|372=j|373=4|58=Tag(372) Without Value|10=028|
2024-07-26 10:28:55.715 [46] [FixSender] (DEBUG) Sending 8=FIX.4.4|9=253|35=|49=FIXCLIENT1|56=DMA_HUB|34=13|52=20240726-08:28:55|21=1|11=HS_17219825351|38=1931|55=E:07G@XETR|54=1|60=20240726-08:28:55|40=2|59=0|44=197.11|48=US3390411052|22=4|15=EUR|207=XETR|1=bram_123|847=1201|24102=Y|24118=300|24128=SECONDS|24119=6|5958=1.0|10=104|
2024-07-26 10:28:55.716 [40] [FixSender] (DEBUG) Receiving 8=FIX.4.4|9=110|35=j|34=12|49=DMA_HUB|56=FIXCLIENT1|52=20240726-08:28:55.715|58=Unsupported message type 35=|45=13|372=|380=3|10=082|
2024-07-26 10:28:55.716 [40] [FixSender] (DEBUG) Sending 8=FIX.4.4|9=109|35=3|49=FIXCLIENT1|56=DMA_HUB|34=14|52=20240726-08:28:55|45=12|371=372|372=j|373=4|58=Tag(372) Without Value|10=032|
2024-07-26 10:28:56.636 [47] [FixSender] (DEBUG) Sending 8=FIX.4.4|9=253|35=|49=FIXCLIENT1|56=DMA_HUB|34=15|52=20240726-08:28:56|21=1|11=HS_17219825362|38=1384|55=E:07G@XETR|54=1|60=20240726-08:28:56|40=2|59=0|44=197.11|48=US3390411052|22=4|15=EUR|207=XETR|1=bram_123|847=1201|24102=Y|24118=300|24128=SECONDS|24119=6|5958=1.0|10=112|
2024-07-26 10:28:56.637 [40] [FixSender] (DEBUG) Receiving 8=FIX.4.4|9=110|35=j|34=13|49=DMA_HUB|56=FIXCLIENT1|52=20240726-08:28:56.637|58=Unsupported message type 35=|45=15|372=|380=3|10=089|
2024-07-26 10:28:56.638 [40] [FixSender] (DEBUG) Sending 8=FIX.4.4|9=109|35=3|49=FIXCLIENT1|56=DMA_HUB|34=16|52=20240726-08:28:56|45=13|371=372|372=j|373=4|58=Tag(372) Without Value|10=036|
2024-07-26 10:28:57.131 [48] [FixSender] (DEBUG) Sending 8=FIX.4.4|9=253|35=|49=FIXCLIENT1|56=DMA_HUB|34=17|52=20240726-08:28:57|21=1|11=HS_17219825373|38=2379|55=E:07G@XETR|54=1|60=20240726-08:28:57|40=2|59=0|44=197.11|48=US3390411052|22=4|15=EUR|207=XETR|1=bram_123|847=1201|24102=Y|24118=300|24128=SECONDS|24119=6|5958=1.0|10=123|
2024-07-26 10:28:57.132 [40] [FixSender] (DEBUG) Receiving 8=FIX.4.4|9=110|35=j|34=14|49=DMA_HUB|56=FIXCLIENT1|52=20240726-08:28:57.132|58=Unsupported message type 35=|45=17|372=|380=3|10=083|
2024-07-26 10:28:57.133 [40] [FixSender] (DEBUG) Sending 8=FIX.4.4|9=109|35=3|49=FIXCLIENT1|56=DMA_HUB|34=18|52=20240726-08:28:57|45=14|371=372|372=j|373=4|58=Tag(372) Without Value|10=040|
2024-07-26 10:29:06.628 [40] [FixSender] (DEBUG) Receiving 8=FIX.4.4|9=61|35=0|34=15|49=DMA_HUB|56=FIXCLIENT1|52=20240726-08:29:06.627|10=254|
2024-07-26 10:29:27.133 [41] [FixSender] (DEBUG) Sending 8=FIX.4.4|9=57|35=0|49=FIXCLIENT1|56=DMA_HUB|34=19|52=20240726-08:29:27|10=061|
2024-07-26 10:29:36.644 [40] [FixSender] (DEBUG) Receiving 8=FIX.4.4|9=61|35=0|34=16|49=DMA_HUB|56=FIXCLIENT1|52=20240726-08:29:36.643|10=000|
2024-07-26 10:29:57.134 [41] [FixSender] (DEBUG) Sending 8=FIX.4.4|9=57|35=0|49=FIXCLIENT1|56=DMA_HUB|34=20|52=20240726-08:29:57|10=056|
2024-07-26 10:30:06.596 [40] [FixSender] (DEBUG) Receiving 8=FIX.4.4|9=61|35=0|34=17|49=DMA_HUB|56=FIXCLIENT1|52=20240726-08:30:06.595|10=252|
2024-07-26 10:30:27.135 [41] [FixSender] (DEBUG) Sending 8=FIX.4.4|9=57|35=0|49=FIXCLIENT1|56=DMA_HUB|34=21|52=20240726-08:30:27|10=046|
2024-07-26 10:30:36.548 [40] [FixSender] (DEBUG) Receiving 8=FIX.4.4|9=61|35=0|34=18|49=DMA_HUB|56=FIXCLIENT1|52=20240726-08:30:36.547|10=253|
2024-07-26 10:30:41.983 [49] [FixSender] (DEBUG) Sending 8=FIX.4.4|9=254|35=D|49=FIXCLIENT1|56=DMA_HUB|34=22|52=20240726-08:30:41|21=1|11=HS_17219826414|38=3108|55=E:07G@XETR|54=1|60=20240726-08:30:41|40=2|59=0|44=197.11|48=US3390411052|22=4|15=EUR|207=XETR|1=bram_123|847=1201|24102=Y|24118=300|24128=SECONDS|24119=6|5958=1.0|10=148|
2024-07-26 10:30:41.998 [40] [FixSender] (DEBUG) Receiving 8=FIX.4.4|9=238|35=8|34=19|49=DMA_HUB|56=FIXCLIENT1|52=20240726-08:30:41.997|11=HS_17219826414|37=FXpFpvF4I|54=1|40=2|59=0|17=202407261|150=A|39=A|38=3108|151=3108|14=0|6=0|44=197.11|60=20240726-08:30:41.000|22=4|48=US3390411052|207=XETR|15=EUR|55=[N/A]|10=205|
2024-07-26 10:31:06.500 [40] [FixSender] (DEBUG) Receiving 8=FIX.4.4|9=61|35=0|34=20|49=DMA_HUB|56=FIXCLIENT1|52=20240726-08:31:06.500|10=233|
2024-07-26 10:31:11.989 [41] [FixSender] (DEBUG) Sending 8=FIX.4.4|9=57|35=0|49=FIXCLIENT1|56=DMA_HUB|34=23|52=20240726-08:31:11|10=042|
2024-07-26 10:31:36.452 [40] [FixSender] (DEBUG) Receiving 8=FIX.4.4|9=61|35=0|34=21|49=DMA_HUB|56=FIXCLIENT1|52=20240726-08:31:36.451|10=242|
2024-07-26 10:31:41.990 [41] [FixSender] (DEBUG) Sending 8=FIX.4.4|9=57|35=0|49=FIXCLIENT1|56=DMA_HUB|34=24|52=20240726-08:31:41|10=046|
2024-07-26 10:32:06.404 [40] [FixSender] (DEBUG) Receiving 8=FIX.4.4|9=61|35=0|34=22|49=DMA_HUB|56=FIXCLIENT1|52=20240726-08:32:06.404|10=239|
2024-07-26 10:32:11.991 [41] [FixSender] (DEBUG) Sending 8=FIX.4.4|9=57|35=0|49=FIXCLIENT1|56=DMA_HUB|34=25|52=20240726-08:32:11|10=045|
2024-07-26 10:32:36.356 [40] [FixSender] (DEBUG) Receiving 8=FIX.4.4|9=61|35=0|34=23|49=DMA_HUB|56=FIXCLIENT1|52=20240726-08:32:36.355|10=248|
2024-07-26 10:32:41.992 [41] [FixSender] (DEBUG) Sending 8=FIX.4.4|9=57|35=0|49=FIXCLIENT1|56=DMA_HUB|34=26|52=20240726-08:32:41|10=049|
2024-07-26 10:33:06.308 [40] [FixSender] (DEBUG) Receiving 8=FIX.4.4|9=61|35=0|34=24|49=DMA_HUB|56=FIXCLIENT1|52=20240726-08:33:06.308|10=245|
2024-07-26 10:33:11.992 [41] [FixSender] (DEBUG) Sending 8=FIX.4.4|9=57|35=0|49=FIXCLIENT1|56=DMA_HUB|34=27|52=20240726-08:33:11|10=048|
2024-07-26 10:33:36.260 [40] [FixSender] (DEBUG) Receiving 8=FIX.4.4|9=61|35=0|34=25|49=DMA_HUB|56=FIXCLIENT1|52=20240726-08:33:36.259|10=254|
2024-07-26 10:33:41.993 [41] [FixSender] (DEBUG) Sending 8=FIX.4.4|9=57|35=0|49=FIXCLIENT1|56=DMA_HUB|34=28|52=20240726-08:33:41|10=052|
2024-07-26 10:34:06.212 [40] [FixSender] (DEBUG) Receiving 8=FIX.4.4|9=61|35=0|34=26|49=DMA_HUB|56=FIXCLIENT1|52=20240726-08:34:06.212|10=242|
2024-07-26 10:34:11.994 [41] [FixSender] (DEBUG) Sending 8=FIX.4.4|9=57|35=0|49=FIXCLIENT1|56=DMA_HUB|34=29|52=20240726-08:34:11|10=051|
2024-07-26 10:34:36.164 [40] [FixSender] (DEBUG) Receiving 8=FIX.4.4|9=61|35=0|34=27|49=DMA_HUB|56=FIXCLIENT1|52=20240726-08:34:36.163|10=251|
2024-07-26 10:34:41.994 [41] [FixSender] (DEBUG) Sending 8=FIX.4.4|9=57|35=0|49=FIXCLIENT1|56=DMA_HUB|34=30|52=20240726-08:34:41|10=046|
2024-07-26 10:34:54.022 [40] [FixSender] (DEBUG) Receiving 8=FIX.4.4|9=61|35=5|34=28|49=DMA_HUB|56=FIXCLIENT1|52=20240726-08:34:54.021|10=250|
2024-07-26 10:34:54.023 [40] [FixSender] (DEBUG) Sending 8=FIX.4.4|9=79|35=5|49=FIXCLIENT1|56=DMA_HUB|34=31|52=20240726-08:34:54|58=Replying to logout|10=238|
2024-07-26 10:34:54.023 [40] [FixSender] (WARNING) The Fix connection is close...
2024-07-26 10:34:54.024 [40] [FixSender] (INFO) physical cnx finished Connection reset by peer
2024-07-26 10:34:54.024 [40] [FixSender] (WARNING) Disconnected
2024-07-26 10:36:03.675 [50] [FixSender] (INFO) try to connect to : localhost port :12345
2024-07-26 10:36:03.676 [50] [FixSender] (INFO) physical cnx initiated
2024-07-26 10:36:03.677 [50] [FixSender] (DEBUG) Sending 8=FIX.4.4|9=87|35=A|49=FIXCLIENT1|56=DMA_HUB|34=32|52=20240726-08:36:03|98=0|108=30|95=9|96=null/null|10=148|
2024-07-26 10:36:03.683 [50] [FixSender] (DEBUG) Receiving 8=FIX.4.4|9=73|35=A|34=29|49=DMA_HUB|56=FIXCLIENT1|52=20240726-08:36:03.680|108=30|98=0|10=042|
2024-07-26 10:36:03.683 [50] [FixSender] (WARNING) The Fix connection is open...
2024-07-26 10:36:03.685 [50] [FixSender] (DEBUG) Sending 8=FIX.4.4|9=75|35=1|49=FIXCLIENT1|56=DMA_HUB|34=33|52=20240726-08:36:03|112=synchronized?|10=099|
2024-07-26 10:36:03.690 [50] [FixSender] (DEBUG) Receiving 8=FIX.4.4|9=79|35=0|34=30|49=DMA_HUB|56=FIXCLIENT1|52=20240726-08:36:03.689|112=synchronized?|10=056|
2024-07-26 10:36:07.651 [53] [FixSender] (DEBUG) Sending 8=FIX.4.4|9=254|35=D|49=FIXCLIENT1|56=DMA_HUB|34=34|52=20240726-08:36:07|21=1|11=HS_17219829675|38=4815|55=E:07G@XETR|54=1|60=20240726-08:36:07|40=2|59=0|44=197.11|48=US3390411052|22=4|15=EUR|207=XETR|1=bram_123|847=1201|24102=Y|24118=300|24128=SECONDS|24119=6|5958=1.0|10=185|
2024-07-26 10:36:07.665 [50] [FixSender] (DEBUG) Receiving 8=FIX.4.4|9=238|35=8|34=31|49=DMA_HUB|56=FIXCLIENT1|52=20240726-08:36:07.664|11=HS_17219829675|37=FXnuAlJ4I|54=1|40=2|59=0|17=202407262|150=A|39=A|38=4815|151=4815|14=0|6=0|44=197.11|60=20240726-08:36:07.000|22=4|48=US3390411052|207=XETR|15=EUR|55=[N/A]|10=223|
2024-07-26 10:36:09.641 [54] [FixSender] (DEBUG) Sending 8=FIX.4.4|9=253|35=D|49=FIXCLIENT1|56=DMA_HUB|34=35|52=20240726-08:36:09|21=1|11=HS_17219829696|38=608|55=E:07G@XETR|54=1|60=20240726-08:36:09|40=2|59=0|44=197.11|48=US3390411052|22=4|15=EUR|207=XETR|1=bram_123|847=1201|24102=Y|24118=300|24128=SECONDS|24119=6|5958=1.0|10=140|
2024-07-26 10:36:09.643 [50] [FixSender] (DEBUG) Receiving 8=FIX.4.4|9=236|35=8|34=32|49=DMA_HUB|56=FIXCLIENT1|52=20240726-08:36:09.642|11=HS_17219829696|37=FXouAlJ4I|54=1|40=2|59=0|17=202407263|150=A|39=A|38=608|151=608|14=0|6=0|44=197.11|60=20240726-08:36:09.000|22=4|48=US3390411052|207=XETR|15=EUR|55=[N/A]|10=123|
2024-07-26 10:36:33.635 [50] [FixSender] (DEBUG) Receiving 8=FIX.4.4|9=61|35=0|34=33|49=DMA_HUB|56=FIXCLIENT1|52=20240726-08:36:33.635|10=251|
2024-07-26 10:36:39.642 [51] [FixSender] (DEBUG) Sending 8=FIX.4.4|9=57|35=0|49=FIXCLIENT1|56=DMA_HUB|34=36|52=20240726-08:36:39|10=061|
2024-07-26 10:37:03.588 [50] [FixSender] (DEBUG) Receiving 8=FIX.4.4|9=61|35=0|34=34|49=DMA_HUB|56=FIXCLIENT1|52=20240726-08:37:03.587|10=000|
2024-07-26 10:37:09.643 [51] [FixSender] (DEBUG) Sending 8=FIX.4.4|9=57|35=0|49=FIXCLIENT1|56=DMA_HUB|34=37|52=20240726-08:37:09|10=060|
2024-07-26 10:37:33.540 [50] [FixSender] (DEBUG) Receiving 8=FIX.4.4|9=61|35=0|34=35|49=DMA_HUB|56=FIXCLIENT1|52=20240726-08:37:33.539|10=001|
2024-07-26 10:37:39.643 [51] [FixSender] (DEBUG) Sending 8=FIX.4.4|9=57|35=0|49=FIXCLIENT1|56=DMA_HUB|34=38|52=20240726-08:37:39|10=064|
2024-07-26 10:37:43.366 [50] [FixSender] (DEBUG) Receiving 8=FIX.4.4|9=61|35=5|34=36|49=DMA_HUB|56=FIXCLIENT1|52=20240726-08:37:43.365|10=005|
2024-07-26 10:37:43.366 [50] [FixSender] (DEBUG) Sending 8=FIX.4.4|9=79|35=5|49=FIXCLIENT1|56=DMA_HUB|34=39|52=20240726-08:37:43|58=Replying to logout|10=247|
2024-07-26 10:37:43.366 [50] [FixSender] (WARNING) The Fix connection is close...
2024-07-26 10:37:43.367 [50] [FixSender] (INFO) physical cnx finished Connection reset by peer
2024-07-26 10:37:43.367 [50] [FixSender] (WARNING) Disconnected
2024-07-26 10:37:52.539 [55] [FixSender] (INFO) try to connect to : localhost port :12345
2024-07-26 10:37:52.540 [55] [FixSender] (INFO) physical cnx initiated
2024-07-26 10:37:52.542 [55] [FixSender] (DEBUG) Sending 8=FIX.4.4|9=87|35=A|49=FIXCLIENT1|56=DMA_HUB|34=40|52=20240726-08:37:52|98=0|108=30|95=9|96=null/null|10=152|
2024-07-26 10:37:52.547 [55] [FixSender] (DEBUG) Receiving 8=FIX.4.4|9=73|35=A|34=37|49=DMA_HUB|56=FIXCLIENT1|52=20240726-08:37:52.545|108=30|98=0|10=046|
2024-07-26 10:37:52.547 [55] [FixSender] (WARNING) The Fix connection is open...
2024-07-26 10:37:52.548 [55] [FixSender] (DEBUG) Sending 8=FIX.4.4|9=75|35=1|49=FIXCLIENT1|56=DMA_HUB|34=41|52=20240726-08:37:52|112=synchronized?|10=103|
2024-07-26 10:37:52.553 [55] [FixSender] (DEBUG) Receiving 8=FIX.4.4|9=79|35=0|34=38|49=DMA_HUB|56=FIXCLIENT1|52=20240726-08:37:52.552|112=synchronized?|10=058|
2024-07-26 10:38:22.500 [55] [FixSender] (DEBUG) Receiving 8=FIX.4.4|9=61|35=0|34=39|49=DMA_HUB|56=FIXCLIENT1|52=20240726-08:38:22.499|10=009|
2024-07-26 10:38:22.550 [56] [FixSender] (DEBUG) Sending 8=FIX.4.4|9=57|35=0|49=FIXCLIENT1|56=DMA_HUB|34=42|52=20240726-08:38:22|10=052|
2024-07-26 10:38:52.452 [55] [FixSender] (DEBUG) Receiving 8=FIX.4.4|9=61|35=0|34=40|49=DMA_HUB|56=FIXCLIENT1|52=20240726-08:38:52.451|10=248|
2024-07-26 10:38:52.551 [56] [FixSender] (DEBUG) Sending 8=FIX.4.4|9=57|35=0|49=FIXCLIENT1|56=DMA_HUB|34=43|52=20240726-08:38:52|10=056|
2024-07-26 10:39:22.404 [55] [FixSender] (DEBUG) Receiving 8=FIX.4.4|9=61|35=0|34=41|49=DMA_HUB|56=FIXCLIENT1|52=20240726-08:39:22.404|10=245|
2024-07-26 10:39:22.551 [56] [FixSender] (DEBUG) Sending 8=FIX.4.4|9=57|35=0|49=FIXCLIENT1|56=DMA_HUB|34=44|52=20240726-08:39:22|10=055|
2024-07-26 10:39:52.356 [55] [FixSender] (DEBUG) Receiving 8=FIX.4.4|9=61|35=0|34=42|49=DMA_HUB|56=FIXCLIENT1|52=20240726-08:39:52.355|10=254|
2024-07-26 10:39:52.552 [56] [FixSender] (DEBUG) Sending 8=FIX.4.4|9=57|35=0|49=FIXCLIENT1|56=DMA_HUB|34=45|52=20240726-08:39:52|10=059|
2024-07-26 10:40:22.307 [55] [FixSender] (DEBUG) Receiving 8=FIX.4.4|9=61|35=0|34=43|49=DMA_HUB|56=FIXCLIENT1|52=20240726-08:40:22.307|10=241|
2024-07-26 10:40:22.554 [56] [FixSender] (DEBUG) Sending 8=FIX.4.4|9=57|35=0|49=FIXCLIENT1|56=DMA_HUB|34=46|52=20240726-08:40:22|10=049|
2024-07-26 10:40:31.503 [58] [FixSender] (DEBUG) Sending 8=FIX.4.4|9=251|35=D|49=FIXCLIENT1|56=DMA_HUB|34=47|52=20240726-08:40:31|21=1|11=HS_17219832317|38=1939|55=E:07G@XETR|54=1|60=20240726-08:40:31|40=2|59=0|44=197.11|48=US3390411052|22=4|15=EUR|207=XETR|1=bram_123|847=1|24102=Y|24118=300|24128=SECONDS|24119=6|5958=1.0|10=014|
2024-07-26 10:40:31.515 [55] [FixSender] (DEBUG) Receiving 8=FIX.4.4|9=238|35=8|34=44|49=DMA_HUB|56=FIXCLIENT1|52=20240726-08:40:31.514|11=HS_17219832317|37=FXRD1dM4I|54=1|40=2|59=0|17=202407264|150=A|39=A|38=1939|151=1939|14=0|6=0|44=197.11|60=20240726-08:40:31.000|22=4|48=US3390411052|207=XETR|15=EUR|55=[N/A]|10=104|
2024-07-26 10:40:39.479 [59] [FixSender] (DEBUG) Sending 8=FIX.4.4|9=251|35=D|49=FIXCLIENT1|56=DMA_HUB|34=48|52=20240726-08:40:39|21=1|11=HS_17219832398|38=2963|55=E:07G@XETR|54=1|60=20240726-08:40:39|40=2|59=0|44=197.11|48=US3390411052|22=4|15=EUR|207=XETR|1=bram_123|847=1|24102=Y|24118=300|24128=SECONDS|24119=6|5958=1.0|10=038|
2024-07-26 10:40:39.481 [55] [FixSender] (DEBUG) Receiving 8=FIX.4.4|9=238|35=8|34=45|49=DMA_HUB|56=FIXCLIENT1|52=20240726-08:40:39.480|11=HS_17219832398|37=FXSD1dM4I|54=1|40=2|59=0|17=202407265|150=A|39=A|38=2963|151=2963|14=0|6=0|44=197.11|60=20240726-08:40:39.000|22=4|48=US3390411052|207=XETR|15=EUR|55=[N/A]|10=130|
2024-07-26 10:40:40.481 [60] [FixSender] (DEBUG) Sending 8=FIX.4.4|9=251|35=D|49=FIXCLIENT1|56=DMA_HUB|34=49|52=20240726-08:40:40|21=1|11=HS_17219832409|38=2868|55=E:07G@XETR|54=1|60=20240726-08:40:40|40=2|59=0|44=197.11|48=US3390411052|22=4|15=EUR|207=XETR|1=bram_123|847=1|24102=Y|24118=300|24128=SECONDS|24119=6|5958=1.0|10=020|
2024-07-26 10:40:40.483 [55] [FixSender] (DEBUG) Receiving 8=FIX.4.4|9=238|35=8|34=46|49=DMA_HUB|56=FIXCLIENT1|52=20240726-08:40:40.482|11=HS_17219832409|37=FXTD1dM4I|54=1|40=2|59=0|17=202407266|150=A|39=A|38=2868|151=2868|14=0|6=0|44=197.11|60=20240726-08:40:40.000|22=4|48=US3390411052|207=XETR|15=EUR|55=[N/A]|10=120|
2024-07-26 10:40:41.285 [61] [FixSender] (DEBUG) Sending 8=FIX.4.4|9=252|35=D|49=FIXCLIENT1|56=DMA_HUB|34=50|52=20240726-08:40:41|21=1|11=HS_172198324110|38=4579|55=E:07G@XETR|54=1|60=20240726-08:40:41|40=2|59=0|44=197.11|48=US3390411052|22=4|15=EUR|207=XETR|1=bram_123|847=1|24102=Y|24118=300|24128=SECONDS|24119=6|5958=1.0|10=057|
2024-07-26 10:40:41.286 [55] [FixSender] (DEBUG) Receiving 8=FIX.4.4|9=239|35=8|34=47|49=DMA_HUB|56=FIXCLIENT1|52=20240726-08:40:41.286|11=HS_172198324110|37=FXUD1dM4I|54=1|40=2|59=0|17=202407267|150=A|39=A|38=4579|151=4579|14=0|6=0|44=197.11|60=20240726-08:40:41.000|22=4|48=US3390411052|207=XETR|15=EUR|55=[N/A]|10=171|
2024-07-26 10:40:52.260 [55] [FixSender] (DEBUG) Receiving 8=FIX.4.4|9=61|35=0|34=48|49=DMA_HUB|56=FIXCLIENT1|52=20240726-08:40:52.259|10=255|
2024-07-26 10:41:11.286 [56] [FixSender] (DEBUG) Sending 8=FIX.4.4|9=57|35=0|49=FIXCLIENT1|56=DMA_HUB|34=51|52=20240726-08:41:11|10=044|
2024-07-26 10:41:22.211 [55] [FixSender] (DEBUG) Receiving 8=FIX.4.4|9=61|35=0|34=49|49=DMA_HUB|56=FIXCLIENT1|52=20240726-08:41:22.211|10=242|
2024-07-26 10:41:41.286 [56] [FixSender] (DEBUG) Sending 8=FIX.4.4|9=57|35=0|49=FIXCLIENT1|56=DMA_HUB|34=52|52=20240726-08:41:41|10=048|
2024-07-26 10:41:49.871 [55] [FixSender] (DEBUG) Receiving 8=FIX.4.4|9=61|35=5|34=50|49=DMA_HUB|56=FIXCLIENT1|52=20240726-08:41:49.870|10=003|
2024-07-26 10:41:49.872 [55] [FixSender] (DEBUG) Sending 8=FIX.4.4|9=79|35=5|49=FIXCLIENT1|56=DMA_HUB|34=53|52=20240726-08:41:49|58=Replying to logout|10=244|
2024-07-26 10:41:49.872 [55] [FixSender] (WARNING) The Fix connection is close...
2024-07-26 10:41:49.873 [55] [FixSender] (INFO) physical cnx finished Connection reset by peer
2024-07-26 10:41:49.873 [55] [FixSender] (WARNING) Disconnected
2024-07-26 10:44:58.631 [62] [FixSender] (INFO) try to connect to : localhost port :12345
2024-07-26 10:44:58.632 [62] [FixSender] (INFO) physical cnx initiated
2024-07-26 10:44:58.634 [62] [FixSender] (DEBUG) Sending 8=FIX.4.4|9=87|35=A|49=FIXCLIENT1|56=DMA_HUB|34=54|52=20240726-08:44:58|98=0|108=30|95=9|96=null/null|10=161|
2024-07-26 10:44:58.639 [62] [FixSender] (DEBUG) Receiving 8=FIX.4.4|9=73|35=A|34=51|49=DMA_HUB|56=FIXCLIENT1|52=20240726-08:44:58.637|108=30|98=0|10=048|
2024-07-26 10:44:58.640 [62] [FixSender] (WARNING) The Fix connection is open...
2024-07-26 10:44:58.641 [62] [FixSender] (DEBUG) Sending 8=FIX.4.4|9=75|35=1|49=FIXCLIENT1|56=DMA_HUB|34=55|52=20240726-08:44:58|112=synchronized?|10=112|
2024-07-26 10:44:58.645 [62] [FixSender] (DEBUG) Receiving 8=FIX.4.4|9=79|35=0|34=52|49=DMA_HUB|56=FIXCLIENT1|52=20240726-08:44:58.644|112=synchronized?|10=060|
2024-07-26 10:45:02.396 [62] [FixSender] (DEBUG) Receiving 8=FIX.4.4|9=61|35=5|34=53|49=DMA_HUB|56=FIXCLIENT1|52=20240726-08:45:02.395|10=001|
2024-07-26 10:45:02.396 [62] [FixSender] (DEBUG) Sending 8=FIX.4.4|9=79|35=5|49=FIXCLIENT1|56=DMA_HUB|34=56|52=20240726-08:45:02|58=Replying to logout|10=240|
2024-07-26 10:45:02.396 [62] [FixSender] (WARNING) The Fix connection is close...
2024-07-26 10:45:02.397 [62] [FixSender] (INFO) physical cnx finished Connection reset by peer
2024-07-26 10:45:02.397 [62] [FixSender] (WARNING) Disconnected
2024-07-26 10:45:09.578 [65] [FixSender] (INFO) try to connect to : localhost port :12345
2024-07-26 10:45:09.578 [65] [FixSender] (INFO) physical cnx initiated
2024-07-26 10:45:09.581 [65] [FixSender] (DEBUG) Sending 8=FIX.4.4|9=87|35=A|49=FIXCLIENT1|56=DMA_HUB|34=57|52=20240726-08:45:09|98=0|108=30|95=9|96=null/null|10=161|
2024-07-26 10:45:09.585 [65] [FixSender] (DEBUG) Receiving 8=FIX.4.4|9=73|35=A|34=54|49=DMA_HUB|56=FIXCLIENT1|52=20240726-08:45:09.584|108=30|98=0|10=049|
2024-07-26 10:45:09.586 [65] [FixSender] (WARNING) The Fix connection is open...
2024-07-26 10:45:09.587 [65] [FixSender] (DEBUG) Sending 8=FIX.4.4|9=75|35=1|49=FIXCLIENT1|56=DMA_HUB|34=58|52=20240726-08:45:09|112=synchronized?|10=112|
2024-07-26 10:45:09.592 [65] [FixSender] (DEBUG) Receiving 8=FIX.4.4|9=79|35=0|34=55|49=DMA_HUB|56=FIXCLIENT1|52=20240726-08:45:09.591|112=synchronized?|10=061|
2024-07-26 10:45:12.959 [68] [FixSender] (DEBUG) Sending 8=FIX.4.4|9=252|35=D|49=FIXCLIENT1|56=DMA_HUB|34=59|52=20240726-08:45:12|21=1|11=HS_172198351211|38=2257|55=E:07G@XETR|54=1|60=20240726-08:45:12|40=2|59=0|44=197.11|48=US3390411052|22=4|15=EUR|207=XETR|1=bram_123|847=1|24102=Y|24118=300|24128=SECONDS|24119=6|5958=1.0|10=065|
2024-07-26 10:45:12.971 [65] [FixSender] (DEBUG) Receiving 8=FIX.4.4|9=239|35=8|34=56|49=DMA_HUB|56=FIXCLIENT1|52=20240726-08:45:12.970|11=HS_172198351211|37=FXl32tP4I|54=1|40=2|59=0|17=202407268|150=A|39=A|38=2257|151=2257|14=0|6=0|44=197.11|60=20240726-08:45:12.000|22=4|48=US3390411052|207=XETR|15=EUR|55=[N/A]|10=188|
2024-07-26 10:45:13.080 [69] [FixSender] (DEBUG) Sending 8=FIX.4.4|9=252|35=D|49=FIXCLIENT1|56=DMA_HUB|34=60|52=20240726-08:45:13|21=1|11=HS_172198351312|38=4143|55=E:07G@XETR|54=1|60=20240726-08:45:13|40=2|59=0|44=197.11|48=US3390411052|22=4|15=EUR|207=XETR|1=bram_123|847=1|24102=Y|24118=300|24128=SECONDS|24119=6|5958=1.0|10=057|
2024-07-26 10:45:13.083 [65] [FixSender] (DEBUG) Receiving 8=FIX.4.4|9=239|35=8|34=57|49=DMA_HUB|56=FIXCLIENT1|52=20240726-08:45:13.082|11=HS_172198351312|37=FXm32tP4I|54=1|40=2|59=0|17=202407269|150=A|39=A|38=4143|151=4143|14=0|6=0|44=197.11|60=20240726-08:45:13.000|22=4|48=US3390411052|207=XETR|15=EUR|55=[N/A]|10=181|
2024-07-26 10:45:13.202 [70] [FixSender] (DEBUG) Sending 8=FIX.4.4|9=252|35=D|49=FIXCLIENT1|56=DMA_HUB|34=61|52=20240726-08:45:13|21=1|11=HS_172198351313|38=3951|55=E:07G@XETR|54=1|60=20240726-08:45:13|40=2|59=0|44=197.11|48=US3390411052|22=4|15=EUR|207=XETR|1=bram_123|847=1|24102=Y|24118=300|24128=SECONDS|24119=6|5958=1.0|10=065|
2024-07-26 10:45:13.203 [65] [FixSender] (DEBUG) Receiving 8=FIX.4.4|9=240|35=8|34=58|49=DMA_HUB|56=FIXCLIENT1|52=20240726-08:45:13.203|11=HS_172198351313|37=FXn32tP4I|54=1|40=2|59=0|17=2024072610|150=A|39=A|38=3951|151=3951|14=0|6=0|44=197.11|60=20240726-08:45:13.000|22=4|48=US3390411052|207=XETR|15=EUR|55=[N/A]|10=223|
2024-07-26 10:45:13.316 [71] [FixSender] (DEBUG) Sending 8=FIX.4.4|9=251|35=D|49=FIXCLIENT1|56=DMA_HUB|34=62|52=20240726-08:45:13|21=1|11=HS_172198351314|38=763|55=E:07G@XETR|54=1|60=20240726-08:45:13|40=2|59=0|44=197.11|48=US3390411052|22=4|15=EUR|207=XETR|1=bram_123|847=1|24102=Y|24118=300|24128=SECONDS|24119=6|5958=1.0|10=016|
2024-07-26 10:45:13.318 [65] [FixSender] (DEBUG) Receiving 8=FIX.4.4|9=238|35=8|34=59|49=DMA_HUB|56=FIXCLIENT1|52=20240726-08:45:13.318|11=HS_172198351314|37=FXo32tP4I|54=1|40=2|59=0|17=2024072611|150=A|39=A|38=763|151=763|14=0|6=0|44=197.11|60=20240726-08:45:13.000|22=4|48=US3390411052|207=XETR|15=EUR|55=[N/A]|10=141|
2024-07-26 10:45:18.660 [72] [FixSender] (DEBUG) Sending 8=FIX.4.4|9=252|35=D|49=FIXCLIENT1|56=DMA_HUB|34=63|52=20240726-08:45:18|21=1|11=HS_172198351815|38=1915|55=E:07G@XETR|54=1|60=20240726-08:45:18|40=2|59=0|44=197.11|48=US3390411052|22=4|15=EUR|207=XETR|1=bram_123|847=1|24102=Y|24118=300|24128=SECONDS|24119=6|5958=1.0|10=082|
2024-07-26 10:45:18.662 [65] [FixSender] (DEBUG) Receiving 8=FIX.4.4|9=240|35=8|34=60|49=DMA_HUB|56=FIXCLIENT1|52=20240726-08:45:18.662|11=HS_172198351815|37=FXp32tP4I|54=1|40=2|59=0|17=2024072612|150=A|39=A|38=1915|151=1915|14=0|6=0|44=197.11|60=20240726-08:45:18.000|22=4|48=US3390411052|207=XETR|15=EUR|55=[N/A]|10=242|
2024-07-26 10:45:18.799 [73] [FixSender] (DEBUG) Sending 8=FIX.4.4|9=252|35=D|49=FIXCLIENT1|56=DMA_HUB|34=64|52=20240726-08:45:18|21=1|11=HS_172198351816|38=2303|55=E:07G@XETR|54=1|60=20240726-08:45:18|40=2|59=0|44=197.11|48=US3390411052|22=4|15=EUR|207=XETR|1=bram_123|847=1|24102=Y|24118=300|24128=SECONDS|24119=6|5958=1.0|10=076|
2024-07-26 10:45:18.801 [65] [FixSender] (DEBUG) Receiving 8=FIX.4.4|9=240|35=8|34=61|49=DMA_HUB|56=FIXCLIENT1|52=20240726-08:45:18.800|11=HS_172198351816|37=FXq32tP4I|54=1|40=2|59=0|17=2024072613|150=A|39=A|38=2303|151=2303|14=0|6=0|44=197.11|60=20240726-08:45:18.000|22=4|48=US3390411052|207=XETR|15=EUR|55=[N/A]|10=224|
2024-07-26 10:45:18.893 [74] [FixSender] (DEBUG) Sending 8=FIX.4.4|9=252|35=D|49=FIXCLIENT1|56=DMA_HUB|34=65|52=20240726-08:45:18|21=1|11=HS_172198351817|38=1264|55=E:07G@XETR|54=1|60=20240726-08:45:18|40=2|59=0|44=197.11|48=US3390411052|22=4|15=EUR|207=XETR|1=bram_123|847=1|24102=Y|24118=300|24128=SECONDS|24119=6|5958=1.0|10=083|
2024-07-26 10:45:18.896 [65] [FixSender] (DEBUG) Receiving 8=FIX.4.4|9=240|35=8|34=62|49=DMA_HUB|56=FIXCLIENT1|52=20240726-08:45:18.895|11=HS_172198351817|37=FXr32tP4I|54=1|40=2|59=0|17=2024072614|150=A|39=A|38=1264|151=1264|14=0|6=0|44=197.11|60=20240726-08:45:18.000|22=4|48=US3390411052|207=XETR|15=EUR|55=[N/A]|10=252|
2024-07-26 10:45:30.048 [75] [FixSender] (DEBUG) Sending 8=FIX.4.4|9=252|35=D|49=FIXCLIENT1|56=DMA_HUB|34=66|52=20240726-08:45:30|21=1|11=HS_172198353018|38=2274|55=E:07G@XETR|54=1|60=20240726-08:45:30|40=2|59=0|44=197.11|48=US3390411052|22=4|15=EUR|207=XETR|1=bram_123|847=1|24102=Y|24118=300|24128=SECONDS|24119=6|5958=1.0|10=069|
2024-07-26 10:45:30.050 [65] [FixSender] (DEBUG) Receiving 8=FIX.4.4|9=240|35=8|34=63|49=DMA_HUB|56=FIXCLIENT1|52=20240726-08:45:30.049|11=HS_172198353018|37=FXs32tP4I|54=1|40=2|59=0|17=2024072615|150=A|39=A|38=2274|151=2274|14=0|6=0|44=197.11|60=20240726-08:45:30.000|22=4|48=US3390411052|207=XETR|15=EUR|55=[N/A]|10=233|
2024-07-26 10:45:30.412 [76] [FixSender] (DEBUG) Sending 8=FIX.4.4|9=252|35=D|49=FIXCLIENT1|56=DMA_HUB|34=67|52=20240726-08:45:30|21=1|11=HS_172198353019|38=4293|55=E:07G@XETR|54=1|60=20240726-08:45:30|40=2|59=0|44=197.11|48=US3390411052|22=4|15=EUR|207=XETR|1=bram_123|847=1|24102=Y|24118=300|24128=SECONDS|24119=6|5958=1.0|10=074|
2024-07-26 10:45:30.414 [65] [FixSender] (DEBUG) Receiving 8=FIX.4.4|9=240|35=8|34=64|49=DMA_HUB|56=FIXCLIENT1|52=20240726-08:45:30.414|11=HS_172198353019|37=FXt32tP4I|54=1|40=2|59=0|17=2024072616|150=A|39=A|38=4293|151=4293|14=0|6=0|44=197.11|60=20240726-08:45:30.000|22=4|48=US3390411052|207=XETR|15=EUR|55=[N/A]|10=239|
2024-07-26 10:45:30.549 [77] [FixSender] (DEBUG) Sending 8=FIX.4.4|9=252|35=D|49=FIXCLIENT1|56=DMA_HUB|34=68|52=20240726-08:45:30|21=1|11=HS_172198353020|38=1453|55=E:07G@XETR|54=1|60=20240726-08:45:30|40=2|59=0|44=197.11|48=US3390411052|22=4|15=EUR|207=XETR|1=bram_123|847=1|24102=Y|24118=300|24128=SECONDS|24119=6|5958=1.0|10=062|
2024-07-26 10:45:30.551 [65] [FixSender] (DEBUG) Receiving 8=FIX.4.4|9=240|35=8|34=65|49=DMA_HUB|56=FIXCLIENT1|52=20240726-08:45:30.551|11=HS_172198353020|37=FXu32tP4I|54=1|40=2|59=0|17=2024072617|150=A|39=A|38=1453|151=1453|14=0|6=0|44=197.11|60=20240726-08:45:30.000|22=4|48=US3390411052|207=XETR|15=EUR|55=[N/A]|10=226|
2024-07-26 10:45:30.866 [78] [FixSender] (DEBUG) Sending 8=FIX.4.4|9=252|35=D|49=FIXCLIENT1|56=DMA_HUB|34=69|52=20240726-08:45:30|21=1|11=HS_172198353021|38=2211|55=E:07G@XETR|54=1|60=20240726-08:45:30|40=2|59=0|44=197.11|48=US3390411052|22=4|15=EUR|207=XETR|1=bram_123|847=1|24102=Y|24118=300|24128=SECONDS|24119=6|5958=1.0|10=057|
2024-07-26 10:45:30.868 [65] [FixSender] (DEBUG) Receiving 8=FIX.4.4|9=240|35=8|34=66|49=DMA_HUB|56=FIXCLIENT1|52=20240726-08:45:30.868|11=HS_172198353021|37=FXv32tP4I|54=1|40=2|59=0|17=2024072618|150=A|39=A|38=2211|151=2211|14=0|6=0|44=197.11|60=20240726-08:45:30.000|22=4|48=US3390411052|207=XETR|15=EUR|55=[N/A]|10=227|
2024-07-26 10:45:39.539 [65] [FixSender] (DEBUG) Receiving 8=FIX.4.4|9=61|35=0|34=67|49=DMA_HUB|56=FIXCLIENT1|52=20240726-08:45:39.538|10=010|
2024-07-26 10:46:00.867 [66] [FixSender] (DEBUG) Sending 8=FIX.4.4|9=57|35=0|49=FIXCLIENT1|56=DMA_HUB|34=70|52=20240726-08:46:00|10=048|
2024-07-26 10:46:09.491 [65] [FixSender] (DEBUG) Receiving 8=FIX.4.4|9=61|35=0|34=68|49=DMA_HUB|56=FIXCLIENT1|52=20240726-08:46:09.491|10=007|
2024-07-26 10:46:30.867 [66] [FixSender] (DEBUG) Sending 8=FIX.4.4|9=57|35=0|49=FIXCLIENT1|56=DMA_HUB|34=71|52=20240726-08:46:30|10=052|
2024-07-26 10:46:39.443 [65] [FixSender] (DEBUG) Receiving 8=FIX.4.4|9=61|35=0|34=69|49=DMA_HUB|56=FIXCLIENT1|52=20240726-08:46:39.442|10=007|
2024-07-26 10:47:00.868 [66] [FixSender] (DEBUG) Sending 8=FIX.4.4|9=57|35=0|49=FIXCLIENT1|56=DMA_HUB|34=72|52=20240726-08:47:00|10=051|
2024-07-26 10:47:09.394 [65] [FixSender] (DEBUG) Receiving 8=FIX.4.4|9=61|35=0|34=70|49=DMA_HUB|56=FIXCLIENT1|52=20240726-08:47:09.394|10=003|
2024-07-26 10:47:12.477 [65] [FixSender] (DEBUG) Receiving 8=FIX.4.4|9=61|35=5|34=71|49=DMA_HUB|56=FIXCLIENT1|52=20240726-08:47:12.476|10=004|
2024-07-26 10:47:12.477 [65] [FixSender] (DEBUG) Sending 8=FIX.4.4|9=79|35=5|49=FIXCLIENT1|56=DMA_HUB|34=73|52=20240726-08:47:12|58=Replying to logout|10=242|
2024-07-26 10:47:12.477 [65] [FixSender] (WARNING) The Fix connection is close...
2024-07-26 10:47:12.478 [65] [FixSender] (INFO) physical cnx finished Connection reset by peer
2024-07-26 10:47:12.478 [65] [FixSender] (WARNING) Disconnected
2024-07-26 10:48:07.767 [79] [FixSender] (INFO) try to connect to : localhost port :12345
2024-07-26 10:48:07.767 [79] [FixSender] (INFO) physical cnx initiated
2024-07-26 10:48:07.769 [79] [FixSender] (DEBUG) Sending 8=FIX.4.4|9=87|35=A|49=FIXCLIENT1|56=DMA_HUB|34=74|52=20240726-08:48:07|98=0|108=30|95=9|96=null/null|10=161|
2024-07-26 10:48:07.777 [79] [FixSender] (DEBUG) Receiving 8=FIX.4.4|9=73|35=A|34=72|49=DMA_HUB|56=FIXCLIENT1|52=20240726-08:48:07.773|108=30|98=0|10=050|
2024-07-26 10:48:07.777 [79] [FixSender] (WARNING) The Fix connection is open...
2024-07-26 10:48:07.778 [79] [FixSender] (DEBUG) Sending 8=FIX.4.4|9=75|35=1|49=FIXCLIENT1|56=DMA_HUB|34=75|52=20240726-08:48:07|112=synchronized?|10=112|
2024-07-26 10:48:07.787 [79] [FixSender] (DEBUG) Receiving 8=FIX.4.4|9=79|35=0|34=73|49=DMA_HUB|56=FIXCLIENT1|52=20240726-08:48:07.785|112=synchronized?|10=067|
2024-07-26 10:48:08.833 [82] [FixSender] (DEBUG) Sending 8=FIX.4.4|9=197|35=D|49=FIXCLIENT1|56=DMA_HUB|34=76|52=20240726-08:48:08|21=1|11=HS_172198368822|38=3290|55=E:07G@XETR|54=1|60=20240726-08:48:08|40=2|59=0|44=197.11|48=US3390411052|22=4|15=EUR|207=XETR|1=bram_123|10=136|
2024-07-26 10:48:08.841 [79] [FixSender] (DEBUG) Receiving 8=FIX.4.4|9=240|35=8|34=74|49=DMA_HUB|56=FIXCLIENT1|52=20240726-08:48:08.840|11=HS_172198368822|37=FXt5BtR4I|54=1|40=2|59=0|17=2024072619|150=A|39=A|38=3290|151=3290|14=0|6=0|44=197.11|60=20240726-08:48:08.000|22=4|48=US3390411052|207=XETR|15=EUR|55=[N/A]|10=026|
2024-07-26 10:48:09.368 [83] [FixSender] (DEBUG) Sending 8=FIX.4.4|9=197|35=D|49=FIXCLIENT1|56=DMA_HUB|34=77|52=20240726-08:48:09|21=1|11=HS_172198368923|38=2268|55=E:07G@XETR|54=1|60=20240726-08:48:09|40=2|59=0|44=197.11|48=US3390411052|22=4|15=EUR|207=XETR|1=bram_123|10=145|
2024-07-26 10:48:09.369 [79] [FixSender] (DEBUG) Receiving 8=FIX.4.4|9=240|35=8|34=75|49=DMA_HUB|56=FIXCLIENT1|52=20240726-08:48:09.369|11=HS_172198368923|37=FXu5BtR4I|54=1|40=2|59=0|17=2024072620|150=A|39=A|38=2268|151=2268|14=0|6=0|44=197.11|60=20240726-08:48:09.000|22=4|48=US3390411052|207=XETR|15=EUR|55=[N/A]|10=038|
2024-07-26 10:48:37.731 [79] [FixSender] (DEBUG) Receiving 8=FIX.4.4|9=61|35=0|34=76|49=DMA_HUB|56=FIXCLIENT1|52=20240726-08:48:37.730|10=005|
2024-07-26 10:48:39.369 [80] [FixSender] (DEBUG) Sending 8=FIX.4.4|9=57|35=0|49=FIXCLIENT1|56=DMA_HUB|34=78|52=20240726-08:48:39|10=070|
2024-07-26 10:49:07.682 [79] [FixSender] (DEBUG) Receiving 8=FIX.4.4|9=61|35=0|34=77|49=DMA_HUB|56=FIXCLIENT1|52=20240726-08:49:07.682|10=010|
2024-07-26 10:49:09.370 [80] [FixSender] (DEBUG) Sending 8=FIX.4.4|9=57|35=0|49=FIXCLIENT1|56=DMA_HUB|34=79|52=20240726-08:49:09|10=069|
2024-07-26 10:49:37.635 [79] [FixSender] (DEBUG) Receiving 8=FIX.4.4|9=61|35=0|34=78|49=DMA_HUB|56=FIXCLIENT1|52=20240726-08:49:37.634|10=011|
2024-07-26 10:49:39.370 [80] [FixSender] (DEBUG) Sending 8=FIX.4.4|9=57|35=0|49=FIXCLIENT1|56=DMA_HUB|34=80|52=20240726-08:49:39|10=064|
2024-07-26 10:50:07.586 [79] [FixSender] (DEBUG) Receiving 8=FIX.4.4|9=61|35=0|34=79|49=DMA_HUB|56=FIXCLIENT1|52=20240726-08:50:07.586|10=007|
2024-07-26 10:50:09.371 [80] [FixSender] (DEBUG) Sending 8=FIX.4.4|9=57|35=0|49=FIXCLIENT1|56=DMA_HUB|34=81|52=20240726-08:50:09|10=054|
2024-07-26 10:50:37.539 [79] [FixSender] (DEBUG) Receiving 8=FIX.4.4|9=61|35=0|34=80|49=DMA_HUB|56=FIXCLIENT1|52=20240726-08:50:37.539|10=000|
2024-07-26 10:50:39.372 [80] [FixSender] (DEBUG) Sending 8=FIX.4.4|9=57|35=0|49=FIXCLIENT1|56=DMA_HUB|34=82|52=20240726-08:50:39|10=058|
2024-07-26 10:50:50.090 [79] [FixSender] (DEBUG) Receiving 8=FIX.4.4|9=61|35=5|34=81|49=DMA_HUB|56=FIXCLIENT1|52=20240726-08:50:50.090|10=249|
2024-07-26 10:50:50.091 [79] [FixSender] (DEBUG) Sending 8=FIX.4.4|9=79|35=5|49=FIXCLIENT1|56=DMA_HUB|34=83|52=20240726-08:50:50|58=Replying to logout|10=239|
2024-07-26 10:50:50.091 [79] [FixSender] (WARNING) The Fix connection is close...
2024-07-26 10:50:50.097 [79] [FixSender] (INFO) physical cnx finished Connection reset by peer
2024-07-26 10:50:50.101 [79] [FixSender] (WARNING) Disconnected
2024-07-26 10:55:34.510 [84] [FixSender] (INFO) try to connect to : localhost port :12345
2024-07-26 10:55:34.512 [84] [FixSender] (INFO) physical cnx initiated
2024-07-26 10:55:34.515 [84] [FixSender] (DEBUG) Sending 8=FIX.4.4|9=87|35=A|49=FIXCLIENT1|56=DMA_HUB|34=84|52=20240726-08:55:34|98=0|108=30|95=9|96=null/null|10=160|
2024-07-26 10:55:34.520 [84] [FixSender] (DEBUG) Receiving 8=FIX.4.4|9=73|35=A|34=82|49=DMA_HUB|56=FIXCLIENT1|52=20240726-08:55:34.518|108=30|98=0|10=046|
2024-07-26 10:55:34.520 [84] [FixSender] (WARNING) The Fix connection is open...
2024-07-26 10:55:34.522 [84] [FixSender] (DEBUG) Sending 8=FIX.4.4|9=75|35=1|49=FIXCLIENT1|56=DMA_HUB|34=85|52=20240726-08:55:34|112=synchronized?|10=111|
2024-07-26 10:55:34.527 [84] [FixSender] (DEBUG) Receiving 8=FIX.4.4|9=79|35=0|34=83|49=DMA_HUB|56=FIXCLIENT1|52=20240726-08:55:34.525|112=synchronized?|10=058|
2024-07-26 10:55:35.416 [87] [FixSender] (DEBUG) Sending 8=FIX.4.4|9=197|35=D|49=FIXCLIENT1|56=DMA_HUB|34=86|52=20240726-08:55:35|21=1|11=HS_172198413524|38=2873|55=E:07G@XETR|54=1|60=20240726-08:55:35|40=2|59=0|44=197.11|48=US3390411052|22=4|15=EUR|207=XETR|1=bram_123|10=129|
2024-07-26 10:55:35.426 [84] [FixSender] (DEBUG) Receiving 8=FIX.4.4|9=240|35=8|34=84|49=DMA_HUB|56=FIXCLIENT1|52=20240726-08:55:35.425|11=HS_172198413524|37=FXLo2oW4I|54=1|40=2|59=0|17=2024072621|150=A|39=A|38=2873|151=2873|14=0|6=0|44=197.11|60=20240726-08:55:35.000|22=4|48=US3390411052|207=XETR|15=EUR|55=[N/A]|10=019|
2024-07-26 10:55:47.476 [88] [FixSender] (DEBUG) Sending 8=FIX.4.4|9=194|35=D|49=FIXCLIENT1|56=DMA_HUB|34=87|52=20240726-08:55:47|21=1|11=HS_172198414725|38=1075|55=E:07G@XETR|54=1|60=20240726-08:55:47|40=2|59=0|44=197|48=US3390411052|22=4|15=EUR|207=XETR|1=bram_123|10=242|
2024-07-26 10:55:47.478 [84] [FixSender] (DEBUG) Receiving 8=FIX.4.4|9=237|35=8|34=85|49=DMA_HUB|56=FIXCLIENT1|52=20240726-08:55:47.477|11=HS_172198414725|37=FXMo2oW4I|54=1|40=2|59=0|17=2024072622|150=A|39=A|38=1075|151=1075|14=0|6=0|44=197|60=20240726-08:55:47.000|22=4|48=US3390411052|207=XETR|15=EUR|55=[N/A]|10=143|
2024-07-26 10:55:47.483 [84] [FixSender] (DEBUG) Receiving 8=FIX.4.4|9=252|35=8|34=86|49=DMA_HUB|56=FIXCLIENT1|52=20240726-08:55:47.482|11=HS_172198414725|37=FXMo2oW4I|198=NuDJB125a1|54=1|40=2|59=0|17=2024072623|150=0|39=0|38=1075|151=1075|14=0|6=0|44=197|60=20240726-08:55:47.479|22=4|48=US3390411052|207=XETR|15=EUR|55=[N/A]|10=025|
2024-07-26 10:55:47.492 [84] [FixSender] (DEBUG) Receiving 8=FIX.4.4|9=313|35=8|34=87|49=DMA_HUB|56=FIXCLIENT1|52=20240726-08:55:47.491|11=HS_172198414725|37=FXMo2oW4I|198=NuDJB125a1|54=1|32=1075|31=150|17=2024072624|527=BNuDJB1|150=F|39=2|38=1075|151=0|14=1075|6=150|44=197|60=20240726-08:55:47.479|22=4|48=US3390411052|207=XETR|15=EUR|55=[N/A]|453=1|448=strmrepl|447=D|452=17|40=2|59=0|10=229|
2024-07-26 10:55:48.473 [89] [FixSender] (DEBUG) Sending 8=FIX.4.4|9=193|35=D|49=FIXCLIENT1|56=DMA_HUB|34=88|52=20240726-08:55:48|21=1|11=HS_172198414826|38=884|55=E:07G@XETR|54=1|60=20240726-08:55:48|40=2|59=0|44=197|48=US3390411052|22=4|15=EUR|207=XETR|1=bram_123|10=205|
2024-07-26 10:55:48.474 [84] [FixSender] (DEBUG) Receiving 8=FIX.4.4|9=235|35=8|34=88|49=DMA_HUB|56=FIXCLIENT1|52=20240726-08:55:48.474|11=HS_172198414826|37=FXNo2oW4I|54=1|40=2|59=0|17=2024072625|150=A|39=A|38=884|151=884|14=0|6=0|44=197|60=20240726-08:55:48.000|22=4|48=US3390411052|207=XETR|15=EUR|55=[N/A]|10=067|
2024-07-26 10:55:48.477 [84] [FixSender] (DEBUG) Receiving 8=FIX.4.4|9=250|35=8|34=89|49=DMA_HUB|56=FIXCLIENT1|52=20240726-08:55:48.477|11=HS_172198414826|37=FXNo2oW4I|198=NuDJB1274e|54=1|40=2|59=0|17=2024072626|150=0|39=0|38=884|151=884|14=0|6=0|44=197|60=20240726-08:55:48.475|22=4|48=US3390411052|207=XETR|15=EUR|55=[N/A]|10=217|
2024-07-26 10:55:48.479 [84] [FixSender] (DEBUG) Receiving 8=FIX.4.4|9=310|35=8|34=90|49=DMA_HUB|56=FIXCLIENT1|52=20240726-08:55:48.478|11=HS_172198414826|37=FXNo2oW4I|198=NuDJB1274e|54=1|32=884|31=150|17=2024072627|527=BNuDJB2|150=F|39=2|38=884|151=0|14=884|6=150|44=197|60=20240726-08:55:48.475|22=4|48=US3390411052|207=XETR|15=EUR|55=[N/A]|453=1|448=strmrepl|447=D|452=17|40=2|59=0|10=116|
2024-07-26 10:55:48.975 [90] [FixSender] (DEBUG) Sending 8=FIX.4.4|9=194|35=D|49=FIXCLIENT1|56=DMA_HUB|34=89|52=20240726-08:55:48|21=1|11=HS_172198414827|38=3635|55=E:07G@XETR|54=1|60=20240726-08:55:48|40=2|59=0|44=197|48=US3390411052|22=4|15=EUR|207=XETR|1=bram_123|10=253|
2024-07-26 10:55:48.977 [84] [FixSender] (DEBUG) Receiving 8=FIX.4.4|9=237|35=8|34=91|49=DMA_HUB|56=FIXCLIENT1|52=20240726-08:55:48.976|11=HS_172198414827|37=FXOo2oW4I|54=1|40=2|59=0|17=2024072628|150=A|39=A|38=3635|151=3635|14=0|6=0|44=197|60=20240726-08:55:48.000|22=4|48=US3390411052|207=XETR|15=EUR|55=[N/A]|10=165|
2024-07-26 10:55:48.982 [84] [FixSender] (DEBUG) Receiving 8=FIX.4.4|9=252|35=8|34=92|49=DMA_HUB|56=FIXCLIENT1|52=20240726-08:55:48.980|11=HS_172198414827|37=FXOo2oW4I|198=NuDJB12833|54=1|40=2|59=0|17=2024072629|150=0|39=0|38=3635|151=3635|14=0|6=0|44=197|60=20240726-08:55:48.978|22=4|48=US3390411052|207=XETR|15=EUR|55=[N/A]|10=009|
2024-07-26 10:55:48.982 [84] [FixSender] (DEBUG) Receiving 8=FIX.4.4|9=313|35=8|34=93|49=DMA_HUB|56=FIXCLIENT1|52=20240726-08:55:48.981|11=HS_172198414827|37=FXOo2oW4I|198=NuDJB12833|54=1|32=3635|31=150|17=2024072630|527=BNuDJB3|150=F|39=2|38=3635|151=0|14=3635|6=150|44=197|60=20240726-08:55:48.978|22=4|48=US3390411052|207=XETR|15=EUR|55=[N/A]|453=1|448=strmrepl|447=D|452=17|40=2|59=0|10=211|
2024-07-26 10:56:04.472 [84] [FixSender] (DEBUG) Receiving 8=FIX.4.4|9=61|35=0|34=94|49=DMA_HUB|56=FIXCLIENT1|52=20240726-08:56:04.472|10=001|
2024-07-26 10:56:06.899 [91] [FixSender] (DEBUG) Sending 8=FIX.4.4|9=193|35=D|49=FIXCLIENT1|56=DMA_HUB|34=90|52=20240726-08:56:06|21=1|11=HS_172198416628|38=599|55=E:07G@XETR|54=1|60=20240726-08:56:06|40=2|59=0|44=197|48=US3390411052|22=4|15=EUR|207=XETR|1=bram_123|10=193|
2024-07-26 10:56:06.900 [84] [FixSender] (DEBUG) Receiving 8=FIX.4.4|9=235|35=8|34=95|49=DMA_HUB|56=FIXCLIENT1|52=20240726-08:56:06.900|11=HS_172198416628|37=FXPo2oW4I|54=1|40=2|59=0|17=2024072631|150=A|39=A|38=599|151=599|14=0|6=0|44=197|60=20240726-08:56:06.000|22=4|48=US3390411052|207=XETR|15=EUR|55=[N/A]|10=056|
2024-07-26 10:56:06.903 [84] [FixSender] (DEBUG) Receiving 8=FIX.4.4|9=250|35=8|34=96|49=DMA_HUB|56=FIXCLIENT1|52=20240726-08:56:06.903|11=HS_172198416628|37=FXPo2oW4I|198=NuDJB1478d|54=1|40=2|59=0|17=2024072632|150=0|39=0|38=599|151=599|14=0|6=0|44=197|60=20240726-08:56:06.902|22=4|48=US3390411052|207=XETR|15=EUR|55=[N/A]|10=206|
2024-07-26 10:56:06.904 [84] [FixSender] (DEBUG) Receiving 8=FIX.4.4|9=310|35=8|34=97|49=DMA_HUB|56=FIXCLIENT1|52=20240726-08:56:06.904|11=HS_172198416628|37=FXPo2oW4I|198=NuDJB1478d|54=1|32=599|31=149|17=2024072633|527=BNuDJB4|150=F|39=2|38=599|151=0|14=599|6=149|44=197|60=20240726-08:56:06.902|22=4|48=US3390411052|207=XETR|15=EUR|55=[N/A]|453=1|448=strmrepl|447=D|452=17|40=2|59=0|10=135|
2024-07-26 10:56:07.870 [92] [FixSender] (DEBUG) Sending 8=FIX.4.4|9=194|35=D|49=FIXCLIENT1|56=DMA_HUB|34=91|52=20240726-08:56:07|21=1|11=HS_172198416729|38=2352|55=E:07G@XETR|54=1|60=20240726-08:56:07|40=2|59=0|44=197|48=US3390411052|22=4|15=EUR|207=XETR|1=bram_123|10=236|
2024-07-26 10:56:07.871 [84] [FixSender] (DEBUG) Receiving 8=FIX.4.4|9=237|35=8|34=98|49=DMA_HUB|56=FIXCLIENT1|52=20240726-08:56:07.871|11=HS_172198416729|37=FXQo2oW4I|54=1|40=2|59=0|17=2024072634|150=A|39=A|38=2352|151=2352|14=0|6=0|44=197|60=20240726-08:56:07.000|22=4|48=US3390411052|207=XETR|15=EUR|55=[N/A]|10=150|
2024-07-26 10:56:07.874 [84] [FixSender] (DEBUG) Receiving 8=FIX.4.4|9=252|35=8|34=99|49=DMA_HUB|56=FIXCLIENT1|52=20240726-08:56:07.874|11=HS_172198416729|37=FXQo2oW4I|198=NuDJB1492e|54=1|40=2|59=0|17=2024072635|150=0|39=0|38=2352|151=2352|14=0|6=0|44=197|60=20240726-08:56:07.873|22=4|48=US3390411052|207=XETR|15=EUR|55=[N/A]|10=048|
2024-07-26 10:56:07.876 [84] [FixSender] (DEBUG) Receiving 8=FIX.4.4|9=314|35=8|34=100|49=DMA_HUB|56=FIXCLIENT1|52=20240726-08:56:07.876|11=HS_172198416729|37=FXQo2oW4I|198=NuDJB1492e|54=1|32=2352|31=149|17=2024072636|527=BNuDJB5|150=F|39=2|38=2352|151=0|14=2352|6=149|44=197|60=20240726-08:56:07.873|22=4|48=US3390411052|207=XETR|15=EUR|55=[N/A]|453=1|448=strmrepl|447=D|452=17|40=2|59=0|10=048|
2024-07-26 10:56:34.425 [84] [FixSender] (DEBUG) Receiving 8=FIX.4.4|9=62|35=0|34=101|49=DMA_HUB|56=FIXCLIENT1|52=20240726-08:56:34.425|10=040|
2024-07-26 10:56:37.871 [85] [FixSender] (DEBUG) Sending 8=FIX.4.4|9=57|35=0|49=FIXCLIENT1|56=DMA_HUB|34=92|52=20240726-08:56:37|10=063|
2024-07-26 10:57:04.377 [84] [FixSender] (DEBUG) Receiving 8=FIX.4.4|9=62|35=0|34=102|49=DMA_HUB|56=FIXCLIENT1|52=20240726-08:57:04.376|10=044|
2024-07-26 10:57:07.871 [85] [FixSender] (DEBUG) Sending 8=FIX.4.4|9=57|35=0|49=FIXCLIENT1|56=DMA_HUB|34=93|52=20240726-08:57:07|10=062|
2024-07-26 10:57:34.329 [84] [FixSender] (DEBUG) Receiving 8=FIX.4.4|9=62|35=0|34=103|49=DMA_HUB|56=FIXCLIENT1|52=20240726-08:57:34.329|10=046|
2024-07-26 10:57:37.872 [85] [FixSender] (DEBUG) Sending 8=FIX.4.4|9=57|35=0|49=FIXCLIENT1|56=DMA_HUB|34=94|52=20240726-08:57:37|10=066|
2024-07-26 10:58:04.281 [84] [FixSender] (DEBUG) Receiving 8=FIX.4.4|9=62|35=0|34=104|49=DMA_HUB|56=FIXCLIENT1|52=20240726-08:58:04.280|10=041|
2024-07-26 10:58:07.873 [85] [FixSender] (DEBUG) Sending 8=FIX.4.4|9=57|35=0|49=FIXCLIENT1|56=DMA_HUB|34=95|52=20240726-08:58:07|10=065|
2024-07-26 10:58:08.302 [94] [FixSender] (DEBUG) Sending 8=FIX.4.4|9=194|35=D|49=FIXCLIENT1|56=DMA_HUB|34=96|52=20240726-08:58:08|21=1|11=HS_172198428830|38=1260|55=E:07G@XETR|54=1|60=20240726-08:58:08|40=2|59=0|44=197|48=US3390411052|22=4|15=EUR|207=XETR|1=bram_123|10=240|
2024-07-26 10:58:08.305 [84] [FixSender] (DEBUG) Receiving 8=FIX.4.4|9=238|35=8|34=105|49=DMA_HUB|56=FIXCLIENT1|52=20240726-08:58:08.303|11=HS_172198428830|37=FXRo2oW4I|54=1|40=2|59=0|17=2024072637|150=A|39=A|38=1260|151=1260|14=0|6=0|44=197|60=20240726-08:58:08.000|22=4|48=US3390411052|207=XETR|15=EUR|55=[N/A]|10=178|
2024-07-26 10:58:34.897 [84] [FixSender] (DEBUG) Receiving 8=FIX.4.4|9=62|35=0|34=106|49=DMA_HUB|56=FIXCLIENT1|52=20240726-08:58:34.896|10=059|
2024-07-26 10:58:38.302 [85] [FixSender] (DEBUG) Sending 8=FIX.4.4|9=57|35=0|49=FIXCLIENT1|56=DMA_HUB|34=97|52=20240726-08:58:38|10=071|
2024-07-26 10:59:06.897 [86] [FixSender] (DEBUG) Sending 8=FIX.4.4|9=80|35=1|49=FIXCLIENT1|56=DMA_HUB|34=98|52=20240726-08:59:06|112=HeartBtExt Timeout|10=245|
2024-07-26 10:59:36.897 [85] [FixSender] (DEBUG) Sending 8=FIX.4.4|9=57|35=0|49=FIXCLIENT1|56=DMA_HUB|34=99|52=20240726-08:59:36|10=072|
2024-07-26 10:59:38.901 [84] [FixSender] (INFO) physical cnx finished Connection reset by peer
2024-07-26 10:59:38.901 [84] [FixSender] (WARNING) Disconnected
2024-07-26 11:02:00.624 [95] [FixSender] (INFO) try to connect to : localhost port :12345
2024-07-26 11:02:00.625 [95] [FixSender] (INFO) physical cnx initiated
2024-07-26 11:02:00.626 [95] [FixSender] (DEBUG) Sending 8=FIX.4.4|9=88|35=A|49=FIXCLIENT1|56=DMA_HUB|34=100|52=20240726-09:02:00|98=0|108=30|95=9|96=null/null|10=184|
2024-07-26 11:02:00.627 [95] [FixSender] (DEBUG) Receiving 8=FIX.4.4|9=74|35=A|34=109|49=DMA_HUB|56=FIXCLIENT1|52=20240726-09:02:00.627|108=30|98=0|10=082|
2024-07-26 11:02:00.628 [95] [FixSender] (WARNING) The Fix connection is open...
2024-07-26 11:02:00.629 [95] [FixSender] (DEBUG) Sending 8=FIX.4.4|9=69|35=2|49=FIXCLIENT1|56=DMA_HUB|34=101|52=20240726-09:02:00|7=107|16=0|10=059|
2024-07-26 11:02:00.636 [95] [FixSender] (DEBUG) Receiving 8=FIX.4.4|9=106|35=4|34=107|49=DMA_HUB|56=FIXCLIENT1|52=20240726-09:02:00.636|43=Y|122=20240726-09:02:00.636|36=110|123=Y|10=189|
2024-07-26 11:02:01.523 [98] [FixSender] (DEBUG) Sending 8=FIX.4.4|9=195|35=D|49=FIXCLIENT1|56=DMA_HUB|34=102|52=20240726-09:02:01|21=1|11=HS_172198452131|38=2714|55=E:07G@XETR|54=1|60=20240726-09:02:01|40=2|59=0|44=197|48=US3390411052|22=4|15=EUR|207=XETR|1=bram_123|10=239|
2024-07-26 11:02:01.526 [95] [FixSender] (DEBUG) Receiving 8=FIX.4.4|9=238|35=8|34=110|49=DMA_HUB|56=FIXCLIENT1|52=20240726-09:02:01.525|11=HS_172198452131|37=FXSo2oW4I|54=1|40=2|59=0|17=2024072638|150=A|39=A|38=2714|151=2714|14=0|6=0|44=197|60=20240726-09:02:01.000|22=4|48=US3390411052|207=XETR|15=EUR|55=[N/A]|10=149|
2024-07-26 11:02:31.526 [96] [FixSender] (DEBUG) Sending 8=FIX.4.4|9=58|35=0|49=FIXCLIENT1|56=DMA_HUB|34=103|52=20240726-09:02:31|10=091|
2024-07-26 11:02:33.527 [97] [FixSender] (DEBUG) Sending 8=FIX.4.4|9=81|35=1|49=FIXCLIENT1|56=DMA_HUB|34=104|52=20240726-09:02:33|112=HeartBtExt Timeout|10=015|
2024-07-26 11:02:49.588 [95] [FixSender] (DEBUG) Receiving 8=FIX.4.4|9=62|35=0|34=111|49=DMA_HUB|56=FIXCLIENT1|52=20240726-09:02:49.586|10=047|
2024-07-26 11:02:49.588 [95] [FixSender] (DEBUG) Receiving 8=FIX.4.4|9=85|35=0|34=112|49=DMA_HUB|56=FIXCLIENT1|52=20240726-09:02:49.587|112=HeartBtExt Timeout|10=234|
2024-07-26 11:03:03.527 [96] [FixSender] (DEBUG) Sending 8=FIX.4.4|9=58|35=0|49=FIXCLIENT1|56=DMA_HUB|34=105|52=20240726-09:03:03|10=093|
2024-07-26 11:03:21.588 [97] [FixSender] (DEBUG) Sending 8=FIX.4.4|9=81|35=1|49=FIXCLIENT1|56=DMA_HUB|34=106|52=20240726-09:03:21|112=HeartBtExt Timeout|10=015|
2024-07-26 11:03:51.589 [96] [FixSender] (DEBUG) Sending 8=FIX.4.4|9=58|35=0|49=FIXCLIENT1|56=DMA_HUB|34=107|52=20240726-09:03:51|10=098|
2024-07-26 11:03:53.589 [95] [FixSender] (INFO) physical cnx finished Connection reset by peer
2024-07-26 11:03:53.589 [95] [FixSender] (WARNING) Disconnected
2024-07-26 11:06:52.744 [99] [FixSender] (INFO) try to connect to : localhost port :12345
2024-07-26 11:06:52.746 [99] [FixSender] (INFO) physical cnx initiated
2024-07-26 11:06:52.748 [99] [FixSender] (DEBUG) Sending 8=FIX.4.4|9=88|35=A|49=FIXCLIENT1|56=DMA_HUB|34=108|52=20240726-09:06:52|98=0|108=30|95=9|96=null/null|10=203|
2024-07-26 11:06:52.749 [99] [FixSender] (DEBUG) Receiving 8=FIX.4.4|9=74|35=A|34=115|49=DMA_HUB|56=FIXCLIENT1|52=20240726-09:06:52.749|108=30|98=0|10=095|
2024-07-26 11:06:52.749 [99] [FixSender] (WARNING) The Fix connection is open...
2024-07-26 11:06:52.750 [99] [FixSender] (DEBUG) Sending 8=FIX.4.4|9=69|35=2|49=FIXCLIENT1|56=DMA_HUB|34=109|52=20240726-09:06:52|7=113|16=0|10=075|
2024-07-26 11:06:52.752 [99] [FixSender] (DEBUG) Receiving 8=FIX.4.4|9=106|35=4|34=113|49=DMA_HUB|56=FIXCLIENT1|52=20240726-09:06:52.751|43=Y|122=20240726-09:06:52.751|36=116|123=Y|10=210|
2024-07-26 11:06:53.563 [102] [FixSender] (DEBUG) Sending 8=FIX.4.4|9=195|35=D|49=FIXCLIENT1|56=DMA_HUB|34=110|52=20240726-09:06:53|21=1|11=HS_172198481332|38=1667|55=E:07G@XETR|54=1|60=20240726-09:06:53|40=2|59=0|44=197|48=US3390411052|22=4|15=EUR|207=XETR|1=bram_123|10=015|
2024-07-26 11:06:53.565 [99] [FixSender] (DEBUG) Receiving 8=FIX.4.4|9=238|35=8|34=116|49=DMA_HUB|56=FIXCLIENT1|52=20240726-09:06:53.565|11=HS_172198481332|37=FXTo2oW4I|54=1|40=2|59=0|17=2024072639|150=A|39=A|38=1667|151=1667|14=0|6=0|44=197|60=20240726-09:06:53.000|22=4|48=US3390411052|207=XETR|15=EUR|55=[N/A]|10=200|
2024-07-26 11:06:54.548 [103] [FixSender] (DEBUG) Sending 8=FIX.4.4|9=195|35=D|49=FIXCLIENT1|56=DMA_HUB|34=111|52=20240726-09:06:54|21=1|11=HS_172198481433|38=1590|55=E:07G@XETR|54=1|60=20240726-09:06:54|40=2|59=0|44=197|48=US3390411052|22=4|15=EUR|207=XETR|1=bram_123|10=015|
2024-07-26 11:06:54.550 [99] [FixSender] (DEBUG) Receiving 8=FIX.4.4|9=238|35=8|34=117|49=DMA_HUB|56=FIXCLIENT1|52=20240726-09:06:54.550|11=HS_172198481433|37=FXUo2oW4I|54=1|40=2|59=0|17=2024072640|150=A|39=A|38=1590|151=1590|14=0|6=0|44=197|60=20240726-09:06:54.000|22=4|48=US3390411052|207=XETR|15=EUR|55=[N/A]|10=182|
2024-07-26 11:06:55.479 [104] [FixSender] (DEBUG) Sending 8=FIX.4.4|9=195|35=D|49=FIXCLIENT1|56=DMA_HUB|34=112|52=20240726-09:06:55|21=1|11=HS_172198481534|38=2390|55=E:07G@XETR|54=1|60=20240726-09:06:55|40=2|59=0|44=197|48=US3390411052|22=4|15=EUR|207=XETR|1=bram_123|10=019|
2024-07-26 11:06:55.480 [99] [FixSender] (DEBUG) Receiving 8=FIX.4.4|9=238|35=8|34=118|49=DMA_HUB|56=FIXCLIENT1|52=20240726-09:06:55.480|11=HS_172198481534|37=FXVo2oW4I|54=1|40=2|59=0|17=2024072641|150=A|39=A|38=2390|151=2390|14=0|6=0|44=197|60=20240726-09:06:55.000|22=4|48=US3390411052|207=XETR|15=EUR|55=[N/A]|10=189|
2024-07-26 11:07:04.542 [105] [FixSender] (DEBUG) Sending 8=FIX.4.4|9=195|35=D|49=FIXCLIENT1|56=DMA_HUB|34=113|52=20240726-09:07:04|21=1|11=HS_172198482435|38=4931|55=E:07G@XETR|54=1|60=20240726-09:07:04|40=2|59=0|44=197|48=US3390411052|22=4|15=EUR|207=XETR|1=bram_123|10=014|
2024-07-26 11:07:04.545 [99] [FixSender] (DEBUG) Receiving 8=FIX.4.4|9=238|35=8|34=119|49=DMA_HUB|56=FIXCLIENT1|52=20240726-09:07:04.545|11=HS_172198482435|37=FXWo2oW4I|54=1|40=2|59=0|17=2024072642|150=A|39=A|38=4931|151=4931|14=0|6=0|44=197|60=20240726-09:07:04.000|22=4|48=US3390411052|207=XETR|15=EUR|55=[N/A]|10=191|
2024-07-26 11:07:05.316 [106] [FixSender] (DEBUG) Sending 8=FIX.4.4|9=195|35=D|49=FIXCLIENT1|56=DMA_HUB|34=114|52=20240726-09:07:05|21=1|11=HS_172198482536|38=4217|55=E:07G@XETR|54=1|60=20240726-09:07:05|40=2|59=0|44=197|48=US3390411052|22=4|15=EUR|207=XETR|1=bram_123|10=016|
2024-07-26 11:07:05.317 [99] [FixSender] (DEBUG) Receiving 8=FIX.4.4|9=238|35=8|34=120|49=DMA_HUB|56=FIXCLIENT1|52=20240726-09:07:05.317|11=HS_172198482536|37=FXXo2oW4I|54=1|40=2|59=0|17=2024072643|150=A|39=A|38=4217|151=4217|14=0|6=0|44=197|60=20240726-09:07:05.000|22=4|48=US3390411052|207=XETR|15=EUR|55=[N/A]|10=180|
2024-07-26 11:07:06.223 [107] [FixSender] (DEBUG) Sending 8=FIX.4.4|9=195|35=D|49=FIXCLIENT1|56=DMA_HUB|34=115|52=20240726-09:07:06|21=1|11=HS_172198482637|38=3252|55=E:07G@XETR|54=1|60=20240726-09:07:06|40=2|59=0|44=197|48=US3390411052|22=4|15=EUR|207=XETR|1=bram_123|10=019|
2024-07-26 11:07:06.227 [99] [FixSender] (DEBUG) Receiving 8=FIX.4.4|9=238|35=8|34=121|49=DMA_HUB|56=FIXCLIENT1|52=20240726-09:07:06.226|11=HS_172198482637|37=FXYo2oW4I|54=1|40=2|59=0|17=2024072644|150=A|39=A|38=3252|151=3252|14=0|6=0|44=197|60=20240726-09:07:06.000|22=4|48=US3390411052|207=XETR|15=EUR|55=[N/A]|10=182|
2024-07-26 11:07:06.994 [108] [FixSender] (DEBUG) Sending 8=FIX.4.4|9=194|35=D|49=FIXCLIENT1|56=DMA_HUB|34=116|52=20240726-09:07:06|21=1|11=HS_172198482638|38=899|55=E:07G@XETR|54=1|60=20240726-09:07:06|40=2|59=0|44=197|48=US3390411052|22=4|15=EUR|207=XETR|1=bram_123|10=242|
2024-07-26 11:07:06.996 [99] [FixSender] (DEBUG) Receiving 8=FIX.4.4|9=236|35=8|34=122|49=DMA_HUB|56=FIXCLIENT1|52=20240726-09:07:06.995|11=HS_172198482638|37=FXZo2oW4I|54=1|40=2|59=0|17=2024072645|150=A|39=A|38=899|151=899|14=0|6=0|44=197|60=20240726-09:07:06.000|22=4|48=US3390411052|207=XETR|15=EUR|55=[N/A]|10=129|
2024-07-26 11:07:22.720 [99] [FixSender] (DEBUG) Receiving 8=FIX.4.4|9=62|35=0|34=123|49=DMA_HUB|56=FIXCLIENT1|52=20240726-09:07:22.719|10=044|
2024-07-26 11:07:24.726 [109] [FixSender] (DEBUG) Sending 8=FIX.4.4|9=195|35=D|49=FIXCLIENT1|56=DMA_HUB|34=117|52=20240726-09:07:24|21=1|11=HS_172198484439|38=3477|55=E:07G@XETR|54=1|60=20240726-09:07:24|40=2|59=0|44=197|48=US3390411052|22=4|15=EUR|207=XETR|1=bram_123|10=032|
2024-07-26 11:07:24.728 [99] [FixSender] (DEBUG) Receiving 8=FIX.4.4|9=238|35=8|34=124|49=DMA_HUB|56=FIXCLIENT1|52=20240726-09:07:24.728|11=HS_172198484439|37=FXao2oW4I|54=1|40=2|59=0|17=2024072646|150=A|39=A|38=3477|151=3477|14=0|6=0|44=197|60=20240726-09:07:24.000|22=4|48=US3390411052|207=XETR|15=EUR|55=[N/A]|10=222|
2024-07-26 11:07:24.733 [99] [FixSender] (DEBUG) Receiving 8=FIX.4.4|9=253|35=8|34=125|49=DMA_HUB|56=FIXCLIENT1|52=20240726-09:07:24.732|11=HS_172198484439|37=FXao2oW4I|198=NuDJB5e609|54=1|40=2|59=0|17=2024072647|150=0|39=0|38=3477|151=3477|14=0|6=0|44=197|60=20240726-09:07:24.730|22=4|48=US3390411052|207=XETR|15=EUR|55=[N/A]|10=108|
2024-07-26 11:07:24.734 [99] [FixSender] (DEBUG) Receiving 8=FIX.4.4|9=314|35=8|34=126|49=DMA_HUB|56=FIXCLIENT1|52=20240726-09:07:24.734|11=HS_172198484439|37=FXao2oW4I|198=NuDJB5e609|54=1|32=3477|31=142|17=2024072648|527=BNuDJB6|150=F|39=2|38=3477|151=0|14=3477|6=142|44=197|60=20240726-09:07:24.730|22=4|48=US3390411052|207=XETR|15=EUR|55=[N/A]|453=1|448=strmrepl|447=D|452=17|40=2|59=0|10=073|
2024-07-26 11:07:25.712 [110] [FixSender] (DEBUG) Sending 8=FIX.4.4|9=194|35=D|49=FIXCLIENT1|56=DMA_HUB|34=118|52=20240726-09:07:25|21=1|11=HS_172198484540|38=823|55=E:07G@XETR|54=1|60=20240726-09:07:25|40=2|59=0|44=197|48=US3390411052|22=4|15=EUR|207=XETR|1=bram_123|10=227|
2024-07-26 11:07:25.714 [99] [FixSender] (DEBUG) Receiving 8=FIX.4.4|9=236|35=8|34=127|49=DMA_HUB|56=FIXCLIENT1|52=20240726-09:07:25.713|11=HS_172198484540|37=FXbo2oW4I|54=1|40=2|59=0|17=2024072649|150=A|39=A|38=823|151=823|14=0|6=0|44=197|60=20240726-09:07:25.000|22=4|48=US3390411052|207=XETR|15=EUR|55=[N/A]|10=104|
2024-07-26 11:07:25.717 [99] [FixSender] (DEBUG) Receiving 8=FIX.4.4|9=251|35=8|34=128|49=DMA_HUB|56=FIXCLIENT1|52=20240726-09:07:25.717|11=HS_172198484540|37=FXbo2oW4I|198=NuDJB5e7d2|54=1|40=2|59=0|17=2024072650|150=0|39=0|38=823|151=823|14=0|6=0|44=197|60=20240726-09:07:25.715|22=4|48=US3390411052|207=XETR|15=EUR|55=[N/A]|10=039|
2024-07-26 11:07:25.718 [99] [FixSender] (DEBUG) Receiving 8=FIX.4.4|9=311|35=8|34=129|49=DMA_HUB|56=FIXCLIENT1|52=20240726-09:07:25.718|11=HS_172198484540|37=FXbo2oW4I|198=NuDJB5e7d2|54=1|32=823|31=142|17=2024072651|527=BNuDJB7|150=F|39=2|38=823|151=0|14=823|6=142|44=197|60=20240726-09:07:25.715|22=4|48=US3390411052|207=XETR|15=EUR|55=[N/A]|453=1|448=strmrepl|447=D|452=17|40=2|59=0|10=203|
2024-07-26 11:07:52.672 [99] [FixSender] (DEBUG) Receiving 8=FIX.4.4|9=62|35=0|34=130|49=DMA_HUB|56=FIXCLIENT1|52=20240726-09:07:52.672|10=043|
2024-07-26 11:07:55.712 [100] [FixSender] (DEBUG) Sending 8=FIX.4.4|9=58|35=0|49=FIXCLIENT1|56=DMA_HUB|34=119|52=20240726-09:07:55|10=109|
2024-07-26 11:08:22.624 [99] [FixSender] (DEBUG) Receiving 8=FIX.4.4|9=62|35=0|34=131|49=DMA_HUB|56=FIXCLIENT1|52=20240726-09:08:22.623|10=038|
2024-07-26 11:08:25.712 [100] [FixSender] (DEBUG) Sending 8=FIX.4.4|9=58|35=0|49=FIXCLIENT1|56=DMA_HUB|34=120|52=20240726-09:08:25|10=099|
2024-07-26 11:08:52.577 [99] [FixSender] (DEBUG) Receiving 8=FIX.4.4|9=62|35=0|34=132|49=DMA_HUB|56=FIXCLIENT1|52=20240726-09:08:52.576|10=049|
2024-07-26 11:08:55.713 [100] [FixSender] (DEBUG) Sending 8=FIX.4.4|9=58|35=0|49=FIXCLIENT1|56=DMA_HUB|34=121|52=20240726-09:08:55|10=103|
2024-07-26 11:09:22.528 [99] [FixSender] (DEBUG) Receiving 8=FIX.4.4|9=62|35=0|34=133|49=DMA_HUB|56=FIXCLIENT1|52=20240726-09:09:22.527|10=044|
2024-07-26 11:09:25.713 [100] [FixSender] (DEBUG) Sending 8=FIX.4.4|9=58|35=0|49=FIXCLIENT1|56=DMA_HUB|34=122|52=20240726-09:09:25|10=102|
2024-07-26 11:09:52.480 [99] [FixSender] (DEBUG) Receiving 8=FIX.4.4|9=62|35=0|34=134|49=DMA_HUB|56=FIXCLIENT1|52=20240726-09:09:52.480|10=046|
2024-07-26 11:09:54.764 [111] [FixSender] (DEBUG) Sending 8=FIX.4.4|9=195|35=D|49=FIXCLIENT1|56=DMA_HUB|34=123|52=20240726-09:09:54|21=1|11=HS_172198499441|38=4446|55=E:07G@XETR|54=1|60=20240726-09:09:54|40=2|59=0|44=197|48=US3390411052|22=4|15=EUR|207=XETR|1=bram_123|10=035|
2024-07-26 11:09:54.767 [99] [FixSender] (DEBUG) Receiving 8=FIX.4.4|9=238|35=8|34=135|49=DMA_HUB|56=FIXCLIENT1|52=20240726-09:09:54.766|11=HS_172198499441|37=FXco2oW4I|54=1|40=2|59=0|17=2024072652|150=A|39=A|38=4446|151=4446|14=0|6=0|44=197|60=20240726-09:09:54.000|22=4|48=US3390411052|207=XETR|15=EUR|55=[N/A]|10=228|
2024-07-26 11:09:54.769 [99] [FixSender] (DEBUG) Receiving 8=FIX.4.4|9=253|35=8|34=136|49=DMA_HUB|56=FIXCLIENT1|52=20240726-09:09:54.769|11=HS_172198499441|37=FXco2oW4I|198=NuDJB6ec56|54=1|40=2|59=0|17=2024072653|150=0|39=0|38=4446|151=4446|14=0|6=0|44=197|60=20240726-09:09:54.768|22=4|48=US3390411052|207=XETR|15=EUR|55=[N/A]|10=181|
2024-07-26 11:09:54.771 [99] [FixSender] (DEBUG) Receiving 8=FIX.4.4|9=314|35=8|34=137|49=DMA_HUB|56=FIXCLIENT1|52=20240726-09:09:54.770|11=HS_172198499441|37=FXco2oW4I|198=NuDJB6ec56|54=1|32=4446|31=141|17=2024072654|527=BNuDJB8|150=F|39=2|38=4446|151=0|14=4446|6=141|44=197|60=20240726-09:09:54.768|22=4|48=US3390411052|207=XETR|15=EUR|55=[N/A]|453=1|448=strmrepl|447=D|452=17|40=2|59=0|10=133|
2024-07-26 11:10:22.432 [99] [FixSender] (DEBUG) Receiving 8=FIX.4.4|9=62|35=0|34=138|49=DMA_HUB|56=FIXCLIENT1|52=20240726-09:10:22.431|10=035|
2024-07-26 11:10:24.764 [100] [FixSender] (DEBUG) Sending 8=FIX.4.4|9=58|35=0|49=FIXCLIENT1|56=DMA_HUB|34=124|52=20240726-09:10:24|10=095|
2024-07-26 11:10:28.077 [112] [FixSender] (DEBUG) Sending 8=FIX.4.4|9=194|35=D|49=FIXCLIENT1|56=DMA_HUB|34=125|52=20240726-09:10:28|21=1|11=HS_172198502842|38=820|55=E:07G@XETR|54=1|60=20240726-09:10:28|40=2|59=0|44=197|48=US3390411052|22=4|15=EUR|207=XETR|1=bram_123|10=212|
2024-07-26 11:10:28.079 [99] [FixSender] (DEBUG) Receiving 8=FIX.4.4|9=236|35=8|34=139|49=DMA_HUB|56=FIXCLIENT1|52=20240726-09:10:28.079|11=HS_172198502842|37=FXdo2oW4I|54=1|40=2|59=0|17=2024072655|150=A|39=A|38=820|151=820|14=0|6=0|44=197|60=20240726-09:10:28.000|22=4|48=US3390411052|207=XETR|15=EUR|55=[N/A]|10=095|
2024-07-26 11:10:28.082 [99] [FixSender] (DEBUG) Receiving 8=FIX.4.4|9=251|35=8|34=140|49=DMA_HUB|56=FIXCLIENT1|52=20240726-09:10:28.081|11=HS_172198502842|37=FXdo2oW4I|198=NuDJB72636|54=1|40=2|59=0|17=2024072656|150=0|39=0|38=820|151=820|14=0|6=0|44=197|60=20240726-09:10:28.080|22=4|48=US3390411052|207=XETR|15=EUR|55=[N/A]|10=175|
2024-07-26 11:10:28.083 [99] [FixSender] (DEBUG) Receiving 8=FIX.4.4|9=311|35=8|34=141|49=DMA_HUB|56=FIXCLIENT1|52=20240726-09:10:28.083|11=HS_172198502842|37=FXdo2oW4I|198=NuDJB72636|54=1|32=820|31=140|17=2024072657|527=BNuDJB9|150=F|39=2|38=820|151=0|14=820|6=140|44=197|60=20240726-09:10:28.080|22=4|48=US3390411052|207=XETR|15=EUR|55=[N/A]|453=1|448=strmrepl|447=D|452=17|40=2|59=0|10=079|
2024-07-26 11:10:28.859 [113] [FixSender] (DEBUG) Sending 8=FIX.4.4|9=195|35=D|49=FIXCLIENT1|56=DMA_HUB|34=126|52=20240726-09:10:28|21=1|11=HS_172198502843|38=3905|55=E:07G@XETR|54=1|60=20240726-09:10:28|40=2|59=0|44=197|48=US3390411052|22=4|15=EUR|207=XETR|1=bram_123|10=014|
2024-07-26 11:10:28.860 [99] [FixSender] (DEBUG) Receiving 8=FIX.4.4|9=238|35=8|34=142|49=DMA_HUB|56=FIXCLIENT1|52=20240726-09:10:28.860|11=HS_172198502843|37=FXeo2oW4I|54=1|40=2|59=0|17=2024072658|150=A|39=A|38=3905|151=3905|14=0|6=0|44=197|60=20240726-09:10:28.000|22=4|48=US3390411052|207=XETR|15=EUR|55=[N/A]|10=204|
2024-07-26 11:10:34.975 [114] [FixSender] (DEBUG) Sending 8=FIX.4.4|9=195|35=D|49=FIXCLIENT1|56=DMA_HUB|34=127|52=20240726-09:10:34|21=1|11=HS_172198503444|38=1850|55=E:07G@XETR|54=1|60=20240726-09:10:34|40=2|59=0|44=197|48=US3390411052|22=4|15=EUR|207=XETR|1=bram_123|10=004|
2024-07-26 11:10:34.977 [99] [FixSender] (DEBUG) Receiving 8=FIX.4.4|9=238|35=8|34=143|49=DMA_HUB|56=FIXCLIENT1|52=20240726-09:10:34.976|11=HS_172198503444|37=FXfo2oW4I|54=1|40=2|59=0|17=2024072659|150=A|39=A|38=1850|151=1850|14=0|6=0|44=197|60=20240726-09:10:34.000|22=4|48=US3390411052|207=XETR|15=EUR|55=[N/A]|10=201|
2024-07-26 11:10:52.384 [99] [FixSender] (DEBUG) Receiving 8=FIX.4.4|9=62|35=0|34=144|49=DMA_HUB|56=FIXCLIENT1|52=20240726-09:10:52.384|10=042|
2024-07-26 11:11:04.976 [100] [FixSender] (DEBUG) Sending 8=FIX.4.4|9=58|35=0|49=FIXCLIENT1|56=DMA_HUB|34=128|52=20240726-09:11:04|10=098|
2024-07-26 11:11:21.851 [115] [FixSender] (DEBUG) Sending 8=FIX.4.4|9=194|35=D|49=FIXCLIENT1|56=DMA_HUB|34=129|52=20240726-09:11:21|21=1|11=HS_17219850810|38=2224|55=E:07G@XETR|54=1|60=20240726-09:11:21|40=2|59=0|44=197|48=US3390411052|22=4|15=EUR|207=XETR|1=bram_123|10=197|
2024-07-26 11:11:21.853 [99] [FixSender] (DEBUG) Receiving 8=FIX.4.4|9=237|35=8|34=145|49=DMA_HUB|56=FIXCLIENT1|52=20240726-09:11:21.852|11=HS_17219850810|37=FXgo2oW4I|54=1|40=2|59=0|17=2024072660|150=A|39=A|38=2224|151=2224|14=0|6=0|44=197|60=20240726-09:11:21.000|22=4|48=US3390411052|207=XETR|15=EUR|55=[N/A]|10=120|
2024-07-26 11:11:21.857 [99] [FixSender] (DEBUG) Receiving 8=FIX.4.4|9=252|35=8|34=146|49=DMA_HUB|56=FIXCLIENT1|52=20240726-09:11:21.856|11=HS_17219850810|37=FXgo2oW4I|198=NuDJB783b7|54=1|40=2|59=0|17=2024072661|150=0|39=0|38=2224|151=2224|14=0|6=0|44=197|60=20240726-09:11:21.854|22=4|48=US3390411052|207=XETR|15=EUR|55=[N/A]|10=024|
2024-07-26 11:11:21.858 [99] [FixSender] (DEBUG) Receiving 8=FIX.4.4|9=313|35=8|34=147|49=DMA_HUB|56=FIXCLIENT1|52=20240726-09:11:21.858|11=HS_17219850810|37=FXgo2oW4I|198=NuDJB783b7|54=1|32=2224|31=140|17=2024072662|527=BNuDJBa|150=F|39=2|38=2224|151=0|14=2224|6=140|44=197|60=20240726-09:11:21.854|22=4|48=US3390411052|207=XETR|15=EUR|55=[N/A]|453=1|448=strmrepl|447=D|452=17|40=2|59=0|10=017|
2024-07-26 11:11:22.335 [99] [FixSender] (DEBUG) Receiving 8=FIX.4.4|9=62|35=0|34=148|49=DMA_HUB|56=FIXCLIENT1|52=20240726-09:11:22.335|10=040|
2024-07-26 11:11:33.266 [116] [FixSender] (DEBUG) Sending 8=FIX.4.4|9=194|35=D|49=FIXCLIENT1|56=DMA_HUB|34=130|52=20240726-09:11:33|21=1|11=HS_17219850931|38=1616|55=E:07G@XETR|54=1|60=20240726-09:11:33|40=2|59=0|44=200|48=US3390411052|22=4|15=EUR|207=XETR|1=bram_123|10=188|
2024-07-26 11:11:33.268 [99] [FixSender] (DEBUG) Receiving 8=FIX.4.4|9=237|35=8|34=149|49=DMA_HUB|56=FIXCLIENT1|52=20240726-09:11:33.268|11=HS_17219850931|37=FXho2oW4I|54=1|40=2|59=0|17=2024072663|150=A|39=A|38=1616|151=1616|14=0|6=0|44=200|60=20240726-09:11:33.000|22=4|48=US3390411052|207=XETR|15=EUR|55=[N/A]|10=132|
2024-07-26 11:11:40.637 [117] [FixSender] (DEBUG) Sending 8=FIX.4.4|9=194|35=D|49=FIXCLIENT1|56=DMA_HUB|34=131|52=20240726-09:11:40|21=1|11=HS_17219851002|38=4740|55=E:07G@XETR|54=1|60=20240726-09:11:40|40=2|59=0|44=201|48=US3390411052|22=4|15=EUR|207=XETR|1=bram_123|10=177|
2024-07-26 11:11:40.640 [99] [FixSender] (DEBUG) Receiving 8=FIX.4.4|9=237|35=8|34=150|49=DMA_HUB|56=FIXCLIENT1|52=20240726-09:11:40.638|11=HS_17219851002|37=FXio2oW4I|54=1|40=2|59=0|17=2024072664|150=A|39=A|38=4740|151=4740|14=0|6=0|44=201|60=20240726-09:11:40.000|22=4|48=US3390411052|207=XETR|15=EUR|55=[N/A]|10=116|
2024-07-26 11:11:45.255 [118] [FixSender] (DEBUG) Sending 8=FIX.4.4|9=194|35=D|49=FIXCLIENT1|56=DMA_HUB|34=132|52=20240726-09:11:45|21=1|11=HS_17219851053|38=4893|55=E:07G@XETR|54=1|60=20240726-09:11:45|40=2|59=0|44=300|48=US3390411052|22=4|15=EUR|207=XETR|1=bram_123|10=203|
2024-07-26 11:11:45.256 [99] [FixSender] (DEBUG) Receiving 8=FIX.4.4|9=237|35=8|34=151|49=DMA_HUB|56=FIXCLIENT1|52=20240726-09:11:45.256|11=HS_17219851053|37=FXjo2oW4I|54=1|40=2|59=0|17=2024072665|150=A|39=A|38=4893|151=4893|14=0|6=0|44=300|60=20240726-09:11:45.000|22=4|48=US3390411052|207=XETR|15=EUR|55=[N/A]|10=149|
2024-07-26 11:11:46.372 [119] [FixSender] (DEBUG) Sending 8=FIX.4.4|9=193|35=D|49=FIXCLIENT1|56=DMA_HUB|34=133|52=20240726-09:11:46|21=1|11=HS_17219851064|38=387|55=E:07G@XETR|54=1|60=20240726-09:11:46|40=2|59=0|44=300|48=US3390411052|22=4|15=EUR|207=XETR|1=bram_123|10=153|
2024-07-26 11:11:46.373 [99] [FixSender] (DEBUG) Receiving 8=FIX.4.4|9=235|35=8|34=152|49=DMA_HUB|56=FIXCLIENT1|52=20240726-09:11:46.373|11=HS_17219851064|37=FXko2oW4I|54=1|40=2|59=0|17=2024072666|150=A|39=A|38=387|151=387|14=0|6=0|44=300|60=20240726-09:11:46.000|22=4|48=US3390411052|207=XETR|15=EUR|55=[N/A]|10=046|
2024-07-26 11:11:50.964 [120] [FixSender] (DEBUG) Sending 8=FIX.4.4|9=194|35=D|49=FIXCLIENT1|56=DMA_HUB|34=134|52=20240726-09:11:50|21=1|11=HS_17219851105|38=2838|55=E:07G@XETR|54=1|60=20240726-09:11:50|40=2|59=0|44=301|48=US3390411052|22=4|15=EUR|207=XETR|1=bram_123|10=193|
2024-07-26 11:11:50.965 [99] [FixSender] (DEBUG) Receiving 8=FIX.4.4|9=237|35=8|34=153|49=DMA_HUB|56=FIXCLIENT1|52=20240726-09:11:50.965|11=HS_17219851105|37=FXlo2oW4I|54=1|40=2|59=0|17=2024072667|150=A|39=A|38=2838|151=2838|14=0|6=0|44=301|60=20240726-09:11:50.000|22=4|48=US3390411052|207=XETR|15=EUR|55=[N/A]|10=147|
2024-07-26 11:11:52.288 [99] [FixSender] (DEBUG) Receiving 8=FIX.4.4|9=62|35=0|34=154|49=DMA_HUB|56=FIXCLIENT1|52=20240726-09:11:52.287|10=046|
2024-07-26 11:11:52.539 [121] [FixSender] (DEBUG) Sending 8=FIX.4.4|9=194|35=D|49=FIXCLIENT1|56=DMA_HUB|34=135|52=20240726-09:11:52|21=1|11=HS_17219851126|38=4919|55=E:07G@XETR|54=1|60=20240726-09:11:52|40=2|59=0|44=301|48=US3390411052|22=4|15=EUR|207=XETR|1=bram_123|10=203|
2024-07-26 11:11:52.541 [99] [FixSender] (DEBUG) Receiving 8=FIX.4.4|9=237|35=8|34=155|49=DMA_HUB|56=FIXCLIENT1|52=20240726-09:11:52.540|11=HS_17219851126|37=FXmo2oW4I|54=1|40=2|59=0|17=2024072668|150=A|39=A|38=4919|151=4919|14=0|6=0|44=301|60=20240726-09:11:52.000|22=4|48=US3390411052|207=XETR|15=EUR|55=[N/A]|10=151|
2024-07-26 11:11:53.571 [122] [FixSender] (DEBUG) Sending 8=FIX.4.4|9=194|35=D|49=FIXCLIENT1|56=DMA_HUB|34=136|52=20240726-09:11:53|21=1|11=HS_17219851137|38=1723|55=E:07G@XETR|54=1|60=20240726-09:11:53|40=2|59=0|44=301|48=US3390411052|22=4|15=EUR|207=XETR|1=bram_123|10=198|
2024-07-26 11:11:53.572 [99] [FixSender] (DEBUG) Receiving 8=FIX.4.4|9=237|35=8|34=156|49=DMA_HUB|56=FIXCLIENT1|52=20240726-09:11:53.572|11=HS_17219851137|37=FXno2oW4I|54=1|40=2|59=0|17=2024072669|150=A|39=A|38=1723|151=1723|14=0|6=0|44=301|60=20240726-09:11:53.000|22=4|48=US3390411052|207=XETR|15=EUR|55=[N/A]|10=143|
2024-07-26 11:12:16.668 [123] [FixSender] (DEBUG) Sending 8=FIX.4.4|9=194|35=D|49=FIXCLIENT1|56=DMA_HUB|34=137|52=20240726-09:12:16|21=1|11=HS_17219851368|38=3290|55=E:07G@XETR|54=1|60=20240726-09:12:16|40=2|59=0|44=350|48=US3390411052|22=4|15=EUR|207=XETR|1=bram_123|10=210|
2024-07-26 11:12:16.670 [99] [FixSender] (DEBUG) Receiving 8=FIX.4.4|9=237|35=8|34=157|49=DMA_HUB|56=FIXCLIENT1|52=20240726-09:12:16.669|11=HS_17219851368|37=FXoo2oW4I|54=1|40=2|59=0|17=2024072670|150=A|39=A|38=3290|151=3290|14=0|6=0|44=350|60=20240726-09:12:16.000|22=4|48=US3390411052|207=XETR|15=EUR|55=[N/A]|10=156|
2024-07-26 11:12:16.673 [99] [FixSender] (DEBUG) Receiving 8=FIX.4.4|9=252|35=8|34=158|49=DMA_HUB|56=FIXCLIENT1|52=20240726-09:12:16.673|11=HS_17219851368|37=FXoo2oW4I|198=NuDJB7e38f|54=1|40=2|59=0|17=2024072671|150=0|39=0|38=3290|151=3290|14=0|6=0|44=350|60=20240726-09:12:16.671|22=4|48=US3390411052|207=XETR|15=EUR|55=[N/A]|10=098|
2024-07-26 11:12:16.674 [99] [FixSender] (DEBUG) Receiving 8=FIX.4.4|9=313|35=8|34=159|49=DMA_HUB|56=FIXCLIENT1|52=20240726-09:12:16.674|11=HS_17219851368|37=FXoo2oW4I|198=NuDJB7e38f|54=1|32=3290|31=141|17=2024072672|527=BNuDJBb|150=F|39=2|38=3290|151=0|14=3290|6=141|44=350|60=20240726-09:12:16.671|22=4|48=US3390411052|207=XETR|15=EUR|55=[N/A]|453=1|448=strmrepl|447=D|452=17|40=2|59=0|10=097|
2024-07-26 11:12:22.239 [99] [FixSender] (DEBUG) Receiving 8=FIX.4.4|9=62|35=0|34=160|49=DMA_HUB|56=FIXCLIENT1|52=20240726-09:12:22.239|10=038|
2024-07-26 11:12:46.669 [100] [FixSender] (DEBUG) Sending 8=FIX.4.4|9=58|35=0|49=FIXCLIENT1|56=DMA_HUB|34=138|52=20240726-09:12:46|10=106|
2024-07-26 11:12:52.192 [99] [FixSender] (DEBUG) Receiving 8=FIX.4.4|9=62|35=0|34=161|49=DMA_HUB|56=FIXCLIENT1|52=20240726-09:12:52.191|10=039|
2024-07-26 11:13:16.669 [100] [FixSender] (DEBUG) Sending 8=FIX.4.4|9=58|35=0|49=FIXCLIENT1|56=DMA_HUB|34=139|52=20240726-09:13:16|10=105|
2024-07-26 11:13:22.143 [99] [FixSender] (DEBUG) Receiving 8=FIX.4.4|9=62|35=0|34=162|49=DMA_HUB|56=FIXCLIENT1|52=20240726-09:13:22.143|10=035|
2024-07-26 11:13:46.670 [100] [FixSender] (DEBUG) Sending 8=FIX.4.4|9=58|35=0|49=FIXCLIENT1|56=DMA_HUB|34=140|52=20240726-09:13:46|10=100|
2024-07-26 11:13:52.096 [99] [FixSender] (DEBUG) Receiving 8=FIX.4.4|9=62|35=0|34=163|49=DMA_HUB|56=FIXCLIENT1|52=20240726-09:13:52.095|10=045|
2024-07-26 11:14:16.670 [100] [FixSender] (DEBUG) Sending 8=FIX.4.4|9=58|35=0|49=FIXCLIENT1|56=DMA_HUB|34=141|52=20240726-09:14:16|10=099|
2024-07-26 11:14:22.048 [99] [FixSender] (DEBUG) Receiving 8=FIX.4.4|9=62|35=0|34=164|49=DMA_HUB|56=FIXCLIENT1|52=20240726-09:14:22.048|10=042|
2024-07-26 11:14:46.671 [100] [FixSender] (DEBUG) Sending 8=FIX.4.4|9=58|35=0|49=FIXCLIENT1|56=DMA_HUB|34=142|52=20240726-09:14:46|10=103|
2024-07-26 11:14:52.000 [99] [FixSender] (DEBUG) Receiving 8=FIX.4.4|9=62|35=0|34=165|49=DMA_HUB|56=FIXCLIENT1|52=20240726-09:14:51.999|10=060|
2024-07-26 11:15:16.671 [100] [FixSender] (DEBUG) Sending 8=FIX.4.4|9=58|35=0|49=FIXCLIENT1|56=DMA_HUB|34=143|52=20240726-09:15:16|10=102|
2024-07-26 11:15:21.952 [99] [FixSender] (DEBUG) Receiving 8=FIX.4.4|9=62|35=0|34=166|49=DMA_HUB|56=FIXCLIENT1|52=20240726-09:15:21.952|10=048|
2024-07-26 11:15:46.672 [100] [FixSender] (DEBUG) Sending 8=FIX.4.4|9=58|35=0|49=FIXCLIENT1|56=DMA_HUB|34=144|52=20240726-09:15:46|10=106|
2024-07-26 11:15:51.903 [99] [FixSender] (DEBUG) Receiving 8=FIX.4.4|9=62|35=0|34=167|49=DMA_HUB|56=FIXCLIENT1|52=20240726-09:15:51.903|10=048|
2024-07-26 11:16:16.673 [100] [FixSender] (DEBUG) Sending 8=FIX.4.4|9=58|35=0|49=FIXCLIENT1|56=DMA_HUB|34=145|52=20240726-09:16:16|10=105|
2024-07-26 11:16:21.856 [99] [FixSender] (DEBUG) Receiving 8=FIX.4.4|9=62|35=0|34=168|49=DMA_HUB|56=FIXCLIENT1|52=20240726-09:16:21.855|10=053|
2024-07-26 11:16:46.673 [100] [FixSender] (DEBUG) Sending 8=FIX.4.4|9=58|35=0|49=FIXCLIENT1|56=DMA_HUB|34=146|52=20240726-09:16:46|10=109|
2024-07-26 11:16:51.807 [99] [FixSender] (DEBUG) Receiving 8=FIX.4.4|9=62|35=0|34=169|49=DMA_HUB|56=FIXCLIENT1|52=20240726-09:16:51.807|10=054|
2024-07-26 11:17:16.674 [100] [FixSender] (DEBUG) Sending 8=FIX.4.4|9=58|35=0|49=FIXCLIENT1|56=DMA_HUB|34=147|52=20240726-09:17:16|10=108|
2024-07-26 11:17:21.760 [99] [FixSender] (DEBUG) Receiving 8=FIX.4.4|9=62|35=0|34=170|49=DMA_HUB|56=FIXCLIENT1|52=20240726-09:17:21.759|10=050|
2024-07-26 11:17:46.674 [100] [FixSender] (DEBUG) Sending 8=FIX.4.4|9=58|35=0|49=FIXCLIENT1|56=DMA_HUB|34=148|52=20240726-09:17:46|10=112|
2024-07-26 11:17:51.711 [99] [FixSender] (DEBUG) Receiving 8=FIX.4.4|9=62|35=0|34=171|49=DMA_HUB|56=FIXCLIENT1|52=20240726-09:17:51.711|10=042|
2024-07-26 11:18:16.675 [100] [FixSender] (DEBUG) Sending 8=FIX.4.4|9=58|35=0|49=FIXCLIENT1|56=DMA_HUB|34=149|52=20240726-09:18:16|10=111|
2024-07-26 11:18:21.664 [99] [FixSender] (DEBUG) Receiving 8=FIX.4.4|9=62|35=0|34=172|49=DMA_HUB|56=FIXCLIENT1|52=20240726-09:18:21.663|10=047|
2024-07-26 11:18:46.675 [100] [FixSender] (DEBUG) Sending 8=FIX.4.4|9=58|35=0|49=FIXCLIENT1|56=DMA_HUB|34=150|52=20240726-09:18:46|10=106|
2024-07-26 11:18:51.616 [99] [FixSender] (DEBUG) Receiving 8=FIX.4.4|9=62|35=0|34=173|49=DMA_HUB|56=FIXCLIENT1|52=20240726-09:18:51.616|10=049|
2024-07-26 11:19:16.675 [100] [FixSender] (DEBUG) Sending 8=FIX.4.4|9=58|35=0|49=FIXCLIENT1|56=DMA_HUB|34=151|52=20240726-09:19:16|10=105|
2024-07-26 11:19:21.568 [99] [FixSender] (DEBUG) Receiving 8=FIX.4.4|9=62|35=0|34=174|49=DMA_HUB|56=FIXCLIENT1|52=20240726-09:19:21.567|10=053|
2024-07-26 11:19:46.676 [100] [FixSender] (DEBUG) Sending 8=FIX.4.4|9=58|35=0|49=FIXCLIENT1|56=DMA_HUB|34=152|52=20240726-09:19:46|10=109|
2024-07-26 11:19:51.519 [99] [FixSender] (DEBUG) Receiving 8=FIX.4.4|9=62|35=0|34=175|49=DMA_HUB|56=FIXCLIENT1|52=20240726-09:19:51.519|10=054|
2024-07-26 11:20:16.676 [100] [FixSender] (DEBUG) Sending 8=FIX.4.4|9=58|35=0|49=FIXCLIENT1|56=DMA_HUB|34=153|52=20240726-09:20:16|10=099|
2024-07-26 11:20:21.472 [99] [FixSender] (DEBUG) Receiving 8=FIX.4.4|9=62|35=0|34=176|49=DMA_HUB|56=FIXCLIENT1|52=20240726-09:20:21.471|10=041|
2024-07-26 11:20:46.676 [100] [FixSender] (DEBUG) Sending 8=FIX.4.4|9=58|35=0|49=FIXCLIENT1|56=DMA_HUB|34=154|52=20240726-09:20:46|10=103|
2024-07-26 11:20:51.423 [99] [FixSender] (DEBUG) Receiving 8=FIX.4.4|9=62|35=0|34=177|49=DMA_HUB|56=FIXCLIENT1|52=20240726-09:20:51.423|10=042|
2024-07-26 11:21:16.677 [100] [FixSender] (DEBUG) Sending 8=FIX.4.4|9=58|35=0|49=FIXCLIENT1|56=DMA_HUB|34=155|52=20240726-09:21:16|10=102|
2024-07-26 11:21:21.376 [99] [FixSender] (DEBUG) Receiving 8=FIX.4.4|9=62|35=0|34=178|49=DMA_HUB|56=FIXCLIENT1|52=20240726-09:21:21.375|10=047|
2024-07-26 11:21:46.678 [100] [FixSender] (DEBUG) Sending 8=FIX.4.4|9=58|35=0|49=FIXCLIENT1|56=DMA_HUB|34=156|52=20240726-09:21:46|10=106|
2024-07-26 11:21:51.328 [99] [FixSender] (DEBUG) Receiving 8=FIX.4.4|9=62|35=0|34=179|49=DMA_HUB|56=FIXCLIENT1|52=20240726-09:21:51.328|10=049|
2024-07-26 11:22:16.678 [100] [FixSender] (DEBUG) Sending 8=FIX.4.4|9=58|35=0|49=FIXCLIENT1|56=DMA_HUB|34=157|52=20240726-09:22:16|10=105|
2024-07-26 11:22:21.280 [99] [FixSender] (DEBUG) Receiving 8=FIX.4.4|9=62|35=0|34=180|49=DMA_HUB|56=FIXCLIENT1|52=20240726-09:22:21.279|10=044|
2024-07-26 11:22:46.679 [100] [FixSender] (DEBUG) Sending 8=FIX.4.4|9=58|35=0|49=FIXCLIENT1|56=DMA_HUB|34=158|52=20240726-09:22:46|10=109|
2024-07-26 11:22:51.232 [99] [FixSender] (DEBUG) Receiving 8=FIX.4.4|9=62|35=0|34=181|49=DMA_HUB|56=FIXCLIENT1|52=20240726-09:22:51.232|10=037|
2024-07-26 11:23:16.680 [100] [FixSender] (DEBUG) Sending 8=FIX.4.4|9=58|35=0|49=FIXCLIENT1|56=DMA_HUB|34=159|52=20240726-09:23:16|10=108|
2024-07-26 11:23:21.184 [99] [FixSender] (DEBUG) Receiving 8=FIX.4.4|9=62|35=0|34=182|49=DMA_HUB|56=FIXCLIENT1|52=20240726-09:23:21.183|10=041|
2024-07-26 11:23:46.680 [100] [FixSender] (DEBUG) Sending 8=FIX.4.4|9=58|35=0|49=FIXCLIENT1|56=DMA_HUB|34=160|52=20240726-09:23:46|10=103|
2024-07-26 11:23:51.135 [99] [FixSender] (DEBUG) Receiving 8=FIX.4.4|9=62|35=0|34=183|49=DMA_HUB|56=FIXCLIENT1|52=20240726-09:23:51.135|10=042|
2024-07-26 11:24:16.681 [100] [FixSender] (DEBUG) Sending 8=FIX.4.4|9=58|35=0|49=FIXCLIENT1|56=DMA_HUB|34=161|52=20240726-09:24:16|10=102|
2024-07-26 11:24:21.088 [99] [FixSender] (DEBUG) Receiving 8=FIX.4.4|9=62|35=0|34=184|49=DMA_HUB|56=FIXCLIENT1|52=20240726-09:24:21.087|10=047|
2024-07-26 11:24:46.681 [100] [FixSender] (DEBUG) Sending 8=FIX.4.4|9=58|35=0|49=FIXCLIENT1|56=DMA_HUB|34=162|52=20240726-09:24:46|10=106|
2024-07-26 11:24:51.039 [99] [FixSender] (DEBUG) Receiving 8=FIX.4.4|9=62|35=0|34=185|49=DMA_HUB|56=FIXCLIENT1|52=20240726-09:24:51.039|10=048|
2024-07-26 11:25:16.682 [100] [FixSender] (DEBUG) Sending 8=FIX.4.4|9=58|35=0|49=FIXCLIENT1|56=DMA_HUB|34=163|52=20240726-09:25:16|10=105|
2024-07-26 11:25:20.992 [99] [FixSender] (DEBUG) Receiving 8=FIX.4.4|9=62|35=0|34=186|49=DMA_HUB|56=FIXCLIENT1|52=20240726-09:25:20.991|10=053|
2024-07-26 11:25:46.682 [100] [FixSender] (DEBUG) Sending 8=FIX.4.4|9=58|35=0|49=FIXCLIENT1|56=DMA_HUB|34=164|52=20240726-09:25:46|10=109|
2024-07-26 11:25:50.944 [99] [FixSender] (DEBUG) Receiving 8=FIX.4.4|9=62|35=0|34=187|49=DMA_HUB|56=FIXCLIENT1|52=20240726-09:25:50.944|10=055|
2024-07-26 11:26:16.682 [100] [FixSender] (DEBUG) Sending 8=FIX.4.4|9=58|35=0|49=FIXCLIENT1|56=DMA_HUB|34=165|52=20240726-09:26:16|10=108|
2024-07-26 11:26:20.895 [99] [FixSender] (DEBUG) Receiving 8=FIX.4.4|9=62|35=0|34=188|49=DMA_HUB|56=FIXCLIENT1|52=20240726-09:26:20.895|10=059|
2024-07-26 11:26:46.683 [100] [FixSender] (DEBUG) Sending 8=FIX.4.4|9=58|35=0|49=FIXCLIENT1|56=DMA_HUB|34=166|52=20240726-09:26:46|10=112|
2024-07-26 11:26:50.848 [99] [FixSender] (DEBUG) Receiving 8=FIX.4.4|9=62|35=0|34=189|49=DMA_HUB|56=FIXCLIENT1|52=20240726-09:26:50.848|10=061|
2024-07-26 11:27:16.684 [100] [FixSender] (DEBUG) Sending 8=FIX.4.4|9=58|35=0|49=FIXCLIENT1|56=DMA_HUB|34=167|52=20240726-09:27:16|10=111|
2024-07-26 11:27:20.799 [99] [FixSender] (DEBUG) Receiving 8=FIX.4.4|9=62|35=0|34=190|49=DMA_HUB|56=FIXCLIENT1|52=20240726-09:27:20.799|10=056|
2024-07-26 11:27:46.684 [100] [FixSender] (DEBUG) Sending 8=FIX.4.4|9=58|35=0|49=FIXCLIENT1|56=DMA_HUB|34=168|52=20240726-09:27:46|10=115|
2024-07-26 11:27:50.752 [99] [FixSender] (DEBUG) Receiving 8=FIX.4.4|9=62|35=0|34=191|49=DMA_HUB|56=FIXCLIENT1|52=20240726-09:27:50.751|10=048|
2024-07-26 11:28:16.685 [100] [FixSender] (DEBUG) Sending 8=FIX.4.4|9=58|35=0|49=FIXCLIENT1|56=DMA_HUB|34=169|52=20240726-09:28:16|10=114|
2024-07-26 11:28:20.703 [99] [FixSender] (DEBUG) Receiving 8=FIX.4.4|9=62|35=0|34=192|49=DMA_HUB|56=FIXCLIENT1|52=20240726-09:28:20.703|10=044|
2024-07-26 11:28:46.686 [100] [FixSender] (DEBUG) Sending 8=FIX.4.4|9=58|35=0|49=FIXCLIENT1|56=DMA_HUB|34=170|52=20240726-09:28:46|10=109|
2024-07-26 11:28:50.656 [99] [FixSender] (DEBUG) Receiving 8=FIX.4.4|9=62|35=0|34=193|49=DMA_HUB|56=FIXCLIENT1|52=20240726-09:28:50.655|10=054|
2024-07-26 11:29:16.687 [100] [FixSender] (DEBUG) Sending 8=FIX.4.4|9=58|35=0|49=FIXCLIENT1|56=DMA_HUB|34=171|52=20240726-09:29:16|10=108|
2024-07-26 11:29:20.607 [99] [FixSender] (DEBUG) Receiving 8=FIX.4.4|9=62|35=0|34=194|49=DMA_HUB|56=FIXCLIENT1|52=20240726-09:29:20.607|10=050|
2024-07-26 11:29:46.687 [100] [FixSender] (DEBUG) Sending 8=FIX.4.4|9=58|35=0|49=FIXCLIENT1|56=DMA_HUB|34=172|52=20240726-09:29:46|10=112|
2024-07-26 11:29:50.560 [99] [FixSender] (DEBUG) Receiving 8=FIX.4.4|9=62|35=0|34=195|49=DMA_HUB|56=FIXCLIENT1|52=20240726-09:29:50.559|10=060|
2024-07-26 11:30:16.688 [100] [FixSender] (DEBUG) Sending 8=FIX.4.4|9=58|35=0|49=FIXCLIENT1|56=DMA_HUB|34=173|52=20240726-09:30:16|10=102|
2024-07-26 11:30:20.511 [99] [FixSender] (DEBUG) Receiving 8=FIX.4.4|9=62|35=0|34=196|49=DMA_HUB|56=FIXCLIENT1|52=20240726-09:30:20.511|10=038|
2024-07-26 11:30:46.688 [100] [FixSender] (DEBUG) Sending 8=FIX.4.4|9=58|35=0|49=FIXCLIENT1|56=DMA_HUB|34=174|52=20240726-09:30:46|10=106|
2024-07-26 11:30:50.464 [99] [FixSender] (DEBUG) Receiving 8=FIX.4.4|9=62|35=0|34=197|49=DMA_HUB|56=FIXCLIENT1|52=20240726-09:30:50.463|10=048|
2024-07-26 11:31:16.689 [100] [FixSender] (DEBUG) Sending 8=FIX.4.4|9=58|35=0|49=FIXCLIENT1|56=DMA_HUB|34=175|52=20240726-09:31:16|10=105|
2024-07-26 11:31:20.415 [99] [FixSender] (DEBUG) Receiving 8=FIX.4.4|9=62|35=0|34=198|49=DMA_HUB|56=FIXCLIENT1|52=20240726-09:31:20.415|10=044|
2024-07-26 11:31:46.689 [100] [FixSender] (DEBUG) Sending 8=FIX.4.4|9=58|35=0|49=FIXCLIENT1|56=DMA_HUB|34=176|52=20240726-09:31:46|10=109|
2024-07-26 11:31:50.368 [99] [FixSender] (DEBUG) Receiving 8=FIX.4.4|9=62|35=0|34=199|49=DMA_HUB|56=FIXCLIENT1|52=20240726-09:31:50.367|10=054|
2024-07-26 11:32:16.690 [100] [FixSender] (DEBUG) Sending 8=FIX.4.4|9=58|35=0|49=FIXCLIENT1|56=DMA_HUB|34=177|52=20240726-09:32:16|10=108|
2024-07-26 11:32:20.321 [99] [FixSender] (DEBUG) Receiving 8=FIX.4.4|9=62|35=0|34=200|49=DMA_HUB|56=FIXCLIENT1|52=20240726-09:32:20.319|10=032|
2024-07-26 11:32:46.691 [100] [FixSender] (DEBUG) Sending 8=FIX.4.4|9=58|35=0|49=FIXCLIENT1|56=DMA_HUB|34=178|52=20240726-09:32:46|10=112|
2024-07-26 11:32:50.272 [99] [FixSender] (DEBUG) Receiving 8=FIX.4.4|9=62|35=0|34=201|49=DMA_HUB|56=FIXCLIENT1|52=20240726-09:32:50.271|10=033|
2024-07-26 11:33:16.691 [100] [FixSender] (DEBUG) Sending 8=FIX.4.4|9=58|35=0|49=FIXCLIENT1|56=DMA_HUB|34=179|52=20240726-09:33:16|10=111|
2024-07-26 11:33:20.223 [99] [FixSender] (DEBUG) Receiving 8=FIX.4.4|9=62|35=0|34=202|49=DMA_HUB|56=FIXCLIENT1|52=20240726-09:33:20.223|10=029|
2024-07-26 11:33:46.692 [100] [FixSender] (DEBUG) Sending 8=FIX.4.4|9=58|35=0|49=FIXCLIENT1|56=DMA_HUB|34=180|52=20240726-09:33:46|10=106|
2024-07-26 11:33:50.176 [99] [FixSender] (DEBUG) Receiving 8=FIX.4.4|9=62|35=0|34=203|49=DMA_HUB|56=FIXCLIENT1|52=20240726-09:33:50.175|10=039|
2024-07-26 11:34:16.692 [100] [FixSender] (DEBUG) Sending 8=FIX.4.4|9=58|35=0|49=FIXCLIENT1|56=DMA_HUB|34=181|52=20240726-09:34:16|10=105|
2024-07-26 11:34:20.128 [99] [FixSender] (DEBUG) Receiving 8=FIX.4.4|9=62|35=0|34=204|49=DMA_HUB|56=FIXCLIENT1|52=20240726-09:34:20.128|10=036|
2024-07-26 11:34:46.693 [100] [FixSender] (DEBUG) Sending 8=FIX.4.4|9=58|35=0|49=FIXCLIENT1|56=DMA_HUB|34=182|52=20240726-09:34:46|10=109|
2024-07-26 11:34:50.080 [99] [FixSender] (DEBUG) Receiving 8=FIX.4.4|9=62|35=0|34=205|49=DMA_HUB|56=FIXCLIENT1|52=20240726-09:34:50.079|10=045|
2024-07-26 11:35:16.693 [100] [FixSender] (DEBUG) Sending 8=FIX.4.4|9=58|35=0|49=FIXCLIENT1|56=DMA_HUB|34=183|52=20240726-09:35:16|10=108|
2024-07-26 11:35:20.031 [99] [FixSender] (DEBUG) Receiving 8=FIX.4.4|9=62|35=0|34=206|49=DMA_HUB|56=FIXCLIENT1|52=20240726-09:35:20.031|10=032|
2024-07-26 11:35:46.693 [100] [FixSender] (DEBUG) Sending 8=FIX.4.4|9=58|35=0|49=FIXCLIENT1|56=DMA_HUB|34=184|52=20240726-09:35:46|10=112|
2024-07-26 11:35:49.984 [99] [FixSender] (DEBUG) Receiving 8=FIX.4.4|9=62|35=0|34=207|49=DMA_HUB|56=FIXCLIENT1|52=20240726-09:35:49.983|10=060|
2024-07-26 11:36:16.694 [100] [FixSender] (DEBUG) Sending 8=FIX.4.4|9=58|35=0|49=FIXCLIENT1|56=DMA_HUB|34=185|52=20240726-09:36:16|10=111|
2024-07-26 11:36:19.936 [99] [FixSender] (DEBUG) Receiving 8=FIX.4.4|9=62|35=0|34=208|49=DMA_HUB|56=FIXCLIENT1|52=20240726-09:36:19.936|10=057|
2024-07-26 11:36:46.694 [100] [FixSender] (DEBUG) Sending 8=FIX.4.4|9=58|35=0|49=FIXCLIENT1|56=DMA_HUB|34=186|52=20240726-09:36:46|10=115|
2024-07-26 11:36:49.887 [99] [FixSender] (DEBUG) Receiving 8=FIX.4.4|9=62|35=0|34=209|49=DMA_HUB|56=FIXCLIENT1|52=20240726-09:36:49.887|10=066|
2024-07-26 11:37:16.695 [100] [FixSender] (DEBUG) Sending 8=FIX.4.4|9=58|35=0|49=FIXCLIENT1|56=DMA_HUB|34=187|52=20240726-09:37:16|10=114|
2024-07-26 11:37:19.840 [99] [FixSender] (DEBUG) Receiving 8=FIX.4.4|9=62|35=0|34=210|49=DMA_HUB|56=FIXCLIENT1|52=20240726-09:37:19.840|10=045|
2024-07-26 11:37:46.696 [100] [FixSender] (DEBUG) Sending 8=FIX.4.4|9=58|35=0|49=FIXCLIENT1|56=DMA_HUB|34=188|52=20240726-09:37:46|10=118|
2024-07-26 11:37:49.792 [99] [FixSender] (DEBUG) Receiving 8=FIX.4.4|9=62|35=0|34=211|49=DMA_HUB|56=FIXCLIENT1|52=20240726-09:37:49.791|10=054|
2024-07-26 11:38:16.696 [100] [FixSender] (DEBUG) Sending 8=FIX.4.4|9=58|35=0|49=FIXCLIENT1|56=DMA_HUB|34=189|52=20240726-09:38:16|10=117|
2024-07-26 11:38:19.743 [99] [FixSender] (DEBUG) Receiving 8=FIX.4.4|9=62|35=0|34=212|49=DMA_HUB|56=FIXCLIENT1|52=20240726-09:38:19.743|10=050|
2024-07-26 11:38:46.698 [100] [FixSender] (DEBUG) Sending 8=FIX.4.4|9=58|35=0|49=FIXCLIENT1|56=DMA_HUB|34=190|52=20240726-09:38:46|10=112|
2024-07-26 11:38:49.696 [99] [FixSender] (DEBUG) Receiving 8=FIX.4.4|9=62|35=0|34=213|49=DMA_HUB|56=FIXCLIENT1|52=20240726-09:38:49.695|10=060|
2024-07-26 11:39:16.698 [100] [FixSender] (DEBUG) Sending 8=FIX.4.4|9=58|35=0|49=FIXCLIENT1|56=DMA_HUB|34=191|52=20240726-09:39:16|10=111|
2024-07-26 11:39:19.647 [99] [FixSender] (DEBUG) Receiving 8=FIX.4.4|9=62|35=0|34=214|49=DMA_HUB|56=FIXCLIENT1|52=20240726-09:39:19.647|10=056|
2024-07-26 11:39:46.699 [100] [FixSender] (DEBUG) Sending 8=FIX.4.4|9=58|35=0|49=FIXCLIENT1|56=DMA_HUB|34=192|52=20240726-09:39:46|10=115|
2024-07-26 11:39:49.600 [99] [FixSender] (DEBUG) Receiving 8=FIX.4.4|9=62|35=0|34=215|49=DMA_HUB|56=FIXCLIENT1|52=20240726-09:39:49.599|10=066|
2024-07-26 11:40:16.702 [100] [FixSender] (DEBUG) Sending 8=FIX.4.4|9=58|35=0|49=FIXCLIENT1|56=DMA_HUB|34=193|52=20240726-09:40:16|10=105|
2024-07-26 11:40:19.551 [99] [FixSender] (DEBUG) Receiving 8=FIX.4.4|9=62|35=0|34=216|49=DMA_HUB|56=FIXCLIENT1|52=20240726-09:40:19.551|10=044|
2024-07-26 11:40:46.702 [100] [FixSender] (DEBUG) Sending 8=FIX.4.4|9=58|35=0|49=FIXCLIENT1|56=DMA_HUB|34=194|52=20240726-09:40:46|10=109|
2024-07-26 11:40:49.504 [99] [FixSender] (DEBUG) Receiving 8=FIX.4.4|9=62|35=0|34=217|49=DMA_HUB|56=FIXCLIENT1|52=20240726-09:40:49.503|10=045|
2024-07-26 11:41:16.703 [100] [FixSender] (DEBUG) Sending 8=FIX.4.4|9=58|35=0|49=FIXCLIENT1|56=DMA_HUB|34=195|52=20240726-09:41:16|10=108|
2024-07-26 11:41:19.455 [99] [FixSender] (DEBUG) Receiving 8=FIX.4.4|9=62|35=0|34=218|49=DMA_HUB|56=FIXCLIENT1|52=20240726-09:41:19.455|10=050|
2024-07-26 11:41:46.703 [100] [FixSender] (DEBUG) Sending 8=FIX.4.4|9=58|35=0|49=FIXCLIENT1|56=DMA_HUB|34=196|52=20240726-09:41:46|10=112|
2024-07-26 11:41:49.408 [99] [FixSender] (DEBUG) Receiving 8=FIX.4.4|9=62|35=0|34=219|49=DMA_HUB|56=FIXCLIENT1|52=20240726-09:41:49.407|10=051|
2024-07-26 11:42:16.704 [100] [FixSender] (DEBUG) Sending 8=FIX.4.4|9=58|35=0|49=FIXCLIENT1|56=DMA_HUB|34=197|52=20240726-09:42:16|10=111|
2024-07-26 11:42:19.360 [99] [FixSender] (DEBUG) Receiving 8=FIX.4.4|9=62|35=0|34=220|49=DMA_HUB|56=FIXCLIENT1|52=20240726-09:42:19.360|10=039|
2024-07-26 11:42:46.705 [100] [FixSender] (DEBUG) Sending 8=FIX.4.4|9=58|35=0|49=FIXCLIENT1|56=DMA_HUB|34=198|52=20240726-09:42:46|10=115|
2024-07-26 11:42:49.311 [99] [FixSender] (DEBUG) Receiving 8=FIX.4.4|9=62|35=0|34=221|49=DMA_HUB|56=FIXCLIENT1|52=20240726-09:42:49.311|10=039|
2024-07-26 11:43:16.705 [100] [FixSender] (DEBUG) Sending 8=FIX.4.4|9=58|35=0|49=FIXCLIENT1|56=DMA_HUB|34=199|52=20240726-09:43:16|10=114|
2024-07-26 11:43:19.264 [99] [FixSender] (DEBUG) Receiving 8=FIX.4.4|9=62|35=0|34=222|49=DMA_HUB|56=FIXCLIENT1|52=20240726-09:43:19.264|10=045|
2024-07-26 11:43:46.706 [100] [FixSender] (DEBUG) Sending 8=FIX.4.4|9=58|35=0|49=FIXCLIENT1|56=DMA_HUB|34=200|52=20240726-09:43:46|10=100|
2024-07-26 11:43:49.215 [99] [FixSender] (DEBUG) Receiving 8=FIX.4.4|9=62|35=0|34=223|49=DMA_HUB|56=FIXCLIENT1|52=20240726-09:43:49.215|10=045|
2024-07-26 11:44:16.706 [100] [FixSender] (DEBUG) Sending 8=FIX.4.4|9=58|35=0|49=FIXCLIENT1|56=DMA_HUB|34=201|52=20240726-09:44:16|10=099|
2024-07-26 11:44:19.168 [99] [FixSender] (DEBUG) Receiving 8=FIX.4.4|9=62|35=0|34=224|49=DMA_HUB|56=FIXCLIENT1|52=20240726-09:44:19.168|10=051|
2024-07-26 11:44:46.707 [100] [FixSender] (DEBUG) Sending 8=FIX.4.4|9=58|35=0|49=FIXCLIENT1|56=DMA_HUB|34=202|52=20240726-09:44:46|10=103|
2024-07-26 11:44:49.119 [99] [FixSender] (DEBUG) Receiving 8=FIX.4.4|9=62|35=0|34=225|49=DMA_HUB|56=FIXCLIENT1|52=20240726-09:44:49.119|10=051|
2024-07-26 11:45:16.707 [100] [FixSender] (DEBUG) Sending 8=FIX.4.4|9=58|35=0|49=FIXCLIENT1|56=DMA_HUB|34=203|52=20240726-09:45:16|10=102|
2024-07-26 11:45:19.072 [99] [FixSender] (DEBUG) Receiving 8=FIX.4.4|9=62|35=0|34=226|49=DMA_HUB|56=FIXCLIENT1|52=20240726-09:45:19.072|10=048|
2024-07-26 11:45:46.707 [100] [FixSender] (DEBUG) Sending 8=FIX.4.4|9=58|35=0|49=FIXCLIENT1|56=DMA_HUB|34=204|52=20240726-09:45:46|10=106|
2024-07-26 11:45:49.023 [99] [FixSender] (DEBUG) Receiving 8=FIX.4.4|9=62|35=0|34=227|49=DMA_HUB|56=FIXCLIENT1|52=20240726-09:45:49.023|10=048|
2024-07-26 11:46:16.707 [100] [FixSender] (DEBUG) Sending 8=FIX.4.4|9=58|35=0|49=FIXCLIENT1|56=DMA_HUB|34=205|52=20240726-09:46:16|10=105|
2024-07-26 11:46:18.976 [99] [FixSender] (DEBUG) Receiving 8=FIX.4.4|9=62|35=0|34=228|49=DMA_HUB|56=FIXCLIENT1|52=20240726-09:46:18.975|10=062|
2024-07-26 11:46:46.708 [100] [FixSender] (DEBUG) Sending 8=FIX.4.4|9=58|35=0|49=FIXCLIENT1|56=DMA_HUB|34=206|52=20240726-09:46:46|10=109|
2024-07-26 11:46:48.928 [99] [FixSender] (DEBUG) Receiving 8=FIX.4.4|9=62|35=0|34=229|49=DMA_HUB|56=FIXCLIENT1|52=20240726-09:46:48.928|10=064|
2024-07-26 11:47:16.708 [100] [FixSender] (DEBUG) Sending 8=FIX.4.4|9=58|35=0|49=FIXCLIENT1|56=DMA_HUB|34=207|52=20240726-09:47:16|10=108|
2024-07-26 11:47:18.879 [99] [FixSender] (DEBUG) Receiving 8=FIX.4.4|9=62|35=0|34=230|49=DMA_HUB|56=FIXCLIENT1|52=20240726-09:47:18.879|10=059|
2024-07-26 11:47:46.709 [100] [FixSender] (DEBUG) Sending 8=FIX.4.4|9=58|35=0|49=FIXCLIENT1|56=DMA_HUB|34=208|52=20240726-09:47:46|10=112|
2024-07-26 11:47:48.832 [99] [FixSender] (DEBUG) Receiving 8=FIX.4.4|9=62|35=0|34=231|49=DMA_HUB|56=FIXCLIENT1|52=20240726-09:47:48.832|10=052|
2024-07-26 11:48:16.710 [100] [FixSender] (DEBUG) Sending 8=FIX.4.4|9=58|35=0|49=FIXCLIENT1|56=DMA_HUB|34=209|52=20240726-09:48:16|10=111|
2024-07-26 11:48:18.784 [99] [FixSender] (DEBUG) Receiving 8=FIX.4.4|9=62|35=0|34=232|49=DMA_HUB|56=FIXCLIENT1|52=20240726-09:48:18.783|10=056|
2024-07-26 11:48:46.710 [100] [FixSender] (DEBUG) Sending 8=FIX.4.4|9=58|35=0|49=FIXCLIENT1|56=DMA_HUB|34=210|52=20240726-09:48:46|10=106|
2024-07-26 11:48:48.736 [99] [FixSender] (DEBUG) Receiving 8=FIX.4.4|9=62|35=0|34=233|49=DMA_HUB|56=FIXCLIENT1|52=20240726-09:48:48.735|10=057|
2024-07-26 11:49:16.711 [100] [FixSender] (DEBUG) Sending 8=FIX.4.4|9=58|35=0|49=FIXCLIENT1|56=DMA_HUB|34=211|52=20240726-09:49:16|10=105|
2024-07-26 11:49:18.687 [99] [FixSender] (DEBUG) Receiving 8=FIX.4.4|9=62|35=0|34=234|49=DMA_HUB|56=FIXCLIENT1|52=20240726-09:49:18.687|10=062|
2024-07-26 11:49:46.712 [100] [FixSender] (DEBUG) Sending 8=FIX.4.4|9=58|35=0|49=FIXCLIENT1|56=DMA_HUB|34=212|52=20240726-09:49:46|10=109|
2024-07-26 11:49:48.640 [99] [FixSender] (DEBUG) Receiving 8=FIX.4.4|9=62|35=0|34=235|49=DMA_HUB|56=FIXCLIENT1|52=20240726-09:49:48.639|10=063|
2024-07-26 11:50:16.713 [100] [FixSender] (DEBUG) Sending 8=FIX.4.4|9=58|35=0|49=FIXCLIENT1|56=DMA_HUB|34=213|52=20240726-09:50:16|10=099|
2024-07-26 11:50:18.592 [99] [FixSender] (DEBUG) Receiving 8=FIX.4.4|9=62|35=0|34=236|49=DMA_HUB|56=FIXCLIENT1|52=20240726-09:50:18.591|10=050|
2024-07-26 11:50:46.713 [100] [FixSender] (DEBUG) Sending 8=FIX.4.4|9=58|35=0|49=FIXCLIENT1|56=DMA_HUB|34=214|52=20240726-09:50:46|10=103|
2024-07-26 11:50:48.544 [99] [FixSender] (DEBUG) Receiving 8=FIX.4.4|9=62|35=0|34=237|49=DMA_HUB|56=FIXCLIENT1|52=20240726-09:50:48.544|10=052|
2024-07-26 11:51:16.714 [100] [FixSender] (DEBUG) Sending 8=FIX.4.4|9=58|35=0|49=FIXCLIENT1|56=DMA_HUB|34=215|52=20240726-09:51:16|10=102|
2024-07-26 11:51:18.495 [99] [FixSender] (DEBUG) Receiving 8=FIX.4.4|9=62|35=0|34=238|49=DMA_HUB|56=FIXCLIENT1|52=20240726-09:51:18.495|10=056|
2024-07-26 11:51:46.714 [100] [FixSender] (DEBUG) Sending 8=FIX.4.4|9=58|35=0|49=FIXCLIENT1|56=DMA_HUB|34=216|52=20240726-09:51:46|10=106|
2024-07-26 11:51:48.448 [99] [FixSender] (DEBUG) Receiving 8=FIX.4.4|9=62|35=0|34=239|49=DMA_HUB|56=FIXCLIENT1|52=20240726-09:51:48.447|10=057|
2024-07-26 11:52:16.715 [100] [FixSender] (DEBUG) Sending 8=FIX.4.4|9=58|35=0|49=FIXCLIENT1|56=DMA_HUB|34=217|52=20240726-09:52:16|10=105|
2024-07-26 11:52:18.399 [99] [FixSender] (DEBUG) Receiving 8=FIX.4.4|9=62|35=0|34=240|49=DMA_HUB|56=FIXCLIENT1|52=20240726-09:52:18.399|10=053|
2024-07-26 11:52:46.715 [100] [FixSender] (DEBUG) Sending 8=FIX.4.4|9=58|35=0|49=FIXCLIENT1|56=DMA_HUB|34=218|52=20240726-09:52:46|10=109|
2024-07-26 11:52:48.352 [99] [FixSender] (DEBUG) Receiving 8=FIX.4.4|9=62|35=0|34=241|49=DMA_HUB|56=FIXCLIENT1|52=20240726-09:52:48.351|10=045|
2024-07-26 11:53:16.716 [100] [FixSender] (DEBUG) Sending 8=FIX.4.4|9=58|35=0|49=FIXCLIENT1|56=DMA_HUB|34=219|52=20240726-09:53:16|10=108|
2024-07-26 11:53:18.303 [99] [FixSender] (DEBUG) Receiving 8=FIX.4.4|9=62|35=0|34=242|49=DMA_HUB|56=FIXCLIENT1|52=20240726-09:53:18.303|10=041|
2024-07-26 11:53:46.716 [100] [FixSender] (DEBUG) Sending 8=FIX.4.4|9=58|35=0|49=FIXCLIENT1|56=DMA_HUB|34=220|52=20240726-09:53:46|10=103|
2024-07-26 11:53:48.256 [99] [FixSender] (DEBUG) Receiving 8=FIX.4.4|9=62|35=0|34=243|49=DMA_HUB|56=FIXCLIENT1|52=20240726-09:53:48.255|10=051|
2024-07-26 11:54:16.717 [100] [FixSender] (DEBUG) Sending 8=FIX.4.4|9=58|35=0|49=FIXCLIENT1|56=DMA_HUB|34=221|52=20240726-09:54:16|10=102|
2024-07-26 11:54:18.208 [99] [FixSender] (DEBUG) Receiving 8=FIX.4.4|9=62|35=0|34=244|49=DMA_HUB|56=FIXCLIENT1|52=20240726-09:54:18.208|10=048|
2024-07-26 11:54:46.717 [100] [FixSender] (DEBUG) Sending 8=FIX.4.4|9=58|35=0|49=FIXCLIENT1|56=DMA_HUB|34=222|52=20240726-09:54:46|10=106|
2024-07-26 11:54:48.159 [99] [FixSender] (DEBUG) Receiving 8=FIX.4.4|9=62|35=0|34=245|49=DMA_HUB|56=FIXCLIENT1|52=20240726-09:54:48.159|10=057|
2024-07-26 11:55:16.718 [100] [FixSender] (DEBUG) Sending 8=FIX.4.4|9=58|35=0|49=FIXCLIENT1|56=DMA_HUB|34=223|52=20240726-09:55:16|10=105|
2024-07-26 11:55:18.112 [99] [FixSender] (DEBUG) Receiving 8=FIX.4.4|9=62|35=0|34=246|49=DMA_HUB|56=FIXCLIENT1|52=20240726-09:55:18.111|10=044|
2024-07-26 11:55:46.719 [100] [FixSender] (DEBUG) Sending 8=FIX.4.4|9=58|35=0|49=FIXCLIENT1|56=DMA_HUB|34=224|52=20240726-09:55:46|10=109|
2024-07-26 11:55:48.063 [99] [FixSender] (DEBUG) Receiving 8=FIX.4.4|9=62|35=0|34=247|49=DMA_HUB|56=FIXCLIENT1|52=20240726-09:55:48.063|10=054|
2024-07-26 11:56:16.719 [100] [FixSender] (DEBUG) Sending 8=FIX.4.4|9=58|35=0|49=FIXCLIENT1|56=DMA_HUB|34=225|52=20240726-09:56:16|10=108|
2024-07-26 11:56:18.016 [99] [FixSender] (DEBUG) Receiving 8=FIX.4.4|9=62|35=0|34=248|49=DMA_HUB|56=FIXCLIENT1|52=20240726-09:56:18.015|10=050|
2024-07-26 11:56:46.720 [100] [FixSender] (DEBUG) Sending 8=FIX.4.4|9=58|35=0|49=FIXCLIENT1|56=DMA_HUB|34=226|52=20240726-09:56:46|10=112|
2024-07-26 11:56:47.967 [99] [FixSender] (DEBUG) Receiving 8=FIX.4.4|9=62|35=0|34=249|49=DMA_HUB|56=FIXCLIENT1|52=20240726-09:56:47.967|10=069|
2024-07-26 11:57:16.720 [100] [FixSender] (DEBUG) Sending 8=FIX.4.4|9=58|35=0|49=FIXCLIENT1|56=DMA_HUB|34=227|52=20240726-09:57:16|10=111|
2024-07-26 11:57:17.920 [99] [FixSender] (DEBUG) Receiving 8=FIX.4.4|9=62|35=0|34=250|49=DMA_HUB|56=FIXCLIENT1|52=20240726-09:57:17.919|10=056|
2024-07-26 11:57:46.721 [100] [FixSender] (DEBUG) Sending 8=FIX.4.4|9=58|35=0|49=FIXCLIENT1|56=DMA_HUB|34=228|52=20240726-09:57:46|10=115|
2024-07-26 11:57:47.872 [99] [FixSender] (DEBUG) Receiving 8=FIX.4.4|9=62|35=0|34=251|49=DMA_HUB|56=FIXCLIENT1|52=20240726-09:57:47.872|10=058|
2024-07-26 11:58:16.722 [100] [FixSender] (DEBUG) Sending 8=FIX.4.4|9=58|35=0|49=FIXCLIENT1|56=DMA_HUB|34=229|52=20240726-09:58:16|10=114|
2024-07-26 11:58:17.824 [99] [FixSender] (DEBUG) Receiving 8=FIX.4.4|9=62|35=0|34=252|49=DMA_HUB|56=FIXCLIENT1|52=20240726-09:58:17.823|10=053|
2024-07-26 11:58:46.722 [100] [FixSender] (DEBUG) Sending 8=FIX.4.4|9=58|35=0|49=FIXCLIENT1|56=DMA_HUB|34=230|52=20240726-09:58:46|10=109|
2024-07-26 11:58:47.776 [99] [FixSender] (DEBUG) Receiving 8=FIX.4.4|9=62|35=0|34=253|49=DMA_HUB|56=FIXCLIENT1|52=20240726-09:58:47.776|10=064|
2024-07-26 11:59:16.723 [100] [FixSender] (DEBUG) Sending 8=FIX.4.4|9=58|35=0|49=FIXCLIENT1|56=DMA_HUB|34=231|52=20240726-09:59:16|10=108|
2024-07-26 11:59:17.728 [99] [FixSender] (DEBUG) Receiving 8=FIX.4.4|9=62|35=0|34=254|49=DMA_HUB|56=FIXCLIENT1|52=20240726-09:59:17.727|10=059|
2024-07-26 11:59:46.724 [100] [FixSender] (DEBUG) Sending 8=FIX.4.4|9=58|35=0|49=FIXCLIENT1|56=DMA_HUB|34=232|52=20240726-09:59:46|10=112|
2024-07-26 11:59:47.679 [99] [FixSender] (DEBUG) Receiving 8=FIX.4.4|9=62|35=0|34=255|49=DMA_HUB|56=FIXCLIENT1|52=20240726-09:59:47.679|10=069|
2024-07-26 12:00:16.724 [100] [FixSender] (DEBUG) Sending 8=FIX.4.4|9=58|35=0|49=FIXCLIENT1|56=DMA_HUB|34=233|52=20240726-10:00:16|10=088|
2024-07-26 12:00:17.631 [99] [FixSender] (DEBUG) Receiving 8=FIX.4.4|9=62|35=0|34=256|49=DMA_HUB|56=FIXCLIENT1|52=20240726-10:00:17.631|10=033|
2024-07-26 12:00:46.725 [100] [FixSender] (DEBUG) Sending 8=FIX.4.4|9=58|35=0|49=FIXCLIENT1|56=DMA_HUB|34=234|52=20240726-10:00:46|10=092|
2024-07-26 12:00:47.584 [99] [FixSender] (DEBUG) Receiving 8=FIX.4.4|9=62|35=0|34=257|49=DMA_HUB|56=FIXCLIENT1|52=20240726-10:00:47.583|10=043|
2024-07-26 12:01:16.725 [100] [FixSender] (DEBUG) Sending 8=FIX.4.4|9=58|35=0|49=FIXCLIENT1|56=DMA_HUB|34=235|52=20240726-10:01:16|10=091|
2024-07-26 12:01:17.535 [99] [FixSender] (DEBUG) Receiving 8=FIX.4.4|9=62|35=0|34=258|49=DMA_HUB|56=FIXCLIENT1|52=20240726-10:01:17.535|10=039|
2024-07-26 12:01:46.726 [100] [FixSender] (DEBUG) Sending 8=FIX.4.4|9=58|35=0|49=FIXCLIENT1|56=DMA_HUB|34=236|52=20240726-10:01:46|10=095|
2024-07-26 12:01:47.488 [99] [FixSender] (DEBUG) Receiving 8=FIX.4.4|9=62|35=0|34=259|49=DMA_HUB|56=FIXCLIENT1|52=20240726-10:01:47.487|10=049|
2024-07-26 12:02:16.726 [100] [FixSender] (DEBUG) Sending 8=FIX.4.4|9=58|35=0|49=FIXCLIENT1|56=DMA_HUB|34=237|52=20240726-10:02:16|10=094|
2024-07-26 12:02:17.439 [99] [FixSender] (DEBUG) Receiving 8=FIX.4.4|9=62|35=0|34=260|49=DMA_HUB|56=FIXCLIENT1|52=20240726-10:02:17.439|10=036|
2024-07-26 12:02:46.727 [100] [FixSender] (DEBUG) Sending 8=FIX.4.4|9=58|35=0|49=FIXCLIENT1|56=DMA_HUB|34=238|52=20240726-10:02:46|10=098|
2024-07-26 12:02:47.392 [99] [FixSender] (DEBUG) Receiving 8=FIX.4.4|9=62|35=0|34=261|49=DMA_HUB|56=FIXCLIENT1|52=20240726-10:02:47.391|10=037|
2024-07-26 12:03:16.727 [100] [FixSender] (DEBUG) Sending 8=FIX.4.4|9=58|35=0|49=FIXCLIENT1|56=DMA_HUB|34=239|52=20240726-10:03:16|10=097|
2024-07-26 12:03:17.344 [99] [FixSender] (DEBUG) Receiving 8=FIX.4.4|9=62|35=0|34=262|49=DMA_HUB|56=FIXCLIENT1|52=20240726-10:03:17.343|10=033|
2024-07-26 12:03:46.728 [100] [FixSender] (DEBUG) Sending 8=FIX.4.4|9=58|35=0|49=FIXCLIENT1|56=DMA_HUB|34=240|52=20240726-10:03:46|10=092|
2024-07-26 12:03:47.296 [99] [FixSender] (DEBUG) Receiving 8=FIX.4.4|9=62|35=0|34=263|49=DMA_HUB|56=FIXCLIENT1|52=20240726-10:03:47.295|10=043|
2024-07-26 12:04:16.729 [100] [FixSender] (DEBUG) Sending 8=FIX.4.4|9=58|35=0|49=FIXCLIENT1|56=DMA_HUB|34=241|52=20240726-10:04:16|10=091|
2024-07-26 12:04:17.247 [99] [FixSender] (DEBUG) Receiving 8=FIX.4.4|9=62|35=0|34=264|49=DMA_HUB|56=FIXCLIENT1|52=20240726-10:04:17.247|10=039|
2024-07-26 12:04:46.730 [100] [FixSender] (DEBUG) Sending 8=FIX.4.4|9=58|35=0|49=FIXCLIENT1|56=DMA_HUB|34=242|52=20240726-10:04:46|10=095|
2024-07-26 12:04:47.200 [99] [FixSender] (DEBUG) Receiving 8=FIX.4.4|9=62|35=0|34=265|49=DMA_HUB|56=FIXCLIENT1|52=20240726-10:04:47.199|10=049|
