2024-01-05  [34] [FixSender] (DEBUG) Sending 8=FIX.4.4|9=58|35=0|49=FIXCLIENT1|56=DMA_HUB|34=181|52=20240105-08:18:33|10=096|
2024-01-05 09:18:36.775 [33] [FixSender] (DEBUG) Receiving 8=FIX.4.4|9=62|35=0|34=189|49=DMA_HUB|56=FIXCLIENT1|52=20240105-08:18:36.765|10=054|
2024-01-05 09:18:46.280 [33] [FixSender] (DEBUG) Receiving 8=FIX.4.4|9=258|35=8|34=190|49=DMA_HUB|56=FIXCLIENT1|52=20240105-08:18:46.279|11=HS_17043813880|37=FXX4ix0FS|198=qm2cx1030c|54=2|40=2|59=0|17=202401048|150=4|39=4|38=4652|151=0|14=0|6=0|44=197|60=20240104-15:16:53.005|22=4|48=US3390411052|207=XETR|15=EUR|55=[N/A]|58=resync|10=189|
2024-01-05 09:19:03.122 [34] [FixSender] (DEBUG) Sending 8=FIX.4.4|9=58|35=0|49=FIXCLIENT1|56=DMA_HUB|34=182|52=20240105-08:19:03|10=095|
2024-01-05 09:19:06.702 [33] [FixSender] (DEBUG) Receiving 8=FIX.4.4|9=62|35=0|34=191|49=DMA_HUB|56=FIXCLIENT1|52=20240105-08:19:06.702|10=036|
2024-01-05 09:19:33.127 [34] [FixSender] (DEBUG) Sending 8=FIX.4.4|9=58|35=0|49=FIXCLIENT1|56=DMA_HUB|34=183|52=20240105-08:19:33|10=099|
2024-01-05 09:19:36.651 [33] [FixSender] (DEBUG) Receiving 8=FIX.4.4|9=62|35=0|34=192|49=DMA_HUB|56=FIXCLIENT1|52=20240105-08:19:36.650|10=042|
2024-01-05 09:20:03.128 [34] [FixSender] (DEBUG) Sending 8=FIX.4.4|9=58|35=0|49=FIXCLIENT1|56=DMA_HUB|34=184|52=20240105-08:20:03|10=089|
2024-01-05 09:20:06.602 [33] [FixSender] (DEBUG) Receiving 8=FIX.4.4|9=62|35=0|34=193|49=DMA_HUB|56=FIXCLIENT1|52=20240105-08:20:06.602|10=029|
2024-01-05 09:20:33.130 [34] [FixSender] (DEBUG) Sending 8=FIX.4.4|9=58|35=0|49=FIXCLIENT1|56=DMA_HUB|34=185|52=20240105-08:20:33|10=093|
2024-01-05 09:20:36.553 [33] [FixSender] (DEBUG) Receiving 8=FIX.4.4|9=62|35=0|34=194|49=DMA_HUB|56=FIXCLIENT1|52=20240105-08:20:36.553|10=038|
2024-01-05 09:21:03.221 [34] [FixSender] (DEBUG) Sending 8=FIX.4.4|9=58|35=0|49=FIXCLIENT1|56=DMA_HUB|34=186|52=20240105-08:21:03|10=092|
2024-01-05 09:21:06.506 [33] [FixSender] (DEBUG) Receiving 8=FIX.4.4|9=62|35=0|34=195|49=DMA_HUB|56=FIXCLIENT1|52=20240105-08:21:06.506|10=035|
2024-01-05 09:21:33.221 [34] [FixSender] (DEBUG) Sending 8=FIX.4.4|9=58|35=0|49=FIXCLIENT1|56=DMA_HUB|34=187|52=20240105-08:21:33|10=096|
2024-01-05 09:21:36.457 [33] [FixSender] (DEBUG) Receiving 8=FIX.4.4|9=62|35=0|34=196|49=DMA_HUB|56=FIXCLIENT1|52=20240105-08:21:36.457|10=044|
2024-01-05 09:22:03.224 [34] [FixSender] (DEBUG) Sending 8=FIX.4.4|9=58|35=0|49=FIXCLIENT1|56=DMA_HUB|34=188|52=20240105-08:22:03|10=095|
2024-01-05 09:22:06.412 [33] [FixSender] (DEBUG) Receiving 8=FIX.4.4|9=62|35=0|34=197|49=DMA_HUB|56=FIXCLIENT1|52=20240105-08:22:06.411|10=033|
2024-01-05 09:22:33.225 [34] [FixSender] (DEBUG) Sending 8=FIX.4.4|9=58|35=0|49=FIXCLIENT1|56=DMA_HUB|34=189|52=20240105-08:22:33|10=099|
2024-01-05 09:22:36.367 [33] [FixSender] (DEBUG) Receiving 8=FIX.4.4|9=62|35=0|34=198|49=DMA_HUB|56=FIXCLIENT1|52=20240105-08:22:36.367|10=047|
2024-01-05 09:23:03.227 [34] [FixSender] (DEBUG) Sending 8=FIX.4.4|9=58|35=0|49=FIXCLIENT1|56=DMA_HUB|34=190|52=20240105-08:23:03|10=089|
2024-01-05 09:23:06.320 [33] [FixSender] (DEBUG) Receiving 8=FIX.4.4|9=62|35=0|34=199|49=DMA_HUB|56=FIXCLIENT1|52=20240105-08:23:06.318|10=042|
2024-01-05 09:23:33.230 [34] [FixSender] (DEBUG) Sending 8=FIX.4.4|9=58|35=0|49=FIXCLIENT1|56=DMA_HUB|34=191|52=20240105-08:23:33|10=093|
2024-01-05 09:23:36.273 [33] [FixSender] (DEBUG) Receiving 8=FIX.4.4|9=62|35=0|34=200|49=DMA_HUB|56=FIXCLIENT1|52=20240105-08:23:36.272|10=027|
2024-01-05 09:24:03.230 [34] [FixSender] (DEBUG) Sending 8=FIX.4.4|9=58|35=0|49=FIXCLIENT1|56=DMA_HUB|34=192|52=20240105-08:24:03|10=092|
2024-01-05 09:24:06.230 [33] [FixSender] (DEBUG) Receiving 8=FIX.4.4|9=62|35=0|34=201|49=DMA_HUB|56=FIXCLIENT1|52=20240105-08:24:06.229|10=028|
2024-01-05 09:24:33.234 [34] [FixSender] (DEBUG) Sending 8=FIX.4.4|9=58|35=0|49=FIXCLIENT1|56=DMA_HUB|34=193|52=20240105-08:24:33|10=096|
2024-01-05 09:24:36.175 [33] [FixSender] (DEBUG) Receiving 8=FIX.4.4|9=62|35=0|34=202|49=DMA_HUB|56=FIXCLIENT1|52=20240105-08:24:36.174|10=031|
2024-01-05 09:25:03.237 [34] [FixSender] (DEBUG) Sending 8=FIX.4.4|9=58|35=0|49=FIXCLIENT1|56=DMA_HUB|34=194|52=20240105-08:25:03|10=095|
2024-01-05 09:25:06.135 [33] [FixSender] (DEBUG) Receiving 8=FIX.4.4|9=62|35=0|34=203|49=DMA_HUB|56=FIXCLIENT1|52=20240105-08:25:06.133|10=025|
2024-01-05 09:25:08.009 [39] [FixSender] (DEBUG) Sending 8=FIX.4.4|9=198|35=D|49=FIXCLIENT1|56=DMA_HUB|34=195|52=20240105-08:25:08|21=1|11=HS_17044431082|38=2889|55=E:07G@XETR|54=2|60=20240105-08:25:08|40=2|59=0|44=197.111|48=US3390411052|22=4|15=EUR|207=XETR|1=bram_123|10=151|
2024-01-05 09:25:08.012 [33] [FixSender] (DEBUG) Receiving 8=FIX.4.4|9=240|35=8|34=204|49=DMA_HUB|56=FIXCLIENT1|52=20240105-08:25:08.010|11=HS_17044431082|37=FXZ4ix0FS|54=2|40=2|59=0|17=202401049|150=A|39=A|38=2889|151=2889|14=0|6=0|44=197.111|60=20240105-08:25:08.000|22=4|48=US3390411052|207=XETR|15=EUR|55=[N/A]|10=242|
2024-01-05 09:25:23.383 [33] [FixSender] (DEBUG) Receiving 8=FIX.4.4|9=237|35=8|34=205|49=DMA_HUB|56=FIXCLIENT1|52=20240105-08:25:23.382|11=HS_17044431082|37=FXZ4ix0FS|54=2|40=2|59=0|17=2024010410|150=A|39=A|38=2889|151=2889|14=0|6=0|44=197|60=20240105-08:25:08.000|22=4|48=US3390411052|207=XETR|15=EUR|55=[N/A]|10=105|
2024-01-05 09:25:23.386 [33] [FixSender] (DEBUG) Receiving 8=FIX.4.4|9=253|35=8|34=206|49=DMA_HUB|56=FIXCLIENT1|52=20240105-08:25:23.385|11=HS_17044431082|37=FXZ4ix0FS|198=qm2cx2aadc9|54=2|40=2|59=0|17=2024010411|150=0|39=0|38=2889|151=2889|14=0|6=0|44=197|60=20240105-08:25:23.384|22=4|48=US3390411052|207=XETR|15=EUR|55=[N/A]|10=021|
2024-01-05 09:25:36.074 [33] [FixSender] (DEBUG) Receiving 8=FIX.4.4|9=62|35=0|34=207|49=DMA_HUB|56=FIXCLIENT1|52=20240105-08:25:36.073|10=035|
2024-01-05 09:25:38.037 [34] [FixSender] (DEBUG) Sending 8=FIX.4.4|9=58|35=0|49=FIXCLIENT1|56=DMA_HUB|34=196|52=20240105-08:25:38|10=105|
2024-01-05 09:26:06.026 [33] [FixSender] (DEBUG) Receiving 8=FIX.4.4|9=62|35=0|34=208|49=DMA_HUB|56=FIXCLIENT1|52=20240105-08:26:06.025|10=031|
2024-01-05 09:26:08.050 [34] [FixSender] (DEBUG) Sending 8=FIX.4.4|9=58|35=0|49=FIXCLIENT1|56=DMA_HUB|34=197|52=20240105-08:26:08|10=104|
2024-01-05 09:26:35.982 [33] [FixSender] (DEBUG) Receiving 8=FIX.4.4|9=62|35=0|34=209|49=DMA_HUB|56=FIXCLIENT1|52=20240105-08:26:35.982|10=046|
2024-01-05 09:26:38.057 [34] [FixSender] (DEBUG) Sending 8=FIX.4.4|9=58|35=0|49=FIXCLIENT1|56=DMA_HUB|34=198|52=20240105-08:26:38|10=108|
2024-01-05 09:27:05.940 [33] [FixSender] (DEBUG) Receiving 8=FIX.4.4|9=62|35=0|34=210|49=DMA_HUB|56=FIXCLIENT1|52=20240105-08:27:05.940|10=030|
2024-01-05 09:27:08.060 [34] [FixSender] (DEBUG) Sending 8=FIX.4.4|9=58|35=0|49=FIXCLIENT1|56=DMA_HUB|34=199|52=20240105-08:27:08|10=107|
2024-01-05 09:27:35.883 [33] [FixSender] (DEBUG) Receiving 8=FIX.4.4|9=62|35=0|34=211|49=DMA_HUB|56=FIXCLIENT1|52=20240105-08:27:35.882|10=039|
2024-01-05 09:27:38.062 [34] [FixSender] (DEBUG) Sending 8=FIX.4.4|9=58|35=0|49=FIXCLIENT1|56=DMA_HUB|34=200|52=20240105-08:27:38|10=093|
2024-01-05 09:28:05.836 [33] [FixSender] (DEBUG) Receiving 8=FIX.4.4|9=62|35=0|34=212|49=DMA_HUB|56=FIXCLIENT1|52=20240105-08:28:05.836|10=037|
2024-01-05 09:28:08.063 [34] [FixSender] (DEBUG) Sending 8=FIX.4.4|9=58|35=0|49=FIXCLIENT1|56=DMA_HUB|34=201|52=20240105-08:28:08|10=092|
2024-01-05 09:28:35.787 [33] [FixSender] (DEBUG) Receiving 8=FIX.4.4|9=62|35=0|34=213|49=DMA_HUB|56=FIXCLIENT1|52=20240105-08:28:35.787|10=046|
2024-01-05 09:28:38.063 [34] [FixSender] (DEBUG) Sending 8=FIX.4.4|9=58|35=0|49=FIXCLIENT1|56=DMA_HUB|34=202|52=20240105-08:28:38|10=096|
2024-01-05 09:28:55.823 [40] [FixSender] (DEBUG) Sending 8=FIX.4.4|9=198|35=D|49=FIXCLIENT1|56=DMA_HUB|34=203|52=20240105-08:28:55|21=1|11=HS_17044433353|38=2950|55=E:07G@XETR|54=2|60=20240105-08:28:55|40=2|59=0|44=197.111|48=US3390411052|22=4|15=EUR|207=XETR|1=bram_123|10=143|
2024-01-05 09:28:55.825 [33] [FixSender] (DEBUG) Receiving 8=FIX.4.4|9=241|35=8|34=214|49=DMA_HUB|56=FIXCLIENT1|52=20240105-08:28:55.824|11=HS_17044433353|37=FXa4ix0FS|54=2|40=2|59=0|17=2024010412|150=A|39=A|38=2950|151=2950|14=0|6=0|44=197.111|60=20240105-08:28:55.000|22=4|48=US3390411052|207=XETR|15=EUR|55=[N/A]|10=041|
2024-01-05 09:29:05.746 [33] [FixSender] (DEBUG) Receiving 8=FIX.4.4|9=62|35=0|34=215|49=DMA_HUB|56=FIXCLIENT1|52=20240105-08:29:05.745|10=040|
2024-01-05 09:29:25.823 [34] [FixSender] (DEBUG) Sending 8=FIX.4.4|9=58|35=0|49=FIXCLIENT1|56=DMA_HUB|34=204|52=20240105-08:29:25|10=095|
2024-01-05 09:29:35.701 [33] [FixSender] (DEBUG) Receiving 8=FIX.4.4|9=62|35=0|34=216|49=DMA_HUB|56=FIXCLIENT1|52=20240105-08:29:35.700|10=035|
2024-01-05 09:29:55.824 [34] [FixSender] (DEBUG) Sending 8=FIX.4.4|9=58|35=0|49=FIXCLIENT1|56=DMA_HUB|34=205|52=20240105-08:29:55|10=099|
2024-01-05 09:30:05.645 [33] [FixSender] (DEBUG) Receiving 8=FIX.4.4|9=62|35=0|34=217|49=DMA_HUB|56=FIXCLIENT1|52=20240105-08:30:05.645|10=033|
2024-01-05 09:30:07.471 [41] [FixSender] (DEBUG) Sending 8=FIX.4.4|9=198|35=D|49=FIXCLIENT1|56=DMA_HUB|34=206|52=20240105-08:30:07|21=1|11=HS_17044434074|38=1026|55=E:07G@XETR|54=2|60=20240105-08:30:07|40=2|59=0|44=197.111|48=US3390411052|22=4|15=EUR|207=XETR|1=bram_123|10=120|
2024-01-05 09:30:07.473 [33] [FixSender] (DEBUG) Receiving 8=FIX.4.4|9=241|35=8|34=218|49=DMA_HUB|56=FIXCLIENT1|52=20240105-08:30:07.472|11=HS_17044434074|37=FXb4ix0FS|54=2|40=2|59=0|17=2024010413|150=A|39=A|38=1026|151=1026|14=0|6=0|44=197.111|60=20240105-08:30:07.000|22=4|48=US3390411052|207=XETR|15=EUR|55=[N/A]|10=013|
2024-01-05 09:30:19.198 [33] [FixSender] (DEBUG) Receiving 8=FIX.4.4|9=237|35=8|34=219|49=DMA_HUB|56=FIXCLIENT1|52=20240105-08:30:19.197|11=HS_17044433353|37=FXa4ix0FS|54=2|40=2|59=0|17=2024010414|150=A|39=A|38=2950|151=2950|14=0|6=0|44=197|60=20240105-08:28:55.000|22=4|48=US3390411052|207=XETR|15=EUR|55=[N/A]|10=112|
2024-01-05 09:30:19.199 [33] [FixSender] (DEBUG) Receiving 8=FIX.4.4|9=253|35=8|34=220|49=DMA_HUB|56=FIXCLIENT1|52=20240105-08:30:19.199|11=HS_17044433353|37=FXa4ix0FS|198=qm2cx2eb000|54=2|40=2|59=0|17=2024010415|150=0|39=0|38=2950|151=2950|14=0|6=0|44=197|60=20240105-08:30:19.198|22=4|48=US3390411052|207=XETR|15=EUR|55=[N/A]|10=166|
2024-01-05 09:30:35.595 [33] [FixSender] (DEBUG) Receiving 8=FIX.4.4|9=62|35=0|34=221|49=DMA_HUB|56=FIXCLIENT1|52=20240105-08:30:35.593|10=033|
2024-01-05 09:30:37.471 [34] [FixSender] (DEBUG) Sending 8=FIX.4.4|9=58|35=0|49=FIXCLIENT1|56=DMA_HUB|34=207|52=20240105-08:30:37|10=093|
2024-01-05 09:30:58.349 [33] [FixSender] (DEBUG) Receiving 8=FIX.4.4|9=62|35=5|34=222|49=DMA_HUB|56=FIXCLIENT1|52=20240105-08:30:58.349|10=043|
2024-01-05 09:30:58.351 [33] [FixSender] (DEBUG) Sending 8=FIX.4.4|9=80|35=5|49=FIXCLIENT1|56=DMA_HUB|34=208|52=20240105-08:30:58|58=Replying to logout|10=019|
2024-01-05 09:30:58.351 [33] [FixSender] (WARNING) The Fix connection is close...
2024-01-05 09:30:58.353 [33] [FixSender] (INFO) physical cnx finished Connection reset by peer
2024-01-05 09:30:58.354 [33] [FixSender] (WARNING) Disconnected
2024-01-05 09:32:37.366 [42] [FixSender] (INFO) try to connect to : localhost port :12345
2024-01-05 09:32:37.368 [42] [FixSender] (INFO) physical cnx initiated
2024-01-05 09:32:37.373 [42] [FixSender] (DEBUG) Sending 8=FIX.4.4|9=88|35=A|49=FIXCLIENT1|56=DMA_HUB|34=209|52=20240105-08:32:37|98=0|108=30|95=9|96=null/null|10=197|
2024-01-05 09:32:37.374 [42] [FixSender] (DEBUG) Receiving 8=FIX.4.4|9=72|35=A|34=2|49=DMA_HUB|56=FIXCLIENT1|52=20240105-08:32:37.373|108=30|98=0|10=233|
2024-01-05 09:32:37.375 [42] [FixSender] (DEBUG) Sending 8=FIX.4.4|9=110|35=5|49=FIXCLIENT1|56=DMA_HUB|34=210|52=20240105-08:32:37|58=MsgSeqNum expected 223, but MsgSeqNum received 2|10=199|
2024-01-05 09:32:37.376 [42] [FixSender] (INFO) physical cnx finished Connection reset by peer
2024-01-05 09:32:37.376 [42] [FixSender] (WARNING) Disconnected
2024-01-05 09:32:39.465 [46] [FixSender] (INFO) try to connect to : localhost port :12345
2024-01-05 09:32:39.466 [46] [FixSender] (INFO) physical cnx initiated
2024-01-05 09:32:39.470 [46] [FixSender] (DEBUG) Sending 8=FIX.4.4|9=86|35=A|49=FIXCLIENT1|56=DMA_HUB|34=1|52=20240105-08:32:39|98=0|108=30|95=9|96=null/null|10=091|
2024-01-05 09:32:39.471 [46] [FixSender] (DEBUG) Receiving 8=FIX.4.4|9=72|35=A|34=5|49=DMA_HUB|56=FIXCLIENT1|52=20240105-08:32:39.470|108=30|98=0|10=236|
2024-01-05 09:32:39.471 [46] [FixSender] (WARNING) The Fix connection is open...
2024-01-05 09:32:39.474 [46] [FixSender] (DEBUG) Sending 8=FIX.4.4|9=65|35=2|49=FIXCLIENT1|56=DMA_HUB|34=2|52=20240105-08:32:39|7=1|16=0|10=117|
2024-01-05 09:32:39.476 [46] [FixSender] (DEBUG) Receiving 8=FIX.4.4|9=318|35=8|34=1|49=DMA_HUB|56=FIXCLIENT1|52=20240105-08:32:39.476|43=Y|122=20240105-08:31:10.042|11=HS_17043822341|37=FXY4ix0FS|198=qm2cxe592e|54=2|32=4228|31=147|58=resync|17=202401051|527=Aqm2cx1|150=F|39=2|38=4228|151=0|14=4228|6=147|44=10|60=20240104-15:49:42.189|55=E:07G@XETR|453=1|448=strmrepl|447=D|452=17|40=2|59=0|10=123|
2024-01-05 09:32:39.476 [46] [FixSender] (DEBUG) Receiving 8=FIX.4.4|9=102|35=4|34=2|49=DMA_HUB|56=FIXCLIENT1|52=20240105-08:32:39.476|43=Y|122=20240105-08:32:39.476|36=6|123=Y|10=005|
2024-01-05 09:32:40.523 [49] [FixSender] (DEBUG) Sending 8=FIX.4.4|9=196|35=D|49=FIXCLIENT1|56=DMA_HUB|34=3|52=20240105-08:32:40|21=1|11=HS_17044435605|38=4029|55=E:07G@XETR|54=2|60=20240105-08:32:40|40=2|59=0|44=197.111|48=US3390411052|22=4|15=EUR|207=XETR|1=bram_123|10=022|
2024-01-05 09:32:40.531 [46] [FixSender] (DEBUG) Receiving 8=FIX.4.4|9=238|35=8|34=6|49=DMA_HUB|56=FIXCLIENT1|52=20240105-08:32:40.528|11=HS_17044435605|37=FXPiSVCwF|54=2|40=2|59=0|17=202401052|150=A|39=A|38=4029|151=4029|14=0|6=0|44=197.111|60=20240105-08:32:40.000|22=4|48=US3390411052|207=XETR|15=EUR|55=[N/A]|10=172|
2024-01-05 09:32:54.379 [46] [FixSender] (DEBUG) Receiving 8=FIX.4.4|9=233|35=8|34=7|49=DMA_HUB|56=FIXCLIENT1|52=20240105-08:32:54.378|11=HS_17044435605|37=FXPiSVCwF|54=2|40=2|59=0|17=202401053|150=A|39=A|38=4029|151=4029|14=0|6=0|44=10|60=20240105-08:32:40.000|22=4|48=US3390411052|207=XETR|15=EUR|55=[N/A]|10=176|
2024-01-05 09:32:54.383 [46] [FixSender] (DEBUG) Receiving 8=FIX.4.4|9=249|35=8|34=8|49=DMA_HUB|56=FIXCLIENT1|52=20240105-08:32:54.383|11=HS_17044435605|37=FXPiSVCwF|198=qm2cx30ca32|54=2|40=2|59=0|17=202401054|150=0|39=0|38=4029|151=4029|14=0|6=0|44=10|60=20240105-08:32:54.381|22=4|48=US3390411052|207=XETR|15=EUR|55=[N/A]|10=251|
2024-01-05 09:32:54.387 [46] [FixSender] (DEBUG) Receiving 8=FIX.4.4|9=310|35=8|34=9|49=DMA_HUB|56=FIXCLIENT1|52=20240105-08:32:54.386|11=HS_17044435605|37=FXPiSVCwF|198=qm2cx30ca32|54=2|32=4029|31=114|17=202401055|527=Aqm2cx2|150=F|39=2|38=4029|151=0|14=4029|6=114|44=10|60=20240105-08:32:54.381|22=4|48=US3390411052|207=XETR|15=EUR|55=[N/A]|453=1|448=strmrepl|447=D|452=17|40=2|59=0|10=027|
2024-01-05 09:33:09.447 [46] [FixSender] (DEBUG) Receiving 8=FIX.4.4|9=61|35=0|34=10|49=DMA_HUB|56=FIXCLIENT1|52=20240105-08:33:09.446|10=237|
2024-01-05 09:33:10.524 [47] [FixSender] (DEBUG) Sending 8=FIX.4.4|9=56|35=0|49=FIXCLIENT1|56=DMA_HUB|34=4|52=20240105-08:33:10|10=240|
2024-01-05 09:33:39.404 [46] [FixSender] (DEBUG) Receiving 8=FIX.4.4|9=61|35=0|34=11|49=DMA_HUB|56=FIXCLIENT1|52=20240105-08:33:39.403|10=234|
2024-01-05 09:33:40.534 [47] [FixSender] (DEBUG) Sending 8=FIX.4.4|9=56|35=0|49=FIXCLIENT1|56=DMA_HUB|34=5|52=20240105-08:33:40|10=244|
2024-01-05 09:34:09.346 [46] [FixSender] (DEBUG) Receiving 8=FIX.4.4|9=61|35=0|34=12|49=DMA_HUB|56=FIXCLIENT1|52=20240105-08:34:09.345|10=238|
2024-01-05 09:34:10.535 [47] [FixSender] (DEBUG) Sending 8=FIX.4.4|9=56|35=0|49=FIXCLIENT1|56=DMA_HUB|34=6|52=20240105-08:34:10|10=243|
2024-01-05 09:34:39.298 [46] [FixSender] (DEBUG) Receiving 8=FIX.4.4|9=61|35=0|34=13|49=DMA_HUB|56=FIXCLIENT1|52=20240105-08:34:39.298|10=249|
2024-01-05 09:34:40.538 [47] [FixSender] (DEBUG) Sending 8=FIX.4.4|9=56|35=0|49=FIXCLIENT1|56=DMA_HUB|34=7|52=20240105-08:34:40|10=247|
2024-01-05 09:35:09.262 [46] [FixSender] (DEBUG) Receiving 8=FIX.4.4|9=61|35=0|34=14|49=DMA_HUB|56=FIXCLIENT1|52=20240105-08:35:09.262|10=239|
2024-01-05 09:35:10.541 [47] [FixSender] (DEBUG) Sending 8=FIX.4.4|9=56|35=0|49=FIXCLIENT1|56=DMA_HUB|34=8|52=20240105-08:35:10|10=246|
2024-01-05 09:35:39.199 [46] [FixSender] (DEBUG) Receiving 8=FIX.4.4|9=61|35=0|34=15|49=DMA_HUB|56=FIXCLIENT1|52=20240105-08:35:39.199|10=252|
2024-01-05 09:35:40.542 [47] [FixSender] (DEBUG) Sending 8=FIX.4.4|9=56|35=0|49=FIXCLIENT1|56=DMA_HUB|34=9|52=20240105-08:35:40|10=250|
2024-01-05 09:36:09.162 [46] [FixSender] (DEBUG) Receiving 8=FIX.4.4|9=61|35=0|34=16|49=DMA_HUB|56=FIXCLIENT1|52=20240105-08:36:09.161|10=240|
2024-01-05 09:36:10.546 [47] [FixSender] (DEBUG) Sending 8=FIX.4.4|9=57|35=0|49=FIXCLIENT1|56=DMA_HUB|34=10|52=20240105-08:36:10|10=033|
2024-01-05 09:36:39.107 [46] [FixSender] (DEBUG) Receiving 8=FIX.4.4|9=61|35=0|34=17|49=DMA_HUB|56=FIXCLIENT1|52=20240105-08:36:39.107|10=244|
2024-01-05 09:36:40.550 [47] [FixSender] (DEBUG) Sending 8=FIX.4.4|9=57|35=0|49=FIXCLIENT1|56=DMA_HUB|34=11|52=20240105-08:36:40|10=037|
2024-01-05 09:37:09.059 [46] [FixSender] (DEBUG) Receiving 8=FIX.4.4|9=61|35=0|34=18|49=DMA_HUB|56=FIXCLIENT1|52=20240105-08:37:09.059|10=249|
2024-01-05 09:37:10.551 [47] [FixSender] (DEBUG) Sending 8=FIX.4.4|9=57|35=0|49=FIXCLIENT1|56=DMA_HUB|34=12|52=20240105-08:37:10|10=036|
2024-01-05 09:37:39.023 [46] [FixSender] (DEBUG) Receiving 8=FIX.4.4|9=61|35=0|34=19|49=DMA_HUB|56=FIXCLIENT1|52=20240105-08:37:39.021|10=242|
2024-01-05 09:37:40.552 [47] [FixSender] (DEBUG) Sending 8=FIX.4.4|9=57|35=0|49=FIXCLIENT1|56=DMA_HUB|34=13|52=20240105-08:37:40|10=040|
2024-01-05 09:38:08.968 [46] [FixSender] (DEBUG) Receiving 8=FIX.4.4|9=61|35=0|34=20|49=DMA_HUB|56=FIXCLIENT1|52=20240105-08:38:08.968|10=251|
2024-01-05 09:38:10.555 [47] [FixSender] (DEBUG) Sending 8=FIX.4.4|9=57|35=0|49=FIXCLIENT1|56=DMA_HUB|34=14|52=20240105-08:38:10|10=039|
2024-01-05 09:38:38.922 [46] [FixSender] (DEBUG) Receiving 8=FIX.4.4|9=61|35=0|34=21|49=DMA_HUB|56=FIXCLIENT1|52=20240105-08:38:38.922|10=245|
2024-01-05 09:38:40.557 [47] [FixSender] (DEBUG) Sending 8=FIX.4.4|9=57|35=0|49=FIXCLIENT1|56=DMA_HUB|34=15|52=20240105-08:38:40|10=043|
2024-01-05 09:39:08.870 [46] [FixSender] (DEBUG) Receiving 8=FIX.4.4|9=61|35=0|34=22|49=DMA_HUB|56=FIXCLIENT1|52=20240105-08:39:08.870|10=246|
2024-01-05 09:39:10.559 [47] [FixSender] (DEBUG) Sending 8=FIX.4.4|9=57|35=0|49=FIXCLIENT1|56=DMA_HUB|34=16|52=20240105-08:39:10|10=042|
2024-01-05 09:39:38.824 [46] [FixSender] (DEBUG) Receiving 8=FIX.4.4|9=61|35=0|34=23|49=DMA_HUB|56=FIXCLIENT1|52=20240105-08:39:38.823|10=248|
2024-01-05 09:39:40.561 [47] [FixSender] (DEBUG) Sending 8=FIX.4.4|9=57|35=0|49=FIXCLIENT1|56=DMA_HUB|34=17|52=20240105-08:39:40|10=046|
2024-01-05 09:40:08.782 [46] [FixSender] (DEBUG) Receiving 8=FIX.4.4|9=61|35=0|34=24|49=DMA_HUB|56=FIXCLIENT1|52=20240105-08:40:08.782|10=242|
2024-01-05 09:40:10.565 [47] [FixSender] (DEBUG) Sending 8=FIX.4.4|9=57|35=0|49=FIXCLIENT1|56=DMA_HUB|34=18|52=20240105-08:40:10|10=036|
2024-01-05 09:40:38.724 [46] [FixSender] (DEBUG) Receiving 8=FIX.4.4|9=61|35=0|34=25|49=DMA_HUB|56=FIXCLIENT1|52=20240105-08:40:38.723|10=241|
2024-01-05 09:40:40.566 [47] [FixSender] (DEBUG) Sending 8=FIX.4.4|9=57|35=0|49=FIXCLIENT1|56=DMA_HUB|34=19|52=20240105-08:40:40|10=040|
2024-01-05 09:41:08.684 [46] [FixSender] (DEBUG) Receiving 8=FIX.4.4|9=61|35=0|34=26|49=DMA_HUB|56=FIXCLIENT1|52=20240105-08:41:08.683|10=245|
2024-01-05 09:41:10.568 [47] [FixSender] (DEBUG) Sending 8=FIX.4.4|9=57|35=0|49=FIXCLIENT1|56=DMA_HUB|34=20|52=20240105-08:41:10|10=030|
2024-01-05 09:41:38.628 [46] [FixSender] (DEBUG) Receiving 8=FIX.4.4|9=61|35=0|34=27|49=DMA_HUB|56=FIXCLIENT1|52=20240105-08:41:38.628|10=248|
2024-01-05 09:41:40.569 [47] [FixSender] (DEBUG) Sending 8=FIX.4.4|9=57|35=0|49=FIXCLIENT1|56=DMA_HUB|34=21|52=20240105-08:41:40|10=034|
2024-01-05 09:42:08.584 [46] [FixSender] (DEBUG) Receiving 8=FIX.4.4|9=61|35=0|34=28|49=DMA_HUB|56=FIXCLIENT1|52=20240105-08:42:08.584|10=248|
2024-01-05 09:42:10.571 [47] [FixSender] (DEBUG) Sending 8=FIX.4.4|9=57|35=0|49=FIXCLIENT1|56=DMA_HUB|34=22|52=20240105-08:42:10|10=033|
2024-01-05 09:42:38.531 [46] [FixSender] (DEBUG) Receiving 8=FIX.4.4|9=61|35=0|34=29|49=DMA_HUB|56=FIXCLIENT1|52=20240105-08:42:38.531|10=244|
2024-01-05 09:42:40.572 [47] [FixSender] (DEBUG) Sending 8=FIX.4.4|9=57|35=0|49=FIXCLIENT1|56=DMA_HUB|34=23|52=20240105-08:42:40|10=037|
2024-01-05 09:43:08.487 [46] [FixSender] (DEBUG) Receiving 8=FIX.4.4|9=61|35=0|34=30|49=DMA_HUB|56=FIXCLIENT1|52=20240105-08:43:08.487|10=244|
2024-01-05 09:43:10.573 [47] [FixSender] (DEBUG) Sending 8=FIX.4.4|9=57|35=0|49=FIXCLIENT1|56=DMA_HUB|34=24|52=20240105-08:43:10|10=036|
2024-01-05 09:43:38.444 [46] [FixSender] (DEBUG) Receiving 8=FIX.4.4|9=61|35=0|34=31|49=DMA_HUB|56=FIXCLIENT1|52=20240105-08:43:38.442|10=239|
2024-01-05 09:43:40.575 [47] [FixSender] (DEBUG) Sending 8=FIX.4.4|9=57|35=0|49=FIXCLIENT1|56=DMA_HUB|34=25|52=20240105-08:43:40|10=040|
2024-01-05 09:44:08.389 [46] [FixSender] (DEBUG) Receiving 8=FIX.4.4|9=61|35=0|34=32|49=DMA_HUB|56=FIXCLIENT1|52=20240105-08:44:08.388|10=247|
2024-01-05 09:44:10.575 [47] [FixSender] (DEBUG) Sending 8=FIX.4.4|9=57|35=0|49=FIXCLIENT1|56=DMA_HUB|34=26|52=20240105-08:44:10|10=039|
2024-01-05 09:44:38.340 [46] [FixSender] (DEBUG) Receiving 8=FIX.4.4|9=61|35=0|34=33|49=DMA_HUB|56=FIXCLIENT1|52=20240105-08:44:38.339|10=247|
2024-01-05 09:44:40.576 [47] [FixSender] (DEBUG) Sending 8=FIX.4.4|9=57|35=0|49=FIXCLIENT1|56=DMA_HUB|34=27|52=20240105-08:44:40|10=043|
2024-01-05 09:45:08.300 [46] [FixSender] (DEBUG) Receiving 8=FIX.4.4|9=61|35=0|34=34|49=DMA_HUB|56=FIXCLIENT1|52=20240105-08:45:08.297|10=249|
2024-01-05 09:45:10.586 [47] [FixSender] (DEBUG) Sending 8=FIX.4.4|9=57|35=0|49=FIXCLIENT1|56=DMA_HUB|34=28|52=20240105-08:45:10|10=042|
2024-01-05 09:45:38.251 [46] [FixSender] (DEBUG) Receiving 8=FIX.4.4|9=61|35=0|34=35|49=DMA_HUB|56=FIXCLIENT1|52=20240105-08:45:38.251|10=243|
2024-01-05 09:45:40.587 [47] [FixSender] (DEBUG) Sending 8=FIX.4.4|9=57|35=0|49=FIXCLIENT1|56=DMA_HUB|34=29|52=20240105-08:45:40|10=046|
2024-01-05 09:46:08.196 [46] [FixSender] (DEBUG) Receiving 8=FIX.4.4|9=61|35=0|34=36|49=DMA_HUB|56=FIXCLIENT1|52=20240105-08:46:08.195|10=249|
2024-01-05 09:46:10.590 [47] [FixSender] (DEBUG) Sending 8=FIX.4.4|9=57|35=0|49=FIXCLIENT1|56=DMA_HUB|34=30|52=20240105-08:46:10|10=036|
2024-01-05 09:46:38.145 [46] [FixSender] (DEBUG) Receiving 8=FIX.4.4|9=61|35=0|34=37|49=DMA_HUB|56=FIXCLIENT1|52=20240105-08:46:38.144|10=247|
2024-01-05 09:46:40.592 [47] [FixSender] (DEBUG) Sending 8=FIX.4.4|9=57|35=0|49=FIXCLIENT1|56=DMA_HUB|34=31|52=20240105-08:46:40|10=040|
2024-01-05 09:47:08.097 [46] [FixSender] (DEBUG) Receiving 8=FIX.4.4|9=61|35=0|34=38|49=DMA_HUB|56=FIXCLIENT1|52=20240105-08:47:08.097|10=253|
2024-01-05 09:47:10.593 [47] [FixSender] (DEBUG) Sending 8=FIX.4.4|9=57|35=0|49=FIXCLIENT1|56=DMA_HUB|34=32|52=20240105-08:47:10|10=039|
2024-01-05 09:47:38.061 [46] [FixSender] (DEBUG) Receiving 8=FIX.4.4|9=61|35=0|34=39|49=DMA_HUB|56=FIXCLIENT1|52=20240105-08:47:38.060|10=247|
2024-01-05 09:47:40.594 [47] [FixSender] (DEBUG) Sending 8=FIX.4.4|9=57|35=0|49=FIXCLIENT1|56=DMA_HUB|34=33|52=20240105-08:47:40|10=043|
2024-01-05 09:48:08.002 [46] [FixSender] (DEBUG) Receiving 8=FIX.4.4|9=61|35=0|34=40|49=DMA_HUB|56=FIXCLIENT1|52=20240105-08:48:08.002|10=233|
2024-01-05 09:48:10.596 [47] [FixSender] (DEBUG) Sending 8=FIX.4.4|9=57|35=0|49=FIXCLIENT1|56=DMA_HUB|34=34|52=20240105-08:48:10|10=042|
2024-01-05 09:48:37.965 [46] [FixSender] (DEBUG) Receiving 8=FIX.4.4|9=61|35=0|34=41|49=DMA_HUB|56=FIXCLIENT1|52=20240105-08:48:37.964|10=253|
2024-01-05 09:48:40.605 [47] [FixSender] (DEBUG) Sending 8=FIX.4.4|9=57|35=0|49=FIXCLIENT1|56=DMA_HUB|34=35|52=20240105-08:48:40|10=046|
2024-01-05 09:48:54.519 [50] [FixSender] (DEBUG) Sending 8=FIX.4.4|9=197|35=D|49=FIXCLIENT1|56=DMA_HUB|34=36|52=20240105-08:48:54|21=1|11=HS_17044445346|38=3266|55=E:07G@XETR|54=2|60=20240105-08:48:54|40=2|59=0|44=197.111|48=US3390411052|22=4|15=EUR|207=XETR|1=bram_123|10=106|
2024-01-05 09:48:54.522 [46] [FixSender] (DEBUG) Receiving 8=FIX.4.4|9=239|35=8|34=42|49=DMA_HUB|56=FIXCLIENT1|52=20240105-08:48:54.521|11=HS_17044445346|37=FXQiSVCwF|54=2|40=2|59=0|17=202401056|150=A|39=A|38=3266|151=3266|14=0|6=0|44=197.111|60=20240105-08:48:54.000|22=4|48=US3390411052|207=XETR|15=EUR|55=[N/A]|10=250|
2024-01-05 09:49:07.904 [46] [FixSender] (DEBUG) Receiving 8=FIX.4.4|9=61|35=0|34=43|49=DMA_HUB|56=FIXCLIENT1|52=20240105-08:49:07.904|10=247|
2024-01-05 09:49:24.519 [47] [FixSender] (DEBUG) Sending 8=FIX.4.4|9=57|35=0|49=FIXCLIENT1|56=DMA_HUB|34=37|52=20240105-08:49:24|10=051|
2024-01-05 09:49:37.871 [46] [FixSender] (DEBUG) Receiving 8=FIX.4.4|9=61|35=0|34=44|49=DMA_HUB|56=FIXCLIENT1|52=20240105-08:49:37.870|10=253|
2024-01-05 09:49:54.520 [47] [FixSender] (DEBUG) Sending 8=FIX.4.4|9=57|35=0|49=FIXCLIENT1|56=DMA_HUB|34=38|52=20240105-08:49:54|10=055|
2024-01-05 09:50:07.820 [46] [FixSender] (DEBUG) Receiving 8=FIX.4.4|9=61|35=0|34=45|49=DMA_HUB|56=FIXCLIENT1|52=20240105-08:50:07.819|10=246|
2024-01-05 09:50:24.521 [47] [FixSender] (DEBUG) Sending 8=FIX.4.4|9=57|35=0|49=FIXCLIENT1|56=DMA_HUB|34=39|52=20240105-08:50:24|10=045|
2024-01-05 09:50:37.767 [46] [FixSender] (DEBUG) Receiving 8=FIX.4.4|9=61|35=0|34=46|49=DMA_HUB|56=FIXCLIENT1|52=20240105-08:50:37.766|10=251|
2024-01-05 09:50:54.525 [47] [FixSender] (DEBUG) Sending 8=FIX.4.4|9=57|35=0|49=FIXCLIENT1|56=DMA_HUB|34=40|52=20240105-08:50:54|10=040|
2024-01-05 09:51:07.722 [46] [FixSender] (DEBUG) Receiving 8=FIX.4.4|9=61|35=0|34=47|49=DMA_HUB|56=FIXCLIENT1|52=20240105-08:51:07.721|10=241|
2024-01-05 09:51:24.527 [47] [FixSender] (DEBUG) Sending 8=FIX.4.4|9=57|35=0|49=FIXCLIENT1|56=DMA_HUB|34=41|52=20240105-08:51:24|10=039|
2024-01-05 09:51:37.663 [46] [FixSender] (DEBUG) Receiving 8=FIX.4.4|9=61|35=0|34=48|49=DMA_HUB|56=FIXCLIENT1|52=20240105-08:51:37.663|10=250|
2024-01-05 09:51:54.529 [47] [FixSender] (DEBUG) Sending 8=FIX.4.4|9=57|35=0|49=FIXCLIENT1|56=DMA_HUB|34=42|52=20240105-08:51:54|10=043|
2024-01-05 09:52:07.616 [46] [FixSender] (DEBUG) Receiving 8=FIX.4.4|9=61|35=0|34=49|49=DMA_HUB|56=FIXCLIENT1|52=20240105-08:52:07.615|10=246|
2024-01-05 09:52:24.532 [47] [FixSender] (DEBUG) Sending 8=FIX.4.4|9=57|35=0|49=FIXCLIENT1|56=DMA_HUB|34=43|52=20240105-08:52:24|10=042|
2024-01-05 09:52:37.569 [46] [FixSender] (DEBUG) Receiving 8=FIX.4.4|9=61|35=0|34=50|49=DMA_HUB|56=FIXCLIENT1|52=20240105-08:52:37.567|10=247|
2024-01-05 09:52:54.534 [47] [FixSender] (DEBUG) Sending 8=FIX.4.4|9=57|35=0|49=FIXCLIENT1|56=DMA_HUB|34=44|52=20240105-08:52:54|10=046|
2024-01-05 09:53:07.521 [46] [FixSender] (DEBUG) Receiving 8=FIX.4.4|9=61|35=0|34=51|49=DMA_HUB|56=FIXCLIENT1|52=20240105-08:53:07.520|10=235|
2024-01-05 09:53:24.536 [47] [FixSender] (DEBUG) Sending 8=FIX.4.4|9=57|35=0|49=FIXCLIENT1|56=DMA_HUB|34=45|52=20240105-08:53:24|10=045|
2024-01-05 09:53:37.472 [46] [FixSender] (DEBUG) Receiving 8=FIX.4.4|9=61|35=0|34=52|49=DMA_HUB|56=FIXCLIENT1|52=20240105-08:53:37.471|10=244|
2024-01-05 09:53:54.562 [47] [FixSender] (DEBUG) Sending 8=FIX.4.4|9=57|35=0|49=FIXCLIENT1|56=DMA_HUB|34=46|52=20240105-08:53:54|10=049|
2024-01-05 09:54:07.425 [46] [FixSender] (DEBUG) Receiving 8=FIX.4.4|9=61|35=0|34=53|49=DMA_HUB|56=FIXCLIENT1|52=20240105-08:54:07.424|10=241|
2024-01-05 09:54:24.564 [47] [FixSender] (DEBUG) Sending 8=FIX.4.4|9=57|35=0|49=FIXCLIENT1|56=DMA_HUB|34=47|52=20240105-08:54:24|10=048|
2024-01-05 09:54:37.375 [46] [FixSender] (DEBUG) Receiving 8=FIX.4.4|9=61|35=0|34=54|49=DMA_HUB|56=FIXCLIENT1|52=20240105-08:54:37.375|10=250|
2024-01-05 09:54:54.566 [47] [FixSender] (DEBUG) Sending 8=FIX.4.4|9=57|35=0|49=FIXCLIENT1|56=DMA_HUB|34=48|52=20240105-08:54:54|10=052|
2024-01-05 09:55:07.329 [46] [FixSender] (DEBUG) Receiving 8=FIX.4.4|9=61|35=0|34=55|49=DMA_HUB|56=FIXCLIENT1|52=20240105-08:55:07.329|10=248|
2024-01-05 09:55:24.570 [47] [FixSender] (DEBUG) Sending 8=FIX.4.4|9=57|35=0|49=FIXCLIENT1|56=DMA_HUB|34=49|52=20240105-08:55:24|10=051|
2024-01-05 09:55:37.280 [46] [FixSender] (DEBUG) Receiving 8=FIX.4.4|9=61|35=0|34=56|49=DMA_HUB|56=FIXCLIENT1|52=20240105-08:55:37.280|10=248|
2024-01-05 09:55:54.572 [47] [FixSender] (DEBUG) Sending 8=FIX.4.4|9=57|35=0|49=FIXCLIENT1|56=DMA_HUB|34=50|52=20240105-08:55:54|10=046|
2024-01-05 09:56:07.233 [46] [FixSender] (DEBUG) Receiving 8=FIX.4.4|9=61|35=0|34=57|49=DMA_HUB|56=FIXCLIENT1|52=20240105-08:56:07.232|10=244|
2024-01-05 09:56:24.576 [47] [FixSender] (DEBUG) Sending 8=FIX.4.4|9=57|35=0|49=FIXCLIENT1|56=DMA_HUB|34=51|52=20240105-08:56:24|10=045|
2024-01-05 09:56:37.185 [46] [FixSender] (DEBUG) Receiving 8=FIX.4.4|9=61|35=0|34=58|49=DMA_HUB|56=FIXCLIENT1|52=20240105-08:56:37.184|10=254|
2024-01-05 09:56:54.579 [47] [FixSender] (DEBUG) Sending 8=FIX.4.4|9=57|35=0|49=FIXCLIENT1|56=DMA_HUB|34=52|52=20240105-08:56:54|10=049|
2024-01-05 09:57:07.138 [46] [FixSender] (DEBUG) Receiving 8=FIX.4.4|9=61|35=0|34=59|49=DMA_HUB|56=FIXCLIENT1|52=20240105-08:57:07.137|10=251|
2024-01-05 09:57:24.586 [47] [FixSender] (DEBUG) Sending 8=FIX.4.4|9=57|35=0|49=FIXCLIENT1|56=DMA_HUB|34=53|52=20240105-08:57:24|10=048|
2024-01-05 09:57:37.102 [46] [FixSender] (DEBUG) Receiving 8=FIX.4.4|9=61|35=0|34=60|49=DMA_HUB|56=FIXCLIENT1|52=20240105-08:57:37.101|10=237|
2024-01-05 09:57:54.590 [47] [FixSender] (DEBUG) Sending 8=FIX.4.4|9=57|35=0|49=FIXCLIENT1|56=DMA_HUB|34=54|52=20240105-08:57:54|10=052|
2024-01-05 09:58:07.046 [46] [FixSender] (DEBUG) Receiving 8=FIX.4.4|9=61|35=0|34=61|49=DMA_HUB|56=FIXCLIENT1|52=20240105-08:58:07.046|10=244|
2024-01-05 09:58:24.598 [47] [FixSender] (DEBUG) Sending 8=FIX.4.4|9=57|35=0|49=FIXCLIENT1|56=DMA_HUB|34=55|52=20240105-08:58:24|10=051|
2024-01-05 09:58:37.003 [46] [FixSender] (DEBUG) Receiving 8=FIX.4.4|9=61|35=0|34=62|49=DMA_HUB|56=FIXCLIENT1|52=20240105-08:58:37.002|10=240|
2024-01-05 09:58:54.599 [47] [FixSender] (DEBUG) Sending 8=FIX.4.4|9=57|35=0|49=FIXCLIENT1|56=DMA_HUB|34=56|52=20240105-08:58:54|10=055|
2024-01-05 09:59:06.954 [46] [FixSender] (DEBUG) Receiving 8=FIX.4.4|9=61|35=0|34=63|49=DMA_HUB|56=FIXCLIENT1|52=20240105-08:59:06.953|10=253|
2024-01-05 09:59:24.601 [47] [FixSender] (DEBUG) Sending 8=FIX.4.4|9=57|35=0|49=FIXCLIENT1|56=DMA_HUB|34=57|52=20240105-08:59:24|10=054|
2024-01-05 09:59:36.898 [46] [FixSender] (DEBUG) Receiving 8=FIX.4.4|9=61|35=0|34=64|49=DMA_HUB|56=FIXCLIENT1|52=20240105-08:59:36.897|10=008|
2024-01-05 09:59:54.603 [47] [FixSender] (DEBUG) Sending 8=FIX.4.4|9=57|35=0|49=FIXCLIENT1|56=DMA_HUB|34=58|52=20240105-08:59:54|10=058|
2024-01-05 10:00:06.851 [46] [FixSender] (DEBUG) Receiving 8=FIX.4.4|9=61|35=0|34=65|49=DMA_HUB|56=FIXCLIENT1|52=20240105-09:00:06.850|10=238|
2024-01-05 10:00:24.604 [47] [FixSender] (DEBUG) Sending 8=FIX.4.4|9=57|35=0|49=FIXCLIENT1|56=DMA_HUB|34=59|52=20240105-09:00:24|10=043|
2024-01-05 10:00:36.808 [46] [FixSender] (DEBUG) Receiving 8=FIX.4.4|9=61|35=0|34=66|49=DMA_HUB|56=FIXCLIENT1|52=20240105-09:00:36.808|10=245|
2024-01-05 10:00:54.606 [47] [FixSender] (DEBUG) Sending 8=FIX.4.4|9=57|35=0|49=FIXCLIENT1|56=DMA_HUB|34=60|52=20240105-09:00:54|10=038|
2024-01-05 10:01:06.760 [46] [FixSender] (DEBUG) Receiving 8=FIX.4.4|9=61|35=0|34=67|49=DMA_HUB|56=FIXCLIENT1|52=20240105-09:01:06.760|10=241|
2024-01-05 10:01:24.608 [47] [FixSender] (DEBUG) Sending 8=FIX.4.4|9=57|35=0|49=FIXCLIENT1|56=DMA_HUB|34=61|52=20240105-09:01:24|10=037|
2024-01-05 10:01:36.706 [46] [FixSender] (DEBUG) Receiving 8=FIX.4.4|9=61|35=0|34=68|49=DMA_HUB|56=FIXCLIENT1|52=20240105-09:01:36.705|10=244|
2024-01-05 10:01:54.610 [47] [FixSender] (DEBUG) Sending 8=FIX.4.4|9=57|35=0|49=FIXCLIENT1|56=DMA_HUB|34=62|52=20240105-09:01:54|10=041|
2024-01-05 10:02:06.680 [46] [FixSender] (DEBUG) Receiving 8=FIX.4.4|9=61|35=0|34=69|49=DMA_HUB|56=FIXCLIENT1|52=20240105-09:02:06.661|10=244|
2024-01-05 10:02:24.611 [47] [FixSender] (DEBUG) Sending 8=FIX.4.4|9=57|35=0|49=FIXCLIENT1|56=DMA_HUB|34=63|52=20240105-09:02:24|10=040|
2024-01-05 10:02:36.610 [46] [FixSender] (DEBUG) Receiving 8=FIX.4.4|9=61|35=0|34=70|49=DMA_HUB|56=FIXCLIENT1|52=20240105-09:02:36.609|10=241|
2024-01-05 10:02:54.614 [47] [FixSender] (DEBUG) Sending 8=FIX.4.4|9=57|35=0|49=FIXCLIENT1|56=DMA_HUB|34=64|52=20240105-09:02:54|10=044|
2024-01-05 10:03:06.569 [46] [FixSender] (DEBUG) Receiving 8=FIX.4.4|9=61|35=0|34=71|49=DMA_HUB|56=FIXCLIENT1|52=20240105-09:03:06.569|10=245|
2024-01-05 10:03:24.624 [47] [FixSender] (DEBUG) Sending 8=FIX.4.4|9=57|35=0|49=FIXCLIENT1|56=DMA_HUB|34=65|52=20240105-09:03:24|10=043|
2024-01-05 10:03:36.515 [46] [FixSender] (DEBUG) Receiving 8=FIX.4.4|9=61|35=0|34=72|49=DMA_HUB|56=FIXCLIENT1|52=20240105-09:03:36.514|10=239|
2024-01-05 10:03:54.627 [47] [FixSender] (DEBUG) Sending 8=FIX.4.4|9=57|35=0|49=FIXCLIENT1|56=DMA_HUB|34=66|52=20240105-09:03:54|10=047|
2024-01-05 10:04:06.468 [46] [FixSender] (DEBUG) Receiving 8=FIX.4.4|9=61|35=0|34=73|49=DMA_HUB|56=FIXCLIENT1|52=20240105-09:04:06.467|10=245|
2024-01-05 10:04:24.628 [47] [FixSender] (DEBUG) Sending 8=FIX.4.4|9=57|35=0|49=FIXCLIENT1|56=DMA_HUB|34=67|52=20240105-09:04:24|10=046|
2024-01-05 10:04:36.424 [46] [FixSender] (DEBUG) Receiving 8=FIX.4.4|9=61|35=0|34=74|49=DMA_HUB|56=FIXCLIENT1|52=20240105-09:04:36.423|10=241|
2024-01-05 10:04:54.630 [47] [FixSender] (DEBUG) Sending 8=FIX.4.4|9=57|35=0|49=FIXCLIENT1|56=DMA_HUB|34=68|52=20240105-09:04:54|10=050|
2024-01-05 10:05:06.376 [46] [FixSender] (DEBUG) Receiving 8=FIX.4.4|9=61|35=0|34=75|49=DMA_HUB|56=FIXCLIENT1|52=20240105-09:05:06.374|10=245|
2024-01-05 10:05:24.633 [47] [FixSender] (DEBUG) Sending 8=FIX.4.4|9=57|35=0|49=FIXCLIENT1|56=DMA_HUB|34=69|52=20240105-09:05:24|10=049|
2024-01-05 10:05:36.322 [46] [FixSender] (DEBUG) Receiving 8=FIX.4.4|9=61|35=0|34=76|49=DMA_HUB|56=FIXCLIENT1|52=20240105-09:05:36.321|10=241|
2024-01-05 10:05:54.635 [47] [FixSender] (DEBUG) Sending 8=FIX.4.4|9=57|35=0|49=FIXCLIENT1|56=DMA_HUB|34=70|52=20240105-09:05:54|10=044|
2024-01-05 10:06:06.274 [46] [FixSender] (DEBUG) Receiving 8=FIX.4.4|9=61|35=0|34=77|49=DMA_HUB|56=FIXCLIENT1|52=20240105-09:06:06.274|10=247|
2024-01-05 10:06:24.637 [47] [FixSender] (DEBUG) Sending 8=FIX.4.4|9=57|35=0|49=FIXCLIENT1|56=DMA_HUB|34=71|52=20240105-09:06:24|10=043|
2024-01-05 10:06:36.238 [46] [FixSender] (DEBUG) Receiving 8=FIX.4.4|9=61|35=0|34=78|49=DMA_HUB|56=FIXCLIENT1|52=20240105-09:06:36.237|10=250|
2024-01-05 10:06:54.637 [47] [FixSender] (DEBUG) Sending 8=FIX.4.4|9=57|35=0|49=FIXCLIENT1|56=DMA_HUB|34=72|52=20240105-09:06:54|10=047|
2024-01-05 10:07:06.186 [46] [FixSender] (DEBUG) Receiving 8=FIX.4.4|9=61|35=0|34=79|49=DMA_HUB|56=FIXCLIENT1|52=20240105-09:07:06.185|10=251|
2024-01-05 10:07:24.639 [47] [FixSender] (DEBUG) Sending 8=FIX.4.4|9=57|35=0|49=FIXCLIENT1|56=DMA_HUB|34=73|52=20240105-09:07:24|10=046|
2024-01-05 10:07:36.138 [46] [FixSender] (DEBUG) Receiving 8=FIX.4.4|9=61|35=0|34=80|49=DMA_HUB|56=FIXCLIENT1|52=20240105-09:07:36.138|10=244|
2024-01-05 10:07:54.642 [47] [FixSender] (DEBUG) Sending 8=FIX.4.4|9=57|35=0|49=FIXCLIENT1|56=DMA_HUB|34=74|52=20240105-09:07:54|10=050|
2024-01-05 10:08:06.091 [46] [FixSender] (DEBUG) Receiving 8=FIX.4.4|9=61|35=0|34=81|49=DMA_HUB|56=FIXCLIENT1|52=20240105-09:08:06.091|10=241|
2024-01-05 10:08:24.643 [47] [FixSender] (DEBUG) Sending 8=FIX.4.4|9=57|35=0|49=FIXCLIENT1|56=DMA_HUB|34=75|52=20240105-09:08:24|10=049|
2024-01-05 10:08:36.036 [46] [FixSender] (DEBUG) Receiving 8=FIX.4.4|9=61|35=0|34=82|49=DMA_HUB|56=FIXCLIENT1|52=20240105-09:08:36.036|10=244|
2024-01-05 10:08:54.644 [47] [FixSender] (DEBUG) Sending 8=FIX.4.4|9=57|35=0|49=FIXCLIENT1|56=DMA_HUB|34=76|52=20240105-09:08:54|10=053|
2024-01-05 10:09:05.993 [46] [FixSender] (DEBUG) Receiving 8=FIX.4.4|9=61|35=0|34=83|49=DMA_HUB|56=FIXCLIENT1|52=20240105-09:09:05.993|10=254|
2024-01-05 10:09:24.646 [47] [FixSender] (DEBUG) Sending 8=FIX.4.4|9=57|35=0|49=FIXCLIENT1|56=DMA_HUB|34=77|52=20240105-09:09:24|10=052|
2024-01-05 10:09:35.946 [46] [FixSender] (DEBUG) Receiving 8=FIX.4.4|9=61|35=0|34=84|49=DMA_HUB|56=FIXCLIENT1|52=20240105-09:09:35.946|10=000|
2024-01-05 10:09:54.647 [47] [FixSender] (DEBUG) Sending 8=FIX.4.4|9=57|35=0|49=FIXCLIENT1|56=DMA_HUB|34=78|52=20240105-09:09:54|10=056|
2024-01-05 10:10:05.901 [46] [FixSender] (DEBUG) Receiving 8=FIX.4.4|9=61|35=0|34=85|49=DMA_HUB|56=FIXCLIENT1|52=20240105-09:10:05.901|10=237|
2024-01-05 10:10:24.649 [47] [FixSender] (DEBUG) Sending 8=FIX.4.4|9=57|35=0|49=FIXCLIENT1|56=DMA_HUB|34=79|52=20240105-09:10:24|10=046|
2024-01-05 10:10:35.846 [46] [FixSender] (DEBUG) Receiving 8=FIX.4.4|9=61|35=0|34=86|49=DMA_HUB|56=FIXCLIENT1|52=20240105-09:10:35.846|10=249|
2024-01-05 10:10:54.649 [47] [FixSender] (DEBUG) Sending 8=FIX.4.4|9=57|35=0|49=FIXCLIENT1|56=DMA_HUB|34=80|52=20240105-09:10:54|10=041|
2024-01-05 10:11:05.804 [46] [FixSender] (DEBUG) Receiving 8=FIX.4.4|9=61|35=0|34=87|49=DMA_HUB|56=FIXCLIENT1|52=20240105-09:11:05.804|10=242|
2024-01-05 10:11:24.653 [47] [FixSender] (DEBUG) Sending 8=FIX.4.4|9=57|35=0|49=FIXCLIENT1|56=DMA_HUB|34=81|52=20240105-09:11:24|10=040|
2024-01-05 10:11:35.758 [46] [FixSender] (DEBUG) Receiving 8=FIX.4.4|9=61|35=0|34=88|49=DMA_HUB|56=FIXCLIENT1|52=20240105-09:11:35.758|10=254|
2024-01-05 10:11:54.654 [47] [FixSender] (DEBUG) Sending 8=FIX.4.4|9=57|35=0|49=FIXCLIENT1|56=DMA_HUB|34=82|52=20240105-09:11:54|10=044|
2024-01-05 10:12:05.699 [46] [FixSender] (DEBUG) Receiving 8=FIX.4.4|9=61|35=0|34=89|49=DMA_HUB|56=FIXCLIENT1|52=20240105-09:12:05.698|10=000|
2024-01-05 10:12:24.657 [47] [FixSender] (DEBUG) Sending 8=FIX.4.4|9=57|35=0|49=FIXCLIENT1|56=DMA_HUB|34=83|52=20240105-09:12:24|10=043|
2024-01-05 10:12:35.657 [46] [FixSender] (DEBUG) Receiving 8=FIX.4.4|9=61|35=0|34=90|49=DMA_HUB|56=FIXCLIENT1|52=20240105-09:12:35.657|10=246|
2024-01-05 10:12:54.671 [47] [FixSender] (DEBUG) Sending 8=FIX.4.4|9=57|35=0|49=FIXCLIENT1|56=DMA_HUB|34=84|52=20240105-09:12:54|10=047|
2024-01-05 10:13:05.612 [46] [FixSender] (DEBUG) Receiving 8=FIX.4.4|9=61|35=0|34=91|49=DMA_HUB|56=FIXCLIENT1|52=20240105-09:13:05.611|10=235|
2024-01-05 10:13:24.676 [47] [FixSender] (DEBUG) Sending 8=FIX.4.4|9=57|35=0|49=FIXCLIENT1|56=DMA_HUB|34=85|52=20240105-09:13:24|10=046|
2024-01-05 10:13:35.565 [46] [FixSender] (DEBUG) Receiving 8=FIX.4.4|9=61|35=0|34=92|49=DMA_HUB|56=FIXCLIENT1|52=20240105-09:13:35.565|10=247|
2024-01-05 10:13:54.678 [47] [FixSender] (DEBUG) Sending 8=FIX.4.4|9=57|35=0|49=FIXCLIENT1|56=DMA_HUB|34=86|52=20240105-09:13:54|10=050|
2024-01-05 10:14:05.519 [46] [FixSender] (DEBUG) Receiving 8=FIX.4.4|9=61|35=0|34=93|49=DMA_HUB|56=FIXCLIENT1|52=20240105-09:14:05.518|10=244|
2024-01-05 10:14:24.681 [47] [FixSender] (DEBUG) Sending 8=FIX.4.4|9=57|35=0|49=FIXCLIENT1|56=DMA_HUB|34=87|52=20240105-09:14:24|10=049|
2024-01-05 10:14:35.471 [46] [FixSender] (DEBUG) Receiving 8=FIX.4.4|9=61|35=0|34=94|49=DMA_HUB|56=FIXCLIENT1|52=20240105-09:14:35.470|10=245|
2024-01-05 10:14:54.682 [47] [FixSender] (DEBUG) Sending 8=FIX.4.4|9=57|35=0|49=FIXCLIENT1|56=DMA_HUB|34=88|52=20240105-09:14:54|10=053|
2024-01-05 10:15:05.411 [46] [FixSender] (DEBUG) Receiving 8=FIX.4.4|9=61|35=0|34=95|49=DMA_HUB|56=FIXCLIENT1|52=20240105-09:15:05.410|10=238|
2024-01-05 10:15:24.689 [47] [FixSender] (DEBUG) Sending 8=FIX.4.4|9=57|35=0|49=FIXCLIENT1|56=DMA_HUB|34=89|52=20240105-09:15:24|10=052|
2024-01-05 10:15:35.365 [46] [FixSender] (DEBUG) Receiving 8=FIX.4.4|9=61|35=0|34=96|49=DMA_HUB|56=FIXCLIENT1|52=20240105-09:15:35.364|10=250|
2024-01-05 10:15:54.690 [47] [FixSender] (DEBUG) Sending 8=FIX.4.4|9=57|35=0|49=FIXCLIENT1|56=DMA_HUB|34=90|52=20240105-09:15:54|10=047|
2024-01-05 10:16:05.321 [46] [FixSender] (DEBUG) Receiving 8=FIX.4.4|9=61|35=0|34=97|49=DMA_HUB|56=FIXCLIENT1|52=20240105-09:16:05.321|10=242|
2024-01-05 10:16:24.693 [47] [FixSender] (DEBUG) Sending 8=FIX.4.4|9=57|35=0|49=FIXCLIENT1|56=DMA_HUB|34=91|52=20240105-09:16:24|10=046|
2024-01-05 10:16:35.275 [46] [FixSender] (DEBUG) Receiving 8=FIX.4.4|9=61|35=0|34=98|49=DMA_HUB|56=FIXCLIENT1|52=20240105-09:16:35.274|10=253|
2024-01-05 10:16:54.694 [47] [FixSender] (DEBUG) Sending 8=FIX.4.4|9=57|35=0|49=FIXCLIENT1|56=DMA_HUB|34=92|52=20240105-09:16:54|10=050|
2024-01-05 10:17:05.216 [46] [FixSender] (DEBUG) Receiving 8=FIX.4.4|9=61|35=0|34=99|49=DMA_HUB|56=FIXCLIENT1|52=20240105-09:17:05.215|10=247|
2024-01-05 10:17:24.695 [47] [FixSender] (DEBUG) Sending 8=FIX.4.4|9=57|35=0|49=FIXCLIENT1|56=DMA_HUB|34=93|52=20240105-09:17:24|10=049|
2024-01-05 10:17:35.183 [46] [FixSender] (DEBUG) Receiving 8=FIX.4.4|9=62|35=0|34=100|49=DMA_HUB|56=FIXCLIENT1|52=20240105-09:17:35.182|10=029|
2024-01-05 10:17:54.699 [47] [FixSender] (DEBUG) Sending 8=FIX.4.4|9=57|35=0|49=FIXCLIENT1|56=DMA_HUB|34=94|52=20240105-09:17:54|10=053|
2024-01-05 10:18:05.120 [46] [FixSender] (DEBUG) Receiving 8=FIX.4.4|9=62|35=0|34=101|49=DMA_HUB|56=FIXCLIENT1|52=20240105-09:18:05.120|10=020|
2024-01-05 10:18:24.700 [47] [FixSender] (DEBUG) Sending 8=FIX.4.4|9=57|35=0|49=FIXCLIENT1|56=DMA_HUB|34=95|52=20240105-09:18:24|10=052|
2024-01-05 10:18:35.072 [46] [FixSender] (DEBUG) Receiving 8=FIX.4.4|9=62|35=0|34=102|49=DMA_HUB|56=FIXCLIENT1|52=20240105-09:18:35.072|10=030|
2024-01-05 10:18:54.701 [47] [FixSender] (DEBUG) Sending 8=FIX.4.4|9=57|35=0|49=FIXCLIENT1|56=DMA_HUB|34=96|52=20240105-09:18:54|10=056|
2024-01-05 10:19:05.035 [46] [FixSender] (DEBUG) Receiving 8=FIX.4.4|9=62|35=0|34=103|49=DMA_HUB|56=FIXCLIENT1|52=20240105-09:19:05.035|10=028|
2024-01-05 10:19:24.703 [47] [FixSender] (DEBUG) Sending 8=FIX.4.4|9=57|35=0|49=FIXCLIENT1|56=DMA_HUB|34=97|52=20240105-09:19:24|10=055|
2024-01-05 10:19:34.986 [46] [FixSender] (DEBUG) Receiving 8=FIX.4.4|9=62|35=0|34=104|49=DMA_HUB|56=FIXCLIENT1|52=20240105-09:19:34.985|10=045|
2024-01-05 10:19:54.704 [47] [FixSender] (DEBUG) Sending 8=FIX.4.4|9=57|35=0|49=FIXCLIENT1|56=DMA_HUB|34=98|52=20240105-09:19:54|10=059|
2024-01-05 10:20:04.943 [46] [FixSender] (DEBUG) Receiving 8=FIX.4.4|9=62|35=0|34=105|49=DMA_HUB|56=FIXCLIENT1|52=20240105-09:20:04.943|10=029|
2024-01-05 10:20:24.706 [47] [FixSender] (DEBUG) Sending 8=FIX.4.4|9=57|35=0|49=FIXCLIENT1|56=DMA_HUB|34=99|52=20240105-09:20:24|10=049|
2024-01-05 10:20:34.946 [46] [FixSender] (DEBUG) Receiving 8=FIX.4.4|9=62|35=0|34=106|49=DMA_HUB|56=FIXCLIENT1|52=20240105-09:20:34.945|10=035|
2024-01-05 10:20:54.706 [47] [FixSender] (DEBUG) Sending 8=FIX.4.4|9=58|35=0|49=FIXCLIENT1|56=DMA_HUB|34=100|52=20240105-09:20:54|10=084|
2024-01-05 10:21:04.907 [46] [FixSender] (DEBUG) Receiving 8=FIX.4.4|9=62|35=0|34=107|49=DMA_HUB|56=FIXCLIENT1|52=20240105-09:21:04.906|10=031|
2024-01-05 10:21:24.708 [47] [FixSender] (DEBUG) Sending 8=FIX.4.4|9=58|35=0|49=FIXCLIENT1|56=DMA_HUB|34=101|52=20240105-09:21:24|10=083|
2024-01-05 10:21:34.849 [46] [FixSender] (DEBUG) Receiving 8=FIX.4.4|9=62|35=0|34=108|49=DMA_HUB|56=FIXCLIENT1|52=20240105-09:21:34.849|10=041|
2024-01-05 10:21:54.720 [47] [FixSender] (DEBUG) Sending 8=FIX.4.4|9=58|35=0|49=FIXCLIENT1|56=DMA_HUB|34=102|52=20240105-09:21:54|10=087|
2024-01-05 10:22:04.800 [46] [FixSender] (DEBUG) Receiving 8=FIX.4.4|9=62|35=0|34=109|49=DMA_HUB|56=FIXCLIENT1|52=20240105-09:22:04.800|10=027|
2024-01-05 10:22:24.722 [47] [FixSender] (DEBUG) Sending 8=FIX.4.4|9=58|35=0|49=FIXCLIENT1|56=DMA_HUB|34=103|52=20240105-09:22:24|10=086|
2024-01-05 10:22:34.761 [46] [FixSender] (DEBUG) Receiving 8=FIX.4.4|9=62|35=0|34=110|49=DMA_HUB|56=FIXCLIENT1|52=20240105-09:22:34.761|10=028|
2024-01-05 10:22:54.727 [47] [FixSender] (DEBUG) Sending 8=FIX.4.4|9=58|35=0|49=FIXCLIENT1|56=DMA_HUB|34=104|52=20240105-09:22:54|10=090|
2024-01-05 10:23:04.710 [46] [FixSender] (DEBUG) Receiving 8=FIX.4.4|9=62|35=0|34=111|49=DMA_HUB|56=FIXCLIENT1|52=20240105-09:23:04.710|10=021|
2024-01-05 10:23:24.727 [47] [FixSender] (DEBUG) Sending 8=FIX.4.4|9=58|35=0|49=FIXCLIENT1|56=DMA_HUB|34=105|52=20240105-09:23:24|10=089|
2024-01-05 10:23:34.666 [46] [FixSender] (DEBUG) Receiving 8=FIX.4.4|9=62|35=0|34=112|49=DMA_HUB|56=FIXCLIENT1|52=20240105-09:23:34.665|10=034|
2024-01-05 10:23:54.729 [47] [FixSender] (DEBUG) Sending 8=FIX.4.4|9=58|35=0|49=FIXCLIENT1|56=DMA_HUB|34=106|52=20240105-09:23:54|10=093|
2024-01-05 10:24:04.607 [46] [FixSender] (DEBUG) Receiving 8=FIX.4.4|9=62|35=0|34=113|49=DMA_HUB|56=FIXCLIENT1|52=20240105-09:24:04.607|10=029|
2024-01-05 10:24:24.730 [47] [FixSender] (DEBUG) Sending 8=FIX.4.4|9=58|35=0|49=FIXCLIENT1|56=DMA_HUB|34=107|52=20240105-09:24:24|10=092|
2024-01-05 10:24:34.565 [46] [FixSender] (DEBUG) Receiving 8=FIX.4.4|9=62|35=0|34=114|49=DMA_HUB|56=FIXCLIENT1|52=20240105-09:24:34.565|10=036|
2024-01-05 10:24:54.743 [47] [FixSender] (DEBUG) Sending 8=FIX.4.4|9=58|35=0|49=FIXCLIENT1|56=DMA_HUB|34=108|52=20240105-09:24:54|10=096|
2024-01-05 10:25:04.525 [46] [FixSender] (DEBUG) Receiving 8=FIX.4.4|9=62|35=0|34=115|49=DMA_HUB|56=FIXCLIENT1|52=20240105-09:25:04.525|10=031|
2024-01-05 10:25:24.745 [47] [FixSender] (DEBUG) Sending 8=FIX.4.4|9=58|35=0|49=FIXCLIENT1|56=DMA_HUB|34=109|52=20240105-09:25:24|10=095|
2024-01-05 10:25:34.469 [46] [FixSender] (DEBUG) Receiving 8=FIX.4.4|9=62|35=0|34=116|49=DMA_HUB|56=FIXCLIENT1|52=20240105-09:25:34.467|10=040|
2024-01-05 10:25:54.766 [47] [FixSender] (DEBUG) Sending 8=FIX.4.4|9=58|35=0|49=FIXCLIENT1|56=DMA_HUB|34=110|52=20240105-09:25:54|10=090|
2024-01-05 10:26:04.422 [46] [FixSender] (DEBUG) Receiving 8=FIX.4.4|9=62|35=0|34=117|49=DMA_HUB|56=FIXCLIENT1|52=20240105-09:26:04.422|10=030|
2024-01-05 10:26:24.768 [47] [FixSender] (DEBUG) Sending 8=FIX.4.4|9=58|35=0|49=FIXCLIENT1|56=DMA_HUB|34=111|52=20240105-09:26:24|10=089|
2024-01-05 10:26:34.371 [46] [FixSender] (DEBUG) Receiving 8=FIX.4.4|9=62|35=0|34=118|49=DMA_HUB|56=FIXCLIENT1|52=20240105-09:26:34.371|10=037|
2024-01-05 10:26:54.769 [47] [FixSender] (DEBUG) Sending 8=FIX.4.4|9=58|35=0|49=FIXCLIENT1|56=DMA_HUB|34=112|52=20240105-09:26:54|10=093|
2024-01-05 10:27:04.332 [46] [FixSender] (DEBUG) Receiving 8=FIX.4.4|9=62|35=0|34=119|49=DMA_HUB|56=FIXCLIENT1|52=20240105-09:27:04.331|10=032|
2024-01-05 10:27:24.770 [47] [FixSender] (DEBUG) Sending 8=FIX.4.4|9=58|35=0|49=FIXCLIENT1|56=DMA_HUB|34=113|52=20240105-09:27:24|10=092|
2024-01-05 10:27:34.275 [46] [FixSender] (DEBUG) Receiving 8=FIX.4.4|9=62|35=0|34=120|49=DMA_HUB|56=FIXCLIENT1|52=20240105-09:27:34.274|10=033|
2024-01-05 10:27:54.772 [47] [FixSender] (DEBUG) Sending 8=FIX.4.4|9=58|35=0|49=FIXCLIENT1|56=DMA_HUB|34=114|52=20240105-09:27:54|10=096|
2024-01-05 10:28:04.225 [46] [FixSender] (DEBUG) Receiving 8=FIX.4.4|9=62|35=0|34=121|49=DMA_HUB|56=FIXCLIENT1|52=20240105-09:28:04.224|10=027|
2024-01-05 10:28:24.775 [47] [FixSender] (DEBUG) Sending 8=FIX.4.4|9=58|35=0|49=FIXCLIENT1|56=DMA_HUB|34=115|52=20240105-09:28:24|10=095|
2024-01-05 10:28:34.184 [46] [FixSender] (DEBUG) Receiving 8=FIX.4.4|9=62|35=0|34=122|49=DMA_HUB|56=FIXCLIENT1|52=20240105-09:28:34.183|10=035|
2024-01-05 10:28:54.778 [47] [FixSender] (DEBUG) Sending 8=FIX.4.4|9=58|35=0|49=FIXCLIENT1|56=DMA_HUB|34=116|52=20240105-09:28:54|10=099|
2024-01-05 10:29:04.132 [46] [FixSender] (DEBUG) Receiving 8=FIX.4.4|9=62|35=0|34=123|49=DMA_HUB|56=FIXCLIENT1|52=20240105-09:29:04.132|10=028|
2024-01-05 10:29:24.781 [47] [FixSender] (DEBUG) Sending 8=FIX.4.4|9=58|35=0|49=FIXCLIENT1|56=DMA_HUB|34=117|52=20240105-09:29:24|10=098|
2024-01-05 10:29:34.093 [46] [FixSender] (DEBUG) Receiving 8=FIX.4.4|9=62|35=0|34=124|49=DMA_HUB|56=FIXCLIENT1|52=20240105-09:29:34.092|10=037|
2024-01-05 10:29:54.785 [47] [FixSender] (DEBUG) Sending 8=FIX.4.4|9=58|35=0|49=FIXCLIENT1|56=DMA_HUB|34=118|52=20240105-09:29:54|10=102|
2024-01-05 10:30:04.038 [46] [FixSender] (DEBUG) Receiving 8=FIX.4.4|9=62|35=0|34=125|49=DMA_HUB|56=FIXCLIENT1|52=20240105-09:30:04.037|10=026|
2024-01-05 10:30:24.797 [47] [FixSender] (DEBUG) Sending 8=FIX.4.4|9=58|35=0|49=FIXCLIENT1|56=DMA_HUB|34=119|52=20240105-09:30:24|10=092|
2024-01-05 10:30:33.989 [46] [FixSender] (DEBUG) Receiving 8=FIX.4.4|9=62|35=0|34=126|49=DMA_HUB|56=FIXCLIENT1|52=20240105-09:30:33.989|10=045|
2024-01-05 10:30:54.799 [47] [FixSender] (DEBUG) Sending 8=FIX.4.4|9=58|35=0|49=FIXCLIENT1|56=DMA_HUB|34=120|52=20240105-09:30:54|10=087|
2024-01-05 10:31:03.944 [46] [FixSender] (DEBUG) Receiving 8=FIX.4.4|9=62|35=0|34=127|49=DMA_HUB|56=FIXCLIENT1|52=20240105-09:31:03.944|10=035|
2024-01-05 10:31:24.802 [47] [FixSender] (DEBUG) Sending 8=FIX.4.4|9=58|35=0|49=FIXCLIENT1|56=DMA_HUB|34=121|52=20240105-09:31:24|10=086|
2024-01-05 10:31:33.894 [46] [FixSender] (DEBUG) Receiving 8=FIX.4.4|9=62|35=0|34=128|49=DMA_HUB|56=FIXCLIENT1|52=20240105-09:31:33.894|10=043|
2024-01-05 10:31:54.805 [47] [FixSender] (DEBUG) Sending 8=FIX.4.4|9=58|35=0|49=FIXCLIENT1|56=DMA_HUB|34=122|52=20240105-09:31:54|10=090|
2024-01-05 10:32:03.851 [46] [FixSender] (DEBUG) Receiving 8=FIX.4.4|9=62|35=0|34=129|49=DMA_HUB|56=FIXCLIENT1|52=20240105-09:32:03.850|10=034|
2024-01-05 10:32:24.806 [47] [FixSender] (DEBUG) Sending 8=FIX.4.4|9=58|35=0|49=FIXCLIENT1|56=DMA_HUB|34=123|52=20240105-09:32:24|10=089|
2024-01-05 10:32:33.794 [46] [FixSender] (DEBUG) Receiving 8=FIX.4.4|9=62|35=0|34=130|49=DMA_HUB|56=FIXCLIENT1|52=20240105-09:32:33.794|10=036|
2024-01-05 10:32:54.811 [47] [FixSender] (DEBUG) Sending 8=FIX.4.4|9=58|35=0|49=FIXCLIENT1|56=DMA_HUB|34=124|52=20240105-09:32:54|10=093|
2024-01-05 10:33:03.750 [46] [FixSender] (DEBUG) Receiving 8=FIX.4.4|9=62|35=0|34=131|49=DMA_HUB|56=FIXCLIENT1|52=20240105-09:33:03.749|10=035|
2024-01-05 10:33:24.812 [47] [FixSender] (DEBUG) Sending 8=FIX.4.4|9=58|35=0|49=FIXCLIENT1|56=DMA_HUB|34=125|52=20240105-09:33:24|10=092|
2024-01-05 10:33:33.700 [46] [FixSender] (DEBUG) Receiving 8=FIX.4.4|9=62|35=0|34=132|49=DMA_HUB|56=FIXCLIENT1|52=20240105-09:33:33.700|10=026|
2024-01-05 10:33:54.814 [47] [FixSender] (DEBUG) Sending 8=FIX.4.4|9=58|35=0|49=FIXCLIENT1|56=DMA_HUB|34=126|52=20240105-09:33:54|10=096|
2024-01-05 10:34:03.660 [46] [FixSender] (DEBUG) Receiving 8=FIX.4.4|9=62|35=0|34=133|49=DMA_HUB|56=FIXCLIENT1|52=20240105-09:34:03.660|10=030|
2024-01-05 10:34:24.816 [47] [FixSender] (DEBUG) Sending 8=FIX.4.4|9=58|35=0|49=FIXCLIENT1|56=DMA_HUB|34=127|52=20240105-09:34:24|10=095|
2024-01-05 10:34:33.604 [46] [FixSender] (DEBUG) Receiving 8=FIX.4.4|9=62|35=0|34=134|49=DMA_HUB|56=FIXCLIENT1|52=20240105-09:34:33.603|10=031|
2024-01-05 10:34:54.817 [47] [FixSender] (DEBUG) Sending 8=FIX.4.4|9=58|35=0|49=FIXCLIENT1|56=DMA_HUB|34=128|52=20240105-09:34:54|10=099|
2024-01-05 10:35:03.566 [46] [FixSender] (DEBUG) Receiving 8=FIX.4.4|9=62|35=0|34=135|49=DMA_HUB|56=FIXCLIENT1|52=20240105-09:35:03.564|10=036|
2024-01-05 10:35:24.820 [47] [FixSender] (DEBUG) Sending 8=FIX.4.4|9=58|35=0|49=FIXCLIENT1|56=DMA_HUB|34=129|52=20240105-09:35:24|10=098|
2024-01-05 10:35:33.514 [46] [FixSender] (DEBUG) Receiving 8=FIX.4.4|9=62|35=0|34=136|49=DMA_HUB|56=FIXCLIENT1|52=20240105-09:35:33.514|10=035|
2024-01-05 10:35:54.821 [47] [FixSender] (DEBUG) Sending 8=FIX.4.4|9=58|35=0|49=FIXCLIENT1|56=DMA_HUB|34=130|52=20240105-09:35:54|10=093|
2024-01-05 10:36:03.465 [46] [FixSender] (DEBUG) Receiving 8=FIX.4.4|9=62|35=0|34=137|49=DMA_HUB|56=FIXCLIENT1|52=20240105-09:36:03.464|10=038|
2024-01-05 10:36:24.824 [47] [FixSender] (DEBUG) Sending 8=FIX.4.4|9=58|35=0|49=FIXCLIENT1|56=DMA_HUB|34=131|52=20240105-09:36:24|10=092|
2024-01-05 10:36:33.423 [46] [FixSender] (DEBUG) Receiving 8=FIX.4.4|9=62|35=0|34=138|49=DMA_HUB|56=FIXCLIENT1|52=20240105-09:36:33.422|10=036|
2024-01-05 10:36:54.839 [47] [FixSender] (DEBUG) Sending 8=FIX.4.4|9=58|35=0|49=FIXCLIENT1|56=DMA_HUB|34=132|52=20240105-09:36:54|10=096|
2024-01-05 10:37:03.367 [46] [FixSender] (DEBUG) Receiving 8=FIX.4.4|9=62|35=0|34=139|49=DMA_HUB|56=FIXCLIENT1|52=20240105-09:37:03.367|10=043|
2024-01-05 10:37:24.841 [47] [FixSender] (DEBUG) Sending 8=FIX.4.4|9=58|35=0|49=FIXCLIENT1|56=DMA_HUB|34=133|52=20240105-09:37:24|10=095|
2024-01-05 10:37:33.315 [46] [FixSender] (DEBUG) Receiving 8=FIX.4.4|9=62|35=0|34=140|49=DMA_HUB|56=FIXCLIENT1|52=20240105-09:37:33.315|10=031|
2024-01-05 10:37:54.842 [47] [FixSender] (DEBUG) Sending 8=FIX.4.4|9=58|35=0|49=FIXCLIENT1|56=DMA_HUB|34=134|52=20240105-09:37:54|10=099|
2024-01-05 10:38:03.279 [46] [FixSender] (DEBUG) Receiving 8=FIX.4.4|9=62|35=0|34=141|49=DMA_HUB|56=FIXCLIENT1|52=20240105-09:38:03.278|10=038|
2024-01-05 10:38:24.843 [47] [FixSender] (DEBUG) Sending 8=FIX.4.4|9=58|35=0|49=FIXCLIENT1|56=DMA_HUB|34=135|52=20240105-09:38:24|10=098|
2024-01-05 10:38:33.219 [46] [FixSender] (DEBUG) Receiving 8=FIX.4.4|9=62|35=0|34=142|49=DMA_HUB|56=FIXCLIENT1|52=20240105-09:38:33.219|10=037|
2024-01-05 10:38:54.845 [47] [FixSender] (DEBUG) Sending 8=FIX.4.4|9=58|35=0|49=FIXCLIENT1|56=DMA_HUB|34=136|52=20240105-09:38:54|10=102|
2024-01-05 10:39:03.176 [46] [FixSender] (DEBUG) Receiving 8=FIX.4.4|9=62|35=0|34=143|49=DMA_HUB|56=FIXCLIENT1|52=20240105-09:39:03.176|10=038|
2024-01-05 10:39:24.848 [47] [FixSender] (DEBUG) Sending 8=FIX.4.4|9=58|35=0|49=FIXCLIENT1|56=DMA_HUB|34=137|52=20240105-09:39:24|10=101|
2024-01-05 10:39:33.131 [46] [FixSender] (DEBUG) Receiving 8=FIX.4.4|9=62|35=0|34=144|49=DMA_HUB|56=FIXCLIENT1|52=20240105-09:39:33.131|10=033|
2024-01-05 10:39:54.849 [47] [FixSender] (DEBUG) Sending 8=FIX.4.4|9=58|35=0|49=FIXCLIENT1|56=DMA_HUB|34=138|52=20240105-09:39:54|10=105|
2024-01-05 10:40:03.079 [46] [FixSender] (DEBUG) Receiving 8=FIX.4.4|9=62|35=0|34=145|49=DMA_HUB|56=FIXCLIENT1|52=20240105-09:40:03.078|10=033|
2024-01-05 10:40:24.851 [47] [FixSender] (DEBUG) Sending 8=FIX.4.4|9=58|35=0|49=FIXCLIENT1|56=DMA_HUB|34=139|52=20240105-09:40:24|10=095|
2024-01-05 10:40:33.038 [46] [FixSender] (DEBUG) Receiving 8=FIX.4.4|9=62|35=0|34=146|49=DMA_HUB|56=FIXCLIENT1|52=20240105-09:40:33.038|10=033|
2024-01-05 10:40:54.852 [47] [FixSender] (DEBUG) Sending 8=FIX.4.4|9=58|35=0|49=FIXCLIENT1|56=DMA_HUB|34=140|52=20240105-09:40:54|10=090|
2024-01-05 10:41:02.988 [46] [FixSender] (DEBUG) Receiving 8=FIX.4.4|9=62|35=0|34=147|49=DMA_HUB|56=FIXCLIENT1|52=20240105-09:41:02.988|10=045|
2024-01-05 10:41:24.855 [47] [FixSender] (DEBUG) Sending 8=FIX.4.4|9=58|35=0|49=FIXCLIENT1|56=DMA_HUB|34=141|52=20240105-09:41:24|10=089|
2024-01-05 10:41:32.937 [46] [FixSender] (DEBUG) Receiving 8=FIX.4.4|9=62|35=0|34=148|49=DMA_HUB|56=FIXCLIENT1|52=20240105-09:41:32.936|10=042|
2024-01-05 10:41:54.857 [47] [FixSender] (DEBUG) Sending 8=FIX.4.4|9=58|35=0|49=FIXCLIENT1|56=DMA_HUB|34=142|52=20240105-09:41:54|10=093|
2024-01-05 10:42:02.883 [46] [FixSender] (DEBUG) Receiving 8=FIX.4.4|9=62|35=0|34=149|49=DMA_HUB|56=FIXCLIENT1|52=20240105-09:42:02.883|10=042|
2024-01-05 10:42:24.858 [47] [FixSender] (DEBUG) Sending 8=FIX.4.4|9=58|35=0|49=FIXCLIENT1|56=DMA_HUB|34=143|52=20240105-09:42:24|10=092|
2024-01-05 10:42:32.845 [46] [FixSender] (DEBUG) Receiving 8=FIX.4.4|9=62|35=0|34=150|49=DMA_HUB|56=FIXCLIENT1|52=20240105-09:42:32.844|10=034|
2024-01-05 10:42:54.860 [47] [FixSender] (DEBUG) Sending 8=FIX.4.4|9=58|35=0|49=FIXCLIENT1|56=DMA_HUB|34=144|52=20240105-09:42:54|10=096|
2024-01-05 10:43:02.797 [46] [FixSender] (DEBUG) Receiving 8=FIX.4.4|9=62|35=0|34=151|49=DMA_HUB|56=FIXCLIENT1|52=20240105-09:43:02.796|10=039|
2024-01-05 10:43:24.860 [47] [FixSender] (DEBUG) Sending 8=FIX.4.4|9=58|35=0|49=FIXCLIENT1|56=DMA_HUB|34=145|52=20240105-09:43:24|10=095|
2024-01-05 10:43:32.748 [46] [FixSender] (DEBUG) Receiving 8=FIX.4.4|9=62|35=0|34=152|49=DMA_HUB|56=FIXCLIENT1|52=20240105-09:43:32.747|10=039|
2024-01-05 10:43:54.863 [47] [FixSender] (DEBUG) Sending 8=FIX.4.4|9=58|35=0|49=FIXCLIENT1|56=DMA_HUB|34=146|52=20240105-09:43:54|10=099|
2024-01-05 10:44:02.689 [46] [FixSender] (DEBUG) Receiving 8=FIX.4.4|9=62|35=0|34=153|49=DMA_HUB|56=FIXCLIENT1|52=20240105-09:44:02.689|10=043|
2024-01-05 10:44:24.864 [47] [FixSender] (DEBUG) Sending 8=FIX.4.4|9=58|35=0|49=FIXCLIENT1|56=DMA_HUB|34=147|52=20240105-09:44:24|10=098|
2024-01-05 10:44:32.652 [46] [FixSender] (DEBUG) Receiving 8=FIX.4.4|9=62|35=0|34=154|49=DMA_HUB|56=FIXCLIENT1|52=20240105-09:44:32.652|10=037|
2024-01-05 10:44:54.875 [47] [FixSender] (DEBUG) Sending 8=FIX.4.4|9=58|35=0|49=FIXCLIENT1|56=DMA_HUB|34=148|52=20240105-09:44:54|10=102|
2024-01-05 10:45:02.599 [46] [FixSender] (DEBUG) Receiving 8=FIX.4.4|9=62|35=0|34=155|49=DMA_HUB|56=FIXCLIENT1|52=20240105-09:45:02.597|10=044|
2024-01-05 10:45:24.876 [47] [FixSender] (DEBUG) Sending 8=FIX.4.4|9=58|35=0|49=FIXCLIENT1|56=DMA_HUB|34=149|52=20240105-09:45:24|10=101|
2024-01-05 10:45:32.554 [46] [FixSender] (DEBUG) Receiving 8=FIX.4.4|9=62|35=0|34=156|49=DMA_HUB|56=FIXCLIENT1|52=20240105-09:45:32.553|10=040|
2024-01-05 10:45:54.878 [47] [FixSender] (DEBUG) Sending 8=FIX.4.4|9=58|35=0|49=FIXCLIENT1|56=DMA_HUB|34=150|52=20240105-09:45:54|10=096|
2024-01-05 10:46:02.503 [46] [FixSender] (DEBUG) Receiving 8=FIX.4.4|9=62|35=0|34=157|49=DMA_HUB|56=FIXCLIENT1|52=20240105-09:46:02.501|10=032|
2024-01-05 10:46:24.881 [47] [FixSender] (DEBUG) Sending 8=FIX.4.4|9=58|35=0|49=FIXCLIENT1|56=DMA_HUB|34=151|52=20240105-09:46:24|10=095|
2024-01-05 10:46:32.460 [46] [FixSender] (DEBUG) Receiving 8=FIX.4.4|9=62|35=0|34=158|49=DMA_HUB|56=FIXCLIENT1|52=20240105-09:46:32.458|10=047|
2024-01-05 10:46:54.884 [47] [FixSender] (DEBUG) Sending 8=FIX.4.4|9=58|35=0|49=FIXCLIENT1|56=DMA_HUB|34=152|52=20240105-09:46:54|10=099|
2024-01-05 10:47:02.400 [46] [FixSender] (DEBUG) Receiving 8=FIX.4.4|9=62|35=0|34=159|49=DMA_HUB|56=FIXCLIENT1|52=20240105-09:47:02.399|10=050|
2024-01-05 10:47:24.886 [47] [FixSender] (DEBUG) Sending 8=FIX.4.4|9=58|35=0|49=FIXCLIENT1|56=DMA_HUB|34=153|52=20240105-09:47:24|10=098|
2024-01-05 10:47:32.352 [46] [FixSender] (DEBUG) Receiving 8=FIX.4.4|9=62|35=0|34=160|49=DMA_HUB|56=FIXCLIENT1|52=20240105-09:47:32.352|10=034|
2024-01-05 10:47:54.888 [47] [FixSender] (DEBUG) Sending 8=FIX.4.4|9=58|35=0|49=FIXCLIENT1|56=DMA_HUB|34=154|52=20240105-09:47:54|10=102|
2024-01-05 10:48:02.313 [46] [FixSender] (DEBUG) Receiving 8=FIX.4.4|9=62|35=0|34=161|49=DMA_HUB|56=FIXCLIENT1|52=20240105-09:48:02.312|10=029|
2024-01-05 10:48:24.891 [47] [FixSender] (DEBUG) Sending 8=FIX.4.4|9=58|35=0|49=FIXCLIENT1|56=DMA_HUB|34=155|52=20240105-09:48:24|10=101|
2024-01-05 10:48:32.261 [46] [FixSender] (DEBUG) Receiving 8=FIX.4.4|9=62|35=0|34=162|49=DMA_HUB|56=FIXCLIENT1|52=20240105-09:48:32.260|10=035|
2024-01-05 10:48:54.896 [47] [FixSender] (DEBUG) Sending 8=FIX.4.4|9=58|35=0|49=FIXCLIENT1|56=DMA_HUB|34=156|52=20240105-09:48:54|10=105|
2024-01-05 10:49:02.218 [46] [FixSender] (DEBUG) Receiving 8=FIX.4.4|9=62|35=0|34=163|49=DMA_HUB|56=FIXCLIENT1|52=20240105-09:49:02.218|10=037|
2024-01-05 10:49:24.900 [47] [FixSender] (DEBUG) Sending 8=FIX.4.4|9=58|35=0|49=FIXCLIENT1|56=DMA_HUB|34=157|52=20240105-09:49:24|10=104|
2024-01-05 10:49:32.165 [46] [FixSender] (DEBUG) Receiving 8=FIX.4.4|9=62|35=0|34=164|49=DMA_HUB|56=FIXCLIENT1|52=20240105-09:49:32.164|10=041|
2024-01-05 10:49:54.902 [47] [FixSender] (DEBUG) Sending 8=FIX.4.4|9=58|35=0|49=FIXCLIENT1|56=DMA_HUB|34=158|52=20240105-09:49:54|10=108|
2024-01-05 10:50:02.116 [46] [FixSender] (DEBUG) Receiving 8=FIX.4.4|9=62|35=0|34=165|49=DMA_HUB|56=FIXCLIENT1|52=20240105-09:50:02.114|10=026|
2024-01-05 10:50:24.903 [47] [FixSender] (DEBUG) Sending 8=FIX.4.4|9=58|35=0|49=FIXCLIENT1|56=DMA_HUB|34=159|52=20240105-09:50:24|10=098|
2024-01-05 10:50:32.078 [46] [FixSender] (DEBUG) Receiving 8=FIX.4.4|9=62|35=0|34=166|49=DMA_HUB|56=FIXCLIENT1|52=20240105-09:50:32.076|10=037|
2024-01-05 10:50:54.913 [47] [FixSender] (DEBUG) Sending 8=FIX.4.4|9=58|35=0|49=FIXCLIENT1|56=DMA_HUB|34=160|52=20240105-09:50:54|10=093|
2024-01-05 10:51:02.017 [46] [FixSender] (DEBUG) Receiving 8=FIX.4.4|9=62|35=0|34=167|49=DMA_HUB|56=FIXCLIENT1|52=20240105-09:51:02.017|10=031|
2024-01-05 10:51:24.915 [47] [FixSender] (DEBUG) Sending 8=FIX.4.4|9=58|35=0|49=FIXCLIENT1|56=DMA_HUB|34=161|52=20240105-09:51:24|10=092|
2024-01-05 10:51:31.983 [46] [FixSender] (DEBUG) Receiving 8=FIX.4.4|9=62|35=0|34=168|49=DMA_HUB|56=FIXCLIENT1|52=20240105-09:51:31.983|10=046|
2024-01-05 10:51:54.917 [47] [FixSender] (DEBUG) Sending 8=FIX.4.4|9=58|35=0|49=FIXCLIENT1|56=DMA_HUB|34=162|52=20240105-09:51:54|10=096|
2024-01-05 10:52:01.992 [46] [FixSender] (DEBUG) Receiving 8=FIX.4.4|9=62|35=0|34=169|49=DMA_HUB|56=FIXCLIENT1|52=20240105-09:52:01.992|10=045|
2024-01-05 10:52:24.918 [47] [FixSender] (DEBUG) Sending 8=FIX.4.4|9=58|35=0|49=FIXCLIENT1|56=DMA_HUB|34=163|52=20240105-09:52:24|10=095|
2024-01-05 10:52:31.943 [46] [FixSender] (DEBUG) Receiving 8=FIX.4.4|9=62|35=0|34=170|49=DMA_HUB|56=FIXCLIENT1|52=20240105-09:52:31.943|10=036|
2024-01-05 10:52:54.921 [47] [FixSender] (DEBUG) Sending 8=FIX.4.4|9=58|35=0|49=FIXCLIENT1|56=DMA_HUB|34=164|52=20240105-09:52:54|10=099|
2024-01-05 10:53:01.893 [46] [FixSender] (DEBUG) Receiving 8=FIX.4.4|9=62|35=0|34=171|49=DMA_HUB|56=FIXCLIENT1|52=20240105-09:53:01.893|10=039|
2024-01-05 10:53:24.922 [47] [FixSender] (DEBUG) Sending 8=FIX.4.4|9=58|35=0|49=FIXCLIENT1|56=DMA_HUB|34=165|52=20240105-09:53:24|10=098|
2024-01-05 10:53:31.843 [46] [FixSender] (DEBUG) Receiving 8=FIX.4.4|9=62|35=0|34=172|49=DMA_HUB|56=FIXCLIENT1|52=20240105-09:53:31.843|10=038|
2024-01-05 10:53:54.930 [47] [FixSender] (DEBUG) Sending 8=FIX.4.4|9=58|35=0|49=FIXCLIENT1|56=DMA_HUB|34=166|52=20240105-09:53:54|10=102|
2024-01-05 10:54:01.804 [46] [FixSender] (DEBUG) Receiving 8=FIX.4.4|9=62|35=0|34=173|49=DMA_HUB|56=FIXCLIENT1|52=20240105-09:54:01.803|10=033|
2024-01-05 10:54:24.932 [47] [FixSender] (DEBUG) Sending 8=FIX.4.4|9=58|35=0|49=FIXCLIENT1|56=DMA_HUB|34=167|52=20240105-09:54:24|10=101|
2024-01-05 10:54:31.749 [46] [FixSender] (DEBUG) Receiving 8=FIX.4.4|9=62|35=0|34=174|49=DMA_HUB|56=FIXCLIENT1|52=20240105-09:54:31.749|10=046|
2024-01-05 10:54:54.935 [47] [FixSender] (DEBUG) Sending 8=FIX.4.4|9=58|35=0|49=FIXCLIENT1|56=DMA_HUB|34=168|52=20240105-09:54:54|10=105|
2024-01-05 10:55:01.710 [46] [FixSender] (DEBUG) Receiving 8=FIX.4.4|9=62|35=0|34=175|49=DMA_HUB|56=FIXCLIENT1|52=20240105-09:55:01.709|10=041|
2024-01-05 10:55:24.937 [47] [FixSender] (DEBUG) Sending 8=FIX.4.4|9=58|35=0|49=FIXCLIENT1|56=DMA_HUB|34=169|52=20240105-09:55:24|10=104|
2024-01-05 10:55:31.653 [46] [FixSender] (DEBUG) Receiving 8=FIX.4.4|9=62|35=0|34=176|49=DMA_HUB|56=FIXCLIENT1|52=20240105-09:55:31.652|10=042|
2024-01-05 10:55:54.938 [47] [FixSender] (DEBUG) Sending 8=FIX.4.4|9=58|35=0|49=FIXCLIENT1|56=DMA_HUB|34=170|52=20240105-09:55:54|10=099|
2024-01-05 10:56:01.599 [46] [FixSender] (DEBUG) Receiving 8=FIX.4.4|9=62|35=0|34=177|49=DMA_HUB|56=FIXCLIENT1|52=20240105-09:56:01.599|10=051|
2024-01-05 10:56:24.941 [47] [FixSender] (DEBUG) Sending 8=FIX.4.4|9=58|35=0|49=FIXCLIENT1|56=DMA_HUB|34=171|52=20240105-09:56:24|10=098|
2024-01-05 10:56:31.567 [46] [FixSender] (DEBUG) Receiving 8=FIX.4.4|9=62|35=0|34=178|49=DMA_HUB|56=FIXCLIENT1|52=20240105-09:56:31.566|10=049|
2024-01-05 10:56:54.942 [47] [FixSender] (DEBUG) Sending 8=FIX.4.4|9=58|35=0|49=FIXCLIENT1|56=DMA_HUB|34=172|52=20240105-09:56:54|10=102|
2024-01-05 10:57:01.513 [46] [FixSender] (DEBUG) Receiving 8=FIX.4.4|9=62|35=0|34=179|49=DMA_HUB|56=FIXCLIENT1|52=20240105-09:57:01.513|10=040|
2024-01-05 10:57:24.944 [47] [FixSender] (DEBUG) Sending 8=FIX.4.4|9=58|35=0|49=FIXCLIENT1|56=DMA_HUB|34=173|52=20240105-09:57:24|10=101|
2024-01-05 10:57:31.457 [46] [FixSender] (DEBUG) Receiving 8=FIX.4.4|9=62|35=0|34=180|49=DMA_HUB|56=FIXCLIENT1|52=20240105-09:57:31.457|10=042|
2024-01-05 10:57:54.948 [47] [FixSender] (DEBUG) Sending 8=FIX.4.4|9=58|35=0|49=FIXCLIENT1|56=DMA_HUB|34=174|52=20240105-09:57:54|10=105|
2024-01-05 10:58:01.409 [46] [FixSender] (DEBUG) Receiving 8=FIX.4.4|9=62|35=0|34=181|49=DMA_HUB|56=FIXCLIENT1|52=20240105-09:58:01.409|10=038|
2024-01-05 10:58:24.949 [47] [FixSender] (DEBUG) Sending 8=FIX.4.4|9=58|35=0|49=FIXCLIENT1|56=DMA_HUB|34=175|52=20240105-09:58:24|10=104|
2024-01-05 10:58:31.368 [46] [FixSender] (DEBUG) Receiving 8=FIX.4.4|9=62|35=0|34=182|49=DMA_HUB|56=FIXCLIENT1|52=20240105-09:58:31.368|10=046|
2024-01-05 10:58:54.950 [47] [FixSender] (DEBUG) Sending 8=FIX.4.4|9=58|35=0|49=FIXCLIENT1|56=DMA_HUB|34=176|52=20240105-09:58:54|10=108|
2024-01-05 10:59:01.314 [46] [FixSender] (DEBUG) Receiving 8=FIX.4.4|9=62|35=0|34=183|49=DMA_HUB|56=FIXCLIENT1|52=20240105-09:59:01.313|10=035|
2024-01-05 10:59:24.951 [47] [FixSender] (DEBUG) Sending 8=FIX.4.4|9=58|35=0|49=FIXCLIENT1|56=DMA_HUB|34=177|52=20240105-09:59:24|10=107|
2024-01-05 10:59:31.271 [46] [FixSender] (DEBUG) Receiving 8=FIX.4.4|9=62|35=0|34=184|49=DMA_HUB|56=FIXCLIENT1|52=20240105-09:59:31.270|10=041|
2024-01-05 10:59:54.954 [47] [FixSender] (DEBUG) Sending 8=FIX.4.4|9=58|35=0|49=FIXCLIENT1|56=DMA_HUB|34=178|52=20240105-09:59:54|10=111|
2024-01-05 11:00:01.228 [46] [FixSender] (DEBUG) Receiving 8=FIX.4.4|9=62|35=0|34=185|49=DMA_HUB|56=FIXCLIENT1|52=20240105-10:00:01.228|10=020|
2024-01-05 11:00:24.956 [47] [FixSender] (DEBUG) Sending 8=FIX.4.4|9=58|35=0|49=FIXCLIENT1|56=DMA_HUB|34=179|52=20240105-10:00:24|10=087|
2024-01-05 11:00:31.169 [46] [FixSender] (DEBUG) Receiving 8=FIX.4.4|9=62|35=0|34=186|49=DMA_HUB|56=FIXCLIENT1|52=20240105-10:00:31.169|10=028|
2024-01-05 11:00:54.959 [47] [FixSender] (DEBUG) Sending 8=FIX.4.4|9=58|35=0|49=FIXCLIENT1|56=DMA_HUB|34=180|52=20240105-10:00:54|10=082|
2024-01-05 11:01:01.124 [46] [FixSender] (DEBUG) Receiving 8=FIX.4.4|9=62|35=0|34=187|49=DMA_HUB|56=FIXCLIENT1|52=20240105-10:01:01.123|10=017|
2024-01-05 11:01:24.961 [47] [FixSender] (DEBUG) Sending 8=FIX.4.4|9=58|35=0|49=FIXCLIENT1|56=DMA_HUB|34=181|52=20240105-10:01:24|10=081|
2024-01-05 11:01:31.072 [46] [FixSender] (DEBUG) Receiving 8=FIX.4.4|9=62|35=0|34=188|49=DMA_HUB|56=FIXCLIENT1|52=20240105-10:01:31.071|10=023|
2024-01-05 11:01:54.963 [47] [FixSender] (DEBUG) Sending 8=FIX.4.4|9=58|35=0|49=FIXCLIENT1|56=DMA_HUB|34=182|52=20240105-10:01:54|10=085|
2024-01-05 11:02:01.030 [46] [FixSender] (DEBUG) Receiving 8=FIX.4.4|9=62|35=0|34=189|49=DMA_HUB|56=FIXCLIENT1|52=20240105-10:02:01.030|10=017|
2024-01-05 11:02:24.965 [47] [FixSender] (DEBUG) Sending 8=FIX.4.4|9=58|35=0|49=FIXCLIENT1|56=DMA_HUB|34=183|52=20240105-10:02:24|10=084|
2024-01-05 11:02:30.982 [46] [FixSender] (DEBUG) Receiving 8=FIX.4.4|9=62|35=0|34=190|49=DMA_HUB|56=FIXCLIENT1|52=20240105-10:02:30.982|10=027|
2024-01-05 11:02:54.968 [47] [FixSender] (DEBUG) Sending 8=FIX.4.4|9=58|35=0|49=FIXCLIENT1|56=DMA_HUB|34=184|52=20240105-10:02:54|10=088|
2024-01-05 11:03:00.933 [46] [FixSender] (DEBUG) Receiving 8=FIX.4.4|9=62|35=0|34=191|49=DMA_HUB|56=FIXCLIENT1|52=20240105-10:03:00.933|10=022|
2024-01-05 11:03:24.970 [47] [FixSender] (DEBUG) Sending 8=FIX.4.4|9=58|35=0|49=FIXCLIENT1|56=DMA_HUB|34=185|52=20240105-10:03:24|10=087|
2024-01-05 11:03:30.895 [46] [FixSender] (DEBUG) Receiving 8=FIX.4.4|9=62|35=0|34=192|49=DMA_HUB|56=FIXCLIENT1|52=20240105-10:03:30.894|10=032|
2024-01-05 11:03:54.971 [47] [FixSender] (DEBUG) Sending 8=FIX.4.4|9=58|35=0|49=FIXCLIENT1|56=DMA_HUB|34=186|52=20240105-10:03:54|10=091|
2024-01-05 11:04:00.841 [46] [FixSender] (DEBUG) Receiving 8=FIX.4.4|9=62|35=0|34=193|49=DMA_HUB|56=FIXCLIENT1|52=20240105-10:04:00.840|10=022|
2024-01-05 11:04:24.974 [47] [FixSender] (DEBUG) Sending 8=FIX.4.4|9=58|35=0|49=FIXCLIENT1|56=DMA_HUB|34=187|52=20240105-10:04:24|10=090|
2024-01-05 11:04:30.792 [46] [FixSender] (DEBUG) Receiving 8=FIX.4.4|9=62|35=0|34=194|49=DMA_HUB|56=FIXCLIENT1|52=20240105-10:04:30.792|10=032|
2024-01-05 11:04:54.977 [47] [FixSender] (DEBUG) Sending 8=FIX.4.4|9=58|35=0|49=FIXCLIENT1|56=DMA_HUB|34=188|52=20240105-10:04:54|10=094|
2024-01-05 11:05:00.746 [46] [FixSender] (DEBUG) Receiving 8=FIX.4.4|9=62|35=0|34=195|49=DMA_HUB|56=FIXCLIENT1|52=20240105-10:05:00.745|10=029|
2024-01-05 11:05:24.981 [47] [FixSender] (DEBUG) Sending 8=FIX.4.4|9=58|35=0|49=FIXCLIENT1|56=DMA_HUB|34=189|52=20240105-10:05:24|10=093|
2024-01-05 11:05:30.700 [46] [FixSender] (DEBUG) Receiving 8=FIX.4.4|9=62|35=0|34=196|49=DMA_HUB|56=FIXCLIENT1|52=20240105-10:05:30.700|10=024|
2024-01-05 11:05:54.982 [47] [FixSender] (DEBUG) Sending 8=FIX.4.4|9=58|35=0|49=FIXCLIENT1|56=DMA_HUB|34=190|52=20240105-10:05:54|10=088|
2024-01-05 11:06:00.641 [46] [FixSender] (DEBUG) Receiving 8=FIX.4.4|9=62|35=0|34=197|49=DMA_HUB|56=FIXCLIENT1|52=20240105-10:06:00.640|10=026|
2024-01-05 11:06:24.983 [47] [FixSender] (DEBUG) Sending 8=FIX.4.4|9=58|35=0|49=FIXCLIENT1|56=DMA_HUB|34=191|52=20240105-10:06:24|10=087|
2024-01-05 11:06:30.597 [46] [FixSender] (DEBUG) Receiving 8=FIX.4.4|9=62|35=0|34=198|49=DMA_HUB|56=FIXCLIENT1|52=20240105-10:06:30.596|10=040|
2024-01-05 11:06:54.985 [47] [FixSender] (DEBUG) Sending 8=FIX.4.4|9=58|35=0|49=FIXCLIENT1|56=DMA_HUB|34=192|52=20240105-10:06:54|10=091|
2024-01-05 11:07:00.552 [46] [FixSender] (DEBUG) Receiving 8=FIX.4.4|9=62|35=0|34=199|49=DMA_HUB|56=FIXCLIENT1|52=20240105-10:07:00.552|10=031|
2024-01-05 11:07:24.988 [47] [FixSender] (DEBUG) Sending 8=FIX.4.4|9=58|35=0|49=FIXCLIENT1|56=DMA_HUB|34=193|52=20240105-10:07:24|10=090|
2024-01-05 11:07:30.503 [46] [FixSender] (DEBUG) Receiving 8=FIX.4.4|9=62|35=0|34=200|49=DMA_HUB|56=FIXCLIENT1|52=20240105-10:07:30.503|10=013|
2024-01-05 11:07:54.989 [47] [FixSender] (DEBUG) Sending 8=FIX.4.4|9=58|35=0|49=FIXCLIENT1|56=DMA_HUB|34=194|52=20240105-10:07:54|10=094|
2024-01-05 11:08:00.462 [46] [FixSender] (DEBUG) Receiving 8=FIX.4.4|9=62|35=0|34=201|49=DMA_HUB|56=FIXCLIENT1|52=20240105-10:08:00.462|10=016|
2024-01-05 11:08:24.990 [47] [FixSender] (DEBUG) Sending 8=FIX.4.4|9=58|35=0|49=FIXCLIENT1|56=DMA_HUB|34=195|52=20240105-10:08:24|10=093|
2024-01-05 11:08:30.409 [46] [FixSender] (DEBUG) Receiving 8=FIX.4.4|9=62|35=0|34=202|49=DMA_HUB|56=FIXCLIENT1|52=20240105-10:08:30.407|10=019|
2024-01-05 11:08:54.991 [47] [FixSender] (DEBUG) Sending 8=FIX.4.4|9=58|35=0|49=FIXCLIENT1|56=DMA_HUB|34=196|52=20240105-10:08:54|10=097|
2024-01-05 11:09:00.353 [46] [FixSender] (DEBUG) Receiving 8=FIX.4.4|9=62|35=0|34=203|49=DMA_HUB|56=FIXCLIENT1|52=20240105-10:09:00.353|10=018|
2024-01-05 11:09:24.994 [47] [FixSender] (DEBUG) Sending 8=FIX.4.4|9=58|35=0|49=FIXCLIENT1|56=DMA_HUB|34=197|52=20240105-10:09:24|10=096|
2024-01-05 11:09:30.306 [46] [FixSender] (DEBUG) Receiving 8=FIX.4.4|9=62|35=0|34=204|49=DMA_HUB|56=FIXCLIENT1|52=20240105-10:09:30.306|10=020|
2024-01-05 11:09:54.996 [47] [FixSender] (DEBUG) Sending 8=FIX.4.4|9=58|35=0|49=FIXCLIENT1|56=DMA_HUB|34=198|52=20240105-10:09:54|10=100|
2024-01-05 11:10:00.256 [46] [FixSender] (DEBUG) Receiving 8=FIX.4.4|9=62|35=0|34=205|49=DMA_HUB|56=FIXCLIENT1|52=20240105-10:10:00.256|10=014|
2024-01-05 11:10:24.998 [47] [FixSender] (DEBUG) Sending 8=FIX.4.4|9=58|35=0|49=FIXCLIENT1|56=DMA_HUB|34=199|52=20240105-10:10:24|10=090|
2024-01-05 11:10:30.218 [46] [FixSender] (DEBUG) Receiving 8=FIX.4.4|9=62|35=0|34=206|49=DMA_HUB|56=FIXCLIENT1|52=20240105-10:10:30.216|10=014|
2024-01-05 11:10:54.999 [47] [FixSender] (DEBUG) Sending 8=FIX.4.4|9=58|35=0|49=FIXCLIENT1|56=DMA_HUB|34=200|52=20240105-10:10:54|10=076|
2024-01-05 11:11:00.174 [46] [FixSender] (DEBUG) Receiving 8=FIX.4.4|9=62|35=0|34=207|49=DMA_HUB|56=FIXCLIENT1|52=20240105-10:11:00.173|10=015|
2024-01-05 11:11:25.001 [47] [FixSender] (DEBUG) Sending 8=FIX.4.4|9=58|35=0|49=FIXCLIENT1|56=DMA_HUB|34=201|52=20240105-10:11:25|10=076|
2024-01-05 11:11:30.118 [46] [FixSender] (DEBUG) Receiving 8=FIX.4.4|9=62|35=0|34=208|49=DMA_HUB|56=FIXCLIENT1|52=20240105-10:11:30.117|10=017|
2024-01-05 11:11:55.003 [47] [FixSender] (DEBUG) Sending 8=FIX.4.4|9=58|35=0|49=FIXCLIENT1|56=DMA_HUB|34=202|52=20240105-10:11:55|10=080|
2024-01-05 11:12:00.074 [46] [FixSender] (DEBUG) Receiving 8=FIX.4.4|9=62|35=0|34=209|49=DMA_HUB|56=FIXCLIENT1|52=20240105-10:12:00.072|10=016|
2024-01-05 11:12:25.006 [47] [FixSender] (DEBUG) Sending 8=FIX.4.4|9=58|35=0|49=FIXCLIENT1|56=DMA_HUB|34=203|52=20240105-10:12:25|10=079|
2024-01-05 11:12:30.016 [46] [FixSender] (DEBUG) Receiving 8=FIX.4.4|9=62|35=0|34=210|49=DMA_HUB|56=FIXCLIENT1|52=20240105-10:12:30.016|10=009|
2024-01-05 11:12:55.007 [47] [FixSender] (DEBUG) Sending 8=FIX.4.4|9=58|35=0|49=FIXCLIENT1|56=DMA_HUB|34=204|52=20240105-10:12:55|10=083|
2024-01-05 11:12:59.976 [46] [FixSender] (DEBUG) Receiving 8=FIX.4.4|9=62|35=0|34=211|49=DMA_HUB|56=FIXCLIENT1|52=20240105-10:12:59.975|10=035|
2024-01-05 11:13:25.011 [47] [FixSender] (DEBUG) Sending 8=FIX.4.4|9=58|35=0|49=FIXCLIENT1|56=DMA_HUB|34=205|52=20240105-10:13:25|10=082|
2024-01-05 11:13:29.930 [46] [FixSender] (DEBUG) Receiving 8=FIX.4.4|9=62|35=0|34=212|49=DMA_HUB|56=FIXCLIENT1|52=20240105-10:13:29.930|10=025|
2024-01-05 11:13:55.013 [47] [FixSender] (DEBUG) Sending 8=FIX.4.4|9=58|35=0|49=FIXCLIENT1|56=DMA_HUB|34=206|52=20240105-10:13:55|10=086|
2024-01-05 11:13:59.882 [46] [FixSender] (DEBUG) Receiving 8=FIX.4.4|9=62|35=0|34=213|49=DMA_HUB|56=FIXCLIENT1|52=20240105-10:13:59.881|10=034|
2024-01-05 11:14:25.016 [47] [FixSender] (DEBUG) Sending 8=FIX.4.4|9=58|35=0|49=FIXCLIENT1|56=DMA_HUB|34=207|52=20240105-10:14:25|10=085|
2024-01-05 11:14:29.837 [46] [FixSender] (DEBUG) Receiving 8=FIX.4.4|9=62|35=0|34=214|49=DMA_HUB|56=FIXCLIENT1|52=20240105-10:14:29.836|10=033|
2024-01-05 11:14:55.018 [47] [FixSender] (DEBUG) Sending 8=FIX.4.4|9=58|35=0|49=FIXCLIENT1|56=DMA_HUB|34=208|52=20240105-10:14:55|10=089|
2024-01-05 11:14:59.787 [46] [FixSender] (DEBUG) Receiving 8=FIX.4.4|9=62|35=0|34=215|49=DMA_HUB|56=FIXCLIENT1|52=20240105-10:14:59.786|10=041|
2024-01-05 11:15:25.019 [47] [FixSender] (DEBUG) Sending 8=FIX.4.4|9=58|35=0|49=FIXCLIENT1|56=DMA_HUB|34=209|52=20240105-10:15:25|10=088|
2024-01-05 11:15:29.734 [46] [FixSender] (DEBUG) Receiving 8=FIX.4.4|9=62|35=0|34=216|49=DMA_HUB|56=FIXCLIENT1|52=20240105-10:15:29.733|10=032|
2024-01-05 11:15:55.032 [47] [FixSender] (DEBUG) Sending 8=FIX.4.4|9=58|35=0|49=FIXCLIENT1|56=DMA_HUB|34=210|52=20240105-10:15:55|10=083|
2024-01-05 11:15:59.682 [46] [FixSender] (DEBUG) Receiving 8=FIX.4.4|9=62|35=0|34=217|49=DMA_HUB|56=FIXCLIENT1|52=20240105-10:15:59.682|10=039|
2024-01-05 11:16:25.034 [47] [FixSender] (DEBUG) Sending 8=FIX.4.4|9=58|35=0|49=FIXCLIENT1|56=DMA_HUB|34=211|52=20240105-10:16:25|10=082|
2024-01-05 11:16:29.640 [46] [FixSender] (DEBUG) Receiving 8=FIX.4.4|9=62|35=0|34=218|49=DMA_HUB|56=FIXCLIENT1|52=20240105-10:16:29.640|10=032|
2024-01-05 11:16:55.038 [47] [FixSender] (DEBUG) Sending 8=FIX.4.4|9=58|35=0|49=FIXCLIENT1|56=DMA_HUB|34=212|52=20240105-10:16:55|10=086|
2024-01-05 11:16:59.596 [46] [FixSender] (DEBUG) Receiving 8=FIX.4.4|9=62|35=0|34=219|49=DMA_HUB|56=FIXCLIENT1|52=20240105-10:16:59.595|10=045|
2024-01-05 11:17:25.041 [47] [FixSender] (DEBUG) Sending 8=FIX.4.4|9=58|35=0|49=FIXCLIENT1|56=DMA_HUB|34=213|52=20240105-10:17:25|10=085|
2024-01-05 11:17:29.548 [46] [FixSender] (DEBUG) Receiving 8=FIX.4.4|9=62|35=0|34=220|49=DMA_HUB|56=FIXCLIENT1|52=20240105-10:17:29.547|10=032|
2024-01-05 11:17:55.042 [47] [FixSender] (DEBUG) Sending 8=FIX.4.4|9=58|35=0|49=FIXCLIENT1|56=DMA_HUB|34=214|52=20240105-10:17:55|10=089|
2024-01-05 11:17:59.496 [46] [FixSender] (DEBUG) Receiving 8=FIX.4.4|9=62|35=0|34=221|49=DMA_HUB|56=FIXCLIENT1|52=20240105-10:17:59.495|10=038|
2024-01-05 11:18:25.043 [47] [FixSender] (DEBUG) Sending 8=FIX.4.4|9=58|35=0|49=FIXCLIENT1|56=DMA_HUB|34=215|52=20240105-10:18:25|10=088|
2024-01-05 11:18:29.447 [46] [FixSender] (DEBUG) Receiving 8=FIX.4.4|9=62|35=0|34=222|49=DMA_HUB|56=FIXCLIENT1|52=20240105-10:18:29.447|10=034|
2024-01-05 11:18:55.046 [47] [FixSender] (DEBUG) Sending 8=FIX.4.4|9=58|35=0|49=FIXCLIENT1|56=DMA_HUB|34=216|52=20240105-10:18:55|10=092|
2024-01-05 11:18:59.400 [46] [FixSender] (DEBUG) Receiving 8=FIX.4.4|9=62|35=0|34=223|49=DMA_HUB|56=FIXCLIENT1|52=20240105-10:18:59.399|10=044|
2024-01-05 11:19:25.048 [47] [FixSender] (DEBUG) Sending 8=FIX.4.4|9=58|35=0|49=FIXCLIENT1|56=DMA_HUB|34=217|52=20240105-10:19:25|10=091|
2024-01-05 11:19:29.351 [46] [FixSender] (DEBUG) Receiving 8=FIX.4.4|9=62|35=0|34=224|49=DMA_HUB|56=FIXCLIENT1|52=20240105-10:19:29.351|10=031|
2024-01-05 11:19:55.052 [47] [FixSender] (DEBUG) Sending 8=FIX.4.4|9=58|35=0|49=FIXCLIENT1|56=DMA_HUB|34=218|52=20240105-10:19:55|10=095|
2024-01-05 11:19:59.304 [46] [FixSender] (DEBUG) Receiving 8=FIX.4.4|9=62|35=0|34=225|49=DMA_HUB|56=FIXCLIENT1|52=20240105-10:19:59.304|10=033|
2024-01-05 11:20:25.053 [47] [FixSender] (DEBUG) Sending 8=FIX.4.4|9=58|35=0|49=FIXCLIENT1|56=DMA_HUB|34=219|52=20240105-10:20:25|10=085|
2024-01-05 11:20:29.253 [46] [FixSender] (DEBUG) Receiving 8=FIX.4.4|9=62|35=0|34=226|49=DMA_HUB|56=FIXCLIENT1|52=20240105-10:20:29.252|10=025|
2024-01-05 11:20:55.056 [47] [FixSender] (DEBUG) Sending 8=FIX.4.4|9=58|35=0|49=FIXCLIENT1|56=DMA_HUB|34=220|52=20240105-10:20:55|10=080|
2024-01-05 11:20:59.213 [46] [FixSender] (DEBUG) Receiving 8=FIX.4.4|9=62|35=0|34=227|49=DMA_HUB|56=FIXCLIENT1|52=20240105-10:20:59.212|10=025|
2024-01-05 11:21:25.059 [47] [FixSender] (DEBUG) Sending 8=FIX.4.4|9=58|35=0|49=FIXCLIENT1|56=DMA_HUB|34=221|52=20240105-10:21:25|10=079|
2024-01-05 11:21:29.164 [46] [FixSender] (DEBUG) Receiving 8=FIX.4.4|9=62|35=0|34=228|49=DMA_HUB|56=FIXCLIENT1|52=20240105-10:21:29.164|10=030|
2024-01-05 11:21:55.060 [47] [FixSender] (DEBUG) Sending 8=FIX.4.4|9=58|35=0|49=FIXCLIENT1|56=DMA_HUB|34=222|52=20240105-10:21:55|10=083|
2024-01-05 11:21:59.137 [46] [FixSender] (DEBUG) Receiving 8=FIX.4.4|9=62|35=0|34=229|49=DMA_HUB|56=FIXCLIENT1|52=20240105-10:21:59.136|10=033|
2024-01-05 11:22:25.061 [47] [FixSender] (DEBUG) Sending 8=FIX.4.4|9=58|35=0|49=FIXCLIENT1|56=DMA_HUB|34=223|52=20240105-10:22:25|10=082|
2024-01-05 11:22:29.134 [46] [FixSender] (DEBUG) Receiving 8=FIX.4.4|9=62|35=0|34=230|49=DMA_HUB|56=FIXCLIENT1|52=20240105-10:22:29.134|10=021|
2024-01-05 11:22:55.065 [47] [FixSender] (DEBUG) Sending 8=FIX.4.4|9=58|35=0|49=FIXCLIENT1|56=DMA_HUB|34=224|52=20240105-10:22:55|10=086|
2024-01-05 11:22:59.073 [46] [FixSender] (DEBUG) Receiving 8=FIX.4.4|9=62|35=0|34=231|49=DMA_HUB|56=FIXCLIENT1|52=20240105-10:22:59.072|10=026|
2024-01-05 11:23:25.067 [47] [FixSender] (DEBUG) Sending 8=FIX.4.4|9=58|35=0|49=FIXCLIENT1|56=DMA_HUB|34=225|52=20240105-10:23:25|10=085|
2024-01-05 11:23:29.026 [46] [FixSender] (DEBUG) Receiving 8=FIX.4.4|9=62|35=0|34=232|49=DMA_HUB|56=FIXCLIENT1|52=20240105-10:23:29.026|10=024|
2024-01-05 11:23:55.071 [47] [FixSender] (DEBUG) Sending 8=FIX.4.4|9=58|35=0|49=FIXCLIENT1|56=DMA_HUB|34=226|52=20240105-10:23:55|10=089|
2024-01-05 11:23:58.983 [46] [FixSender] (DEBUG) Receiving 8=FIX.4.4|9=62|35=0|34=233|49=DMA_HUB|56=FIXCLIENT1|52=20240105-10:23:58.983|10=039|
2024-01-05 11:24:25.073 [47] [FixSender] (DEBUG) Sending 8=FIX.4.4|9=58|35=0|49=FIXCLIENT1|56=DMA_HUB|34=227|52=20240105-10:24:25|10=088|
2024-01-05 11:24:28.936 [46] [FixSender] (DEBUG) Receiving 8=FIX.4.4|9=62|35=0|34=234|49=DMA_HUB|56=FIXCLIENT1|52=20240105-10:24:28.936|10=036|
2024-01-05 11:24:55.074 [47] [FixSender] (DEBUG) Sending 8=FIX.4.4|9=58|35=0|49=FIXCLIENT1|56=DMA_HUB|34=228|52=20240105-10:24:55|10=092|
2024-01-05 11:24:58.882 [46] [FixSender] (DEBUG) Receiving 8=FIX.4.4|9=62|35=0|34=235|49=DMA_HUB|56=FIXCLIENT1|52=20240105-10:24:58.881|10=039|
2024-01-05 11:25:25.076 [47] [FixSender] (DEBUG) Sending 8=FIX.4.4|9=58|35=0|49=FIXCLIENT1|56=DMA_HUB|34=229|52=20240105-10:25:25|10=091|
2024-01-05 11:25:28.845 [46] [FixSender] (DEBUG) Receiving 8=FIX.4.4|9=62|35=0|34=236|49=DMA_HUB|56=FIXCLIENT1|52=20240105-10:25:28.845|10=038|
2024-01-05 11:25:55.078 [47] [FixSender] (DEBUG) Sending 8=FIX.4.4|9=58|35=0|49=FIXCLIENT1|56=DMA_HUB|34=230|52=20240105-10:25:55|10=086|
2024-01-05 11:25:58.788 [46] [FixSender] (DEBUG) Receiving 8=FIX.4.4|9=62|35=0|34=237|49=DMA_HUB|56=FIXCLIENT1|52=20240105-10:25:58.788|10=048|
2024-01-05 11:26:25.079 [47] [FixSender] (DEBUG) Sending 8=FIX.4.4|9=58|35=0|49=FIXCLIENT1|56=DMA_HUB|34=231|52=20240105-10:26:25|10=085|
2024-01-05 11:26:28.750 [46] [FixSender] (DEBUG) Receiving 8=FIX.4.4|9=62|35=0|34=238|49=DMA_HUB|56=FIXCLIENT1|52=20240105-10:26:28.749|10=044|
2024-01-05 11:26:55.081 [47] [FixSender] (DEBUG) Sending 8=FIX.4.4|9=58|35=0|49=FIXCLIENT1|56=DMA_HUB|34=232|52=20240105-10:26:55|10=089|
2024-01-05 11:26:58.696 [46] [FixSender] (DEBUG) Receiving 8=FIX.4.4|9=62|35=0|34=239|49=DMA_HUB|56=FIXCLIENT1|52=20240105-10:26:58.695|10=048|
2024-01-05 11:27:25.082 [47] [FixSender] (DEBUG) Sending 8=FIX.4.4|9=58|35=0|49=FIXCLIENT1|56=DMA_HUB|34=233|52=20240105-10:27:25|10=088|
2024-01-05 11:27:28.649 [46] [FixSender] (DEBUG) Receiving 8=FIX.4.4|9=62|35=0|34=240|49=DMA_HUB|56=FIXCLIENT1|52=20240105-10:27:28.649|10=037|
2024-01-05 11:27:55.083 [47] [FixSender] (DEBUG) Sending 8=FIX.4.4|9=58|35=0|49=FIXCLIENT1|56=DMA_HUB|34=234|52=20240105-10:27:55|10=092|
2024-01-05 11:27:58.595 [46] [FixSender] (DEBUG) Receiving 8=FIX.4.4|9=62|35=0|34=241|49=DMA_HUB|56=FIXCLIENT1|52=20240105-10:27:58.594|10=040|
2024-01-05 11:28:25.084 [47] [FixSender] (DEBUG) Sending 8=FIX.4.4|9=58|35=0|49=FIXCLIENT1|56=DMA_HUB|34=235|52=20240105-10:28:25|10=091|
2024-01-05 11:28:28.544 [46] [FixSender] (DEBUG) Receiving 8=FIX.4.4|9=62|35=0|34=242|49=DMA_HUB|56=FIXCLIENT1|52=20240105-10:28:28.543|10=033|
2024-01-05 11:28:55.087 [47] [FixSender] (DEBUG) Sending 8=FIX.4.4|9=58|35=0|49=FIXCLIENT1|56=DMA_HUB|34=236|52=20240105-10:28:55|10=095|
2024-01-05 11:28:58.497 [46] [FixSender] (DEBUG) Receiving 8=FIX.4.4|9=62|35=0|34=243|49=DMA_HUB|56=FIXCLIENT1|52=20240105-10:28:58.497|10=045|
2024-01-05 11:29:25.090 [47] [FixSender] (DEBUG) Sending 8=FIX.4.4|9=58|35=0|49=FIXCLIENT1|56=DMA_HUB|34=237|52=20240105-10:29:25|10=094|
2024-01-05 11:29:28.460 [46] [FixSender] (DEBUG) Receiving 8=FIX.4.4|9=62|35=0|34=244|49=DMA_HUB|56=FIXCLIENT1|52=20240105-10:29:28.460|10=034|
2024-01-05 11:29:55.091 [47] [FixSender] (DEBUG) Sending 8=FIX.4.4|9=58|35=0|49=FIXCLIENT1|56=DMA_HUB|34=238|52=20240105-10:29:55|10=098|
2024-01-05 11:29:58.405 [46] [FixSender] (DEBUG) Receiving 8=FIX.4.4|9=62|35=0|34=245|49=DMA_HUB|56=FIXCLIENT1|52=20240105-10:29:58.403|10=035|
2024-01-05 11:30:25.095 [47] [FixSender] (DEBUG) Sending 8=FIX.4.4|9=58|35=0|49=FIXCLIENT1|56=DMA_HUB|34=239|52=20240105-10:30:25|10=088|
2024-01-05 11:30:28.354 [46] [FixSender] (DEBUG) Receiving 8=FIX.4.4|9=62|35=0|34=246|49=DMA_HUB|56=FIXCLIENT1|52=20240105-10:30:28.354|10=030|
2024-01-05 11:30:55.096 [47] [FixSender] (DEBUG) Sending 8=FIX.4.4|9=58|35=0|49=FIXCLIENT1|56=DMA_HUB|34=240|52=20240105-10:30:55|10=083|
2024-01-05 11:30:58.309 [46] [FixSender] (DEBUG) Receiving 8=FIX.4.4|9=62|35=0|34=247|49=DMA_HUB|56=FIXCLIENT1|52=20240105-10:30:58.308|10=033|
2024-01-05 11:31:25.097 [47] [FixSender] (DEBUG) Sending 8=FIX.4.4|9=58|35=0|49=FIXCLIENT1|56=DMA_HUB|34=241|52=20240105-10:31:25|10=082|
2024-01-05 11:31:28.257 [46] [FixSender] (DEBUG) Receiving 8=FIX.4.4|9=62|35=0|34=248|49=DMA_HUB|56=FIXCLIENT1|52=20240105-10:31:28.256|10=034|
2024-01-05 11:31:55.098 [47] [FixSender] (DEBUG) Sending 8=FIX.4.4|9=58|35=0|49=FIXCLIENT1|56=DMA_HUB|34=242|52=20240105-10:31:55|10=086|
2024-01-05 11:31:58.215 [46] [FixSender] (DEBUG) Receiving 8=FIX.4.4|9=62|35=0|34=249|49=DMA_HUB|56=FIXCLIENT1|52=20240105-10:31:58.215|10=033|
2024-01-05 11:32:25.101 [47] [FixSender] (DEBUG) Sending 8=FIX.4.4|9=58|35=0|49=FIXCLIENT1|56=DMA_HUB|34=243|52=20240105-10:32:25|10=085|
2024-01-05 11:32:28.161 [46] [FixSender] (DEBUG) Receiving 8=FIX.4.4|9=62|35=0|34=250|49=DMA_HUB|56=FIXCLIENT1|52=20240105-10:32:28.160|10=022|
2024-01-05 11:32:55.103 [47] [FixSender] (DEBUG) Sending 8=FIX.4.4|9=58|35=0|49=FIXCLIENT1|56=DMA_HUB|34=244|52=20240105-10:32:55|10=089|
2024-01-05 11:32:58.123 [46] [FixSender] (DEBUG) Receiving 8=FIX.4.4|9=62|35=0|34=251|49=DMA_HUB|56=FIXCLIENT1|52=20240105-10:32:58.122|10=024|
2024-01-05 11:33:25.104 [47] [FixSender] (DEBUG) Sending 8=FIX.4.4|9=58|35=0|49=FIXCLIENT1|56=DMA_HUB|34=245|52=20240105-10:33:25|10=088|
2024-01-05 11:33:28.068 [46] [FixSender] (DEBUG) Receiving 8=FIX.4.4|9=62|35=0|34=252|49=DMA_HUB|56=FIXCLIENT1|52=20240105-10:33:28.067|10=031|
2024-01-05 11:33:55.106 [47] [FixSender] (DEBUG) Sending 8=FIX.4.4|9=58|35=0|49=FIXCLIENT1|56=DMA_HUB|34=246|52=20240105-10:33:55|10=092|
2024-01-05 11:33:58.024 [46] [FixSender] (DEBUG) Receiving 8=FIX.4.4|9=62|35=0|34=253|49=DMA_HUB|56=FIXCLIENT1|52=20240105-10:33:58.024|10=028|
2024-01-05 11:34:25.107 [47] [FixSender] (DEBUG) Sending 8=FIX.4.4|9=58|35=0|49=FIXCLIENT1|56=DMA_HUB|34=247|52=20240105-10:34:25|10=091|
2024-01-05 11:34:27.969 [46] [FixSender] (DEBUG) Receiving 8=FIX.4.4|9=62|35=0|34=254|49=DMA_HUB|56=FIXCLIENT1|52=20240105-10:34:27.969|10=044|
2024-01-05 11:34:55.108 [47] [FixSender] (DEBUG) Sending 8=FIX.4.4|9=58|35=0|49=FIXCLIENT1|56=DMA_HUB|34=248|52=20240105-10:34:55|10=095|
2024-01-05 11:34:57.931 [46] [FixSender] (DEBUG) Receiving 8=FIX.4.4|9=62|35=0|34=255|49=DMA_HUB|56=FIXCLIENT1|52=20240105-10:34:57.930|10=036|
2024-01-05 11:35:25.109 [47] [FixSender] (DEBUG) Sending 8=FIX.4.4|9=58|35=0|49=FIXCLIENT1|56=DMA_HUB|34=249|52=20240105-10:35:25|10=094|
2024-01-05 11:35:27.887 [46] [FixSender] (DEBUG) Receiving 8=FIX.4.4|9=62|35=0|34=256|49=DMA_HUB|56=FIXCLIENT1|52=20240105-10:35:27.886|10=045|
2024-01-05 11:35:55.109 [47] [FixSender] (DEBUG) Sending 8=FIX.4.4|9=58|35=0|49=FIXCLIENT1|56=DMA_HUB|34=250|52=20240105-10:35:55|10=089|
2024-01-05 11:35:57.829 [46] [FixSender] (DEBUG) Receiving 8=FIX.4.4|9=62|35=0|34=257|49=DMA_HUB|56=FIXCLIENT1|52=20240105-10:35:57.827|10=044|
2024-01-05 11:36:25.111 [47] [FixSender] (DEBUG) Sending 8=FIX.4.4|9=58|35=0|49=FIXCLIENT1|56=DMA_HUB|34=251|52=20240105-10:36:25|10=088|
2024-01-05 11:36:27.788 [46] [FixSender] (DEBUG) Receiving 8=FIX.4.4|9=62|35=0|34=258|49=DMA_HUB|56=FIXCLIENT1|52=20240105-10:36:27.788|10=049|
2024-01-05 11:36:55.114 [47] [FixSender] (DEBUG) Sending 8=FIX.4.4|9=58|35=0|49=FIXCLIENT1|56=DMA_HUB|34=252|52=20240105-10:36:55|10=092|
2024-01-05 11:36:57.730 [46] [FixSender] (DEBUG) Receiving 8=FIX.4.4|9=62|35=0|34=259|49=DMA_HUB|56=FIXCLIENT1|52=20240105-10:36:57.728|10=047|
2024-01-05 11:37:25.119 [47] [FixSender] (DEBUG) Sending 8=FIX.4.4|9=58|35=0|49=FIXCLIENT1|56=DMA_HUB|34=253|52=20240105-10:37:25|10=091|
2024-01-05 11:37:27.685 [46] [FixSender] (DEBUG) Receiving 8=FIX.4.4|9=62|35=0|34=260|49=DMA_HUB|56=FIXCLIENT1|52=20240105-10:37:27.685|10=039|
2024-01-05 11:37:55.120 [47] [FixSender] (DEBUG) Sending 8=FIX.4.4|9=58|35=0|49=FIXCLIENT1|56=DMA_HUB|34=254|52=20240105-10:37:55|10=095|
2024-01-05 11:37:57.645 [46] [FixSender] (DEBUG) Receiving 8=FIX.4.4|9=62|35=0|34=261|49=DMA_HUB|56=FIXCLIENT1|52=20240105-10:37:57.645|10=039|
2024-01-05 11:38:25.121 [47] [FixSender] (DEBUG) Sending 8=FIX.4.4|9=58|35=0|49=FIXCLIENT1|56=DMA_HUB|34=255|52=20240105-10:38:25|10=094|
2024-01-05 11:38:27.596 [46] [FixSender] (DEBUG) Receiving 8=FIX.4.4|9=62|35=0|34=262|49=DMA_HUB|56=FIXCLIENT1|52=20240105-10:38:27.596|10=043|
2024-01-05 11:38:55.142 [47] [FixSender] (DEBUG) Sending 8=FIX.4.4|9=58|35=0|49=FIXCLIENT1|56=DMA_HUB|34=256|52=20240105-10:38:55|10=098|
2024-01-05 11:38:57.545 [46] [FixSender] (DEBUG) Receiving 8=FIX.4.4|9=62|35=0|34=263|49=DMA_HUB|56=FIXCLIENT1|52=20240105-10:38:57.544|10=040|
2024-01-05 11:39:25.144 [47] [FixSender] (DEBUG) Sending 8=FIX.4.4|9=58|35=0|49=FIXCLIENT1|56=DMA_HUB|34=257|52=20240105-10:39:25|10=097|
2024-01-05 11:39:27.495 [46] [FixSender] (DEBUG) Receiving 8=FIX.4.4|9=62|35=0|34=264|49=DMA_HUB|56=FIXCLIENT1|52=20240105-10:39:27.495|10=044|
2024-01-05 11:39:55.146 [47] [FixSender] (DEBUG) Sending 8=FIX.4.4|9=58|35=0|49=FIXCLIENT1|56=DMA_HUB|34=258|52=20240105-10:39:55|10=101|
2024-01-05 11:39:57.453 [46] [FixSender] (DEBUG) Receiving 8=FIX.4.4|9=62|35=0|34=265|49=DMA_HUB|56=FIXCLIENT1|52=20240105-10:39:57.452|10=041|
2024-01-05 11:40:25.147 [47] [FixSender] (DEBUG) Sending 8=FIX.4.4|9=58|35=0|49=FIXCLIENT1|56=DMA_HUB|34=259|52=20240105-10:40:25|10=091|
2024-01-05 11:40:27.398 [46] [FixSender] (DEBUG) Receiving 8=FIX.4.4|9=62|35=0|34=266|49=DMA_HUB|56=FIXCLIENT1|52=20240105-10:40:27.397|10=039|
2024-01-05 11:40:55.150 [47] [FixSender] (DEBUG) Sending 8=FIX.4.4|9=58|35=0|49=FIXCLIENT1|56=DMA_HUB|34=260|52=20240105-10:40:55|10=086|
2024-01-05 11:40:57.350 [46] [FixSender] (DEBUG) Receiving 8=FIX.4.4|9=62|35=0|34=267|49=DMA_HUB|56=FIXCLIENT1|52=20240105-10:40:57.350|10=032|
2024-01-05 11:41:25.153 [47] [FixSender] (DEBUG) Sending 8=FIX.4.4|9=58|35=0|49=FIXCLIENT1|56=DMA_HUB|34=261|52=20240105-10:41:25|10=085|
2024-01-05 11:41:27.302 [46] [FixSender] (DEBUG) Receiving 8=FIX.4.4|9=62|35=0|34=268|49=DMA_HUB|56=FIXCLIENT1|52=20240105-10:41:27.302|10=028|
2024-01-05 11:41:55.155 [47] [FixSender] (DEBUG) Sending 8=FIX.4.4|9=58|35=0|49=FIXCLIENT1|56=DMA_HUB|34=262|52=20240105-10:41:55|10=089|
2024-01-05 11:41:57.258 [46] [FixSender] (DEBUG) Receiving 8=FIX.4.4|9=62|35=0|34=269|49=DMA_HUB|56=FIXCLIENT1|52=20240105-10:41:57.256|10=040|
2024-01-05 11:42:25.164 [47] [FixSender] (DEBUG) Sending 8=FIX.4.4|9=58|35=0|49=FIXCLIENT1|56=DMA_HUB|34=263|52=20240105-10:42:25|10=088|
2024-01-05 11:42:27.202 [46] [FixSender] (DEBUG) Receiving 8=FIX.4.4|9=62|35=0|34=270|49=DMA_HUB|56=FIXCLIENT1|52=20240105-10:42:27.201|10=020|
2024-01-05 11:42:55.167 [47] [FixSender] (DEBUG) Sending 8=FIX.4.4|9=58|35=0|49=FIXCLIENT1|56=DMA_HUB|34=264|52=20240105-10:42:55|10=092|
2024-01-05 11:42:57.162 [46] [FixSender] (DEBUG) Receiving 8=FIX.4.4|9=62|35=0|34=271|49=DMA_HUB|56=FIXCLIENT1|52=20240105-10:42:57.158|10=035|
2024-01-05 11:43:25.169 [47] [FixSender] (DEBUG) Sending 8=FIX.4.4|9=58|35=0|49=FIXCLIENT1|56=DMA_HUB|34=265|52=20240105-10:43:25|10=091|
2024-01-05 11:43:27.114 [46] [FixSender] (DEBUG) Receiving 8=FIX.4.4|9=62|35=0|34=272|49=DMA_HUB|56=FIXCLIENT1|52=20240105-10:43:27.114|10=026|
2024-01-05 11:43:55.172 [47] [FixSender] (DEBUG) Sending 8=FIX.4.4|9=58|35=0|49=FIXCLIENT1|56=DMA_HUB|34=266|52=20240105-10:43:55|10=095|
2024-01-05 11:43:57.064 [46] [FixSender] (DEBUG) Receiving 8=FIX.4.4|9=62|35=0|34=273|49=DMA_HUB|56=FIXCLIENT1|52=20240105-10:43:57.063|10=033|
2024-01-05 11:44:25.173 [47] [FixSender] (DEBUG) Sending 8=FIX.4.4|9=58|35=0|49=FIXCLIENT1|56=DMA_HUB|34=267|52=20240105-10:44:25|10=094|
2024-01-05 11:44:27.022 [46] [FixSender] (DEBUG) Receiving 8=FIX.4.4|9=62|35=0|34=274|49=DMA_HUB|56=FIXCLIENT1|52=20240105-10:44:27.021|10=026|
2024-01-05 11:44:55.175 [47] [FixSender] (DEBUG) Sending 8=FIX.4.4|9=58|35=0|49=FIXCLIENT1|56=DMA_HUB|34=268|52=20240105-10:44:55|10=098|
2024-01-05 11:44:56.963 [46] [FixSender] (DEBUG) Receiving 8=FIX.4.4|9=62|35=0|34=275|49=DMA_HUB|56=FIXCLIENT1|52=20240105-10:44:56.963|10=044|
2024-01-05 11:45:25.177 [47] [FixSender] (DEBUG) Sending 8=FIX.4.4|9=58|35=0|49=FIXCLIENT1|56=DMA_HUB|34=269|52=20240105-10:45:25|10=097|
2024-01-05 11:45:26.921 [46] [FixSender] (DEBUG) Receiving 8=FIX.4.4|9=62|35=0|34=276|49=DMA_HUB|56=FIXCLIENT1|52=20240105-10:45:26.920|10=036|
2024-01-05 11:45:55.191 [47] [FixSender] (DEBUG) Sending 8=FIX.4.4|9=58|35=0|49=FIXCLIENT1|56=DMA_HUB|34=270|52=20240105-10:45:55|10=092|
2024-01-05 11:45:56.874 [46] [FixSender] (DEBUG) Receiving 8=FIX.4.4|9=62|35=0|34=277|49=DMA_HUB|56=FIXCLIENT1|52=20240105-10:45:56.874|10=048|
2024-01-05 11:46:25.193 [47] [FixSender] (DEBUG) Sending 8=FIX.4.4|9=58|35=0|49=FIXCLIENT1|56=DMA_HUB|34=271|52=20240105-10:46:25|10=091|
2024-01-05 11:46:26.816 [46] [FixSender] (DEBUG) Receiving 8=FIX.4.4|9=62|35=0|34=278|49=DMA_HUB|56=FIXCLIENT1|52=20240105-10:46:26.815|10=042|
2024-01-05 11:46:55.197 [47] [FixSender] (DEBUG) Sending 8=FIX.4.4|9=58|35=0|49=FIXCLIENT1|56=DMA_HUB|34=272|52=20240105-10:46:55|10=095|
2024-01-05 11:46:56.779 [46] [FixSender] (DEBUG) Receiving 8=FIX.4.4|9=62|35=0|34=279|49=DMA_HUB|56=FIXCLIENT1|52=20240105-10:46:56.779|10=055|
2024-01-05 11:47:25.199 [47] [FixSender] (DEBUG) Sending 8=FIX.4.4|9=58|35=0|49=FIXCLIENT1|56=DMA_HUB|34=273|52=20240105-10:47:25|10=094|
2024-01-05 11:47:26.734 [46] [FixSender] (DEBUG) Receiving 8=FIX.4.4|9=62|35=0|34=280|49=DMA_HUB|56=FIXCLIENT1|52=20240105-10:47:26.734|10=036|
2024-01-05 11:47:55.200 [47] [FixSender] (DEBUG) Sending 8=FIX.4.4|9=58|35=0|49=FIXCLIENT1|56=DMA_HUB|34=274|52=20240105-10:47:55|10=098|
2024-01-05 11:47:56.683 [46] [FixSender] (DEBUG) Receiving 8=FIX.4.4|9=62|35=0|34=281|49=DMA_HUB|56=FIXCLIENT1|52=20240105-10:47:56.682|10=042|
2024-01-05 11:48:25.202 [47] [FixSender] (DEBUG) Sending 8=FIX.4.4|9=58|35=0|49=FIXCLIENT1|56=DMA_HUB|34=275|52=20240105-10:48:25|10=097|
2024-01-05 11:48:26.638 [46] [FixSender] (DEBUG) Receiving 8=FIX.4.4|9=62|35=0|34=282|49=DMA_HUB|56=FIXCLIENT1|52=20240105-10:48:26.638|10=042|
2024-01-05 11:48:55.204 [47] [FixSender] (DEBUG) Sending 8=FIX.4.4|9=58|35=0|49=FIXCLIENT1|56=DMA_HUB|34=276|52=20240105-10:48:55|10=101|
2024-01-05 11:48:56.580 [46] [FixSender] (DEBUG) Receiving 8=FIX.4.4|9=62|35=0|34=283|49=DMA_HUB|56=FIXCLIENT1|52=20240105-10:48:56.579|10=050|
2024-01-05 11:49:25.204 [47] [FixSender] (DEBUG) Sending 8=FIX.4.4|9=58|35=0|49=FIXCLIENT1|56=DMA_HUB|34=277|52=20240105-10:49:25|10=100|
2024-01-05 11:49:26.534 [46] [FixSender] (DEBUG) Receiving 8=FIX.4.4|9=62|35=0|34=284|49=DMA_HUB|56=FIXCLIENT1|52=20240105-10:49:26.533|10=039|
2024-01-05 11:49:55.207 [47] [FixSender] (DEBUG) Sending 8=FIX.4.4|9=58|35=0|49=FIXCLIENT1|56=DMA_HUB|34=278|52=20240105-10:49:55|10=104|
2024-01-05 11:49:56.481 [46] [FixSender] (DEBUG) Receiving 8=FIX.4.4|9=62|35=0|34=285|49=DMA_HUB|56=FIXCLIENT1|52=20240105-10:49:56.481|10=045|
2024-01-05 11:50:25.208 [47] [FixSender] (DEBUG) Sending 8=FIX.4.4|9=58|35=0|49=FIXCLIENT1|56=DMA_HUB|34=279|52=20240105-10:50:25|10=094|
2024-01-05 11:50:26.442 [46] [FixSender] (DEBUG) Receiving 8=FIX.4.4|9=62|35=0|34=286|49=DMA_HUB|56=FIXCLIENT1|52=20240105-10:50:26.441|10=031|
2024-01-05 11:50:55.212 [47] [FixSender] (DEBUG) Sending 8=FIX.4.4|9=58|35=0|49=FIXCLIENT1|56=DMA_HUB|34=280|52=20240105-10:50:55|10=089|
2024-01-05 11:50:56.384 [46] [FixSender] (DEBUG) Receiving 8=FIX.4.4|9=62|35=0|34=287|49=DMA_HUB|56=FIXCLIENT1|52=20240105-10:50:56.384|10=041|
2024-01-05 11:51:25.226 [47] [FixSender] (DEBUG) Sending 8=FIX.4.4|9=58|35=0|49=FIXCLIENT1|56=DMA_HUB|34=281|52=20240105-10:51:25|10=088|
2024-01-05 11:51:26.342 [46] [FixSender] (DEBUG) Receiving 8=FIX.4.4|9=62|35=0|34=288|49=DMA_HUB|56=FIXCLIENT1|52=20240105-10:51:26.342|10=034|
2024-01-05 11:51:55.226 [47] [FixSender] (DEBUG) Sending 8=FIX.4.4|9=58|35=0|49=FIXCLIENT1|56=DMA_HUB|34=282|52=20240105-10:51:55|10=092|
2024-01-05 11:51:56.297 [46] [FixSender] (DEBUG) Receiving 8=FIX.4.4|9=62|35=0|34=289|49=DMA_HUB|56=FIXCLIENT1|52=20240105-10:51:56.296|10=046|
2024-01-05 11:52:25.228 [47] [FixSender] (DEBUG) Sending 8=FIX.4.4|9=58|35=0|49=FIXCLIENT1|56=DMA_HUB|34=283|52=20240105-10:52:25|10=091|
2024-01-05 11:52:26.247 [46] [FixSender] (DEBUG) Receiving 8=FIX.4.4|9=62|35=0|34=290|49=DMA_HUB|56=FIXCLIENT1|52=20240105-10:52:26.247|10=032|
2024-01-05 11:52:55.229 [47] [FixSender] (DEBUG) Sending 8=FIX.4.4|9=58|35=0|49=FIXCLIENT1|56=DMA_HUB|34=284|52=20240105-10:52:55|10=095|
2024-01-05 11:52:56.197 [46] [FixSender] (DEBUG) Receiving 8=FIX.4.4|9=62|35=0|34=291|49=DMA_HUB|56=FIXCLIENT1|52=20240105-10:52:56.196|10=039|
2024-01-05 11:53:25.242 [47] [FixSender] (DEBUG) Sending 8=FIX.4.4|9=58|35=0|49=FIXCLIENT1|56=DMA_HUB|34=285|52=20240105-10:53:25|10=094|
2024-01-05 11:53:26.170 [46] [FixSender] (DEBUG) Receiving 8=FIX.4.4|9=62|35=0|34=292|49=DMA_HUB|56=FIXCLIENT1|52=20240105-10:53:26.169|10=038|
2024-01-05 11:53:55.243 [47] [FixSender] (DEBUG) Sending 8=FIX.4.4|9=58|35=0|49=FIXCLIENT1|56=DMA_HUB|34=286|52=20240105-10:53:55|10=098|
2024-01-05 11:53:56.169 [46] [FixSender] (DEBUG) Receiving 8=FIX.4.4|9=62|35=0|34=293|49=DMA_HUB|56=FIXCLIENT1|52=20240105-10:53:56.168|10=041|
2024-01-05 11:54:25.245 [47] [FixSender] (DEBUG) Sending 8=FIX.4.4|9=58|35=0|49=FIXCLIENT1|56=DMA_HUB|34=287|52=20240105-10:54:25|10=097|
2024-01-05 11:54:26.123 [46] [FixSender] (DEBUG) Receiving 8=FIX.4.4|9=62|35=0|34=294|49=DMA_HUB|56=FIXCLIENT1|52=20240105-10:54:26.123|10=031|
2024-01-05 11:54:55.248 [47] [FixSender] (DEBUG) Sending 8=FIX.4.4|9=58|35=0|49=FIXCLIENT1|56=DMA_HUB|34=288|52=20240105-10:54:55|10=101|
2024-01-05 11:54:56.069 [46] [FixSender] (DEBUG) Receiving 8=FIX.4.4|9=62|35=0|34=295|49=DMA_HUB|56=FIXCLIENT1|52=20240105-10:54:56.068|10=043|
2024-01-05 11:55:25.249 [47] [FixSender] (DEBUG) Sending 8=FIX.4.4|9=58|35=0|49=FIXCLIENT1|56=DMA_HUB|34=289|52=20240105-10:55:25|10=100|
2024-01-05 11:55:26.029 [46] [FixSender] (DEBUG) Receiving 8=FIX.4.4|9=62|35=0|34=296|49=DMA_HUB|56=FIXCLIENT1|52=20240105-10:55:26.028|10=038|
2024-01-05 11:55:55.252 [47] [FixSender] (DEBUG) Sending 8=FIX.4.4|9=58|35=0|49=FIXCLIENT1|56=DMA_HUB|34=290|52=20240105-10:55:55|10=095|
2024-01-05 11:55:55.921 [46] [FixSender] (DEBUG) Receiving 8=FIX.4.4|9=62|35=0|34=297|49=DMA_HUB|56=FIXCLIENT1|52=20240105-10:55:55.919|10=050|
2024-01-05 11:56:25.254 [47] [FixSender] (DEBUG) Sending 8=FIX.4.4|9=58|35=0|49=FIXCLIENT1|56=DMA_HUB|34=291|52=20240105-10:56:25|10=094|
2024-01-05 11:56:25.932 [46] [FixSender] (DEBUG) Receiving 8=FIX.4.4|9=62|35=0|34=298|49=DMA_HUB|56=FIXCLIENT1|52=20240105-10:56:25.932|10=044|
2024-01-05 11:56:55.259 [47] [FixSender] (DEBUG) Sending 8=FIX.4.4|9=58|35=0|49=FIXCLIENT1|56=DMA_HUB|34=292|52=20240105-10:56:55|10=098|
2024-01-05 11:56:55.879 [46] [FixSender] (DEBUG) Receiving 8=FIX.4.4|9=62|35=0|34=299|49=DMA_HUB|56=FIXCLIENT1|52=20240105-10:56:55.879|10=058|
2024-01-05 11:57:25.272 [47] [FixSender] (DEBUG) Sending 8=FIX.4.4|9=58|35=0|49=FIXCLIENT1|56=DMA_HUB|34=293|52=20240105-10:57:25|10=097|
2024-01-05 11:57:25.835 [46] [FixSender] (DEBUG) Receiving 8=FIX.4.4|9=62|35=0|34=300|49=DMA_HUB|56=FIXCLIENT1|52=20240105-10:57:25.834|10=030|
2024-01-05 11:57:55.274 [47] [FixSender] (DEBUG) Sending 8=FIX.4.4|9=58|35=0|49=FIXCLIENT1|56=DMA_HUB|34=294|52=20240105-10:57:55|10=101|
2024-01-05 11:57:55.787 [46] [FixSender] (DEBUG) Receiving 8=FIX.4.4|9=62|35=0|34=301|49=DMA_HUB|56=FIXCLIENT1|52=20240105-10:57:55.785|10=039|
2024-01-05 11:58:25.277 [47] [FixSender] (DEBUG) Sending 8=FIX.4.4|9=58|35=0|49=FIXCLIENT1|56=DMA_HUB|34=295|52=20240105-10:58:25|10=100|
2024-01-05 11:58:25.736 [46] [FixSender] (DEBUG) Receiving 8=FIX.4.4|9=62|35=0|34=302|49=DMA_HUB|56=FIXCLIENT1|52=20240105-10:58:25.730|10=028|
2024-01-05 11:58:55.278 [47] [FixSender] (DEBUG) Sending 8=FIX.4.4|9=58|35=0|49=FIXCLIENT1|56=DMA_HUB|34=296|52=20240105-10:58:55|10=104|
2024-01-05 11:58:55.754 [46] [FixSender] (DEBUG) Receiving 8=FIX.4.4|9=62|35=0|34=303|49=DMA_HUB|56=FIXCLIENT1|52=20240105-10:58:55.753|10=037|
2024-01-05 11:59:25.280 [47] [FixSender] (DEBUG) Sending 8=FIX.4.4|9=58|35=0|49=FIXCLIENT1|56=DMA_HUB|34=297|52=20240105-10:59:25|10=103|
2024-01-05 11:59:25.706 [46] [FixSender] (DEBUG) Receiving 8=FIX.4.4|9=62|35=0|34=304|49=DMA_HUB|56=FIXCLIENT1|52=20240105-10:59:25.705|10=033|
2024-01-05 11:59:55.282 [47] [FixSender] (DEBUG) Sending 8=FIX.4.4|9=58|35=0|49=FIXCLIENT1|56=DMA_HUB|34=298|52=20240105-10:59:55|10=107|
2024-01-05 11:59:55.656 [46] [FixSender] (DEBUG) Receiving 8=FIX.4.4|9=62|35=0|34=305|49=DMA_HUB|56=FIXCLIENT1|52=20240105-10:59:55.656|10=042|
2024-01-05 12:00:25.287 [47] [FixSender] (DEBUG) Sending 8=FIX.4.4|9=58|35=0|49=FIXCLIENT1|56=DMA_HUB|34=299|52=20240105-11:00:25|10=092|
2024-01-05 12:00:25.615 [46] [FixSender] (DEBUG) Receiving 8=FIX.4.4|9=62|35=0|34=306|49=DMA_HUB|56=FIXCLIENT1|52=20240105-11:00:25.612|10=019|
2024-01-05 12:00:55.289 [47] [FixSender] (DEBUG) Sending 8=FIX.4.4|9=58|35=0|49=FIXCLIENT1|56=DMA_HUB|34=300|52=20240105-11:00:55|10=078|
2024-01-05 12:00:55.558 [46] [FixSender] (DEBUG) Receiving 8=FIX.4.4|9=62|35=0|34=307|49=DMA_HUB|56=FIXCLIENT1|52=20240105-11:00:55.557|10=031|
2024-01-05 12:01:25.293 [47] [FixSender] (DEBUG) Sending 8=FIX.4.4|9=58|35=0|49=FIXCLIENT1|56=DMA_HUB|34=301|52=20240105-11:01:25|10=077|
2024-01-05 12:01:25.513 [46] [FixSender] (DEBUG) Receiving 8=FIX.4.4|9=62|35=0|34=308|49=DMA_HUB|56=FIXCLIENT1|52=20240105-11:01:25.510|10=019|
2024-01-05 12:01:55.296 [47] [FixSender] (DEBUG) Sending 8=FIX.4.4|9=58|35=0|49=FIXCLIENT1|56=DMA_HUB|34=302|52=20240105-11:01:55|10=081|
2024-01-05 12:01:55.461 [46] [FixSender] (DEBUG) Receiving 8=FIX.4.4|9=62|35=0|34=309|49=DMA_HUB|56=FIXCLIENT1|52=20240105-11:01:55.459|10=035|
2024-01-05 12:02:25.297 [47] [FixSender] (DEBUG) Sending 8=FIX.4.4|9=58|35=0|49=FIXCLIENT1|56=DMA_HUB|34=303|52=20240105-11:02:25|10=080|
2024-01-05 12:02:25.418 [46] [FixSender] (DEBUG) Receiving 8=FIX.4.4|9=62|35=0|34=310|49=DMA_HUB|56=FIXCLIENT1|52=20240105-11:02:25.416|10=018|
2024-01-05 12:02:55.300 [47] [FixSender] (DEBUG) Sending 8=FIX.4.4|9=58|35=0|49=FIXCLIENT1|56=DMA_HUB|34=304|52=20240105-11:02:55|10=084|
2024-01-05 12:02:55.361 [46] [FixSender] (DEBUG) Receiving 8=FIX.4.4|9=62|35=0|34=311|49=DMA_HUB|56=FIXCLIENT1|52=20240105-11:02:55.360|10=020|
2024-01-05 12:03:25.301 [47] [FixSender] (DEBUG) Sending 8=FIX.4.4|9=58|35=0|49=FIXCLIENT1|56=DMA_HUB|34=305|52=20240105-11:03:25|10=083|
