2024-07-31 09:48:34.466 [1] [Fixsender] (INFO) (c) 2001-2011 ullink SAS. FixSender. Release 1.11.
2024-07-31 09:48:45.444 [35] [FixSender] (INFO) try to connect to : localhost port :12345
2024-07-31 09:48:45.451 [35] [FixSender] (INFO) physical cnx initiated
2024-07-31 09:48:45.460 [35] [FixSender] (DEBUG) Sending 8=FIX.4.4|9=88|35=A|49=FIXCLIENT1|56=DMA_HUB|34=139|52=20240731-07:48:45|98=0|108=30|95=9|96=null/null|10=209|
2024-07-31 09:48:45.464 [35] [FixSender] (DEBUG) Receiving 8=FIX.4.4|9=72|35=A|34=1|49=DMA_HUB|56=FIXCLIENT1|52=20240731-07:48:45.462|108=30|98=0|10=241|
2024-07-31 09:48:45.466 [35] [FixSender] (DEBUG) Sending 8=FIX.4.4|9=110|35=5|49=FIXCLIENT1|56=DMA_HUB|34=140|52=20240731-07:48:45|58=MsgSeqNum expected 196, but MsgSeqNum received 1|10=219|
2024-07-31 09:48:45.466 [35] [FixSender] (INFO) physical cnx finished Connection reset by peer
2024-07-31 09:48:45.466 [35] [FixSender] (WARNING) Disconnected
2024-07-31 09:48:47.526 [39] [FixSender] (INFO) try to connect to : localhost port :12345
2024-07-31 09:48:47.526 [39] [FixSender] (INFO) physical cnx initiated
2024-07-31 09:48:47.529 [39] [FixSender] (DEBUG) Sending 8=FIX.4.4|9=86|35=A|49=FIXCLIENT1|56=DMA_HUB|34=1|52=20240731-07:48:47|98=0|108=30|95=9|96=null/null|10=101|
2024-07-31 09:48:47.530 [39] [FixSender] (DEBUG) Receiving 8=FIX.4.4|9=72|35=A|34=4|49=DMA_HUB|56=FIXCLIENT1|52=20240731-07:48:47.529|108=30|98=0|10=250|
2024-07-31 09:48:47.530 [39] [FixSender] (WARNING) The Fix connection is open...
2024-07-31 09:48:47.531 [39] [FixSender] (DEBUG) Sending 8=FIX.4.4|9=65|35=2|49=FIXCLIENT1|56=DMA_HUB|34=2|52=20240731-07:48:47|7=1|16=0|10=127|
2024-07-31 09:48:47.533 [39] [FixSender] (DEBUG) Receiving 8=FIX.4.4|9=102|35=4|34=1|49=DMA_HUB|56=FIXCLIENT1|52=20240731-07:48:47.533|43=Y|122=20240731-07:48:47.533|36=5|123=Y|10=011|
2024-07-31 09:48:57.491 [42] [FixSender] (DEBUG) Sending 8=FIX.4.4|9=194|35=D|49=FIXCLIENT1|56=DMA_HUB|34=3|52=20240731-07:48:57|21=1|11=HS_17224121370|38=200|55=E:07G@XETR|54=1|60=20240731-07:48:57|40=2|59=0|44=197.11|48=US3390411052|22=4|15=EUR|207=XETR|1=bram_123|10=194|
2024-07-31 09:48:57.498 [39] [FixSender] (DEBUG) Receiving 8=FIX.4.4|9=235|35=8|34=5|49=DMA_HUB|56=FIXCLIENT1|52=20240731-07:48:57.498|11=HS_17224121370|37=FXP8H1lOG|54=1|40=2|59=0|17=202407311|150=A|39=A|38=200|151=200|14=0|6=0|44=197.11|60=20240731-07:48:57.000|22=4|48=US3390411052|207=XETR|15=EUR|55=[N/A]|10=196|
2024-07-31 09:49:06.088 [43] [FixSender] (DEBUG) Sending 8=FIX.4.4|9=194|35=D|49=FIXCLIENT1|56=DMA_HUB|34=4|52=20240731-07:49:06|21=1|11=HS_17224121461|38=200|55=E:07G@XETR|54=1|60=20240731-07:49:06|40=2|59=0|44=197.11|48=US3390411052|22=4|15=EUR|207=XETR|1=bram_123|10=186|
2024-07-31 09:49:06.090 [39] [FixSender] (DEBUG) Receiving 8=FIX.4.4|9=235|35=8|34=6|49=DMA_HUB|56=FIXCLIENT1|52=20240731-07:49:06.089|11=HS_17224121461|37=FXQ8H1lOG|54=1|40=2|59=0|17=202407312|150=A|39=A|38=200|151=200|14=0|6=0|44=197.11|60=20240731-07:49:06.000|22=4|48=US3390411052|207=XETR|15=EUR|55=[N/A]|10=186|
2024-07-31 09:49:06.209 [44] [FixSender] (DEBUG) Sending 8=FIX.4.4|9=194|35=D|49=FIXCLIENT1|56=DMA_HUB|34=5|52=20240731-07:49:06|21=1|11=HS_17224121462|38=200|55=E:07G@XETR|54=1|60=20240731-07:49:06|40=2|59=0|44=197.11|48=US3390411052|22=4|15=EUR|207=XETR|1=bram_123|10=188|
2024-07-31 09:49:06.210 [39] [FixSender] (DEBUG) Receiving 8=FIX.4.4|9=235|35=8|34=7|49=DMA_HUB|56=FIXCLIENT1|52=20240731-07:49:06.210|11=HS_17224121462|37=FXR8H1lOG|54=1|40=2|59=0|17=202407313|150=A|39=A|38=200|151=200|14=0|6=0|44=197.11|60=20240731-07:49:06.000|22=4|48=US3390411052|207=XETR|15=EUR|55=[N/A]|10=176|
2024-07-31 09:49:17.529 [39] [FixSender] (DEBUG) Receiving 8=FIX.4.4|9=60|35=0|34=8|49=DMA_HUB|56=FIXCLIENT1|52=20240731-07:49:17.529|10=207|
2024-07-31 09:49:36.215 [40] [FixSender] (DEBUG) Sending 8=FIX.4.4|9=56|35=0|49=FIXCLIENT1|56=DMA_HUB|34=6|52=20240731-07:49:36|10=005|
2024-07-31 09:49:45.171 [46] [FixSender] (DEBUG) Sending 8=FIX.4.4|9=191|35=D|49=FIXCLIENT1|56=DMA_HUB|34=7|52=20240731-07:49:45|21=1|11=HS_17224121850|38=200|55=E:07G@XETR|54=1|60=20240731-07:49:45|40=2|59=0|44=197|48=US3390411052|22=4|15=EUR|207=XETR|1=bram_123|10=050|
2024-07-31 09:49:45.173 [39] [FixSender] (DEBUG) Receiving 8=FIX.4.4|9=232|35=8|34=9|49=DMA_HUB|56=FIXCLIENT1|52=20240731-07:49:45.172|11=HS_17224121850|37=FXS8H1lOG|54=1|40=2|59=0|17=202407314|150=A|39=A|38=200|151=200|14=0|6=0|44=197|60=20240731-07:49:45.000|22=4|48=US3390411052|207=XETR|15=EUR|55=[N/A]|10=047|
2024-07-31 09:49:46.151 [47] [FixSender] (DEBUG) Sending 8=FIX.4.4|9=191|35=D|49=FIXCLIENT1|56=DMA_HUB|34=8|52=20240731-07:49:46|21=1|11=HS_17224121861|38=200|55=E:07G@XETR|54=1|60=20240731-07:49:46|40=2|59=0|44=197|48=US3390411052|22=4|15=EUR|207=XETR|1=bram_123|10=055|
2024-07-31 09:49:46.153 [39] [FixSender] (DEBUG) Receiving 8=FIX.4.4|9=233|35=8|34=10|49=DMA_HUB|56=FIXCLIENT1|52=20240731-07:49:46.152|11=HS_17224121861|37=FXT8H1lOG|54=1|40=2|59=0|17=202407315|150=A|39=A|38=200|151=200|14=0|6=0|44=197|60=20240731-07:49:46.000|22=4|48=US3390411052|207=XETR|15=EUR|55=[N/A]|10=092|
2024-07-31 09:49:47.482 [39] [FixSender] (DEBUG) Receiving 8=FIX.4.4|9=61|35=0|34=11|49=DMA_HUB|56=FIXCLIENT1|52=20240731-07:49:47.482|10=251|
2024-07-31 09:49:47.606 [48] [FixSender] (DEBUG) Sending 8=FIX.4.4|9=191|35=D|49=FIXCLIENT1|56=DMA_HUB|34=9|52=20240731-07:49:47|21=1|11=HS_17224121872|38=200|55=E:07G@XETR|54=1|60=20240731-07:49:47|40=2|59=0|44=197|48=US3390411052|22=4|15=EUR|207=XETR|1=bram_123|10=060|
2024-07-31 09:49:47.607 [39] [FixSender] (DEBUG) Receiving 8=FIX.4.4|9=233|35=8|34=12|49=DMA_HUB|56=FIXCLIENT1|52=20240731-07:49:47.607|11=HS_17224121872|37=FXU8H1lOG|54=1|40=2|59=0|17=202407316|150=A|39=A|38=200|151=200|14=0|6=0|44=197|60=20240731-07:49:47.000|22=4|48=US3390411052|207=XETR|15=EUR|55=[N/A]|10=105|
2024-07-31 09:49:48.154 [49] [FixSender] (DEBUG) Sending 8=FIX.4.4|9=192|35=D|49=FIXCLIENT1|56=DMA_HUB|34=10|52=20240731-07:49:48|21=1|11=HS_17224121883|38=200|55=E:07G@XETR|54=1|60=20240731-07:49:48|40=2|59=0|44=197|48=US3390411052|22=4|15=EUR|207=XETR|1=bram_123|10=105|
2024-07-31 09:49:48.155 [39] [FixSender] (DEBUG) Receiving 8=FIX.4.4|9=233|35=8|34=13|49=DMA_HUB|56=FIXCLIENT1|52=20240731-07:49:48.155|11=HS_17224121883|37=FXV8H1lOG|54=1|40=2|59=0|17=202407317|150=A|39=A|38=200|151=200|14=0|6=0|44=197|60=20240731-07:49:48.000|22=4|48=US3390411052|207=XETR|15=EUR|55=[N/A]|10=110|
2024-07-31 09:49:48.629 [50] [FixSender] (DEBUG) Sending 8=FIX.4.4|9=192|35=D|49=FIXCLIENT1|56=DMA_HUB|34=11|52=20240731-07:49:48|21=1|11=HS_17224121884|38=200|55=E:07G@XETR|54=1|60=20240731-07:49:48|40=2|59=0|44=197|48=US3390411052|22=4|15=EUR|207=XETR|1=bram_123|10=107|
2024-07-31 09:49:48.630 [39] [FixSender] (DEBUG) Receiving 8=FIX.4.4|9=233|35=8|34=14|49=DMA_HUB|56=FIXCLIENT1|52=20240731-07:49:48.630|11=HS_17224121884|37=FXW8H1lOG|54=1|40=2|59=0|17=202407318|150=A|39=A|38=200|151=200|14=0|6=0|44=197|60=20240731-07:49:48.000|22=4|48=US3390411052|207=XETR|15=EUR|55=[N/A]|10=112|
2024-07-31 09:50:06.956 [51] [FixSender] (DEBUG) Sending 8=FIX.4.4|9=192|35=D|49=FIXCLIENT1|56=DMA_HUB|34=12|52=20240731-07:50:06|21=1|11=HS_17224122063|38=200|55=E:07G@XETR|54=1|60=20240731-07:50:06|40=2|59=0|44=197|48=US3390411052|22=4|15=EUR|207=XETR|1=bram_123|10=070|
2024-07-31 09:50:06.958 [39] [FixSender] (DEBUG) Receiving 8=FIX.4.4|9=233|35=8|34=15|49=DMA_HUB|56=FIXCLIENT1|52=20240731-07:50:06.958|11=HS_17224122063|37=FXX8H1lOG|54=1|40=2|59=0|17=202407319|150=A|39=A|38=200|151=200|14=0|6=0|44=197|60=20240731-07:50:06.000|22=4|48=US3390411052|207=XETR|15=EUR|55=[N/A]|10=090|
2024-07-31 09:50:06.963 [39] [FixSender] (DEBUG) Receiving 8=FIX.4.4|9=249|35=8|34=16|49=DMA_HUB|56=FIXCLIENT1|52=20240731-07:50:06.963|11=HS_17224122063|37=FXX8H1lOG|198=aGDLp1d0eb|54=1|40=2|59=0|17=2024073110|150=0|39=0|38=200|151=200|14=0|6=0|44=197|60=20240731-07:50:06.959|22=4|48=US3390411052|207=XETR|15=EUR|55=[N/A]|10=143|
2024-07-31 09:50:06.971 [39] [FixSender] (DEBUG) Receiving 8=FIX.4.4|9=309|35=8|34=17|49=DMA_HUB|56=FIXCLIENT1|52=20240731-07:50:06.970|11=HS_17224122063|37=FXX8H1lOG|198=aGDLp1d0eb|54=1|32=200|31=103|17=2024073111|527=BbGDLp1|150=F|39=2|38=200|151=0|14=200|6=103|44=197|60=20240731-07:50:06.960|22=4|48=US3390411052|207=XETR|15=EUR|55=[N/A]|453=1|448=strmrepl|447=D|452=17|40=2|59=0|10=039|
2024-07-31 09:50:08.401 [52] [FixSender] (DEBUG) Sending 8=FIX.4.4|9=192|35=D|49=FIXCLIENT1|56=DMA_HUB|34=13|52=20240731-07:50:08|21=1|11=HS_17224122084|38=200|55=E:07G@XETR|54=1|60=20240731-07:50:08|40=2|59=0|44=197|48=US3390411052|22=4|15=EUR|207=XETR|1=bram_123|10=078|
2024-07-31 09:50:08.403 [39] [FixSender] (DEBUG) Receiving 8=FIX.4.4|9=234|35=8|34=18|49=DMA_HUB|56=FIXCLIENT1|52=20240731-07:50:08.402|11=HS_17224122084|37=FXY8H1lOG|54=1|40=2|59=0|17=2024073112|150=A|39=A|38=200|151=200|14=0|6=0|44=197|60=20240731-07:50:08.000|22=4|48=US3390411052|207=XETR|15=EUR|55=[N/A]|10=128|
2024-07-31 09:50:08.405 [39] [FixSender] (DEBUG) Receiving 8=FIX.4.4|9=249|35=8|34=19|49=DMA_HUB|56=FIXCLIENT1|52=20240731-07:50:08.405|11=HS_17224122084|37=FXY8H1lOG|198=aGDLp1d371|54=1|40=2|59=0|17=2024073113|150=0|39=0|38=200|151=200|14=0|6=0|44=197|60=20240731-07:50:08.403|22=4|48=US3390411052|207=XETR|15=EUR|55=[N/A]|10=040|
2024-07-31 09:50:08.406 [39] [FixSender] (DEBUG) Receiving 8=FIX.4.4|9=309|35=8|34=20|49=DMA_HUB|56=FIXCLIENT1|52=20240731-07:50:08.406|11=HS_17224122084|37=FXY8H1lOG|198=aGDLp1d371|54=1|32=200|31=103|17=2024073114|527=BbGDLp2|150=F|39=2|38=200|151=0|14=200|6=103|44=197|60=20240731-07:50:08.403|22=4|48=US3390411052|207=XETR|15=EUR|55=[N/A]|453=1|448=strmrepl|447=D|452=17|40=2|59=0|10=195|
2024-07-31 09:50:09.367 [53] [FixSender] (DEBUG) Sending 8=FIX.4.4|9=192|35=D|49=FIXCLIENT1|56=DMA_HUB|34=14|52=20240731-07:50:09|21=1|11=HS_17224122095|38=200|55=E:07G@XETR|54=1|60=20240731-07:50:09|40=2|59=0|44=197|48=US3390411052|22=4|15=EUR|207=XETR|1=bram_123|10=083|
2024-07-31 09:50:09.370 [39] [FixSender] (DEBUG) Receiving 8=FIX.4.4|9=234|35=8|34=21|49=DMA_HUB|56=FIXCLIENT1|52=20240731-07:50:09.369|11=HS_17224122095|37=FXZ8H1lOG|54=1|40=2|59=0|17=2024073115|150=A|39=A|38=200|151=200|14=0|6=0|44=197|60=20240731-07:50:09.000|22=4|48=US3390411052|207=XETR|15=EUR|55=[N/A]|10=142|
2024-07-31 09:50:09.371 [39] [FixSender] (DEBUG) Receiving 8=FIX.4.4|9=249|35=8|34=22|49=DMA_HUB|56=FIXCLIENT1|52=20240731-07:50:09.371|11=HS_17224122095|37=FXZ8H1lOG|198=aGDLp1d52d|54=1|40=2|59=0|17=2024073116|150=0|39=0|38=200|151=200|14=0|6=0|44=197|60=20240731-07:50:09.370|22=4|48=US3390411052|207=XETR|15=EUR|55=[N/A]|10=095|
2024-07-31 09:50:09.372 [39] [FixSender] (DEBUG) Receiving 8=FIX.4.4|9=309|35=8|34=23|49=DMA_HUB|56=FIXCLIENT1|52=20240731-07:50:09.372|11=HS_17224122095|37=FXZ8H1lOG|198=aGDLp1d52d|54=1|32=200|31=103|17=2024073117|527=BbGDLp3|150=F|39=2|38=200|151=0|14=200|6=103|44=197|60=20240731-07:50:09.370|22=4|48=US3390411052|207=XETR|15=EUR|55=[N/A]|453=1|448=strmrepl|447=D|452=17|40=2|59=0|10=004|
2024-07-31 09:50:17.433 [39] [FixSender] (DEBUG) Receiving 8=FIX.4.4|9=61|35=0|34=24|49=DMA_HUB|56=FIXCLIENT1|52=20240731-07:50:17.433|10=240|
2024-07-31 09:50:39.367 [40] [FixSender] (DEBUG) Sending 8=FIX.4.4|9=57|35=0|49=FIXCLIENT1|56=DMA_HUB|34=15|52=20240731-07:50:39|10=049|
2024-07-31 09:50:47.386 [39] [FixSender] (DEBUG) Receiving 8=FIX.4.4|9=61|35=0|34=25|49=DMA_HUB|56=FIXCLIENT1|52=20240731-07:50:47.385|10=250|
2024-07-31 09:50:48.017 [54] [FixSender] (DEBUG) Sending 8=FIX.4.4|9=192|35=D|49=FIXCLIENT1|56=DMA_HUB|34=16|52=20240731-07:50:48|21=1|11=HS_17224122485|38=200|55=E:07G@XETR|54=1|60=20240731-07:50:48|40=2|59=0|44=197|48=US3390411052|22=4|15=EUR|207=XETR|1=bram_123|10=094|
2024-07-31 09:50:48.019 [39] [FixSender] (DEBUG) Receiving 8=FIX.4.4|9=234|35=8|34=26|49=DMA_HUB|56=FIXCLIENT1|52=20240731-07:50:48.018|11=HS_17224122485|37=FXa8H1lOG|54=1|40=2|59=0|17=2024073118|150=A|39=A|38=200|151=200|14=0|6=0|44=197|60=20240731-07:50:48.000|22=4|48=US3390411052|207=XETR|15=EUR|55=[N/A]|10=157|
2024-07-31 09:50:48.022 [39] [FixSender] (DEBUG) Receiving 8=FIX.4.4|9=249|35=8|34=27|49=DMA_HUB|56=FIXCLIENT1|52=20240731-07:50:48.021|11=HS_17224122485|37=FXa8H1lOG|198=aGDLp218ac|54=1|40=2|59=0|17=2024073119|150=0|39=0|38=200|151=200|14=0|6=0|44=197|60=20240731-07:50:48.020|22=4|48=US3390411052|207=XETR|15=EUR|55=[N/A]|10=102|
2024-07-31 09:50:48.023 [39] [FixSender] (DEBUG) Receiving 8=FIX.4.4|9=309|35=8|34=28|49=DMA_HUB|56=FIXCLIENT1|52=20240731-07:50:48.023|11=HS_17224122485|37=FXa8H1lOG|198=aGDLp218ac|54=1|32=200|31=105|17=2024073120|527=BbGDLp4|150=F|39=2|38=200|151=0|14=200|6=105|44=197|60=20240731-07:50:48.020|22=4|48=US3390411052|207=XETR|15=EUR|55=[N/A]|453=1|448=strmrepl|447=D|452=17|40=2|59=0|10=008|
2024-07-31 09:50:48.634 [55] [FixSender] (DEBUG) Sending 8=FIX.4.4|9=192|35=D|49=FIXCLIENT1|56=DMA_HUB|34=17|52=20240731-07:50:48|21=1|11=HS_17224122486|38=200|55=E:07G@XETR|54=1|60=20240731-07:50:48|40=2|59=0|44=197|48=US3390411052|22=4|15=EUR|207=XETR|1=bram_123|10=096|
2024-07-31 09:50:48.636 [39] [FixSender] (DEBUG) Receiving 8=FIX.4.4|9=234|35=8|34=29|49=DMA_HUB|56=FIXCLIENT1|52=20240731-07:50:48.635|11=HS_17224122486|37=FXb8H1lOG|54=1|40=2|59=0|17=2024073121|150=A|39=A|38=200|151=200|14=0|6=0|44=197|60=20240731-07:50:48.000|22=4|48=US3390411052|207=XETR|15=EUR|55=[N/A]|10=161|
2024-07-31 09:50:48.640 [39] [FixSender] (DEBUG) Receiving 8=FIX.4.4|9=249|35=8|34=30|49=DMA_HUB|56=FIXCLIENT1|52=20240731-07:50:48.639|11=HS_17224122486|37=FXb8H1lOG|198=aGDLp219c8|54=1|40=2|59=0|17=2024073122|150=0|39=0|38=200|151=200|14=0|6=0|44=197|60=20240731-07:50:48.637|22=4|48=US3390411052|207=XETR|15=EUR|55=[N/A]|10=081|
2024-07-31 09:50:48.642 [39] [FixSender] (DEBUG) Receiving 8=FIX.4.4|9=309|35=8|34=31|49=DMA_HUB|56=FIXCLIENT1|52=20240731-07:50:48.642|11=HS_17224122486|37=FXb8H1lOG|198=aGDLp219c8|54=1|32=200|31=105|17=2024073123|527=BbGDLp5|150=F|39=2|38=200|151=0|14=200|6=105|44=197|60=20240731-07:50:48.637|22=4|48=US3390411052|207=XETR|15=EUR|55=[N/A]|453=1|448=strmrepl|447=D|452=17|40=2|59=0|10=245|
2024-07-31 09:50:54.344 [56] [FixSender] (DEBUG) Sending 8=FIX.4.4|9=192|35=D|49=FIXCLIENT1|56=DMA_HUB|34=18|52=20240731-07:50:54|21=1|11=HS_17224122547|38=200|55=E:07G@XETR|54=1|60=20240731-07:50:54|40=2|59=0|44=200|48=US3390411052|22=4|15=EUR|207=XETR|1=bram_123|10=074|
2024-07-31 09:50:54.346 [39] [FixSender] (DEBUG) Receiving 8=FIX.4.4|9=234|35=8|34=32|49=DMA_HUB|56=FIXCLIENT1|52=20240731-07:50:54.346|11=HS_17224122547|37=FXc8H1lOG|54=1|40=2|59=0|17=2024073124|150=A|39=A|38=200|151=200|14=0|6=0|44=200|60=20240731-07:50:54.000|22=4|48=US3390411052|207=XETR|15=EUR|55=[N/A]|10=135|
2024-07-31 09:50:54.991 [57] [FixSender] (DEBUG) Sending 8=FIX.4.4|9=192|35=D|49=FIXCLIENT1|56=DMA_HUB|34=19|52=20240731-07:50:54|21=1|11=HS_17224122548|38=200|55=E:07G@XETR|54=1|60=20240731-07:50:54|40=2|59=0|44=200|48=US3390411052|22=4|15=EUR|207=XETR|1=bram_123|10=076|
2024-07-31 09:50:54.992 [39] [FixSender] (DEBUG) Receiving 8=FIX.4.4|9=234|35=8|34=33|49=DMA_HUB|56=FIXCLIENT1|52=20240731-07:50:54.992|11=HS_17224122548|37=FXd8H1lOG|54=1|40=2|59=0|17=2024073125|150=A|39=A|38=200|151=200|14=0|6=0|44=200|60=20240731-07:50:54.000|22=4|48=US3390411052|207=XETR|15=EUR|55=[N/A]|10=146|
2024-07-31 09:50:55.491 [58] [FixSender] (DEBUG) Sending 8=FIX.4.4|9=192|35=D|49=FIXCLIENT1|56=DMA_HUB|34=20|52=20240731-07:50:55|21=1|11=HS_17224122559|38=200|55=E:07G@XETR|54=1|60=20240731-07:50:55|40=2|59=0|44=200|48=US3390411052|22=4|15=EUR|207=XETR|1=bram_123|10=072|
2024-07-31 09:50:55.492 [39] [FixSender] (DEBUG) Receiving 8=FIX.4.4|9=234|35=8|34=34|49=DMA_HUB|56=FIXCLIENT1|52=20240731-07:50:55.492|11=HS_17224122559|37=FXe8H1lOG|54=1|40=2|59=0|17=2024073126|150=A|39=A|38=200|151=200|14=0|6=0|44=200|60=20240731-07:50:55.000|22=4|48=US3390411052|207=XETR|15=EUR|55=[N/A]|10=148|
2024-07-31 09:51:17.337 [39] [FixSender] (DEBUG) Receiving 8=FIX.4.4|9=61|35=0|34=35|49=DMA_HUB|56=FIXCLIENT1|52=20240731-07:51:17.337|10=246|
2024-07-31 09:51:25.491 [40] [FixSender] (DEBUG) Sending 8=FIX.4.4|9=57|35=0|49=FIXCLIENT1|56=DMA_HUB|34=21|52=20240731-07:51:25|10=042|
2024-07-31 09:51:47.354 [39] [FixSender] (DEBUG) Receiving 8=FIX.4.4|9=61|35=0|34=36|49=DMA_HUB|56=FIXCLIENT1|52=20240731-07:51:47.353|10=248|
2024-07-31 09:51:55.492 [40] [FixSender] (DEBUG) Sending 8=FIX.4.4|9=57|35=0|49=FIXCLIENT1|56=DMA_HUB|34=22|52=20240731-07:51:55|10=046|
2024-07-31 09:52:17.306 [39] [FixSender] (DEBUG) Receiving 8=FIX.4.4|9=61|35=0|34=37|49=DMA_HUB|56=FIXCLIENT1|52=20240731-07:52:17.305|10=244|
2024-07-31 09:52:25.492 [40] [FixSender] (DEBUG) Sending 8=FIX.4.4|9=57|35=0|49=FIXCLIENT1|56=DMA_HUB|34=23|52=20240731-07:52:25|10=045|
2024-07-31 09:52:47.257 [39] [FixSender] (DEBUG) Receiving 8=FIX.4.4|9=61|35=0|34=38|49=DMA_HUB|56=FIXCLIENT1|52=20240731-07:52:47.257|10=254|
2024-07-31 09:52:55.492 [40] [FixSender] (DEBUG) Sending 8=FIX.4.4|9=57|35=0|49=FIXCLIENT1|56=DMA_HUB|34=24|52=20240731-07:52:55|10=049|
2024-07-31 09:53:17.210 [39] [FixSender] (DEBUG) Receiving 8=FIX.4.4|9=61|35=0|34=39|49=DMA_HUB|56=FIXCLIENT1|52=20240731-07:53:17.209|10=250|
2024-07-31 09:53:25.493 [40] [FixSender] (DEBUG) Sending 8=FIX.4.4|9=57|35=0|49=FIXCLIENT1|56=DMA_HUB|34=25|52=20240731-07:53:25|10=048|
2024-07-31 09:53:47.162 [39] [FixSender] (DEBUG) Receiving 8=FIX.4.4|9=61|35=0|34=40|49=DMA_HUB|56=FIXCLIENT1|52=20240731-07:53:47.162|10=243|
2024-07-31 09:53:55.493 [40] [FixSender] (DEBUG) Sending 8=FIX.4.4|9=57|35=0|49=FIXCLIENT1|56=DMA_HUB|34=26|52=20240731-07:53:55|10=052|
2024-07-31 09:54:17.114 [39] [FixSender] (DEBUG) Receiving 8=FIX.4.4|9=61|35=0|34=41|49=DMA_HUB|56=FIXCLIENT1|52=20240731-07:54:17.113|10=238|
2024-07-31 09:54:25.494 [40] [FixSender] (DEBUG) Sending 8=FIX.4.4|9=57|35=0|49=FIXCLIENT1|56=DMA_HUB|34=27|52=20240731-07:54:25|10=051|
2024-07-31 09:54:47.066 [39] [FixSender] (DEBUG) Receiving 8=FIX.4.4|9=61|35=0|34=42|49=DMA_HUB|56=FIXCLIENT1|52=20240731-07:54:47.065|10=248|
2024-07-31 09:54:55.494 [40] [FixSender] (DEBUG) Sending 8=FIX.4.4|9=57|35=0|49=FIXCLIENT1|56=DMA_HUB|34=28|52=20240731-07:54:55|10=055|
2024-07-31 09:55:17.017 [39] [FixSender] (DEBUG) Receiving 8=FIX.4.4|9=61|35=0|34=43|49=DMA_HUB|56=FIXCLIENT1|52=20240731-07:55:17.017|10=244|
2024-07-31 09:55:25.495 [40] [FixSender] (DEBUG) Sending 8=FIX.4.4|9=57|35=0|49=FIXCLIENT1|56=DMA_HUB|34=29|52=20240731-07:55:25|10=054|
2024-07-31 09:55:46.970 [39] [FixSender] (DEBUG) Receiving 8=FIX.4.4|9=61|35=0|34=44|49=DMA_HUB|56=FIXCLIENT1|52=20240731-07:55:46.969|10=007|
2024-07-31 09:55:55.496 [40] [FixSender] (DEBUG) Sending 8=FIX.4.4|9=57|35=0|49=FIXCLIENT1|56=DMA_HUB|34=30|52=20240731-07:55:55|10=049|
2024-07-31 09:56:16.922 [39] [FixSender] (DEBUG) Receiving 8=FIX.4.4|9=61|35=0|34=45|49=DMA_HUB|56=FIXCLIENT1|52=20240731-07:56:16.922|10=251|
2024-07-31 09:56:25.497 [40] [FixSender] (DEBUG) Sending 8=FIX.4.4|9=57|35=0|49=FIXCLIENT1|56=DMA_HUB|34=31|52=20240731-07:56:25|10=048|
2024-07-31 09:56:46.873 [39] [FixSender] (DEBUG) Receiving 8=FIX.4.4|9=61|35=0|34=46|49=DMA_HUB|56=FIXCLIENT1|52=20240731-07:56:46.873|10=004|
2024-07-31 09:56:55.497 [40] [FixSender] (DEBUG) Sending 8=FIX.4.4|9=57|35=0|49=FIXCLIENT1|56=DMA_HUB|34=32|52=20240731-07:56:55|10=052|
2024-07-31 09:57:16.826 [39] [FixSender] (DEBUG) Receiving 8=FIX.4.4|9=61|35=0|34=47|49=DMA_HUB|56=FIXCLIENT1|52=20240731-07:57:16.825|10=000|
2024-07-31 09:57:25.498 [40] [FixSender] (DEBUG) Sending 8=FIX.4.4|9=57|35=0|49=FIXCLIENT1|56=DMA_HUB|34=33|52=20240731-07:57:25|10=051|
2024-07-31 09:57:46.778 [39] [FixSender] (DEBUG) Receiving 8=FIX.4.4|9=61|35=0|34=48|49=DMA_HUB|56=FIXCLIENT1|52=20240731-07:57:46.777|10=010|
2024-07-31 09:57:55.499 [40] [FixSender] (DEBUG) Sending 8=FIX.4.4|9=57|35=0|49=FIXCLIENT1|56=DMA_HUB|34=34|52=20240731-07:57:55|10=055|
2024-07-31 09:58:16.730 [39] [FixSender] (DEBUG) Receiving 8=FIX.4.4|9=61|35=0|34=49|49=DMA_HUB|56=FIXCLIENT1|52=20240731-07:58:16.729|10=006|
2024-07-31 09:58:25.499 [40] [FixSender] (DEBUG) Sending 8=FIX.4.4|9=57|35=0|49=FIXCLIENT1|56=DMA_HUB|34=35|52=20240731-07:58:25|10=054|
2024-07-31 09:58:46.682 [39] [FixSender] (DEBUG) Receiving 8=FIX.4.4|9=61|35=0|34=50|49=DMA_HUB|56=FIXCLIENT1|52=20240731-07:58:46.681|10=254|
2024-07-31 09:58:55.500 [40] [FixSender] (DEBUG) Sending 8=FIX.4.4|9=57|35=0|49=FIXCLIENT1|56=DMA_HUB|34=36|52=20240731-07:58:55|10=058|
2024-07-31 09:59:16.634 [39] [FixSender] (DEBUG) Receiving 8=FIX.4.4|9=61|35=0|34=51|49=DMA_HUB|56=FIXCLIENT1|52=20240731-07:59:16.633|10=250|
2024-07-31 09:59:25.501 [40] [FixSender] (DEBUG) Sending 8=FIX.4.4|9=57|35=0|49=FIXCLIENT1|56=DMA_HUB|34=37|52=20240731-07:59:25|10=057|
2024-07-31 09:59:31.118 [39] [FixSender] (DEBUG) Receiving 8=FIX.4.4|9=61|35=5|34=52|49=DMA_HUB|56=FIXCLIENT1|52=20240731-07:59:31.115|10=248|
2024-07-31 09:59:31.118 [39] [FixSender] (DEBUG) Sending 8=FIX.4.4|9=79|35=5|49=FIXCLIENT1|56=DMA_HUB|34=38|52=20240731-07:59:31|58=Replying to logout|10=242|
2024-07-31 09:59:31.118 [39] [FixSender] (WARNING) The Fix connection is close...
2024-07-31 09:59:31.126 [39] [FixSender] (INFO) physical cnx finished Connection reset by peer
2024-07-31 09:59:31.126 [39] [FixSender] (WARNING) Disconnected
2024-07-31 10:03:56.859 [59] [FixSender] (INFO) try to connect to : localhost port :12345
2024-07-31 10:03:56.862 [59] [FixSender] (INFO) physical cnx initiated
2024-07-31 10:03:56.863 [59] [FixSender] (DEBUG) Sending 8=FIX.4.4|9=87|35=A|49=FIXCLIENT1|56=DMA_HUB|34=39|52=20240731-08:03:56|98=0|108=30|95=9|96=null/null|10=153|
2024-07-31 10:03:56.867 [59] [FixSender] (DEBUG) Receiving 8=FIX.4.4|9=73|35=A|34=53|49=DMA_HUB|56=FIXCLIENT1|52=20240731-08:03:56.865|108=30|98=0|10=042|
2024-07-31 10:03:56.868 [59] [FixSender] (WARNING) The Fix connection is open...
2024-07-31 10:03:56.869 [59] [FixSender] (DEBUG) Sending 8=FIX.4.4|9=75|35=1|49=FIXCLIENT1|56=DMA_HUB|34=40|52=20240731-08:03:56|112=synchronized?|10=095|
2024-07-31 10:03:56.872 [59] [FixSender] (DEBUG) Receiving 8=FIX.4.4|9=79|35=0|34=54|49=DMA_HUB|56=FIXCLIENT1|52=20240731-08:03:56.872|112=synchronized?|10=054|
2024-07-31 10:04:16.517 [62] [FixSender] (DEBUG) Sending 8=FIX.4.4|9=195|35=D|49=FIXCLIENT1|56=DMA_HUB|34=41|52=20240731-08:04:16|21=1|11=HS_17224130566|38=200|55=E:07G@XETR|54=1|60=20240731-08:04:16|40=2|59=0|44=197.11|48=US3390411052|22=4|15=EUR|207=XETR|1=bram_123|10=228|
2024-07-31 10:04:16.526 [59] [FixSender] (DEBUG) Receiving 8=FIX.4.4|9=237|35=8|34=55|49=DMA_HUB|56=FIXCLIENT1|52=20240731-08:04:16.525|11=HS_17224130566|37=FXXIhXQ9I|54=1|40=2|59=0|17=2024073127|150=A|39=A|38=200|151=200|14=0|6=0|44=197.11|60=20240731-08:04:16.000|22=4|48=US3390411052|207=XETR|15=EUR|55=[N/A]|10=074|
2024-07-31 10:04:23.182 [63] [FixSender] (DEBUG) Sending 8=FIX.4.4|9=195|35=D|49=FIXCLIENT1|56=DMA_HUB|34=42|52=20240731-08:04:23|21=1|11=HS_17224130637|38=200|55=E:07G@XETR|54=1|60=20240731-08:04:23|40=2|59=0|44=197.11|48=US3390411052|22=4|15=EUR|207=XETR|1=bram_123|10=224|
2024-07-31 10:04:23.184 [59] [FixSender] (DEBUG) Receiving 8=FIX.4.4|9=237|35=8|34=56|49=DMA_HUB|56=FIXCLIENT1|52=20240731-08:04:23.184|11=HS_17224130637|37=FXYIhXQ9I|54=1|40=2|59=0|17=2024073128|150=A|39=A|38=200|151=200|14=0|6=0|44=197.11|60=20240731-08:04:23.000|22=4|48=US3390411052|207=XETR|15=EUR|55=[N/A]|10=073|
2024-07-31 10:04:26.820 [59] [FixSender] (DEBUG) Receiving 8=FIX.4.4|9=61|35=0|34=57|49=DMA_HUB|56=FIXCLIENT1|52=20240731-08:04:26.819|10=254|
2024-07-31 10:04:35.345 [59] [FixSender] (DEBUG) Receiving 8=FIX.4.4|9=234|35=8|34=58|49=DMA_HUB|56=FIXCLIENT1|52=20240731-08:04:35.344|11=HS_17224130637|37=FXYIhXQ9I|54=1|40=2|59=0|17=2024073129|150=A|39=A|38=200|151=200|14=0|6=0|44=197|60=20240731-08:04:23.000|22=4|48=US3390411052|207=XETR|15=EUR|55=[N/A]|10=186|
2024-07-31 10:04:35.354 [59] [FixSender] (DEBUG) Receiving 8=FIX.4.4|9=249|35=8|34=59|49=DMA_HUB|56=FIXCLIENT1|52=20240731-08:04:35.353|11=HS_17224130637|37=FXYIhXQ9I|198=Q7DPp14026|54=1|40=2|59=0|17=2024073130|150=0|39=0|38=200|151=200|14=0|6=0|44=197|60=20240731-08:04:35.346|22=4|48=US3390411052|207=XETR|15=EUR|55=[N/A]|10=016|
2024-07-31 10:04:35.364 [59] [FixSender] (DEBUG) Receiving 8=FIX.4.4|9=307|35=8|34=60|49=DMA_HUB|56=FIXCLIENT1|52=20240731-08:04:35.364|11=HS_17224130637|37=FXYIhXQ9I|198=Q7DPp14026|54=1|32=200|31=75|17=2024073131|527=BQ7DPp1|150=F|39=2|38=200|151=0|14=200|6=75|44=197|60=20240731-08:04:35.348|22=4|48=US3390411052|207=XETR|15=EUR|55=[N/A]|453=1|448=strmrepl|447=D|452=17|40=2|59=0|10=062|
2024-07-31 10:04:49.749 [64] [FixSender] (DEBUG) Sending 8=FIX.4.4|9=195|35=D|49=FIXCLIENT1|56=DMA_HUB|34=43|52=20240731-08:04:49|21=1|11=HS_17224130898|38=200|55=E:07G@XETR|54=1|60=20240731-08:04:49|40=2|59=0|44=197.11|48=US3390411052|22=4|15=EUR|207=XETR|1=bram_123|10=250|
2024-07-31 10:04:49.751 [59] [FixSender] (DEBUG) Receiving 8=FIX.4.4|9=237|35=8|34=61|49=DMA_HUB|56=FIXCLIENT1|52=20240731-08:04:49.750|11=HS_17224130898|37=FXZIhXQ9I|54=1|40=2|59=0|17=2024073132|150=A|39=A|38=200|151=200|14=0|6=0|44=197.11|60=20240731-08:04:49.000|22=4|48=US3390411052|207=XETR|15=EUR|55=[N/A]|10=089|
2024-07-31 10:04:56.772 [59] [FixSender] (DEBUG) Receiving 8=FIX.4.4|9=61|35=0|34=62|49=DMA_HUB|56=FIXCLIENT1|52=20240731-08:04:56.772|10=251|
2024-07-31 10:05:02.655 [59] [FixSender] (DEBUG) Receiving 8=FIX.4.4|9=319|35=8|34=63|49=DMA_HUB|56=FIXCLIENT1|52=20240731-08:05:02.654|11=HS_17224130898|37=FXZIhXQ9I|198=FXZIhXQ9I|54=1|40=2|59=0|17=2024073133|150=8|39=8|38=200|151=0|14=0|6=0|44=197.11|60=20240731-08:05:02.653|22=4|48=US3390411052|207=XETR|15=EUR|55=[N/A]|58=Price does not abide by tick rules (rounded price would be 197.0).|10=174|
2024-07-31 10:05:19.749 [60] [FixSender] (DEBUG) Sending 8=FIX.4.4|9=57|35=0|49=FIXCLIENT1|56=DMA_HUB|34=44|52=20240731-08:05:19|10=050|
2024-07-31 10:05:26.724 [59] [FixSender] (DEBUG) Receiving 8=FIX.4.4|9=61|35=0|34=64|49=DMA_HUB|56=FIXCLIENT1|52=20240731-08:05:26.723|10=247|
2024-07-31 10:05:41.321 [65] [FixSender] (DEBUG) Sending 8=FIX.4.4|9=195|35=D|49=FIXCLIENT1|56=DMA_HUB|34=45|52=20240731-08:05:41|21=1|11=HS_17224131419|38=200|55=E:07G@XETR|54=1|60=20240731-08:05:41|40=2|59=0|44=197.11|48=US3390411052|22=4|15=EUR|207=XETR|1=bram_123|10=228|
2024-07-31 10:05:41.323 [59] [FixSender] (DEBUG) Receiving 8=FIX.4.4|9=237|35=8|34=65|49=DMA_HUB|56=FIXCLIENT1|52=20240731-08:05:41.322|11=HS_17224131419|37=FXaIhXQ9I|54=1|40=2|59=0|17=2024073134|150=A|39=A|38=200|151=200|14=0|6=0|44=197.11|60=20240731-08:05:41.000|22=4|48=US3390411052|207=XETR|15=EUR|55=[N/A]|10=073|
2024-07-31 10:05:56.676 [59] [FixSender] (DEBUG) Receiving 8=FIX.4.4|9=61|35=0|34=66|49=DMA_HUB|56=FIXCLIENT1|52=20240731-08:05:56.676|10=003|
2024-07-31 10:06:11.321 [60] [FixSender] (DEBUG) Sending 8=FIX.4.4|9=57|35=0|49=FIXCLIENT1|56=DMA_HUB|34=46|52=20240731-08:06:11|10=045|
2024-07-31 10:06:26.628 [59] [FixSender] (DEBUG) Receiving 8=FIX.4.4|9=61|35=0|34=67|49=DMA_HUB|56=FIXCLIENT1|52=20240731-08:06:26.627|10=254|
2024-07-31 10:06:41.322 [60] [FixSender] (DEBUG) Sending 8=FIX.4.4|9=57|35=0|49=FIXCLIENT1|56=DMA_HUB|34=47|52=20240731-08:06:41|10=049|
2024-07-31 10:06:56.580 [59] [FixSender] (DEBUG) Receiving 8=FIX.4.4|9=61|35=0|34=68|49=DMA_HUB|56=FIXCLIENT1|52=20240731-08:06:56.579|10=008|
2024-07-31 10:07:11.322 [60] [FixSender] (DEBUG) Sending 8=FIX.4.4|9=57|35=0|49=FIXCLIENT1|56=DMA_HUB|34=48|52=20240731-08:07:11|10=048|
2024-07-31 10:07:26.532 [59] [FixSender] (DEBUG) Receiving 8=FIX.4.4|9=61|35=0|34=69|49=DMA_HUB|56=FIXCLIENT1|52=20240731-08:07:26.531|10=251|
2024-07-31 10:07:41.323 [60] [FixSender] (DEBUG) Sending 8=FIX.4.4|9=57|35=0|49=FIXCLIENT1|56=DMA_HUB|34=49|52=20240731-08:07:41|10=052|
2024-07-31 10:07:56.484 [59] [FixSender] (DEBUG) Receiving 8=FIX.4.4|9=61|35=0|34=70|49=DMA_HUB|56=FIXCLIENT1|52=20240731-08:07:56.484|10=253|
2024-07-31 10:08:11.323 [60] [FixSender] (DEBUG) Sending 8=FIX.4.4|9=57|35=0|49=FIXCLIENT1|56=DMA_HUB|34=50|52=20240731-08:08:11|10=042|
2024-07-31 10:08:23.414 [66] [FixSender] (DEBUG) Sending 8=FIX.4.4|9=196|35=D|49=FIXCLIENT1|56=DMA_HUB|34=51|52=20240731-08:08:23|21=1|11=HS_172241330310|38=200|55=E:07G@XETR|54=1|60=20240731-08:08:23|40=2|59=0|44=197.11|48=US3390411052|22=4|15=EUR|207=XETR|1=bram_123|10=016|
2024-07-31 10:08:23.415 [59] [FixSender] (DEBUG) Receiving 8=FIX.4.4|9=238|35=8|34=71|49=DMA_HUB|56=FIXCLIENT1|52=20240731-08:08:23.415|11=HS_172241330310|37=FXbIhXQ9I|54=1|40=2|59=0|17=2024073135|150=A|39=A|38=200|151=200|14=0|6=0|44=197.11|60=20240731-08:08:23.000|22=4|48=US3390411052|207=XETR|15=EUR|55=[N/A]|10=122|
2024-07-31 10:08:26.436 [59] [FixSender] (DEBUG) Receiving 8=FIX.4.4|9=61|35=0|34=72|49=DMA_HUB|56=FIXCLIENT1|52=20240731-08:08:26.435|10=249|
2024-07-31 10:08:33.025 [59] [FixSender] (DEBUG) Receiving 8=FIX.4.4|9=235|35=8|34=73|49=DMA_HUB|56=FIXCLIENT1|52=20240731-08:08:33.024|11=HS_172241330310|37=FXbIhXQ9I|54=1|40=2|59=0|17=2024073136|150=A|39=A|38=200|151=200|14=0|6=0|44=197|60=20240731-08:08:23.000|22=4|48=US3390411052|207=XETR|15=EUR|55=[N/A]|10=231|
2024-07-31 10:08:33.027 [59] [FixSender] (DEBUG) Receiving 8=FIX.4.4|9=250|35=8|34=74|49=DMA_HUB|56=FIXCLIENT1|52=20240731-08:08:33.027|11=HS_172241330310|37=FXbIhXQ9I|198=Q7DPp2df4d|54=1|40=2|59=0|17=2024073137|150=0|39=0|38=200|151=200|14=0|6=0|44=197|60=20240731-08:08:33.025|22=4|48=US3390411052|207=XETR|15=EUR|55=[N/A]|10=207|
2024-07-31 10:08:33.029 [59] [FixSender] (DEBUG) Receiving 8=FIX.4.4|9=308|35=8|34=75|49=DMA_HUB|56=FIXCLIENT1|52=20240731-08:08:33.029|11=HS_172241330310|37=FXbIhXQ9I|198=Q7DPp2df4d|54=1|32=200|31=75|17=2024073138|527=BQ7DPp2|150=F|39=2|38=200|151=0|14=200|6=75|44=197|60=20240731-08:08:33.025|22=4|48=US3390411052|207=XETR|15=EUR|55=[N/A]|453=1|448=strmrepl|447=D|452=17|40=2|59=0|10=014|
2024-07-31 10:08:53.414 [60] [FixSender] (DEBUG) Sending 8=FIX.4.4|9=57|35=0|49=FIXCLIENT1|56=DMA_HUB|34=52|52=20240731-08:08:53|10=050|
2024-07-31 10:08:56.388 [59] [FixSender] (DEBUG) Receiving 8=FIX.4.4|9=61|35=0|34=76|49=DMA_HUB|56=FIXCLIENT1|52=20240731-08:08:56.388|10=007|
2024-07-31 10:09:14.656 [67] [FixSender] (DEBUG) Sending 8=FIX.4.4|9=196|35=D|49=FIXCLIENT1|56=DMA_HUB|34=53|52=20240731-08:09:14|21=1|11=HS_172241335411|38=200|55=E:07G@XETR|54=1|60=20240731-08:09:14|40=2|59=0|44=197.11|48=US3390411052|22=4|15=EUR|207=XETR|1=bram_123|10=027|
2024-07-31 10:09:14.657 [59] [FixSender] (DEBUG) Receiving 8=FIX.4.4|9=238|35=8|34=77|49=DMA_HUB|56=FIXCLIENT1|52=20240731-08:09:14.657|11=HS_172241335411|37=FXcIhXQ9I|54=1|40=2|59=0|17=2024073139|150=A|39=A|38=200|151=200|14=0|6=0|44=197.11|60=20240731-08:09:14.000|22=4|48=US3390411052|207=XETR|15=EUR|55=[N/A]|10=150|
2024-07-31 10:09:26.340 [59] [FixSender] (DEBUG) Receiving 8=FIX.4.4|9=61|35=0|34=78|49=DMA_HUB|56=FIXCLIENT1|52=20240731-08:09:26.339|10=003|
2024-07-31 10:09:44.657 [60] [FixSender] (DEBUG) Sending 8=FIX.4.4|9=57|35=0|49=FIXCLIENT1|56=DMA_HUB|34=54|52=20240731-08:09:44|10=053|
2024-07-31 10:09:56.292 [59] [FixSender] (DEBUG) Receiving 8=FIX.4.4|9=61|35=0|34=79|49=DMA_HUB|56=FIXCLIENT1|52=20240731-08:09:56.291|10=004|
2024-07-31 10:10:14.657 [60] [FixSender] (DEBUG) Sending 8=FIX.4.4|9=57|35=0|49=FIXCLIENT1|56=DMA_HUB|34=55|52=20240731-08:10:14|10=043|
2024-07-31 10:10:26.243 [59] [FixSender] (DEBUG) Receiving 8=FIX.4.4|9=61|35=0|34=80|49=DMA_HUB|56=FIXCLIENT1|52=20240731-08:10:26.243|10=238|
2024-07-31 10:10:44.657 [60] [FixSender] (DEBUG) Sending 8=FIX.4.4|9=57|35=0|49=FIXCLIENT1|56=DMA_HUB|34=56|52=20240731-08:10:44|10=047|
2024-07-31 10:10:56.196 [59] [FixSender] (DEBUG) Receiving 8=FIX.4.4|9=61|35=0|34=81|49=DMA_HUB|56=FIXCLIENT1|52=20240731-08:10:56.195|10=248|
2024-07-31 10:11:14.658 [60] [FixSender] (DEBUG) Sending 8=FIX.4.4|9=57|35=0|49=FIXCLIENT1|56=DMA_HUB|34=57|52=20240731-08:11:14|10=046|
2024-07-31 10:11:26.147 [59] [FixSender] (DEBUG) Receiving 8=FIX.4.4|9=61|35=0|34=82|49=DMA_HUB|56=FIXCLIENT1|52=20240731-08:11:26.147|10=244|
2024-07-31 10:11:44.658 [60] [FixSender] (DEBUG) Sending 8=FIX.4.4|9=57|35=0|49=FIXCLIENT1|56=DMA_HUB|34=58|52=20240731-08:11:44|10=050|
2024-07-31 10:11:56.100 [59] [FixSender] (DEBUG) Receiving 8=FIX.4.4|9=61|35=0|34=83|49=DMA_HUB|56=FIXCLIENT1|52=20240731-08:11:56.099|10=254|
2024-07-31 10:12:14.659 [60] [FixSender] (DEBUG) Sending 8=FIX.4.4|9=57|35=0|49=FIXCLIENT1|56=DMA_HUB|34=59|52=20240731-08:12:14|10=049|
2024-07-31 10:12:26.051 [59] [FixSender] (DEBUG) Receiving 8=FIX.4.4|9=61|35=0|34=84|49=DMA_HUB|56=FIXCLIENT1|52=20240731-08:12:26.051|10=241|
2024-07-31 10:12:44.659 [60] [FixSender] (DEBUG) Sending 8=FIX.4.4|9=57|35=0|49=FIXCLIENT1|56=DMA_HUB|34=60|52=20240731-08:12:44|10=044|
2024-07-31 10:12:56.004 [59] [FixSender] (DEBUG) Receiving 8=FIX.4.4|9=61|35=0|34=85|49=DMA_HUB|56=FIXCLIENT1|52=20240731-08:12:56.003|10=242|
2024-07-31 10:13:14.659 [60] [FixSender] (DEBUG) Sending 8=FIX.4.4|9=57|35=0|49=FIXCLIENT1|56=DMA_HUB|34=61|52=20240731-08:13:14|10=043|
2024-07-31 10:13:25.956 [59] [FixSender] (DEBUG) Receiving 8=FIX.4.4|9=61|35=0|34=86|49=DMA_HUB|56=FIXCLIENT1|52=20240731-08:13:25.956|10=001|
2024-07-31 10:13:37.220 [68] [FixSender] (DEBUG) Sending 8=FIX.4.4|9=180|35=D|49=FIXCLIENT1|56=DMA_HUB|34=62|52=20240731-08:13:37|21=1|11=HS_172241361712|38=874|55=E:07G@XETR_mauvaius|54=1|60=20240731-08:13:37|40=2|59=0|44=10|15=EUR|207=XETR|1=bram_123|10=254|
2024-07-31 10:13:37.298 [59] [FixSender] (DEBUG) Receiving 8=FIX.4.4|9=220|35=8|34=87|49=DMA_HUB|56=FIXCLIENT1|52=20240731-08:13:37.298|11=HS_172241361712|37=FXdIhXQ9I|54=1|40=2|59=0|17=2024073140|150=A|39=A|38=874|151=874|14=0|6=0|44=10|60=20240731-08:13:37.000|55=uniqueId=E:07G@XETR_mauvaius|10=148|
2024-07-31 10:13:51.519 [59] [FixSender] (DEBUG) Receiving 8=FIX.4.4|9=202|35=8|34=88|49=DMA_HUB|56=FIXCLIENT1|52=20240731-08:13:51.517|11=HS_172241361712|37=FXdIhXQ9I|54=1|40=2|59=0|17=2024073141|150=A|39=A|38=874|151=874|14=0|6=0|44=10|60=20240731-08:13:37.000|55=E:07G@XETR|10=065|
2024-07-31 10:13:51.520 [59] [FixSender] (DEBUG) Receiving 8=FIX.4.4|9=217|35=8|34=89|49=DMA_HUB|56=FIXCLIENT1|52=20240731-08:13:51.519|11=HS_172241361712|37=FXdIhXQ9I|198=Q7DPp50b5e|54=1|40=2|59=0|17=2024073142|150=0|39=0|38=874|151=874|14=0|6=0|44=10|60=20240731-08:13:51.518|55=E:07G@XETR|10=000|
2024-07-31 10:13:55.907 [59] [FixSender] (DEBUG) Receiving 8=FIX.4.4|9=61|35=0|34=90|49=DMA_HUB|56=FIXCLIENT1|52=20240731-08:13:55.907|10=251|
2024-07-31 10:14:07.221 [60] [FixSender] (DEBUG) Sending 8=FIX.4.4|9=57|35=0|49=FIXCLIENT1|56=DMA_HUB|34=63|52=20240731-08:14:07|10=048|
2024-07-31 10:14:25.860 [59] [FixSender] (DEBUG) Receiving 8=FIX.4.4|9=61|35=0|34=91|49=DMA_HUB|56=FIXCLIENT1|52=20240731-08:14:25.859|10=000|
2024-07-31 10:14:37.221 [60] [FixSender] (DEBUG) Sending 8=FIX.4.4|9=57|35=0|49=FIXCLIENT1|56=DMA_HUB|34=64|52=20240731-08:14:37|10=052|
2024-07-31 10:14:55.811 [59] [FixSender] (DEBUG) Receiving 8=FIX.4.4|9=61|35=0|34=92|49=DMA_HUB|56=FIXCLIENT1|52=20240731-08:14:55.811|10=248|
2024-07-31 10:15:07.222 [60] [FixSender] (DEBUG) Sending 8=FIX.4.4|9=57|35=0|49=FIXCLIENT1|56=DMA_HUB|34=65|52=20240731-08:15:07|10=051|
2024-07-31 10:15:25.764 [59] [FixSender] (DEBUG) Receiving 8=FIX.4.4|9=61|35=0|34=93|49=DMA_HUB|56=FIXCLIENT1|52=20240731-08:15:25.763|10=253|
2024-07-31 10:15:37.222 [60] [FixSender] (DEBUG) Sending 8=FIX.4.4|9=57|35=0|49=FIXCLIENT1|56=DMA_HUB|34=66|52=20240731-08:15:37|10=055|
2024-07-31 10:15:55.716 [59] [FixSender] (DEBUG) Receiving 8=FIX.4.4|9=61|35=0|34=94|49=DMA_HUB|56=FIXCLIENT1|52=20240731-08:15:55.716|10=255|
2024-07-31 10:16:07.223 [60] [FixSender] (DEBUG) Sending 8=FIX.4.4|9=57|35=0|49=FIXCLIENT1|56=DMA_HUB|34=67|52=20240731-08:16:07|10=054|
2024-07-31 10:16:25.667 [59] [FixSender] (DEBUG) Receiving 8=FIX.4.4|9=61|35=0|34=95|49=DMA_HUB|56=FIXCLIENT1|52=20240731-08:16:25.667|10=003|
2024-07-31 10:16:37.223 [60] [FixSender] (DEBUG) Sending 8=FIX.4.4|9=57|35=0|49=FIXCLIENT1|56=DMA_HUB|34=68|52=20240731-08:16:37|10=058|
2024-07-31 10:16:55.620 [59] [FixSender] (DEBUG) Receiving 8=FIX.4.4|9=61|35=0|34=96|49=DMA_HUB|56=FIXCLIENT1|52=20240731-08:16:55.619|10=004|
2024-07-31 10:17:07.224 [60] [FixSender] (DEBUG) Sending 8=FIX.4.4|9=57|35=0|49=FIXCLIENT1|56=DMA_HUB|34=69|52=20240731-08:17:07|10=057|
2024-07-31 10:17:25.571 [59] [FixSender] (DEBUG) Receiving 8=FIX.4.4|9=61|35=0|34=97|49=DMA_HUB|56=FIXCLIENT1|52=20240731-08:17:25.571|10=000|
2024-07-31 10:17:37.225 [60] [FixSender] (DEBUG) Sending 8=FIX.4.4|9=57|35=0|49=FIXCLIENT1|56=DMA_HUB|34=70|52=20240731-08:17:37|10=052|
2024-07-31 10:17:55.524 [59] [FixSender] (DEBUG) Receiving 8=FIX.4.4|9=61|35=0|34=98|49=DMA_HUB|56=FIXCLIENT1|52=20240731-08:17:55.523|10=001|
2024-07-31 10:18:07.225 [60] [FixSender] (DEBUG) Sending 8=FIX.4.4|9=57|35=0|49=FIXCLIENT1|56=DMA_HUB|34=71|52=20240731-08:18:07|10=051|
2024-07-31 10:18:25.475 [59] [FixSender] (DEBUG) Receiving 8=FIX.4.4|9=61|35=0|34=99|49=DMA_HUB|56=FIXCLIENT1|52=20240731-08:18:25.475|10=006|
2024-07-31 10:18:37.226 [60] [FixSender] (DEBUG) Sending 8=FIX.4.4|9=57|35=0|49=FIXCLIENT1|56=DMA_HUB|34=72|52=20240731-08:18:37|10=055|
2024-07-31 10:18:55.428 [59] [FixSender] (DEBUG) Receiving 8=FIX.4.4|9=62|35=0|34=100|49=DMA_HUB|56=FIXCLIENT1|52=20240731-08:18:55.427|10=038|
2024-07-31 10:19:07.226 [60] [FixSender] (DEBUG) Sending 8=FIX.4.4|9=57|35=0|49=FIXCLIENT1|56=DMA_HUB|34=73|52=20240731-08:19:07|10=054|
2024-07-31 10:19:25.380 [59] [FixSender] (DEBUG) Receiving 8=FIX.4.4|9=62|35=0|34=101|49=DMA_HUB|56=FIXCLIENT1|52=20240731-08:19:25.380|10=035|
2024-07-31 10:19:37.226 [60] [FixSender] (DEBUG) Sending 8=FIX.4.4|9=57|35=0|49=FIXCLIENT1|56=DMA_HUB|34=74|52=20240731-08:19:37|10=058|
2024-07-31 10:19:55.332 [59] [FixSender] (DEBUG) Receiving 8=FIX.4.4|9=62|35=0|34=102|49=DMA_HUB|56=FIXCLIENT1|52=20240731-08:19:55.331|10=035|
2024-07-31 10:20:07.227 [60] [FixSender] (DEBUG) Sending 8=FIX.4.4|9=57|35=0|49=FIXCLIENT1|56=DMA_HUB|34=75|52=20240731-08:20:07|10=048|
2024-07-31 10:20:25.284 [59] [FixSender] (DEBUG) Receiving 8=FIX.4.4|9=62|35=0|34=103|49=DMA_HUB|56=FIXCLIENT1|52=20240731-08:20:25.284|10=032|
2024-07-31 10:20:37.227 [60] [FixSender] (DEBUG) Sending 8=FIX.4.4|9=57|35=0|49=FIXCLIENT1|56=DMA_HUB|34=76|52=20240731-08:20:37|10=052|
2024-07-31 10:20:55.235 [59] [FixSender] (DEBUG) Receiving 8=FIX.4.4|9=62|35=0|34=104|49=DMA_HUB|56=FIXCLIENT1|52=20240731-08:20:55.235|10=032|
2024-07-31 10:21:07.228 [60] [FixSender] (DEBUG) Sending 8=FIX.4.4|9=57|35=0|49=FIXCLIENT1|56=DMA_HUB|34=77|52=20240731-08:21:07|10=051|
2024-07-31 10:21:11.913 [69] [FixSender] (DEBUG) Sending 8=FIX.4.4|9=196|35=D|49=FIXCLIENT1|56=DMA_HUB|34=78|52=20240731-08:21:11|21=1|11=HS_172241407113|38=200|55=E:07G@XETR|54=1|60=20240731-08:21:11|40=2|59=0|44=197.11|48=US3390411052|22=4|15=EUR|207=XETR|1=bram_123|10=015|
2024-07-31 10:21:11.915 [59] [FixSender] (DEBUG) Receiving 8=FIX.4.4|9=239|35=8|34=105|49=DMA_HUB|56=FIXCLIENT1|52=20240731-08:21:11.914|11=HS_172241407113|37=FXeIhXQ9I|54=1|40=2|59=0|17=2024073143|150=A|39=A|38=200|151=200|14=0|6=0|44=197.11|60=20240731-08:21:11.000|22=4|48=US3390411052|207=XETR|15=EUR|55=[N/A]|10=165|
2024-07-31 10:21:20.178 [59] [FixSender] (DEBUG) Receiving 8=FIX.4.4|9=236|35=8|34=106|49=DMA_HUB|56=FIXCLIENT1|52=20240731-08:21:20.177|11=HS_172241407113|37=FXeIhXQ9I|54=1|40=2|59=0|17=2024073144|150=A|39=A|38=200|151=200|14=0|6=0|44=197|60=20240731-08:21:11.000|22=4|48=US3390411052|207=XETR|15=EUR|55=[N/A]|10=021|
2024-07-31 10:21:20.180 [59] [FixSender] (DEBUG) Receiving 8=FIX.4.4|9=251|35=8|34=107|49=DMA_HUB|56=FIXCLIENT1|52=20240731-08:21:20.180|11=HS_172241407113|37=FXeIhXQ9I|198=Q7DPp81a33|54=1|40=2|59=0|17=2024073145|150=0|39=0|38=200|151=200|14=0|6=0|44=197|60=20240731-08:21:20.178|22=4|48=US3390411052|207=XETR|15=EUR|55=[N/A]|10=152|
2024-07-31 10:21:20.182 [59] [FixSender] (DEBUG) Receiving 8=FIX.4.4|9=313|35=8|34=108|49=DMA_HUB|56=FIXCLIENT1|52=20240731-08:21:20.182|11=HS_172241407113|37=FXeIhXQ9I|198=Q7DPp81a33|54=1|32=200|31=69.5|17=2024073146|527=BQ7DPp3|150=F|39=2|38=200|151=0|14=200|6=69.5|44=197|60=20240731-08:21:20.178|22=4|48=US3390411052|207=XETR|15=EUR|55=[N/A]|453=1|448=strmrepl|447=D|452=17|40=2|59=0|10=159|
2024-07-31 10:21:22.697 [70] [FixSender] (DEBUG) Sending 8=FIX.4.4|9=196|35=D|49=FIXCLIENT1|56=DMA_HUB|34=79|52=20240731-08:21:22|21=1|11=HS_172241408214|38=200|55=E:07G@XETR|54=1|60=20240731-08:21:22|40=2|59=0|44=197.11|48=US3390411052|22=4|15=EUR|207=XETR|1=bram_123|10=023|
2024-07-31 10:21:22.699 [59] [FixSender] (DEBUG) Receiving 8=FIX.4.4|9=239|35=8|34=109|49=DMA_HUB|56=FIXCLIENT1|52=20240731-08:21:22.698|11=HS_172241408214|37=FXfIhXQ9I|54=1|40=2|59=0|17=2024073147|150=A|39=A|38=200|151=200|14=0|6=0|44=197.11|60=20240731-08:21:22.000|22=4|48=US3390411052|207=XETR|15=EUR|55=[N/A]|10=190|
2024-07-31 10:21:25.188 [59] [FixSender] (DEBUG) Receiving 8=FIX.4.4|9=62|35=0|34=110|49=DMA_HUB|56=FIXCLIENT1|52=20240731-08:21:25.188|10=034|
2024-07-31 10:21:27.187 [71] [FixSender] (DEBUG) Sending 8=FIX.4.4|9=180|35=D|49=FIXCLIENT1|56=DMA_HUB|34=80|52=20240731-08:21:27|21=1|11=HS_172241408715|38=668|55=E:07G@XETR_mauvaius|54=1|60=20240731-08:21:27|40=2|59=0|44=10|15=EUR|207=XETR|1=bram_123|10=000|
2024-07-31 10:21:27.192 [59] [FixSender] (DEBUG) Receiving 8=FIX.4.4|9=221|35=8|34=111|49=DMA_HUB|56=FIXCLIENT1|52=20240731-08:21:27.191|11=HS_172241408715|37=FXgIhXQ9I|54=1|40=2|59=0|17=2024073148|150=A|39=A|38=668|151=668|14=0|6=0|44=10|60=20240731-08:21:27.000|55=uniqueId=E:07G@XETR_mauvaius|10=191|
2024-07-31 10:21:51.801 [59] [FixSender] (DEBUG) Receiving 8=FIX.4.4|9=203|35=8|34=112|49=DMA_HUB|56=FIXCLIENT1|52=20240731-08:21:51.800|11=HS_172241408715|37=FXgIhXQ9I|54=1|40=2|59=0|17=2024073149|150=A|39=A|38=668|151=668|14=0|6=0|44=10|60=20240731-08:21:27.000|55=E:07G@XETR|10=112|
2024-07-31 10:21:51.802 [59] [FixSender] (DEBUG) Receiving 8=FIX.4.4|9=218|35=8|34=113|49=DMA_HUB|56=FIXCLIENT1|52=20240731-08:21:51.802|11=HS_172241408715|37=FXgIhXQ9I|198=Q7DPp850db|54=1|40=2|59=0|17=2024073150|150=0|39=0|38=668|151=668|14=0|6=0|44=10|60=20240731-08:21:51.801|55=E:07G@XETR|10=036|
2024-07-31 10:21:55.139 [59] [FixSender] (DEBUG) Receiving 8=FIX.4.4|9=62|35=0|34=114|49=DMA_HUB|56=FIXCLIENT1|52=20240731-08:21:55.139|10=037|
2024-07-31 10:21:57.187 [60] [FixSender] (DEBUG) Sending 8=FIX.4.4|9=57|35=0|49=FIXCLIENT1|56=DMA_HUB|34=81|52=20240731-08:21:57|10=051|
2024-07-31 10:22:09.298 [72] [FixSender] (DEBUG) Sending 8=FIX.4.4|9=195|35=G|49=FIXCLIENT1|56=DMA_HUB|34=82|52=20240731-08:22:09|21=1|11=17224141290|38=700|55=E:07G@XETR_mauvaius|54=1|60=20240731-08:21:27|40=2|59=0|44=10|15=EUR|207=XETR|1=bram_123|41=HS_172241408715|10=211|
2024-07-31 10:22:09.303 [59] [FixSender] (DEBUG) Receiving 8=FIX.4.4|9=233|35=8|34=115|49=DMA_HUB|56=FIXCLIENT1|52=20240731-08:22:09.301|11=17224141290|41=HS_172241408715|37=FXgIhXQ9I|198=Q7DPp850db|54=1|40=2|59=0|17=2024073151|150=E|39=E|38=700|151=700|14=0|6=0|44=10|60=20240731-08:22:09.300|55=E:07G@XETR|10=004|
2024-07-31 10:22:09.306 [59] [FixSender] (DEBUG) Receiving 8=FIX.4.4|9=233|35=8|34=116|49=DMA_HUB|56=FIXCLIENT1|52=20240731-08:22:09.306|11=17224141290|41=HS_172241408715|37=FXgIhXQ9I|198=Q7DPp850db|54=1|40=2|59=0|17=2024073152|150=5|39=0|38=700|151=700|14=0|6=0|44=10|60=20240731-08:22:09.304|55=E:07G@XETR|10=234|
2024-07-31 10:22:25.092 [59] [FixSender] (DEBUG) Receiving 8=FIX.4.4|9=62|35=0|34=117|49=DMA_HUB|56=FIXCLIENT1|52=20240731-08:22:25.091|10=035|
2024-07-31 10:22:39.299 [60] [FixSender] (DEBUG) Sending 8=FIX.4.4|9=57|35=0|49=FIXCLIENT1|56=DMA_HUB|34=83|52=20240731-08:22:39|10=054|
2024-07-31 10:22:55.043 [59] [FixSender] (DEBUG) Receiving 8=FIX.4.4|9=62|35=0|34=118|49=DMA_HUB|56=FIXCLIENT1|52=20240731-08:22:55.043|10=036|
2024-07-31 10:23:09.300 [60] [FixSender] (DEBUG) Sending 8=FIX.4.4|9=57|35=0|49=FIXCLIENT1|56=DMA_HUB|34=84|52=20240731-08:23:09|10=053|
2024-07-31 10:23:24.996 [59] [FixSender] (DEBUG) Receiving 8=FIX.4.4|9=62|35=0|34=119|49=DMA_HUB|56=FIXCLIENT1|52=20240731-08:23:24.995|10=050|
2024-07-31 10:23:39.301 [60] [FixSender] (DEBUG) Sending 8=FIX.4.4|9=57|35=0|49=FIXCLIENT1|56=DMA_HUB|34=85|52=20240731-08:23:39|10=057|
2024-07-31 10:23:54.947 [59] [FixSender] (DEBUG) Receiving 8=FIX.4.4|9=62|35=0|34=120|49=DMA_HUB|56=FIXCLIENT1|52=20240731-08:23:54.947|10=042|
2024-07-31 10:24:09.302 [60] [FixSender] (DEBUG) Sending 8=FIX.4.4|9=57|35=0|49=FIXCLIENT1|56=DMA_HUB|34=86|52=20240731-08:24:09|10=056|
2024-07-31 10:24:24.900 [59] [FixSender] (DEBUG) Receiving 8=FIX.4.4|9=62|35=0|34=121|49=DMA_HUB|56=FIXCLIENT1|52=20240731-08:24:24.899|10=047|
2024-07-31 10:24:39.302 [60] [FixSender] (DEBUG) Sending 8=FIX.4.4|9=57|35=0|49=FIXCLIENT1|56=DMA_HUB|34=87|52=20240731-08:24:39|10=060|
2024-07-31 10:24:54.852 [59] [FixSender] (DEBUG) Receiving 8=FIX.4.4|9=62|35=0|34=122|49=DMA_HUB|56=FIXCLIENT1|52=20240731-08:24:54.852|10=040|
2024-07-31 10:25:09.303 [60] [FixSender] (DEBUG) Sending 8=FIX.4.4|9=57|35=0|49=FIXCLIENT1|56=DMA_HUB|34=88|52=20240731-08:25:09|10=059|
2024-07-31 10:25:24.803 [59] [FixSender] (DEBUG) Receiving 8=FIX.4.4|9=62|35=0|34=123|49=DMA_HUB|56=FIXCLIENT1|52=20240731-08:25:24.803|10=035|
2024-07-31 10:25:39.304 [60] [FixSender] (DEBUG) Sending 8=FIX.4.4|9=57|35=0|49=FIXCLIENT1|56=DMA_HUB|34=89|52=20240731-08:25:39|10=063|
2024-07-31 10:25:54.756 [59] [FixSender] (DEBUG) Receiving 8=FIX.4.4|9=62|35=0|34=124|49=DMA_HUB|56=FIXCLIENT1|52=20240731-08:25:54.755|10=045|
2024-07-31 10:26:09.304 [60] [FixSender] (DEBUG) Sending 8=FIX.4.4|9=57|35=0|49=FIXCLIENT1|56=DMA_HUB|34=90|52=20240731-08:26:09|10=053|
2024-07-31 10:26:24.707 [59] [FixSender] (DEBUG) Receiving 8=FIX.4.4|9=62|35=0|34=125|49=DMA_HUB|56=FIXCLIENT1|52=20240731-08:26:24.707|10=041|
2024-07-31 10:26:39.305 [60] [FixSender] (DEBUG) Sending 8=FIX.4.4|9=57|35=0|49=FIXCLIENT1|56=DMA_HUB|34=91|52=20240731-08:26:39|10=057|
2024-07-31 10:26:54.660 [59] [FixSender] (DEBUG) Receiving 8=FIX.4.4|9=62|35=0|34=126|49=DMA_HUB|56=FIXCLIENT1|52=20240731-08:26:54.659|10=051|
2024-07-31 10:27:09.306 [60] [FixSender] (DEBUG) Sending 8=FIX.4.4|9=57|35=0|49=FIXCLIENT1|56=DMA_HUB|34=92|52=20240731-08:27:09|10=056|
2024-07-31 10:27:24.612 [59] [FixSender] (DEBUG) Receiving 8=FIX.4.4|9=62|35=0|34=127|49=DMA_HUB|56=FIXCLIENT1|52=20240731-08:27:24.612|10=039|
2024-07-31 10:27:39.306 [60] [FixSender] (DEBUG) Sending 8=FIX.4.4|9=57|35=0|49=FIXCLIENT1|56=DMA_HUB|34=93|52=20240731-08:27:39|10=060|
2024-07-31 10:27:54.563 [59] [FixSender] (DEBUG) Receiving 8=FIX.4.4|9=62|35=0|34=128|49=DMA_HUB|56=FIXCLIENT1|52=20240731-08:27:54.563|10=048|
2024-07-31 10:28:09.307 [60] [FixSender] (DEBUG) Sending 8=FIX.4.4|9=57|35=0|49=FIXCLIENT1|56=DMA_HUB|34=94|52=20240731-08:28:09|10=059|
2024-07-31 10:28:24.516 [59] [FixSender] (DEBUG) Receiving 8=FIX.4.4|9=62|35=0|34=129|49=DMA_HUB|56=FIXCLIENT1|52=20240731-08:28:24.515|10=044|
2024-07-31 10:28:39.308 [60] [FixSender] (DEBUG) Sending 8=FIX.4.4|9=57|35=0|49=FIXCLIENT1|56=DMA_HUB|34=95|52=20240731-08:28:39|10=063|
2024-07-31 10:28:54.467 [59] [FixSender] (DEBUG) Receiving 8=FIX.4.4|9=62|35=0|34=130|49=DMA_HUB|56=FIXCLIENT1|52=20240731-08:28:54.467|10=045|
2024-07-31 10:29:09.308 [60] [FixSender] (DEBUG) Sending 8=FIX.4.4|9=57|35=0|49=FIXCLIENT1|56=DMA_HUB|34=96|52=20240731-08:29:09|10=062|
2024-07-31 10:29:24.420 [59] [FixSender] (DEBUG) Receiving 8=FIX.4.4|9=62|35=0|34=131|49=DMA_HUB|56=FIXCLIENT1|52=20240731-08:29:24.419|10=041|
2024-07-31 10:29:39.309 [60] [FixSender] (DEBUG) Sending 8=FIX.4.4|9=57|35=0|49=FIXCLIENT1|56=DMA_HUB|34=97|52=20240731-08:29:39|10=066|
2024-07-31 10:29:54.371 [59] [FixSender] (DEBUG) Receiving 8=FIX.4.4|9=62|35=0|34=132|49=DMA_HUB|56=FIXCLIENT1|52=20240731-08:29:54.371|10=042|
2024-07-31 10:30:09.309 [60] [FixSender] (DEBUG) Sending 8=FIX.4.4|9=57|35=0|49=FIXCLIENT1|56=DMA_HUB|34=98|52=20240731-08:30:09|10=056|
2024-07-31 10:30:24.324 [59] [FixSender] (DEBUG) Receiving 8=FIX.4.4|9=62|35=0|34=133|49=DMA_HUB|56=FIXCLIENT1|52=20240731-08:30:24.323|10=029|
2024-07-31 10:30:39.309 [60] [FixSender] (DEBUG) Sending 8=FIX.4.4|9=57|35=0|49=FIXCLIENT1|56=DMA_HUB|34=99|52=20240731-08:30:39|10=060|
2024-07-31 10:30:54.276 [59] [FixSender] (DEBUG) Receiving 8=FIX.4.4|9=62|35=0|34=134|49=DMA_HUB|56=FIXCLIENT1|52=20240731-08:30:54.275|10=039|
2024-07-31 10:31:09.310 [60] [FixSender] (DEBUG) Sending 8=FIX.4.4|9=58|35=0|49=FIXCLIENT1|56=DMA_HUB|34=100|52=20240731-08:31:09|10=090|
2024-07-31 10:31:24.227 [59] [FixSender] (DEBUG) Receiving 8=FIX.4.4|9=62|35=0|34=135|49=DMA_HUB|56=FIXCLIENT1|52=20240731-08:31:24.227|10=035|
2024-07-31 10:31:39.310 [60] [FixSender] (DEBUG) Sending 8=FIX.4.4|9=58|35=0|49=FIXCLIENT1|56=DMA_HUB|34=101|52=20240731-08:31:39|10=094|
2024-07-31 10:31:54.180 [59] [FixSender] (DEBUG) Receiving 8=FIX.4.4|9=62|35=0|34=136|49=DMA_HUB|56=FIXCLIENT1|52=20240731-08:31:54.179|10=045|
2024-07-31 10:32:09.311 [60] [FixSender] (DEBUG) Sending 8=FIX.4.4|9=58|35=0|49=FIXCLIENT1|56=DMA_HUB|34=102|52=20240731-08:32:09|10=093|
2024-07-31 10:32:24.132 [59] [FixSender] (DEBUG) Receiving 8=FIX.4.4|9=62|35=0|34=137|49=DMA_HUB|56=FIXCLIENT1|52=20240731-08:32:24.131|10=032|
2024-07-31 10:32:39.312 [60] [FixSender] (DEBUG) Sending 8=FIX.4.4|9=58|35=0|49=FIXCLIENT1|56=DMA_HUB|34=103|52=20240731-08:32:39|10=097|
2024-07-31 10:32:54.084 [59] [FixSender] (DEBUG) Receiving 8=FIX.4.4|9=62|35=0|34=138|49=DMA_HUB|56=FIXCLIENT1|52=20240731-08:32:54.083|10=042|
2024-07-31 10:33:09.313 [60] [FixSender] (DEBUG) Sending 8=FIX.4.4|9=58|35=0|49=FIXCLIENT1|56=DMA_HUB|34=104|52=20240731-08:33:09|10=096|
2024-07-31 10:33:24.035 [59] [FixSender] (DEBUG) Receiving 8=FIX.4.4|9=62|35=0|34=139|49=DMA_HUB|56=FIXCLIENT1|52=20240731-08:33:24.035|10=038|
2024-07-31 10:33:39.314 [60] [FixSender] (DEBUG) Sending 8=FIX.4.4|9=58|35=0|49=FIXCLIENT1|56=DMA_HUB|34=105|52=20240731-08:33:39|10=100|
2024-07-31 10:33:53.988 [59] [FixSender] (DEBUG) Receiving 8=FIX.4.4|9=62|35=0|34=140|49=DMA_HUB|56=FIXCLIENT1|52=20240731-08:33:53.987|10=048|
2024-07-31 10:34:09.314 [60] [FixSender] (DEBUG) Sending 8=FIX.4.4|9=58|35=0|49=FIXCLIENT1|56=DMA_HUB|34=106|52=20240731-08:34:09|10=099|
2024-07-31 10:34:23.939 [59] [FixSender] (DEBUG) Receiving 8=FIX.4.4|9=62|35=0|34=141|49=DMA_HUB|56=FIXCLIENT1|52=20240731-08:34:23.939|10=044|
2024-07-31 10:34:39.315 [60] [FixSender] (DEBUG) Sending 8=FIX.4.4|9=58|35=0|49=FIXCLIENT1|56=DMA_HUB|34=107|52=20240731-08:34:39|10=103|
2024-07-31 10:34:53.892 [59] [FixSender] (DEBUG) Receiving 8=FIX.4.4|9=62|35=0|34=142|49=DMA_HUB|56=FIXCLIENT1|52=20240731-08:34:53.891|10=045|
2024-07-31 10:35:09.315 [60] [FixSender] (DEBUG) Sending 8=FIX.4.4|9=58|35=0|49=FIXCLIENT1|56=DMA_HUB|34=108|52=20240731-08:35:09|10=102|
2024-07-31 10:35:23.843 [59] [FixSender] (DEBUG) Receiving 8=FIX.4.4|9=62|35=0|34=143|49=DMA_HUB|56=FIXCLIENT1|52=20240731-08:35:23.843|10=041|
2024-07-31 10:35:39.316 [60] [FixSender] (DEBUG) Sending 8=FIX.4.4|9=58|35=0|49=FIXCLIENT1|56=DMA_HUB|34=109|52=20240731-08:35:39|10=106|
2024-07-31 10:35:53.796 [59] [FixSender] (DEBUG) Receiving 8=FIX.4.4|9=62|35=0|34=144|49=DMA_HUB|56=FIXCLIENT1|52=20240731-08:35:53.795|10=051|
2024-07-31 10:36:09.317 [60] [FixSender] (DEBUG) Sending 8=FIX.4.4|9=58|35=0|49=FIXCLIENT1|56=DMA_HUB|34=110|52=20240731-08:36:09|10=096|
2024-07-31 10:36:23.747 [59] [FixSender] (DEBUG) Receiving 8=FIX.4.4|9=62|35=0|34=145|49=DMA_HUB|56=FIXCLIENT1|52=20240731-08:36:23.747|10=047|
2024-07-31 10:36:39.318 [60] [FixSender] (DEBUG) Sending 8=FIX.4.4|9=58|35=0|49=FIXCLIENT1|56=DMA_HUB|34=111|52=20240731-08:36:39|10=100|
2024-07-31 10:36:53.700 [59] [FixSender] (DEBUG) Receiving 8=FIX.4.4|9=62|35=0|34=146|49=DMA_HUB|56=FIXCLIENT1|52=20240731-08:36:53.699|10=057|
2024-07-31 10:37:09.319 [60] [FixSender] (DEBUG) Sending 8=FIX.4.4|9=58|35=0|49=FIXCLIENT1|56=DMA_HUB|34=112|52=20240731-08:37:09|10=099|
2024-07-31 10:37:23.651 [59] [FixSender] (DEBUG) Receiving 8=FIX.4.4|9=62|35=0|34=147|49=DMA_HUB|56=FIXCLIENT1|52=20240731-08:37:23.651|10=044|
2024-07-31 10:37:39.320 [60] [FixSender] (DEBUG) Sending 8=FIX.4.4|9=58|35=0|49=FIXCLIENT1|56=DMA_HUB|34=113|52=20240731-08:37:39|10=103|
2024-07-31 10:37:53.604 [59] [FixSender] (DEBUG) Receiving 8=FIX.4.4|9=62|35=0|34=148|49=DMA_HUB|56=FIXCLIENT1|52=20240731-08:37:53.603|10=045|
2024-07-31 10:38:09.320 [60] [FixSender] (DEBUG) Sending 8=FIX.4.4|9=58|35=0|49=FIXCLIENT1|56=DMA_HUB|34=114|52=20240731-08:38:09|10=102|
2024-07-31 10:38:23.555 [59] [FixSender] (DEBUG) Receiving 8=FIX.4.4|9=62|35=0|34=149|49=DMA_HUB|56=FIXCLIENT1|52=20240731-08:38:23.555|10=050|
2024-07-31 10:38:39.321 [60] [FixSender] (DEBUG) Sending 8=FIX.4.4|9=58|35=0|49=FIXCLIENT1|56=DMA_HUB|34=115|52=20240731-08:38:39|10=106|
2024-07-31 10:38:53.508 [59] [FixSender] (DEBUG) Receiving 8=FIX.4.4|9=62|35=0|34=150|49=DMA_HUB|56=FIXCLIENT1|52=20240731-08:38:53.507|10=042|
2024-07-31 10:39:09.322 [60] [FixSender] (DEBUG) Sending 8=FIX.4.4|9=58|35=0|49=FIXCLIENT1|56=DMA_HUB|34=116|52=20240731-08:39:09|10=105|
2024-07-31 10:39:23.459 [59] [FixSender] (DEBUG) Receiving 8=FIX.4.4|9=62|35=0|34=151|49=DMA_HUB|56=FIXCLIENT1|52=20240731-08:39:23.459|10=047|
2024-07-31 10:39:39.323 [60] [FixSender] (DEBUG) Sending 8=FIX.4.4|9=58|35=0|49=FIXCLIENT1|56=DMA_HUB|34=117|52=20240731-08:39:39|10=109|
2024-07-31 10:39:53.412 [59] [FixSender] (DEBUG) Receiving 8=FIX.4.4|9=62|35=0|34=152|49=DMA_HUB|56=FIXCLIENT1|52=20240731-08:39:53.411|10=039|
2024-07-31 10:40:09.324 [60] [FixSender] (DEBUG) Sending 8=FIX.4.4|9=58|35=0|49=FIXCLIENT1|56=DMA_HUB|34=118|52=20240731-08:40:09|10=099|
2024-07-31 10:40:23.364 [59] [FixSender] (DEBUG) Receiving 8=FIX.4.4|9=62|35=0|34=153|49=DMA_HUB|56=FIXCLIENT1|52=20240731-08:40:23.364|10=036|
2024-07-31 10:40:39.324 [60] [FixSender] (DEBUG) Sending 8=FIX.4.4|9=58|35=0|49=FIXCLIENT1|56=DMA_HUB|34=119|52=20240731-08:40:39|10=103|
2024-07-31 10:40:53.316 [59] [FixSender] (DEBUG) Receiving 8=FIX.4.4|9=62|35=0|34=154|49=DMA_HUB|56=FIXCLIENT1|52=20240731-08:40:53.315|10=036|
2024-07-31 10:41:09.326 [60] [FixSender] (DEBUG) Sending 8=FIX.4.4|9=58|35=0|49=FIXCLIENT1|56=DMA_HUB|34=120|52=20240731-08:41:09|10=093|
2024-07-31 10:41:23.268 [59] [FixSender] (DEBUG) Receiving 8=FIX.4.4|9=62|35=0|34=155|49=DMA_HUB|56=FIXCLIENT1|52=20240731-08:41:23.268|10=042|
2024-07-31 10:41:39.326 [60] [FixSender] (DEBUG) Sending 8=FIX.4.4|9=58|35=0|49=FIXCLIENT1|56=DMA_HUB|34=121|52=20240731-08:41:39|10=097|
2024-07-31 10:41:53.220 [59] [FixSender] (DEBUG) Receiving 8=FIX.4.4|9=62|35=0|34=156|49=DMA_HUB|56=FIXCLIENT1|52=20240731-08:41:53.219|10=042|
2024-07-31 10:42:09.327 [60] [FixSender] (DEBUG) Sending 8=FIX.4.4|9=58|35=0|49=FIXCLIENT1|56=DMA_HUB|34=122|52=20240731-08:42:09|10=096|
2024-07-31 10:42:23.172 [59] [FixSender] (DEBUG) Receiving 8=FIX.4.4|9=62|35=0|34=157|49=DMA_HUB|56=FIXCLIENT1|52=20240731-08:42:23.172|10=039|
2024-07-31 10:42:39.328 [60] [FixSender] (DEBUG) Sending 8=FIX.4.4|9=58|35=0|49=FIXCLIENT1|56=DMA_HUB|34=123|52=20240731-08:42:39|10=100|
2024-07-31 10:42:53.123 [59] [FixSender] (DEBUG) Receiving 8=FIX.4.4|9=62|35=0|34=158|49=DMA_HUB|56=FIXCLIENT1|52=20240731-08:42:53.123|10=039|
2024-07-31 10:43:09.328 [60] [FixSender] (DEBUG) Sending 8=FIX.4.4|9=58|35=0|49=FIXCLIENT1|56=DMA_HUB|34=124|52=20240731-08:43:09|10=099|
2024-07-31 10:43:23.076 [59] [FixSender] (DEBUG) Receiving 8=FIX.4.4|9=62|35=0|34=159|49=DMA_HUB|56=FIXCLIENT1|52=20240731-08:43:23.076|10=045|
2024-07-31 10:43:39.329 [60] [FixSender] (DEBUG) Sending 8=FIX.4.4|9=58|35=0|49=FIXCLIENT1|56=DMA_HUB|34=125|52=20240731-08:43:39|10=103|
2024-07-31 10:43:53.028 [59] [FixSender] (DEBUG) Receiving 8=FIX.4.4|9=62|35=0|34=160|49=DMA_HUB|56=FIXCLIENT1|52=20240731-08:43:53.027|10=036|
2024-07-31 10:44:09.330 [60] [FixSender] (DEBUG) Sending 8=FIX.4.4|9=58|35=0|49=FIXCLIENT1|56=DMA_HUB|34=126|52=20240731-08:44:09|10=102|
2024-07-31 10:44:22.980 [59] [FixSender] (DEBUG) Receiving 8=FIX.4.4|9=62|35=0|34=161|49=DMA_HUB|56=FIXCLIENT1|52=20240731-08:44:22.980|10=042|
2024-07-31 10:44:39.330 [60] [FixSender] (DEBUG) Sending 8=FIX.4.4|9=58|35=0|49=FIXCLIENT1|56=DMA_HUB|34=127|52=20240731-08:44:39|10=106|
2024-07-31 10:44:52.931 [59] [FixSender] (DEBUG) Receiving 8=FIX.4.4|9=62|35=0|34=162|49=DMA_HUB|56=FIXCLIENT1|52=20240731-08:44:52.931|10=042|
2024-07-31 10:45:09.331 [60] [FixSender] (DEBUG) Sending 8=FIX.4.4|9=58|35=0|49=FIXCLIENT1|56=DMA_HUB|34=128|52=20240731-08:45:09|10=105|
2024-07-31 10:45:22.891 [59] [FixSender] (DEBUG) Receiving 8=FIX.4.4|9=62|35=0|34=163|49=DMA_HUB|56=FIXCLIENT1|52=20240731-08:45:22.884|10=048|
2024-07-31 10:45:39.331 [60] [FixSender] (DEBUG) Sending 8=FIX.4.4|9=58|35=0|49=FIXCLIENT1|56=DMA_HUB|34=129|52=20240731-08:45:39|10=109|
2024-07-31 10:45:52.836 [59] [FixSender] (DEBUG) Receiving 8=FIX.4.4|9=62|35=0|34=164|49=DMA_HUB|56=FIXCLIENT1|52=20240731-08:45:52.835|10=048|
2024-07-31 10:46:09.331 [60] [FixSender] (DEBUG) Sending 8=FIX.4.4|9=58|35=0|49=FIXCLIENT1|56=DMA_HUB|34=130|52=20240731-08:46:09|10=099|
2024-07-31 10:46:22.788 [59] [FixSender] (DEBUG) Receiving 8=FIX.4.4|9=62|35=0|34=165|49=DMA_HUB|56=FIXCLIENT1|52=20240731-08:46:22.787|10=053|
2024-07-31 10:46:39.332 [60] [FixSender] (DEBUG) Sending 8=FIX.4.4|9=58|35=0|49=FIXCLIENT1|56=DMA_HUB|34=131|52=20240731-08:46:39|10=103|
2024-07-31 10:46:52.739 [59] [FixSender] (DEBUG) Receiving 8=FIX.4.4|9=62|35=0|34=166|49=DMA_HUB|56=FIXCLIENT1|52=20240731-08:46:52.739|10=054|
2024-07-31 10:47:09.332 [60] [FixSender] (DEBUG) Sending 8=FIX.4.4|9=58|35=0|49=FIXCLIENT1|56=DMA_HUB|34=132|52=20240731-08:47:09|10=102|
2024-07-31 10:47:22.692 [59] [FixSender] (DEBUG) Receiving 8=FIX.4.4|9=62|35=0|34=167|49=DMA_HUB|56=FIXCLIENT1|52=20240731-08:47:22.691|10=050|
2024-07-31 10:47:39.333 [60] [FixSender] (DEBUG) Sending 8=FIX.4.4|9=58|35=0|49=FIXCLIENT1|56=DMA_HUB|34=133|52=20240731-08:47:39|10=106|
2024-07-31 10:47:52.643 [59] [FixSender] (DEBUG) Receiving 8=FIX.4.4|9=62|35=0|34=168|49=DMA_HUB|56=FIXCLIENT1|52=20240731-08:47:52.643|10=051|
2024-07-31 10:48:09.333 [60] [FixSender] (DEBUG) Sending 8=FIX.4.4|9=58|35=0|49=FIXCLIENT1|56=DMA_HUB|34=134|52=20240731-08:48:09|10=105|
2024-07-31 10:48:22.596 [59] [FixSender] (DEBUG) Receiving 8=FIX.4.4|9=62|35=0|34=169|49=DMA_HUB|56=FIXCLIENT1|52=20240731-08:48:22.595|10=056|
2024-07-31 10:48:39.334 [60] [FixSender] (DEBUG) Sending 8=FIX.4.4|9=58|35=0|49=FIXCLIENT1|56=DMA_HUB|34=135|52=20240731-08:48:39|10=109|
2024-07-31 10:48:52.547 [59] [FixSender] (DEBUG) Receiving 8=FIX.4.4|9=62|35=0|34=170|49=DMA_HUB|56=FIXCLIENT1|52=20240731-08:48:52.547|10=048|
2024-07-31 10:49:09.334 [60] [FixSender] (DEBUG) Sending 8=FIX.4.4|9=58|35=0|49=FIXCLIENT1|56=DMA_HUB|34=136|52=20240731-08:49:09|10=108|
2024-07-31 10:49:22.500 [59] [FixSender] (DEBUG) Receiving 8=FIX.4.4|9=62|35=0|34=171|49=DMA_HUB|56=FIXCLIENT1|52=20240731-08:49:22.499|10=053|
2024-07-31 10:49:39.335 [60] [FixSender] (DEBUG) Sending 8=FIX.4.4|9=58|35=0|49=FIXCLIENT1|56=DMA_HUB|34=137|52=20240731-08:49:39|10=112|
2024-07-31 10:49:52.452 [59] [FixSender] (DEBUG) Receiving 8=FIX.4.4|9=62|35=0|34=172|49=DMA_HUB|56=FIXCLIENT1|52=20240731-08:49:52.452|10=046|
2024-07-31 10:50:09.335 [60] [FixSender] (DEBUG) Sending 8=FIX.4.4|9=58|35=0|49=FIXCLIENT1|56=DMA_HUB|34=138|52=20240731-08:50:09|10=102|
2024-07-31 10:50:22.403 [59] [FixSender] (DEBUG) Receiving 8=FIX.4.4|9=62|35=0|34=173|49=DMA_HUB|56=FIXCLIENT1|52=20240731-08:50:22.403|10=032|
2024-07-31 10:50:39.336 [60] [FixSender] (DEBUG) Sending 8=FIX.4.4|9=58|35=0|49=FIXCLIENT1|56=DMA_HUB|34=139|52=20240731-08:50:39|10=106|
2024-07-31 10:50:52.356 [59] [FixSender] (DEBUG) Receiving 8=FIX.4.4|9=62|35=0|34=174|49=DMA_HUB|56=FIXCLIENT1|52=20240731-08:50:52.356|10=043|
2024-07-31 10:51:09.337 [60] [FixSender] (DEBUG) Sending 8=FIX.4.4|9=58|35=0|49=FIXCLIENT1|56=DMA_HUB|34=140|52=20240731-08:51:09|10=096|
2024-07-31 10:51:22.307 [59] [FixSender] (DEBUG) Receiving 8=FIX.4.4|9=62|35=0|34=175|49=DMA_HUB|56=FIXCLIENT1|52=20240731-08:51:22.307|10=038|
2024-07-31 10:51:39.337 [60] [FixSender] (DEBUG) Sending 8=FIX.4.4|9=58|35=0|49=FIXCLIENT1|56=DMA_HUB|34=141|52=20240731-08:51:39|10=100|
2024-07-31 10:51:52.260 [59] [FixSender] (DEBUG) Receiving 8=FIX.4.4|9=62|35=0|34=176|49=DMA_HUB|56=FIXCLIENT1|52=20240731-08:51:52.259|10=048|
2024-07-31 10:52:09.338 [60] [FixSender] (DEBUG) Sending 8=FIX.4.4|9=58|35=0|49=FIXCLIENT1|56=DMA_HUB|34=142|52=20240731-08:52:09|10=099|
2024-07-31 10:52:22.211 [59] [FixSender] (DEBUG) Receiving 8=FIX.4.4|9=62|35=0|34=177|49=DMA_HUB|56=FIXCLIENT1|52=20240731-08:52:22.211|10=035|
2024-07-31 10:52:39.338 [60] [FixSender] (DEBUG) Sending 8=FIX.4.4|9=58|35=0|49=FIXCLIENT1|56=DMA_HUB|34=143|52=20240731-08:52:39|10=103|
2024-07-31 10:52:52.164 [59] [FixSender] (DEBUG) Receiving 8=FIX.4.4|9=62|35=0|34=178|49=DMA_HUB|56=FIXCLIENT1|52=20240731-08:52:52.163|10=045|
2024-07-31 10:53:09.339 [60] [FixSender] (DEBUG) Sending 8=FIX.4.4|9=58|35=0|49=FIXCLIENT1|56=DMA_HUB|34=144|52=20240731-08:53:09|10=102|
2024-07-31 10:53:22.115 [59] [FixSender] (DEBUG) Receiving 8=FIX.4.4|9=62|35=0|34=179|49=DMA_HUB|56=FIXCLIENT1|52=20240731-08:53:22.115|10=041|
2024-07-31 10:53:39.339 [60] [FixSender] (DEBUG) Sending 8=FIX.4.4|9=58|35=0|49=FIXCLIENT1|56=DMA_HUB|34=145|52=20240731-08:53:39|10=106|
2024-07-31 10:53:52.068 [59] [FixSender] (DEBUG) Receiving 8=FIX.4.4|9=62|35=0|34=180|49=DMA_HUB|56=FIXCLIENT1|52=20240731-08:53:52.067|10=042|
2024-07-31 10:54:09.340 [60] [FixSender] (DEBUG) Sending 8=FIX.4.4|9=58|35=0|49=FIXCLIENT1|56=DMA_HUB|34=146|52=20240731-08:54:09|10=105|
2024-07-31 10:54:22.019 [59] [FixSender] (DEBUG) Receiving 8=FIX.4.4|9=62|35=0|34=181|49=DMA_HUB|56=FIXCLIENT1|52=20240731-08:54:22.019|10=038|
2024-07-31 10:54:39.340 [60] [FixSender] (DEBUG) Sending 8=FIX.4.4|9=58|35=0|49=FIXCLIENT1|56=DMA_HUB|34=147|52=20240731-08:54:39|10=109|
2024-07-31 10:54:51.972 [59] [FixSender] (DEBUG) Receiving 8=FIX.4.4|9=62|35=0|34=182|49=DMA_HUB|56=FIXCLIENT1|52=20240731-08:54:51.971|10=048|
2024-07-31 10:55:09.340 [60] [FixSender] (DEBUG) Sending 8=FIX.4.4|9=58|35=0|49=FIXCLIENT1|56=DMA_HUB|34=148|52=20240731-08:55:09|10=108|
2024-07-31 10:55:21.924 [59] [FixSender] (DEBUG) Receiving 8=FIX.4.4|9=62|35=0|34=183|49=DMA_HUB|56=FIXCLIENT1|52=20240731-08:55:21.923|10=044|
2024-07-31 10:55:39.340 [60] [FixSender] (DEBUG) Sending 8=FIX.4.4|9=58|35=0|49=FIXCLIENT1|56=DMA_HUB|34=149|52=20240731-08:55:39|10=112|
2024-07-31 10:55:51.875 [59] [FixSender] (DEBUG) Receiving 8=FIX.4.4|9=62|35=0|34=184|49=DMA_HUB|56=FIXCLIENT1|52=20240731-08:55:51.875|10=054|
2024-07-31 10:56:09.341 [60] [FixSender] (DEBUG) Sending 8=FIX.4.4|9=58|35=0|49=FIXCLIENT1|56=DMA_HUB|34=150|52=20240731-08:56:09|10=102|
2024-07-31 10:56:21.828 [59] [FixSender] (DEBUG) Receiving 8=FIX.4.4|9=62|35=0|34=185|49=DMA_HUB|56=FIXCLIENT1|52=20240731-08:56:21.827|10=050|
2024-07-31 10:56:39.342 [60] [FixSender] (DEBUG) Sending 8=FIX.4.4|9=58|35=0|49=FIXCLIENT1|56=DMA_HUB|34=151|52=20240731-08:56:39|10=106|
2024-07-31 10:56:51.779 [59] [FixSender] (DEBUG) Receiving 8=FIX.4.4|9=62|35=0|34=186|49=DMA_HUB|56=FIXCLIENT1|52=20240731-08:56:51.779|10=060|
2024-07-31 10:57:09.342 [60] [FixSender] (DEBUG) Sending 8=FIX.4.4|9=58|35=0|49=FIXCLIENT1|56=DMA_HUB|34=152|52=20240731-08:57:09|10=105|
2024-07-31 10:57:21.732 [59] [FixSender] (DEBUG) Receiving 8=FIX.4.4|9=62|35=0|34=187|49=DMA_HUB|56=FIXCLIENT1|52=20240731-08:57:21.731|10=047|
2024-07-31 10:57:39.343 [60] [FixSender] (DEBUG) Sending 8=FIX.4.4|9=58|35=0|49=FIXCLIENT1|56=DMA_HUB|34=153|52=20240731-08:57:39|10=109|
2024-07-31 10:57:51.684 [59] [FixSender] (DEBUG) Receiving 8=FIX.4.4|9=62|35=0|34=188|49=DMA_HUB|56=FIXCLIENT1|52=20240731-08:57:51.684|10=058|
2024-07-31 10:58:09.343 [60] [FixSender] (DEBUG) Sending 8=FIX.4.4|9=58|35=0|49=FIXCLIENT1|56=DMA_HUB|34=154|52=20240731-08:58:09|10=108|
2024-07-31 10:58:21.636 [59] [FixSender] (DEBUG) Receiving 8=FIX.4.4|9=62|35=0|34=189|49=DMA_HUB|56=FIXCLIENT1|52=20240731-08:58:21.635|10=053|
2024-07-31 10:58:39.344 [60] [FixSender] (DEBUG) Sending 8=FIX.4.4|9=58|35=0|49=FIXCLIENT1|56=DMA_HUB|34=155|52=20240731-08:58:39|10=112|
2024-07-31 10:58:51.588 [59] [FixSender] (DEBUG) Receiving 8=FIX.4.4|9=62|35=0|34=190|49=DMA_HUB|56=FIXCLIENT1|52=20240731-08:58:51.587|10=054|
2024-07-31 10:59:09.344 [60] [FixSender] (DEBUG) Sending 8=FIX.4.4|9=58|35=0|49=FIXCLIENT1|56=DMA_HUB|34=156|52=20240731-08:59:09|10=111|
2024-07-31 10:59:21.539 [59] [FixSender] (DEBUG) Receiving 8=FIX.4.4|9=62|35=0|34=191|49=DMA_HUB|56=FIXCLIENT1|52=20240731-08:59:21.539|10=050|
2024-07-31 10:59:39.345 [60] [FixSender] (DEBUG) Sending 8=FIX.4.4|9=58|35=0|49=FIXCLIENT1|56=DMA_HUB|34=157|52=20240731-08:59:39|10=115|
2024-07-31 10:59:51.492 [59] [FixSender] (DEBUG) Receiving 8=FIX.4.4|9=62|35=0|34=192|49=DMA_HUB|56=FIXCLIENT1|52=20240731-08:59:51.491|10=051|
2024-07-31 11:00:09.346 [60] [FixSender] (DEBUG) Sending 8=FIX.4.4|9=58|35=0|49=FIXCLIENT1|56=DMA_HUB|34=158|52=20240731-09:00:09|10=100|
2024-07-31 11:00:21.444 [59] [FixSender] (DEBUG) Receiving 8=FIX.4.4|9=62|35=0|34=193|49=DMA_HUB|56=FIXCLIENT1|52=20240731-09:00:21.444|10=034|
2024-07-31 11:00:39.346 [60] [FixSender] (DEBUG) Sending 8=FIX.4.4|9=58|35=0|49=FIXCLIENT1|56=DMA_HUB|34=159|52=20240731-09:00:39|10=104|
2024-07-31 11:00:51.395 [59] [FixSender] (DEBUG) Receiving 8=FIX.4.4|9=62|35=0|34=194|49=DMA_HUB|56=FIXCLIENT1|52=20240731-09:00:51.395|10=043|
2024-07-31 11:01:09.347 [60] [FixSender] (DEBUG) Sending 8=FIX.4.4|9=58|35=0|49=FIXCLIENT1|56=DMA_HUB|34=160|52=20240731-09:01:09|10=094|
2024-07-31 11:01:21.348 [59] [FixSender] (DEBUG) Receiving 8=FIX.4.4|9=62|35=0|34=195|49=DMA_HUB|56=FIXCLIENT1|52=20240731-09:01:21.347|10=039|
2024-07-31 11:01:39.347 [60] [FixSender] (DEBUG) Sending 8=FIX.4.4|9=58|35=0|49=FIXCLIENT1|56=DMA_HUB|34=161|52=20240731-09:01:39|10=098|
2024-07-31 11:01:51.299 [59] [FixSender] (DEBUG) Receiving 8=FIX.4.4|9=62|35=0|34=196|49=DMA_HUB|56=FIXCLIENT1|52=20240731-09:01:51.299|10=049|
2024-07-31 11:02:00.051 [59] [FixSender] (DEBUG) Receiving 8=FIX.4.4|9=62|35=5|34=197|49=DMA_HUB|56=FIXCLIENT1|52=20240731-09:02:00.051|10=036|
2024-07-31 11:02:00.052 [59] [FixSender] (DEBUG) Sending 8=FIX.4.4|9=80|35=5|49=FIXCLIENT1|56=DMA_HUB|34=162|52=20240731-09:02:00|58=Replying to logout|10=010|
2024-07-31 11:02:00.052 [59] [FixSender] (WARNING) The Fix connection is close...
2024-07-31 11:02:00.061 [59] [FixSender] (INFO) physical cnx finished Connection reset by peer
2024-07-31 11:02:00.074 [59] [FixSender] (WARNING) Disconnected
2024-07-31 12:12:08.059 [73] [FixSender] (INFO) try to connect to : localhost port :12345
2024-07-31 12:12:08.100 [73] [FixSender] (INFO) physical cnx initiated
2024-07-31 12:12:08.130 [73] [FixSender] (DEBUG) Sending 8=FIX.4.4|9=88|35=A|49=FIXCLIENT1|56=DMA_HUB|34=163|52=20240731-10:12:08|98=0|108=30|95=9|96=null/null|10=190|
2024-07-31 12:12:08.146 [73] [FixSender] (DEBUG) Receiving 8=FIX.4.4|9=74|35=A|34=200|49=DMA_HUB|56=FIXCLIENT1|52=20240731-10:12:08.143|108=30|98=0|10=064|
2024-07-31 12:12:08.152 [73] [FixSender] (WARNING) The Fix connection is open...
2024-07-31 12:12:08.165 [73] [FixSender] (DEBUG) Sending 8=FIX.4.4|9=69|35=2|49=FIXCLIENT1|56=DMA_HUB|34=164|52=20240731-10:12:08|7=198|16=0|10=075|
2024-07-31 12:12:08.168 [73] [FixSender] (DEBUG) Receiving 8=FIX.4.4|9=257|35=8|34=198|49=DMA_HUB|56=FIXCLIENT1|52=20240731-10:12:08.167|43=Y|122=20240731-09:50:51.814|11=HS_172241361712|37=FXdIhXQ9I|198=Q7DPp50b5e|54=1|40=2|59=0|17=2024073153|150=4|39=4|38=874|151=0|14=0|6=0|44=10|60=20240731-08:13:51.518|55=E:07G@XETR|58=resync|10=008|
2024-07-31 12:12:08.172 [73] [FixSender] (DEBUG) Receiving 8=FIX.4.4|9=253|35=8|34=199|49=DMA_HUB|56=FIXCLIENT1|52=20240731-10:12:08.167|43=Y|122=20240731-09:50:51.815|11=17224141290|37=FXgIhXQ9I|198=Q7DPp850db|54=1|40=2|59=0|17=2024073154|150=4|39=4|38=700|151=0|14=0|6=0|44=10|60=20240731-08:22:09.304|55=E:07G@XETR|58=resync|10=206|
2024-07-31 12:12:08.174 [73] [FixSender] (DEBUG) Receiving 8=FIX.4.4|9=106|35=4|34=200|49=DMA_HUB|56=FIXCLIENT1|52=20240731-10:12:08.168|43=Y|122=20240731-10:12:08.168|36=201|123=Y|10=178|
2024-07-31 12:12:10.044 [76] [FixSender] (DEBUG) Sending 8=FIX.4.4|9=197|35=D|49=FIXCLIENT1|56=DMA_HUB|34=165|52=20240731-10:12:10|21=1|11=HS_172242073016|38=200|55=E:07G@XETR|54=1|60=20240731-10:12:10|40=2|59=0|44=197.11|48=US3390411052|22=4|15=EUR|207=XETR|1=bram_123|10=047|
2024-07-31 12:12:10.053 [73] [FixSender] (DEBUG) Receiving 8=FIX.4.4|9=239|35=8|34=201|49=DMA_HUB|56=FIXCLIENT1|52=20240731-10:12:10.052|11=HS_172242073016|37=FXPsG4pfL|54=1|40=2|59=0|17=2024073155|150=A|39=A|38=200|151=200|14=0|6=0|44=197.11|60=20240731-10:12:10.000|22=4|48=US3390411052|207=XETR|15=EUR|55=[N/A]|10=175|
2024-07-31 12:12:38.099 [73] [FixSender] (DEBUG) Receiving 8=FIX.4.4|9=62|35=0|34=202|49=DMA_HUB|56=FIXCLIENT1|52=20240731-10:12:38.098|10=033|
2024-07-31 12:12:40.047 [74] [FixSender] (DEBUG) Sending 8=FIX.4.4|9=58|35=0|49=FIXCLIENT1|56=DMA_HUB|34=166|52=20240731-10:12:40|10=089|
2024-07-31 12:13:08.052 [73] [FixSender] (DEBUG) Receiving 8=FIX.4.4|9=62|35=0|34=203|49=DMA_HUB|56=FIXCLIENT1|52=20240731-10:13:08.050|10=020|
2024-07-31 12:13:10.049 [74] [FixSender] (DEBUG) Sending 8=FIX.4.4|9=58|35=0|49=FIXCLIENT1|56=DMA_HUB|34=167|52=20240731-10:13:10|10=088|
2024-07-31 12:13:36.483 [73] [FixSender] (DEBUG) Receiving 8=FIX.4.4|9=62|35=5|34=204|49=DMA_HUB|56=FIXCLIENT1|52=20240731-10:13:36.471|10=034|
2024-07-31 12:13:36.500 [73] [FixSender] (DEBUG) Sending 8=FIX.4.4|9=80|35=5|49=FIXCLIENT1|56=DMA_HUB|34=168|52=20240731-10:13:36|58=Replying to logout|10=019|
2024-07-31 12:13:36.501 [73] [FixSender] (WARNING) The Fix connection is close...
2024-07-31 12:13:36.516 [73] [FixSender] (INFO) physical cnx finished Connection reset by peer
2024-07-31 12:13:36.516 [73] [FixSender] (WARNING) Disconnected
