2024-07-29 15:28:16.714 [1] [Fixsender] (INFO) (c) 2001-2011 ullink SAS. FixSender. Release 1.11.
2024-07-29 15:29:01.077 [35] [FixSender] (INFO) try to connect to : localhost port :12345
2024-07-29 15:29:01.083 [35] [FixSender] (INFO) physical cnx initiated
2024-07-29 15:29:01.095 [35] [FixSender] (DEBUG) Sending 8=FIX.4.4|9=88|35=A|49=FIXCLIENT1|56=DMA_HUB|34=443|52=20240729-13:29:01|98=0|108=30|95=9|96=null/null|10=202|
2024-07-29 15:29:01.100 [35] [FixSender] (DEBUG) Receiving 8=FIX.4.4|9=72|35=A|34=1|49=DMA_HUB|56=FIXCLIENT1|52=20240729-13:29:01.098|108=30|98=0|10=241|
2024-07-29 15:29:01.102 [35] [FixSender] (DEBUG) Sending 8=FIX.4.4|9=110|35=5|49=FIXCLIENT1|56=DMA_HUB|34=444|52=20240729-13:29:01|58=MsgSeqNum expected 472, but MsgSeqNum received 1|10=218|
2024-07-29 15:29:01.103 [35] [FixSender] (INFO) physical cnx finished Connection reset by peer
2024-07-29 15:29:01.103 [35] [FixSender] (WARNING) Disconnected
2024-07-29 15:29:02.736 [39] [FixSender] (INFO) try to connect to : localhost port :12345
2024-07-29 15:29:02.737 [39] [FixSender] (INFO) physical cnx initiated
2024-07-29 15:29:02.738 [39] [FixSender] (DEBUG) Sending 8=FIX.4.4|9=86|35=A|49=FIXCLIENT1|56=DMA_HUB|34=1|52=20240729-13:29:02|98=0|108=30|95=9|96=null/null|10=095|
2024-07-29 15:29:02.742 [39] [FixSender] (DEBUG) Receiving 8=FIX.4.4|9=72|35=A|34=4|49=DMA_HUB|56=FIXCLIENT1|52=20240729-13:29:02.738|108=30|98=0|10=246|
2024-07-29 15:29:02.742 [39] [FixSender] (WARNING) The Fix connection is open...
2024-07-29 15:29:02.744 [39] [FixSender] (DEBUG) Sending 8=FIX.4.4|9=65|35=2|49=FIXCLIENT1|56=DMA_HUB|34=2|52=20240729-13:29:02|7=1|16=0|10=121|
2024-07-29 15:29:02.746 [39] [FixSender] (DEBUG) Receiving 8=FIX.4.4|9=102|35=4|34=1|49=DMA_HUB|56=FIXCLIENT1|52=20240729-13:29:02.746|43=Y|122=20240729-13:29:02.746|36=5|123=Y|10=011|
2024-07-29 15:29:05.623 [42] [FixSender] (DEBUG) Sending 8=FIX.4.4|9=192|35=D|49=FIXCLIENT1|56=DMA_HUB|34=3|52=20240729-13:29:05|21=1|11=HS_17222597450|38=3670|55=E:07G@XETR|54=1|60=20240729-13:29:05|40=2|59=0|44=350|48=US3390411052|22=4|15=EUR|207=XETR|1=bram_123|10=107|
2024-07-29 15:29:05.633 [39] [FixSender] (DEBUG) Receiving 8=FIX.4.4|9=234|35=8|34=5|49=DMA_HUB|56=FIXCLIENT1|52=20240729-13:29:05.632|11=HS_17222597450|37=FXllLvHvQ|54=1|40=2|59=0|17=202407291|150=A|39=A|38=3670|151=3670|14=0|6=0|44=350|60=20240729-13:29:05.000|22=4|48=US3390411052|207=XETR|15=EUR|55=[N/A]|10=079|
2024-07-29 15:29:05.663 [39] [FixSender] (DEBUG) Receiving 8=FIX.4.4|9=248|35=8|34=6|49=DMA_HUB|56=FIXCLIENT1|52=20240729-13:29:05.663|11=HS_17222597450|37=FXllLvHvQ|198=i6Vsf1787|54=1|40=2|59=0|17=202407292|150=0|39=0|38=3670|151=3670|14=0|6=0|44=350|60=20240729-13:29:05.657|22=4|48=US3390411052|207=XETR|15=EUR|55=[N/A]|10=207|
2024-07-29 15:29:05.675 [39] [FixSender] (DEBUG) Receiving 8=FIX.4.4|9=309|35=8|34=7|49=DMA_HUB|56=FIXCLIENT1|52=20240729-13:29:05.674|11=HS_17222597450|37=FXllLvHvQ|198=i6Vsf1787|54=1|32=3670|31=113|17=202407293|527=Bi6Vsf1|150=F|39=2|38=3670|151=0|14=3670|6=113|44=350|60=20240729-13:29:05.657|22=4|48=US3390411052|207=XETR|15=EUR|55=[N/A]|453=1|448=strmrepl|447=D|452=17|40=2|59=0|10=217|
2024-07-29 15:29:16.898 [44] [FixSender] (DEBUG) Sending 8=FIX.4.4|9=207|35=F|49=FIXCLIENT1|56=DMA_HUB|34=4|52=20240729-13:29:16|21=1|11=17222597560|38=3670|55=E:07G@XETR|54=1|60=20240729-13:29:05|40=2|59=0|44=350|48=US3390411052|22=4|15=EUR|207=XETR|1=bram_123|41=HS_17222597450|10=078|
2024-07-29 15:29:16.902 [39] [FixSender] (DEBUG) Receiving 8=FIX.4.4|9=144|35=9|34=8|49=DMA_HUB|56=FIXCLIENT1|52=20240729-13:29:16.902|39=2|434=1|11=17222597560|41=HS_17222597450|37=NONE|58=Unknown order HS_17222597450|10=169|
2024-07-29 15:29:32.716 [39] [FixSender] (DEBUG) Receiving 8=FIX.4.4|9=60|35=0|34=9|49=DMA_HUB|56=FIXCLIENT1|52=20240729-13:29:32.716|10=205|
2024-07-29 15:29:46.899 [40] [FixSender] (DEBUG) Sending 8=FIX.4.4|9=56|35=0|49=FIXCLIENT1|56=DMA_HUB|34=5|52=20240729-13:29:46|10=007|
2024-07-29 15:48:48.788 [1] [Fixsender] (INFO) (c) 2001-2011 ullink SAS. FixSender. Release 1.11.
2024-07-29 15:48:53.055 [35] [FixSender] (INFO) try to connect to : localhost port :12345
2024-07-29 15:48:53.060 [35] [FixSender] (INFO) physical cnx initiated
2024-07-29 15:48:53.070 [35] [FixSender] (DEBUG) Sending 8=FIX.4.4|9=86|35=A|49=FIXCLIENT1|56=DMA_HUB|34=6|52=20240729-13:48:53|98=0|108=30|95=9|96=null/null|10=107|
2024-07-29 15:48:53.075 [35] [FixSender] (DEBUG) Receiving 8=FIX.4.4|9=73|35=A|34=10|49=DMA_HUB|56=FIXCLIENT1|52=20240729-13:48:53.072|108=30|98=0|10=034|
2024-07-29 15:48:53.076 [35] [FixSender] (WARNING) The Fix connection is open...
2024-07-29 15:48:53.077 [35] [FixSender] (DEBUG) Sending 8=FIX.4.4|9=74|35=1|49=FIXCLIENT1|56=DMA_HUB|34=7|52=20240729-13:48:53|112=synchronized?|10=058|
2024-07-29 15:48:53.083 [35] [FixSender] (DEBUG) Receiving 8=FIX.4.4|9=79|35=0|34=11|49=DMA_HUB|56=FIXCLIENT1|52=20240729-13:48:53.082|112=synchronized?|10=049|
2024-07-29 15:48:56.731 [38] [FixSender] (DEBUG) Sending 8=FIX.4.4|9=192|35=D|49=FIXCLIENT1|56=DMA_HUB|34=8|52=20240729-13:48:56|21=1|11=HS_17222609360|38=4611|55=E:07G@XETR|54=1|60=20240729-13:48:56|40=2|59=0|44=350|48=US3390411052|22=4|15=EUR|207=XETR|1=bram_123|10=116|
2024-07-29 15:48:56.741 [35] [FixSender] (DEBUG) Receiving 8=FIX.4.4|9=235|35=8|34=12|49=DMA_HUB|56=FIXCLIENT1|52=20240729-13:48:56.740|11=HS_17222609360|37=FX9018VvQ|54=1|40=2|59=0|17=202407294|150=A|39=A|38=4611|151=4611|14=0|6=0|44=350|60=20240729-13:48:56.000|22=4|48=US3390411052|207=XETR|15=EUR|55=[N/A]|10=199|
2024-07-29 15:48:56.771 [35] [FixSender] (DEBUG) Receiving 8=FIX.4.4|9=249|35=8|34=13|49=DMA_HUB|56=FIXCLIENT1|52=20240729-13:48:56.770|11=HS_17222609360|37=FX9018VvQ|198=J1rxffc8d|54=1|40=2|59=0|17=202407295|150=0|39=0|38=4611|151=4611|14=0|6=0|44=350|60=20240729-13:48:56.763|22=4|48=US3390411052|207=XETR|15=EUR|55=[N/A]|10=207|
2024-07-29 15:48:56.782 [35] [FixSender] (DEBUG) Receiving 8=FIX.4.4|9=308|35=8|34=14|49=DMA_HUB|56=FIXCLIENT1|52=20240729-13:48:56.781|11=HS_17222609360|37=FX9018VvQ|198=J1rxffc8d|54=1|32=4611|31=21|17=202407296|527=BJ1rxf1|150=F|39=2|38=4611|151=0|14=4611|6=21|44=350|60=20240729-13:48:56.764|22=4|48=US3390411052|207=XETR|15=EUR|55=[N/A]|453=1|448=strmrepl|447=D|452=17|40=2|59=0|10=109|
2024-07-29 15:49:23.029 [35] [FixSender] (DEBUG) Receiving 8=FIX.4.4|9=61|35=0|34=15|49=DMA_HUB|56=FIXCLIENT1|52=20240729-13:49:23.028|10=249|
2024-07-29 15:49:26.731 [36] [FixSender] (DEBUG) Sending 8=FIX.4.4|9=56|35=0|49=FIXCLIENT1|56=DMA_HUB|34=9|52=20240729-13:49:26|10=011|
2024-07-29 15:49:52.982 [35] [FixSender] (DEBUG) Receiving 8=FIX.4.4|9=61|35=0|34=16|49=DMA_HUB|56=FIXCLIENT1|52=20240729-13:49:52.981|10=004|
2024-07-29 15:49:56.732 [36] [FixSender] (DEBUG) Sending 8=FIX.4.4|9=57|35=0|49=FIXCLIENT1|56=DMA_HUB|34=10|52=20240729-13:49:56|10=055|
2024-07-29 15:50:22.933 [35] [FixSender] (DEBUG) Receiving 8=FIX.4.4|9=61|35=0|34=17|49=DMA_HUB|56=FIXCLIENT1|52=20240729-13:50:22.932|10=246|
2024-07-29 15:50:26.733 [36] [FixSender] (DEBUG) Sending 8=FIX.4.4|9=57|35=0|49=FIXCLIENT1|56=DMA_HUB|34=11|52=20240729-13:50:26|10=045|
2024-07-29 15:50:52.884 [35] [FixSender] (DEBUG) Receiving 8=FIX.4.4|9=61|35=0|34=18|49=DMA_HUB|56=FIXCLIENT1|52=20240729-13:50:52.884|10=000|
2024-07-29 15:50:56.734 [36] [FixSender] (DEBUG) Sending 8=FIX.4.4|9=57|35=0|49=FIXCLIENT1|56=DMA_HUB|34=12|52=20240729-13:50:56|10=049|
2024-07-29 15:51:22.837 [35] [FixSender] (DEBUG) Receiving 8=FIX.4.4|9=61|35=0|34=19|49=DMA_HUB|56=FIXCLIENT1|52=20240729-13:51:22.836|10=252|
2024-07-29 15:51:26.734 [36] [FixSender] (DEBUG) Sending 8=FIX.4.4|9=57|35=0|49=FIXCLIENT1|56=DMA_HUB|34=13|52=20240729-13:51:26|10=048|
2024-07-29 15:51:52.789 [35] [FixSender] (DEBUG) Receiving 8=FIX.4.4|9=61|35=0|34=20|49=DMA_HUB|56=FIXCLIENT1|52=20240729-13:51:52.789|10=254|
2024-07-29 15:51:56.735 [36] [FixSender] (DEBUG) Sending 8=FIX.4.4|9=57|35=0|49=FIXCLIENT1|56=DMA_HUB|34=14|52=20240729-13:51:56|10=052|
2024-07-29 15:52:22.741 [35] [FixSender] (DEBUG) Receiving 8=FIX.4.4|9=61|35=0|34=21|49=DMA_HUB|56=FIXCLIENT1|52=20240729-13:52:22.740|10=240|
2024-07-29 15:52:26.736 [36] [FixSender] (DEBUG) Sending 8=FIX.4.4|9=57|35=0|49=FIXCLIENT1|56=DMA_HUB|34=15|52=20240729-13:52:26|10=051|
2024-07-29 15:52:52.692 [35] [FixSender] (DEBUG) Receiving 8=FIX.4.4|9=61|35=0|34=22|49=DMA_HUB|56=FIXCLIENT1|52=20240729-13:52:52.692|10=250|
2024-07-29 15:52:56.736 [36] [FixSender] (DEBUG) Sending 8=FIX.4.4|9=57|35=0|49=FIXCLIENT1|56=DMA_HUB|34=16|52=20240729-13:52:56|10=055|
2024-07-29 15:53:22.645 [35] [FixSender] (DEBUG) Receiving 8=FIX.4.4|9=61|35=0|34=23|49=DMA_HUB|56=FIXCLIENT1|52=20240729-13:53:22.644|10=246|
2024-07-29 15:53:26.737 [36] [FixSender] (DEBUG) Sending 8=FIX.4.4|9=57|35=0|49=FIXCLIENT1|56=DMA_HUB|34=17|52=20240729-13:53:26|10=054|
2024-07-29 15:53:52.596 [35] [FixSender] (DEBUG) Receiving 8=FIX.4.4|9=61|35=0|34=24|49=DMA_HUB|56=FIXCLIENT1|52=20240729-13:53:52.596|10=000|
2024-07-29 15:53:56.738 [36] [FixSender] (DEBUG) Sending 8=FIX.4.4|9=57|35=0|49=FIXCLIENT1|56=DMA_HUB|34=18|52=20240729-13:53:56|10=058|
2024-07-29 15:54:22.549 [35] [FixSender] (DEBUG) Receiving 8=FIX.4.4|9=61|35=0|34=25|49=DMA_HUB|56=FIXCLIENT1|52=20240729-13:54:22.548|10=252|
2024-07-29 15:54:26.738 [36] [FixSender] (DEBUG) Sending 8=FIX.4.4|9=57|35=0|49=FIXCLIENT1|56=DMA_HUB|34=19|52=20240729-13:54:26|10=057|
2024-07-29 15:54:52.501 [35] [FixSender] (DEBUG) Receiving 8=FIX.4.4|9=61|35=0|34=26|49=DMA_HUB|56=FIXCLIENT1|52=20240729-13:54:52.501|10=245|
2024-07-29 15:54:56.739 [36] [FixSender] (DEBUG) Sending 8=FIX.4.4|9=57|35=0|49=FIXCLIENT1|56=DMA_HUB|34=20|52=20240729-13:54:56|10=052|
2024-07-29 15:55:22.453 [35] [FixSender] (DEBUG) Receiving 8=FIX.4.4|9=61|35=0|34=27|49=DMA_HUB|56=FIXCLIENT1|52=20240729-13:55:22.452|10=249|
2024-07-29 15:55:26.740 [36] [FixSender] (DEBUG) Sending 8=FIX.4.4|9=57|35=0|49=FIXCLIENT1|56=DMA_HUB|34=21|52=20240729-13:55:26|10=051|
2024-07-29 15:55:52.404 [35] [FixSender] (DEBUG) Receiving 8=FIX.4.4|9=61|35=0|34=28|49=DMA_HUB|56=FIXCLIENT1|52=20240729-13:55:52.404|10=250|
2024-07-29 15:55:56.740 [36] [FixSender] (DEBUG) Sending 8=FIX.4.4|9=57|35=0|49=FIXCLIENT1|56=DMA_HUB|34=22|52=20240729-13:55:56|10=055|
2024-07-29 15:56:22.357 [35] [FixSender] (DEBUG) Receiving 8=FIX.4.4|9=61|35=0|34=29|49=DMA_HUB|56=FIXCLIENT1|52=20240729-13:56:22.356|10=255|
2024-07-29 15:56:26.741 [36] [FixSender] (DEBUG) Sending 8=FIX.4.4|9=57|35=0|49=FIXCLIENT1|56=DMA_HUB|34=23|52=20240729-13:56:26|10=054|
2024-07-29 15:56:52.309 [35] [FixSender] (DEBUG) Receiving 8=FIX.4.4|9=61|35=0|34=30|49=DMA_HUB|56=FIXCLIENT1|52=20240729-13:56:52.309|10=248|
2024-07-29 15:56:56.742 [36] [FixSender] (DEBUG) Sending 8=FIX.4.4|9=57|35=0|49=FIXCLIENT1|56=DMA_HUB|34=24|52=20240729-13:56:56|10=058|
2024-07-29 15:57:22.261 [35] [FixSender] (DEBUG) Receiving 8=FIX.4.4|9=61|35=0|34=31|49=DMA_HUB|56=FIXCLIENT1|52=20240729-13:57:22.260|10=243|
2024-07-29 15:57:26.742 [36] [FixSender] (DEBUG) Sending 8=FIX.4.4|9=57|35=0|49=FIXCLIENT1|56=DMA_HUB|34=25|52=20240729-13:57:26|10=057|
2024-07-29 15:57:52.213 [35] [FixSender] (DEBUG) Receiving 8=FIX.4.4|9=61|35=0|34=32|49=DMA_HUB|56=FIXCLIENT1|52=20240729-13:57:52.212|10=244|
2024-07-29 15:57:56.743 [36] [FixSender] (DEBUG) Sending 8=FIX.4.4|9=57|35=0|49=FIXCLIENT1|56=DMA_HUB|34=26|52=20240729-13:57:56|10=061|
2024-07-29 15:58:22.165 [35] [FixSender] (DEBUG) Receiving 8=FIX.4.4|9=61|35=0|34=33|49=DMA_HUB|56=FIXCLIENT1|52=20240729-13:58:22.164|10=249|
2024-07-29 15:58:26.744 [36] [FixSender] (DEBUG) Sending 8=FIX.4.4|9=57|35=0|49=FIXCLIENT1|56=DMA_HUB|34=27|52=20240729-13:58:26|10=060|
2024-07-29 15:58:36.156 [35] [FixSender] (DEBUG) Receiving 8=FIX.4.4|9=61|35=5|34=34|49=DMA_HUB|56=FIXCLIENT1|52=20240729-13:58:36.155|10=004|
2024-07-29 15:58:36.157 [35] [FixSender] (DEBUG) Sending 8=FIX.4.4|9=79|35=5|49=FIXCLIENT1|56=DMA_HUB|34=28|52=20240729-13:58:36|58=Replying to logout|10=249|
2024-07-29 15:58:36.157 [35] [FixSender] (WARNING) The Fix connection is close...
2024-07-29 15:58:36.169 [35] [FixSender] (INFO) physical cnx finished Connection reset by peer
2024-07-29 15:58:36.170 [35] [FixSender] (WARNING) Disconnected
2024-07-29 16:42:14.267 [41] [FixSender] (INFO) try to connect to : localhost port :12345
2024-07-29 16:42:14.314 [41] [FixSender] (INFO) physical cnx initiated
2024-07-29 16:42:14.355 [41] [FixSender] (DEBUG) Sending 8=FIX.4.4|9=87|35=A|49=FIXCLIENT1|56=DMA_HUB|34=29|52=20240729-14:42:14|98=0|108=30|95=9|96=null/null|10=153|
2024-07-29 16:42:14.370 [41] [FixSender] (DEBUG) Receiving 8=FIX.4.4|9=73|35=A|34=35|49=DMA_HUB|56=FIXCLIENT1|52=20240729-14:42:14.368|108=30|98=0|10=041|
2024-07-29 16:42:14.374 [41] [FixSender] (WARNING) The Fix connection is open...
2024-07-29 16:42:14.389 [41] [FixSender] (DEBUG) Sending 8=FIX.4.4|9=75|35=1|49=FIXCLIENT1|56=DMA_HUB|34=30|52=20240729-14:42:14|112=synchronized?|10=095|
2024-07-29 16:42:14.391 [41] [FixSender] (DEBUG) Receiving 8=FIX.4.4|9=79|35=0|34=36|49=DMA_HUB|56=FIXCLIENT1|52=20240729-14:42:14.389|112=synchronized?|10=058|
2024-07-29 16:42:15.927 [44] [FixSender] (DEBUG) Sending 8=FIX.4.4|9=193|35=D|49=FIXCLIENT1|56=DMA_HUB|34=31|52=20240729-14:42:15|21=1|11=HS_17222641351|38=4875|55=E:07G@XETR|54=1|60=20240729-14:42:15|40=2|59=0|44=350|48=US3390411052|22=4|15=EUR|207=XETR|1=bram_123|10=149|
2024-07-29 16:42:15.940 [41] [FixSender] (DEBUG) Receiving 8=FIX.4.4|9=235|35=8|34=37|49=DMA_HUB|56=FIXCLIENT1|52=20240729-14:42:15.939|11=HS_17222641351|37=FX7vwMagS|54=1|40=2|59=0|17=202407297|150=A|39=A|38=4875|151=4875|14=0|6=0|44=350|60=20240729-14:42:15.000|22=4|48=US3390411052|207=XETR|15=EUR|55=[N/A]|10=120|
2024-07-29 16:42:17.132 [45] [FixSender] (DEBUG) Sending 8=FIX.4.4|9=193|35=D|49=FIXCLIENT1|56=DMA_HUB|34=32|52=20240729-14:42:17|21=1|11=HS_17222641372|38=2352|55=E:07G@XETR|54=1|60=20240729-14:42:17|40=2|59=0|44=350|48=US3390411052|22=4|15=EUR|207=XETR|1=bram_123|10=145|
2024-07-29 16:42:17.135 [41] [FixSender] (DEBUG) Receiving 8=FIX.4.4|9=235|35=8|34=38|49=DMA_HUB|56=FIXCLIENT1|52=20240729-14:42:17.133|11=HS_17222641372|37=FX8vwMagS|54=1|40=2|59=0|17=202407298|150=A|39=A|38=2352|151=2352|14=0|6=0|44=350|60=20240729-14:42:17.000|22=4|48=US3390411052|207=XETR|15=EUR|55=[N/A]|10=092|
2024-07-29 16:42:18.132 [46] [FixSender] (DEBUG) Sending 8=FIX.4.4|9=193|35=D|49=FIXCLIENT1|56=DMA_HUB|34=33|52=20240729-14:42:18|21=1|11=HS_17222641383|38=3057|55=E:07G@XETR|54=1|60=20240729-14:42:18|40=2|59=0|44=350|48=US3390411052|22=4|15=EUR|207=XETR|1=bram_123|10=153|
2024-07-29 16:42:18.134 [41] [FixSender] (DEBUG) Receiving 8=FIX.4.4|9=235|35=8|34=39|49=DMA_HUB|56=FIXCLIENT1|52=20240729-14:42:18.134|11=HS_17222641383|37=FX9vwMagS|54=1|40=2|59=0|17=202407299|150=A|39=A|38=3057|151=3057|14=0|6=0|44=350|60=20240729-14:42:18.000|22=4|48=US3390411052|207=XETR|15=EUR|55=[N/A]|10=106|
2024-07-29 16:42:37.114 [47] [FixSender] (DEBUG) Sending 8=FIX.4.4|9=193|35=D|49=FIXCLIENT1|56=DMA_HUB|34=34|52=20240729-14:42:37|21=1|11=HS_17222641574|38=3073|55=E:07G@XETR|54=1|60=20240729-14:42:37|40=2|59=0|44=350|48=US3390411052|22=4|15=EUR|207=XETR|1=bram_123|10=156|
2024-07-29 16:42:37.116 [41] [FixSender] (DEBUG) Receiving 8=FIX.4.4|9=236|35=8|34=40|49=DMA_HUB|56=FIXCLIENT1|52=20240729-14:42:37.115|11=HS_17222641574|37=FXAvwMagS|54=1|40=2|59=0|17=2024072910|150=A|39=A|38=3073|151=3073|14=0|6=0|44=350|60=20240729-14:42:37.000|22=4|48=US3390411052|207=XETR|15=EUR|55=[N/A]|10=146|
2024-07-29 16:42:37.881 [48] [FixSender] (DEBUG) Sending 8=FIX.4.4|9=192|35=D|49=FIXCLIENT1|56=DMA_HUB|34=35|52=20240729-14:42:37|21=1|11=HS_17222641575|38=699|55=E:07G@XETR|54=1|60=20240729-14:42:37|40=2|59=0|44=350|48=US3390411052|22=4|15=EUR|207=XETR|1=bram_123|10=120|
2024-07-29 16:42:37.883 [41] [FixSender] (DEBUG) Receiving 8=FIX.4.4|9=234|35=8|34=41|49=DMA_HUB|56=FIXCLIENT1|52=20240729-14:42:37.882|11=HS_17222641575|37=FXBvwMagS|54=1|40=2|59=0|17=2024072911|150=A|39=A|38=699|151=699|14=0|6=0|44=350|60=20240729-14:42:37.000|22=4|48=US3390411052|207=XETR|15=EUR|55=[N/A]|10=085|
2024-07-29 16:42:40.268 [49] [FixSender] (DEBUG) Sending 8=FIX.4.4|9=193|35=D|49=FIXCLIENT1|56=DMA_HUB|34=36|52=20240729-14:42:40|21=1|11=HS_17222641606|38=4903|55=E:07G@XETR|54=1|60=20240729-14:42:40|40=2|59=0|44=350|48=US3390411052|22=4|15=EUR|207=XETR|1=bram_123|10=145|
2024-07-29 16:42:40.269 [41] [FixSender] (DEBUG) Receiving 8=FIX.4.4|9=236|35=8|34=42|49=DMA_HUB|56=FIXCLIENT1|52=20240729-14:42:40.269|11=HS_17222641606|37=FXCvwMagS|54=1|40=2|59=0|17=2024072912|150=A|39=A|38=4903|151=4903|14=0|6=0|44=350|60=20240729-14:42:40.000|22=4|48=US3390411052|207=XETR|15=EUR|55=[N/A]|10=152|
2024-07-29 16:42:40.729 [50] [FixSender] (DEBUG) Sending 8=FIX.4.4|9=193|35=D|49=FIXCLIENT1|56=DMA_HUB|34=37|52=20240729-14:42:40|21=1|11=HS_17222641607|38=3270|55=E:07G@XETR|54=1|60=20240729-14:42:40|40=2|59=0|44=350|48=US3390411052|22=4|15=EUR|207=XETR|1=bram_123|10=143|
2024-07-29 16:42:40.731 [41] [FixSender] (DEBUG) Receiving 8=FIX.4.4|9=236|35=8|34=43|49=DMA_HUB|56=FIXCLIENT1|52=20240729-14:42:40.731|11=HS_17222641607|37=FXDvwMagS|54=1|40=2|59=0|17=2024072913|150=A|39=A|38=3270|151=3270|14=0|6=0|44=350|60=20240729-14:42:40.000|22=4|48=US3390411052|207=XETR|15=EUR|55=[N/A]|10=142|
2024-07-29 16:42:41.284 [51] [FixSender] (DEBUG) Sending 8=FIX.4.4|9=193|35=D|49=FIXCLIENT1|56=DMA_HUB|34=38|52=20240729-14:42:41|21=1|11=HS_17222641618|38=2908|55=E:07G@XETR|54=1|60=20240729-14:42:41|40=2|59=0|44=350|48=US3390411052|22=4|15=EUR|207=XETR|1=bram_123|10=155|
2024-07-29 16:42:41.287 [41] [FixSender] (DEBUG) Receiving 8=FIX.4.4|9=236|35=8|34=44|49=DMA_HUB|56=FIXCLIENT1|52=20240729-14:42:41.285|11=HS_17222641618|37=FXEvwMagS|54=1|40=2|59=0|17=2024072914|150=A|39=A|38=2908|151=2908|14=0|6=0|44=350|60=20240729-14:42:41.000|22=4|48=US3390411052|207=XETR|15=EUR|55=[N/A]|10=167|
2024-07-29 16:42:41.843 [52] [FixSender] (DEBUG) Sending 8=FIX.4.4|9=192|35=D|49=FIXCLIENT1|56=DMA_HUB|34=39|52=20240729-14:42:41|21=1|11=HS_17222641619|38=395|55=E:07G@XETR|54=1|60=20240729-14:42:41|40=2|59=0|44=350|48=US3390411052|22=4|15=EUR|207=XETR|1=bram_123|10=106|
2024-07-29 16:42:41.846 [41] [FixSender] (DEBUG) Receiving 8=FIX.4.4|9=234|35=8|34=45|49=DMA_HUB|56=FIXCLIENT1|52=20240729-14:42:41.844|11=HS_17222641619|37=FXFvwMagS|54=1|40=2|59=0|17=2024072915|150=A|39=A|38=395|151=395|14=0|6=0|44=350|60=20240729-14:42:41.000|22=4|48=US3390411052|207=XETR|15=EUR|55=[N/A]|10=070|
2024-07-29 16:42:44.323 [41] [FixSender] (DEBUG) Receiving 8=FIX.4.4|9=61|35=0|34=46|49=DMA_HUB|56=FIXCLIENT1|52=20240729-14:42:44.323|10=248|
2024-07-29 16:43:04.717 [53] [FixSender] (DEBUG) Sending 8=FIX.4.4|9=194|35=D|49=FIXCLIENT1|56=DMA_HUB|34=40|52=20240729-14:43:04|21=1|11=HS_172226418410|38=2728|55=E:07G@XETR|54=1|60=20240729-14:43:04|40=2|59=0|44=350|48=US3390411052|22=4|15=EUR|207=XETR|1=bram_123|10=195|
2024-07-29 16:43:04.721 [41] [FixSender] (DEBUG) Receiving 8=FIX.4.4|9=237|35=8|34=47|49=DMA_HUB|56=FIXCLIENT1|52=20240729-14:43:04.718|11=HS_172226418410|37=FXGvwMagS|54=1|40=2|59=0|17=2024072916|150=A|39=A|38=2728|151=2728|14=0|6=0|44=350|60=20240729-14:43:04.000|22=4|48=US3390411052|207=XETR|15=EUR|55=[N/A]|10=222|
2024-07-29 16:43:14.275 [41] [FixSender] (DEBUG) Receiving 8=FIX.4.4|9=61|35=0|34=48|49=DMA_HUB|56=FIXCLIENT1|52=20240729-14:43:14.274|10=253|
2024-07-29 16:43:34.720 [42] [FixSender] (DEBUG) Sending 8=FIX.4.4|9=57|35=0|49=FIXCLIENT1|56=DMA_HUB|34=41|52=20240729-14:43:34|10=050|
2024-07-29 16:43:44.228 [41] [FixSender] (DEBUG) Receiving 8=FIX.4.4|9=61|35=0|34=49|49=DMA_HUB|56=FIXCLIENT1|52=20240729-14:43:44.226|10=254|
2024-07-29 16:44:04.721 [42] [FixSender] (DEBUG) Sending 8=FIX.4.4|9=57|35=0|49=FIXCLIENT1|56=DMA_HUB|34=42|52=20240729-14:44:04|10=049|
2024-07-29 16:44:14.179 [41] [FixSender] (DEBUG) Receiving 8=FIX.4.4|9=61|35=0|34=50|49=DMA_HUB|56=FIXCLIENT1|52=20240729-14:44:14.179|10=251|
2024-07-29 16:44:34.722 [42] [FixSender] (DEBUG) Sending 8=FIX.4.4|9=57|35=0|49=FIXCLIENT1|56=DMA_HUB|34=43|52=20240729-14:44:34|10=053|
2024-07-29 16:44:44.131 [41] [FixSender] (DEBUG) Receiving 8=FIX.4.4|9=61|35=0|34=51|49=DMA_HUB|56=FIXCLIENT1|52=20240729-14:44:44.130|10=242|
2024-07-29 16:45:04.723 [42] [FixSender] (DEBUG) Sending 8=FIX.4.4|9=57|35=0|49=FIXCLIENT1|56=DMA_HUB|34=44|52=20240729-14:45:04|10=052|
2024-07-29 16:45:14.083 [41] [FixSender] (DEBUG) Receiving 8=FIX.4.4|9=61|35=0|34=52|49=DMA_HUB|56=FIXCLIENT1|52=20240729-14:45:14.082|10=247|
2024-07-29 16:45:34.725 [42] [FixSender] (DEBUG) Sending 8=FIX.4.4|9=57|35=0|49=FIXCLIENT1|56=DMA_HUB|34=45|52=20240729-14:45:34|10=056|
2024-07-29 16:45:44.034 [41] [FixSender] (DEBUG) Receiving 8=FIX.4.4|9=61|35=0|34=53|49=DMA_HUB|56=FIXCLIENT1|52=20240729-14:45:44.034|10=248|
2024-07-29 16:45:47.671 [54] [FixSender] (DEBUG) Sending 8=FIX.4.4|9=194|35=D|49=FIXCLIENT1|56=DMA_HUB|34=46|52=20240729-14:45:47|21=1|11=HS_172226434711|38=2478|55=E:07G@XETR|54=1|60=20240729-14:45:47|40=2|59=0|44=350|48=US3390411052|22=4|15=EUR|207=XETR|1=bram_123|10=223|
2024-07-29 16:45:47.673 [41] [FixSender] (DEBUG) Receiving 8=FIX.4.4|9=237|35=8|34=54|49=DMA_HUB|56=FIXCLIENT1|52=20240729-14:45:47.672|11=HS_172226434711|37=FXHvwMagS|54=1|40=2|59=0|17=2024072917|150=A|39=A|38=2478|151=2478|14=0|6=0|44=350|60=20240729-14:45:47.000|22=4|48=US3390411052|207=XETR|15=EUR|55=[N/A]|10=245|
2024-07-29 16:45:47.689 [41] [FixSender] (DEBUG) Receiving 8=FIX.4.4|9=252|35=8|34=55|49=DMA_HUB|56=FIXCLIENT1|52=20240729-14:45:47.688|11=HS_172226434711|37=FXHvwMagS|198=jaOKf281c8|54=1|40=2|59=0|17=2024072918|150=0|39=0|38=2478|151=2478|14=0|6=0|44=350|60=20240729-14:45:47.681|22=4|48=US3390411052|207=XETR|15=EUR|55=[N/A]|10=201|
2024-07-29 16:45:47.699 [41] [FixSender] (DEBUG) Receiving 8=FIX.4.4|9=313|35=8|34=56|49=DMA_HUB|56=FIXCLIENT1|52=20240729-14:45:47.699|11=HS_172226434711|37=FXHvwMagS|198=jaOKf281c8|54=1|32=2478|31=104|17=2024072919|527=BjaOKf1|150=F|39=2|38=2478|151=0|14=2478|6=104|44=350|60=20240729-14:45:47.681|22=4|48=US3390411052|207=XETR|15=EUR|55=[N/A]|453=1|448=strmrepl|447=D|452=17|40=2|59=0|10=213|
2024-07-29 16:45:48.652 [55] [FixSender] (DEBUG) Sending 8=FIX.4.4|9=193|35=D|49=FIXCLIENT1|56=DMA_HUB|34=47|52=20240729-14:45:48|21=1|11=HS_172226434812|38=671|55=E:07G@XETR|54=1|60=20240729-14:45:48|40=2|59=0|44=350|48=US3390411052|22=4|15=EUR|207=XETR|1=bram_123|10=172|
2024-07-29 16:45:48.653 [41] [FixSender] (DEBUG) Receiving 8=FIX.4.4|9=235|35=8|34=57|49=DMA_HUB|56=FIXCLIENT1|52=20240729-14:45:48.653|11=HS_172226434812|37=FXIvwMagS|54=1|40=2|59=0|17=2024072920|150=A|39=A|38=671|151=671|14=0|6=0|44=350|60=20240729-14:45:48.000|22=4|48=US3390411052|207=XETR|15=EUR|55=[N/A]|10=134|
2024-07-29 16:45:48.656 [41] [FixSender] (DEBUG) Receiving 8=FIX.4.4|9=250|35=8|34=58|49=DMA_HUB|56=FIXCLIENT1|52=20240729-14:45:48.656|11=HS_172226434812|37=FXIvwMagS|198=jaOKf28383|54=1|40=2|59=0|17=2024072921|150=0|39=0|38=671|151=671|14=0|6=0|44=350|60=20240729-14:45:48.654|22=4|48=US3390411052|207=XETR|15=EUR|55=[N/A]|10=040|
2024-07-29 16:45:48.658 [41] [FixSender] (DEBUG) Receiving 8=FIX.4.4|9=310|35=8|34=59|49=DMA_HUB|56=FIXCLIENT1|52=20240729-14:45:48.658|11=HS_172226434812|37=FXIvwMagS|198=jaOKf28383|54=1|32=671|31=104|17=2024072922|527=BjaOKf2|150=F|39=2|38=671|151=0|14=671|6=104|44=350|60=20240729-14:45:48.654|22=4|48=US3390411052|207=XETR|15=EUR|55=[N/A]|453=1|448=strmrepl|447=D|452=17|40=2|59=0|10=253|
2024-07-29 16:45:48.765 [56] [FixSender] (DEBUG) Sending 8=FIX.4.4|9=194|35=D|49=FIXCLIENT1|56=DMA_HUB|34=48|52=20240729-14:45:48|21=1|11=HS_172226434813|38=1996|55=E:07G@XETR|54=1|60=20240729-14:45:48|40=2|59=0|44=350|48=US3390411052|22=4|15=EUR|207=XETR|1=bram_123|10=234|
2024-07-29 16:45:48.767 [41] [FixSender] (DEBUG) Receiving 8=FIX.4.4|9=237|35=8|34=60|49=DMA_HUB|56=FIXCLIENT1|52=20240729-14:45:48.766|11=HS_172226434813|37=FXJvwMagS|54=1|40=2|59=0|17=2024072923|150=A|39=A|38=1996|151=1996|14=0|6=0|44=350|60=20240729-14:45:48.000|22=4|48=US3390411052|207=XETR|15=EUR|55=[N/A]|10=002|
2024-07-29 16:45:48.770 [41] [FixSender] (DEBUG) Receiving 8=FIX.4.4|9=252|35=8|34=61|49=DMA_HUB|56=FIXCLIENT1|52=20240729-14:45:48.769|11=HS_172226434813|37=FXJvwMagS|198=jaOKf283c6|54=1|40=2|59=0|17=2024072924|150=0|39=0|38=1996|151=1996|14=0|6=0|44=350|60=20240729-14:45:48.768|22=4|48=US3390411052|207=XETR|15=EUR|55=[N/A]|10=216|
2024-07-29 16:45:48.772 [41] [FixSender] (DEBUG) Receiving 8=FIX.4.4|9=313|35=8|34=62|49=DMA_HUB|56=FIXCLIENT1|52=20240729-14:45:48.771|11=HS_172226434813|37=FXJvwMagS|198=jaOKf283c6|54=1|32=1996|31=104|17=2024072925|527=BjaOKf3|150=F|39=2|38=1996|151=0|14=1996|6=104|44=350|60=20240729-14:45:48.768|22=4|48=US3390411052|207=XETR|15=EUR|55=[N/A]|453=1|448=strmrepl|447=D|452=17|40=2|59=0|10=225|
2024-07-29 16:45:50.740 [57] [FixSender] (DEBUG) Sending 8=FIX.4.4|9=194|35=D|49=FIXCLIENT1|56=DMA_HUB|34=49|52=20240729-14:45:50|21=1|11=HS_172226435014|38=1213|55=E:07G@XETR|54=1|60=20240729-14:45:50|40=2|59=0|44=350|48=US3390411052|22=4|15=EUR|207=XETR|1=bram_123|10=197|
2024-07-29 16:45:50.742 [41] [FixSender] (DEBUG) Receiving 8=FIX.4.4|9=237|35=8|34=63|49=DMA_HUB|56=FIXCLIENT1|52=20240729-14:45:50.741|11=HS_172226435014|37=FXKvwMagS|54=1|40=2|59=0|17=2024072926|150=A|39=A|38=1213|151=1213|14=0|6=0|44=350|60=20240729-14:45:50.000|22=4|48=US3390411052|207=XETR|15=EUR|55=[N/A]|10=202|
2024-07-29 16:45:50.744 [41] [FixSender] (DEBUG) Receiving 8=FIX.4.4|9=252|35=8|34=64|49=DMA_HUB|56=FIXCLIENT1|52=20240729-14:45:50.744|11=HS_172226435014|37=FXKvwMagS|198=jaOKf28737|54=1|40=2|59=0|17=2024072927|150=0|39=0|38=1213|151=1213|14=0|6=0|44=350|60=20240729-14:45:50.742|22=4|48=US3390411052|207=XETR|15=EUR|55=[N/A]|10=109|
2024-07-29 16:45:50.745 [41] [FixSender] (DEBUG) Receiving 8=FIX.4.4|9=313|35=8|34=65|49=DMA_HUB|56=FIXCLIENT1|52=20240729-14:45:50.745|11=HS_172226435014|37=FXKvwMagS|198=jaOKf28737|54=1|32=1213|31=104|17=2024072928|527=BjaOKf4|150=F|39=2|38=1213|151=0|14=1213|6=104|44=350|60=20240729-14:45:50.742|22=4|48=US3390411052|207=XETR|15=EUR|55=[N/A]|453=1|448=strmrepl|447=D|452=17|40=2|59=0|10=109|
2024-07-29 16:45:57.544 [58] [FixSender] (DEBUG) Sending 8=FIX.4.4|9=194|35=D|49=FIXCLIENT1|56=DMA_HUB|34=50|52=20240729-14:45:57|21=1|11=HS_172226435715|38=2272|55=E:07G@XETR|54=1|60=20240729-14:45:57|40=2|59=0|44=350|48=US3390411052|22=4|15=EUR|207=XETR|1=bram_123|10=217|
2024-07-29 16:45:57.546 [41] [FixSender] (DEBUG) Receiving 8=FIX.4.4|9=237|35=8|34=66|49=DMA_HUB|56=FIXCLIENT1|52=20240729-14:45:57.546|11=HS_172226435715|37=FXLvwMagS|54=1|40=2|59=0|17=2024072929|150=A|39=A|38=2272|151=2272|14=0|6=0|44=350|60=20240729-14:45:57.000|22=4|48=US3390411052|207=XETR|15=EUR|55=[N/A]|10=246|
2024-07-29 16:45:59.625 [59] [FixSender] (DEBUG) Sending 8=FIX.4.4|9=194|35=D|49=FIXCLIENT1|56=DMA_HUB|34=51|52=20240729-14:45:59|21=1|11=HS_172226435916|38=4474|55=E:07G@XETR|54=1|60=20240729-14:45:59|40=2|59=0|44=350|48=US3390411052|22=4|15=EUR|207=XETR|1=bram_123|10=231|
2024-07-29 16:45:59.628 [41] [FixSender] (DEBUG) Receiving 8=FIX.4.4|9=237|35=8|34=67|49=DMA_HUB|56=FIXCLIENT1|52=20240729-14:45:59.626|11=HS_172226435916|37=FXMvwMagS|54=1|40=2|59=0|17=2024072930|150=A|39=A|38=4474|151=4474|14=0|6=0|44=350|60=20240729-14:45:59.000|22=4|48=US3390411052|207=XETR|15=EUR|55=[N/A]|10=002|
2024-07-29 16:45:59.989 [60] [FixSender] (DEBUG) Sending 8=FIX.4.4|9=194|35=D|49=FIXCLIENT1|56=DMA_HUB|34=52|52=20240729-14:45:59|21=1|11=HS_172226435917|38=4508|55=E:07G@XETR|54=1|60=20240729-14:45:59|40=2|59=0|44=350|48=US3390411052|22=4|15=EUR|207=XETR|1=bram_123|10=231|
2024-07-29 16:45:59.991 [41] [FixSender] (DEBUG) Receiving 8=FIX.4.4|9=237|35=8|34=68|49=DMA_HUB|56=FIXCLIENT1|52=20240729-14:45:59.990|11=HS_172226435917|37=FXNvwMagS|54=1|40=2|59=0|17=2024072931|150=A|39=A|38=4508|151=4508|14=0|6=0|44=350|60=20240729-14:45:59.000|22=4|48=US3390411052|207=XETR|15=EUR|55=[N/A]|10=006|
2024-07-29 16:46:12.868 [61] [FixSender] (DEBUG) Sending 8=FIX.4.4|9=194|35=D|49=FIXCLIENT1|56=DMA_HUB|34=53|52=20240729-14:46:12|21=1|11=HS_172226437218|38=2365|55=E:07G@XETR|54=1|60=20240729-14:46:12|40=2|59=0|44=350|48=US3390411052|22=4|15=EUR|207=XETR|1=bram_123|10=207|
2024-07-29 16:46:12.869 [41] [FixSender] (DEBUG) Receiving 8=FIX.4.4|9=237|35=8|34=69|49=DMA_HUB|56=FIXCLIENT1|52=20240729-14:46:12.869|11=HS_172226437218|37=FXOvwMagS|54=1|40=2|59=0|17=2024072932|150=A|39=A|38=2365|151=2365|14=0|6=0|44=350|60=20240729-14:46:12.000|22=4|48=US3390411052|207=XETR|15=EUR|55=[N/A]|10=244|
2024-07-29 16:46:13.987 [41] [FixSender] (DEBUG) Receiving 8=FIX.4.4|9=61|35=0|34=70|49=DMA_HUB|56=FIXCLIENT1|52=20240729-14:46:13.986|10=004|
2024-07-29 16:46:14.828 [62] [FixSender] (DEBUG) Sending 8=FIX.4.4|9=194|35=D|49=FIXCLIENT1|56=DMA_HUB|34=54|52=20240729-14:46:14|21=1|11=HS_172226437419|38=3518|55=E:07G@XETR|54=1|60=20240729-14:46:14|40=2|59=0|44=350|48=US3390411052|22=4|15=EUR|207=XETR|1=bram_123|10=216|
2024-07-29 16:46:14.830 [41] [FixSender] (DEBUG) Receiving 8=FIX.4.4|9=237|35=8|34=71|49=DMA_HUB|56=FIXCLIENT1|52=20240729-14:46:14.829|11=HS_172226437419|37=FXPvwMagS|54=1|40=2|59=0|17=2024072933|150=A|39=A|38=3518|151=3518|14=0|6=0|44=350|60=20240729-14:46:14.000|22=4|48=US3390411052|207=XETR|15=EUR|55=[N/A]|10=244|
2024-07-29 16:46:14.832 [41] [FixSender] (DEBUG) Receiving 8=FIX.4.4|9=252|35=8|34=72|49=DMA_HUB|56=FIXCLIENT1|52=20240729-14:46:14.832|11=HS_172226437419|37=FXPvwMagS|198=jaOKf2b111|54=1|40=2|59=0|17=2024072934|150=0|39=0|38=3518|151=3518|14=0|6=0|44=350|60=20240729-14:46:14.831|22=4|48=US3390411052|207=XETR|15=EUR|55=[N/A]|10=169|
2024-07-29 16:46:14.834 [41] [FixSender] (DEBUG) Receiving 8=FIX.4.4|9=313|35=8|34=73|49=DMA_HUB|56=FIXCLIENT1|52=20240729-14:46:14.833|11=HS_172226437419|37=FXPvwMagS|198=jaOKf2b111|54=1|32=3518|31=104|17=2024072935|527=BjaOKf5|150=F|39=2|38=3518|151=0|14=3518|6=104|44=350|60=20240729-14:46:14.831|22=4|48=US3390411052|207=XETR|15=EUR|55=[N/A]|453=1|448=strmrepl|447=D|452=17|40=2|59=0|10=180|
2024-07-29 16:46:15.594 [63] [FixSender] (DEBUG) Sending 8=FIX.4.4|9=194|35=D|49=FIXCLIENT1|56=DMA_HUB|34=55|52=20240729-14:46:15|21=1|11=HS_172226437520|38=4965|55=E:07G@XETR|54=1|60=20240729-14:46:15|40=2|59=0|44=350|48=US3390411052|22=4|15=EUR|207=XETR|1=bram_123|10=219|
2024-07-29 16:46:15.599 [41] [FixSender] (DEBUG) Receiving 8=FIX.4.4|9=237|35=8|34=74|49=DMA_HUB|56=FIXCLIENT1|52=20240729-14:46:15.596|11=HS_172226437520|37=FXQvwMagS|54=1|40=2|59=0|17=2024072936|150=A|39=A|38=4965|151=4965|14=0|6=0|44=350|60=20240729-14:46:15.000|22=4|48=US3390411052|207=XETR|15=EUR|55=[N/A]|10=005|
2024-07-29 16:46:15.600 [41] [FixSender] (DEBUG) Receiving 8=FIX.4.4|9=252|35=8|34=75|49=DMA_HUB|56=FIXCLIENT1|52=20240729-14:46:15.599|11=HS_172226437520|37=FXQvwMagS|198=jaOKf2b26b|54=1|40=2|59=0|17=2024072937|150=0|39=0|38=4965|151=4965|14=0|6=0|44=350|60=20240729-14:46:15.597|22=4|48=US3390411052|207=XETR|15=EUR|55=[N/A]|10=003|
2024-07-29 16:46:15.601 [41] [FixSender] (DEBUG) Receiving 8=FIX.4.4|9=313|35=8|34=76|49=DMA_HUB|56=FIXCLIENT1|52=20240729-14:46:15.601|11=HS_172226437520|37=FXQvwMagS|198=jaOKf2b26b|54=1|32=4965|31=104|17=2024072938|527=BjaOKf6|150=F|39=2|38=4965|151=0|14=4965|6=104|44=350|60=20240729-14:46:15.597|22=4|48=US3390411052|207=XETR|15=EUR|55=[N/A]|453=1|448=strmrepl|447=D|452=17|40=2|59=0|10=005|
2024-07-29 16:46:16.199 [64] [FixSender] (DEBUG) Sending 8=FIX.4.4|9=194|35=D|49=FIXCLIENT1|56=DMA_HUB|34=56|52=20240729-14:46:16|21=1|11=HS_172226437621|38=2642|55=E:07G@XETR|54=1|60=20240729-14:46:16|40=2|59=0|44=350|48=US3390411052|22=4|15=EUR|207=XETR|1=bram_123|10=214|
2024-07-29 16:46:16.202 [41] [FixSender] (DEBUG) Receiving 8=FIX.4.4|9=237|35=8|34=77|49=DMA_HUB|56=FIXCLIENT1|52=20240729-14:46:16.200|11=HS_172226437621|37=FXRvwMagS|54=1|40=2|59=0|17=2024072939|150=A|39=A|38=2642|151=2642|14=0|6=0|44=350|60=20240729-14:46:16.000|22=4|48=US3390411052|207=XETR|15=EUR|55=[N/A]|10=234|
2024-07-29 16:46:16.204 [41] [FixSender] (DEBUG) Receiving 8=FIX.4.4|9=252|35=8|34=78|49=DMA_HUB|56=FIXCLIENT1|52=20240729-14:46:16.203|11=HS_172226437621|37=FXRvwMagS|198=jaOKf2b374|54=1|40=2|59=0|17=2024072940|150=0|39=0|38=2642|151=2642|14=0|6=0|44=350|60=20240729-14:46:16.202|22=4|48=US3390411052|207=XETR|15=EUR|55=[N/A]|10=162|
2024-07-29 16:46:16.205 [41] [FixSender] (DEBUG) Receiving 8=FIX.4.4|9=313|35=8|34=79|49=DMA_HUB|56=FIXCLIENT1|52=20240729-14:46:16.204|11=HS_172226437621|37=FXRvwMagS|198=jaOKf2b374|54=1|32=2642|31=104|17=2024072941|527=BjaOKf7|150=F|39=2|38=2642|151=0|14=2642|6=104|44=350|60=20240729-14:46:16.202|22=4|48=US3390411052|207=XETR|15=EUR|55=[N/A]|453=1|448=strmrepl|447=D|452=17|40=2|59=0|10=172|
2024-07-29 16:46:16.671 [65] [FixSender] (DEBUG) Sending 8=FIX.4.4|9=193|35=D|49=FIXCLIENT1|56=DMA_HUB|34=57|52=20240729-14:46:16|21=1|11=HS_172226437622|38=701|55=E:07G@XETR|54=1|60=20240729-14:46:16|40=2|59=0|44=350|48=US3390411052|22=4|15=EUR|207=XETR|1=bram_123|10=161|
2024-07-29 16:46:16.673 [41] [FixSender] (DEBUG) Receiving 8=FIX.4.4|9=235|35=8|34=80|49=DMA_HUB|56=FIXCLIENT1|52=20240729-14:46:16.672|11=HS_172226437622|37=FXSvwMagS|54=1|40=2|59=0|17=2024072942|150=A|39=A|38=701|151=701|14=0|6=0|44=350|60=20240729-14:46:16.000|22=4|48=US3390411052|207=XETR|15=EUR|55=[N/A]|10=127|
2024-07-29 16:46:16.675 [41] [FixSender] (DEBUG) Receiving 8=FIX.4.4|9=250|35=8|34=81|49=DMA_HUB|56=FIXCLIENT1|52=20240729-14:46:16.675|11=HS_172226437622|37=FXSvwMagS|198=jaOKf2b44d|54=1|40=2|59=0|17=2024072943|150=0|39=0|38=701|151=701|14=0|6=0|44=350|60=20240729-14:46:16.673|22=4|48=US3390411052|207=XETR|15=EUR|55=[N/A]|10=122|
2024-07-29 16:46:16.676 [41] [FixSender] (DEBUG) Receiving 8=FIX.4.4|9=310|35=8|34=82|49=DMA_HUB|56=FIXCLIENT1|52=20240729-14:46:16.676|11=HS_172226437622|37=FXSvwMagS|198=jaOKf2b44d|54=1|32=701|31=104|17=2024072944|527=BjaOKf8|150=F|39=2|38=701|151=0|14=701|6=104|44=350|60=20240729-14:46:16.673|22=4|48=US3390411052|207=XETR|15=EUR|55=[N/A]|453=1|448=strmrepl|447=D|452=17|40=2|59=0|10=078|
2024-07-29 16:46:43.938 [41] [FixSender] (DEBUG) Receiving 8=FIX.4.4|9=61|35=0|34=83|49=DMA_HUB|56=FIXCLIENT1|52=20240729-14:46:43.938|10=008|
2024-07-29 16:46:46.671 [42] [FixSender] (DEBUG) Sending 8=FIX.4.4|9=57|35=0|49=FIXCLIENT1|56=DMA_HUB|34=58|52=20240729-14:46:46|10=064|
2024-07-29 16:47:13.891 [41] [FixSender] (DEBUG) Receiving 8=FIX.4.4|9=61|35=0|34=84|49=DMA_HUB|56=FIXCLIENT1|52=20240729-14:47:13.890|10=004|
2024-07-29 16:47:16.672 [42] [FixSender] (DEBUG) Sending 8=FIX.4.4|9=57|35=0|49=FIXCLIENT1|56=DMA_HUB|34=59|52=20240729-14:47:16|10=063|
2024-07-29 16:47:43.842 [41] [FixSender] (DEBUG) Receiving 8=FIX.4.4|9=61|35=0|34=85|49=DMA_HUB|56=FIXCLIENT1|52=20240729-14:47:43.842|10=005|
2024-07-29 16:47:46.672 [42] [FixSender] (DEBUG) Sending 8=FIX.4.4|9=57|35=0|49=FIXCLIENT1|56=DMA_HUB|34=60|52=20240729-14:47:46|10=058|
2024-07-29 16:48:13.800 [41] [FixSender] (DEBUG) Receiving 8=FIX.4.4|9=61|35=0|34=86|49=DMA_HUB|56=FIXCLIENT1|52=20240729-14:48:13.794|10=010|
2024-07-29 16:48:16.673 [42] [FixSender] (DEBUG) Sending 8=FIX.4.4|9=57|35=0|49=FIXCLIENT1|56=DMA_HUB|34=61|52=20240729-14:48:16|10=057|
2024-07-29 16:48:43.747 [41] [FixSender] (DEBUG) Receiving 8=FIX.4.4|9=61|35=0|34=87|49=DMA_HUB|56=FIXCLIENT1|52=20240729-14:48:43.746|10=011|
2024-07-29 16:48:46.674 [42] [FixSender] (DEBUG) Sending 8=FIX.4.4|9=57|35=0|49=FIXCLIENT1|56=DMA_HUB|34=62|52=20240729-14:48:46|10=061|
2024-07-29 16:49:13.698 [41] [FixSender] (DEBUG) Receiving 8=FIX.4.4|9=61|35=0|34=88|49=DMA_HUB|56=FIXCLIENT1|52=20240729-14:49:13.698|10=016|
2024-07-29 16:49:16.674 [42] [FixSender] (DEBUG) Sending 8=FIX.4.4|9=57|35=0|49=FIXCLIENT1|56=DMA_HUB|34=63|52=20240729-14:49:16|10=060|
2024-07-29 16:49:43.651 [41] [FixSender] (DEBUG) Receiving 8=FIX.4.4|9=61|35=0|34=89|49=DMA_HUB|56=FIXCLIENT1|52=20240729-14:49:43.650|10=008|
2024-07-29 16:49:46.675 [42] [FixSender] (DEBUG) Sending 8=FIX.4.4|9=57|35=0|49=FIXCLIENT1|56=DMA_HUB|34=64|52=20240729-14:49:46|10=064|
2024-07-29 16:50:13.602 [41] [FixSender] (DEBUG) Receiving 8=FIX.4.4|9=61|35=0|34=90|49=DMA_HUB|56=FIXCLIENT1|52=20240729-14:50:13.602|10=242|
2024-07-29 16:50:16.675 [42] [FixSender] (DEBUG) Sending 8=FIX.4.4|9=57|35=0|49=FIXCLIENT1|56=DMA_HUB|34=65|52=20240729-14:50:16|10=054|
2024-07-29 16:50:43.555 [41] [FixSender] (DEBUG) Receiving 8=FIX.4.4|9=61|35=0|34=91|49=DMA_HUB|56=FIXCLIENT1|52=20240729-14:50:43.554|10=252|
2024-07-29 16:50:46.678 [42] [FixSender] (DEBUG) Sending 8=FIX.4.4|9=57|35=0|49=FIXCLIENT1|56=DMA_HUB|34=66|52=20240729-14:50:46|10=058|
2024-07-29 16:51:13.507 [41] [FixSender] (DEBUG) Receiving 8=FIX.4.4|9=61|35=0|34=92|49=DMA_HUB|56=FIXCLIENT1|52=20240729-14:51:13.507|10=249|
2024-07-29 16:51:16.679 [42] [FixSender] (DEBUG) Sending 8=FIX.4.4|9=57|35=0|49=FIXCLIENT1|56=DMA_HUB|34=67|52=20240729-14:51:16|10=057|
2024-07-29 16:51:43.458 [41] [FixSender] (DEBUG) Receiving 8=FIX.4.4|9=61|35=0|34=93|49=DMA_HUB|56=FIXCLIENT1|52=20240729-14:51:43.458|10=002|
2024-07-29 16:51:46.681 [42] [FixSender] (DEBUG) Sending 8=FIX.4.4|9=57|35=0|49=FIXCLIENT1|56=DMA_HUB|34=68|52=20240729-14:51:46|10=061|
2024-07-29 16:52:13.413 [41] [FixSender] (DEBUG) Receiving 8=FIX.4.4|9=61|35=0|34=94|49=DMA_HUB|56=FIXCLIENT1|52=20240729-14:52:13.410|10=245|
2024-07-29 16:52:16.681 [42] [FixSender] (DEBUG) Sending 8=FIX.4.4|9=57|35=0|49=FIXCLIENT1|56=DMA_HUB|34=69|52=20240729-14:52:16|10=060|
2024-07-29 16:52:43.363 [41] [FixSender] (DEBUG) Receiving 8=FIX.4.4|9=61|35=0|34=95|49=DMA_HUB|56=FIXCLIENT1|52=20240729-14:52:43.362|10=255|
2024-07-29 16:52:46.682 [42] [FixSender] (DEBUG) Sending 8=FIX.4.4|9=57|35=0|49=FIXCLIENT1|56=DMA_HUB|34=70|52=20240729-14:52:46|10=055|
2024-07-29 16:53:13.315 [41] [FixSender] (DEBUG) Receiving 8=FIX.4.4|9=61|35=0|34=96|49=DMA_HUB|56=FIXCLIENT1|52=20240729-14:53:13.314|10=251|
2024-07-29 16:53:16.684 [42] [FixSender] (DEBUG) Sending 8=FIX.4.4|9=57|35=0|49=FIXCLIENT1|56=DMA_HUB|34=71|52=20240729-14:53:16|10=054|
2024-07-29 16:53:21.618 [41] [FixSender] (DEBUG) Receiving 8=FIX.4.4|9=279|35=8|34=97|49=DMA_HUB|56=FIXCLIENT1|52=20240729-14:53:21.618|11=HS_172226435917|37=FXNvwMagS|198=FXNvwMagS|54=1|40=2|59=0|17=2024072945|150=8|39=8|38=4508|151=0|14=0|6=0|44=350|60=20240729-14:53:21.616|22=4|48=US3390411052|207=XETR|15=EUR|55=[N/A]|58=this is a rejection message|10=059|
2024-07-29 16:53:46.687 [42] [FixSender] (DEBUG) Sending 8=FIX.4.4|9=57|35=0|49=FIXCLIENT1|56=DMA_HUB|34=72|52=20240729-14:53:46|10=058|
2024-07-29 16:53:53.620 [43] [FixSender] (DEBUG) Sending 8=FIX.4.4|9=80|35=1|49=FIXCLIENT1|56=DMA_HUB|34=73|52=20240729-14:53:53|112=HeartBtExt Timeout|10=234|
2024-07-29 16:54:23.623 [42] [FixSender] (DEBUG) Sending 8=FIX.4.4|9=57|35=0|49=FIXCLIENT1|56=DMA_HUB|34=74|52=20240729-14:54:23|10=056|
2024-07-29 16:54:25.627 [41] [FixSender] (INFO) physical cnx finished Connection reset by peer
2024-07-29 16:54:25.634 [41] [FixSender] (WARNING) Disconnected
2024-07-29 16:57:18.688 [66] [FixSender] (INFO) try to connect to : localhost port :12345
2024-07-29 16:57:18.691 [66] [FixSender] (INFO) physical cnx initiated
2024-07-29 16:57:18.694 [66] [FixSender] (DEBUG) Sending 8=FIX.4.4|9=87|35=A|49=FIXCLIENT1|56=DMA_HUB|34=75|52=20240729-14:57:18|98=0|108=30|95=9|96=null/null|10=164|
2024-07-29 16:57:22.723 [67] [FixSender] (INFO) try to connect to : localhost port :12345
2024-07-29 16:57:22.725 [67] [FixSender] (INFO) physical cnx initiated
2024-07-29 16:57:22.727 [67] [FixSender] (DEBUG) Sending 8=FIX.4.4|9=87|35=A|49=FIXCLIENT1|56=DMA_HUB|34=76|52=20240729-14:57:22|98=0|108=30|95=9|96=null/null|10=160|
2024-07-29 16:57:31.776 [66] [FixSender] (DEBUG) Receiving 8=FIX.4.4|9=74|35=A|34=100|49=DMA_HUB|56=FIXCLIENT1|52=20240729-14:57:31.775|108=30|98=0|10=090|
2024-07-29 16:57:31.777 [66] [FixSender] (WARNING) The Fix connection is open...
2024-07-29 16:57:31.778 [66] [FixSender] (DEBUG) Sending 8=FIX.4.4|9=67|35=2|49=FIXCLIENT1|56=DMA_HUB|34=77|52=20240729-14:57:31|7=98|16=0|10=251|
2024-07-29 16:57:31.779 [66] [FixSender] (INFO) physical cnx finished Connection reset by peer
2024-07-29 16:57:31.779 [66] [FixSender] (WARNING) Disconnected
2024-07-29 16:57:31.779 [67] [FixSender] (INFO) physical cnx finished Connection reset by peer
2024-07-29 16:57:31.779 [67] [FixSender] (WARNING) Disconnected
2024-07-29 16:57:33.387 [70] [FixSender] (INFO) try to connect to : localhost port :12345
2024-07-29 16:57:33.388 [70] [FixSender] (INFO) physical cnx initiated
2024-07-29 16:57:33.391 [70] [FixSender] (DEBUG) Sending 8=FIX.4.4|9=87|35=A|49=FIXCLIENT1|56=DMA_HUB|34=78|52=20240729-14:57:33|98=0|108=30|95=9|96=null/null|10=164|
2024-07-29 16:57:33.392 [70] [FixSender] (INFO) physical cnx finished Connection reset by peer
2024-07-29 16:57:33.392 [70] [FixSender] (WARNING) Disconnected
2024-07-29 16:57:33.978 [71] [FixSender] (INFO) try to connect to : localhost port :12345
2024-07-29 16:57:33.978 [71] [FixSender] (INFO) physical cnx initiated
2024-07-29 16:57:33.979 [71] [FixSender] (DEBUG) Sending 8=FIX.4.4|9=87|35=A|49=FIXCLIENT1|56=DMA_HUB|34=79|52=20240729-14:57:33|98=0|108=30|95=9|96=null/null|10=165|
2024-07-29 16:57:34.393 [71] [FixSender] (INFO) physical cnx finished Connection reset by peer
2024-07-29 16:57:34.393 [71] [FixSender] (WARNING) Disconnected
2024-07-29 16:57:35.741 [72] [FixSender] (INFO) try to connect to : localhost port :12345
2024-07-29 16:57:35.741 [72] [FixSender] (INFO) physical cnx initiated
2024-07-29 16:57:35.743 [72] [FixSender] (DEBUG) Sending 8=FIX.4.4|9=87|35=A|49=FIXCLIENT1|56=DMA_HUB|34=80|52=20240729-14:57:35|98=0|108=30|95=9|96=null/null|10=159|
2024-07-29 16:57:35.743 [72] [FixSender] (INFO) physical cnx finished Connection reset by peer
2024-07-29 16:57:35.743 [72] [FixSender] (WARNING) Disconnected
2024-07-29 16:57:36.168 [73] [FixSender] (INFO) try to connect to : localhost port :12345
2024-07-29 16:57:36.168 [73] [FixSender] (INFO) physical cnx initiated
2024-07-29 16:57:36.169 [73] [FixSender] (DEBUG) Sending 8=FIX.4.4|9=87|35=A|49=FIXCLIENT1|56=DMA_HUB|34=81|52=20240729-14:57:36|98=0|108=30|95=9|96=null/null|10=161|
2024-07-29 16:57:36.515 [74] [FixSender] (INFO) try to connect to : localhost port :12345
2024-07-29 16:57:36.516 [74] [FixSender] (INFO) physical cnx initiated
2024-07-29 16:57:36.517 [74] [FixSender] (DEBUG) Sending 8=FIX.4.4|9=87|35=A|49=FIXCLIENT1|56=DMA_HUB|34=82|52=20240729-14:57:36|98=0|108=30|95=9|96=null/null|10=162|
2024-07-29 16:57:36.744 [73] [FixSender] (INFO) physical cnx finished Connection reset by peer
2024-07-29 16:57:36.745 [74] [FixSender] (INFO) physical cnx finished Connection reset by peer
2024-07-29 16:57:36.745 [74] [FixSender] (WARNING) Disconnected
2024-07-29 16:57:36.745 [73] [FixSender] (WARNING) Disconnected
2024-07-29 16:57:37.677 [75] [FixSender] (INFO) try to connect to : localhost port :12345
2024-07-29 16:57:37.677 [75] [FixSender] (INFO) physical cnx initiated
2024-07-29 16:57:37.679 [75] [FixSender] (DEBUG) Sending 8=FIX.4.4|9=87|35=A|49=FIXCLIENT1|56=DMA_HUB|34=83|52=20240729-14:57:37|98=0|108=30|95=9|96=null/null|10=164|
2024-07-29 16:57:38.746 [75] [FixSender] (INFO) physical cnx finished Connection reset by peer
2024-07-29 16:57:38.746 [75] [FixSender] (WARNING) Disconnected
2024-07-29 17:05:43.481 [1] [Fixsender] (INFO) (c) 2001-2011 ullink SAS. FixSender. Release 1.11.
2024-07-29 17:05:47.171 [35] [FixSender] (INFO) try to connect to : localhost port :12345
2024-07-29 17:05:47.178 [35] [FixSender] (INFO) physical cnx initiated
2024-07-29 17:05:47.188 [35] [FixSender] (DEBUG) Sending 8=FIX.4.4|9=87|35=A|49=FIXCLIENT1|56=DMA_HUB|34=84|52=20240729-15:05:47|98=0|108=30|95=9|96=null/null|10=160|
2024-07-29 17:05:47.193 [35] [FixSender] (DEBUG) Receiving 8=FIX.4.4|9=74|35=A|34=101|49=DMA_HUB|56=FIXCLIENT1|52=20240729-15:05:47.190|108=30|98=0|10=083|
2024-07-29 17:05:47.194 [35] [FixSender] (WARNING) The Fix connection is open...
2024-07-29 17:05:47.195 [35] [FixSender] (DEBUG) Sending 8=FIX.4.4|9=67|35=2|49=FIXCLIENT1|56=DMA_HUB|34=85|52=20240729-15:05:47|7=98|16=0|10=251|
2024-07-29 17:05:47.195 [35] [FixSender] (DEBUG) Receiving 8=FIX.4.4|9=72|35=2|34=102|49=DMA_HUB|56=FIXCLIENT1|52=20240729-15:05:47.193|7=76|16=0|10=228|
2024-07-29 17:05:47.214 [35] [FixSender] (DEBUG) Sending 8=FIX.4.4|9=96|35=4|49=FIXCLIENT1|56=DMA_HUB|34=76|52=20240729-15:05:47|43=Y|122=20240729-15:05:47|123=Y|36=86|10=200|
2024-07-29 17:05:47.214 [35] [FixSender] (DEBUG) Sending 8=FIX.4.4|9=75|35=1|49=FIXCLIENT1|56=DMA_HUB|34=86|52=20240729-15:05:47|112=synchronized?|10=112|
2024-07-29 17:05:47.215 [35] [FixSender] (DEBUG) Receiving 8=FIX.4.4|9=105|35=4|34=98|49=DMA_HUB|56=FIXCLIENT1|52=20240729-15:05:47.198|43=Y|122=20240729-15:05:47.198|36=103|123=Y|10=185|
2024-07-29 17:05:47.215 [35] [FixSender] (DEBUG) Receiving 8=FIX.4.4|9=80|35=0|34=103|49=DMA_HUB|56=FIXCLIENT1|52=20240729-15:05:47.215|112=synchronized?|10=087|
2024-07-29 17:05:49.144 [40] [FixSender] (DEBUG) Sending 8=FIX.4.4|9=192|35=D|49=FIXCLIENT1|56=DMA_HUB|34=87|52=20240729-15:05:49|21=1|11=HS_17222655490|38=106|55=E:07G@XETR|54=1|60=20240729-15:05:49|40=2|59=0|44=350|48=US3390411052|22=4|15=EUR|207=XETR|1=bram_123|10=117|
2024-07-29 17:05:49.153 [35] [FixSender] (DEBUG) Receiving 8=FIX.4.4|9=235|35=8|34=104|49=DMA_HUB|56=FIXCLIENT1|52=20240729-15:05:49.151|11=HS_17222655490|37=FXZFD8LRU|54=1|40=2|59=0|17=2024072946|150=A|39=A|38=106|151=106|14=0|6=0|44=350|60=20240729-15:05:49.000|22=4|48=US3390411052|207=XETR|15=EUR|55=[N/A]|10=224|
2024-07-29 17:05:52.324 [41] [FixSender] (DEBUG) Sending 8=FIX.4.4|9=193|35=D|49=FIXCLIENT1|56=DMA_HUB|34=88|52=20240729-15:05:52|21=1|11=HS_17222655521|38=3632|55=E:07G@XETR|54=1|60=20240729-15:05:52|40=2|59=0|44=350|48=US3390411052|22=4|15=EUR|207=XETR|1=bram_123|10=157|
2024-07-29 17:05:52.326 [35] [FixSender] (DEBUG) Receiving 8=FIX.4.4|9=237|35=8|34=105|49=DMA_HUB|56=FIXCLIENT1|52=20240729-15:05:52.325|11=HS_17222655521|37=FXaFD8LRU|54=1|40=2|59=0|17=2024072947|150=A|39=A|38=3632|151=3632|14=0|6=0|44=350|60=20240729-15:05:52.000|22=4|48=US3390411052|207=XETR|15=EUR|55=[N/A]|10=075|
2024-07-29 17:05:52.759 [42] [FixSender] (DEBUG) Sending 8=FIX.4.4|9=193|35=D|49=FIXCLIENT1|56=DMA_HUB|34=89|52=20240729-15:05:52|21=1|11=HS_17222655522|38=4079|55=E:07G@XETR|54=1|60=20240729-15:05:52|40=2|59=0|44=350|48=US3390411052|22=4|15=EUR|207=XETR|1=bram_123|10=165|
2024-07-29 17:05:52.760 [35] [FixSender] (DEBUG) Receiving 8=FIX.4.4|9=237|35=8|34=106|49=DMA_HUB|56=FIXCLIENT1|52=20240729-15:05:52.760|11=HS_17222655522|37=FXbFD8LRU|54=1|40=2|59=0|17=2024072948|150=A|39=A|38=4079|151=4079|14=0|6=0|44=350|60=20240729-15:05:52.000|22=4|48=US3390411052|207=XETR|15=EUR|55=[N/A]|10=094|
2024-07-29 17:06:08.393 [43] [FixSender] (DEBUG) Sending 8=FIX.4.4|9=193|35=D|49=FIXCLIENT1|56=DMA_HUB|34=90|52=20240729-15:06:08|21=1|11=HS_17222655683|38=3481|55=E:07G@XETR|54=1|60=20240729-15:06:08|40=2|59=0|44=350|48=US3390411052|22=4|15=EUR|207=XETR|1=bram_123|10=165|
2024-07-29 17:06:08.395 [35] [FixSender] (DEBUG) Receiving 8=FIX.4.4|9=237|35=8|34=107|49=DMA_HUB|56=FIXCLIENT1|52=20240729-15:06:08.394|11=HS_17222655683|37=FXcFD8LRU|54=1|40=2|59=0|17=2024072949|150=A|39=A|38=3481|151=3481|14=0|6=0|44=350|60=20240729-15:06:08.000|22=4|48=US3390411052|207=XETR|15=EUR|55=[N/A]|10=104|
2024-07-29 17:06:10.103 [44] [FixSender] (DEBUG) Sending 8=FIX.4.4|9=193|35=D|49=FIXCLIENT1|56=DMA_HUB|34=91|52=20240729-15:06:10|21=1|11=HS_17222655704|38=4135|55=E:07G@XETR|54=1|60=20240729-15:06:10|40=2|59=0|44=350|48=US3390411052|22=4|15=EUR|207=XETR|1=bram_123|10=143|
2024-07-29 17:06:10.105 [35] [FixSender] (DEBUG) Receiving 8=FIX.4.4|9=237|35=8|34=108|49=DMA_HUB|56=FIXCLIENT1|52=20240729-15:06:10.104|11=HS_17222655704|37=FXdFD8LRU|54=1|40=2|59=0|17=2024072950|150=A|39=A|38=4135|151=4135|14=0|6=0|44=350|60=20240729-15:06:10.000|22=4|48=US3390411052|207=XETR|15=EUR|55=[N/A]|10=061|
2024-07-29 17:06:10.850 [45] [FixSender] (DEBUG) Sending 8=FIX.4.4|9=193|35=D|49=FIXCLIENT1|56=DMA_HUB|34=92|52=20240729-15:06:10|21=1|11=HS_17222655705|38=3075|55=E:07G@XETR|54=1|60=20240729-15:06:10|40=2|59=0|44=350|48=US3390411052|22=4|15=EUR|207=XETR|1=bram_123|10=147|
2024-07-29 17:06:10.852 [35] [FixSender] (DEBUG) Receiving 8=FIX.4.4|9=237|35=8|34=109|49=DMA_HUB|56=FIXCLIENT1|52=20240729-15:06:10.852|11=HS_17222655705|37=FXeFD8LRU|54=1|40=2|59=0|17=2024072951|150=A|39=A|38=3075|151=3075|14=0|6=0|44=350|60=20240729-15:06:10.000|22=4|48=US3390411052|207=XETR|15=EUR|55=[N/A]|10=079|
2024-07-29 17:06:11.431 [46] [FixSender] (DEBUG) Sending 8=FIX.4.4|9=193|35=D|49=FIXCLIENT1|56=DMA_HUB|34=93|52=20240729-15:06:11|21=1|11=HS_17222655716|38=4935|55=E:07G@XETR|54=1|60=20240729-15:06:11|40=2|59=0|44=350|48=US3390411052|22=4|15=EUR|207=XETR|1=bram_123|10=158|
2024-07-29 17:06:11.433 [35] [FixSender] (DEBUG) Receiving 8=FIX.4.4|9=237|35=8|34=110|49=DMA_HUB|56=FIXCLIENT1|52=20240729-15:06:11.432|11=HS_17222655716|37=FXfFD8LRU|54=1|40=2|59=0|17=2024072952|150=A|39=A|38=4935|151=4935|14=0|6=0|44=350|60=20240729-15:06:11.000|22=4|48=US3390411052|207=XETR|15=EUR|55=[N/A]|10=083|
2024-07-29 17:06:11.458 [35] [FixSender] (DEBUG) Receiving 8=FIX.4.4|9=252|35=8|34=111|49=DMA_HUB|56=FIXCLIENT1|52=20240729-15:06:11.457|11=HS_17222655716|37=FXfFD8LRU|198=VydQf21097|54=1|40=2|59=0|17=2024072953|150=0|39=0|38=4935|151=4935|14=0|6=0|44=350|60=20240729-15:06:11.451|22=4|48=US3390411052|207=XETR|15=EUR|55=[N/A]|10=014|
2024-07-29 17:06:11.464 [35] [FixSender] (DEBUG) Receiving 8=FIX.4.4|9=311|35=8|34=112|49=DMA_HUB|56=FIXCLIENT1|52=20240729-15:06:11.464|11=HS_17222655716|37=FXfFD8LRU|198=VydQf21097|54=1|32=4935|31=69|17=2024072954|527=BVydQf1|150=F|39=2|38=4935|151=0|14=4935|6=69|44=350|60=20240729-15:06:11.451|22=4|48=US3390411052|207=XETR|15=EUR|55=[N/A]|453=1|448=strmrepl|447=D|452=17|40=2|59=0|10=231|
2024-07-29 17:06:12.069 [47] [FixSender] (DEBUG) Sending 8=FIX.4.4|9=193|35=D|49=FIXCLIENT1|56=DMA_HUB|34=94|52=20240729-15:06:12|21=1|11=HS_17222655727|38=4482|55=E:07G@XETR|54=1|60=20240729-15:06:12|40=2|59=0|44=350|48=US3390411052|22=4|15=EUR|207=XETR|1=bram_123|10=160|
2024-07-29 17:06:12.071 [35] [FixSender] (DEBUG) Receiving 8=FIX.4.4|9=237|35=8|34=113|49=DMA_HUB|56=FIXCLIENT1|52=20240729-15:06:12.070|11=HS_17222655727|37=FXgFD8LRU|54=1|40=2|59=0|17=2024072955|150=A|39=A|38=4482|151=4482|14=0|6=0|44=350|60=20240729-15:06:12.000|22=4|48=US3390411052|207=XETR|15=EUR|55=[N/A]|10=086|
2024-07-29 17:06:12.073 [35] [FixSender] (DEBUG) Receiving 8=FIX.4.4|9=252|35=8|34=114|49=DMA_HUB|56=FIXCLIENT1|52=20240729-15:06:12.073|11=HS_17222655727|37=FXgFD8LRU|198=VydQf211b5|54=1|40=2|59=0|17=2024072956|150=0|39=0|38=4482|151=4482|14=0|6=0|44=350|60=20240729-15:06:12.072|22=4|48=US3390411052|207=XETR|15=EUR|55=[N/A]|10=052|
2024-07-29 17:06:12.075 [35] [FixSender] (DEBUG) Receiving 8=FIX.4.4|9=311|35=8|34=115|49=DMA_HUB|56=FIXCLIENT1|52=20240729-15:06:12.074|11=HS_17222655727|37=FXgFD8LRU|198=VydQf211b5|54=1|32=4482|31=69|17=2024072957|527=BVydQf2|150=F|39=2|38=4482|151=0|14=4482|6=69|44=350|60=20240729-15:06:12.072|22=4|48=US3390411052|207=XETR|15=EUR|55=[N/A]|453=1|448=strmrepl|447=D|452=17|40=2|59=0|10=014|
2024-07-29 17:06:17.146 [35] [FixSender] (DEBUG) Receiving 8=FIX.4.4|9=62|35=0|34=116|49=DMA_HUB|56=FIXCLIENT1|52=20240729-15:06:17.145|10=042|
2024-07-29 17:06:32.028 [48] [FixSender] (DEBUG) Sending 8=FIX.4.4|9=193|35=D|49=FIXCLIENT1|56=DMA_HUB|34=95|52=20240729-15:06:32|21=1|11=HS_17222655928|38=4083|55=E:07G@XETR|54=1|60=20240729-15:06:32|40=2|59=0|44=350|48=US3390411052|22=4|15=EUR|207=XETR|1=bram_123|10=165|
2024-07-29 17:06:32.031 [35] [FixSender] (DEBUG) Receiving 8=FIX.4.4|9=237|35=8|34=117|49=DMA_HUB|56=FIXCLIENT1|52=20240729-15:06:32.030|11=HS_17222655928|37=FXhFD8LRU|54=1|40=2|59=0|17=2024072958|150=A|39=A|38=4083|151=4083|14=0|6=0|44=350|60=20240729-15:06:32.000|22=4|48=US3390411052|207=XETR|15=EUR|55=[N/A]|10=091|
2024-07-29 17:06:32.034 [35] [FixSender] (DEBUG) Receiving 8=FIX.4.4|9=252|35=8|34=118|49=DMA_HUB|56=FIXCLIENT1|52=20240729-15:06:32.033|11=HS_17222655928|37=FXhFD8LRU|198=VydQf234d3|54=1|40=2|59=0|17=2024072959|150=0|39=0|38=4083|151=4083|14=0|6=0|44=350|60=20240729-15:06:32.032|22=4|48=US3390411052|207=XETR|15=EUR|55=[N/A]|10=058|
2024-07-29 17:06:32.035 [35] [FixSender] (DEBUG) Receiving 8=FIX.4.4|9=311|35=8|34=119|49=DMA_HUB|56=FIXCLIENT1|52=20240729-15:06:32.035|11=HS_17222655928|37=FXhFD8LRU|198=VydQf234d3|54=1|32=4083|31=69|17=2024072960|527=BVydQf3|150=F|39=2|38=4083|151=0|14=4083|6=69|44=350|60=20240729-15:06:32.032|22=4|48=US3390411052|207=XETR|15=EUR|55=[N/A]|453=1|448=strmrepl|447=D|452=17|40=2|59=0|10=010|
2024-07-29 17:06:33.183 [49] [FixSender] (DEBUG) Sending 8=FIX.4.4|9=193|35=D|49=FIXCLIENT1|56=DMA_HUB|34=96|52=20240729-15:06:33|21=1|11=HS_17222655939|38=3335|55=E:07G@XETR|54=1|60=20240729-15:06:33|40=2|59=0|44=350|48=US3390411052|22=4|15=EUR|207=XETR|1=bram_123|10=169|
2024-07-29 17:06:33.185 [35] [FixSender] (DEBUG) Receiving 8=FIX.4.4|9=237|35=8|34=120|49=DMA_HUB|56=FIXCLIENT1|52=20240729-15:06:33.184|11=HS_17222655939|37=FXiFD8LRU|54=1|40=2|59=0|17=2024072961|150=A|39=A|38=3335|151=3335|14=0|6=0|44=350|60=20240729-15:06:33.000|22=4|48=US3390411052|207=XETR|15=EUR|55=[N/A]|10=092|
2024-07-29 17:06:33.194 [35] [FixSender] (DEBUG) Receiving 8=FIX.4.4|9=252|35=8|34=121|49=DMA_HUB|56=FIXCLIENT1|52=20240729-15:06:33.188|11=HS_17222655939|37=FXiFD8LRU|198=VydQf236df|54=1|40=2|59=0|17=2024072962|150=0|39=0|38=3335|151=3335|14=0|6=0|44=350|60=20240729-15:06:33.186|22=4|48=US3390411052|207=XETR|15=EUR|55=[N/A]|10=123|
2024-07-29 17:06:33.194 [35] [FixSender] (DEBUG) Receiving 8=FIX.4.4|9=311|35=8|34=122|49=DMA_HUB|56=FIXCLIENT1|52=20240729-15:06:33.192|11=HS_17222655939|37=FXiFD8LRU|198=VydQf236df|54=1|32=3335|31=69|17=2024072963|527=BVydQf4|150=F|39=2|38=3335|151=0|14=3335|6=69|44=350|60=20240729-15:06:33.186|22=4|48=US3390411052|207=XETR|15=EUR|55=[N/A]|453=1|448=strmrepl|447=D|452=17|40=2|59=0|10=077|
2024-07-29 17:06:33.296 [50] [FixSender] (DEBUG) Sending 8=FIX.4.4|9=194|35=D|49=FIXCLIENT1|56=DMA_HUB|34=97|52=20240729-15:06:33|21=1|11=HS_172226559310|38=1450|55=E:07G@XETR|54=1|60=20240729-15:06:33|40=2|59=0|44=350|48=US3390411052|22=4|15=EUR|207=XETR|1=bram_123|10=207|
2024-07-29 17:06:33.298 [35] [FixSender] (DEBUG) Receiving 8=FIX.4.4|9=238|35=8|34=123|49=DMA_HUB|56=FIXCLIENT1|52=20240729-15:06:33.297|11=HS_172226559310|37=FXjFD8LRU|54=1|40=2|59=0|17=2024072964|150=A|39=A|38=1450|151=1450|14=0|6=0|44=350|60=20240729-15:06:33.000|22=4|48=US3390411052|207=XETR|15=EUR|55=[N/A]|10=137|
2024-07-29 17:06:33.300 [35] [FixSender] (DEBUG) Receiving 8=FIX.4.4|9=253|35=8|34=124|49=DMA_HUB|56=FIXCLIENT1|52=20240729-15:06:33.300|11=HS_172226559310|37=FXjFD8LRU|198=VydQf236ff|54=1|40=2|59=0|17=2024072965|150=0|39=0|38=1450|151=1450|14=0|6=0|44=350|60=20240729-15:06:33.298|22=4|48=US3390411052|207=XETR|15=EUR|55=[N/A]|10=155|
2024-07-29 17:06:33.302 [35] [FixSender] (DEBUG) Receiving 8=FIX.4.4|9=312|35=8|34=125|49=DMA_HUB|56=FIXCLIENT1|52=20240729-15:06:33.302|11=HS_172226559310|37=FXjFD8LRU|198=VydQf236ff|54=1|32=1450|31=69|17=2024072966|527=BVydQf5|150=F|39=2|38=1450|151=0|14=1450|6=69|44=350|60=20240729-15:06:33.299|22=4|48=US3390411052|207=XETR|15=EUR|55=[N/A]|453=1|448=strmrepl|447=D|452=17|40=2|59=0|10=114|
2024-07-29 17:06:33.409 [51] [FixSender] (DEBUG) Sending 8=FIX.4.4|9=194|35=D|49=FIXCLIENT1|56=DMA_HUB|34=98|52=20240729-15:06:33|21=1|11=HS_172226559311|38=1129|55=E:07G@XETR|54=1|60=20240729-15:06:33|40=2|59=0|44=350|48=US3390411052|22=4|15=EUR|207=XETR|1=bram_123|10=212|
2024-07-29 17:06:33.411 [35] [FixSender] (DEBUG) Receiving 8=FIX.4.4|9=238|35=8|34=126|49=DMA_HUB|56=FIXCLIENT1|52=20240729-15:06:33.410|11=HS_172226559311|37=FXkFD8LRU|54=1|40=2|59=0|17=2024072967|150=A|39=A|38=1129|151=1129|14=0|6=0|44=350|60=20240729-15:06:33.000|22=4|48=US3390411052|207=XETR|15=EUR|55=[N/A]|10=138|
2024-07-29 17:06:33.413 [35] [FixSender] (DEBUG) Receiving 8=FIX.4.4|9=253|35=8|34=127|49=DMA_HUB|56=FIXCLIENT1|52=20240729-15:06:33.413|11=HS_172226559311|37=FXkFD8LRU|198=VydQf23737|54=1|40=2|59=0|17=2024072968|150=0|39=0|38=1129|151=1129|14=0|6=0|44=350|60=20240729-15:06:33.411|22=4|48=US3390411052|207=XETR|15=EUR|55=[N/A]|10=064|
2024-07-29 17:06:33.415 [35] [FixSender] (DEBUG) Receiving 8=FIX.4.4|9=312|35=8|34=128|49=DMA_HUB|56=FIXCLIENT1|52=20240729-15:06:33.415|11=HS_172226559311|37=FXkFD8LRU|198=VydQf23737|54=1|32=1129|31=69|17=2024072969|527=BVydQf6|150=F|39=2|38=1129|151=0|14=1129|6=69|44=350|60=20240729-15:06:33.412|22=4|48=US3390411052|207=XETR|15=EUR|55=[N/A]|453=1|448=strmrepl|447=D|452=17|40=2|59=0|10=027|
2024-07-29 17:06:33.544 [52] [FixSender] (DEBUG) Sending 8=FIX.4.4|9=194|35=D|49=FIXCLIENT1|56=DMA_HUB|34=99|52=20240729-15:06:33|21=1|11=HS_172226559312|38=2477|55=E:07G@XETR|54=1|60=20240729-15:06:33|40=2|59=0|44=350|48=US3390411052|22=4|15=EUR|207=XETR|1=bram_123|10=221|
2024-07-29 17:06:33.546 [35] [FixSender] (DEBUG) Receiving 8=FIX.4.4|9=238|35=8|34=129|49=DMA_HUB|56=FIXCLIENT1|52=20240729-15:06:33.545|11=HS_172226559312|37=FXlFD8LRU|54=1|40=2|59=0|17=2024072970|150=A|39=A|38=2477|151=2477|14=0|6=0|44=350|60=20240729-15:06:33.000|22=4|48=US3390411052|207=XETR|15=EUR|55=[N/A]|10=160|
2024-07-29 17:06:33.549 [35] [FixSender] (DEBUG) Receiving 8=FIX.4.4|9=253|35=8|34=130|49=DMA_HUB|56=FIXCLIENT1|52=20240729-15:06:33.548|11=HS_172226559312|37=FXlFD8LRU|198=VydQf23768|54=1|40=2|59=0|17=2024072971|150=0|39=0|38=2477|151=2477|14=0|6=0|44=350|60=20240729-15:06:33.547|22=4|48=US3390411052|207=XETR|15=EUR|55=[N/A]|10=091|
2024-07-29 17:06:33.550 [35] [FixSender] (DEBUG) Receiving 8=FIX.4.4|9=312|35=8|34=131|49=DMA_HUB|56=FIXCLIENT1|52=20240729-15:06:33.550|11=HS_172226559312|37=FXlFD8LRU|198=VydQf23768|54=1|32=2477|31=69|17=2024072972|527=BVydQf7|150=F|39=2|38=2477|151=0|14=2477|6=69|44=350|60=20240729-15:06:33.547|22=4|48=US3390411052|207=XETR|15=EUR|55=[N/A]|453=1|448=strmrepl|447=D|452=17|40=2|59=0|10=052|
2024-07-29 17:06:33.677 [53] [FixSender] (DEBUG) Sending 8=FIX.4.4|9=195|35=D|49=FIXCLIENT1|56=DMA_HUB|34=100|52=20240729-15:06:33|21=1|11=HS_172226559313|38=1635|55=E:07G@XETR|54=1|60=20240729-15:06:33|40=2|59=0|44=350|48=US3390411052|22=4|15=EUR|207=XETR|1=bram_123|10=249|
2024-07-29 17:06:33.678 [35] [FixSender] (DEBUG) Receiving 8=FIX.4.4|9=238|35=8|34=132|49=DMA_HUB|56=FIXCLIENT1|52=20240729-15:06:33.678|11=HS_172226559313|37=FXmFD8LRU|54=1|40=2|59=0|17=2024072973|150=A|39=A|38=1635|151=1635|14=0|6=0|44=350|60=20240729-15:06:33.000|22=4|48=US3390411052|207=XETR|15=EUR|55=[N/A]|10=156|
2024-07-29 17:06:33.681 [35] [FixSender] (DEBUG) Receiving 8=FIX.4.4|9=253|35=8|34=133|49=DMA_HUB|56=FIXCLIENT1|52=20240729-15:06:33.681|11=HS_172226559313|37=FXmFD8LRU|198=VydQf237a2|54=1|40=2|59=0|17=2024072974|150=0|39=0|38=1635|151=1635|14=0|6=0|44=350|60=20240729-15:06:33.679|22=4|48=US3390411052|207=XETR|15=EUR|55=[N/A]|10=130|
2024-07-29 17:06:33.682 [35] [FixSender] (DEBUG) Receiving 8=FIX.4.4|9=312|35=8|34=134|49=DMA_HUB|56=FIXCLIENT1|52=20240729-15:06:33.682|11=HS_172226559313|37=FXmFD8LRU|198=VydQf237a2|54=1|32=1635|31=69|17=2024072975|527=BVydQf8|150=F|39=2|38=1635|151=0|14=1635|6=69|44=350|60=20240729-15:06:33.679|22=4|48=US3390411052|207=XETR|15=EUR|55=[N/A]|453=1|448=strmrepl|447=D|452=17|40=2|59=0|10=095|
2024-07-29 17:06:35.094 [54] [FixSender] (DEBUG) Sending 8=FIX.4.4|9=195|35=D|49=FIXCLIENT1|56=DMA_HUB|34=101|52=20240729-15:06:35|21=1|11=HS_172226559514|38=2469|55=E:07G@XETR|54=1|60=20240729-15:06:35|40=2|59=0|44=350|48=US3390411052|22=4|15=EUR|207=XETR|1=bram_123|10=007|
2024-07-29 17:06:35.095 [35] [FixSender] (DEBUG) Receiving 8=FIX.4.4|9=238|35=8|34=135|49=DMA_HUB|56=FIXCLIENT1|52=20240729-15:06:35.095|11=HS_172226559514|37=FXnFD8LRU|54=1|40=2|59=0|17=2024072976|150=A|39=A|38=2469|151=2469|14=0|6=0|44=350|60=20240729-15:06:35.000|22=4|48=US3390411052|207=XETR|15=EUR|55=[N/A]|10=175|
2024-07-29 17:06:35.098 [35] [FixSender] (DEBUG) Receiving 8=FIX.4.4|9=253|35=8|34=136|49=DMA_HUB|56=FIXCLIENT1|52=20240729-15:06:35.097|11=HS_172226559514|37=FXnFD8LRU|198=VydQf23a0f|54=1|40=2|59=0|17=2024072977|150=0|39=0|38=2469|151=2469|14=0|6=0|44=350|60=20240729-15:06:35.096|22=4|48=US3390411052|207=XETR|15=EUR|55=[N/A]|10=195|
2024-07-29 17:06:35.099 [35] [FixSender] (DEBUG) Receiving 8=FIX.4.4|9=312|35=8|34=137|49=DMA_HUB|56=FIXCLIENT1|52=20240729-15:06:35.098|11=HS_172226559514|37=FXnFD8LRU|198=VydQf23a0f|54=1|32=2469|31=69|17=2024072978|527=BVydQf9|150=F|39=2|38=2469|151=0|14=2469|6=69|44=350|60=20240729-15:06:35.096|22=4|48=US3390411052|207=XETR|15=EUR|55=[N/A]|453=1|448=strmrepl|447=D|452=17|40=2|59=0|10=167|
2024-07-29 17:06:35.210 [55] [FixSender] (DEBUG) Sending 8=FIX.4.4|9=195|35=D|49=FIXCLIENT1|56=DMA_HUB|34=102|52=20240729-15:06:35|21=1|11=HS_172226559515|38=1661|55=E:07G@XETR|54=1|60=20240729-15:06:35|40=2|59=0|44=350|48=US3390411052|22=4|15=EUR|207=XETR|1=bram_123|10=002|
2024-07-29 17:06:35.212 [35] [FixSender] (DEBUG) Receiving 8=FIX.4.4|9=238|35=8|34=138|49=DMA_HUB|56=FIXCLIENT1|52=20240729-15:06:35.212|11=HS_172226559515|37=FXoFD8LRU|54=1|40=2|59=0|17=2024072979|150=A|39=A|38=1661|151=1661|14=0|6=0|44=350|60=20240729-15:06:35.000|22=4|48=US3390411052|207=XETR|15=EUR|55=[N/A]|10=160|
2024-07-29 17:06:35.215 [35] [FixSender] (DEBUG) Receiving 8=FIX.4.4|9=253|35=8|34=139|49=DMA_HUB|56=FIXCLIENT1|52=20240729-15:06:35.215|11=HS_172226559515|37=FXoFD8LRU|198=VydQf23a4e|54=1|40=2|59=0|17=2024072980|150=0|39=0|38=1661|151=1661|14=0|6=0|44=350|60=20240729-15:06:35.213|22=4|48=US3390411052|207=XETR|15=EUR|55=[N/A]|10=166|
2024-07-29 17:06:35.217 [35] [FixSender] (DEBUG) Receiving 8=FIX.4.4|9=312|35=8|34=140|49=DMA_HUB|56=FIXCLIENT1|52=20240729-15:06:35.216|11=HS_172226559515|37=FXoFD8LRU|198=VydQf23a4e|54=1|32=1661|31=69|17=2024072981|527=BVydQfa|150=F|39=2|38=1661|151=0|14=1661|6=69|44=350|60=20240729-15:06:35.213|22=4|48=US3390411052|207=XETR|15=EUR|55=[N/A]|453=1|448=strmrepl|447=D|452=17|40=2|59=0|10=162|
2024-07-29 17:06:35.326 [56] [FixSender] (DEBUG) Sending 8=FIX.4.4|9=195|35=D|49=FIXCLIENT1|56=DMA_HUB|34=103|52=20240729-15:06:35|21=1|11=HS_172226559516|38=1313|55=E:07G@XETR|54=1|60=20240729-15:06:35|40=2|59=0|44=350|48=US3390411052|22=4|15=EUR|207=XETR|1=bram_123|10=254|
2024-07-29 17:06:35.327 [35] [FixSender] (DEBUG) Receiving 8=FIX.4.4|9=238|35=8|34=141|49=DMA_HUB|56=FIXCLIENT1|52=20240729-15:06:35.327|11=HS_172226559516|37=FXpFD8LRU|54=1|40=2|59=0|17=2024072982|150=A|39=A|38=1313|151=1313|14=0|6=0|44=350|60=20240729-15:06:35.000|22=4|48=US3390411052|207=XETR|15=EUR|55=[N/A]|10=145|
2024-07-29 17:06:35.330 [35] [FixSender] (DEBUG) Receiving 8=FIX.4.4|9=253|35=8|34=142|49=DMA_HUB|56=FIXCLIENT1|52=20240729-15:06:35.329|11=HS_172226559516|37=FXpFD8LRU|198=VydQf23a84|54=1|40=2|59=0|17=2024072983|150=0|39=0|38=1313|151=1313|14=0|6=0|44=350|60=20240729-15:06:35.328|22=4|48=US3390411052|207=XETR|15=EUR|55=[N/A]|10=121|
2024-07-29 17:06:35.331 [35] [FixSender] (DEBUG) Receiving 8=FIX.4.4|9=312|35=8|34=143|49=DMA_HUB|56=FIXCLIENT1|52=20240729-15:06:35.330|11=HS_172226559516|37=FXpFD8LRU|198=VydQf23a84|54=1|32=1313|31=69|17=2024072984|527=BVydQfb|150=F|39=2|38=1313|151=0|14=1313|6=69|44=350|60=20240729-15:06:35.328|22=4|48=US3390411052|207=XETR|15=EUR|55=[N/A]|453=1|448=strmrepl|447=D|452=17|40=2|59=0|10=112|
2024-07-29 17:06:35.883 [57] [FixSender] (DEBUG) Sending 8=FIX.4.4|9=195|35=D|49=FIXCLIENT1|56=DMA_HUB|34=104|52=20240729-15:06:35|21=1|11=HS_172226559517|38=3493|55=E:07G@XETR|54=1|60=20240729-15:06:35|40=2|59=0|44=350|48=US3390411052|22=4|15=EUR|207=XETR|1=bram_123|10=011|
2024-07-29 17:06:35.885 [35] [FixSender] (DEBUG) Receiving 8=FIX.4.4|9=238|35=8|34=144|49=DMA_HUB|56=FIXCLIENT1|52=20240729-15:06:35.885|11=HS_172226559517|37=FXqFD8LRU|54=1|40=2|59=0|17=2024072985|150=A|39=A|38=3493|151=3493|14=0|6=0|44=350|60=20240729-15:06:35.000|22=4|48=US3390411052|207=XETR|15=EUR|55=[N/A]|10=184|
2024-07-29 17:06:35.889 [35] [FixSender] (DEBUG) Receiving 8=FIX.4.4|9=253|35=8|34=145|49=DMA_HUB|56=FIXCLIENT1|52=20240729-15:06:35.888|11=HS_172226559517|37=FXqFD8LRU|198=VydQf23b77|54=1|40=2|59=0|17=2024072986|150=0|39=0|38=3493|151=3493|14=0|6=0|44=350|60=20240729-15:06:35.886|22=4|48=US3390411052|207=XETR|15=EUR|55=[N/A]|10=173|
2024-07-29 17:06:35.891 [35] [FixSender] (DEBUG) Receiving 8=FIX.4.4|9=312|35=8|34=146|49=DMA_HUB|56=FIXCLIENT1|52=20240729-15:06:35.891|11=HS_172226559517|37=FXqFD8LRU|198=VydQf23b77|54=1|32=3493|31=69|17=2024072987|527=BVydQfc|150=F|39=2|38=3493|151=0|14=3493|6=69|44=350|60=20240729-15:06:35.886|22=4|48=US3390411052|207=XETR|15=EUR|55=[N/A]|453=1|448=strmrepl|447=D|452=17|40=2|59=0|10=178|
2024-07-29 17:06:47.098 [35] [FixSender] (DEBUG) Receiving 8=FIX.4.4|9=62|35=0|34=147|49=DMA_HUB|56=FIXCLIENT1|52=20240729-15:06:47.098|10=056|
2024-07-29 17:06:57.739 [58] [FixSender] (DEBUG) Sending 8=FIX.4.4|9=195|35=D|49=FIXCLIENT1|56=DMA_HUB|34=105|52=20240729-15:06:57|21=1|11=HS_172226561718|38=3584|55=E:07G@XETR|54=1|60=20240729-15:06:57|40=2|59=0|44=350|48=US3390411052|22=4|15=EUR|207=XETR|1=bram_123|10=017|
2024-07-29 17:06:57.741 [35] [FixSender] (DEBUG) Receiving 8=FIX.4.4|9=238|35=8|34=148|49=DMA_HUB|56=FIXCLIENT1|52=20240729-15:06:57.741|11=HS_172226561718|37=FXrFD8LRU|54=1|40=2|59=0|17=2024072988|150=A|39=A|38=3584|151=3584|14=0|6=0|44=350|60=20240729-15:06:57.000|22=4|48=US3390411052|207=XETR|15=EUR|55=[N/A]|10=189|
2024-07-29 17:06:59.320 [59] [FixSender] (DEBUG) Sending 8=FIX.4.4|9=195|35=D|49=FIXCLIENT1|56=DMA_HUB|34=106|52=20240729-15:06:59|21=1|11=HS_172226561919|38=3030|55=E:07G@XETR|54=1|60=20240729-15:06:59|40=2|59=0|44=350|48=US3390411052|22=4|15=EUR|207=XETR|1=bram_123|10=011|
2024-07-29 17:06:59.323 [35] [FixSender] (DEBUG) Receiving 8=FIX.4.4|9=238|35=8|34=149|49=DMA_HUB|56=FIXCLIENT1|52=20240729-15:06:59.322|11=HS_172226561919|37=FXsFD8LRU|54=1|40=2|59=0|17=2024072989|150=A|39=A|38=3030|151=3030|14=0|6=0|44=350|60=20240729-15:06:59.000|22=4|48=US3390411052|207=XETR|15=EUR|55=[N/A]|10=166|
2024-07-29 17:06:59.822 [60] [FixSender] (DEBUG) Sending 8=FIX.4.4|9=195|35=D|49=FIXCLIENT1|56=DMA_HUB|34=107|52=20240729-15:06:59|21=1|11=HS_172226561920|38=2004|55=E:07G@XETR|54=1|60=20240729-15:06:59|40=2|59=0|44=350|48=US3390411052|22=4|15=EUR|207=XETR|1=bram_123|10=004|
2024-07-29 17:06:59.823 [35] [FixSender] (DEBUG) Receiving 8=FIX.4.4|9=238|35=8|34=150|49=DMA_HUB|56=FIXCLIENT1|52=20240729-15:06:59.823|11=HS_172226561920|37=FXtFD8LRU|54=1|40=2|59=0|17=2024072990|150=A|39=A|38=2004|151=2004|14=0|6=0|44=350|60=20240729-15:06:59.000|22=4|48=US3390411052|207=XETR|15=EUR|55=[N/A]|10=149|
2024-07-29 17:07:00.368 [61] [FixSender] (DEBUG) Sending 8=FIX.4.4|9=195|35=D|49=FIXCLIENT1|56=DMA_HUB|34=108|52=20240729-15:07:00|21=1|11=HS_172226562021|38=4230|55=E:07G@XETR|54=1|60=20240729-15:07:00|40=2|59=0|44=350|48=US3390411052|22=4|15=EUR|207=XETR|1=bram_123|10=231|
2024-07-29 17:07:00.370 [35] [FixSender] (DEBUG) Receiving 8=FIX.4.4|9=238|35=8|34=151|49=DMA_HUB|56=FIXCLIENT1|52=20240729-15:07:00.370|11=HS_172226562021|37=FXuFD8LRU|54=1|40=2|59=0|17=2024072991|150=A|39=A|38=4230|151=4230|14=0|6=0|44=350|60=20240729-15:07:00.000|22=4|48=US3390411052|207=XETR|15=EUR|55=[N/A]|10=122|
2024-07-29 17:07:17.050 [35] [FixSender] (DEBUG) Receiving 8=FIX.4.4|9=62|35=0|34=152|49=DMA_HUB|56=FIXCLIENT1|52=20240729-15:07:17.049|10=046|
2024-07-29 17:07:30.368 [39] [FixSender] (DEBUG) Sending 8=FIX.4.4|9=58|35=0|49=FIXCLIENT1|56=DMA_HUB|34=109|52=20240729-15:07:30|10=101|
2024-07-29 17:07:47.002 [35] [FixSender] (DEBUG) Receiving 8=FIX.4.4|9=62|35=0|34=153|49=DMA_HUB|56=FIXCLIENT1|52=20240729-15:07:47.002|10=039|
2024-07-29 17:08:00.369 [39] [FixSender] (DEBUG) Sending 8=FIX.4.4|9=58|35=0|49=FIXCLIENT1|56=DMA_HUB|34=110|52=20240729-15:08:00|10=091|
2024-07-29 17:08:16.954 [35] [FixSender] (DEBUG) Receiving 8=FIX.4.4|9=62|35=0|34=154|49=DMA_HUB|56=FIXCLIENT1|52=20240729-15:08:16.953|10=052|
2024-07-29 17:08:30.369 [39] [FixSender] (DEBUG) Sending 8=FIX.4.4|9=58|35=0|49=FIXCLIENT1|56=DMA_HUB|34=111|52=20240729-15:08:30|10=095|
2024-07-29 17:08:46.907 [35] [FixSender] (DEBUG) Receiving 8=FIX.4.4|9=62|35=0|34=155|49=DMA_HUB|56=FIXCLIENT1|52=20240729-15:08:46.906|10=054|
2024-07-29 17:09:00.369 [39] [FixSender] (DEBUG) Sending 8=FIX.4.4|9=58|35=0|49=FIXCLIENT1|56=DMA_HUB|34=112|52=20240729-15:09:00|10=094|
2024-07-29 17:09:16.858 [35] [FixSender] (DEBUG) Receiving 8=FIX.4.4|9=62|35=0|34=156|49=DMA_HUB|56=FIXCLIENT1|52=20240729-15:09:16.858|10=059|
2024-07-29 17:09:30.370 [39] [FixSender] (DEBUG) Sending 8=FIX.4.4|9=58|35=0|49=FIXCLIENT1|56=DMA_HUB|34=113|52=20240729-15:09:30|10=098|
2024-07-29 17:09:46.810 [35] [FixSender] (DEBUG) Receiving 8=FIX.4.4|9=62|35=0|34=157|49=DMA_HUB|56=FIXCLIENT1|52=20240729-15:09:46.809|10=059|
2024-07-29 17:10:00.370 [39] [FixSender] (DEBUG) Sending 8=FIX.4.4|9=58|35=0|49=FIXCLIENT1|56=DMA_HUB|34=114|52=20240729-15:10:00|10=088|
2024-07-29 17:10:16.762 [35] [FixSender] (DEBUG) Receiving 8=FIX.4.4|9=62|35=0|34=158|49=DMA_HUB|56=FIXCLIENT1|52=20240729-15:10:16.762|10=047|
2024-07-29 17:10:30.371 [39] [FixSender] (DEBUG) Sending 8=FIX.4.4|9=58|35=0|49=FIXCLIENT1|56=DMA_HUB|34=115|52=20240729-15:10:30|10=092|
2024-07-29 17:10:46.713 [35] [FixSender] (DEBUG) Receiving 8=FIX.4.4|9=62|35=0|34=159|49=DMA_HUB|56=FIXCLIENT1|52=20240729-15:10:46.713|10=047|
2024-07-29 17:11:00.371 [39] [FixSender] (DEBUG) Sending 8=FIX.4.4|9=58|35=0|49=FIXCLIENT1|56=DMA_HUB|34=116|52=20240729-15:11:00|10=091|
2024-07-29 17:11:16.666 [35] [FixSender] (DEBUG) Receiving 8=FIX.4.4|9=62|35=0|34=160|49=DMA_HUB|56=FIXCLIENT1|52=20240729-15:11:16.665|10=043|
2024-07-29 17:11:30.371 [39] [FixSender] (DEBUG) Sending 8=FIX.4.4|9=58|35=0|49=FIXCLIENT1|56=DMA_HUB|34=117|52=20240729-15:11:30|10=095|
2024-07-29 17:11:46.618 [35] [FixSender] (DEBUG) Receiving 8=FIX.4.4|9=62|35=0|34=161|49=DMA_HUB|56=FIXCLIENT1|52=20240729-15:11:46.618|10=045|
2024-07-29 17:12:00.372 [39] [FixSender] (DEBUG) Sending 8=FIX.4.4|9=58|35=0|49=FIXCLIENT1|56=DMA_HUB|34=118|52=20240729-15:12:00|10=094|
2024-07-29 17:12:16.570 [35] [FixSender] (DEBUG) Receiving 8=FIX.4.4|9=62|35=0|34=162|49=DMA_HUB|56=FIXCLIENT1|52=20240729-15:12:16.569|10=049|
2024-07-29 17:12:30.372 [39] [FixSender] (DEBUG) Sending 8=FIX.4.4|9=58|35=0|49=FIXCLIENT1|56=DMA_HUB|34=119|52=20240729-15:12:30|10=098|
2024-07-29 17:12:46.522 [35] [FixSender] (DEBUG) Receiving 8=FIX.4.4|9=62|35=0|34=163|49=DMA_HUB|56=FIXCLIENT1|52=20240729-15:12:46.521|10=041|
2024-07-29 17:13:00.373 [39] [FixSender] (DEBUG) Sending 8=FIX.4.4|9=58|35=0|49=FIXCLIENT1|56=DMA_HUB|34=120|52=20240729-15:13:00|10=088|
2024-07-29 17:13:16.473 [35] [FixSender] (DEBUG) Receiving 8=FIX.4.4|9=62|35=0|34=164|49=DMA_HUB|56=FIXCLIENT1|52=20240729-15:13:16.473|10=046|
2024-07-29 17:13:30.374 [39] [FixSender] (DEBUG) Sending 8=FIX.4.4|9=58|35=0|49=FIXCLIENT1|56=DMA_HUB|34=121|52=20240729-15:13:30|10=092|
2024-07-29 17:13:46.426 [35] [FixSender] (DEBUG) Receiving 8=FIX.4.4|9=62|35=0|34=165|49=DMA_HUB|56=FIXCLIENT1|52=20240729-15:13:46.425|10=047|
2024-07-29 17:14:00.374 [39] [FixSender] (DEBUG) Sending 8=FIX.4.4|9=58|35=0|49=FIXCLIENT1|56=DMA_HUB|34=122|52=20240729-15:14:00|10=091|
2024-07-29 17:14:16.377 [35] [FixSender] (DEBUG) Receiving 8=FIX.4.4|9=62|35=0|34=166|49=DMA_HUB|56=FIXCLIENT1|52=20240729-15:14:16.377|10=052|
2024-07-29 17:14:30.375 [39] [FixSender] (DEBUG) Sending 8=FIX.4.4|9=58|35=0|49=FIXCLIENT1|56=DMA_HUB|34=123|52=20240729-15:14:30|10=095|
2024-07-29 17:14:46.329 [35] [FixSender] (DEBUG) Receiving 8=FIX.4.4|9=62|35=0|34=167|49=DMA_HUB|56=FIXCLIENT1|52=20240729-15:14:46.329|10=053|
2024-07-29 17:15:00.375 [39] [FixSender] (DEBUG) Sending 8=FIX.4.4|9=58|35=0|49=FIXCLIENT1|56=DMA_HUB|34=124|52=20240729-15:15:00|10=094|
2024-07-29 17:15:16.282 [35] [FixSender] (DEBUG) Receiving 8=FIX.4.4|9=62|35=0|34=168|49=DMA_HUB|56=FIXCLIENT1|52=20240729-15:15:16.281|10=049|
2024-07-29 17:15:30.375 [39] [FixSender] (DEBUG) Sending 8=FIX.4.4|9=58|35=0|49=FIXCLIENT1|56=DMA_HUB|34=125|52=20240729-15:15:30|10=098|
2024-07-29 17:15:46.233 [35] [FixSender] (DEBUG) Receiving 8=FIX.4.4|9=62|35=0|34=169|49=DMA_HUB|56=FIXCLIENT1|52=20240729-15:15:46.233|10=050|
2024-07-29 17:16:00.376 [39] [FixSender] (DEBUG) Sending 8=FIX.4.4|9=58|35=0|49=FIXCLIENT1|56=DMA_HUB|34=126|52=20240729-15:16:00|10=097|
2024-07-29 17:16:16.186 [35] [FixSender] (DEBUG) Receiving 8=FIX.4.4|9=62|35=0|34=170|49=DMA_HUB|56=FIXCLIENT1|52=20240729-15:16:16.185|10=046|
2024-07-29 17:16:30.376 [39] [FixSender] (DEBUG) Sending 8=FIX.4.4|9=58|35=0|49=FIXCLIENT1|56=DMA_HUB|34=127|52=20240729-15:16:30|10=101|
2024-07-29 17:16:46.138 [35] [FixSender] (DEBUG) Receiving 8=FIX.4.4|9=62|35=0|34=171|49=DMA_HUB|56=FIXCLIENT1|52=20240729-15:16:46.138|10=048|
2024-07-29 17:17:00.377 [39] [FixSender] (DEBUG) Sending 8=FIX.4.4|9=58|35=0|49=FIXCLIENT1|56=DMA_HUB|34=128|52=20240729-15:17:00|10=100|
2024-07-29 17:17:16.090 [35] [FixSender] (DEBUG) Receiving 8=FIX.4.4|9=62|35=0|34=172|49=DMA_HUB|56=FIXCLIENT1|52=20240729-15:17:16.089|10=052|
2024-07-29 17:17:30.377 [39] [FixSender] (DEBUG) Sending 8=FIX.4.4|9=58|35=0|49=FIXCLIENT1|56=DMA_HUB|34=129|52=20240729-15:17:30|10=104|
2024-07-29 17:17:46.042 [35] [FixSender] (DEBUG) Receiving 8=FIX.4.4|9=62|35=0|34=173|49=DMA_HUB|56=FIXCLIENT1|52=20240729-15:17:46.041|10=044|
2024-07-29 17:18:00.378 [39] [FixSender] (DEBUG) Sending 8=FIX.4.4|9=58|35=0|49=FIXCLIENT1|56=DMA_HUB|34=130|52=20240729-15:18:00|10=094|
2024-07-29 17:18:15.993 [35] [FixSender] (DEBUG) Receiving 8=FIX.4.4|9=62|35=0|34=174|49=DMA_HUB|56=FIXCLIENT1|52=20240729-15:18:15.993|10=058|
2024-07-29 17:18:30.379 [39] [FixSender] (DEBUG) Sending 8=FIX.4.4|9=58|35=0|49=FIXCLIENT1|56=DMA_HUB|34=131|52=20240729-15:18:30|10=098|
2024-07-29 17:18:45.946 [35] [FixSender] (DEBUG) Receiving 8=FIX.4.4|9=62|35=0|34=175|49=DMA_HUB|56=FIXCLIENT1|52=20240729-15:18:45.945|10=059|
2024-07-29 17:19:00.379 [39] [FixSender] (DEBUG) Sending 8=FIX.4.4|9=58|35=0|49=FIXCLIENT1|56=DMA_HUB|34=132|52=20240729-15:19:00|10=097|
2024-07-29 17:19:15.897 [35] [FixSender] (DEBUG) Receiving 8=FIX.4.4|9=62|35=0|34=176|49=DMA_HUB|56=FIXCLIENT1|52=20240729-15:19:15.897|10=064|
2024-07-29 17:19:30.380 [39] [FixSender] (DEBUG) Sending 8=FIX.4.4|9=58|35=0|49=FIXCLIENT1|56=DMA_HUB|34=133|52=20240729-15:19:30|10=101|
2024-07-29 17:19:45.850 [35] [FixSender] (DEBUG) Receiving 8=FIX.4.4|9=62|35=0|34=177|49=DMA_HUB|56=FIXCLIENT1|52=20240729-15:19:45.849|10=065|
2024-07-29 17:20:00.380 [39] [FixSender] (DEBUG) Sending 8=FIX.4.4|9=58|35=0|49=FIXCLIENT1|56=DMA_HUB|34=134|52=20240729-15:20:00|10=091|
2024-07-29 17:20:15.802 [35] [FixSender] (DEBUG) Receiving 8=FIX.4.4|9=62|35=0|34=178|49=DMA_HUB|56=FIXCLIENT1|52=20240729-15:20:15.802|10=044|
2024-07-29 17:20:30.380 [39] [FixSender] (DEBUG) Sending 8=FIX.4.4|9=58|35=0|49=FIXCLIENT1|56=DMA_HUB|34=135|52=20240729-15:20:30|10=095|
2024-07-29 17:20:45.754 [35] [FixSender] (DEBUG) Receiving 8=FIX.4.4|9=62|35=0|34=179|49=DMA_HUB|56=FIXCLIENT1|52=20240729-15:20:45.753|10=053|
2024-07-29 17:21:00.381 [39] [FixSender] (DEBUG) Sending 8=FIX.4.4|9=58|35=0|49=FIXCLIENT1|56=DMA_HUB|34=136|52=20240729-15:21:00|10=094|
2024-07-29 17:21:15.706 [35] [FixSender] (DEBUG) Receiving 8=FIX.4.4|9=62|35=0|34=180|49=DMA_HUB|56=FIXCLIENT1|52=20240729-15:21:15.706|10=041|
2024-07-29 17:21:30.381 [39] [FixSender] (DEBUG) Sending 8=FIX.4.4|9=58|35=0|49=FIXCLIENT1|56=DMA_HUB|34=137|52=20240729-15:21:30|10=098|
2024-07-29 17:21:45.657 [35] [FixSender] (DEBUG) Receiving 8=FIX.4.4|9=62|35=0|34=181|49=DMA_HUB|56=FIXCLIENT1|52=20240729-15:21:45.657|10=050|
2024-07-29 17:22:00.382 [39] [FixSender] (DEBUG) Sending 8=FIX.4.4|9=58|35=0|49=FIXCLIENT1|56=DMA_HUB|34=138|52=20240729-15:22:00|10=097|
2024-07-29 17:22:15.610 [35] [FixSender] (DEBUG) Receiving 8=FIX.4.4|9=62|35=0|34=182|49=DMA_HUB|56=FIXCLIENT1|52=20240729-15:22:15.609|10=046|
2024-07-29 17:22:30.383 [39] [FixSender] (DEBUG) Sending 8=FIX.4.4|9=58|35=0|49=FIXCLIENT1|56=DMA_HUB|34=139|52=20240729-15:22:30|10=101|
2024-07-29 17:22:45.561 [35] [FixSender] (DEBUG) Receiving 8=FIX.4.4|9=62|35=0|34=183|49=DMA_HUB|56=FIXCLIENT1|52=20240729-15:22:45.561|10=047|
2024-07-29 17:23:00.383 [39] [FixSender] (DEBUG) Sending 8=FIX.4.4|9=58|35=0|49=FIXCLIENT1|56=DMA_HUB|34=140|52=20240729-15:23:00|10=091|
2024-07-29 17:23:15.514 [35] [FixSender] (DEBUG) Receiving 8=FIX.4.4|9=62|35=0|34=184|49=DMA_HUB|56=FIXCLIENT1|52=20240729-15:23:15.513|10=043|
2024-07-29 17:23:30.384 [39] [FixSender] (DEBUG) Sending 8=FIX.4.4|9=58|35=0|49=FIXCLIENT1|56=DMA_HUB|34=141|52=20240729-15:23:30|10=095|
2024-07-29 17:23:45.466 [35] [FixSender] (DEBUG) Receiving 8=FIX.4.4|9=62|35=0|34=185|49=DMA_HUB|56=FIXCLIENT1|52=20240729-15:23:45.466|10=054|
2024-07-29 17:24:00.384 [39] [FixSender] (DEBUG) Sending 8=FIX.4.4|9=58|35=0|49=FIXCLIENT1|56=DMA_HUB|34=142|52=20240729-15:24:00|10=094|
2024-07-29 17:24:15.418 [35] [FixSender] (DEBUG) Receiving 8=FIX.4.4|9=62|35=0|34=186|49=DMA_HUB|56=FIXCLIENT1|52=20240729-15:24:15.417|10=049|
2024-07-29 17:24:30.384 [39] [FixSender] (DEBUG) Sending 8=FIX.4.4|9=58|35=0|49=FIXCLIENT1|56=DMA_HUB|34=143|52=20240729-15:24:30|10=098|
2024-07-29 17:24:45.370 [35] [FixSender] (DEBUG) Receiving 8=FIX.4.4|9=62|35=0|34=187|49=DMA_HUB|56=FIXCLIENT1|52=20240729-15:24:45.369|10=059|
2024-07-29 17:25:00.384 [39] [FixSender] (DEBUG) Sending 8=FIX.4.4|9=58|35=0|49=FIXCLIENT1|56=DMA_HUB|34=144|52=20240729-15:25:00|10=097|
2024-07-29 17:25:15.322 [35] [FixSender] (DEBUG) Receiving 8=FIX.4.4|9=62|35=0|34=188|49=DMA_HUB|56=FIXCLIENT1|52=20240729-15:25:15.321|10=046|
2024-07-29 17:25:30.385 [39] [FixSender] (DEBUG) Sending 8=FIX.4.4|9=58|35=0|49=FIXCLIENT1|56=DMA_HUB|34=145|52=20240729-15:25:30|10=101|
2024-07-29 17:25:45.274 [35] [FixSender] (DEBUG) Receiving 8=FIX.4.4|9=62|35=0|34=189|49=DMA_HUB|56=FIXCLIENT1|52=20240729-15:25:45.274|10=057|
2024-07-29 17:26:00.386 [39] [FixSender] (DEBUG) Sending 8=FIX.4.4|9=58|35=0|49=FIXCLIENT1|56=DMA_HUB|34=146|52=20240729-15:26:00|10=100|
2024-07-29 17:26:15.226 [35] [FixSender] (DEBUG) Receiving 8=FIX.4.4|9=62|35=0|34=190|49=DMA_HUB|56=FIXCLIENT1|52=20240729-15:26:15.225|10=043|
2024-07-29 17:26:30.387 [39] [FixSender] (DEBUG) Sending 8=FIX.4.4|9=58|35=0|49=FIXCLIENT1|56=DMA_HUB|34=147|52=20240729-15:26:30|10=104|
2024-07-29 17:26:45.178 [35] [FixSender] (DEBUG) Receiving 8=FIX.4.4|9=62|35=0|34=191|49=DMA_HUB|56=FIXCLIENT1|52=20240729-15:26:45.177|10=053|
2024-07-29 17:27:00.387 [39] [FixSender] (DEBUG) Sending 8=FIX.4.4|9=58|35=0|49=FIXCLIENT1|56=DMA_HUB|34=148|52=20240729-15:27:00|10=103|
2024-07-29 17:27:15.129 [35] [FixSender] (DEBUG) Receiving 8=FIX.4.4|9=62|35=0|34=192|49=DMA_HUB|56=FIXCLIENT1|52=20240729-15:27:15.129|10=049|
2024-07-29 17:27:30.388 [39] [FixSender] (DEBUG) Sending 8=FIX.4.4|9=58|35=0|49=FIXCLIENT1|56=DMA_HUB|34=149|52=20240729-15:27:30|10=107|
2024-07-29 17:27:45.082 [35] [FixSender] (DEBUG) Receiving 8=FIX.4.4|9=62|35=0|34=193|49=DMA_HUB|56=FIXCLIENT1|52=20240729-15:27:45.081|10=050|
2024-07-29 17:28:00.388 [39] [FixSender] (DEBUG) Sending 8=FIX.4.4|9=58|35=0|49=FIXCLIENT1|56=DMA_HUB|34=150|52=20240729-15:28:00|10=097|
2024-07-29 17:28:15.034 [35] [FixSender] (DEBUG) Receiving 8=FIX.4.4|9=62|35=0|34=194|49=DMA_HUB|56=FIXCLIENT1|52=20240729-15:28:15.034|10=047|
2024-07-29 17:28:30.389 [39] [FixSender] (DEBUG) Sending 8=FIX.4.4|9=58|35=0|49=FIXCLIENT1|56=DMA_HUB|34=151|52=20240729-15:28:30|10=101|
2024-07-29 17:28:44.985 [35] [FixSender] (DEBUG) Receiving 8=FIX.4.4|9=62|35=0|34=195|49=DMA_HUB|56=FIXCLIENT1|52=20240729-15:28:44.985|10=065|
2024-07-29 17:29:00.389 [39] [FixSender] (DEBUG) Sending 8=FIX.4.4|9=58|35=0|49=FIXCLIENT1|56=DMA_HUB|34=152|52=20240729-15:29:00|10=100|
2024-07-29 17:29:14.938 [35] [FixSender] (DEBUG) Receiving 8=FIX.4.4|9=62|35=0|34=196|49=DMA_HUB|56=FIXCLIENT1|52=20240729-15:29:14.938|10=062|
2024-07-29 17:29:30.390 [39] [FixSender] (DEBUG) Sending 8=FIX.4.4|9=58|35=0|49=FIXCLIENT1|56=DMA_HUB|34=153|52=20240729-15:29:30|10=104|
2024-07-29 17:29:44.889 [35] [FixSender] (DEBUG) Receiving 8=FIX.4.4|9=62|35=0|34=197|49=DMA_HUB|56=FIXCLIENT1|52=20240729-15:29:44.889|10=071|
2024-07-29 17:30:00.390 [39] [FixSender] (DEBUG) Sending 8=FIX.4.4|9=58|35=0|49=FIXCLIENT1|56=DMA_HUB|34=154|52=20240729-15:30:00|10=094|
2024-07-29 17:30:14.842 [35] [FixSender] (DEBUG) Receiving 8=FIX.4.4|9=62|35=0|34=198|49=DMA_HUB|56=FIXCLIENT1|52=20240729-15:30:14.841|10=049|
2024-07-29 17:30:30.391 [39] [FixSender] (DEBUG) Sending 8=FIX.4.4|9=58|35=0|49=FIXCLIENT1|56=DMA_HUB|34=155|52=20240729-15:30:30|10=098|
2024-07-29 17:30:44.794 [35] [FixSender] (DEBUG) Receiving 8=FIX.4.4|9=62|35=0|34=199|49=DMA_HUB|56=FIXCLIENT1|52=20240729-15:30:44.794|10=060|
2024-07-29 17:31:00.392 [39] [FixSender] (DEBUG) Sending 8=FIX.4.4|9=58|35=0|49=FIXCLIENT1|56=DMA_HUB|34=156|52=20240729-15:31:00|10=097|
2024-07-29 17:31:14.746 [35] [FixSender] (DEBUG) Receiving 8=FIX.4.4|9=62|35=0|34=200|49=DMA_HUB|56=FIXCLIENT1|52=20240729-15:31:14.745|10=037|
2024-07-29 17:31:30.392 [39] [FixSender] (DEBUG) Sending 8=FIX.4.4|9=58|35=0|49=FIXCLIENT1|56=DMA_HUB|34=157|52=20240729-15:31:30|10=101|
2024-07-29 17:31:44.698 [35] [FixSender] (DEBUG) Receiving 8=FIX.4.4|9=62|35=0|34=201|49=DMA_HUB|56=FIXCLIENT1|52=20240729-15:31:44.697|10=047|
2024-07-29 17:32:00.392 [39] [FixSender] (DEBUG) Sending 8=FIX.4.4|9=58|35=0|49=FIXCLIENT1|56=DMA_HUB|34=158|52=20240729-15:32:00|10=100|
2024-07-29 17:32:14.649 [35] [FixSender] (DEBUG) Receiving 8=FIX.4.4|9=62|35=0|34=202|49=DMA_HUB|56=FIXCLIENT1|52=20240729-15:32:14.649|10=043|
2024-07-29 17:32:30.393 [39] [FixSender] (DEBUG) Sending 8=FIX.4.4|9=58|35=0|49=FIXCLIENT1|56=DMA_HUB|34=159|52=20240729-15:32:30|10=104|
2024-07-29 17:32:44.602 [35] [FixSender] (DEBUG) Receiving 8=FIX.4.4|9=62|35=0|34=203|49=DMA_HUB|56=FIXCLIENT1|52=20240729-15:32:44.601|10=035|
2024-07-29 17:33:00.393 [39] [FixSender] (DEBUG) Sending 8=FIX.4.4|9=58|35=0|49=FIXCLIENT1|56=DMA_HUB|34=160|52=20240729-15:33:00|10=094|
2024-07-29 17:33:14.554 [35] [FixSender] (DEBUG) Receiving 8=FIX.4.4|9=62|35=0|34=204|49=DMA_HUB|56=FIXCLIENT1|52=20240729-15:33:14.553|10=040|
2024-07-29 17:33:30.394 [39] [FixSender] (DEBUG) Sending 8=FIX.4.4|9=58|35=0|49=FIXCLIENT1|56=DMA_HUB|34=161|52=20240729-15:33:30|10=098|
2024-07-29 17:33:44.506 [35] [FixSender] (DEBUG) Receiving 8=FIX.4.4|9=62|35=0|34=205|49=DMA_HUB|56=FIXCLIENT1|52=20240729-15:33:44.506|10=042|
2024-07-29 17:34:00.394 [39] [FixSender] (DEBUG) Sending 8=FIX.4.4|9=58|35=0|49=FIXCLIENT1|56=DMA_HUB|34=162|52=20240729-15:34:00|10=097|
2024-07-29 17:34:14.457 [35] [FixSender] (DEBUG) Receiving 8=FIX.4.4|9=62|35=0|34=206|49=DMA_HUB|56=FIXCLIENT1|52=20240729-15:34:14.457|10=046|
2024-07-29 17:34:30.395 [39] [FixSender] (DEBUG) Sending 8=FIX.4.4|9=58|35=0|49=FIXCLIENT1|56=DMA_HUB|34=163|52=20240729-15:34:30|10=101|
2024-07-29 17:34:44.410 [35] [FixSender] (DEBUG) Receiving 8=FIX.4.4|9=62|35=0|34=207|49=DMA_HUB|56=FIXCLIENT1|52=20240729-15:34:44.410|10=039|
2024-07-29 17:35:00.395 [39] [FixSender] (DEBUG) Sending 8=FIX.4.4|9=58|35=0|49=FIXCLIENT1|56=DMA_HUB|34=164|52=20240729-15:35:00|10=100|
2024-07-29 17:35:14.362 [35] [FixSender] (DEBUG) Receiving 8=FIX.4.4|9=62|35=0|34=208|49=DMA_HUB|56=FIXCLIENT1|52=20240729-15:35:14.361|10=043|
2024-07-29 17:35:30.396 [39] [FixSender] (DEBUG) Sending 8=FIX.4.4|9=58|35=0|49=FIXCLIENT1|56=DMA_HUB|34=165|52=20240729-15:35:30|10=104|
2024-07-29 17:35:44.314 [35] [FixSender] (DEBUG) Receiving 8=FIX.4.4|9=62|35=0|34=209|49=DMA_HUB|56=FIXCLIENT1|52=20240729-15:35:44.314|10=045|
2024-07-29 17:36:00.396 [39] [FixSender] (DEBUG) Sending 8=FIX.4.4|9=58|35=0|49=FIXCLIENT1|56=DMA_HUB|34=166|52=20240729-15:36:00|10=103|
2024-07-29 17:36:14.265 [35] [FixSender] (DEBUG) Receiving 8=FIX.4.4|9=62|35=0|34=210|49=DMA_HUB|56=FIXCLIENT1|52=20240729-15:36:14.265|10=040|
2024-07-29 17:36:30.397 [39] [FixSender] (DEBUG) Sending 8=FIX.4.4|9=58|35=0|49=FIXCLIENT1|56=DMA_HUB|34=167|52=20240729-15:36:30|10=107|
2024-07-29 17:36:44.218 [35] [FixSender] (DEBUG) Receiving 8=FIX.4.4|9=62|35=0|34=211|49=DMA_HUB|56=FIXCLIENT1|52=20240729-15:36:44.217|10=041|
2024-07-29 17:37:00.398 [39] [FixSender] (DEBUG) Sending 8=FIX.4.4|9=58|35=0|49=FIXCLIENT1|56=DMA_HUB|34=168|52=20240729-15:37:00|10=106|
2024-07-29 17:37:14.169 [35] [FixSender] (DEBUG) Receiving 8=FIX.4.4|9=62|35=0|34=212|49=DMA_HUB|56=FIXCLIENT1|52=20240729-15:37:14.169|10=046|
2024-07-29 17:37:30.398 [39] [FixSender] (DEBUG) Sending 8=FIX.4.4|9=58|35=0|49=FIXCLIENT1|56=DMA_HUB|34=169|52=20240729-15:37:30|10=110|
2024-07-29 17:37:44.122 [35] [FixSender] (DEBUG) Receiving 8=FIX.4.4|9=62|35=0|34=213|49=DMA_HUB|56=FIXCLIENT1|52=20240729-15:37:44.121|10=038|
