2024-02-06 14:03:31.412 [1] [Fixsender] (INFO) (c) 2001-2011 ullink SAS. FixSender. Release 1.11.
2024-02-06 14:03:33.673 [29] [FixSender] (INFO) try to connect to : localhost port :12345
2024-02-06 14:03:33.714 [29] [FixSender] (INFO) physical cnx initiated
2024-02-06 14:03:33.737 [29] [FixSender] (DEBUG) Sending 8=FIX.4.4|9=88|35=A|49=FIXCLIENT1|56=DMA_HUB|34=688|52=20240206-13:03:33|98=0|108=30|95=9|96=null/null|10=200|
2024-02-06 14:03:33.746 [29] [FixSender] (DEBUG) Receiving 8=FIX.4.4|9=72|35=A|34=1|49=DMA_HUB|56=FIXCLIENT1|52=20240206-13:03:33.741|108=30|98=0|10=223|
2024-02-06 14:03:33.749 [29] [FixSender] (DEBUG) Sending 8=FIX.4.4|9=110|35=5|49=FIXCLIENT1|56=DMA_HUB|34=689|52=20240206-13:03:33|58=MsgSeqNum expected 702, but MsgSeqNum received 1|10=212|
2024-02-06 14:03:33.752 [29] [FixSender] (INFO) physical cnx finished Connection reset by peer
2024-02-06 14:03:33.754 [29] [FixSender] (WARNING) Disconnected
2024-02-06 14:03:34.790 [33] [FixSender] (INFO) try to connect to : localhost port :12345
2024-02-06 14:03:34.791 [33] [FixSender] (INFO) physical cnx initiated
2024-02-06 14:03:34.799 [33] [FixSender] (DEBUG) Sending 8=FIX.4.4|9=86|35=A|49=FIXCLIENT1|56=DMA_HUB|34=1|52=20240206-13:03:34|98=0|108=30|95=9|96=null/null|10=082|
2024-02-06 14:03:34.802 [33] [FixSender] (DEBUG) Receiving 8=FIX.4.4|9=72|35=A|34=4|49=DMA_HUB|56=FIXCLIENT1|52=20240206-13:03:34.801|108=30|98=0|10=224|
2024-02-06 14:03:34.803 [33] [FixSender] (WARNING) The Fix connection is open...
2024-02-06 14:03:34.812 [33] [FixSender] (DEBUG) Sending 8=FIX.4.4|9=65|35=2|49=FIXCLIENT1|56=DMA_HUB|34=2|52=20240206-13:03:34|7=1|16=0|10=108|
2024-02-06 14:03:34.816 [33] [FixSender] (DEBUG) Receiving 8=FIX.4.4|9=102|35=4|34=1|49=DMA_HUB|56=FIXCLIENT1|52=20240206-13:03:34.816|43=Y|122=20240206-13:03:34.815|36=5|123=Y|10=236|
2024-02-06 14:03:38.530 [36] [FixSender] (DEBUG) Sending 8=FIX.4.4|9=196|35=D|49=FIXCLIENT1|56=DMA_HUB|34=3|52=20240206-13:03:38|21=1|11=HS_17072246180|38=5000|55=E:07G@XETR|54=1|60=20240206-13:03:38|40=2|59=0|44=197.111|48=US3390411052|22=4|15=EUR|207=XETR|1=bram_123|10=016|
2024-02-06 14:03:38.539 [33] [FixSender] (DEBUG) Receiving 8=FIX.4.4|9=238|35=8|34=5|49=DMA_HUB|56=FIXCLIENT1|52=20240206-13:03:38.538|11=HS_17072246180|37=FXD4lQkkO|54=1|40=2|59=0|17=202402061|150=A|39=A|38=5000|151=5000|14=0|6=0|44=197.111|60=20240206-13:03:38.000|22=4|48=US3390411052|207=XETR|15=EUR|55=[N/A]|10=149|
2024-02-06 14:04:04.788 [33] [FixSender] (DEBUG) Receiving 8=FIX.4.4|9=60|35=0|34=6|49=DMA_HUB|56=FIXCLIENT1|52=20240206-13:04:04.787|10=192|
2024-02-06 14:04:08.531 [34] [FixSender] (DEBUG) Sending 8=FIX.4.4|9=56|35=0|49=FIXCLIENT1|56=DMA_HUB|34=4|52=20240206-13:04:08|10=243|
2024-02-06 14:04:34.738 [33] [FixSender] (DEBUG) Receiving 8=FIX.4.4|9=60|35=0|34=7|49=DMA_HUB|56=FIXCLIENT1|52=20240206-13:04:34.738|10=192|
2024-02-06 14:04:38.533 [34] [FixSender] (DEBUG) Sending 8=FIX.4.4|9=56|35=0|49=FIXCLIENT1|56=DMA_HUB|34=5|52=20240206-13:04:38|10=247|
2024-02-06 14:05:04.700 [33] [FixSender] (DEBUG) Receiving 8=FIX.4.4|9=60|35=0|34=8|49=DMA_HUB|56=FIXCLIENT1|52=20240206-13:05:04.691|10=189|
2024-02-06 14:05:08.546 [34] [FixSender] (DEBUG) Sending 8=FIX.4.4|9=56|35=0|49=FIXCLIENT1|56=DMA_HUB|34=6|52=20240206-13:05:08|10=246|
2024-02-06 14:05:34.644 [33] [FixSender] (DEBUG) Receiving 8=FIX.4.4|9=60|35=0|34=9|49=DMA_HUB|56=FIXCLIENT1|52=20240206-13:05:34.643|10=190|
2024-02-06 14:05:38.556 [34] [FixSender] (DEBUG) Sending 8=FIX.4.4|9=56|35=0|49=FIXCLIENT1|56=DMA_HUB|34=7|52=20240206-13:05:38|10=250|
2024-02-06 14:06:04.596 [33] [FixSender] (DEBUG) Receiving 8=FIX.4.4|9=61|35=0|34=10|49=DMA_HUB|56=FIXCLIENT1|52=20240206-13:06:04.595|10=235|
2024-02-06 14:06:08.557 [34] [FixSender] (DEBUG) Sending 8=FIX.4.4|9=56|35=0|49=FIXCLIENT1|56=DMA_HUB|34=8|52=20240206-13:06:08|10=249|
2024-02-06 14:06:34.611 [33] [FixSender] (DEBUG) Receiving 8=FIX.4.4|9=61|35=0|34=11|49=DMA_HUB|56=FIXCLIENT1|52=20240206-13:06:34.611|10=228|
2024-02-06 14:06:38.558 [34] [FixSender] (DEBUG) Sending 8=FIX.4.4|9=56|35=0|49=FIXCLIENT1|56=DMA_HUB|34=9|52=20240206-13:06:38|10=253|
2024-02-06 14:07:04.563 [33] [FixSender] (DEBUG) Receiving 8=FIX.4.4|9=61|35=0|34=12|49=DMA_HUB|56=FIXCLIENT1|52=20240206-13:07:04.562|10=232|
2024-02-06 14:07:08.559 [34] [FixSender] (DEBUG) Sending 8=FIX.4.4|9=57|35=0|49=FIXCLIENT1|56=DMA_HUB|34=10|52=20240206-13:07:08|10=036|
2024-02-06 14:07:34.514 [33] [FixSender] (DEBUG) Receiving 8=FIX.4.4|9=61|35=0|34=13|49=DMA_HUB|56=FIXCLIENT1|52=20240206-13:07:34.514|10=233|
2024-02-06 14:07:38.571 [34] [FixSender] (DEBUG) Sending 8=FIX.4.4|9=57|35=0|49=FIXCLIENT1|56=DMA_HUB|34=11|52=20240206-13:07:38|10=040|
2024-02-06 14:08:04.469 [33] [FixSender] (DEBUG) Receiving 8=FIX.4.4|9=61|35=0|34=14|49=DMA_HUB|56=FIXCLIENT1|52=20240206-13:08:04.467|10=239|
2024-02-06 14:08:08.573 [34] [FixSender] (DEBUG) Sending 8=FIX.4.4|9=57|35=0|49=FIXCLIENT1|56=DMA_HUB|34=12|52=20240206-13:08:08|10=039|
2024-02-06 14:08:34.419 [33] [FixSender] (DEBUG) Receiving 8=FIX.4.4|9=61|35=0|34=15|49=DMA_HUB|56=FIXCLIENT1|52=20240206-13:08:34.419|10=240|
2024-02-06 14:08:38.577 [34] [FixSender] (DEBUG) Sending 8=FIX.4.4|9=57|35=0|49=FIXCLIENT1|56=DMA_HUB|34=13|52=20240206-13:08:38|10=043|
2024-02-06 14:09:04.371 [33] [FixSender] (DEBUG) Receiving 8=FIX.4.4|9=61|35=0|34=16|49=DMA_HUB|56=FIXCLIENT1|52=20240206-13:09:04.370|10=235|
2024-02-06 14:09:08.579 [34] [FixSender] (DEBUG) Sending 8=FIX.4.4|9=57|35=0|49=FIXCLIENT1|56=DMA_HUB|34=14|52=20240206-13:09:08|10=042|
2024-02-06 14:09:34.325 [33] [FixSender] (DEBUG) Receiving 8=FIX.4.4|9=61|35=0|34=17|49=DMA_HUB|56=FIXCLIENT1|52=20240206-13:09:34.324|10=238|
2024-02-06 14:09:38.590 [34] [FixSender] (DEBUG) Sending 8=FIX.4.4|9=57|35=0|49=FIXCLIENT1|56=DMA_HUB|34=15|52=20240206-13:09:38|10=046|
2024-02-06 14:10:04.276 [33] [FixSender] (DEBUG) Receiving 8=FIX.4.4|9=61|35=0|34=18|49=DMA_HUB|56=FIXCLIENT1|52=20240206-13:10:04.275|10=233|
2024-02-06 14:10:08.593 [34] [FixSender] (DEBUG) Sending 8=FIX.4.4|9=57|35=0|49=FIXCLIENT1|56=DMA_HUB|34=16|52=20240206-13:10:08|10=036|
2024-02-06 14:10:34.228 [33] [FixSender] (DEBUG) Receiving 8=FIX.4.4|9=61|35=0|34=19|49=DMA_HUB|56=FIXCLIENT1|52=20240206-13:10:34.227|10=234|
2024-02-06 14:10:38.595 [34] [FixSender] (DEBUG) Sending 8=FIX.4.4|9=57|35=0|49=FIXCLIENT1|56=DMA_HUB|34=17|52=20240206-13:10:38|10=040|
2024-02-06 14:11:04.179 [33] [FixSender] (DEBUG) Receiving 8=FIX.4.4|9=61|35=0|34=20|49=DMA_HUB|56=FIXCLIENT1|52=20240206-13:11:04.179|10=230|
2024-02-06 14:11:08.597 [34] [FixSender] (DEBUG) Sending 8=FIX.4.4|9=57|35=0|49=FIXCLIENT1|56=DMA_HUB|34=18|52=20240206-13:11:08|10=039|
2024-02-06 14:11:34.131 [33] [FixSender] (DEBUG) Receiving 8=FIX.4.4|9=61|35=0|34=21|49=DMA_HUB|56=FIXCLIENT1|52=20240206-13:11:34.131|10=222|
2024-02-06 14:11:38.620 [34] [FixSender] (DEBUG) Sending 8=FIX.4.4|9=57|35=0|49=FIXCLIENT1|56=DMA_HUB|34=19|52=20240206-13:11:38|10=043|
2024-02-06 14:12:04.083 [33] [FixSender] (DEBUG) Receiving 8=FIX.4.4|9=61|35=0|34=22|49=DMA_HUB|56=FIXCLIENT1|52=20240206-13:12:04.083|10=227|
2024-02-06 14:12:08.631 [34] [FixSender] (DEBUG) Sending 8=FIX.4.4|9=57|35=0|49=FIXCLIENT1|56=DMA_HUB|34=20|52=20240206-13:12:08|10=033|
2024-02-06 14:12:34.036 [33] [FixSender] (DEBUG) Receiving 8=FIX.4.4|9=61|35=0|34=23|49=DMA_HUB|56=FIXCLIENT1|52=20240206-13:12:34.035|10=228|
2024-02-06 14:12:38.633 [34] [FixSender] (DEBUG) Sending 8=FIX.4.4|9=57|35=0|49=FIXCLIENT1|56=DMA_HUB|34=21|52=20240206-13:12:38|10=037|
2024-02-06 14:13:03.987 [33] [FixSender] (DEBUG) Receiving 8=FIX.4.4|9=61|35=0|34=24|49=DMA_HUB|56=FIXCLIENT1|52=20240206-13:13:03.987|10=242|
2024-02-06 14:13:08.634 [34] [FixSender] (DEBUG) Sending 8=FIX.4.4|9=57|35=0|49=FIXCLIENT1|56=DMA_HUB|34=22|52=20240206-13:13:08|10=036|
2024-02-06 14:13:33.939 [33] [FixSender] (DEBUG) Receiving 8=FIX.4.4|9=61|35=0|34=25|49=DMA_HUB|56=FIXCLIENT1|52=20240206-13:13:33.939|10=243|
2024-02-06 14:13:38.642 [34] [FixSender] (DEBUG) Sending 8=FIX.4.4|9=57|35=0|49=FIXCLIENT1|56=DMA_HUB|34=23|52=20240206-13:13:38|10=040|
2024-02-06 14:14:03.890 [33] [FixSender] (DEBUG) Receiving 8=FIX.4.4|9=61|35=0|34=26|49=DMA_HUB|56=FIXCLIENT1|52=20240206-13:14:03.890|10=238|
2024-02-06 14:14:08.657 [34] [FixSender] (DEBUG) Sending 8=FIX.4.4|9=57|35=0|49=FIXCLIENT1|56=DMA_HUB|34=24|52=20240206-13:14:08|10=039|
2024-02-06 14:14:33.843 [33] [FixSender] (DEBUG) Receiving 8=FIX.4.4|9=61|35=0|34=27|49=DMA_HUB|56=FIXCLIENT1|52=20240206-13:14:33.843|10=240|
2024-02-06 14:14:38.659 [34] [FixSender] (DEBUG) Sending 8=FIX.4.4|9=57|35=0|49=FIXCLIENT1|56=DMA_HUB|34=25|52=20240206-13:14:38|10=043|
2024-02-06 14:15:03.795 [33] [FixSender] (DEBUG) Receiving 8=FIX.4.4|9=61|35=0|34=28|49=DMA_HUB|56=FIXCLIENT1|52=20240206-13:15:03.795|10=245|
2024-02-06 14:15:08.661 [34] [FixSender] (DEBUG) Sending 8=FIX.4.4|9=57|35=0|49=FIXCLIENT1|56=DMA_HUB|34=26|52=20240206-13:15:08|10=042|
2024-02-06 14:15:33.747 [33] [FixSender] (DEBUG) Receiving 8=FIX.4.4|9=61|35=0|34=29|49=DMA_HUB|56=FIXCLIENT1|52=20240206-13:15:33.747|10=246|
2024-02-06 14:15:38.661 [34] [FixSender] (DEBUG) Sending 8=FIX.4.4|9=57|35=0|49=FIXCLIENT1|56=DMA_HUB|34=27|52=20240206-13:15:38|10=046|
2024-02-06 14:16:03.699 [33] [FixSender] (DEBUG) Receiving 8=FIX.4.4|9=61|35=0|34=30|49=DMA_HUB|56=FIXCLIENT1|52=20240206-13:16:03.699|10=242|
2024-02-06 14:16:08.664 [34] [FixSender] (DEBUG) Sending 8=FIX.4.4|9=57|35=0|49=FIXCLIENT1|56=DMA_HUB|34=28|52=20240206-13:16:08|10=045|
2024-02-06 14:16:33.651 [33] [FixSender] (DEBUG) Receiving 8=FIX.4.4|9=61|35=0|34=31|49=DMA_HUB|56=FIXCLIENT1|52=20240206-13:16:33.651|10=234|
2024-02-06 14:16:38.667 [34] [FixSender] (DEBUG) Sending 8=FIX.4.4|9=57|35=0|49=FIXCLIENT1|56=DMA_HUB|34=29|52=20240206-13:16:38|10=049|
2024-02-06 14:17:03.603 [33] [FixSender] (DEBUG) Receiving 8=FIX.4.4|9=61|35=0|34=32|49=DMA_HUB|56=FIXCLIENT1|52=20240206-13:17:03.602|10=229|
2024-02-06 14:17:08.668 [34] [FixSender] (DEBUG) Sending 8=FIX.4.4|9=57|35=0|49=FIXCLIENT1|56=DMA_HUB|34=30|52=20240206-13:17:08|10=039|
2024-02-06 14:17:33.555 [33] [FixSender] (DEBUG) Receiving 8=FIX.4.4|9=61|35=0|34=33|49=DMA_HUB|56=FIXCLIENT1|52=20240206-13:17:33.555|10=240|
2024-02-06 14:17:38.670 [34] [FixSender] (DEBUG) Sending 8=FIX.4.4|9=57|35=0|49=FIXCLIENT1|56=DMA_HUB|34=31|52=20240206-13:17:38|10=043|
2024-02-06 14:18:03.507 [33] [FixSender] (DEBUG) Receiving 8=FIX.4.4|9=61|35=0|34=34|49=DMA_HUB|56=FIXCLIENT1|52=20240206-13:18:03.507|10=236|
2024-02-06 14:18:08.671 [34] [FixSender] (DEBUG) Sending 8=FIX.4.4|9=57|35=0|49=FIXCLIENT1|56=DMA_HUB|34=32|52=20240206-13:18:08|10=042|
2024-02-06 14:18:33.461 [33] [FixSender] (DEBUG) Receiving 8=FIX.4.4|9=61|35=0|34=35|49=DMA_HUB|56=FIXCLIENT1|52=20240206-13:18:33.459|10=246|
2024-02-06 14:18:38.673 [34] [FixSender] (DEBUG) Sending 8=FIX.4.4|9=57|35=0|49=FIXCLIENT1|56=DMA_HUB|34=33|52=20240206-13:18:38|10=046|
2024-02-06 14:19:03.411 [33] [FixSender] (DEBUG) Receiving 8=FIX.4.4|9=61|35=0|34=36|49=DMA_HUB|56=FIXCLIENT1|52=20240206-13:19:03.410|10=232|
2024-02-06 14:19:08.675 [34] [FixSender] (DEBUG) Sending 8=FIX.4.4|9=57|35=0|49=FIXCLIENT1|56=DMA_HUB|34=34|52=20240206-13:19:08|10=045|
2024-02-06 14:19:33.363 [33] [FixSender] (DEBUG) Receiving 8=FIX.4.4|9=61|35=0|34=37|49=DMA_HUB|56=FIXCLIENT1|52=20240206-13:19:33.363|10=243|
2024-02-06 14:19:38.678 [34] [FixSender] (DEBUG) Sending 8=FIX.4.4|9=57|35=0|49=FIXCLIENT1|56=DMA_HUB|34=35|52=20240206-13:19:38|10=049|
2024-02-06 14:20:03.316 [33] [FixSender] (DEBUG) Receiving 8=FIX.4.4|9=61|35=0|34=38|49=DMA_HUB|56=FIXCLIENT1|52=20240206-13:20:03.315|10=230|
2024-02-06 14:20:08.682 [34] [FixSender] (DEBUG) Sending 8=FIX.4.4|9=57|35=0|49=FIXCLIENT1|56=DMA_HUB|34=36|52=20240206-13:20:08|10=039|
2024-02-06 14:20:33.267 [33] [FixSender] (DEBUG) Receiving 8=FIX.4.4|9=61|35=0|34=39|49=DMA_HUB|56=FIXCLIENT1|52=20240206-13:20:33.267|10=240|
2024-02-06 14:20:38.686 [34] [FixSender] (DEBUG) Sending 8=FIX.4.4|9=57|35=0|49=FIXCLIENT1|56=DMA_HUB|34=37|52=20240206-13:20:38|10=043|
2024-02-06 14:21:03.219 [33] [FixSender] (DEBUG) Receiving 8=FIX.4.4|9=61|35=0|34=40|49=DMA_HUB|56=FIXCLIENT1|52=20240206-13:21:03.219|10=227|
2024-02-06 14:21:08.687 [34] [FixSender] (DEBUG) Sending 8=FIX.4.4|9=57|35=0|49=FIXCLIENT1|56=DMA_HUB|34=38|52=20240206-13:21:08|10=042|
2024-02-06 14:21:33.171 [33] [FixSender] (DEBUG) Receiving 8=FIX.4.4|9=61|35=0|34=41|49=DMA_HUB|56=FIXCLIENT1|52=20240206-13:21:33.171|10=228|
2024-02-06 14:21:38.690 [34] [FixSender] (DEBUG) Sending 8=FIX.4.4|9=57|35=0|49=FIXCLIENT1|56=DMA_HUB|34=39|52=20240206-13:21:38|10=046|
2024-02-06 14:22:03.124 [33] [FixSender] (DEBUG) Receiving 8=FIX.4.4|9=61|35=0|34=42|49=DMA_HUB|56=FIXCLIENT1|52=20240206-13:22:03.123|10=224|
2024-02-06 14:22:08.706 [34] [FixSender] (DEBUG) Sending 8=FIX.4.4|9=57|35=0|49=FIXCLIENT1|56=DMA_HUB|34=40|52=20240206-13:22:08|10=036|
2024-02-06 14:22:33.074 [33] [FixSender] (DEBUG) Receiving 8=FIX.4.4|9=61|35=0|34=43|49=DMA_HUB|56=FIXCLIENT1|52=20240206-13:22:33.074|10=233|
2024-02-06 14:22:38.719 [34] [FixSender] (DEBUG) Sending 8=FIX.4.4|9=57|35=0|49=FIXCLIENT1|56=DMA_HUB|34=41|52=20240206-13:22:38|10=040|
2024-02-06 14:23:03.027 [33] [FixSender] (DEBUG) Receiving 8=FIX.4.4|9=61|35=0|34=44|49=DMA_HUB|56=FIXCLIENT1|52=20240206-13:23:03.027|10=230|
2024-02-06 14:23:08.723 [34] [FixSender] (DEBUG) Sending 8=FIX.4.4|9=57|35=0|49=FIXCLIENT1|56=DMA_HUB|34=42|52=20240206-13:23:08|10=039|
2024-02-06 14:23:32.979 [33] [FixSender] (DEBUG) Receiving 8=FIX.4.4|9=61|35=0|34=45|49=DMA_HUB|56=FIXCLIENT1|52=20240206-13:23:32.979|10=249|
2024-02-06 14:23:38.729 [34] [FixSender] (DEBUG) Sending 8=FIX.4.4|9=57|35=0|49=FIXCLIENT1|56=DMA_HUB|34=43|52=20240206-13:23:38|10=043|
2024-02-06 14:24:02.931 [33] [FixSender] (DEBUG) Receiving 8=FIX.4.4|9=61|35=0|34=46|49=DMA_HUB|56=FIXCLIENT1|52=20240206-13:24:02.931|10=236|
2024-02-06 14:24:08.729 [34] [FixSender] (DEBUG) Sending 8=FIX.4.4|9=57|35=0|49=FIXCLIENT1|56=DMA_HUB|34=44|52=20240206-13:24:08|10=042|
2024-02-06 14:24:32.883 [33] [FixSender] (DEBUG) Receiving 8=FIX.4.4|9=61|35=0|34=47|49=DMA_HUB|56=FIXCLIENT1|52=20240206-13:24:32.883|10=246|
2024-02-06 14:24:38.743 [34] [FixSender] (DEBUG) Sending 8=FIX.4.4|9=57|35=0|49=FIXCLIENT1|56=DMA_HUB|34=45|52=20240206-13:24:38|10=046|
2024-02-06 14:25:02.850 [33] [FixSender] (DEBUG) Receiving 8=FIX.4.4|9=61|35=0|34=48|49=DMA_HUB|56=FIXCLIENT1|52=20240206-13:25:02.835|10=242|
2024-02-06 14:25:08.750 [34] [FixSender] (DEBUG) Sending 8=FIX.4.4|9=57|35=0|49=FIXCLIENT1|56=DMA_HUB|34=46|52=20240206-13:25:08|10=045|
2024-02-06 14:25:32.787 [33] [FixSender] (DEBUG) Receiving 8=FIX.4.4|9=61|35=0|34=49|49=DMA_HUB|56=FIXCLIENT1|52=20240206-13:25:32.787|10=252|
2024-02-06 14:25:38.759 [34] [FixSender] (DEBUG) Sending 8=FIX.4.4|9=57|35=0|49=FIXCLIENT1|56=DMA_HUB|34=47|52=20240206-13:25:38|10=049|
2024-02-06 14:26:02.738 [33] [FixSender] (DEBUG) Receiving 8=FIX.4.4|9=61|35=0|34=50|49=DMA_HUB|56=FIXCLIENT1|52=20240206-13:26:02.738|10=238|
2024-02-06 14:26:08.762 [34] [FixSender] (DEBUG) Sending 8=FIX.4.4|9=57|35=0|49=FIXCLIENT1|56=DMA_HUB|34=48|52=20240206-13:26:08|10=048|
2024-02-06 14:26:32.691 [33] [FixSender] (DEBUG) Receiving 8=FIX.4.4|9=61|35=0|34=51|49=DMA_HUB|56=FIXCLIENT1|52=20240206-13:26:32.690|10=239|
2024-02-06 14:26:38.775 [34] [FixSender] (DEBUG) Sending 8=FIX.4.4|9=57|35=0|49=FIXCLIENT1|56=DMA_HUB|34=49|52=20240206-13:26:38|10=052|
2024-02-06 14:27:02.642 [33] [FixSender] (DEBUG) Receiving 8=FIX.4.4|9=61|35=0|34=52|49=DMA_HUB|56=FIXCLIENT1|52=20240206-13:27:02.642|10=235|
2024-02-06 14:27:08.783 [34] [FixSender] (DEBUG) Sending 8=FIX.4.4|9=57|35=0|49=FIXCLIENT1|56=DMA_HUB|34=50|52=20240206-13:27:08|10=042|
2024-02-06 14:27:32.595 [33] [FixSender] (DEBUG) Receiving 8=FIX.4.4|9=61|35=0|34=53|49=DMA_HUB|56=FIXCLIENT1|52=20240206-13:27:32.594|10=245|
2024-02-06 14:27:38.799 [34] [FixSender] (DEBUG) Sending 8=FIX.4.4|9=57|35=0|49=FIXCLIENT1|56=DMA_HUB|34=51|52=20240206-13:27:38|10=046|
2024-02-06 14:28:02.547 [33] [FixSender] (DEBUG) Receiving 8=FIX.4.4|9=61|35=0|34=54|49=DMA_HUB|56=FIXCLIENT1|52=20240206-13:28:02.547|10=242|
2024-02-06 14:28:08.806 [34] [FixSender] (DEBUG) Sending 8=FIX.4.4|9=57|35=0|49=FIXCLIENT1|56=DMA_HUB|34=52|52=20240206-13:28:08|10=045|
2024-02-06 14:28:32.500 [33] [FixSender] (DEBUG) Receiving 8=FIX.4.4|9=61|35=0|34=55|49=DMA_HUB|56=FIXCLIENT1|52=20240206-13:28:32.499|10=252|
2024-02-06 14:28:38.807 [34] [FixSender] (DEBUG) Sending 8=FIX.4.4|9=57|35=0|49=FIXCLIENT1|56=DMA_HUB|34=53|52=20240206-13:28:38|10=049|
2024-02-06 14:29:02.451 [33] [FixSender] (DEBUG) Receiving 8=FIX.4.4|9=61|35=0|34=56|49=DMA_HUB|56=FIXCLIENT1|52=20240206-13:29:02.451|10=239|
2024-02-06 14:29:08.822 [34] [FixSender] (DEBUG) Sending 8=FIX.4.4|9=57|35=0|49=FIXCLIENT1|56=DMA_HUB|34=54|52=20240206-13:29:08|10=048|
2024-02-06 14:29:32.402 [33] [FixSender] (DEBUG) Receiving 8=FIX.4.4|9=61|35=0|34=57|49=DMA_HUB|56=FIXCLIENT1|52=20240206-13:29:32.402|10=239|
2024-02-06 14:29:38.833 [34] [FixSender] (DEBUG) Sending 8=FIX.4.4|9=57|35=0|49=FIXCLIENT1|56=DMA_HUB|34=55|52=20240206-13:29:38|10=052|
2024-02-06 14:30:02.354 [33] [FixSender] (DEBUG) Receiving 8=FIX.4.4|9=61|35=0|34=58|49=DMA_HUB|56=FIXCLIENT1|52=20240206-13:30:02.354|10=235|
2024-02-06 14:30:08.835 [34] [FixSender] (DEBUG) Sending 8=FIX.4.4|9=57|35=0|49=FIXCLIENT1|56=DMA_HUB|34=56|52=20240206-13:30:08|10=042|
2024-02-06 14:30:32.307 [33] [FixSender] (DEBUG) Receiving 8=FIX.4.4|9=61|35=0|34=59|49=DMA_HUB|56=FIXCLIENT1|52=20240206-13:30:32.307|10=237|
2024-02-06 14:30:38.836 [34] [FixSender] (DEBUG) Sending 8=FIX.4.4|9=57|35=0|49=FIXCLIENT1|56=DMA_HUB|34=57|52=20240206-13:30:38|10=046|
2024-02-06 14:31:02.258 [33] [FixSender] (DEBUG) Receiving 8=FIX.4.4|9=61|35=0|34=60|49=DMA_HUB|56=FIXCLIENT1|52=20240206-13:31:02.258|10=232|
2024-02-06 14:31:08.849 [34] [FixSender] (DEBUG) Sending 8=FIX.4.4|9=57|35=0|49=FIXCLIENT1|56=DMA_HUB|34=58|52=20240206-13:31:08|10=045|
2024-02-06 14:31:32.211 [33] [FixSender] (DEBUG) Receiving 8=FIX.4.4|9=61|35=0|34=61|49=DMA_HUB|56=FIXCLIENT1|52=20240206-13:31:32.210|10=224|
2024-02-06 14:31:38.861 [34] [FixSender] (DEBUG) Sending 8=FIX.4.4|9=57|35=0|49=FIXCLIENT1|56=DMA_HUB|34=59|52=20240206-13:31:38|10=049|
2024-02-06 14:32:02.164 [33] [FixSender] (DEBUG) Receiving 8=FIX.4.4|9=61|35=0|34=62|49=DMA_HUB|56=FIXCLIENT1|52=20240206-13:32:02.163|10=230|
2024-02-06 14:32:08.875 [34] [FixSender] (DEBUG) Sending 8=FIX.4.4|9=57|35=0|49=FIXCLIENT1|56=DMA_HUB|34=60|52=20240206-13:32:08|10=039|
2024-02-06 14:32:32.115 [33] [FixSender] (DEBUG) Receiving 8=FIX.4.4|9=61|35=0|34=63|49=DMA_HUB|56=FIXCLIENT1|52=20240206-13:32:32.114|10=230|
2024-02-06 14:32:38.882 [34] [FixSender] (DEBUG) Sending 8=FIX.4.4|9=57|35=0|49=FIXCLIENT1|56=DMA_HUB|34=61|52=20240206-13:32:38|10=043|
2024-02-06 14:33:02.067 [33] [FixSender] (DEBUG) Receiving 8=FIX.4.4|9=61|35=0|34=64|49=DMA_HUB|56=FIXCLIENT1|52=20240206-13:33:02.067|10=236|
2024-02-06 14:33:08.885 [34] [FixSender] (DEBUG) Sending 8=FIX.4.4|9=57|35=0|49=FIXCLIENT1|56=DMA_HUB|34=62|52=20240206-13:33:08|10=042|
2024-02-06 14:33:32.020 [33] [FixSender] (DEBUG) Receiving 8=FIX.4.4|9=61|35=0|34=65|49=DMA_HUB|56=FIXCLIENT1|52=20240206-13:33:32.019|10=237|
2024-02-06 14:33:38.885 [34] [FixSender] (DEBUG) Sending 8=FIX.4.4|9=57|35=0|49=FIXCLIENT1|56=DMA_HUB|34=63|52=20240206-13:33:38|10=046|
2024-02-06 14:34:01.970 [33] [FixSender] (DEBUG) Receiving 8=FIX.4.4|9=61|35=0|34=66|49=DMA_HUB|56=FIXCLIENT1|52=20240206-13:34:01.970|10=241|
2024-02-06 14:34:08.887 [34] [FixSender] (DEBUG) Sending 8=FIX.4.4|9=57|35=0|49=FIXCLIENT1|56=DMA_HUB|34=64|52=20240206-13:34:08|10=045|
2024-02-06 14:34:31.923 [33] [FixSender] (DEBUG) Receiving 8=FIX.4.4|9=61|35=0|34=67|49=DMA_HUB|56=FIXCLIENT1|52=20240206-13:34:31.922|10=242|
2024-02-06 14:34:38.900 [34] [FixSender] (DEBUG) Sending 8=FIX.4.4|9=57|35=0|49=FIXCLIENT1|56=DMA_HUB|34=65|52=20240206-13:34:38|10=049|
2024-02-06 14:35:01.874 [33] [FixSender] (DEBUG) Receiving 8=FIX.4.4|9=61|35=0|34=68|49=DMA_HUB|56=FIXCLIENT1|52=20240206-13:35:01.874|10=247|
2024-02-06 14:35:08.904 [34] [FixSender] (DEBUG) Sending 8=FIX.4.4|9=57|35=0|49=FIXCLIENT1|56=DMA_HUB|34=66|52=20240206-13:35:08|10=048|
2024-02-06 14:35:31.828 [33] [FixSender] (DEBUG) Receiving 8=FIX.4.4|9=61|35=0|34=69|49=DMA_HUB|56=FIXCLIENT1|52=20240206-13:35:31.827|10=249|
2024-02-06 14:35:38.910 [34] [FixSender] (DEBUG) Sending 8=FIX.4.4|9=57|35=0|49=FIXCLIENT1|56=DMA_HUB|34=67|52=20240206-13:35:38|10=052|
2024-02-06 14:36:01.778 [33] [FixSender] (DEBUG) Receiving 8=FIX.4.4|9=61|35=0|34=70|49=DMA_HUB|56=FIXCLIENT1|52=20240206-13:36:01.778|10=244|
2024-02-06 14:36:08.920 [34] [FixSender] (DEBUG) Sending 8=FIX.4.4|9=57|35=0|49=FIXCLIENT1|56=DMA_HUB|34=68|52=20240206-13:36:08|10=051|
2024-02-06 14:36:31.730 [33] [FixSender] (DEBUG) Receiving 8=FIX.4.4|9=61|35=0|34=71|49=DMA_HUB|56=FIXCLIENT1|52=20240206-13:36:31.730|10=236|
2024-02-06 14:36:38.930 [34] [FixSender] (DEBUG) Sending 8=FIX.4.4|9=57|35=0|49=FIXCLIENT1|56=DMA_HUB|34=69|52=20240206-13:36:38|10=055|
2024-02-06 14:37:01.684 [33] [FixSender] (DEBUG) Receiving 8=FIX.4.4|9=61|35=0|34=72|49=DMA_HUB|56=FIXCLIENT1|52=20240206-13:37:01.683|10=242|
2024-02-06 14:37:08.934 [34] [FixSender] (DEBUG) Sending 8=FIX.4.4|9=57|35=0|49=FIXCLIENT1|56=DMA_HUB|34=70|52=20240206-13:37:08|10=045|
2024-02-06 14:37:31.635 [33] [FixSender] (DEBUG) Receiving 8=FIX.4.4|9=61|35=0|34=73|49=DMA_HUB|56=FIXCLIENT1|52=20240206-13:37:31.634|10=242|
2024-02-06 14:37:38.944 [34] [FixSender] (DEBUG) Sending 8=FIX.4.4|9=57|35=0|49=FIXCLIENT1|56=DMA_HUB|34=71|52=20240206-13:37:38|10=049|
2024-02-06 14:38:01.586 [33] [FixSender] (DEBUG) Receiving 8=FIX.4.4|9=61|35=0|34=74|49=DMA_HUB|56=FIXCLIENT1|52=20240206-13:38:01.586|10=247|
2024-02-06 14:38:08.957 [34] [FixSender] (DEBUG) Sending 8=FIX.4.4|9=57|35=0|49=FIXCLIENT1|56=DMA_HUB|34=72|52=20240206-13:38:08|10=048|
2024-02-06 14:38:31.540 [33] [FixSender] (DEBUG) Receiving 8=FIX.4.4|9=61|35=0|34=75|49=DMA_HUB|56=FIXCLIENT1|52=20240206-13:38:31.539|10=249|
2024-02-06 14:38:38.963 [34] [FixSender] (DEBUG) Sending 8=FIX.4.4|9=57|35=0|49=FIXCLIENT1|56=DMA_HUB|34=73|52=20240206-13:38:38|10=052|
2024-02-06 14:39:01.491 [33] [FixSender] (DEBUG) Receiving 8=FIX.4.4|9=61|35=0|34=76|49=DMA_HUB|56=FIXCLIENT1|52=20240206-13:39:01.491|10=245|
2024-02-06 14:39:08.975 [34] [FixSender] (DEBUG) Sending 8=FIX.4.4|9=57|35=0|49=FIXCLIENT1|56=DMA_HUB|34=74|52=20240206-13:39:08|10=051|
2024-02-06 14:39:31.444 [33] [FixSender] (DEBUG) Receiving 8=FIX.4.4|9=61|35=0|34=77|49=DMA_HUB|56=FIXCLIENT1|52=20240206-13:39:31.443|10=246|
2024-02-06 14:39:38.983 [34] [FixSender] (DEBUG) Sending 8=FIX.4.4|9=57|35=0|49=FIXCLIENT1|56=DMA_HUB|34=75|52=20240206-13:39:38|10=055|
2024-02-06 14:40:01.395 [33] [FixSender] (DEBUG) Receiving 8=FIX.4.4|9=61|35=0|34=78|49=DMA_HUB|56=FIXCLIENT1|52=20240206-13:40:01.395|10=242|
2024-02-06 14:40:08.986 [34] [FixSender] (DEBUG) Sending 8=FIX.4.4|9=57|35=0|49=FIXCLIENT1|56=DMA_HUB|34=76|52=20240206-13:40:08|10=045|
2024-02-06 14:40:31.347 [33] [FixSender] (DEBUG) Receiving 8=FIX.4.4|9=61|35=0|34=79|49=DMA_HUB|56=FIXCLIENT1|52=20240206-13:40:31.347|10=243|
2024-02-06 14:40:38.991 [34] [FixSender] (DEBUG) Sending 8=FIX.4.4|9=57|35=0|49=FIXCLIENT1|56=DMA_HUB|34=77|52=20240206-13:40:38|10=049|
2024-02-06 14:41:01.298 [33] [FixSender] (DEBUG) Receiving 8=FIX.4.4|9=61|35=0|34=80|49=DMA_HUB|56=FIXCLIENT1|52=20240206-13:41:01.298|10=238|
2024-02-06 14:41:09.000 [34] [FixSender] (DEBUG) Sending 8=FIX.4.4|9=57|35=0|49=FIXCLIENT1|56=DMA_HUB|34=78|52=20240206-13:41:09|10=049|
2024-02-06 14:41:31.251 [33] [FixSender] (DEBUG) Receiving 8=FIX.4.4|9=61|35=0|34=81|49=DMA_HUB|56=FIXCLIENT1|52=20240206-13:41:31.251|10=231|
2024-02-06 14:41:39.007 [34] [FixSender] (DEBUG) Sending 8=FIX.4.4|9=57|35=0|49=FIXCLIENT1|56=DMA_HUB|34=79|52=20240206-13:41:39|10=053|
2024-02-06 14:42:01.202 [33] [FixSender] (DEBUG) Receiving 8=FIX.4.4|9=61|35=0|34=82|49=DMA_HUB|56=FIXCLIENT1|52=20240206-13:42:01.202|10=226|
2024-02-06 14:42:09.013 [34] [FixSender] (DEBUG) Sending 8=FIX.4.4|9=57|35=0|49=FIXCLIENT1|56=DMA_HUB|34=80|52=20240206-13:42:09|10=043|
2024-02-06 14:42:31.154 [33] [FixSender] (DEBUG) Receiving 8=FIX.4.4|9=61|35=0|34=83|49=DMA_HUB|56=FIXCLIENT1|52=20240206-13:42:31.154|10=236|
2024-02-06 14:42:39.023 [34] [FixSender] (DEBUG) Sending 8=FIX.4.4|9=57|35=0|49=FIXCLIENT1|56=DMA_HUB|34=81|52=20240206-13:42:39|10=047|
2024-02-06 14:43:01.106 [33] [FixSender] (DEBUG) Receiving 8=FIX.4.4|9=61|35=0|34=84|49=DMA_HUB|56=FIXCLIENT1|52=20240206-13:43:01.106|10=232|
2024-02-06 14:43:09.032 [34] [FixSender] (DEBUG) Sending 8=FIX.4.4|9=57|35=0|49=FIXCLIENT1|56=DMA_HUB|34=82|52=20240206-13:43:09|10=046|
2024-02-06 14:43:31.060 [33] [FixSender] (DEBUG) Receiving 8=FIX.4.4|9=61|35=0|34=85|49=DMA_HUB|56=FIXCLIENT1|52=20240206-13:43:31.059|10=243|
2024-02-06 14:43:39.040 [34] [FixSender] (DEBUG) Sending 8=FIX.4.4|9=57|35=0|49=FIXCLIENT1|56=DMA_HUB|34=83|52=20240206-13:43:39|10=050|
2024-02-06 14:44:01.012 [33] [FixSender] (DEBUG) Receiving 8=FIX.4.4|9=61|35=0|34=86|49=DMA_HUB|56=FIXCLIENT1|52=20240206-13:44:01.011|10=230|
2024-02-06 14:44:09.046 [34] [FixSender] (DEBUG) Sending 8=FIX.4.4|9=57|35=0|49=FIXCLIENT1|56=DMA_HUB|34=84|52=20240206-13:44:09|10=049|
2024-02-06 14:44:31.169 [33] [FixSender] (DEBUG) Receiving 8=FIX.4.4|9=61|35=0|34=87|49=DMA_HUB|56=FIXCLIENT1|52=20240206-13:44:30.974|10=251|
2024-02-06 14:44:39.062 [34] [FixSender] (DEBUG) Sending 8=FIX.4.4|9=57|35=0|49=FIXCLIENT1|56=DMA_HUB|34=85|52=20240206-13:44:39|10=053|
2024-02-06 14:45:00.915 [33] [FixSender] (DEBUG) Receiving 8=FIX.4.4|9=61|35=0|34=88|49=DMA_HUB|56=FIXCLIENT1|52=20240206-13:45:00.915|10=245|
2024-02-06 14:45:09.062 [34] [FixSender] (DEBUG) Sending 8=FIX.4.4|9=57|35=0|49=FIXCLIENT1|56=DMA_HUB|34=86|52=20240206-13:45:09|10=052|
2024-02-06 14:45:30.866 [33] [FixSender] (DEBUG) Receiving 8=FIX.4.4|9=61|35=0|34=89|49=DMA_HUB|56=FIXCLIENT1|52=20240206-13:45:30.866|10=254|
2024-02-06 14:45:39.084 [34] [FixSender] (DEBUG) Sending 8=FIX.4.4|9=57|35=0|49=FIXCLIENT1|56=DMA_HUB|34=87|52=20240206-13:45:39|10=056|
2024-02-06 14:46:00.818 [33] [FixSender] (DEBUG) Receiving 8=FIX.4.4|9=61|35=0|34=90|49=DMA_HUB|56=FIXCLIENT1|52=20240206-13:46:00.818|10=241|
2024-02-06 14:46:09.085 [34] [FixSender] (DEBUG) Sending 8=FIX.4.4|9=57|35=0|49=FIXCLIENT1|56=DMA_HUB|34=88|52=20240206-13:46:09|10=055|
2024-02-06 14:46:30.772 [33] [FixSender] (DEBUG) Receiving 8=FIX.4.4|9=61|35=0|34=91|49=DMA_HUB|56=FIXCLIENT1|52=20240206-13:46:30.771|10=243|
2024-02-06 14:46:39.099 [34] [FixSender] (DEBUG) Sending 8=FIX.4.4|9=57|35=0|49=FIXCLIENT1|56=DMA_HUB|34=89|52=20240206-13:46:39|10=059|
2024-02-06 14:47:00.723 [33] [FixSender] (DEBUG) Receiving 8=FIX.4.4|9=61|35=0|34=92|49=DMA_HUB|56=FIXCLIENT1|52=20240206-13:47:00.723|10=239|
2024-02-06 14:47:09.104 [34] [FixSender] (DEBUG) Sending 8=FIX.4.4|9=57|35=0|49=FIXCLIENT1|56=DMA_HUB|34=90|52=20240206-13:47:09|10=049|
2024-02-06 14:47:30.675 [33] [FixSender] (DEBUG) Receiving 8=FIX.4.4|9=61|35=0|34=93|49=DMA_HUB|56=FIXCLIENT1|52=20240206-13:47:30.675|10=249|
2024-02-06 14:47:39.105 [34] [FixSender] (DEBUG) Sending 8=FIX.4.4|9=57|35=0|49=FIXCLIENT1|56=DMA_HUB|34=91|52=20240206-13:47:39|10=053|
2024-02-06 14:48:00.626 [33] [FixSender] (DEBUG) Receiving 8=FIX.4.4|9=61|35=0|34=94|49=DMA_HUB|56=FIXCLIENT1|52=20240206-13:48:00.626|10=244|
2024-02-06 14:48:09.120 [34] [FixSender] (DEBUG) Sending 8=FIX.4.4|9=57|35=0|49=FIXCLIENT1|56=DMA_HUB|34=92|52=20240206-13:48:09|10=052|
2024-02-06 14:48:30.579 [33] [FixSender] (DEBUG) Receiving 8=FIX.4.4|9=61|35=0|34=95|49=DMA_HUB|56=FIXCLIENT1|52=20240206-13:48:30.579|10=255|
2024-02-06 14:48:39.128 [34] [FixSender] (DEBUG) Sending 8=FIX.4.4|9=57|35=0|49=FIXCLIENT1|56=DMA_HUB|34=93|52=20240206-13:48:39|10=056|
2024-02-06 14:49:00.531 [33] [FixSender] (DEBUG) Receiving 8=FIX.4.4|9=61|35=0|34=96|49=DMA_HUB|56=FIXCLIENT1|52=20240206-13:49:00.531|10=242|
2024-02-06 14:49:09.136 [34] [FixSender] (DEBUG) Sending 8=FIX.4.4|9=57|35=0|49=FIXCLIENT1|56=DMA_HUB|34=94|52=20240206-13:49:09|10=055|
2024-02-06 14:49:30.484 [33] [FixSender] (DEBUG) Receiving 8=FIX.4.4|9=61|35=0|34=97|49=DMA_HUB|56=FIXCLIENT1|52=20240206-13:49:30.483|10=252|
2024-02-06 14:49:39.138 [34] [FixSender] (DEBUG) Sending 8=FIX.4.4|9=57|35=0|49=FIXCLIENT1|56=DMA_HUB|34=95|52=20240206-13:49:39|10=059|
2024-02-06 14:50:00.435 [33] [FixSender] (DEBUG) Receiving 8=FIX.4.4|9=61|35=0|34=98|49=DMA_HUB|56=FIXCLIENT1|52=20240206-13:50:00.435|10=239|
2024-02-06 14:50:09.148 [34] [FixSender] (DEBUG) Sending 8=FIX.4.4|9=57|35=0|49=FIXCLIENT1|56=DMA_HUB|34=96|52=20240206-13:50:09|10=049|
2024-02-06 14:50:30.387 [33] [FixSender] (DEBUG) Receiving 8=FIX.4.4|9=61|35=0|34=99|49=DMA_HUB|56=FIXCLIENT1|52=20240206-13:50:30.386|10=248|
2024-02-06 14:50:39.148 [34] [FixSender] (DEBUG) Sending 8=FIX.4.4|9=57|35=0|49=FIXCLIENT1|56=DMA_HUB|34=97|52=20240206-13:50:39|10=053|
2024-02-06 14:51:00.339 [33] [FixSender] (DEBUG) Receiving 8=FIX.4.4|9=62|35=0|34=100|49=DMA_HUB|56=FIXCLIENT1|52=20240206-13:51:00.338|10=019|
2024-02-06 14:51:09.154 [34] [FixSender] (DEBUG) Sending 8=FIX.4.4|9=57|35=0|49=FIXCLIENT1|56=DMA_HUB|34=98|52=20240206-13:51:09|10=052|
2024-02-06 14:51:30.290 [33] [FixSender] (DEBUG) Receiving 8=FIX.4.4|9=62|35=0|34=101|49=DMA_HUB|56=FIXCLIENT1|52=20240206-13:51:30.290|10=020|
2024-02-06 14:51:39.170 [34] [FixSender] (DEBUG) Sending 8=FIX.4.4|9=57|35=0|49=FIXCLIENT1|56=DMA_HUB|34=99|52=20240206-13:51:39|10=056|
2024-02-06 14:52:00.243 [33] [FixSender] (DEBUG) Receiving 8=FIX.4.4|9=62|35=0|34=102|49=DMA_HUB|56=FIXCLIENT1|52=20240206-13:52:00.243|10=017|
2024-02-06 14:52:09.174 [34] [FixSender] (DEBUG) Sending 8=FIX.4.4|9=58|35=0|49=FIXCLIENT1|56=DMA_HUB|34=100|52=20240206-13:52:09|10=086|
2024-02-06 14:52:30.195 [33] [FixSender] (DEBUG) Receiving 8=FIX.4.4|9=62|35=0|34=103|49=DMA_HUB|56=FIXCLIENT1|52=20240206-13:52:30.195|10=027|
2024-02-06 14:52:39.182 [34] [FixSender] (DEBUG) Sending 8=FIX.4.4|9=58|35=0|49=FIXCLIENT1|56=DMA_HUB|34=101|52=20240206-13:52:39|10=090|
2024-02-06 14:53:00.146 [33] [FixSender] (DEBUG) Receiving 8=FIX.4.4|9=62|35=0|34=104|49=DMA_HUB|56=FIXCLIENT1|52=20240206-13:53:00.146|10=022|
2024-02-06 14:53:09.193 [34] [FixSender] (DEBUG) Sending 8=FIX.4.4|9=58|35=0|49=FIXCLIENT1|56=DMA_HUB|34=102|52=20240206-13:53:09|10=089|
2024-02-06 14:53:30.099 [33] [FixSender] (DEBUG) Receiving 8=FIX.4.4|9=62|35=0|34=105|49=DMA_HUB|56=FIXCLIENT1|52=20240206-13:53:30.099|10=033|
2024-02-06 14:53:39.205 [34] [FixSender] (DEBUG) Sending 8=FIX.4.4|9=58|35=0|49=FIXCLIENT1|56=DMA_HUB|34=103|52=20240206-13:53:39|10=093|
2024-02-06 14:54:00.051 [33] [FixSender] (DEBUG) Receiving 8=FIX.4.4|9=62|35=0|34=106|49=DMA_HUB|56=FIXCLIENT1|52=20240206-13:54:00.051|10=020|
2024-02-06 14:54:09.214 [34] [FixSender] (DEBUG) Sending 8=FIX.4.4|9=58|35=0|49=FIXCLIENT1|56=DMA_HUB|34=104|52=20240206-13:54:09|10=092|
2024-02-06 14:54:30.002 [33] [FixSender] (DEBUG) Receiving 8=FIX.4.4|9=62|35=0|34=107|49=DMA_HUB|56=FIXCLIENT1|52=20240206-13:54:30.002|10=020|
2024-02-06 14:54:39.222 [34] [FixSender] (DEBUG) Sending 8=FIX.4.4|9=58|35=0|49=FIXCLIENT1|56=DMA_HUB|34=105|52=20240206-13:54:39|10=096|
2024-02-06 14:54:59.954 [33] [FixSender] (DEBUG) Receiving 8=FIX.4.4|9=62|35=0|34=108|49=DMA_HUB|56=FIXCLIENT1|52=20240206-13:54:59.954|10=048|
2024-02-06 14:55:09.231 [34] [FixSender] (DEBUG) Sending 8=FIX.4.4|9=58|35=0|49=FIXCLIENT1|56=DMA_HUB|34=106|52=20240206-13:55:09|10=095|
2024-02-06 14:55:29.906 [33] [FixSender] (DEBUG) Receiving 8=FIX.4.4|9=62|35=0|34=109|49=DMA_HUB|56=FIXCLIENT1|52=20240206-13:55:29.906|10=044|
2024-02-06 14:55:39.233 [34] [FixSender] (DEBUG) Sending 8=FIX.4.4|9=58|35=0|49=FIXCLIENT1|56=DMA_HUB|34=107|52=20240206-13:55:39|10=099|
2024-02-06 14:55:59.859 [33] [FixSender] (DEBUG) Receiving 8=FIX.4.4|9=62|35=0|34=110|49=DMA_HUB|56=FIXCLIENT1|52=20240206-13:55:59.859|10=046|
2024-02-06 14:56:09.239 [34] [FixSender] (DEBUG) Sending 8=FIX.4.4|9=58|35=0|49=FIXCLIENT1|56=DMA_HUB|34=108|52=20240206-13:56:09|10=098|
2024-02-06 14:56:29.811 [33] [FixSender] (DEBUG) Receiving 8=FIX.4.4|9=62|35=0|34=111|49=DMA_HUB|56=FIXCLIENT1|52=20240206-13:56:29.810|10=032|
2024-02-06 14:56:39.253 [34] [FixSender] (DEBUG) Sending 8=FIX.4.4|9=58|35=0|49=FIXCLIENT1|56=DMA_HUB|34=109|52=20240206-13:56:39|10=102|
2024-02-06 14:56:59.764 [33] [FixSender] (DEBUG) Receiving 8=FIX.4.4|9=62|35=0|34=112|49=DMA_HUB|56=FIXCLIENT1|52=20240206-13:56:59.763|10=043|
2024-02-06 14:57:09.262 [34] [FixSender] (DEBUG) Sending 8=FIX.4.4|9=58|35=0|49=FIXCLIENT1|56=DMA_HUB|34=110|52=20240206-13:57:09|10=092|
2024-02-06 14:57:29.714 [33] [FixSender] (DEBUG) Receiving 8=FIX.4.4|9=62|35=0|34=113|49=DMA_HUB|56=FIXCLIENT1|52=20240206-13:57:29.714|10=038|
2024-02-06 14:57:39.264 [34] [FixSender] (DEBUG) Sending 8=FIX.4.4|9=58|35=0|49=FIXCLIENT1|56=DMA_HUB|34=111|52=20240206-13:57:39|10=096|
2024-02-06 14:57:59.667 [33] [FixSender] (DEBUG) Receiving 8=FIX.4.4|9=62|35=0|34=114|49=DMA_HUB|56=FIXCLIENT1|52=20240206-13:57:59.667|10=049|
2024-02-06 14:58:09.280 [34] [FixSender] (DEBUG) Sending 8=FIX.4.4|9=58|35=0|49=FIXCLIENT1|56=DMA_HUB|34=112|52=20240206-13:58:09|10=095|
2024-02-06 14:58:29.619 [33] [FixSender] (DEBUG) Receiving 8=FIX.4.4|9=62|35=0|34=115|49=DMA_HUB|56=FIXCLIENT1|52=20240206-13:58:29.619|10=045|
2024-02-06 14:58:39.282 [34] [FixSender] (DEBUG) Sending 8=FIX.4.4|9=58|35=0|49=FIXCLIENT1|56=DMA_HUB|34=113|52=20240206-13:58:39|10=099|
2024-02-06 14:58:59.571 [33] [FixSender] (DEBUG) Receiving 8=FIX.4.4|9=62|35=0|34=116|49=DMA_HUB|56=FIXCLIENT1|52=20240206-13:58:59.571|10=046|
2024-02-06 14:59:09.297 [34] [FixSender] (DEBUG) Sending 8=FIX.4.4|9=58|35=0|49=FIXCLIENT1|56=DMA_HUB|34=114|52=20240206-13:59:09|10=098|
2024-02-06 14:59:29.523 [33] [FixSender] (DEBUG) Receiving 8=FIX.4.4|9=62|35=0|34=117|49=DMA_HUB|56=FIXCLIENT1|52=20240206-13:59:29.523|10=042|
2024-02-06 14:59:39.299 [34] [FixSender] (DEBUG) Sending 8=FIX.4.4|9=58|35=0|49=FIXCLIENT1|56=DMA_HUB|34=115|52=20240206-13:59:39|10=102|
2024-02-06 14:59:59.475 [33] [FixSender] (DEBUG) Receiving 8=FIX.4.4|9=62|35=0|34=118|49=DMA_HUB|56=FIXCLIENT1|52=20240206-13:59:59.475|10=052|
2024-02-06 15:00:09.309 [34] [FixSender] (DEBUG) Sending 8=FIX.4.4|9=58|35=0|49=FIXCLIENT1|56=DMA_HUB|34=116|52=20240206-14:00:09|10=087|
2024-02-06 15:00:29.426 [33] [FixSender] (DEBUG) Receiving 8=FIX.4.4|9=62|35=0|34=119|49=DMA_HUB|56=FIXCLIENT1|52=20240206-14:00:29.426|10=033|
2024-02-06 15:00:39.319 [34] [FixSender] (DEBUG) Sending 8=FIX.4.4|9=58|35=0|49=FIXCLIENT1|56=DMA_HUB|34=117|52=20240206-14:00:39|10=091|
2024-02-06 15:00:59.379 [33] [FixSender] (DEBUG) Receiving 8=FIX.4.4|9=62|35=0|34=120|49=DMA_HUB|56=FIXCLIENT1|52=20240206-14:00:59.379|10=035|
2024-02-06 15:01:09.328 [34] [FixSender] (DEBUG) Sending 8=FIX.4.4|9=58|35=0|49=FIXCLIENT1|56=DMA_HUB|34=118|52=20240206-14:01:09|10=090|
2024-02-06 15:01:29.331 [33] [FixSender] (DEBUG) Receiving 8=FIX.4.4|9=62|35=0|34=121|49=DMA_HUB|56=FIXCLIENT1|52=20240206-14:01:29.331|10=022|
2024-02-06 15:01:39.329 [34] [FixSender] (DEBUG) Sending 8=FIX.4.4|9=58|35=0|49=FIXCLIENT1|56=DMA_HUB|34=119|52=20240206-14:01:39|10=094|
2024-02-06 15:01:59.283 [33] [FixSender] (DEBUG) Receiving 8=FIX.4.4|9=62|35=0|34=122|49=DMA_HUB|56=FIXCLIENT1|52=20240206-14:01:59.283|10=032|
2024-02-06 15:02:09.331 [34] [FixSender] (DEBUG) Sending 8=FIX.4.4|9=58|35=0|49=FIXCLIENT1|56=DMA_HUB|34=120|52=20240206-14:02:09|10=084|
2024-02-06 15:02:29.235 [33] [FixSender] (DEBUG) Receiving 8=FIX.4.4|9=62|35=0|34=123|49=DMA_HUB|56=FIXCLIENT1|52=20240206-14:02:29.235|10=028|
2024-02-06 15:02:39.342 [34] [FixSender] (DEBUG) Sending 8=FIX.4.4|9=58|35=0|49=FIXCLIENT1|56=DMA_HUB|34=121|52=20240206-14:02:39|10=088|
2024-02-06 15:02:59.187 [33] [FixSender] (DEBUG) Receiving 8=FIX.4.4|9=62|35=0|34=124|49=DMA_HUB|56=FIXCLIENT1|52=20240206-14:02:59.187|10=038|
2024-02-06 15:03:09.354 [34] [FixSender] (DEBUG) Sending 8=FIX.4.4|9=58|35=0|49=FIXCLIENT1|56=DMA_HUB|34=122|52=20240206-14:03:09|10=087|
2024-02-06 15:03:29.139 [33] [FixSender] (DEBUG) Receiving 8=FIX.4.4|9=62|35=0|34=125|49=DMA_HUB|56=FIXCLIENT1|52=20240206-14:03:29.139|10=034|
2024-02-06 15:03:39.363 [34] [FixSender] (DEBUG) Sending 8=FIX.4.4|9=58|35=0|49=FIXCLIENT1|56=DMA_HUB|34=123|52=20240206-14:03:39|10=091|
2024-02-06 15:03:59.090 [33] [FixSender] (DEBUG) Receiving 8=FIX.4.4|9=62|35=0|34=126|49=DMA_HUB|56=FIXCLIENT1|52=20240206-14:03:59.090|10=034|
2024-02-06 15:04:09.372 [34] [FixSender] (DEBUG) Sending 8=FIX.4.4|9=58|35=0|49=FIXCLIENT1|56=DMA_HUB|34=124|52=20240206-14:04:09|10=090|
2024-02-06 15:04:29.043 [33] [FixSender] (DEBUG) Receiving 8=FIX.4.4|9=62|35=0|34=127|49=DMA_HUB|56=FIXCLIENT1|52=20240206-14:04:29.043|10=031|
2024-02-06 15:04:39.374 [34] [FixSender] (DEBUG) Sending 8=FIX.4.4|9=58|35=0|49=FIXCLIENT1|56=DMA_HUB|34=125|52=20240206-14:04:39|10=094|
2024-02-06 15:04:58.995 [33] [FixSender] (DEBUG) Receiving 8=FIX.4.4|9=62|35=0|34=128|49=DMA_HUB|56=FIXCLIENT1|52=20240206-14:04:58.995|10=050|
2024-02-06 15:05:09.379 [34] [FixSender] (DEBUG) Sending 8=FIX.4.4|9=58|35=0|49=FIXCLIENT1|56=DMA_HUB|34=126|52=20240206-14:05:09|10=093|
2024-02-06 15:05:28.947 [33] [FixSender] (DEBUG) Receiving 8=FIX.4.4|9=62|35=0|34=129|49=DMA_HUB|56=FIXCLIENT1|52=20240206-14:05:28.947|10=046|
2024-02-06 15:05:39.382 [34] [FixSender] (DEBUG) Sending 8=FIX.4.4|9=58|35=0|49=FIXCLIENT1|56=DMA_HUB|34=127|52=20240206-14:05:39|10=097|
2024-02-06 15:05:58.904 [33] [FixSender] (DEBUG) Receiving 8=FIX.4.4|9=62|35=0|34=130|49=DMA_HUB|56=FIXCLIENT1|52=20240206-14:05:58.898|10=046|
2024-02-06 15:06:09.385 [34] [FixSender] (DEBUG) Sending 8=FIX.4.4|9=58|35=0|49=FIXCLIENT1|56=DMA_HUB|34=128|52=20240206-14:06:09|10=096|
2024-02-06 15:06:28.850 [33] [FixSender] (DEBUG) Receiving 8=FIX.4.4|9=62|35=0|34=131|49=DMA_HUB|56=FIXCLIENT1|52=20240206-14:06:28.850|10=033|
2024-02-06 15:06:39.394 [34] [FixSender] (DEBUG) Sending 8=FIX.4.4|9=58|35=0|49=FIXCLIENT1|56=DMA_HUB|34=129|52=20240206-14:06:39|10=100|
2024-02-06 15:06:58.804 [33] [FixSender] (DEBUG) Receiving 8=FIX.4.4|9=62|35=0|34=132|49=DMA_HUB|56=FIXCLIENT1|52=20240206-14:06:58.803|10=035|
2024-02-06 15:07:09.402 [34] [FixSender] (DEBUG) Sending 8=FIX.4.4|9=58|35=0|49=FIXCLIENT1|56=DMA_HUB|34=130|52=20240206-14:07:09|10=090|
2024-02-06 15:07:28.754 [33] [FixSender] (DEBUG) Receiving 8=FIX.4.4|9=62|35=0|34=133|49=DMA_HUB|56=FIXCLIENT1|52=20240206-14:07:28.754|10=039|
2024-02-06 15:07:39.412 [34] [FixSender] (DEBUG) Sending 8=FIX.4.4|9=58|35=0|49=FIXCLIENT1|56=DMA_HUB|34=131|52=20240206-14:07:39|10=094|
2024-02-06 15:07:58.706 [33] [FixSender] (DEBUG) Receiving 8=FIX.4.4|9=62|35=0|34=134|49=DMA_HUB|56=FIXCLIENT1|52=20240206-14:07:58.706|10=040|
2024-02-06 15:08:09.414 [34] [FixSender] (DEBUG) Sending 8=FIX.4.4|9=58|35=0|49=FIXCLIENT1|56=DMA_HUB|34=132|52=20240206-14:08:09|10=093|
2024-02-06 15:08:28.659 [33] [FixSender] (DEBUG) Receiving 8=FIX.4.4|9=62|35=0|34=135|49=DMA_HUB|56=FIXCLIENT1|52=20240206-14:08:28.659|10=046|
2024-02-06 15:08:39.420 [34] [FixSender] (DEBUG) Sending 8=FIX.4.4|9=58|35=0|49=FIXCLIENT1|56=DMA_HUB|34=133|52=20240206-14:08:39|10=097|
2024-02-06 15:08:58.610 [33] [FixSender] (DEBUG) Receiving 8=FIX.4.4|9=62|35=0|34=136|49=DMA_HUB|56=FIXCLIENT1|52=20240206-14:08:58.610|10=037|
2024-02-06 15:09:09.428 [34] [FixSender] (DEBUG) Sending 8=FIX.4.4|9=58|35=0|49=FIXCLIENT1|56=DMA_HUB|34=134|52=20240206-14:09:09|10=096|
2024-02-06 15:09:28.563 [33] [FixSender] (DEBUG) Receiving 8=FIX.4.4|9=62|35=0|34=137|49=DMA_HUB|56=FIXCLIENT1|52=20240206-14:09:28.563|10=043|
2024-02-06 15:09:39.429 [34] [FixSender] (DEBUG) Sending 8=FIX.4.4|9=58|35=0|49=FIXCLIENT1|56=DMA_HUB|34=135|52=20240206-14:09:39|10=100|
2024-02-06 15:09:58.624 [33] [FixSender] (DEBUG) Receiving 8=FIX.4.4|9=62|35=0|34=138|49=DMA_HUB|56=FIXCLIENT1|52=20240206-14:09:58.623|10=044|
2024-02-06 15:10:09.433 [34] [FixSender] (DEBUG) Sending 8=FIX.4.4|9=58|35=0|49=FIXCLIENT1|56=DMA_HUB|34=136|52=20240206-14:10:09|10=090|
2024-02-06 15:10:28.594 [33] [FixSender] (DEBUG) Receiving 8=FIX.4.4|9=62|35=0|34=139|49=DMA_HUB|56=FIXCLIENT1|52=20240206-14:10:28.594|10=041|
2024-02-06 15:10:39.439 [34] [FixSender] (DEBUG) Sending 8=FIX.4.4|9=58|35=0|49=FIXCLIENT1|56=DMA_HUB|34=137|52=20240206-14:10:39|10=094|
2024-02-06 15:10:58.546 [33] [FixSender] (DEBUG) Receiving 8=FIX.4.4|9=62|35=0|34=140|49=DMA_HUB|56=FIXCLIENT1|52=20240206-14:10:58.546|10=033|
2024-02-06 15:11:09.448 [34] [FixSender] (DEBUG) Sending 8=FIX.4.4|9=58|35=0|49=FIXCLIENT1|56=DMA_HUB|34=138|52=20240206-14:11:09|10=093|
2024-02-06 15:11:28.498 [33] [FixSender] (DEBUG) Receiving 8=FIX.4.4|9=62|35=0|34=141|49=DMA_HUB|56=FIXCLIENT1|52=20240206-14:11:28.498|10=038|
2024-02-06 15:11:39.464 [34] [FixSender] (DEBUG) Sending 8=FIX.4.4|9=58|35=0|49=FIXCLIENT1|56=DMA_HUB|34=139|52=20240206-14:11:39|10=097|
2024-02-06 15:11:58.451 [33] [FixSender] (DEBUG) Receiving 8=FIX.4.4|9=62|35=0|34=142|49=DMA_HUB|56=FIXCLIENT1|52=20240206-14:11:58.451|10=031|
2024-02-06 15:12:09.468 [34] [FixSender] (DEBUG) Sending 8=FIX.4.4|9=58|35=0|49=FIXCLIENT1|56=DMA_HUB|34=140|52=20240206-14:12:09|10=087|
2024-02-06 15:12:28.403 [33] [FixSender] (DEBUG) Receiving 8=FIX.4.4|9=62|35=0|34=143|49=DMA_HUB|56=FIXCLIENT1|52=20240206-14:12:28.402|10=026|
2024-02-06 15:12:39.473 [34] [FixSender] (DEBUG) Sending 8=FIX.4.4|9=58|35=0|49=FIXCLIENT1|56=DMA_HUB|34=141|52=20240206-14:12:39|10=091|
2024-02-06 15:12:58.356 [33] [FixSender] (DEBUG) Receiving 8=FIX.4.4|9=62|35=0|34=144|49=DMA_HUB|56=FIXCLIENT1|52=20240206-14:12:58.355|10=037|
2024-02-06 15:13:09.475 [34] [FixSender] (DEBUG) Sending 8=FIX.4.4|9=58|35=0|49=FIXCLIENT1|56=DMA_HUB|34=142|52=20240206-14:13:09|10=090|
2024-02-06 15:13:28.306 [33] [FixSender] (DEBUG) Receiving 8=FIX.4.4|9=62|35=0|34=145|49=DMA_HUB|56=FIXCLIENT1|52=20240206-14:13:28.306|10=032|
2024-02-06 15:13:39.480 [34] [FixSender] (DEBUG) Sending 8=FIX.4.4|9=58|35=0|49=FIXCLIENT1|56=DMA_HUB|34=143|52=20240206-14:13:39|10=094|
2024-02-06 15:13:58.258 [33] [FixSender] (DEBUG) Receiving 8=FIX.4.4|9=62|35=0|34=146|49=DMA_HUB|56=FIXCLIENT1|52=20240206-14:13:58.258|10=042|
2024-02-06 15:14:09.493 [34] [FixSender] (DEBUG) Sending 8=FIX.4.4|9=58|35=0|49=FIXCLIENT1|56=DMA_HUB|34=144|52=20240206-14:14:09|10=093|
2024-02-06 15:14:28.212 [33] [FixSender] (DEBUG) Receiving 8=FIX.4.4|9=62|35=0|34=147|49=DMA_HUB|56=FIXCLIENT1|52=20240206-14:14:28.211|10=030|
2024-02-06 15:14:39.499 [34] [FixSender] (DEBUG) Sending 8=FIX.4.4|9=58|35=0|49=FIXCLIENT1|56=DMA_HUB|34=145|52=20240206-14:14:39|10=097|
2024-02-06 15:14:58.162 [33] [FixSender] (DEBUG) Receiving 8=FIX.4.4|9=62|35=0|34=148|49=DMA_HUB|56=FIXCLIENT1|52=20240206-14:14:58.162|10=039|
2024-02-06 15:15:09.501 [34] [FixSender] (DEBUG) Sending 8=FIX.4.4|9=58|35=0|49=FIXCLIENT1|56=DMA_HUB|34=146|52=20240206-14:15:09|10=096|
2024-02-06 15:15:28.114 [33] [FixSender] (DEBUG) Receiving 8=FIX.4.4|9=62|35=0|34=149|49=DMA_HUB|56=FIXCLIENT1|52=20240206-14:15:28.114|10=035|
2024-02-06 15:15:39.511 [34] [FixSender] (DEBUG) Sending 8=FIX.4.4|9=58|35=0|49=FIXCLIENT1|56=DMA_HUB|34=147|52=20240206-14:15:39|10=100|
2024-02-06 15:15:58.068 [33] [FixSender] (DEBUG) Receiving 8=FIX.4.4|9=62|35=0|34=150|49=DMA_HUB|56=FIXCLIENT1|52=20240206-14:15:58.068|10=038|
2024-02-06 15:16:09.515 [34] [FixSender] (DEBUG) Sending 8=FIX.4.4|9=58|35=0|49=FIXCLIENT1|56=DMA_HUB|34=148|52=20240206-14:16:09|10=099|
2024-02-06 15:16:28.019 [33] [FixSender] (DEBUG) Receiving 8=FIX.4.4|9=62|35=0|34=151|49=DMA_HUB|56=FIXCLIENT1|52=20240206-14:16:28.019|10=033|
2024-02-06 15:16:39.528 [34] [FixSender] (DEBUG) Sending 8=FIX.4.4|9=58|35=0|49=FIXCLIENT1|56=DMA_HUB|34=149|52=20240206-14:16:39|10=103|
2024-02-06 15:16:57.972 [33] [FixSender] (DEBUG) Receiving 8=FIX.4.4|9=62|35=0|34=152|49=DMA_HUB|56=FIXCLIENT1|52=20240206-14:16:57.971|10=043|
2024-02-06 15:17:09.530 [34] [FixSender] (DEBUG) Sending 8=FIX.4.4|9=58|35=0|49=FIXCLIENT1|56=DMA_HUB|34=150|52=20240206-14:17:09|10=093|
2024-02-06 15:17:27.923 [33] [FixSender] (DEBUG) Receiving 8=FIX.4.4|9=62|35=0|34=153|49=DMA_HUB|56=FIXCLIENT1|52=20240206-14:17:27.923|10=039|
2024-02-06 15:17:39.538 [34] [FixSender] (DEBUG) Sending 8=FIX.4.4|9=58|35=0|49=FIXCLIENT1|56=DMA_HUB|34=151|52=20240206-14:17:39|10=097|
2024-02-06 15:17:57.875 [33] [FixSender] (DEBUG) Receiving 8=FIX.4.4|9=62|35=0|34=154|49=DMA_HUB|56=FIXCLIENT1|52=20240206-14:17:57.875|10=049|
2024-02-06 15:18:09.552 [34] [FixSender] (DEBUG) Sending 8=FIX.4.4|9=58|35=0|49=FIXCLIENT1|56=DMA_HUB|34=152|52=20240206-14:18:09|10=096|
2024-02-06 15:18:27.827 [33] [FixSender] (DEBUG) Receiving 8=FIX.4.4|9=62|35=0|34=155|49=DMA_HUB|56=FIXCLIENT1|52=20240206-14:18:27.827|10=045|
2024-02-06 15:18:39.565 [34] [FixSender] (DEBUG) Sending 8=FIX.4.4|9=58|35=0|49=FIXCLIENT1|56=DMA_HUB|34=153|52=20240206-14:18:39|10=100|
2024-02-06 15:18:57.780 [33] [FixSender] (DEBUG) Receiving 8=FIX.4.4|9=62|35=0|34=156|49=DMA_HUB|56=FIXCLIENT1|52=20240206-14:18:57.780|10=047|
2024-02-06 15:19:09.569 [34] [FixSender] (DEBUG) Sending 8=FIX.4.4|9=58|35=0|49=FIXCLIENT1|56=DMA_HUB|34=154|52=20240206-14:19:09|10=099|
2024-02-06 15:19:27.733 [33] [FixSender] (DEBUG) Receiving 8=FIX.4.4|9=62|35=0|34=157|49=DMA_HUB|56=FIXCLIENT1|52=20240206-14:19:27.732|10=043|
2024-02-06 15:19:39.576 [34] [FixSender] (DEBUG) Sending 8=FIX.4.4|9=58|35=0|49=FIXCLIENT1|56=DMA_HUB|34=155|52=20240206-14:19:39|10=103|
2024-02-06 15:19:57.683 [33] [FixSender] (DEBUG) Receiving 8=FIX.4.4|9=62|35=0|34=158|49=DMA_HUB|56=FIXCLIENT1|52=20240206-14:19:57.683|10=052|
2024-02-06 15:20:09.586 [34] [FixSender] (DEBUG) Sending 8=FIX.4.4|9=58|35=0|49=FIXCLIENT1|56=DMA_HUB|34=156|52=20240206-14:20:09|10=093|
2024-02-06 15:20:27.634 [33] [FixSender] (DEBUG) Receiving 8=FIX.4.4|9=62|35=0|34=159|49=DMA_HUB|56=FIXCLIENT1|52=20240206-14:20:27.634|10=038|
2024-02-06 15:20:39.599 [34] [FixSender] (DEBUG) Sending 8=FIX.4.4|9=58|35=0|49=FIXCLIENT1|56=DMA_HUB|34=157|52=20240206-14:20:39|10=097|
2024-02-06 15:20:57.587 [33] [FixSender] (DEBUG) Receiving 8=FIX.4.4|9=62|35=0|34=160|49=DMA_HUB|56=FIXCLIENT1|52=20240206-14:20:57.587|10=040|
2024-02-06 15:21:09.605 [34] [FixSender] (DEBUG) Sending 8=FIX.4.4|9=58|35=0|49=FIXCLIENT1|56=DMA_HUB|34=158|52=20240206-14:21:09|10=096|
2024-02-06 15:21:27.540 [33] [FixSender] (DEBUG) Receiving 8=FIX.4.4|9=62|35=0|34=161|49=DMA_HUB|56=FIXCLIENT1|52=20240206-14:21:27.539|10=036|
2024-02-06 15:21:39.607 [34] [FixSender] (DEBUG) Sending 8=FIX.4.4|9=58|35=0|49=FIXCLIENT1|56=DMA_HUB|34=159|52=20240206-14:21:39|10=100|
2024-02-06 15:21:57.504 [33] [FixSender] (DEBUG) Receiving 8=FIX.4.4|9=62|35=0|34=162|49=DMA_HUB|56=FIXCLIENT1|52=20240206-14:21:57.497|10=043|
2024-02-06 15:22:09.610 [34] [FixSender] (DEBUG) Sending 8=FIX.4.4|9=58|35=0|49=FIXCLIENT1|56=DMA_HUB|34=160|52=20240206-14:22:09|10=090|
2024-02-06 15:22:27.445 [33] [FixSender] (DEBUG) Receiving 8=FIX.4.4|9=62|35=0|34=163|49=DMA_HUB|56=FIXCLIENT1|52=20240206-14:22:27.444|10=034|
2024-02-06 15:22:39.612 [34] [FixSender] (DEBUG) Sending 8=FIX.4.4|9=58|35=0|49=FIXCLIENT1|56=DMA_HUB|34=161|52=20240206-14:22:39|10=094|
2024-02-06 15:22:57.395 [33] [FixSender] (DEBUG) Receiving 8=FIX.4.4|9=62|35=0|34=164|49=DMA_HUB|56=FIXCLIENT1|52=20240206-14:22:57.395|10=043|
2024-02-06 15:23:09.615 [34] [FixSender] (DEBUG) Sending 8=FIX.4.4|9=58|35=0|49=FIXCLIENT1|56=DMA_HUB|34=162|52=20240206-14:23:09|10=093|
2024-02-06 15:23:27.348 [33] [FixSender] (DEBUG) Receiving 8=FIX.4.4|9=62|35=0|34=165|49=DMA_HUB|56=FIXCLIENT1|52=20240206-14:23:27.347|10=039|
2024-02-06 15:23:39.617 [34] [FixSender] (DEBUG) Sending 8=FIX.4.4|9=58|35=0|49=FIXCLIENT1|56=DMA_HUB|34=163|52=20240206-14:23:39|10=097|
2024-02-06 15:23:57.299 [33] [FixSender] (DEBUG) Receiving 8=FIX.4.4|9=62|35=0|34=166|49=DMA_HUB|56=FIXCLIENT1|52=20240206-14:23:57.299|10=049|
2024-02-06 15:24:09.618 [34] [FixSender] (DEBUG) Sending 8=FIX.4.4|9=58|35=0|49=FIXCLIENT1|56=DMA_HUB|34=164|52=20240206-14:24:09|10=096|
2024-02-06 15:24:27.251 [33] [FixSender] (DEBUG) Receiving 8=FIX.4.4|9=62|35=0|34=167|49=DMA_HUB|56=FIXCLIENT1|52=20240206-14:24:27.251|10=036|
2024-02-06 15:24:39.622 [34] [FixSender] (DEBUG) Sending 8=FIX.4.4|9=58|35=0|49=FIXCLIENT1|56=DMA_HUB|34=165|52=20240206-14:24:39|10=100|
2024-02-06 15:24:57.220 [33] [FixSender] (DEBUG) Receiving 8=FIX.4.4|9=62|35=0|34=168|49=DMA_HUB|56=FIXCLIENT1|52=20240206-14:24:57.206|10=040|
2024-02-06 15:25:09.625 [34] [FixSender] (DEBUG) Sending 8=FIX.4.4|9=58|35=0|49=FIXCLIENT1|56=DMA_HUB|34=166|52=20240206-14:25:09|10=099|
2024-02-06 15:25:27.154 [33] [FixSender] (DEBUG) Receiving 8=FIX.4.4|9=62|35=0|34=169|49=DMA_HUB|56=FIXCLIENT1|52=20240206-14:25:27.154|10=041|
2024-02-06 15:25:39.627 [34] [FixSender] (DEBUG) Sending 8=FIX.4.4|9=58|35=0|49=FIXCLIENT1|56=DMA_HUB|34=167|52=20240206-14:25:39|10=103|
2024-02-06 15:25:57.107 [33] [FixSender] (DEBUG) Receiving 8=FIX.4.4|9=62|35=0|34=170|49=DMA_HUB|56=FIXCLIENT1|52=20240206-14:25:57.107|10=034|
2024-02-06 15:26:09.629 [34] [FixSender] (DEBUG) Sending 8=FIX.4.4|9=58|35=0|49=FIXCLIENT1|56=DMA_HUB|34=168|52=20240206-14:26:09|10=102|
2024-02-06 15:26:27.058 [33] [FixSender] (DEBUG) Receiving 8=FIX.4.4|9=62|35=0|34=171|49=DMA_HUB|56=FIXCLIENT1|52=20240206-14:26:27.058|10=038|
2024-02-06 15:26:39.630 [34] [FixSender] (DEBUG) Sending 8=FIX.4.4|9=58|35=0|49=FIXCLIENT1|56=DMA_HUB|34=169|52=20240206-14:26:39|10=106|
2024-02-06 15:26:57.011 [33] [FixSender] (DEBUG) Receiving 8=FIX.4.4|9=62|35=0|34=172|49=DMA_HUB|56=FIXCLIENT1|52=20240206-14:26:57.011|10=031|
2024-02-06 15:27:09.634 [34] [FixSender] (DEBUG) Sending 8=FIX.4.4|9=58|35=0|49=FIXCLIENT1|56=DMA_HUB|34=170|52=20240206-14:27:09|10=096|
2024-02-06 15:27:26.963 [33] [FixSender] (DEBUG) Receiving 8=FIX.4.4|9=62|35=0|34=173|49=DMA_HUB|56=FIXCLIENT1|52=20240206-14:27:26.962|10=044|
2024-02-06 15:27:39.651 [34] [FixSender] (DEBUG) Sending 8=FIX.4.4|9=58|35=0|49=FIXCLIENT1|56=DMA_HUB|34=171|52=20240206-14:27:39|10=100|
2024-02-06 15:27:56.915 [33] [FixSender] (DEBUG) Receiving 8=FIX.4.4|9=62|35=0|34=174|49=DMA_HUB|56=FIXCLIENT1|52=20240206-14:27:56.915|10=046|
2024-02-06 15:28:09.655 [34] [FixSender] (DEBUG) Sending 8=FIX.4.4|9=58|35=0|49=FIXCLIENT1|56=DMA_HUB|34=172|52=20240206-14:28:09|10=099|
2024-02-06 15:28:26.868 [33] [FixSender] (DEBUG) Receiving 8=FIX.4.4|9=62|35=0|34=175|49=DMA_HUB|56=FIXCLIENT1|52=20240206-14:28:26.867|10=051|
2024-02-06 15:28:39.660 [34] [FixSender] (DEBUG) Sending 8=FIX.4.4|9=58|35=0|49=FIXCLIENT1|56=DMA_HUB|34=173|52=20240206-14:28:39|10=103|
2024-02-06 15:28:56.818 [33] [FixSender] (DEBUG) Receiving 8=FIX.4.4|9=62|35=0|34=176|49=DMA_HUB|56=FIXCLIENT1|52=20240206-14:28:56.818|10=051|
2024-02-06 15:29:09.661 [34] [FixSender] (DEBUG) Sending 8=FIX.4.4|9=58|35=0|49=FIXCLIENT1|56=DMA_HUB|34=174|52=20240206-14:29:09|10=102|
2024-02-06 15:29:26.771 [33] [FixSender] (DEBUG) Receiving 8=FIX.4.4|9=62|35=0|34=177|49=DMA_HUB|56=FIXCLIENT1|52=20240206-14:29:26.771|10=048|
2024-02-06 15:29:39.664 [34] [FixSender] (DEBUG) Sending 8=FIX.4.4|9=58|35=0|49=FIXCLIENT1|56=DMA_HUB|34=175|52=20240206-14:29:39|10=106|
2024-02-06 15:29:56.723 [33] [FixSender] (DEBUG) Receiving 8=FIX.4.4|9=62|35=0|34=178|49=DMA_HUB|56=FIXCLIENT1|52=20240206-14:29:56.723|10=049|
2024-02-06 15:30:09.665 [34] [FixSender] (DEBUG) Sending 8=FIX.4.4|9=58|35=0|49=FIXCLIENT1|56=DMA_HUB|34=176|52=20240206-14:30:09|10=096|
2024-02-06 15:30:26.675 [33] [FixSender] (DEBUG) Receiving 8=FIX.4.4|9=62|35=0|34=179|49=DMA_HUB|56=FIXCLIENT1|52=20240206-14:30:26.675|10=045|
2024-02-06 15:30:39.667 [34] [FixSender] (DEBUG) Sending 8=FIX.4.4|9=58|35=0|49=FIXCLIENT1|56=DMA_HUB|34=177|52=20240206-14:30:39|10=100|
2024-02-06 15:30:56.664 [33] [FixSender] (DEBUG) Receiving 8=FIX.4.4|9=62|35=0|34=180|49=DMA_HUB|56=FIXCLIENT1|52=20240206-14:30:56.662|10=036|
2024-02-06 15:31:09.679 [34] [FixSender] (DEBUG) Sending 8=FIX.4.4|9=58|35=0|49=FIXCLIENT1|56=DMA_HUB|34=178|52=20240206-14:31:09|10=099|
2024-02-06 15:31:26.644 [33] [FixSender] (DEBUG) Receiving 8=FIX.4.4|9=62|35=0|34=181|49=DMA_HUB|56=FIXCLIENT1|52=20240206-14:31:26.644|10=035|
2024-02-06 15:31:39.680 [34] [FixSender] (DEBUG) Sending 8=FIX.4.4|9=58|35=0|49=FIXCLIENT1|56=DMA_HUB|34=179|52=20240206-14:31:39|10=103|
2024-02-06 15:31:56.595 [33] [FixSender] (DEBUG) Receiving 8=FIX.4.4|9=62|35=0|34=182|49=DMA_HUB|56=FIXCLIENT1|52=20240206-14:31:56.595|10=044|
2024-02-06 15:32:09.681 [34] [FixSender] (DEBUG) Sending 8=FIX.4.4|9=58|35=0|49=FIXCLIENT1|56=DMA_HUB|34=180|52=20240206-14:32:09|10=093|
2024-02-06 15:32:26.562 [33] [FixSender] (DEBUG) Receiving 8=FIX.4.4|9=62|35=0|34=183|49=DMA_HUB|56=FIXCLIENT1|52=20240206-14:32:26.556|10=040|
2024-02-06 15:32:39.695 [34] [FixSender] (DEBUG) Sending 8=FIX.4.4|9=58|35=0|49=FIXCLIENT1|56=DMA_HUB|34=181|52=20240206-14:32:39|10=097|
2024-02-06 15:32:56.499 [33] [FixSender] (DEBUG) Receiving 8=FIX.4.4|9=62|35=0|34=184|49=DMA_HUB|56=FIXCLIENT1|52=20240206-14:32:56.499|10=050|
2024-02-06 15:33:09.696 [34] [FixSender] (DEBUG) Sending 8=FIX.4.4|9=58|35=0|49=FIXCLIENT1|56=DMA_HUB|34=182|52=20240206-14:33:09|10=096|
2024-02-06 15:33:26.450 [33] [FixSender] (DEBUG) Receiving 8=FIX.4.4|9=62|35=0|34=185|49=DMA_HUB|56=FIXCLIENT1|52=20240206-14:33:26.450|10=036|
2024-02-06 15:33:39.698 [34] [FixSender] (DEBUG) Sending 8=FIX.4.4|9=58|35=0|49=FIXCLIENT1|56=DMA_HUB|34=183|52=20240206-14:33:39|10=100|
2024-02-06 15:33:56.402 [33] [FixSender] (DEBUG) Receiving 8=FIX.4.4|9=62|35=0|34=186|49=DMA_HUB|56=FIXCLIENT1|52=20240206-14:33:56.402|10=037|
2024-02-06 15:34:09.709 [34] [FixSender] (DEBUG) Sending 8=FIX.4.4|9=58|35=0|49=FIXCLIENT1|56=DMA_HUB|34=184|52=20240206-14:34:09|10=099|
2024-02-06 15:34:26.355 [33] [FixSender] (DEBUG) Receiving 8=FIX.4.4|9=62|35=0|34=187|49=DMA_HUB|56=FIXCLIENT1|52=20240206-14:34:26.355|10=043|
2024-02-06 15:34:39.714 [34] [FixSender] (DEBUG) Sending 8=FIX.4.4|9=58|35=0|49=FIXCLIENT1|56=DMA_HUB|34=185|52=20240206-14:34:39|10=103|
2024-02-06 15:34:56.307 [33] [FixSender] (DEBUG) Receiving 8=FIX.4.4|9=62|35=0|34=188|49=DMA_HUB|56=FIXCLIENT1|52=20240206-14:34:56.307|10=044|
2024-02-06 15:35:09.715 [34] [FixSender] (DEBUG) Sending 8=FIX.4.4|9=58|35=0|49=FIXCLIENT1|56=DMA_HUB|34=186|52=20240206-14:35:09|10=102|
2024-02-06 15:35:26.259 [33] [FixSender] (DEBUG) Receiving 8=FIX.4.4|9=62|35=0|34=189|49=DMA_HUB|56=FIXCLIENT1|52=20240206-14:35:26.259|10=049|
2024-02-06 15:35:39.716 [34] [FixSender] (DEBUG) Sending 8=FIX.4.4|9=58|35=0|49=FIXCLIENT1|56=DMA_HUB|34=187|52=20240206-14:35:39|10=106|
2024-02-06 15:35:56.211 [33] [FixSender] (DEBUG) Receiving 8=FIX.4.4|9=62|35=0|34=190|49=DMA_HUB|56=FIXCLIENT1|52=20240206-14:35:56.211|10=032|
2024-02-06 15:36:09.718 [34] [FixSender] (DEBUG) Sending 8=FIX.4.4|9=58|35=0|49=FIXCLIENT1|56=DMA_HUB|34=188|52=20240206-14:36:09|10=105|
2024-02-06 15:36:26.162 [33] [FixSender] (DEBUG) Receiving 8=FIX.4.4|9=62|35=0|34=191|49=DMA_HUB|56=FIXCLIENT1|52=20240206-14:36:26.162|10=036|
2024-02-06 15:36:39.720 [34] [FixSender] (DEBUG) Sending 8=FIX.4.4|9=58|35=0|49=FIXCLIENT1|56=DMA_HUB|34=189|52=20240206-14:36:39|10=109|
2024-02-06 15:36:56.115 [33] [FixSender] (DEBUG) Receiving 8=FIX.4.4|9=62|35=0|34=192|49=DMA_HUB|56=FIXCLIENT1|52=20240206-14:36:56.115|10=038|
2024-02-06 15:37:09.721 [34] [FixSender] (DEBUG) Sending 8=FIX.4.4|9=58|35=0|49=FIXCLIENT1|56=DMA_HUB|34=190|52=20240206-14:37:09|10=099|
2024-02-06 15:37:26.067 [33] [FixSender] (DEBUG) Receiving 8=FIX.4.4|9=62|35=0|34=193|49=DMA_HUB|56=FIXCLIENT1|52=20240206-14:37:26.067|10=043|
2024-02-06 15:37:39.723 [34] [FixSender] (DEBUG) Sending 8=FIX.4.4|9=58|35=0|49=FIXCLIENT1|56=DMA_HUB|34=191|52=20240206-14:37:39|10=103|
2024-02-06 15:37:56.019 [33] [FixSender] (DEBUG) Receiving 8=FIX.4.4|9=62|35=0|34=194|49=DMA_HUB|56=FIXCLIENT1|52=20240206-14:37:56.019|10=044|
2024-02-06 15:38:09.724 [34] [FixSender] (DEBUG) Sending 8=FIX.4.4|9=58|35=0|49=FIXCLIENT1|56=DMA_HUB|34=192|52=20240206-14:38:09|10=102|
2024-02-06 15:38:25.970 [33] [FixSender] (DEBUG) Receiving 8=FIX.4.4|9=62|35=0|34=195|49=DMA_HUB|56=FIXCLIENT1|52=20240206-14:38:25.970|10=048|
2024-02-06 15:38:39.732 [34] [FixSender] (DEBUG) Sending 8=FIX.4.4|9=58|35=0|49=FIXCLIENT1|56=DMA_HUB|34=193|52=20240206-14:38:39|10=106|
2024-02-06 15:38:55.923 [33] [FixSender] (DEBUG) Receiving 8=FIX.4.4|9=62|35=0|34=196|49=DMA_HUB|56=FIXCLIENT1|52=20240206-14:38:55.923|10=050|
2024-02-06 15:39:09.733 [34] [FixSender] (DEBUG) Sending 8=FIX.4.4|9=58|35=0|49=FIXCLIENT1|56=DMA_HUB|34=194|52=20240206-14:39:09|10=105|
2024-02-06 15:39:25.876 [33] [FixSender] (DEBUG) Receiving 8=FIX.4.4|9=62|35=0|34=197|49=DMA_HUB|56=FIXCLIENT1|52=20240206-14:39:25.875|10=055|
2024-02-06 15:39:39.736 [34] [FixSender] (DEBUG) Sending 8=FIX.4.4|9=58|35=0|49=FIXCLIENT1|56=DMA_HUB|34=195|52=20240206-14:39:39|10=109|
2024-02-06 15:39:55.826 [33] [FixSender] (DEBUG) Receiving 8=FIX.4.4|9=62|35=0|34=198|49=DMA_HUB|56=FIXCLIENT1|52=20240206-14:39:55.826|10=055|
2024-02-06 15:40:09.737 [34] [FixSender] (DEBUG) Sending 8=FIX.4.4|9=58|35=0|49=FIXCLIENT1|56=DMA_HUB|34=196|52=20240206-14:40:09|10=099|
2024-02-06 15:40:25.778 [33] [FixSender] (DEBUG) Receiving 8=FIX.4.4|9=62|35=0|34=199|49=DMA_HUB|56=FIXCLIENT1|52=20240206-14:40:25.778|10=051|
2024-02-06 15:40:39.738 [34] [FixSender] (DEBUG) Sending 8=FIX.4.4|9=58|35=0|49=FIXCLIENT1|56=DMA_HUB|34=197|52=20240206-14:40:39|10=103|
2024-02-06 15:40:55.731 [33] [FixSender] (DEBUG) Receiving 8=FIX.4.4|9=62|35=0|34=200|49=DMA_HUB|56=FIXCLIENT1|52=20240206-14:40:55.731|10=026|
2024-02-06 15:41:09.741 [34] [FixSender] (DEBUG) Sending 8=FIX.4.4|9=58|35=0|49=FIXCLIENT1|56=DMA_HUB|34=198|52=20240206-14:41:09|10=102|
2024-02-06 15:41:25.684 [33] [FixSender] (DEBUG) Receiving 8=FIX.4.4|9=62|35=0|34=201|49=DMA_HUB|56=FIXCLIENT1|52=20240206-14:41:25.683|10=031|
2024-02-06 15:41:39.742 [34] [FixSender] (DEBUG) Sending 8=FIX.4.4|9=58|35=0|49=FIXCLIENT1|56=DMA_HUB|34=199|52=20240206-14:41:39|10=106|
2024-02-06 15:41:55.634 [33] [FixSender] (DEBUG) Receiving 8=FIX.4.4|9=62|35=0|34=202|49=DMA_HUB|56=FIXCLIENT1|52=20240206-14:41:55.634|10=031|
2024-02-06 15:42:09.743 [34] [FixSender] (DEBUG) Sending 8=FIX.4.4|9=58|35=0|49=FIXCLIENT1|56=DMA_HUB|34=200|52=20240206-14:42:09|10=087|
2024-02-06 15:42:25.586 [33] [FixSender] (DEBUG) Receiving 8=FIX.4.4|9=62|35=0|34=203|49=DMA_HUB|56=FIXCLIENT1|52=20240206-14:42:25.586|10=036|
2024-02-06 15:42:39.750 [34] [FixSender] (DEBUG) Sending 8=FIX.4.4|9=58|35=0|49=FIXCLIENT1|56=DMA_HUB|34=201|52=20240206-14:42:39|10=091|
2024-02-06 15:42:55.539 [33] [FixSender] (DEBUG) Receiving 8=FIX.4.4|9=62|35=0|34=204|49=DMA_HUB|56=FIXCLIENT1|52=20240206-14:42:55.539|10=038|
2024-02-06 15:43:09.751 [34] [FixSender] (DEBUG) Sending 8=FIX.4.4|9=58|35=0|49=FIXCLIENT1|56=DMA_HUB|34=202|52=20240206-14:43:09|10=090|
2024-02-06 15:43:25.491 [33] [FixSender] (DEBUG) Receiving 8=FIX.4.4|9=62|35=0|34=205|49=DMA_HUB|56=FIXCLIENT1|52=20240206-14:43:25.491|10=034|
2024-02-06 15:43:39.754 [34] [FixSender] (DEBUG) Sending 8=FIX.4.4|9=58|35=0|49=FIXCLIENT1|56=DMA_HUB|34=203|52=20240206-14:43:39|10=094|
2024-02-06 15:43:55.442 [33] [FixSender] (DEBUG) Receiving 8=FIX.4.4|9=62|35=0|34=206|49=DMA_HUB|56=FIXCLIENT1|52=20240206-14:43:55.442|10=034|
2024-02-06 15:44:09.756 [34] [FixSender] (DEBUG) Sending 8=FIX.4.4|9=58|35=0|49=FIXCLIENT1|56=DMA_HUB|34=204|52=20240206-14:44:09|10=093|
2024-02-06 15:44:25.394 [33] [FixSender] (DEBUG) Receiving 8=FIX.4.4|9=62|35=0|34=207|49=DMA_HUB|56=FIXCLIENT1|52=20240206-14:44:25.394|10=039|
2024-02-06 15:44:39.764 [34] [FixSender] (DEBUG) Sending 8=FIX.4.4|9=58|35=0|49=FIXCLIENT1|56=DMA_HUB|34=205|52=20240206-14:44:39|10=097|
2024-02-06 15:44:55.346 [33] [FixSender] (DEBUG) Receiving 8=FIX.4.4|9=62|35=0|34=208|49=DMA_HUB|56=FIXCLIENT1|52=20240206-14:44:55.346|10=040|
2024-02-06 15:45:09.765 [34] [FixSender] (DEBUG) Sending 8=FIX.4.4|9=58|35=0|49=FIXCLIENT1|56=DMA_HUB|34=206|52=20240206-14:45:09|10=096|
2024-02-06 15:45:25.299 [33] [FixSender] (DEBUG) Receiving 8=FIX.4.4|9=62|35=0|34=209|49=DMA_HUB|56=FIXCLIENT1|52=20240206-14:45:25.299|10=046|
2024-02-06 15:45:39.766 [34] [FixSender] (DEBUG) Sending 8=FIX.4.4|9=58|35=0|49=FIXCLIENT1|56=DMA_HUB|34=207|52=20240206-14:45:39|10=100|
2024-02-06 15:45:55.252 [33] [FixSender] (DEBUG) Receiving 8=FIX.4.4|9=62|35=0|34=210|49=DMA_HUB|56=FIXCLIENT1|52=20240206-14:45:55.251|10=029|
2024-02-06 15:46:09.767 [34] [FixSender] (DEBUG) Sending 8=FIX.4.4|9=58|35=0|49=FIXCLIENT1|56=DMA_HUB|34=208|52=20240206-14:46:09|10=099|
2024-02-06 15:46:25.203 [33] [FixSender] (DEBUG) Receiving 8=FIX.4.4|9=62|35=0|34=211|49=DMA_HUB|56=FIXCLIENT1|52=20240206-14:46:25.202|10=024|
2024-02-06 15:46:39.772 [34] [FixSender] (DEBUG) Sending 8=FIX.4.4|9=58|35=0|49=FIXCLIENT1|56=DMA_HUB|34=209|52=20240206-14:46:39|10=103|
2024-02-06 15:46:55.154 [33] [FixSender] (DEBUG) Receiving 8=FIX.4.4|9=62|35=0|34=212|49=DMA_HUB|56=FIXCLIENT1|52=20240206-14:46:55.154|10=034|
2024-02-06 15:47:09.773 [34] [FixSender] (DEBUG) Sending 8=FIX.4.4|9=58|35=0|49=FIXCLIENT1|56=DMA_HUB|34=210|52=20240206-14:47:09|10=093|
2024-02-06 15:47:25.107 [33] [FixSender] (DEBUG) Receiving 8=FIX.4.4|9=62|35=0|34=213|49=DMA_HUB|56=FIXCLIENT1|52=20240206-14:47:25.107|10=031|
2024-02-06 15:47:39.787 [34] [FixSender] (DEBUG) Sending 8=FIX.4.4|9=58|35=0|49=FIXCLIENT1|56=DMA_HUB|34=211|52=20240206-14:47:39|10=097|
2024-02-06 15:47:55.059 [33] [FixSender] (DEBUG) Receiving 8=FIX.4.4|9=62|35=0|34=214|49=DMA_HUB|56=FIXCLIENT1|52=20240206-14:47:55.059|10=041|
2024-02-06 15:48:09.787 [34] [FixSender] (DEBUG) Sending 8=FIX.4.4|9=58|35=0|49=FIXCLIENT1|56=DMA_HUB|34=212|52=20240206-14:48:09|10=096|
2024-02-06 15:48:25.011 [33] [FixSender] (DEBUG) Receiving 8=FIX.4.4|9=62|35=0|34=215|49=DMA_HUB|56=FIXCLIENT1|52=20240206-14:48:25.011|10=028|
2024-02-06 15:48:39.788 [34] [FixSender] (DEBUG) Sending 8=FIX.4.4|9=58|35=0|49=FIXCLIENT1|56=DMA_HUB|34=213|52=20240206-14:48:39|10=100|
2024-02-06 15:48:54.963 [33] [FixSender] (DEBUG) Receiving 8=FIX.4.4|9=62|35=0|34=216|49=DMA_HUB|56=FIXCLIENT1|52=20240206-14:48:54.963|10=047|
2024-02-06 15:49:09.791 [34] [FixSender] (DEBUG) Sending 8=FIX.4.4|9=58|35=0|49=FIXCLIENT1|56=DMA_HUB|34=214|52=20240206-14:49:09|10=099|
2024-02-06 15:49:24.914 [33] [FixSender] (DEBUG) Receiving 8=FIX.4.4|9=62|35=0|34=217|49=DMA_HUB|56=FIXCLIENT1|52=20240206-14:49:24.914|10=042|
2024-02-06 15:49:39.792 [34] [FixSender] (DEBUG) Sending 8=FIX.4.4|9=58|35=0|49=FIXCLIENT1|56=DMA_HUB|34=215|52=20240206-14:49:39|10=103|
2024-02-06 15:49:54.866 [33] [FixSender] (DEBUG) Receiving 8=FIX.4.4|9=62|35=0|34=218|49=DMA_HUB|56=FIXCLIENT1|52=20240206-14:49:54.866|10=052|
2024-02-06 15:50:09.798 [34] [FixSender] (DEBUG) Sending 8=FIX.4.4|9=58|35=0|49=FIXCLIENT1|56=DMA_HUB|34=216|52=20240206-14:50:09|10=093|
2024-02-06 15:50:24.819 [33] [FixSender] (DEBUG) Receiving 8=FIX.4.4|9=62|35=0|34=219|49=DMA_HUB|56=FIXCLIENT1|52=20240206-14:50:24.819|10=040|
2024-02-06 15:50:39.801 [34] [FixSender] (DEBUG) Sending 8=FIX.4.4|9=58|35=0|49=FIXCLIENT1|56=DMA_HUB|34=217|52=20240206-14:50:39|10=097|
2024-02-06 15:50:54.770 [33] [FixSender] (DEBUG) Receiving 8=FIX.4.4|9=62|35=0|34=220|49=DMA_HUB|56=FIXCLIENT1|52=20240206-14:50:54.770|10=031|
2024-02-06 15:51:09.802 [34] [FixSender] (DEBUG) Sending 8=FIX.4.4|9=58|35=0|49=FIXCLIENT1|56=DMA_HUB|34=218|52=20240206-14:51:09|10=096|
2024-02-06 15:51:24.722 [33] [FixSender] (DEBUG) Receiving 8=FIX.4.4|9=62|35=0|34=221|49=DMA_HUB|56=FIXCLIENT1|52=20240206-14:51:24.722|10=027|
2024-02-06 15:51:39.807 [34] [FixSender] (DEBUG) Sending 8=FIX.4.4|9=58|35=0|49=FIXCLIENT1|56=DMA_HUB|34=219|52=20240206-14:51:39|10=100|
2024-02-06 15:51:54.675 [33] [FixSender] (DEBUG) Receiving 8=FIX.4.4|9=62|35=0|34=222|49=DMA_HUB|56=FIXCLIENT1|52=20240206-14:51:54.675|10=038|
2024-02-06 15:52:09.808 [34] [FixSender] (DEBUG) Sending 8=FIX.4.4|9=58|35=0|49=FIXCLIENT1|56=DMA_HUB|34=220|52=20240206-14:52:09|10=090|
2024-02-06 15:52:24.627 [33] [FixSender] (DEBUG) Receiving 8=FIX.4.4|9=62|35=0|34=223|49=DMA_HUB|56=FIXCLIENT1|52=20240206-14:52:24.627|10=034|
2024-02-06 15:52:39.811 [34] [FixSender] (DEBUG) Sending 8=FIX.4.4|9=58|35=0|49=FIXCLIENT1|56=DMA_HUB|34=221|52=20240206-14:52:39|10=094|
2024-02-06 15:52:54.578 [33] [FixSender] (DEBUG) Receiving 8=FIX.4.4|9=62|35=0|34=224|49=DMA_HUB|56=FIXCLIENT1|52=20240206-14:52:54.578|10=043|
2024-02-06 15:53:09.812 [34] [FixSender] (DEBUG) Sending 8=FIX.4.4|9=58|35=0|49=FIXCLIENT1|56=DMA_HUB|34=222|52=20240206-14:53:09|10=093|
2024-02-06 15:53:24.530 [33] [FixSender] (DEBUG) Receiving 8=FIX.4.4|9=62|35=0|34=225|49=DMA_HUB|56=FIXCLIENT1|52=20240206-14:53:24.530|10=030|
2024-02-06 15:53:39.813 [34] [FixSender] (DEBUG) Sending 8=FIX.4.4|9=58|35=0|49=FIXCLIENT1|56=DMA_HUB|34=223|52=20240206-14:53:39|10=097|
2024-02-06 15:53:54.484 [33] [FixSender] (DEBUG) Receiving 8=FIX.4.4|9=62|35=0|34=226|49=DMA_HUB|56=FIXCLIENT1|52=20240206-14:53:54.483|10=041|
2024-02-06 15:54:09.815 [34] [FixSender] (DEBUG) Sending 8=FIX.4.4|9=58|35=0|49=FIXCLIENT1|56=DMA_HUB|34=224|52=20240206-14:54:09|10=096|
2024-02-06 15:54:24.434 [33] [FixSender] (DEBUG) Receiving 8=FIX.4.4|9=62|35=0|34=227|49=DMA_HUB|56=FIXCLIENT1|52=20240206-14:54:24.434|10=036|
2024-02-06 15:54:39.816 [34] [FixSender] (DEBUG) Sending 8=FIX.4.4|9=58|35=0|49=FIXCLIENT1|56=DMA_HUB|34=225|52=20240206-14:54:39|10=100|
2024-02-06 15:54:54.387 [33] [FixSender] (DEBUG) Receiving 8=FIX.4.4|9=62|35=0|34=228|49=DMA_HUB|56=FIXCLIENT1|52=20240206-14:54:54.387|10=047|
2024-02-06 15:55:09.820 [34] [FixSender] (DEBUG) Sending 8=FIX.4.4|9=58|35=0|49=FIXCLIENT1|56=DMA_HUB|34=226|52=20240206-14:55:09|10=099|
2024-02-06 15:55:24.339 [33] [FixSender] (DEBUG) Receiving 8=FIX.4.4|9=62|35=0|34=229|49=DMA_HUB|56=FIXCLIENT1|52=20240206-14:55:24.339|10=043|
2024-02-06 15:55:39.821 [34] [FixSender] (DEBUG) Sending 8=FIX.4.4|9=58|35=0|49=FIXCLIENT1|56=DMA_HUB|34=227|52=20240206-14:55:39|10=103|
2024-02-06 15:55:54.290 [33] [FixSender] (DEBUG) Receiving 8=FIX.4.4|9=62|35=0|34=230|49=DMA_HUB|56=FIXCLIENT1|52=20240206-14:55:54.290|10=034|
2024-02-06 15:56:09.824 [34] [FixSender] (DEBUG) Sending 8=FIX.4.4|9=58|35=0|49=FIXCLIENT1|56=DMA_HUB|34=228|52=20240206-14:56:09|10=102|
2024-02-06 15:56:24.243 [33] [FixSender] (DEBUG) Receiving 8=FIX.4.4|9=62|35=0|34=231|49=DMA_HUB|56=FIXCLIENT1|52=20240206-14:56:24.243|10=031|
2024-02-06 15:56:39.826 [34] [FixSender] (DEBUG) Sending 8=FIX.4.4|9=58|35=0|49=FIXCLIENT1|56=DMA_HUB|34=229|52=20240206-14:56:39|10=106|
2024-02-06 15:56:54.194 [33] [FixSender] (DEBUG) Receiving 8=FIX.4.4|9=62|35=0|34=232|49=DMA_HUB|56=FIXCLIENT1|52=20240206-14:56:54.194|10=040|
2024-02-06 15:57:09.827 [34] [FixSender] (DEBUG) Sending 8=FIX.4.4|9=58|35=0|49=FIXCLIENT1|56=DMA_HUB|34=230|52=20240206-14:57:09|10=096|
2024-02-06 15:57:24.146 [33] [FixSender] (DEBUG) Receiving 8=FIX.4.4|9=62|35=0|34=233|49=DMA_HUB|56=FIXCLIENT1|52=20240206-14:57:24.146|10=036|
2024-02-06 15:57:39.842 [34] [FixSender] (DEBUG) Sending 8=FIX.4.4|9=58|35=0|49=FIXCLIENT1|56=DMA_HUB|34=231|52=20240206-14:57:39|10=100|
2024-02-06 15:57:54.100 [33] [FixSender] (DEBUG) Receiving 8=FIX.4.4|9=62|35=0|34=234|49=DMA_HUB|56=FIXCLIENT1|52=20240206-14:57:54.099|10=047|
2024-02-06 15:58:09.843 [34] [FixSender] (DEBUG) Sending 8=FIX.4.4|9=58|35=0|49=FIXCLIENT1|56=DMA_HUB|34=232|52=20240206-14:58:09|10=099|
2024-02-06 15:58:24.050 [33] [FixSender] (DEBUG) Receiving 8=FIX.4.4|9=62|35=0|34=235|49=DMA_HUB|56=FIXCLIENT1|52=20240206-14:58:24.050|10=033|
2024-02-06 15:58:39.844 [34] [FixSender] (DEBUG) Sending 8=FIX.4.4|9=58|35=0|49=FIXCLIENT1|56=DMA_HUB|34=233|52=20240206-14:58:39|10=103|
2024-02-06 15:58:54.002 [33] [FixSender] (DEBUG) Receiving 8=FIX.4.4|9=62|35=0|34=236|49=DMA_HUB|56=FIXCLIENT1|52=20240206-14:58:54.002|10=034|
2024-02-06 15:59:09.853 [34] [FixSender] (DEBUG) Sending 8=FIX.4.4|9=58|35=0|49=FIXCLIENT1|56=DMA_HUB|34=234|52=20240206-14:59:09|10=102|
2024-02-06 15:59:23.955 [33] [FixSender] (DEBUG) Receiving 8=FIX.4.4|9=62|35=0|34=237|49=DMA_HUB|56=FIXCLIENT1|52=20240206-14:59:23.955|10=049|
2024-02-06 15:59:39.856 [34] [FixSender] (DEBUG) Sending 8=FIX.4.4|9=58|35=0|49=FIXCLIENT1|56=DMA_HUB|34=235|52=20240206-14:59:39|10=106|
2024-02-06 15:59:53.907 [33] [FixSender] (DEBUG) Receiving 8=FIX.4.4|9=62|35=0|34=238|49=DMA_HUB|56=FIXCLIENT1|52=20240206-14:59:53.907|10=050|
2024-02-06 16:00:09.857 [34] [FixSender] (DEBUG) Sending 8=FIX.4.4|9=58|35=0|49=FIXCLIENT1|56=DMA_HUB|34=236|52=20240206-15:00:09|10=091|
2024-02-06 16:00:23.859 [33] [FixSender] (DEBUG) Receiving 8=FIX.4.4|9=62|35=0|34=239|49=DMA_HUB|56=FIXCLIENT1|52=20240206-15:00:23.859|10=041|
2024-02-06 16:00:39.858 [34] [FixSender] (DEBUG) Sending 8=FIX.4.4|9=58|35=0|49=FIXCLIENT1|56=DMA_HUB|34=237|52=20240206-15:00:39|10=095|
2024-02-06 16:00:53.811 [33] [FixSender] (DEBUG) Receiving 8=FIX.4.4|9=62|35=0|34=240|49=DMA_HUB|56=FIXCLIENT1|52=20240206-15:00:53.811|10=024|
2024-02-06 16:01:09.859 [34] [FixSender] (DEBUG) Sending 8=FIX.4.4|9=58|35=0|49=FIXCLIENT1|56=DMA_HUB|34=238|52=20240206-15:01:09|10=094|
2024-02-06 16:01:23.763 [33] [FixSender] (DEBUG) Receiving 8=FIX.4.4|9=62|35=0|34=241|49=DMA_HUB|56=FIXCLIENT1|52=20240206-15:01:23.763|10=029|
2024-02-06 16:01:39.860 [34] [FixSender] (DEBUG) Sending 8=FIX.4.4|9=58|35=0|49=FIXCLIENT1|56=DMA_HUB|34=239|52=20240206-15:01:39|10=098|
2024-02-06 16:01:53.715 [33] [FixSender] (DEBUG) Receiving 8=FIX.4.4|9=62|35=0|34=242|49=DMA_HUB|56=FIXCLIENT1|52=20240206-15:01:53.715|10=030|
2024-02-06 16:02:09.862 [34] [FixSender] (DEBUG) Sending 8=FIX.4.4|9=58|35=0|49=FIXCLIENT1|56=DMA_HUB|34=240|52=20240206-15:02:09|10=088|
2024-02-06 16:02:23.666 [33] [FixSender] (DEBUG) Receiving 8=FIX.4.4|9=62|35=0|34=243|49=DMA_HUB|56=FIXCLIENT1|52=20240206-15:02:23.666|10=034|
2024-02-06 16:02:39.863 [34] [FixSender] (DEBUG) Sending 8=FIX.4.4|9=58|35=0|49=FIXCLIENT1|56=DMA_HUB|34=241|52=20240206-15:02:39|10=092|
2024-02-06 16:02:53.619 [33] [FixSender] (DEBUG) Receiving 8=FIX.4.4|9=62|35=0|34=244|49=DMA_HUB|56=FIXCLIENT1|52=20240206-15:02:53.619|10=036|
2024-02-06 16:03:09.864 [34] [FixSender] (DEBUG) Sending 8=FIX.4.4|9=58|35=0|49=FIXCLIENT1|56=DMA_HUB|34=242|52=20240206-15:03:09|10=091|
2024-02-06 16:03:23.570 [33] [FixSender] (DEBUG) Receiving 8=FIX.4.4|9=62|35=0|34=245|49=DMA_HUB|56=FIXCLIENT1|52=20240206-15:03:23.570|10=031|
2024-02-06 16:03:39.864 [34] [FixSender] (DEBUG) Sending 8=FIX.4.4|9=58|35=0|49=FIXCLIENT1|56=DMA_HUB|34=243|52=20240206-15:03:39|10=095|
2024-02-06 16:03:53.523 [33] [FixSender] (DEBUG) Receiving 8=FIX.4.4|9=62|35=0|34=246|49=DMA_HUB|56=FIXCLIENT1|52=20240206-15:03:53.523|10=033|
2024-02-06 16:04:09.874 [34] [FixSender] (DEBUG) Sending 8=FIX.4.4|9=58|35=0|49=FIXCLIENT1|56=DMA_HUB|34=244|52=20240206-15:04:09|10=094|
2024-02-06 16:04:23.475 [33] [FixSender] (DEBUG) Receiving 8=FIX.4.4|9=62|35=0|34=247|49=DMA_HUB|56=FIXCLIENT1|52=20240206-15:04:23.475|10=038|
2024-02-06 16:04:39.876 [34] [FixSender] (DEBUG) Sending 8=FIX.4.4|9=58|35=0|49=FIXCLIENT1|56=DMA_HUB|34=245|52=20240206-15:04:39|10=098|
2024-02-06 16:04:53.427 [33] [FixSender] (DEBUG) Receiving 8=FIX.4.4|9=62|35=0|34=248|49=DMA_HUB|56=FIXCLIENT1|52=20240206-15:04:53.426|10=038|
2024-02-06 16:05:09.879 [34] [FixSender] (DEBUG) Sending 8=FIX.4.4|9=58|35=0|49=FIXCLIENT1|56=DMA_HUB|34=246|52=20240206-15:05:09|10=097|
2024-02-06 16:05:23.378 [33] [FixSender] (DEBUG) Receiving 8=FIX.4.4|9=62|35=0|34=249|49=DMA_HUB|56=FIXCLIENT1|52=20240206-15:05:23.378|10=043|
2024-02-06 16:05:39.881 [34] [FixSender] (DEBUG) Sending 8=FIX.4.4|9=58|35=0|49=FIXCLIENT1|56=DMA_HUB|34=247|52=20240206-15:05:39|10=101|
2024-02-06 16:05:53.331 [33] [FixSender] (DEBUG) Receiving 8=FIX.4.4|9=62|35=0|34=250|49=DMA_HUB|56=FIXCLIENT1|52=20240206-15:05:53.331|10=027|
2024-02-06 16:06:09.885 [34] [FixSender] (DEBUG) Sending 8=FIX.4.4|9=58|35=0|49=FIXCLIENT1|56=DMA_HUB|34=248|52=20240206-15:06:09|10=100|
2024-02-06 16:06:23.283 [33] [FixSender] (DEBUG) Receiving 8=FIX.4.4|9=62|35=0|34=251|49=DMA_HUB|56=FIXCLIENT1|52=20240206-15:06:23.283|10=032|
2024-02-06 16:06:39.886 [34] [FixSender] (DEBUG) Sending 8=FIX.4.4|9=58|35=0|49=FIXCLIENT1|56=DMA_HUB|34=249|52=20240206-15:06:39|10=104|
2024-02-06 16:06:53.235 [33] [FixSender] (DEBUG) Receiving 8=FIX.4.4|9=62|35=0|34=252|49=DMA_HUB|56=FIXCLIENT1|52=20240206-15:06:53.235|10=033|
2024-02-06 16:07:09.889 [34] [FixSender] (DEBUG) Sending 8=FIX.4.4|9=58|35=0|49=FIXCLIENT1|56=DMA_HUB|34=250|52=20240206-15:07:09|10=094|
2024-02-06 16:07:23.186 [33] [FixSender] (DEBUG) Receiving 8=FIX.4.4|9=62|35=0|34=253|49=DMA_HUB|56=FIXCLIENT1|52=20240206-15:07:23.186|10=037|
2024-02-06 16:07:39.890 [34] [FixSender] (DEBUG) Sending 8=FIX.4.4|9=58|35=0|49=FIXCLIENT1|56=DMA_HUB|34=251|52=20240206-15:07:39|10=098|
2024-02-06 16:07:53.138 [33] [FixSender] (DEBUG) Receiving 8=FIX.4.4|9=62|35=0|34=254|49=DMA_HUB|56=FIXCLIENT1|52=20240206-15:07:53.138|10=038|
2024-02-06 16:08:09.901 [34] [FixSender] (DEBUG) Sending 8=FIX.4.4|9=58|35=0|49=FIXCLIENT1|56=DMA_HUB|34=252|52=20240206-15:08:09|10=097|
2024-02-06 16:08:23.092 [33] [FixSender] (DEBUG) Receiving 8=FIX.4.4|9=62|35=0|34=255|49=DMA_HUB|56=FIXCLIENT1|52=20240206-15:08:23.091|10=035|
2024-02-06 16:08:39.902 [34] [FixSender] (DEBUG) Sending 8=FIX.4.4|9=58|35=0|49=FIXCLIENT1|56=DMA_HUB|34=253|52=20240206-15:08:39|10=101|
2024-02-06 16:08:53.043 [33] [FixSender] (DEBUG) Receiving 8=FIX.4.4|9=62|35=0|34=256|49=DMA_HUB|56=FIXCLIENT1|52=20240206-15:08:53.042|10=035|
2024-02-06 16:09:09.903 [34] [FixSender] (DEBUG) Sending 8=FIX.4.4|9=58|35=0|49=FIXCLIENT1|56=DMA_HUB|34=254|52=20240206-15:09:09|10=100|
2024-02-06 16:09:22.994 [33] [FixSender] (DEBUG) Receiving 8=FIX.4.4|9=62|35=0|34=257|49=DMA_HUB|56=FIXCLIENT1|52=20240206-15:09:22.994|10=049|
2024-02-06 16:09:39.917 [34] [FixSender] (DEBUG) Sending 8=FIX.4.4|9=58|35=0|49=FIXCLIENT1|56=DMA_HUB|34=255|52=20240206-15:09:39|10=104|
2024-02-06 16:09:52.947 [33] [FixSender] (DEBUG) Receiving 8=FIX.4.4|9=62|35=0|34=258|49=DMA_HUB|56=FIXCLIENT1|52=20240206-15:09:52.947|10=051|
2024-02-06 16:10:09.919 [34] [FixSender] (DEBUG) Sending 8=FIX.4.4|9=58|35=0|49=FIXCLIENT1|56=DMA_HUB|34=256|52=20240206-15:10:09|10=094|
2024-02-06 16:10:22.898 [33] [FixSender] (DEBUG) Receiving 8=FIX.4.4|9=62|35=0|34=259|49=DMA_HUB|56=FIXCLIENT1|52=20240206-15:10:22.898|10=046|
2024-02-06 16:10:39.921 [34] [FixSender] (DEBUG) Sending 8=FIX.4.4|9=58|35=0|49=FIXCLIENT1|56=DMA_HUB|34=257|52=20240206-15:10:39|10=098|
2024-02-06 16:10:52.850 [33] [FixSender] (DEBUG) Receiving 8=FIX.4.4|9=62|35=0|34=260|49=DMA_HUB|56=FIXCLIENT1|52=20240206-15:10:52.850|10=029|
2024-02-06 16:11:09.933 [34] [FixSender] (DEBUG) Sending 8=FIX.4.4|9=58|35=0|49=FIXCLIENT1|56=DMA_HUB|34=258|52=20240206-15:11:09|10=097|
2024-02-06 16:11:22.803 [33] [FixSender] (DEBUG) Receiving 8=FIX.4.4|9=62|35=0|34=261|49=DMA_HUB|56=FIXCLIENT1|52=20240206-15:11:22.803|10=026|
2024-02-06 16:11:39.937 [34] [FixSender] (DEBUG) Sending 8=FIX.4.4|9=58|35=0|49=FIXCLIENT1|56=DMA_HUB|34=259|52=20240206-15:11:39|10=101|
2024-02-06 16:11:52.754 [33] [FixSender] (DEBUG) Receiving 8=FIX.4.4|9=62|35=0|34=262|49=DMA_HUB|56=FIXCLIENT1|52=20240206-15:11:52.754|10=035|
2024-02-06 16:12:09.939 [34] [FixSender] (DEBUG) Sending 8=FIX.4.4|9=58|35=0|49=FIXCLIENT1|56=DMA_HUB|34=260|52=20240206-15:12:09|10=091|
2024-02-06 16:12:22.706 [33] [FixSender] (DEBUG) Receiving 8=FIX.4.4|9=62|35=0|34=263|49=DMA_HUB|56=FIXCLIENT1|52=20240206-15:12:22.706|10=031|
2024-02-06 16:12:39.944 [34] [FixSender] (DEBUG) Sending 8=FIX.4.4|9=58|35=0|49=FIXCLIENT1|56=DMA_HUB|34=261|52=20240206-15:12:39|10=095|
2024-02-06 16:12:52.659 [33] [FixSender] (DEBUG) Receiving 8=FIX.4.4|9=62|35=0|34=264|49=DMA_HUB|56=FIXCLIENT1|52=20240206-15:12:52.659|10=042|
2024-02-06 16:13:09.945 [34] [FixSender] (DEBUG) Sending 8=FIX.4.4|9=58|35=0|49=FIXCLIENT1|56=DMA_HUB|34=262|52=20240206-15:13:09|10=094|
2024-02-06 16:13:22.639 [33] [FixSender] (DEBUG) Receiving 8=FIX.4.4|9=62|35=0|34=265|49=DMA_HUB|56=FIXCLIENT1|52=20240206-15:13:22.613|10=031|
2024-02-06 16:13:39.945 [34] [FixSender] (DEBUG) Sending 8=FIX.4.4|9=58|35=0|49=FIXCLIENT1|56=DMA_HUB|34=263|52=20240206-15:13:39|10=098|
2024-02-06 16:13:52.563 [33] [FixSender] (DEBUG) Receiving 8=FIX.4.4|9=62|35=0|34=266|49=DMA_HUB|56=FIXCLIENT1|52=20240206-15:13:52.563|10=039|
2024-02-06 16:14:09.946 [34] [FixSender] (DEBUG) Sending 8=FIX.4.4|9=58|35=0|49=FIXCLIENT1|56=DMA_HUB|34=264|52=20240206-15:14:09|10=097|
2024-02-06 16:14:22.515 [33] [FixSender] (DEBUG) Receiving 8=FIX.4.4|9=62|35=0|34=267|49=DMA_HUB|56=FIXCLIENT1|52=20240206-15:14:22.515|10=035|
2024-02-06 16:14:39.946 [34] [FixSender] (DEBUG) Sending 8=FIX.4.4|9=58|35=0|49=FIXCLIENT1|56=DMA_HUB|34=265|52=20240206-15:14:39|10=101|
2024-02-06 16:14:52.467 [33] [FixSender] (DEBUG) Receiving 8=FIX.4.4|9=62|35=0|34=268|49=DMA_HUB|56=FIXCLIENT1|52=20240206-15:14:52.467|10=045|
2024-02-06 16:15:09.948 [34] [FixSender] (DEBUG) Sending 8=FIX.4.4|9=58|35=0|49=FIXCLIENT1|56=DMA_HUB|34=266|52=20240206-15:15:09|10=100|
2024-02-06 16:15:22.419 [33] [FixSender] (DEBUG) Receiving 8=FIX.4.4|9=62|35=0|34=269|49=DMA_HUB|56=FIXCLIENT1|52=20240206-15:15:22.419|10=041|
2024-02-06 16:15:39.948 [34] [FixSender] (DEBUG) Sending 8=FIX.4.4|9=58|35=0|49=FIXCLIENT1|56=DMA_HUB|34=267|52=20240206-15:15:39|10=104|
2024-02-06 16:15:52.371 [33] [FixSender] (DEBUG) Receiving 8=FIX.4.4|9=62|35=0|34=270|49=DMA_HUB|56=FIXCLIENT1|52=20240206-15:15:52.371|10=033|
2024-02-06 16:16:09.951 [34] [FixSender] (DEBUG) Sending 8=FIX.4.4|9=58|35=0|49=FIXCLIENT1|56=DMA_HUB|34=268|52=20240206-15:16:09|10=103|
2024-02-06 16:16:22.322 [33] [FixSender] (DEBUG) Receiving 8=FIX.4.4|9=62|35=0|34=271|49=DMA_HUB|56=FIXCLIENT1|52=20240206-15:16:22.322|10=028|
2024-02-06 16:16:39.953 [34] [FixSender] (DEBUG) Sending 8=FIX.4.4|9=58|35=0|49=FIXCLIENT1|56=DMA_HUB|34=269|52=20240206-15:16:39|10=107|
2024-02-06 16:16:52.274 [33] [FixSender] (DEBUG) Receiving 8=FIX.4.4|9=62|35=0|34=272|49=DMA_HUB|56=FIXCLIENT1|52=20240206-15:16:52.274|10=038|
2024-02-06 16:17:09.959 [34] [FixSender] (DEBUG) Sending 8=FIX.4.4|9=58|35=0|49=FIXCLIENT1|56=DMA_HUB|34=270|52=20240206-15:17:09|10=097|
2024-02-06 16:17:22.226 [33] [FixSender] (DEBUG) Receiving 8=FIX.4.4|9=62|35=0|34=273|49=DMA_HUB|56=FIXCLIENT1|52=20240206-15:17:22.226|10=034|
2024-02-06 16:17:39.960 [34] [FixSender] (DEBUG) Sending 8=FIX.4.4|9=58|35=0|49=FIXCLIENT1|56=DMA_HUB|34=271|52=20240206-15:17:39|10=101|
2024-02-06 16:17:52.178 [33] [FixSender] (DEBUG) Receiving 8=FIX.4.4|9=62|35=0|34=274|49=DMA_HUB|56=FIXCLIENT1|52=20240206-15:17:52.178|10=044|
2024-02-06 16:18:09.961 [34] [FixSender] (DEBUG) Sending 8=FIX.4.4|9=58|35=0|49=FIXCLIENT1|56=DMA_HUB|34=272|52=20240206-15:18:09|10=100|
2024-02-06 16:18:22.131 [33] [FixSender] (DEBUG) Receiving 8=FIX.4.4|9=62|35=0|34=275|49=DMA_HUB|56=FIXCLIENT1|52=20240206-15:18:22.131|10=032|
2024-02-06 16:18:39.963 [34] [FixSender] (DEBUG) Sending 8=FIX.4.4|9=58|35=0|49=FIXCLIENT1|56=DMA_HUB|34=273|52=20240206-15:18:39|10=104|
2024-02-06 16:18:52.083 [33] [FixSender] (DEBUG) Receiving 8=FIX.4.4|9=62|35=0|34=276|49=DMA_HUB|56=FIXCLIENT1|52=20240206-15:18:52.083|10=042|
2024-02-06 16:19:09.965 [34] [FixSender] (DEBUG) Sending 8=FIX.4.4|9=58|35=0|49=FIXCLIENT1|56=DMA_HUB|34=274|52=20240206-15:19:09|10=103|
2024-02-06 16:19:22.035 [33] [FixSender] (DEBUG) Receiving 8=FIX.4.4|9=62|35=0|34=277|49=DMA_HUB|56=FIXCLIENT1|52=20240206-15:19:22.035|10=038|
2024-02-06 16:19:39.968 [34] [FixSender] (DEBUG) Sending 8=FIX.4.4|9=58|35=0|49=FIXCLIENT1|56=DMA_HUB|34=275|52=20240206-15:19:39|10=107|
2024-02-06 16:19:51.987 [33] [FixSender] (DEBUG) Receiving 8=FIX.4.4|9=62|35=0|34=278|49=DMA_HUB|56=FIXCLIENT1|52=20240206-15:19:51.987|10=057|
2024-02-06 16:20:09.970 [34] [FixSender] (DEBUG) Sending 8=FIX.4.4|9=58|35=0|49=FIXCLIENT1|56=DMA_HUB|34=276|52=20240206-15:20:09|10=097|
2024-02-06 16:20:21.938 [33] [FixSender] (DEBUG) Receiving 8=FIX.4.4|9=62|35=0|34=279|49=DMA_HUB|56=FIXCLIENT1|52=20240206-15:20:21.938|10=043|
2024-02-06 16:20:39.971 [34] [FixSender] (DEBUG) Sending 8=FIX.4.4|9=58|35=0|49=FIXCLIENT1|56=DMA_HUB|34=277|52=20240206-15:20:39|10=101|
2024-02-06 16:20:51.890 [33] [FixSender] (DEBUG) Receiving 8=FIX.4.4|9=62|35=0|34=280|49=DMA_HUB|56=FIXCLIENT1|52=20240206-15:20:51.890|10=035|
2024-02-06 16:21:09.972 [34] [FixSender] (DEBUG) Sending 8=FIX.4.4|9=58|35=0|49=FIXCLIENT1|56=DMA_HUB|34=278|52=20240206-15:21:09|10=100|
2024-02-06 16:21:21.843 [33] [FixSender] (DEBUG) Receiving 8=FIX.4.4|9=62|35=0|34=281|49=DMA_HUB|56=FIXCLIENT1|52=20240206-15:21:21.843|10=032|
2024-02-06 16:21:39.974 [34] [FixSender] (DEBUG) Sending 8=FIX.4.4|9=58|35=0|49=FIXCLIENT1|56=DMA_HUB|34=279|52=20240206-15:21:39|10=104|
2024-02-06 16:21:51.795 [33] [FixSender] (DEBUG) Receiving 8=FIX.4.4|9=62|35=0|34=282|49=DMA_HUB|56=FIXCLIENT1|52=20240206-15:21:51.795|10=042|
2024-02-06 16:22:09.975 [34] [FixSender] (DEBUG) Sending 8=FIX.4.4|9=58|35=0|49=FIXCLIENT1|56=DMA_HUB|34=280|52=20240206-15:22:09|10=094|
2024-02-06 16:22:21.747 [33] [FixSender] (DEBUG) Receiving 8=FIX.4.4|9=62|35=0|34=283|49=DMA_HUB|56=FIXCLIENT1|52=20240206-15:22:21.747|10=038|
2024-02-06 16:22:39.977 [34] [FixSender] (DEBUG) Sending 8=FIX.4.4|9=58|35=0|49=FIXCLIENT1|56=DMA_HUB|34=281|52=20240206-15:22:39|10=098|
2024-02-06 16:22:51.698 [33] [FixSender] (DEBUG) Receiving 8=FIX.4.4|9=62|35=0|34=284|49=DMA_HUB|56=FIXCLIENT1|52=20240206-15:22:51.698|10=047|
2024-02-06 16:23:09.978 [34] [FixSender] (DEBUG) Sending 8=FIX.4.4|9=58|35=0|49=FIXCLIENT1|56=DMA_HUB|34=282|52=20240206-15:23:09|10=097|
2024-02-06 16:23:21.650 [33] [FixSender] (DEBUG) Receiving 8=FIX.4.4|9=62|35=0|34=285|49=DMA_HUB|56=FIXCLIENT1|52=20240206-15:23:21.650|10=034|
2024-02-06 16:23:39.988 [34] [FixSender] (DEBUG) Sending 8=FIX.4.4|9=58|35=0|49=FIXCLIENT1|56=DMA_HUB|34=283|52=20240206-15:23:39|10=101|
2024-02-06 16:23:51.603 [33] [FixSender] (DEBUG) Receiving 8=FIX.4.4|9=62|35=0|34=286|49=DMA_HUB|56=FIXCLIENT1|52=20240206-15:23:51.603|10=036|
2024-02-06 16:24:09.989 [34] [FixSender] (DEBUG) Sending 8=FIX.4.4|9=58|35=0|49=FIXCLIENT1|56=DMA_HUB|34=284|52=20240206-15:24:09|10=100|
2024-02-06 16:24:21.555 [33] [FixSender] (DEBUG) Receiving 8=FIX.4.4|9=62|35=0|34=287|49=DMA_HUB|56=FIXCLIENT1|52=20240206-15:24:21.555|10=041|
2024-02-06 16:24:39.991 [34] [FixSender] (DEBUG) Sending 8=FIX.4.4|9=58|35=0|49=FIXCLIENT1|56=DMA_HUB|34=285|52=20240206-15:24:39|10=104|
2024-02-06 16:24:51.508 [33] [FixSender] (DEBUG) Receiving 8=FIX.4.4|9=62|35=0|34=288|49=DMA_HUB|56=FIXCLIENT1|52=20240206-15:24:51.508|10=043|
2024-02-06 16:25:09.993 [34] [FixSender] (DEBUG) Sending 8=FIX.4.4|9=58|35=0|49=FIXCLIENT1|56=DMA_HUB|34=286|52=20240206-15:25:09|10=103|
2024-02-06 16:25:21.459 [33] [FixSender] (DEBUG) Receiving 8=FIX.4.4|9=62|35=0|34=289|49=DMA_HUB|56=FIXCLIENT1|52=20240206-15:25:21.459|10=047|
2024-02-06 16:25:39.996 [34] [FixSender] (DEBUG) Sending 8=FIX.4.4|9=58|35=0|49=FIXCLIENT1|56=DMA_HUB|34=287|52=20240206-15:25:39|10=107|
2024-02-06 16:25:51.410 [33] [FixSender] (DEBUG) Receiving 8=FIX.4.4|9=62|35=0|34=290|49=DMA_HUB|56=FIXCLIENT1|52=20240206-15:25:51.410|10=029|
2024-02-06 16:26:10.001 [34] [FixSender] (DEBUG) Sending 8=FIX.4.4|9=58|35=0|49=FIXCLIENT1|56=DMA_HUB|34=288|52=20240206-15:26:10|10=098|
2024-02-06 16:26:21.362 [33] [FixSender] (DEBUG) Receiving 8=FIX.4.4|9=62|35=0|34=291|49=DMA_HUB|56=FIXCLIENT1|52=20240206-15:26:21.362|10=034|
2024-02-06 16:26:40.004 [34] [FixSender] (DEBUG) Sending 8=FIX.4.4|9=58|35=0|49=FIXCLIENT1|56=DMA_HUB|34=289|52=20240206-15:26:40|10=102|
2024-02-06 16:26:51.314 [33] [FixSender] (DEBUG) Receiving 8=FIX.4.4|9=62|35=0|34=292|49=DMA_HUB|56=FIXCLIENT1|52=20240206-15:26:51.314|10=035|
2024-02-06 16:27:10.012 [34] [FixSender] (DEBUG) Sending 8=FIX.4.4|9=58|35=0|49=FIXCLIENT1|56=DMA_HUB|34=290|52=20240206-15:27:10|10=092|
2024-02-06 16:27:21.267 [33] [FixSender] (DEBUG) Receiving 8=FIX.4.4|9=62|35=0|34=293|49=DMA_HUB|56=FIXCLIENT1|52=20240206-15:27:21.267|10=041|
2024-02-06 16:27:40.014 [34] [FixSender] (DEBUG) Sending 8=FIX.4.4|9=58|35=0|49=FIXCLIENT1|56=DMA_HUB|34=291|52=20240206-15:27:40|10=096|
2024-02-06 16:27:51.220 [33] [FixSender] (DEBUG) Receiving 8=FIX.4.4|9=62|35=0|34=294|49=DMA_HUB|56=FIXCLIENT1|52=20240206-15:27:51.220|10=034|
2024-02-06 16:28:10.017 [34] [FixSender] (DEBUG) Sending 8=FIX.4.4|9=58|35=0|49=FIXCLIENT1|56=DMA_HUB|34=292|52=20240206-15:28:10|10=095|
2024-02-06 16:28:21.171 [33] [FixSender] (DEBUG) Receiving 8=FIX.4.4|9=62|35=0|34=295|49=DMA_HUB|56=FIXCLIENT1|52=20240206-15:28:21.171|10=038|
2024-02-06 16:28:40.021 [34] [FixSender] (DEBUG) Sending 8=FIX.4.4|9=58|35=0|49=FIXCLIENT1|56=DMA_HUB|34=293|52=20240206-15:28:40|10=099|
2024-02-06 16:28:51.123 [33] [FixSender] (DEBUG) Receiving 8=FIX.4.4|9=62|35=0|34=296|49=DMA_HUB|56=FIXCLIENT1|52=20240206-15:28:51.123|10=039|
2024-02-06 16:29:10.024 [34] [FixSender] (DEBUG) Sending 8=FIX.4.4|9=58|35=0|49=FIXCLIENT1|56=DMA_HUB|34=294|52=20240206-15:29:10|10=098|
2024-02-06 16:29:21.102 [33] [FixSender] (DEBUG) Receiving 8=FIX.4.4|9=62|35=0|34=297|49=DMA_HUB|56=FIXCLIENT1|52=20240206-15:29:21.075|10=044|
2024-02-06 16:29:40.025 [34] [FixSender] (DEBUG) Sending 8=FIX.4.4|9=58|35=0|49=FIXCLIENT1|56=DMA_HUB|34=295|52=20240206-15:29:40|10=102|
2024-02-06 16:29:50.963 [33] [FixSender] (DEBUG) Receiving 8=FIX.4.4|9=62|35=0|34=298|49=DMA_HUB|56=FIXCLIENT1|52=20240206-15:29:50.963|10=053|
2024-02-06 16:30:10.027 [34] [FixSender] (DEBUG) Sending 8=FIX.4.4|9=58|35=0|49=FIXCLIENT1|56=DMA_HUB|34=296|52=20240206-15:30:10|10=092|
2024-02-06 16:30:20.915 [33] [FixSender] (DEBUG) Receiving 8=FIX.4.4|9=62|35=0|34=299|49=DMA_HUB|56=FIXCLIENT1|52=20240206-15:30:20.915|10=040|
2024-02-06 16:30:40.031 [34] [FixSender] (DEBUG) Sending 8=FIX.4.4|9=58|35=0|49=FIXCLIENT1|56=DMA_HUB|34=297|52=20240206-15:30:40|10=096|
2024-02-06 16:30:50.867 [33] [FixSender] (DEBUG) Receiving 8=FIX.4.4|9=62|35=0|34=300|49=DMA_HUB|56=FIXCLIENT1|52=20240206-15:30:50.867|10=032|
2024-02-06 16:31:10.034 [34] [FixSender] (DEBUG) Sending 8=FIX.4.4|9=58|35=0|49=FIXCLIENT1|56=DMA_HUB|34=298|52=20240206-15:31:10|10=095|
2024-02-06 16:31:20.818 [33] [FixSender] (DEBUG) Receiving 8=FIX.4.4|9=62|35=0|34=301|49=DMA_HUB|56=FIXCLIENT1|52=20240206-15:31:20.818|10=027|
2024-02-06 16:31:40.036 [34] [FixSender] (DEBUG) Sending 8=FIX.4.4|9=58|35=0|49=FIXCLIENT1|56=DMA_HUB|34=299|52=20240206-15:31:40|10=099|
2024-02-06 16:31:50.771 [33] [FixSender] (DEBUG) Receiving 8=FIX.4.4|9=62|35=0|34=302|49=DMA_HUB|56=FIXCLIENT1|52=20240206-15:31:50.771|10=029|
2024-02-06 16:32:10.048 [34] [FixSender] (DEBUG) Sending 8=FIX.4.4|9=58|35=0|49=FIXCLIENT1|56=DMA_HUB|34=300|52=20240206-15:32:10|10=080|
2024-02-06 16:32:20.723 [33] [FixSender] (DEBUG) Receiving 8=FIX.4.4|9=62|35=0|34=303|49=DMA_HUB|56=FIXCLIENT1|52=20240206-15:32:20.722|10=024|
2024-02-06 16:32:40.050 [34] [FixSender] (DEBUG) Sending 8=FIX.4.4|9=58|35=0|49=FIXCLIENT1|56=DMA_HUB|34=301|52=20240206-15:32:40|10=084|
2024-02-06 16:32:50.676 [33] [FixSender] (DEBUG) Receiving 8=FIX.4.4|9=62|35=0|34=304|49=DMA_HUB|56=FIXCLIENT1|52=20240206-15:32:50.676|10=036|
2024-02-06 16:33:10.065 [34] [FixSender] (DEBUG) Sending 8=FIX.4.4|9=58|35=0|49=FIXCLIENT1|56=DMA_HUB|34=302|52=20240206-15:33:10|10=083|
2024-02-06 16:33:20.627 [33] [FixSender] (DEBUG) Receiving 8=FIX.4.4|9=62|35=0|34=305|49=DMA_HUB|56=FIXCLIENT1|52=20240206-15:33:20.627|10=031|
2024-02-06 16:33:40.068 [34] [FixSender] (DEBUG) Sending 8=FIX.4.4|9=58|35=0|49=FIXCLIENT1|56=DMA_HUB|34=303|52=20240206-15:33:40|10=087|
2024-02-06 16:33:50.579 [33] [FixSender] (DEBUG) Receiving 8=FIX.4.4|9=62|35=0|34=306|49=DMA_HUB|56=FIXCLIENT1|52=20240206-15:33:50.579|10=041|
2024-02-06 16:34:10.082 [34] [FixSender] (DEBUG) Sending 8=FIX.4.4|9=58|35=0|49=FIXCLIENT1|56=DMA_HUB|34=304|52=20240206-15:34:10|10=086|
2024-02-06 16:34:20.530 [33] [FixSender] (DEBUG) Receiving 8=FIX.4.4|9=62|35=0|34=307|49=DMA_HUB|56=FIXCLIENT1|52=20240206-15:34:20.530|10=027|
2024-02-06 16:34:40.086 [34] [FixSender] (DEBUG) Sending 8=FIX.4.4|9=58|35=0|49=FIXCLIENT1|56=DMA_HUB|34=305|52=20240206-15:34:40|10=090|
2024-02-06 16:34:50.484 [33] [FixSender] (DEBUG) Receiving 8=FIX.4.4|9=62|35=0|34=308|49=DMA_HUB|56=FIXCLIENT1|52=20240206-15:34:50.483|10=038|
2024-02-06 16:35:10.088 [34] [FixSender] (DEBUG) Sending 8=FIX.4.4|9=58|35=0|49=FIXCLIENT1|56=DMA_HUB|34=306|52=20240206-15:35:10|10=089|
2024-02-06 16:35:20.436 [33] [FixSender] (DEBUG) Receiving 8=FIX.4.4|9=62|35=0|34=309|49=DMA_HUB|56=FIXCLIENT1|52=20240206-15:35:20.435|10=034|
2024-02-06 16:35:40.088 [34] [FixSender] (DEBUG) Sending 8=FIX.4.4|9=58|35=0|49=FIXCLIENT1|56=DMA_HUB|34=307|52=20240206-15:35:40|10=093|
2024-02-06 16:35:50.387 [33] [FixSender] (DEBUG) Receiving 8=FIX.4.4|9=62|35=0|34=310|49=DMA_HUB|56=FIXCLIENT1|52=20240206-15:35:50.387|10=035|
2024-02-06 16:36:10.090 [34] [FixSender] (DEBUG) Sending 8=FIX.4.4|9=58|35=0|49=FIXCLIENT1|56=DMA_HUB|34=308|52=20240206-15:36:10|10=092|
2024-02-06 16:36:20.340 [33] [FixSender] (DEBUG) Receiving 8=FIX.4.4|9=62|35=0|34=311|49=DMA_HUB|56=FIXCLIENT1|52=20240206-15:36:20.339|10=031|
2024-02-06 16:36:40.092 [34] [FixSender] (DEBUG) Sending 8=FIX.4.4|9=58|35=0|49=FIXCLIENT1|56=DMA_HUB|34=309|52=20240206-15:36:40|10=096|
2024-02-06 16:36:50.293 [33] [FixSender] (DEBUG) Receiving 8=FIX.4.4|9=62|35=0|34=312|49=DMA_HUB|56=FIXCLIENT1|52=20240206-15:36:50.292|10=033|
2024-02-06 16:37:10.093 [34] [FixSender] (DEBUG) Sending 8=FIX.4.4|9=58|35=0|49=FIXCLIENT1|56=DMA_HUB|34=310|52=20240206-15:37:10|10=086|
2024-02-06 16:37:20.243 [33] [FixSender] (DEBUG) Receiving 8=FIX.4.4|9=62|35=0|34=313|49=DMA_HUB|56=FIXCLIENT1|52=20240206-15:37:20.242|10=027|
2024-02-06 16:37:40.095 [34] [FixSender] (DEBUG) Sending 8=FIX.4.4|9=58|35=0|49=FIXCLIENT1|56=DMA_HUB|34=311|52=20240206-15:37:40|10=090|
2024-02-06 16:37:50.196 [33] [FixSender] (DEBUG) Receiving 8=FIX.4.4|9=62|35=0|34=314|49=DMA_HUB|56=FIXCLIENT1|52=20240206-15:37:50.195|10=038|
2024-02-06 16:38:10.104 [34] [FixSender] (DEBUG) Sending 8=FIX.4.4|9=58|35=0|49=FIXCLIENT1|56=DMA_HUB|34=312|52=20240206-15:38:10|10=089|
2024-02-06 16:38:20.147 [33] [FixSender] (DEBUG) Receiving 8=FIX.4.4|9=62|35=0|34=315|49=DMA_HUB|56=FIXCLIENT1|52=20240206-15:38:20.147|10=034|
2024-02-06 16:38:40.106 [34] [FixSender] (DEBUG) Sending 8=FIX.4.4|9=58|35=0|49=FIXCLIENT1|56=DMA_HUB|34=313|52=20240206-15:38:40|10=093|
2024-02-06 16:38:50.100 [33] [FixSender] (DEBUG) Receiving 8=FIX.4.4|9=62|35=0|34=316|49=DMA_HUB|56=FIXCLIENT1|52=20240206-15:38:50.099|10=044|
2024-02-06 16:39:10.106 [34] [FixSender] (DEBUG) Sending 8=FIX.4.4|9=58|35=0|49=FIXCLIENT1|56=DMA_HUB|34=314|52=20240206-15:39:10|10=092|
2024-02-06 16:39:20.052 [33] [FixSender] (DEBUG) Receiving 8=FIX.4.4|9=62|35=0|34=317|49=DMA_HUB|56=FIXCLIENT1|52=20240206-15:39:20.051|10=031|
2024-02-06 16:39:40.109 [34] [FixSender] (DEBUG) Sending 8=FIX.4.4|9=58|35=0|49=FIXCLIENT1|56=DMA_HUB|34=315|52=20240206-15:39:40|10=096|
2024-02-06 16:39:50.003 [33] [FixSender] (DEBUG) Receiving 8=FIX.4.4|9=62|35=0|34=318|49=DMA_HUB|56=FIXCLIENT1|52=20240206-15:39:50.003|10=032|
2024-02-06 16:40:10.110 [34] [FixSender] (DEBUG) Sending 8=FIX.4.4|9=58|35=0|49=FIXCLIENT1|56=DMA_HUB|34=316|52=20240206-15:40:10|10=086|
2024-02-06 16:40:19.956 [33] [FixSender] (DEBUG) Receiving 8=FIX.4.4|9=62|35=0|34=319|49=DMA_HUB|56=FIXCLIENT1|52=20240206-15:40:19.955|10=046|
2024-02-06 16:40:40.111 [34] [FixSender] (DEBUG) Sending 8=FIX.4.4|9=58|35=0|49=FIXCLIENT1|56=DMA_HUB|34=317|52=20240206-15:40:40|10=090|
2024-02-06 16:40:49.907 [33] [FixSender] (DEBUG) Receiving 8=FIX.4.4|9=62|35=0|34=320|49=DMA_HUB|56=FIXCLIENT1|52=20240206-15:40:49.907|10=038|
2024-02-06 16:41:10.113 [34] [FixSender] (DEBUG) Sending 8=FIX.4.4|9=58|35=0|49=FIXCLIENT1|56=DMA_HUB|34=318|52=20240206-15:41:10|10=089|
2024-02-06 16:41:19.860 [33] [FixSender] (DEBUG) Receiving 8=FIX.4.4|9=62|35=0|34=321|49=DMA_HUB|56=FIXCLIENT1|52=20240206-15:41:19.859|10=043|
2024-02-06 16:41:40.116 [34] [FixSender] (DEBUG) Sending 8=FIX.4.4|9=58|35=0|49=FIXCLIENT1|56=DMA_HUB|34=319|52=20240206-15:41:40|10=093|
2024-02-06 16:41:49.812 [33] [FixSender] (DEBUG) Receiving 8=FIX.4.4|9=62|35=0|34=322|49=DMA_HUB|56=FIXCLIENT1|52=20240206-15:41:49.811|10=035|
2024-02-06 16:42:10.120 [34] [FixSender] (DEBUG) Sending 8=FIX.4.4|9=58|35=0|49=FIXCLIENT1|56=DMA_HUB|34=320|52=20240206-15:42:10|10=083|
2024-02-06 16:42:19.764 [33] [FixSender] (DEBUG) Receiving 8=FIX.4.4|9=62|35=0|34=323|49=DMA_HUB|56=FIXCLIENT1|52=20240206-15:42:19.763|10=040|
2024-02-06 16:42:40.121 [34] [FixSender] (DEBUG) Sending 8=FIX.4.4|9=58|35=0|49=FIXCLIENT1|56=DMA_HUB|34=321|52=20240206-15:42:40|10=087|
2024-02-06 16:42:49.715 [33] [FixSender] (DEBUG) Receiving 8=FIX.4.4|9=62|35=0|34=324|49=DMA_HUB|56=FIXCLIENT1|52=20240206-15:42:49.715|10=041|
2024-02-06 16:43:10.121 [34] [FixSender] (DEBUG) Sending 8=FIX.4.4|9=58|35=0|49=FIXCLIENT1|56=DMA_HUB|34=322|52=20240206-15:43:10|10=086|
2024-02-06 16:43:19.669 [33] [FixSender] (DEBUG) Receiving 8=FIX.4.4|9=62|35=0|34=325|49=DMA_HUB|56=FIXCLIENT1|52=20240206-15:43:19.668|10=047|
2024-02-06 16:43:40.124 [34] [FixSender] (DEBUG) Sending 8=FIX.4.4|9=58|35=0|49=FIXCLIENT1|56=DMA_HUB|34=323|52=20240206-15:43:40|10=090|
2024-02-06 16:43:49.619 [33] [FixSender] (DEBUG) Receiving 8=FIX.4.4|9=62|35=0|34=326|49=DMA_HUB|56=FIXCLIENT1|52=20240206-15:43:49.619|10=047|
2024-02-06 16:44:10.126 [34] [FixSender] (DEBUG) Sending 8=FIX.4.4|9=58|35=0|49=FIXCLIENT1|56=DMA_HUB|34=324|52=20240206-15:44:10|10=089|
2024-02-06 16:44:19.571 [33] [FixSender] (DEBUG) Receiving 8=FIX.4.4|9=62|35=0|34=327|49=DMA_HUB|56=FIXCLIENT1|52=20240206-15:44:19.570|10=042|
2024-02-06 16:44:40.129 [34] [FixSender] (DEBUG) Sending 8=FIX.4.4|9=58|35=0|49=FIXCLIENT1|56=DMA_HUB|34=325|52=20240206-15:44:40|10=093|
2024-02-06 16:44:49.523 [33] [FixSender] (DEBUG) Receiving 8=FIX.4.4|9=62|35=0|34=328|49=DMA_HUB|56=FIXCLIENT1|52=20240206-15:44:49.523|10=044|
2024-02-06 16:45:10.132 [34] [FixSender] (DEBUG) Sending 8=FIX.4.4|9=58|35=0|49=FIXCLIENT1|56=DMA_HUB|34=326|52=20240206-15:45:10|10=092|
2024-02-06 16:45:19.476 [33] [FixSender] (DEBUG) Receiving 8=FIX.4.4|9=62|35=0|34=329|49=DMA_HUB|56=FIXCLIENT1|52=20240206-15:45:19.475|10=049|
2024-02-06 16:45:40.134 [34] [FixSender] (DEBUG) Sending 8=FIX.4.4|9=58|35=0|49=FIXCLIENT1|56=DMA_HUB|34=327|52=20240206-15:45:40|10=096|
2024-02-06 16:45:49.490 [33] [FixSender] (DEBUG) Receiving 8=FIX.4.4|9=62|35=0|34=330|49=DMA_HUB|56=FIXCLIENT1|52=20240206-15:45:49.461|10=039|
2024-02-06 16:46:10.136 [34] [FixSender] (DEBUG) Sending 8=FIX.4.4|9=58|35=0|49=FIXCLIENT1|56=DMA_HUB|34=328|52=20240206-15:46:10|10=095|
2024-02-06 16:46:19.443 [33] [FixSender] (DEBUG) Receiving 8=FIX.4.4|9=62|35=0|34=331|49=DMA_HUB|56=FIXCLIENT1|52=20240206-15:46:19.443|10=038|
2024-02-06 16:46:40.138 [34] [FixSender] (DEBUG) Sending 8=FIX.4.4|9=58|35=0|49=FIXCLIENT1|56=DMA_HUB|34=329|52=20240206-15:46:40|10=099|
2024-02-06 16:46:49.430 [33] [FixSender] (DEBUG) Receiving 8=FIX.4.4|9=62|35=0|34=332|49=DMA_HUB|56=FIXCLIENT1|52=20240206-15:46:49.396|10=049|
2024-02-06 16:47:10.139 [34] [FixSender] (DEBUG) Sending 8=FIX.4.4|9=58|35=0|49=FIXCLIENT1|56=DMA_HUB|34=330|52=20240206-15:47:10|10=089|
2024-02-06 16:47:19.347 [33] [FixSender] (DEBUG) Receiving 8=FIX.4.4|9=62|35=0|34=333|49=DMA_HUB|56=FIXCLIENT1|52=20240206-15:47:19.346|10=043|
2024-02-06 16:47:40.140 [34] [FixSender] (DEBUG) Sending 8=FIX.4.4|9=58|35=0|49=FIXCLIENT1|56=DMA_HUB|34=331|52=20240206-15:47:40|10=093|
2024-02-06 16:47:49.300 [33] [FixSender] (DEBUG) Receiving 8=FIX.4.4|9=62|35=0|34=334|49=DMA_HUB|56=FIXCLIENT1|52=20240206-15:47:49.299|10=054|
2024-02-06 16:48:10.142 [34] [FixSender] (DEBUG) Sending 8=FIX.4.4|9=58|35=0|49=FIXCLIENT1|56=DMA_HUB|34=332|52=20240206-15:48:10|10=092|
2024-02-06 16:48:19.252 [33] [FixSender] (DEBUG) Receiving 8=FIX.4.4|9=62|35=0|34=335|49=DMA_HUB|56=FIXCLIENT1|52=20240206-15:48:19.251|10=041|
2024-02-06 16:48:40.145 [34] [FixSender] (DEBUG) Sending 8=FIX.4.4|9=58|35=0|49=FIXCLIENT1|56=DMA_HUB|34=333|52=20240206-15:48:40|10=096|
2024-02-06 16:48:49.203 [33] [FixSender] (DEBUG) Receiving 8=FIX.4.4|9=62|35=0|34=336|49=DMA_HUB|56=FIXCLIENT1|52=20240206-15:48:49.202|10=041|
2024-02-06 16:49:10.150 [34] [FixSender] (DEBUG) Sending 8=FIX.4.4|9=58|35=0|49=FIXCLIENT1|56=DMA_HUB|34=334|52=20240206-15:49:10|10=095|
2024-02-06 16:49:19.156 [33] [FixSender] (DEBUG) Receiving 8=FIX.4.4|9=62|35=0|34=337|49=DMA_HUB|56=FIXCLIENT1|52=20240206-15:49:19.155|10=047|
2024-02-06 16:49:40.152 [34] [FixSender] (DEBUG) Sending 8=FIX.4.4|9=58|35=0|49=FIXCLIENT1|56=DMA_HUB|34=335|52=20240206-15:49:40|10=099|
2024-02-06 16:49:49.109 [33] [FixSender] (DEBUG) Receiving 8=FIX.4.4|9=62|35=0|34=338|49=DMA_HUB|56=FIXCLIENT1|52=20240206-15:49:49.108|10=049|
2024-02-06 16:50:10.155 [34] [FixSender] (DEBUG) Sending 8=FIX.4.4|9=58|35=0|49=FIXCLIENT1|56=DMA_HUB|34=336|52=20240206-15:50:10|10=089|
2024-02-06 16:50:19.058 [33] [FixSender] (DEBUG) Receiving 8=FIX.4.4|9=62|35=0|34=339|49=DMA_HUB|56=FIXCLIENT1|52=20240206-15:50:19.058|10=043|
2024-02-06 16:50:40.157 [34] [FixSender] (DEBUG) Sending 8=FIX.4.4|9=58|35=0|49=FIXCLIENT1|56=DMA_HUB|34=337|52=20240206-15:50:40|10=093|
2024-02-06 16:50:49.012 [33] [FixSender] (DEBUG) Receiving 8=FIX.4.4|9=62|35=0|34=340|49=DMA_HUB|56=FIXCLIENT1|52=20240206-15:50:49.011|10=027|
2024-02-06 16:51:10.159 [34] [FixSender] (DEBUG) Sending 8=FIX.4.4|9=58|35=0|49=FIXCLIENT1|56=DMA_HUB|34=338|52=20240206-15:51:10|10=092|
2024-02-06 16:51:18.962 [33] [FixSender] (DEBUG) Receiving 8=FIX.4.4|9=62|35=0|34=341|49=DMA_HUB|56=FIXCLIENT1|52=20240206-15:51:18.962|10=040|
2024-02-06 16:51:40.160 [34] [FixSender] (DEBUG) Sending 8=FIX.4.4|9=58|35=0|49=FIXCLIENT1|56=DMA_HUB|34=339|52=20240206-15:51:40|10=096|
2024-02-06 16:51:48.914 [33] [FixSender] (DEBUG) Receiving 8=FIX.4.4|9=62|35=0|34=342|49=DMA_HUB|56=FIXCLIENT1|52=20240206-15:51:48.914|10=041|
2024-02-06 16:52:10.160 [34] [FixSender] (DEBUG) Sending 8=FIX.4.4|9=58|35=0|49=FIXCLIENT1|56=DMA_HUB|34=340|52=20240206-15:52:10|10=086|
2024-02-06 16:52:18.869 [33] [FixSender] (DEBUG) Receiving 8=FIX.4.4|9=62|35=0|34=343|49=DMA_HUB|56=FIXCLIENT1|52=20240206-15:52:18.867|10=047|
2024-02-06 16:52:40.172 [34] [FixSender] (DEBUG) Sending 8=FIX.4.4|9=58|35=0|49=FIXCLIENT1|56=DMA_HUB|34=341|52=20240206-15:52:40|10=090|
2024-02-06 16:52:48.819 [33] [FixSender] (DEBUG) Receiving 8=FIX.4.4|9=62|35=0|34=344|49=DMA_HUB|56=FIXCLIENT1|52=20240206-15:52:48.819|10=048|
2024-02-06 16:53:10.186 [34] [FixSender] (DEBUG) Sending 8=FIX.4.4|9=58|35=0|49=FIXCLIENT1|56=DMA_HUB|34=342|52=20240206-15:53:10|10=089|
2024-02-06 16:53:18.772 [33] [FixSender] (DEBUG) Receiving 8=FIX.4.4|9=62|35=0|34=345|49=DMA_HUB|56=FIXCLIENT1|52=20240206-15:53:18.771|10=044|
2024-02-06 16:53:40.201 [34] [FixSender] (DEBUG) Sending 8=FIX.4.4|9=58|35=0|49=FIXCLIENT1|56=DMA_HUB|34=343|52=20240206-15:53:40|10=093|
2024-02-06 16:53:48.723 [33] [FixSender] (DEBUG) Receiving 8=FIX.4.4|9=62|35=0|34=346|49=DMA_HUB|56=FIXCLIENT1|52=20240206-15:53:48.723|10=045|
2024-02-06 16:54:10.205 [34] [FixSender] (DEBUG) Sending 8=FIX.4.4|9=58|35=0|49=FIXCLIENT1|56=DMA_HUB|34=344|52=20240206-15:54:10|10=092|
2024-02-06 16:54:18.676 [33] [FixSender] (DEBUG) Receiving 8=FIX.4.4|9=62|35=0|34=347|49=DMA_HUB|56=FIXCLIENT1|52=20240206-15:54:18.675|10=050|
2024-02-06 16:54:40.217 [34] [FixSender] (DEBUG) Sending 8=FIX.4.4|9=58|35=0|49=FIXCLIENT1|56=DMA_HUB|34=345|52=20240206-15:54:40|10=096|
2024-02-06 16:54:48.627 [33] [FixSender] (DEBUG) Receiving 8=FIX.4.4|9=62|35=0|34=348|49=DMA_HUB|56=FIXCLIENT1|52=20240206-15:54:48.627|10=051|
2024-02-06 16:55:10.232 [34] [FixSender] (DEBUG) Sending 8=FIX.4.4|9=58|35=0|49=FIXCLIENT1|56=DMA_HUB|34=346|52=20240206-15:55:10|10=095|
2024-02-06 16:55:18.579 [33] [FixSender] (DEBUG) Receiving 8=FIX.4.4|9=62|35=0|34=349|49=DMA_HUB|56=FIXCLIENT1|52=20240206-15:55:18.579|10=056|
2024-02-06 16:55:40.241 [34] [FixSender] (DEBUG) Sending 8=FIX.4.4|9=58|35=0|49=FIXCLIENT1|56=DMA_HUB|34=347|52=20240206-15:55:40|10=099|
2024-02-06 16:55:48.531 [33] [FixSender] (DEBUG) Receiving 8=FIX.4.4|9=62|35=0|34=350|49=DMA_HUB|56=FIXCLIENT1|52=20240206-15:55:48.531|10=039|
2024-02-06 16:56:10.246 [34] [FixSender] (DEBUG) Sending 8=FIX.4.4|9=58|35=0|49=FIXCLIENT1|56=DMA_HUB|34=348|52=20240206-15:56:10|10=098|
2024-02-06 16:56:18.482 [33] [FixSender] (DEBUG) Receiving 8=FIX.4.4|9=62|35=0|34=351|49=DMA_HUB|56=FIXCLIENT1|52=20240206-15:56:18.482|10=043|
2024-02-06 16:56:40.257 [34] [FixSender] (DEBUG) Sending 8=FIX.4.4|9=58|35=0|49=FIXCLIENT1|56=DMA_HUB|34=349|52=20240206-15:56:40|10=102|
2024-02-06 16:56:48.435 [33] [FixSender] (DEBUG) Receiving 8=FIX.4.4|9=62|35=0|34=352|49=DMA_HUB|56=FIXCLIENT1|52=20240206-15:56:48.435|10=045|
