2024-02-02 15:02:48.130 [1] [Fixsender] (INFO) (c) 2001-2011 ullink SAS. FixSender. Release 1.11.
2024-02-02 15:02:51.990 [29] [FixSender] (INFO) try to connect to : localhost port :12345
2024-02-02 15:02:52.011 [29] [FixSender] (INFO) physical cnx initiated
2024-02-02 15:02:52.025 [29] [FixSender] (DEBUG) Sending 8=FIX.4.4|9=88|35=A|49=FIXCLIENT1|56=DMA_HUB|34=685|52=20240202-14:02:52|98=0|108=30|95=9|96=null/null|10=194|
2024-02-02 15:02:52.030 [29] [FixSender] (DEBUG) Receiving 8=FIX.4.4|9=72|35=A|34=1|49=DMA_HUB|56=FIXCLIENT1|52=20240202-14:02:52.027|108=30|98=0|10=217|
2024-02-02 15:02:52.031 [29] [FixSender] (DEBUG) Sending 8=FIX.4.4|9=110|35=5|49=FIXCLIENT1|56=DMA_HUB|34=686|52=20240202-14:02:52|58=MsgSeqNum expected 688, but MsgSeqNum received 1|10=219|
2024-02-02 15:02:52.033 [29] [FixSender] (INFO) physical cnx finished Connection reset by peer
2024-02-02 15:02:52.033 [29] [FixSender] (WARNING) Disconnected
2024-02-02 15:02:53.897 [33] [FixSender] (INFO) try to connect to : localhost port :12345
2024-02-02 15:02:53.899 [33] [FixSender] (INFO) physical cnx initiated
2024-02-02 15:02:53.901 [33] [FixSender] (DEBUG) Sending 8=FIX.4.4|9=86|35=A|49=FIXCLIENT1|56=DMA_HUB|34=1|52=20240202-14:02:53|98=0|108=30|95=9|96=null/null|10=079|
2024-02-02 15:02:53.904 [33] [FixSender] (DEBUG) Receiving 8=FIX.4.4|9=72|35=A|34=4|49=DMA_HUB|56=FIXCLIENT1|52=20240202-14:02:53.902|108=30|98=0|10=223|
2024-02-02 15:02:53.905 [33] [FixSender] (WARNING) The Fix connection is open...
2024-02-02 15:02:53.907 [33] [FixSender] (DEBUG) Sending 8=FIX.4.4|9=65|35=2|49=FIXCLIENT1|56=DMA_HUB|34=2|52=20240202-14:02:53|7=1|16=0|10=105|
2024-02-02 15:02:53.910 [33] [FixSender] (DEBUG) Receiving 8=FIX.4.4|9=102|35=4|34=1|49=DMA_HUB|56=FIXCLIENT1|52=20240202-14:02:53.910|43=Y|122=20240202-14:02:53.910|36=5|123=Y|10=221|
2024-02-02 15:02:55.299 [36] [FixSender] (DEBUG) Sending 8=FIX.4.4|9=192|35=D|49=FIXCLIENT1|56=DMA_HUB|34=3|52=20240202-14:02:55|21=1|11=HS_17068825750|38=3075|55=E:07G@XETR|54=1|60=20240202-14:02:55|40=2|59=0|44=197|48=US3390411052|22=4|15=EUR|207=XETR|1=bram_123|10=086|
2024-02-02 15:02:55.308 [33] [FixSender] (DEBUG) Receiving 8=FIX.4.4|9=234|35=8|34=5|49=DMA_HUB|56=FIXCLIENT1|52=20240202-14:02:55.306|11=HS_17068825750|37=FXRH3kWRQ|54=1|40=2|59=0|17=202402021|150=A|39=A|38=3075|151=3075|14=0|6=0|44=197|60=20240202-14:02:55.000|22=4|48=US3390411052|207=XETR|15=EUR|55=[N/A]|10=178|
2024-02-02 15:03:23.908 [33] [FixSender] (DEBUG) Receiving 8=FIX.4.4|9=60|35=0|34=6|49=DMA_HUB|56=FIXCLIENT1|52=20240202-14:03:23.907|10=183|
2024-02-02 15:03:25.299 [34] [FixSender] (DEBUG) Sending 8=FIX.4.4|9=56|35=0|49=FIXCLIENT1|56=DMA_HUB|34=4|52=20240202-14:03:25|10=238|
2024-02-02 15:03:53.858 [33] [FixSender] (DEBUG) Receiving 8=FIX.4.4|9=60|35=0|34=7|49=DMA_HUB|56=FIXCLIENT1|52=20240202-14:03:53.857|10=191|
2024-02-02 15:03:55.309 [34] [FixSender] (DEBUG) Sending 8=FIX.4.4|9=56|35=0|49=FIXCLIENT1|56=DMA_HUB|34=5|52=20240202-14:03:55|10=242|
2024-02-02 15:04:23.814 [33] [FixSender] (DEBUG) Receiving 8=FIX.4.4|9=60|35=0|34=8|49=DMA_HUB|56=FIXCLIENT1|52=20240202-14:04:23.813|10=182|
2024-02-02 15:04:25.313 [34] [FixSender] (DEBUG) Sending 8=FIX.4.4|9=56|35=0|49=FIXCLIENT1|56=DMA_HUB|34=6|52=20240202-14:04:25|10=241|
2024-02-02 15:04:53.770 [33] [FixSender] (DEBUG) Receiving 8=FIX.4.4|9=60|35=0|34=9|49=DMA_HUB|56=FIXCLIENT1|52=20240202-14:04:53.769|10=196|
2024-02-02 15:04:55.315 [34] [FixSender] (DEBUG) Sending 8=FIX.4.4|9=56|35=0|49=FIXCLIENT1|56=DMA_HUB|34=7|52=20240202-14:04:55|10=245|
2024-02-02 15:05:23.723 [33] [FixSender] (DEBUG) Receiving 8=FIX.4.4|9=61|35=0|34=10|49=DMA_HUB|56=FIXCLIENT1|52=20240202-14:05:23.722|10=224|
2024-02-02 15:05:25.316 [34] [FixSender] (DEBUG) Sending 8=FIX.4.4|9=56|35=0|49=FIXCLIENT1|56=DMA_HUB|34=8|52=20240202-14:05:25|10=244|
2024-02-02 15:05:53.735 [33] [FixSender] (DEBUG) Receiving 8=FIX.4.4|9=61|35=0|34=11|49=DMA_HUB|56=FIXCLIENT1|52=20240202-14:05:53.734|10=231|
2024-02-02 15:05:55.319 [34] [FixSender] (DEBUG) Sending 8=FIX.4.4|9=56|35=0|49=FIXCLIENT1|56=DMA_HUB|34=9|52=20240202-14:05:55|10=248|
2024-02-02 15:06:23.680 [33] [FixSender] (DEBUG) Receiving 8=FIX.4.4|9=61|35=0|34=12|49=DMA_HUB|56=FIXCLIENT1|52=20240202-14:06:23.679|10=238|
2024-02-02 15:06:25.320 [34] [FixSender] (DEBUG) Sending 8=FIX.4.4|9=57|35=0|49=FIXCLIENT1|56=DMA_HUB|34=10|52=20240202-14:06:25|10=031|
2024-02-02 15:06:53.637 [33] [FixSender] (DEBUG) Receiving 8=FIX.4.4|9=61|35=0|34=13|49=DMA_HUB|56=FIXCLIENT1|52=20240202-14:06:53.635|10=234|
2024-02-02 15:06:55.321 [34] [FixSender] (DEBUG) Sending 8=FIX.4.4|9=57|35=0|49=FIXCLIENT1|56=DMA_HUB|34=11|52=20240202-14:06:55|10=035|
2024-02-02 15:07:23.591 [33] [FixSender] (DEBUG) Receiving 8=FIX.4.4|9=61|35=0|34=14|49=DMA_HUB|56=FIXCLIENT1|52=20240202-14:07:23.590|10=233|
2024-02-02 15:07:25.322 [34] [FixSender] (DEBUG) Sending 8=FIX.4.4|9=57|35=0|49=FIXCLIENT1|56=DMA_HUB|34=12|52=20240202-14:07:25|10=034|
2024-02-02 15:07:53.544 [33] [FixSender] (DEBUG) Receiving 8=FIX.4.4|9=61|35=0|34=15|49=DMA_HUB|56=FIXCLIENT1|52=20240202-14:07:53.543|10=235|
2024-02-02 15:07:55.323 [34] [FixSender] (DEBUG) Sending 8=FIX.4.4|9=57|35=0|49=FIXCLIENT1|56=DMA_HUB|34=13|52=20240202-14:07:55|10=038|
2024-02-02 15:08:23.497 [33] [FixSender] (DEBUG) Receiving 8=FIX.4.4|9=61|35=0|34=16|49=DMA_HUB|56=FIXCLIENT1|52=20240202-14:08:23.496|10=241|
2024-02-02 15:08:25.324 [34] [FixSender] (DEBUG) Sending 8=FIX.4.4|9=57|35=0|49=FIXCLIENT1|56=DMA_HUB|34=14|52=20240202-14:08:25|10=037|
2024-02-02 15:08:53.441 [33] [FixSender] (DEBUG) Receiving 8=FIX.4.4|9=61|35=0|34=17|49=DMA_HUB|56=FIXCLIENT1|52=20240202-14:08:53.440|10=234|
2024-02-02 15:08:55.325 [34] [FixSender] (DEBUG) Sending 8=FIX.4.4|9=57|35=0|49=FIXCLIENT1|56=DMA_HUB|34=15|52=20240202-14:08:55|10=041|
2024-02-02 15:09:23.401 [33] [FixSender] (DEBUG) Receiving 8=FIX.4.4|9=61|35=0|34=18|49=DMA_HUB|56=FIXCLIENT1|52=20240202-14:09:23.401|10=230|
2024-02-02 15:09:25.327 [34] [FixSender] (DEBUG) Sending 8=FIX.4.4|9=57|35=0|49=FIXCLIENT1|56=DMA_HUB|34=16|52=20240202-14:09:25|10=040|
2024-02-02 15:09:53.352 [33] [FixSender] (DEBUG) Receiving 8=FIX.4.4|9=61|35=0|34=19|49=DMA_HUB|56=FIXCLIENT1|52=20240202-14:09:53.351|10=238|
2024-02-02 15:09:55.331 [34] [FixSender] (DEBUG) Sending 8=FIX.4.4|9=57|35=0|49=FIXCLIENT1|56=DMA_HUB|34=17|52=20240202-14:09:55|10=044|
2024-02-02 15:10:23.295 [33] [FixSender] (DEBUG) Receiving 8=FIX.4.4|9=61|35=0|34=20|49=DMA_HUB|56=FIXCLIENT1|52=20240202-14:10:23.295|10=226|
2024-02-02 15:10:25.331 [34] [FixSender] (DEBUG) Sending 8=FIX.4.4|9=57|35=0|49=FIXCLIENT1|56=DMA_HUB|34=18|52=20240202-14:10:25|10=034|
2024-02-02 15:10:53.260 [33] [FixSender] (DEBUG) Receiving 8=FIX.4.4|9=61|35=0|34=21|49=DMA_HUB|56=FIXCLIENT1|52=20240202-14:10:53.259|10=230|
2024-02-02 15:10:55.333 [34] [FixSender] (DEBUG) Sending 8=FIX.4.4|9=57|35=0|49=FIXCLIENT1|56=DMA_HUB|34=19|52=20240202-14:10:55|10=038|
2024-02-02 15:11:23.209 [33] [FixSender] (DEBUG) Receiving 8=FIX.4.4|9=61|35=0|34=22|49=DMA_HUB|56=FIXCLIENT1|52=20240202-14:11:23.208|10=223|
2024-02-02 15:11:25.334 [34] [FixSender] (DEBUG) Sending 8=FIX.4.4|9=57|35=0|49=FIXCLIENT1|56=DMA_HUB|34=20|52=20240202-14:11:25|10=028|
2024-02-02 15:11:53.154 [33] [FixSender] (DEBUG) Receiving 8=FIX.4.4|9=61|35=0|34=23|49=DMA_HUB|56=FIXCLIENT1|52=20240202-14:11:53.153|10=226|
2024-02-02 15:11:55.336 [34] [FixSender] (DEBUG) Sending 8=FIX.4.4|9=57|35=0|49=FIXCLIENT1|56=DMA_HUB|34=21|52=20240202-14:11:55|10=032|
2024-02-02 15:12:23.108 [33] [FixSender] (DEBUG) Receiving 8=FIX.4.4|9=61|35=0|34=24|49=DMA_HUB|56=FIXCLIENT1|52=20240202-14:12:23.106|10=223|
2024-02-02 15:12:25.351 [34] [FixSender] (DEBUG) Sending 8=FIX.4.4|9=57|35=0|49=FIXCLIENT1|56=DMA_HUB|34=22|52=20240202-14:12:25|10=031|
2024-02-02 15:12:53.133 [33] [FixSender] (DEBUG) Receiving 8=FIX.4.4|9=61|35=0|34=25|49=DMA_HUB|56=FIXCLIENT1|52=20240202-14:12:53.133|10=227|
2024-02-02 15:12:55.366 [34] [FixSender] (DEBUG) Sending 8=FIX.4.4|9=57|35=0|49=FIXCLIENT1|56=DMA_HUB|34=23|52=20240202-14:12:55|10=035|
2024-02-02 15:13:23.077 [33] [FixSender] (DEBUG) Receiving 8=FIX.4.4|9=61|35=0|34=26|49=DMA_HUB|56=FIXCLIENT1|52=20240202-14:13:23.076|10=232|
2024-02-02 15:13:25.370 [34] [FixSender] (DEBUG) Sending 8=FIX.4.4|9=57|35=0|49=FIXCLIENT1|56=DMA_HUB|34=24|52=20240202-14:13:25|10=034|
2024-02-02 15:13:53.036 [33] [FixSender] (DEBUG) Receiving 8=FIX.4.4|9=61|35=0|34=27|49=DMA_HUB|56=FIXCLIENT1|52=20240202-14:13:53.036|10=232|
2024-02-02 15:13:55.379 [34] [FixSender] (DEBUG) Sending 8=FIX.4.4|9=57|35=0|49=FIXCLIENT1|56=DMA_HUB|34=25|52=20240202-14:13:55|10=038|
2024-02-02 15:14:22.982 [33] [FixSender] (DEBUG) Receiving 8=FIX.4.4|9=61|35=0|34=28|49=DMA_HUB|56=FIXCLIENT1|52=20240202-14:14:22.982|10=240|
2024-02-02 15:14:25.390 [34] [FixSender] (DEBUG) Sending 8=FIX.4.4|9=57|35=0|49=FIXCLIENT1|56=DMA_HUB|34=26|52=20240202-14:14:25|10=037|
2024-02-02 15:14:52.931 [33] [FixSender] (DEBUG) Receiving 8=FIX.4.4|9=61|35=0|34=29|49=DMA_HUB|56=FIXCLIENT1|52=20240202-14:14:52.930|10=237|
2024-02-02 15:14:55.398 [34] [FixSender] (DEBUG) Sending 8=FIX.4.4|9=57|35=0|49=FIXCLIENT1|56=DMA_HUB|34=27|52=20240202-14:14:55|10=041|
2024-02-02 15:15:22.893 [33] [FixSender] (DEBUG) Receiving 8=FIX.4.4|9=61|35=0|34=30|49=DMA_HUB|56=FIXCLIENT1|52=20240202-14:15:22.892|10=234|
2024-02-02 15:15:25.401 [34] [FixSender] (DEBUG) Sending 8=FIX.4.4|9=57|35=0|49=FIXCLIENT1|56=DMA_HUB|34=28|52=20240202-14:15:25|10=040|
2024-02-02 15:15:52.831 [33] [FixSender] (DEBUG) Receiving 8=FIX.4.4|9=61|35=0|34=31|49=DMA_HUB|56=FIXCLIENT1|52=20240202-14:15:52.831|10=231|
2024-02-02 15:15:55.412 [34] [FixSender] (DEBUG) Sending 8=FIX.4.4|9=57|35=0|49=FIXCLIENT1|56=DMA_HUB|34=29|52=20240202-14:15:55|10=044|
2024-02-02 15:16:22.786 [33] [FixSender] (DEBUG) Receiving 8=FIX.4.4|9=61|35=0|34=32|49=DMA_HUB|56=FIXCLIENT1|52=20240202-14:16:22.786|10=239|
2024-02-02 15:16:25.427 [34] [FixSender] (DEBUG) Sending 8=FIX.4.4|9=57|35=0|49=FIXCLIENT1|56=DMA_HUB|34=30|52=20240202-14:16:25|10=034|
2024-02-02 15:16:52.736 [33] [FixSender] (DEBUG) Receiving 8=FIX.4.4|9=61|35=0|34=33|49=DMA_HUB|56=FIXCLIENT1|52=20240202-14:16:52.736|10=238|
2024-02-02 15:16:55.439 [34] [FixSender] (DEBUG) Sending 8=FIX.4.4|9=57|35=0|49=FIXCLIENT1|56=DMA_HUB|34=31|52=20240202-14:16:55|10=038|
2024-02-02 15:17:22.700 [33] [FixSender] (DEBUG) Receiving 8=FIX.4.4|9=61|35=0|34=34|49=DMA_HUB|56=FIXCLIENT1|52=20240202-14:17:22.699|10=245|
2024-02-02 15:17:25.450 [34] [FixSender] (DEBUG) Sending 8=FIX.4.4|9=57|35=0|49=FIXCLIENT1|56=DMA_HUB|34=32|52=20240202-14:17:25|10=037|
2024-02-02 15:17:52.640 [33] [FixSender] (DEBUG) Receiving 8=FIX.4.4|9=61|35=0|34=35|49=DMA_HUB|56=FIXCLIENT1|52=20240202-14:17:52.639|10=243|
2024-02-02 15:17:55.459 [34] [FixSender] (DEBUG) Sending 8=FIX.4.4|9=57|35=0|49=FIXCLIENT1|56=DMA_HUB|34=33|52=20240202-14:17:55|10=041|
2024-02-02 15:18:22.603 [33] [FixSender] (DEBUG) Receiving 8=FIX.4.4|9=61|35=0|34=36|49=DMA_HUB|56=FIXCLIENT1|52=20240202-14:18:22.603|10=233|
2024-02-02 15:18:25.473 [34] [FixSender] (DEBUG) Sending 8=FIX.4.4|9=57|35=0|49=FIXCLIENT1|56=DMA_HUB|34=34|52=20240202-14:18:25|10=040|
2024-02-02 15:18:52.548 [33] [FixSender] (DEBUG) Receiving 8=FIX.4.4|9=61|35=0|34=37|49=DMA_HUB|56=FIXCLIENT1|52=20240202-14:18:52.547|10=244|
2024-02-02 15:18:55.487 [34] [FixSender] (DEBUG) Sending 8=FIX.4.4|9=57|35=0|49=FIXCLIENT1|56=DMA_HUB|34=35|52=20240202-14:18:55|10=044|
2024-02-02 15:19:22.502 [33] [FixSender] (DEBUG) Receiving 8=FIX.4.4|9=61|35=0|34=38|49=DMA_HUB|56=FIXCLIENT1|52=20240202-14:19:22.501|10=233|
2024-02-02 15:19:25.497 [34] [FixSender] (DEBUG) Sending 8=FIX.4.4|9=57|35=0|49=FIXCLIENT1|56=DMA_HUB|34=36|52=20240202-14:19:25|10=043|
2024-02-02 15:19:52.461 [33] [FixSender] (DEBUG) Receiving 8=FIX.4.4|9=61|35=0|34=39|49=DMA_HUB|56=FIXCLIENT1|52=20240202-14:19:52.461|10=242|
2024-02-02 15:19:55.507 [34] [FixSender] (DEBUG) Sending 8=FIX.4.4|9=57|35=0|49=FIXCLIENT1|56=DMA_HUB|34=37|52=20240202-14:19:55|10=047|
2024-02-02 15:20:22.409 [33] [FixSender] (DEBUG) Receiving 8=FIX.4.4|9=61|35=0|34=40|49=DMA_HUB|56=FIXCLIENT1|52=20240202-14:20:22.408|10=224|
2024-02-02 15:20:25.510 [34] [FixSender] (DEBUG) Sending 8=FIX.4.4|9=57|35=0|49=FIXCLIENT1|56=DMA_HUB|34=38|52=20240202-14:20:25|10=037|
2024-02-02 15:20:52.352 [33] [FixSender] (DEBUG) Receiving 8=FIX.4.4|9=61|35=0|34=41|49=DMA_HUB|56=FIXCLIENT1|52=20240202-14:20:52.351|10=225|
2024-02-02 15:20:55.523 [34] [FixSender] (DEBUG) Sending 8=FIX.4.4|9=57|35=0|49=FIXCLIENT1|56=DMA_HUB|34=39|52=20240202-14:20:55|10=041|
2024-02-02 15:21:22.304 [33] [FixSender] (DEBUG) Receiving 8=FIX.4.4|9=61|35=0|34=42|49=DMA_HUB|56=FIXCLIENT1|52=20240202-14:21:22.303|10=221|
2024-02-02 15:21:25.524 [34] [FixSender] (DEBUG) Sending 8=FIX.4.4|9=57|35=0|49=FIXCLIENT1|56=DMA_HUB|34=40|52=20240202-14:21:25|10=031|
2024-02-02 15:21:52.268 [33] [FixSender] (DEBUG) Receiving 8=FIX.4.4|9=61|35=0|34=43|49=DMA_HUB|56=FIXCLIENT1|52=20240202-14:21:52.267|10=234|
2024-02-02 15:21:55.527 [34] [FixSender] (DEBUG) Sending 8=FIX.4.4|9=57|35=0|49=FIXCLIENT1|56=DMA_HUB|34=41|52=20240202-14:21:55|10=035|
2024-02-02 15:22:22.214 [33] [FixSender] (DEBUG) Receiving 8=FIX.4.4|9=61|35=0|34=44|49=DMA_HUB|56=FIXCLIENT1|52=20240202-14:22:22.214|10=225|
2024-02-02 15:22:25.528 [34] [FixSender] (DEBUG) Sending 8=FIX.4.4|9=57|35=0|49=FIXCLIENT1|56=DMA_HUB|34=42|52=20240202-14:22:25|10=034|
2024-02-02 15:22:52.169 [33] [FixSender] (DEBUG) Receiving 8=FIX.4.4|9=61|35=0|34=45|49=DMA_HUB|56=FIXCLIENT1|52=20240202-14:22:52.168|10=237|
2024-02-02 15:22:55.531 [34] [FixSender] (DEBUG) Sending 8=FIX.4.4|9=57|35=0|49=FIXCLIENT1|56=DMA_HUB|34=43|52=20240202-14:22:55|10=038|
2024-02-02 15:23:22.120 [33] [FixSender] (DEBUG) Receiving 8=FIX.4.4|9=61|35=0|34=46|49=DMA_HUB|56=FIXCLIENT1|52=20240202-14:23:22.119|10=232|
2024-02-02 15:23:25.534 [34] [FixSender] (DEBUG) Sending 8=FIX.4.4|9=57|35=0|49=FIXCLIENT1|56=DMA_HUB|34=44|52=20240202-14:23:25|10=037|
2024-02-02 15:23:52.073 [33] [FixSender] (DEBUG) Receiving 8=FIX.4.4|9=61|35=0|34=47|49=DMA_HUB|56=FIXCLIENT1|52=20240202-14:23:52.073|10=235|
2024-02-02 15:23:55.535 [34] [FixSender] (DEBUG) Sending 8=FIX.4.4|9=57|35=0|49=FIXCLIENT1|56=DMA_HUB|34=45|52=20240202-14:23:55|10=041|
2024-02-02 15:24:22.023 [33] [FixSender] (DEBUG) Receiving 8=FIX.4.4|9=61|35=0|34=48|49=DMA_HUB|56=FIXCLIENT1|52=20240202-14:24:22.023|10=229|
2024-02-02 15:24:25.537 [34] [FixSender] (DEBUG) Sending 8=FIX.4.4|9=57|35=0|49=FIXCLIENT1|56=DMA_HUB|34=46|52=20240202-14:24:25|10=040|
2024-02-02 15:24:51.968 [33] [FixSender] (DEBUG) Receiving 8=FIX.4.4|9=61|35=0|34=49|49=DMA_HUB|56=FIXCLIENT1|52=20240202-14:24:51.968|10=250|
2024-02-02 15:24:55.543 [34] [FixSender] (DEBUG) Sending 8=FIX.4.4|9=57|35=0|49=FIXCLIENT1|56=DMA_HUB|34=47|52=20240202-14:24:55|10=044|
2024-02-02 15:25:21.923 [33] [FixSender] (DEBUG) Receiving 8=FIX.4.4|9=61|35=0|34=50|49=DMA_HUB|56=FIXCLIENT1|52=20240202-14:25:21.923|10=231|
2024-02-02 15:25:25.546 [34] [FixSender] (DEBUG) Sending 8=FIX.4.4|9=57|35=0|49=FIXCLIENT1|56=DMA_HUB|34=48|52=20240202-14:25:25|10=043|
2024-02-02 15:25:51.877 [33] [FixSender] (DEBUG) Receiving 8=FIX.4.4|9=61|35=0|34=51|49=DMA_HUB|56=FIXCLIENT1|52=20240202-14:25:51.876|10=242|
2024-02-02 15:25:55.548 [34] [FixSender] (DEBUG) Sending 8=FIX.4.4|9=57|35=0|49=FIXCLIENT1|56=DMA_HUB|34=49|52=20240202-14:25:55|10=047|
2024-02-02 15:26:21.837 [33] [FixSender] (DEBUG) Receiving 8=FIX.4.4|9=61|35=0|34=52|49=DMA_HUB|56=FIXCLIENT1|52=20240202-14:26:21.836|10=237|
2024-02-02 15:26:25.551 [34] [FixSender] (DEBUG) Sending 8=FIX.4.4|9=57|35=0|49=FIXCLIENT1|56=DMA_HUB|34=50|52=20240202-14:26:25|10=037|
2024-02-02 15:26:51.779 [33] [FixSender] (DEBUG) Receiving 8=FIX.4.4|9=61|35=0|34=53|49=DMA_HUB|56=FIXCLIENT1|52=20240202-14:26:51.778|10=246|
2024-02-02 15:26:55.552 [34] [FixSender] (DEBUG) Sending 8=FIX.4.4|9=57|35=0|49=FIXCLIENT1|56=DMA_HUB|34=51|52=20240202-14:26:55|10=041|
2024-02-02 15:27:21.739 [33] [FixSender] (DEBUG) Receiving 8=FIX.4.4|9=61|35=0|34=54|49=DMA_HUB|56=FIXCLIENT1|52=20240202-14:27:21.738|10=241|
2024-02-02 15:27:25.552 [34] [FixSender] (DEBUG) Sending 8=FIX.4.4|9=57|35=0|49=FIXCLIENT1|56=DMA_HUB|34=52|52=20240202-14:27:25|10=040|
2024-02-02 15:27:51.682 [33] [FixSender] (DEBUG) Receiving 8=FIX.4.4|9=61|35=0|34=55|49=DMA_HUB|56=FIXCLIENT1|52=20240202-14:27:51.681|10=242|
2024-02-02 15:27:55.554 [34] [FixSender] (DEBUG) Sending 8=FIX.4.4|9=57|35=0|49=FIXCLIENT1|56=DMA_HUB|34=53|52=20240202-14:27:55|10=044|
2024-02-02 15:28:21.645 [33] [FixSender] (DEBUG) Receiving 8=FIX.4.4|9=61|35=0|34=56|49=DMA_HUB|56=FIXCLIENT1|52=20240202-14:28:21.645|10=241|
2024-02-02 15:28:25.555 [34] [FixSender] (DEBUG) Sending 8=FIX.4.4|9=57|35=0|49=FIXCLIENT1|56=DMA_HUB|34=54|52=20240202-14:28:25|10=043|
2024-02-02 15:28:51.587 [33] [FixSender] (DEBUG) Receiving 8=FIX.4.4|9=61|35=0|34=57|49=DMA_HUB|56=FIXCLIENT1|52=20240202-14:28:51.586|10=249|
2024-02-02 15:28:55.559 [34] [FixSender] (DEBUG) Sending 8=FIX.4.4|9=57|35=0|49=FIXCLIENT1|56=DMA_HUB|34=55|52=20240202-14:28:55|10=047|
2024-02-02 15:29:21.536 [33] [FixSender] (DEBUG) Receiving 8=FIX.4.4|9=61|35=0|34=58|49=DMA_HUB|56=FIXCLIENT1|52=20240202-14:29:21.535|10=242|
2024-02-02 15:29:25.562 [34] [FixSender] (DEBUG) Sending 8=FIX.4.4|9=57|35=0|49=FIXCLIENT1|56=DMA_HUB|34=56|52=20240202-14:29:25|10=046|
2024-02-02 15:29:51.489 [33] [FixSender] (DEBUG) Receiving 8=FIX.4.4|9=61|35=0|34=59|49=DMA_HUB|56=FIXCLIENT1|52=20240202-14:29:51.489|10=254|
2024-02-02 15:29:55.565 [34] [FixSender] (DEBUG) Sending 8=FIX.4.4|9=57|35=0|49=FIXCLIENT1|56=DMA_HUB|34=57|52=20240202-14:29:55|10=050|
2024-02-02 15:30:21.445 [33] [FixSender] (DEBUG) Receiving 8=FIX.4.4|9=61|35=0|34=60|49=DMA_HUB|56=FIXCLIENT1|52=20240202-14:30:21.445|10=227|
2024-02-02 15:30:25.566 [34] [FixSender] (DEBUG) Sending 8=FIX.4.4|9=57|35=0|49=FIXCLIENT1|56=DMA_HUB|34=58|52=20240202-14:30:25|10=040|
2024-02-02 15:30:51.397 [33] [FixSender] (DEBUG) Receiving 8=FIX.4.4|9=61|35=0|34=61|49=DMA_HUB|56=FIXCLIENT1|52=20240202-14:30:51.396|10=236|
2024-02-02 15:30:55.567 [34] [FixSender] (DEBUG) Sending 8=FIX.4.4|9=57|35=0|49=FIXCLIENT1|56=DMA_HUB|34=59|52=20240202-14:30:55|10=044|
2024-02-02 15:31:21.357 [33] [FixSender] (DEBUG) Receiving 8=FIX.4.4|9=61|35=0|34=62|49=DMA_HUB|56=FIXCLIENT1|52=20240202-14:31:21.356|10=231|
2024-02-02 15:31:25.569 [34] [FixSender] (DEBUG) Sending 8=FIX.4.4|9=57|35=0|49=FIXCLIENT1|56=DMA_HUB|34=60|52=20240202-14:31:25|10=034|
2024-02-02 15:31:51.294 [33] [FixSender] (DEBUG) Receiving 8=FIX.4.4|9=61|35=0|34=63|49=DMA_HUB|56=FIXCLIENT1|52=20240202-14:31:51.294|10=236|
2024-02-02 15:31:55.573 [34] [FixSender] (DEBUG) Sending 8=FIX.4.4|9=57|35=0|49=FIXCLIENT1|56=DMA_HUB|34=61|52=20240202-14:31:55|10=038|
2024-02-02 15:32:21.259 [33] [FixSender] (DEBUG) Receiving 8=FIX.4.4|9=61|35=0|34=64|49=DMA_HUB|56=FIXCLIENT1|52=20240202-14:32:21.258|10=235|
2024-02-02 15:32:25.574 [34] [FixSender] (DEBUG) Sending 8=FIX.4.4|9=57|35=0|49=FIXCLIENT1|56=DMA_HUB|34=62|52=20240202-14:32:25|10=037|
2024-02-02 15:32:51.204 [33] [FixSender] (DEBUG) Receiving 8=FIX.4.4|9=61|35=0|34=65|49=DMA_HUB|56=FIXCLIENT1|52=20240202-14:32:51.204|10=230|
2024-02-02 15:32:55.575 [34] [FixSender] (DEBUG) Sending 8=FIX.4.4|9=57|35=0|49=FIXCLIENT1|56=DMA_HUB|34=63|52=20240202-14:32:55|10=041|
2024-02-02 15:33:21.188 [33] [FixSender] (DEBUG) Receiving 8=FIX.4.4|9=61|35=0|34=66|49=DMA_HUB|56=FIXCLIENT1|52=20240202-14:33:21.182|10=234|
2024-02-02 15:33:25.576 [34] [FixSender] (DEBUG) Sending 8=FIX.4.4|9=57|35=0|49=FIXCLIENT1|56=DMA_HUB|34=64|52=20240202-14:33:25|10=040|
2024-02-02 15:33:51.171 [33] [FixSender] (DEBUG) Receiving 8=FIX.4.4|9=61|35=0|34=67|49=DMA_HUB|56=FIXCLIENT1|52=20240202-14:33:51.169|10=243|
2024-02-02 15:33:55.577 [34] [FixSender] (DEBUG) Sending 8=FIX.4.4|9=57|35=0|49=FIXCLIENT1|56=DMA_HUB|34=65|52=20240202-14:33:55|10=044|
2024-02-02 15:34:21.129 [33] [FixSender] (DEBUG) Receiving 8=FIX.4.4|9=61|35=0|34=68|49=DMA_HUB|56=FIXCLIENT1|52=20240202-14:34:21.128|10=237|
2024-02-02 15:34:25.579 [34] [FixSender] (DEBUG) Sending 8=FIX.4.4|9=57|35=0|49=FIXCLIENT1|56=DMA_HUB|34=66|52=20240202-14:34:25|10=043|
2024-02-02 15:34:51.071 [33] [FixSender] (DEBUG) Receiving 8=FIX.4.4|9=61|35=0|34=69|49=DMA_HUB|56=FIXCLIENT1|52=20240202-14:34:51.071|10=238|
2024-02-02 15:34:55.579 [34] [FixSender] (DEBUG) Sending 8=FIX.4.4|9=57|35=0|49=FIXCLIENT1|56=DMA_HUB|34=67|52=20240202-14:34:55|10=047|
2024-02-02 15:35:21.031 [33] [FixSender] (DEBUG) Receiving 8=FIX.4.4|9=61|35=0|34=70|49=DMA_HUB|56=FIXCLIENT1|52=20240202-14:35:21.031|10=224|
2024-02-02 15:35:25.580 [34] [FixSender] (DEBUG) Sending 8=FIX.4.4|9=57|35=0|49=FIXCLIENT1|56=DMA_HUB|34=68|52=20240202-14:35:25|10=046|
2024-02-02 15:35:50.986 [33] [FixSender] (DEBUG) Receiving 8=FIX.4.4|9=61|35=0|34=71|49=DMA_HUB|56=FIXCLIENT1|52=20240202-14:35:50.985|10=245|
2024-02-02 15:35:55.581 [34] [FixSender] (DEBUG) Sending 8=FIX.4.4|9=57|35=0|49=FIXCLIENT1|56=DMA_HUB|34=69|52=20240202-14:35:55|10=050|
2024-02-02 15:36:20.943 [33] [FixSender] (DEBUG) Receiving 8=FIX.4.4|9=61|35=0|34=72|49=DMA_HUB|56=FIXCLIENT1|52=20240202-14:36:20.942|10=237|
2024-02-02 15:36:25.583 [34] [FixSender] (DEBUG) Sending 8=FIX.4.4|9=57|35=0|49=FIXCLIENT1|56=DMA_HUB|34=70|52=20240202-14:36:25|10=040|
2024-02-02 15:36:50.947 [33] [FixSender] (DEBUG) Receiving 8=FIX.4.4|9=61|35=0|34=73|49=DMA_HUB|56=FIXCLIENT1|52=20240202-14:36:50.946|10=245|
2024-02-02 15:36:55.587 [34] [FixSender] (DEBUG) Sending 8=FIX.4.4|9=57|35=0|49=FIXCLIENT1|56=DMA_HUB|34=71|52=20240202-14:36:55|10=044|
2024-02-02 15:37:20.906 [33] [FixSender] (DEBUG) Receiving 8=FIX.4.4|9=61|35=0|34=74|49=DMA_HUB|56=FIXCLIENT1|52=20240202-14:37:20.905|10=239|
2024-02-02 15:37:25.588 [34] [FixSender] (DEBUG) Sending 8=FIX.4.4|9=57|35=0|49=FIXCLIENT1|56=DMA_HUB|34=72|52=20240202-14:37:25|10=043|
2024-02-02 15:37:50.859 [33] [FixSender] (DEBUG) Receiving 8=FIX.4.4|9=61|35=0|34=75|49=DMA_HUB|56=FIXCLIENT1|52=20240202-14:37:50.859|10=251|
2024-02-02 15:37:55.590 [34] [FixSender] (DEBUG) Sending 8=FIX.4.4|9=57|35=0|49=FIXCLIENT1|56=DMA_HUB|34=73|52=20240202-14:37:55|10=047|
2024-02-02 15:38:20.809 [33] [FixSender] (DEBUG) Receiving 8=FIX.4.4|9=61|35=0|34=76|49=DMA_HUB|56=FIXCLIENT1|52=20240202-14:38:20.809|10=245|
2024-02-02 15:38:25.593 [34] [FixSender] (DEBUG) Sending 8=FIX.4.4|9=57|35=0|49=FIXCLIENT1|56=DMA_HUB|34=74|52=20240202-14:38:25|10=046|
2024-02-02 15:38:50.755 [33] [FixSender] (DEBUG) Receiving 8=FIX.4.4|9=61|35=0|34=77|49=DMA_HUB|56=FIXCLIENT1|52=20240202-14:38:50.755|10=249|
2024-02-02 15:38:55.597 [34] [FixSender] (DEBUG) Sending 8=FIX.4.4|9=57|35=0|49=FIXCLIENT1|56=DMA_HUB|34=75|52=20240202-14:38:55|10=050|
2024-02-02 15:39:20.714 [33] [FixSender] (DEBUG) Receiving 8=FIX.4.4|9=61|35=0|34=78|49=DMA_HUB|56=FIXCLIENT1|52=20240202-14:39:20.714|10=243|
2024-02-02 15:39:25.602 [34] [FixSender] (DEBUG) Sending 8=FIX.4.4|9=57|35=0|49=FIXCLIENT1|56=DMA_HUB|34=76|52=20240202-14:39:25|10=049|
2024-02-02 15:39:50.664 [33] [FixSender] (DEBUG) Receiving 8=FIX.4.4|9=61|35=0|34=79|49=DMA_HUB|56=FIXCLIENT1|52=20240202-14:39:50.664|10=251|
2024-02-02 15:39:55.605 [34] [FixSender] (DEBUG) Sending 8=FIX.4.4|9=57|35=0|49=FIXCLIENT1|56=DMA_HUB|34=77|52=20240202-14:39:55|10=053|
2024-02-02 15:40:20.627 [33] [FixSender] (DEBUG) Receiving 8=FIX.4.4|9=61|35=0|34=80|49=DMA_HUB|56=FIXCLIENT1|52=20240202-14:40:20.619|10=232|
2024-02-02 15:40:25.609 [34] [FixSender] (DEBUG) Sending 8=FIX.4.4|9=57|35=0|49=FIXCLIENT1|56=DMA_HUB|34=78|52=20240202-14:40:25|10=043|
2024-02-02 15:40:50.572 [33] [FixSender] (DEBUG) Receiving 8=FIX.4.4|9=61|35=0|34=81|49=DMA_HUB|56=FIXCLIENT1|52=20240202-14:40:50.570|10=232|
2024-02-02 15:40:55.612 [34] [FixSender] (DEBUG) Sending 8=FIX.4.4|9=57|35=0|49=FIXCLIENT1|56=DMA_HUB|34=79|52=20240202-14:40:55|10=047|
2024-02-02 15:41:20.515 [33] [FixSender] (DEBUG) Receiving 8=FIX.4.4|9=61|35=0|34=82|49=DMA_HUB|56=FIXCLIENT1|52=20240202-14:41:20.515|10=230|
2024-02-02 15:41:25.616 [34] [FixSender] (DEBUG) Sending 8=FIX.4.4|9=57|35=0|49=FIXCLIENT1|56=DMA_HUB|34=80|52=20240202-14:41:25|10=037|
2024-02-02 15:41:50.468 [33] [FixSender] (DEBUG) Receiving 8=FIX.4.4|9=61|35=0|34=83|49=DMA_HUB|56=FIXCLIENT1|52=20240202-14:41:50.467|10=240|
2024-02-02 15:41:55.619 [34] [FixSender] (DEBUG) Sending 8=FIX.4.4|9=57|35=0|49=FIXCLIENT1|56=DMA_HUB|34=81|52=20240202-14:41:55|10=041|
2024-02-02 15:42:20.415 [33] [FixSender] (DEBUG) Receiving 8=FIX.4.4|9=61|35=0|34=84|49=DMA_HUB|56=FIXCLIENT1|52=20240202-14:42:20.415|10=232|
2024-02-02 15:42:25.622 [34] [FixSender] (DEBUG) Sending 8=FIX.4.4|9=57|35=0|49=FIXCLIENT1|56=DMA_HUB|34=82|52=20240202-14:42:25|10=040|
2024-02-02 15:42:50.379 [33] [FixSender] (DEBUG) Receiving 8=FIX.4.4|9=61|35=0|34=85|49=DMA_HUB|56=FIXCLIENT1|52=20240202-14:42:50.379|10=245|
2024-02-02 15:42:55.625 [34] [FixSender] (DEBUG) Sending 8=FIX.4.4|9=57|35=0|49=FIXCLIENT1|56=DMA_HUB|34=83|52=20240202-14:42:55|10=044|
2024-02-02 15:43:20.328 [33] [FixSender] (DEBUG) Receiving 8=FIX.4.4|9=61|35=0|34=86|49=DMA_HUB|56=FIXCLIENT1|52=20240202-14:43:20.327|10=237|
2024-02-02 15:43:25.627 [34] [FixSender] (DEBUG) Sending 8=FIX.4.4|9=57|35=0|49=FIXCLIENT1|56=DMA_HUB|34=84|52=20240202-14:43:25|10=043|
2024-02-02 15:43:50.280 [33] [FixSender] (DEBUG) Receiving 8=FIX.4.4|9=61|35=0|34=87|49=DMA_HUB|56=FIXCLIENT1|52=20240202-14:43:50.279|10=247|
2024-02-02 15:43:55.631 [34] [FixSender] (DEBUG) Sending 8=FIX.4.4|9=57|35=0|49=FIXCLIENT1|56=DMA_HUB|34=85|52=20240202-14:43:55|10=047|
2024-02-02 15:44:20.237 [33] [FixSender] (DEBUG) Receiving 8=FIX.4.4|9=61|35=0|34=88|49=DMA_HUB|56=FIXCLIENT1|52=20240202-14:44:20.231|10=234|
2024-02-02 15:44:25.635 [34] [FixSender] (DEBUG) Sending 8=FIX.4.4|9=57|35=0|49=FIXCLIENT1|56=DMA_HUB|34=86|52=20240202-14:44:25|10=046|
2024-02-02 15:44:50.191 [33] [FixSender] (DEBUG) Receiving 8=FIX.4.4|9=61|35=0|34=89|49=DMA_HUB|56=FIXCLIENT1|52=20240202-14:44:50.190|10=242|
2024-02-02 15:44:55.638 [34] [FixSender] (DEBUG) Sending 8=FIX.4.4|9=57|35=0|49=FIXCLIENT1|56=DMA_HUB|34=87|52=20240202-14:44:55|10=050|
2024-02-02 15:45:20.139 [33] [FixSender] (DEBUG) Receiving 8=FIX.4.4|9=61|35=0|34=90|49=DMA_HUB|56=FIXCLIENT1|52=20240202-14:45:20.139|10=235|
2024-02-02 15:45:25.640 [34] [FixSender] (DEBUG) Sending 8=FIX.4.4|9=57|35=0|49=FIXCLIENT1|56=DMA_HUB|34=88|52=20240202-14:45:25|10=049|
2024-02-02 15:45:50.081 [33] [FixSender] (DEBUG) Receiving 8=FIX.4.4|9=61|35=0|34=91|49=DMA_HUB|56=FIXCLIENT1|52=20240202-14:45:50.081|10=235|
2024-02-02 15:45:55.642 [34] [FixSender] (DEBUG) Sending 8=FIX.4.4|9=57|35=0|49=FIXCLIENT1|56=DMA_HUB|34=89|52=20240202-14:45:55|10=053|
2024-02-02 15:46:20.038 [33] [FixSender] (DEBUG) Receiving 8=FIX.4.4|9=61|35=0|34=92|49=DMA_HUB|56=FIXCLIENT1|52=20240202-14:46:20.037|10=235|
2024-02-02 15:46:25.657 [34] [FixSender] (DEBUG) Sending 8=FIX.4.4|9=57|35=0|49=FIXCLIENT1|56=DMA_HUB|34=90|52=20240202-14:46:25|10=043|
2024-02-02 15:46:49.983 [33] [FixSender] (DEBUG) Receiving 8=FIX.4.4|9=61|35=0|34=93|49=DMA_HUB|56=FIXCLIENT1|52=20240202-14:46:49.983|10=001|
2024-02-02 15:46:55.661 [34] [FixSender] (DEBUG) Sending 8=FIX.4.4|9=57|35=0|49=FIXCLIENT1|56=DMA_HUB|34=91|52=20240202-14:46:55|10=047|
2024-02-02 15:47:19.938 [33] [FixSender] (DEBUG) Receiving 8=FIX.4.4|9=61|35=0|34=94|49=DMA_HUB|56=FIXCLIENT1|52=20240202-14:47:19.937|10=255|
2024-02-02 15:47:25.664 [34] [FixSender] (DEBUG) Sending 8=FIX.4.4|9=57|35=0|49=FIXCLIENT1|56=DMA_HUB|34=92|52=20240202-14:47:25|10=046|
2024-02-02 15:47:49.895 [33] [FixSender] (DEBUG) Receiving 8=FIX.4.4|9=61|35=0|34=95|49=DMA_HUB|56=FIXCLIENT1|52=20240202-14:47:49.895|10=006|
2024-02-02 15:47:55.665 [34] [FixSender] (DEBUG) Sending 8=FIX.4.4|9=57|35=0|49=FIXCLIENT1|56=DMA_HUB|34=93|52=20240202-14:47:55|10=050|
2024-02-02 15:48:19.851 [33] [FixSender] (DEBUG) Receiving 8=FIX.4.4|9=61|35=0|34=96|49=DMA_HUB|56=FIXCLIENT1|52=20240202-14:48:19.850|10=252|
2024-02-02 15:48:25.666 [34] [FixSender] (DEBUG) Sending 8=FIX.4.4|9=57|35=0|49=FIXCLIENT1|56=DMA_HUB|34=94|52=20240202-14:48:25|10=049|
2024-02-02 15:48:49.797 [33] [FixSender] (DEBUG) Receiving 8=FIX.4.4|9=61|35=0|34=97|49=DMA_HUB|56=FIXCLIENT1|52=20240202-14:48:49.797|10=010|
2024-02-02 15:48:55.669 [34] [FixSender] (DEBUG) Sending 8=FIX.4.4|9=57|35=0|49=FIXCLIENT1|56=DMA_HUB|34=95|52=20240202-14:48:55|10=053|
2024-02-02 15:49:19.744 [33] [FixSender] (DEBUG) Receiving 8=FIX.4.4|9=61|35=0|34=98|49=DMA_HUB|56=FIXCLIENT1|52=20240202-14:49:19.743|10=000|
2024-02-02 15:49:25.672 [34] [FixSender] (DEBUG) Sending 8=FIX.4.4|9=57|35=0|49=FIXCLIENT1|56=DMA_HUB|34=96|52=20240202-14:49:25|10=052|
2024-02-02 15:49:49.697 [33] [FixSender] (DEBUG) Receiving 8=FIX.4.4|9=61|35=0|34=99|49=DMA_HUB|56=FIXCLIENT1|52=20240202-14:49:49.697|10=012|
2024-02-02 15:49:55.675 [34] [FixSender] (DEBUG) Sending 8=FIX.4.4|9=57|35=0|49=FIXCLIENT1|56=DMA_HUB|34=97|52=20240202-14:49:55|10=056|
2024-02-02 15:50:19.659 [33] [FixSender] (DEBUG) Receiving 8=FIX.4.4|9=62|35=0|34=100|49=DMA_HUB|56=FIXCLIENT1|52=20240202-14:50:19.659|10=031|
2024-02-02 15:50:25.680 [34] [FixSender] (DEBUG) Sending 8=FIX.4.4|9=57|35=0|49=FIXCLIENT1|56=DMA_HUB|34=98|52=20240202-14:50:25|10=046|
2024-02-02 15:50:49.610 [33] [FixSender] (DEBUG) Receiving 8=FIX.4.4|9=62|35=0|34=101|49=DMA_HUB|56=FIXCLIENT1|52=20240202-14:50:49.609|10=030|
2024-02-02 15:50:55.686 [34] [FixSender] (DEBUG) Sending 8=FIX.4.4|9=57|35=0|49=FIXCLIENT1|56=DMA_HUB|34=99|52=20240202-14:50:55|10=050|
2024-02-02 15:51:19.560 [33] [FixSender] (DEBUG) Receiving 8=FIX.4.4|9=62|35=0|34=102|49=DMA_HUB|56=FIXCLIENT1|52=20240202-14:51:19.559|10=033|
2024-02-02 15:51:25.695 [34] [FixSender] (DEBUG) Sending 8=FIX.4.4|9=58|35=0|49=FIXCLIENT1|56=DMA_HUB|34=100|52=20240202-14:51:25|10=080|
2024-02-02 15:51:49.512 [33] [FixSender] (DEBUG) Receiving 8=FIX.4.4|9=62|35=0|34=103|49=DMA_HUB|56=FIXCLIENT1|52=20240202-14:51:49.512|10=026|
2024-02-02 15:51:55.703 [34] [FixSender] (DEBUG) Sending 8=FIX.4.4|9=58|35=0|49=FIXCLIENT1|56=DMA_HUB|34=101|52=20240202-14:51:55|10=084|
2024-02-02 15:52:19.454 [33] [FixSender] (DEBUG) Receiving 8=FIX.4.4|9=62|35=0|34=104|49=DMA_HUB|56=FIXCLIENT1|52=20240202-14:52:19.454|10=030|
2024-02-02 15:52:25.706 [34] [FixSender] (DEBUG) Sending 8=FIX.4.4|9=58|35=0|49=FIXCLIENT1|56=DMA_HUB|34=102|52=20240202-14:52:25|10=083|
2024-02-02 15:52:49.418 [33] [FixSender] (DEBUG) Receiving 8=FIX.4.4|9=62|35=0|34=105|49=DMA_HUB|56=FIXCLIENT1|52=20240202-14:52:49.418|10=034|
2024-02-02 15:52:55.707 [34] [FixSender] (DEBUG) Sending 8=FIX.4.4|9=58|35=0|49=FIXCLIENT1|56=DMA_HUB|34=103|52=20240202-14:52:55|10=087|
2024-02-02 15:53:19.375 [33] [FixSender] (DEBUG) Receiving 8=FIX.4.4|9=62|35=0|34=106|49=DMA_HUB|56=FIXCLIENT1|52=20240202-14:53:19.374|10=034|
2024-02-02 15:53:25.709 [34] [FixSender] (DEBUG) Sending 8=FIX.4.4|9=58|35=0|49=FIXCLIENT1|56=DMA_HUB|34=104|52=20240202-14:53:25|10=086|
2024-02-02 15:53:49.380 [33] [FixSender] (DEBUG) Receiving 8=FIX.4.4|9=62|35=0|34=107|49=DMA_HUB|56=FIXCLIENT1|52=20240202-14:53:49.379|10=043|
2024-02-02 15:53:55.712 [34] [FixSender] (DEBUG) Sending 8=FIX.4.4|9=58|35=0|49=FIXCLIENT1|56=DMA_HUB|34=105|52=20240202-14:53:55|10=090|
2024-02-02 15:54:19.339 [33] [FixSender] (DEBUG) Receiving 8=FIX.4.4|9=62|35=0|34=108|49=DMA_HUB|56=FIXCLIENT1|52=20240202-14:54:19.337|10=036|
2024-02-02 15:54:25.714 [34] [FixSender] (DEBUG) Sending 8=FIX.4.4|9=58|35=0|49=FIXCLIENT1|56=DMA_HUB|34=106|52=20240202-14:54:25|10=089|
2024-02-02 15:54:49.294 [33] [FixSender] (DEBUG) Receiving 8=FIX.4.4|9=62|35=0|34=109|49=DMA_HUB|56=FIXCLIENT1|52=20240202-14:54:49.293|10=041|
2024-02-02 15:54:55.716 [34] [FixSender] (DEBUG) Sending 8=FIX.4.4|9=58|35=0|49=FIXCLIENT1|56=DMA_HUB|34=107|52=20240202-14:54:55|10=093|
2024-02-02 15:55:19.240 [33] [FixSender] (DEBUG) Receiving 8=FIX.4.4|9=62|35=0|34=110|49=DMA_HUB|56=FIXCLIENT1|52=20240202-14:55:19.239|10=031|
2024-02-02 15:55:25.719 [34] [FixSender] (DEBUG) Sending 8=FIX.4.4|9=58|35=0|49=FIXCLIENT1|56=DMA_HUB|34=108|52=20240202-14:55:25|10=092|
2024-02-02 15:55:49.186 [33] [FixSender] (DEBUG) Receiving 8=FIX.4.4|9=62|35=0|34=111|49=DMA_HUB|56=FIXCLIENT1|52=20240202-14:55:49.186|10=036|
2024-02-02 15:55:55.720 [34] [FixSender] (DEBUG) Sending 8=FIX.4.4|9=58|35=0|49=FIXCLIENT1|56=DMA_HUB|34=109|52=20240202-14:55:55|10=096|
2024-02-02 15:56:19.134 [33] [FixSender] (DEBUG) Receiving 8=FIX.4.4|9=62|35=0|34=112|49=DMA_HUB|56=FIXCLIENT1|52=20240202-14:56:19.134|10=028|
2024-02-02 15:56:25.725 [34] [FixSender] (DEBUG) Sending 8=FIX.4.4|9=58|35=0|49=FIXCLIENT1|56=DMA_HUB|34=110|52=20240202-14:56:25|10=086|
2024-02-02 15:56:49.094 [33] [FixSender] (DEBUG) Receiving 8=FIX.4.4|9=62|35=0|34=113|49=DMA_HUB|56=FIXCLIENT1|52=20240202-14:56:49.094|10=037|
2024-02-02 15:56:55.727 [34] [FixSender] (DEBUG) Sending 8=FIX.4.4|9=58|35=0|49=FIXCLIENT1|56=DMA_HUB|34=111|52=20240202-14:56:55|10=090|
2024-02-02 15:57:19.042 [33] [FixSender] (DEBUG) Receiving 8=FIX.4.4|9=62|35=0|34=114|49=DMA_HUB|56=FIXCLIENT1|52=20240202-14:57:19.041|10=028|
2024-02-02 15:57:25.729 [34] [FixSender] (DEBUG) Sending 8=FIX.4.4|9=58|35=0|49=FIXCLIENT1|56=DMA_HUB|34=112|52=20240202-14:57:25|10=089|
2024-02-02 15:57:49.005 [33] [FixSender] (DEBUG) Receiving 8=FIX.4.4|9=62|35=0|34=115|49=DMA_HUB|56=FIXCLIENT1|52=20240202-14:57:49.004|10=031|
2024-02-02 15:57:55.730 [34] [FixSender] (DEBUG) Sending 8=FIX.4.4|9=58|35=0|49=FIXCLIENT1|56=DMA_HUB|34=113|52=20240202-14:57:55|10=093|
2024-02-02 15:58:18.960 [33] [FixSender] (DEBUG) Receiving 8=FIX.4.4|9=62|35=0|34=116|49=DMA_HUB|56=FIXCLIENT1|52=20240202-14:58:18.955|10=044|
2024-02-02 15:58:25.733 [34] [FixSender] (DEBUG) Sending 8=FIX.4.4|9=58|35=0|49=FIXCLIENT1|56=DMA_HUB|34=114|52=20240202-14:58:25|10=092|
2024-02-02 15:58:48.904 [33] [FixSender] (DEBUG) Receiving 8=FIX.4.4|9=62|35=0|34=117|49=DMA_HUB|56=FIXCLIENT1|52=20240202-14:58:48.903|10=041|
2024-02-02 15:58:55.735 [34] [FixSender] (DEBUG) Sending 8=FIX.4.4|9=58|35=0|49=FIXCLIENT1|56=DMA_HUB|34=115|52=20240202-14:58:55|10=096|
2024-02-02 15:59:18.861 [33] [FixSender] (DEBUG) Receiving 8=FIX.4.4|9=62|35=0|34=118|49=DMA_HUB|56=FIXCLIENT1|52=20240202-14:59:18.860|10=042|
2024-02-02 15:59:25.736 [34] [FixSender] (DEBUG) Sending 8=FIX.4.4|9=58|35=0|49=FIXCLIENT1|56=DMA_HUB|34=116|52=20240202-14:59:25|10=095|
2024-02-02 15:59:48.800 [33] [FixSender] (DEBUG) Receiving 8=FIX.4.4|9=62|35=0|34=119|49=DMA_HUB|56=FIXCLIENT1|52=20240202-14:59:48.799|10=057|
2024-02-02 15:59:55.738 [34] [FixSender] (DEBUG) Sending 8=FIX.4.4|9=58|35=0|49=FIXCLIENT1|56=DMA_HUB|34=117|52=20240202-14:59:55|10=099|
2024-02-02 16:00:18.761 [33] [FixSender] (DEBUG) Receiving 8=FIX.4.4|9=62|35=0|34=120|49=DMA_HUB|56=FIXCLIENT1|52=20240202-15:00:18.760|10=021|
2024-02-02 16:00:25.739 [34] [FixSender] (DEBUG) Sending 8=FIX.4.4|9=58|35=0|49=FIXCLIENT1|56=DMA_HUB|34=118|52=20240202-15:00:25|10=084|
2024-02-02 16:00:48.718 [33] [FixSender] (DEBUG) Receiving 8=FIX.4.4|9=62|35=0|34=121|49=DMA_HUB|56=FIXCLIENT1|52=20240202-15:00:48.718|10=028|
2024-02-02 16:00:55.745 [34] [FixSender] (DEBUG) Sending 8=FIX.4.4|9=58|35=0|49=FIXCLIENT1|56=DMA_HUB|34=119|52=20240202-15:00:55|10=088|
2024-02-02 16:01:18.726 [33] [FixSender] (DEBUG) Receiving 8=FIX.4.4|9=62|35=0|34=122|49=DMA_HUB|56=FIXCLIENT1|52=20240202-15:01:18.726|10=026|
2024-02-02 16:01:25.746 [34] [FixSender] (DEBUG) Sending 8=FIX.4.4|9=58|35=0|49=FIXCLIENT1|56=DMA_HUB|34=120|52=20240202-15:01:25|10=078|
2024-02-02 16:01:48.683 [33] [FixSender] (DEBUG) Receiving 8=FIX.4.4|9=62|35=0|34=123|49=DMA_HUB|56=FIXCLIENT1|52=20240202-15:01:48.683|10=032|
2024-02-02 16:01:55.748 [34] [FixSender] (DEBUG) Sending 8=FIX.4.4|9=58|35=0|49=FIXCLIENT1|56=DMA_HUB|34=121|52=20240202-15:01:55|10=082|
2024-02-02 16:02:18.633 [33] [FixSender] (DEBUG) Receiving 8=FIX.4.4|9=62|35=0|34=124|49=DMA_HUB|56=FIXCLIENT1|52=20240202-15:02:18.633|10=026|
2024-02-02 16:02:25.750 [34] [FixSender] (DEBUG) Sending 8=FIX.4.4|9=58|35=0|49=FIXCLIENT1|56=DMA_HUB|34=122|52=20240202-15:02:25|10=081|
2024-02-02 16:02:48.580 [33] [FixSender] (DEBUG) Receiving 8=FIX.4.4|9=62|35=0|34=125|49=DMA_HUB|56=FIXCLIENT1|52=20240202-15:02:48.580|10=031|
2024-02-02 16:02:55.753 [34] [FixSender] (DEBUG) Sending 8=FIX.4.4|9=58|35=0|49=FIXCLIENT1|56=DMA_HUB|34=123|52=20240202-15:02:55|10=085|
2024-02-02 16:03:18.542 [33] [FixSender] (DEBUG) Receiving 8=FIX.4.4|9=62|35=0|34=126|49=DMA_HUB|56=FIXCLIENT1|52=20240202-15:03:18.542|10=028|
2024-02-02 16:03:25.756 [34] [FixSender] (DEBUG) Sending 8=FIX.4.4|9=58|35=0|49=FIXCLIENT1|56=DMA_HUB|34=124|52=20240202-15:03:25|10=084|
2024-02-02 16:03:48.544 [33] [FixSender] (DEBUG) Receiving 8=FIX.4.4|9=62|35=0|34=127|49=DMA_HUB|56=FIXCLIENT1|52=20240202-15:03:48.544|10=034|
2024-02-02 16:03:55.757 [34] [FixSender] (DEBUG) Sending 8=FIX.4.4|9=58|35=0|49=FIXCLIENT1|56=DMA_HUB|34=125|52=20240202-15:03:55|10=088|
2024-02-02 16:04:18.504 [33] [FixSender] (DEBUG) Receiving 8=FIX.4.4|9=62|35=0|34=128|49=DMA_HUB|56=FIXCLIENT1|52=20240202-15:04:18.504|10=029|
2024-02-02 16:04:25.759 [34] [FixSender] (DEBUG) Sending 8=FIX.4.4|9=58|35=0|49=FIXCLIENT1|56=DMA_HUB|34=126|52=20240202-15:04:25|10=087|
2024-02-02 16:04:48.462 [33] [FixSender] (DEBUG) Receiving 8=FIX.4.4|9=62|35=0|34=129|49=DMA_HUB|56=FIXCLIENT1|52=20240202-15:04:48.462|10=036|
2024-02-02 16:04:55.763 [34] [FixSender] (DEBUG) Sending 8=FIX.4.4|9=58|35=0|49=FIXCLIENT1|56=DMA_HUB|34=127|52=20240202-15:04:55|10=091|
2024-02-02 16:05:18.466 [33] [FixSender] (DEBUG) Receiving 8=FIX.4.4|9=62|35=0|34=130|49=DMA_HUB|56=FIXCLIENT1|52=20240202-15:05:18.466|10=030|
2024-02-02 16:05:25.766 [34] [FixSender] (DEBUG) Sending 8=FIX.4.4|9=58|35=0|49=FIXCLIENT1|56=DMA_HUB|34=128|52=20240202-15:05:25|10=090|
2024-02-02 16:05:48.426 [33] [FixSender] (DEBUG) Receiving 8=FIX.4.4|9=62|35=0|34=131|49=DMA_HUB|56=FIXCLIENT1|52=20240202-15:05:48.426|10=030|
2024-02-02 16:05:55.766 [34] [FixSender] (DEBUG) Sending 8=FIX.4.4|9=58|35=0|49=FIXCLIENT1|56=DMA_HUB|34=129|52=20240202-15:05:55|10=094|
2024-02-02 16:06:18.370 [33] [FixSender] (DEBUG) Receiving 8=FIX.4.4|9=62|35=0|34=132|49=DMA_HUB|56=FIXCLIENT1|52=20240202-15:06:18.370|10=027|
2024-02-02 16:06:25.768 [34] [FixSender] (DEBUG) Sending 8=FIX.4.4|9=58|35=0|49=FIXCLIENT1|56=DMA_HUB|34=130|52=20240202-15:06:25|10=084|
2024-02-02 16:06:48.331 [33] [FixSender] (DEBUG) Receiving 8=FIX.4.4|9=62|35=0|34=133|49=DMA_HUB|56=FIXCLIENT1|52=20240202-15:06:48.331|10=028|
2024-02-02 16:06:55.769 [34] [FixSender] (DEBUG) Sending 8=FIX.4.4|9=58|35=0|49=FIXCLIENT1|56=DMA_HUB|34=131|52=20240202-15:06:55|10=088|
2024-02-02 16:07:18.282 [33] [FixSender] (DEBUG) Receiving 8=FIX.4.4|9=62|35=0|34=134|49=DMA_HUB|56=FIXCLIENT1|52=20240202-15:07:18.282|10=032|
2024-02-02 16:07:25.770 [34] [FixSender] (DEBUG) Sending 8=FIX.4.4|9=58|35=0|49=FIXCLIENT1|56=DMA_HUB|34=132|52=20240202-15:07:25|10=087|
2024-02-02 16:07:48.223 [33] [FixSender] (DEBUG) Receiving 8=FIX.4.4|9=62|35=0|34=135|49=DMA_HUB|56=FIXCLIENT1|52=20240202-15:07:48.223|10=031|
2024-02-02 16:07:55.774 [34] [FixSender] (DEBUG) Sending 8=FIX.4.4|9=58|35=0|49=FIXCLIENT1|56=DMA_HUB|34=133|52=20240202-15:07:55|10=091|
2024-02-02 16:08:18.181 [33] [FixSender] (DEBUG) Receiving 8=FIX.4.4|9=62|35=0|34=136|49=DMA_HUB|56=FIXCLIENT1|52=20240202-15:08:18.181|10=033|
2024-02-02 16:08:25.775 [34] [FixSender] (DEBUG) Sending 8=FIX.4.4|9=58|35=0|49=FIXCLIENT1|56=DMA_HUB|34=134|52=20240202-15:08:25|10=090|
2024-02-02 16:08:48.140 [33] [FixSender] (DEBUG) Receiving 8=FIX.4.4|9=62|35=0|34=137|49=DMA_HUB|56=FIXCLIENT1|52=20240202-15:08:48.140|10=032|
2024-02-02 16:08:55.780 [34] [FixSender] (DEBUG) Sending 8=FIX.4.4|9=58|35=0|49=FIXCLIENT1|56=DMA_HUB|34=135|52=20240202-15:08:55|10=094|
2024-02-02 16:09:18.084 [33] [FixSender] (DEBUG) Receiving 8=FIX.4.4|9=62|35=0|34=138|49=DMA_HUB|56=FIXCLIENT1|52=20240202-15:09:18.083|10=037|
2024-02-02 16:09:25.781 [34] [FixSender] (DEBUG) Sending 8=FIX.4.4|9=58|35=0|49=FIXCLIENT1|56=DMA_HUB|34=136|52=20240202-15:09:25|10=093|
2024-02-02 16:09:48.033 [33] [FixSender] (DEBUG) Receiving 8=FIX.4.4|9=62|35=0|34=139|49=DMA_HUB|56=FIXCLIENT1|52=20240202-15:09:48.033|10=036|
2024-02-02 16:09:55.784 [34] [FixSender] (DEBUG) Sending 8=FIX.4.4|9=58|35=0|49=FIXCLIENT1|56=DMA_HUB|34=137|52=20240202-15:09:55|10=097|
2024-02-02 16:10:17.983 [33] [FixSender] (DEBUG) Receiving 8=FIX.4.4|9=62|35=0|34=140|49=DMA_HUB|56=FIXCLIENT1|52=20240202-15:10:17.983|10=030|
2024-02-02 16:10:25.786 [34] [FixSender] (DEBUG) Sending 8=FIX.4.4|9=58|35=0|49=FIXCLIENT1|56=DMA_HUB|34=138|52=20240202-15:10:25|10=087|
2024-02-02 16:10:47.943 [33] [FixSender] (DEBUG) Receiving 8=FIX.4.4|9=62|35=0|34=141|49=DMA_HUB|56=FIXCLIENT1|52=20240202-15:10:47.943|10=030|
2024-02-02 16:10:55.790 [34] [FixSender] (DEBUG) Sending 8=FIX.4.4|9=58|35=0|49=FIXCLIENT1|56=DMA_HUB|34=139|52=20240202-15:10:55|10=091|
2024-02-02 16:11:17.895 [33] [FixSender] (DEBUG) Receiving 8=FIX.4.4|9=62|35=0|34=142|49=DMA_HUB|56=FIXCLIENT1|52=20240202-15:11:17.895|10=035|
2024-02-02 16:11:25.791 [34] [FixSender] (DEBUG) Sending 8=FIX.4.4|9=58|35=0|49=FIXCLIENT1|56=DMA_HUB|34=140|52=20240202-15:11:25|10=081|
2024-02-02 16:11:47.850 [33] [FixSender] (DEBUG) Receiving 8=FIX.4.4|9=62|35=0|34=143|49=DMA_HUB|56=FIXCLIENT1|52=20240202-15:11:47.850|10=030|
2024-02-02 16:11:55.794 [34] [FixSender] (DEBUG) Sending 8=FIX.4.4|9=58|35=0|49=FIXCLIENT1|56=DMA_HUB|34=141|52=20240202-15:11:55|10=085|
2024-02-02 16:12:17.791 [33] [FixSender] (DEBUG) Receiving 8=FIX.4.4|9=62|35=0|34=144|49=DMA_HUB|56=FIXCLIENT1|52=20240202-15:12:17.791|10=033|
2024-02-02 16:12:25.797 [34] [FixSender] (DEBUG) Sending 8=FIX.4.4|9=58|35=0|49=FIXCLIENT1|56=DMA_HUB|34=142|52=20240202-15:12:25|10=084|
2024-02-02 16:12:47.752 [33] [FixSender] (DEBUG) Receiving 8=FIX.4.4|9=62|35=0|34=145|49=DMA_HUB|56=FIXCLIENT1|52=20240202-15:12:47.752|10=034|
2024-02-02 16:12:55.798 [34] [FixSender] (DEBUG) Sending 8=FIX.4.4|9=58|35=0|49=FIXCLIENT1|56=DMA_HUB|34=143|52=20240202-15:12:55|10=088|
2024-02-02 16:13:17.701 [33] [FixSender] (DEBUG) Receiving 8=FIX.4.4|9=62|35=0|34=146|49=DMA_HUB|56=FIXCLIENT1|52=20240202-15:13:17.700|10=026|
2024-02-02 16:13:25.801 [34] [FixSender] (DEBUG) Sending 8=FIX.4.4|9=58|35=0|49=FIXCLIENT1|56=DMA_HUB|34=144|52=20240202-15:13:25|10=087|
2024-02-02 16:13:47.654 [33] [FixSender] (DEBUG) Receiving 8=FIX.4.4|9=62|35=0|34=147|49=DMA_HUB|56=FIXCLIENT1|52=20240202-15:13:47.653|10=037|
2024-02-02 16:13:55.801 [34] [FixSender] (DEBUG) Sending 8=FIX.4.4|9=58|35=0|49=FIXCLIENT1|56=DMA_HUB|34=145|52=20240202-15:13:55|10=091|
2024-02-02 16:14:17.608 [33] [FixSender] (DEBUG) Receiving 8=FIX.4.4|9=62|35=0|34=148|49=DMA_HUB|56=FIXCLIENT1|52=20240202-15:14:17.608|10=036|
2024-02-02 16:14:25.802 [34] [FixSender] (DEBUG) Sending 8=FIX.4.4|9=58|35=0|49=FIXCLIENT1|56=DMA_HUB|34=146|52=20240202-15:14:25|10=090|
2024-02-02 16:14:47.563 [33] [FixSender] (DEBUG) Receiving 8=FIX.4.4|9=62|35=0|34=149|49=DMA_HUB|56=FIXCLIENT1|52=20240202-15:14:47.563|10=040|
2024-02-02 16:14:55.804 [34] [FixSender] (DEBUG) Sending 8=FIX.4.4|9=58|35=0|49=FIXCLIENT1|56=DMA_HUB|34=147|52=20240202-15:14:55|10=094|
2024-02-02 16:15:17.512 [33] [FixSender] (DEBUG) Receiving 8=FIX.4.4|9=62|35=0|34=150|49=DMA_HUB|56=FIXCLIENT1|52=20240202-15:15:17.511|10=023|
2024-02-02 16:15:25.805 [34] [FixSender] (DEBUG) Sending 8=FIX.4.4|9=58|35=0|49=FIXCLIENT1|56=DMA_HUB|34=148|52=20240202-15:15:25|10=093|
2024-02-02 16:15:47.464 [33] [FixSender] (DEBUG) Receiving 8=FIX.4.4|9=62|35=0|34=151|49=DMA_HUB|56=FIXCLIENT1|52=20240202-15:15:47.464|10=034|
2024-02-02 16:15:55.807 [34] [FixSender] (DEBUG) Sending 8=FIX.4.4|9=58|35=0|49=FIXCLIENT1|56=DMA_HUB|34=149|52=20240202-15:15:55|10=097|
2024-02-02 16:16:17.418 [33] [FixSender] (DEBUG) Receiving 8=FIX.4.4|9=62|35=0|34=152|49=DMA_HUB|56=FIXCLIENT1|52=20240202-15:16:17.417|10=031|
2024-02-02 16:16:25.810 [34] [FixSender] (DEBUG) Sending 8=FIX.4.4|9=58|35=0|49=FIXCLIENT1|56=DMA_HUB|34=150|52=20240202-15:16:25|10=087|
2024-02-02 16:16:47.362 [33] [FixSender] (DEBUG) Receiving 8=FIX.4.4|9=62|35=0|34=153|49=DMA_HUB|56=FIXCLIENT1|52=20240202-15:16:47.362|10=034|
2024-02-02 16:16:55.811 [34] [FixSender] (DEBUG) Sending 8=FIX.4.4|9=58|35=0|49=FIXCLIENT1|56=DMA_HUB|34=151|52=20240202-15:16:55|10=091|
2024-02-02 16:17:17.324 [33] [FixSender] (DEBUG) Receiving 8=FIX.4.4|9=62|35=0|34=154|49=DMA_HUB|56=FIXCLIENT1|52=20240202-15:17:17.323|10=030|
2024-02-02 16:17:25.814 [34] [FixSender] (DEBUG) Sending 8=FIX.4.4|9=58|35=0|49=FIXCLIENT1|56=DMA_HUB|34=152|52=20240202-15:17:25|10=090|
2024-02-02 16:17:47.274 [33] [FixSender] (DEBUG) Receiving 8=FIX.4.4|9=62|35=0|34=155|49=DMA_HUB|56=FIXCLIENT1|52=20240202-15:17:47.273|10=038|
2024-02-02 16:17:55.817 [34] [FixSender] (DEBUG) Sending 8=FIX.4.4|9=58|35=0|49=FIXCLIENT1|56=DMA_HUB|34=153|52=20240202-15:17:55|10=094|
2024-02-02 16:18:17.230 [33] [FixSender] (DEBUG) Receiving 8=FIX.4.4|9=62|35=0|34=156|49=DMA_HUB|56=FIXCLIENT1|52=20240202-15:18:17.229|10=038|
2024-02-02 16:18:25.820 [34] [FixSender] (DEBUG) Sending 8=FIX.4.4|9=58|35=0|49=FIXCLIENT1|56=DMA_HUB|34=154|52=20240202-15:18:25|10=093|
2024-02-02 16:18:47.183 [33] [FixSender] (DEBUG) Receiving 8=FIX.4.4|9=62|35=0|34=157|49=DMA_HUB|56=FIXCLIENT1|52=20240202-15:18:47.182|10=040|
2024-02-02 16:18:55.822 [34] [FixSender] (DEBUG) Sending 8=FIX.4.4|9=58|35=0|49=FIXCLIENT1|56=DMA_HUB|34=155|52=20240202-15:18:55|10=097|
2024-02-02 16:19:17.186 [33] [FixSender] (DEBUG) Receiving 8=FIX.4.4|9=62|35=0|34=158|49=DMA_HUB|56=FIXCLIENT1|52=20240202-15:19:17.186|10=043|
2024-02-02 16:19:25.823 [34] [FixSender] (DEBUG) Sending 8=FIX.4.4|9=58|35=0|49=FIXCLIENT1|56=DMA_HUB|34=156|52=20240202-15:19:25|10=096|
2024-02-02 16:19:47.136 [33] [FixSender] (DEBUG) Receiving 8=FIX.4.4|9=62|35=0|34=159|49=DMA_HUB|56=FIXCLIENT1|52=20240202-15:19:47.135|10=041|
2024-02-02 16:19:55.824 [34] [FixSender] (DEBUG) Sending 8=FIX.4.4|9=58|35=0|49=FIXCLIENT1|56=DMA_HUB|34=157|52=20240202-15:19:55|10=100|
2024-02-02 16:20:17.087 [33] [FixSender] (DEBUG) Receiving 8=FIX.4.4|9=62|35=0|34=160|49=DMA_HUB|56=FIXCLIENT1|52=20240202-15:20:17.087|10=028|
2024-02-02 16:20:25.838 [34] [FixSender] (DEBUG) Sending 8=FIX.4.4|9=58|35=0|49=FIXCLIENT1|56=DMA_HUB|34=158|52=20240202-15:20:25|10=090|
2024-02-02 16:20:47.051 [33] [FixSender] (DEBUG) Receiving 8=FIX.4.4|9=62|35=0|34=161|49=DMA_HUB|56=FIXCLIENT1|52=20240202-15:20:47.050|10=022|
2024-02-02 16:20:55.838 [34] [FixSender] (DEBUG) Sending 8=FIX.4.4|9=58|35=0|49=FIXCLIENT1|56=DMA_HUB|34=159|52=20240202-15:20:55|10=094|
2024-02-02 16:21:16.994 [33] [FixSender] (DEBUG) Receiving 8=FIX.4.4|9=62|35=0|34=162|49=DMA_HUB|56=FIXCLIENT1|52=20240202-15:21:16.993|10=036|
2024-02-02 16:21:25.841 [34] [FixSender] (DEBUG) Sending 8=FIX.4.4|9=58|35=0|49=FIXCLIENT1|56=DMA_HUB|34=160|52=20240202-15:21:25|10=084|
2024-02-02 16:21:46.948 [33] [FixSender] (DEBUG) Receiving 8=FIX.4.4|9=62|35=0|34=163|49=DMA_HUB|56=FIXCLIENT1|52=20240202-15:21:46.947|10=039|
2024-02-02 16:21:55.843 [34] [FixSender] (DEBUG) Sending 8=FIX.4.4|9=58|35=0|49=FIXCLIENT1|56=DMA_HUB|34=161|52=20240202-15:21:55|10=088|
2024-02-02 16:22:16.895 [33] [FixSender] (DEBUG) Receiving 8=FIX.4.4|9=62|35=0|34=164|49=DMA_HUB|56=FIXCLIENT1|52=20240202-15:22:16.895|10=040|
2024-02-02 16:22:25.850 [34] [FixSender] (DEBUG) Sending 8=FIX.4.4|9=58|35=0|49=FIXCLIENT1|56=DMA_HUB|34=162|52=20240202-15:22:25|10=087|
2024-02-02 16:22:46.852 [33] [FixSender] (DEBUG) Receiving 8=FIX.4.4|9=62|35=0|34=165|49=DMA_HUB|56=FIXCLIENT1|52=20240202-15:22:46.852|10=037|
2024-02-02 16:22:55.860 [34] [FixSender] (DEBUG) Sending 8=FIX.4.4|9=58|35=0|49=FIXCLIENT1|56=DMA_HUB|34=163|52=20240202-15:22:55|10=091|
2024-02-02 16:23:16.808 [33] [FixSender] (DEBUG) Receiving 8=FIX.4.4|9=62|35=0|34=166|49=DMA_HUB|56=FIXCLIENT1|52=20240202-15:23:16.808|10=037|
2024-02-02 16:23:25.873 [34] [FixSender] (DEBUG) Sending 8=FIX.4.4|9=58|35=0|49=FIXCLIENT1|56=DMA_HUB|34=164|52=20240202-15:23:25|10=090|
2024-02-02 16:23:39.569 [37] [FixSender] (DEBUG) Sending 8=FIX.4.4|9=193|35=D|49=FIXCLIENT1|56=DMA_HUB|34=165|52=20240202-15:23:39|21=1|11=HS_17068874191|38=952|55=E:07G@XETR|54=1|60=20240202-15:23:39|40=2|59=0|44=197|48=US3390411052|22=4|15=EUR|207=XETR|1=bram_123|10=160|
2024-02-02 16:23:39.576 [33] [FixSender] (DEBUG) Receiving 8=FIX.4.4|9=234|35=8|34=167|49=DMA_HUB|56=FIXCLIENT1|52=20240202-15:23:39.575|11=HS_17068874191|37=FXSH3kWRQ|54=1|40=2|59=0|17=202402022|150=A|39=A|38=952|151=952|14=0|6=0|44=197|60=20240202-15:23:39.000|22=4|48=US3390411052|207=XETR|15=EUR|55=[N/A]|10=214|
2024-02-02 16:23:39.787 [38] [FixSender] (DEBUG) Sending 8=FIX.4.4|9=194|35=D|49=FIXCLIENT1|56=DMA_HUB|34=166|52=20240202-15:23:39|21=1|11=HS_17068874192|38=4352|55=E:07G@XETR|54=1|60=20240202-15:23:39|40=2|59=0|44=197|48=US3390411052|22=4|15=EUR|207=XETR|1=bram_123|10=209|
2024-02-02 16:23:39.789 [33] [FixSender] (DEBUG) Receiving 8=FIX.4.4|9=236|35=8|34=168|49=DMA_HUB|56=FIXCLIENT1|52=20240202-15:23:39.788|11=HS_17068874192|37=FXTH3kWRQ|54=1|40=2|59=0|17=202402023|150=A|39=A|38=4352|151=4352|14=0|6=0|44=197|60=20240202-15:23:39.000|22=4|48=US3390411052|207=XETR|15=EUR|55=[N/A]|10=062|
2024-02-02 16:23:46.755 [33] [FixSender] (DEBUG) Receiving 8=FIX.4.4|9=62|35=0|34=169|49=DMA_HUB|56=FIXCLIENT1|52=20240202-15:23:46.754|10=043|
2024-02-02 16:24:09.797 [34] [FixSender] (DEBUG) Sending 8=FIX.4.4|9=58|35=0|49=FIXCLIENT1|56=DMA_HUB|34=167|52=20240202-15:24:09|10=096|
2024-02-02 16:24:16.704 [33] [FixSender] (DEBUG) Receiving 8=FIX.4.4|9=62|35=0|34=170|49=DMA_HUB|56=FIXCLIENT1|52=20240202-15:24:16.703|10=027|
2024-02-02 16:24:39.802 [34] [FixSender] (DEBUG) Sending 8=FIX.4.4|9=58|35=0|49=FIXCLIENT1|56=DMA_HUB|34=168|52=20240202-15:24:39|10=100|
2024-02-02 16:24:46.659 [33] [FixSender] (DEBUG) Receiving 8=FIX.4.4|9=62|35=0|34=171|49=DMA_HUB|56=FIXCLIENT1|52=20240202-15:24:46.659|10=041|
2024-02-02 16:25:09.807 [34] [FixSender] (DEBUG) Sending 8=FIX.4.4|9=58|35=0|49=FIXCLIENT1|56=DMA_HUB|34=169|52=20240202-15:25:09|10=099|
2024-02-02 16:25:16.609 [33] [FixSender] (DEBUG) Receiving 8=FIX.4.4|9=62|35=0|34=172|49=DMA_HUB|56=FIXCLIENT1|52=20240202-15:25:16.609|10=035|
2024-02-02 16:25:39.810 [34] [FixSender] (DEBUG) Sending 8=FIX.4.4|9=58|35=0|49=FIXCLIENT1|56=DMA_HUB|34=170|52=20240202-15:25:39|10=094|
2024-02-02 16:25:46.564 [33] [FixSender] (DEBUG) Receiving 8=FIX.4.4|9=62|35=0|34=173|49=DMA_HUB|56=FIXCLIENT1|52=20240202-15:25:46.564|10=039|
2024-02-02 16:26:09.813 [34] [FixSender] (DEBUG) Sending 8=FIX.4.4|9=58|35=0|49=FIXCLIENT1|56=DMA_HUB|34=171|52=20240202-15:26:09|10=093|
2024-02-02 16:26:16.511 [33] [FixSender] (DEBUG) Receiving 8=FIX.4.4|9=62|35=0|34=174|49=DMA_HUB|56=FIXCLIENT1|52=20240202-15:26:16.511|10=030|
2024-02-02 16:26:39.818 [34] [FixSender] (DEBUG) Sending 8=FIX.4.4|9=58|35=0|49=FIXCLIENT1|56=DMA_HUB|34=172|52=20240202-15:26:39|10=097|
2024-02-02 16:26:46.471 [33] [FixSender] (DEBUG) Receiving 8=FIX.4.4|9=62|35=0|34=175|49=DMA_HUB|56=FIXCLIENT1|52=20240202-15:26:46.471|10=039|
2024-02-02 16:27:09.821 [34] [FixSender] (DEBUG) Sending 8=FIX.4.4|9=58|35=0|49=FIXCLIENT1|56=DMA_HUB|34=173|52=20240202-15:27:09|10=096|
2024-02-02 16:27:16.418 [33] [FixSender] (DEBUG) Receiving 8=FIX.4.4|9=62|35=0|34=176|49=DMA_HUB|56=FIXCLIENT1|52=20240202-15:27:16.418|10=039|
2024-02-02 16:27:39.823 [34] [FixSender] (DEBUG) Sending 8=FIX.4.4|9=58|35=0|49=FIXCLIENT1|56=DMA_HUB|34=174|52=20240202-15:27:39|10=100|
2024-02-02 16:27:46.377 [33] [FixSender] (DEBUG) Receiving 8=FIX.4.4|9=62|35=0|34=177|49=DMA_HUB|56=FIXCLIENT1|52=20240202-15:27:46.377|10=047|
2024-02-02 16:28:09.824 [34] [FixSender] (DEBUG) Sending 8=FIX.4.4|9=58|35=0|49=FIXCLIENT1|56=DMA_HUB|34=175|52=20240202-15:28:09|10=099|
2024-02-02 16:28:16.363 [33] [FixSender] (DEBUG) Receiving 8=FIX.4.4|9=62|35=0|34=178|49=DMA_HUB|56=FIXCLIENT1|52=20240202-15:28:16.362|10=040|
2024-02-02 16:28:39.826 [34] [FixSender] (DEBUG) Sending 8=FIX.4.4|9=58|35=0|49=FIXCLIENT1|56=DMA_HUB|34=176|52=20240202-15:28:39|10=103|
2024-02-02 16:28:46.334 [33] [FixSender] (DEBUG) Receiving 8=FIX.4.4|9=62|35=0|34=179|49=DMA_HUB|56=FIXCLIENT1|52=20240202-15:28:46.334|10=043|
2024-02-02 16:29:09.829 [34] [FixSender] (DEBUG) Sending 8=FIX.4.4|9=58|35=0|49=FIXCLIENT1|56=DMA_HUB|34=177|52=20240202-15:29:09|10=102|
2024-02-02 16:29:16.289 [33] [FixSender] (DEBUG) Receiving 8=FIX.4.4|9=62|35=0|34=180|49=DMA_HUB|56=FIXCLIENT1|52=20240202-15:29:16.288|10=041|
2024-02-02 16:29:39.835 [34] [FixSender] (DEBUG) Sending 8=FIX.4.4|9=58|35=0|49=FIXCLIENT1|56=DMA_HUB|34=178|52=20240202-15:29:39|10=106|
2024-02-02 16:29:46.251 [33] [FixSender] (DEBUG) Receiving 8=FIX.4.4|9=62|35=0|34=181|49=DMA_HUB|56=FIXCLIENT1|52=20240202-15:29:46.251|10=035|
2024-02-02 16:30:09.837 [34] [FixSender] (DEBUG) Sending 8=FIX.4.4|9=58|35=0|49=FIXCLIENT1|56=DMA_HUB|34=179|52=20240202-15:30:09|10=096|
2024-02-02 16:30:16.207 [33] [FixSender] (DEBUG) Receiving 8=FIX.4.4|9=62|35=0|34=182|49=DMA_HUB|56=FIXCLIENT1|52=20240202-15:30:16.206|10=025|
2024-02-02 16:30:39.839 [34] [FixSender] (DEBUG) Sending 8=FIX.4.4|9=58|35=0|49=FIXCLIENT1|56=DMA_HUB|34=180|52=20240202-15:30:39|10=091|
2024-02-02 16:30:46.207 [33] [FixSender] (DEBUG) Receiving 8=FIX.4.4|9=62|35=0|34=183|49=DMA_HUB|56=FIXCLIENT1|52=20240202-15:30:46.207|10=030|
2024-02-02 16:31:09.840 [34] [FixSender] (DEBUG) Sending 8=FIX.4.4|9=58|35=0|49=FIXCLIENT1|56=DMA_HUB|34=181|52=20240202-15:31:09|10=090|
2024-02-02 16:31:16.172 [33] [FixSender] (DEBUG) Receiving 8=FIX.4.4|9=62|35=0|34=184|49=DMA_HUB|56=FIXCLIENT1|52=20240202-15:31:16.170|10=028|
2024-02-02 16:31:39.842 [34] [FixSender] (DEBUG) Sending 8=FIX.4.4|9=58|35=0|49=FIXCLIENT1|56=DMA_HUB|34=182|52=20240202-15:31:39|10=094|
2024-02-02 16:31:46.121 [33] [FixSender] (DEBUG) Receiving 8=FIX.4.4|9=62|35=0|34=185|49=DMA_HUB|56=FIXCLIENT1|52=20240202-15:31:46.121|10=028|
2024-02-02 16:32:09.848 [34] [FixSender] (DEBUG) Sending 8=FIX.4.4|9=58|35=0|49=FIXCLIENT1|56=DMA_HUB|34=183|52=20240202-15:32:09|10=093|
2024-02-02 16:32:16.076 [33] [FixSender] (DEBUG) Receiving 8=FIX.4.4|9=62|35=0|34=186|49=DMA_HUB|56=FIXCLIENT1|52=20240202-15:32:16.073|10=033|
2024-02-02 16:32:39.850 [34] [FixSender] (DEBUG) Sending 8=FIX.4.4|9=58|35=0|49=FIXCLIENT1|56=DMA_HUB|34=184|52=20240202-15:32:39|10=097|
2024-02-02 16:32:46.022 [33] [FixSender] (DEBUG) Receiving 8=FIX.4.4|9=62|35=0|34=187|49=DMA_HUB|56=FIXCLIENT1|52=20240202-15:32:46.022|10=031|
2024-02-02 16:33:09.852 [34] [FixSender] (DEBUG) Sending 8=FIX.4.4|9=58|35=0|49=FIXCLIENT1|56=DMA_HUB|34=185|52=20240202-15:33:09|10=096|
2024-02-02 16:33:15.977 [33] [FixSender] (DEBUG) Receiving 8=FIX.4.4|9=62|35=0|34=188|49=DMA_HUB|56=FIXCLIENT1|52=20240202-15:33:15.976|10=047|
2024-02-02 16:33:39.853 [34] [FixSender] (DEBUG) Sending 8=FIX.4.4|9=58|35=0|49=FIXCLIENT1|56=DMA_HUB|34=186|52=20240202-15:33:39|10=100|
2024-02-02 16:33:45.928 [33] [FixSender] (DEBUG) Receiving 8=FIX.4.4|9=62|35=0|34=189|49=DMA_HUB|56=FIXCLIENT1|52=20240202-15:33:45.928|10=048|
2024-02-02 16:34:09.856 [34] [FixSender] (DEBUG) Sending 8=FIX.4.4|9=58|35=0|49=FIXCLIENT1|56=DMA_HUB|34=187|52=20240202-15:34:09|10=099|
2024-02-02 16:34:15.875 [33] [FixSender] (DEBUG) Receiving 8=FIX.4.4|9=62|35=0|34=190|49=DMA_HUB|56=FIXCLIENT1|52=20240202-15:34:15.874|10=038|
2024-02-02 16:34:39.865 [34] [FixSender] (DEBUG) Sending 8=FIX.4.4|9=58|35=0|49=FIXCLIENT1|56=DMA_HUB|34=188|52=20240202-15:34:39|10=103|
2024-02-02 16:34:45.823 [33] [FixSender] (DEBUG) Receiving 8=FIX.4.4|9=62|35=0|34=191|49=DMA_HUB|56=FIXCLIENT1|52=20240202-15:34:45.823|10=036|
2024-02-02 16:35:09.866 [34] [FixSender] (DEBUG) Sending 8=FIX.4.4|9=58|35=0|49=FIXCLIENT1|56=DMA_HUB|34=189|52=20240202-15:35:09|10=102|
2024-02-02 16:35:15.787 [33] [FixSender] (DEBUG) Receiving 8=FIX.4.4|9=62|35=0|34=192|49=DMA_HUB|56=FIXCLIENT1|52=20240202-15:35:15.786|10=043|
2024-02-02 16:35:39.867 [34] [FixSender] (DEBUG) Sending 8=FIX.4.4|9=58|35=0|49=FIXCLIENT1|56=DMA_HUB|34=190|52=20240202-15:35:39|10=097|
2024-02-02 16:35:45.739 [33] [FixSender] (DEBUG) Receiving 8=FIX.4.4|9=62|35=0|34=193|49=DMA_HUB|56=FIXCLIENT1|52=20240202-15:35:45.738|10=044|
2024-02-02 16:36:09.870 [34] [FixSender] (DEBUG) Sending 8=FIX.4.4|9=58|35=0|49=FIXCLIENT1|56=DMA_HUB|34=191|52=20240202-15:36:09|10=096|
2024-02-02 16:36:15.685 [33] [FixSender] (DEBUG) Receiving 8=FIX.4.4|9=62|35=0|34=194|49=DMA_HUB|56=FIXCLIENT1|52=20240202-15:36:15.685|10=044|
2024-02-02 16:36:39.872 [34] [FixSender] (DEBUG) Sending 8=FIX.4.4|9=58|35=0|49=FIXCLIENT1|56=DMA_HUB|34=192|52=20240202-15:36:39|10=100|
2024-02-02 16:36:45.633 [33] [FixSender] (DEBUG) Receiving 8=FIX.4.4|9=62|35=0|34=195|49=DMA_HUB|56=FIXCLIENT1|52=20240202-15:36:45.633|10=041|
2024-02-02 16:37:09.874 [34] [FixSender] (DEBUG) Sending 8=FIX.4.4|9=58|35=0|49=FIXCLIENT1|56=DMA_HUB|34=193|52=20240202-15:37:09|10=099|
2024-02-02 16:37:15.587 [33] [FixSender] (DEBUG) Receiving 8=FIX.4.4|9=62|35=0|34=196|49=DMA_HUB|56=FIXCLIENT1|52=20240202-15:37:15.585|10=046|
2024-02-02 16:37:39.876 [34] [FixSender] (DEBUG) Sending 8=FIX.4.4|9=58|35=0|49=FIXCLIENT1|56=DMA_HUB|34=194|52=20240202-15:37:39|10=103|
2024-02-02 16:37:45.537 [33] [FixSender] (DEBUG) Receiving 8=FIX.4.4|9=62|35=0|34=197|49=DMA_HUB|56=FIXCLIENT1|52=20240202-15:37:45.537|10=047|
2024-02-02 16:38:09.880 [34] [FixSender] (DEBUG) Sending 8=FIX.4.4|9=58|35=0|49=FIXCLIENT1|56=DMA_HUB|34=195|52=20240202-15:38:09|10=102|
2024-02-02 16:38:15.498 [33] [FixSender] (DEBUG) Receiving 8=FIX.4.4|9=62|35=0|34=198|49=DMA_HUB|56=FIXCLIENT1|52=20240202-15:38:15.497|10=051|
2024-02-02 16:38:39.882 [34] [FixSender] (DEBUG) Sending 8=FIX.4.4|9=58|35=0|49=FIXCLIENT1|56=DMA_HUB|34=196|52=20240202-15:38:39|10=106|
2024-02-02 16:38:45.444 [33] [FixSender] (DEBUG) Receiving 8=FIX.4.4|9=62|35=0|34=199|49=DMA_HUB|56=FIXCLIENT1|52=20240202-15:38:45.443|10=046|
2024-02-02 16:39:09.896 [34] [FixSender] (DEBUG) Sending 8=FIX.4.4|9=58|35=0|49=FIXCLIENT1|56=DMA_HUB|34=197|52=20240202-15:39:09|10=105|
2024-02-02 16:39:15.406 [33] [FixSender] (DEBUG) Receiving 8=FIX.4.4|9=62|35=0|34=200|49=DMA_HUB|56=FIXCLIENT1|52=20240202-15:39:15.405|10=025|
2024-02-02 16:39:39.898 [34] [FixSender] (DEBUG) Sending 8=FIX.4.4|9=58|35=0|49=FIXCLIENT1|56=DMA_HUB|34=198|52=20240202-15:39:39|10=109|
2024-02-02 16:39:45.346 [33] [FixSender] (DEBUG) Receiving 8=FIX.4.4|9=62|35=0|34=201|49=DMA_HUB|56=FIXCLIENT1|52=20240202-15:39:45.345|10=032|
2024-02-02 16:40:09.899 [34] [FixSender] (DEBUG) Sending 8=FIX.4.4|9=58|35=0|49=FIXCLIENT1|56=DMA_HUB|34=199|52=20240202-15:40:09|10=099|
2024-02-02 16:40:15.302 [33] [FixSender] (DEBUG) Receiving 8=FIX.4.4|9=62|35=0|34=202|49=DMA_HUB|56=FIXCLIENT1|52=20240202-15:40:15.301|10=014|
2024-02-02 16:40:39.902 [34] [FixSender] (DEBUG) Sending 8=FIX.4.4|9=58|35=0|49=FIXCLIENT1|56=DMA_HUB|34=200|52=20240202-15:40:39|10=085|
2024-02-02 16:40:45.262 [33] [FixSender] (DEBUG) Receiving 8=FIX.4.4|9=62|35=0|34=203|49=DMA_HUB|56=FIXCLIENT1|52=20240202-15:40:45.260|10=022|
2024-02-02 16:41:09.903 [34] [FixSender] (DEBUG) Sending 8=FIX.4.4|9=58|35=0|49=FIXCLIENT1|56=DMA_HUB|34=201|52=20240202-15:41:09|10=084|
2024-02-02 16:41:15.205 [33] [FixSender] (DEBUG) Receiving 8=FIX.4.4|9=62|35=0|34=204|49=DMA_HUB|56=FIXCLIENT1|52=20240202-15:41:15.204|10=019|
2024-02-02 16:41:39.904 [34] [FixSender] (DEBUG) Sending 8=FIX.4.4|9=58|35=0|49=FIXCLIENT1|56=DMA_HUB|34=202|52=20240202-15:41:39|10=088|
2024-02-02 16:41:45.154 [33] [FixSender] (DEBUG) Receiving 8=FIX.4.4|9=62|35=0|34=205|49=DMA_HUB|56=FIXCLIENT1|52=20240202-15:41:45.153|10=026|
2024-02-02 16:42:09.908 [34] [FixSender] (DEBUG) Sending 8=FIX.4.4|9=58|35=0|49=FIXCLIENT1|56=DMA_HUB|34=203|52=20240202-15:42:09|10=087|
2024-02-02 16:42:15.114 [33] [FixSender] (DEBUG) Receiving 8=FIX.4.4|9=62|35=0|34=206|49=DMA_HUB|56=FIXCLIENT1|52=20240202-15:42:15.113|10=021|
2024-02-02 16:42:39.909 [34] [FixSender] (DEBUG) Sending 8=FIX.4.4|9=58|35=0|49=FIXCLIENT1|56=DMA_HUB|34=204|52=20240202-15:42:39|10=091|
2024-02-02 16:42:45.062 [33] [FixSender] (DEBUG) Receiving 8=FIX.4.4|9=62|35=0|34=207|49=DMA_HUB|56=FIXCLIENT1|52=20240202-15:42:45.059|10=034|
2024-02-02 16:43:09.918 [34] [FixSender] (DEBUG) Sending 8=FIX.4.4|9=58|35=0|49=FIXCLIENT1|56=DMA_HUB|34=205|52=20240202-15:43:09|10=090|
2024-02-02 16:43:15.028 [33] [FixSender] (DEBUG) Receiving 8=FIX.4.4|9=62|35=0|34=208|49=DMA_HUB|56=FIXCLIENT1|52=20240202-15:43:15.018|10=028|
2024-02-02 16:43:39.921 [34] [FixSender] (DEBUG) Sending 8=FIX.4.4|9=58|35=0|49=FIXCLIENT1|56=DMA_HUB|34=206|52=20240202-15:43:39|10=094|
2024-02-02 16:43:44.958 [33] [FixSender] (DEBUG) Receiving 8=FIX.4.4|9=62|35=0|34=209|49=DMA_HUB|56=FIXCLIENT1|52=20240202-15:43:44.958|10=044|
2024-02-02 16:44:09.923 [34] [FixSender] (DEBUG) Sending 8=FIX.4.4|9=58|35=0|49=FIXCLIENT1|56=DMA_HUB|34=207|52=20240202-15:44:09|10=093|
2024-02-02 16:44:14.919 [33] [FixSender] (DEBUG) Receiving 8=FIX.4.4|9=62|35=0|34=210|49=DMA_HUB|56=FIXCLIENT1|52=20240202-15:44:14.918|10=030|
2024-02-02 16:44:39.934 [34] [FixSender] (DEBUG) Sending 8=FIX.4.4|9=58|35=0|49=FIXCLIENT1|56=DMA_HUB|34=208|52=20240202-15:44:39|10=097|
2024-02-02 16:44:44.877 [33] [FixSender] (DEBUG) Receiving 8=FIX.4.4|9=62|35=0|34=211|49=DMA_HUB|56=FIXCLIENT1|52=20240202-15:44:44.876|10=037|
2024-02-02 16:45:09.934 [34] [FixSender] (DEBUG) Sending 8=FIX.4.4|9=58|35=0|49=FIXCLIENT1|56=DMA_HUB|34=209|52=20240202-15:45:09|10=096|
2024-02-02 16:45:14.823 [33] [FixSender] (DEBUG) Receiving 8=FIX.4.4|9=62|35=0|34=212|49=DMA_HUB|56=FIXCLIENT1|52=20240202-15:45:14.823|10=028|
2024-02-02 16:45:39.936 [34] [FixSender] (DEBUG) Sending 8=FIX.4.4|9=58|35=0|49=FIXCLIENT1|56=DMA_HUB|34=210|52=20240202-15:45:39|10=091|
2024-02-02 16:45:44.781 [33] [FixSender] (DEBUG) Receiving 8=FIX.4.4|9=62|35=0|34=213|49=DMA_HUB|56=FIXCLIENT1|52=20240202-15:45:44.767|10=039|
2024-02-02 16:46:09.938 [34] [FixSender] (DEBUG) Sending 8=FIX.4.4|9=58|35=0|49=FIXCLIENT1|56=DMA_HUB|34=211|52=20240202-15:46:09|10=090|
2024-02-02 16:46:14.730 [33] [FixSender] (DEBUG) Receiving 8=FIX.4.4|9=62|35=0|34=214|49=DMA_HUB|56=FIXCLIENT1|52=20240202-15:46:14.729|10=036|
2024-02-02 16:46:39.945 [34] [FixSender] (DEBUG) Sending 8=FIX.4.4|9=58|35=0|49=FIXCLIENT1|56=DMA_HUB|34=212|52=20240202-15:46:39|10=094|
2024-02-02 16:46:44.684 [33] [FixSender] (DEBUG) Receiving 8=FIX.4.4|9=62|35=0|34=215|49=DMA_HUB|56=FIXCLIENT1|52=20240202-15:46:44.683|10=039|
2024-02-02 16:47:09.947 [34] [FixSender] (DEBUG) Sending 8=FIX.4.4|9=58|35=0|49=FIXCLIENT1|56=DMA_HUB|34=213|52=20240202-15:47:09|10=093|
2024-02-02 16:47:14.633 [33] [FixSender] (DEBUG) Receiving 8=FIX.4.4|9=62|35=0|34=216|49=DMA_HUB|56=FIXCLIENT1|52=20240202-15:47:14.633|10=033|
2024-02-02 16:47:39.948 [34] [FixSender] (DEBUG) Sending 8=FIX.4.4|9=58|35=0|49=FIXCLIENT1|56=DMA_HUB|34=214|52=20240202-15:47:39|10=097|
2024-02-02 16:47:44.587 [33] [FixSender] (DEBUG) Receiving 8=FIX.4.4|9=62|35=0|34=217|49=DMA_HUB|56=FIXCLIENT1|52=20240202-15:47:44.586|10=044|
2024-02-02 16:48:09.950 [34] [FixSender] (DEBUG) Sending 8=FIX.4.4|9=58|35=0|49=FIXCLIENT1|56=DMA_HUB|34=215|52=20240202-15:48:09|10=096|
2024-02-02 16:48:14.537 [33] [FixSender] (DEBUG) Receiving 8=FIX.4.4|9=62|35=0|34=218|49=DMA_HUB|56=FIXCLIENT1|52=20240202-15:48:14.536|10=038|
2024-02-02 16:48:39.952 [34] [FixSender] (DEBUG) Sending 8=FIX.4.4|9=58|35=0|49=FIXCLIENT1|56=DMA_HUB|34=216|52=20240202-15:48:39|10=100|
2024-02-02 16:48:44.493 [33] [FixSender] (DEBUG) Receiving 8=FIX.4.4|9=62|35=0|34=219|49=DMA_HUB|56=FIXCLIENT1|52=20240202-15:48:44.492|10=043|
2024-02-02 16:49:09.954 [34] [FixSender] (DEBUG) Sending 8=FIX.4.4|9=58|35=0|49=FIXCLIENT1|56=DMA_HUB|34=217|52=20240202-15:49:09|10=099|
2024-02-02 16:49:14.442 [33] [FixSender] (DEBUG) Receiving 8=FIX.4.4|9=62|35=0|34=220|49=DMA_HUB|56=FIXCLIENT1|52=20240202-15:49:14.442|10=028|
2024-02-02 16:49:39.958 [34] [FixSender] (DEBUG) Sending 8=FIX.4.4|9=58|35=0|49=FIXCLIENT1|56=DMA_HUB|34=218|52=20240202-15:49:39|10=103|
2024-02-02 16:49:44.385 [33] [FixSender] (DEBUG) Receiving 8=FIX.4.4|9=62|35=0|34=221|49=DMA_HUB|56=FIXCLIENT1|52=20240202-15:49:44.384|10=037|
2024-02-02 16:50:09.958 [34] [FixSender] (DEBUG) Sending 8=FIX.4.4|9=58|35=0|49=FIXCLIENT1|56=DMA_HUB|34=219|52=20240202-15:50:09|10=093|
2024-02-02 16:50:14.346 [33] [FixSender] (DEBUG) Receiving 8=FIX.4.4|9=62|35=0|34=222|49=DMA_HUB|56=FIXCLIENT1|52=20240202-15:50:14.346|10=025|
2024-02-02 16:50:39.960 [34] [FixSender] (DEBUG) Sending 8=FIX.4.4|9=58|35=0|49=FIXCLIENT1|56=DMA_HUB|34=220|52=20240202-15:50:39|10=088|
2024-02-02 16:50:44.292 [33] [FixSender] (DEBUG) Receiving 8=FIX.4.4|9=62|35=0|34=223|49=DMA_HUB|56=FIXCLIENT1|52=20240202-15:50:44.292|10=029|
2024-02-02 16:51:09.963 [34] [FixSender] (DEBUG) Sending 8=FIX.4.4|9=58|35=0|49=FIXCLIENT1|56=DMA_HUB|34=221|52=20240202-15:51:09|10=087|
2024-02-02 16:51:14.247 [33] [FixSender] (DEBUG) Receiving 8=FIX.4.4|9=62|35=0|34=224|49=DMA_HUB|56=FIXCLIENT1|52=20240202-15:51:14.246|10=027|
2024-02-02 16:51:39.968 [34] [FixSender] (DEBUG) Sending 8=FIX.4.4|9=58|35=0|49=FIXCLIENT1|56=DMA_HUB|34=222|52=20240202-15:51:39|10=091|
2024-02-02 16:51:44.197 [33] [FixSender] (DEBUG) Receiving 8=FIX.4.4|9=62|35=0|34=225|49=DMA_HUB|56=FIXCLIENT1|52=20240202-15:51:44.196|10=035|
2024-02-02 16:52:09.978 [34] [FixSender] (DEBUG) Sending 8=FIX.4.4|9=58|35=0|49=FIXCLIENT1|56=DMA_HUB|34=223|52=20240202-15:52:09|10=090|
2024-02-02 16:52:14.158 [33] [FixSender] (DEBUG) Receiving 8=FIX.4.4|9=62|35=0|34=226|49=DMA_HUB|56=FIXCLIENT1|52=20240202-15:52:14.156|10=030|
2024-02-02 16:52:39.981 [34] [FixSender] (DEBUG) Sending 8=FIX.4.4|9=58|35=0|49=FIXCLIENT1|56=DMA_HUB|34=224|52=20240202-15:52:39|10=094|
2024-02-02 16:52:44.110 [33] [FixSender] (DEBUG) Receiving 8=FIX.4.4|9=62|35=0|34=227|49=DMA_HUB|56=FIXCLIENT1|52=20240202-15:52:44.110|10=024|
2024-02-02 16:53:09.986 [34] [FixSender] (DEBUG) Sending 8=FIX.4.4|9=58|35=0|49=FIXCLIENT1|56=DMA_HUB|34=225|52=20240202-15:53:09|10=093|
2024-02-02 16:53:14.115 [33] [FixSender] (DEBUG) Receiving 8=FIX.4.4|9=62|35=0|34=228|49=DMA_HUB|56=FIXCLIENT1|52=20240202-15:53:14.115|10=028|
2024-02-02 16:53:40.001 [34] [FixSender] (DEBUG) Sending 8=FIX.4.4|9=58|35=0|49=FIXCLIENT1|56=DMA_HUB|34=226|52=20240202-15:53:40|10=089|
2024-02-02 16:53:44.064 [33] [FixSender] (DEBUG) Receiving 8=FIX.4.4|9=62|35=0|34=229|49=DMA_HUB|56=FIXCLIENT1|52=20240202-15:53:44.064|10=035|
2024-02-02 16:54:10.012 [34] [FixSender] (DEBUG) Sending 8=FIX.4.4|9=58|35=0|49=FIXCLIENT1|56=DMA_HUB|34=227|52=20240202-15:54:10|10=088|
2024-02-02 16:54:14.027 [33] [FixSender] (DEBUG) Receiving 8=FIX.4.4|9=62|35=0|34=230|49=DMA_HUB|56=FIXCLIENT1|52=20240202-15:54:14.027|10=024|
2024-02-02 16:54:40.022 [34] [FixSender] (DEBUG) Sending 8=FIX.4.4|9=58|35=0|49=FIXCLIENT1|56=DMA_HUB|34=228|52=20240202-15:54:40|10=092|
2024-02-02 16:54:43.968 [33] [FixSender] (DEBUG) Receiving 8=FIX.4.4|9=62|35=0|34=231|49=DMA_HUB|56=FIXCLIENT1|52=20240202-15:54:43.967|10=040|
2024-02-02 16:55:10.036 [34] [FixSender] (DEBUG) Sending 8=FIX.4.4|9=58|35=0|49=FIXCLIENT1|56=DMA_HUB|34=229|52=20240202-15:55:10|10=091|
2024-02-02 16:55:13.922 [33] [FixSender] (DEBUG) Receiving 8=FIX.4.4|9=62|35=0|34=232|49=DMA_HUB|56=FIXCLIENT1|52=20240202-15:55:13.922|10=030|
2024-02-02 16:55:40.040 [34] [FixSender] (DEBUG) Sending 8=FIX.4.4|9=58|35=0|49=FIXCLIENT1|56=DMA_HUB|34=230|52=20240202-15:55:40|10=086|
2024-02-02 16:55:43.885 [33] [FixSender] (DEBUG) Receiving 8=FIX.4.4|9=62|35=0|34=233|49=DMA_HUB|56=FIXCLIENT1|52=20240202-15:55:43.884|10=041|
2024-02-02 16:56:10.052 [34] [FixSender] (DEBUG) Sending 8=FIX.4.4|9=58|35=0|49=FIXCLIENT1|56=DMA_HUB|34=231|52=20240202-15:56:10|10=085|
2024-02-02 16:56:13.828 [33] [FixSender] (DEBUG) Receiving 8=FIX.4.4|9=62|35=0|34=234|49=DMA_HUB|56=FIXCLIENT1|52=20240202-15:56:13.827|10=037|
2024-02-02 16:56:40.056 [34] [FixSender] (DEBUG) Sending 8=FIX.4.4|9=58|35=0|49=FIXCLIENT1|56=DMA_HUB|34=232|52=20240202-15:56:40|10=089|
2024-02-02 16:56:43.779 [33] [FixSender] (DEBUG) Receiving 8=FIX.4.4|9=62|35=0|34=235|49=DMA_HUB|56=FIXCLIENT1|52=20240202-15:56:43.779|10=047|
2024-02-02 16:57:10.062 [34] [FixSender] (DEBUG) Sending 8=FIX.4.4|9=58|35=0|49=FIXCLIENT1|56=DMA_HUB|34=233|52=20240202-15:57:10|10=088|
2024-02-02 16:57:13.728 [33] [FixSender] (DEBUG) Receiving 8=FIX.4.4|9=62|35=0|34=236|49=DMA_HUB|56=FIXCLIENT1|52=20240202-15:57:13.728|10=040|
2024-02-02 16:57:40.066 [34] [FixSender] (DEBUG) Sending 8=FIX.4.4|9=58|35=0|49=FIXCLIENT1|56=DMA_HUB|34=234|52=20240202-15:57:40|10=092|
2024-02-02 16:57:43.687 [33] [FixSender] (DEBUG) Receiving 8=FIX.4.4|9=62|35=0|34=237|49=DMA_HUB|56=FIXCLIENT1|52=20240202-15:57:43.687|10=048|
2024-02-02 16:58:10.078 [34] [FixSender] (DEBUG) Sending 8=FIX.4.4|9=58|35=0|49=FIXCLIENT1|56=DMA_HUB|34=235|52=20240202-15:58:10|10=091|
2024-02-02 16:58:13.630 [33] [FixSender] (DEBUG) Receiving 8=FIX.4.4|9=62|35=0|34=238|49=DMA_HUB|56=FIXCLIENT1|52=20240202-15:58:13.630|10=035|
2024-02-02 16:58:40.084 [34] [FixSender] (DEBUG) Sending 8=FIX.4.4|9=58|35=0|49=FIXCLIENT1|56=DMA_HUB|34=236|52=20240202-15:58:40|10=095|
2024-02-02 16:58:43.584 [33] [FixSender] (DEBUG) Receiving 8=FIX.4.4|9=62|35=0|34=239|49=DMA_HUB|56=FIXCLIENT1|52=20240202-15:58:43.584|10=047|
2024-02-02 16:59:10.094 [34] [FixSender] (DEBUG) Sending 8=FIX.4.4|9=58|35=0|49=FIXCLIENT1|56=DMA_HUB|34=237|52=20240202-15:59:10|10=094|
2024-02-02 16:59:13.549 [33] [FixSender] (DEBUG) Receiving 8=FIX.4.4|9=62|35=0|34=240|49=DMA_HUB|56=FIXCLIENT1|52=20240202-15:59:13.548|10=037|
2024-02-02 16:59:40.134 [34] [FixSender] (DEBUG) Sending 8=FIX.4.4|9=58|35=0|49=FIXCLIENT1|56=DMA_HUB|34=238|52=20240202-15:59:40|10=098|
2024-02-02 16:59:43.498 [33] [FixSender] (DEBUG) Receiving 8=FIX.4.4|9=62|35=0|34=241|49=DMA_HUB|56=FIXCLIENT1|52=20240202-15:59:43.497|10=044|
2024-02-02 17:00:10.148 [34] [FixSender] (DEBUG) Sending 8=FIX.4.4|9=58|35=0|49=FIXCLIENT1|56=DMA_HUB|34=239|52=20240202-16:00:10|10=083|
2024-02-02 17:00:13.440 [33] [FixSender] (DEBUG) Receiving 8=FIX.4.4|9=62|35=0|34=242|49=DMA_HUB|56=FIXCLIENT1|52=20240202-16:00:13.440|10=017|
2024-02-02 17:00:40.154 [34] [FixSender] (DEBUG) Sending 8=FIX.4.4|9=58|35=0|49=FIXCLIENT1|56=DMA_HUB|34=240|52=20240202-16:00:40|10=078|
2024-02-02 17:00:43.390 [33] [FixSender] (DEBUG) Receiving 8=FIX.4.4|9=62|35=0|34=243|49=DMA_HUB|56=FIXCLIENT1|52=20240202-16:00:43.390|10=025|
2024-02-02 17:01:10.161 [34] [FixSender] (DEBUG) Sending 8=FIX.4.4|9=58|35=0|49=FIXCLIENT1|56=DMA_HUB|34=241|52=20240202-16:01:10|10=077|
2024-02-02 17:01:13.343 [33] [FixSender] (DEBUG) Receiving 8=FIX.4.4|9=62|35=0|34=244|49=DMA_HUB|56=FIXCLIENT1|52=20240202-16:01:13.343|10=022|
2024-02-02 17:01:40.171 [34] [FixSender] (DEBUG) Sending 8=FIX.4.4|9=58|35=0|49=FIXCLIENT1|56=DMA_HUB|34=242|52=20240202-16:01:40|10=081|
2024-02-02 17:01:43.316 [33] [FixSender] (DEBUG) Receiving 8=FIX.4.4|9=62|35=0|34=245|49=DMA_HUB|56=FIXCLIENT1|52=20240202-16:01:43.315|10=025|
2024-02-02 17:02:10.182 [34] [FixSender] (DEBUG) Sending 8=FIX.4.4|9=58|35=0|49=FIXCLIENT1|56=DMA_HUB|34=243|52=20240202-16:02:10|10=080|
2024-02-02 17:02:13.319 [33] [FixSender] (DEBUG) Receiving 8=FIX.4.4|9=62|35=0|34=246|49=DMA_HUB|56=FIXCLIENT1|52=20240202-16:02:13.319|10=028|
2024-02-02 17:02:40.195 [34] [FixSender] (DEBUG) Sending 8=FIX.4.4|9=58|35=0|49=FIXCLIENT1|56=DMA_HUB|34=244|52=20240202-16:02:40|10=084|
2024-02-02 17:02:43.263 [33] [FixSender] (DEBUG) Receiving 8=FIX.4.4|9=62|35=0|34=247|49=DMA_HUB|56=FIXCLIENT1|52=20240202-16:02:43.263|10=030|
2024-02-02 17:03:10.197 [34] [FixSender] (DEBUG) Sending 8=FIX.4.4|9=58|35=0|49=FIXCLIENT1|56=DMA_HUB|34=245|52=20240202-16:03:10|10=083|
2024-02-02 17:03:13.217 [33] [FixSender] (DEBUG) Receiving 8=FIX.4.4|9=62|35=0|34=248|49=DMA_HUB|56=FIXCLIENT1|52=20240202-16:03:13.216|10=027|
2024-02-02 17:03:40.210 [34] [FixSender] (DEBUG) Sending 8=FIX.4.4|9=58|35=0|49=FIXCLIENT1|56=DMA_HUB|34=246|52=20240202-16:03:40|10=087|
2024-02-02 17:03:43.178 [33] [FixSender] (DEBUG) Receiving 8=FIX.4.4|9=62|35=0|34=249|49=DMA_HUB|56=FIXCLIENT1|52=20240202-16:03:43.177|10=037|
2024-02-02 17:04:10.210 [34] [FixSender] (DEBUG) Sending 8=FIX.4.4|9=58|35=0|49=FIXCLIENT1|56=DMA_HUB|34=247|52=20240202-16:04:10|10=086|
2024-02-02 17:04:13.119 [33] [FixSender] (DEBUG) Receiving 8=FIX.4.4|9=62|35=0|34=250|49=DMA_HUB|56=FIXCLIENT1|52=20240202-16:04:13.118|10=022|
2024-02-02 17:04:40.215 [34] [FixSender] (DEBUG) Sending 8=FIX.4.4|9=58|35=0|49=FIXCLIENT1|56=DMA_HUB|34=248|52=20240202-16:04:40|10=090|
2024-02-02 17:04:43.072 [33] [FixSender] (DEBUG) Receiving 8=FIX.4.4|9=62|35=0|34=251|49=DMA_HUB|56=FIXCLIENT1|52=20240202-16:04:43.071|10=024|
2024-02-02 17:05:10.219 [34] [FixSender] (DEBUG) Sending 8=FIX.4.4|9=58|35=0|49=FIXCLIENT1|56=DMA_HUB|34=249|52=20240202-16:05:10|10=089|
2024-02-02 17:05:13.038 [33] [FixSender] (DEBUG) Receiving 8=FIX.4.4|9=62|35=0|34=252|49=DMA_HUB|56=FIXCLIENT1|52=20240202-16:05:13.037|10=025|
2024-02-02 17:05:40.226 [34] [FixSender] (DEBUG) Sending 8=FIX.4.4|9=58|35=0|49=FIXCLIENT1|56=DMA_HUB|34=250|52=20240202-16:05:40|10=084|
2024-02-02 17:05:42.977 [33] [FixSender] (DEBUG) Receiving 8=FIX.4.4|9=62|35=0|34=253|49=DMA_HUB|56=FIXCLIENT1|52=20240202-16:05:42.976|10=040|
2024-02-02 17:06:10.238 [34] [FixSender] (DEBUG) Sending 8=FIX.4.4|9=58|35=0|49=FIXCLIENT1|56=DMA_HUB|34=251|52=20240202-16:06:10|10=083|
2024-02-02 17:06:12.941 [33] [FixSender] (DEBUG) Receiving 8=FIX.4.4|9=62|35=0|34=254|49=DMA_HUB|56=FIXCLIENT1|52=20240202-16:06:12.940|10=030|
2024-02-02 17:06:40.243 [34] [FixSender] (DEBUG) Sending 8=FIX.4.4|9=58|35=0|49=FIXCLIENT1|56=DMA_HUB|34=252|52=20240202-16:06:40|10=087|
2024-02-02 17:06:42.881 [33] [FixSender] (DEBUG) Receiving 8=FIX.4.4|9=62|35=0|34=255|49=DMA_HUB|56=FIXCLIENT1|52=20240202-16:06:42.881|10=038|
2024-02-02 17:07:10.244 [34] [FixSender] (DEBUG) Sending 8=FIX.4.4|9=58|35=0|49=FIXCLIENT1|56=DMA_HUB|34=253|52=20240202-16:07:10|10=086|
2024-02-02 17:07:12.841 [33] [FixSender] (DEBUG) Receiving 8=FIX.4.4|9=62|35=0|34=256|49=DMA_HUB|56=FIXCLIENT1|52=20240202-16:07:12.841|10=033|
2024-02-02 17:07:40.258 [34] [FixSender] (DEBUG) Sending 8=FIX.4.4|9=58|35=0|49=FIXCLIENT1|56=DMA_HUB|34=254|52=20240202-16:07:40|10=090|
2024-02-02 17:07:42.786 [33] [FixSender] (DEBUG) Receiving 8=FIX.4.4|9=62|35=0|34=257|49=DMA_HUB|56=FIXCLIENT1|52=20240202-16:07:42.785|10=044|
2024-02-02 17:08:10.259 [34] [FixSender] (DEBUG) Sending 8=FIX.4.4|9=58|35=0|49=FIXCLIENT1|56=DMA_HUB|34=255|52=20240202-16:08:10|10=089|
2024-02-02 17:08:12.744 [33] [FixSender] (DEBUG) Receiving 8=FIX.4.4|9=62|35=0|34=258|49=DMA_HUB|56=FIXCLIENT1|52=20240202-16:08:12.743|10=037|
2024-02-02 17:08:40.273 [34] [FixSender] (DEBUG) Sending 8=FIX.4.4|9=58|35=0|49=FIXCLIENT1|56=DMA_HUB|34=256|52=20240202-16:08:40|10=093|
2024-02-02 17:08:42.694 [33] [FixSender] (DEBUG) Receiving 8=FIX.4.4|9=62|35=0|34=259|49=DMA_HUB|56=FIXCLIENT1|52=20240202-16:08:42.693|10=045|
2024-02-02 17:09:10.281 [34] [FixSender] (DEBUG) Sending 8=FIX.4.4|9=58|35=0|49=FIXCLIENT1|56=DMA_HUB|34=257|52=20240202-16:09:10|10=092|
2024-02-02 17:09:12.652 [33] [FixSender] (DEBUG) Receiving 8=FIX.4.4|9=62|35=0|34=260|49=DMA_HUB|56=FIXCLIENT1|52=20240202-16:09:12.650|10=028|
2024-02-02 17:09:40.292 [34] [FixSender] (DEBUG) Sending 8=FIX.4.4|9=58|35=0|49=FIXCLIENT1|56=DMA_HUB|34=258|52=20240202-16:09:40|10=096|
2024-02-02 17:09:42.606 [33] [FixSender] (DEBUG) Receiving 8=FIX.4.4|9=62|35=0|34=261|49=DMA_HUB|56=FIXCLIENT1|52=20240202-16:09:42.605|10=032|
2024-02-02 17:10:10.304 [34] [FixSender] (DEBUG) Sending 8=FIX.4.4|9=58|35=0|49=FIXCLIENT1|56=DMA_HUB|34=259|52=20240202-16:10:10|10=086|
2024-02-02 17:10:12.555 [33] [FixSender] (DEBUG) Receiving 8=FIX.4.4|9=62|35=0|34=262|49=DMA_HUB|56=FIXCLIENT1|52=20240202-16:10:12.554|10=025|
2024-02-02 17:10:40.304 [34] [FixSender] (DEBUG) Sending 8=FIX.4.4|9=58|35=0|49=FIXCLIENT1|56=DMA_HUB|34=260|52=20240202-16:10:40|10=081|
2024-02-02 17:10:42.495 [33] [FixSender] (DEBUG) Receiving 8=FIX.4.4|9=62|35=0|34=263|49=DMA_HUB|56=FIXCLIENT1|52=20240202-16:10:42.495|10=033|
2024-02-02 17:11:10.307 [34] [FixSender] (DEBUG) Sending 8=FIX.4.4|9=58|35=0|49=FIXCLIENT1|56=DMA_HUB|34=261|52=20240202-16:11:10|10=080|
2024-02-02 17:11:12.459 [33] [FixSender] (DEBUG) Receiving 8=FIX.4.4|9=62|35=0|34=264|49=DMA_HUB|56=FIXCLIENT1|52=20240202-16:11:12.457|10=030|
2024-02-02 17:11:40.312 [34] [FixSender] (DEBUG) Sending 8=FIX.4.4|9=58|35=0|49=FIXCLIENT1|56=DMA_HUB|34=262|52=20240202-16:11:40|10=084|
2024-02-02 17:11:42.405 [33] [FixSender] (DEBUG) Receiving 8=FIX.4.4|9=62|35=0|34=265|49=DMA_HUB|56=FIXCLIENT1|52=20240202-16:11:42.404|10=026|
2024-02-02 17:12:10.313 [34] [FixSender] (DEBUG) Sending 8=FIX.4.4|9=58|35=0|49=FIXCLIENT1|56=DMA_HUB|34=263|52=20240202-16:12:10|10=083|
2024-02-02 17:12:12.353 [33] [FixSender] (DEBUG) Receiving 8=FIX.4.4|9=62|35=0|34=266|49=DMA_HUB|56=FIXCLIENT1|52=20240202-16:12:12.353|10=028|
2024-02-02 17:12:40.316 [34] [FixSender] (DEBUG) Sending 8=FIX.4.4|9=58|35=0|49=FIXCLIENT1|56=DMA_HUB|34=264|52=20240202-16:12:40|10=087|
2024-02-02 17:12:42.304 [33] [FixSender] (DEBUG) Receiving 8=FIX.4.4|9=62|35=0|34=267|49=DMA_HUB|56=FIXCLIENT1|52=20240202-16:12:42.304|10=028|
2024-02-02 17:13:10.318 [34] [FixSender] (DEBUG) Sending 8=FIX.4.4|9=58|35=0|49=FIXCLIENT1|56=DMA_HUB|34=265|52=20240202-16:13:10|10=086|
2024-02-02 17:13:12.258 [33] [FixSender] (DEBUG) Receiving 8=FIX.4.4|9=62|35=0|34=268|49=DMA_HUB|56=FIXCLIENT1|52=20240202-16:13:12.258|10=035|
2024-02-02 17:13:40.320 [34] [FixSender] (DEBUG) Sending 8=FIX.4.4|9=58|35=0|49=FIXCLIENT1|56=DMA_HUB|34=266|52=20240202-16:13:40|10=090|
2024-02-02 17:13:42.210 [33] [FixSender] (DEBUG) Receiving 8=FIX.4.4|9=62|35=0|34=269|49=DMA_HUB|56=FIXCLIENT1|52=20240202-16:13:42.208|10=034|
2024-02-02 17:14:10.322 [34] [FixSender] (DEBUG) Sending 8=FIX.4.4|9=58|35=0|49=FIXCLIENT1|56=DMA_HUB|34=267|52=20240202-16:14:10|10=089|
2024-02-02 17:14:12.166 [33] [FixSender] (DEBUG) Receiving 8=FIX.4.4|9=62|35=0|34=270|49=DMA_HUB|56=FIXCLIENT1|52=20240202-16:14:12.166|10=027|
2024-02-02 17:14:40.323 [34] [FixSender] (DEBUG) Sending 8=FIX.4.4|9=58|35=0|49=FIXCLIENT1|56=DMA_HUB|34=268|52=20240202-16:14:40|10=093|
2024-02-02 17:14:42.128 [33] [FixSender] (DEBUG) Receiving 8=FIX.4.4|9=62|35=0|34=271|49=DMA_HUB|56=FIXCLIENT1|52=20240202-16:14:42.118|10=028|
2024-02-02 17:15:10.325 [34] [FixSender] (DEBUG) Sending 8=FIX.4.4|9=58|35=0|49=FIXCLIENT1|56=DMA_HUB|34=269|52=20240202-16:15:10|10=092|
2024-02-02 17:15:12.067 [33] [FixSender] (DEBUG) Receiving 8=FIX.4.4|9=62|35=0|34=272|49=DMA_HUB|56=FIXCLIENT1|52=20240202-16:15:12.066|10=029|
2024-02-02 17:15:40.340 [34] [FixSender] (DEBUG) Sending 8=FIX.4.4|9=58|35=0|49=FIXCLIENT1|56=DMA_HUB|34=270|52=20240202-16:15:40|10=087|
2024-02-02 17:15:42.028 [33] [FixSender] (DEBUG) Receiving 8=FIX.4.4|9=62|35=0|34=273|49=DMA_HUB|56=FIXCLIENT1|52=20240202-16:15:42.028|10=031|
2024-02-02 17:16:10.341 [34] [FixSender] (DEBUG) Sending 8=FIX.4.4|9=58|35=0|49=FIXCLIENT1|56=DMA_HUB|34=271|52=20240202-16:16:10|10=086|
2024-02-02 17:16:11.972 [33] [FixSender] (DEBUG) Receiving 8=FIX.4.4|9=62|35=0|34=274|49=DMA_HUB|56=FIXCLIENT1|52=20240202-16:16:11.971|10=036|
2024-02-02 17:16:40.343 [34] [FixSender] (DEBUG) Sending 8=FIX.4.4|9=58|35=0|49=FIXCLIENT1|56=DMA_HUB|34=272|52=20240202-16:16:40|10=090|
2024-02-02 17:16:41.930 [33] [FixSender] (DEBUG) Receiving 8=FIX.4.4|9=62|35=0|34=275|49=DMA_HUB|56=FIXCLIENT1|52=20240202-16:16:41.929|10=043|
2024-02-02 17:16:47.934 [39] [FixSender] (DEBUG) Sending 8=FIX.4.4|9=194|35=D|49=FIXCLIENT1|56=DMA_HUB|34=273|52=20240202-16:16:47|21=1|11=HS_17068906073|38=10|55=FBTP202106@XEUR|54=2|60=20240202-16:16:47|40=2|59=0|44=3910|15=EUR|207=XEUR|109=fidameur|1=fidameur_123|10=102|
2024-02-02 17:16:48.583 [33] [FixSender] (DEBUG) Receiving 8=FIX.4.4|9=206|35=8|34=276|49=DMA_HUB|56=FIXCLIENT1|52=20240202-16:16:48.582|11=HS_17068906073|37=FXUH3kWRQ|54=2|40=2|59=0|17=202402024|150=A|39=A|38=10|151=10|14=0|6=0|44=3910|60=20240202-16:16:47.000|55=FBTP202106@XEUR|10=030|
2024-02-02 17:16:59.956 [40] [FixSender] (DEBUG) Sending 8=FIX.4.4|9=179|35=D|49=FIXCLIENT1|56=DMA_HUB|34=274|52=20240202-16:16:59|21=3|11=HS_17068906194|38=10|55=FBTP202103@XEUR|54=1|60=20240202-16:16:59|40=2|59=1|44=3900|15=EUR|207=XEUR|109=fidameur|10=193|
2024-02-02 17:16:59.959 [33] [FixSender] (DEBUG) Receiving 8=FIX.4.4|9=206|35=8|34=277|49=DMA_HUB|56=FIXCLIENT1|52=20240202-16:16:59.958|11=HS_17068906194|37=FXVH3kWRQ|54=1|40=2|59=1|17=202402025|150=A|39=A|38=10|151=10|14=0|6=0|44=3900|60=20240202-16:16:59.000|55=FBTP202103@XEUR|10=045|
2024-02-02 17:17:06.841 [41] [FixSender] (DEBUG) Sending 8=FIX.4.4|9=211|35=D|49=FIXCLIENT1|56=DMA_HUB|34=275|52=20240202-16:17:06|21=1|11=HS_17068906265|38=4937|55=ORANGE|54=1|60=20240202-16:17:06|40=2|59=0|44=9|48=FR0000133308|22=4|15=EUR|207=XPAR|1=bram_123|109=bram|58=BROKERTOTO|10=124|
2024-02-02 17:17:06.854 [33] [FixSender] (DEBUG) Receiving 8=FIX.4.4|9=268|35=8|34=278|49=DMA_HUB|56=FIXCLIENT1|52=20240202-16:17:06.853|11=HS_17068906265|37=NONE|38=4937|151=0|14=0|17=202402026|150=8|39=8|6=0|44=9|54=1|40=2|59=0|22=4|48=FR0000133308|55=ORANGE|207=XPAR|15=EUR|58=Cannot resolve instrument 22=4;48=FR0000133308;207=XPAR;15=EUR|10=009|
2024-02-02 17:17:09.727 [42] [FixSender] (DEBUG) Sending 8=FIX.4.4|9=214|35=D|49=FIXCLIENT1|56=DMA_HUB|34=276|52=20240202-16:17:09|21=1|11=HS_17068906296|38=1597|55=PERNOD RICARD|54=1|60=20240202-16:17:09|40=2|59=0|44=190|48=FR0000120693|22=4|15=EUR|207=XPAR|109=fidameur|1=fidameur_123|10=110|
2024-02-02 17:17:09.730 [33] [FixSender] (DEBUG) Receiving 8=FIX.4.4|9=277|35=8|34=279|49=DMA_HUB|56=FIXCLIENT1|52=20240202-16:17:09.729|11=HS_17068906296|37=NONE|38=1597|151=0|14=0|17=202402027|150=8|39=8|6=0|44=190|54=1|40=2|59=0|22=4|48=FR0000120693|55=PERNOD RICARD|207=XPAR|15=EUR|58=Cannot resolve instrument 22=4;48=FR0000120693;207=XPAR;15=EUR|10=091|
2024-02-02 17:17:11.885 [33] [FixSender] (DEBUG) Receiving 8=FIX.4.4|9=62|35=0|34=280|49=DMA_HUB|56=FIXCLIENT1|52=20240202-16:17:11.885|10=038|
2024-02-02 17:17:17.482 [43] [FixSender] (DEBUG) Sending 8=FIX.4.4|9=187|35=D|49=FIXCLIENT1|56=DMA_HUB|34=277|52=20240202-16:17:17|21=3|11=HS_17068906377|38=24084|55=E:07G@XETR|54=2|60=20240202-16:17:17|40=2|59=1|44=143|15=EUR|207=XPAR|432=20221116|109=axa_im|10=129|
2024-02-02 17:17:17.484 [33] [FixSender] (DEBUG) Receiving 8=FIX.4.4|9=206|35=8|34=281|49=DMA_HUB|56=FIXCLIENT1|52=20240202-16:17:17.483|11=HS_17068906377|37=FXWH3kWRQ|54=2|40=2|59=1|17=202402028|150=A|39=A|38=24084|151=24084|14=0|6=0|44=143|60=20240202-16:17:17.000|55=E:07G@XETR|10=005|
2024-02-02 17:17:41.831 [33] [FixSender] (DEBUG) Receiving 8=FIX.4.4|9=62|35=0|34=282|49=DMA_HUB|56=FIXCLIENT1|52=20240202-16:17:41.830|10=033|
2024-02-02 17:17:47.105 [45] [FixSender] (DEBUG) Sending 8=FIX.4.4|9=194|35=D|49=FIXCLIENT1|56=DMA_HUB|34=278|52=20240202-16:17:47|21=1|11=HS_17068906678|38=3238|55=E:07G@XETR|54=1|60=20240202-16:17:47|40=2|59=0|44=197|48=US3390411052|22=4|15=EUR|207=XETR|1=bram_123|10=226|
2024-02-02 17:17:47.107 [33] [FixSender] (DEBUG) Receiving 8=FIX.4.4|9=236|35=8|34=283|49=DMA_HUB|56=FIXCLIENT1|52=20240202-16:17:47.106|11=HS_17068906678|37=FXXH3kWRQ|54=1|40=2|59=0|17=202402029|150=A|39=A|38=3238|151=3238|14=0|6=0|44=197|60=20240202-16:17:47.000|22=4|48=US3390411052|207=XETR|15=EUR|55=[N/A]|10=069|
2024-02-02 17:18:11.779 [33] [FixSender] (DEBUG) Receiving 8=FIX.4.4|9=62|35=0|34=284|49=DMA_HUB|56=FIXCLIENT1|52=20240202-16:18:11.779|10=045|
2024-02-02 17:18:17.106 [34] [FixSender] (DEBUG) Sending 8=FIX.4.4|9=58|35=0|49=FIXCLIENT1|56=DMA_HUB|34=279|52=20240202-16:18:17|10=103|
2024-02-02 17:18:22.947 [46] [FixSender] (DEBUG) Sending 8=FIX.4.4|9=194|35=D|49=FIXCLIENT1|56=DMA_HUB|34=280|52=20240202-16:18:22|21=1|11=HS_17068907029|38=2998|55=E:07G@XETR|54=1|60=20240202-16:18:22|40=2|59=0|44=197|48=US3390411052|22=4|15=EUR|207=XETR|1=bram_123|10=210|
2024-02-02 17:18:22.949 [33] [FixSender] (DEBUG) Receiving 8=FIX.4.4|9=237|35=8|34=285|49=DMA_HUB|56=FIXCLIENT1|52=20240202-16:18:22.948|11=HS_17068907029|37=FXYH3kWRQ|54=1|40=2|59=0|17=2024020210|150=A|39=A|38=2998|151=2998|14=0|6=0|44=197|60=20240202-16:18:22.000|22=4|48=US3390411052|207=XETR|15=EUR|55=[N/A]|10=130|
2024-02-02 17:18:28.802 [47] [FixSender] (DEBUG) Sending 8=FIX.4.4|9=195|35=D|49=FIXCLIENT1|56=DMA_HUB|34=281|52=20240202-16:18:28|21=1|11=HS_170689070810|38=2231|55=E:07G@XETR|54=1|60=20240202-16:18:28|40=2|59=0|44=197|48=US3390411052|22=4|15=EUR|207=XETR|1=bram_123|10=250|
2024-02-02 17:18:28.808 [33] [FixSender] (DEBUG) Receiving 8=FIX.4.4|9=238|35=8|34=286|49=DMA_HUB|56=FIXCLIENT1|52=20240202-16:18:28.803|11=HS_170689070810|37=FXZH3kWRQ|54=1|40=2|59=0|17=2024020211|150=A|39=A|38=2231|151=2231|14=0|6=0|44=197|60=20240202-16:18:28.000|22=4|48=US3390411052|207=XETR|15=EUR|55=[N/A]|10=142|
2024-02-02 17:18:38.558 [33] [FixSender] (DEBUG) Receiving 8=FIX.4.4|9=62|35=5|34=287|49=DMA_HUB|56=FIXCLIENT1|52=20240202-16:18:38.556|10=055|
2024-02-02 17:18:38.559 [33] [FixSender] (DEBUG) Sending 8=FIX.4.4|9=80|35=5|49=FIXCLIENT1|56=DMA_HUB|34=282|52=20240202-16:18:38|58=Replying to logout|10=022|
2024-02-02 17:18:38.559 [33] [FixSender] (WARNING) The Fix connection is close...
2024-02-02 17:18:38.563 [33] [FixSender] (INFO) physical cnx finished Connection reset by peer
2024-02-02 17:18:38.563 [33] [FixSender] (WARNING) Disconnected
2024-02-02 17:19:59.711 [48] [FixSender] (INFO) try to connect to : localhost port :12345
2024-02-02 17:19:59.715 [48] [FixSender] (INFO) physical cnx initiated
2024-02-02 17:19:59.719 [48] [FixSender] (DEBUG) Sending 8=FIX.4.4|9=88|35=A|49=FIXCLIENT1|56=DMA_HUB|34=283|52=20240202-16:19:59|98=0|108=30|95=9|96=null/null|10=205|
2024-02-02 17:19:59.725 [48] [FixSender] (DEBUG) Receiving 8=FIX.4.4|9=74|35=A|34=288|49=DMA_HUB|56=FIXCLIENT1|52=20240202-16:19:59.721|108=30|98=0|10=094|
2024-02-02 17:19:59.725 [48] [FixSender] (WARNING) The Fix connection is open...
2024-02-02 17:19:59.730 [48] [FixSender] (DEBUG) Sending 8=FIX.4.4|9=76|35=1|49=FIXCLIENT1|56=DMA_HUB|34=284|52=20240202-16:19:59|112=synchronized?|10=156|
2024-02-02 17:19:59.732 [48] [FixSender] (DEBUG) Receiving 8=FIX.4.4|9=80|35=0|34=289|49=DMA_HUB|56=FIXCLIENT1|52=20240202-16:19:59.731|112=synchronized?|10=100|
2024-02-02 17:20:02.851 [51] [FixSender] (DEBUG) Sending 8=FIX.4.4|9=195|35=D|49=FIXCLIENT1|56=DMA_HUB|34=285|52=20240202-16:20:02|21=1|11=HS_170689080211|38=4307|55=E:07G@XETR|54=1|60=20240202-16:20:02|40=2|59=0|44=197|48=US3390411052|22=4|15=EUR|207=XETR|1=bram_123|10=226|
2024-02-02 17:20:02.860 [48] [FixSender] (DEBUG) Receiving 8=FIX.4.4|9=238|35=8|34=290|49=DMA_HUB|56=FIXCLIENT1|52=20240202-16:20:02.859|11=HS_170689080211|37=FXJPvi1yT|54=1|40=2|59=0|17=2024020212|150=A|39=A|38=4307|151=4307|14=0|6=0|44=197|60=20240202-16:20:02.000|22=4|48=US3390411052|207=XETR|15=EUR|55=[N/A]|10=188|
2024-02-02 17:20:29.685 [48] [FixSender] (DEBUG) Receiving 8=FIX.4.4|9=62|35=0|34=291|49=DMA_HUB|56=FIXCLIENT1|52=20240202-16:20:29.684|10=040|
2024-02-02 17:20:32.855 [49] [FixSender] (DEBUG) Sending 8=FIX.4.4|9=58|35=0|49=FIXCLIENT1|56=DMA_HUB|34=286|52=20240202-16:20:32|10=091|
2024-02-02 17:20:59.641 [48] [FixSender] (DEBUG) Receiving 8=FIX.4.4|9=62|35=0|34=292|49=DMA_HUB|56=FIXCLIENT1|52=20240202-16:20:59.640|10=036|
2024-02-02 17:21:02.865 [49] [FixSender] (DEBUG) Sending 8=FIX.4.4|9=58|35=0|49=FIXCLIENT1|56=DMA_HUB|34=287|52=20240202-16:21:02|10=090|
2024-02-02 17:21:29.585 [48] [FixSender] (DEBUG) Receiving 8=FIX.4.4|9=62|35=0|34=293|49=DMA_HUB|56=FIXCLIENT1|52=20240202-16:21:29.585|10=043|
2024-02-02 17:21:32.879 [49] [FixSender] (DEBUG) Sending 8=FIX.4.4|9=58|35=0|49=FIXCLIENT1|56=DMA_HUB|34=288|52=20240202-16:21:32|10=094|
2024-02-02 17:21:59.546 [48] [FixSender] (DEBUG) Receiving 8=FIX.4.4|9=62|35=0|34=294|49=DMA_HUB|56=FIXCLIENT1|52=20240202-16:21:59.545|10=043|
2024-02-02 17:22:02.886 [49] [FixSender] (DEBUG) Sending 8=FIX.4.4|9=58|35=0|49=FIXCLIENT1|56=DMA_HUB|34=289|52=20240202-16:22:02|10=093|
2024-02-02 17:22:29.495 [48] [FixSender] (DEBUG) Receiving 8=FIX.4.4|9=62|35=0|34=295|49=DMA_HUB|56=FIXCLIENT1|52=20240202-16:22:29.495|10=046|
2024-02-02 17:22:32.899 [49] [FixSender] (DEBUG) Sending 8=FIX.4.4|9=58|35=0|49=FIXCLIENT1|56=DMA_HUB|34=290|52=20240202-16:22:32|10=088|
2024-02-02 17:22:59.441 [48] [FixSender] (DEBUG) Receiving 8=FIX.4.4|9=62|35=0|34=296|49=DMA_HUB|56=FIXCLIENT1|52=20240202-16:22:59.441|10=041|
2024-02-02 17:23:02.911 [49] [FixSender] (DEBUG) Sending 8=FIX.4.4|9=58|35=0|49=FIXCLIENT1|56=DMA_HUB|34=291|52=20240202-16:23:02|10=087|
2024-02-02 17:23:29.395 [48] [FixSender] (DEBUG) Receiving 8=FIX.4.4|9=62|35=0|34=297|49=DMA_HUB|56=FIXCLIENT1|52=20240202-16:23:29.394|10=047|
2024-02-02 17:23:32.920 [49] [FixSender] (DEBUG) Sending 8=FIX.4.4|9=58|35=0|49=FIXCLIENT1|56=DMA_HUB|34=292|52=20240202-16:23:32|10=091|
2024-02-02 17:23:59.344 [48] [FixSender] (DEBUG) Receiving 8=FIX.4.4|9=62|35=0|34=298|49=DMA_HUB|56=FIXCLIENT1|52=20240202-16:23:59.342|10=044|
2024-02-02 17:24:02.926 [49] [FixSender] (DEBUG) Sending 8=FIX.4.4|9=58|35=0|49=FIXCLIENT1|56=DMA_HUB|34=293|52=20240202-16:24:02|10=090|
2024-02-02 17:24:29.307 [48] [FixSender] (DEBUG) Receiving 8=FIX.4.4|9=62|35=0|34=299|49=DMA_HUB|56=FIXCLIENT1|52=20240202-16:24:29.305|10=042|
2024-02-02 17:24:32.939 [49] [FixSender] (DEBUG) Sending 8=FIX.4.4|9=58|35=0|49=FIXCLIENT1|56=DMA_HUB|34=294|52=20240202-16:24:32|10=094|
2024-02-02 17:24:56.413 [52] [FixSender] (DEBUG) Sending 8=FIX.4.4|9=195|35=D|49=FIXCLIENT1|56=DMA_HUB|34=295|52=20240202-16:24:56|21=1|11=HS_170689109612|38=2791|55=E:07G@XETR|54=1|60=20240202-16:24:56|40=2|59=0|44=197|48=US3390411052|22=4|15=EUR|207=XETR|1=bram_123|10=009|
2024-02-02 17:24:56.415 [48] [FixSender] (DEBUG) Receiving 8=FIX.4.4|9=238|35=8|34=300|49=DMA_HUB|56=FIXCLIENT1|52=20240202-16:24:56.414|11=HS_170689109612|37=FXJbEn4yT|54=1|40=2|59=0|17=2024020213|150=A|39=A|38=2791|151=2791|14=0|6=0|44=197|60=20240202-16:24:56.000|22=4|48=US3390411052|207=XETR|15=EUR|55=[N/A]|10=188|
2024-02-02 17:24:59.251 [48] [FixSender] (DEBUG) Receiving 8=FIX.4.4|9=62|35=0|34=301|49=DMA_HUB|56=FIXCLIENT1|52=20240202-16:24:59.250|10=028|
2024-02-02 17:25:12.534 [48] [FixSender] (DEBUG) Receiving 8=FIX.4.4|9=62|35=5|34=302|49=DMA_HUB|56=FIXCLIENT1|52=20240202-16:25:12.532|10=027|
2024-02-02 17:25:12.535 [48] [FixSender] (DEBUG) Sending 8=FIX.4.4|9=80|35=5|49=FIXCLIENT1|56=DMA_HUB|34=296|52=20240202-16:25:12|58=Replying to logout|10=017|
2024-02-02 17:25:12.535 [48] [FixSender] (WARNING) The Fix connection is close...
2024-02-02 17:25:12.538 [48] [FixSender] (INFO) physical cnx finished Connection reset by peer
2024-02-02 17:25:12.539 [48] [FixSender] (WARNING) Disconnected
2024-02-02 17:25:54.337 [53] [FixSender] (INFO) try to connect to : localhost port :12345
2024-02-02 17:25:54.339 [53] [FixSender] (INFO) physical cnx initiated
2024-02-02 17:25:54.342 [53] [FixSender] (DEBUG) Sending 8=FIX.4.4|9=88|35=A|49=FIXCLIENT1|56=DMA_HUB|34=297|52=20240202-16:25:54|98=0|108=30|95=9|96=null/null|10=202|
2024-02-02 17:25:54.349 [53] [FixSender] (DEBUG) Receiving 8=FIX.4.4|9=74|35=A|34=303|49=DMA_HUB|56=FIXCLIENT1|52=20240202-16:25:54.344|108=30|98=0|10=075|
2024-02-02 17:25:54.350 [53] [FixSender] (WARNING) The Fix connection is open...
2024-02-02 17:25:54.357 [53] [FixSender] (DEBUG) Sending 8=FIX.4.4|9=76|35=1|49=FIXCLIENT1|56=DMA_HUB|34=298|52=20240202-16:25:54|112=synchronized?|10=153|
2024-02-02 17:25:54.360 [53] [FixSender] (DEBUG) Receiving 8=FIX.4.4|9=80|35=0|34=304|49=DMA_HUB|56=FIXCLIENT1|52=20240202-16:25:54.358|112=synchronized?|10=085|
2024-02-02 17:26:24.310 [53] [FixSender] (DEBUG) Receiving 8=FIX.4.4|9=62|35=0|34=305|49=DMA_HUB|56=FIXCLIENT1|52=20240202-16:26:24.309|10=031|
2024-02-02 17:26:24.359 [54] [FixSender] (DEBUG) Sending 8=FIX.4.4|9=58|35=0|49=FIXCLIENT1|56=DMA_HUB|34=299|52=20240202-16:26:24|10=102|
2024-02-02 17:26:54.267 [53] [FixSender] (DEBUG) Receiving 8=FIX.4.4|9=62|35=0|34=306|49=DMA_HUB|56=FIXCLIENT1|52=20240202-16:26:54.265|10=036|
2024-02-02 17:26:54.372 [54] [FixSender] (DEBUG) Sending 8=FIX.4.4|9=58|35=0|49=FIXCLIENT1|56=DMA_HUB|34=300|52=20240202-16:26:54|10=088|
2024-02-02 17:27:16.999 [56] [FixSender] (DEBUG) Sending 8=FIX.4.4|9=195|35=D|49=FIXCLIENT1|56=DMA_HUB|34=301|52=20240202-16:27:16|21=1|11=HS_170689123613|38=2695|55=E:07G@XETR|54=1|60=20240202-16:27:16|40=2|59=0|44=197|48=US3390411052|22=4|15=EUR|207=XETR|1=bram_123|10=251|
2024-02-02 17:27:17.008 [53] [FixSender] (DEBUG) Receiving 8=FIX.4.4|9=238|35=8|34=307|49=DMA_HUB|56=FIXCLIENT1|52=20240202-16:27:17.007|11=HS_170689123613|37=FXXgZY6yT|54=1|40=2|59=0|17=2024020214|150=A|39=A|38=2695|151=2695|14=0|6=0|44=197|60=20240202-16:27:16.000|22=4|48=US3390411052|207=XETR|15=EUR|55=[N/A]|10=217|
2024-02-02 17:27:24.209 [53] [FixSender] (DEBUG) Receiving 8=FIX.4.4|9=62|35=0|34=308|49=DMA_HUB|56=FIXCLIENT1|52=20240202-16:27:24.209|10=034|
2024-02-02 17:27:47.000 [54] [FixSender] (DEBUG) Sending 8=FIX.4.4|9=58|35=0|49=FIXCLIENT1|56=DMA_HUB|34=302|52=20240202-16:27:47|10=093|
2024-02-02 17:27:51.168 [57] [FixSender] (DEBUG) Sending 8=FIX.4.4|9=194|35=D|49=FIXCLIENT1|56=DMA_HUB|34=303|52=20240202-16:27:51|21=1|11=HS_170689127114|38=256|55=E:07G@XETR|54=1|60=20240202-16:27:51|40=2|59=0|44=197|48=US3390411052|22=4|15=EUR|207=XETR|1=bram_123|10=193|
2024-02-02 17:27:51.180 [53] [FixSender] (DEBUG) Receiving 8=FIX.4.4|9=236|35=8|34=309|49=DMA_HUB|56=FIXCLIENT1|52=20240202-16:27:51.170|11=HS_170689127114|37=FXYgZY6yT|54=1|40=2|59=0|17=2024020215|150=A|39=A|38=256|151=256|14=0|6=0|44=197|60=20240202-16:27:51.000|22=4|48=US3390411052|207=XETR|15=EUR|55=[N/A]|10=103|
2024-02-02 17:27:51.196 [53] [FixSender] (DEBUG) Receiving 8=FIX.4.4|9=248|35=8|34=310|49=DMA_HUB|56=FIXCLIENT1|52=20240202-16:27:51.196|11=HS_170689127114|37=FXYgZY6yT|198=x10Z4yT|54=1|40=2|59=0|17=2024020216|150=0|39=0|38=256|151=256|14=0|6=0|44=197|60=20240202-16:27:51.177|22=4|48=US3390411052|207=XETR|15=EUR|55=[N/A]|10=108|
2024-02-02 17:27:51.202 [53] [FixSender] (DEBUG) Receiving 8=FIX.4.4|9=308|35=8|34=311|49=DMA_HUB|56=FIXCLIENT1|52=20240202-16:27:51.201|11=HS_170689127114|37=FXYgZY6yT|198=x10Z4yT|54=1|32=256|31=115|17=2024020217|527=BeL4kD1|150=F|39=2|38=256|151=0|14=256|6=115|44=197|60=20240202-16:27:51.178|22=4|48=US3390411052|207=XETR|15=EUR|55=[N/A]|453=1|448=strmrepl|447=D|452=17|40=2|59=0|10=254|
2024-02-02 17:27:54.168 [53] [FixSender] (DEBUG) Receiving 8=FIX.4.4|9=62|35=0|34=312|49=DMA_HUB|56=FIXCLIENT1|52=20240202-16:27:54.168|10=036|
2024-02-02 17:28:21.168 [54] [FixSender] (DEBUG) Sending 8=FIX.4.4|9=58|35=0|49=FIXCLIENT1|56=DMA_HUB|34=304|52=20240202-16:28:21|10=088|
2024-02-02 17:28:24.120 [53] [FixSender] (DEBUG) Receiving 8=FIX.4.4|9=62|35=0|34=313|49=DMA_HUB|56=FIXCLIENT1|52=20240202-16:28:24.120|10=023|
2024-02-02 17:28:51.170 [54] [FixSender] (DEBUG) Sending 8=FIX.4.4|9=58|35=0|49=FIXCLIENT1|56=DMA_HUB|34=305|52=20240202-16:28:51|10=092|
2024-02-02 17:28:54.070 [53] [FixSender] (DEBUG) Receiving 8=FIX.4.4|9=62|35=0|34=314|49=DMA_HUB|56=FIXCLIENT1|52=20240202-16:28:54.069|10=039|
2024-02-02 17:29:21.170 [54] [FixSender] (DEBUG) Sending 8=FIX.4.4|9=58|35=0|49=FIXCLIENT1|56=DMA_HUB|34=306|52=20240202-16:29:21|10=091|
2024-02-02 17:29:24.024 [53] [FixSender] (DEBUG) Receiving 8=FIX.4.4|9=62|35=0|34=315|49=DMA_HUB|56=FIXCLIENT1|52=20240202-16:29:24.023|10=028|
2024-02-02 17:29:51.175 [54] [FixSender] (DEBUG) Sending 8=FIX.4.4|9=58|35=0|49=FIXCLIENT1|56=DMA_HUB|34=307|52=20240202-16:29:51|10=095|
2024-02-02 17:29:53.977 [53] [FixSender] (DEBUG) Receiving 8=FIX.4.4|9=62|35=0|34=316|49=DMA_HUB|56=FIXCLIENT1|52=20240202-16:29:53.974|10=046|
2024-02-02 17:30:12.036 [58] [FixSender] (DEBUG) Sending 8=FIX.4.4|9=195|35=D|49=FIXCLIENT1|56=DMA_HUB|34=308|52=20240202-16:30:12|21=1|11=HS_170689141215|38=3000|55=E:07G@XETR|54=1|60=20240202-16:30:12|40=2|59=0|44=197|48=US3390411052|22=4|15=EUR|207=XETR|1=bram_123|10=217|
2024-02-02 17:30:12.038 [53] [FixSender] (DEBUG) Receiving 8=FIX.4.4|9=238|35=8|34=317|49=DMA_HUB|56=FIXCLIENT1|52=20240202-16:30:12.037|11=HS_170689141215|37=FXZgZY6yT|54=1|40=2|59=0|17=2024020218|150=A|39=A|38=3000|151=3000|14=0|6=0|44=197|60=20240202-16:30:12.000|22=4|48=US3390411052|207=XETR|15=EUR|55=[N/A]|10=166|
2024-02-02 17:30:12.040 [53] [FixSender] (DEBUG) Receiving 8=FIX.4.4|9=250|35=8|34=318|49=DMA_HUB|56=FIXCLIENT1|52=20240202-16:30:12.040|11=HS_170689141215|37=FXZgZY6yT|198=y10Z4yT|54=1|40=2|59=0|17=2024020219|150=0|39=0|38=3000|151=3000|14=0|6=0|44=197|60=20240202-16:30:12.038|22=4|48=US3390411052|207=XETR|15=EUR|55=[N/A]|10=154|
2024-02-02 17:30:12.042 [53] [FixSender] (DEBUG) Receiving 8=FIX.4.4|9=311|35=8|34=319|49=DMA_HUB|56=FIXCLIENT1|52=20240202-16:30:12.041|11=HS_170689141215|37=FXZgZY6yT|198=y10Z4yT|54=1|32=3000|31=113|17=2024020220|527=BeL4kD2|150=F|39=2|38=3000|151=0|14=3000|6=113|44=197|60=20240202-16:30:12.038|22=4|48=US3390411052|207=XETR|15=EUR|55=[N/A]|453=1|448=strmrepl|447=D|452=17|40=2|59=0|10=084|
2024-02-02 17:30:23.927 [53] [FixSender] (DEBUG) Receiving 8=FIX.4.4|9=62|35=0|34=320|49=DMA_HUB|56=FIXCLIENT1|52=20240202-16:30:23.926|10=027|
2024-02-02 17:30:33.291 [59] [FixSender] (DEBUG) Sending 8=FIX.4.4|9=195|35=D|49=FIXCLIENT1|56=DMA_HUB|34=309|52=20240202-16:30:33|21=1|11=HS_170689143316|38=3000|55=E:07G@XETR|54=1|60=20240202-16:30:33|40=2|59=0|44=197|48=US3390411052|22=4|15=EUR|207=XETR|1=bram_123|10=228|
2024-02-02 17:30:33.292 [53] [FixSender] (DEBUG) Receiving 8=FIX.4.4|9=238|35=8|34=321|49=DMA_HUB|56=FIXCLIENT1|52=20240202-16:30:33.292|11=HS_170689143316|37=FXagZY6yT|54=1|40=2|59=0|17=2024020221|150=A|39=A|38=3000|151=3000|14=0|6=0|44=197|60=20240202-16:30:33.000|22=4|48=US3390411052|207=XETR|15=EUR|55=[N/A]|10=175|
2024-02-02 17:30:33.295 [53] [FixSender] (DEBUG) Receiving 8=FIX.4.4|9=250|35=8|34=322|49=DMA_HUB|56=FIXCLIENT1|52=20240202-16:30:33.294|11=HS_170689143316|37=FXagZY6yT|198=z10Z4yT|54=1|40=2|59=0|17=2024020222|150=0|39=0|38=3000|151=3000|14=0|6=0|44=197|60=20240202-16:30:33.293|22=4|48=US3390411052|207=XETR|15=EUR|55=[N/A]|10=175|
2024-02-02 17:30:33.296 [53] [FixSender] (DEBUG) Receiving 8=FIX.4.4|9=311|35=8|34=323|49=DMA_HUB|56=FIXCLIENT1|52=20240202-16:30:33.296|11=HS_170689143316|37=FXagZY6yT|198=z10Z4yT|54=1|32=3000|31=112|17=2024020223|527=BeL4kD3|150=F|39=2|38=3000|151=0|14=3000|6=112|44=197|60=20240202-16:30:33.293|22=4|48=US3390411052|207=XETR|15=EUR|55=[N/A]|453=1|448=strmrepl|447=D|452=17|40=2|59=0|10=114|
2024-02-02 17:30:53.885 [53] [FixSender] (DEBUG) Receiving 8=FIX.4.4|9=62|35=0|34=324|49=DMA_HUB|56=FIXCLIENT1|52=20240202-16:30:53.884|10=037|
2024-02-02 17:30:57.031 [60] [FixSender] (DEBUG) Sending 8=FIX.4.4|9=194|35=D|49=FIXCLIENT1|56=DMA_HUB|34=310|52=20240202-16:30:57|21=1|11=HS_170689145717|38=500|55=E:07G@XETR|54=1|60=20240202-16:30:57|40=2|59=0|44=197|48=US3390411052|22=4|15=EUR|207=XETR|1=bram_123|10=192|
2024-02-02 17:30:57.040 [53] [FixSender] (DEBUG) Receiving 8=FIX.4.4|9=236|35=8|34=325|49=DMA_HUB|56=FIXCLIENT1|52=20240202-16:30:57.032|11=HS_170689145717|37=FXbgZY6yT|54=1|40=2|59=0|17=2024020224|150=A|39=A|38=500|151=500|14=0|6=0|44=197|60=20240202-16:30:57.000|22=4|48=US3390411052|207=XETR|15=EUR|55=[N/A]|10=100|
2024-02-02 17:30:57.040 [53] [FixSender] (DEBUG) Receiving 8=FIX.4.4|9=248|35=8|34=326|49=DMA_HUB|56=FIXCLIENT1|52=20240202-16:30:57.035|11=HS_170689145717|37=FXbgZY6yT|198=020Z4yT|54=1|40=2|59=0|17=2024020225|150=0|39=0|38=500|151=500|14=0|6=0|44=197|60=20240202-16:30:57.033|22=4|48=US3390411052|207=XETR|15=EUR|55=[N/A]|10=029|
2024-02-02 17:30:57.040 [53] [FixSender] (DEBUG) Receiving 8=FIX.4.4|9=308|35=8|34=327|49=DMA_HUB|56=FIXCLIENT1|52=20240202-16:30:57.037|11=HS_170689145717|37=FXbgZY6yT|198=020Z4yT|54=1|32=500|31=112|17=2024020226|527=BeL4kD4|150=F|39=2|38=500|151=0|14=500|6=112|44=197|60=20240202-16:30:57.033|22=4|48=US3390411052|207=XETR|15=EUR|55=[N/A]|453=1|448=strmrepl|447=D|452=17|40=2|59=0|10=178|
2024-02-02 17:30:59.165 [61] [FixSender] (DEBUG) Sending 8=FIX.4.4|9=195|35=D|49=FIXCLIENT1|56=DMA_HUB|34=311|52=20240202-16:30:59|21=1|11=HS_170689145918|38=10|55=FBTP202106@XEUR|54=2|60=20240202-16:30:59|40=2|59=0|44=3910|15=EUR|207=XEUR|109=fidameur|1=fidameur_123|10=154|
2024-02-02 17:30:59.172 [53] [FixSender] (DEBUG) Receiving 8=FIX.4.4|9=208|35=8|34=328|49=DMA_HUB|56=FIXCLIENT1|52=20240202-16:30:59.166|11=HS_170689145918|37=FXcgZY6yT|54=2|40=2|59=0|17=2024020227|150=A|39=A|38=10|151=10|14=0|6=0|44=3910|60=20240202-16:30:59.000|55=FBTP202106@XEUR|10=213|
