2024-02-12 10:52:46.481 [1] [Fixsender] (INFO) (c) 2001-2011 ullink SAS. FixSender. Release 1.11.
2024-02-12 10:52:48.927 [29] [FixSender] (INFO) try to connect to : localhost port :12345
2024-02-12 10:52:48.947 [29] [FixSender] (INFO) physical cnx initiated
2024-02-12 10:52:48.963 [29] [FixSender] (DEBUG) Sending 8=FIX.4.4|9=88|35=A|49=FIXCLIENT1|56=DMA_HUB|34=652|52=20240212-09:52:48|98=0|108=30|95=9|96=null/null|10=203|
2024-02-12 10:52:48.967 [29] [FixSender] (DEBUG) Receiving 8=FIX.4.4|9=72|35=A|34=1|49=DMA_HUB|56=FIXCLIENT1|52=20240212-09:52:48.964|108=30|98=0|10=242|
2024-02-12 10:52:48.969 [29] [FixSender] (DEBUG) Sending 8=FIX.4.4|9=110|35=5|49=FIXCLIENT1|56=DMA_HUB|34=653|52=20240212-09:52:48|58=MsgSeqNum expected 657, but MsgSeqNum received 1|10=224|
2024-02-12 10:52:48.970 [29] [FixSender] (INFO) physical cnx finished Connection reset by peer
2024-02-12 10:52:48.971 [29] [FixSender] (WARNING) Disconnected
2024-02-12 10:52:50.261 [33] [FixSender] (INFO) try to connect to : localhost port :12345
2024-02-12 10:52:50.262 [33] [FixSender] (INFO) physical cnx initiated
2024-02-12 10:52:50.264 [33] [FixSender] (DEBUG) Sending 8=FIX.4.4|9=86|35=A|49=FIXCLIENT1|56=DMA_HUB|34=1|52=20240212-09:52:50|98=0|108=30|95=9|96=null/null|10=086|
2024-02-12 10:52:50.268 [33] [FixSender] (DEBUG) Receiving 8=FIX.4.4|9=72|35=A|34=4|49=DMA_HUB|56=FIXCLIENT1|52=20240212-09:52:50.264|108=30|98=0|10=231|
2024-02-12 10:52:50.269 [33] [FixSender] (WARNING) The Fix connection is open...
2024-02-12 10:52:50.271 [33] [FixSender] (DEBUG) Sending 8=FIX.4.4|9=65|35=2|49=FIXCLIENT1|56=DMA_HUB|34=2|52=20240212-09:52:50|7=1|16=0|10=112|
2024-02-12 10:52:50.274 [33] [FixSender] (DEBUG) Receiving 8=FIX.4.4|9=102|35=4|34=1|49=DMA_HUB|56=FIXCLIENT1|52=20240212-09:52:50.274|43=Y|122=20240212-09:52:50.274|36=5|123=Y|10=241|
2024-02-12 10:52:52.867 [36] [FixSender] (DEBUG) Sending 8=FIX.4.4|9=196|35=D|49=FIXCLIENT1|56=DMA_HUB|34=3|52=20240212-09:52:52|21=1|11=HS_17077315720|38=5000|55=E:07G@XETR|54=1|60=20240212-09:52:52|40=2|59=0|44=197.111|48=US3390411052|22=4|15=EUR|207=XETR|1=bram_123|10=022|
2024-02-12 10:52:52.879 [33] [FixSender] (DEBUG) Receiving 8=FIX.4.4|9=238|35=8|34=5|49=DMA_HUB|56=FIXCLIENT1|52=20240212-09:52:52.877|11=HS_17077315720|37=FXlvuQDpH|54=1|40=2|59=0|17=202402121|150=A|39=A|38=5000|151=5000|14=0|6=0|44=197.111|60=20240212-09:52:52.000|22=4|48=US3390411052|207=XETR|15=EUR|55=[N/A]|10=232|
2024-02-12 10:53:01.868 [38] [FixSender] (DEBUG) Sending 8=FIX.4.4|9=194|35=D|49=FIXCLIENT1|56=DMA_HUB|34=4|52=20240212-09:53:01|21=1|11=HS_17077315811|38=5000|55=E:07G@XETR|54=1|60=20240212-09:53:01|40=2|59=0|44=197.1|48=US3390411052|22=4|15=EUR|207=XETR|1=bram_123|10=170|
2024-02-12 10:53:01.870 [33] [FixSender] (DEBUG) Receiving 8=FIX.4.4|9=236|35=8|34=6|49=DMA_HUB|56=FIXCLIENT1|52=20240212-09:53:01.869|11=HS_17077315811|37=FXmvuQDpH|54=1|40=2|59=0|17=202402122|150=A|39=A|38=5000|151=5000|14=0|6=0|44=197.1|60=20240212-09:53:01.000|22=4|48=US3390411052|207=XETR|15=EUR|55=[N/A]|10=127|
2024-02-12 10:53:20.266 [33] [FixSender] (DEBUG) Receiving 8=FIX.4.4|9=60|35=0|34=7|49=DMA_HUB|56=FIXCLIENT1|52=20240212-09:53:20.265|10=188|
2024-02-12 10:53:31.869 [34] [FixSender] (DEBUG) Sending 8=FIX.4.4|9=56|35=0|49=FIXCLIENT1|56=DMA_HUB|34=5|52=20240212-09:53:31|10=246|
2024-02-12 10:53:50.218 [33] [FixSender] (DEBUG) Receiving 8=FIX.4.4|9=60|35=0|34=8|49=DMA_HUB|56=FIXCLIENT1|52=20240212-09:53:50.217|10=189|
2024-02-12 10:54:01.870 [34] [FixSender] (DEBUG) Sending 8=FIX.4.4|9=56|35=0|49=FIXCLIENT1|56=DMA_HUB|34=6|52=20240212-09:54:01|10=245|
2024-02-12 10:54:20.170 [33] [FixSender] (DEBUG) Receiving 8=FIX.4.4|9=60|35=0|34=9|49=DMA_HUB|56=FIXCLIENT1|52=20240212-09:54:20.169|10=194|
2024-02-12 10:54:31.873 [34] [FixSender] (DEBUG) Sending 8=FIX.4.4|9=56|35=0|49=FIXCLIENT1|56=DMA_HUB|34=7|52=20240212-09:54:31|10=249|
2024-02-12 10:54:50.121 [33] [FixSender] (DEBUG) Receiving 8=FIX.4.4|9=61|35=0|34=10|49=DMA_HUB|56=FIXCLIENT1|52=20240212-09:54:50.120|10=225|
2024-02-12 10:55:01.874 [34] [FixSender] (DEBUG) Sending 8=FIX.4.4|9=56|35=0|49=FIXCLIENT1|56=DMA_HUB|34=8|52=20240212-09:55:01|10=248|
2024-02-12 10:55:20.074 [33] [FixSender] (DEBUG) Receiving 8=FIX.4.4|9=61|35=0|34=11|49=DMA_HUB|56=FIXCLIENT1|52=20240212-09:55:20.073|10=231|
2024-02-12 10:55:31.880 [34] [FixSender] (DEBUG) Sending 8=FIX.4.4|9=56|35=0|49=FIXCLIENT1|56=DMA_HUB|34=9|52=20240212-09:55:31|10=252|
2024-02-12 10:55:50.089 [33] [FixSender] (DEBUG) Receiving 8=FIX.4.4|9=61|35=0|34=12|49=DMA_HUB|56=FIXCLIENT1|52=20240212-09:55:50.089|10=242|
2024-02-12 10:56:01.882 [34] [FixSender] (DEBUG) Sending 8=FIX.4.4|9=57|35=0|49=FIXCLIENT1|56=DMA_HUB|34=10|52=20240212-09:56:01|10=035|
2024-02-12 10:56:20.041 [33] [FixSender] (DEBUG) Receiving 8=FIX.4.4|9=61|35=0|34=13|49=DMA_HUB|56=FIXCLIENT1|52=20240212-09:56:20.041|10=229|
2024-02-12 10:56:31.886 [34] [FixSender] (DEBUG) Sending 8=FIX.4.4|9=57|35=0|49=FIXCLIENT1|56=DMA_HUB|34=11|52=20240212-09:56:31|10=039|
2024-02-12 10:56:50.021 [33] [FixSender] (DEBUG) Receiving 8=FIX.4.4|9=61|35=0|34=14|49=DMA_HUB|56=FIXCLIENT1|52=20240212-09:56:49.993|10=001|
2024-02-12 10:57:01.889 [34] [FixSender] (DEBUG) Sending 8=FIX.4.4|9=57|35=0|49=FIXCLIENT1|56=DMA_HUB|34=12|52=20240212-09:57:01|10=038|
2024-02-12 10:57:19.945 [33] [FixSender] (DEBUG) Receiving 8=FIX.4.4|9=61|35=0|34=15|49=DMA_HUB|56=FIXCLIENT1|52=20240212-09:57:19.945|10=253|
2024-02-12 10:57:31.890 [34] [FixSender] (DEBUG) Sending 8=FIX.4.4|9=57|35=0|49=FIXCLIENT1|56=DMA_HUB|34=13|52=20240212-09:57:31|10=042|
2024-02-12 10:57:49.897 [33] [FixSender] (DEBUG) Receiving 8=FIX.4.4|9=61|35=0|34=16|49=DMA_HUB|56=FIXCLIENT1|52=20240212-09:57:49.897|10=007|
2024-02-12 10:58:01.892 [34] [FixSender] (DEBUG) Sending 8=FIX.4.4|9=57|35=0|49=FIXCLIENT1|56=DMA_HUB|34=14|52=20240212-09:58:01|10=041|
2024-02-12 10:58:19.848 [33] [FixSender] (DEBUG) Receiving 8=FIX.4.4|9=61|35=0|34=17|49=DMA_HUB|56=FIXCLIENT1|52=20240212-09:58:19.848|10=002|
2024-02-12 10:58:31.895 [34] [FixSender] (DEBUG) Sending 8=FIX.4.4|9=57|35=0|49=FIXCLIENT1|56=DMA_HUB|34=15|52=20240212-09:58:31|10=045|
2024-02-12 10:58:49.801 [33] [FixSender] (DEBUG) Receiving 8=FIX.4.4|9=61|35=0|34=18|49=DMA_HUB|56=FIXCLIENT1|52=20240212-09:58:49.801|10=251|
2024-02-12 10:59:01.908 [34] [FixSender] (DEBUG) Sending 8=FIX.4.4|9=57|35=0|49=FIXCLIENT1|56=DMA_HUB|34=16|52=20240212-09:59:01|10=044|
2024-02-12 10:59:19.752 [33] [FixSender] (DEBUG) Receiving 8=FIX.4.4|9=61|35=0|34=19|49=DMA_HUB|56=FIXCLIENT1|52=20240212-09:59:19.752|10=255|
2024-02-12 10:59:31.909 [34] [FixSender] (DEBUG) Sending 8=FIX.4.4|9=57|35=0|49=FIXCLIENT1|56=DMA_HUB|34=17|52=20240212-09:59:31|10=048|
2024-02-12 10:59:49.708 [33] [FixSender] (DEBUG) Receiving 8=FIX.4.4|9=61|35=0|34=20|49=DMA_HUB|56=FIXCLIENT1|52=20240212-09:59:49.705|10=248|
2024-02-12 11:00:01.924 [34] [FixSender] (DEBUG) Sending 8=FIX.4.4|9=57|35=0|49=FIXCLIENT1|56=DMA_HUB|34=18|52=20240212-10:00:01|10=024|
2024-02-12 11:00:19.658 [33] [FixSender] (DEBUG) Receiving 8=FIX.4.4|9=61|35=0|34=21|49=DMA_HUB|56=FIXCLIENT1|52=20240212-10:00:19.657|10=230|
2024-02-12 11:00:31.931 [34] [FixSender] (DEBUG) Sending 8=FIX.4.4|9=57|35=0|49=FIXCLIENT1|56=DMA_HUB|34=19|52=20240212-10:00:31|10=028|
2024-02-12 11:00:49.608 [33] [FixSender] (DEBUG) Receiving 8=FIX.4.4|9=61|35=0|34=22|49=DMA_HUB|56=FIXCLIENT1|52=20240212-10:00:49.608|10=230|
2024-02-12 11:01:01.946 [34] [FixSender] (DEBUG) Sending 8=FIX.4.4|9=57|35=0|49=FIXCLIENT1|56=DMA_HUB|34=20|52=20240212-10:01:01|10=018|
2024-02-12 11:01:19.560 [33] [FixSender] (DEBUG) Receiving 8=FIX.4.4|9=61|35=0|34=23|49=DMA_HUB|56=FIXCLIENT1|52=20240212-10:01:19.560|10=226|
2024-02-12 11:01:31.954 [34] [FixSender] (DEBUG) Sending 8=FIX.4.4|9=57|35=0|49=FIXCLIENT1|56=DMA_HUB|34=21|52=20240212-10:01:31|10=022|
2024-02-12 11:01:49.513 [33] [FixSender] (DEBUG) Receiving 8=FIX.4.4|9=61|35=0|34=24|49=DMA_HUB|56=FIXCLIENT1|52=20240212-10:01:49.513|10=228|
2024-02-12 11:02:01.962 [34] [FixSender] (DEBUG) Sending 8=FIX.4.4|9=57|35=0|49=FIXCLIENT1|56=DMA_HUB|34=22|52=20240212-10:02:01|10=021|
2024-02-12 11:02:19.464 [33] [FixSender] (DEBUG) Receiving 8=FIX.4.4|9=61|35=0|34=25|49=DMA_HUB|56=FIXCLIENT1|52=20240212-10:02:19.464|10=232|
2024-02-12 11:02:31.964 [34] [FixSender] (DEBUG) Sending 8=FIX.4.4|9=57|35=0|49=FIXCLIENT1|56=DMA_HUB|34=23|52=20240212-10:02:31|10=025|
2024-02-12 11:02:49.417 [33] [FixSender] (DEBUG) Receiving 8=FIX.4.4|9=61|35=0|34=26|49=DMA_HUB|56=FIXCLIENT1|52=20240212-10:02:49.416|10=233|
2024-02-12 11:03:01.967 [34] [FixSender] (DEBUG) Sending 8=FIX.4.4|9=57|35=0|49=FIXCLIENT1|56=DMA_HUB|34=24|52=20240212-10:03:01|10=024|
2024-02-12 11:03:19.368 [33] [FixSender] (DEBUG) Receiving 8=FIX.4.4|9=61|35=0|34=27|49=DMA_HUB|56=FIXCLIENT1|52=20240212-10:03:19.368|10=238|
2024-02-12 11:03:31.982 [34] [FixSender] (DEBUG) Sending 8=FIX.4.4|9=57|35=0|49=FIXCLIENT1|56=DMA_HUB|34=25|52=20240212-10:03:31|10=028|
2024-02-12 11:03:49.320 [33] [FixSender] (DEBUG) Receiving 8=FIX.4.4|9=61|35=0|34=28|49=DMA_HUB|56=FIXCLIENT1|52=20240212-10:03:49.320|10=230|
2024-02-12 11:04:01.994 [34] [FixSender] (DEBUG) Sending 8=FIX.4.4|9=57|35=0|49=FIXCLIENT1|56=DMA_HUB|34=26|52=20240212-10:04:01|10=027|
2024-02-12 11:04:19.273 [33] [FixSender] (DEBUG) Receiving 8=FIX.4.4|9=61|35=0|34=29|49=DMA_HUB|56=FIXCLIENT1|52=20240212-10:04:19.273|10=236|
2024-02-12 11:04:32.000 [34] [FixSender] (DEBUG) Sending 8=FIX.4.4|9=57|35=0|49=FIXCLIENT1|56=DMA_HUB|34=27|52=20240212-10:04:31|10=031|
2024-02-12 11:04:49.225 [33] [FixSender] (DEBUG) Receiving 8=FIX.4.4|9=61|35=0|34=30|49=DMA_HUB|56=FIXCLIENT1|52=20240212-10:04:49.225|10=228|
2024-02-12 11:05:02.012 [34] [FixSender] (DEBUG) Sending 8=FIX.4.4|9=57|35=0|49=FIXCLIENT1|56=DMA_HUB|34=28|52=20240212-10:05:02|10=031|
2024-02-12 11:05:19.189 [33] [FixSender] (DEBUG) Receiving 8=FIX.4.4|9=61|35=0|34=31|49=DMA_HUB|56=FIXCLIENT1|52=20240212-10:05:19.177|10=233|
2024-02-12 11:05:32.023 [34] [FixSender] (DEBUG) Sending 8=FIX.4.4|9=57|35=0|49=FIXCLIENT1|56=DMA_HUB|34=29|52=20240212-10:05:32|10=035|
2024-02-12 11:05:49.128 [33] [FixSender] (DEBUG) Receiving 8=FIX.4.4|9=61|35=0|34=32|49=DMA_HUB|56=FIXCLIENT1|52=20240212-10:05:49.128|10=233|
2024-02-12 11:06:02.039 [34] [FixSender] (DEBUG) Sending 8=FIX.4.4|9=57|35=0|49=FIXCLIENT1|56=DMA_HUB|34=30|52=20240212-10:06:02|10=025|
2024-02-12 11:06:19.080 [33] [FixSender] (DEBUG) Receiving 8=FIX.4.4|9=61|35=0|34=33|49=DMA_HUB|56=FIXCLIENT1|52=20240212-10:06:19.080|10=229|
2024-02-12 11:06:32.044 [34] [FixSender] (DEBUG) Sending 8=FIX.4.4|9=57|35=0|49=FIXCLIENT1|56=DMA_HUB|34=31|52=20240212-10:06:32|10=029|
2024-02-12 11:06:49.032 [33] [FixSender] (DEBUG) Receiving 8=FIX.4.4|9=61|35=0|34=34|49=DMA_HUB|56=FIXCLIENT1|52=20240212-10:06:49.032|10=230|
2024-02-12 11:07:02.052 [34] [FixSender] (DEBUG) Sending 8=FIX.4.4|9=57|35=0|49=FIXCLIENT1|56=DMA_HUB|34=32|52=20240212-10:07:02|10=028|
2024-02-12 11:07:18.985 [33] [FixSender] (DEBUG) Receiving 8=FIX.4.4|9=61|35=0|34=35|49=DMA_HUB|56=FIXCLIENT1|52=20240212-10:07:18.985|10=245|
2024-02-12 11:07:32.068 [34] [FixSender] (DEBUG) Sending 8=FIX.4.4|9=57|35=0|49=FIXCLIENT1|56=DMA_HUB|34=33|52=20240212-10:07:32|10=032|
2024-02-12 11:07:48.937 [33] [FixSender] (DEBUG) Receiving 8=FIX.4.4|9=61|35=0|34=36|49=DMA_HUB|56=FIXCLIENT1|52=20240212-10:07:48.937|10=246|
2024-02-12 11:07:49.038 [33] [FixSender] (DEBUG) Receiving 8=FIX.4.4|9=61|35=5|34=37|49=DMA_HUB|56=FIXCLIENT1|52=20240212-10:07:49.037|10=244|
2024-02-12 11:07:49.040 [33] [FixSender] (DEBUG) Sending 8=FIX.4.4|9=79|35=5|49=FIXCLIENT1|56=DMA_HUB|34=34|52=20240212-10:07:49|58=Replying to logout|10=228|
2024-02-12 11:07:49.040 [33] [FixSender] (WARNING) The Fix connection is close...
2024-02-12 11:07:49.042 [33] [FixSender] (INFO) physical cnx finished Connection reset by peer
2024-02-12 11:07:49.042 [33] [FixSender] (WARNING) Disconnected
2024-02-12 11:08:05.187 [39] [FixSender] (INFO) try to connect to : localhost port :12345
2024-02-12 11:08:05.189 [39] [FixSender] (INFO) physical cnx initiated
2024-02-12 11:08:05.193 [39] [FixSender] (DEBUG) Sending 8=FIX.4.4|9=87|35=A|49=FIXCLIENT1|56=DMA_HUB|34=35|52=20240212-10:08:05|98=0|108=30|95=9|96=null/null|10=135|
2024-02-12 11:08:05.200 [39] [FixSender] (DEBUG) Receiving 8=FIX.4.4|9=73|35=A|34=38|49=DMA_HUB|56=FIXCLIENT1|52=20240212-10:08:05.196|108=30|98=0|10=028|
2024-02-12 11:08:05.201 [39] [FixSender] (WARNING) The Fix connection is open...
2024-02-12 11:08:05.205 [39] [FixSender] (DEBUG) Sending 8=FIX.4.4|9=75|35=1|49=FIXCLIENT1|56=DMA_HUB|34=36|52=20240212-10:08:05|112=synchronized?|10=086|
2024-02-12 11:08:05.207 [39] [FixSender] (DEBUG) Receiving 8=FIX.4.4|9=79|35=0|34=39|49=DMA_HUB|56=FIXCLIENT1|52=20240212-10:08:05.206|112=synchronized?|10=034|
2024-02-12 11:08:11.550 [44] [FixSender] (DEBUG) Sending 8=FIX.4.4|9=195|35=D|49=FIXCLIENT1|56=DMA_HUB|34=37|52=20240212-10:08:11|21=1|11=HS_17077324912|38=5000|55=E:07G@XETR|54=1|60=20240212-10:08:11|40=2|59=0|44=197.1|48=US3390411052|22=4|15=EUR|207=XETR|1=bram_123|10=213|
2024-02-12 11:08:11.560 [39] [FixSender] (DEBUG) Receiving 8=FIX.4.4|9=237|35=8|34=40|49=DMA_HUB|56=FIXCLIENT1|52=20240212-10:08:11.559|11=HS_17077324912|37=FXR7CxsZJ|54=1|40=2|59=0|17=202402123|150=A|39=A|38=5000|151=5000|14=0|6=0|44=197.1|60=20240212-10:08:11.000|22=4|48=US3390411052|207=XETR|15=EUR|55=[N/A]|10=085|
2024-02-12 11:08:35.153 [39] [FixSender] (DEBUG) Receiving 8=FIX.4.4|9=61|35=0|34=41|49=DMA_HUB|56=FIXCLIENT1|52=20240212-10:08:35.153|10=229|
2024-02-12 11:11:22.865 [1] [Fixsender] (INFO) (c) 2001-2011 ullink SAS. FixSender. Release 1.11.
2024-02-12 11:11:26.594 [29] [FixSender] (INFO) try to connect to : localhost port :12345
2024-02-12 11:11:26.617 [29] [FixSender] (INFO) physical cnx initiated
2024-02-12 11:11:26.631 [29] [FixSender] (DEBUG) Sending 8=FIX.4.4|9=87|35=A|49=FIXCLIENT1|56=DMA_HUB|34=38|52=20240212-10:11:26|98=0|108=30|95=9|96=null/null|10=135|
2024-02-12 11:11:26.636 [29] [FixSender] (DEBUG) Receiving 8=FIX.4.4|9=73|35=A|34=42|49=DMA_HUB|56=FIXCLIENT1|52=20240212-10:11:26.633|108=30|98=0|10=016|
2024-02-12 11:11:26.638 [29] [FixSender] (WARNING) The Fix connection is open...
2024-02-12 11:11:26.643 [29] [FixSender] (DEBUG) Sending 8=FIX.4.4|9=75|35=1|49=FIXCLIENT1|56=DMA_HUB|34=39|52=20240212-10:11:26|112=synchronized?|10=086|
2024-02-12 11:11:26.646 [29] [FixSender] (DEBUG) Receiving 8=FIX.4.4|9=79|35=0|34=43|49=DMA_HUB|56=FIXCLIENT1|52=20240212-10:11:26.646|112=synchronized?|10=034|
2024-02-12 11:11:28.337 [32] [FixSender] (DEBUG) Sending 8=FIX.4.4|9=195|35=D|49=FIXCLIENT1|56=DMA_HUB|34=40|52=20240212-10:11:28|21=1|11=HS_17077326880|38=5000|55=E:07G@XETR|54=1|60=20240212-10:11:28|40=2|59=0|44=197.1|48=US3390411052|22=4|15=EUR|207=XETR|1=bram_123|10=217|
2024-02-12 11:11:28.345 [29] [FixSender] (DEBUG) Receiving 8=FIX.4.4|9=237|35=8|34=44|49=DMA_HUB|56=FIXCLIENT1|52=20240212-10:11:28.344|11=HS_17077326880|37=FXbA76vZJ|54=1|40=2|59=0|17=202402124|150=A|39=A|38=5000|151=5000|14=0|6=0|44=197.1|60=20240212-10:11:28.000|22=4|48=US3390411052|207=XETR|15=EUR|55=[N/A]|10=043|
2024-02-12 11:11:56.591 [29] [FixSender] (DEBUG) Receiving 8=FIX.4.4|9=61|35=0|34=45|49=DMA_HUB|56=FIXCLIENT1|52=20240212-10:11:56.590|10=235|
2024-02-12 11:11:58.338 [30] [FixSender] (DEBUG) Sending 8=FIX.4.4|9=57|35=0|49=FIXCLIENT1|56=DMA_HUB|34=41|52=20240212-10:11:58|10=034|
2024-02-12 11:12:26.542 [29] [FixSender] (DEBUG) Receiving 8=FIX.4.4|9=61|35=0|34=46|49=DMA_HUB|56=FIXCLIENT1|52=20240212-10:12:26.541|10=230|
2024-02-12 11:12:28.345 [30] [FixSender] (DEBUG) Sending 8=FIX.4.4|9=57|35=0|49=FIXCLIENT1|56=DMA_HUB|34=42|52=20240212-10:12:28|10=033|
2024-02-12 11:12:56.492 [29] [FixSender] (DEBUG) Receiving 8=FIX.4.4|9=61|35=0|34=47|49=DMA_HUB|56=FIXCLIENT1|52=20240212-10:12:56.492|10=239|
2024-02-12 11:12:58.357 [30] [FixSender] (DEBUG) Sending 8=FIX.4.4|9=57|35=0|49=FIXCLIENT1|56=DMA_HUB|34=43|52=20240212-10:12:58|10=037|
2024-02-12 11:13:26.445 [29] [FixSender] (DEBUG) Receiving 8=FIX.4.4|9=61|35=0|34=48|49=DMA_HUB|56=FIXCLIENT1|52=20240212-10:13:26.445|10=236|
2024-02-12 11:13:28.368 [30] [FixSender] (DEBUG) Sending 8=FIX.4.4|9=57|35=0|49=FIXCLIENT1|56=DMA_HUB|34=44|52=20240212-10:13:28|10=036|
2024-02-12 11:13:56.398 [29] [FixSender] (DEBUG) Receiving 8=FIX.4.4|9=61|35=0|34=49|49=DMA_HUB|56=FIXCLIENT1|52=20240212-10:13:56.397|10=246|
2024-02-12 11:13:58.372 [30] [FixSender] (DEBUG) Sending 8=FIX.4.4|9=57|35=0|49=FIXCLIENT1|56=DMA_HUB|34=45|52=20240212-10:13:58|10=040|
2024-02-12 11:14:26.349 [29] [FixSender] (DEBUG) Receiving 8=FIX.4.4|9=61|35=0|34=50|49=DMA_HUB|56=FIXCLIENT1|52=20240212-10:14:26.349|10=233|
2024-02-12 11:14:28.383 [30] [FixSender] (DEBUG) Sending 8=FIX.4.4|9=57|35=0|49=FIXCLIENT1|56=DMA_HUB|34=46|52=20240212-10:14:28|10=039|
2024-02-12 11:14:56.301 [29] [FixSender] (DEBUG) Receiving 8=FIX.4.4|9=61|35=0|34=51|49=DMA_HUB|56=FIXCLIENT1|52=20240212-10:14:56.300|10=224|
2024-02-12 11:14:58.386 [30] [FixSender] (DEBUG) Sending 8=FIX.4.4|9=57|35=0|49=FIXCLIENT1|56=DMA_HUB|34=47|52=20240212-10:14:58|10=043|
2024-02-12 11:15:26.254 [29] [FixSender] (DEBUG) Receiving 8=FIX.4.4|9=61|35=0|34=52|49=DMA_HUB|56=FIXCLIENT1|52=20240212-10:15:26.253|10=230|
2024-02-12 11:15:28.402 [30] [FixSender] (DEBUG) Sending 8=FIX.4.4|9=57|35=0|49=FIXCLIENT1|56=DMA_HUB|34=48|52=20240212-10:15:28|10=042|
2024-02-12 11:15:56.206 [29] [FixSender] (DEBUG) Receiving 8=FIX.4.4|9=61|35=0|34=53|49=DMA_HUB|56=FIXCLIENT1|52=20240212-10:15:56.205|10=231|
2024-02-12 11:15:58.411 [30] [FixSender] (DEBUG) Sending 8=FIX.4.4|9=57|35=0|49=FIXCLIENT1|56=DMA_HUB|34=49|52=20240212-10:15:58|10=046|
2024-02-12 11:16:26.157 [29] [FixSender] (DEBUG) Receiving 8=FIX.4.4|9=61|35=0|34=54|49=DMA_HUB|56=FIXCLIENT1|52=20240212-10:16:26.157|10=236|
2024-02-12 11:16:28.420 [30] [FixSender] (DEBUG) Sending 8=FIX.4.4|9=57|35=0|49=FIXCLIENT1|56=DMA_HUB|34=50|52=20240212-10:16:28|10=036|
2024-02-12 11:16:56.108 [29] [FixSender] (DEBUG) Receiving 8=FIX.4.4|9=61|35=0|34=55|49=DMA_HUB|56=FIXCLIENT1|52=20240212-10:16:56.108|10=236|
2024-02-12 11:16:58.429 [30] [FixSender] (DEBUG) Sending 8=FIX.4.4|9=57|35=0|49=FIXCLIENT1|56=DMA_HUB|34=51|52=20240212-10:16:58|10=040|
2024-02-12 11:17:25.259 [33] [FixSender] (DEBUG) Sending 8=FIX.4.4|9=195|35=D|49=FIXCLIENT1|56=DMA_HUB|34=52|52=20240212-10:17:25|21=1|11=HS_17077330451|38=5000|55=E:07G@XETR|54=1|60=20240212-10:17:25|40=2|59=0|44=197.1|48=US3390411052|22=4|15=EUR|207=XETR|1=bram_123|10=215|
2024-02-12 11:17:25.262 [29] [FixSender] (DEBUG) Receiving 8=FIX.4.4|9=237|35=8|34=56|49=DMA_HUB|56=FIXCLIENT1|52=20240212-10:17:25.261|11=HS_17077330451|37=FXcA76vZJ|54=1|40=2|59=0|17=202402125|150=A|39=A|38=5000|151=5000|14=0|6=0|44=197.1|60=20240212-10:17:25.000|22=4|48=US3390411052|207=XETR|15=EUR|55=[N/A]|10=041|
2024-02-12 11:17:26.062 [29] [FixSender] (DEBUG) Receiving 8=FIX.4.4|9=61|35=0|34=57|49=DMA_HUB|56=FIXCLIENT1|52=20240212-10:17:26.061|10=234|
2024-02-12 11:19:37.102 [1] [Fixsender] (INFO) (c) 2001-2011 ullink SAS. FixSender. Release 1.11.
2024-02-12 11:19:39.557 [29] [FixSender] (INFO) try to connect to : localhost port :12345
2024-02-12 11:19:39.589 [29] [FixSender] (INFO) physical cnx initiated
2024-02-12 11:19:39.607 [29] [FixSender] (DEBUG) Sending 8=FIX.4.4|9=87|35=A|49=FIXCLIENT1|56=DMA_HUB|34=53|52=20240212-10:19:39|98=0|108=30|95=9|96=null/null|10=144|
2024-02-12 11:19:39.616 [29] [FixSender] (DEBUG) Receiving 8=FIX.4.4|9=73|35=A|34=58|49=DMA_HUB|56=FIXCLIENT1|52=20240212-10:19:39.610|108=30|98=0|10=030|
2024-02-12 11:19:39.617 [29] [FixSender] (WARNING) The Fix connection is open...
2024-02-12 11:19:39.622 [29] [FixSender] (DEBUG) Sending 8=FIX.4.4|9=75|35=1|49=FIXCLIENT1|56=DMA_HUB|34=54|52=20240212-10:19:39|112=synchronized?|10=095|
2024-02-12 11:19:39.624 [29] [FixSender] (DEBUG) Receiving 8=FIX.4.4|9=79|35=0|34=59|49=DMA_HUB|56=FIXCLIENT1|52=20240212-10:19:39.623|112=synchronized?|10=048|
2024-02-12 11:19:48.754 [32] [FixSender] (DEBUG) Sending 8=FIX.4.4|9=193|35=D|49=FIXCLIENT1|56=DMA_HUB|34=55|52=20240212-10:19:48|21=1|11=HS_17077331880|38=2063|55=E:07G@XETR|54=2|60=20240212-10:19:48|40=2|59=0|44=197|48=US3390411052|22=4|15=EUR|207=XETR|1=bram_123|10=149|
2024-02-12 11:19:48.771 [29] [FixSender] (DEBUG) Receiving 8=FIX.4.4|9=235|35=8|34=60|49=DMA_HUB|56=FIXCLIENT1|52=20240212-10:19:48.767|11=HS_17077331880|37=FXf2Me0aJ|54=2|40=2|59=0|17=202402126|150=A|39=A|38=2063|151=2063|14=0|6=0|44=197|60=20240212-10:19:48.000|22=4|48=US3390411052|207=XETR|15=EUR|55=[N/A]|10=235|
2024-02-12 11:20:06.002 [34] [FixSender] (DEBUG) Sending 8=FIX.4.4|9=193|35=D|49=FIXCLIENT1|56=DMA_HUB|34=56|52=20240212-10:20:06|21=1|11=HS_17077332061|38=10|55=FBTP202106@XEUR|54=2|60=20240212-10:20:06|40=2|59=0|44=3910|15=EUR|207=XEUR|109=fidameur|1=fidameur_123|10=012|
2024-02-12 11:20:06.077 [29] [FixSender] (DEBUG) Receiving 8=FIX.4.4|9=238|35=8|34=61|49=DMA_HUB|56=FIXCLIENT1|52=20240212-10:20:06.074|11=HS_17077332061|37=NONE|38=10|151=0|14=0|17=202402127|150=8|39=8|6=0|44=3910|54=2|40=2|59=0|55=FBTP202106@XEUR|207=XEUR|15=EUR|58=Cannot resolve instrument 55=FBTP202106@XEUR|10=023|
2024-02-12 11:20:07.914 [35] [FixSender] (DEBUG) Sending 8=FIX.4.4|9=204|35=D|49=FIXCLIENT1|56=DMA_HUB|34=57|52=20240212-10:20:07|21=3|11=HS_17077332072|38=2|55=ORANGE|54=1|60=20240212-10:20:07|40=2|59=0|44=50|48=FR0000133308|22=4|15=EUR|207=XPAR|58=Urgent|109=bram|1=bram_123|10=032|
2024-02-12 11:20:07.918 [29] [FixSender] (DEBUG) Receiving 8=FIX.4.4|9=265|35=8|34=62|49=DMA_HUB|56=FIXCLIENT1|52=20240212-10:20:07.917|11=HS_17077332072|37=NONE|38=2|151=0|14=0|17=202402128|150=8|39=8|6=0|44=50|54=1|40=2|59=0|22=4|48=FR0000133308|55=ORANGE|207=XPAR|15=EUR|58=Cannot resolve instrument 22=4;48=FR0000133308;207=XPAR;15=EUR|10=067|
2024-02-12 11:20:09.438 [36] [FixSender] (DEBUG) Sending 8=FIX.4.4|9=213|35=D|49=FIXCLIENT1|56=DMA_HUB|34=58|52=20240212-10:20:09|21=1|11=HS_17077332093|38=1750|55=PERNOD RICARD|54=1|60=20240212-10:20:09|40=2|59=0|44=190|48=FR0000120693|22=4|15=EUR|207=XPAR|109=fidameur|1=fidameur_123|10=016|
2024-02-12 11:20:09.441 [29] [FixSender] (DEBUG) Receiving 8=FIX.4.4|9=276|35=8|34=63|49=DMA_HUB|56=FIXCLIENT1|52=20240212-10:20:09.439|11=HS_17077332093|37=NONE|38=1750|151=0|14=0|17=202402129|150=8|39=8|6=0|44=190|54=1|40=2|59=0|22=4|48=FR0000120693|55=PERNOD RICARD|207=XPAR|15=EUR|58=Cannot resolve instrument 22=4;48=FR0000120693;207=XPAR;15=EUR|10=002|
2024-02-12 11:20:09.569 [29] [FixSender] (DEBUG) Receiving 8=FIX.4.4|9=61|35=0|34=64|49=DMA_HUB|56=FIXCLIENT1|52=20240212-10:20:09.568|10=239|
2024-02-12 11:20:10.850 [37] [FixSender] (DEBUG) Sending 8=FIX.4.4|9=210|35=D|49=FIXCLIENT1|56=DMA_HUB|34=59|52=20240212-10:20:10|21=1|11=HS_17077332104|38=4387|55=ORANGE|54=1|60=20240212-10:20:10|40=2|59=0|44=9|48=FR0000133308|22=4|15=EUR|207=XPAR|1=bram_123|109=bram|58=BROKERTOTO|10=027|
2024-02-12 11:20:10.853 [29] [FixSender] (DEBUG) Receiving 8=FIX.4.4|9=268|35=8|34=65|49=DMA_HUB|56=FIXCLIENT1|52=20240212-10:20:10.852|11=HS_17077332104|37=NONE|38=4387|151=0|14=0|17=2024021210|150=8|39=8|6=0|44=9|54=1|40=2|59=0|22=4|48=FR0000133308|55=ORANGE|207=XPAR|15=EUR|58=Cannot resolve instrument 22=4;48=FR0000133308;207=XPAR;15=EUR|10=222|
2024-02-12 11:20:11.192 [38] [FixSender] (DEBUG) Sending 8=FIX.4.4|9=210|35=D|49=FIXCLIENT1|56=DMA_HUB|34=60|52=20240212-10:20:11|21=1|11=HS_17077332115|38=3827|55=ORANGE|54=1|60=20240212-10:20:11|40=2|59=0|44=9|48=FR0000133308|22=4|15=EUR|207=XPAR|1=bram_123|109=bram|58=BROKERTOTO|10=021|
2024-02-12 11:20:11.197 [29] [FixSender] (DEBUG) Receiving 8=FIX.4.4|9=268|35=8|34=66|49=DMA_HUB|56=FIXCLIENT1|52=20240212-10:20:11.194|11=HS_17077332115|37=NONE|38=3827|151=0|14=0|17=2024021211|150=8|39=8|6=0|44=9|54=1|40=2|59=0|22=4|48=FR0000133308|55=ORANGE|207=XPAR|15=EUR|58=Cannot resolve instrument 22=4;48=FR0000133308;207=XPAR;15=EUR|10=224|
2024-02-12 11:20:12.620 [39] [FixSender] (DEBUG) Sending 8=FIX.4.4|9=178|35=D|49=FIXCLIENT1|56=DMA_HUB|34=61|52=20240212-10:20:12|21=3|11=HS_17077332126|38=10|55=FBTP202103@XEUR|54=1|60=20240212-10:20:12|40=2|59=1|44=3900|15=EUR|207=XEUR|109=fidameur|10=084|
2024-02-12 11:20:12.628 [29] [FixSender] (DEBUG) Receiving 8=FIX.4.4|9=239|35=8|34=67|49=DMA_HUB|56=FIXCLIENT1|52=20240212-10:20:12.626|11=HS_17077332126|37=NONE|38=10|151=0|14=0|17=2024021212|150=8|39=8|6=0|44=3900|54=1|40=2|59=1|55=FBTP202103@XEUR|207=XEUR|15=EUR|58=Cannot resolve instrument 55=FBTP202103@XEUR|10=069|
2024-02-12 11:20:14.002 [40] [FixSender] (DEBUG) Sending 8=FIX.4.4|9=222|35=D|49=FIXCLIENT1|56=DMA_HUB|34=62|52=20240212-10:20:14|21=3|11=HS_17077332147|38=1147|55=EDENRED|54=1|60=20240212-10:20:14|40=2|59=1|44=51.18|48=FR0010908533|22=4|15=EUR|207=XPAR|432=20221116|109=fidameur|1=fidameur_123|10=049|
2024-02-12 11:20:14.005 [29] [FixSender] (DEBUG) Receiving 8=FIX.4.4|9=273|35=8|34=68|49=DMA_HUB|56=FIXCLIENT1|52=20240212-10:20:14.003|11=HS_17077332147|37=NONE|38=1147|151=0|14=0|17=2024021213|150=8|39=8|6=0|44=51.18|54=1|40=2|59=1|22=4|48=FR0010908533|55=EDENRED|207=XPAR|15=EUR|58=Cannot resolve instrument 22=4;48=FR0010908533;207=XPAR;15=EUR|10=236|
2024-02-12 11:20:15.287 [41] [FixSender] (DEBUG) Sending 8=FIX.4.4|9=218|35=D|49=FIXCLIENT1|56=DMA_HUB|34=63|52=20240212-10:20:15|21=1|11=HS_17077332158|38=927|55=AIR LIQUIDE|54=1|60=20240212-10:20:15|40=2|59=1|44=143.08|48=FR0000120073|22=4|15=EUR|207=XPAR|432=20221116|1=bram_123|109=bram|10=235|
2024-02-12 11:20:15.291 [29] [FixSender] (DEBUG) Receiving 8=FIX.4.4|9=277|35=8|34=69|49=DMA_HUB|56=FIXCLIENT1|52=20240212-10:20:15.289|11=HS_17077332158|37=NONE|38=927|151=0|14=0|17=2024021214|150=8|39=8|6=0|44=143.08|54=1|40=2|59=1|22=4|48=FR0000120073|55=AIR LIQUIDE|207=XPAR|15=EUR|58=Cannot resolve instrument 22=4;48=FR0000120073;207=XPAR;15=EUR|10=253|
2024-02-12 11:20:17.099 [42] [FixSender] (DEBUG) Sending 8=FIX.4.4|9=211|35=D|49=FIXCLIENT1|56=DMA_HUB|34=64|52=20240212-10:20:17|21=3|11=HS_17077332179|38=35243|55=AIR LIQUIDE|54=2|60=20240212-10:20:17|40=2|59=1|44=143.08|48=FR0000120073|22=4|15=EUR|207=XPAR|432=20221116|109=axa_im|10=021|
2024-02-12 11:20:17.101 [29] [FixSender] (DEBUG) Receiving 8=FIX.4.4|9=279|35=8|34=70|49=DMA_HUB|56=FIXCLIENT1|52=20240212-10:20:17.100|11=HS_17077332179|37=NONE|38=35243|151=0|14=0|17=2024021215|150=8|39=8|6=0|44=143.08|54=2|40=2|59=1|22=4|48=FR0000120073|55=AIR LIQUIDE|207=XPAR|15=EUR|58=Cannot resolve instrument 22=4;48=FR0000120073;207=XPAR;15=EUR|10=075|
2024-02-12 11:20:21.139 [43] [FixSender] (DEBUG) Sending 8=FIX.4.4|9=212|35=D|49=FIXCLIENT1|56=DMA_HUB|34=65|52=20240212-10:20:21|21=3|11=HS_170773322110|38=15583|55=AIR LIQUIDE|54=2|60=20240212-10:20:21|40=2|59=1|44=143.08|48=FR0000120073|22=4|15=EUR|207=XPAR|432=20221116|109=axa_im|10=053|
2024-02-12 11:20:21.141 [29] [FixSender] (DEBUG) Receiving 8=FIX.4.4|9=280|35=8|34=71|49=DMA_HUB|56=FIXCLIENT1|52=20240212-10:20:21.140|11=HS_170773322110|37=NONE|38=15583|151=0|14=0|17=2024021216|150=8|39=8|6=0|44=143.08|54=2|40=2|59=1|22=4|48=FR0000120073|55=AIR LIQUIDE|207=XPAR|15=EUR|58=Cannot resolve instrument 22=4;48=FR0000120073;207=XPAR;15=EUR|10=108|
2024-02-12 11:20:21.347 [44] [FixSender] (DEBUG) Sending 8=FIX.4.4|9=212|35=D|49=FIXCLIENT1|56=DMA_HUB|34=66|52=20240212-10:20:21|21=3|11=HS_170773322111|38=49248|55=AIR LIQUIDE|54=2|60=20240212-10:20:21|40=2|59=1|44=143.08|48=FR0000120073|22=4|15=EUR|207=XPAR|432=20221116|109=axa_im|10=060|
2024-02-12 11:20:21.349 [29] [FixSender] (DEBUG) Receiving 8=FIX.4.4|9=280|35=8|34=72|49=DMA_HUB|56=FIXCLIENT1|52=20240212-10:20:21.348|11=HS_170773322111|37=NONE|38=49248|151=0|14=0|17=2024021217|150=8|39=8|6=0|44=143.08|54=2|40=2|59=1|22=4|48=FR0000120073|55=AIR LIQUIDE|207=XPAR|15=EUR|58=Cannot resolve instrument 22=4;48=FR0000120073;207=XPAR;15=EUR|10=126|
2024-02-12 11:20:24.126 [45] [FixSender] (DEBUG) Sending 8=FIX.4.4|9=194|35=D|49=FIXCLIENT1|56=DMA_HUB|34=67|52=20240212-10:20:24|21=1|11=HS_170773322412|38=2389|55=E:07G@XETR|54=2|60=20240212-10:20:24|40=2|59=0|44=197|48=US3390411052|22=4|15=EUR|207=XETR|1=bram_123|10=178|
2024-02-12 11:20:24.130 [29] [FixSender] (DEBUG) Receiving 8=FIX.4.4|9=237|35=8|34=73|49=DMA_HUB|56=FIXCLIENT1|52=20240212-10:20:24.128|11=HS_170773322412|37=FXg2Me0aJ|54=2|40=2|59=0|17=2024021218|150=A|39=A|38=2389|151=2389|14=0|6=0|44=197|60=20240212-10:20:24.000|22=4|48=US3390411052|207=XETR|15=EUR|55=[N/A]|10=064|
2024-02-12 11:20:39.520 [29] [FixSender] (DEBUG) Receiving 8=FIX.4.4|9=61|35=0|34=74|49=DMA_HUB|56=FIXCLIENT1|52=20240212-10:20:39.519|10=239|
2024-02-12 11:20:54.127 [30] [FixSender] (DEBUG) Sending 8=FIX.4.4|9=57|35=0|49=FIXCLIENT1|56=DMA_HUB|34=68|52=20240212-10:20:54|10=039|
2024-02-12 11:21:09.472 [29] [FixSender] (DEBUG) Receiving 8=FIX.4.4|9=61|35=0|34=75|49=DMA_HUB|56=FIXCLIENT1|52=20240212-10:21:09.472|10=236|
2024-02-12 11:21:24.137 [30] [FixSender] (DEBUG) Sending 8=FIX.4.4|9=57|35=0|49=FIXCLIENT1|56=DMA_HUB|34=69|52=20240212-10:21:24|10=038|
2024-02-12 11:21:39.428 [29] [FixSender] (DEBUG) Receiving 8=FIX.4.4|9=61|35=0|34=76|49=DMA_HUB|56=FIXCLIENT1|52=20240212-10:21:39.428|10=241|
2024-02-12 11:21:54.144 [30] [FixSender] (DEBUG) Sending 8=FIX.4.4|9=57|35=0|49=FIXCLIENT1|56=DMA_HUB|34=70|52=20240212-10:21:54|10=033|
2024-02-12 11:22:09.386 [29] [FixSender] (DEBUG) Receiving 8=FIX.4.4|9=61|35=0|34=77|49=DMA_HUB|56=FIXCLIENT1|52=20240212-10:22:09.386|10=243|
2024-02-12 11:22:24.149 [30] [FixSender] (DEBUG) Sending 8=FIX.4.4|9=57|35=0|49=FIXCLIENT1|56=DMA_HUB|34=71|52=20240212-10:22:24|10=032|
2024-02-12 11:22:39.338 [29] [FixSender] (DEBUG) Receiving 8=FIX.4.4|9=61|35=0|34=78|49=DMA_HUB|56=FIXCLIENT1|52=20240212-10:22:39.337|10=243|
2024-02-12 11:22:54.151 [30] [FixSender] (DEBUG) Sending 8=FIX.4.4|9=57|35=0|49=FIXCLIENT1|56=DMA_HUB|34=72|52=20240212-10:22:54|10=036|
2024-02-12 11:23:09.281 [29] [FixSender] (DEBUG) Receiving 8=FIX.4.4|9=61|35=0|34=79|49=DMA_HUB|56=FIXCLIENT1|52=20240212-10:23:09.280|10=239|
2024-02-12 11:23:24.155 [30] [FixSender] (DEBUG) Sending 8=FIX.4.4|9=57|35=0|49=FIXCLIENT1|56=DMA_HUB|34=73|52=20240212-10:23:24|10=035|
2024-02-12 11:23:39.231 [29] [FixSender] (DEBUG) Receiving 8=FIX.4.4|9=61|35=0|34=80|49=DMA_HUB|56=FIXCLIENT1|52=20240212-10:23:39.231|10=230|
2024-02-12 11:23:54.157 [30] [FixSender] (DEBUG) Sending 8=FIX.4.4|9=57|35=0|49=FIXCLIENT1|56=DMA_HUB|34=74|52=20240212-10:23:54|10=039|
2024-02-12 11:24:09.183 [29] [FixSender] (DEBUG) Receiving 8=FIX.4.4|9=61|35=0|34=81|49=DMA_HUB|56=FIXCLIENT1|52=20240212-10:24:09.183|10=235|
2024-02-12 11:24:24.159 [30] [FixSender] (DEBUG) Sending 8=FIX.4.4|9=57|35=0|49=FIXCLIENT1|56=DMA_HUB|34=75|52=20240212-10:24:24|10=038|
2024-02-12 11:24:39.136 [29] [FixSender] (DEBUG) Receiving 8=FIX.4.4|9=61|35=0|34=82|49=DMA_HUB|56=FIXCLIENT1|52=20240212-10:24:39.136|10=237|
2024-02-12 11:24:54.161 [30] [FixSender] (DEBUG) Sending 8=FIX.4.4|9=57|35=0|49=FIXCLIENT1|56=DMA_HUB|34=76|52=20240212-10:24:54|10=042|
2024-02-12 11:25:09.087 [29] [FixSender] (DEBUG) Receiving 8=FIX.4.4|9=61|35=0|34=83|49=DMA_HUB|56=FIXCLIENT1|52=20240212-10:25:09.087|10=241|
2024-02-12 11:25:24.163 [30] [FixSender] (DEBUG) Sending 8=FIX.4.4|9=57|35=0|49=FIXCLIENT1|56=DMA_HUB|34=77|52=20240212-10:25:24|10=041|
2024-02-12 11:25:39.040 [29] [FixSender] (DEBUG) Receiving 8=FIX.4.4|9=61|35=0|34=84|49=DMA_HUB|56=FIXCLIENT1|52=20240212-10:25:39.040|10=234|
2024-02-12 11:25:54.165 [30] [FixSender] (DEBUG) Sending 8=FIX.4.4|9=57|35=0|49=FIXCLIENT1|56=DMA_HUB|34=78|52=20240212-10:25:54|10=045|
2024-02-12 11:26:08.993 [29] [FixSender] (DEBUG) Receiving 8=FIX.4.4|9=61|35=0|34=85|49=DMA_HUB|56=FIXCLIENT1|52=20240212-10:26:08.992|10=248|
2024-02-12 11:26:24.166 [30] [FixSender] (DEBUG) Sending 8=FIX.4.4|9=57|35=0|49=FIXCLIENT1|56=DMA_HUB|34=79|52=20240212-10:26:24|10=044|
2024-02-12 11:26:38.944 [29] [FixSender] (DEBUG) Receiving 8=FIX.4.4|9=61|35=0|34=86|49=DMA_HUB|56=FIXCLIENT1|52=20240212-10:26:38.944|10=249|
2024-02-12 11:26:54.167 [30] [FixSender] (DEBUG) Sending 8=FIX.4.4|9=57|35=0|49=FIXCLIENT1|56=DMA_HUB|34=80|52=20240212-10:26:54|10=039|
2024-02-12 11:27:08.896 [29] [FixSender] (DEBUG) Receiving 8=FIX.4.4|9=61|35=0|34=87|49=DMA_HUB|56=FIXCLIENT1|52=20240212-10:27:08.896|10=254|
2024-02-12 11:27:24.181 [30] [FixSender] (DEBUG) Sending 8=FIX.4.4|9=57|35=0|49=FIXCLIENT1|56=DMA_HUB|34=81|52=20240212-10:27:24|10=038|
2024-02-12 11:27:38.848 [29] [FixSender] (DEBUG) Receiving 8=FIX.4.4|9=61|35=0|34=88|49=DMA_HUB|56=FIXCLIENT1|52=20240212-10:27:38.847|10=254|
2024-02-12 11:27:54.182 [30] [FixSender] (DEBUG) Sending 8=FIX.4.4|9=57|35=0|49=FIXCLIENT1|56=DMA_HUB|34=82|52=20240212-10:27:54|10=042|
2024-02-12 11:28:08.800 [29] [FixSender] (DEBUG) Receiving 8=FIX.4.4|9=61|35=0|34=89|49=DMA_HUB|56=FIXCLIENT1|52=20240212-10:28:08.800|10=242|
2024-02-12 11:28:24.183 [30] [FixSender] (DEBUG) Sending 8=FIX.4.4|9=57|35=0|49=FIXCLIENT1|56=DMA_HUB|34=83|52=20240212-10:28:24|10=041|
2024-02-12 11:28:38.752 [29] [FixSender] (DEBUG) Receiving 8=FIX.4.4|9=61|35=0|34=90|49=DMA_HUB|56=FIXCLIENT1|52=20240212-10:28:38.752|10=243|
2024-02-12 11:28:54.186 [30] [FixSender] (DEBUG) Sending 8=FIX.4.4|9=57|35=0|49=FIXCLIENT1|56=DMA_HUB|34=84|52=20240212-10:28:54|10=045|
2024-02-12 11:29:02.201 [25] [FixSender] (INFO) Waiting for logout
2024-02-12 11:29:02.202 [25] [FixSender] (DEBUG) Sending 8=FIX.4.4|9=65|35=5|49=FIXCLIENT1|56=DMA_HUB|34=85|52=20240212-10:29:02|58=Quit|10=122|
2024-02-12 11:29:02.203 [29] [FixSender] (DEBUG) Receiving 8=FIX.4.4|9=61|35=5|34=91|49=DMA_HUB|56=FIXCLIENT1|52=20240212-10:29:02.203|10=232|
2024-02-12 11:29:02.203 [29] [FixSender] (WARNING) The Fix connection is close...
2024-02-12 11:29:02.207 [29] [FixSender] (INFO) physical cnx finished Connection reset by peer
2024-02-12 11:29:02.208 [29] [FixSender] (WARNING) Disconnected
2024-02-12 11:29:03.204 [25] [FixSender] (INFO) not logged anymore
2024-02-12 11:29:04.652 [47] [FixSender] (INFO) try to connect to : localhost port :12345
2024-02-12 11:29:04.653 [47] [FixSender] (INFO) physical cnx initiated
2024-02-12 11:29:04.656 [47] [FixSender] (DEBUG) Sending 8=FIX.4.4|9=87|35=A|49=FIXCLIENT1|56=DMA_HUB|34=86|52=20240212-10:29:04|98=0|108=30|95=9|96=null/null|10=143|
2024-02-12 11:29:04.657 [47] [FixSender] (DEBUG) Receiving 8=FIX.4.4|9=73|35=A|34=92|49=DMA_HUB|56=FIXCLIENT1|52=20240212-10:29:04.656|108=30|98=0|10=031|
2024-02-12 11:29:04.657 [47] [FixSender] (WARNING) The Fix connection is open...
2024-02-12 11:29:04.660 [47] [FixSender] (DEBUG) Sending 8=FIX.4.4|9=75|35=1|49=FIXCLIENT1|56=DMA_HUB|34=87|52=20240212-10:29:04|112=synchronized?|10=094|
2024-02-12 11:29:04.660 [47] [FixSender] (DEBUG) Receiving 8=FIX.4.4|9=79|35=0|34=93|49=DMA_HUB|56=FIXCLIENT1|52=20240212-10:29:04.660|112=synchronized?|10=040|
2024-02-12 11:29:21.003 [50] [FixSender] (DEBUG) Sending 8=FIX.4.4|9=194|35=D|49=FIXCLIENT1|56=DMA_HUB|34=88|52=20240212-10:29:21|21=1|11=HS_170773376113|38=4940|55=E:07G@XETR|54=2|60=20240212-10:29:21|40=2|59=0|44=197|48=US3390411052|22=4|15=EUR|207=XETR|1=bram_123|10=195|
2024-02-12 11:29:21.005 [47] [FixSender] (DEBUG) Receiving 8=FIX.4.4|9=237|35=8|34=94|49=DMA_HUB|56=FIXCLIENT1|52=20240212-10:29:21.004|11=HS_170773376113|37=FXh2Me0aJ|54=2|40=2|59=0|17=2024021219|150=A|39=A|38=4940|151=4940|14=0|6=0|44=197|60=20240212-10:29:21.000|22=4|48=US3390411052|207=XETR|15=EUR|55=[N/A]|10=071|
2024-02-12 11:29:34.624 [47] [FixSender] (DEBUG) Receiving 8=FIX.4.4|9=61|35=0|34=95|49=DMA_HUB|56=FIXCLIENT1|52=20240212-10:29:34.624|10=243|
2024-02-12 11:29:51.004 [48] [FixSender] (DEBUG) Sending 8=FIX.4.4|9=57|35=0|49=FIXCLIENT1|56=DMA_HUB|34=89|52=20240212-10:29:51|10=048|
2024-02-12 11:30:04.576 [47] [FixSender] (DEBUG) Receiving 8=FIX.4.4|9=61|35=0|34=96|49=DMA_HUB|56=FIXCLIENT1|52=20240212-10:30:04.576|10=239|
2024-02-12 11:30:21.007 [48] [FixSender] (DEBUG) Sending 8=FIX.4.4|9=57|35=0|49=FIXCLIENT1|56=DMA_HUB|34=90|52=20240212-10:30:21|10=029|
2024-02-12 11:30:34.530 [47] [FixSender] (DEBUG) Receiving 8=FIX.4.4|9=61|35=0|34=97|49=DMA_HUB|56=FIXCLIENT1|52=20240212-10:30:34.528|10=240|
2024-02-12 11:30:51.008 [48] [FixSender] (DEBUG) Sending 8=FIX.4.4|9=57|35=0|49=FIXCLIENT1|56=DMA_HUB|34=91|52=20240212-10:30:51|10=033|
2024-02-12 11:31:04.479 [47] [FixSender] (DEBUG) Receiving 8=FIX.4.4|9=61|35=0|34=98|49=DMA_HUB|56=FIXCLIENT1|52=20240212-10:31:04.479|10=244|
2024-02-12 11:31:21.009 [48] [FixSender] (DEBUG) Sending 8=FIX.4.4|9=57|35=0|49=FIXCLIENT1|56=DMA_HUB|34=92|52=20240212-10:31:21|10=032|
2024-02-12 11:31:34.432 [47] [FixSender] (DEBUG) Receiving 8=FIX.4.4|9=61|35=0|34=99|49=DMA_HUB|56=FIXCLIENT1|52=20240212-10:31:34.432|10=237|
2024-02-12 11:31:47.942 [51] [FixSender] (DEBUG) Sending 8=FIX.4.4|9=194|35=D|49=FIXCLIENT1|56=DMA_HUB|34=93|52=20240212-10:31:47|21=1|11=HS_170773390714|38=3450|55=E:07G@XETR|54=2|60=20240212-10:31:47|40=2|59=0|44=197|48=US3390411052|22=4|15=EUR|207=XETR|1=bram_123|10=191|
2024-02-12 11:31:47.944 [47] [FixSender] (DEBUG) Receiving 8=FIX.4.4|9=238|35=8|34=100|49=DMA_HUB|56=FIXCLIENT1|52=20240212-10:31:47.943|11=HS_170773390714|37=FXi2Me0aJ|54=2|40=2|59=0|17=2024021220|150=A|39=A|38=3450|151=3450|14=0|6=0|44=197|60=20240212-10:31:47.000|22=4|48=US3390411052|207=XETR|15=EUR|55=[N/A]|10=108|
2024-02-12 11:32:10.285 [1] [Fixsender] (INFO) (c) 2001-2011 ullink SAS. FixSender. Release 1.11.
2024-02-12 11:32:14.168 [29] [FixSender] (INFO) try to connect to : localhost port :12345
2024-02-12 11:32:14.189 [29] [FixSender] (INFO) physical cnx initiated
2024-02-12 11:32:14.203 [29] [FixSender] (DEBUG) Sending 8=FIX.4.4|9=87|35=A|49=FIXCLIENT1|56=DMA_HUB|34=94|52=20240212-10:32:14|98=0|108=30|95=9|96=null/null|10=137|
2024-02-12 11:32:14.207 [29] [FixSender] (DEBUG) Receiving 8=FIX.4.4|9=74|35=A|34=101|49=DMA_HUB|56=FIXCLIENT1|52=20240212-10:32:14.205|108=30|98=0|10=056|
2024-02-12 11:32:14.209 [29] [FixSender] (WARNING) The Fix connection is open...
2024-02-12 11:32:14.213 [29] [FixSender] (DEBUG) Sending 8=FIX.4.4|9=75|35=1|49=FIXCLIENT1|56=DMA_HUB|34=95|52=20240212-10:32:14|112=synchronized?|10=088|
2024-02-12 11:32:14.214 [29] [FixSender] (DEBUG) Receiving 8=FIX.4.4|9=80|35=0|34=102|49=DMA_HUB|56=FIXCLIENT1|52=20240212-10:32:14.213|112=synchronized?|10=060|
2024-02-12 11:32:16.437 [32] [FixSender] (DEBUG) Sending 8=FIX.4.4|9=193|35=D|49=FIXCLIENT1|56=DMA_HUB|34=96|52=20240212-10:32:16|21=1|11=HS_17077339360|38=1666|55=E:07G@XETR|54=2|60=20240212-10:32:16|40=2|59=0|44=197|48=US3390411052|22=4|15=EUR|207=XETR|1=bram_123|10=143|
2024-02-12 11:32:16.446 [29] [FixSender] (DEBUG) Receiving 8=FIX.4.4|9=237|35=8|34=103|49=DMA_HUB|56=FIXCLIENT1|52=20240212-10:32:16.445|11=HS_17077339360|37=FXRDGE9aJ|54=2|40=2|59=0|17=2024021221|150=A|39=A|38=1666|151=1666|14=0|6=0|44=197|60=20240212-10:32:16.000|22=4|48=US3390411052|207=XETR|15=EUR|55=[N/A]|10=031|
2024-02-12 11:32:44.161 [29] [FixSender] (DEBUG) Receiving 8=FIX.4.4|9=62|35=0|34=104|49=DMA_HUB|56=FIXCLIENT1|52=20240212-10:32:44.160|10=017|
2024-02-12 11:32:46.437 [30] [FixSender] (DEBUG) Sending 8=FIX.4.4|9=57|35=0|49=FIXCLIENT1|56=DMA_HUB|34=97|52=20240212-10:32:46|10=045|
2024-02-12 11:33:14.113 [29] [FixSender] (DEBUG) Receiving 8=FIX.4.4|9=62|35=0|34=105|49=DMA_HUB|56=FIXCLIENT1|52=20240212-10:33:14.112|10=013|
2024-02-12 11:33:16.442 [30] [FixSender] (DEBUG) Sending 8=FIX.4.4|9=57|35=0|49=FIXCLIENT1|56=DMA_HUB|34=98|52=20240212-10:33:16|10=044|
2024-02-12 11:33:44.065 [29] [FixSender] (DEBUG) Receiving 8=FIX.4.4|9=62|35=0|34=106|49=DMA_HUB|56=FIXCLIENT1|52=20240212-10:33:44.064|10=023|
2024-02-12 11:33:46.445 [30] [FixSender] (DEBUG) Sending 8=FIX.4.4|9=57|35=0|49=FIXCLIENT1|56=DMA_HUB|34=99|52=20240212-10:33:46|10=048|
2024-02-12 11:34:14.016 [29] [FixSender] (DEBUG) Receiving 8=FIX.4.4|9=62|35=0|34=107|49=DMA_HUB|56=FIXCLIENT1|52=20240212-10:34:14.016|10=019|
2024-02-12 11:34:16.448 [30] [FixSender] (DEBUG) Sending 8=FIX.4.4|9=58|35=0|49=FIXCLIENT1|56=DMA_HUB|34=100|52=20240212-10:34:16|10=078|
2024-02-12 11:34:43.968 [29] [FixSender] (DEBUG) Receiving 8=FIX.4.4|9=62|35=0|34=108|49=DMA_HUB|56=FIXCLIENT1|52=20240212-10:34:43.968|10=038|
2024-02-12 11:34:46.450 [30] [FixSender] (DEBUG) Sending 8=FIX.4.4|9=58|35=0|49=FIXCLIENT1|56=DMA_HUB|34=101|52=20240212-10:34:46|10=082|
2024-02-12 11:35:13.919 [29] [FixSender] (DEBUG) Receiving 8=FIX.4.4|9=62|35=0|34=109|49=DMA_HUB|56=FIXCLIENT1|52=20240212-10:35:13.919|10=033|
2024-02-12 11:35:16.452 [30] [FixSender] (DEBUG) Sending 8=FIX.4.4|9=58|35=0|49=FIXCLIENT1|56=DMA_HUB|34=102|52=20240212-10:35:16|10=081|
2024-02-12 11:35:43.872 [29] [FixSender] (DEBUG) Receiving 8=FIX.4.4|9=62|35=0|34=110|49=DMA_HUB|56=FIXCLIENT1|52=20240212-10:35:43.871|10=025|
2024-02-12 11:35:46.463 [30] [FixSender] (DEBUG) Sending 8=FIX.4.4|9=58|35=0|49=FIXCLIENT1|56=DMA_HUB|34=103|52=20240212-10:35:46|10=085|
2024-02-12 11:36:13.825 [29] [FixSender] (DEBUG) Receiving 8=FIX.4.4|9=62|35=0|34=111|49=DMA_HUB|56=FIXCLIENT1|52=20240212-10:36:13.824|10=022|
2024-02-12 11:36:16.463 [30] [FixSender] (DEBUG) Sending 8=FIX.4.4|9=58|35=0|49=FIXCLIENT1|56=DMA_HUB|34=104|52=20240212-10:36:16|10=084|
2024-02-12 11:36:43.776 [29] [FixSender] (DEBUG) Receiving 8=FIX.4.4|9=62|35=0|34=112|49=DMA_HUB|56=FIXCLIENT1|52=20240212-10:36:43.775|10=031|
2024-02-12 11:36:46.466 [30] [FixSender] (DEBUG) Sending 8=FIX.4.4|9=58|35=0|49=FIXCLIENT1|56=DMA_HUB|34=105|52=20240212-10:36:46|10=088|
2024-02-12 11:37:13.728 [29] [FixSender] (DEBUG) Receiving 8=FIX.4.4|9=62|35=0|34=113|49=DMA_HUB|56=FIXCLIENT1|52=20240212-10:37:13.728|10=028|
2024-02-12 11:37:16.467 [30] [FixSender] (DEBUG) Sending 8=FIX.4.4|9=58|35=0|49=FIXCLIENT1|56=DMA_HUB|34=106|52=20240212-10:37:16|10=087|
2024-02-12 11:37:43.679 [29] [FixSender] (DEBUG) Receiving 8=FIX.4.4|9=62|35=0|34=114|49=DMA_HUB|56=FIXCLIENT1|52=20240212-10:37:43.679|10=037|
2024-02-12 11:37:46.469 [30] [FixSender] (DEBUG) Sending 8=FIX.4.4|9=58|35=0|49=FIXCLIENT1|56=DMA_HUB|34=107|52=20240212-10:37:46|10=091|
2024-02-12 11:38:13.632 [29] [FixSender] (DEBUG) Receiving 8=FIX.4.4|9=62|35=0|34=115|49=DMA_HUB|56=FIXCLIENT1|52=20240212-10:38:13.632|10=025|
2024-02-12 11:38:16.471 [30] [FixSender] (DEBUG) Sending 8=FIX.4.4|9=58|35=0|49=FIXCLIENT1|56=DMA_HUB|34=108|52=20240212-10:38:16|10=090|
2024-02-12 11:38:43.583 [29] [FixSender] (DEBUG) Receiving 8=FIX.4.4|9=62|35=0|34=116|49=DMA_HUB|56=FIXCLIENT1|52=20240212-10:38:43.583|10=034|
2024-02-12 11:38:46.474 [30] [FixSender] (DEBUG) Sending 8=FIX.4.4|9=58|35=0|49=FIXCLIENT1|56=DMA_HUB|34=109|52=20240212-10:38:46|10=094|
2024-02-12 11:39:13.536 [29] [FixSender] (DEBUG) Receiving 8=FIX.4.4|9=62|35=0|34=117|49=DMA_HUB|56=FIXCLIENT1|52=20240212-10:39:13.536|10=031|
2024-02-12 11:39:16.478 [30] [FixSender] (DEBUG) Sending 8=FIX.4.4|9=58|35=0|49=FIXCLIENT1|56=DMA_HUB|34=110|52=20240212-10:39:16|10=084|
2024-02-12 11:39:43.488 [29] [FixSender] (DEBUG) Receiving 8=FIX.4.4|9=62|35=0|34=118|49=DMA_HUB|56=FIXCLIENT1|52=20240212-10:39:43.488|10=041|
2024-02-12 11:39:46.480 [30] [FixSender] (DEBUG) Sending 8=FIX.4.4|9=58|35=0|49=FIXCLIENT1|56=DMA_HUB|34=111|52=20240212-10:39:46|10=088|
2024-02-12 11:40:13.440 [29] [FixSender] (DEBUG) Receiving 8=FIX.4.4|9=62|35=0|34=119|49=DMA_HUB|56=FIXCLIENT1|52=20240212-10:40:13.440|10=019|
2024-02-12 11:40:16.482 [30] [FixSender] (DEBUG) Sending 8=FIX.4.4|9=58|35=0|49=FIXCLIENT1|56=DMA_HUB|34=112|52=20240212-10:40:16|10=078|
2024-02-12 11:40:43.391 [29] [FixSender] (DEBUG) Receiving 8=FIX.4.4|9=62|35=0|34=120|49=DMA_HUB|56=FIXCLIENT1|52=20240212-10:40:43.391|10=019|
2024-02-12 11:40:46.482 [30] [FixSender] (DEBUG) Sending 8=FIX.4.4|9=58|35=0|49=FIXCLIENT1|56=DMA_HUB|34=113|52=20240212-10:40:46|10=082|
2024-02-12 11:41:13.344 [29] [FixSender] (DEBUG) Receiving 8=FIX.4.4|9=62|35=0|34=121|49=DMA_HUB|56=FIXCLIENT1|52=20240212-10:41:13.344|10=016|
2024-02-12 11:41:16.486 [30] [FixSender] (DEBUG) Sending 8=FIX.4.4|9=58|35=0|49=FIXCLIENT1|56=DMA_HUB|34=114|52=20240212-10:41:16|10=081|
2024-02-12 11:41:43.295 [29] [FixSender] (DEBUG) Receiving 8=FIX.4.4|9=62|35=0|34=122|49=DMA_HUB|56=FIXCLIENT1|52=20240212-10:41:43.295|10=025|
2024-02-12 11:41:46.491 [30] [FixSender] (DEBUG) Sending 8=FIX.4.4|9=58|35=0|49=FIXCLIENT1|56=DMA_HUB|34=115|52=20240212-10:41:46|10=085|
2024-02-12 11:42:13.248 [29] [FixSender] (DEBUG) Receiving 8=FIX.4.4|9=62|35=0|34=123|49=DMA_HUB|56=FIXCLIENT1|52=20240212-10:42:13.248|10=022|
2024-02-12 11:42:16.495 [30] [FixSender] (DEBUG) Sending 8=FIX.4.4|9=58|35=0|49=FIXCLIENT1|56=DMA_HUB|34=116|52=20240212-10:42:16|10=084|
2024-02-12 11:42:43.200 [29] [FixSender] (DEBUG) Receiving 8=FIX.4.4|9=62|35=0|34=124|49=DMA_HUB|56=FIXCLIENT1|52=20240212-10:42:43.200|10=014|
2024-02-12 11:42:46.497 [30] [FixSender] (DEBUG) Sending 8=FIX.4.4|9=58|35=0|49=FIXCLIENT1|56=DMA_HUB|34=117|52=20240212-10:42:46|10=088|
2024-02-12 11:43:13.154 [29] [FixSender] (DEBUG) Receiving 8=FIX.4.4|9=62|35=0|34=125|49=DMA_HUB|56=FIXCLIENT1|52=20240212-10:43:13.152|10=019|
2024-02-12 11:43:16.497 [30] [FixSender] (DEBUG) Sending 8=FIX.4.4|9=58|35=0|49=FIXCLIENT1|56=DMA_HUB|34=118|52=20240212-10:43:16|10=087|
2024-02-12 11:43:43.103 [29] [FixSender] (DEBUG) Receiving 8=FIX.4.4|9=62|35=0|34=126|49=DMA_HUB|56=FIXCLIENT1|52=20240212-10:43:43.103|10=019|
2024-02-12 11:43:46.500 [30] [FixSender] (DEBUG) Sending 8=FIX.4.4|9=58|35=0|49=FIXCLIENT1|56=DMA_HUB|34=119|52=20240212-10:43:46|10=091|
2024-02-12 11:44:13.056 [29] [FixSender] (DEBUG) Receiving 8=FIX.4.4|9=62|35=0|34=127|49=DMA_HUB|56=FIXCLIENT1|52=20240212-10:44:13.056|10=025|
2024-02-12 11:44:16.501 [30] [FixSender] (DEBUG) Sending 8=FIX.4.4|9=58|35=0|49=FIXCLIENT1|56=DMA_HUB|34=120|52=20240212-10:44:16|10=081|
2024-02-12 11:44:43.008 [29] [FixSender] (DEBUG) Receiving 8=FIX.4.4|9=62|35=0|34=128|49=DMA_HUB|56=FIXCLIENT1|52=20240212-10:44:43.008|10=026|
2024-02-12 11:44:46.502 [30] [FixSender] (DEBUG) Sending 8=FIX.4.4|9=58|35=0|49=FIXCLIENT1|56=DMA_HUB|34=121|52=20240212-10:44:46|10=085|
2024-02-12 11:45:12.960 [29] [FixSender] (DEBUG) Receiving 8=FIX.4.4|9=62|35=0|34=129|49=DMA_HUB|56=FIXCLIENT1|52=20240212-10:45:12.960|10=031|
2024-02-12 11:45:16.505 [30] [FixSender] (DEBUG) Sending 8=FIX.4.4|9=58|35=0|49=FIXCLIENT1|56=DMA_HUB|34=122|52=20240212-10:45:16|10=084|
2024-02-12 11:45:42.912 [29] [FixSender] (DEBUG) Receiving 8=FIX.4.4|9=62|35=0|34=130|49=DMA_HUB|56=FIXCLIENT1|52=20240212-10:45:42.912|10=023|
2024-02-12 11:45:46.507 [30] [FixSender] (DEBUG) Sending 8=FIX.4.4|9=58|35=0|49=FIXCLIENT1|56=DMA_HUB|34=123|52=20240212-10:45:46|10=088|
2024-02-12 11:46:12.865 [29] [FixSender] (DEBUG) Receiving 8=FIX.4.4|9=62|35=0|34=131|49=DMA_HUB|56=FIXCLIENT1|52=20240212-10:46:12.864|10=028|
2024-02-12 11:46:16.510 [30] [FixSender] (DEBUG) Sending 8=FIX.4.4|9=58|35=0|49=FIXCLIENT1|56=DMA_HUB|34=124|52=20240212-10:46:16|10=087|
2024-02-12 11:46:42.817 [29] [FixSender] (DEBUG) Receiving 8=FIX.4.4|9=62|35=0|34=132|49=DMA_HUB|56=FIXCLIENT1|52=20240212-10:46:42.816|10=029|
2024-02-12 11:46:46.512 [30] [FixSender] (DEBUG) Sending 8=FIX.4.4|9=58|35=0|49=FIXCLIENT1|56=DMA_HUB|34=125|52=20240212-10:46:46|10=091|
2024-02-12 11:47:12.768 [29] [FixSender] (DEBUG) Receiving 8=FIX.4.4|9=62|35=0|34=133|49=DMA_HUB|56=FIXCLIENT1|52=20240212-10:47:12.768|10=034|
2024-02-12 11:47:16.514 [30] [FixSender] (DEBUG) Sending 8=FIX.4.4|9=58|35=0|49=FIXCLIENT1|56=DMA_HUB|34=126|52=20240212-10:47:16|10=090|
2024-02-12 11:47:42.721 [29] [FixSender] (DEBUG) Receiving 8=FIX.4.4|9=62|35=0|34=134|49=DMA_HUB|56=FIXCLIENT1|52=20240212-10:47:42.721|10=027|
2024-02-12 11:47:46.517 [30] [FixSender] (DEBUG) Sending 8=FIX.4.4|9=58|35=0|49=FIXCLIENT1|56=DMA_HUB|34=127|52=20240212-10:47:46|10=094|
2024-02-12 11:48:12.672 [29] [FixSender] (DEBUG) Receiving 8=FIX.4.4|9=62|35=0|34=135|49=DMA_HUB|56=FIXCLIENT1|52=20240212-10:48:12.672|10=031|
2024-02-12 11:48:16.519 [30] [FixSender] (DEBUG) Sending 8=FIX.4.4|9=58|35=0|49=FIXCLIENT1|56=DMA_HUB|34=128|52=20240212-10:48:16|10=093|
2024-02-12 11:48:42.625 [29] [FixSender] (DEBUG) Receiving 8=FIX.4.4|9=62|35=0|34=136|49=DMA_HUB|56=FIXCLIENT1|52=20240212-10:48:42.624|10=032|
2024-02-12 11:48:46.519 [30] [FixSender] (DEBUG) Sending 8=FIX.4.4|9=58|35=0|49=FIXCLIENT1|56=DMA_HUB|34=129|52=20240212-10:48:46|10=097|
2024-02-12 11:49:12.576 [29] [FixSender] (DEBUG) Receiving 8=FIX.4.4|9=62|35=0|34=137|49=DMA_HUB|56=FIXCLIENT1|52=20240212-10:49:12.576|10=037|
2024-02-12 11:49:16.521 [30] [FixSender] (DEBUG) Sending 8=FIX.4.4|9=58|35=0|49=FIXCLIENT1|56=DMA_HUB|34=130|52=20240212-10:49:16|10=087|
2024-02-12 11:49:42.528 [29] [FixSender] (DEBUG) Receiving 8=FIX.4.4|9=62|35=0|34=138|49=DMA_HUB|56=FIXCLIENT1|52=20240212-10:49:42.528|10=038|
2024-02-12 11:49:46.522 [30] [FixSender] (DEBUG) Sending 8=FIX.4.4|9=58|35=0|49=FIXCLIENT1|56=DMA_HUB|34=131|52=20240212-10:49:46|10=091|
2024-02-12 11:50:12.479 [29] [FixSender] (DEBUG) Receiving 8=FIX.4.4|9=62|35=0|34=139|49=DMA_HUB|56=FIXCLIENT1|52=20240212-10:50:12.479|10=033|
2024-02-12 11:50:16.536 [30] [FixSender] (DEBUG) Sending 8=FIX.4.4|9=58|35=0|49=FIXCLIENT1|56=DMA_HUB|34=132|52=20240212-10:50:16|10=081|
2024-02-12 11:50:42.432 [29] [FixSender] (DEBUG) Receiving 8=FIX.4.4|9=62|35=0|34=140|49=DMA_HUB|56=FIXCLIENT1|52=20240212-10:50:42.432|10=017|
2024-02-12 11:50:46.537 [30] [FixSender] (DEBUG) Sending 8=FIX.4.4|9=58|35=0|49=FIXCLIENT1|56=DMA_HUB|34=133|52=20240212-10:50:46|10=085|
2024-02-12 11:51:12.383 [29] [FixSender] (DEBUG) Receiving 8=FIX.4.4|9=62|35=0|34=141|49=DMA_HUB|56=FIXCLIENT1|52=20240212-10:51:12.383|10=021|
2024-02-12 11:51:16.539 [30] [FixSender] (DEBUG) Sending 8=FIX.4.4|9=58|35=0|49=FIXCLIENT1|56=DMA_HUB|34=134|52=20240212-10:51:16|10=084|
2024-02-12 11:51:42.336 [29] [FixSender] (DEBUG) Receiving 8=FIX.4.4|9=62|35=0|34=142|49=DMA_HUB|56=FIXCLIENT1|52=20240212-10:51:42.336|10=023|
2024-02-12 11:51:46.554 [30] [FixSender] (DEBUG) Sending 8=FIX.4.4|9=58|35=0|49=FIXCLIENT1|56=DMA_HUB|34=135|52=20240212-10:51:46|10=088|
2024-02-12 11:52:12.288 [29] [FixSender] (DEBUG) Receiving 8=FIX.4.4|9=62|35=0|34=143|49=DMA_HUB|56=FIXCLIENT1|52=20240212-10:52:12.288|10=028|
2024-02-12 11:52:16.556 [30] [FixSender] (DEBUG) Sending 8=FIX.4.4|9=58|35=0|49=FIXCLIENT1|56=DMA_HUB|34=136|52=20240212-10:52:16|10=087|
2024-02-12 11:52:42.240 [29] [FixSender] (DEBUG) Receiving 8=FIX.4.4|9=62|35=0|34=144|49=DMA_HUB|56=FIXCLIENT1|52=20240212-10:52:42.239|10=028|
2024-02-12 11:52:46.559 [30] [FixSender] (DEBUG) Sending 8=FIX.4.4|9=58|35=0|49=FIXCLIENT1|56=DMA_HUB|34=137|52=20240212-10:52:46|10=091|
2024-02-12 11:53:12.193 [29] [FixSender] (DEBUG) Receiving 8=FIX.4.4|9=62|35=0|34=145|49=DMA_HUB|56=FIXCLIENT1|52=20240212-10:53:12.192|10=025|
2024-02-12 11:53:16.561 [30] [FixSender] (DEBUG) Sending 8=FIX.4.4|9=58|35=0|49=FIXCLIENT1|56=DMA_HUB|34=138|52=20240212-10:53:16|10=090|
2024-02-12 11:53:42.146 [29] [FixSender] (DEBUG) Receiving 8=FIX.4.4|9=62|35=0|34=146|49=DMA_HUB|56=FIXCLIENT1|52=20240212-10:53:42.144|10=026|
2024-02-12 11:53:46.564 [30] [FixSender] (DEBUG) Sending 8=FIX.4.4|9=58|35=0|49=FIXCLIENT1|56=DMA_HUB|34=139|52=20240212-10:53:46|10=094|
2024-02-12 11:54:12.095 [29] [FixSender] (DEBUG) Receiving 8=FIX.4.4|9=62|35=0|34=147|49=DMA_HUB|56=FIXCLIENT1|52=20240212-10:54:12.095|10=030|
2024-02-12 11:54:16.566 [30] [FixSender] (DEBUG) Sending 8=FIX.4.4|9=58|35=0|49=FIXCLIENT1|56=DMA_HUB|34=140|52=20240212-10:54:16|10=084|
2024-02-12 11:54:42.048 [29] [FixSender] (DEBUG) Receiving 8=FIX.4.4|9=62|35=0|34=148|49=DMA_HUB|56=FIXCLIENT1|52=20240212-10:54:42.048|10=032|
2024-02-12 11:54:46.567 [30] [FixSender] (DEBUG) Sending 8=FIX.4.4|9=58|35=0|49=FIXCLIENT1|56=DMA_HUB|34=141|52=20240212-10:54:46|10=088|
2024-02-12 11:55:12.001 [29] [FixSender] (DEBUG) Receiving 8=FIX.4.4|9=62|35=0|34=149|49=DMA_HUB|56=FIXCLIENT1|52=20240212-10:55:12.000|10=019|
2024-02-12 11:55:16.569 [30] [FixSender] (DEBUG) Sending 8=FIX.4.4|9=58|35=0|49=FIXCLIENT1|56=DMA_HUB|34=142|52=20240212-10:55:16|10=087|
2024-02-12 11:55:41.952 [29] [FixSender] (DEBUG) Receiving 8=FIX.4.4|9=62|35=0|34=150|49=DMA_HUB|56=FIXCLIENT1|52=20240212-10:55:41.952|10=029|
2024-02-12 11:55:46.572 [30] [FixSender] (DEBUG) Sending 8=FIX.4.4|9=58|35=0|49=FIXCLIENT1|56=DMA_HUB|34=143|52=20240212-10:55:46|10=091|
2024-02-12 11:56:11.904 [29] [FixSender] (DEBUG) Receiving 8=FIX.4.4|9=62|35=0|34=151|49=DMA_HUB|56=FIXCLIENT1|52=20240212-10:56:11.904|10=025|
2024-02-12 11:56:16.573 [30] [FixSender] (DEBUG) Sending 8=FIX.4.4|9=58|35=0|49=FIXCLIENT1|56=DMA_HUB|34=144|52=20240212-10:56:16|10=090|
2024-02-12 11:56:41.855 [29] [FixSender] (DEBUG) Receiving 8=FIX.4.4|9=62|35=0|34=152|49=DMA_HUB|56=FIXCLIENT1|52=20240212-10:56:41.855|10=034|
2024-02-12 11:56:46.576 [30] [FixSender] (DEBUG) Sending 8=FIX.4.4|9=58|35=0|49=FIXCLIENT1|56=DMA_HUB|34=145|52=20240212-10:56:46|10=094|
2024-02-12 11:57:11.809 [29] [FixSender] (DEBUG) Receiving 8=FIX.4.4|9=62|35=0|34=153|49=DMA_HUB|56=FIXCLIENT1|52=20240212-10:57:11.807|10=030|
2024-02-12 11:57:16.579 [30] [FixSender] (DEBUG) Sending 8=FIX.4.4|9=58|35=0|49=FIXCLIENT1|56=DMA_HUB|34=146|52=20240212-10:57:16|10=093|
2024-02-12 11:57:41.760 [29] [FixSender] (DEBUG) Receiving 8=FIX.4.4|9=62|35=0|34=154|49=DMA_HUB|56=FIXCLIENT1|52=20240212-10:57:41.759|10=040|
2024-02-12 11:57:46.582 [30] [FixSender] (DEBUG) Sending 8=FIX.4.4|9=58|35=0|49=FIXCLIENT1|56=DMA_HUB|34=147|52=20240212-10:57:46|10=097|
2024-02-12 11:58:11.711 [29] [FixSender] (DEBUG) Receiving 8=FIX.4.4|9=62|35=0|34=155|49=DMA_HUB|56=FIXCLIENT1|52=20240212-10:58:11.711|10=027|
2024-02-12 11:58:16.592 [30] [FixSender] (DEBUG) Sending 8=FIX.4.4|9=58|35=0|49=FIXCLIENT1|56=DMA_HUB|34=148|52=20240212-10:58:16|10=096|
2024-02-12 11:58:34.718 [29] [FixSender] (DEBUG) Receiving 8=FIX.4.4|9=62|35=5|34=156|49=DMA_HUB|56=FIXCLIENT1|52=20240212-10:58:34.716|10=043|
2024-02-12 11:58:34.718 [29] [FixSender] (DEBUG) Sending 8=FIX.4.4|9=80|35=5|49=FIXCLIENT1|56=DMA_HUB|34=149|52=20240212-10:58:34|58=Replying to logout|10=019|
2024-02-12 11:58:34.719 [29] [FixSender] (WARNING) The Fix connection is close...
2024-02-12 11:58:34.721 [29] [FixSender] (INFO) physical cnx finished Connection reset by peer
2024-02-12 11:58:34.722 [29] [FixSender] (WARNING) Disconnected
2024-02-12 13:13:19.718 [33] [FixSender] (INFO) try to connect to : localhost port :12345
2024-02-12 13:13:19.720 [33] [FixSender] (INFO) physical cnx initiated
2024-02-12 13:13:19.725 [33] [FixSender] (DEBUG) Sending 8=FIX.4.4|9=88|35=A|49=FIXCLIENT1|56=DMA_HUB|34=150|52=20240212-12:13:19|98=0|108=30|95=9|96=null/null|10=185|
2024-02-12 13:13:19.732 [33] [FixSender] (DEBUG) Receiving 8=FIX.4.4|9=74|35=A|34=157|49=DMA_HUB|56=FIXCLIENT1|52=20240212-12:13:19.728|108=30|98=0|10=083|
2024-02-12 13:13:19.732 [33] [FixSender] (WARNING) The Fix connection is open...
2024-02-12 13:13:19.735 [33] [FixSender] (DEBUG) Sending 8=FIX.4.4|9=76|35=1|49=FIXCLIENT1|56=DMA_HUB|34=151|52=20240212-12:13:19|112=synchronized?|10=136|
2024-02-12 13:13:19.738 [33] [FixSender] (DEBUG) Receiving 8=FIX.4.4|9=80|35=0|34=158|49=DMA_HUB|56=FIXCLIENT1|52=20240212-12:13:19.737|112=synchronized?|10=088|
2024-02-12 13:13:21.702 [36] [FixSender] (DEBUG) Sending 8=FIX.4.4|9=194|35=D|49=FIXCLIENT1|56=DMA_HUB|34=152|52=20240212-12:13:21|21=1|11=HS_17077400011|38=3954|55=E:07G@XETR|54=2|60=20240212-12:13:21|40=2|59=0|44=197|48=US3390411052|22=4|15=EUR|207=XETR|1=bram_123|10=163|
2024-02-12 13:13:21.712 [33] [FixSender] (DEBUG) Receiving 8=FIX.4.4|9=237|35=8|34=159|49=DMA_HUB|56=FIXCLIENT1|52=20240212-12:13:21.711|11=HS_17077400011|37=FXrorYF6N|54=2|40=2|59=0|17=2024021222|150=A|39=A|38=3954|151=3954|14=0|6=0|44=197|60=20240212-12:13:21.000|22=4|48=US3390411052|207=XETR|15=EUR|55=[N/A]|10=131|
2024-02-12 13:13:49.684 [33] [FixSender] (DEBUG) Receiving 8=FIX.4.4|9=62|35=0|34=160|49=DMA_HUB|56=FIXCLIENT1|52=20240212-12:13:49.684|10=036|
2024-02-12 13:13:51.710 [34] [FixSender] (DEBUG) Sending 8=FIX.4.4|9=58|35=0|49=FIXCLIENT1|56=DMA_HUB|34=153|52=20240212-12:13:51|10=084|
2024-02-12 13:14:19.657 [33] [FixSender] (DEBUG) Receiving 8=FIX.4.4|9=62|35=0|34=161|49=DMA_HUB|56=FIXCLIENT1|52=20240212-12:14:19.636|10=032|
2024-02-12 13:14:21.713 [34] [FixSender] (DEBUG) Sending 8=FIX.4.4|9=58|35=0|49=FIXCLIENT1|56=DMA_HUB|34=154|52=20240212-12:14:21|10=083|
2024-02-12 13:14:49.612 [33] [FixSender] (DEBUG) Receiving 8=FIX.4.4|9=62|35=0|34=162|49=DMA_HUB|56=FIXCLIENT1|52=20240212-12:14:49.587|10=041|
2024-02-12 13:14:51.714 [34] [FixSender] (DEBUG) Sending 8=FIX.4.4|9=58|35=0|49=FIXCLIENT1|56=DMA_HUB|34=155|52=20240212-12:14:51|10=087|
2024-02-12 13:15:19.541 [33] [FixSender] (DEBUG) Receiving 8=FIX.4.4|9=62|35=0|34=163|49=DMA_HUB|56=FIXCLIENT1|52=20240212-12:15:19.540|10=029|
2024-02-12 13:15:21.717 [34] [FixSender] (DEBUG) Sending 8=FIX.4.4|9=58|35=0|49=FIXCLIENT1|56=DMA_HUB|34=156|52=20240212-12:15:21|10=086|
2024-02-12 13:15:49.492 [33] [FixSender] (DEBUG) Receiving 8=FIX.4.4|9=62|35=0|34=164|49=DMA_HUB|56=FIXCLIENT1|52=20240212-12:15:49.492|10=039|
2024-02-12 13:15:51.721 [34] [FixSender] (DEBUG) Sending 8=FIX.4.4|9=58|35=0|49=FIXCLIENT1|56=DMA_HUB|34=157|52=20240212-12:15:51|10=090|
2024-02-12 13:16:19.444 [33] [FixSender] (DEBUG) Receiving 8=FIX.4.4|9=62|35=0|34=165|49=DMA_HUB|56=FIXCLIENT1|52=20240212-12:16:19.443|10=034|
2024-02-12 13:16:21.733 [34] [FixSender] (DEBUG) Sending 8=FIX.4.4|9=58|35=0|49=FIXCLIENT1|56=DMA_HUB|34=158|52=20240212-12:16:21|10=089|
2024-02-12 13:16:49.396 [33] [FixSender] (DEBUG) Receiving 8=FIX.4.4|9=62|35=0|34=166|49=DMA_HUB|56=FIXCLIENT1|52=20240212-12:16:49.396|10=045|
2024-02-12 13:16:51.744 [34] [FixSender] (DEBUG) Sending 8=FIX.4.4|9=58|35=0|49=FIXCLIENT1|56=DMA_HUB|34=159|52=20240212-12:16:51|10=093|
2024-02-12 13:17:19.348 [33] [FixSender] (DEBUG) Receiving 8=FIX.4.4|9=62|35=0|34=167|49=DMA_HUB|56=FIXCLIENT1|52=20240212-12:17:19.347|10=040|
2024-02-12 13:17:21.745 [34] [FixSender] (DEBUG) Sending 8=FIX.4.4|9=58|35=0|49=FIXCLIENT1|56=DMA_HUB|34=160|52=20240212-12:17:21|10=083|
2024-02-12 13:17:37.754 [38] [FixSender] (DEBUG) Sending 8=FIX.4.4|9=194|35=D|49=FIXCLIENT1|56=DMA_HUB|34=161|52=20240212-12:17:37|21=1|11=HS_17077402572|38=2730|55=E:07G@XETR|54=2|60=20240212-12:17:37|40=2|59=0|44=197|48=US3390411052|22=4|15=EUR|207=XETR|1=bram_123|10=190|
2024-02-12 13:17:37.755 [38] [FixSender] (DEBUG) Sending 8=FIX.4.4|9=194|35=D|49=FIXCLIENT1|56=DMA_HUB|34=162|52=20240212-12:17:37|21=1|11=HS_17077402573|38=1534|55=E:07G@XETR|54=2|60=20240212-12:17:37|40=2|59=0|44=197|48=US3390411052|22=4|15=EUR|207=XETR|1=bram_123|10=193|
2024-02-12 13:17:37.755 [38] [FixSender] (DEBUG) Sending 8=FIX.4.4|9=194|35=D|49=FIXCLIENT1|56=DMA_HUB|34=163|52=20240212-12:17:37|21=1|11=HS_17077402574|38=4778|55=E:07G@XETR|54=2|60=20240212-12:17:37|40=2|59=0|44=197|48=US3390411052|22=4|15=EUR|207=XETR|1=bram_123|10=208|
2024-02-12 13:17:37.755 [38] [FixSender] (DEBUG) Sending 8=FIX.4.4|9=194|35=D|49=FIXCLIENT1|56=DMA_HUB|34=164|52=20240212-12:17:37|21=1|11=HS_17077402575|38=3103|55=E:07G@XETR|54=2|60=20240212-12:17:37|40=2|59=0|44=197|48=US3390411052|22=4|15=EUR|207=XETR|1=bram_123|10=191|
2024-02-12 13:17:37.756 [38] [FixSender] (DEBUG) Sending 8=FIX.4.4|9=194|35=D|49=FIXCLIENT1|56=DMA_HUB|34=165|52=20240212-12:17:37|21=1|11=HS_17077402576|38=2764|55=E:07G@XETR|54=2|60=20240212-12:17:37|40=2|59=0|44=197|48=US3390411052|22=4|15=EUR|207=XETR|1=bram_123|10=205|
2024-02-12 13:17:37.756 [38] [FixSender] (DEBUG) Sending 8=FIX.4.4|9=194|35=D|49=FIXCLIENT1|56=DMA_HUB|34=166|52=20240212-12:17:37|21=1|11=HS_17077402577|38=3288|55=E:07G@XETR|54=2|60=20240212-12:17:37|40=2|59=0|44=197|48=US3390411052|22=4|15=EUR|207=XETR|1=bram_123|10=209|
2024-02-12 13:17:37.757 [38] [FixSender] (DEBUG) Sending 8=FIX.4.4|9=194|35=D|49=FIXCLIENT1|56=DMA_HUB|34=167|52=20240212-12:17:37|21=1|11=HS_17077402578|38=2299|55=E:07G@XETR|54=2|60=20240212-12:17:37|40=2|59=0|44=197|48=US3390411052|22=4|15=EUR|207=XETR|1=bram_123|10=212|
2024-02-12 13:17:37.757 [38] [FixSender] (DEBUG) Sending 8=FIX.4.4|9=194|35=D|49=FIXCLIENT1|56=DMA_HUB|34=168|52=20240212-12:17:37|21=1|11=HS_17077402579|38=3784|55=E:07G@XETR|54=2|60=20240212-12:17:37|40=2|59=0|44=197|48=US3390411052|22=4|15=EUR|207=XETR|1=bram_123|10=214|
2024-02-12 13:17:37.758 [38] [FixSender] (DEBUG) Sending 8=FIX.4.4|9=195|35=D|49=FIXCLIENT1|56=DMA_HUB|34=169|52=20240212-12:17:37|21=1|11=HS_170774025710|38=2587|55=E:07G@XETR|54=2|60=20240212-12:17:37|40=2|59=0|44=197|48=US3390411052|22=4|15=EUR|207=XETR|1=bram_123|10=000|
2024-02-12 13:17:37.758 [38] [FixSender] (DEBUG) Sending 8=FIX.4.4|9=195|35=D|49=FIXCLIENT1|56=DMA_HUB|34=170|52=20240212-12:17:37|21=1|11=HS_170774025711|38=4622|55=E:07G@XETR|54=2|60=20240212-12:17:37|40=2|59=0|44=197|48=US3390411052|22=4|15=EUR|207=XETR|1=bram_123|10=241|
2024-02-12 13:17:37.758 [38] [FixSender] (DEBUG) Sending 8=FIX.4.4|9=195|35=D|49=FIXCLIENT1|56=DMA_HUB|34=171|52=20240212-12:17:37|21=1|11=HS_170774025712|38=3629|55=E:07G@XETR|54=2|60=20240212-12:17:37|40=2|59=0|44=197|48=US3390411052|22=4|15=EUR|207=XETR|1=bram_123|10=249|
2024-02-12 13:17:37.759 [38] [FixSender] (DEBUG) Sending 8=FIX.4.4|9=195|35=D|49=FIXCLIENT1|56=DMA_HUB|34=172|52=20240212-12:17:37|21=1|11=HS_170774025713|38=2338|55=E:07G@XETR|54=2|60=20240212-12:17:37|40=2|59=0|44=197|48=US3390411052|22=4|15=EUR|207=XETR|1=bram_123|10=247|
2024-02-12 13:17:37.759 [38] [FixSender] (DEBUG) Sending 8=FIX.4.4|9=195|35=D|49=FIXCLIENT1|56=DMA_HUB|34=173|52=20240212-12:17:37|21=1|11=HS_170774025714|38=1892|55=E:07G@XETR|54=2|60=20240212-12:17:37|40=2|59=0|44=197|48=US3390411052|22=4|15=EUR|207=XETR|1=bram_123|10=253|
2024-02-12 13:17:37.760 [38] [FixSender] (DEBUG) Sending 8=FIX.4.4|9=195|35=D|49=FIXCLIENT1|56=DMA_HUB|34=174|52=20240212-12:17:37|21=1|11=HS_170774025715|38=2645|55=E:07G@XETR|54=2|60=20240212-12:17:37|40=2|59=0|44=197|48=US3390411052|22=4|15=EUR|207=XETR|1=bram_123|10=252|
2024-02-12 13:17:37.760 [38] [FixSender] (DEBUG) Sending 8=FIX.4.4|9=195|35=D|49=FIXCLIENT1|56=DMA_HUB|34=175|52=20240212-12:17:37|21=1|11=HS_170774025716|38=1861|55=E:07G@XETR|54=2|60=20240212-12:17:37|40=2|59=0|44=197|48=US3390411052|22=4|15=EUR|207=XETR|1=bram_123|10=253|
2024-02-12 13:17:37.760 [38] [FixSender] (DEBUG) Sending 8=FIX.4.4|9=194|35=D|49=FIXCLIENT1|56=DMA_HUB|34=176|52=20240212-12:17:37|21=1|11=HS_170774025717|38=416|55=E:07G@XETR|54=2|60=20240212-12:17:37|40=2|59=0|44=197|48=US3390411052|22=4|15=EUR|207=XETR|1=bram_123|10=201|
2024-02-12 13:17:37.761 [38] [FixSender] (DEBUG) Sending 8=FIX.4.4|9=194|35=D|49=FIXCLIENT1|56=DMA_HUB|34=177|52=20240212-12:17:37|21=1|11=HS_170774025718|38=814|55=E:07G@XETR|54=2|60=20240212-12:17:37|40=2|59=0|44=197|48=US3390411052|22=4|15=EUR|207=XETR|1=bram_123|10=205|
2024-02-12 13:17:37.761 [38] [FixSender] (DEBUG) Sending 8=FIX.4.4|9=195|35=D|49=FIXCLIENT1|56=DMA_HUB|34=178|52=20240212-12:17:37|21=1|11=HS_170774025719|38=1631|55=E:07G@XETR|54=2|60=20240212-12:17:37|40=2|59=0|44=197|48=US3390411052|22=4|15=EUR|207=XETR|1=bram_123|10=254|
2024-02-12 13:17:37.762 [38] [FixSender] (DEBUG) Sending 8=FIX.4.4|9=195|35=D|49=FIXCLIENT1|56=DMA_HUB|34=179|52=20240212-12:17:37|21=1|11=HS_170774025720|38=4217|55=E:07G@XETR|54=2|60=20240212-12:17:37|40=2|59=0|44=197|48=US3390411052|22=4|15=EUR|207=XETR|1=bram_123|10=250|
2024-02-12 13:17:37.762 [38] [FixSender] (DEBUG) Sending 8=FIX.4.4|9=195|35=D|49=FIXCLIENT1|56=DMA_HUB|34=180|52=20240212-12:17:37|21=1|11=HS_170774025721|38=4713|55=E:07G@XETR|54=2|60=20240212-12:17:37|40=2|59=0|44=197|48=US3390411052|22=4|15=EUR|207=XETR|1=bram_123|10=244|
2024-02-12 13:17:37.762 [38] [FixSender] (DEBUG) Sending 8=FIX.4.4|9=195|35=D|49=FIXCLIENT1|56=DMA_HUB|34=181|52=20240212-12:17:37|21=1|11=HS_170774025722|38=1124|55=E:07G@XETR|54=2|60=20240212-12:17:37|40=2|59=0|44=197|48=US3390411052|22=4|15=EUR|207=XETR|1=bram_123|10=239|
2024-02-12 13:17:37.763 [38] [FixSender] (DEBUG) Sending 8=FIX.4.4|9=195|35=D|49=FIXCLIENT1|56=DMA_HUB|34=182|52=20240212-12:17:37|21=1|11=HS_170774025723|38=2872|55=E:07G@XETR|54=2|60=20240212-12:17:37|40=2|59=0|44=197|48=US3390411052|22=4|15=EUR|207=XETR|1=bram_123|10=252|
2024-02-12 13:17:37.763 [38] [FixSender] (DEBUG) Sending 8=FIX.4.4|9=194|35=D|49=FIXCLIENT1|56=DMA_HUB|34=183|52=20240212-12:17:37|21=1|11=HS_170774025724|38=524|55=E:07G@XETR|54=2|60=20240212-12:17:37|40=2|59=0|44=197|48=US3390411052|22=4|15=EUR|207=XETR|1=bram_123|10=197|
2024-02-12 13:17:37.764 [38] [FixSender] (DEBUG) Sending 8=FIX.4.4|9=194|35=D|49=FIXCLIENT1|56=DMA_HUB|34=184|52=20240212-12:17:37|21=1|11=HS_170774025725|38=406|55=E:07G@XETR|54=2|60=20240212-12:17:37|40=2|59=0|44=197|48=US3390411052|22=4|15=EUR|207=XETR|1=bram_123|10=198|
2024-02-12 13:17:37.764 [33] [FixSender] (DEBUG) Receiving 8=FIX.4.4|9=237|35=8|34=168|49=DMA_HUB|56=FIXCLIENT1|52=20240212-12:17:37.762|11=HS_17077402572|37=FXsorYF6N|54=2|40=2|59=0|17=2024021223|150=A|39=A|38=2730|151=2730|14=0|6=0|44=197|60=20240212-12:17:37.000|22=4|48=US3390411052|207=XETR|15=EUR|55=[N/A]|10=157|
2024-02-12 13:17:37.764 [38] [FixSender] (DEBUG) Sending 8=FIX.4.4|9=195|35=D|49=FIXCLIENT1|56=DMA_HUB|34=185|52=20240212-12:17:37|21=1|11=HS_170774025726|38=4985|55=E:07G@XETR|54=2|60=20240212-12:17:37|40=2|59=0|44=197|48=US3390411052|22=4|15=EUR|207=XETR|1=bram_123|10=009|
2024-02-12 13:17:37.764 [33] [FixSender] (DEBUG) Receiving 8=FIX.4.4|9=237|35=8|34=169|49=DMA_HUB|56=FIXCLIENT1|52=20240212-12:17:37.763|11=HS_17077402573|37=FXtorYF6N|54=2|40=2|59=0|17=2024021224|150=A|39=A|38=1534|151=1534|14=0|6=0|44=197|60=20240212-12:17:37.000|22=4|48=US3390411052|207=XETR|15=EUR|55=[N/A]|10=164|
2024-02-12 13:17:37.764 [38] [FixSender] (DEBUG) Sending 8=FIX.4.4|9=195|35=D|49=FIXCLIENT1|56=DMA_HUB|34=186|52=20240212-12:17:37|21=1|11=HS_170774025727|38=4137|55=E:07G@XETR|54=2|60=20240212-12:17:37|40=2|59=0|44=197|48=US3390411052|22=4|15=EUR|207=XETR|1=bram_123|10=000|
2024-02-12 13:17:37.765 [38] [FixSender] (DEBUG) Sending 8=FIX.4.4|9=195|35=D|49=FIXCLIENT1|56=DMA_HUB|34=187|52=20240212-12:17:37|21=1|11=HS_170774025728|38=2817|55=E:07G@XETR|54=2|60=20240212-12:17:37|40=2|59=0|44=197|48=US3390411052|22=4|15=EUR|207=XETR|1=bram_123|10=005|
2024-02-12 13:17:37.765 [33] [FixSender] (DEBUG) Receiving 8=FIX.4.4|9=237|35=8|34=170|49=DMA_HUB|56=FIXCLIENT1|52=20240212-12:17:37.764|11=HS_17077402574|37=FXuorYF6N|54=2|40=2|59=0|17=2024021225|150=A|39=A|38=4778|151=4778|14=0|6=0|44=197|60=20240212-12:17:37.000|22=4|48=US3390411052|207=XETR|15=EUR|55=[N/A]|10=186|
2024-02-12 13:17:37.765 [38] [FixSender] (DEBUG) Sending 8=FIX.4.4|9=194|35=D|49=FIXCLIENT1|56=DMA_HUB|34=188|52=20240212-12:17:37|21=1|11=HS_170774025729|38=953|55=E:07G@XETR|54=2|60=20240212-12:17:37|40=2|59=0|44=197|48=US3390411052|22=4|15=EUR|207=XETR|1=bram_123|10=213|
2024-02-12 13:17:37.766 [38] [FixSender] (DEBUG) Sending 8=FIX.4.4|9=195|35=D|49=FIXCLIENT1|56=DMA_HUB|34=189|52=20240212-12:17:37|21=1|11=HS_170774025730|38=4613|55=E:07G@XETR|54=2|60=20240212-12:17:37|40=2|59=0|44=197|48=US3390411052|22=4|15=EUR|207=XETR|1=bram_123|10=252|
2024-02-12 13:17:37.766 [38] [FixSender] (DEBUG) Sending 8=FIX.4.4|9=195|35=D|49=FIXCLIENT1|56=DMA_HUB|34=190|52=20240212-12:17:37|21=1|11=HS_170774025731|38=2349|55=E:07G@XETR|54=2|60=20240212-12:17:37|40=2|59=0|44=197|48=US3390411052|22=4|15=EUR|207=XETR|1=bram_123|10=249|
2024-02-12 13:17:37.766 [38] [FixSender] (DEBUG) Sending 8=FIX.4.4|9=195|35=D|49=FIXCLIENT1|56=DMA_HUB|34=191|52=20240212-12:17:37|21=1|11=HS_170774025732|38=2648|55=E:07G@XETR|54=2|60=20240212-12:17:37|40=2|59=0|44=197|48=US3390411052|22=4|15=EUR|207=XETR|1=bram_123|10=253|
2024-02-12 13:17:37.767 [38] [FixSender] (DEBUG) Sending 8=FIX.4.4|9=195|35=D|49=FIXCLIENT1|56=DMA_HUB|34=192|52=20240212-12:17:37|21=1|11=HS_170774025733|38=4342|55=E:07G@XETR|54=2|60=20240212-12:17:37|40=2|59=0|44=197|48=US3390411052|22=4|15=EUR|207=XETR|1=bram_123|10=248|
2024-02-12 13:17:37.767 [33] [FixSender] (DEBUG) Receiving 8=FIX.4.4|9=237|35=8|34=171|49=DMA_HUB|56=FIXCLIENT1|52=20240212-12:17:37.766|11=HS_17077402575|37=FXvorYF6N|54=2|40=2|59=0|17=2024021226|150=A|39=A|38=3103|151=3103|14=0|6=0|44=197|60=20240212-12:17:37.000|22=4|48=US3390411052|207=XETR|15=EUR|55=[N/A]|10=154|
2024-02-12 13:17:37.767 [38] [FixSender] (DEBUG) Sending 8=FIX.4.4|9=195|35=D|49=FIXCLIENT1|56=DMA_HUB|34=193|52=20240212-12:17:37|21=1|11=HS_170774025734|38=4189|55=E:07G@XETR|54=2|60=20240212-12:17:37|40=2|59=0|44=197|48=US3390411052|22=4|15=EUR|207=XETR|1=bram_123|10=003|
2024-02-12 13:17:37.767 [33] [FixSender] (DEBUG) Receiving 8=FIX.4.4|9=237|35=8|34=172|49=DMA_HUB|56=FIXCLIENT1|52=20240212-12:17:37.767|11=HS_17077402576|37=FXworYF6N|54=2|40=2|59=0|17=2024021227|150=A|39=A|38=2764|151=2764|14=0|6=0|44=197|60=20240212-12:17:37.000|22=4|48=US3390411052|207=XETR|15=EUR|55=[N/A]|10=183|
2024-02-12 13:17:37.768 [38] [FixSender] (DEBUG) Sending 8=FIX.4.4|9=195|35=D|49=FIXCLIENT1|56=DMA_HUB|34=194|52=20240212-12:17:37|21=1|11=HS_170774025735|38=4245|55=E:07G@XETR|54=2|60=20240212-12:17:37|40=2|59=0|44=197|48=US3390411052|22=4|15=EUR|207=XETR|1=bram_123|10=254|
2024-02-12 13:17:37.768 [38] [FixSender] (DEBUG) Sending 8=FIX.4.4|9=195|35=D|49=FIXCLIENT1|56=DMA_HUB|34=195|52=20240212-12:17:37|21=1|11=HS_170774025736|38=2936|55=E:07G@XETR|54=2|60=20240212-12:17:37|40=2|59=0|44=197|48=US3390411052|22=4|15=EUR|207=XETR|1=bram_123|10=005|
2024-02-12 13:17:37.768 [38] [FixSender] (DEBUG) Sending 8=FIX.4.4|9=195|35=D|49=FIXCLIENT1|56=DMA_HUB|34=196|52=20240212-12:17:37|21=1|11=HS_170774025737|38=1562|55=E:07G@XETR|54=2|60=20240212-12:17:37|40=2|59=0|44=197|48=US3390411052|22=4|15=EUR|207=XETR|1=bram_123|10=001|
2024-02-12 13:17:37.769 [33] [FixSender] (DEBUG) Receiving 8=FIX.4.4|9=237|35=8|34=173|49=DMA_HUB|56=FIXCLIENT1|52=20240212-12:17:37.768|11=HS_17077402577|37=FXxorYF6N|54=2|40=2|59=0|17=2024021228|150=A|39=A|38=3288|151=3288|14=0|6=0|44=197|60=20240212-12:17:37.000|22=4|48=US3390411052|207=XETR|15=EUR|55=[N/A]|10=192|
2024-02-12 13:17:37.769 [38] [FixSender] (DEBUG) Sending 8=FIX.4.4|9=195|35=D|49=FIXCLIENT1|56=DMA_HUB|34=197|52=20240212-12:17:37|21=1|11=HS_170774025738|38=3058|55=E:07G@XETR|54=2|60=20240212-12:17:37|40=2|59=0|44=197|48=US3390411052|22=4|15=EUR|207=XETR|1=bram_123|10=005|
2024-02-12 13:17:37.769 [38] [FixSender] (DEBUG) Sending 8=FIX.4.4|9=195|35=D|49=FIXCLIENT1|56=DMA_HUB|34=198|52=20240212-12:17:37|21=1|11=HS_170774025739|38=4707|55=E:07G@XETR|54=2|60=20240212-12:17:37|40=2|59=0|44=197|48=US3390411052|22=4|15=EUR|207=XETR|1=bram_123|10=009|
2024-02-12 13:17:37.770 [38] [FixSender] (DEBUG) Sending 8=FIX.4.4|9=195|35=D|49=FIXCLIENT1|56=DMA_HUB|34=199|52=20240212-12:17:37|21=1|11=HS_170774025740|38=2336|55=E:07G@XETR|54=2|60=20240212-12:17:37|40=2|59=0|44=197|48=US3390411052|22=4|15=EUR|207=XETR|1=bram_123|10=254|
2024-02-12 13:17:37.770 [38] [FixSender] (DEBUG) Sending 8=FIX.4.4|9=195|35=D|49=FIXCLIENT1|56=DMA_HUB|34=200|52=20240212-12:17:37|21=1|11=HS_170774025741|38=3919|55=E:07G@XETR|54=2|60=20240212-12:17:37|40=2|59=0|44=197|48=US3390411052|22=4|15=EUR|207=XETR|1=bram_123|10=246|
2024-02-12 13:17:37.770 [33] [FixSender] (DEBUG) Receiving 8=FIX.4.4|9=237|35=8|34=174|49=DMA_HUB|56=FIXCLIENT1|52=20240212-12:17:37.769|11=HS_17077402578|37=FXyorYF6N|54=2|40=2|59=0|17=2024021229|150=A|39=A|38=2299|151=2299|14=0|6=0|44=197|60=20240212-12:17:37.000|22=4|48=US3390411052|207=XETR|15=EUR|55=[N/A]|10=199|
2024-02-12 13:17:37.771 [38] [FixSender] (DEBUG) Sending 8=FIX.4.4|9=195|35=D|49=FIXCLIENT1|56=DMA_HUB|34=201|52=20240212-12:17:37|21=1|11=HS_170774025742|38=3315|55=E:07G@XETR|54=2|60=20240212-12:17:37|40=2|59=0|44=197|48=US3390411052|22=4|15=EUR|207=XETR|1=bram_123|10=238|
2024-02-12 13:17:37.771 [38] [FixSender] (DEBUG) Sending 8=FIX.4.4|9=195|35=D|49=FIXCLIENT1|56=DMA_HUB|34=202|52=20240212-12:17:37|21=1|11=HS_170774025743|38=1939|55=E:07G@XETR|54=2|60=20240212-12:17:37|40=2|59=0|44=197|48=US3390411052|22=4|15=EUR|207=XETR|1=bram_123|10=250|
2024-02-12 13:17:37.771 [33] [FixSender] (DEBUG) Receiving 8=FIX.4.4|9=237|35=8|34=175|49=DMA_HUB|56=FIXCLIENT1|52=20240212-12:17:37.771|11=HS_17077402579|37=FXzorYF6N|54=2|40=2|59=0|17=2024021230|150=A|39=A|38=3784|151=3784|14=0|6=0|44=197|60=20240212-12:17:37.000|22=4|48=US3390411052|207=XETR|15=EUR|55=[N/A]|10=187|
2024-02-12 13:17:37.771 [38] [FixSender] (DEBUG) Sending 8=FIX.4.4|9=194|35=D|49=FIXCLIENT1|56=DMA_HUB|34=203|52=20240212-12:17:37|21=1|11=HS_170774025744|38=623|55=E:07G@XETR|54=2|60=20240212-12:17:37|40=2|59=0|44=197|48=US3390411052|22=4|15=EUR|207=XETR|1=bram_123|10=192|
2024-02-12 13:17:37.772 [38] [FixSender] (DEBUG) Sending 8=FIX.4.4|9=195|35=D|49=FIXCLIENT1|56=DMA_HUB|34=204|52=20240212-12:17:37|21=1|11=HS_170774025745|38=4273|55=E:07G@XETR|54=2|60=20240212-12:17:37|40=2|59=0|44=197|48=US3390411052|22=4|15=EUR|207=XETR|1=bram_123|10=248|
2024-02-12 13:17:37.772 [38] [FixSender] (DEBUG) Sending 8=FIX.4.4|9=194|35=D|49=FIXCLIENT1|56=DMA_HUB|34=205|52=20240212-12:17:37|21=1|11=HS_170774025746|38=218|55=E:07G@XETR|54=2|60=20240212-12:17:37|40=2|59=0|44=197|48=US3390411052|22=4|15=EUR|207=XETR|1=bram_123|10=196|
2024-02-12 13:17:37.772 [38] [FixSender] (DEBUG) Sending 8=FIX.4.4|9=194|35=D|49=FIXCLIENT1|56=DMA_HUB|34=206|52=20240212-12:17:37|21=1|11=HS_170774025747|38=382|55=E:07G@XETR|54=2|60=20240212-12:17:37|40=2|59=0|44=197|48=US3390411052|22=4|15=EUR|207=XETR|1=bram_123|10=200|
2024-02-12 13:17:37.773 [38] [FixSender] (DEBUG) Sending 8=FIX.4.4|9=195|35=D|49=FIXCLIENT1|56=DMA_HUB|34=207|52=20240212-12:17:37|21=1|11=HS_170774025748|38=3680|55=E:07G@XETR|54=2|60=20240212-12:17:37|40=2|59=0|44=197|48=US3390411052|22=4|15=EUR|207=XETR|1=bram_123|10=255|
2024-02-12 13:17:37.773 [38] [FixSender] (DEBUG) Sending 8=FIX.4.4|9=194|35=D|49=FIXCLIENT1|56=DMA_HUB|34=208|52=20240212-12:17:37|21=1|11=HS_170774025749|38=471|55=E:07G@XETR|54=2|60=20240212-12:17:37|40=2|59=0|44=197|48=US3390411052|22=4|15=EUR|207=XETR|1=bram_123|10=203|
2024-02-12 13:17:37.773 [33] [FixSender] (DEBUG) Receiving 8=FIX.4.4|9=238|35=8|34=176|49=DMA_HUB|56=FIXCLIENT1|52=20240212-12:17:37.772|11=HS_170774025710|37=FX0prYF6N|54=2|40=2|59=0|17=2024021231|150=A|39=A|38=2587|151=2587|14=0|6=0|44=197|60=20240212-12:17:37.000|22=4|48=US3390411052|207=XETR|15=EUR|55=[N/A]|10=158|
2024-02-12 13:17:37.774 [38] [FixSender] (DEBUG) Sending 8=FIX.4.4|9=195|35=D|49=FIXCLIENT1|56=DMA_HUB|34=209|52=20240212-12:17:37|21=1|11=HS_170774025750|38=1707|55=E:07G@XETR|54=2|60=20240212-12:17:37|40=2|59=0|44=197|48=US3390411052|22=4|15=EUR|207=XETR|1=bram_123|10=248|
2024-02-12 13:17:37.774 [38] [FixSender] (DEBUG) Sending 8=FIX.4.4|9=195|35=D|49=FIXCLIENT1|56=DMA_HUB|34=210|52=20240212-12:17:37|21=1|11=HS_170774025751|38=3244|55=E:07G@XETR|54=2|60=20240212-12:17:37|40=2|59=0|44=197|48=US3390411052|22=4|15=EUR|207=XETR|1=bram_123|10=239|
2024-02-12 13:17:37.774 [38] [FixSender] (DEBUG) Sending 8=FIX.4.4|9=195|35=D|49=FIXCLIENT1|56=DMA_HUB|34=211|52=20240212-12:17:37|21=1|11=HS_170774025752|38=3950|55=E:07G@XETR|54=2|60=20240212-12:17:37|40=2|59=0|44=197|48=US3390411052|22=4|15=EUR|207=XETR|1=bram_123|10=245|
2024-02-12 13:17:37.775 [38] [FixSender] (DEBUG) Sending 8=FIX.4.4|9=195|35=D|49=FIXCLIENT1|56=DMA_HUB|34=212|52=20240212-12:17:37|21=1|11=HS_170774025753|38=1184|55=E:07G@XETR|54=2|60=20240212-12:17:37|40=2|59=0|44=197|48=US3390411052|22=4|15=EUR|207=XETR|1=bram_123|10=244|
2024-02-12 13:17:37.775 [33] [FixSender] (DEBUG) Receiving 8=FIX.4.4|9=238|35=8|34=177|49=DMA_HUB|56=FIXCLIENT1|52=20240212-12:17:37.774|11=HS_170774025711|37=FX1prYF6N|54=2|40=2|59=0|17=2024021232|150=A|39=A|38=4622|151=4622|14=0|6=0|44=197|60=20240212-12:17:37.000|22=4|48=US3390411052|207=XETR|15=EUR|55=[N/A]|10=148|
2024-02-12 13:17:37.775 [33] [FixSender] (DEBUG) Receiving 8=FIX.4.4|9=238|35=8|34=178|49=DMA_HUB|56=FIXCLIENT1|52=20240212-12:17:37.775|11=HS_170774025712|37=FX2prYF6N|54=2|40=2|59=0|17=2024021233|150=A|39=A|38=3629|151=3629|14=0|6=0|44=197|60=20240212-12:17:37.000|22=4|48=US3390411052|207=XETR|15=EUR|55=[N/A]|10=165|
2024-02-12 13:17:37.775 [38] [FixSender] (DEBUG) Sending 8=FIX.4.4|9=195|35=D|49=FIXCLIENT1|56=DMA_HUB|34=213|52=20240212-12:17:37|21=1|11=HS_170774025754|38=1785|55=E:07G@XETR|54=2|60=20240212-12:17:37|40=2|59=0|44=197|48=US3390411052|22=4|15=EUR|207=XETR|1=bram_123|10=253|
2024-02-12 13:17:37.776 [38] [FixSender] (DEBUG) Sending 8=FIX.4.4|9=195|35=D|49=FIXCLIENT1|56=DMA_HUB|34=214|52=20240212-12:17:37|21=1|11=HS_170774025755|38=1068|55=E:07G@XETR|54=2|60=20240212-12:17:37|40=2|59=0|44=197|48=US3390411052|22=4|15=EUR|207=XETR|1=bram_123|10=249|
2024-02-12 13:17:37.776 [33] [FixSender] (DEBUG) Receiving 8=FIX.4.4|9=238|35=8|34=179|49=DMA_HUB|56=FIXCLIENT1|52=20240212-12:17:37.775|11=HS_170774025713|37=FX3prYF6N|54=2|40=2|59=0|17=2024021234|150=A|39=A|38=2338|151=2338|14=0|6=0|44=197|60=20240212-12:17:37.000|22=4|48=US3390411052|207=XETR|15=EUR|55=[N/A]|10=161|
2024-02-12 13:17:37.776 [38] [FixSender] (DEBUG) Sending 8=FIX.4.4|9=195|35=D|49=FIXCLIENT1|56=DMA_HUB|34=215|52=20240212-12:17:37|21=1|11=HS_170774025756|38=1475|55=E:07G@XETR|54=2|60=20240212-12:17:37|40=2|59=0|44=197|48=US3390411052|22=4|15=EUR|207=XETR|1=bram_123|10=253|
2024-02-12 13:17:37.777 [38] [FixSender] (DEBUG) Sending 8=FIX.4.4|9=194|35=D|49=FIXCLIENT1|56=DMA_HUB|34=216|52=20240212-12:17:37|21=1|11=HS_170774025757|38=868|55=E:07G@XETR|54=2|60=20240212-12:17:37|40=2|59=0|44=197|48=US3390411052|22=4|15=EUR|207=XETR|1=bram_123|10=211|
2024-02-12 13:17:37.777 [33] [FixSender] (DEBUG) Receiving 8=FIX.4.4|9=238|35=8|34=180|49=DMA_HUB|56=FIXCLIENT1|52=20240212-12:17:37.776|11=HS_170774025714|37=FX4prYF6N|54=2|40=2|59=0|17=2024021235|150=A|39=A|38=1892|151=1892|14=0|6=0|44=197|60=20240212-12:17:37.000|22=4|48=US3390411052|207=XETR|15=EUR|55=[N/A]|10=165|
2024-02-12 13:17:37.777 [38] [FixSender] (DEBUG) Sending 8=FIX.4.4|9=195|35=D|49=FIXCLIENT1|56=DMA_HUB|34=217|52=20240212-12:17:37|21=1|11=HS_170774025758|38=1501|55=E:07G@XETR|54=2|60=20240212-12:17:37|40=2|59=0|44=197|48=US3390411052|22=4|15=EUR|207=XETR|1=bram_123|10=247|
2024-02-12 13:17:37.777 [38] [FixSender] (DEBUG) Sending 8=FIX.4.4|9=195|35=D|49=FIXCLIENT1|56=DMA_HUB|34=218|52=20240212-12:17:37|21=1|11=HS_170774025759|38=4225|55=E:07G@XETR|54=2|60=20240212-12:17:37|40=2|59=0|44=197|48=US3390411052|22=4|15=EUR|207=XETR|1=bram_123|10=255|
2024-02-12 13:17:37.779 [38] [FixSender] (DEBUG) Sending 8=FIX.4.4|9=195|35=D|49=FIXCLIENT1|56=DMA_HUB|34=219|52=20240212-12:17:37|21=1|11=HS_170774025760|38=3252|55=E:07G@XETR|54=2|60=20240212-12:17:37|40=2|59=0|44=197|48=US3390411052|22=4|15=EUR|207=XETR|1=bram_123|10=247|
2024-02-12 13:17:37.779 [38] [FixSender] (DEBUG) Sending 8=FIX.4.4|9=195|35=D|49=FIXCLIENT1|56=DMA_HUB|34=220|52=20240212-12:17:37|21=1|11=HS_170774025761|38=1711|55=E:07G@XETR|54=2|60=20240212-12:17:37|40=2|59=0|44=197|48=US3390411052|22=4|15=EUR|207=XETR|1=bram_123|10=238|
2024-02-12 13:17:37.779 [33] [FixSender] (DEBUG) Receiving 8=FIX.4.4|9=238|35=8|34=181|49=DMA_HUB|56=FIXCLIENT1|52=20240212-12:17:37.777|11=HS_170774025715|37=FX5prYF6N|54=2|40=2|59=0|17=2024021236|150=A|39=A|38=2645|151=2645|14=0|6=0|44=197|60=20240212-12:17:37.000|22=4|48=US3390411052|207=XETR|15=EUR|55=[N/A]|10=164|
2024-02-12 13:17:37.779 [38] [FixSender] (DEBUG) Sending 8=FIX.4.4|9=195|35=D|49=FIXCLIENT1|56=DMA_HUB|34=221|52=20240212-12:17:37|21=1|11=HS_170774025762|38=3558|55=E:07G@XETR|54=2|60=20240212-12:17:37|40=2|59=0|44=197|48=US3390411052|22=4|15=EUR|207=XETR|1=bram_123|10=251|
2024-02-12 13:17:37.780 [38] [FixSender] (DEBUG) Sending 8=FIX.4.4|9=194|35=D|49=FIXCLIENT1|56=DMA_HUB|34=222|52=20240212-12:17:37|21=1|11=HS_170774025763|38=599|55=E:07G@XETR|54=2|60=20240212-12:17:37|40=2|59=0|44=197|48=US3390411052|22=4|15=EUR|207=XETR|1=bram_123|10=206|
2024-02-12 13:17:37.780 [38] [FixSender] (DEBUG) Sending 8=FIX.4.4|9=195|35=D|49=FIXCLIENT1|56=DMA_HUB|34=223|52=20240212-12:17:37|21=1|11=HS_170774025764|38=1275|55=E:07G@XETR|54=2|60=20240212-12:17:37|40=2|59=0|44=197|48=US3390411052|22=4|15=EUR|207=XETR|1=bram_123|10=249|
2024-02-12 13:17:37.780 [38] [FixSender] (DEBUG) Sending 8=FIX.4.4|9=195|35=D|49=FIXCLIENT1|56=DMA_HUB|34=224|52=20240212-12:17:37|21=1|11=HS_170774025765|38=1841|55=E:07G@XETR|54=2|60=20240212-12:17:37|40=2|59=0|44=197|48=US3390411052|22=4|15=EUR|207=XETR|1=bram_123|10=250|
2024-02-12 13:17:37.781 [38] [FixSender] (DEBUG) Sending 8=FIX.4.4|9=195|35=D|49=FIXCLIENT1|56=DMA_HUB|34=225|52=20240212-12:17:37|21=1|11=HS_170774025766|38=4761|55=E:07G@XETR|54=2|60=20240212-12:17:37|40=2|59=0|44=197|48=US3390411052|22=4|15=EUR|207=XETR|1=bram_123|10=000|
2024-02-12 13:17:37.781 [38] [FixSender] (DEBUG) Sending 8=FIX.4.4|9=195|35=D|49=FIXCLIENT1|56=DMA_HUB|34=226|52=20240212-12:17:37|21=1|11=HS_170774025767|38=1575|55=E:07G@XETR|54=2|60=20240212-12:17:37|40=2|59=0|44=197|48=US3390411052|22=4|15=EUR|207=XETR|1=bram_123|10=002|
2024-02-12 13:17:37.782 [38] [FixSender] (DEBUG) Sending 8=FIX.4.4|9=194|35=D|49=FIXCLIENT1|56=DMA_HUB|34=227|52=20240212-12:17:37|21=1|11=HS_170774025768|38=992|55=E:07G@XETR|54=2|60=20240212-12:17:37|40=2|59=0|44=197|48=US3390411052|22=4|15=EUR|207=XETR|1=bram_123|10=213|
2024-02-12 13:17:37.782 [33] [FixSender] (DEBUG) Receiving 8=FIX.4.4|9=238|35=8|34=182|49=DMA_HUB|56=FIXCLIENT1|52=20240212-12:17:37.779|11=HS_170774025716|37=FX6prYF6N|54=2|40=2|59=0|17=2024021237|150=A|39=A|38=1861|151=1861|14=0|6=0|44=197|60=20240212-12:17:37.000|22=4|48=US3390411052|207=XETR|15=EUR|55=[N/A]|10=168|
2024-02-12 13:17:37.782 [38] [FixSender] (DEBUG) Sending 8=FIX.4.4|9=195|35=D|49=FIXCLIENT1|56=DMA_HUB|34=228|52=20240212-12:17:37|21=1|11=HS_170774025769|38=4623|55=E:07G@XETR|54=2|60=20240212-12:17:37|40=2|59=0|44=197|48=US3390411052|22=4|15=EUR|207=XETR|1=bram_123|10=003|
2024-02-12 13:17:37.783 [38] [FixSender] (DEBUG) Sending 8=FIX.4.4|9=195|35=D|49=FIXCLIENT1|56=DMA_HUB|34=229|52=20240212-12:17:37|21=1|11=HS_170774025770|38=2354|55=E:07G@XETR|54=2|60=20240212-12:17:37|40=2|59=0|44=197|48=US3390411052|22=4|15=EUR|207=XETR|1=bram_123|10=251|
2024-02-12 13:17:37.783 [38] [FixSender] (DEBUG) Sending 8=FIX.4.4|9=195|35=D|49=FIXCLIENT1|56=DMA_HUB|34=230|52=20240212-12:17:37|21=1|11=HS_170774025771|38=1640|55=E:07G@XETR|54=2|60=20240212-12:17:37|40=2|59=0|44=197|48=US3390411052|22=4|15=EUR|207=XETR|1=bram_123|10=241|
2024-02-12 13:17:37.783 [33] [FixSender] (DEBUG) Receiving 8=FIX.4.4|9=236|35=8|34=183|49=DMA_HUB|56=FIXCLIENT1|52=20240212-12:17:37.780|11=HS_170774025717|37=FX7prYF6N|54=2|40=2|59=0|17=2024021238|150=A|39=A|38=416|151=416|14=0|6=0|44=197|60=20240212-12:17:37.000|22=4|48=US3390411052|207=XETR|15=EUR|55=[N/A]|10=056|
2024-02-12 13:17:37.783 [38] [FixSender] (DEBUG) Sending 8=FIX.4.4|9=195|35=D|49=FIXCLIENT1|56=DMA_HUB|34=231|52=20240212-12:17:37|21=1|11=HS_170774025772|38=2080|55=E:07G@XETR|54=2|60=20240212-12:17:37|40=2|59=0|44=197|48=US3390411052|22=4|15=EUR|207=XETR|1=bram_123|10=242|
2024-02-12 13:17:37.784 [38] [FixSender] (DEBUG) Sending 8=FIX.4.4|9=195|35=D|49=FIXCLIENT1|56=DMA_HUB|34=232|52=20240212-12:17:37|21=1|11=HS_170774025773|38=4391|55=E:07G@XETR|54=2|60=20240212-12:17:37|40=2|59=0|44=197|48=US3390411052|22=4|15=EUR|207=XETR|1=bram_123|10=251|
2024-02-12 13:17:37.784 [38] [FixSender] (DEBUG) Sending 8=FIX.4.4|9=195|35=D|49=FIXCLIENT1|56=DMA_HUB|34=233|52=20240212-12:17:37|21=1|11=HS_170774025774|38=3905|55=E:07G@XETR|54=2|60=20240212-12:17:37|40=2|59=0|44=197|48=US3390411052|22=4|15=EUR|207=XETR|1=bram_123|10=253|
2024-02-12 13:17:37.784 [38] [FixSender] (DEBUG) Sending 8=FIX.4.4|9=195|35=D|49=FIXCLIENT1|56=DMA_HUB|34=234|52=20240212-12:17:37|21=1|11=HS_170774025775|38=3171|55=E:07G@XETR|54=2|60=20240212-12:17:37|40=2|59=0|44=197|48=US3390411052|22=4|15=EUR|207=XETR|1=bram_123|10=250|
2024-02-12 13:17:37.784 [33] [FixSender] (DEBUG) Receiving 8=FIX.4.4|9=236|35=8|34=184|49=DMA_HUB|56=FIXCLIENT1|52=20240212-12:17:37.781|11=HS_170774025718|37=FX8prYF6N|54=2|40=2|59=0|17=2024021239|150=A|39=A|38=814|151=814|14=0|6=0|44=197|60=20240212-12:17:37.000|22=4|48=US3390411052|207=XETR|15=EUR|55=[N/A]|10=065|
2024-02-12 13:17:37.785 [38] [FixSender] (DEBUG) Sending 8=FIX.4.4|9=194|35=D|49=FIXCLIENT1|56=DMA_HUB|34=235|52=20240212-12:17:37|21=1|11=HS_170774025776|38=689|55=E:07G@XETR|54=2|60=20240212-12:17:37|40=2|59=0|44=197|48=US3390411052|22=4|15=EUR|207=XETR|1=bram_123|10=214|
2024-02-12 13:17:37.785 [38] [FixSender] (DEBUG) Sending 8=FIX.4.4|9=194|35=D|49=FIXCLIENT1|56=DMA_HUB|34=236|52=20240212-12:17:37|21=1|11=HS_170774025777|38=622|55=E:07G@XETR|54=2|60=20240212-12:17:37|40=2|59=0|44=197|48=US3390411052|22=4|15=EUR|207=XETR|1=bram_123|10=203|
2024-02-12 13:17:37.785 [38] [FixSender] (DEBUG) Sending 8=FIX.4.4|9=194|35=D|49=FIXCLIENT1|56=DMA_HUB|34=237|52=20240212-12:17:37|21=1|11=HS_170774025778|38=422|55=E:07G@XETR|54=2|60=20240212-12:17:37|40=2|59=0|44=197|48=US3390411052|22=4|15=EUR|207=XETR|1=bram_123|10=203|
2024-02-12 13:17:37.786 [38] [FixSender] (DEBUG) Sending 8=FIX.4.4|9=195|35=D|49=FIXCLIENT1|56=DMA_HUB|34=238|52=20240212-12:17:37|21=1|11=HS_170774025779|38=3754|55=E:07G@XETR|54=2|60=20240212-12:17:37|40=2|59=0|44=197|48=US3390411052|22=4|15=EUR|207=XETR|1=bram_123|10=009|
2024-02-12 13:17:37.787 [33] [FixSender] (DEBUG) Receiving 8=FIX.4.4|9=238|35=8|34=185|49=DMA_HUB|56=FIXCLIENT1|52=20240212-12:17:37.782|11=HS_170774025719|37=FX9prYF6N|54=2|40=2|59=0|17=2024021240|150=A|39=A|38=1631|151=1631|14=0|6=0|44=197|60=20240212-12:17:37.000|22=4|48=US3390411052|207=XETR|15=EUR|55=[N/A]|10=155|
2024-02-12 13:17:37.787 [38] [FixSender] (DEBUG) Sending 8=FIX.4.4|9=195|35=D|49=FIXCLIENT1|56=DMA_HUB|34=239|52=20240212-12:17:37|21=1|11=HS_170774025780|38=3410|55=E:07G@XETR|54=2|60=20240212-12:17:37|40=2|59=0|44=197|48=US3390411052|22=4|15=EUR|207=XETR|1=bram_123|10=247|
2024-02-12 13:17:37.787 [38] [FixSender] (DEBUG) Sending 8=FIX.4.4|9=195|35=D|49=FIXCLIENT1|56=DMA_HUB|34=240|52=20240212-12:17:37|21=1|11=HS_170774025781|38=3174|55=E:07G@XETR|54=2|60=20240212-12:17:37|40=2|59=0|44=197|48=US3390411052|22=4|15=EUR|207=XETR|1=bram_123|10=247|
2024-02-12 13:17:37.788 [38] [FixSender] (DEBUG) Sending 8=FIX.4.4|9=194|35=D|49=FIXCLIENT1|56=DMA_HUB|34=241|52=20240212-12:17:37|21=1|11=HS_170774025782|38=473|55=E:07G@XETR|54=2|60=20240212-12:17:37|40=2|59=0|44=197|48=US3390411052|22=4|15=EUR|207=XETR|1=bram_123|10=199|
2024-02-12 13:17:37.788 [38] [FixSender] (DEBUG) Sending 8=FIX.4.4|9=195|35=D|49=FIXCLIENT1|56=DMA_HUB|34=242|52=20240212-12:17:37|21=1|11=HS_170774025783|38=3389|55=E:07G@XETR|54=2|60=20240212-12:17:37|40=2|59=0|44=197|48=US3390411052|22=4|15=EUR|207=XETR|1=bram_123|10=003|
2024-02-12 13:17:37.788 [38] [FixSender] (DEBUG) Sending 8=FIX.4.4|9=195|35=D|49=FIXCLIENT1|56=DMA_HUB|34=243|52=20240212-12:17:37|21=1|11=HS_170774025784|38=2541|55=E:07G@XETR|54=2|60=20240212-12:17:37|40=2|59=0|44=197|48=US3390411052|22=4|15=EUR|207=XETR|1=bram_123|10=250|
2024-02-12 13:17:37.789 [38] [FixSender] (DEBUG) Sending 8=FIX.4.4|9=195|35=D|49=FIXCLIENT1|56=DMA_HUB|34=244|52=20240212-12:17:37|21=1|11=HS_170774025785|38=4891|55=E:07G@XETR|54=2|60=20240212-12:17:37|40=2|59=0|44=197|48=US3390411052|22=4|15=EUR|207=XETR|1=bram_123|10=006|
2024-02-12 13:17:37.789 [38] [FixSender] (DEBUG) Sending 8=FIX.4.4|9=195|35=D|49=FIXCLIENT1|56=DMA_HUB|34=245|52=20240212-12:17:37|21=1|11=HS_170774025786|38=4780|55=E:07G@XETR|54=2|60=20240212-12:17:37|40=2|59=0|44=197|48=US3390411052|22=4|15=EUR|207=XETR|1=bram_123|10=005|
2024-02-12 13:17:37.790 [38] [FixSender] (DEBUG) Sending 8=FIX.4.4|9=195|35=D|49=FIXCLIENT1|56=DMA_HUB|34=246|52=20240212-12:17:37|21=1|11=HS_170774025787|38=1575|55=E:07G@XETR|54=2|60=20240212-12:17:37|40=2|59=0|44=197|48=US3390411052|22=4|15=EUR|207=XETR|1=bram_123|10=006|
2024-02-12 13:17:37.791 [38] [FixSender] (DEBUG) Sending 8=FIX.4.4|9=195|35=D|49=FIXCLIENT1|56=DMA_HUB|34=247|52=20240212-12:17:37|21=1|11=HS_170774025788|38=1689|55=E:07G@XETR|54=2|60=20240212-12:17:37|40=2|59=0|44=197|48=US3390411052|22=4|15=EUR|207=XETR|1=bram_123|10=014|
2024-02-12 13:17:37.791 [38] [FixSender] (DEBUG) Sending 8=FIX.4.4|9=195|35=D|49=FIXCLIENT1|56=DMA_HUB|34=248|52=20240212-12:17:37|21=1|11=HS_170774025789|38=4790|55=E:07G@XETR|54=2|60=20240212-12:17:37|40=2|59=0|44=197|48=US3390411052|22=4|15=EUR|207=XETR|1=bram_123|10=012|
2024-02-12 13:17:37.792 [38] [FixSender] (DEBUG) Sending 8=FIX.4.4|9=194|35=D|49=FIXCLIENT1|56=DMA_HUB|34=249|52=20240212-12:17:37|21=1|11=HS_170774025790|38=373|55=E:07G@XETR|54=2|60=20240212-12:17:37|40=2|59=0|44=197|48=US3390411052|22=4|15=EUR|207=XETR|1=bram_123|10=205|
2024-02-12 13:17:37.792 [38] [FixSender] (DEBUG) Sending 8=FIX.4.4|9=195|35=D|49=FIXCLIENT1|56=DMA_HUB|34=250|52=20240212-12:17:37|21=1|11=HS_170774025791|38=1915|55=E:07G@XETR|54=2|60=20240212-12:17:37|40=2|59=0|44=197|48=US3390411052|22=4|15=EUR|207=XETR|1=bram_123|10=250|
2024-02-12 13:17:37.792 [38] [FixSender] (DEBUG) Sending 8=FIX.4.4|9=194|35=D|49=FIXCLIENT1|56=DMA_HUB|34=251|52=20240212-12:17:37|21=1|11=HS_170774025792|38=698|55=E:07G@XETR|54=2|60=20240212-12:17:37|40=2|59=0|44=197|48=US3390411052|22=4|15=EUR|207=XETR|1=bram_123|10=210|
2024-02-12 13:17:37.792 [33] [FixSender] (DEBUG) Receiving 8=FIX.4.4|9=238|35=8|34=186|49=DMA_HUB|56=FIXCLIENT1|52=20240212-12:17:37.783|11=HS_170774025720|37=FXAprYF6N|54=2|40=2|59=0|17=2024021241|150=A|39=A|38=4217|151=4217|14=0|6=0|44=197|60=20240212-12:17:37.000|22=4|48=US3390411052|207=XETR|15=EUR|55=[N/A]|10=164|
2024-02-12 13:17:37.793 [38] [FixSender] (DEBUG) Sending 8=FIX.4.4|9=195|35=D|49=FIXCLIENT1|56=DMA_HUB|34=252|52=20240212-12:17:37|21=1|11=HS_170774025793|38=2636|55=E:07G@XETR|54=2|60=20240212-12:17:37|40=2|59=0|44=197|48=US3390411052|22=4|15=EUR|207=XETR|1=bram_123|10=255|
2024-02-12 13:17:37.793 [38] [FixSender] (DEBUG) Sending 8=FIX.4.4|9=195|35=D|49=FIXCLIENT1|56=DMA_HUB|34=253|52=20240212-12:17:37|21=1|11=HS_170774025794|38=4474|55=E:07G@XETR|54=2|60=20240212-12:17:37|40=2|59=0|44=197|48=US3390411052|22=4|15=EUR|207=XETR|1=bram_123|10=003|
2024-02-12 13:17:37.793 [38] [FixSender] (DEBUG) Sending 8=FIX.4.4|9=195|35=D|49=FIXCLIENT1|56=DMA_HUB|34=254|52=20240212-12:17:37|21=1|11=HS_170774025795|38=3815|55=E:07G@XETR|54=2|60=20240212-12:17:37|40=2|59=0|44=197|48=US3390411052|22=4|15=EUR|207=XETR|1=bram_123|10=003|
2024-02-12 13:17:37.794 [38] [FixSender] (DEBUG) Sending 8=FIX.4.4|9=194|35=D|49=FIXCLIENT1|56=DMA_HUB|34=255|52=20240212-12:17:37|21=1|11=HS_170774025796|38=940|55=E:07G@XETR|54=2|60=20240212-12:17:37|40=2|59=0|44=197|48=US3390411052|22=4|15=EUR|207=XETR|1=bram_123|10=208|
2024-02-12 13:17:37.794 [38] [FixSender] (DEBUG) Sending 8=FIX.4.4|9=195|35=D|49=FIXCLIENT1|56=DMA_HUB|34=256|52=20240212-12:17:37|21=1|11=HS_170774025797|38=2722|55=E:07G@XETR|54=2|60=20240212-12:17:37|40=2|59=0|44=197|48=US3390411052|22=4|15=EUR|207=XETR|1=bram_123|10=003|
2024-02-12 13:17:37.794 [38] [FixSender] (DEBUG) Sending 8=FIX.4.4|9=195|35=D|49=FIXCLIENT1|56=DMA_HUB|34=257|52=20240212-12:17:37|21=1|11=HS_170774025798|38=3521|55=E:07G@XETR|54=2|60=20240212-12:17:37|40=2|59=0|44=197|48=US3390411052|22=4|15=EUR|207=XETR|1=bram_123|10=003|
2024-02-12 13:17:37.795 [38] [FixSender] (DEBUG) Sending 8=FIX.4.4|9=195|35=D|49=FIXCLIENT1|56=DMA_HUB|34=258|52=20240212-12:17:37|21=1|11=HS_170774025799|38=3892|55=E:07G@XETR|54=2|60=20240212-12:17:37|40=2|59=0|44=197|48=US3390411052|22=4|15=EUR|207=XETR|1=bram_123|10=016|
2024-02-12 13:17:37.795 [38] [FixSender] (DEBUG) Sending 8=FIX.4.4|9=196|35=D|49=FIXCLIENT1|56=DMA_HUB|34=259|52=20240212-12:17:37|21=1|11=HS_1707740257100|38=2900|55=E:07G@XETR|54=2|60=20240212-12:17:37|40=2|59=0|44=197|48=US3390411052|22=4|15=EUR|207=XETR|1=bram_123|10=038|
2024-02-12 13:17:37.795 [38] [FixSender] (DEBUG) Sending 8=FIX.4.4|9=195|35=D|49=FIXCLIENT1|56=DMA_HUB|34=260|52=20240212-12:17:37|21=1|11=HS_1707740257101|38=583|55=E:07G@XETR|54=2|60=20240212-12:17:37|40=2|59=0|44=197|48=US3390411052|22=4|15=EUR|207=XETR|1=bram_123|10=243|
2024-02-12 13:17:37.796 [38] [FixSender] (DEBUG) Sending 8=FIX.4.4|9=196|35=D|49=FIXCLIENT1|56=DMA_HUB|34=261|52=20240212-12:17:37|21=1|11=HS_1707740257102|38=3115|55=E:07G@XETR|54=2|60=20240212-12:17:37|40=2|59=0|44=197|48=US3390411052|22=4|15=EUR|207=XETR|1=bram_123|10=032|
2024-02-12 13:17:37.796 [38] [FixSender] (DEBUG) Sending 8=FIX.4.4|9=196|35=D|49=FIXCLIENT1|56=DMA_HUB|34=262|52=20240212-12:17:37|21=1|11=HS_1707740257103|38=1774|55=E:07G@XETR|54=2|60=20240212-12:17:37|40=2|59=0|44=197|48=US3390411052|22=4|15=EUR|207=XETR|1=bram_123|10=043|
2024-02-12 13:17:37.796 [38] [FixSender] (DEBUG) Sending 8=FIX.4.4|9=195|35=D|49=FIXCLIENT1|56=DMA_HUB|34=263|52=20240212-12:17:37|21=1|11=HS_1707740257104|38=287|55=E:07G@XETR|54=2|60=20240212-12:17:37|40=2|59=0|44=197|48=US3390411052|22=4|15=EUR|207=XETR|1=bram_123|10=250|
2024-02-12 13:17:37.797 [38] [FixSender] (DEBUG) Sending 8=FIX.4.4|9=196|35=D|49=FIXCLIENT1|56=DMA_HUB|34=264|52=20240212-12:17:37|21=1|11=HS_1707740257105|38=4477|55=E:07G@XETR|54=2|60=20240212-12:17:37|40=2|59=0|44=197|48=US3390411052|22=4|15=EUR|207=XETR|1=bram_123|10=050|
2024-02-12 13:17:37.797 [38] [FixSender] (DEBUG) Sending 8=FIX.4.4|9=196|35=D|49=FIXCLIENT1|56=DMA_HUB|34=265|52=20240212-12:17:37|21=1|11=HS_1707740257106|38=2145|55=E:07G@XETR|54=2|60=20240212-12:17:37|40=2|59=0|44=197|48=US3390411052|22=4|15=EUR|207=XETR|1=bram_123|10=042|
2024-02-12 13:17:37.798 [38] [FixSender] (DEBUG) Sending 8=FIX.4.4|9=196|35=D|49=FIXCLIENT1|56=DMA_HUB|34=266|52=20240212-12:17:37|21=1|11=HS_1707740257107|38=4188|55=E:07G@XETR|54=2|60=20240212-12:17:37|40=2|59=0|44=197|48=US3390411052|22=4|15=EUR|207=XETR|1=bram_123|10=053|
2024-02-12 13:17:37.798 [38] [FixSender] (DEBUG) Sending 8=FIX.4.4|9=196|35=D|49=FIXCLIENT1|56=DMA_HUB|34=267|52=20240212-12:17:37|21=1|11=HS_1707740257108|38=1274|55=E:07G@XETR|54=2|60=20240212-12:17:37|40=2|59=0|44=197|48=US3390411052|22=4|15=EUR|207=XETR|1=bram_123|10=048|
2024-02-12 13:17:37.798 [38] [FixSender] (DEBUG) Sending 8=FIX.4.4|9=196|35=D|49=FIXCLIENT1|56=DMA_HUB|34=268|52=20240212-12:17:37|21=1|11=HS_1707740257109|38=1293|55=E:07G@XETR|54=2|60=20240212-12:17:37|40=2|59=0|44=197|48=US3390411052|22=4|15=EUR|207=XETR|1=bram_123|10=051|
2024-02-12 13:17:37.799 [38] [FixSender] (DEBUG) Sending 8=FIX.4.4|9=196|35=D|49=FIXCLIENT1|56=DMA_HUB|34=269|52=20240212-12:17:37|21=1|11=HS_1707740257110|38=3976|55=E:07G@XETR|54=2|60=20240212-12:17:37|40=2|59=0|44=197|48=US3390411052|22=4|15=EUR|207=XETR|1=bram_123|10=054|
2024-02-12 13:17:37.799 [38] [FixSender] (DEBUG) Sending 8=FIX.4.4|9=196|35=D|49=FIXCLIENT1|56=DMA_HUB|34=270|52=20240212-12:17:37|21=1|11=HS_1707740257111|38=3437|55=E:07G@XETR|54=2|60=20240212-12:17:37|40=2|59=0|44=197|48=US3390411052|22=4|15=EUR|207=XETR|1=bram_123|10=039|
2024-02-12 13:17:37.800 [38] [FixSender] (DEBUG) Sending 8=FIX.4.4|9=195|35=D|49=FIXCLIENT1|56=DMA_HUB|34=271|52=20240212-12:17:37|21=1|11=HS_1707740257112|38=389|55=E:07G@XETR|54=2|60=20240212-12:17:37|40=2|59=0|44=197|48=US3390411052|22=4|15=EUR|207=XETR|1=bram_123|10=251|
2024-02-12 13:17:37.800 [38] [FixSender] (DEBUG) Sending 8=FIX.4.4|9=196|35=D|49=FIXCLIENT1|56=DMA_HUB|34=272|52=20240212-12:17:37|21=1|11=HS_1707740257113|38=1943|55=E:07G@XETR|54=2|60=20240212-12:17:37|40=2|59=0|44=197|48=US3390411052|22=4|15=EUR|207=XETR|1=bram_123|10=043|
2024-02-12 13:17:37.800 [38] [FixSender] (DEBUG) Sending 8=FIX.4.4|9=196|35=D|49=FIXCLIENT1|56=DMA_HUB|34=273|52=20240212-12:17:37|21=1|11=HS_1707740257114|38=3239|55=E:07G@XETR|54=2|60=20240212-12:17:37|40=2|59=0|44=197|48=US3390411052|22=4|15=EUR|207=XETR|1=bram_123|10=045|
2024-02-12 13:17:37.801 [38] [FixSender] (DEBUG) Sending 8=FIX.4.4|9=196|35=D|49=FIXCLIENT1|56=DMA_HUB|34=274|52=20240212-12:17:37|21=1|11=HS_1707740257115|38=3872|55=E:07G@XETR|54=2|60=20240212-12:17:37|40=2|59=0|44=197|48=US3390411052|22=4|15=EUR|207=XETR|1=bram_123|10=050|
2024-02-12 13:17:37.801 [38] [FixSender] (DEBUG) Sending 8=FIX.4.4|9=195|35=D|49=FIXCLIENT1|56=DMA_HUB|34=275|52=20240212-12:17:37|21=1|11=HS_1707740257116|38=746|55=E:07G@XETR|54=2|60=20240212-12:17:37|40=2|59=0|44=197|48=US3390411052|22=4|15=EUR|207=XETR|1=bram_123|10=000|
2024-02-12 13:17:37.801 [38] [FixSender] (DEBUG) Sending 8=FIX.4.4|9=196|35=D|49=FIXCLIENT1|56=DMA_HUB|34=276|52=20240212-12:17:37|21=1|11=HS_1707740257117|38=2639|55=E:07G@XETR|54=2|60=20240212-12:17:37|40=2|59=0|44=197|48=US3390411052|22=4|15=EUR|207=XETR|1=bram_123|10=054|
2024-02-12 13:17:37.802 [38] [FixSender] (DEBUG) Sending 8=FIX.4.4|9=196|35=D|49=FIXCLIENT1|56=DMA_HUB|34=277|52=20240212-12:17:37|21=1|11=HS_1707740257118|38=2920|55=E:07G@XETR|54=2|60=20240212-12:17:37|40=2|59=0|44=197|48=US3390411052|22=4|15=EUR|207=XETR|1=bram_123|10=049|
2024-02-12 13:17:37.802 [38] [FixSender] (DEBUG) Sending 8=FIX.4.4|9=195|35=D|49=FIXCLIENT1|56=DMA_HUB|34=278|52=20240212-12:17:37|21=1|11=HS_1707740257119|38=568|55=E:07G@XETR|54=2|60=20240212-12:17:37|40=2|59=0|44=197|48=US3390411052|22=4|15=EUR|207=XETR|1=bram_123|10=008|
2024-02-12 13:17:37.802 [38] [FixSender] (DEBUG) Sending 8=FIX.4.4|9=196|35=D|49=FIXCLIENT1|56=DMA_HUB|34=279|52=20240212-12:17:37|21=1|11=HS_1707740257120|38=3563|55=E:07G@XETR|54=2|60=20240212-12:17:37|40=2|59=0|44=197|48=US3390411052|22=4|15=EUR|207=XETR|1=bram_123|10=048|
2024-02-12 13:17:37.803 [38] [FixSender] (DEBUG) Sending 8=FIX.4.4|9=196|35=D|49=FIXCLIENT1|56=DMA_HUB|34=280|52=20240212-12:17:37|21=1|11=HS_1707740257121|38=2571|55=E:07G@XETR|54=2|60=20240212-12:17:37|40=2|59=0|44=197|48=US3390411052|22=4|15=EUR|207=XETR|1=bram_123|10=039|
2024-02-12 13:17:37.804 [38] [FixSender] (DEBUG) Sending 8=FIX.4.4|9=196|35=D|49=FIXCLIENT1|56=DMA_HUB|34=281|52=20240212-12:17:37|21=1|11=HS_1707740257122|38=3664|55=E:07G@XETR|54=2|60=20240212-12:17:37|40=2|59=0|44=197|48=US3390411052|22=4|15=EUR|207=XETR|1=bram_123|10=045|
2024-02-12 13:17:37.804 [38] [FixSender] (DEBUG) Sending 8=FIX.4.4|9=195|35=D|49=FIXCLIENT1|56=DMA_HUB|34=282|52=20240212-12:17:37|21=1|11=HS_1707740257123|38=442|55=E:07G@XETR|54=2|60=20240212-12:17:37|40=2|59=0|44=197|48=US3390411052|22=4|15=EUR|207=XETR|1=bram_123|10=245|
2024-02-12 13:17:37.805 [38] [FixSender] (DEBUG) Sending 8=FIX.4.4|9=196|35=D|49=FIXCLIENT1|56=DMA_HUB|34=283|52=20240212-12:17:37|21=1|11=HS_1707740257124|38=2021|55=E:07G@XETR|54=2|60=20240212-12:17:37|40=2|59=0|44=197|48=US3390411052|22=4|15=EUR|207=XETR|1=bram_123|10=035|
2024-02-12 13:17:37.805 [38] [FixSender] (DEBUG) Sending 8=FIX.4.4|9=196|35=D|49=FIXCLIENT1|56=DMA_HUB|34=284|52=20240212-12:17:37|21=1|11=HS_1707740257125|38=3428|55=E:07G@XETR|54=2|60=20240212-12:17:37|40=2|59=0|44=197|48=US3390411052|22=4|15=EUR|207=XETR|1=bram_123|10=049|
2024-02-12 13:17:37.806 [38] [FixSender] (DEBUG) Sending 8=FIX.4.4|9=196|35=D|49=FIXCLIENT1|56=DMA_HUB|34=285|52=20240212-12:17:37|21=1|11=HS_1707740257126|38=1621|55=E:07G@XETR|54=2|60=20240212-12:17:37|40=2|59=0|44=197|48=US3390411052|22=4|15=EUR|207=XETR|1=bram_123|10=044|
2024-02-12 13:17:37.807 [38] [FixSender] (DEBUG) Sending 8=FIX.4.4|9=196|35=D|49=FIXCLIENT1|56=DMA_HUB|34=286|52=20240212-12:17:37|21=1|11=HS_1707740257127|38=2050|55=E:07G@XETR|54=2|60=20240212-12:17:37|40=2|59=0|44=197|48=US3390411052|22=4|15=EUR|207=XETR|1=bram_123|10=043|
2024-02-12 13:17:37.807 [38] [FixSender] (DEBUG) Sending 8=FIX.4.4|9=196|35=D|49=FIXCLIENT1|56=DMA_HUB|34=287|52=20240212-12:17:37|21=1|11=HS_1707740257128|38=3174|55=E:07G@XETR|54=2|60=20240212-12:17:37|40=2|59=0|44=197|48=US3390411052|22=4|15=EUR|207=XETR|1=bram_123|10=053|
2024-02-12 13:17:37.807 [38] [FixSender] (DEBUG) Sending 8=FIX.4.4|9=195|35=D|49=FIXCLIENT1|56=DMA_HUB|34=288|52=20240212-12:17:37|21=1|11=HS_1707740257129|38=128|55=E:07G@XETR|54=2|60=20240212-12:17:37|40=2|59=0|44=197|48=US3390411052|22=4|15=EUR|207=XETR|1=bram_123|10=002|
2024-02-12 13:17:37.808 [38] [FixSender] (DEBUG) Sending 8=FIX.4.4|9=196|35=D|49=FIXCLIENT1|56=DMA_HUB|34=289|52=20240212-12:17:37|21=1|11=HS_1707740257130|38=4453|55=E:07G@XETR|54=2|60=20240212-12:17:37|40=2|59=0|44=197|48=US3390411052|22=4|15=EUR|207=XETR|1=bram_123|10=049|
2024-02-12 13:17:37.809 [38] [FixSender] (DEBUG) Sending 8=FIX.4.4|9=196|35=D|49=FIXCLIENT1|56=DMA_HUB|34=290|52=20240212-12:17:37|21=1|11=HS_1707740257131|38=2338|55=E:07G@XETR|54=2|60=20240212-12:17:37|40=2|59=0|44=197|48=US3390411052|22=4|15=EUR|207=XETR|1=bram_123|10=042|
2024-02-12 13:17:37.809 [38] [FixSender] (DEBUG) Sending 8=FIX.4.4|9=196|35=D|49=FIXCLIENT1|56=DMA_HUB|34=291|52=20240212-12:17:37|21=1|11=HS_1707740257132|38=3933|55=E:07G@XETR|54=2|60=20240212-12:17:37|40=2|59=0|44=197|48=US3390411052|22=4|15=EUR|207=XETR|1=bram_123|10=046|
2024-02-12 13:17:37.810 [38] [FixSender] (DEBUG) Sending 8=FIX.4.4|9=196|35=D|49=FIXCLIENT1|56=DMA_HUB|34=292|52=20240212-12:17:37|21=1|11=HS_1707740257133|38=2374|55=E:07G@XETR|54=2|60=20240212-12:17:37|40=2|59=0|44=197|48=US3390411052|22=4|15=EUR|207=XETR|1=bram_123|10=046|
