2024-02-09 10:18:45.851 [1] [Fixsender] (INFO) (c) 2001-2011 ullink SAS. FixSender. Release 1.11.
2024-02-09 11:17:01.328 [31] [FixSender] (INFO) try to connect to : localhost port :12345
2024-02-09 11:17:01.378 [31] [FixSender] (INFO) physical cnx initiated
2024-02-09 11:17:01.393 [31] [FixSender] (DEBUG) Sending 8=FIX.4.4|9=86|35=A|49=FIXCLIENT1|56=DMA_HUB|34=1|52=20240209-10:17:01|98=0|108=30|95=9|96=null/null|10=081|
2024-02-09 11:17:01.400 [31] [FixSender] (DEBUG) Receiving 8=FIX.4.4|9=72|35=A|34=1|49=DMA_HUB|56=FIXCLIENT1|52=20240209-10:17:01.395|108=30|98=0|10=228|
2024-02-09 11:17:01.403 [31] [FixSender] (WARNING) The Fix connection is open...
2024-02-09 11:17:01.408 [31] [FixSender] (DEBUG) Sending 8=FIX.4.4|9=74|35=1|49=FIXCLIENT1|56=DMA_HUB|34=2|52=20240209-10:17:01|112=synchronized?|10=032|
2024-02-09 11:17:01.409 [31] [FixSender] (DEBUG) Receiving 8=FIX.4.4|9=78|35=0|34=2|49=DMA_HUB|56=FIXCLIENT1|52=20240209-10:17:01.408|112=synchronized?|10=237|
2024-02-09 11:17:31.354 [31] [FixSender] (DEBUG) Receiving 8=FIX.4.4|9=60|35=0|34=3|49=DMA_HUB|56=FIXCLIENT1|52=20240209-10:17:31.352|10=181|
2024-02-09 11:17:31.411 [32] [FixSender] (DEBUG) Sending 8=FIX.4.4|9=56|35=0|49=FIXCLIENT1|56=DMA_HUB|34=3|52=20240209-10:17:31|10=242|
2024-02-09 11:18:01.306 [31] [FixSender] (DEBUG) Receiving 8=FIX.4.4|9=60|35=0|34=4|49=DMA_HUB|56=FIXCLIENT1|52=20240209-10:18:01.305|10=178|
2024-02-09 11:18:01.413 [32] [FixSender] (DEBUG) Sending 8=FIX.4.4|9=56|35=0|49=FIXCLIENT1|56=DMA_HUB|34=4|52=20240209-10:18:01|10=241|
2024-02-09 11:18:15.701 [34] [FixSender] (DEBUG) Sending 8=FIX.4.4|9=196|35=D|49=FIXCLIENT1|56=DMA_HUB|34=5|52=20240209-10:18:15|21=1|11=HS_17074738950|38=5000|55=E:07G@XETR|54=1|60=20240209-10:18:15|40=2|59=0|44=197.111|48=US3390411052|22=4|15=EUR|207=XETR|1=bram_123|10=033|
2024-02-09 11:18:15.719 [31] [FixSender] (DEBUG) Receiving 8=FIX.4.4|9=238|35=8|34=5|49=DMA_HUB|56=FIXCLIENT1|52=20240209-10:18:15.716|11=HS_17074738950|37=FXHgpiiWJ|54=1|40=2|59=0|17=202402091|150=A|39=A|38=5000|151=5000|14=0|6=0|44=197.111|60=20240209-10:18:15.000|22=4|48=US3390411052|207=XETR|15=EUR|55=[N/A]|10=221|
2024-02-09 11:18:31.257 [31] [FixSender] (DEBUG) Receiving 8=FIX.4.4|9=60|35=0|34=6|49=DMA_HUB|56=FIXCLIENT1|52=20240209-10:18:31.257|10=189|
2024-02-09 11:18:38.831 [35] [FixSender] (DEBUG) Sending 8=FIX.4.4|9=192|35=D|49=FIXCLIENT1|56=DMA_HUB|34=6|52=20240209-10:18:38|21=1|11=HS_17074739180|38=5000|55=E:07G@XETR|54=1|60=20240209-10:18:38|40=2|59=0|44=197|48=US3390411052|22=4|15=EUR|207=XETR|1=bram_123|10=099|
2024-02-09 11:18:38.834 [31] [FixSender] (DEBUG) Receiving 8=FIX.4.4|9=234|35=8|34=7|49=DMA_HUB|56=FIXCLIENT1|52=20240209-10:18:38.832|11=HS_17074739180|37=FXIgpiiWJ|54=1|40=2|59=0|17=202402092|150=A|39=A|38=5000|151=5000|14=0|6=0|44=197|60=20240209-10:18:38.000|22=4|48=US3390411052|207=XETR|15=EUR|55=[N/A]|10=033|
2024-02-09 11:19:01.208 [31] [FixSender] (DEBUG) Receiving 8=FIX.4.4|9=60|35=0|34=8|49=DMA_HUB|56=FIXCLIENT1|52=20240209-10:19:01.208|10=185|
2024-02-09 11:19:08.323 [36] [FixSender] (DEBUG) Sending 8=FIX.4.4|9=191|35=D|49=FIXCLIENT1|56=DMA_HUB|34=7|52=20240209-10:19:08|21=1|11=HS_17074739480|38=100|55=E:07G@XETR|54=1|60=20240209-10:19:08|40=2|59=0|44=197|48=US3390411052|22=4|15=EUR|207=XETR|1=bram_123|10=046|
2024-02-09 11:19:08.326 [31] [FixSender] (DEBUG) Receiving 8=FIX.4.4|9=232|35=8|34=9|49=DMA_HUB|56=FIXCLIENT1|52=20240209-10:19:08.325|11=HS_17074739480|37=FXJgpiiWJ|54=1|40=2|59=0|17=202402093|150=A|39=A|38=100|151=100|14=0|6=0|44=197|60=20240209-10:19:08.000|22=4|48=US3390411052|207=XETR|15=EUR|55=[N/A]|10=183|
2024-02-09 11:19:31.160 [31] [FixSender] (DEBUG) Receiving 8=FIX.4.4|9=61|35=0|34=10|49=DMA_HUB|56=FIXCLIENT1|52=20240209-10:19:31.160|10=227|
2024-02-09 11:19:38.324 [32] [FixSender] (DEBUG) Sending 8=FIX.4.4|9=56|35=0|49=FIXCLIENT1|56=DMA_HUB|34=8|52=20240209-10:19:38|10=000|
2024-02-09 11:20:01.113 [31] [FixSender] (DEBUG) Receiving 8=FIX.4.4|9=61|35=0|34=11|49=DMA_HUB|56=FIXCLIENT1|52=20240209-10:20:01.113|10=215|
2024-02-09 11:20:08.326 [32] [FixSender] (DEBUG) Sending 8=FIX.4.4|9=56|35=0|49=FIXCLIENT1|56=DMA_HUB|34=9|52=20240209-10:20:08|10=246|
2024-02-09 11:20:31.067 [31] [FixSender] (DEBUG) Receiving 8=FIX.4.4|9=61|35=0|34=12|49=DMA_HUB|56=FIXCLIENT1|52=20240209-10:20:31.066|10=226|
2024-02-09 11:20:35.492 [37] [FixSender] (DEBUG) Sending 8=FIX.4.4|9=193|35=D|49=FIXCLIENT1|56=DMA_HUB|34=10|52=20240209-10:20:35|21=1|11=HS_17074740351|38=10|55=FBTP202106@XEUR|54=2|60=20240209-10:20:35|40=2|59=0|44=3910|15=EUR|207=XEUR|109=fidameur|1=fidameur_123|10=020|
2024-02-09 11:20:35.574 [31] [FixSender] (DEBUG) Receiving 8=FIX.4.4|9=238|35=8|34=13|49=DMA_HUB|56=FIXCLIENT1|52=20240209-10:20:35.572|11=HS_17074740351|37=NONE|38=10|151=0|14=0|17=202402094|150=8|39=8|6=0|44=3910|54=2|40=2|59=0|55=FBTP202106@XEUR|207=XEUR|15=EUR|58=Cannot resolve instrument 55=FBTP202106@XEUR|10=036|
2024-02-09 11:20:39.490 [38] [FixSender] (DEBUG) Sending 8=FIX.4.4|9=192|35=D|49=FIXCLIENT1|56=DMA_HUB|34=11|52=20240209-10:20:39|21=1|11=HS_17074740392|38=100|55=E:07G@XETR|54=1|60=20240209-10:20:39|40=2|59=0|44=197|48=US3390411052|22=4|15=EUR|207=XETR|1=bram_123|10=076|
2024-02-09 11:20:39.492 [31] [FixSender] (DEBUG) Receiving 8=FIX.4.4|9=233|35=8|34=14|49=DMA_HUB|56=FIXCLIENT1|52=20240209-10:20:39.491|11=HS_17074740392|37=FXKgpiiWJ|54=1|40=2|59=0|17=202402095|150=A|39=A|38=100|151=100|14=0|6=0|44=197|60=20240209-10:20:39.000|22=4|48=US3390411052|207=XETR|15=EUR|55=[N/A]|10=221|
2024-02-09 11:20:43.182 [39] [FixSender] (DEBUG) Sending 8=FIX.4.4|9=204|35=D|49=FIXCLIENT1|56=DMA_HUB|34=12|52=20240209-10:20:43|21=3|11=HS_17074740433|38=2|55=ORANGE|54=1|60=20240209-10:20:43|40=2|59=0|44=50|48=FR0000133308|22=4|15=EUR|207=XPAR|58=Urgent|109=bram|1=bram_123|10=036|
2024-02-09 11:20:43.187 [31] [FixSender] (DEBUG) Receiving 8=FIX.4.4|9=265|35=8|34=15|49=DMA_HUB|56=FIXCLIENT1|52=20240209-10:20:43.186|11=HS_17074740433|37=NONE|38=2|151=0|14=0|17=202402096|150=8|39=8|6=0|44=50|54=1|40=2|59=0|22=4|48=FR0000133308|55=ORANGE|207=XPAR|15=EUR|58=Cannot resolve instrument 22=4;48=FR0000133308;207=XPAR;15=EUR|10=074|
2024-02-09 11:20:47.256 [40] [FixSender] (DEBUG) Sending 8=FIX.4.4|9=192|35=D|49=FIXCLIENT1|56=DMA_HUB|34=13|52=20240209-10:20:47|21=1|11=HS_17074740474|38=100|55=E:07G@XETR|54=1|60=20240209-10:20:47|40=2|59=0|44=197|48=US3390411052|22=4|15=EUR|207=XETR|1=bram_123|10=077|
2024-02-09 11:20:47.258 [31] [FixSender] (DEBUG) Receiving 8=FIX.4.4|9=233|35=8|34=16|49=DMA_HUB|56=FIXCLIENT1|52=20240209-10:20:47.257|11=HS_17074740474|37=FXLgpiiWJ|54=1|40=2|59=0|17=202402097|150=A|39=A|38=100|151=100|14=0|6=0|44=197|60=20240209-10:20:47.000|22=4|48=US3390411052|207=XETR|15=EUR|55=[N/A]|10=225|
2024-02-09 11:21:01.017 [31] [FixSender] (DEBUG) Receiving 8=FIX.4.4|9=61|35=0|34=17|49=DMA_HUB|56=FIXCLIENT1|52=20240209-10:21:01.017|10=225|
2024-02-09 11:21:17.256 [32] [FixSender] (DEBUG) Sending 8=FIX.4.4|9=57|35=0|49=FIXCLIENT1|56=DMA_HUB|34=14|52=20240209-10:21:17|10=036|
2024-02-09 11:21:30.970 [31] [FixSender] (DEBUG) Receiving 8=FIX.4.4|9=61|35=0|34=18|49=DMA_HUB|56=FIXCLIENT1|52=20240209-10:21:30.969|10=244|
2024-02-09 11:21:47.256 [32] [FixSender] (DEBUG) Sending 8=FIX.4.4|9=57|35=0|49=FIXCLIENT1|56=DMA_HUB|34=15|52=20240209-10:21:47|10=040|
2024-02-09 11:22:00.920 [31] [FixSender] (DEBUG) Receiving 8=FIX.4.4|9=61|35=0|34=19|49=DMA_HUB|56=FIXCLIENT1|52=20240209-10:22:00.920|10=230|
2024-02-09 11:22:17.257 [32] [FixSender] (DEBUG) Sending 8=FIX.4.4|9=57|35=0|49=FIXCLIENT1|56=DMA_HUB|34=16|52=20240209-10:22:17|10=039|
2024-02-09 11:22:30.874 [31] [FixSender] (DEBUG) Receiving 8=FIX.4.4|9=61|35=0|34=20|49=DMA_HUB|56=FIXCLIENT1|52=20240209-10:22:30.873|10=232|
2024-02-09 11:22:47.258 [32] [FixSender] (DEBUG) Sending 8=FIX.4.4|9=57|35=0|49=FIXCLIENT1|56=DMA_HUB|34=17|52=20240209-10:22:47|10=043|
2024-02-09 11:23:00.825 [31] [FixSender] (DEBUG) Receiving 8=FIX.4.4|9=61|35=0|34=21|49=DMA_HUB|56=FIXCLIENT1|52=20240209-10:23:00.825|10=228|
2024-02-09 11:23:17.262 [32] [FixSender] (DEBUG) Sending 8=FIX.4.4|9=57|35=0|49=FIXCLIENT1|56=DMA_HUB|34=18|52=20240209-10:23:17|10=042|
2024-02-09 11:23:30.779 [31] [FixSender] (DEBUG) Receiving 8=FIX.4.4|9=61|35=0|34=22|49=DMA_HUB|56=FIXCLIENT1|52=20240209-10:23:30.777|10=238|
2024-02-09 11:23:47.264 [32] [FixSender] (DEBUG) Sending 8=FIX.4.4|9=57|35=0|49=FIXCLIENT1|56=DMA_HUB|34=19|52=20240209-10:23:47|10=046|
2024-02-09 11:24:00.730 [31] [FixSender] (DEBUG) Receiving 8=FIX.4.4|9=61|35=0|34=23|49=DMA_HUB|56=FIXCLIENT1|52=20240209-10:24:00.729|10=234|
2024-02-09 11:24:17.266 [32] [FixSender] (DEBUG) Sending 8=FIX.4.4|9=57|35=0|49=FIXCLIENT1|56=DMA_HUB|34=20|52=20240209-10:24:17|10=036|
2024-02-09 11:24:30.691 [31] [FixSender] (DEBUG) Receiving 8=FIX.4.4|9=61|35=0|34=24|49=DMA_HUB|56=FIXCLIENT1|52=20240209-10:24:30.690|10=235|
2024-02-09 11:24:47.272 [32] [FixSender] (DEBUG) Sending 8=FIX.4.4|9=57|35=0|49=FIXCLIENT1|56=DMA_HUB|34=21|52=20240209-10:24:47|10=040|
2024-02-09 11:25:00.641 [31] [FixSender] (DEBUG) Receiving 8=FIX.4.4|9=61|35=0|34=25|49=DMA_HUB|56=FIXCLIENT1|52=20240209-10:25:00.639|10=237|
2024-02-09 11:25:17.290 [32] [FixSender] (DEBUG) Sending 8=FIX.4.4|9=57|35=0|49=FIXCLIENT1|56=DMA_HUB|34=22|52=20240209-10:25:17|10=039|
2024-02-09 11:25:30.599 [31] [FixSender] (DEBUG) Receiving 8=FIX.4.4|9=61|35=0|34=26|49=DMA_HUB|56=FIXCLIENT1|52=20240209-10:25:30.598|10=245|
2024-02-09 11:25:47.294 [32] [FixSender] (DEBUG) Sending 8=FIX.4.4|9=57|35=0|49=FIXCLIENT1|56=DMA_HUB|34=23|52=20240209-10:25:47|10=043|
2024-02-09 11:26:00.547 [31] [FixSender] (DEBUG) Receiving 8=FIX.4.4|9=61|35=0|34=27|49=DMA_HUB|56=FIXCLIENT1|52=20240209-10:26:00.547|10=238|
2024-02-09 11:26:17.311 [32] [FixSender] (DEBUG) Sending 8=FIX.4.4|9=57|35=0|49=FIXCLIENT1|56=DMA_HUB|34=24|52=20240209-10:26:17|10=042|
2024-02-09 11:26:30.500 [31] [FixSender] (DEBUG) Receiving 8=FIX.4.4|9=61|35=0|34=28|49=DMA_HUB|56=FIXCLIENT1|52=20240209-10:26:30.500|10=231|
2024-02-09 11:26:47.322 [32] [FixSender] (DEBUG) Sending 8=FIX.4.4|9=57|35=0|49=FIXCLIENT1|56=DMA_HUB|34=25|52=20240209-10:26:47|10=046|
2024-02-09 11:27:00.443 [31] [FixSender] (DEBUG) Receiving 8=FIX.4.4|9=61|35=0|34=29|49=DMA_HUB|56=FIXCLIENT1|52=20240209-10:27:00.443|10=236|
2024-02-09 11:27:17.323 [32] [FixSender] (DEBUG) Sending 8=FIX.4.4|9=57|35=0|49=FIXCLIENT1|56=DMA_HUB|34=26|52=20240209-10:27:17|10=045|
2024-02-09 11:27:30.396 [31] [FixSender] (DEBUG) Receiving 8=FIX.4.4|9=61|35=0|34=30|49=DMA_HUB|56=FIXCLIENT1|52=20240209-10:27:30.395|10=237|
2024-02-09 11:27:47.329 [32] [FixSender] (DEBUG) Sending 8=FIX.4.4|9=57|35=0|49=FIXCLIENT1|56=DMA_HUB|34=27|52=20240209-10:27:47|10=049|
2024-02-09 11:28:00.360 [31] [FixSender] (DEBUG) Receiving 8=FIX.4.4|9=61|35=0|34=31|49=DMA_HUB|56=FIXCLIENT1|52=20240209-10:28:00.360|10=228|
2024-02-09 11:28:17.345 [32] [FixSender] (DEBUG) Sending 8=FIX.4.4|9=57|35=0|49=FIXCLIENT1|56=DMA_HUB|34=28|52=20240209-10:28:17|10=048|
2024-02-09 11:28:30.360 [31] [FixSender] (DEBUG) Receiving 8=FIX.4.4|9=61|35=0|34=32|49=DMA_HUB|56=FIXCLIENT1|52=20240209-10:28:30.360|10=232|
2024-02-09 11:28:47.361 [32] [FixSender] (DEBUG) Sending 8=FIX.4.4|9=57|35=0|49=FIXCLIENT1|56=DMA_HUB|34=29|52=20240209-10:28:47|10=052|
2024-02-09 11:29:00.314 [31] [FixSender] (DEBUG) Receiving 8=FIX.4.4|9=61|35=0|34=33|49=DMA_HUB|56=FIXCLIENT1|52=20240209-10:29:00.314|10=230|
2024-02-09 11:29:17.376 [32] [FixSender] (DEBUG) Sending 8=FIX.4.4|9=57|35=0|49=FIXCLIENT1|56=DMA_HUB|34=30|52=20240209-10:29:17|10=042|
2024-02-09 11:29:30.267 [31] [FixSender] (DEBUG) Receiving 8=FIX.4.4|9=61|35=0|34=34|49=DMA_HUB|56=FIXCLIENT1|52=20240209-10:29:30.267|10=241|
2024-02-09 11:29:47.388 [32] [FixSender] (DEBUG) Sending 8=FIX.4.4|9=57|35=0|49=FIXCLIENT1|56=DMA_HUB|34=31|52=20240209-10:29:47|10=046|
2024-02-09 11:30:00.220 [31] [FixSender] (DEBUG) Receiving 8=FIX.4.4|9=61|35=0|34=35|49=DMA_HUB|56=FIXCLIENT1|52=20240209-10:30:00.220|10=220|
2024-02-09 11:30:17.393 [32] [FixSender] (DEBUG) Sending 8=FIX.4.4|9=57|35=0|49=FIXCLIENT1|56=DMA_HUB|34=32|52=20240209-10:30:17|10=036|
2024-02-09 11:30:30.175 [31] [FixSender] (DEBUG) Receiving 8=FIX.4.4|9=61|35=0|34=36|49=DMA_HUB|56=FIXCLIENT1|52=20240209-10:30:30.175|10=233|
2024-02-09 11:30:47.409 [32] [FixSender] (DEBUG) Sending 8=FIX.4.4|9=57|35=0|49=FIXCLIENT1|56=DMA_HUB|34=33|52=20240209-10:30:47|10=040|
2024-02-09 11:31:00.126 [31] [FixSender] (DEBUG) Receiving 8=FIX.4.4|9=61|35=0|34=37|49=DMA_HUB|56=FIXCLIENT1|52=20240209-10:31:00.126|10=228|
2024-02-09 11:31:17.425 [32] [FixSender] (DEBUG) Sending 8=FIX.4.4|9=57|35=0|49=FIXCLIENT1|56=DMA_HUB|34=34|52=20240209-10:31:17|10=039|
2024-02-09 11:31:30.079 [31] [FixSender] (DEBUG) Receiving 8=FIX.4.4|9=61|35=0|34=38|49=DMA_HUB|56=FIXCLIENT1|52=20240209-10:31:30.079|10=239|
2024-02-09 11:31:47.441 [32] [FixSender] (DEBUG) Sending 8=FIX.4.4|9=57|35=0|49=FIXCLIENT1|56=DMA_HUB|34=35|52=20240209-10:31:47|10=043|
2024-02-09 11:32:00.034 [31] [FixSender] (DEBUG) Receiving 8=FIX.4.4|9=61|35=0|34=39|49=DMA_HUB|56=FIXCLIENT1|52=20240209-10:32:00.034|10=229|
2024-02-09 11:32:17.457 [32] [FixSender] (DEBUG) Sending 8=FIX.4.4|9=57|35=0|49=FIXCLIENT1|56=DMA_HUB|34=36|52=20240209-10:32:17|10=042|
2024-02-09 11:32:29.986 [31] [FixSender] (DEBUG) Receiving 8=FIX.4.4|9=61|35=0|34=40|49=DMA_HUB|56=FIXCLIENT1|52=20240209-10:32:29.986|10=248|
2024-02-09 11:32:47.473 [32] [FixSender] (DEBUG) Sending 8=FIX.4.4|9=57|35=0|49=FIXCLIENT1|56=DMA_HUB|34=37|52=20240209-10:32:47|10=046|
2024-02-09 11:32:59.939 [31] [FixSender] (DEBUG) Receiving 8=FIX.4.4|9=61|35=0|34=41|49=DMA_HUB|56=FIXCLIENT1|52=20240209-10:32:59.939|10=250|
2024-02-09 11:33:17.474 [32] [FixSender] (DEBUG) Sending 8=FIX.4.4|9=57|35=0|49=FIXCLIENT1|56=DMA_HUB|34=38|52=20240209-10:33:17|10=045|
2024-02-09 11:33:29.892 [31] [FixSender] (DEBUG) Receiving 8=FIX.4.4|9=61|35=0|34=42|49=DMA_HUB|56=FIXCLIENT1|52=20240209-10:33:29.892|10=247|
2024-02-09 11:33:47.489 [32] [FixSender] (DEBUG) Sending 8=FIX.4.4|9=57|35=0|49=FIXCLIENT1|56=DMA_HUB|34=39|52=20240209-10:33:47|10=049|
2024-02-09 11:33:59.845 [31] [FixSender] (DEBUG) Receiving 8=FIX.4.4|9=61|35=0|34=43|49=DMA_HUB|56=FIXCLIENT1|52=20240209-10:33:59.845|10=249|
2024-02-09 11:34:17.505 [32] [FixSender] (DEBUG) Sending 8=FIX.4.4|9=57|35=0|49=FIXCLIENT1|56=DMA_HUB|34=40|52=20240209-10:34:17|10=039|
2024-02-09 11:34:29.799 [31] [FixSender] (DEBUG) Receiving 8=FIX.4.4|9=61|35=0|34=44|49=DMA_HUB|56=FIXCLIENT1|52=20240209-10:34:29.799|10=000|
2024-02-09 11:34:47.521 [32] [FixSender] (DEBUG) Sending 8=FIX.4.4|9=57|35=0|49=FIXCLIENT1|56=DMA_HUB|34=41|52=20240209-10:34:47|10=043|
2024-02-09 11:34:59.751 [31] [FixSender] (DEBUG) Receiving 8=FIX.4.4|9=61|35=0|34=45|49=DMA_HUB|56=FIXCLIENT1|52=20240209-10:34:59.751|10=248|
2024-02-09 11:35:17.536 [32] [FixSender] (DEBUG) Sending 8=FIX.4.4|9=57|35=0|49=FIXCLIENT1|56=DMA_HUB|34=42|52=20240209-10:35:17|10=042|
2024-02-09 11:35:29.705 [31] [FixSender] (DEBUG) Receiving 8=FIX.4.4|9=61|35=0|34=46|49=DMA_HUB|56=FIXCLIENT1|52=20240209-10:35:29.705|10=246|
2024-02-09 11:35:47.537 [32] [FixSender] (DEBUG) Sending 8=FIX.4.4|9=57|35=0|49=FIXCLIENT1|56=DMA_HUB|34=43|52=20240209-10:35:47|10=046|
2024-02-09 11:35:59.720 [31] [FixSender] (DEBUG) Receiving 8=FIX.4.4|9=61|35=0|34=47|49=DMA_HUB|56=FIXCLIENT1|52=20240209-10:35:59.720|10=247|
2024-02-09 11:36:17.551 [32] [FixSender] (DEBUG) Sending 8=FIX.4.4|9=57|35=0|49=FIXCLIENT1|56=DMA_HUB|34=44|52=20240209-10:36:17|10=045|
2024-02-09 11:36:29.720 [31] [FixSender] (DEBUG) Receiving 8=FIX.4.4|9=61|35=0|34=48|49=DMA_HUB|56=FIXCLIENT1|52=20240209-10:36:29.720|10=246|
2024-02-09 11:36:47.553 [32] [FixSender] (DEBUG) Sending 8=FIX.4.4|9=57|35=0|49=FIXCLIENT1|56=DMA_HUB|34=45|52=20240209-10:36:47|10=049|
2024-02-09 11:36:59.682 [31] [FixSender] (DEBUG) Receiving 8=FIX.4.4|9=61|35=0|34=49|49=DMA_HUB|56=FIXCLIENT1|52=20240209-10:36:59.681|10=000|
2024-02-09 11:37:17.554 [32] [FixSender] (DEBUG) Sending 8=FIX.4.4|9=57|35=0|49=FIXCLIENT1|56=DMA_HUB|34=46|52=20240209-10:37:17|10=048|
2024-02-09 11:37:29.630 [31] [FixSender] (DEBUG) Receiving 8=FIX.4.4|9=61|35=0|34=50|49=DMA_HUB|56=FIXCLIENT1|52=20240209-10:37:29.630|10=240|
2024-02-09 11:37:47.564 [32] [FixSender] (DEBUG) Sending 8=FIX.4.4|9=57|35=0|49=FIXCLIENT1|56=DMA_HUB|34=47|52=20240209-10:37:47|10=052|
2024-02-09 11:37:59.589 [31] [FixSender] (DEBUG) Receiving 8=FIX.4.4|9=61|35=0|34=51|49=DMA_HUB|56=FIXCLIENT1|52=20240209-10:37:59.589|10=001|
2024-02-09 11:38:17.569 [32] [FixSender] (DEBUG) Sending 8=FIX.4.4|9=57|35=0|49=FIXCLIENT1|56=DMA_HUB|34=48|52=20240209-10:38:17|10=051|
2024-02-09 11:38:29.538 [31] [FixSender] (DEBUG) Receiving 8=FIX.4.4|9=61|35=0|34=52|49=DMA_HUB|56=FIXCLIENT1|52=20240209-10:38:29.538|10=250|
2024-02-09 11:38:47.571 [32] [FixSender] (DEBUG) Sending 8=FIX.4.4|9=57|35=0|49=FIXCLIENT1|56=DMA_HUB|34=49|52=20240209-10:38:47|10=055|
2024-02-09 11:38:59.487 [31] [FixSender] (DEBUG) Receiving 8=FIX.4.4|9=61|35=0|34=53|49=DMA_HUB|56=FIXCLIENT1|52=20240209-10:38:59.487|10=001|
2024-02-09 11:39:17.586 [32] [FixSender] (DEBUG) Sending 8=FIX.4.4|9=57|35=0|49=FIXCLIENT1|56=DMA_HUB|34=50|52=20240209-10:39:17|10=045|
2024-02-09 11:39:29.436 [31] [FixSender] (DEBUG) Receiving 8=FIX.4.4|9=61|35=0|34=54|49=DMA_HUB|56=FIXCLIENT1|52=20240209-10:39:29.436|10=250|
2024-02-09 11:39:47.601 [32] [FixSender] (DEBUG) Sending 8=FIX.4.4|9=57|35=0|49=FIXCLIENT1|56=DMA_HUB|34=51|52=20240209-10:39:47|10=049|
2024-02-09 11:39:59.388 [31] [FixSender] (DEBUG) Receiving 8=FIX.4.4|9=61|35=0|34=55|49=DMA_HUB|56=FIXCLIENT1|52=20240209-10:39:59.387|10=003|
2024-02-09 11:40:17.603 [32] [FixSender] (DEBUG) Sending 8=FIX.4.4|9=57|35=0|49=FIXCLIENT1|56=DMA_HUB|34=52|52=20240209-10:40:17|10=039|
2024-02-09 11:40:29.352 [31] [FixSender] (DEBUG) Receiving 8=FIX.4.4|9=61|35=0|34=56|49=DMA_HUB|56=FIXCLIENT1|52=20240209-10:40:29.351|10=240|
2024-02-09 11:40:47.615 [32] [FixSender] (DEBUG) Sending 8=FIX.4.4|9=57|35=0|49=FIXCLIENT1|56=DMA_HUB|34=53|52=20240209-10:40:47|10=043|
2024-02-09 11:40:59.302 [31] [FixSender] (DEBUG) Receiving 8=FIX.4.4|9=61|35=0|34=57|49=DMA_HUB|56=FIXCLIENT1|52=20240209-10:40:59.301|10=239|
2024-02-09 11:41:17.625 [32] [FixSender] (DEBUG) Sending 8=FIX.4.4|9=57|35=0|49=FIXCLIENT1|56=DMA_HUB|34=54|52=20240209-10:41:17|10=042|
2024-02-09 11:41:29.250 [31] [FixSender] (DEBUG) Receiving 8=FIX.4.4|9=61|35=0|34=58|49=DMA_HUB|56=FIXCLIENT1|52=20240209-10:41:29.249|10=249|
2024-02-09 11:41:47.637 [32] [FixSender] (DEBUG) Sending 8=FIX.4.4|9=57|35=0|49=FIXCLIENT1|56=DMA_HUB|34=55|52=20240209-10:41:47|10=046|
2024-02-09 11:41:59.193 [31] [FixSender] (DEBUG) Receiving 8=FIX.4.4|9=61|35=0|34=59|49=DMA_HUB|56=FIXCLIENT1|52=20240209-10:41:59.193|10=251|
2024-02-09 11:42:17.642 [32] [FixSender] (DEBUG) Sending 8=FIX.4.4|9=57|35=0|49=FIXCLIENT1|56=DMA_HUB|34=56|52=20240209-10:42:17|10=045|
2024-02-09 11:42:29.149 [31] [FixSender] (DEBUG) Receiving 8=FIX.4.4|9=61|35=0|34=60|49=DMA_HUB|56=FIXCLIENT1|52=20240209-10:42:29.148|10=241|
2024-02-09 11:42:47.657 [32] [FixSender] (DEBUG) Sending 8=FIX.4.4|9=57|35=0|49=FIXCLIENT1|56=DMA_HUB|34=57|52=20240209-10:42:47|10=049|
2024-02-09 11:42:59.107 [31] [FixSender] (DEBUG) Receiving 8=FIX.4.4|9=61|35=0|34=61|49=DMA_HUB|56=FIXCLIENT1|52=20240209-10:42:59.106|10=239|
2024-02-09 11:45:20.407 [32] [FixSender] (DEBUG) Sending 8=FIX.4.4|9=57|35=0|49=FIXCLIENT1|56=DMA_HUB|34=58|52=20240209-10:45:20|10=044|
2024-02-09 11:45:26.745 [31] [FixSender] (DEBUG) Receiving 8=FIX.4.4|9=61|35=0|34=62|49=DMA_HUB|56=FIXCLIENT1|52=20240209-10:45:26.744|10=245|
2024-02-09 11:45:50.415 [32] [FixSender] (DEBUG) Sending 8=FIX.4.4|9=57|35=0|49=FIXCLIENT1|56=DMA_HUB|34=59|52=20240209-10:45:50|10=048|
2024-02-09 11:45:56.701 [31] [FixSender] (DEBUG) Receiving 8=FIX.4.4|9=61|35=0|34=63|49=DMA_HUB|56=FIXCLIENT1|52=20240209-10:45:56.701|10=242|
2024-02-09 11:46:20.422 [32] [FixSender] (DEBUG) Sending 8=FIX.4.4|9=57|35=0|49=FIXCLIENT1|56=DMA_HUB|34=60|52=20240209-10:46:20|10=038|
2024-02-09 11:46:26.663 [31] [FixSender] (DEBUG) Receiving 8=FIX.4.4|9=61|35=0|34=64|49=DMA_HUB|56=FIXCLIENT1|52=20240209-10:46:26.663|10=248|
2024-02-09 11:46:50.423 [32] [FixSender] (DEBUG) Sending 8=FIX.4.4|9=57|35=0|49=FIXCLIENT1|56=DMA_HUB|34=61|52=20240209-10:46:50|10=042|
2024-02-09 11:46:56.601 [31] [FixSender] (DEBUG) Receiving 8=FIX.4.4|9=61|35=0|34=65|49=DMA_HUB|56=FIXCLIENT1|52=20240209-10:46:56.601|10=244|
2024-02-09 11:47:20.434 [32] [FixSender] (DEBUG) Sending 8=FIX.4.4|9=57|35=0|49=FIXCLIENT1|56=DMA_HUB|34=62|52=20240209-10:47:20|10=041|
2024-02-09 11:47:26.560 [31] [FixSender] (DEBUG) Receiving 8=FIX.4.4|9=61|35=0|34=66|49=DMA_HUB|56=FIXCLIENT1|52=20240209-10:47:26.560|10=247|
2024-02-09 11:47:50.436 [32] [FixSender] (DEBUG) Sending 8=FIX.4.4|9=57|35=0|49=FIXCLIENT1|56=DMA_HUB|34=63|52=20240209-10:47:50|10=045|
2024-02-09 11:47:56.509 [31] [FixSender] (DEBUG) Receiving 8=FIX.4.4|9=61|35=0|34=67|49=DMA_HUB|56=FIXCLIENT1|52=20240209-10:47:56.509|10=254|
2024-02-09 11:48:20.445 [32] [FixSender] (DEBUG) Sending 8=FIX.4.4|9=57|35=0|49=FIXCLIENT1|56=DMA_HUB|34=64|52=20240209-10:48:20|10=044|
2024-02-09 11:48:26.464 [31] [FixSender] (DEBUG) Receiving 8=FIX.4.4|9=61|35=0|34=68|49=DMA_HUB|56=FIXCLIENT1|52=20240209-10:48:26.463|10=252|
2024-02-09 11:48:50.452 [32] [FixSender] (DEBUG) Sending 8=FIX.4.4|9=57|35=0|49=FIXCLIENT1|56=DMA_HUB|34=65|52=20240209-10:48:50|10=048|
2024-02-09 11:48:56.419 [31] [FixSender] (DEBUG) Receiving 8=FIX.4.4|9=61|35=0|34=69|49=DMA_HUB|56=FIXCLIENT1|52=20240209-10:48:56.419|10=001|
2024-02-09 11:49:20.454 [32] [FixSender] (DEBUG) Sending 8=FIX.4.4|9=57|35=0|49=FIXCLIENT1|56=DMA_HUB|34=66|52=20240209-10:49:20|10=047|
2024-02-09 11:49:26.363 [31] [FixSender] (DEBUG) Receiving 8=FIX.4.4|9=61|35=0|34=70|49=DMA_HUB|56=FIXCLIENT1|52=20240209-10:49:26.362|10=244|
2024-02-09 11:49:50.470 [32] [FixSender] (DEBUG) Sending 8=FIX.4.4|9=57|35=0|49=FIXCLIENT1|56=DMA_HUB|34=67|52=20240209-10:49:50|10=051|
2024-02-09 11:49:56.327 [31] [FixSender] (DEBUG) Receiving 8=FIX.4.4|9=61|35=0|34=71|49=DMA_HUB|56=FIXCLIENT1|52=20240209-10:49:56.327|10=249|
2024-02-09 11:50:20.478 [32] [FixSender] (DEBUG) Sending 8=FIX.4.4|9=57|35=0|49=FIXCLIENT1|56=DMA_HUB|34=68|52=20240209-10:50:20|10=041|
2024-02-09 11:50:26.270 [31] [FixSender] (DEBUG) Receiving 8=FIX.4.4|9=61|35=0|34=72|49=DMA_HUB|56=FIXCLIENT1|52=20240209-10:50:26.270|10=236|
2024-02-09 11:50:50.481 [32] [FixSender] (DEBUG) Sending 8=FIX.4.4|9=57|35=0|49=FIXCLIENT1|56=DMA_HUB|34=69|52=20240209-10:50:50|10=045|
2024-02-09 11:50:56.219 [31] [FixSender] (DEBUG) Receiving 8=FIX.4.4|9=61|35=0|34=73|49=DMA_HUB|56=FIXCLIENT1|52=20240209-10:50:56.219|10=243|
2024-02-09 11:51:20.483 [32] [FixSender] (DEBUG) Sending 8=FIX.4.4|9=57|35=0|49=FIXCLIENT1|56=DMA_HUB|34=70|52=20240209-10:51:20|10=035|
2024-02-09 11:51:26.175 [31] [FixSender] (DEBUG) Receiving 8=FIX.4.4|9=61|35=0|34=74|49=DMA_HUB|56=FIXCLIENT1|52=20240209-10:51:26.175|10=243|
2024-02-09 11:51:50.489 [32] [FixSender] (DEBUG) Sending 8=FIX.4.4|9=57|35=0|49=FIXCLIENT1|56=DMA_HUB|34=71|52=20240209-10:51:50|10=039|
2024-02-09 11:51:56.135 [31] [FixSender] (DEBUG) Receiving 8=FIX.4.4|9=61|35=0|34=75|49=DMA_HUB|56=FIXCLIENT1|52=20240209-10:51:56.135|10=243|
2024-02-09 11:52:20.503 [32] [FixSender] (DEBUG) Sending 8=FIX.4.4|9=57|35=0|49=FIXCLIENT1|56=DMA_HUB|34=72|52=20240209-10:52:20|10=038|
2024-02-09 11:52:26.073 [31] [FixSender] (DEBUG) Receiving 8=FIX.4.4|9=61|35=0|34=76|49=DMA_HUB|56=FIXCLIENT1|52=20240209-10:52:26.073|10=243|
2024-02-09 11:52:50.513 [32] [FixSender] (DEBUG) Sending 8=FIX.4.4|9=57|35=0|49=FIXCLIENT1|56=DMA_HUB|34=73|52=20240209-10:52:50|10=042|
2024-02-09 11:52:56.034 [31] [FixSender] (DEBUG) Receiving 8=FIX.4.4|9=61|35=0|34=77|49=DMA_HUB|56=FIXCLIENT1|52=20240209-10:52:56.034|10=244|
2024-02-09 11:53:20.516 [32] [FixSender] (DEBUG) Sending 8=FIX.4.4|9=57|35=0|49=FIXCLIENT1|56=DMA_HUB|34=74|52=20240209-10:53:20|10=041|
2024-02-09 11:53:25.979 [31] [FixSender] (DEBUG) Receiving 8=FIX.4.4|9=61|35=0|34=78|49=DMA_HUB|56=FIXCLIENT1|52=20240209-10:53:25.979|10=004|
2024-02-09 11:53:50.524 [32] [FixSender] (DEBUG) Sending 8=FIX.4.4|9=57|35=0|49=FIXCLIENT1|56=DMA_HUB|34=75|52=20240209-10:53:50|10=045|
2024-02-09 11:53:55.940 [31] [FixSender] (DEBUG) Receiving 8=FIX.4.4|9=61|35=0|34=79|49=DMA_HUB|56=FIXCLIENT1|52=20240209-10:53:55.940|10=252|
2024-02-09 11:54:20.531 [32] [FixSender] (DEBUG) Sending 8=FIX.4.4|9=57|35=0|49=FIXCLIENT1|56=DMA_HUB|34=76|52=20240209-10:54:20|10=044|
2024-02-09 11:54:25.887 [31] [FixSender] (DEBUG) Receiving 8=FIX.4.4|9=61|35=0|34=80|49=DMA_HUB|56=FIXCLIENT1|52=20240209-10:54:25.886|10=251|
2024-02-09 11:54:50.538 [32] [FixSender] (DEBUG) Sending 8=FIX.4.4|9=57|35=0|49=FIXCLIENT1|56=DMA_HUB|34=77|52=20240209-10:54:50|10=048|
2024-02-09 11:54:55.845 [31] [FixSender] (DEBUG) Receiving 8=FIX.4.4|9=61|35=0|34=81|49=DMA_HUB|56=FIXCLIENT1|52=20240209-10:54:55.845|10=250|
2024-02-09 11:55:20.572 [32] [FixSender] (DEBUG) Sending 8=FIX.4.4|9=57|35=0|49=FIXCLIENT1|56=DMA_HUB|34=78|52=20240209-10:55:20|10=047|
2024-02-09 11:55:25.829 [31] [FixSender] (DEBUG) Receiving 8=FIX.4.4|9=61|35=0|34=82|49=DMA_HUB|56=FIXCLIENT1|52=20240209-10:55:25.829|10=251|
2024-02-09 11:55:50.618 [32] [FixSender] (DEBUG) Sending 8=FIX.4.4|9=57|35=0|49=FIXCLIENT1|56=DMA_HUB|34=79|52=20240209-10:55:50|10=051|
2024-02-09 11:55:55.830 [31] [FixSender] (DEBUG) Receiving 8=FIX.4.4|9=61|35=0|34=83|49=DMA_HUB|56=FIXCLIENT1|52=20240209-10:55:55.829|10=255|
2024-02-09 11:56:20.671 [32] [FixSender] (DEBUG) Sending 8=FIX.4.4|9=57|35=0|49=FIXCLIENT1|56=DMA_HUB|34=80|52=20240209-10:56:20|10=041|
2024-02-09 11:56:25.839 [31] [FixSender] (DEBUG) Receiving 8=FIX.4.4|9=61|35=0|34=84|49=DMA_HUB|56=FIXCLIENT1|52=20240209-10:56:25.839|10=255|
2024-02-09 11:56:50.722 [32] [FixSender] (DEBUG) Sending 8=FIX.4.4|9=57|35=0|49=FIXCLIENT1|56=DMA_HUB|34=81|52=20240209-10:56:50|10=045|
2024-02-09 11:56:55.844 [31] [FixSender] (DEBUG) Receiving 8=FIX.4.4|9=61|35=0|34=85|49=DMA_HUB|56=FIXCLIENT1|52=20240209-10:56:55.844|10=255|
2024-02-09 11:57:20.774 [32] [FixSender] (DEBUG) Sending 8=FIX.4.4|9=57|35=0|49=FIXCLIENT1|56=DMA_HUB|34=82|52=20240209-10:57:20|10=044|
2024-02-09 11:57:25.833 [31] [FixSender] (DEBUG) Receiving 8=FIX.4.4|9=61|35=0|34=86|49=DMA_HUB|56=FIXCLIENT1|52=20240209-10:57:25.833|10=252|
2024-02-09 11:57:50.824 [32] [FixSender] (DEBUG) Sending 8=FIX.4.4|9=57|35=0|49=FIXCLIENT1|56=DMA_HUB|34=83|52=20240209-10:57:50|10=048|
2024-02-09 11:57:55.841 [31] [FixSender] (DEBUG) Receiving 8=FIX.4.4|9=61|35=0|34=87|49=DMA_HUB|56=FIXCLIENT1|52=20240209-10:57:55.840|10=254|
2024-02-09 11:58:20.871 [32] [FixSender] (DEBUG) Sending 8=FIX.4.4|9=57|35=0|49=FIXCLIENT1|56=DMA_HUB|34=84|52=20240209-10:58:20|10=047|
2024-02-09 11:58:25.857 [31] [FixSender] (DEBUG) Receiving 8=FIX.4.4|9=61|35=0|34=88|49=DMA_HUB|56=FIXCLIENT1|52=20240209-10:58:25.857|10=005|
2024-02-09 11:58:50.914 [32] [FixSender] (DEBUG) Sending 8=FIX.4.4|9=57|35=0|49=FIXCLIENT1|56=DMA_HUB|34=85|52=20240209-10:58:50|10=051|
2024-02-09 11:58:55.856 [31] [FixSender] (DEBUG) Receiving 8=FIX.4.4|9=61|35=0|34=89|49=DMA_HUB|56=FIXCLIENT1|52=20240209-10:58:55.856|10=008|
2024-02-09 11:59:20.963 [32] [FixSender] (DEBUG) Sending 8=FIX.4.4|9=57|35=0|49=FIXCLIENT1|56=DMA_HUB|34=86|52=20240209-10:59:20|10=050|
2024-02-09 11:59:25.872 [31] [FixSender] (DEBUG) Receiving 8=FIX.4.4|9=61|35=0|34=90|49=DMA_HUB|56=FIXCLIENT1|52=20240209-10:59:25.872|10=252|
2024-02-09 11:59:51.011 [32] [FixSender] (DEBUG) Sending 8=FIX.4.4|9=57|35=0|49=FIXCLIENT1|56=DMA_HUB|34=87|52=20240209-10:59:51|10=055|
2024-02-09 11:59:55.878 [31] [FixSender] (DEBUG) Receiving 8=FIX.4.4|9=61|35=0|34=91|49=DMA_HUB|56=FIXCLIENT1|52=20240209-10:59:55.878|10=006|
2024-02-09 12:00:21.023 [32] [FixSender] (DEBUG) Sending 8=FIX.4.4|9=57|35=0|49=FIXCLIENT1|56=DMA_HUB|34=88|52=20240209-11:00:21|10=040|
2024-02-09 12:00:25.821 [31] [FixSender] (DEBUG) Receiving 8=FIX.4.4|9=61|35=0|34=92|49=DMA_HUB|56=FIXCLIENT1|52=20240209-11:00:25.820|10=234|
2024-02-09 12:00:51.033 [32] [FixSender] (DEBUG) Sending 8=FIX.4.4|9=57|35=0|49=FIXCLIENT1|56=DMA_HUB|34=89|52=20240209-11:00:51|10=044|
2024-02-09 12:00:55.772 [31] [FixSender] (DEBUG) Receiving 8=FIX.4.4|9=61|35=0|34=93|49=DMA_HUB|56=FIXCLIENT1|52=20240209-11:00:55.772|10=244|
2024-02-09 12:01:21.034 [32] [FixSender] (DEBUG) Sending 8=FIX.4.4|9=57|35=0|49=FIXCLIENT1|56=DMA_HUB|34=90|52=20240209-11:01:21|10=034|
2024-02-09 12:01:25.727 [31] [FixSender] (DEBUG) Receiving 8=FIX.4.4|9=61|35=0|34=94|49=DMA_HUB|56=FIXCLIENT1|52=20240209-11:01:25.727|10=243|
2024-02-09 12:01:51.038 [32] [FixSender] (DEBUG) Sending 8=FIX.4.4|9=57|35=0|49=FIXCLIENT1|56=DMA_HUB|34=91|52=20240209-11:01:51|10=038|
2024-02-09 12:01:55.685 [31] [FixSender] (DEBUG) Receiving 8=FIX.4.4|9=61|35=0|34=95|49=DMA_HUB|56=FIXCLIENT1|52=20240209-11:01:55.684|10=249|
2024-02-09 12:02:21.047 [32] [FixSender] (DEBUG) Sending 8=FIX.4.4|9=57|35=0|49=FIXCLIENT1|56=DMA_HUB|34=92|52=20240209-11:02:21|10=037|
2024-02-09 12:02:25.635 [31] [FixSender] (DEBUG) Receiving 8=FIX.4.4|9=61|35=0|34=96|49=DMA_HUB|56=FIXCLIENT1|52=20240209-11:02:25.634|10=243|
2024-02-09 12:02:51.054 [32] [FixSender] (DEBUG) Sending 8=FIX.4.4|9=57|35=0|49=FIXCLIENT1|56=DMA_HUB|34=93|52=20240209-11:02:51|10=041|
2024-02-09 12:02:55.580 [31] [FixSender] (DEBUG) Receiving 8=FIX.4.4|9=61|35=0|34=97|49=DMA_HUB|56=FIXCLIENT1|52=20240209-11:02:55.580|10=247|
2024-02-09 12:03:21.061 [32] [FixSender] (DEBUG) Sending 8=FIX.4.4|9=57|35=0|49=FIXCLIENT1|56=DMA_HUB|34=94|52=20240209-11:03:21|10=040|
2024-02-09 12:03:25.529 [31] [FixSender] (DEBUG) Receiving 8=FIX.4.4|9=61|35=0|34=98|49=DMA_HUB|56=FIXCLIENT1|52=20240209-11:03:25.529|10=249|
2024-02-09 12:03:51.072 [32] [FixSender] (DEBUG) Sending 8=FIX.4.4|9=57|35=0|49=FIXCLIENT1|56=DMA_HUB|34=95|52=20240209-11:03:51|10=044|
2024-02-09 12:03:55.491 [31] [FixSender] (DEBUG) Receiving 8=FIX.4.4|9=61|35=0|34=99|49=DMA_HUB|56=FIXCLIENT1|52=20240209-11:03:55.491|10=251|
2024-02-09 12:04:21.077 [32] [FixSender] (DEBUG) Sending 8=FIX.4.4|9=57|35=0|49=FIXCLIENT1|56=DMA_HUB|34=96|52=20240209-11:04:21|10=043|
2024-02-09 12:04:25.436 [31] [FixSender] (DEBUG) Receiving 8=FIX.4.4|9=62|35=0|34=100|49=DMA_HUB|56=FIXCLIENT1|52=20240209-11:04:25.436|10=024|
2024-02-09 12:04:51.087 [32] [FixSender] (DEBUG) Sending 8=FIX.4.4|9=57|35=0|49=FIXCLIENT1|56=DMA_HUB|34=97|52=20240209-11:04:51|10=047|
2024-02-09 12:04:55.388 [31] [FixSender] (DEBUG) Receiving 8=FIX.4.4|9=62|35=0|34=101|49=DMA_HUB|56=FIXCLIENT1|52=20240209-11:04:55.387|10=033|
2024-02-09 12:05:21.099 [32] [FixSender] (DEBUG) Sending 8=FIX.4.4|9=57|35=0|49=FIXCLIENT1|56=DMA_HUB|34=98|52=20240209-11:05:21|10=046|
2024-02-09 12:05:25.339 [31] [FixSender] (DEBUG) Receiving 8=FIX.4.4|9=62|35=0|34=102|49=DMA_HUB|56=FIXCLIENT1|52=20240209-11:05:25.339|10=029|
2024-02-09 12:05:51.109 [32] [FixSender] (DEBUG) Sending 8=FIX.4.4|9=57|35=0|49=FIXCLIENT1|56=DMA_HUB|34=99|52=20240209-11:05:51|10=050|
2024-02-09 12:05:55.288 [31] [FixSender] (DEBUG) Receiving 8=FIX.4.4|9=62|35=0|34=103|49=DMA_HUB|56=FIXCLIENT1|52=20240209-11:05:55.288|10=036|
2024-02-09 12:06:21.120 [32] [FixSender] (DEBUG) Sending 8=FIX.4.4|9=58|35=0|49=FIXCLIENT1|56=DMA_HUB|34=100|52=20240209-11:06:21|10=080|
2024-02-09 12:06:25.253 [31] [FixSender] (DEBUG) Receiving 8=FIX.4.4|9=62|35=0|34=104|49=DMA_HUB|56=FIXCLIENT1|52=20240209-11:06:25.253|10=027|
2024-02-09 12:06:51.125 [32] [FixSender] (DEBUG) Sending 8=FIX.4.4|9=58|35=0|49=FIXCLIENT1|56=DMA_HUB|34=101|52=20240209-11:06:51|10=084|
2024-02-09 12:06:55.196 [31] [FixSender] (DEBUG) Receiving 8=FIX.4.4|9=62|35=0|34=105|49=DMA_HUB|56=FIXCLIENT1|52=20240209-11:06:55.196|10=037|
2024-02-09 12:07:21.143 [32] [FixSender] (DEBUG) Sending 8=FIX.4.4|9=58|35=0|49=FIXCLIENT1|56=DMA_HUB|34=102|52=20240209-11:07:21|10=083|
2024-02-09 12:07:25.159 [31] [FixSender] (DEBUG) Receiving 8=FIX.4.4|9=62|35=0|34=106|49=DMA_HUB|56=FIXCLIENT1|52=20240209-11:07:25.159|10=035|
2024-02-09 12:07:51.145 [32] [FixSender] (DEBUG) Sending 8=FIX.4.4|9=58|35=0|49=FIXCLIENT1|56=DMA_HUB|34=103|52=20240209-11:07:51|10=087|
2024-02-09 12:07:55.097 [31] [FixSender] (DEBUG) Receiving 8=FIX.4.4|9=62|35=0|34=107|49=DMA_HUB|56=FIXCLIENT1|52=20240209-11:07:55.097|10=040|
2024-02-09 12:08:21.155 [32] [FixSender] (DEBUG) Sending 8=FIX.4.4|9=58|35=0|49=FIXCLIENT1|56=DMA_HUB|34=104|52=20240209-11:08:21|10=086|
2024-02-09 12:08:25.062 [31] [FixSender] (DEBUG) Receiving 8=FIX.4.4|9=62|35=0|34=108|49=DMA_HUB|56=FIXCLIENT1|52=20240209-11:08:25.062|10=031|
2024-02-09 12:08:51.157 [32] [FixSender] (DEBUG) Sending 8=FIX.4.4|9=58|35=0|49=FIXCLIENT1|56=DMA_HUB|34=105|52=20240209-11:08:51|10=090|
2024-02-09 12:08:55.005 [31] [FixSender] (DEBUG) Receiving 8=FIX.4.4|9=62|35=0|34=109|49=DMA_HUB|56=FIXCLIENT1|52=20240209-11:08:55.004|10=031|
2024-02-09 12:09:21.158 [32] [FixSender] (DEBUG) Sending 8=FIX.4.4|9=58|35=0|49=FIXCLIENT1|56=DMA_HUB|34=106|52=20240209-11:09:21|10=089|
2024-02-09 12:09:24.960 [31] [FixSender] (DEBUG) Receiving 8=FIX.4.4|9=62|35=0|34=110|49=DMA_HUB|56=FIXCLIENT1|52=20240209-11:09:24.959|10=039|
2024-02-09 12:09:51.163 [32] [FixSender] (DEBUG) Sending 8=FIX.4.4|9=58|35=0|49=FIXCLIENT1|56=DMA_HUB|34=107|52=20240209-11:09:51|10=093|
2024-02-09 12:09:54.918 [31] [FixSender] (DEBUG) Receiving 8=FIX.4.4|9=62|35=0|34=111|49=DMA_HUB|56=FIXCLIENT1|52=20240209-11:09:54.918|10=038|
2024-02-09 12:10:21.175 [32] [FixSender] (DEBUG) Sending 8=FIX.4.4|9=58|35=0|49=FIXCLIENT1|56=DMA_HUB|34=108|52=20240209-11:10:21|10=083|
2024-02-09 12:10:24.870 [31] [FixSender] (DEBUG) Receiving 8=FIX.4.4|9=62|35=0|34=112|49=DMA_HUB|56=FIXCLIENT1|52=20240209-11:10:24.870|10=025|
2024-02-09 12:10:51.176 [32] [FixSender] (DEBUG) Sending 8=FIX.4.4|9=58|35=0|49=FIXCLIENT1|56=DMA_HUB|34=109|52=20240209-11:10:51|10=087|
2024-02-09 12:10:54.812 [31] [FixSender] (DEBUG) Receiving 8=FIX.4.4|9=62|35=0|34=113|49=DMA_HUB|56=FIXCLIENT1|52=20240209-11:10:54.812|10=025|
2024-02-09 12:11:21.179 [32] [FixSender] (DEBUG) Sending 8=FIX.4.4|9=58|35=0|49=FIXCLIENT1|56=DMA_HUB|34=110|52=20240209-11:11:21|10=077|
2024-02-09 12:11:24.773 [31] [FixSender] (DEBUG) Receiving 8=FIX.4.4|9=62|35=0|34=114|49=DMA_HUB|56=FIXCLIENT1|52=20240209-11:11:24.773|10=030|
2024-02-09 12:11:51.184 [32] [FixSender] (DEBUG) Sending 8=FIX.4.4|9=58|35=0|49=FIXCLIENT1|56=DMA_HUB|34=111|52=20240209-11:11:51|10=081|
2024-02-09 12:11:54.714 [31] [FixSender] (DEBUG) Receiving 8=FIX.4.4|9=62|35=0|34=115|49=DMA_HUB|56=FIXCLIENT1|52=20240209-11:11:54.714|10=029|
2024-02-09 12:12:21.200 [32] [FixSender] (DEBUG) Sending 8=FIX.4.4|9=58|35=0|49=FIXCLIENT1|56=DMA_HUB|34=112|52=20240209-11:12:21|10=080|
2024-02-09 12:12:24.669 [31] [FixSender] (DEBUG) Receiving 8=FIX.4.4|9=62|35=0|34=116|49=DMA_HUB|56=FIXCLIENT1|52=20240209-11:12:24.669|10=037|
2024-02-09 12:12:51.208 [32] [FixSender] (DEBUG) Sending 8=FIX.4.4|9=58|35=0|49=FIXCLIENT1|56=DMA_HUB|34=113|52=20240209-11:12:51|10=084|
2024-02-09 12:12:54.617 [31] [FixSender] (DEBUG) Receiving 8=FIX.4.4|9=62|35=0|34=117|49=DMA_HUB|56=FIXCLIENT1|52=20240209-11:12:54.617|10=034|
2024-02-09 12:13:21.220 [32] [FixSender] (DEBUG) Sending 8=FIX.4.4|9=58|35=0|49=FIXCLIENT1|56=DMA_HUB|34=114|52=20240209-11:13:21|10=083|
2024-02-09 12:13:24.571 [31] [FixSender] (DEBUG) Receiving 8=FIX.4.4|9=62|35=0|34=118|49=DMA_HUB|56=FIXCLIENT1|52=20240209-11:13:24.571|10=032|
2024-02-09 12:13:51.229 [32] [FixSender] (DEBUG) Sending 8=FIX.4.4|9=58|35=0|49=FIXCLIENT1|56=DMA_HUB|34=115|52=20240209-11:13:51|10=087|
2024-02-09 12:13:54.531 [31] [FixSender] (DEBUG) Receiving 8=FIX.4.4|9=62|35=0|34=119|49=DMA_HUB|56=FIXCLIENT1|52=20240209-11:13:54.531|10=032|
2024-02-09 12:14:21.232 [32] [FixSender] (DEBUG) Sending 8=FIX.4.4|9=58|35=0|49=FIXCLIENT1|56=DMA_HUB|34=116|52=20240209-11:14:21|10=086|
2024-02-09 12:14:24.476 [31] [FixSender] (DEBUG) Receiving 8=FIX.4.4|9=62|35=0|34=120|49=DMA_HUB|56=FIXCLIENT1|52=20240209-11:14:24.476|10=030|
2024-02-09 12:14:51.243 [32] [FixSender] (DEBUG) Sending 8=FIX.4.4|9=58|35=0|49=FIXCLIENT1|56=DMA_HUB|34=117|52=20240209-11:14:51|10=090|
2024-02-09 12:14:54.427 [31] [FixSender] (DEBUG) Receiving 8=FIX.4.4|9=62|35=0|34=121|49=DMA_HUB|56=FIXCLIENT1|52=20240209-11:14:54.427|10=030|
2024-02-09 12:15:21.257 [32] [FixSender] (DEBUG) Sending 8=FIX.4.4|9=58|35=0|49=FIXCLIENT1|56=DMA_HUB|34=118|52=20240209-11:15:21|10=089|
2024-02-09 12:15:24.380 [31] [FixSender] (DEBUG) Receiving 8=FIX.4.4|9=62|35=0|34=122|49=DMA_HUB|56=FIXCLIENT1|52=20240209-11:15:24.380|10=027|
2024-02-09 12:15:51.272 [32] [FixSender] (DEBUG) Sending 8=FIX.4.4|9=58|35=0|49=FIXCLIENT1|56=DMA_HUB|34=119|52=20240209-11:15:51|10=093|
2024-02-09 12:15:54.336 [31] [FixSender] (DEBUG) Receiving 8=FIX.4.4|9=62|35=0|34=123|49=DMA_HUB|56=FIXCLIENT1|52=20240209-11:15:54.335|10=031|
2024-02-09 12:16:21.281 [32] [FixSender] (DEBUG) Sending 8=FIX.4.4|9=58|35=0|49=FIXCLIENT1|56=DMA_HUB|34=120|52=20240209-11:16:21|10=083|
2024-02-09 12:16:24.286 [31] [FixSender] (DEBUG) Receiving 8=FIX.4.4|9=62|35=0|34=124|49=DMA_HUB|56=FIXCLIENT1|52=20240209-11:16:24.285|10=034|
2024-02-09 12:16:51.292 [32] [FixSender] (DEBUG) Sending 8=FIX.4.4|9=58|35=0|49=FIXCLIENT1|56=DMA_HUB|34=121|52=20240209-11:16:51|10=087|
2024-02-09 12:16:54.234 [31] [FixSender] (DEBUG) Receiving 8=FIX.4.4|9=62|35=0|34=125|49=DMA_HUB|56=FIXCLIENT1|52=20240209-11:16:54.234|10=032|
2024-02-09 12:17:21.303 [32] [FixSender] (DEBUG) Sending 8=FIX.4.4|9=58|35=0|49=FIXCLIENT1|56=DMA_HUB|34=122|52=20240209-11:17:21|10=086|
2024-02-09 12:17:24.185 [31] [FixSender] (DEBUG) Receiving 8=FIX.4.4|9=62|35=0|34=126|49=DMA_HUB|56=FIXCLIENT1|52=20240209-11:17:24.185|10=036|
2024-02-09 12:17:51.317 [32] [FixSender] (DEBUG) Sending 8=FIX.4.4|9=58|35=0|49=FIXCLIENT1|56=DMA_HUB|34=123|52=20240209-11:17:51|10=090|
2024-02-09 12:17:54.137 [31] [FixSender] (DEBUG) Receiving 8=FIX.4.4|9=62|35=0|34=127|49=DMA_HUB|56=FIXCLIENT1|52=20240209-11:17:54.137|10=037|
2024-02-09 12:18:21.325 [32] [FixSender] (DEBUG) Sending 8=FIX.4.4|9=58|35=0|49=FIXCLIENT1|56=DMA_HUB|34=124|52=20240209-11:18:21|10=089|
2024-02-09 12:18:24.101 [31] [FixSender] (DEBUG) Receiving 8=FIX.4.4|9=62|35=0|34=128|49=DMA_HUB|56=FIXCLIENT1|52=20240209-11:18:24.101|10=027|
2024-02-09 12:18:51.335 [32] [FixSender] (DEBUG) Sending 8=FIX.4.4|9=58|35=0|49=FIXCLIENT1|56=DMA_HUB|34=125|52=20240209-11:18:51|10=093|
2024-02-09 12:18:54.052 [31] [FixSender] (DEBUG) Receiving 8=FIX.4.4|9=62|35=0|34=129|49=DMA_HUB|56=FIXCLIENT1|52=20240209-11:18:54.052|10=036|
2024-02-09 12:19:21.344 [32] [FixSender] (DEBUG) Sending 8=FIX.4.4|9=58|35=0|49=FIXCLIENT1|56=DMA_HUB|34=126|52=20240209-11:19:21|10=092|
2024-02-09 12:19:23.998 [31] [FixSender] (DEBUG) Receiving 8=FIX.4.4|9=62|35=0|34=130|49=DMA_HUB|56=FIXCLIENT1|52=20240209-11:19:23.998|10=044|
2024-02-09 12:19:51.351 [32] [FixSender] (DEBUG) Sending 8=FIX.4.4|9=58|35=0|49=FIXCLIENT1|56=DMA_HUB|34=127|52=20240209-11:19:51|10=096|
2024-02-09 12:19:53.946 [31] [FixSender] (DEBUG) Receiving 8=FIX.4.4|9=62|35=0|34=131|49=DMA_HUB|56=FIXCLIENT1|52=20240209-11:19:53.946|10=041|
2024-02-09 12:20:21.357 [32] [FixSender] (DEBUG) Sending 8=FIX.4.4|9=58|35=0|49=FIXCLIENT1|56=DMA_HUB|34=128|52=20240209-11:20:21|10=086|
2024-02-09 12:20:23.907 [31] [FixSender] (DEBUG) Receiving 8=FIX.4.4|9=62|35=0|34=132|49=DMA_HUB|56=FIXCLIENT1|52=20240209-11:20:23.907|10=028|
2024-02-09 12:20:51.372 [32] [FixSender] (DEBUG) Sending 8=FIX.4.4|9=58|35=0|49=FIXCLIENT1|56=DMA_HUB|34=129|52=20240209-11:20:51|10=090|
2024-02-09 12:20:53.861 [31] [FixSender] (DEBUG) Receiving 8=FIX.4.4|9=62|35=0|34=133|49=DMA_HUB|56=FIXCLIENT1|52=20240209-11:20:53.861|10=031|
2024-02-09 12:21:21.379 [32] [FixSender] (DEBUG) Sending 8=FIX.4.4|9=58|35=0|49=FIXCLIENT1|56=DMA_HUB|34=130|52=20240209-11:21:21|10=080|
2024-02-09 12:21:23.810 [31] [FixSender] (DEBUG) Receiving 8=FIX.4.4|9=62|35=0|34=134|49=DMA_HUB|56=FIXCLIENT1|52=20240209-11:21:23.810|10=024|
2024-02-09 12:21:51.386 [32] [FixSender] (DEBUG) Sending 8=FIX.4.4|9=58|35=0|49=FIXCLIENT1|56=DMA_HUB|34=131|52=20240209-11:21:51|10=084|
2024-02-09 12:21:53.756 [31] [FixSender] (DEBUG) Receiving 8=FIX.4.4|9=62|35=0|34=135|49=DMA_HUB|56=FIXCLIENT1|52=20240209-11:21:53.756|10=037|
2024-02-09 12:22:21.396 [32] [FixSender] (DEBUG) Sending 8=FIX.4.4|9=58|35=0|49=FIXCLIENT1|56=DMA_HUB|34=132|52=20240209-11:22:21|10=083|
2024-02-09 12:22:23.705 [31] [FixSender] (DEBUG) Receiving 8=FIX.4.4|9=62|35=0|34=136|49=DMA_HUB|56=FIXCLIENT1|52=20240209-11:22:23.705|10=030|
2024-02-09 12:22:51.402 [32] [FixSender] (DEBUG) Sending 8=FIX.4.4|9=58|35=0|49=FIXCLIENT1|56=DMA_HUB|34=133|52=20240209-11:22:51|10=087|
2024-02-09 12:22:53.663 [31] [FixSender] (DEBUG) Receiving 8=FIX.4.4|9=62|35=0|34=137|49=DMA_HUB|56=FIXCLIENT1|52=20240209-11:22:53.663|10=037|
2024-02-09 12:23:21.411 [32] [FixSender] (DEBUG) Sending 8=FIX.4.4|9=58|35=0|49=FIXCLIENT1|56=DMA_HUB|34=134|52=20240209-11:23:21|10=086|
2024-02-09 12:23:23.614 [31] [FixSender] (DEBUG) Receiving 8=FIX.4.4|9=62|35=0|34=138|49=DMA_HUB|56=FIXCLIENT1|52=20240209-11:23:23.614|10=032|
2024-02-09 12:23:51.426 [32] [FixSender] (DEBUG) Sending 8=FIX.4.4|9=58|35=0|49=FIXCLIENT1|56=DMA_HUB|34=135|52=20240209-11:23:51|10=090|
2024-02-09 12:23:53.569 [31] [FixSender] (DEBUG) Receiving 8=FIX.4.4|9=62|35=0|34=139|49=DMA_HUB|56=FIXCLIENT1|52=20240209-11:23:53.569|10=045|
2024-02-09 12:24:21.435 [32] [FixSender] (DEBUG) Sending 8=FIX.4.4|9=58|35=0|49=FIXCLIENT1|56=DMA_HUB|34=136|52=20240209-11:24:21|10=089|
2024-02-09 12:24:23.518 [31] [FixSender] (DEBUG) Receiving 8=FIX.4.4|9=62|35=0|34=140|49=DMA_HUB|56=FIXCLIENT1|52=20240209-11:24:23.518|10=029|
2024-02-09 12:24:51.447 [32] [FixSender] (DEBUG) Sending 8=FIX.4.4|9=58|35=0|49=FIXCLIENT1|56=DMA_HUB|34=137|52=20240209-11:24:51|10=093|
2024-02-09 12:24:53.469 [31] [FixSender] (DEBUG) Receiving 8=FIX.4.4|9=62|35=0|34=141|49=DMA_HUB|56=FIXCLIENT1|52=20240209-11:24:53.469|10=038|
2024-02-09 12:25:21.452 [32] [FixSender] (DEBUG) Sending 8=FIX.4.4|9=58|35=0|49=FIXCLIENT1|56=DMA_HUB|34=138|52=20240209-11:25:21|10=092|
2024-02-09 12:25:23.428 [31] [FixSender] (DEBUG) Receiving 8=FIX.4.4|9=62|35=0|34=142|49=DMA_HUB|56=FIXCLIENT1|52=20240209-11:25:23.428|10=032|
2024-02-09 12:25:51.455 [32] [FixSender] (DEBUG) Sending 8=FIX.4.4|9=58|35=0|49=FIXCLIENT1|56=DMA_HUB|34=139|52=20240209-11:25:51|10=096|
2024-02-09 12:25:53.371 [31] [FixSender] (DEBUG) Receiving 8=FIX.4.4|9=62|35=0|34=143|49=DMA_HUB|56=FIXCLIENT1|52=20240209-11:25:53.371|10=033|
2024-02-09 12:26:21.457 [32] [FixSender] (DEBUG) Sending 8=FIX.4.4|9=58|35=0|49=FIXCLIENT1|56=DMA_HUB|34=140|52=20240209-11:26:21|10=086|
2024-02-09 12:26:23.327 [31] [FixSender] (DEBUG) Receiving 8=FIX.4.4|9=62|35=0|34=144|49=DMA_HUB|56=FIXCLIENT1|52=20240209-11:26:23.327|10=033|
2024-02-09 12:26:51.470 [32] [FixSender] (DEBUG) Sending 8=FIX.4.4|9=58|35=0|49=FIXCLIENT1|56=DMA_HUB|34=141|52=20240209-11:26:51|10=090|
2024-02-09 12:26:53.281 [31] [FixSender] (DEBUG) Receiving 8=FIX.4.4|9=62|35=0|34=145|49=DMA_HUB|56=FIXCLIENT1|52=20240209-11:26:53.281|10=036|
2024-02-09 12:27:21.486 [32] [FixSender] (DEBUG) Sending 8=FIX.4.4|9=58|35=0|49=FIXCLIENT1|56=DMA_HUB|34=142|52=20240209-11:27:21|10=089|
2024-02-09 12:27:23.235 [31] [FixSender] (DEBUG) Receiving 8=FIX.4.4|9=62|35=0|34=146|49=DMA_HUB|56=FIXCLIENT1|52=20240209-11:27:23.235|10=034|
2024-02-09 12:27:51.501 [32] [FixSender] (DEBUG) Sending 8=FIX.4.4|9=58|35=0|49=FIXCLIENT1|56=DMA_HUB|34=143|52=20240209-11:27:51|10=093|
2024-02-09 12:27:53.176 [31] [FixSender] (DEBUG) Receiving 8=FIX.4.4|9=62|35=0|34=147|49=DMA_HUB|56=FIXCLIENT1|52=20240209-11:27:53.176|10=042|
2024-02-09 12:28:21.507 [32] [FixSender] (DEBUG) Sending 8=FIX.4.4|9=58|35=0|49=FIXCLIENT1|56=DMA_HUB|34=144|52=20240209-11:28:21|10=092|
2024-02-09 12:28:23.136 [31] [FixSender] (DEBUG) Receiving 8=FIX.4.4|9=62|35=0|34=148|49=DMA_HUB|56=FIXCLIENT1|52=20240209-11:28:23.136|10=037|
2024-02-09 12:28:51.522 [32] [FixSender] (DEBUG) Sending 8=FIX.4.4|9=58|35=0|49=FIXCLIENT1|56=DMA_HUB|34=145|52=20240209-11:28:51|10=096|
2024-02-09 12:28:53.092 [31] [FixSender] (DEBUG) Receiving 8=FIX.4.4|9=62|35=0|34=149|49=DMA_HUB|56=FIXCLIENT1|52=20240209-11:28:53.092|10=042|
2024-02-09 12:29:21.524 [32] [FixSender] (DEBUG) Sending 8=FIX.4.4|9=58|35=0|49=FIXCLIENT1|56=DMA_HUB|34=146|52=20240209-11:29:21|10=095|
2024-02-09 12:29:23.032 [31] [FixSender] (DEBUG) Receiving 8=FIX.4.4|9=62|35=0|34=150|49=DMA_HUB|56=FIXCLIENT1|52=20240209-11:29:23.032|10=026|
2024-02-09 12:29:51.527 [32] [FixSender] (DEBUG) Sending 8=FIX.4.4|9=58|35=0|49=FIXCLIENT1|56=DMA_HUB|34=147|52=20240209-11:29:51|10=099|
2024-02-09 12:29:52.989 [31] [FixSender] (DEBUG) Receiving 8=FIX.4.4|9=62|35=0|34=151|49=DMA_HUB|56=FIXCLIENT1|52=20240209-11:29:52.989|10=050|
2024-02-09 12:30:21.537 [32] [FixSender] (DEBUG) Sending 8=FIX.4.4|9=58|35=0|49=FIXCLIENT1|56=DMA_HUB|34=148|52=20240209-11:30:21|10=089|
2024-02-09 12:30:22.939 [31] [FixSender] (DEBUG) Receiving 8=FIX.4.4|9=62|35=0|34=152|49=DMA_HUB|56=FIXCLIENT1|52=20240209-11:30:22.939|10=035|
2024-02-09 12:30:51.547 [32] [FixSender] (DEBUG) Sending 8=FIX.4.4|9=58|35=0|49=FIXCLIENT1|56=DMA_HUB|34=149|52=20240209-11:30:51|10=093|
2024-02-09 12:30:52.890 [31] [FixSender] (DEBUG) Receiving 8=FIX.4.4|9=62|35=0|34=153|49=DMA_HUB|56=FIXCLIENT1|52=20240209-11:30:52.890|10=035|
2024-02-09 12:31:21.559 [32] [FixSender] (DEBUG) Sending 8=FIX.4.4|9=58|35=0|49=FIXCLIENT1|56=DMA_HUB|34=150|52=20240209-11:31:21|10=083|
2024-02-09 12:31:22.849 [31] [FixSender] (DEBUG) Receiving 8=FIX.4.4|9=62|35=0|34=154|49=DMA_HUB|56=FIXCLIENT1|52=20240209-11:31:22.848|10=037|
2024-02-09 12:31:51.569 [32] [FixSender] (DEBUG) Sending 8=FIX.4.4|9=58|35=0|49=FIXCLIENT1|56=DMA_HUB|34=151|52=20240209-11:31:51|10=087|
2024-02-09 12:31:52.805 [31] [FixSender] (DEBUG) Receiving 8=FIX.4.4|9=62|35=0|34=155|49=DMA_HUB|56=FIXCLIENT1|52=20240209-11:31:52.805|10=034|
2024-02-09 12:32:21.580 [32] [FixSender] (DEBUG) Sending 8=FIX.4.4|9=58|35=0|49=FIXCLIENT1|56=DMA_HUB|34=152|52=20240209-11:32:21|10=086|
2024-02-09 12:32:22.872 [31] [FixSender] (DEBUG) Receiving 8=FIX.4.4|9=62|35=0|34=156|49=DMA_HUB|56=FIXCLIENT1|52=20240209-11:32:22.869|10=043|
2024-02-09 12:32:51.590 [32] [FixSender] (DEBUG) Sending 8=FIX.4.4|9=58|35=0|49=FIXCLIENT1|56=DMA_HUB|34=153|52=20240209-11:32:51|10=090|
2024-02-09 12:32:52.827 [31] [FixSender] (DEBUG) Receiving 8=FIX.4.4|9=62|35=0|34=157|49=DMA_HUB|56=FIXCLIENT1|52=20240209-11:32:52.827|10=041|
2024-02-09 12:33:21.602 [32] [FixSender] (DEBUG) Sending 8=FIX.4.4|9=58|35=0|49=FIXCLIENT1|56=DMA_HUB|34=154|52=20240209-11:33:21|10=089|
2024-02-09 12:33:22.778 [31] [FixSender] (DEBUG) Receiving 8=FIX.4.4|9=62|35=0|34=158|49=DMA_HUB|56=FIXCLIENT1|52=20240209-11:33:22.778|10=045|
2024-02-09 12:33:51.606 [32] [FixSender] (DEBUG) Sending 8=FIX.4.4|9=58|35=0|49=FIXCLIENT1|56=DMA_HUB|34=155|52=20240209-11:33:51|10=093|
2024-02-09 12:33:52.738 [31] [FixSender] (DEBUG) Receiving 8=FIX.4.4|9=62|35=0|34=159|49=DMA_HUB|56=FIXCLIENT1|52=20240209-11:33:52.738|10=045|
2024-02-09 12:34:21.621 [32] [FixSender] (DEBUG) Sending 8=FIX.4.4|9=58|35=0|49=FIXCLIENT1|56=DMA_HUB|34=156|52=20240209-11:34:21|10=092|
2024-02-09 12:34:22.691 [31] [FixSender] (DEBUG) Receiving 8=FIX.4.4|9=62|35=0|34=160|49=DMA_HUB|56=FIXCLIENT1|52=20240209-11:34:22.691|10=033|
2024-02-09 12:34:51.623 [32] [FixSender] (DEBUG) Sending 8=FIX.4.4|9=58|35=0|49=FIXCLIENT1|56=DMA_HUB|34=157|52=20240209-11:34:51|10=096|
2024-02-09 12:34:52.633 [31] [FixSender] (DEBUG) Receiving 8=FIX.4.4|9=62|35=0|34=161|49=DMA_HUB|56=FIXCLIENT1|52=20240209-11:34:52.633|10=033|
2024-02-09 12:35:21.633 [32] [FixSender] (DEBUG) Sending 8=FIX.4.4|9=58|35=0|49=FIXCLIENT1|56=DMA_HUB|34=158|52=20240209-11:35:21|10=095|
2024-02-09 12:35:22.598 [31] [FixSender] (DEBUG) Receiving 8=FIX.4.4|9=62|35=0|34=162|49=DMA_HUB|56=FIXCLIENT1|52=20240209-11:35:22.598|10=042|
2024-02-09 12:35:51.636 [32] [FixSender] (DEBUG) Sending 8=FIX.4.4|9=58|35=0|49=FIXCLIENT1|56=DMA_HUB|34=159|52=20240209-11:35:51|10=099|
2024-02-09 12:35:52.540 [31] [FixSender] (DEBUG) Receiving 8=FIX.4.4|9=62|35=0|34=163|49=DMA_HUB|56=FIXCLIENT1|52=20240209-11:35:52.540|10=033|
2024-02-09 12:36:21.642 [32] [FixSender] (DEBUG) Sending 8=FIX.4.4|9=58|35=0|49=FIXCLIENT1|56=DMA_HUB|34=160|52=20240209-11:36:21|10=089|
2024-02-09 12:36:22.502 [31] [FixSender] (DEBUG) Receiving 8=FIX.4.4|9=62|35=0|34=164|49=DMA_HUB|56=FIXCLIENT1|52=20240209-11:36:22.502|10=030|
2024-02-09 12:36:51.649 [32] [FixSender] (DEBUG) Sending 8=FIX.4.4|9=58|35=0|49=FIXCLIENT1|56=DMA_HUB|34=161|52=20240209-11:36:51|10=093|
2024-02-09 12:36:52.450 [31] [FixSender] (DEBUG) Receiving 8=FIX.4.4|9=62|35=0|34=165|49=DMA_HUB|56=FIXCLIENT1|52=20240209-11:36:52.449|10=044|
2024-02-09 12:37:21.658 [32] [FixSender] (DEBUG) Sending 8=FIX.4.4|9=58|35=0|49=FIXCLIENT1|56=DMA_HUB|34=162|52=20240209-11:37:21|10=092|
2024-02-09 12:37:22.398 [31] [FixSender] (DEBUG) Receiving 8=FIX.4.4|9=62|35=0|34=166|49=DMA_HUB|56=FIXCLIENT1|52=20240209-11:37:22.398|10=046|
2024-02-09 12:37:51.661 [32] [FixSender] (DEBUG) Sending 8=FIX.4.4|9=58|35=0|49=FIXCLIENT1|56=DMA_HUB|34=163|52=20240209-11:37:51|10=096|
2024-02-09 12:37:52.354 [31] [FixSender] (DEBUG) Receiving 8=FIX.4.4|9=62|35=0|34=167|49=DMA_HUB|56=FIXCLIENT1|52=20240209-11:37:52.354|10=042|
2024-02-09 12:38:21.671 [32] [FixSender] (DEBUG) Sending 8=FIX.4.4|9=58|35=0|49=FIXCLIENT1|56=DMA_HUB|34=164|52=20240209-11:38:21|10=095|
2024-02-09 12:38:22.317 [31] [FixSender] (DEBUG) Receiving 8=FIX.4.4|9=62|35=0|34=168|49=DMA_HUB|56=FIXCLIENT1|52=20240209-11:38:22.315|10=038|
2024-02-09 12:38:51.673 [32] [FixSender] (DEBUG) Sending 8=FIX.4.4|9=58|35=0|49=FIXCLIENT1|56=DMA_HUB|34=165|52=20240209-11:38:51|10=099|
2024-02-09 12:38:52.321 [31] [FixSender] (DEBUG) Receiving 8=FIX.4.4|9=62|35=0|34=169|49=DMA_HUB|56=FIXCLIENT1|52=20240209-11:38:52.321|10=039|
2024-02-09 12:39:21.686 [32] [FixSender] (DEBUG) Sending 8=FIX.4.4|9=58|35=0|49=FIXCLIENT1|56=DMA_HUB|34=166|52=20240209-11:39:21|10=098|
2024-02-09 12:39:22.274 [31] [FixSender] (DEBUG) Receiving 8=FIX.4.4|9=62|35=0|34=170|49=DMA_HUB|56=FIXCLIENT1|52=20240209-11:39:22.274|10=036|
2024-02-09 12:39:51.693 [32] [FixSender] (DEBUG) Sending 8=FIX.4.4|9=58|35=0|49=FIXCLIENT1|56=DMA_HUB|34=167|52=20240209-11:39:51|10=102|
2024-02-09 12:39:52.221 [31] [FixSender] (DEBUG) Receiving 8=FIX.4.4|9=62|35=0|34=171|49=DMA_HUB|56=FIXCLIENT1|52=20240209-11:39:52.221|10=032|
2024-02-09 12:40:21.697 [32] [FixSender] (DEBUG) Sending 8=FIX.4.4|9=58|35=0|49=FIXCLIENT1|56=DMA_HUB|34=168|52=20240209-11:40:21|10=092|
2024-02-09 12:40:22.180 [31] [FixSender] (DEBUG) Receiving 8=FIX.4.4|9=62|35=0|34=172|49=DMA_HUB|56=FIXCLIENT1|52=20240209-11:40:22.180|10=026|
2024-02-09 12:40:51.700 [32] [FixSender] (DEBUG) Sending 8=FIX.4.4|9=58|35=0|49=FIXCLIENT1|56=DMA_HUB|34=169|52=20240209-11:40:51|10=096|
2024-02-09 12:40:52.124 [31] [FixSender] (DEBUG) Receiving 8=FIX.4.4|9=62|35=0|34=173|49=DMA_HUB|56=FIXCLIENT1|52=20240209-11:40:52.123|10=027|
2024-02-09 12:41:21.713 [32] [FixSender] (DEBUG) Sending 8=FIX.4.4|9=58|35=0|49=FIXCLIENT1|56=DMA_HUB|34=170|52=20240209-11:41:21|10=086|
2024-02-09 12:41:22.074 [31] [FixSender] (DEBUG) Receiving 8=FIX.4.4|9=62|35=0|34=174|49=DMA_HUB|56=FIXCLIENT1|52=20240209-11:41:22.074|10=031|
2024-02-09 12:41:51.720 [32] [FixSender] (DEBUG) Sending 8=FIX.4.4|9=58|35=0|49=FIXCLIENT1|56=DMA_HUB|34=171|52=20240209-11:41:51|10=090|
2024-02-09 12:41:52.037 [31] [FixSender] (DEBUG) Receiving 8=FIX.4.4|9=62|35=0|34=175|49=DMA_HUB|56=FIXCLIENT1|52=20240209-11:41:52.037|10=034|
2024-02-09 12:42:21.729 [32] [FixSender] (DEBUG) Sending 8=FIX.4.4|9=58|35=0|49=FIXCLIENT1|56=DMA_HUB|34=172|52=20240209-11:42:21|10=089|
2024-02-09 12:42:21.987 [31] [FixSender] (DEBUG) Receiving 8=FIX.4.4|9=62|35=0|34=176|49=DMA_HUB|56=FIXCLIENT1|52=20240209-11:42:21.987|10=046|
2024-02-09 12:42:51.734 [32] [FixSender] (DEBUG) Sending 8=FIX.4.4|9=58|35=0|49=FIXCLIENT1|56=DMA_HUB|34=173|52=20240209-11:42:51|10=093|
2024-02-09 12:42:51.930 [31] [FixSender] (DEBUG) Receiving 8=FIX.4.4|9=62|35=0|34=177|49=DMA_HUB|56=FIXCLIENT1|52=20240209-11:42:51.930|10=038|
2024-02-09 12:43:21.739 [32] [FixSender] (DEBUG) Sending 8=FIX.4.4|9=58|35=0|49=FIXCLIENT1|56=DMA_HUB|34=174|52=20240209-11:43:21|10=092|
2024-02-09 12:43:21.890 [31] [FixSender] (DEBUG) Receiving 8=FIX.4.4|9=62|35=0|34=178|49=DMA_HUB|56=FIXCLIENT1|52=20240209-11:43:21.890|10=042|
2024-02-09 12:43:51.743 [32] [FixSender] (DEBUG) Sending 8=FIX.4.4|9=58|35=0|49=FIXCLIENT1|56=DMA_HUB|34=175|52=20240209-11:43:51|10=096|
2024-02-09 12:43:51.833 [31] [FixSender] (DEBUG) Receiving 8=FIX.4.4|9=62|35=0|34=179|49=DMA_HUB|56=FIXCLIENT1|52=20240209-11:43:51.833|10=043|
2024-02-09 12:44:21.759 [32] [FixSender] (DEBUG) Sending 8=FIX.4.4|9=58|35=0|49=FIXCLIENT1|56=DMA_HUB|34=176|52=20240209-11:44:21|10=095|
2024-02-09 12:44:21.790 [31] [FixSender] (DEBUG) Receiving 8=FIX.4.4|9=62|35=0|34=180|49=DMA_HUB|56=FIXCLIENT1|52=20240209-11:44:21.790|10=035|
2024-02-09 12:44:51.744 [31] [FixSender] (DEBUG) Receiving 8=FIX.4.4|9=62|35=0|34=181|49=DMA_HUB|56=FIXCLIENT1|52=20240209-11:44:51.744|10=038|
2024-02-09 12:44:51.774 [32] [FixSender] (DEBUG) Sending 8=FIX.4.4|9=58|35=0|49=FIXCLIENT1|56=DMA_HUB|34=177|52=20240209-11:44:51|10=099|
2024-02-09 12:45:21.699 [31] [FixSender] (DEBUG) Receiving 8=FIX.4.4|9=62|35=0|34=182|49=DMA_HUB|56=FIXCLIENT1|52=20240209-11:45:21.699|10=046|
2024-02-09 12:45:21.790 [32] [FixSender] (DEBUG) Sending 8=FIX.4.4|9=58|35=0|49=FIXCLIENT1|56=DMA_HUB|34=178|52=20240209-11:45:21|10=098|
2024-02-09 12:45:51.652 [31] [FixSender] (DEBUG) Receiving 8=FIX.4.4|9=62|35=0|34=183|49=DMA_HUB|56=FIXCLIENT1|52=20240209-11:45:51.647|10=043|
2024-02-09 12:45:51.803 [32] [FixSender] (DEBUG) Sending 8=FIX.4.4|9=58|35=0|49=FIXCLIENT1|56=DMA_HUB|34=179|52=20240209-11:45:51|10=102|
2024-02-09 12:46:21.607 [31] [FixSender] (DEBUG) Receiving 8=FIX.4.4|9=62|35=0|34=184|49=DMA_HUB|56=FIXCLIENT1|52=20240209-11:46:21.607|10=038|
2024-02-09 12:46:21.818 [32] [FixSender] (DEBUG) Sending 8=FIX.4.4|9=58|35=0|49=FIXCLIENT1|56=DMA_HUB|34=180|52=20240209-11:46:21|10=092|
2024-02-09 12:46:51.575 [31] [FixSender] (DEBUG) Receiving 8=FIX.4.4|9=62|35=0|34=185|49=DMA_HUB|56=FIXCLIENT1|52=20240209-11:46:51.557|10=046|
2024-02-09 12:46:51.831 [32] [FixSender] (DEBUG) Sending 8=FIX.4.4|9=58|35=0|49=FIXCLIENT1|56=DMA_HUB|34=181|52=20240209-11:46:51|10=096|
2024-02-09 12:47:21.507 [31] [FixSender] (DEBUG) Receiving 8=FIX.4.4|9=62|35=0|34=186|49=DMA_HUB|56=FIXCLIENT1|52=20240209-11:47:21.507|10=040|
2024-02-09 12:47:21.838 [32] [FixSender] (DEBUG) Sending 8=FIX.4.4|9=58|35=0|49=FIXCLIENT1|56=DMA_HUB|34=182|52=20240209-11:47:21|10=095|
2024-02-09 12:47:51.462 [31] [FixSender] (DEBUG) Receiving 8=FIX.4.4|9=62|35=0|34=187|49=DMA_HUB|56=FIXCLIENT1|52=20240209-11:47:51.462|10=044|
2024-02-09 12:47:51.853 [32] [FixSender] (DEBUG) Sending 8=FIX.4.4|9=58|35=0|49=FIXCLIENT1|56=DMA_HUB|34=183|52=20240209-11:47:51|10=099|
2024-02-09 12:48:21.401 [31] [FixSender] (DEBUG) Receiving 8=FIX.4.4|9=62|35=0|34=188|49=DMA_HUB|56=FIXCLIENT1|52=20240209-11:48:21.401|10=036|
2024-02-09 12:48:21.868 [32] [FixSender] (DEBUG) Sending 8=FIX.4.4|9=58|35=0|49=FIXCLIENT1|56=DMA_HUB|34=184|52=20240209-11:48:21|10=098|
2024-02-09 12:48:51.361 [31] [FixSender] (DEBUG) Receiving 8=FIX.4.4|9=62|35=0|34=189|49=DMA_HUB|56=FIXCLIENT1|52=20240209-11:48:51.357|10=050|
2024-02-09 12:48:51.970 [32] [FixSender] (DEBUG) Sending 8=FIX.4.4|9=58|35=0|49=FIXCLIENT1|56=DMA_HUB|34=185|52=20240209-11:48:51|10=102|
2024-02-09 12:49:21.311 [31] [FixSender] (DEBUG) Receiving 8=FIX.4.4|9=62|35=0|34=190|49=DMA_HUB|56=FIXCLIENT1|52=20240209-11:49:21.310|10=029|
2024-02-09 12:49:21.974 [32] [FixSender] (DEBUG) Sending 8=FIX.4.4|9=58|35=0|49=FIXCLIENT1|56=DMA_HUB|34=186|52=20240209-11:49:21|10=101|
2024-02-09 12:49:51.269 [31] [FixSender] (DEBUG) Receiving 8=FIX.4.4|9=62|35=0|34=191|49=DMA_HUB|56=FIXCLIENT1|52=20240209-11:49:51.269|10=046|
2024-02-09 12:49:51.981 [32] [FixSender] (DEBUG) Sending 8=FIX.4.4|9=58|35=0|49=FIXCLIENT1|56=DMA_HUB|34=187|52=20240209-11:49:51|10=105|
2024-02-09 12:50:21.212 [31] [FixSender] (DEBUG) Receiving 8=FIX.4.4|9=62|35=0|34=192|49=DMA_HUB|56=FIXCLIENT1|52=20240209-11:50:21.211|10=023|
2024-02-09 12:50:21.996 [32] [FixSender] (DEBUG) Sending 8=FIX.4.4|9=58|35=0|49=FIXCLIENT1|56=DMA_HUB|34=188|52=20240209-11:50:21|10=095|
2024-02-09 12:50:51.162 [31] [FixSender] (DEBUG) Receiving 8=FIX.4.4|9=62|35=0|34=193|49=DMA_HUB|56=FIXCLIENT1|52=20240209-11:50:51.162|10=032|
2024-02-09 12:50:52.005 [32] [FixSender] (DEBUG) Sending 8=FIX.4.4|9=58|35=0|49=FIXCLIENT1|56=DMA_HUB|34=189|52=20240209-11:50:52|10=100|
2024-02-09 12:51:21.124 [31] [FixSender] (DEBUG) Receiving 8=FIX.4.4|9=62|35=0|34=194|49=DMA_HUB|56=FIXCLIENT1|52=20240209-11:51:21.123|10=028|
2024-02-09 12:51:22.010 [32] [FixSender] (DEBUG) Sending 8=FIX.4.4|9=58|35=0|49=FIXCLIENT1|56=DMA_HUB|34=190|52=20240209-11:51:22|10=090|
2024-02-09 12:51:51.074 [31] [FixSender] (DEBUG) Receiving 8=FIX.4.4|9=62|35=0|34=195|49=DMA_HUB|56=FIXCLIENT1|52=20240209-11:51:51.073|10=036|
2024-02-09 12:51:52.014 [32] [FixSender] (DEBUG) Sending 8=FIX.4.4|9=58|35=0|49=FIXCLIENT1|56=DMA_HUB|34=191|52=20240209-11:51:52|10=094|
2024-02-09 12:52:21.066 [31] [FixSender] (DEBUG) Receiving 8=FIX.4.4|9=62|35=0|34=196|49=DMA_HUB|56=FIXCLIENT1|52=20240209-11:52:21.028|10=035|
2024-02-09 12:52:22.027 [32] [FixSender] (DEBUG) Sending 8=FIX.4.4|9=58|35=0|49=FIXCLIENT1|56=DMA_HUB|34=192|52=20240209-11:52:22|10=093|
2024-02-09 12:52:50.972 [31] [FixSender] (DEBUG) Receiving 8=FIX.4.4|9=62|35=0|34=197|49=DMA_HUB|56=FIXCLIENT1|52=20240209-11:52:50.971|10=045|
2024-02-09 12:52:52.034 [32] [FixSender] (DEBUG) Sending 8=FIX.4.4|9=58|35=0|49=FIXCLIENT1|56=DMA_HUB|34=193|52=20240209-11:52:52|10=097|
2024-02-09 12:53:20.931 [31] [FixSender] (DEBUG) Receiving 8=FIX.4.4|9=62|35=0|34=198|49=DMA_HUB|56=FIXCLIENT1|52=20240209-11:53:20.930|10=039|
2024-02-09 12:53:22.048 [32] [FixSender] (DEBUG) Sending 8=FIX.4.4|9=58|35=0|49=FIXCLIENT1|56=DMA_HUB|34=194|52=20240209-11:53:22|10=096|
2024-02-09 12:53:50.881 [31] [FixSender] (DEBUG) Receiving 8=FIX.4.4|9=62|35=0|34=199|49=DMA_HUB|56=FIXCLIENT1|52=20240209-11:53:50.880|10=047|
2024-02-09 12:53:52.087 [32] [FixSender] (DEBUG) Sending 8=FIX.4.4|9=58|35=0|49=FIXCLIENT1|56=DMA_HUB|34=195|52=20240209-11:53:52|10=100|
2024-02-09 12:54:20.828 [31] [FixSender] (DEBUG) Receiving 8=FIX.4.4|9=62|35=0|34=200|49=DMA_HUB|56=FIXCLIENT1|52=20240209-11:54:20.828|10=030|
2024-02-09 12:54:22.099 [32] [FixSender] (DEBUG) Sending 8=FIX.4.4|9=58|35=0|49=FIXCLIENT1|56=DMA_HUB|34=196|52=20240209-11:54:22|10=099|
2024-02-09 12:54:50.776 [31] [FixSender] (DEBUG) Receiving 8=FIX.4.4|9=62|35=0|34=201|49=DMA_HUB|56=FIXCLIENT1|52=20240209-11:54:50.776|10=036|
2024-02-09 12:54:52.102 [32] [FixSender] (DEBUG) Sending 8=FIX.4.4|9=58|35=0|49=FIXCLIENT1|56=DMA_HUB|34=197|52=20240209-11:54:52|10=103|
2024-02-09 12:55:20.733 [31] [FixSender] (DEBUG) Receiving 8=FIX.4.4|9=62|35=0|34=202|49=DMA_HUB|56=FIXCLIENT1|52=20240209-11:55:20.733|10=028|
2024-02-09 12:55:22.106 [32] [FixSender] (DEBUG) Sending 8=FIX.4.4|9=58|35=0|49=FIXCLIENT1|56=DMA_HUB|34=198|52=20240209-11:55:22|10=102|
2024-02-09 12:55:50.692 [31] [FixSender] (DEBUG) Receiving 8=FIX.4.4|9=62|35=0|34=203|49=DMA_HUB|56=FIXCLIENT1|52=20240209-11:55:50.692|10=036|
2024-02-09 12:55:52.115 [32] [FixSender] (DEBUG) Sending 8=FIX.4.4|9=58|35=0|49=FIXCLIENT1|56=DMA_HUB|34=199|52=20240209-11:55:52|10=106|
2024-02-09 12:56:20.637 [31] [FixSender] (DEBUG) Receiving 8=FIX.4.4|9=62|35=0|34=204|49=DMA_HUB|56=FIXCLIENT1|52=20240209-11:56:20.636|10=033|
2024-02-09 12:56:22.119 [32] [FixSender] (DEBUG) Sending 8=FIX.4.4|9=58|35=0|49=FIXCLIENT1|56=DMA_HUB|34=200|52=20240209-11:56:22|10=087|
2024-02-09 12:56:50.597 [31] [FixSender] (DEBUG) Receiving 8=FIX.4.4|9=62|35=0|34=205|49=DMA_HUB|56=FIXCLIENT1|52=20240209-11:56:50.596|10=042|
2024-02-09 12:56:52.124 [32] [FixSender] (DEBUG) Sending 8=FIX.4.4|9=58|35=0|49=FIXCLIENT1|56=DMA_HUB|34=201|52=20240209-11:56:52|10=091|
2024-02-09 12:57:20.551 [31] [FixSender] (DEBUG) Receiving 8=FIX.4.4|9=62|35=0|34=206|49=DMA_HUB|56=FIXCLIENT1|52=20240209-11:57:20.550|10=031|
2024-02-09 12:57:22.134 [32] [FixSender] (DEBUG) Sending 8=FIX.4.4|9=58|35=0|49=FIXCLIENT1|56=DMA_HUB|34=202|52=20240209-11:57:22|10=090|
2024-02-09 12:57:50.492 [31] [FixSender] (DEBUG) Receiving 8=FIX.4.4|9=62|35=0|34=207|49=DMA_HUB|56=FIXCLIENT1|52=20240209-11:57:50.492|10=040|
2024-02-09 12:57:52.138 [32] [FixSender] (DEBUG) Sending 8=FIX.4.4|9=58|35=0|49=FIXCLIENT1|56=DMA_HUB|34=203|52=20240209-11:57:52|10=094|
2024-02-09 12:58:20.449 [31] [FixSender] (DEBUG) Receiving 8=FIX.4.4|9=62|35=0|34=208|49=DMA_HUB|56=FIXCLIENT1|52=20240209-11:58:20.449|10=041|
2024-02-09 12:58:22.148 [32] [FixSender] (DEBUG) Sending 8=FIX.4.4|9=58|35=0|49=FIXCLIENT1|56=DMA_HUB|34=204|52=20240209-11:58:22|10=093|
2024-02-09 12:58:50.404 [31] [FixSender] (DEBUG) Receiving 8=FIX.4.4|9=62|35=0|34=209|49=DMA_HUB|56=FIXCLIENT1|52=20240209-11:58:50.403|10=035|
2024-02-09 12:58:52.161 [32] [FixSender] (DEBUG) Sending 8=FIX.4.4|9=58|35=0|49=FIXCLIENT1|56=DMA_HUB|34=205|52=20240209-11:58:52|10=097|
2024-02-09 12:59:20.347 [31] [FixSender] (DEBUG) Receiving 8=FIX.4.4|9=62|35=0|34=210|49=DMA_HUB|56=FIXCLIENT1|52=20240209-11:59:20.346|10=031|
2024-02-09 12:59:22.167 [32] [FixSender] (DEBUG) Sending 8=FIX.4.4|9=58|35=0|49=FIXCLIENT1|56=DMA_HUB|34=206|52=20240209-11:59:22|10=096|
2024-02-09 12:59:50.302 [31] [FixSender] (DEBUG) Receiving 8=FIX.4.4|9=62|35=0|34=211|49=DMA_HUB|56=FIXCLIENT1|52=20240209-11:59:50.301|10=026|
2024-02-09 12:59:52.181 [32] [FixSender] (DEBUG) Sending 8=FIX.4.4|9=58|35=0|49=FIXCLIENT1|56=DMA_HUB|34=207|52=20240209-11:59:52|10=100|
2024-02-09 13:00:20.264 [31] [FixSender] (DEBUG) Receiving 8=FIX.4.4|9=62|35=0|34=212|49=DMA_HUB|56=FIXCLIENT1|52=20240209-12:00:20.264|10=019|
2024-02-09 13:00:22.194 [32] [FixSender] (DEBUG) Sending 8=FIX.4.4|9=58|35=0|49=FIXCLIENT1|56=DMA_HUB|34=208|52=20240209-12:00:22|10=085|
2024-02-09 13:00:50.274 [31] [FixSender] (DEBUG) Receiving 8=FIX.4.4|9=62|35=0|34=213|49=DMA_HUB|56=FIXCLIENT1|52=20240209-12:00:50.274|10=024|
2024-02-09 13:00:52.199 [32] [FixSender] (DEBUG) Sending 8=FIX.4.4|9=58|35=0|49=FIXCLIENT1|56=DMA_HUB|34=209|52=20240209-12:00:52|10=089|
2024-02-09 13:01:20.224 [31] [FixSender] (DEBUG) Receiving 8=FIX.4.4|9=62|35=0|34=214|49=DMA_HUB|56=FIXCLIENT1|52=20240209-12:01:20.224|10=018|
2024-02-09 13:01:22.201 [32] [FixSender] (DEBUG) Sending 8=FIX.4.4|9=58|35=0|49=FIXCLIENT1|56=DMA_HUB|34=210|52=20240209-12:01:22|10=079|
2024-02-09 13:01:50.180 [31] [FixSender] (DEBUG) Receiving 8=FIX.4.4|9=62|35=0|34=215|49=DMA_HUB|56=FIXCLIENT1|52=20240209-12:01:50.180|10=023|
2024-02-09 13:01:52.205 [32] [FixSender] (DEBUG) Sending 8=FIX.4.4|9=58|35=0|49=FIXCLIENT1|56=DMA_HUB|34=211|52=20240209-12:01:52|10=083|
2024-02-09 13:02:20.123 [31] [FixSender] (DEBUG) Receiving 8=FIX.4.4|9=62|35=0|34=216|49=DMA_HUB|56=FIXCLIENT1|52=20240209-12:02:20.123|10=019|
2024-02-09 13:02:22.208 [32] [FixSender] (DEBUG) Sending 8=FIX.4.4|9=58|35=0|49=FIXCLIENT1|56=DMA_HUB|34=212|52=20240209-12:02:22|10=082|
2024-02-09 13:02:50.087 [31] [FixSender] (DEBUG) Receiving 8=FIX.4.4|9=62|35=0|34=217|49=DMA_HUB|56=FIXCLIENT1|52=20240209-12:02:50.087|10=032|
2024-02-09 13:02:52.214 [32] [FixSender] (DEBUG) Sending 8=FIX.4.4|9=58|35=0|49=FIXCLIENT1|56=DMA_HUB|34=213|52=20240209-12:02:52|10=086|
2024-02-09 13:03:20.025 [31] [FixSender] (DEBUG) Receiving 8=FIX.4.4|9=62|35=0|34=218|49=DMA_HUB|56=FIXCLIENT1|52=20240209-12:03:20.025|10=023|
2024-02-09 13:03:22.218 [32] [FixSender] (DEBUG) Sending 8=FIX.4.4|9=58|35=0|49=FIXCLIENT1|56=DMA_HUB|34=214|52=20240209-12:03:22|10=085|
2024-02-09 13:03:49.980 [31] [FixSender] (DEBUG) Receiving 8=FIX.4.4|9=62|35=0|34=219|49=DMA_HUB|56=FIXCLIENT1|52=20240209-12:03:49.980|10=045|
2024-02-09 13:03:52.220 [32] [FixSender] (DEBUG) Sending 8=FIX.4.4|9=58|35=0|49=FIXCLIENT1|56=DMA_HUB|34=215|52=20240209-12:03:52|10=089|
2024-02-09 13:04:19.942 [31] [FixSender] (DEBUG) Receiving 8=FIX.4.4|9=62|35=0|34=220|49=DMA_HUB|56=FIXCLIENT1|52=20240209-12:04:19.942|10=033|
2024-02-09 13:04:22.224 [32] [FixSender] (DEBUG) Sending 8=FIX.4.4|9=58|35=0|49=FIXCLIENT1|56=DMA_HUB|34=216|52=20240209-12:04:22|10=088|
2024-02-09 13:04:49.886 [31] [FixSender] (DEBUG) Receiving 8=FIX.4.4|9=62|35=0|34=221|49=DMA_HUB|56=FIXCLIENT1|52=20240209-12:04:49.886|10=044|
2024-02-09 13:04:52.230 [32] [FixSender] (DEBUG) Sending 8=FIX.4.4|9=58|35=0|49=FIXCLIENT1|56=DMA_HUB|34=217|52=20240209-12:04:52|10=092|
2024-02-09 13:05:19.845 [31] [FixSender] (DEBUG) Receiving 8=FIX.4.4|9=62|35=0|34=222|49=DMA_HUB|56=FIXCLIENT1|52=20240209-12:05:19.845|10=038|
2024-02-09 13:05:22.236 [32] [FixSender] (DEBUG) Sending 8=FIX.4.4|9=58|35=0|49=FIXCLIENT1|56=DMA_HUB|34=218|52=20240209-12:05:22|10=091|
2024-02-09 13:05:49.789 [31] [FixSender] (DEBUG) Receiving 8=FIX.4.4|9=62|35=0|34=223|49=DMA_HUB|56=FIXCLIENT1|52=20240209-12:05:49.789|10=049|
2024-02-09 13:05:52.238 [32] [FixSender] (DEBUG) Sending 8=FIX.4.4|9=58|35=0|49=FIXCLIENT1|56=DMA_HUB|34=219|52=20240209-12:05:52|10=095|
2024-02-09 13:06:19.747 [31] [FixSender] (DEBUG) Receiving 8=FIX.4.4|9=62|35=0|34=224|49=DMA_HUB|56=FIXCLIENT1|52=20240209-12:06:19.747|10=042|
2024-02-09 13:06:22.252 [32] [FixSender] (DEBUG) Sending 8=FIX.4.4|9=58|35=0|49=FIXCLIENT1|56=DMA_HUB|34=220|52=20240209-12:06:22|10=085|
2024-02-09 13:06:49.693 [31] [FixSender] (DEBUG) Receiving 8=FIX.4.4|9=62|35=0|34=225|49=DMA_HUB|56=FIXCLIENT1|52=20240209-12:06:49.693|10=046|
2024-02-09 13:06:52.258 [32] [FixSender] (DEBUG) Sending 8=FIX.4.4|9=58|35=0|49=FIXCLIENT1|56=DMA_HUB|34=221|52=20240209-12:06:52|10=089|
2024-02-09 13:07:19.640 [31] [FixSender] (DEBUG) Receiving 8=FIX.4.4|9=62|35=0|34=226|49=DMA_HUB|56=FIXCLIENT1|52=20240209-12:07:19.640|10=037|
2024-02-09 13:07:22.268 [32] [FixSender] (DEBUG) Sending 8=FIX.4.4|9=58|35=0|49=FIXCLIENT1|56=DMA_HUB|34=222|52=20240209-12:07:22|10=088|
2024-02-09 13:07:49.601 [31] [FixSender] (DEBUG) Receiving 8=FIX.4.4|9=62|35=0|34=227|49=DMA_HUB|56=FIXCLIENT1|52=20240209-12:07:49.601|10=038|
2024-02-09 13:07:52.277 [32] [FixSender] (DEBUG) Sending 8=FIX.4.4|9=58|35=0|49=FIXCLIENT1|56=DMA_HUB|34=223|52=20240209-12:07:52|10=092|
2024-02-09 13:08:19.552 [31] [FixSender] (DEBUG) Receiving 8=FIX.4.4|9=62|35=0|34=228|49=DMA_HUB|56=FIXCLIENT1|52=20240209-12:08:19.552|10=042|
2024-02-09 13:08:22.285 [32] [FixSender] (DEBUG) Sending 8=FIX.4.4|9=58|35=0|49=FIXCLIENT1|56=DMA_HUB|34=224|52=20240209-12:08:22|10=091|
2024-02-09 13:08:49.502 [31] [FixSender] (DEBUG) Receiving 8=FIX.4.4|9=62|35=0|34=229|49=DMA_HUB|56=FIXCLIENT1|52=20240209-12:08:49.502|10=041|
2024-02-09 13:08:52.295 [32] [FixSender] (DEBUG) Sending 8=FIX.4.4|9=58|35=0|49=FIXCLIENT1|56=DMA_HUB|34=225|52=20240209-12:08:52|10=095|
2024-02-09 13:09:19.459 [31] [FixSender] (DEBUG) Receiving 8=FIX.4.4|9=62|35=0|34=230|49=DMA_HUB|56=FIXCLIENT1|52=20240209-12:09:19.459|10=042|
2024-02-09 13:09:22.310 [32] [FixSender] (DEBUG) Sending 8=FIX.4.4|9=58|35=0|49=FIXCLIENT1|56=DMA_HUB|34=226|52=20240209-12:09:22|10=094|
2024-02-09 13:09:49.406 [31] [FixSender] (DEBUG) Receiving 8=FIX.4.4|9=62|35=0|34=231|49=DMA_HUB|56=FIXCLIENT1|52=20240209-12:09:49.404|10=036|
2024-02-09 13:09:52.322 [32] [FixSender] (DEBUG) Sending 8=FIX.4.4|9=58|35=0|49=FIXCLIENT1|56=DMA_HUB|34=227|52=20240209-12:09:52|10=098|
2024-02-09 13:10:19.366 [31] [FixSender] (DEBUG) Receiving 8=FIX.4.4|9=62|35=0|34=232|49=DMA_HUB|56=FIXCLIENT1|52=20240209-12:10:19.365|10=032|
2024-02-09 13:10:22.329 [32] [FixSender] (DEBUG) Sending 8=FIX.4.4|9=58|35=0|49=FIXCLIENT1|56=DMA_HUB|34=228|52=20240209-12:10:22|10=088|
2024-02-09 13:10:49.309 [31] [FixSender] (DEBUG) Receiving 8=FIX.4.4|9=62|35=0|34=233|49=DMA_HUB|56=FIXCLIENT1|52=20240209-12:10:49.309|10=034|
2024-02-09 13:10:52.332 [32] [FixSender] (DEBUG) Sending 8=FIX.4.4|9=58|35=0|49=FIXCLIENT1|56=DMA_HUB|34=229|52=20240209-12:10:52|10=092|
2024-02-09 13:11:19.268 [31] [FixSender] (DEBUG) Receiving 8=FIX.4.4|9=62|35=0|34=234|49=DMA_HUB|56=FIXCLIENT1|52=20240209-12:11:19.267|10=036|
2024-02-09 13:11:22.340 [32] [FixSender] (DEBUG) Sending 8=FIX.4.4|9=58|35=0|49=FIXCLIENT1|56=DMA_HUB|34=230|52=20240209-12:11:22|10=082|
2024-02-09 13:11:49.213 [31] [FixSender] (DEBUG) Receiving 8=FIX.4.4|9=62|35=0|34=235|49=DMA_HUB|56=FIXCLIENT1|52=20240209-12:11:49.213|10=031|
2024-02-09 13:11:52.347 [32] [FixSender] (DEBUG) Sending 8=FIX.4.4|9=58|35=0|49=FIXCLIENT1|56=DMA_HUB|34=231|52=20240209-12:11:52|10=086|
2024-02-09 13:12:19.175 [31] [FixSender] (DEBUG) Receiving 8=FIX.4.4|9=62|35=0|34=236|49=DMA_HUB|56=FIXCLIENT1|52=20240209-12:12:19.174|10=036|
2024-02-09 13:12:22.352 [32] [FixSender] (DEBUG) Sending 8=FIX.4.4|9=58|35=0|49=FIXCLIENT1|56=DMA_HUB|34=232|52=20240209-12:12:22|10=085|
2024-02-09 13:12:49.114 [31] [FixSender] (DEBUG) Receiving 8=FIX.4.4|9=62|35=0|34=237|49=DMA_HUB|56=FIXCLIENT1|52=20240209-12:12:49.113|10=033|
2024-02-09 13:12:52.358 [32] [FixSender] (DEBUG) Sending 8=FIX.4.4|9=58|35=0|49=FIXCLIENT1|56=DMA_HUB|34=233|52=20240209-12:12:52|10=089|
2024-02-09 13:13:19.067 [31] [FixSender] (DEBUG) Receiving 8=FIX.4.4|9=62|35=0|34=238|49=DMA_HUB|56=FIXCLIENT1|52=20240209-12:13:19.066|10=039|
2024-02-09 13:13:22.362 [32] [FixSender] (DEBUG) Sending 8=FIX.4.4|9=58|35=0|49=FIXCLIENT1|56=DMA_HUB|34=234|52=20240209-12:13:22|10=088|
2024-02-09 13:13:49.020 [31] [FixSender] (DEBUG) Receiving 8=FIX.4.4|9=62|35=0|34=239|49=DMA_HUB|56=FIXCLIENT1|52=20240209-12:13:49.019|10=041|
2024-02-09 13:13:52.375 [32] [FixSender] (DEBUG) Sending 8=FIX.4.4|9=58|35=0|49=FIXCLIENT1|56=DMA_HUB|34=235|52=20240209-12:13:52|10=092|
2024-02-09 13:14:18.971 [31] [FixSender] (DEBUG) Receiving 8=FIX.4.4|9=62|35=0|34=240|49=DMA_HUB|56=FIXCLIENT1|52=20240209-12:14:18.969|10=044|
2024-02-09 13:14:22.386 [32] [FixSender] (DEBUG) Sending 8=FIX.4.4|9=58|35=0|49=FIXCLIENT1|56=DMA_HUB|34=236|52=20240209-12:14:22|10=091|
2024-02-09 13:14:48.929 [31] [FixSender] (DEBUG) Receiving 8=FIX.4.4|9=62|35=0|34=241|49=DMA_HUB|56=FIXCLIENT1|52=20240209-12:14:48.928|10=043|
2024-02-09 13:14:52.402 [32] [FixSender] (DEBUG) Sending 8=FIX.4.4|9=58|35=0|49=FIXCLIENT1|56=DMA_HUB|34=237|52=20240209-12:14:52|10=095|
2024-02-09 13:15:18.876 [31] [FixSender] (DEBUG) Receiving 8=FIX.4.4|9=62|35=0|34=242|49=DMA_HUB|56=FIXCLIENT1|52=20240209-12:15:18.875|10=043|
2024-02-09 13:15:22.413 [32] [FixSender] (DEBUG) Sending 8=FIX.4.4|9=58|35=0|49=FIXCLIENT1|56=DMA_HUB|34=238|52=20240209-12:15:22|10=094|
2024-02-09 13:15:48.828 [31] [FixSender] (DEBUG) Receiving 8=FIX.4.4|9=62|35=0|34=243|49=DMA_HUB|56=FIXCLIENT1|52=20240209-12:15:48.827|10=044|
2024-02-09 13:15:52.419 [32] [FixSender] (DEBUG) Sending 8=FIX.4.4|9=58|35=0|49=FIXCLIENT1|56=DMA_HUB|34=239|52=20240209-12:15:52|10=098|
2024-02-09 13:16:18.784 [31] [FixSender] (DEBUG) Receiving 8=FIX.4.4|9=62|35=0|34=244|49=DMA_HUB|56=FIXCLIENT1|52=20240209-12:16:18.784|10=045|
2024-02-09 13:16:22.425 [32] [FixSender] (DEBUG) Sending 8=FIX.4.4|9=58|35=0|49=FIXCLIENT1|56=DMA_HUB|34=240|52=20240209-12:16:22|10=088|
2024-02-09 13:16:48.732 [31] [FixSender] (DEBUG) Receiving 8=FIX.4.4|9=62|35=0|34=245|49=DMA_HUB|56=FIXCLIENT1|52=20240209-12:16:48.730|10=040|
2024-02-09 13:16:52.429 [32] [FixSender] (DEBUG) Sending 8=FIX.4.4|9=58|35=0|49=FIXCLIENT1|56=DMA_HUB|34=241|52=20240209-12:16:52|10=092|
2024-02-09 13:17:18.695 [31] [FixSender] (DEBUG) Receiving 8=FIX.4.4|9=62|35=0|34=246|49=DMA_HUB|56=FIXCLIENT1|52=20240209-12:17:18.693|10=047|
2024-02-09 13:17:22.432 [32] [FixSender] (DEBUG) Sending 8=FIX.4.4|9=58|35=0|49=FIXCLIENT1|56=DMA_HUB|34=242|52=20240209-12:17:22|10=091|
2024-02-09 13:17:48.636 [31] [FixSender] (DEBUG) Receiving 8=FIX.4.4|9=62|35=0|34=247|49=DMA_HUB|56=FIXCLIENT1|52=20240209-12:17:48.635|10=047|
2024-02-09 13:17:52.445 [32] [FixSender] (DEBUG) Sending 8=FIX.4.4|9=58|35=0|49=FIXCLIENT1|56=DMA_HUB|34=243|52=20240209-12:17:52|10=095|
2024-02-09 13:18:18.595 [31] [FixSender] (DEBUG) Receiving 8=FIX.4.4|9=62|35=0|34=248|49=DMA_HUB|56=FIXCLIENT1|52=20240209-12:18:18.594|10=050|
2024-02-09 13:18:22.451 [32] [FixSender] (DEBUG) Sending 8=FIX.4.4|9=58|35=0|49=FIXCLIENT1|56=DMA_HUB|34=244|52=20240209-12:18:22|10=094|
2024-02-09 13:18:48.552 [31] [FixSender] (DEBUG) Receiving 8=FIX.4.4|9=62|35=0|34=249|49=DMA_HUB|56=FIXCLIENT1|52=20240209-12:18:48.552|10=048|
2024-02-09 13:18:52.458 [32] [FixSender] (DEBUG) Sending 8=FIX.4.4|9=58|35=0|49=FIXCLIENT1|56=DMA_HUB|34=245|52=20240209-12:18:52|10=098|
2024-02-09 13:19:18.569 [31] [FixSender] (DEBUG) Receiving 8=FIX.4.4|9=62|35=0|34=250|49=DMA_HUB|56=FIXCLIENT1|52=20240209-12:19:18.568|10=045|
2024-02-09 13:19:22.468 [32] [FixSender] (DEBUG) Sending 8=FIX.4.4|9=58|35=0|49=FIXCLIENT1|56=DMA_HUB|34=246|52=20240209-12:19:22|10=097|
2024-02-09 13:19:48.584 [31] [FixSender] (DEBUG) Receiving 8=FIX.4.4|9=62|35=0|34=251|49=DMA_HUB|56=FIXCLIENT1|52=20240209-12:19:48.582|10=045|
2024-02-09 13:19:52.476 [32] [FixSender] (DEBUG) Sending 8=FIX.4.4|9=58|35=0|49=FIXCLIENT1|56=DMA_HUB|34=247|52=20240209-12:19:52|10=101|
2024-02-09 13:20:18.528 [31] [FixSender] (DEBUG) Receiving 8=FIX.4.4|9=62|35=0|34=252|49=DMA_HUB|56=FIXCLIENT1|52=20240209-12:20:18.527|10=034|
2024-02-09 13:20:22.482 [32] [FixSender] (DEBUG) Sending 8=FIX.4.4|9=58|35=0|49=FIXCLIENT1|56=DMA_HUB|34=248|52=20240209-12:20:22|10=091|
2024-02-09 13:20:48.484 [31] [FixSender] (DEBUG) Receiving 8=FIX.4.4|9=62|35=0|34=253|49=DMA_HUB|56=FIXCLIENT1|52=20240209-12:20:48.483|10=039|
2024-02-09 13:20:52.491 [32] [FixSender] (DEBUG) Sending 8=FIX.4.4|9=58|35=0|49=FIXCLIENT1|56=DMA_HUB|34=249|52=20240209-12:20:52|10=095|
2024-02-09 13:21:18.426 [31] [FixSender] (DEBUG) Receiving 8=FIX.4.4|9=62|35=0|34=254|49=DMA_HUB|56=FIXCLIENT1|52=20240209-12:21:18.425|10=034|
2024-02-09 13:21:22.497 [32] [FixSender] (DEBUG) Sending 8=FIX.4.4|9=58|35=0|49=FIXCLIENT1|56=DMA_HUB|34=250|52=20240209-12:21:22|10=085|
2024-02-09 13:21:48.380 [31] [FixSender] (DEBUG) Receiving 8=FIX.4.4|9=62|35=0|34=255|49=DMA_HUB|56=FIXCLIENT1|52=20240209-12:21:48.380|10=038|
2024-02-09 13:21:52.502 [32] [FixSender] (DEBUG) Sending 8=FIX.4.4|9=58|35=0|49=FIXCLIENT1|56=DMA_HUB|34=251|52=20240209-12:21:52|10=089|
2024-02-09 13:22:18.341 [31] [FixSender] (DEBUG) Receiving 8=FIX.4.4|9=62|35=0|34=256|49=DMA_HUB|56=FIXCLIENT1|52=20240209-12:22:18.341|10=034|
2024-02-09 13:22:22.512 [32] [FixSender] (DEBUG) Sending 8=FIX.4.4|9=58|35=0|49=FIXCLIENT1|56=DMA_HUB|34=252|52=20240209-12:22:22|10=088|
2024-02-09 13:22:48.292 [31] [FixSender] (DEBUG) Receiving 8=FIX.4.4|9=62|35=0|34=257|49=DMA_HUB|56=FIXCLIENT1|52=20240209-12:22:48.292|10=043|
2024-02-09 13:22:52.515 [32] [FixSender] (DEBUG) Sending 8=FIX.4.4|9=58|35=0|49=FIXCLIENT1|56=DMA_HUB|34=253|52=20240209-12:22:52|10=092|
2024-02-09 13:23:18.245 [31] [FixSender] (DEBUG) Receiving 8=FIX.4.4|9=62|35=0|34=258|49=DMA_HUB|56=FIXCLIENT1|52=20240209-12:23:18.244|10=039|
2024-02-09 13:23:22.520 [32] [FixSender] (DEBUG) Sending 8=FIX.4.4|9=58|35=0|49=FIXCLIENT1|56=DMA_HUB|34=254|52=20240209-12:23:22|10=091|
2024-02-09 13:23:48.186 [31] [FixSender] (DEBUG) Receiving 8=FIX.4.4|9=62|35=0|34=259|49=DMA_HUB|56=FIXCLIENT1|52=20240209-12:23:48.185|10=047|
2024-02-09 13:23:52.532 [32] [FixSender] (DEBUG) Sending 8=FIX.4.4|9=58|35=0|49=FIXCLIENT1|56=DMA_HUB|34=255|52=20240209-12:23:52|10=095|
2024-02-09 13:24:18.152 [31] [FixSender] (DEBUG) Receiving 8=FIX.4.4|9=62|35=0|34=260|49=DMA_HUB|56=FIXCLIENT1|52=20240209-12:24:18.151|10=030|
2024-02-09 13:24:22.542 [32] [FixSender] (DEBUG) Sending 8=FIX.4.4|9=58|35=0|49=FIXCLIENT1|56=DMA_HUB|34=256|52=20240209-12:24:22|10=094|
2024-02-09 13:24:48.101 [31] [FixSender] (DEBUG) Receiving 8=FIX.4.4|9=62|35=0|34=261|49=DMA_HUB|56=FIXCLIENT1|52=20240209-12:24:48.101|10=029|
2024-02-09 13:24:52.557 [32] [FixSender] (DEBUG) Sending 8=FIX.4.4|9=58|35=0|49=FIXCLIENT1|56=DMA_HUB|34=257|52=20240209-12:24:52|10=098|
2024-02-09 13:25:18.045 [31] [FixSender] (DEBUG) Receiving 8=FIX.4.4|9=62|35=0|34=262|49=DMA_HUB|56=FIXCLIENT1|52=20240209-12:25:18.045|10=035|
2024-02-09 13:25:22.564 [32] [FixSender] (DEBUG) Sending 8=FIX.4.4|9=58|35=0|49=FIXCLIENT1|56=DMA_HUB|34=258|52=20240209-12:25:22|10=097|
2024-02-09 13:25:48.002 [31] [FixSender] (DEBUG) Receiving 8=FIX.4.4|9=62|35=0|34=263|49=DMA_HUB|56=FIXCLIENT1|52=20240209-12:25:48.001|10=031|
2024-02-09 13:25:52.577 [32] [FixSender] (DEBUG) Sending 8=FIX.4.4|9=58|35=0|49=FIXCLIENT1|56=DMA_HUB|34=259|52=20240209-12:25:52|10=101|
2024-02-09 13:26:17.949 [31] [FixSender] (DEBUG) Receiving 8=FIX.4.4|9=62|35=0|34=264|49=DMA_HUB|56=FIXCLIENT1|52=20240209-12:26:17.947|10=048|
2024-02-09 13:26:22.586 [32] [FixSender] (DEBUG) Sending 8=FIX.4.4|9=58|35=0|49=FIXCLIENT1|56=DMA_HUB|34=260|52=20240209-12:26:22|10=091|
2024-02-09 13:26:47.909 [31] [FixSender] (DEBUG) Receiving 8=FIX.4.4|9=62|35=0|34=265|49=DMA_HUB|56=FIXCLIENT1|52=20240209-12:26:47.909|10=050|
2024-02-09 13:26:52.596 [32] [FixSender] (DEBUG) Sending 8=FIX.4.4|9=58|35=0|49=FIXCLIENT1|56=DMA_HUB|34=261|52=20240209-12:26:52|10=095|
2024-02-09 13:27:17.856 [31] [FixSender] (DEBUG) Receiving 8=FIX.4.4|9=62|35=0|34=266|49=DMA_HUB|56=FIXCLIENT1|52=20240209-12:27:17.854|10=048|
2024-02-09 13:27:22.598 [32] [FixSender] (DEBUG) Sending 8=FIX.4.4|9=58|35=0|49=FIXCLIENT1|56=DMA_HUB|34=262|52=20240209-12:27:22|10=094|
2024-02-09 13:27:47.812 [31] [FixSender] (DEBUG) Receiving 8=FIX.4.4|9=62|35=0|34=267|49=DMA_HUB|56=FIXCLIENT1|52=20240209-12:27:47.812|10=046|
2024-02-09 13:27:52.606 [32] [FixSender] (DEBUG) Sending 8=FIX.4.4|9=58|35=0|49=FIXCLIENT1|56=DMA_HUB|34=263|52=20240209-12:27:52|10=098|
2024-02-09 13:28:17.763 [31] [FixSender] (DEBUG) Receiving 8=FIX.4.4|9=62|35=0|34=268|49=DMA_HUB|56=FIXCLIENT1|52=20240209-12:28:17.762|10=049|
2024-02-09 13:28:22.613 [32] [FixSender] (DEBUG) Sending 8=FIX.4.4|9=58|35=0|49=FIXCLIENT1|56=DMA_HUB|34=264|52=20240209-12:28:22|10=097|
2024-02-09 13:28:47.713 [31] [FixSender] (DEBUG) Receiving 8=FIX.4.4|9=62|35=0|34=269|49=DMA_HUB|56=FIXCLIENT1|52=20240209-12:28:47.712|10=048|
2024-02-09 13:28:52.616 [32] [FixSender] (DEBUG) Sending 8=FIX.4.4|9=58|35=0|49=FIXCLIENT1|56=DMA_HUB|34=265|52=20240209-12:28:52|10=101|
2024-02-09 13:29:17.661 [31] [FixSender] (DEBUG) Receiving 8=FIX.4.4|9=62|35=0|34=270|49=DMA_HUB|56=FIXCLIENT1|52=20240209-12:29:17.661|10=041|
2024-02-09 13:29:22.627 [32] [FixSender] (DEBUG) Sending 8=FIX.4.4|9=58|35=0|49=FIXCLIENT1|56=DMA_HUB|34=266|52=20240209-12:29:22|10=100|
2024-02-09 13:29:47.615 [31] [FixSender] (DEBUG) Receiving 8=FIX.4.4|9=62|35=0|34=271|49=DMA_HUB|56=FIXCLIENT1|52=20240209-12:29:47.615|10=044|
2024-02-09 13:29:52.633 [32] [FixSender] (DEBUG) Sending 8=FIX.4.4|9=58|35=0|49=FIXCLIENT1|56=DMA_HUB|34=267|52=20240209-12:29:52|10=104|
2024-02-09 13:30:17.576 [31] [FixSender] (DEBUG) Receiving 8=FIX.4.4|9=62|35=0|34=272|49=DMA_HUB|56=FIXCLIENT1|52=20240209-12:30:17.574|10=038|
2024-02-09 13:30:22.645 [32] [FixSender] (DEBUG) Sending 8=FIX.4.4|9=58|35=0|49=FIXCLIENT1|56=DMA_HUB|34=268|52=20240209-12:30:22|10=094|
2024-02-09 13:30:47.528 [31] [FixSender] (DEBUG) Receiving 8=FIX.4.4|9=62|35=0|34=273|49=DMA_HUB|56=FIXCLIENT1|52=20240209-12:30:47.527|10=040|
2024-02-09 13:30:52.660 [32] [FixSender] (DEBUG) Sending 8=FIX.4.4|9=58|35=0|49=FIXCLIENT1|56=DMA_HUB|34=269|52=20240209-12:30:52|10=098|
2024-02-09 13:31:17.467 [31] [FixSender] (DEBUG) Receiving 8=FIX.4.4|9=62|35=0|34=274|49=DMA_HUB|56=FIXCLIENT1|52=20240209-12:31:17.466|10=041|
2024-02-09 13:31:22.669 [32] [FixSender] (DEBUG) Sending 8=FIX.4.4|9=58|35=0|49=FIXCLIENT1|56=DMA_HUB|34=270|52=20240209-12:31:22|10=088|
2024-02-09 13:31:47.430 [31] [FixSender] (DEBUG) Receiving 8=FIX.4.4|9=62|35=0|34=275|49=DMA_HUB|56=FIXCLIENT1|52=20240209-12:31:47.429|10=044|
2024-02-09 13:31:52.671 [32] [FixSender] (DEBUG) Sending 8=FIX.4.4|9=58|35=0|49=FIXCLIENT1|56=DMA_HUB|34=271|52=20240209-12:31:52|10=092|
2024-02-09 13:32:17.377 [31] [FixSender] (DEBUG) Receiving 8=FIX.4.4|9=62|35=0|34=276|49=DMA_HUB|56=FIXCLIENT1|52=20240209-12:32:17.376|10=044|
2024-02-09 13:32:22.674 [32] [FixSender] (DEBUG) Sending 8=FIX.4.4|9=58|35=0|49=FIXCLIENT1|56=DMA_HUB|34=272|52=20240209-12:32:22|10=091|
2024-02-09 13:32:47.331 [31] [FixSender] (DEBUG) Receiving 8=FIX.4.4|9=62|35=0|34=277|49=DMA_HUB|56=FIXCLIENT1|52=20240209-12:32:47.330|10=038|
2024-02-09 13:32:52.688 [32] [FixSender] (DEBUG) Sending 8=FIX.4.4|9=58|35=0|49=FIXCLIENT1|56=DMA_HUB|34=273|52=20240209-12:32:52|10=095|
2024-02-09 13:33:17.289 [31] [FixSender] (DEBUG) Receiving 8=FIX.4.4|9=62|35=0|34=278|49=DMA_HUB|56=FIXCLIENT1|52=20240209-12:33:17.288|10=049|
2024-02-09 13:33:22.696 [32] [FixSender] (DEBUG) Sending 8=FIX.4.4|9=58|35=0|49=FIXCLIENT1|56=DMA_HUB|34=274|52=20240209-12:33:22|10=094|
2024-02-09 13:33:47.289 [31] [FixSender] (DEBUG) Receiving 8=FIX.4.4|9=62|35=0|34=279|49=DMA_HUB|56=FIXCLIENT1|52=20240209-12:33:47.289|10=054|
2024-02-09 13:33:52.707 [32] [FixSender] (DEBUG) Sending 8=FIX.4.4|9=58|35=0|49=FIXCLIENT1|56=DMA_HUB|34=275|52=20240209-12:33:52|10=098|
2024-02-09 13:34:17.251 [31] [FixSender] (DEBUG) Receiving 8=FIX.4.4|9=62|35=0|34=280|49=DMA_HUB|56=FIXCLIENT1|52=20240209-12:34:17.250|10=032|
2024-02-09 13:34:22.720 [32] [FixSender] (DEBUG) Sending 8=FIX.4.4|9=58|35=0|49=FIXCLIENT1|56=DMA_HUB|34=276|52=20240209-12:34:22|10=097|
2024-02-09 13:34:47.207 [31] [FixSender] (DEBUG) Receiving 8=FIX.4.4|9=62|35=0|34=281|49=DMA_HUB|56=FIXCLIENT1|52=20240209-12:34:47.206|10=037|
2024-02-09 13:34:52.735 [32] [FixSender] (DEBUG) Sending 8=FIX.4.4|9=58|35=0|49=FIXCLIENT1|56=DMA_HUB|34=277|52=20240209-12:34:52|10=101|
2024-02-09 13:35:17.154 [31] [FixSender] (DEBUG) Receiving 8=FIX.4.4|9=62|35=0|34=282|49=DMA_HUB|56=FIXCLIENT1|52=20240209-12:35:17.154|10=038|
2024-02-09 13:35:22.738 [32] [FixSender] (DEBUG) Sending 8=FIX.4.4|9=58|35=0|49=FIXCLIENT1|56=DMA_HUB|34=278|52=20240209-12:35:22|10=100|
2024-02-09 13:35:47.110 [31] [FixSender] (DEBUG) Receiving 8=FIX.4.4|9=62|35=0|34=283|49=DMA_HUB|56=FIXCLIENT1|52=20240209-12:35:47.109|10=042|
2024-02-09 13:35:52.747 [32] [FixSender] (DEBUG) Sending 8=FIX.4.4|9=58|35=0|49=FIXCLIENT1|56=DMA_HUB|34=279|52=20240209-12:35:52|10=104|
2024-02-09 13:36:17.057 [31] [FixSender] (DEBUG) Receiving 8=FIX.4.4|9=62|35=0|34=284|49=DMA_HUB|56=FIXCLIENT1|52=20240209-12:36:17.056|10=042|
2024-02-09 13:36:22.762 [32] [FixSender] (DEBUG) Sending 8=FIX.4.4|9=58|35=0|49=FIXCLIENT1|56=DMA_HUB|34=280|52=20240209-12:36:22|10=094|
2024-02-09 13:36:47.002 [31] [FixSender] (DEBUG) Receiving 8=FIX.4.4|9=62|35=0|34=285|49=DMA_HUB|56=FIXCLIENT1|52=20240209-12:36:47.002|10=037|
2024-02-09 13:36:52.767 [32] [FixSender] (DEBUG) Sending 8=FIX.4.4|9=58|35=0|49=FIXCLIENT1|56=DMA_HUB|34=281|52=20240209-12:36:52|10=098|
2024-02-09 13:37:16.956 [31] [FixSender] (DEBUG) Receiving 8=FIX.4.4|9=62|35=0|34=286|49=DMA_HUB|56=FIXCLIENT1|52=20240209-12:37:16.956|10=053|
2024-02-09 13:37:22.782 [32] [FixSender] (DEBUG) Sending 8=FIX.4.4|9=58|35=0|49=FIXCLIENT1|56=DMA_HUB|34=282|52=20240209-12:37:22|10=097|
2024-02-09 13:37:46.911 [31] [FixSender] (DEBUG) Receiving 8=FIX.4.4|9=62|35=0|34=287|49=DMA_HUB|56=FIXCLIENT1|52=20240209-12:37:46.911|10=048|
2024-02-09 13:37:52.796 [32] [FixSender] (DEBUG) Sending 8=FIX.4.4|9=58|35=0|49=FIXCLIENT1|56=DMA_HUB|34=283|52=20240209-12:37:52|10=101|
2024-02-09 13:38:16.862 [31] [FixSender] (DEBUG) Receiving 8=FIX.4.4|9=62|35=0|34=288|49=DMA_HUB|56=FIXCLIENT1|52=20240209-12:38:16.862|10=052|
2024-02-09 13:38:22.806 [32] [FixSender] (DEBUG) Sending 8=FIX.4.4|9=58|35=0|49=FIXCLIENT1|56=DMA_HUB|34=284|52=20240209-12:38:22|10=100|
2024-02-09 13:38:46.809 [31] [FixSender] (DEBUG) Receiving 8=FIX.4.4|9=62|35=0|34=289|49=DMA_HUB|56=FIXCLIENT1|52=20240209-12:38:46.809|10=057|
2024-02-09 13:38:52.818 [32] [FixSender] (DEBUG) Sending 8=FIX.4.4|9=58|35=0|49=FIXCLIENT1|56=DMA_HUB|34=285|52=20240209-12:38:52|10=104|
2024-02-09 13:39:16.767 [31] [FixSender] (DEBUG) Receiving 8=FIX.4.4|9=62|35=0|34=290|49=DMA_HUB|56=FIXCLIENT1|52=20240209-12:39:16.767|10=050|
2024-02-09 13:39:22.832 [32] [FixSender] (DEBUG) Sending 8=FIX.4.4|9=58|35=0|49=FIXCLIENT1|56=DMA_HUB|34=286|52=20240209-12:39:22|10=103|
2024-02-09 13:39:46.713 [31] [FixSender] (DEBUG) Receiving 8=FIX.4.4|9=62|35=0|34=291|49=DMA_HUB|56=FIXCLIENT1|52=20240209-12:39:46.713|10=045|
2024-02-09 13:39:52.839 [32] [FixSender] (DEBUG) Sending 8=FIX.4.4|9=58|35=0|49=FIXCLIENT1|56=DMA_HUB|34=287|52=20240209-12:39:52|10=107|
2024-02-09 13:40:16.677 [31] [FixSender] (DEBUG) Receiving 8=FIX.4.4|9=62|35=0|34=292|49=DMA_HUB|56=FIXCLIENT1|52=20240209-12:40:16.677|10=044|
2024-02-09 13:40:22.847 [32] [FixSender] (DEBUG) Sending 8=FIX.4.4|9=58|35=0|49=FIXCLIENT1|56=DMA_HUB|34=288|52=20240209-12:40:22|10=097|
2024-02-09 13:40:46.623 [31] [FixSender] (DEBUG) Receiving 8=FIX.4.4|9=62|35=0|34=293|49=DMA_HUB|56=FIXCLIENT1|52=20240209-12:40:46.623|10=039|
2024-02-09 13:40:52.852 [32] [FixSender] (DEBUG) Sending 8=FIX.4.4|9=58|35=0|49=FIXCLIENT1|56=DMA_HUB|34=289|52=20240209-12:40:52|10=101|
2024-02-09 13:41:16.572 [31] [FixSender] (DEBUG) Receiving 8=FIX.4.4|9=62|35=0|34=294|49=DMA_HUB|56=FIXCLIENT1|52=20240209-12:41:16.572|10=041|
2024-02-09 13:41:22.863 [32] [FixSender] (DEBUG) Sending 8=FIX.4.4|9=58|35=0|49=FIXCLIENT1|56=DMA_HUB|34=290|52=20240209-12:41:22|10=091|
2024-02-09 13:41:46.530 [31] [FixSender] (DEBUG) Receiving 8=FIX.4.4|9=62|35=0|34=295|49=DMA_HUB|56=FIXCLIENT1|52=20240209-12:41:46.529|10=047|
2024-02-09 13:41:52.873 [32] [FixSender] (DEBUG) Sending 8=FIX.4.4|9=58|35=0|49=FIXCLIENT1|56=DMA_HUB|34=291|52=20240209-12:41:52|10=095|
2024-02-09 13:42:16.486 [31] [FixSender] (DEBUG) Receiving 8=FIX.4.4|9=62|35=0|34=296|49=DMA_HUB|56=FIXCLIENT1|52=20240209-12:42:16.484|10=046|
2024-02-09 13:42:22.882 [32] [FixSender] (DEBUG) Sending 8=FIX.4.4|9=58|35=0|49=FIXCLIENT1|56=DMA_HUB|34=292|52=20240209-12:42:22|10=094|
2024-02-09 13:42:46.434 [31] [FixSender] (DEBUG) Receiving 8=FIX.4.4|9=62|35=0|34=297|49=DMA_HUB|56=FIXCLIENT1|52=20240209-12:42:46.433|10=044|
2024-02-09 13:42:52.886 [32] [FixSender] (DEBUG) Sending 8=FIX.4.4|9=58|35=0|49=FIXCLIENT1|56=DMA_HUB|34=293|52=20240209-12:42:52|10=098|
2024-02-09 13:43:16.383 [31] [FixSender] (DEBUG) Receiving 8=FIX.4.4|9=62|35=0|34=298|49=DMA_HUB|56=FIXCLIENT1|52=20240209-12:43:16.383|10=047|
2024-02-09 13:43:22.902 [32] [FixSender] (DEBUG) Sending 8=FIX.4.4|9=58|35=0|49=FIXCLIENT1|56=DMA_HUB|34=294|52=20240209-12:43:22|10=097|
2024-02-09 13:43:46.341 [31] [FixSender] (DEBUG) Receiving 8=FIX.4.4|9=62|35=0|34=299|49=DMA_HUB|56=FIXCLIENT1|52=20240209-12:43:46.340|10=044|
2024-02-09 13:43:52.906 [32] [FixSender] (DEBUG) Sending 8=FIX.4.4|9=58|35=0|49=FIXCLIENT1|56=DMA_HUB|34=295|52=20240209-12:43:52|10=101|
2024-02-09 13:44:16.285 [31] [FixSender] (DEBUG) Receiving 8=FIX.4.4|9=62|35=0|34=300|49=DMA_HUB|56=FIXCLIENT1|52=20240209-12:44:16.284|10=032|
2024-02-09 13:44:22.920 [32] [FixSender] (DEBUG) Sending 8=FIX.4.4|9=58|35=0|49=FIXCLIENT1|56=DMA_HUB|34=296|52=20240209-12:44:22|10=100|
2024-02-09 13:44:46.239 [31] [FixSender] (DEBUG) Receiving 8=FIX.4.4|9=62|35=0|34=301|49=DMA_HUB|56=FIXCLIENT1|52=20240209-12:44:46.239|10=036|
2024-02-09 13:44:52.929 [32] [FixSender] (DEBUG) Sending 8=FIX.4.4|9=58|35=0|49=FIXCLIENT1|56=DMA_HUB|34=297|52=20240209-12:44:52|10=104|
2024-02-09 13:45:16.188 [31] [FixSender] (DEBUG) Receiving 8=FIX.4.4|9=62|35=0|34=302|49=DMA_HUB|56=FIXCLIENT1|52=20240209-12:45:16.188|10=038|
2024-02-09 13:45:22.939 [32] [FixSender] (DEBUG) Sending 8=FIX.4.4|9=58|35=0|49=FIXCLIENT1|56=DMA_HUB|34=298|52=20240209-12:45:22|10=103|
2024-02-09 13:45:46.137 [31] [FixSender] (DEBUG) Receiving 8=FIX.4.4|9=62|35=0|34=303|49=DMA_HUB|56=FIXCLIENT1|52=20240209-12:45:46.136|10=035|
2024-02-09 13:45:52.954 [32] [FixSender] (DEBUG) Sending 8=FIX.4.4|9=58|35=0|49=FIXCLIENT1|56=DMA_HUB|34=299|52=20240209-12:45:52|10=107|
2024-02-09 13:46:16.103 [31] [FixSender] (DEBUG) Receiving 8=FIX.4.4|9=62|35=0|34=304|49=DMA_HUB|56=FIXCLIENT1|52=20240209-12:46:16.102|10=027|
2024-02-09 13:46:22.968 [32] [FixSender] (DEBUG) Sending 8=FIX.4.4|9=58|35=0|49=FIXCLIENT1|56=DMA_HUB|34=300|52=20240209-12:46:22|10=088|
2024-02-09 13:46:46.042 [31] [FixSender] (DEBUG) Receiving 8=FIX.4.4|9=62|35=0|34=305|49=DMA_HUB|56=FIXCLIENT1|52=20240209-12:46:46.042|10=034|
2024-02-09 13:46:52.974 [32] [FixSender] (DEBUG) Sending 8=FIX.4.4|9=58|35=0|49=FIXCLIENT1|56=DMA_HUB|34=301|52=20240209-12:46:52|10=092|
2024-02-09 13:47:16.003 [31] [FixSender] (DEBUG) Receiving 8=FIX.4.4|9=62|35=0|34=306|49=DMA_HUB|56=FIXCLIENT1|52=20240209-12:47:16.001|10=028|
2024-02-09 13:47:22.982 [32] [FixSender] (DEBUG) Sending 8=FIX.4.4|9=58|35=0|49=FIXCLIENT1|56=DMA_HUB|34=302|52=20240209-12:47:22|10=091|
2024-02-09 13:47:45.947 [31] [FixSender] (DEBUG) Receiving 8=FIX.4.4|9=62|35=0|34=307|49=DMA_HUB|56=FIXCLIENT1|52=20240209-12:47:45.945|10=048|
2024-02-09 13:47:52.996 [32] [FixSender] (DEBUG) Sending 8=FIX.4.4|9=58|35=0|49=FIXCLIENT1|56=DMA_HUB|34=303|52=20240209-12:47:52|10=095|
2024-02-09 13:48:15.904 [31] [FixSender] (DEBUG) Receiving 8=FIX.4.4|9=62|35=0|34=308|49=DMA_HUB|56=FIXCLIENT1|52=20240209-12:48:15.904|10=042|
2024-02-09 13:48:23.006 [32] [FixSender] (DEBUG) Sending 8=FIX.4.4|9=58|35=0|49=FIXCLIENT1|56=DMA_HUB|34=304|52=20240209-12:48:23|10=095|
2024-02-09 13:48:45.852 [31] [FixSender] (DEBUG) Receiving 8=FIX.4.4|9=62|35=0|34=309|49=DMA_HUB|56=FIXCLIENT1|52=20240209-12:48:45.851|10=047|
2024-02-09 13:48:53.014 [32] [FixSender] (DEBUG) Sending 8=FIX.4.4|9=58|35=0|49=FIXCLIENT1|56=DMA_HUB|34=305|52=20240209-12:48:53|10=099|
2024-02-09 13:49:15.805 [31] [FixSender] (DEBUG) Receiving 8=FIX.4.4|9=62|35=0|34=310|49=DMA_HUB|56=FIXCLIENT1|52=20240209-12:49:15.805|10=036|
2024-02-09 13:49:23.019 [32] [FixSender] (DEBUG) Sending 8=FIX.4.4|9=58|35=0|49=FIXCLIENT1|56=DMA_HUB|34=306|52=20240209-12:49:23|10=098|
2024-02-09 13:49:45.768 [31] [FixSender] (DEBUG) Receiving 8=FIX.4.4|9=62|35=0|34=311|49=DMA_HUB|56=FIXCLIENT1|52=20240209-12:49:45.767|10=047|
2024-02-09 13:49:53.021 [32] [FixSender] (DEBUG) Sending 8=FIX.4.4|9=58|35=0|49=FIXCLIENT1|56=DMA_HUB|34=307|52=20240209-12:49:53|10=102|
2024-02-09 13:50:15.712 [31] [FixSender] (DEBUG) Receiving 8=FIX.4.4|9=62|35=0|34=312|49=DMA_HUB|56=FIXCLIENT1|52=20240209-12:50:15.712|10=027|
2024-02-09 13:50:23.031 [32] [FixSender] (DEBUG) Sending 8=FIX.4.4|9=58|35=0|49=FIXCLIENT1|56=DMA_HUB|34=308|52=20240209-12:50:23|10=092|
2024-02-09 13:50:45.657 [31] [FixSender] (DEBUG) Receiving 8=FIX.4.4|9=62|35=0|34=313|49=DMA_HUB|56=FIXCLIENT1|52=20240209-12:50:45.657|10=039|
2024-02-09 13:50:53.034 [32] [FixSender] (DEBUG) Sending 8=FIX.4.4|9=58|35=0|49=FIXCLIENT1|56=DMA_HUB|34=309|52=20240209-12:50:53|10=096|
2024-02-09 13:51:15.623 [31] [FixSender] (DEBUG) Receiving 8=FIX.4.4|9=62|35=0|34=314|49=DMA_HUB|56=FIXCLIENT1|52=20240209-12:51:15.622|10=030|
2024-02-09 13:51:23.037 [32] [FixSender] (DEBUG) Sending 8=FIX.4.4|9=58|35=0|49=FIXCLIENT1|56=DMA_HUB|34=310|52=20240209-12:51:23|10=086|
2024-02-09 13:51:45.562 [31] [FixSender] (DEBUG) Receiving 8=FIX.4.4|9=62|35=0|34=315|49=DMA_HUB|56=FIXCLIENT1|52=20240209-12:51:45.562|10=037|
2024-02-09 13:51:53.041 [32] [FixSender] (DEBUG) Sending 8=FIX.4.4|9=58|35=0|49=FIXCLIENT1|56=DMA_HUB|34=311|52=20240209-12:51:53|10=090|
2024-02-09 13:52:15.524 [31] [FixSender] (DEBUG) Receiving 8=FIX.4.4|9=62|35=0|34=316|49=DMA_HUB|56=FIXCLIENT1|52=20240209-12:52:15.523|10=033|
2024-02-09 13:52:23.044 [32] [FixSender] (DEBUG) Sending 8=FIX.4.4|9=58|35=0|49=FIXCLIENT1|56=DMA_HUB|34=312|52=20240209-12:52:23|10=089|
2024-02-09 13:52:45.467 [31] [FixSender] (DEBUG) Receiving 8=FIX.4.4|9=62|35=0|34=317|49=DMA_HUB|56=FIXCLIENT1|52=20240209-12:52:45.465|10=042|
2024-02-09 13:52:53.053 [32] [FixSender] (DEBUG) Sending 8=FIX.4.4|9=58|35=0|49=FIXCLIENT1|56=DMA_HUB|34=313|52=20240209-12:52:53|10=093|
2024-02-09 13:53:15.428 [31] [FixSender] (DEBUG) Receiving 8=FIX.4.4|9=62|35=0|34=318|49=DMA_HUB|56=FIXCLIENT1|52=20240209-12:53:15.428|10=040|
2024-02-09 13:53:23.060 [32] [FixSender] (DEBUG) Sending 8=FIX.4.4|9=58|35=0|49=FIXCLIENT1|56=DMA_HUB|34=314|52=20240209-12:53:23|10=092|
2024-02-09 13:53:45.383 [31] [FixSender] (DEBUG) Receiving 8=FIX.4.4|9=62|35=0|34=319|49=DMA_HUB|56=FIXCLIENT1|52=20240209-12:53:45.383|10=044|
2024-02-09 13:53:53.072 [32] [FixSender] (DEBUG) Sending 8=FIX.4.4|9=58|35=0|49=FIXCLIENT1|56=DMA_HUB|34=315|52=20240209-12:53:53|10=096|
2024-02-09 13:54:15.331 [31] [FixSender] (DEBUG) Receiving 8=FIX.4.4|9=62|35=0|34=320|49=DMA_HUB|56=FIXCLIENT1|52=20240209-12:54:15.330|10=026|
2024-02-09 13:54:23.077 [32] [FixSender] (DEBUG) Sending 8=FIX.4.4|9=58|35=0|49=FIXCLIENT1|56=DMA_HUB|34=316|52=20240209-12:54:23|10=095|
2024-02-09 13:54:45.274 [31] [FixSender] (DEBUG) Receiving 8=FIX.4.4|9=62|35=0|34=321|49=DMA_HUB|56=FIXCLIENT1|52=20240209-12:54:45.274|10=037|
2024-02-09 13:54:53.084 [32] [FixSender] (DEBUG) Sending 8=FIX.4.4|9=58|35=0|49=FIXCLIENT1|56=DMA_HUB|34=317|52=20240209-12:54:53|10=099|
2024-02-09 13:55:15.238 [31] [FixSender] (DEBUG) Receiving 8=FIX.4.4|9=62|35=0|34=322|49=DMA_HUB|56=FIXCLIENT1|52=20240209-12:55:15.237|10=035|
2024-02-09 13:55:23.086 [32] [FixSender] (DEBUG) Sending 8=FIX.4.4|9=58|35=0|49=FIXCLIENT1|56=DMA_HUB|34=318|52=20240209-12:55:23|10=098|
2024-02-09 13:55:45.189 [31] [FixSender] (DEBUG) Receiving 8=FIX.4.4|9=62|35=0|34=323|49=DMA_HUB|56=FIXCLIENT1|52=20240209-12:55:45.187|10=043|
2024-02-09 13:55:53.094 [32] [FixSender] (DEBUG) Sending 8=FIX.4.4|9=58|35=0|49=FIXCLIENT1|56=DMA_HUB|34=319|52=20240209-12:55:53|10=102|
2024-02-09 13:56:15.145 [31] [FixSender] (DEBUG) Receiving 8=FIX.4.4|9=62|35=0|34=324|49=DMA_HUB|56=FIXCLIENT1|52=20240209-12:56:15.143|10=034|
2024-02-09 13:56:23.104 [32] [FixSender] (DEBUG) Sending 8=FIX.4.4|9=58|35=0|49=FIXCLIENT1|56=DMA_HUB|34=320|52=20240209-12:56:23|10=092|
2024-02-09 13:56:45.088 [31] [FixSender] (DEBUG) Receiving 8=FIX.4.4|9=62|35=0|34=325|49=DMA_HUB|56=FIXCLIENT1|52=20240209-12:56:45.088|10=046|
2024-02-09 13:56:53.113 [32] [FixSender] (DEBUG) Sending 8=FIX.4.4|9=58|35=0|49=FIXCLIENT1|56=DMA_HUB|34=321|52=20240209-12:56:53|10=096|
2024-02-09 13:57:15.047 [31] [FixSender] (DEBUG) Receiving 8=FIX.4.4|9=62|35=0|34=326|49=DMA_HUB|56=FIXCLIENT1|52=20240209-12:57:15.046|10=039|
2024-02-09 13:57:23.126 [32] [FixSender] (DEBUG) Sending 8=FIX.4.4|9=58|35=0|49=FIXCLIENT1|56=DMA_HUB|34=322|52=20240209-12:57:23|10=095|
2024-02-09 13:57:44.993 [31] [FixSender] (DEBUG) Receiving 8=FIX.4.4|9=62|35=0|34=327|49=DMA_HUB|56=FIXCLIENT1|52=20240209-12:57:44.993|10=053|
2024-02-09 13:57:53.133 [32] [FixSender] (DEBUG) Sending 8=FIX.4.4|9=58|35=0|49=FIXCLIENT1|56=DMA_HUB|34=323|52=20240209-12:57:53|10=099|
2024-02-09 13:58:14.939 [31] [FixSender] (DEBUG) Receiving 8=FIX.4.4|9=62|35=0|34=328|49=DMA_HUB|56=FIXCLIENT1|52=20240209-12:58:14.938|10=051|
2024-02-09 13:58:23.141 [32] [FixSender] (DEBUG) Sending 8=FIX.4.4|9=58|35=0|49=FIXCLIENT1|56=DMA_HUB|34=324|52=20240209-12:58:23|10=098|
2024-02-09 13:58:44.890 [31] [FixSender] (DEBUG) Receiving 8=FIX.4.4|9=62|35=0|34=329|49=DMA_HUB|56=FIXCLIENT1|52=20240209-12:58:44.889|10=060|
2024-02-09 13:58:53.148 [32] [FixSender] (DEBUG) Sending 8=FIX.4.4|9=58|35=0|49=FIXCLIENT1|56=DMA_HUB|34=325|52=20240209-12:58:53|10=102|
2024-02-09 13:59:14.842 [31] [FixSender] (DEBUG) Receiving 8=FIX.4.4|9=62|35=0|34=330|49=DMA_HUB|56=FIXCLIENT1|52=20240209-12:59:14.842|10=039|
2024-02-09 13:59:23.150 [32] [FixSender] (DEBUG) Sending 8=FIX.4.4|9=58|35=0|49=FIXCLIENT1|56=DMA_HUB|34=326|52=20240209-12:59:23|10=101|
2024-02-09 13:59:44.801 [31] [FixSender] (DEBUG) Receiving 8=FIX.4.4|9=62|35=0|34=331|49=DMA_HUB|56=FIXCLIENT1|52=20240209-12:59:44.800|10=037|
2024-02-09 13:59:53.155 [32] [FixSender] (DEBUG) Sending 8=FIX.4.4|9=58|35=0|49=FIXCLIENT1|56=DMA_HUB|34=327|52=20240209-12:59:53|10=105|
2024-02-09 14:00:14.758 [31] [FixSender] (DEBUG) Receiving 8=FIX.4.4|9=62|35=0|34=332|49=DMA_HUB|56=FIXCLIENT1|52=20240209-13:00:14.758|10=034|
2024-02-09 14:00:23.163 [32] [FixSender] (DEBUG) Sending 8=FIX.4.4|9=58|35=0|49=FIXCLIENT1|56=DMA_HUB|34=328|52=20240209-13:00:23|10=090|
2024-02-09 14:00:44.707 [31] [FixSender] (DEBUG) Receiving 8=FIX.4.4|9=62|35=0|34=333|49=DMA_HUB|56=FIXCLIENT1|52=20240209-13:00:44.707|10=032|
2024-02-09 14:00:53.170 [32] [FixSender] (DEBUG) Sending 8=FIX.4.4|9=58|35=0|49=FIXCLIENT1|56=DMA_HUB|34=329|52=20240209-13:00:53|10=094|
2024-02-09 14:01:14.649 [31] [FixSender] (DEBUG) Receiving 8=FIX.4.4|9=62|35=0|34=334|49=DMA_HUB|56=FIXCLIENT1|52=20240209-13:01:14.649|10=036|
2024-02-09 14:01:23.182 [32] [FixSender] (DEBUG) Sending 8=FIX.4.4|9=58|35=0|49=FIXCLIENT1|56=DMA_HUB|34=330|52=20240209-13:01:23|10=084|
2024-02-09 14:01:44.601 [31] [FixSender] (DEBUG) Receiving 8=FIX.4.4|9=62|35=0|34=335|49=DMA_HUB|56=FIXCLIENT1|52=20240209-13:01:44.601|10=028|
2024-02-09 14:01:53.185 [32] [FixSender] (DEBUG) Sending 8=FIX.4.4|9=58|35=0|49=FIXCLIENT1|56=DMA_HUB|34=331|52=20240209-13:01:53|10=088|
2024-02-09 14:02:14.554 [31] [FixSender] (DEBUG) Receiving 8=FIX.4.4|9=62|35=0|34=336|49=DMA_HUB|56=FIXCLIENT1|52=20240209-13:02:14.553|10=033|
2024-02-09 14:02:23.189 [32] [FixSender] (DEBUG) Sending 8=FIX.4.4|9=58|35=0|49=FIXCLIENT1|56=DMA_HUB|34=332|52=20240209-13:02:23|10=087|
2024-02-09 14:02:44.514 [31] [FixSender] (DEBUG) Receiving 8=FIX.4.4|9=62|35=0|34=337|49=DMA_HUB|56=FIXCLIENT1|52=20240209-13:02:44.514|10=034|
2024-02-09 14:02:53.194 [32] [FixSender] (DEBUG) Sending 8=FIX.4.4|9=58|35=0|49=FIXCLIENT1|56=DMA_HUB|34=333|52=20240209-13:02:53|10=091|
2024-02-09 14:03:14.459 [31] [FixSender] (DEBUG) Receiving 8=FIX.4.4|9=62|35=0|34=338|49=DMA_HUB|56=FIXCLIENT1|52=20240209-13:03:14.458|10=040|
2024-02-09 14:03:23.201 [32] [FixSender] (DEBUG) Sending 8=FIX.4.4|9=58|35=0|49=FIXCLIENT1|56=DMA_HUB|34=334|52=20240209-13:03:23|10=090|
2024-02-09 14:03:44.424 [31] [FixSender] (DEBUG) Receiving 8=FIX.4.4|9=62|35=0|34=339|49=DMA_HUB|56=FIXCLIENT1|52=20240209-13:03:44.423|10=036|
2024-02-09 14:03:53.210 [32] [FixSender] (DEBUG) Sending 8=FIX.4.4|9=58|35=0|49=FIXCLIENT1|56=DMA_HUB|34=335|52=20240209-13:03:53|10=094|
2024-02-09 14:04:14.364 [31] [FixSender] (DEBUG) Receiving 8=FIX.4.4|9=62|35=0|34=340|49=DMA_HUB|56=FIXCLIENT1|52=20240209-13:04:14.364|10=030|
2024-02-09 14:04:23.210 [32] [FixSender] (DEBUG) Sending 8=FIX.4.4|9=58|35=0|49=FIXCLIENT1|56=DMA_HUB|34=336|52=20240209-13:04:23|10=093|
2024-02-09 14:04:44.314 [31] [FixSender] (DEBUG) Receiving 8=FIX.4.4|9=62|35=0|34=341|49=DMA_HUB|56=FIXCLIENT1|52=20240209-13:04:44.314|10=029|
2024-02-09 14:04:53.210 [32] [FixSender] (DEBUG) Sending 8=FIX.4.4|9=58|35=0|49=FIXCLIENT1|56=DMA_HUB|34=337|52=20240209-13:04:53|10=097|
2024-02-09 14:05:14.277 [31] [FixSender] (DEBUG) Receiving 8=FIX.4.4|9=62|35=0|34=342|49=DMA_HUB|56=FIXCLIENT1|52=20240209-13:05:14.277|10=036|
2024-02-09 14:05:23.217 [32] [FixSender] (DEBUG) Sending 8=FIX.4.4|9=58|35=0|49=FIXCLIENT1|56=DMA_HUB|34=338|52=20240209-13:05:23|10=096|
2024-02-09 14:05:44.223 [31] [FixSender] (DEBUG) Receiving 8=FIX.4.4|9=62|35=0|34=343|49=DMA_HUB|56=FIXCLIENT1|52=20240209-13:05:44.222|10=030|
2024-02-09 14:05:53.231 [32] [FixSender] (DEBUG) Sending 8=FIX.4.4|9=58|35=0|49=FIXCLIENT1|56=DMA_HUB|34=339|52=20240209-13:05:53|10=100|
2024-02-09 14:06:14.179 [31] [FixSender] (DEBUG) Receiving 8=FIX.4.4|9=62|35=0|34=344|49=DMA_HUB|56=FIXCLIENT1|52=20240209-13:06:14.179|10=040|
2024-02-09 14:06:23.240 [32] [FixSender] (DEBUG) Sending 8=FIX.4.4|9=58|35=0|49=FIXCLIENT1|56=DMA_HUB|34=340|52=20240209-13:06:23|10=090|
2024-02-09 14:06:44.126 [31] [FixSender] (DEBUG) Receiving 8=FIX.4.4|9=62|35=0|34=345|49=DMA_HUB|56=FIXCLIENT1|52=20240209-13:06:44.125|10=035|
2024-02-09 14:06:53.256 [32] [FixSender] (DEBUG) Sending 8=FIX.4.4|9=58|35=0|49=FIXCLIENT1|56=DMA_HUB|34=341|52=20240209-13:06:53|10=094|
2024-02-09 14:07:14.085 [31] [FixSender] (DEBUG) Receiving 8=FIX.4.4|9=62|35=0|34=346|49=DMA_HUB|56=FIXCLIENT1|52=20240209-13:07:14.085|10=039|
2024-02-09 14:07:23.270 [32] [FixSender] (DEBUG) Sending 8=FIX.4.4|9=58|35=0|49=FIXCLIENT1|56=DMA_HUB|34=342|52=20240209-13:07:23|10=093|
2024-02-09 14:07:44.038 [31] [FixSender] (DEBUG) Receiving 8=FIX.4.4|9=62|35=0|34=347|49=DMA_HUB|56=FIXCLIENT1|52=20240209-13:07:44.037|10=040|
2024-02-09 14:07:53.282 [32] [FixSender] (DEBUG) Sending 8=FIX.4.4|9=58|35=0|49=FIXCLIENT1|56=DMA_HUB|34=343|52=20240209-13:07:53|10=097|
2024-02-09 14:08:13.979 [31] [FixSender] (DEBUG) Receiving 8=FIX.4.4|9=62|35=0|34=348|49=DMA_HUB|56=FIXCLIENT1|52=20240209-13:08:13.978|10=052|
