2024-07-25 08:45:49.067 [1] [Fixsender] (INFO) (c) 2001-2011 ullink SAS. FixSender. Release 1.11.
2024-07-25 08:45:52.731 [35] [FixSender] (INFO) try to connect to : localhost port :12345
2024-07-25 08:45:52.738 [35] [FixSender] (INFO) physical cnx initiated
2024-07-25 08:45:52.746 [35] [FixSender] (DEBUG) Sending 8=FIX.4.4|9=88|35=A|49=FIXCLIENT1|56=DMA_HUB|34=147|52=20240725-06:45:52|98=0|108=30|95=9|96=null/null|10=205|
2024-07-25 08:45:52.751 [35] [FixSender] (DEBUG) Receiving 8=FIX.4.4|9=72|35=A|34=1|49=DMA_HUB|56=FIXCLIENT1|52=20240725-06:45:52.749|108=30|98=0|10=246|
2024-07-25 08:45:52.752 [35] [FixSender] (DEBUG) Sending 8=FIX.4.4|9=110|35=5|49=FIXCLIENT1|56=DMA_HUB|34=148|52=20240725-06:45:52|58=MsgSeqNum expected 223, but MsgSeqNum received 1|10=215|
2024-07-25 08:45:52.753 [35] [FixSender] (INFO) physical cnx finished Connection reset by peer
2024-07-25 08:45:52.754 [35] [FixSender] (WARNING) Disconnected
2024-07-25 08:45:53.995 [39] [FixSender] (INFO) try to connect to : localhost port :12345
2024-07-25 08:45:53.995 [39] [FixSender] (INFO) physical cnx initiated
2024-07-25 08:45:53.999 [39] [FixSender] (DEBUG) Sending 8=FIX.4.4|9=86|35=A|49=FIXCLIENT1|56=DMA_HUB|34=1|52=20240725-06:45:53|98=0|108=30|95=9|96=null/null|10=097|
2024-07-25 08:45:54.000 [39] [FixSender] (DEBUG) Receiving 8=FIX.4.4|9=72|35=A|34=4|49=DMA_HUB|56=FIXCLIENT1|52=20240725-06:45:53.999|108=30|98=0|10=001|
2024-07-25 08:45:54.000 [39] [FixSender] (WARNING) The Fix connection is open...
2024-07-25 08:45:54.002 [39] [FixSender] (DEBUG) Sending 8=FIX.4.4|9=65|35=2|49=FIXCLIENT1|56=DMA_HUB|34=2|52=20240725-06:45:54|7=1|16=0|10=124|
2024-07-25 08:45:54.006 [39] [FixSender] (DEBUG) Receiving 8=FIX.4.4|9=102|35=4|34=1|49=DMA_HUB|56=FIXCLIENT1|52=20240725-06:45:54.005|43=Y|122=20240725-06:45:54.005|36=5|123=Y|10=249|
2024-07-25 08:46:20.593 [43] [FixSender] (DEBUG) Sending 8=FIX.4.4|9=192|35=D|49=FIXCLIENT1|56=DMA_HUB|34=3|52=20240725-06:46:20|21=1|11=HS_17218899800|38=2619|55=E:07G@XETR|54=1|60=20240725-06:46:20|40=2|59=0|44=500|48=US3390411052|22=4|15=EUR|207=XETR|1=bram_123|10=103|
2024-07-25 08:46:20.605 [39] [FixSender] (DEBUG) Receiving 8=FIX.4.4|9=234|35=8|34=5|49=DMA_HUB|56=FIXCLIENT1|52=20240725-06:46:20.604|11=HS_17218899800|37=FXj8gm1XE|54=1|40=2|59=0|17=202407251|150=A|39=A|38=2619|151=2619|14=0|6=0|44=500|60=20240725-06:46:20.000|22=4|48=US3390411052|207=XETR|15=EUR|55=[N/A]|10=227|
2024-07-25 08:46:20.635 [39] [FixSender] (DEBUG) Receiving 8=FIX.4.4|9=249|35=8|34=6|49=DMA_HUB|56=FIXCLIENT1|52=20240725-06:46:20.634|11=HS_17218899800|37=FXj8gm1XE|198=Nbalv358dc|54=1|40=2|59=0|17=202407252|150=0|39=0|38=2619|151=2619|14=0|6=0|44=500|60=20240725-06:46:20.629|22=4|48=US3390411052|207=XETR|15=EUR|55=[N/A]|10=023|
2024-07-25 08:46:20.648 [39] [FixSender] (DEBUG) Receiving 8=FIX.4.4|9=310|35=8|34=7|49=DMA_HUB|56=FIXCLIENT1|52=20240725-06:46:20.647|11=HS_17218899800|37=FXj8gm1XE|198=Nbalv358dc|54=1|32=2619|31=195|17=202407253|527=BNbalv1|150=F|39=2|38=2619|151=0|14=2619|6=195|44=500|60=20240725-06:46:20.629|22=4|48=US3390411052|207=XETR|15=EUR|55=[N/A]|453=1|448=strmrepl|447=D|452=17|40=2|59=0|10=085|
2024-07-25 08:46:23.984 [39] [FixSender] (DEBUG) Receiving 8=FIX.4.4|9=60|35=0|34=8|49=DMA_HUB|56=FIXCLIENT1|52=20240725-06:46:23.984|10=208|
2024-07-25 08:46:34.376 [44] [FixSender] (DEBUG) Sending 8=FIX.4.4|9=192|35=D|49=FIXCLIENT1|56=DMA_HUB|34=4|52=20240725-06:46:34|21=1|11=HS_17218899941|38=3764|55=E:07G@XETR|54=1|60=20240725-06:46:34|40=2|59=0|44=250|48=US3390411052|22=4|15=EUR|207=XETR|1=bram_123|10=124|
2024-07-25 08:46:34.378 [39] [FixSender] (DEBUG) Receiving 8=FIX.4.4|9=234|35=8|34=9|49=DMA_HUB|56=FIXCLIENT1|52=20240725-06:46:34.377|11=HS_17218899941|37=FXk8gm1XE|54=1|40=2|59=0|17=202407254|150=A|39=A|38=3764|151=3764|14=0|6=0|44=250|60=20240725-06:46:34.000|22=4|48=US3390411052|207=XETR|15=EUR|55=[N/A]|10=008|
2024-07-25 08:46:35.624 [45] [FixSender] (DEBUG) Sending 8=FIX.4.4|9=192|35=D|49=FIXCLIENT1|56=DMA_HUB|34=5|52=20240725-06:46:35|21=1|11=HS_17218899952|38=2289|55=E:07G@XETR|54=1|60=20240725-06:46:35|40=2|59=0|44=250|48=US3390411052|22=4|15=EUR|207=XETR|1=bram_123|10=130|
2024-07-25 08:46:35.625 [39] [FixSender] (DEBUG) Receiving 8=FIX.4.4|9=235|35=8|34=10|49=DMA_HUB|56=FIXCLIENT1|52=20240725-06:46:35.625|11=HS_17218899952|37=FXl8gm1XE|54=1|40=2|59=0|17=202407255|150=A|39=A|38=2289|151=2289|14=0|6=0|44=250|60=20240725-06:46:35.000|22=4|48=US3390411052|207=XETR|15=EUR|55=[N/A]|10=053|
2024-07-25 08:46:36.341 [46] [FixSender] (DEBUG) Sending 8=FIX.4.4|9=192|35=D|49=FIXCLIENT1|56=DMA_HUB|34=6|52=20240725-06:46:36|21=1|11=HS_17218899963|38=4591|55=E:07G@XETR|54=1|60=20240725-06:46:36|40=2|59=0|44=250|48=US3390411052|22=4|15=EUR|207=XETR|1=bram_123|10=133|
2024-07-25 08:46:36.342 [39] [FixSender] (DEBUG) Receiving 8=FIX.4.4|9=235|35=8|34=11|49=DMA_HUB|56=FIXCLIENT1|52=20240725-06:46:36.342|11=HS_17218899963|37=FXm8gm1XE|54=1|40=2|59=0|17=202407256|150=A|39=A|38=4591|151=4591|14=0|6=0|44=250|60=20240725-06:46:36.000|22=4|48=US3390411052|207=XETR|15=EUR|55=[N/A]|10=052|
2024-07-25 08:46:48.550 [47] [FixSender] (DEBUG) Sending 8=FIX.4.4|9=191|35=D|49=FIXCLIENT1|56=DMA_HUB|34=7|52=20240725-06:46:48|21=1|11=HS_17218900084|38=369|55=E:07G@XETR|54=1|60=20240725-06:46:48|40=2|59=0|44=200|48=US3390411052|22=4|15=EUR|207=XETR|1=bram_123|10=062|
2024-07-25 08:46:48.551 [39] [FixSender] (DEBUG) Receiving 8=FIX.4.4|9=233|35=8|34=12|49=DMA_HUB|56=FIXCLIENT1|52=20240725-06:46:48.551|11=HS_17218900084|37=FXn8gm1XE|54=1|40=2|59=0|17=202407257|150=A|39=A|38=369|151=369|14=0|6=0|44=200|60=20240725-06:46:48.000|22=4|48=US3390411052|207=XETR|15=EUR|55=[N/A]|10=191|
2024-07-25 08:46:48.554 [39] [FixSender] (DEBUG) Receiving 8=FIX.4.4|9=248|35=8|34=13|49=DMA_HUB|56=FIXCLIENT1|52=20240725-06:46:48.554|11=HS_17218900084|37=FXn8gm1XE|198=Nbalv3896f|54=1|40=2|59=0|17=202407258|150=0|39=0|38=369|151=369|14=0|6=0|44=200|60=20240725-06:46:48.552|22=4|48=US3390411052|207=XETR|15=EUR|55=[N/A]|10=199|
2024-07-25 08:46:48.555 [39] [FixSender] (DEBUG) Receiving 8=FIX.4.4|9=308|35=8|34=14|49=DMA_HUB|56=FIXCLIENT1|52=20240725-06:46:48.555|11=HS_17218900084|37=FXn8gm1XE|198=Nbalv3896f|54=1|32=369|31=195|17=202407259|527=BNbalv2|150=F|39=2|38=369|151=0|14=369|6=195|44=200|60=20240725-06:46:48.552|22=4|48=US3390411052|207=XETR|15=EUR|55=[N/A]|453=1|448=strmrepl|447=D|452=17|40=2|59=0|10=219|
2024-07-25 08:46:49.876 [48] [FixSender] (DEBUG) Sending 8=FIX.4.4|9=192|35=D|49=FIXCLIENT1|56=DMA_HUB|34=8|52=20240725-06:46:49|21=1|11=HS_17218900095|38=1043|55=E:07G@XETR|54=1|60=20240725-06:46:49|40=2|59=0|44=200|48=US3390411052|22=4|15=EUR|207=XETR|1=bram_123|10=106|
2024-07-25 08:46:49.877 [39] [FixSender] (DEBUG) Receiving 8=FIX.4.4|9=236|35=8|34=15|49=DMA_HUB|56=FIXCLIENT1|52=20240725-06:46:49.877|11=HS_17218900095|37=FXo8gm1XE|54=1|40=2|59=0|17=2024072510|150=A|39=A|38=1043|151=1043|14=0|6=0|44=200|60=20240725-06:46:49.000|22=4|48=US3390411052|207=XETR|15=EUR|55=[N/A]|10=075|
2024-07-25 08:46:49.880 [39] [FixSender] (DEBUG) Receiving 8=FIX.4.4|9=251|35=8|34=16|49=DMA_HUB|56=FIXCLIENT1|52=20240725-06:46:49.879|11=HS_17218900095|37=FXo8gm1XE|198=Nbalv38bbe|54=1|40=2|59=0|17=2024072511|150=0|39=0|38=1043|151=1043|14=0|6=0|44=200|60=20240725-06:46:49.878|22=4|48=US3390411052|207=XETR|15=EUR|55=[N/A]|10=168|
2024-07-25 08:46:49.881 [39] [FixSender] (DEBUG) Receiving 8=FIX.4.4|9=312|35=8|34=17|49=DMA_HUB|56=FIXCLIENT1|52=20240725-06:46:49.881|11=HS_17218900095|37=FXo8gm1XE|198=Nbalv38bbe|54=1|32=1043|31=195|17=2024072512|527=BNbalv3|150=F|39=2|38=1043|151=0|14=1043|6=195|44=200|60=20240725-06:46:49.878|22=4|48=US3390411052|207=XETR|15=EUR|55=[N/A]|453=1|448=strmrepl|447=D|452=17|40=2|59=0|10=220|
2024-07-25 08:46:53.937 [39] [FixSender] (DEBUG) Receiving 8=FIX.4.4|9=61|35=0|34=18|49=DMA_HUB|56=FIXCLIENT1|52=20240725-06:46:53.937|10=003|
2024-07-25 08:47:13.474 [49] [FixSender] (DEBUG) Sending 8=FIX.4.4|9=192|35=D|49=FIXCLIENT1|56=DMA_HUB|34=9|52=20240725-06:47:13|21=1|11=HS_17218900336|38=1198|55=E:07G@XETR|54=1|60=20240725-06:47:13|40=2|59=0|44=199|48=US3390411052|22=4|15=EUR|207=XETR|1=bram_123|10=117|
2024-07-25 08:47:13.475 [39] [FixSender] (DEBUG) Receiving 8=FIX.4.4|9=236|35=8|34=19|49=DMA_HUB|56=FIXCLIENT1|52=20240725-06:47:13.475|11=HS_17218900336|37=FXp8gm1XE|54=1|40=2|59=0|17=2024072513|150=A|39=A|38=1198|151=1198|14=0|6=0|44=199|60=20240725-06:47:13.000|22=4|48=US3390411052|207=XETR|15=EUR|55=[N/A]|10=098|
2024-07-25 08:47:13.478 [39] [FixSender] (DEBUG) Receiving 8=FIX.4.4|9=251|35=8|34=20|49=DMA_HUB|56=FIXCLIENT1|52=20240725-06:47:13.478|11=HS_17218900336|37=FXp8gm1XE|198=Nbalv3b51b|54=1|40=2|59=0|17=2024072514|150=0|39=0|38=1198|151=1198|14=0|6=0|44=199|60=20240725-06:47:13.476|22=4|48=US3390411052|207=XETR|15=EUR|55=[N/A]|10=122|
2024-07-25 08:47:13.479 [39] [FixSender] (DEBUG) Receiving 8=FIX.4.4|9=312|35=8|34=21|49=DMA_HUB|56=FIXCLIENT1|52=20240725-06:47:13.479|11=HS_17218900336|37=FXp8gm1XE|198=Nbalv3b51b|54=1|32=1198|31=194|17=2024072515|527=BNbalv4|150=F|39=2|38=1198|151=0|14=1198|6=194|44=199|60=20240725-06:47:13.476|22=4|48=US3390411052|207=XETR|15=EUR|55=[N/A]|453=1|448=strmrepl|447=D|452=17|40=2|59=0|10=192|
2024-07-25 08:47:14.394 [50] [FixSender] (DEBUG) Sending 8=FIX.4.4|9=193|35=D|49=FIXCLIENT1|56=DMA_HUB|34=10|52=20240725-06:47:14|21=1|11=HS_17218900347|38=4178|55=E:07G@XETR|54=1|60=20240725-06:47:14|40=2|59=0|44=199|48=US3390411052|22=4|15=EUR|207=XETR|1=bram_123|10=163|
2024-07-25 08:47:14.395 [39] [FixSender] (DEBUG) Receiving 8=FIX.4.4|9=236|35=8|34=22|49=DMA_HUB|56=FIXCLIENT1|52=20240725-06:47:14.395|11=HS_17218900347|37=FXq8gm1XE|54=1|40=2|59=0|17=2024072516|150=A|39=A|38=4178|151=4178|14=0|6=0|44=199|60=20240725-06:47:14.000|22=4|48=US3390411052|207=XETR|15=EUR|55=[N/A]|10=103|
2024-07-25 08:47:14.398 [39] [FixSender] (DEBUG) Receiving 8=FIX.4.4|9=251|35=8|34=23|49=DMA_HUB|56=FIXCLIENT1|52=20240725-06:47:14.398|11=HS_17218900347|37=FXq8gm1XE|198=Nbalv3b6c5|54=1|40=2|59=0|17=2024072517|150=0|39=0|38=4178|151=4178|14=0|6=0|44=199|60=20240725-06:47:14.396|22=4|48=US3390411052|207=XETR|15=EUR|55=[N/A]|10=143|
2024-07-25 08:47:14.400 [39] [FixSender] (DEBUG) Receiving 8=FIX.4.4|9=312|35=8|34=24|49=DMA_HUB|56=FIXCLIENT1|52=20240725-06:47:14.399|11=HS_17218900347|37=FXq8gm1XE|198=Nbalv3b6c5|54=1|32=4178|31=194|17=2024072518|527=BNbalv5|150=F|39=2|38=4178|151=0|14=4178|6=194|44=199|60=20240725-06:47:14.396|22=4|48=US3390411052|207=XETR|15=EUR|55=[N/A]|453=1|448=strmrepl|447=D|452=17|40=2|59=0|10=215|
2024-07-25 08:47:23.516 [51] [FixSender] (DEBUG) Sending 8=FIX.4.4|9=193|35=D|49=FIXCLIENT1|56=DMA_HUB|34=11|52=20240725-06:47:23|21=1|11=HS_17218900438|38=1461|55=E:07G@XETR|54=1|60=20240725-06:47:23|40=2|59=0|44=201|48=US3390411052|22=4|15=EUR|207=XETR|1=bram_123|10=141|
2024-07-25 08:47:23.518 [39] [FixSender] (DEBUG) Receiving 8=FIX.4.4|9=236|35=8|34=25|49=DMA_HUB|56=FIXCLIENT1|52=20240725-06:47:23.517|11=HS_17218900438|37=FXr8gm1XE|54=1|40=2|59=0|17=2024072519|150=A|39=A|38=1461|151=1461|14=0|6=0|44=201|60=20240725-06:47:23.000|22=4|48=US3390411052|207=XETR|15=EUR|55=[N/A]|10=075|
2024-07-25 08:47:23.888 [39] [FixSender] (DEBUG) Receiving 8=FIX.4.4|9=61|35=0|34=26|49=DMA_HUB|56=FIXCLIENT1|52=20240725-06:47:23.888|10=005|
2024-07-25 08:47:24.434 [52] [FixSender] (DEBUG) Sending 8=FIX.4.4|9=192|35=D|49=FIXCLIENT1|56=DMA_HUB|34=12|52=20240725-06:47:24|21=1|11=HS_17218900449|38=203|55=E:07G@XETR|54=1|60=20240725-06:47:24|40=2|59=0|44=201|48=US3390411052|22=4|15=EUR|207=XETR|1=bram_123|10=090|
2024-07-25 08:47:24.435 [39] [FixSender] (DEBUG) Receiving 8=FIX.4.4|9=234|35=8|34=27|49=DMA_HUB|56=FIXCLIENT1|52=20240725-06:47:24.435|11=HS_17218900449|37=FXs8gm1XE|54=1|40=2|59=0|17=2024072520|150=A|39=A|38=203|151=203|14=0|6=0|44=201|60=20240725-06:47:24.000|22=4|48=US3390411052|207=XETR|15=EUR|55=[N/A]|10=217|
2024-07-25 08:47:32.939 [53] [FixSender] (DEBUG) Sending 8=FIX.4.4|9=194|35=D|49=FIXCLIENT1|56=DMA_HUB|34=13|52=20240725-06:47:32|21=1|11=HS_172189005210|38=1531|55=E:07G@XETR|54=1|60=20240725-06:47:32|40=2|59=0|44=500|48=US3390411052|22=4|15=EUR|207=XETR|1=bram_123|10=185|
2024-07-25 08:47:32.940 [39] [FixSender] (DEBUG) Receiving 8=FIX.4.4|9=237|35=8|34=28|49=DMA_HUB|56=FIXCLIENT1|52=20240725-06:47:32.940|11=HS_172189005210|37=FXt8gm1XE|54=1|40=2|59=0|17=2024072521|150=A|39=A|38=1531|151=1531|14=0|6=0|44=500|60=20240725-06:47:32.000|22=4|48=US3390411052|207=XETR|15=EUR|55=[N/A]|10=113|
2024-07-25 08:47:32.944 [39] [FixSender] (DEBUG) Receiving 8=FIX.4.4|9=252|35=8|34=29|49=DMA_HUB|56=FIXCLIENT1|52=20240725-06:47:32.944|11=HS_172189005210|37=FXt8gm1XE|198=Nbalv3d76c|54=1|40=2|59=0|17=2024072522|150=0|39=0|38=1531|151=1531|14=0|6=0|44=500|60=20240725-06:47:32.942|22=4|48=US3390411052|207=XETR|15=EUR|55=[N/A]|10=155|
2024-07-25 08:47:32.946 [39] [FixSender] (DEBUG) Receiving 8=FIX.4.4|9=313|35=8|34=30|49=DMA_HUB|56=FIXCLIENT1|52=20240725-06:47:32.946|11=HS_172189005210|37=FXt8gm1XE|198=Nbalv3d76c|54=1|32=1531|31=193|17=2024072523|527=BNbalv6|150=F|39=2|38=1531|151=0|14=1531|6=193|44=500|60=20240725-06:47:32.942|22=4|48=US3390411052|207=XETR|15=EUR|55=[N/A]|453=1|448=strmrepl|447=D|452=17|40=2|59=0|10=208|
2024-07-25 08:47:33.730 [54] [FixSender] (DEBUG) Sending 8=FIX.4.4|9=194|35=D|49=FIXCLIENT1|56=DMA_HUB|34=14|52=20240725-06:47:33|21=1|11=HS_172189005311|38=2571|55=E:07G@XETR|54=1|60=20240725-06:47:33|40=2|59=0|44=500|48=US3390411052|22=4|15=EUR|207=XETR|1=bram_123|10=195|
2024-07-25 08:47:33.731 [39] [FixSender] (DEBUG) Receiving 8=FIX.4.4|9=237|35=8|34=31|49=DMA_HUB|56=FIXCLIENT1|52=20240725-06:47:33.731|11=HS_172189005311|37=FXu8gm1XE|54=1|40=2|59=0|17=2024072524|150=A|39=A|38=2571|151=2571|14=0|6=0|44=500|60=20240725-06:47:33.000|22=4|48=US3390411052|207=XETR|15=EUR|55=[N/A]|10=123|
2024-07-25 08:47:33.733 [39] [FixSender] (DEBUG) Receiving 8=FIX.4.4|9=252|35=8|34=32|49=DMA_HUB|56=FIXCLIENT1|52=20240725-06:47:33.733|11=HS_172189005311|37=FXu8gm1XE|198=Nbalv3d8bd|54=1|40=2|59=0|17=2024072525|150=0|39=0|38=2571|151=2571|14=0|6=0|44=500|60=20240725-06:47:33.732|22=4|48=US3390411052|207=XETR|15=EUR|55=[N/A]|10=206|
2024-07-25 08:47:33.735 [39] [FixSender] (DEBUG) Receiving 8=FIX.4.4|9=313|35=8|34=33|49=DMA_HUB|56=FIXCLIENT1|52=20240725-06:47:33.734|11=HS_172189005311|37=FXu8gm1XE|198=Nbalv3d8bd|54=1|32=2571|31=193|17=2024072526|527=BNbalv7|150=F|39=2|38=2571|151=0|14=2571|6=193|44=500|60=20240725-06:47:33.732|22=4|48=US3390411052|207=XETR|15=EUR|55=[N/A]|453=1|448=strmrepl|447=D|452=17|40=2|59=0|10=017|
2024-07-25 08:47:45.426 [55] [FixSender] (DEBUG) Sending 8=FIX.4.4|9=194|35=D|49=FIXCLIENT1|56=DMA_HUB|34=15|52=20240725-06:47:45|21=1|11=HS_172189006512|38=3905|55=E:07G@XETR|54=1|60=20240725-06:47:45|40=2|59=0|44=499|48=US3390411052|22=4|15=EUR|207=XETR|1=bram_123|10=225|
2024-07-25 08:47:45.427 [39] [FixSender] (DEBUG) Receiving 8=FIX.4.4|9=237|35=8|34=34|49=DMA_HUB|56=FIXCLIENT1|52=20240725-06:47:45.427|11=HS_172189006512|37=FXv8gm1XE|54=1|40=2|59=0|17=2024072527|150=A|39=A|38=3905|151=3905|14=0|6=0|44=499|60=20240725-06:47:45.000|22=4|48=US3390411052|207=XETR|15=EUR|55=[N/A]|10=163|
2024-07-25 08:47:46.254 [56] [FixSender] (DEBUG) Sending 8=FIX.4.4|9=194|35=D|49=FIXCLIENT1|56=DMA_HUB|34=16|52=20240725-06:47:46|21=1|11=HS_172189006613|38=4823|55=E:07G@XETR|54=1|60=20240725-06:47:46|40=2|59=0|44=499|48=US3390411052|22=4|15=EUR|207=XETR|1=bram_123|10=230|
2024-07-25 08:47:46.256 [39] [FixSender] (DEBUG) Receiving 8=FIX.4.4|9=237|35=8|34=35|49=DMA_HUB|56=FIXCLIENT1|52=20240725-06:47:46.255|11=HS_172189006613|37=FXw8gm1XE|54=1|40=2|59=0|17=2024072528|150=A|39=A|38=4823|151=4823|14=0|6=0|44=499|60=20240725-06:47:46.000|22=4|48=US3390411052|207=XETR|15=EUR|55=[N/A]|10=169|
2024-07-25 08:47:53.841 [39] [FixSender] (DEBUG) Receiving 8=FIX.4.4|9=61|35=0|34=36|49=DMA_HUB|56=FIXCLIENT1|52=20240725-06:47:53.840|10=253|
2024-07-25 08:48:01.163 [57] [FixSender] (DEBUG) Sending 8=FIX.4.4|9=194|35=D|49=FIXCLIENT1|56=DMA_HUB|34=17|52=20240725-06:48:01|21=1|11=HS_172189008114|38=1474|55=E:07G@XETR|54=1|60=20240725-06:48:01|40=2|59=0|44=500|48=US3390411052|22=4|15=EUR|207=XETR|1=bram_123|10=195|
2024-07-25 08:48:01.164 [39] [FixSender] (DEBUG) Receiving 8=FIX.4.4|9=237|35=8|34=37|49=DMA_HUB|56=FIXCLIENT1|52=20240725-06:48:01.164|11=HS_172189008114|37=FXx8gm1XE|54=1|40=2|59=0|17=2024072529|150=A|39=A|38=1474|151=1474|14=0|6=0|44=500|60=20240725-06:48:01.000|22=4|48=US3390411052|207=XETR|15=EUR|55=[N/A]|10=135|
2024-07-25 08:48:01.167 [39] [FixSender] (DEBUG) Receiving 8=FIX.4.4|9=252|35=8|34=38|49=DMA_HUB|56=FIXCLIENT1|52=20240725-06:48:01.166|11=HS_172189008114|37=FXx8gm1XE|198=Nbalv40859|54=1|40=2|59=0|17=2024072530|150=0|39=0|38=1474|151=1474|14=0|6=0|44=500|60=20240725-06:48:01.165|22=4|48=US3390411052|207=XETR|15=EUR|55=[N/A]|10=070|
2024-07-25 08:48:01.168 [39] [FixSender] (DEBUG) Receiving 8=FIX.4.4|9=313|35=8|34=39|49=DMA_HUB|56=FIXCLIENT1|52=20240725-06:48:01.167|11=HS_172189008114|37=FXx8gm1XE|198=Nbalv40859|54=1|32=1474|31=192|17=2024072531|527=BNbalv8|150=F|39=2|38=1474|151=0|14=1474|6=192|44=500|60=20240725-06:48:01.165|22=4|48=US3390411052|207=XETR|15=EUR|55=[N/A]|453=1|448=strmrepl|447=D|452=17|40=2|59=0|10=137|
2024-07-25 08:48:23.793 [39] [FixSender] (DEBUG) Receiving 8=FIX.4.4|9=61|35=0|34=40|49=DMA_HUB|56=FIXCLIENT1|52=20240725-06:48:23.792|10=252|
2024-07-25 08:48:31.164 [40] [FixSender] (DEBUG) Sending 8=FIX.4.4|9=57|35=0|49=FIXCLIENT1|56=DMA_HUB|34=18|52=20240725-06:48:31|10=053|
2024-07-25 08:48:53.809 [39] [FixSender] (DEBUG) Receiving 8=FIX.4.4|9=61|35=0|34=41|49=DMA_HUB|56=FIXCLIENT1|52=20240725-06:48:53.808|10=254|
2024-07-25 08:49:01.165 [40] [FixSender] (DEBUG) Sending 8=FIX.4.4|9=57|35=0|49=FIXCLIENT1|56=DMA_HUB|34=19|52=20240725-06:49:01|10=052|
2024-07-25 08:49:23.761 [39] [FixSender] (DEBUG) Receiving 8=FIX.4.4|9=61|35=0|34=42|49=DMA_HUB|56=FIXCLIENT1|52=20240725-06:49:23.761|10=251|
2024-07-25 08:49:31.165 [40] [FixSender] (DEBUG) Sending 8=FIX.4.4|9=57|35=0|49=FIXCLIENT1|56=DMA_HUB|34=20|52=20240725-06:49:31|10=047|
2024-07-25 08:49:53.712 [39] [FixSender] (DEBUG) Receiving 8=FIX.4.4|9=61|35=0|34=43|49=DMA_HUB|56=FIXCLIENT1|52=20240725-06:49:53.712|10=251|
2024-07-25 08:50:01.166 [40] [FixSender] (DEBUG) Sending 8=FIX.4.4|9=57|35=0|49=FIXCLIENT1|56=DMA_HUB|34=21|52=20240725-06:50:01|10=037|
2024-07-25 08:50:23.665 [39] [FixSender] (DEBUG) Receiving 8=FIX.4.4|9=61|35=0|34=44|49=DMA_HUB|56=FIXCLIENT1|52=20240725-06:50:23.664|10=247|
2024-07-25 08:50:31.166 [40] [FixSender] (DEBUG) Sending 8=FIX.4.4|9=57|35=0|49=FIXCLIENT1|56=DMA_HUB|34=22|52=20240725-06:50:31|10=041|
2024-07-25 08:50:53.616 [39] [FixSender] (DEBUG) Receiving 8=FIX.4.4|9=61|35=0|34=45|49=DMA_HUB|56=FIXCLIENT1|52=20240725-06:50:53.616|10=248|
2024-07-25 08:51:01.167 [40] [FixSender] (DEBUG) Sending 8=FIX.4.4|9=57|35=0|49=FIXCLIENT1|56=DMA_HUB|34=23|52=20240725-06:51:01|10=040|
2024-07-25 08:51:23.569 [39] [FixSender] (DEBUG) Receiving 8=FIX.4.4|9=61|35=0|34=46|49=DMA_HUB|56=FIXCLIENT1|52=20240725-06:51:23.568|10=253|
2024-07-25 08:51:31.167 [40] [FixSender] (DEBUG) Sending 8=FIX.4.4|9=57|35=0|49=FIXCLIENT1|56=DMA_HUB|34=24|52=20240725-06:51:31|10=044|
2024-07-25 08:51:53.520 [39] [FixSender] (DEBUG) Receiving 8=FIX.4.4|9=61|35=0|34=47|49=DMA_HUB|56=FIXCLIENT1|52=20240725-06:51:53.520|10=245|
2024-07-25 08:52:01.168 [40] [FixSender] (DEBUG) Sending 8=FIX.4.4|9=57|35=0|49=FIXCLIENT1|56=DMA_HUB|34=25|52=20240725-06:52:01|10=043|
2024-07-25 08:52:23.472 [39] [FixSender] (DEBUG) Receiving 8=FIX.4.4|9=61|35=0|34=48|49=DMA_HUB|56=FIXCLIENT1|52=20240725-06:52:23.472|10=250|
2024-07-25 08:52:31.168 [40] [FixSender] (DEBUG) Sending 8=FIX.4.4|9=57|35=0|49=FIXCLIENT1|56=DMA_HUB|34=26|52=20240725-06:52:31|10=047|
2024-07-25 08:52:53.425 [39] [FixSender] (DEBUG) Receiving 8=FIX.4.4|9=61|35=0|34=49|49=DMA_HUB|56=FIXCLIENT1|52=20240725-06:52:53.425|10=252|
2024-07-25 08:53:01.169 [40] [FixSender] (DEBUG) Sending 8=FIX.4.4|9=57|35=0|49=FIXCLIENT1|56=DMA_HUB|34=27|52=20240725-06:53:01|10=046|
2024-07-25 08:53:23.376 [39] [FixSender] (DEBUG) Receiving 8=FIX.4.4|9=61|35=0|34=50|49=DMA_HUB|56=FIXCLIENT1|52=20240725-06:53:23.376|10=247|
2024-07-25 08:53:26.790 [58] [FixSender] (DEBUG) Sending 8=FIX.4.4|9=194|35=D|49=FIXCLIENT1|56=DMA_HUB|34=28|52=20240725-06:53:26|21=1|11=HS_172189040615|38=3851|55=E:07G@XETR|54=1|60=20240725-06:53:26|40=2|59=0|44=200|48=US3390411052|22=4|15=EUR|207=XETR|1=bram_123|10=203|
2024-07-25 08:53:26.792 [39] [FixSender] (DEBUG) Receiving 8=FIX.4.4|9=237|35=8|34=51|49=DMA_HUB|56=FIXCLIENT1|52=20240725-06:53:26.792|11=HS_172189040615|37=FXy8gm1XE|54=1|40=2|59=0|17=2024072532|150=A|39=A|38=3851|151=3851|14=0|6=0|44=200|60=20240725-06:53:26.000|22=4|48=US3390411052|207=XETR|15=EUR|55=[N/A]|10=140|
2024-07-25 08:53:28.059 [59] [FixSender] (DEBUG) Sending 8=FIX.4.4|9=194|35=D|49=FIXCLIENT1|56=DMA_HUB|34=29|52=20240725-06:53:28|21=1|11=HS_172189040816|38=3713|55=E:07G@XETR|54=1|60=20240725-06:53:28|40=2|59=0|44=200|48=US3390411052|22=4|15=EUR|207=XETR|1=bram_123|10=208|
2024-07-25 08:53:28.061 [39] [FixSender] (DEBUG) Receiving 8=FIX.4.4|9=237|35=8|34=52|49=DMA_HUB|56=FIXCLIENT1|52=20240725-06:53:28.060|11=HS_172189040816|37=FXz8gm1XE|54=1|40=2|59=0|17=2024072533|150=A|39=A|38=3713|151=3713|14=0|6=0|44=200|60=20240725-06:53:28.000|22=4|48=US3390411052|207=XETR|15=EUR|55=[N/A]|10=132|
2024-07-25 08:53:35.431 [60] [FixSender] (DEBUG) Sending 8=FIX.4.4|9=194|35=D|49=FIXCLIENT1|56=DMA_HUB|34=30|52=20240725-06:53:35|21=1|11=HS_172189041517|38=2908|55=E:07G@XETR|54=1|60=20240725-06:53:35|40=2|59=0|44=300|48=US3390411052|22=4|15=EUR|207=XETR|1=bram_123|10=201|
2024-07-25 08:53:35.433 [39] [FixSender] (DEBUG) Receiving 8=FIX.4.4|9=237|35=8|34=53|49=DMA_HUB|56=FIXCLIENT1|52=20240725-06:53:35.432|11=HS_172189041517|37=FX09gm1XE|54=1|40=2|59=0|17=2024072534|150=A|39=A|38=2908|151=2908|14=0|6=0|44=300|60=20240725-06:53:35.000|22=4|48=US3390411052|207=XETR|15=EUR|55=[N/A]|10=070|
2024-07-25 08:53:36.164 [61] [FixSender] (DEBUG) Sending 8=FIX.4.4|9=194|35=D|49=FIXCLIENT1|56=DMA_HUB|34=31|52=20240725-06:53:36|21=1|11=HS_172189041618|38=3970|55=E:07G@XETR|54=1|60=20240725-06:53:36|40=2|59=0|44=300|48=US3390411052|22=4|15=EUR|207=XETR|1=bram_123|10=206|
2024-07-25 08:53:36.166 [39] [FixSender] (DEBUG) Receiving 8=FIX.4.4|9=237|35=8|34=54|49=DMA_HUB|56=FIXCLIENT1|52=20240725-06:53:36.165|11=HS_172189041618|37=FX19gm1XE|54=1|40=2|59=0|17=2024072535|150=A|39=A|38=3970|151=3970|14=0|6=0|44=300|60=20240725-06:53:36.000|22=4|48=US3390411052|207=XETR|15=EUR|55=[N/A]|10=080|
2024-07-25 08:53:44.557 [62] [FixSender] (DEBUG) Sending 8=FIX.4.4|9=194|35=D|49=FIXCLIENT1|56=DMA_HUB|34=32|52=20240725-06:53:44|21=1|11=HS_172189042419|38=2646|55=E:07G@XETR|54=1|60=20240725-06:53:44|40=2|59=0|44=199|48=US3390411052|22=4|15=EUR|207=XETR|1=bram_123|10=220|
2024-07-25 08:53:44.558 [39] [FixSender] (DEBUG) Receiving 8=FIX.4.4|9=237|35=8|34=55|49=DMA_HUB|56=FIXCLIENT1|52=20240725-06:53:44.558|11=HS_172189042419|37=FX29gm1XE|54=1|40=2|59=0|17=2024072536|150=A|39=A|38=2646|151=2646|14=0|6=0|44=199|60=20240725-06:53:44.000|22=4|48=US3390411052|207=XETR|15=EUR|55=[N/A]|10=101|
2024-07-25 08:53:44.562 [39] [FixSender] (DEBUG) Receiving 8=FIX.4.4|9=252|35=8|34=56|49=DMA_HUB|56=FIXCLIENT1|52=20240725-06:53:44.561|11=HS_172189042419|37=FX29gm1XE|198=Nbalv66055|54=1|40=2|59=0|17=2024072537|150=0|39=0|38=2646|151=2646|14=0|6=0|44=199|60=20240725-06:53:44.559|22=4|48=US3390411052|207=XETR|15=EUR|55=[N/A]|10=040|
2024-07-25 08:53:44.563 [39] [FixSender] (DEBUG) Receiving 8=FIX.4.4|9=313|35=8|34=57|49=DMA_HUB|56=FIXCLIENT1|52=20240725-06:53:44.563|11=HS_172189042419|37=FX29gm1XE|198=Nbalv66055|54=1|32=2646|31=187|17=2024072538|527=BNbalv9|150=F|39=2|38=2646|151=0|14=2646|6=187|44=199|60=20240725-06:53:44.560|22=4|48=US3390411052|207=XETR|15=EUR|55=[N/A]|453=1|448=strmrepl|447=D|452=17|40=2|59=0|10=111|
2024-07-25 08:53:45.320 [63] [FixSender] (DEBUG) Sending 8=FIX.4.4|9=194|35=D|49=FIXCLIENT1|56=DMA_HUB|34=33|52=20240725-06:53:45|21=1|11=HS_172189042520|38=3406|55=E:07G@XETR|54=1|60=20240725-06:53:45|40=2|59=0|44=199|48=US3390411052|22=4|15=EUR|207=XETR|1=bram_123|10=211|
2024-07-25 08:53:45.321 [39] [FixSender] (DEBUG) Receiving 8=FIX.4.4|9=237|35=8|34=58|49=DMA_HUB|56=FIXCLIENT1|52=20240725-06:53:45.320|11=HS_172189042520|37=FX39gm1XE|54=1|40=2|59=0|17=2024072539|150=A|39=A|38=3406|151=3406|14=0|6=0|44=199|60=20240725-06:53:45.000|22=4|48=US3390411052|207=XETR|15=EUR|55=[N/A]|10=080|
2024-07-25 08:53:45.323 [39] [FixSender] (DEBUG) Receiving 8=FIX.4.4|9=252|35=8|34=59|49=DMA_HUB|56=FIXCLIENT1|52=20240725-06:53:45.323|11=HS_172189042520|37=FX39gm1XE|198=Nbalv661c0|54=1|40=2|59=0|17=2024072540|150=0|39=0|38=3406|151=3406|14=0|6=0|44=199|60=20240725-06:53:45.322|22=4|48=US3390411052|207=XETR|15=EUR|55=[N/A]|10=049|
2024-07-25 08:53:45.325 [39] [FixSender] (DEBUG) Receiving 8=FIX.4.4|9=313|35=8|34=60|49=DMA_HUB|56=FIXCLIENT1|52=20240725-06:53:45.324|11=HS_172189042520|37=FX39gm1XE|198=Nbalv661c0|54=1|32=3406|31=187|17=2024072541|527=BNbalva|150=F|39=2|38=3406|151=0|14=3406|6=187|44=199|60=20240725-06:53:45.322|22=4|48=US3390411052|207=XETR|15=EUR|55=[N/A]|453=1|448=strmrepl|447=D|452=17|40=2|59=0|10=153|
2024-07-25 08:53:53.329 [39] [FixSender] (DEBUG) Receiving 8=FIX.4.4|9=61|35=0|34=61|49=DMA_HUB|56=FIXCLIENT1|52=20240725-06:53:53.328|10=249|
2024-07-25 08:54:10.410 [64] [FixSender] (DEBUG) Sending 8=FIX.4.4|9=194|35=D|49=FIXCLIENT1|56=DMA_HUB|34=34|52=20240725-06:54:10|21=1|11=HS_172189045021|38=1333|55=E:07G@XETR|54=1|60=20240725-06:54:10|40=2|59=0|44=300|48=US3390411052|22=4|15=EUR|207=XETR|1=bram_123|10=178|
2024-07-25 08:54:10.412 [39] [FixSender] (DEBUG) Receiving 8=FIX.4.4|9=237|35=8|34=62|49=DMA_HUB|56=FIXCLIENT1|52=20240725-06:54:10.411|11=HS_172189045021|37=FX49gm1XE|54=1|40=2|59=0|17=2024072542|150=A|39=A|38=1333|151=1333|14=0|6=0|44=300|60=20240725-06:54:10.000|22=4|48=US3390411052|207=XETR|15=EUR|55=[N/A]|10=034|
2024-07-25 08:54:10.953 [65] [FixSender] (DEBUG) Sending 8=FIX.4.4|9=193|35=D|49=FIXCLIENT1|56=DMA_HUB|34=35|52=20240725-06:54:10|21=1|11=HS_172189045022|38=975|55=E:07G@XETR|54=1|60=20240725-06:54:10|40=2|59=0|44=300|48=US3390411052|22=4|15=EUR|207=XETR|1=bram_123|10=142|
2024-07-25 08:54:10.954 [39] [FixSender] (DEBUG) Receiving 8=FIX.4.4|9=235|35=8|34=63|49=DMA_HUB|56=FIXCLIENT1|52=20240725-06:54:10.954|11=HS_172189045022|37=FX59gm1XE|54=1|40=2|59=0|17=2024072543|150=A|39=A|38=975|151=975|14=0|6=0|44=300|60=20240725-06:54:10.000|22=4|48=US3390411052|207=XETR|15=EUR|55=[N/A]|10=230|
2024-07-25 08:54:23.280 [39] [FixSender] (DEBUG) Receiving 8=FIX.4.4|9=61|35=0|34=64|49=DMA_HUB|56=FIXCLIENT1|52=20240725-06:54:23.280|10=247|
2024-07-25 08:54:38.070 [66] [FixSender] (DEBUG) Sending 8=FIX.4.4|9=194|35=D|49=FIXCLIENT1|56=DMA_HUB|34=36|52=20240725-06:54:38|21=1|11=HS_172189047823|38=4892|55=E:07G@XETR|54=1|60=20240725-06:54:38|40=2|59=0|44=301|48=US3390411052|22=4|15=EUR|207=XETR|1=bram_123|10=226|
2024-07-25 08:54:38.071 [39] [FixSender] (DEBUG) Receiving 8=FIX.4.4|9=237|35=8|34=65|49=DMA_HUB|56=FIXCLIENT1|52=20240725-06:54:38.071|11=HS_172189047823|37=FX69gm1XE|54=1|40=2|59=0|17=2024072544|150=A|39=A|38=4892|151=4892|14=0|6=0|44=301|60=20240725-06:54:38.000|22=4|48=US3390411052|207=XETR|15=EUR|55=[N/A]|10=102|
2024-07-25 08:54:38.576 [67] [FixSender] (DEBUG) Sending 8=FIX.4.4|9=194|35=D|49=FIXCLIENT1|56=DMA_HUB|34=37|52=20240725-06:54:38|21=1|11=HS_172189047824|38=2313|55=E:07G@XETR|54=1|60=20240725-06:54:38|40=2|59=0|44=301|48=US3390411052|22=4|15=EUR|207=XETR|1=bram_123|10=214|
2024-07-25 08:54:38.577 [39] [FixSender] (DEBUG) Receiving 8=FIX.4.4|9=237|35=8|34=66|49=DMA_HUB|56=FIXCLIENT1|52=20240725-06:54:38.577|11=HS_172189047824|37=FX79gm1XE|54=1|40=2|59=0|17=2024072545|150=A|39=A|38=2313|151=2313|14=0|6=0|44=301|60=20240725-06:54:38.000|22=4|48=US3390411052|207=XETR|15=EUR|55=[N/A]|10=089|
2024-07-25 08:54:39.000 [68] [FixSender] (DEBUG) Sending 8=FIX.4.4|9=193|35=D|49=FIXCLIENT1|56=DMA_HUB|34=38|52=20240725-06:54:39|21=1|11=HS_172189047925|38=315|55=E:07G@XETR|54=1|60=20240725-06:54:39|40=2|59=0|44=301|48=US3390411052|22=4|15=EUR|207=XETR|1=bram_123|10=170|
2024-07-25 08:54:39.002 [39] [FixSender] (DEBUG) Receiving 8=FIX.4.4|9=235|35=8|34=67|49=DMA_HUB|56=FIXCLIENT1|52=20240725-06:54:39.001|11=HS_172189047925|37=FX89gm1XE|54=1|40=2|59=0|17=2024072546|150=A|39=A|38=315|151=315|14=0|6=0|44=301|60=20240725-06:54:39.000|22=4|48=US3390411052|207=XETR|15=EUR|55=[N/A]|10=236|
2024-07-25 08:54:40.264 [69] [FixSender] (DEBUG) Sending 8=FIX.4.4|9=194|35=D|49=FIXCLIENT1|56=DMA_HUB|34=39|52=20240725-06:54:40|21=1|11=HS_172189048026|38=1567|55=E:07G@XETR|54=1|60=20240725-06:54:40|40=2|59=0|44=301|48=US3390411052|22=4|15=EUR|207=XETR|1=bram_123|10=207|
2024-07-25 08:54:40.265 [39] [FixSender] (DEBUG) Receiving 8=FIX.4.4|9=237|35=8|34=68|49=DMA_HUB|56=FIXCLIENT1|52=20240725-06:54:40.265|11=HS_172189048026|37=FX99gm1XE|54=1|40=2|59=0|17=2024072547|150=A|39=A|38=1567|151=1567|14=0|6=0|44=301|60=20240725-06:54:40.000|22=4|48=US3390411052|207=XETR|15=EUR|55=[N/A]|10=090|
2024-07-25 08:54:53.233 [39] [FixSender] (DEBUG) Receiving 8=FIX.4.4|9=61|35=0|34=69|49=DMA_HUB|56=FIXCLIENT1|52=20240725-06:54:53.232|10=252|
2024-07-25 08:55:06.955 [70] [FixSender] (DEBUG) Sending 8=FIX.4.4|9=193|35=D|49=FIXCLIENT1|56=DMA_HUB|34=40|52=20240725-06:55:06|21=1|11=HS_172189050627|38=353|55=E:07G@XETR|54=1|60=20240725-06:55:06|40=2|59=0|44=301|48=US3390411052|22=4|15=EUR|207=XETR|1=bram_123|10=148|
2024-07-25 08:55:06.956 [39] [FixSender] (DEBUG) Receiving 8=FIX.4.4|9=235|35=8|34=70|49=DMA_HUB|56=FIXCLIENT1|52=20240725-06:55:06.956|11=HS_172189050627|37=FXA9gm1XE|54=1|40=2|59=0|17=2024072548|150=A|39=A|38=353|151=353|14=0|6=0|44=301|60=20240725-06:55:06.000|22=4|48=US3390411052|207=XETR|15=EUR|55=[N/A]|10=247|
2024-07-25 08:55:07.701 [71] [FixSender] (DEBUG) Sending 8=FIX.4.4|9=194|35=D|49=FIXCLIENT1|56=DMA_HUB|34=41|52=20240725-06:55:07|21=1|11=HS_172189050728|38=3858|55=E:07G@XETR|54=1|60=20240725-06:55:07|40=2|59=0|44=301|48=US3390411052|22=4|15=EUR|207=XETR|1=bram_123|10=215|
2024-07-25 08:55:07.703 [39] [FixSender] (DEBUG) Receiving 8=FIX.4.4|9=237|35=8|34=71|49=DMA_HUB|56=FIXCLIENT1|52=20240725-06:55:07.702|11=HS_172189050728|37=FXB9gm1XE|54=1|40=2|59=0|17=2024072549|150=A|39=A|38=3858|151=3858|14=0|6=0|44=301|60=20240725-06:55:07.000|22=4|48=US3390411052|207=XETR|15=EUR|55=[N/A]|10=111|
2024-07-25 08:55:09.190 [72] [FixSender] (DEBUG) Sending 8=FIX.4.4|9=194|35=D|49=FIXCLIENT1|56=DMA_HUB|34=42|52=20240725-06:55:09|21=1|11=HS_172189050929|38=4184|55=E:07G@XETR|54=1|60=20240725-06:55:09|40=2|59=0|44=301|48=US3390411052|22=4|15=EUR|207=XETR|1=bram_123|10=216|
2024-07-25 08:55:09.191 [39] [FixSender] (DEBUG) Receiving 8=FIX.4.4|9=237|35=8|34=72|49=DMA_HUB|56=FIXCLIENT1|52=20240725-06:55:09.191|11=HS_172189050929|37=FXC9gm1XE|54=1|40=2|59=0|17=2024072550|150=A|39=A|38=4184|151=4184|14=0|6=0|44=301|60=20240725-06:55:09.000|22=4|48=US3390411052|207=XETR|15=EUR|55=[N/A]|10=100|
2024-07-25 08:55:17.710 [73] [FixSender] (DEBUG) Sending 8=FIX.4.4|9=193|35=D|49=FIXCLIENT1|56=DMA_HUB|34=43|52=20240725-06:55:17|21=1|11=HS_172189051730|38=597|55=E:07G@XETR|54=1|60=20240725-06:55:17|40=2|59=0|44=299|48=US3390411052|22=4|15=EUR|207=XETR|1=bram_123|10=177|
2024-07-25 08:55:17.712 [39] [FixSender] (DEBUG) Receiving 8=FIX.4.4|9=235|35=8|34=73|49=DMA_HUB|56=FIXCLIENT1|52=20240725-06:55:17.712|11=HS_172189051730|37=FXD9gm1XE|54=1|40=2|59=0|17=2024072551|150=A|39=A|38=597|151=597|14=0|6=0|44=299|60=20240725-06:55:17.000|22=4|48=US3390411052|207=XETR|15=EUR|55=[N/A]|10=017|
2024-07-25 08:55:18.625 [74] [FixSender] (DEBUG) Sending 8=FIX.4.4|9=194|35=D|49=FIXCLIENT1|56=DMA_HUB|34=44|52=20240725-06:55:18|21=1|11=HS_172189051831|38=4780|55=E:07G@XETR|54=1|60=20240725-06:55:18|40=2|59=0|44=299|48=US3390411052|22=4|15=EUR|207=XETR|1=bram_123|10=229|
2024-07-25 08:55:18.626 [39] [FixSender] (DEBUG) Receiving 8=FIX.4.4|9=237|35=8|34=74|49=DMA_HUB|56=FIXCLIENT1|52=20240725-06:55:18.626|11=HS_172189051831|37=FXE9gm1XE|54=1|40=2|59=0|17=2024072552|150=A|39=A|38=4780|151=4780|14=0|6=0|44=299|60=20240725-06:55:18.000|22=4|48=US3390411052|207=XETR|15=EUR|55=[N/A]|10=122|
2024-07-25 08:55:23.185 [39] [FixSender] (DEBUG) Receiving 8=FIX.4.4|9=61|35=0|34=75|49=DMA_HUB|56=FIXCLIENT1|52=20240725-06:55:23.185|10=254|
2024-07-25 08:55:29.397 [75] [FixSender] (DEBUG) Sending 8=FIX.4.4|9=194|35=D|49=FIXCLIENT1|56=DMA_HUB|34=45|52=20240725-06:55:29|21=1|11=HS_172189052932|38=1987|55=E:07G@XETR|54=1|60=20240725-06:55:29|40=2|59=0|44=350|48=US3390411052|22=4|15=EUR|207=XETR|1=bram_123|10=231|
2024-07-25 08:55:29.398 [39] [FixSender] (DEBUG) Receiving 8=FIX.4.4|9=237|35=8|34=76|49=DMA_HUB|56=FIXCLIENT1|52=20240725-06:55:29.398|11=HS_172189052932|37=FXF9gm1XE|54=1|40=2|59=0|17=2024072553|150=A|39=A|38=1987|151=1987|14=0|6=0|44=350|60=20240725-06:55:29.000|22=4|48=US3390411052|207=XETR|15=EUR|55=[N/A]|10=139|
2024-07-25 08:55:29.400 [39] [FixSender] (DEBUG) Receiving 8=FIX.4.4|9=252|35=8|34=77|49=DMA_HUB|56=FIXCLIENT1|52=20240725-06:55:29.400|11=HS_172189052932|37=FXF9gm1XE|198=Nbalv716d4|54=1|40=2|59=0|17=2024072554|150=0|39=0|38=1987|151=1987|14=0|6=0|44=350|60=20240725-06:55:29.399|22=4|48=US3390411052|207=XETR|15=EUR|55=[N/A]|10=118|
2024-07-25 08:55:29.402 [39] [FixSender] (DEBUG) Receiving 8=FIX.4.4|9=313|35=8|34=78|49=DMA_HUB|56=FIXCLIENT1|52=20240725-06:55:29.401|11=HS_172189052932|37=FXF9gm1XE|198=Nbalv716d4|54=1|32=1987|31=184|17=2024072555|527=BNbalvb|150=F|39=2|38=1987|151=0|14=1987|6=184|44=350|60=20240725-06:55:29.399|22=4|48=US3390411052|207=XETR|15=EUR|55=[N/A]|453=1|448=strmrepl|447=D|452=17|40=2|59=0|10=238|
2024-07-25 08:55:30.115 [76] [FixSender] (DEBUG) Sending 8=FIX.4.4|9=194|35=D|49=FIXCLIENT1|56=DMA_HUB|34=46|52=20240725-06:55:30|21=1|11=HS_172189053033|38=4337|55=E:07G@XETR|54=1|60=20240725-06:55:30|40=2|59=0|44=350|48=US3390411052|22=4|15=EUR|207=XETR|1=bram_123|10=201|
2024-07-25 08:55:30.117 [39] [FixSender] (DEBUG) Receiving 8=FIX.4.4|9=237|35=8|34=79|49=DMA_HUB|56=FIXCLIENT1|52=20240725-06:55:30.116|11=HS_172189053033|37=FXG9gm1XE|54=1|40=2|59=0|17=2024072556|150=A|39=A|38=4337|151=4337|14=0|6=0|44=350|60=20240725-06:55:30.000|22=4|48=US3390411052|207=XETR|15=EUR|55=[N/A]|10=095|
2024-07-25 08:55:30.120 [39] [FixSender] (DEBUG) Receiving 8=FIX.4.4|9=252|35=8|34=80|49=DMA_HUB|56=FIXCLIENT1|52=20240725-06:55:30.119|11=HS_172189053033|37=FXG9gm1XE|198=Nbalv7182a|54=1|40=2|59=0|17=2024072557|150=0|39=0|38=4337|151=4337|14=0|6=0|44=350|60=20240725-06:55:30.118|22=4|48=US3390411052|207=XETR|15=EUR|55=[N/A]|10=070|
2024-07-25 08:55:30.121 [39] [FixSender] (DEBUG) Receiving 8=FIX.4.4|9=313|35=8|34=81|49=DMA_HUB|56=FIXCLIENT1|52=20240725-06:55:30.121|11=HS_172189053033|37=FXG9gm1XE|198=Nbalv7182a|54=1|32=4337|31=184|17=2024072558|527=BNbalvc|150=F|39=2|38=4337|151=0|14=4337|6=184|44=350|60=20240725-06:55:30.118|22=4|48=US3390411052|207=XETR|15=EUR|55=[N/A]|453=1|448=strmrepl|447=D|452=17|40=2|59=0|10=175|
2024-07-25 08:55:44.461 [77] [FixSender] (DEBUG) Sending 8=FIX.4.4|9=194|35=D|49=FIXCLIENT1|56=DMA_HUB|34=47|52=20240725-06:55:44|21=1|11=HS_172189054434|38=2554|55=E:07G@XETR|54=1|60=20240725-06:55:44|40=2|59=0|44=300|48=US3390411052|22=4|15=EUR|207=XETR|1=bram_123|10=212|
2024-07-25 08:55:44.463 [39] [FixSender] (DEBUG) Receiving 8=FIX.4.4|9=237|35=8|34=82|49=DMA_HUB|56=FIXCLIENT1|52=20240725-06:55:44.462|11=HS_172189054434|37=FXH9gm1XE|54=1|40=2|59=0|17=2024072559|150=A|39=A|38=2554|151=2554|14=0|6=0|44=300|60=20240725-06:55:44.000|22=4|48=US3390411052|207=XETR|15=EUR|55=[N/A]|10=106|
2024-07-25 08:55:45.602 [78] [FixSender] (DEBUG) Sending 8=FIX.4.4|9=194|35=D|49=FIXCLIENT1|56=DMA_HUB|34=48|52=20240725-06:55:45|21=1|11=HS_172189054535|38=1884|55=E:07G@XETR|54=1|60=20240725-06:55:45|40=2|59=0|44=300|48=US3390411052|22=4|15=EUR|207=XETR|1=bram_123|10=222|
2024-07-25 08:55:45.603 [39] [FixSender] (DEBUG) Receiving 8=FIX.4.4|9=237|35=8|34=83|49=DMA_HUB|56=FIXCLIENT1|52=20240725-06:55:45.603|11=HS_172189054535|37=FXI9gm1XE|54=1|40=2|59=0|17=2024072560|150=A|39=A|38=1884|151=1884|14=0|6=0|44=300|60=20240725-06:55:45.000|22=4|48=US3390411052|207=XETR|15=EUR|55=[N/A]|10=111|
2024-07-25 08:55:53.136 [39] [FixSender] (DEBUG) Receiving 8=FIX.4.4|9=61|35=0|34=84|49=DMA_HUB|56=FIXCLIENT1|52=20240725-06:55:53.136|10=253|
2024-07-25 08:55:57.214 [79] [FixSender] (DEBUG) Sending 8=FIX.4.4|9=194|35=D|49=FIXCLIENT1|56=DMA_HUB|34=49|52=20240725-06:55:57|21=1|11=HS_172189055736|38=2703|55=E:07G@XETR|54=1|60=20240725-06:55:57|40=2|59=0|44=301|48=US3390411052|22=4|15=EUR|207=XETR|1=bram_123|10=225|
2024-07-25 08:55:57.215 [39] [FixSender] (DEBUG) Receiving 8=FIX.4.4|9=237|35=8|34=85|49=DMA_HUB|56=FIXCLIENT1|52=20240725-06:55:57.215|11=HS_172189055736|37=FXJ9gm1XE|54=1|40=2|59=0|17=2024072561|150=A|39=A|38=2703|151=2703|14=0|6=0|44=301|60=20240725-06:55:57.000|22=4|48=US3390411052|207=XETR|15=EUR|55=[N/A]|10=107|
2024-07-25 08:55:57.960 [80] [FixSender] (DEBUG) Sending 8=FIX.4.4|9=193|35=D|49=FIXCLIENT1|56=DMA_HUB|34=50|52=20240725-06:55:57|21=1|11=HS_172189055737|38=325|55=E:07G@XETR|54=1|60=20240725-06:55:57|40=2|59=0|44=301|48=US3390411052|22=4|15=EUR|207=XETR|1=bram_123|10=167|
2024-07-25 08:55:57.961 [39] [FixSender] (DEBUG) Receiving 8=FIX.4.4|9=235|35=8|34=86|49=DMA_HUB|56=FIXCLIENT1|52=20240725-06:55:57.961|11=HS_172189055737|37=FXK9gm1XE|54=1|40=2|59=0|17=2024072562|150=A|39=A|38=325|151=325|14=0|6=0|44=301|60=20240725-06:55:57.000|22=4|48=US3390411052|207=XETR|15=EUR|55=[N/A]|10=017|
2024-07-25 08:56:20.452 [81] [FixSender] (DEBUG) Sending 8=FIX.4.4|9=193|35=D|49=FIXCLIENT1|56=DMA_HUB|34=51|52=20240725-06:56:20|21=1|11=HS_17218905800|38=4787|55=E:07G@XETR|54=1|60=20240725-06:56:20|40=2|59=0|44=301|48=US3390411052|22=4|15=EUR|207=XETR|1=bram_123|10=152|
2024-07-25 08:56:20.453 [39] [FixSender] (DEBUG) Receiving 8=FIX.4.4|9=236|35=8|34=87|49=DMA_HUB|56=FIXCLIENT1|52=20240725-06:56:20.453|11=HS_17218905800|37=FXL9gm1XE|54=1|40=2|59=0|17=2024072563|150=A|39=A|38=4787|151=4787|14=0|6=0|44=301|60=20240725-06:56:20.000|22=4|48=US3390411052|207=XETR|15=EUR|55=[N/A]|10=065|
2024-07-25 08:56:21.408 [82] [FixSender] (DEBUG) Sending 8=FIX.4.4|9=193|35=D|49=FIXCLIENT1|56=DMA_HUB|34=52|52=20240725-06:56:21|21=1|11=HS_17218905811|38=2690|55=E:07G@XETR|54=1|60=20240725-06:56:21|40=2|59=0|44=301|48=US3390411052|22=4|15=EUR|207=XETR|1=bram_123|10=148|
2024-07-25 08:56:21.409 [39] [FixSender] (DEBUG) Receiving 8=FIX.4.4|9=236|35=8|34=88|49=DMA_HUB|56=FIXCLIENT1|52=20240725-06:56:21.409|11=HS_17218905811|37=FXM9gm1XE|54=1|40=2|59=0|17=2024072564|150=A|39=A|38=2690|151=2690|14=0|6=0|44=301|60=20240725-06:56:21.000|22=4|48=US3390411052|207=XETR|15=EUR|55=[N/A]|10=055|
2024-07-25 08:56:23.089 [39] [FixSender] (DEBUG) Receiving 8=FIX.4.4|9=61|35=0|34=89|49=DMA_HUB|56=FIXCLIENT1|52=20240725-06:56:23.088|10=006|
2024-07-25 08:56:26.818 [83] [FixSender] (DEBUG) Sending 8=FIX.4.4|9=192|35=D|49=FIXCLIENT1|56=DMA_HUB|34=53|52=20240725-06:56:26|21=1|11=HS_17218905862|38=222|55=E:07G@XETR|54=1|60=20240725-06:56:26|40=2|59=0|44=302|48=US3390411052|22=4|15=EUR|207=XETR|1=bram_123|10=106|
2024-07-25 08:56:26.820 [39] [FixSender] (DEBUG) Receiving 8=FIX.4.4|9=234|35=8|34=90|49=DMA_HUB|56=FIXCLIENT1|52=20240725-06:56:26.819|11=HS_17218905862|37=FXN9gm1XE|54=1|40=2|59=0|17=2024072565|150=A|39=A|38=222|151=222|14=0|6=0|44=302|60=20240725-06:56:26.000|22=4|48=US3390411052|207=XETR|15=EUR|55=[N/A]|10=208|
2024-07-25 08:56:26.822 [39] [FixSender] (DEBUG) Receiving 8=FIX.4.4|9=249|35=8|34=91|49=DMA_HUB|56=FIXCLIENT1|52=20240725-06:56:26.822|11=HS_17218905862|37=FXN9gm1XE|198=Nbalv77b09|54=1|40=2|59=0|17=2024072566|150=0|39=0|38=222|151=222|14=0|6=0|44=302|60=20240725-06:56:26.821|22=4|48=US3390411052|207=XETR|15=EUR|55=[N/A]|10=199|
2024-07-25 08:56:26.823 [39] [FixSender] (DEBUG) Receiving 8=FIX.4.4|9=309|35=8|34=92|49=DMA_HUB|56=FIXCLIENT1|52=20240725-06:56:26.823|11=HS_17218905862|37=FXN9gm1XE|198=Nbalv77b09|54=1|32=222|31=182|17=2024072567|527=BNbalvd|150=F|39=2|38=222|151=0|14=222|6=182|44=302|60=20240725-06:56:26.821|22=4|48=US3390411052|207=XETR|15=EUR|55=[N/A]|453=1|448=strmrepl|447=D|452=17|40=2|59=0|10=249|
2024-07-25 08:56:53.040 [39] [FixSender] (DEBUG) Receiving 8=FIX.4.4|9=61|35=0|34=93|49=DMA_HUB|56=FIXCLIENT1|52=20240725-06:56:53.040|10=248|
2024-07-25 08:56:56.818 [40] [FixSender] (DEBUG) Sending 8=FIX.4.4|9=57|35=0|49=FIXCLIENT1|56=DMA_HUB|34=54|52=20240725-06:56:56|10=059|
2024-07-25 08:57:01.100 [84] [FixSender] (DEBUG) Sending 8=FIX.4.4|9=193|35=D|49=FIXCLIENT1|56=DMA_HUB|34=55|52=20240725-06:57:01|21=1|11=HS_17218906210|38=1711|55=E:07G@XETR|54=1|60=20240725-06:57:01|40=2|59=0|44=501|48=US3390411052|22=4|15=EUR|207=XETR|1=bram_123|10=138|
2024-07-25 08:57:01.102 [39] [FixSender] (DEBUG) Receiving 8=FIX.4.4|9=236|35=8|34=94|49=DMA_HUB|56=FIXCLIENT1|52=20240725-06:57:01.101|11=HS_17218906210|37=FXO9gm1XE|54=1|40=2|59=0|17=2024072568|150=A|39=A|38=1711|151=1711|14=0|6=0|44=501|60=20240725-06:57:01.000|22=4|48=US3390411052|207=XETR|15=EUR|55=[N/A]|10=027|
2024-07-25 08:57:08.194 [85] [FixSender] (DEBUG) Sending 8=FIX.4.4|9=193|35=D|49=FIXCLIENT1|56=DMA_HUB|34=56|52=20240725-06:57:08|21=1|11=HS_17218906281|38=3703|55=E:07G@XETR|54=1|60=20240725-06:57:08|40=2|59=0|44=502|48=US3390411052|22=4|15=EUR|207=XETR|1=bram_123|10=165|
2024-07-25 08:57:08.196 [39] [FixSender] (DEBUG) Receiving 8=FIX.4.4|9=236|35=8|34=95|49=DMA_HUB|56=FIXCLIENT1|52=20240725-06:57:08.196|11=HS_17218906281|37=FXP9gm1XE|54=1|40=2|59=0|17=2024072569|150=A|39=A|38=3703|151=3703|14=0|6=0|44=502|60=20240725-06:57:08.000|22=4|48=US3390411052|207=XETR|15=EUR|55=[N/A]|10=073|
2024-07-25 08:57:12.269 [86] [FixSender] (DEBUG) Sending 8=FIX.4.4|9=193|35=D|49=FIXCLIENT1|56=DMA_HUB|34=57|52=20240725-06:57:12|21=1|11=HS_17218906322|38=2996|55=E:07G@XETR|54=1|60=20240725-06:57:12|40=2|59=0|44=502|48=US3390411052|22=4|15=EUR|207=XETR|1=bram_123|10=165|
2024-07-25 08:57:12.270 [39] [FixSender] (DEBUG) Receiving 8=FIX.4.4|9=236|35=8|34=96|49=DMA_HUB|56=FIXCLIENT1|52=20240725-06:57:12.270|11=HS_17218906322|37=FXQ9gm1XE|54=1|40=2|59=0|17=2024072570|150=A|39=A|38=2996|151=2996|14=0|6=0|44=502|60=20240725-06:57:12.000|22=4|48=US3390411052|207=XETR|15=EUR|55=[N/A]|10=072|
2024-07-25 08:57:16.443 [87] [FixSender] (DEBUG) Sending 8=FIX.4.4|9=193|35=D|49=FIXCLIENT1|56=DMA_HUB|34=58|52=20240725-06:57:16|21=1|11=HS_17218906363|38=4688|55=E:07G@XETR|54=1|60=20240725-06:57:16|40=2|59=0|44=503|48=US3390411052|22=4|15=EUR|207=XETR|1=bram_123|10=180|
2024-07-25 08:57:16.445 [39] [FixSender] (DEBUG) Receiving 8=FIX.4.4|9=236|35=8|34=97|49=DMA_HUB|56=FIXCLIENT1|52=20240725-06:57:16.444|11=HS_17218906363|37=FXR9gm1XE|54=1|40=2|59=0|17=2024072571|150=A|39=A|38=4688|151=4688|14=0|6=0|44=503|60=20240725-06:57:16.000|22=4|48=US3390411052|207=XETR|15=EUR|55=[N/A]|10=092|
2024-07-25 08:57:17.562 [88] [FixSender] (DEBUG) Sending 8=FIX.4.4|9=193|35=D|49=FIXCLIENT1|56=DMA_HUB|34=59|52=20240725-06:57:17|21=1|11=HS_17218906374|38=2859|55=E:07G@XETR|54=1|60=20240725-06:57:17|40=2|59=0|44=503|48=US3390411052|22=4|15=EUR|207=XETR|1=bram_123|10=183|
2024-07-25 08:57:17.563 [39] [FixSender] (DEBUG) Receiving 8=FIX.4.4|9=236|35=8|34=98|49=DMA_HUB|56=FIXCLIENT1|52=20240725-06:57:17.562|11=HS_17218906374|37=FXS9gm1XE|54=1|40=2|59=0|17=2024072572|150=A|39=A|38=2859|151=2859|14=0|6=0|44=503|60=20240725-06:57:17.000|22=4|48=US3390411052|207=XETR|15=EUR|55=[N/A]|10=096|
2024-07-25 08:57:22.993 [39] [FixSender] (DEBUG) Receiving 8=FIX.4.4|9=61|35=0|34=99|49=DMA_HUB|56=FIXCLIENT1|52=20240725-06:57:22.992|10=011|
2024-07-25 08:57:23.213 [89] [FixSender] (DEBUG) Sending 8=FIX.4.4|9=193|35=D|49=FIXCLIENT1|56=DMA_HUB|34=60|52=20240725-06:57:23|21=1|11=HS_17218906435|38=4707|55=E:07G@XETR|54=1|60=20240725-06:57:23|40=2|59=0|44=504|48=US3390411052|22=4|15=EUR|207=XETR|1=bram_123|10=162|
2024-07-25 08:57:23.214 [39] [FixSender] (DEBUG) Receiving 8=FIX.4.4|9=237|35=8|34=100|49=DMA_HUB|56=FIXCLIENT1|52=20240725-06:57:23.214|11=HS_17218906435|37=FXT9gm1XE|54=1|40=2|59=0|17=2024072573|150=A|39=A|38=4707|151=4707|14=0|6=0|44=504|60=20240725-06:57:23.000|22=4|48=US3390411052|207=XETR|15=EUR|55=[N/A]|10=106|
2024-07-25 08:57:28.015 [90] [FixSender] (DEBUG) Sending 8=FIX.4.4|9=193|35=D|49=FIXCLIENT1|56=DMA_HUB|34=61|52=20240725-06:57:28|21=1|11=HS_17218906486|38=4920|55=E:07G@XETR|54=1|60=20240725-06:57:28|40=2|59=0|44=505|48=US3390411052|22=4|15=EUR|207=XETR|1=bram_123|10=177|
2024-07-25 08:57:28.016 [39] [FixSender] (DEBUG) Receiving 8=FIX.4.4|9=237|35=8|34=101|49=DMA_HUB|56=FIXCLIENT1|52=20240725-06:57:28.016|11=HS_17218906486|37=FXU9gm1XE|54=1|40=2|59=0|17=2024072574|150=A|39=A|38=4920|151=4920|14=0|6=0|44=505|60=20240725-06:57:28.000|22=4|48=US3390411052|207=XETR|15=EUR|55=[N/A]|10=120|
2024-07-25 08:57:28.019 [39] [FixSender] (DEBUG) Receiving 8=FIX.4.4|9=252|35=8|34=102|49=DMA_HUB|56=FIXCLIENT1|52=20240725-06:57:28.019|11=HS_17218906486|37=FXU9gm1XE|198=Nbalv7e5c9|54=1|40=2|59=0|17=2024072575|150=0|39=0|38=4920|151=4920|14=0|6=0|44=505|60=20240725-06:57:28.017|22=4|48=US3390411052|207=XETR|15=EUR|55=[N/A]|10=160|
2024-07-25 08:57:28.020 [39] [FixSender] (DEBUG) Receiving 8=FIX.4.4|9=313|35=8|34=103|49=DMA_HUB|56=FIXCLIENT1|52=20240725-06:57:28.020|11=HS_17218906486|37=FXU9gm1XE|198=Nbalv7e5c9|54=1|32=4920|31=182|17=2024072576|527=BNbalve|150=F|39=2|38=4920|151=0|14=4920|6=182|44=505|60=20240725-06:57:28.018|22=4|48=US3390411052|207=XETR|15=EUR|55=[N/A]|453=1|448=strmrepl|447=D|452=17|40=2|59=0|10=005|
2024-07-25 08:57:52.945 [39] [FixSender] (DEBUG) Receiving 8=FIX.4.4|9=62|35=0|34=104|49=DMA_HUB|56=FIXCLIENT1|52=20240725-06:57:52.944|10=047|
2024-07-25 08:57:58.015 [40] [FixSender] (DEBUG) Sending 8=FIX.4.4|9=57|35=0|49=FIXCLIENT1|56=DMA_HUB|34=62|52=20240725-06:57:58|10=061|
2024-07-25 08:58:22.896 [39] [FixSender] (DEBUG) Receiving 8=FIX.4.4|9=62|35=0|34=105|49=DMA_HUB|56=FIXCLIENT1|52=20240725-06:58:22.896|10=052|
2024-07-25 08:58:28.015 [40] [FixSender] (DEBUG) Sending 8=FIX.4.4|9=57|35=0|49=FIXCLIENT1|56=DMA_HUB|34=63|52=20240725-06:58:28|10=060|
2024-07-25 08:58:52.645 [92] [FixSender] (DEBUG) Sending 8=FIX.4.4|9=194|35=D|49=FIXCLIENT1|56=DMA_HUB|34=64|52=20240725-06:58:52|21=1|11=HS_172189073238|38=3842|55=E:07G@XETR|54=1|60=20240725-06:58:52|40=2|59=0|44=505|48=US3390411052|22=4|15=EUR|207=XETR|1=bram_123|10=226|
2024-07-25 08:58:52.646 [39] [FixSender] (DEBUG) Receiving 8=FIX.4.4|9=238|35=8|34=106|49=DMA_HUB|56=FIXCLIENT1|52=20240725-06:58:52.646|11=HS_172189073238|37=FXV9gm1XE|54=1|40=2|59=0|17=2024072577|150=A|39=A|38=3842|151=3842|14=0|6=0|44=505|60=20240725-06:58:52.000|22=4|48=US3390411052|207=XETR|15=EUR|55=[N/A]|10=186|
2024-07-25 08:58:55.425 [39] [FixSender] (DEBUG) Receiving 8=FIX.4.4|9=62|35=0|34=107|49=DMA_HUB|56=FIXCLIENT1|52=20240725-06:58:55.424|10=047|
2024-07-25 08:58:56.285 [39] [FixSender] (DEBUG) Receiving 8=FIX.4.4|9=253|35=8|34=108|49=DMA_HUB|56=FIXCLIENT1|52=20240725-06:58:56.285|11=HS_172189073238|37=FXV9gm1XE|198=Nbalv88008|54=1|40=2|59=0|17=2024072578|150=0|39=0|38=3842|151=3842|14=0|6=0|44=505|60=20240725-06:58:56.283|22=4|48=US3390411052|207=XETR|15=EUR|55=[N/A]|10=135|
2024-07-25 08:58:56.286 [39] [FixSender] (DEBUG) Receiving 8=FIX.4.4|9=314|35=8|34=109|49=DMA_HUB|56=FIXCLIENT1|52=20240725-06:58:56.286|11=HS_172189073238|37=FXV9gm1XE|198=Nbalv88008|54=1|32=3842|31=181|17=2024072579|527=BNbalvf|150=F|39=2|38=3842|151=0|14=3842|6=181|44=505|60=20240725-06:58:56.283|22=4|48=US3390411052|207=XETR|15=EUR|55=[N/A]|453=1|448=strmrepl|447=D|452=17|40=2|59=0|10=245|
2024-07-25 08:58:58.908 [93] [FixSender] (DEBUG) Sending 8=FIX.4.4|9=194|35=D|49=FIXCLIENT1|56=DMA_HUB|34=65|52=20240725-06:58:58|21=1|11=HS_172189073839|38=3134|55=E:07G@XETR|54=1|60=20240725-06:58:58|40=2|59=0|44=505|48=US3390411052|22=4|15=EUR|207=XETR|1=bram_123|10=240|
2024-07-25 08:58:58.909 [39] [FixSender] (DEBUG) Receiving 8=FIX.4.4|9=238|35=8|34=110|49=DMA_HUB|56=FIXCLIENT1|52=20240725-06:58:58.909|11=HS_172189073839|37=FXW9gm1XE|54=1|40=2|59=0|17=2024072580|150=A|39=A|38=3134|151=3134|14=0|6=0|44=505|60=20240725-06:58:58.000|22=4|48=US3390411052|207=XETR|15=EUR|55=[N/A]|10=185|
2024-07-25 08:59:28.908 [40] [FixSender] (DEBUG) Sending 8=FIX.4.4|9=57|35=0|49=FIXCLIENT1|56=DMA_HUB|34=66|52=20240725-06:59:28|10=064|
2024-07-25 08:59:30.910 [41] [FixSender] (DEBUG) Sending 8=FIX.4.4|9=80|35=1|49=FIXCLIENT1|56=DMA_HUB|34=67|52=20240725-06:59:30|112=HeartBtExt Timeout|10=235|
2024-07-25 08:59:32.664 [39] [FixSender] (DEBUG) Receiving 8=FIX.4.4|9=62|35=0|34=111|49=DMA_HUB|56=FIXCLIENT1|52=20240725-06:59:32.664|10=044|
2024-07-25 08:59:32.665 [39] [FixSender] (DEBUG) Receiving 8=FIX.4.4|9=85|35=0|34=112|49=DMA_HUB|56=FIXCLIENT1|52=20240725-06:59:32.664|112=HeartBtExt Timeout|10=230|
2024-07-25 08:59:35.365 [39] [FixSender] (DEBUG) Receiving 8=FIX.4.4|9=253|35=8|34=113|49=DMA_HUB|56=FIXCLIENT1|52=20240725-06:59:35.364|11=HS_172189073839|37=FXW9gm1XE|198=Nbalv8c434|54=1|40=2|59=0|17=2024072581|150=0|39=0|38=3134|151=3134|14=0|6=0|44=505|60=20240725-06:59:35.363|22=4|48=US3390411052|207=XETR|15=EUR|55=[N/A]|10=160|
2024-07-25 08:59:35.366 [39] [FixSender] (DEBUG) Receiving 8=FIX.4.4|9=315|35=8|34=114|49=DMA_HUB|56=FIXCLIENT1|52=20240725-06:59:35.365|11=HS_172189073839|37=FXW9gm1XE|198=Nbalv8c434|54=1|32=3134|31=180|17=2024072582|527=BNbalv10|150=F|39=2|38=3134|151=0|14=3134|6=180|44=505|60=20240725-06:59:35.363|22=4|48=US3390411052|207=XETR|15=EUR|55=[N/A]|453=1|448=strmrepl|447=D|452=17|40=2|59=0|10=002|
2024-07-25 09:00:00.911 [40] [FixSender] (DEBUG) Sending 8=FIX.4.4|9=57|35=0|49=FIXCLIENT1|56=DMA_HUB|34=68|52=20240725-07:00:00|10=043|
2024-07-25 09:00:02.609 [39] [FixSender] (DEBUG) Receiving 8=FIX.4.4|9=62|35=0|34=115|49=DMA_HUB|56=FIXCLIENT1|52=20240725-07:00:02.608|10=030|
2024-07-25 09:00:03.049 [94] [FixSender] (DEBUG) Sending 8=FIX.4.4|9=194|35=D|49=FIXCLIENT1|56=DMA_HUB|34=69|52=20240725-07:00:03|21=1|11=HS_172189080340|38=4990|55=E:07G@XETR|54=1|60=20240725-07:00:03|40=2|59=0|44=505|48=US3390411052|22=4|15=EUR|207=XETR|1=bram_123|10=196|
2024-07-25 09:00:03.050 [39] [FixSender] (DEBUG) Receiving 8=FIX.4.4|9=238|35=8|34=116|49=DMA_HUB|56=FIXCLIENT1|52=20240725-07:00:03.050|11=HS_172189080340|37=FXX9gm1XE|54=1|40=2|59=0|17=2024072583|150=A|39=A|38=4990|151=4990|14=0|6=0|44=505|60=20240725-07:00:03.000|22=4|48=US3390411052|207=XETR|15=EUR|55=[N/A]|10=145|
2024-07-25 09:00:03.053 [39] [FixSender] (DEBUG) Receiving 8=FIX.4.4|9=253|35=8|34=117|49=DMA_HUB|56=FIXCLIENT1|52=20240725-07:00:03.053|11=HS_172189080340|37=FXX9gm1XE|198=Nbalv8f48c|54=1|40=2|59=0|17=2024072584|150=0|39=0|38=4990|151=4990|14=0|6=0|44=505|60=20240725-07:00:03.051|22=4|48=US3390411052|207=XETR|15=EUR|55=[N/A]|10=183|
2024-07-25 09:00:03.054 [39] [FixSender] (DEBUG) Receiving 8=FIX.4.4|9=315|35=8|34=118|49=DMA_HUB|56=FIXCLIENT1|52=20240725-07:00:03.054|11=HS_172189080340|37=FXX9gm1XE|198=Nbalv8f48c|54=1|32=4990|31=180|17=2024072585|527=BNbalv11|150=F|39=2|38=4990|151=0|14=4990|6=180|44=505|60=20240725-07:00:03.051|22=4|48=US3390411052|207=XETR|15=EUR|55=[N/A]|453=1|448=strmrepl|447=D|452=17|40=2|59=0|10=037|
2024-07-25 09:00:04.040 [95] [FixSender] (DEBUG) Sending 8=FIX.4.4|9=194|35=D|49=FIXCLIENT1|56=DMA_HUB|34=70|52=20240725-07:00:04|21=1|11=HS_172189080441|38=1012|55=E:07G@XETR|54=1|60=20240725-07:00:04|40=2|59=0|44=505|48=US3390411052|22=4|15=EUR|207=XETR|1=bram_123|10=174|
2024-07-25 09:00:04.041 [39] [FixSender] (DEBUG) Receiving 8=FIX.4.4|9=238|35=8|34=119|49=DMA_HUB|56=FIXCLIENT1|52=20240725-07:00:04.040|11=HS_172189080441|37=FXY9gm1XE|54=1|40=2|59=0|17=2024072586|150=A|39=A|38=1012|151=1012|14=0|6=0|44=505|60=20240725-07:00:04.000|22=4|48=US3390411052|207=XETR|15=EUR|55=[N/A]|10=119|
2024-07-25 09:00:04.043 [39] [FixSender] (DEBUG) Receiving 8=FIX.4.4|9=253|35=8|34=120|49=DMA_HUB|56=FIXCLIENT1|52=20240725-07:00:04.043|11=HS_172189080441|37=FXY9gm1XE|198=Nbalv8f66b|54=1|40=2|59=0|17=2024072587|150=0|39=0|38=1012|151=1012|14=0|6=0|44=505|60=20240725-07:00:04.042|22=4|48=US3390411052|207=XETR|15=EUR|55=[N/A]|10=147|
2024-07-25 09:00:04.044 [39] [FixSender] (DEBUG) Receiving 8=FIX.4.4|9=315|35=8|34=121|49=DMA_HUB|56=FIXCLIENT1|52=20240725-07:00:04.044|11=HS_172189080441|37=FXY9gm1XE|198=Nbalv8f66b|54=1|32=1012|31=180|17=2024072588|527=BNbalv12|150=F|39=2|38=1012|151=0|14=1012|6=180|44=505|60=20240725-07:00:04.042|22=4|48=US3390411052|207=XETR|15=EUR|55=[N/A]|453=1|448=strmrepl|447=D|452=17|40=2|59=0|10=240|
2024-07-25 09:00:05.271 [96] [FixSender] (DEBUG) Sending 8=FIX.4.4|9=194|35=D|49=FIXCLIENT1|56=DMA_HUB|34=71|52=20240725-07:00:05|21=1|11=HS_172189080542|38=2051|55=E:07G@XETR|54=1|60=20240725-07:00:05|40=2|59=0|44=505|48=US3390411052|22=4|15=EUR|207=XETR|1=bram_123|10=183|
2024-07-25 09:00:05.273 [39] [FixSender] (DEBUG) Receiving 8=FIX.4.4|9=238|35=8|34=122|49=DMA_HUB|56=FIXCLIENT1|52=20240725-07:00:05.272|11=HS_172189080542|37=FXZ9gm1XE|54=1|40=2|59=0|17=2024072589|150=A|39=A|38=2051|151=2051|14=0|6=0|44=505|60=20240725-07:00:05.000|22=4|48=US3390411052|207=XETR|15=EUR|55=[N/A]|10=136|
2024-07-25 09:00:05.275 [39] [FixSender] (DEBUG) Receiving 8=FIX.4.4|9=253|35=8|34=123|49=DMA_HUB|56=FIXCLIENT1|52=20240725-07:00:05.275|11=HS_172189080542|37=FXZ9gm1XE|198=Nbalv8f88c|54=1|40=2|59=0|17=2024072590|150=0|39=0|38=2051|151=2051|14=0|6=0|44=505|60=20240725-07:00:05.274|22=4|48=US3390411052|207=XETR|15=EUR|55=[N/A]|10=176|
2024-07-25 09:00:05.276 [39] [FixSender] (DEBUG) Receiving 8=FIX.4.4|9=315|35=8|34=124|49=DMA_HUB|56=FIXCLIENT1|52=20240725-07:00:05.276|11=HS_172189080542|37=FXZ9gm1XE|198=Nbalv8f88c|54=1|32=2051|31=180|17=2024072591|527=BNbalv13|150=F|39=2|38=2051|151=0|14=2051|6=180|44=505|60=20240725-07:00:05.274|22=4|48=US3390411052|207=XETR|15=EUR|55=[N/A]|453=1|448=strmrepl|447=D|452=17|40=2|59=0|10=018|
2024-07-25 09:00:12.097 [97] [FixSender] (DEBUG) Sending 8=FIX.4.4|9=193|35=D|49=FIXCLIENT1|56=DMA_HUB|34=72|52=20240725-07:00:12|21=1|11=HS_17218908120|38=1302|55=E:07G@XETR|54=1|60=20240725-07:00:12|40=2|59=0|44=503|48=US3390411052|22=4|15=EUR|207=XETR|1=bram_123|10=119|
2024-07-25 09:00:12.098 [39] [FixSender] (DEBUG) Receiving 8=FIX.4.4|9=237|35=8|34=125|49=DMA_HUB|56=FIXCLIENT1|52=20240725-07:00:12.098|11=HS_17218908120|37=FXa9gm1XE|54=1|40=2|59=0|17=2024072592|150=A|39=A|38=1302|151=1302|14=0|6=0|44=503|60=20240725-07:00:12.000|22=4|48=US3390411052|207=XETR|15=EUR|55=[N/A]|10=079|
2024-07-25 09:00:12.984 [98] [FixSender] (DEBUG) Sending 8=FIX.4.4|9=193|35=D|49=FIXCLIENT1|56=DMA_HUB|34=73|52=20240725-07:00:12|21=1|11=HS_17218908121|38=2270|55=E:07G@XETR|54=1|60=20240725-07:00:12|40=2|59=0|44=503|48=US3390411052|22=4|15=EUR|207=XETR|1=bram_123|10=126|
2024-07-25 09:00:12.985 [39] [FixSender] (DEBUG) Receiving 8=FIX.4.4|9=237|35=8|34=126|49=DMA_HUB|56=FIXCLIENT1|52=20240725-07:00:12.984|11=HS_17218908121|37=FXb9gm1XE|54=1|40=2|59=0|17=2024072593|150=A|39=A|38=2270|151=2270|14=0|6=0|44=503|60=20240725-07:00:12.000|22=4|48=US3390411052|207=XETR|15=EUR|55=[N/A]|10=097|
2024-07-25 09:00:32.561 [39] [FixSender] (DEBUG) Receiving 8=FIX.4.4|9=62|35=0|34=127|49=DMA_HUB|56=FIXCLIENT1|52=20240725-07:00:32.561|10=034|
2024-07-25 09:00:37.043 [99] [FixSender] (DEBUG) Sending 8=FIX.4.4|9=193|35=D|49=FIXCLIENT1|56=DMA_HUB|34=74|52=20240725-07:00:37|21=1|11=HS_17218908372|38=1637|55=E:07G@XETR|54=1|60=20240725-07:00:37|40=2|59=0|44=503|48=US3390411052|22=4|15=EUR|207=XETR|1=bram_123|10=155|
2024-07-25 09:00:37.045 [39] [FixSender] (DEBUG) Receiving 8=FIX.4.4|9=237|35=8|34=128|49=DMA_HUB|56=FIXCLIENT1|52=20240725-07:00:37.045|11=HS_17218908372|37=FXc9gm1XE|54=1|40=2|59=0|17=2024072594|150=A|39=A|38=1637|151=1637|14=0|6=0|44=503|60=20240725-07:00:37.000|22=4|48=US3390411052|207=XETR|15=EUR|55=[N/A]|10=123|
2024-07-25 09:01:07.044 [40] [FixSender] (DEBUG) Sending 8=FIX.4.4|9=57|35=0|49=FIXCLIENT1|56=DMA_HUB|34=75|52=20240725-07:01:07|10=049|
2024-07-25 09:01:09.045 [41] [FixSender] (DEBUG) Sending 8=FIX.4.4|9=80|35=1|49=FIXCLIENT1|56=DMA_HUB|34=76|52=20240725-07:01:09|112=HeartBtExt Timeout|10=229|
2024-07-25 09:01:39.045 [40] [FixSender] (DEBUG) Sending 8=FIX.4.4|9=57|35=0|49=FIXCLIENT1|56=DMA_HUB|34=77|52=20240725-07:01:39|10=056|
2024-07-25 09:01:41.046 [39] [FixSender] (INFO) physical cnx finished Connection reset by peer
2024-07-25 09:01:41.046 [39] [FixSender] (WARNING) Disconnected
2024-07-25 09:02:47.253 [100] [FixSender] (INFO) try to connect to : localhost port :12345
2024-07-25 09:02:47.254 [100] [FixSender] (INFO) physical cnx initiated
2024-07-25 09:02:47.255 [100] [FixSender] (DEBUG) Sending 8=FIX.4.4|9=87|35=A|49=FIXCLIENT1|56=DMA_HUB|34=78|52=20240725-07:02:47|98=0|108=30|95=9|96=null/null|10=157|
2024-07-25 09:02:47.256 [100] [FixSender] (DEBUG) Receiving 8=FIX.4.4|9=74|35=A|34=131|49=DMA_HUB|56=FIXCLIENT1|52=20240725-07:02:47.255|108=30|98=0|10=082|
2024-07-25 09:02:47.256 [100] [FixSender] (WARNING) The Fix connection is open...
2024-07-25 09:02:47.257 [100] [FixSender] (DEBUG) Sending 8=FIX.4.4|9=68|35=2|49=FIXCLIENT1|56=DMA_HUB|34=79|52=20240725-07:02:47|7=129|16=0|10=036|
2024-07-25 09:02:47.258 [100] [FixSender] (DEBUG) Receiving 8=FIX.4.4|9=106|35=4|34=129|49=DMA_HUB|56=FIXCLIENT1|52=20240725-07:02:47.257|43=Y|122=20240725-07:02:47.257|36=132|123=Y|10=211|
2024-07-25 09:02:47.963 [103] [FixSender] (DEBUG) Sending 8=FIX.4.4|9=194|35=D|49=FIXCLIENT1|56=DMA_HUB|34=80|52=20240725-07:02:47|21=1|11=HS_172189096743|38=2205|55=E:07G@XETR|54=1|60=20240725-07:02:47|40=2|59=0|44=503|48=US3390411052|22=4|15=EUR|207=XETR|1=bram_123|10=208|
2024-07-25 09:02:47.964 [100] [FixSender] (DEBUG) Receiving 8=FIX.4.4|9=238|35=8|34=132|49=DMA_HUB|56=FIXCLIENT1|52=20240725-07:02:47.964|11=HS_172189096743|37=FXd9gm1XE|54=1|40=2|59=0|17=2024072595|150=A|39=A|38=2205|151=2205|14=0|6=0|44=503|60=20240725-07:02:47.000|22=4|48=US3390411052|207=XETR|15=EUR|55=[N/A]|10=178|
2024-07-25 09:02:48.899 [104] [FixSender] (DEBUG) Sending 8=FIX.4.4|9=193|35=D|49=FIXCLIENT1|56=DMA_HUB|34=81|52=20240725-07:02:48|21=1|11=HS_172189096844|38=485|55=E:07G@XETR|54=1|60=20240725-07:02:48|40=2|59=0|44=503|48=US3390411052|22=4|15=EUR|207=XETR|1=bram_123|10=172|
2024-07-25 09:02:48.900 [100] [FixSender] (DEBUG) Receiving 8=FIX.4.4|9=236|35=8|34=133|49=DMA_HUB|56=FIXCLIENT1|52=20240725-07:02:48.900|11=HS_172189096844|37=FXe9gm1XE|54=1|40=2|59=0|17=2024072596|150=A|39=A|38=485|151=485|14=0|6=0|44=503|60=20240725-07:02:48.000|22=4|48=US3390411052|207=XETR|15=EUR|55=[N/A]|10=093|
2024-07-25 09:03:17.232 [100] [FixSender] (DEBUG) Receiving 8=FIX.4.4|9=62|35=0|34=134|49=DMA_HUB|56=FIXCLIENT1|52=20240725-07:03:17.232|10=033|
2024-07-25 09:03:18.900 [101] [FixSender] (DEBUG) Sending 8=FIX.4.4|9=57|35=0|49=FIXCLIENT1|56=DMA_HUB|34=82|52=20240725-07:03:18|10=051|
2024-07-25 09:03:26.124 [105] [FixSender] (DEBUG) Sending 8=FIX.4.4|9=193|35=D|49=FIXCLIENT1|56=DMA_HUB|34=83|52=20240725-07:03:26|21=1|11=HS_17218910060|38=2660|55=E:07G@XETR|54=1|60=20240725-07:03:26|40=2|59=0|44=503|48=US3390411052|22=4|15=EUR|207=XETR|1=bram_123|10=141|
2024-07-25 09:03:26.125 [100] [FixSender] (DEBUG) Receiving 8=FIX.4.4|9=237|35=8|34=135|49=DMA_HUB|56=FIXCLIENT1|52=20240725-07:03:26.125|11=HS_17218910060|37=FXf9gm1XE|54=1|40=2|59=0|17=2024072597|150=A|39=A|38=2660|151=2660|14=0|6=0|44=503|60=20240725-07:03:26.000|22=4|48=US3390411052|207=XETR|15=EUR|55=[N/A]|10=109|
2024-07-25 09:03:27.051 [106] [FixSender] (DEBUG) Sending 8=FIX.4.4|9=193|35=D|49=FIXCLIENT1|56=DMA_HUB|34=84|52=20240725-07:03:27|21=1|11=HS_17218910071|38=4884|55=E:07G@XETR|54=1|60=20240725-07:03:27|40=2|59=0|44=503|48=US3390411052|22=4|15=EUR|207=XETR|1=bram_123|10=156|
2024-07-25 09:03:27.053 [100] [FixSender] (DEBUG) Receiving 8=FIX.4.4|9=237|35=8|34=136|49=DMA_HUB|56=FIXCLIENT1|52=20240725-07:03:27.052|11=HS_17218910071|37=FXg9gm1XE|54=1|40=2|59=0|17=2024072598|150=A|39=A|38=4884|151=4884|14=0|6=0|44=503|60=20240725-07:03:27.000|22=4|48=US3390411052|207=XETR|15=EUR|55=[N/A]|10=135|
2024-07-25 09:03:47.185 [100] [FixSender] (DEBUG) Receiving 8=FIX.4.4|9=62|35=0|34=137|49=DMA_HUB|56=FIXCLIENT1|52=20240725-07:03:47.185|10=046|
2024-07-25 09:03:48.560 [107] [FixSender] (DEBUG) Sending 8=FIX.4.4|9=193|35=D|49=FIXCLIENT1|56=DMA_HUB|34=85|52=20240725-07:03:48|21=1|11=HS_17218910282|38=3359|55=E:07G@XETR|54=1|60=20240725-07:03:48|40=2|59=0|44=510|48=US3390411052|22=4|15=EUR|207=XETR|1=bram_123|10=161|
2024-07-25 09:03:48.562 [100] [FixSender] (DEBUG) Receiving 8=FIX.4.4|9=237|35=8|34=138|49=DMA_HUB|56=FIXCLIENT1|52=20240725-07:03:48.561|11=HS_17218910282|37=FXh9gm1XE|54=1|40=2|59=0|17=2024072599|150=A|39=A|38=3359|151=3359|14=0|6=0|44=510|60=20240725-07:03:48.000|22=4|48=US3390411052|207=XETR|15=EUR|55=[N/A]|10=144|
2024-07-25 09:03:48.564 [100] [FixSender] (DEBUG) Receiving 8=FIX.4.4|9=253|35=8|34=139|49=DMA_HUB|56=FIXCLIENT1|52=20240725-07:03:48.563|11=HS_17218910282|37=FXh9gm1XE|198=Nbalva7e36|54=1|40=2|59=0|17=20240725100|150=0|39=0|38=3359|151=3359|14=0|6=0|44=510|60=20240725-07:03:48.562|22=4|48=US3390411052|207=XETR|15=EUR|55=[N/A]|10=212|
2024-07-25 09:03:48.565 [100] [FixSender] (DEBUG) Receiving 8=FIX.4.4|9=315|35=8|34=140|49=DMA_HUB|56=FIXCLIENT1|52=20240725-07:03:48.564|11=HS_17218910282|37=FXh9gm1XE|198=Nbalva7e36|54=1|32=3359|31=172|17=20240725101|527=BNbalv14|150=F|39=2|38=3359|151=0|14=3359|6=172|44=510|60=20240725-07:03:48.562|22=4|48=US3390411052|207=XETR|15=EUR|55=[N/A]|453=1|448=strmrepl|447=D|452=17|40=2|59=0|10=060|
2024-07-25 09:03:49.442 [108] [FixSender] (DEBUG) Sending 8=FIX.4.4|9=193|35=D|49=FIXCLIENT1|56=DMA_HUB|34=86|52=20240725-07:03:49|21=1|11=HS_17218910293|38=2376|55=E:07G@XETR|54=1|60=20240725-07:03:49|40=2|59=0|44=510|48=US3390411052|22=4|15=EUR|207=XETR|1=bram_123|10=164|
2024-07-25 09:03:49.444 [100] [FixSender] (DEBUG) Receiving 8=FIX.4.4|9=238|35=8|34=141|49=DMA_HUB|56=FIXCLIENT1|52=20240725-07:03:49.443|11=HS_17218910293|37=FXi9gm1XE|54=1|40=2|59=0|17=20240725102|150=A|39=A|38=2376|151=2376|14=0|6=0|44=510|60=20240725-07:03:49.000|22=4|48=US3390411052|207=XETR|15=EUR|55=[N/A]|10=172|
2024-07-25 09:03:49.446 [100] [FixSender] (DEBUG) Receiving 8=FIX.4.4|9=253|35=8|34=142|49=DMA_HUB|56=FIXCLIENT1|52=20240725-07:03:49.446|11=HS_17218910293|37=FXi9gm1XE|198=Nbalva7fce|54=1|40=2|59=0|17=20240725103|150=0|39=0|38=2376|151=2376|14=0|6=0|44=510|60=20240725-07:03:49.444|22=4|48=US3390411052|207=XETR|15=EUR|55=[N/A]|10=049|
2024-07-25 09:03:49.447 [100] [FixSender] (DEBUG) Receiving 8=FIX.4.4|9=315|35=8|34=143|49=DMA_HUB|56=FIXCLIENT1|52=20240725-07:03:49.447|11=HS_17218910293|37=FXi9gm1XE|198=Nbalva7fce|54=1|32=2376|31=172|17=20240725104|527=BNbalv15|150=F|39=2|38=2376|151=0|14=2376|6=172|44=510|60=20240725-07:03:49.444|22=4|48=US3390411052|207=XETR|15=EUR|55=[N/A]|453=1|448=strmrepl|447=D|452=17|40=2|59=0|10=161|
2024-07-25 09:03:50.369 [109] [FixSender] (DEBUG) Sending 8=FIX.4.4|9=193|35=D|49=FIXCLIENT1|56=DMA_HUB|34=87|52=20240725-07:03:50|21=1|11=HS_17218910304|38=1863|55=E:07G@XETR|54=1|60=20240725-07:03:50|40=2|59=0|44=510|48=US3390411052|22=4|15=EUR|207=XETR|1=bram_123|10=142|
2024-07-25 09:03:50.370 [100] [FixSender] (DEBUG) Receiving 8=FIX.4.4|9=238|35=8|34=144|49=DMA_HUB|56=FIXCLIENT1|52=20240725-07:03:50.370|11=HS_17218910304|37=FXj9gm1XE|54=1|40=2|59=0|17=20240725105|150=A|39=A|38=1863|151=1863|14=0|6=0|44=510|60=20240725-07:03:50.000|22=4|48=US3390411052|207=XETR|15=EUR|55=[N/A]|10=155|
2024-07-25 09:03:50.372 [100] [FixSender] (DEBUG) Receiving 8=FIX.4.4|9=253|35=8|34=145|49=DMA_HUB|56=FIXCLIENT1|52=20240725-07:03:50.372|11=HS_17218910304|37=FXj9gm1XE|198=Nbalva8166|54=1|40=2|59=0|17=20240725106|150=0|39=0|38=1863|151=1863|14=0|6=0|44=510|60=20240725-07:03:50.371|22=4|48=US3390411052|207=XETR|15=EUR|55=[N/A]|10=142|
2024-07-25 09:03:50.373 [100] [FixSender] (DEBUG) Receiving 8=FIX.4.4|9=315|35=8|34=146|49=DMA_HUB|56=FIXCLIENT1|52=20240725-07:03:50.373|11=HS_17218910304|37=FXj9gm1XE|198=Nbalva8166|54=1|32=1863|31=172|17=20240725107|527=BNbalv16|150=F|39=2|38=1863|151=0|14=1863|6=172|44=510|60=20240725-07:03:50.371|22=4|48=US3390411052|207=XETR|15=EUR|55=[N/A]|453=1|448=strmrepl|447=D|452=17|40=2|59=0|10=255|
2024-07-25 09:03:56.850 [110] [FixSender] (DEBUG) Sending 8=FIX.4.4|9=193|35=D|49=FIXCLIENT1|56=DMA_HUB|34=88|52=20240725-07:03:56|21=1|11=HS_17218910365|38=3023|55=E:07G@XETR|54=1|60=20240725-07:03:56|40=2|59=0|44=500|48=US3390411052|22=4|15=EUR|207=XETR|1=bram_123|10=151|
2024-07-25 09:03:56.852 [100] [FixSender] (DEBUG) Receiving 8=FIX.4.4|9=238|35=8|34=147|49=DMA_HUB|56=FIXCLIENT1|52=20240725-07:03:56.851|11=HS_17218910365|37=FXk9gm1XE|54=1|40=2|59=0|17=20240725108|150=A|39=A|38=3023|151=3023|14=0|6=0|44=500|60=20240725-07:03:56.000|22=4|48=US3390411052|207=XETR|15=EUR|55=[N/A]|10=164|
2024-07-25 09:03:56.854 [100] [FixSender] (DEBUG) Receiving 8=FIX.4.4|9=253|35=8|34=148|49=DMA_HUB|56=FIXCLIENT1|52=20240725-07:03:56.854|11=HS_17218910365|37=FXk9gm1XE|198=Nbalva8cb6|54=1|40=2|59=0|17=20240725109|150=0|39=0|38=3023|151=3023|14=0|6=0|44=500|60=20240725-07:03:56.853|22=4|48=US3390411052|207=XETR|15=EUR|55=[N/A]|10=251|
2024-07-25 09:03:56.855 [100] [FixSender] (DEBUG) Receiving 8=FIX.4.4|9=315|35=8|34=149|49=DMA_HUB|56=FIXCLIENT1|52=20240725-07:03:56.855|11=HS_17218910365|37=FXk9gm1XE|198=Nbalva8cb6|54=1|32=3023|31=172|17=20240725110|527=BNbalv17|150=F|39=2|38=3023|151=0|14=3023|6=172|44=500|60=20240725-07:03:56.853|22=4|48=US3390411052|207=XETR|15=EUR|55=[N/A]|453=1|448=strmrepl|447=D|452=17|40=2|59=0|10=090|
2024-07-25 09:03:57.431 [111] [FixSender] (DEBUG) Sending 8=FIX.4.4|9=192|35=D|49=FIXCLIENT1|56=DMA_HUB|34=89|52=20240725-07:03:57|21=1|11=HS_17218910376|38=546|55=E:07G@XETR|54=1|60=20240725-07:03:57|40=2|59=0|44=500|48=US3390411052|22=4|15=EUR|207=XETR|1=bram_123|10=114|
2024-07-25 09:03:57.432 [100] [FixSender] (DEBUG) Receiving 8=FIX.4.4|9=236|35=8|34=150|49=DMA_HUB|56=FIXCLIENT1|52=20240725-07:03:57.432|11=HS_17218910376|37=FXl9gm1XE|54=1|40=2|59=0|17=20240725111|150=A|39=A|38=546|151=546|14=0|6=0|44=500|60=20240725-07:03:57.000|22=4|48=US3390411052|207=XETR|15=EUR|55=[N/A]|10=068|
2024-07-25 09:03:57.434 [100] [FixSender] (DEBUG) Receiving 8=FIX.4.4|9=251|35=8|34=151|49=DMA_HUB|56=FIXCLIENT1|52=20240725-07:03:57.434|11=HS_17218910376|37=FXl9gm1XE|198=Nbalva8db9|54=1|40=2|59=0|17=20240725112|150=0|39=0|38=546|151=546|14=0|6=0|44=500|60=20240725-07:03:57.433|22=4|48=US3390411052|207=XETR|15=EUR|55=[N/A]|10=152|
2024-07-25 09:03:57.435 [100] [FixSender] (DEBUG) Receiving 8=FIX.4.4|9=312|35=8|34=152|49=DMA_HUB|56=FIXCLIENT1|52=20240725-07:03:57.435|11=HS_17218910376|37=FXl9gm1XE|198=Nbalva8db9|54=1|32=546|31=172|17=20240725113|527=BNbalv18|150=F|39=2|38=546|151=0|14=546|6=172|44=500|60=20240725-07:03:57.433|22=4|48=US3390411052|207=XETR|15=EUR|55=[N/A]|453=1|448=strmrepl|447=D|452=17|40=2|59=0|10=215|
2024-07-25 09:03:58.492 [112] [FixSender] (DEBUG) Sending 8=FIX.4.4|9=193|35=D|49=FIXCLIENT1|56=DMA_HUB|34=90|52=20240725-07:03:58|21=1|11=HS_17218910387|38=1358|55=E:07G@XETR|54=1|60=20240725-07:03:58|40=2|59=0|44=500|48=US3390411052|22=4|15=EUR|207=XETR|1=bram_123|10=161|
2024-07-25 09:03:58.494 [100] [FixSender] (DEBUG) Receiving 8=FIX.4.4|9=238|35=8|34=153|49=DMA_HUB|56=FIXCLIENT1|52=20240725-07:03:58.493|11=HS_17218910387|37=FXm9gm1XE|54=1|40=2|59=0|17=20240725114|150=A|39=A|38=1358|151=1358|14=0|6=0|44=500|60=20240725-07:03:58.000|22=4|48=US3390411052|207=XETR|15=EUR|55=[N/A]|10=188|
2024-07-25 09:03:58.496 [100] [FixSender] (DEBUG) Receiving 8=FIX.4.4|9=253|35=8|34=154|49=DMA_HUB|56=FIXCLIENT1|52=20240725-07:03:58.496|11=HS_17218910387|37=FXm9gm1XE|198=Nbalva8f99|54=1|40=2|59=0|17=20240725115|150=0|39=0|38=1358|151=1358|14=0|6=0|44=500|60=20240725-07:03:58.495|22=4|48=US3390411052|207=XETR|15=EUR|55=[N/A]|10=242|
2024-07-25 09:03:58.498 [100] [FixSender] (DEBUG) Receiving 8=FIX.4.4|9=315|35=8|34=155|49=DMA_HUB|56=FIXCLIENT1|52=20240725-07:03:58.498|11=HS_17218910387|37=FXm9gm1XE|198=Nbalva8f99|54=1|32=1358|31=172|17=20240725116|527=BNbalv19|150=F|39=2|38=1358|151=0|14=1358|6=172|44=500|60=20240725-07:03:58.495|22=4|48=US3390411052|207=XETR|15=EUR|55=[N/A]|453=1|448=strmrepl|447=D|452=17|40=2|59=0|10=102|
2024-07-25 09:07:23.329 [1] [Fixsender] (INFO) (c) 2001-2011 ullink SAS. FixSender. Release 1.11.
2024-07-25 09:07:44.807 [36] [FixSender] (INFO) try to connect to : localhost port :12345
2024-07-25 09:07:44.811 [36] [FixSender] (INFO) physical cnx initiated
2024-07-25 09:07:44.819 [36] [FixSender] (DEBUG) Sending 8=FIX.4.4|9=86|35=A|49=FIXCLIENT1|56=DMA_HUB|34=1|52=20240725-07:07:44|98=0|108=30|95=9|96=null/null|10=096|
2024-07-25 09:07:44.823 [36] [FixSender] (DEBUG) Receiving 8=FIX.4.4|9=132|35=5|34=156|49=DMA_HUB|56=FIXCLIENT1|52=20240725-07:07:44.821|58=Seqnum in logon is lower than expected. Expected 91 but received 1|10=105|
2024-07-25 09:07:44.823 [36] [FixSender] (INFO) physical cnx finished Connection reset by peer
2024-07-25 09:07:44.823 [36] [FixSender] (WARNING) Disconnected
2024-07-25 09:07:46.492 [38] [FixSender] (INFO) try to connect to : localhost port :12345
2024-07-25 09:07:46.493 [38] [FixSender] (INFO) physical cnx initiated
2024-07-25 09:07:46.493 [38] [FixSender] (DEBUG) Sending 8=FIX.4.4|9=86|35=A|49=FIXCLIENT1|56=DMA_HUB|34=1|52=20240725-07:07:46|98=0|108=30|95=9|96=null/null|10=098|
2024-07-25 09:07:46.496 [38] [FixSender] (DEBUG) Receiving 8=FIX.4.4|9=132|35=5|34=157|49=DMA_HUB|56=FIXCLIENT1|52=20240725-07:07:46.494|58=Seqnum in logon is lower than expected. Expected 91 but received 1|10=114|
2024-07-25 09:07:46.496 [38] [FixSender] (INFO) physical cnx finished Connection reset by peer
2024-07-25 09:07:46.496 [38] [FixSender] (WARNING) Disconnected
2024-07-25 09:07:47.265 [39] [FixSender] (INFO) try to connect to : localhost port :12345
2024-07-25 09:07:47.265 [39] [FixSender] (INFO) physical cnx initiated
2024-07-25 09:07:47.268 [39] [FixSender] (DEBUG) Sending 8=FIX.4.4|9=86|35=A|49=FIXCLIENT1|56=DMA_HUB|34=2|52=20240725-07:07:47|98=0|108=30|95=9|96=null/null|10=100|
2024-07-25 09:07:47.496 [39] [FixSender] (DEBUG) Receiving 8=FIX.4.4|9=132|35=5|34=158|49=DMA_HUB|56=FIXCLIENT1|52=20240725-07:07:47.495|58=Seqnum in logon is lower than expected. Expected 91 but received 2|10=118|
2024-07-25 09:07:47.496 [39] [FixSender] (INFO) physical cnx finished Connection reset by peer
2024-07-25 09:07:47.496 [39] [FixSender] (WARNING) Disconnected
2024-07-25 09:07:47.963 [40] [FixSender] (INFO) try to connect to : localhost port :12345
2024-07-25 09:07:47.963 [40] [FixSender] (INFO) physical cnx initiated
2024-07-25 09:07:47.966 [40] [FixSender] (DEBUG) Sending 8=FIX.4.4|9=86|35=A|49=FIXCLIENT1|56=DMA_HUB|34=3|52=20240725-07:07:47|98=0|108=30|95=9|96=null/null|10=101|
2024-07-25 09:07:48.497 [40] [FixSender] (DEBUG) Receiving 8=FIX.4.4|9=132|35=5|34=159|49=DMA_HUB|56=FIXCLIENT1|52=20240725-07:07:48.497|58=Seqnum in logon is lower than expected. Expected 91 but received 3|10=123|
2024-07-25 09:07:48.498 [40] [FixSender] (INFO) physical cnx finished Connection reset by peer
2024-07-25 09:07:48.498 [40] [FixSender] (WARNING) Disconnected
2024-07-25 09:10:51.391 [1] [Fixsender] (INFO) (c) 2001-2011 ullink SAS. FixSender. Release 1.11.
2024-07-25 09:10:54.372 [35] [FixSender] (INFO) try to connect to : localhost port :12345
2024-07-25 09:10:54.377 [35] [FixSender] (INFO) physical cnx initiated
2024-07-25 09:10:54.385 [35] [FixSender] (DEBUG) Sending 8=FIX.4.4|9=86|35=A|49=FIXCLIENT1|56=DMA_HUB|34=4|52=20240725-07:10:54|98=0|108=30|95=9|96=null/null|10=094|
2024-07-25 09:10:54.390 [35] [FixSender] (DEBUG) Receiving 8=FIX.4.4|9=72|35=A|34=1|49=DMA_HUB|56=FIXCLIENT1|52=20240725-07:10:54.388|108=30|98=0|10=240|
2024-07-25 09:10:54.391 [35] [FixSender] (WARNING) The Fix connection is open...
2024-07-25 09:10:54.393 [35] [FixSender] (DEBUG) Sending 8=FIX.4.4|9=74|35=1|49=FIXCLIENT1|56=DMA_HUB|34=5|52=20240725-07:10:54|112=synchronized?|10=045|
2024-07-25 09:10:54.393 [35] [FixSender] (DEBUG) Receiving 8=FIX.4.4|9=69|35=2|34=2|49=DMA_HUB|56=FIXCLIENT1|52=20240725-07:10:54.390|7=1|16=0|10=067|
2024-07-25 09:10:54.409 [35] [FixSender] (DEBUG) Sending 8=FIX.4.4|9=94|35=4|49=FIXCLIENT1|56=DMA_HUB|34=1|52=20240725-07:10:54|43=Y|122=20240725-07:10:54|123=Y|36=6|10=064|
2024-07-25 09:10:54.409 [35] [FixSender] (DEBUG) Sending 8=FIX.4.4|9=74|35=1|49=FIXCLIENT1|56=DMA_HUB|34=6|52=20240725-07:10:54|112=synchronized?|10=046|
2024-07-25 09:10:54.410 [35] [FixSender] (DEBUG) Receiving 8=FIX.4.4|9=78|35=0|34=3|49=DMA_HUB|56=FIXCLIENT1|52=20240725-07:10:54.396|112=synchronized?|10=254|
2024-07-25 09:10:54.410 [35] [FixSender] (DEBUG) Receiving 8=FIX.4.4|9=78|35=0|34=4|49=DMA_HUB|56=FIXCLIENT1|52=20240725-07:10:54.410|112=synchronized?|10=242|
2024-07-25 09:11:00.138 [41] [FixSender] (DEBUG) Sending 8=FIX.4.4|9=192|35=D|49=FIXCLIENT1|56=DMA_HUB|34=7|52=20240725-07:11:00|21=1|11=HS_17218914600|38=3803|55=E:07G@XETR|54=1|60=20240725-07:11:00|40=2|59=0|44=500|48=US3390411052|22=4|15=EUR|207=XETR|1=bram_123|10=071|
2024-07-25 09:11:00.146 [35] [FixSender] (DEBUG) Receiving 8=FIX.4.4|9=234|35=8|34=5|49=DMA_HUB|56=FIXCLIENT1|52=20240725-07:11:00.145|11=HS_17218914600|37=FX58LXnHG|54=1|40=2|59=0|17=202407251|150=A|39=A|38=3803|151=3803|14=0|6=0|44=500|60=20240725-07:11:00.000|22=4|48=US3390411052|207=XETR|15=EUR|55=[N/A]|10=133|
2024-07-25 09:11:00.168 [35] [FixSender] (DEBUG) Receiving 8=FIX.4.4|9=248|35=8|34=6|49=DMA_HUB|56=FIXCLIENT1|52=20240725-07:11:00.167|11=HS_17218914600|37=FX58LXnHG|198=3QTsvdeb9|54=1|40=2|59=0|17=202407252|150=0|39=0|38=3803|151=3803|14=0|6=0|44=500|60=20240725-07:11:00.162|22=4|48=US3390411052|207=XETR|15=EUR|55=[N/A]|10=124|
2024-07-25 09:11:00.175 [35] [FixSender] (DEBUG) Receiving 8=FIX.4.4|9=309|35=8|34=7|49=DMA_HUB|56=FIXCLIENT1|52=20240725-07:11:00.175|11=HS_17218914600|37=FX58LXnHG|198=3QTsvdeb9|54=1|32=3803|31=119|17=202407253|527=B3QTsv1|150=F|39=2|38=3803|151=0|14=3803|6=119|44=500|60=20240725-07:11:00.163|22=4|48=US3390411052|207=XETR|15=EUR|55=[N/A]|453=1|448=strmrepl|447=D|452=17|40=2|59=0|10=129|
2024-07-25 09:11:09.564 [42] [FixSender] (DEBUG) Sending 8=FIX.4.4|9=191|35=D|49=FIXCLIENT1|56=DMA_HUB|34=8|52=20240725-07:11:09|21=1|11=HS_17218914690|38=520|55=E:07G@XETR|54=1|60=20240725-07:11:09|40=2|59=0|44=503|48=US3390411052|22=4|15=EUR|207=XETR|1=bram_123|10=046|
2024-07-25 09:11:09.566 [35] [FixSender] (DEBUG) Receiving 8=FIX.4.4|9=232|35=8|34=8|49=DMA_HUB|56=FIXCLIENT1|52=20240725-07:11:09.565|11=HS_17218914690|37=FX68LXnHG|54=1|40=2|59=0|17=202407254|150=A|39=A|38=520|151=520|14=0|6=0|44=503|60=20240725-07:11:09.000|22=4|48=US3390411052|207=XETR|15=EUR|55=[N/A]|10=064|
2024-07-25 09:11:24.344 [35] [FixSender] (DEBUG) Receiving 8=FIX.4.4|9=60|35=0|34=9|49=DMA_HUB|56=FIXCLIENT1|52=20240725-07:11:24.343|10=192|
2024-07-25 09:41:51.649 [1] [Fixsender] (INFO) (c) 2001-2011 ullink SAS. FixSender. Release 1.11.
2024-07-25 09:41:58.654 [35] [FixSender] (INFO) try to connect to : localhost port :12345
2024-07-25 09:41:58.662 [35] [FixSender] (INFO) physical cnx initiated
2024-07-25 09:41:58.671 [35] [FixSender] (DEBUG) Sending 8=FIX.4.4|9=86|35=A|49=FIXCLIENT1|56=DMA_HUB|34=9|52=20240725-07:41:58|98=0|108=30|95=9|96=null/null|10=107|
2024-07-25 09:41:58.676 [35] [FixSender] (DEBUG) Receiving 8=FIX.4.4|9=73|35=A|34=10|49=DMA_HUB|56=FIXCLIENT1|52=20240725-07:41:58.673|108=30|98=0|10=038|
2024-07-25 09:41:58.677 [35] [FixSender] (WARNING) The Fix connection is open...
2024-07-25 09:41:58.678 [35] [FixSender] (DEBUG) Sending 8=FIX.4.4|9=75|35=1|49=FIXCLIENT1|56=DMA_HUB|34=10|52=20240725-07:41:58|112=synchronized?|10=098|
2024-07-25 09:41:58.682 [35] [FixSender] (DEBUG) Receiving 8=FIX.4.4|9=79|35=0|34=11|49=DMA_HUB|56=FIXCLIENT1|52=20240725-07:41:58.681|112=synchronized?|10=051|
2024-07-25 09:42:14.123 [39] [FixSender] (DEBUG) Sending 8=FIX.4.4|9=193|35=D|49=FIXCLIENT1|56=DMA_HUB|34=11|52=20240725-07:42:14|21=1|11=HS_17218933340|38=4588|55=E:07G@XETR|54=1|60=20240725-07:42:14|40=2|59=0|44=200|48=US3390411052|22=4|15=EUR|207=XETR|1=bram_123|10=143|
2024-07-25 09:42:14.134 [35] [FixSender] (DEBUG) Receiving 8=FIX.4.4|9=235|35=8|34=12|49=DMA_HUB|56=FIXCLIENT1|52=20240725-07:42:14.133|11=HS_17218933340|37=FXl9wb8IG|54=1|40=2|59=0|17=202407255|150=A|39=A|38=4588|151=4588|14=0|6=0|44=200|60=20240725-07:42:14.000|22=4|48=US3390411052|207=XETR|15=EUR|55=[N/A]|10=020|
2024-07-25 09:42:14.156 [35] [FixSender] (DEBUG) Receiving 8=FIX.4.4|9=250|35=8|34=13|49=DMA_HUB|56=FIXCLIENT1|52=20240725-07:42:14.156|11=HS_17218933340|37=FXl9wb8IG|198=KlqAv16c1a|54=1|40=2|59=0|17=202407256|150=0|39=0|38=4588|151=4588|14=0|6=0|44=200|60=20240725-07:42:14.150|22=4|48=US3390411052|207=XETR|15=EUR|55=[N/A]|10=023|
2024-07-25 09:42:14.163 [35] [FixSender] (DEBUG) Receiving 8=FIX.4.4|9=313|35=8|34=14|49=DMA_HUB|56=FIXCLIENT1|52=20240725-07:42:14.163|11=HS_17218933340|37=FXl9wb8IG|198=KlqAv16c1a|54=1|32=4588|31=86.5|17=202407257|527=BKlqAv1|150=F|39=2|38=4588|151=0|14=4588|6=86.5|44=200|60=20240725-07:42:14.151|22=4|48=US3390411052|207=XETR|15=EUR|55=[N/A]|453=1|448=strmrepl|447=D|452=17|40=2|59=0|10=178|
2024-07-25 09:42:28.629 [35] [FixSender] (DEBUG) Receiving 8=FIX.4.4|9=61|35=0|34=15|49=DMA_HUB|56=FIXCLIENT1|52=20240725-07:42:28.628|10=252|
2024-07-25 09:42:33.723 [40] [FixSender] (DEBUG) Sending 8=FIX.4.4|9=193|35=D|49=FIXCLIENT1|56=DMA_HUB|34=12|52=20240725-07:42:33|21=1|11=HS_17218933531|38=1715|55=E:07G@XETR|54=1|60=20240725-07:42:33|40=2|59=0|44=200|48=US3390411052|22=4|15=EUR|207=XETR|1=bram_123|10=137|
2024-07-25 09:42:33.725 [35] [FixSender] (DEBUG) Receiving 8=FIX.4.4|9=235|35=8|34=16|49=DMA_HUB|56=FIXCLIENT1|52=20240725-07:42:33.724|11=HS_17218933531|37=FXm9wb8IG|54=1|40=2|59=0|17=202407258|150=A|39=A|38=1715|151=1715|14=0|6=0|44=200|60=20240725-07:42:33.000|22=4|48=US3390411052|207=XETR|15=EUR|55=[N/A]|10=016|
2024-07-25 09:42:33.727 [35] [FixSender] (DEBUG) Receiving 8=FIX.4.4|9=250|35=8|34=17|49=DMA_HUB|56=FIXCLIENT1|52=20240725-07:42:33.727|11=HS_17218933531|37=FXm9wb8IG|198=KlqAv18e29|54=1|40=2|59=0|17=202407259|150=0|39=0|38=1715|151=1715|14=0|6=0|44=200|60=20240725-07:42:33.726|22=4|48=US3390411052|207=XETR|15=EUR|55=[N/A]|10=247|
2024-07-25 09:42:33.729 [35] [FixSender] (DEBUG) Receiving 8=FIX.4.4|9=310|35=8|34=18|49=DMA_HUB|56=FIXCLIENT1|52=20240725-07:42:33.729|11=HS_17218933531|37=FXm9wb8IG|198=KlqAv18e29|54=1|32=1715|31=86|17=2024072510|527=BKlqAv2|150=F|39=2|38=1715|151=0|14=1715|6=86|44=200|60=20240725-07:42:33.726|22=4|48=US3390411052|207=XETR|15=EUR|55=[N/A]|453=1|448=strmrepl|447=D|452=17|40=2|59=0|10=233|
2024-07-25 09:42:58.581 [35] [FixSender] (DEBUG) Receiving 8=FIX.4.4|9=61|35=0|34=19|49=DMA_HUB|56=FIXCLIENT1|52=20240725-07:42:58.581|10=001|
2024-07-25 09:43:03.724 [36] [FixSender] (DEBUG) Sending 8=FIX.4.4|9=57|35=0|49=FIXCLIENT1|56=DMA_HUB|34=13|52=20240725-07:43:03|10=043|
2024-07-25 09:43:09.560 [41] [FixSender] (DEBUG) Sending 8=FIX.4.4|9=192|35=D|49=FIXCLIENT1|56=DMA_HUB|34=14|52=20240725-07:43:09|21=1|11=HS_17218933890|38=200|55=E:07G@XETR|54=1|60=20240725-07:43:09|40=2|59=0|44=350|48=US3390411052|22=4|15=EUR|207=XETR|1=bram_123|10=100|
2024-07-25 09:43:09.568 [35] [FixSender] (DEBUG) Receiving 8=FIX.4.4|9=234|35=8|34=20|49=DMA_HUB|56=FIXCLIENT1|52=20240725-07:43:09.561|11=HS_17218933890|37=FXn9wb8IG|54=1|40=2|59=0|17=2024072511|150=A|39=A|38=200|151=200|14=0|6=0|44=350|60=20240725-07:43:09.000|22=4|48=US3390411052|207=XETR|15=EUR|55=[N/A]|10=210|
2024-07-25 09:43:09.568 [35] [FixSender] (DEBUG) Receiving 8=FIX.4.4|9=249|35=8|34=21|49=DMA_HUB|56=FIXCLIENT1|52=20240725-07:43:09.564|11=HS_17218933890|37=FXn9wb8IG|198=KlqAv1ccc1|54=1|40=2|59=0|17=2024072512|150=0|39=0|38=200|151=200|14=0|6=0|44=350|60=20240725-07:43:09.563|22=4|48=US3390411052|207=XETR|15=EUR|55=[N/A]|10=019|
2024-07-25 09:43:09.568 [35] [FixSender] (DEBUG) Receiving 8=FIX.4.4|9=307|35=8|34=22|49=DMA_HUB|56=FIXCLIENT1|52=20240725-07:43:09.566|11=HS_17218933890|37=FXn9wb8IG|198=KlqAv1ccc1|54=1|32=200|31=85|17=2024072513|527=BKlqAv3|150=F|39=2|38=200|151=0|14=200|6=85|44=350|60=20240725-07:43:09.563|22=4|48=US3390411052|207=XETR|15=EUR|55=[N/A]|453=1|448=strmrepl|447=D|452=17|40=2|59=0|10=159|
2024-07-25 09:43:10.704 [42] [FixSender] (DEBUG) Sending 8=FIX.4.4|9=192|35=D|49=FIXCLIENT1|56=DMA_HUB|34=15|52=20240725-07:43:10|21=1|11=HS_17218933901|38=200|55=E:07G@XETR|54=1|60=20240725-07:43:10|40=2|59=0|44=350|48=US3390411052|22=4|15=EUR|207=XETR|1=bram_123|10=078|
2024-07-25 09:43:10.705 [35] [FixSender] (DEBUG) Receiving 8=FIX.4.4|9=234|35=8|34=23|49=DMA_HUB|56=FIXCLIENT1|52=20240725-07:43:10.705|11=HS_17218933901|37=FXo9wb8IG|54=1|40=2|59=0|17=2024072514|150=A|39=A|38=200|151=200|14=0|6=0|44=350|60=20240725-07:43:10.000|22=4|48=US3390411052|207=XETR|15=EUR|55=[N/A]|10=194|
2024-07-25 09:43:10.709 [35] [FixSender] (DEBUG) Receiving 8=FIX.4.4|9=249|35=8|34=24|49=DMA_HUB|56=FIXCLIENT1|52=20240725-07:43:10.708|11=HS_17218933901|37=FXo9wb8IG|198=KlqAv1cec0|54=1|40=2|59=0|17=2024072515|150=0|39=0|38=200|151=200|14=0|6=0|44=350|60=20240725-07:43:10.706|22=4|48=US3390411052|207=XETR|15=EUR|55=[N/A]|10=003|
2024-07-25 09:43:10.711 [35] [FixSender] (DEBUG) Receiving 8=FIX.4.4|9=307|35=8|34=25|49=DMA_HUB|56=FIXCLIENT1|52=20240725-07:43:10.710|11=HS_17218933901|37=FXo9wb8IG|198=KlqAv1cec0|54=1|32=200|31=85|17=2024072516|527=BKlqAv4|150=F|39=2|38=200|151=0|14=200|6=85|44=350|60=20240725-07:43:10.706|22=4|48=US3390411052|207=XETR|15=EUR|55=[N/A]|453=1|448=strmrepl|447=D|452=17|40=2|59=0|10=135|
2024-07-25 09:43:28.533 [35] [FixSender] (DEBUG) Receiving 8=FIX.4.4|9=61|35=0|34=26|49=DMA_HUB|56=FIXCLIENT1|52=20240725-07:43:28.532|10=249|
2024-07-25 09:43:37.485 [43] [FixSender] (DEBUG) Sending 8=FIX.4.4|9=192|35=D|49=FIXCLIENT1|56=DMA_HUB|34=16|52=20240725-07:43:37|21=1|11=HS_17218934170|38=210|55=E:07G@XETR|54=1|60=20240725-07:43:37|40=2|59=0|44=350|48=US3390411052|22=4|15=EUR|207=XETR|1=bram_123|10=097|
2024-07-25 09:43:37.487 [35] [FixSender] (DEBUG) Receiving 8=FIX.4.4|9=234|35=8|34=27|49=DMA_HUB|56=FIXCLIENT1|52=20240725-07:43:37.487|11=HS_17218934170|37=FXp9wb8IG|54=1|40=2|59=0|17=2024072517|150=A|39=A|38=210|151=210|14=0|6=0|44=350|60=20240725-07:43:37.000|22=4|48=US3390411052|207=XETR|15=EUR|55=[N/A]|10=228|
2024-07-25 09:43:37.490 [35] [FixSender] (DEBUG) Receiving 8=FIX.4.4|9=249|35=8|34=28|49=DMA_HUB|56=FIXCLIENT1|52=20240725-07:43:37.490|11=HS_17218934170|37=FXp9wb8IG|198=KlqAv1fdd3|54=1|40=2|59=0|17=2024072518|150=0|39=0|38=210|151=210|14=0|6=0|44=350|60=20240725-07:43:37.488|22=4|48=US3390411052|207=XETR|15=EUR|55=[N/A]|10=041|
2024-07-25 09:43:37.492 [35] [FixSender] (DEBUG) Receiving 8=FIX.4.4|9=311|35=8|34=29|49=DMA_HUB|56=FIXCLIENT1|52=20240725-07:43:37.492|11=HS_17218934170|37=FXp9wb8IG|198=KlqAv1fdd3|54=1|32=210|31=84.5|17=2024072519|527=BKlqAv5|150=F|39=2|38=210|151=0|14=210|6=84.5|44=350|60=20240725-07:43:37.488|22=4|48=US3390411052|207=XETR|15=EUR|55=[N/A]|453=1|448=strmrepl|447=D|452=17|40=2|59=0|10=119|
2024-07-25 09:43:38.301 [44] [FixSender] (DEBUG) Sending 8=FIX.4.4|9=192|35=D|49=FIXCLIENT1|56=DMA_HUB|34=17|52=20240725-07:43:38|21=1|11=HS_17218934181|38=210|55=E:07G@XETR|54=1|60=20240725-07:43:38|40=2|59=0|44=350|48=US3390411052|22=4|15=EUR|207=XETR|1=bram_123|10=102|
2024-07-25 09:43:38.302 [35] [FixSender] (DEBUG) Receiving 8=FIX.4.4|9=234|35=8|34=30|49=DMA_HUB|56=FIXCLIENT1|52=20240725-07:43:38.302|11=HS_17218934181|37=FXq9wb8IG|54=1|40=2|59=0|17=2024072520|150=A|39=A|38=210|151=210|14=0|6=0|44=350|60=20240725-07:43:38.000|22=4|48=US3390411052|207=XETR|15=EUR|55=[N/A]|10=207|
2024-07-25 09:43:38.305 [35] [FixSender] (DEBUG) Receiving 8=FIX.4.4|9=249|35=8|34=31|49=DMA_HUB|56=FIXCLIENT1|52=20240725-07:43:38.305|11=HS_17218934181|37=FXq9wb8IG|198=KlqAv1ff2f|54=1|40=2|59=0|17=2024072521|150=0|39=0|38=210|151=210|14=0|6=0|44=350|60=20240725-07:43:38.303|22=4|48=US3390411052|207=XETR|15=EUR|55=[N/A]|10=018|
2024-07-25 09:43:38.307 [35] [FixSender] (DEBUG) Receiving 8=FIX.4.4|9=311|35=8|34=32|49=DMA_HUB|56=FIXCLIENT1|52=20240725-07:43:38.306|11=HS_17218934181|37=FXq9wb8IG|198=KlqAv1ff2f|54=1|32=210|31=84.5|17=2024072522|527=BKlqAv6|150=F|39=2|38=210|151=0|14=210|6=84.5|44=350|60=20240725-07:43:38.303|22=4|48=US3390411052|207=XETR|15=EUR|55=[N/A]|453=1|448=strmrepl|447=D|452=17|40=2|59=0|10=096|
2024-07-25 09:43:58.485 [35] [FixSender] (DEBUG) Receiving 8=FIX.4.4|9=61|35=0|34=33|49=DMA_HUB|56=FIXCLIENT1|52=20240725-07:43:58.484|10=000|
2024-07-25 09:44:08.301 [36] [FixSender] (DEBUG) Sending 8=FIX.4.4|9=57|35=0|49=FIXCLIENT1|56=DMA_HUB|34=18|52=20240725-07:44:08|10=054|
2024-07-25 09:44:13.387 [45] [FixSender] (DEBUG) Sending 8=FIX.4.4|9=192|35=D|49=FIXCLIENT1|56=DMA_HUB|34=19|52=20240725-07:44:13|21=1|11=HS_17218934530|38=210|55=E:07G@XETR|54=1|60=20240725-07:44:13|40=2|59=0|44=250|48=US3390411052|22=4|15=EUR|207=XETR|1=bram_123|10=089|
2024-07-25 09:44:13.389 [35] [FixSender] (DEBUG) Receiving 8=FIX.4.4|9=234|35=8|34=34|49=DMA_HUB|56=FIXCLIENT1|52=20240725-07:44:13.388|11=HS_17218934530|37=FXr9wb8IG|54=1|40=2|59=0|17=2024072523|150=A|39=A|38=210|151=210|14=0|6=0|44=250|60=20240725-07:44:13.000|22=4|48=US3390411052|207=XETR|15=EUR|55=[N/A]|10=214|
2024-07-25 09:44:14.922 [46] [FixSender] (DEBUG) Sending 8=FIX.4.4|9=192|35=D|49=FIXCLIENT1|56=DMA_HUB|34=20|52=20240725-07:44:14|21=1|11=HS_17218934541|38=210|55=E:07G@XETR|54=1|60=20240725-07:44:14|40=2|59=0|44=250|48=US3390411052|22=4|15=EUR|207=XETR|1=bram_123|10=085|
2024-07-25 09:44:14.924 [35] [FixSender] (DEBUG) Receiving 8=FIX.4.4|9=234|35=8|34=35|49=DMA_HUB|56=FIXCLIENT1|52=20240725-07:44:14.923|11=HS_17218934541|37=FXs9wb8IG|54=1|40=2|59=0|17=2024072524|150=A|39=A|38=210|151=210|14=0|6=0|44=250|60=20240725-07:44:14.000|22=4|48=US3390411052|207=XETR|15=EUR|55=[N/A]|10=216|
2024-07-25 09:44:27.003 [47] [FixSender] (DEBUG) Sending 8=FIX.4.4|9=192|35=D|49=FIXCLIENT1|56=DMA_HUB|34=21|52=20240725-07:44:27|21=1|11=HS_17218934672|38=200|55=E:07G@XETR|54=1|60=20240725-07:44:27|40=2|59=0|44=250|48=US3390411052|22=4|15=EUR|207=XETR|1=bram_123|10=098|
2024-07-25 09:44:27.005 [35] [FixSender] (DEBUG) Receiving 8=FIX.4.4|9=234|35=8|34=36|49=DMA_HUB|56=FIXCLIENT1|52=20240725-07:44:27.004|11=HS_17218934672|37=FXt9wb8IG|54=1|40=2|59=0|17=2024072525|150=A|39=A|38=200|151=200|14=0|6=0|44=250|60=20240725-07:44:27.000|22=4|48=US3390411052|207=XETR|15=EUR|55=[N/A]|10=220|
2024-07-25 09:44:28.436 [35] [FixSender] (DEBUG) Receiving 8=FIX.4.4|9=61|35=0|34=37|49=DMA_HUB|56=FIXCLIENT1|52=20240725-07:44:28.436|10=255|
2024-07-25 09:44:36.730 [48] [FixSender] (DEBUG) Sending 8=FIX.4.4|9=192|35=D|49=FIXCLIENT1|56=DMA_HUB|34=22|52=20240725-07:44:36|21=1|11=HS_17218934763|38=300|55=E:07G@XETR|54=1|60=20240725-07:44:36|40=2|59=0|44=250|48=US3390411052|22=4|15=EUR|207=XETR|1=bram_123|10=101|
2024-07-25 09:44:36.732 [35] [FixSender] (DEBUG) Receiving 8=FIX.4.4|9=234|35=8|34=38|49=DMA_HUB|56=FIXCLIENT1|52=20240725-07:44:36.731|11=HS_17218934763|37=FXu9wb8IG|54=1|40=2|59=0|17=2024072526|150=A|39=A|38=300|151=300|14=0|6=0|44=250|60=20240725-07:44:36.000|22=4|48=US3390411052|207=XETR|15=EUR|55=[N/A]|10=234|
2024-07-25 09:44:58.389 [35] [FixSender] (DEBUG) Receiving 8=FIX.4.4|9=61|35=0|34=39|49=DMA_HUB|56=FIXCLIENT1|52=20240725-07:44:58.388|10=010|
2024-07-25 09:45:06.730 [36] [FixSender] (DEBUG) Sending 8=FIX.4.4|9=57|35=0|49=FIXCLIENT1|56=DMA_HUB|34=23|52=20240725-07:45:06|10=049|
2024-07-25 09:45:19.767 [49] [FixSender] (DEBUG) Sending 8=FIX.4.4|9=192|35=D|49=FIXCLIENT1|56=DMA_HUB|34=24|52=20240725-07:45:19|21=1|11=HS_17218935194|38=300|55=E:07G@XETR|54=1|60=20240725-07:45:19|40=2|59=0|44=200|48=US3390411052|22=4|15=EUR|207=XETR|1=bram_123|10=101|
2024-07-25 09:45:19.768 [35] [FixSender] (DEBUG) Receiving 8=FIX.4.4|9=234|35=8|34=40|49=DMA_HUB|56=FIXCLIENT1|52=20240725-07:45:19.768|11=HS_17218935194|37=FXv9wb8IG|54=1|40=2|59=0|17=2024072527|150=A|39=A|38=300|151=300|14=0|6=0|44=200|60=20240725-07:45:19.000|22=4|48=US3390411052|207=XETR|15=EUR|55=[N/A]|10=237|
2024-07-25 09:45:28.341 [35] [FixSender] (DEBUG) Receiving 8=FIX.4.4|9=61|35=0|34=41|49=DMA_HUB|56=FIXCLIENT1|52=20240725-07:45:28.341|10=246|
2024-07-25 09:45:35.279 [50] [FixSender] (DEBUG) Sending 8=FIX.4.4|9=193|35=D|49=FIXCLIENT1|56=DMA_HUB|34=25|52=20240725-07:45:35|21=1|11=HS_17218935355|38=2148|55=E:07G@XETR|54=1|60=20240725-07:45:35|40=2|59=0|44=200|48=US3390411052|22=4|15=EUR|207=XETR|1=bram_123|10=158|
2024-07-25 09:45:35.281 [35] [FixSender] (DEBUG) Receiving 8=FIX.4.4|9=236|35=8|34=42|49=DMA_HUB|56=FIXCLIENT1|52=20240725-07:45:35.280|11=HS_17218935355|37=FXw9wb8IG|54=1|40=2|59=0|17=2024072528|150=A|39=A|38=2148|151=2148|14=0|6=0|44=200|60=20240725-07:45:35.000|22=4|48=US3390411052|207=XETR|15=EUR|55=[N/A]|10=091|
2024-07-25 09:45:42.367 [51] [FixSender] (DEBUG) Sending 8=FIX.4.4|9=192|35=D|49=FIXCLIENT1|56=DMA_HUB|34=26|52=20240725-07:45:42|21=1|11=HS_17218935426|38=462|55=E:07G@XETR|54=1|60=20240725-07:45:42|40=2|59=0|44=199|48=US3390411052|22=4|15=EUR|207=XETR|1=bram_123|10=119|
2024-07-25 09:45:42.368 [35] [FixSender] (DEBUG) Receiving 8=FIX.4.4|9=234|35=8|34=43|49=DMA_HUB|56=FIXCLIENT1|52=20240725-07:45:42.368|11=HS_17218935426|37=FXx9wb8IG|54=1|40=2|59=0|17=2024072529|150=A|39=A|38=462|151=462|14=0|6=0|44=199|60=20240725-07:45:42.000|22=4|48=US3390411052|207=XETR|15=EUR|55=[N/A]|10=009|
2024-07-25 09:45:42.371 [35] [FixSender] (DEBUG) Receiving 8=FIX.4.4|9=249|35=8|34=44|49=DMA_HUB|56=FIXCLIENT1|52=20240725-07:45:42.370|11=HS_17218935426|37=FXx9wb8IG|198=KlqAv2d7b3|54=1|40=2|59=0|17=2024072530|150=0|39=0|38=462|151=462|14=0|6=0|44=199|60=20240725-07:45:42.369|22=4|48=US3390411052|207=XETR|15=EUR|55=[N/A]|10=018|
2024-07-25 09:45:42.372 [35] [FixSender] (DEBUG) Receiving 8=FIX.4.4|9=311|35=8|34=45|49=DMA_HUB|56=FIXCLIENT1|52=20240725-07:45:42.372|11=HS_17218935426|37=FXx9wb8IG|198=KlqAv2d7b3|54=1|32=462|31=83.5|17=2024072531|527=BKlqAv7|150=F|39=2|38=462|151=0|14=462|6=83.5|44=199|60=20240725-07:45:42.369|22=4|48=US3390411052|207=XETR|15=EUR|55=[N/A]|453=1|448=strmrepl|447=D|452=17|40=2|59=0|10=105|
2024-07-25 09:45:48.775 [52] [FixSender] (DEBUG) Sending 8=FIX.4.4|9=193|35=D|49=FIXCLIENT1|56=DMA_HUB|34=27|52=20240725-07:45:48|21=1|11=HS_17218935487|38=2829|55=E:07G@XETR|54=1|60=20240725-07:45:48|40=2|59=0|44=300|48=US3390411052|22=4|15=EUR|207=XETR|1=bram_123|10=181|
2024-07-25 09:45:48.777 [35] [FixSender] (DEBUG) Receiving 8=FIX.4.4|9=236|35=8|34=46|49=DMA_HUB|56=FIXCLIENT1|52=20240725-07:45:48.776|11=HS_17218935487|37=FXy9wb8IG|54=1|40=2|59=0|17=2024072532|150=A|39=A|38=2829|151=2829|14=0|6=0|44=300|60=20240725-07:45:48.000|22=4|48=US3390411052|207=XETR|15=EUR|55=[N/A]|10=129|
2024-07-25 09:45:54.722 [53] [FixSender] (DEBUG) Sending 8=FIX.4.4|9=192|35=D|49=FIXCLIENT1|56=DMA_HUB|34=28|52=20240725-07:45:54|21=1|11=HS_17218935548|38=337|55=E:07G@XETR|54=1|60=20240725-07:45:54|40=2|59=0|44=301|48=US3390411052|22=4|15=EUR|207=XETR|1=bram_123|10=118|
2024-07-25 09:45:54.723 [35] [FixSender] (DEBUG) Receiving 8=FIX.4.4|9=234|35=8|34=47|49=DMA_HUB|56=FIXCLIENT1|52=20240725-07:45:54.723|11=HS_17218935548|37=FXz9wb8IG|54=1|40=2|59=0|17=2024072533|150=A|39=A|38=337|151=337|14=0|6=0|44=301|60=20240725-07:45:54.000|22=4|48=US3390411052|207=XETR|15=EUR|55=[N/A]|10=003|
2024-07-25 09:45:58.292 [35] [FixSender] (DEBUG) Receiving 8=FIX.4.4|9=61|35=0|34=48|49=DMA_HUB|56=FIXCLIENT1|52=20240725-07:45:58.292|10=005|
2024-07-25 09:46:24.723 [36] [FixSender] (DEBUG) Sending 8=FIX.4.4|9=57|35=0|49=FIXCLIENT1|56=DMA_HUB|34=29|52=20240725-07:46:24|10=056|
2024-07-25 09:46:28.245 [35] [FixSender] (DEBUG) Receiving 8=FIX.4.4|9=61|35=0|34=49|49=DMA_HUB|56=FIXCLIENT1|52=20240725-07:46:28.244|10=001|
2024-07-25 09:46:30.811 [54] [FixSender] (DEBUG) Sending 8=FIX.4.4|9=193|35=D|49=FIXCLIENT1|56=DMA_HUB|34=30|52=20240725-07:46:30|21=1|11=HS_17218935900|38=4685|55=E:07G@XETR|54=1|60=20240725-07:46:30|40=2|59=0|44=300|48=US3390411052|22=4|15=EUR|207=XETR|1=bram_123|10=151|
2024-07-25 09:46:30.812 [35] [FixSender] (DEBUG) Receiving 8=FIX.4.4|9=236|35=8|34=50|49=DMA_HUB|56=FIXCLIENT1|52=20240725-07:46:30.812|11=HS_17218935900|37=FX0Awb8IG|54=1|40=2|59=0|17=2024072534|150=A|39=A|38=4685|151=4685|14=0|6=0|44=300|60=20240725-07:46:30.000|22=4|48=US3390411052|207=XETR|15=EUR|55=[N/A]|10=030|
2024-07-25 09:46:30.815 [35] [FixSender] (DEBUG) Receiving 8=FIX.4.4|9=251|35=8|34=51|49=DMA_HUB|56=FIXCLIENT1|52=20240725-07:46:30.815|11=HS_17218935900|37=FX0Awb8IG|198=KlqAv32bf8|54=1|40=2|59=0|17=2024072535|150=0|39=0|38=4685|151=4685|14=0|6=0|44=300|60=20240725-07:46:30.814|22=4|48=US3390411052|207=XETR|15=EUR|55=[N/A]|10=047|
2024-07-25 09:46:30.816 [35] [FixSender] (DEBUG) Receiving 8=FIX.4.4|9=314|35=8|34=52|49=DMA_HUB|56=FIXCLIENT1|52=20240725-07:46:30.816|11=HS_17218935900|37=FX0Awb8IG|198=KlqAv32bf8|54=1|32=4685|31=83.5|17=2024072536|527=BKlqAv8|150=F|39=2|38=4685|151=0|14=4685|6=83.5|44=300|60=20240725-07:46:30.814|22=4|48=US3390411052|207=XETR|15=EUR|55=[N/A]|453=1|448=strmrepl|447=D|452=17|40=2|59=0|10=203|
2024-07-25 09:46:32.006 [55] [FixSender] (DEBUG) Sending 8=FIX.4.4|9=193|35=D|49=FIXCLIENT1|56=DMA_HUB|34=31|52=20240725-07:46:32|21=1|11=HS_17218935921|38=1418|55=E:07G@XETR|54=1|60=20240725-07:46:32|40=2|59=0|44=300|48=US3390411052|22=4|15=EUR|207=XETR|1=bram_123|10=150|
2024-07-25 09:46:32.008 [35] [FixSender] (DEBUG) Receiving 8=FIX.4.4|9=236|35=8|34=53|49=DMA_HUB|56=FIXCLIENT1|52=20240725-07:46:32.007|11=HS_17218935921|37=FX1Awb8IG|54=1|40=2|59=0|17=2024072537|150=A|39=A|38=1418|151=1418|14=0|6=0|44=300|60=20240725-07:46:32.000|22=4|48=US3390411052|207=XETR|15=EUR|55=[N/A]|10=022|
2024-07-25 09:46:32.011 [35] [FixSender] (DEBUG) Receiving 8=FIX.4.4|9=251|35=8|34=54|49=DMA_HUB|56=FIXCLIENT1|52=20240725-07:46:32.010|11=HS_17218935921|37=FX1Awb8IG|198=KlqAv32e2b|54=1|40=2|59=0|17=2024072538|150=0|39=0|38=1418|151=1418|14=0|6=0|44=300|60=20240725-07:46:32.009|22=4|48=US3390411052|207=XETR|15=EUR|55=[N/A]|10=019|
2024-07-25 09:46:32.012 [35] [FixSender] (DEBUG) Receiving 8=FIX.4.4|9=314|35=8|34=55|49=DMA_HUB|56=FIXCLIENT1|52=20240725-07:46:32.012|11=HS_17218935921|37=FX1Awb8IG|198=KlqAv32e2b|54=1|32=1418|31=83.5|17=2024072539|527=BKlqAv9|150=F|39=2|38=1418|151=0|14=1418|6=83.5|44=300|60=20240725-07:46:32.009|22=4|48=US3390411052|207=XETR|15=EUR|55=[N/A]|453=1|448=strmrepl|447=D|452=17|40=2|59=0|10=168|
2024-07-25 09:46:38.386 [56] [FixSender] (DEBUG) Sending 8=FIX.4.4|9=192|35=D|49=FIXCLIENT1|56=DMA_HUB|34=32|52=20240725-07:46:38|21=1|11=HS_17218935982|38=211|55=E:07G@XETR|54=1|60=20240725-07:46:38|40=2|59=0|44=299|48=US3390411052|22=4|15=EUR|207=XETR|1=bram_123|10=128|
2024-07-25 09:46:38.388 [35] [FixSender] (DEBUG) Receiving 8=FIX.4.4|9=234|35=8|34=56|49=DMA_HUB|56=FIXCLIENT1|52=20240725-07:46:38.388|11=HS_17218935982|37=FX2Awb8IG|54=1|40=2|59=0|17=2024072540|150=A|39=A|38=211|151=211|14=0|6=0|44=299|60=20240725-07:46:38.000|22=4|48=US3390411052|207=XETR|15=EUR|55=[N/A]|10=206|
2024-07-25 09:46:54.215 [57] [FixSender] (DEBUG) Sending 8=FIX.4.4|9=193|35=D|49=FIXCLIENT1|56=DMA_HUB|34=33|52=20240725-07:46:54|21=1|11=HS_17218936143|38=2621|55=E:07G@XETR|54=1|60=20240725-07:46:54|40=2|59=0|44=200|48=US3390411052|22=4|15=EUR|207=XETR|1=bram_123|10=153|
2024-07-25 09:46:54.216 [35] [FixSender] (DEBUG) Receiving 8=FIX.4.4|9=236|35=8|34=57|49=DMA_HUB|56=FIXCLIENT1|52=20240725-07:46:54.216|11=HS_17218936143|37=FX3Awb8IG|54=1|40=2|59=0|17=2024072541|150=A|39=A|38=2621|151=2621|14=0|6=0|44=200|60=20240725-07:46:54.000|22=4|48=US3390411052|207=XETR|15=EUR|55=[N/A]|10=023|
2024-07-25 09:46:58.196 [35] [FixSender] (DEBUG) Receiving 8=FIX.4.4|9=61|35=0|34=58|49=DMA_HUB|56=FIXCLIENT1|52=20240725-07:46:58.196|10=010|
2024-07-25 09:47:21.961 [58] [FixSender] (DEBUG) Sending 8=FIX.4.4|9=193|35=D|49=FIXCLIENT1|56=DMA_HUB|34=34|52=20240725-07:47:21|21=1|11=HS_17218936414|38=4494|55=E:07G@XETR|54=1|60=20240725-07:47:21|40=2|59=0|44=200|48=US3390411052|22=4|15=EUR|207=XETR|1=bram_123|10=155|
2024-07-25 09:47:21.963 [35] [FixSender] (DEBUG) Receiving 8=FIX.4.4|9=236|35=8|34=59|49=DMA_HUB|56=FIXCLIENT1|52=20240725-07:47:21.962|11=HS_17218936414|37=FX4Awb8IG|54=1|40=2|59=0|17=2024072542|150=A|39=A|38=4494|151=4494|14=0|6=0|44=200|60=20240725-07:47:21.000|22=4|48=US3390411052|207=XETR|15=EUR|55=[N/A]|10=046|
2024-07-25 09:47:21.965 [35] [FixSender] (DEBUG) Receiving 8=FIX.4.4|9=251|35=8|34=60|49=DMA_HUB|56=FIXCLIENT1|52=20240725-07:47:21.965|11=HS_17218936414|37=FX4Awb8IG|198=KlqAv38575|54=1|40=2|59=0|17=2024072543|150=0|39=0|38=4494|151=4494|14=0|6=0|44=200|60=20240725-07:47:21.964|22=4|48=US3390411052|207=XETR|15=EUR|55=[N/A]|10=227|
2024-07-25 09:47:21.967 [35] [FixSender] (DEBUG) Receiving 8=FIX.4.4|9=310|35=8|34=61|49=DMA_HUB|56=FIXCLIENT1|52=20240725-07:47:21.967|11=HS_17218936414|37=FX4Awb8IG|198=KlqAv38575|54=1|32=4494|31=83|17=2024072544|527=BKlqAva|150=F|39=2|38=4494|151=0|14=4494|6=83|44=200|60=20240725-07:47:21.964|22=4|48=US3390411052|207=XETR|15=EUR|55=[N/A]|453=1|448=strmrepl|447=D|452=17|40=2|59=0|10=221|
2024-07-25 09:47:22.864 [59] [FixSender] (DEBUG) Sending 8=FIX.4.4|9=193|35=D|49=FIXCLIENT1|56=DMA_HUB|34=35|52=20240725-07:47:22|21=1|11=HS_17218936425|38=4445|55=E:07G@XETR|54=1|60=20240725-07:47:22|40=2|59=0|44=200|48=US3390411052|22=4|15=EUR|207=XETR|1=bram_123|10=156|
2024-07-25 09:47:22.865 [35] [FixSender] (DEBUG) Receiving 8=FIX.4.4|9=236|35=8|34=62|49=DMA_HUB|56=FIXCLIENT1|52=20240725-07:47:22.865|11=HS_17218936425|37=FX5Awb8IG|54=1|40=2|59=0|17=2024072545|150=A|39=A|38=4445|151=4445|14=0|6=0|44=200|60=20240725-07:47:22.000|22=4|48=US3390411052|207=XETR|15=EUR|55=[N/A]|10=042|
2024-07-25 09:47:22.868 [35] [FixSender] (DEBUG) Receiving 8=FIX.4.4|9=251|35=8|34=63|49=DMA_HUB|56=FIXCLIENT1|52=20240725-07:47:22.868|11=HS_17218936425|37=FX5Awb8IG|198=KlqAv3870e|54=1|40=2|59=0|17=2024072546|150=0|39=0|38=4445|151=4445|14=0|6=0|44=200|60=20240725-07:47:22.866|22=4|48=US3390411052|207=XETR|15=EUR|55=[N/A]|10=020|
2024-07-25 09:47:22.869 [35] [FixSender] (DEBUG) Receiving 8=FIX.4.4|9=310|35=8|34=64|49=DMA_HUB|56=FIXCLIENT1|52=20240725-07:47:22.869|11=HS_17218936425|37=FX5Awb8IG|198=KlqAv3870e|54=1|32=4445|31=83|17=2024072547|527=BKlqAvb|150=F|39=2|38=4445|151=0|14=4445|6=83|44=200|60=20240725-07:47:22.866|22=4|48=US3390411052|207=XETR|15=EUR|55=[N/A]|453=1|448=strmrepl|447=D|452=17|40=2|59=0|10=010|
2024-07-25 09:47:28.149 [35] [FixSender] (DEBUG) Receiving 8=FIX.4.4|9=61|35=0|34=65|49=DMA_HUB|56=FIXCLIENT1|52=20240725-07:47:28.148|10=003|
2024-07-25 09:47:28.622 [60] [FixSender] (DEBUG) Sending 8=FIX.4.4|9=193|35=D|49=FIXCLIENT1|56=DMA_HUB|34=36|52=20240725-07:47:28|21=1|11=HS_17218936486|38=4166|55=E:07G@XETR|54=1|60=20240725-07:47:28|40=2|59=0|44=201|48=US3390411052|22=4|15=EUR|207=XETR|1=bram_123|10=177|
2024-07-25 09:47:28.624 [35] [FixSender] (DEBUG) Receiving 8=FIX.4.4|9=236|35=8|34=66|49=DMA_HUB|56=FIXCLIENT1|52=20240725-07:47:28.623|11=HS_17218936486|37=FX6Awb8IG|54=1|40=2|59=0|17=2024072548|150=A|39=A|38=4166|151=4166|14=0|6=0|44=201|60=20240725-07:47:28.000|22=4|48=US3390411052|207=XETR|15=EUR|55=[N/A]|10=062|
2024-07-25 09:47:29.495 [61] [FixSender] (DEBUG) Sending 8=FIX.4.4|9=193|35=D|49=FIXCLIENT1|56=DMA_HUB|34=37|52=20240725-07:47:29|21=1|11=HS_17218936497|38=4371|55=E:07G@XETR|54=1|60=20240725-07:47:29|40=2|59=0|44=201|48=US3390411052|22=4|15=EUR|207=XETR|1=bram_123|10=180|
2024-07-25 09:47:29.497 [35] [FixSender] (DEBUG) Receiving 8=FIX.4.4|9=236|35=8|34=67|49=DMA_HUB|56=FIXCLIENT1|52=20240725-07:47:29.497|11=HS_17218936497|37=FX7Awb8IG|54=1|40=2|59=0|17=2024072549|150=A|39=A|38=4371|151=4371|14=0|6=0|44=201|60=20240725-07:47:29.000|22=4|48=US3390411052|207=XETR|15=EUR|55=[N/A]|10=074|
2024-07-25 09:47:34.177 [62] [FixSender] (DEBUG) Sending 8=FIX.4.4|9=193|35=D|49=FIXCLIENT1|56=DMA_HUB|34=38|52=20240725-07:47:34|21=1|11=HS_17218936548|38=3882|55=E:07G@XETR|54=1|60=20240725-07:47:34|40=2|59=0|44=300|48=US3390411052|22=4|15=EUR|207=XETR|1=bram_123|10=176|
2024-07-25 09:47:34.179 [35] [FixSender] (DEBUG) Receiving 8=FIX.4.4|9=236|35=8|34=68|49=DMA_HUB|56=FIXCLIENT1|52=20240725-07:47:34.179|11=HS_17218936548|37=FX8Awb8IG|54=1|40=2|59=0|17=2024072550|150=A|39=A|38=3882|151=3882|14=0|6=0|44=300|60=20240725-07:47:34.000|22=4|48=US3390411052|207=XETR|15=EUR|55=[N/A]|10=066|
2024-07-25 09:47:39.866 [63] [FixSender] (DEBUG) Sending 8=FIX.4.4|9=193|35=D|49=FIXCLIENT1|56=DMA_HUB|34=39|52=20240725-07:47:39|21=1|11=HS_17218936599|38=4520|55=E:07G@XETR|54=1|60=20240725-07:47:39|40=2|59=0|44=301|48=US3390411052|22=4|15=EUR|207=XETR|1=bram_123|10=184|
