2024-07-24 16:23:16.247 [1] [Fixsender] (INFO) (c) 2001-2011 ullink SAS. FixSender. Release 1.11.
2024-07-24 16:23:29.242 [35] [FixSender] (INFO) try to connect to : localhost port :12345
2024-07-24 16:23:29.250 [35] [FixSender] (INFO) physical cnx initiated
2024-07-24 16:23:29.258 [35] [FixSender] (DEBUG) Sending 8=FIX.4.4|9=87|35=A|49=FIXCLIENT1|56=DMA_HUB|34=37|52=20240724-14:23:29|98=0|108=30|95=9|96=null/null|10=152|
2024-07-24 16:23:29.264 [35] [FixSender] (DEBUG) Receiving 8=FIX.4.4|9=72|35=A|34=1|49=DMA_HUB|56=FIXCLIENT1|52=20240724-14:23:29.262|108=30|98=0|10=234|
2024-07-24 16:23:29.265 [35] [FixSender] (DEBUG) Sending 8=FIX.4.4|9=108|35=5|49=FIXCLIENT1|56=DMA_HUB|34=38|52=20240724-14:23:29|58=MsgSeqNum expected 52, but MsgSeqNum received 1|10=122|
2024-07-24 16:23:29.266 [35] [FixSender] (INFO) physical cnx finished Connection reset by peer
2024-07-24 16:23:29.266 [35] [FixSender] (WARNING) Disconnected
2024-07-24 16:23:30.490 [39] [FixSender] (INFO) try to connect to : localhost port :12345
2024-07-24 16:23:30.490 [39] [FixSender] (INFO) physical cnx initiated
2024-07-24 16:23:30.494 [39] [FixSender] (DEBUG) Sending 8=FIX.4.4|9=86|35=A|49=FIXCLIENT1|56=DMA_HUB|34=1|52=20240724-14:23:30|98=0|108=30|95=9|96=null/null|10=086|
2024-07-24 16:23:30.494 [39] [FixSender] (DEBUG) Receiving 8=FIX.4.4|9=72|35=A|34=4|49=DMA_HUB|56=FIXCLIENT1|52=20240724-14:23:30.494|108=30|98=0|10=236|
2024-07-24 16:23:30.495 [39] [FixSender] (WARNING) The Fix connection is open...
2024-07-24 16:23:30.496 [39] [FixSender] (DEBUG) Sending 8=FIX.4.4|9=65|35=2|49=FIXCLIENT1|56=DMA_HUB|34=2|52=20240724-14:23:30|7=1|16=0|10=112|
2024-07-24 16:23:30.500 [39] [FixSender] (DEBUG) Receiving 8=FIX.4.4|9=102|35=4|34=1|49=DMA_HUB|56=FIXCLIENT1|52=20240724-14:23:30.500|43=Y|122=20240724-14:23:30.500|36=5|123=Y|10=225|
2024-07-24 16:23:48.557 [43] [FixSender] (DEBUG) Sending 8=FIX.4.4|9=192|35=D|49=FIXCLIENT1|56=DMA_HUB|34=3|52=20240724-14:23:48|21=1|11=HS_17218310280|38=4977|55=E:07G@XETR|54=1|60=20240724-14:23:48|40=2|59=0|44=197|48=US3390411052|22=4|15=EUR|207=XETR|1=bram_123|10=110|
2024-07-24 16:23:48.568 [39] [FixSender] (DEBUG) Receiving 8=FIX.4.4|9=234|35=8|34=5|49=DMA_HUB|56=FIXCLIENT1|52=20240724-14:23:48.568|11=HS_17218310280|37=FXjgvLvaS|54=1|40=2|59=0|17=202407241|150=A|39=A|38=4977|151=4977|14=0|6=0|44=197|60=20240724-14:23:48.000|22=4|48=US3390411052|207=XETR|15=EUR|55=[N/A]|10=116|
2024-07-24 16:24:18.557 [40] [FixSender] (DEBUG) Sending 8=FIX.4.4|9=56|35=0|49=FIXCLIENT1|56=DMA_HUB|34=4|52=20240724-14:24:18|10=252|
2024-07-24 16:24:20.569 [41] [FixSender] (DEBUG) Sending 8=FIX.4.4|9=79|35=1|49=FIXCLIENT1|56=DMA_HUB|34=5|52=20240724-14:24:20|112=HeartBtExt Timeout|10=176|
2024-07-24 16:24:35.008 [39] [FixSender] (DEBUG) Receiving 8=FIX.4.4|9=60|35=0|34=6|49=DMA_HUB|56=FIXCLIENT1|52=20240724-14:24:35.008|10=190|
2024-07-24 16:24:35.009 [39] [FixSender] (DEBUG) Receiving 8=FIX.4.4|9=83|35=0|34=7|49=DMA_HUB|56=FIXCLIENT1|52=20240724-14:24:35.008|112=HeartBtExt Timeout|10=120|
2024-07-24 16:24:35.043 [39] [FixSender] (DEBUG) Receiving 8=FIX.4.4|9=249|35=8|34=8|49=DMA_HUB|56=FIXCLIENT1|52=20240724-14:24:35.043|11=HS_17218310280|37=FXjgvLvaS|198=iYPjr6dd5a|54=1|40=2|59=0|17=202407242|150=0|39=0|38=4977|151=4977|14=0|6=0|44=197|60=20240724-14:24:35.036|22=4|48=US3390411052|207=XETR|15=EUR|55=[N/A]|10=181|
2024-07-24 16:24:35.052 [39] [FixSender] (DEBUG) Receiving 8=FIX.4.4|9=310|35=8|34=9|49=DMA_HUB|56=FIXCLIENT1|52=20240724-14:24:35.051|11=HS_17218310280|37=FXjgvLvaS|198=iYPjr6dd5a|54=1|32=4977|31=162|17=202407243|527=BjYPjr1|150=F|39=2|38=4977|151=0|14=4977|6=162|44=197|60=20240724-14:24:35.037|22=4|48=US3390411052|207=XETR|15=EUR|55=[N/A]|453=1|448=strmrepl|447=D|452=17|40=2|59=0|10=232|
2024-07-24 16:24:42.604 [44] [FixSender] (DEBUG) Sending 8=FIX.4.4|9=192|35=D|49=FIXCLIENT1|56=DMA_HUB|34=6|52=20240724-14:24:42|21=1|11=HS_17218310821|38=2370|55=E:07G@XETR|54=1|60=20240724-14:24:42|40=2|59=0|44=197|48=US3390411052|22=4|15=EUR|207=XETR|1=bram_123|10=089|
2024-07-24 16:24:42.606 [39] [FixSender] (DEBUG) Receiving 8=FIX.4.4|9=235|35=8|34=10|49=DMA_HUB|56=FIXCLIENT1|52=20240724-14:24:42.606|11=HS_17218310821|37=FXkgvLvaS|54=1|40=2|59=0|17=202407244|150=A|39=A|38=2370|151=2370|14=0|6=0|44=197|60=20240724-14:24:42.000|22=4|48=US3390411052|207=XETR|15=EUR|55=[N/A]|10=119|
2024-07-24 16:25:08.530 [39] [FixSender] (DEBUG) Receiving 8=FIX.4.4|9=61|35=0|34=11|49=DMA_HUB|56=FIXCLIENT1|52=20240724-14:25:08.529|10=244|
2024-07-24 16:25:12.604 [40] [FixSender] (DEBUG) Sending 8=FIX.4.4|9=56|35=0|49=FIXCLIENT1|56=DMA_HUB|34=7|52=20240724-14:25:12|10=250|
2024-07-24 16:25:40.531 [41] [FixSender] (DEBUG) Sending 8=FIX.4.4|9=79|35=1|49=FIXCLIENT1|56=DMA_HUB|34=8|52=20240724-14:25:40|112=HeartBtExt Timeout|10=182|
2024-07-24 16:26:10.532 [40] [FixSender] (DEBUG) Sending 8=FIX.4.4|9=56|35=0|49=FIXCLIENT1|56=DMA_HUB|34=9|52=20240724-14:26:10|10=251|
2024-07-24 16:26:12.531 [39] [FixSender] (INFO) physical cnx finished Connection reset by peer
2024-07-24 16:26:12.532 [39] [FixSender] (WARNING) Disconnected
2024-07-24 16:28:42.537 [1] [Fixsender] (INFO) (c) 2001-2011 ullink SAS. FixSender. Release 1.11.
2024-07-24 16:28:46.329 [35] [FixSender] (INFO) try to connect to : localhost port :12345
2024-07-24 16:28:46.334 [35] [FixSender] (INFO) physical cnx initiated
2024-07-24 16:28:46.342 [35] [FixSender] (DEBUG) Sending 8=FIX.4.4|9=87|35=A|49=FIXCLIENT1|56=DMA_HUB|34=10|52=20240724-14:28:46|98=0|108=30|95=9|96=null/null|10=147|
2024-07-24 16:28:46.343 [35] [FixSender] (DEBUG) Receiving 8=FIX.4.4|9=73|35=A|34=14|49=DMA_HUB|56=FIXCLIENT1|52=20240724-14:28:46.343|108=30|98=0|10=035|
2024-07-24 16:28:46.344 [35] [FixSender] (WARNING) The Fix connection is open...
2024-07-24 16:28:46.346 [35] [FixSender] (DEBUG) Sending 8=FIX.4.4|9=67|35=2|49=FIXCLIENT1|56=DMA_HUB|34=11|52=20240724-14:28:46|7=12|16=0|10=224|
2024-07-24 16:28:46.347 [35] [FixSender] (DEBUG) Receiving 8=FIX.4.4|9=104|35=4|34=12|49=DMA_HUB|56=FIXCLIENT1|52=20240724-14:28:46.346|43=Y|122=20240724-14:28:46.346|36=15|123=Y|10=110|
2024-07-24 16:28:51.759 [39] [FixSender] (DEBUG) Sending 8=FIX.4.4|9=192|35=D|49=FIXCLIENT1|56=DMA_HUB|34=12|52=20240724-14:28:51|21=1|11=HS_17218313310|38=674|55=E:07G@XETR|54=1|60=20240724-14:28:51|40=2|59=0|44=197|48=US3390411052|22=4|15=EUR|207=XETR|1=bram_123|10=095|
2024-07-24 16:28:51.761 [35] [FixSender] (DEBUG) Receiving 8=FIX.4.4|9=233|35=8|34=15|49=DMA_HUB|56=FIXCLIENT1|52=20240724-14:28:51.761|11=HS_17218313310|37=FXlgvLvaS|54=1|40=2|59=0|17=202407245|150=A|39=A|38=674|151=674|14=0|6=0|44=197|60=20240724-14:28:51.000|22=4|48=US3390411052|207=XETR|15=EUR|55=[N/A]|10=044|
2024-07-24 16:29:16.446 [35] [FixSender] (DEBUG) Receiving 8=FIX.4.4|9=61|35=0|34=16|49=DMA_HUB|56=FIXCLIENT1|52=20240724-14:29:16.445|10=249|
2024-07-24 16:29:21.761 [36] [FixSender] (DEBUG) Sending 8=FIX.4.4|9=57|35=0|49=FIXCLIENT1|56=DMA_HUB|34=13|52=20240724-14:29:21|10=044|
2024-07-24 16:29:23.252 [35] [FixSender] (DEBUG) Receiving 8=FIX.4.4|9=248|35=8|34=17|49=DMA_HUB|56=FIXCLIENT1|52=20240724-14:29:23.251|11=HS_17218313310|37=FXlgvLvaS|198=iYPjr8c84b|54=1|40=2|59=0|17=202407246|150=0|39=0|38=674|151=674|14=0|6=0|44=197|60=20240724-14:29:16.450|22=4|48=US3390411052|207=XETR|15=EUR|55=[N/A]|10=079|
2024-07-24 16:29:23.253 [35] [FixSender] (DEBUG) Receiving 8=FIX.4.4|9=308|35=8|34=18|49=DMA_HUB|56=FIXCLIENT1|52=20240724-14:29:23.252|11=HS_17218313310|37=FXlgvLvaS|198=iYPjr8c84b|54=1|32=674|31=163|17=202407247|527=BjYPjr2|150=F|39=2|38=674|151=0|14=674|6=163|44=197|60=20240724-14:29:16.450|22=4|48=US3390411052|207=XETR|15=EUR|55=[N/A]|453=1|448=strmrepl|447=D|452=17|40=2|59=0|10=084|
2024-07-24 16:29:46.418 [35] [FixSender] (DEBUG) Receiving 8=FIX.4.4|9=61|35=0|34=19|49=DMA_HUB|56=FIXCLIENT1|52=20240724-14:29:46.417|10=254|
2024-07-24 16:29:51.761 [36] [FixSender] (DEBUG) Sending 8=FIX.4.4|9=57|35=0|49=FIXCLIENT1|56=DMA_HUB|34=14|52=20240724-14:29:51|10=048|
2024-07-24 16:30:16.369 [35] [FixSender] (DEBUG) Receiving 8=FIX.4.4|9=61|35=0|34=20|49=DMA_HUB|56=FIXCLIENT1|52=20240724-14:30:16.369|10=241|
2024-07-24 16:30:21.762 [36] [FixSender] (DEBUG) Sending 8=FIX.4.4|9=57|35=0|49=FIXCLIENT1|56=DMA_HUB|34=15|52=20240724-14:30:21|10=038|
2024-07-24 16:30:46.322 [35] [FixSender] (DEBUG) Receiving 8=FIX.4.4|9=61|35=0|34=21|49=DMA_HUB|56=FIXCLIENT1|52=20240724-14:30:46.321|10=233|
2024-07-24 16:30:51.762 [36] [FixSender] (DEBUG) Sending 8=FIX.4.4|9=57|35=0|49=FIXCLIENT1|56=DMA_HUB|34=16|52=20240724-14:30:51|10=042|
2024-07-24 16:30:54.535 [40] [FixSender] (DEBUG) Sending 8=FIX.4.4|9=193|35=D|49=FIXCLIENT1|56=DMA_HUB|34=17|52=20240724-14:30:54|21=1|11=HS_17218314541|38=1174|55=E:07G@XETR|54=1|60=20240724-14:30:54|40=2|59=0|44=197|48=US3390411052|22=4|15=EUR|207=XETR|1=bram_123|10=144|
2024-07-24 16:30:54.537 [35] [FixSender] (DEBUG) Receiving 8=FIX.4.4|9=235|35=8|34=22|49=DMA_HUB|56=FIXCLIENT1|52=20240724-14:30:54.536|11=HS_17218314541|37=FXmgvLvaS|54=1|40=2|59=0|17=202407248|150=A|39=A|38=1174|151=1174|14=0|6=0|44=197|60=20240724-14:30:54.000|22=4|48=US3390411052|207=XETR|15=EUR|55=[N/A]|10=135|
2024-07-24 16:30:54.539 [35] [FixSender] (DEBUG) Receiving 8=FIX.4.4|9=250|35=8|34=23|49=DMA_HUB|56=FIXCLIENT1|52=20240724-14:30:54.538|11=HS_17218314541|37=FXmgvLvaS|198=iYPjr973b7|54=1|40=2|59=0|17=202407249|150=0|39=0|38=1174|151=1174|14=0|6=0|44=197|60=20240724-14:30:54.537|22=4|48=US3390411052|207=XETR|15=EUR|55=[N/A]|10=127|
2024-07-24 16:30:54.540 [35] [FixSender] (DEBUG) Receiving 8=FIX.4.4|9=312|35=8|34=24|49=DMA_HUB|56=FIXCLIENT1|52=20240724-14:30:54.540|11=HS_17218314541|37=FXmgvLvaS|198=iYPjr973b7|54=1|32=1174|31=162|17=2024072410|527=BjYPjr3|150=F|39=2|38=1174|151=0|14=1174|6=162|44=197|60=20240724-14:30:54.537|22=4|48=US3390411052|207=XETR|15=EUR|55=[N/A]|453=1|448=strmrepl|447=D|452=17|40=2|59=0|10=208|
2024-07-24 16:31:08.861 [41] [FixSender] (DEBUG) Sending 8=FIX.4.4|9=193|35=D|49=FIXCLIENT1|56=DMA_HUB|34=18|52=20240724-14:31:08|21=1|11=HS_17218314682|38=2944|55=E:07G@XETR|54=1|60=20240724-14:31:08|40=2|59=0|44=197|48=US3390411052|22=4|15=EUR|207=XETR|1=bram_123|10=157|
2024-07-24 16:31:08.863 [35] [FixSender] (DEBUG) Receiving 8=FIX.4.4|9=236|35=8|34=25|49=DMA_HUB|56=FIXCLIENT1|52=20240724-14:31:08.862|11=HS_17218314682|37=FXngvLvaS|54=1|40=2|59=0|17=2024072411|150=A|39=A|38=2944|151=2944|14=0|6=0|44=197|60=20240724-14:31:08.000|22=4|48=US3390411052|207=XETR|15=EUR|55=[N/A]|10=202|
2024-07-24 16:31:08.866 [35] [FixSender] (DEBUG) Receiving 8=FIX.4.4|9=251|35=8|34=26|49=DMA_HUB|56=FIXCLIENT1|52=20240724-14:31:08.865|11=HS_17218314682|37=FXngvLvaS|198=iYPjr98cba|54=1|40=2|59=0|17=2024072412|150=0|39=0|38=2944|151=2944|14=0|6=0|44=197|60=20240724-14:31:08.864|22=4|48=US3390411052|207=XETR|15=EUR|55=[N/A]|10=033|
2024-07-24 16:31:08.867 [35] [FixSender] (DEBUG) Receiving 8=FIX.4.4|9=312|35=8|34=27|49=DMA_HUB|56=FIXCLIENT1|52=20240724-14:31:08.867|11=HS_17218314682|37=FXngvLvaS|198=iYPjr98cba|54=1|32=2944|31=161|17=2024072413|527=BjYPjr4|150=F|39=2|38=2944|151=0|14=2944|6=161|44=197|60=20240724-14:31:08.864|22=4|48=US3390411052|207=XETR|15=EUR|55=[N/A]|453=1|448=strmrepl|447=D|452=17|40=2|59=0|10=088|
2024-07-24 16:31:09.970 [42] [FixSender] (DEBUG) Sending 8=FIX.4.4|9=193|35=D|49=FIXCLIENT1|56=DMA_HUB|34=19|52=20240724-14:31:09|21=1|11=HS_17218314693|38=1524|55=E:07G@XETR|54=1|60=20240724-14:31:09|40=2|59=0|44=197|48=US3390411052|22=4|15=EUR|207=XETR|1=bram_123|10=155|
2024-07-24 16:31:09.971 [35] [FixSender] (DEBUG) Receiving 8=FIX.4.4|9=236|35=8|34=28|49=DMA_HUB|56=FIXCLIENT1|52=20240724-14:31:09.971|11=HS_17218314693|37=FXogvLvaS|54=1|40=2|59=0|17=2024072414|150=A|39=A|38=1524|151=1524|14=0|6=0|44=197|60=20240724-14:31:09.000|22=4|48=US3390411052|207=XETR|15=EUR|55=[N/A]|10=200|
2024-07-24 16:31:09.974 [35] [FixSender] (DEBUG) Receiving 8=FIX.4.4|9=251|35=8|34=29|49=DMA_HUB|56=FIXCLIENT1|52=20240724-14:31:09.973|11=HS_17218314693|37=FXogvLvaS|198=iYPjr98ec1|54=1|40=2|59=0|17=2024072415|150=0|39=0|38=1524|151=1524|14=0|6=0|44=197|60=20240724-14:31:09.972|22=4|48=US3390411052|207=XETR|15=EUR|55=[N/A]|10=241|
2024-07-24 16:31:09.975 [35] [FixSender] (DEBUG) Receiving 8=FIX.4.4|9=312|35=8|34=30|49=DMA_HUB|56=FIXCLIENT1|52=20240724-14:31:09.974|11=HS_17218314693|37=FXogvLvaS|198=iYPjr98ec1|54=1|32=1524|31=161|17=2024072416|527=BjYPjr5|150=F|39=2|38=1524|151=0|14=1524|6=161|44=197|60=20240724-14:31:09.972|22=4|48=US3390411052|207=XETR|15=EUR|55=[N/A]|453=1|448=strmrepl|447=D|452=17|40=2|59=0|10=024|
2024-07-24 16:31:16.273 [35] [FixSender] (DEBUG) Receiving 8=FIX.4.4|9=61|35=0|34=31|49=DMA_HUB|56=FIXCLIENT1|52=20240724-14:31:16.273|10=238|
2024-07-24 16:31:39.970 [36] [FixSender] (DEBUG) Sending 8=FIX.4.4|9=57|35=0|49=FIXCLIENT1|56=DMA_HUB|34=20|52=20240724-14:31:39|10=044|
2024-07-24 16:31:46.225 [35] [FixSender] (DEBUG) Receiving 8=FIX.4.4|9=61|35=0|34=32|49=DMA_HUB|56=FIXCLIENT1|52=20240724-14:31:46.225|10=239|
2024-07-24 16:31:46.916 [43] [FixSender] (DEBUG) Sending 8=FIX.4.4|9=193|35=D|49=FIXCLIENT1|56=DMA_HUB|34=21|52=20240724-14:31:46|21=1|11=HS_17218315064|38=1181|55=E:07G@XETR|54=1|60=20240724-14:31:46|40=2|59=0|44=197|48=US3390411052|22=4|15=EUR|207=XETR|1=bram_123|10=142|
2024-07-24 16:31:46.917 [35] [FixSender] (DEBUG) Receiving 8=FIX.4.4|9=236|35=8|34=33|49=DMA_HUB|56=FIXCLIENT1|52=20240724-14:31:46.917|11=HS_17218315064|37=FXpgvLvaS|54=1|40=2|59=0|17=2024072417|150=A|39=A|38=1181|151=1181|14=0|6=0|44=197|60=20240724-14:31:46.000|22=4|48=US3390411052|207=XETR|15=EUR|55=[N/A]|10=193|
2024-07-24 16:31:47.810 [44] [FixSender] (DEBUG) Sending 8=FIX.4.4|9=192|35=D|49=FIXCLIENT1|56=DMA_HUB|34=22|52=20240724-14:31:47|21=1|11=HS_17218315075|38=904|55=E:07G@XETR|54=1|60=20240724-14:31:47|40=2|59=0|44=197|48=US3390411052|22=4|15=EUR|207=XETR|1=bram_123|10=100|
2024-07-24 16:31:47.811 [35] [FixSender] (DEBUG) Receiving 8=FIX.4.4|9=234|35=8|34=34|49=DMA_HUB|56=FIXCLIENT1|52=20240724-14:31:47.811|11=HS_17218315075|37=FXqgvLvaS|54=1|40=2|59=0|17=2024072418|150=A|39=A|38=904|151=904|14=0|6=0|44=197|60=20240724-14:31:47.000|22=4|48=US3390411052|207=XETR|15=EUR|55=[N/A]|10=099|
2024-07-24 16:31:48.390 [45] [FixSender] (DEBUG) Sending 8=FIX.4.4|9=192|35=D|49=FIXCLIENT1|56=DMA_HUB|34=23|52=20240724-14:31:48|21=1|11=HS_17218315086|38=404|55=E:07G@XETR|54=1|60=20240724-14:31:48|40=2|59=0|44=197|48=US3390411052|22=4|15=EUR|207=XETR|1=bram_123|10=100|
2024-07-24 16:31:48.392 [35] [FixSender] (DEBUG) Receiving 8=FIX.4.4|9=234|35=8|34=35|49=DMA_HUB|56=FIXCLIENT1|52=20240724-14:31:48.391|11=HS_17218315086|37=FXrgvLvaS|54=1|40=2|59=0|17=2024072419|150=A|39=A|38=404|151=404|14=0|6=0|44=197|60=20240724-14:31:48.000|22=4|48=US3390411052|207=XETR|15=EUR|55=[N/A]|10=099|
2024-07-24 16:31:48.842 [46] [FixSender] (DEBUG) Sending 8=FIX.4.4|9=193|35=D|49=FIXCLIENT1|56=DMA_HUB|34=24|52=20240724-14:31:48|21=1|11=HS_17218315087|38=4053|55=E:07G@XETR|54=1|60=20240724-14:31:48|40=2|59=0|44=197|48=US3390411052|22=4|15=EUR|207=XETR|1=bram_123|10=155|
2024-07-24 16:31:48.844 [35] [FixSender] (DEBUG) Receiving 8=FIX.4.4|9=236|35=8|34=36|49=DMA_HUB|56=FIXCLIENT1|52=20240724-14:31:48.843|11=HS_17218315087|37=FXsgvLvaS|54=1|40=2|59=0|17=2024072420|150=A|39=A|38=4053|151=4053|14=0|6=0|44=197|60=20240724-14:31:48.000|22=4|48=US3390411052|207=XETR|15=EUR|55=[N/A]|10=202|
2024-07-24 16:31:48.956 [47] [FixSender] (DEBUG) Sending 8=FIX.4.4|9=193|35=D|49=FIXCLIENT1|56=DMA_HUB|34=25|52=20240724-14:31:48|21=1|11=HS_17218315088|38=2929|55=E:07G@XETR|54=1|60=20240724-14:31:48|40=2|59=0|44=197|48=US3390411052|22=4|15=EUR|207=XETR|1=bram_123|10=167|
2024-07-24 16:31:48.957 [35] [FixSender] (DEBUG) Receiving 8=FIX.4.4|9=236|35=8|34=37|49=DMA_HUB|56=FIXCLIENT1|52=20240724-14:31:48.957|11=HS_17218315088|37=FXtgvLvaS|54=1|40=2|59=0|17=2024072421|150=A|39=A|38=2929|151=2929|14=0|6=0|44=197|60=20240724-14:31:48.000|22=4|48=US3390411052|207=XETR|15=EUR|55=[N/A]|10=232|
2024-07-24 16:31:49.084 [48] [FixSender] (DEBUG) Sending 8=FIX.4.4|9=193|35=D|49=FIXCLIENT1|56=DMA_HUB|34=26|52=20240724-14:31:49|21=1|11=HS_17218315099|38=4287|55=E:07G@XETR|54=1|60=20240724-14:31:49|40=2|59=0|44=197|48=US3390411052|22=4|15=EUR|207=XETR|1=bram_123|10=171|
2024-07-24 16:31:49.086 [35] [FixSender] (DEBUG) Receiving 8=FIX.4.4|9=236|35=8|34=38|49=DMA_HUB|56=FIXCLIENT1|52=20240724-14:31:49.085|11=HS_17218315099|37=FXugvLvaS|54=1|40=2|59=0|17=2024072422|150=A|39=A|38=4287|151=4287|14=0|6=0|44=197|60=20240724-14:31:49.000|22=4|48=US3390411052|207=XETR|15=EUR|55=[N/A]|10=229|
2024-07-24 16:31:57.953 [49] [FixSender] (DEBUG) Sending 8=FIX.4.4|9=194|35=D|49=FIXCLIENT1|56=DMA_HUB|34=27|52=20240724-14:31:57|21=1|11=HS_172183151710|38=2775|55=E:07G@XETR|54=1|60=20240724-14:31:57|40=2|59=0|44=197|48=US3390411052|22=4|15=EUR|207=XETR|1=bram_123|10=210|
2024-07-24 16:31:57.954 [35] [FixSender] (DEBUG) Receiving 8=FIX.4.4|9=237|35=8|34=39|49=DMA_HUB|56=FIXCLIENT1|52=20240724-14:31:57.954|11=HS_172183151710|37=FXvgvLvaS|54=1|40=2|59=0|17=2024072423|150=A|39=A|38=2775|151=2775|14=0|6=0|44=197|60=20240724-14:31:57.000|22=4|48=US3390411052|207=XETR|15=EUR|55=[N/A]|10=019|
2024-07-24 16:32:16.178 [35] [FixSender] (DEBUG) Receiving 8=FIX.4.4|9=61|35=0|34=40|49=DMA_HUB|56=FIXCLIENT1|52=20240724-14:32:16.177|10=242|
2024-07-24 16:32:27.954 [36] [FixSender] (DEBUG) Sending 8=FIX.4.4|9=57|35=0|49=FIXCLIENT1|56=DMA_HUB|34=28|52=20240724-14:32:27|10=050|
2024-07-24 16:32:46.129 [35] [FixSender] (DEBUG) Receiving 8=FIX.4.4|9=61|35=0|34=41|49=DMA_HUB|56=FIXCLIENT1|52=20240724-14:32:46.129|10=243|
2024-07-24 16:32:57.954 [36] [FixSender] (DEBUG) Sending 8=FIX.4.4|9=57|35=0|49=FIXCLIENT1|56=DMA_HUB|34=29|52=20240724-14:32:57|10=054|
2024-07-24 16:33:04.377 [50] [FixSender] (DEBUG) Sending 8=FIX.4.4|9=194|35=D|49=FIXCLIENT1|56=DMA_HUB|34=30|52=20240724-14:33:04|21=1|11=HS_172183158411|38=1455|55=E:07G@XETR|54=1|60=20240724-14:33:04|40=2|59=0|44=197|48=US3390411052|22=4|15=EUR|207=XETR|1=bram_123|10=191|
2024-07-24 16:33:04.379 [35] [FixSender] (DEBUG) Receiving 8=FIX.4.4|9=237|35=8|34=42|49=DMA_HUB|56=FIXCLIENT1|52=20240724-14:33:04.378|11=HS_172183158411|37=FXwgvLvaS|54=1|40=2|59=0|17=2024072424|150=A|39=A|38=1455|151=1455|14=0|6=0|44=197|60=20240724-14:33:04.000|22=4|48=US3390411052|207=XETR|15=EUR|55=[N/A]|10=252|
2024-07-24 16:33:17.187 [35] [FixSender] (DEBUG) Receiving 8=FIX.4.4|9=61|35=0|34=43|49=DMA_HUB|56=FIXCLIENT1|52=20240724-14:33:17.186|10=247|
2024-07-24 16:33:27.272 [51] [FixSender] (DEBUG) Sending 8=FIX.4.4|9=194|35=D|49=FIXCLIENT1|56=DMA_HUB|34=31|52=20240724-14:33:27|21=1|11=HS_172183160712|38=3978|55=E:07G@XETR|54=1|60=20240724-14:33:27|40=2|59=0|44=197|48=US3390411052|22=4|15=EUR|207=XETR|1=bram_123|10=211|
2024-07-24 16:33:27.274 [35] [FixSender] (DEBUG) Receiving 8=FIX.4.4|9=237|35=8|34=44|49=DMA_HUB|56=FIXCLIENT1|52=20240724-14:33:27.273|11=HS_172183160712|37=FXxgvLvaS|54=1|40=2|59=0|17=2024072425|150=A|39=A|38=3978|151=3978|14=0|6=0|44=197|60=20240724-14:33:27.000|22=4|48=US3390411052|207=XETR|15=EUR|55=[N/A]|10=025|
2024-07-24 16:33:57.272 [36] [FixSender] (DEBUG) Sending 8=FIX.4.4|9=57|35=0|49=FIXCLIENT1|56=DMA_HUB|34=32|52=20240724-14:33:57|10=049|
2024-07-24 16:33:59.275 [37] [FixSender] (DEBUG) Sending 8=FIX.4.4|9=80|35=1|49=FIXCLIENT1|56=DMA_HUB|34=33|52=20240724-14:33:59|112=HeartBtExt Timeout|10=229|
2024-07-24 16:34:05.667 [35] [FixSender] (DEBUG) Receiving 8=FIX.4.4|9=61|35=0|34=45|49=DMA_HUB|56=FIXCLIENT1|52=20240724-14:34:05.666|10=250|
2024-07-24 16:34:05.667 [35] [FixSender] (DEBUG) Receiving 8=FIX.4.4|9=84|35=0|34=46|49=DMA_HUB|56=FIXCLIENT1|52=20240724-14:34:05.666|112=HeartBtExt Timeout|10=180|
2024-07-24 16:34:29.276 [36] [FixSender] (DEBUG) Sending 8=FIX.4.4|9=57|35=0|49=FIXCLIENT1|56=DMA_HUB|34=34|52=20240724-14:34:29|10=051|
2024-07-24 16:34:35.634 [35] [FixSender] (DEBUG) Receiving 8=FIX.4.4|9=61|35=0|34=47|49=DMA_HUB|56=FIXCLIENT1|52=20240724-14:34:35.633|10=249|
2024-07-24 16:34:59.276 [36] [FixSender] (DEBUG) Sending 8=FIX.4.4|9=57|35=0|49=FIXCLIENT1|56=DMA_HUB|34=35|52=20240724-14:34:59|10=055|
2024-07-24 16:35:05.586 [35] [FixSender] (DEBUG) Receiving 8=FIX.4.4|9=61|35=0|34=48|49=DMA_HUB|56=FIXCLIENT1|52=20240724-14:35:05.586|10=255|
2024-07-24 16:35:18.009 [52] [FixSender] (DEBUG) Sending 8=FIX.4.4|9=194|35=D|49=FIXCLIENT1|56=DMA_HUB|34=36|52=20240724-14:35:18|21=1|11=HS_172183171813|38=3975|55=E:07G@XETR|54=1|60=20240724-14:35:18|40=2|59=0|44=197|48=US3390411052|22=4|15=EUR|207=XETR|1=bram_123|10=221|
2024-07-24 16:35:18.012 [35] [FixSender] (DEBUG) Receiving 8=FIX.4.4|9=237|35=8|34=49|49=DMA_HUB|56=FIXCLIENT1|52=20240724-14:35:18.011|11=HS_172183171813|37=FXygvLvaS|54=1|40=2|59=0|17=2024072426|150=A|39=A|38=3975|151=3975|14=0|6=0|44=197|60=20240724-14:35:18.000|22=4|48=US3390411052|207=XETR|15=EUR|55=[N/A]|10=024|
2024-07-24 16:35:19.420 [35] [FixSender] (DEBUG) Receiving 8=FIX.4.4|9=252|35=8|34=50|49=DMA_HUB|56=FIXCLIENT1|52=20240724-14:35:19.419|11=HS_172183171813|37=FXygvLvaS|198=iYPjrb42b8|54=1|40=2|59=0|17=2024072427|150=0|39=0|38=3975|151=3975|14=0|6=0|44=197|60=20240724-14:35:19.416|22=4|48=US3390411052|207=XETR|15=EUR|55=[N/A]|10=053|
2024-07-24 16:35:19.430 [35] [FixSender] (DEBUG) Receiving 8=FIX.4.4|9=313|35=8|34=51|49=DMA_HUB|56=FIXCLIENT1|52=20240724-14:35:19.428|11=HS_172183171813|37=FXygvLvaS|198=iYPjrb42b8|54=1|32=3975|31=163|17=2024072428|527=BjYPjr6|150=F|39=2|38=3975|151=0|14=3975|6=163|44=197|60=20240724-14:35:19.417|22=4|48=US3390411052|207=XETR|15=EUR|55=[N/A]|453=1|448=strmrepl|447=D|452=17|40=2|59=0|10=118|
2024-07-24 16:35:33.055 [53] [FixSender] (DEBUG) Sending 8=FIX.4.4|9=194|35=D|49=FIXCLIENT1|56=DMA_HUB|34=37|52=20240724-14:35:33|21=1|11=HS_172183173314|38=3460|55=E:07G@XETR|54=1|60=20240724-14:35:33|40=2|59=0|44=197|48=US3390411052|22=4|15=EUR|207=XETR|1=bram_123|10=203|
2024-07-24 16:35:33.058 [35] [FixSender] (DEBUG) Receiving 8=FIX.4.4|9=237|35=8|34=52|49=DMA_HUB|56=FIXCLIENT1|52=20240724-14:35:33.057|11=HS_172183173314|37=FXzgvLvaS|54=1|40=2|59=0|17=2024072429|150=A|39=A|38=3460|151=3460|14=0|6=0|44=197|60=20240724-14:35:33.000|22=4|48=US3390411052|207=XETR|15=EUR|55=[N/A]|10=002|
2024-07-24 16:35:34.167 [35] [FixSender] (DEBUG) Receiving 8=FIX.4.4|9=252|35=8|34=53|49=DMA_HUB|56=FIXCLIENT1|52=20240724-14:35:34.166|11=HS_172183173314|37=FXzgvLvaS|198=iYPjrb5c85|54=1|40=2|59=0|17=2024072430|150=0|39=0|38=3460|151=3460|14=0|6=0|44=197|60=20240724-14:35:34.163|22=4|48=US3390411052|207=XETR|15=EUR|55=[N/A]|10=024|
2024-07-24 16:35:34.175 [35] [FixSender] (DEBUG) Receiving 8=FIX.4.4|9=313|35=8|34=54|49=DMA_HUB|56=FIXCLIENT1|52=20240724-14:35:34.174|11=HS_172183173314|37=FXzgvLvaS|198=iYPjrb5c85|54=1|32=3460|31=162|17=2024072431|527=BjYPjr7|150=F|39=2|38=3460|151=0|14=3460|6=162|44=197|60=20240724-14:35:34.163|22=4|48=US3390411052|207=XETR|15=EUR|55=[N/A]|453=1|448=strmrepl|447=D|452=17|40=2|59=0|10=075|
2024-07-24 16:35:35.537 [35] [FixSender] (DEBUG) Receiving 8=FIX.4.4|9=61|35=0|34=55|49=DMA_HUB|56=FIXCLIENT1|52=20240724-14:35:35.537|10=252|
2024-07-24 16:36:03.055 [36] [FixSender] (DEBUG) Sending 8=FIX.4.4|9=57|35=0|49=FIXCLIENT1|56=DMA_HUB|34=38|52=20240724-14:36:03|10=049|
2024-07-24 16:36:05.490 [35] [FixSender] (DEBUG) Receiving 8=FIX.4.4|9=61|35=0|34=56|49=DMA_HUB|56=FIXCLIENT1|52=20240724-14:36:05.489|10=001|
2024-07-24 16:36:33.055 [36] [FixSender] (DEBUG) Sending 8=FIX.4.4|9=57|35=0|49=FIXCLIENT1|56=DMA_HUB|34=39|52=20240724-14:36:33|10=053|
2024-07-24 16:36:35.442 [35] [FixSender] (DEBUG) Receiving 8=FIX.4.4|9=61|35=0|34=57|49=DMA_HUB|56=FIXCLIENT1|52=20240724-14:36:35.442|10=250|
2024-07-24 16:37:03.056 [36] [FixSender] (DEBUG) Sending 8=FIX.4.4|9=57|35=0|49=FIXCLIENT1|56=DMA_HUB|34=40|52=20240724-14:37:03|10=043|
2024-07-24 16:37:05.393 [35] [FixSender] (DEBUG) Receiving 8=FIX.4.4|9=61|35=0|34=58|49=DMA_HUB|56=FIXCLIENT1|52=20240724-14:37:05.393|10=254|
2024-07-24 16:37:33.057 [36] [FixSender] (DEBUG) Sending 8=FIX.4.4|9=57|35=0|49=FIXCLIENT1|56=DMA_HUB|34=41|52=20240724-14:37:33|10=047|
2024-07-24 16:37:35.346 [35] [FixSender] (DEBUG) Receiving 8=FIX.4.4|9=61|35=0|34=59|49=DMA_HUB|56=FIXCLIENT1|52=20240724-14:37:35.345|10=255|
2024-07-24 16:38:03.057 [36] [FixSender] (DEBUG) Sending 8=FIX.4.4|9=57|35=0|49=FIXCLIENT1|56=DMA_HUB|34=42|52=20240724-14:38:03|10=046|
2024-07-24 16:38:05.297 [35] [FixSender] (DEBUG) Receiving 8=FIX.4.4|9=61|35=0|34=60|49=DMA_HUB|56=FIXCLIENT1|52=20240724-14:38:05.297|10=251|
2024-07-24 16:38:33.058 [36] [FixSender] (DEBUG) Sending 8=FIX.4.4|9=57|35=0|49=FIXCLIENT1|56=DMA_HUB|34=43|52=20240724-14:38:33|10=050|
2024-07-24 16:38:35.250 [35] [FixSender] (DEBUG) Receiving 8=FIX.4.4|9=61|35=0|34=61|49=DMA_HUB|56=FIXCLIENT1|52=20240724-14:38:35.249|10=252|
2024-07-24 16:39:03.058 [36] [FixSender] (DEBUG) Sending 8=FIX.4.4|9=57|35=0|49=FIXCLIENT1|56=DMA_HUB|34=44|52=20240724-14:39:03|10=049|
2024-07-24 16:39:05.201 [35] [FixSender] (DEBUG) Receiving 8=FIX.4.4|9=61|35=0|34=62|49=DMA_HUB|56=FIXCLIENT1|52=20240724-14:39:05.201|10=239|
2024-07-24 16:39:33.058 [36] [FixSender] (DEBUG) Sending 8=FIX.4.4|9=57|35=0|49=FIXCLIENT1|56=DMA_HUB|34=45|52=20240724-14:39:33|10=053|
2024-07-24 16:39:35.154 [35] [FixSender] (DEBUG) Receiving 8=FIX.4.4|9=61|35=0|34=63|49=DMA_HUB|56=FIXCLIENT1|52=20240724-14:39:35.153|10=249|
2024-07-24 16:40:03.059 [36] [FixSender] (DEBUG) Sending 8=FIX.4.4|9=57|35=0|49=FIXCLIENT1|56=DMA_HUB|34=46|52=20240724-14:40:03|10=043|
2024-07-24 16:40:05.106 [35] [FixSender] (DEBUG) Receiving 8=FIX.4.4|9=61|35=0|34=64|49=DMA_HUB|56=FIXCLIENT1|52=20240724-14:40:05.106|10=237|
2024-07-24 16:40:33.088 [36] [FixSender] (DEBUG) Sending 8=FIX.4.4|9=57|35=0|49=FIXCLIENT1|56=DMA_HUB|34=47|52=20240724-14:40:33|10=047|
2024-07-24 16:40:35.057 [35] [FixSender] (DEBUG) Receiving 8=FIX.4.4|9=61|35=0|34=65|49=DMA_HUB|56=FIXCLIENT1|52=20240724-14:40:35.057|10=246|
2024-07-24 16:41:03.088 [36] [FixSender] (DEBUG) Sending 8=FIX.4.4|9=57|35=0|49=FIXCLIENT1|56=DMA_HUB|34=48|52=20240724-14:41:03|10=046|
2024-07-24 16:41:05.010 [35] [FixSender] (DEBUG) Receiving 8=FIX.4.4|9=61|35=0|34=66|49=DMA_HUB|56=FIXCLIENT1|52=20240724-14:41:05.009|10=242|
2024-07-24 16:41:33.089 [36] [FixSender] (DEBUG) Sending 8=FIX.4.4|9=57|35=0|49=FIXCLIENT1|56=DMA_HUB|34=49|52=20240724-14:41:33|10=050|
2024-07-24 16:41:34.962 [35] [FixSender] (DEBUG) Receiving 8=FIX.4.4|9=61|35=0|34=67|49=DMA_HUB|56=FIXCLIENT1|52=20240724-14:41:34.962|10=253|
2024-07-24 16:41:57.776 [54] [FixSender] (DEBUG) Sending 8=FIX.4.4|9=194|35=D|49=FIXCLIENT1|56=DMA_HUB|34=50|52=20240724-14:41:57|21=1|11=HS_172183211715|38=1124|55=E:07G@XETR|54=1|60=20240724-14:41:57|40=2|59=0|44=197|48=US3390411052|22=4|15=EUR|207=XETR|1=bram_123|10=197|
2024-07-24 16:41:57.780 [35] [FixSender] (DEBUG) Receiving 8=FIX.4.4|9=237|35=8|34=68|49=DMA_HUB|56=FIXCLIENT1|52=20240724-14:41:57.779|11=HS_172183211715|37=FX0hvLvaS|54=1|40=2|59=0|17=2024072432|150=A|39=A|38=1124|151=1124|14=0|6=0|44=197|60=20240724-14:41:57.000|22=4|48=US3390411052|207=XETR|15=EUR|55=[N/A]|10=191|
2024-07-24 16:42:00.391 [35] [FixSender] (DEBUG) Receiving 8=FIX.4.4|9=252|35=8|34=69|49=DMA_HUB|56=FIXCLIENT1|52=20240724-14:42:00.390|11=HS_172183211715|37=FX0hvLvaS|198=iYPjrdffba|54=1|40=2|59=0|17=2024072433|150=0|39=0|38=1124|151=1124|14=0|6=0|44=197|60=20240724-14:42:00.384|22=4|48=US3390411052|207=XETR|15=EUR|55=[N/A]|10=075|
2024-07-24 16:42:00.406 [35] [FixSender] (DEBUG) Receiving 8=FIX.4.4|9=313|35=8|34=70|49=DMA_HUB|56=FIXCLIENT1|52=20240724-14:42:00.404|11=HS_172183211715|37=FX0hvLvaS|198=iYPjrdffba|54=1|32=1124|31=154|17=2024072434|527=BjYPjr8|150=F|39=2|38=1124|151=0|14=1124|6=154|44=197|60=20240724-14:42:00.384|22=4|48=US3390411052|207=XETR|15=EUR|55=[N/A]|453=1|448=strmrepl|447=D|452=17|40=2|59=0|10=112|
2024-07-24 16:42:04.849 [35] [FixSender] (DEBUG) Receiving 8=FIX.4.4|9=61|35=0|34=71|49=DMA_HUB|56=FIXCLIENT1|52=20240724-14:42:04.849|10=250|
2024-07-24 16:42:06.299 [55] [FixSender] (DEBUG) Sending 8=FIX.4.4|9=194|35=D|49=FIXCLIENT1|56=DMA_HUB|34=51|52=20240724-14:42:06|21=1|11=HS_172183212616|38=1488|55=E:07G@XETR|54=1|60=20240724-14:42:06|40=2|59=0|44=197|48=US3390411052|22=4|15=EUR|207=XETR|1=bram_123|10=202|
2024-07-24 16:42:06.303 [35] [FixSender] (DEBUG) Receiving 8=FIX.4.4|9=237|35=8|34=72|49=DMA_HUB|56=FIXCLIENT1|52=20240724-14:42:06.302|11=HS_172183212616|37=FX1hvLvaS|54=1|40=2|59=0|17=2024072435|150=A|39=A|38=1488|151=1488|14=0|6=0|44=197|60=20240724-14:42:06.000|22=4|48=US3390411052|207=XETR|15=EUR|55=[N/A]|10=189|
2024-07-24 16:42:35.403 [35] [FixSender] (DEBUG) Receiving 8=FIX.4.4|9=61|35=0|34=73|49=DMA_HUB|56=FIXCLIENT1|52=20240724-14:42:35.403|10=242|
2024-07-24 16:42:36.299 [36] [FixSender] (DEBUG) Sending 8=FIX.4.4|9=57|35=0|49=FIXCLIENT1|56=DMA_HUB|34=52|52=20240724-14:42:36|10=048|
2024-07-24 16:42:38.639 [35] [FixSender] (DEBUG) Receiving 8=FIX.4.4|9=252|35=8|34=74|49=DMA_HUB|56=FIXCLIENT1|52=20240724-14:42:38.639|11=HS_172183212616|37=FX1hvLvaS|198=iYPjre3d1e|54=1|40=2|59=0|17=2024072436|150=0|39=0|38=1488|151=1488|14=0|6=0|44=197|60=20240724-14:42:35.710|22=4|48=US3390411052|207=XETR|15=EUR|55=[N/A]|10=023|
2024-07-24 16:42:39.114 [35] [FixSender] (DEBUG) Receiving 8=FIX.4.4|9=313|35=8|34=75|49=DMA_HUB|56=FIXCLIENT1|52=20240724-14:42:39.113|11=HS_172183212616|37=FX1hvLvaS|198=iYPjre3d1e|54=1|32=1488|31=153|17=2024072437|527=BjYPjr9|150=F|39=2|38=1488|151=0|14=1488|6=153|44=197|60=20240724-14:42:35.710|22=4|48=US3390411052|207=XETR|15=EUR|55=[N/A]|453=1|448=strmrepl|447=D|452=17|40=2|59=0|10=073|
2024-07-24 16:42:54.509 [56] [FixSender] (DEBUG) Sending 8=FIX.4.4|9=194|35=D|49=FIXCLIENT1|56=DMA_HUB|34=53|52=20240724-14:42:54|21=1|11=HS_172183217417|38=3017|55=E:07G@XETR|54=1|60=20240724-14:42:54|40=2|59=0|44=278|48=US3390411052|22=4|15=EUR|207=XETR|1=bram_123|10=204|
2024-07-24 16:42:56.174 [35] [FixSender] (DEBUG) Receiving 8=FIX.4.4|9=237|35=8|34=76|49=DMA_HUB|56=FIXCLIENT1|52=20240724-14:42:56.171|11=HS_172183217417|37=FX2hvLvaS|54=1|40=2|59=0|17=2024072438|150=A|39=A|38=3017|151=3017|14=0|6=0|44=278|60=20240724-14:42:54.000|22=4|48=US3390411052|207=XETR|15=EUR|55=[N/A]|10=193|
2024-07-24 16:43:05.394 [35] [FixSender] (DEBUG) Receiving 8=FIX.4.4|9=61|35=0|34=77|49=DMA_HUB|56=FIXCLIENT1|52=20240724-14:43:05.393|10=252|
2024-07-24 16:43:06.440 [57] [FixSender] (DEBUG) Sending 8=FIX.4.4|9=193|35=D|49=FIXCLIENT1|56=DMA_HUB|34=54|52=20240724-14:43:06|21=1|11=HS_172183218618|38=469|55=E:07G@XETR|54=1|60=20240724-14:43:06|40=2|59=0|44=278|48=US3390411052|22=4|15=EUR|207=XETR|1=bram_123|10=164|
2024-07-24 16:43:06.444 [35] [FixSender] (DEBUG) Receiving 8=FIX.4.4|9=235|35=8|34=78|49=DMA_HUB|56=FIXCLIENT1|52=20240724-14:43:06.442|11=HS_172183218618|37=FX3hvLvaS|54=1|40=2|59=0|17=2024072439|150=A|39=A|38=469|151=469|14=0|6=0|44=278|60=20240724-14:43:06.000|22=4|48=US3390411052|207=XETR|15=EUR|55=[N/A]|10=114|
2024-07-24 16:43:35.346 [35] [FixSender] (DEBUG) Receiving 8=FIX.4.4|9=61|35=0|34=79|49=DMA_HUB|56=FIXCLIENT1|52=20240724-14:43:35.345|10=254|
2024-07-24 16:43:36.441 [36] [FixSender] (DEBUG) Sending 8=FIX.4.4|9=57|35=0|49=FIXCLIENT1|56=DMA_HUB|34=55|52=20240724-14:43:36|10=052|
2024-07-24 16:44:05.298 [35] [FixSender] (DEBUG) Receiving 8=FIX.4.4|9=61|35=0|34=80|49=DMA_HUB|56=FIXCLIENT1|52=20240724-14:44:05.298|10=251|
2024-07-24 16:44:06.441 [36] [FixSender] (DEBUG) Sending 8=FIX.4.4|9=57|35=0|49=FIXCLIENT1|56=DMA_HUB|34=56|52=20240724-14:44:06|10=051|
2024-07-24 16:44:11.050 [58] [FixSender] (DEBUG) Sending 8=FIX.4.4|9=193|35=D|49=FIXCLIENT1|56=DMA_HUB|34=57|52=20240724-14:44:11|21=1|11=HS_172183225119|38=957|55=E:07G@XETR|54=1|60=20240724-14:44:11|40=2|59=0|44=278|48=US3390411052|22=4|15=EUR|207=XETR|1=bram_123|10=157|
2024-07-24 16:44:17.337 [35] [FixSender] (DEBUG) Receiving 8=FIX.4.4|9=235|35=8|34=81|49=DMA_HUB|56=FIXCLIENT1|52=20240724-14:44:17.336|11=HS_172183225119|37=FX4hvLvaS|54=1|40=2|59=0|17=2024072440|150=A|39=A|38=957|151=957|14=0|6=0|44=278|60=20240724-14:44:11.000|22=4|48=US3390411052|207=XETR|15=EUR|55=[N/A]|10=101|
2024-07-24 16:44:20.049 [59] [FixSender] (DEBUG) Sending 8=FIX.4.4|9=194|35=D|49=FIXCLIENT1|56=DMA_HUB|34=58|52=20240724-14:44:20|21=1|11=HS_172183226020|38=3820|55=E:07G@XETR|54=1|60=20240724-14:44:20|40=2|59=0|44=278|48=US3390411052|22=4|15=EUR|207=XETR|1=bram_123|10=191|
2024-07-24 16:44:36.357 [35] [FixSender] (DEBUG) Receiving 8=FIX.4.4|9=61|35=0|34=82|49=DMA_HUB|56=FIXCLIENT1|52=20240724-14:44:36.356|10=252|
2024-07-24 16:44:36.362 [35] [FixSender] (DEBUG) Receiving 8=FIX.4.4|9=237|35=8|34=83|49=DMA_HUB|56=FIXCLIENT1|52=20240724-14:44:36.361|11=HS_172183226020|37=FX5hvLvaS|54=1|40=2|59=0|17=2024072441|150=A|39=A|38=3820|151=3820|14=0|6=0|44=278|60=20240724-14:44:20.000|22=4|48=US3390411052|207=XETR|15=EUR|55=[N/A]|10=178|
2024-07-24 16:44:38.628 [60] [FixSender] (DEBUG) Sending 8=FIX.4.4|9=193|35=D|49=FIXCLIENT1|56=DMA_HUB|34=59|52=20240724-14:44:38|21=1|11=HS_172183227821|38=892|55=E:07G@XETR|54=1|60=20240724-14:44:38|40=2|59=0|44=278|48=US3390411052|22=4|15=EUR|207=XETR|1=bram_123|10=177|
2024-07-24 16:44:46.023 [35] [FixSender] (DEBUG) Receiving 8=FIX.4.4|9=235|35=8|34=84|49=DMA_HUB|56=FIXCLIENT1|52=20240724-14:44:46.022|11=HS_172183227821|37=FX6hvLvaS|54=1|40=2|59=0|17=2024072442|150=A|39=A|38=892|151=892|14=0|6=0|44=278|60=20240724-14:44:38.000|22=4|48=US3390411052|207=XETR|15=EUR|55=[N/A]|10=109|
2024-07-24 16:44:56.631 [61] [FixSender] (DEBUG) Sending 8=FIX.4.4|9=194|35=D|49=FIXCLIENT1|56=DMA_HUB|34=60|52=20240724-14:44:56|21=1|11=HS_172183229622|38=1721|55=E:07G@XETR|54=1|60=20240724-14:44:56|40=2|59=0|44=278|48=US3390411052|22=4|15=EUR|207=XETR|1=bram_123|10=211|
2024-07-24 16:45:18.024 [37] [FixSender] (DEBUG) Sending 8=FIX.4.4|9=80|35=1|49=FIXCLIENT1|56=DMA_HUB|34=61|52=20240724-14:45:18|112=HeartBtExt Timeout|10=228|
2024-07-24 16:45:30.661 [35] [FixSender] (DEBUG) Receiving 8=FIX.4.4|9=61|35=0|34=85|49=DMA_HUB|56=FIXCLIENT1|52=20240724-14:45:30.660|10=248|
2024-07-24 16:45:30.663 [35] [FixSender] (DEBUG) Receiving 8=FIX.4.4|9=84|35=0|34=86|49=DMA_HUB|56=FIXCLIENT1|52=20240724-14:45:30.663|112=HeartBtExt Timeout|10=181|
2024-07-24 16:45:30.664 [35] [FixSender] (DEBUG) Receiving 8=FIX.4.4|9=237|35=8|34=87|49=DMA_HUB|56=FIXCLIENT1|52=20240724-14:45:30.664|11=HS_172183229622|37=FX7hvLvaS|54=1|40=2|59=0|17=2024072443|150=A|39=A|38=1721|151=1721|14=0|6=0|44=278|60=20240724-14:44:56.000|22=4|48=US3390411052|207=XETR|15=EUR|55=[N/A]|10=203|
2024-07-24 16:45:40.753 [63] [FixSender] (DEBUG) Sending 8=FIX.4.4|9=193|35=D|49=FIXCLIENT1|56=DMA_HUB|34=62|52=20240724-14:45:40|21=1|11=HS_172183234023|38=173|55=E:07G@XETR|54=1|60=20240724-14:45:40|40=2|59=0|44=278|48=US3390411052|22=4|15=EUR|207=XETR|1=bram_123|10=143|
2024-07-24 16:46:02.665 [37] [FixSender] (DEBUG) Sending 8=FIX.4.4|9=80|35=1|49=FIXCLIENT1|56=DMA_HUB|34=63|52=20240724-14:46:02|112=HeartBtExt Timeout|10=224|
2024-07-24 16:46:29.891 [35] [FixSender] (DEBUG) Receiving 8=FIX.4.4|9=61|35=0|34=88|49=DMA_HUB|56=FIXCLIENT1|52=20240724-14:46:29.891|10=010|
2024-07-24 16:46:32.665 [36] [FixSender] (DEBUG) Sending 8=FIX.4.4|9=57|35=0|49=FIXCLIENT1|56=DMA_HUB|34=64|52=20240724-14:46:32|10=051|
2024-07-24 16:47:01.892 [37] [FixSender] (DEBUG) Sending 8=FIX.4.4|9=80|35=1|49=FIXCLIENT1|56=DMA_HUB|34=65|52=20240724-14:47:01|112=HeartBtExt Timeout|10=226|
2024-07-24 16:47:31.893 [36] [FixSender] (DEBUG) Sending 8=FIX.4.4|9=57|35=0|49=FIXCLIENT1|56=DMA_HUB|34=66|52=20240724-14:47:31|10=053|
2024-07-24 16:47:33.893 [35] [FixSender] (INFO) physical cnx finished Connection reset by peer
2024-07-24 16:47:33.893 [35] [FixSender] (WARNING) Disconnected
2024-07-24 16:51:18.029 [64] [FixSender] (INFO) try to connect to : localhost port :12345
2024-07-24 16:51:18.030 [64] [FixSender] (INFO) physical cnx initiated
2024-07-24 16:51:18.032 [64] [FixSender] (DEBUG) Sending 8=FIX.4.4|9=87|35=A|49=FIXCLIENT1|56=DMA_HUB|34=67|52=20240724-14:51:18|98=0|108=30|95=9|96=null/null|10=154|
2024-07-24 16:51:23.288 [64] [FixSender] (DEBUG) Receiving 8=FIX.4.4|9=73|35=A|34=91|49=DMA_HUB|56=FIXCLIENT1|52=20240724-14:51:23.287|108=30|98=0|10=038|
2024-07-24 16:51:23.288 [64] [FixSender] (WARNING) The Fix connection is open...
2024-07-24 16:51:23.289 [64] [FixSender] (DEBUG) Sending 8=FIX.4.4|9=67|35=2|49=FIXCLIENT1|56=DMA_HUB|34=68|52=20240724-14:51:23|7=89|16=0|10=241|
2024-07-24 16:51:23.289 [64] [FixSender] (DEBUG) Receiving 8=FIX.4.4|9=71|35=2|34=92|49=DMA_HUB|56=FIXCLIENT1|52=20240724-14:51:23.288|7=63|16=0|10=177|
2024-07-24 16:51:23.306 [64] [FixSender] (DEBUG) Sending 8=FIX.4.4|9=96|35=4|49=FIXCLIENT1|56=DMA_HUB|34=63|52=20240724-14:51:23|43=Y|122=20240724-14:51:23|123=Y|36=69|10=175|
2024-07-24 16:51:23.307 [64] [FixSender] (DEBUG) Sending 8=FIX.4.4|9=75|35=1|49=FIXCLIENT1|56=DMA_HUB|34=69|52=20240724-14:51:23|112=synchronized?|10=102|
2024-07-24 16:51:23.307 [64] [FixSender] (DEBUG) Receiving 8=FIX.4.4|9=235|35=8|34=93|49=DMA_HUB|56=FIXCLIENT1|52=20240724-14:51:23.289|11=HS_172183234023|37=FX8hvLvaS|54=1|40=2|59=0|17=2024072444|150=A|39=A|38=173|151=173|14=0|6=0|44=278|60=20240724-14:45:40.000|22=4|48=US3390411052|207=XETR|15=EUR|55=[N/A]|10=091|
2024-07-24 16:51:23.308 [64] [FixSender] (DEBUG) Receiving 8=FIX.4.4|9=104|35=4|34=89|49=DMA_HUB|56=FIXCLIENT1|52=20240724-14:51:23.290|43=Y|122=20240724-14:51:23.290|36=93|123=Y|10=108|
2024-07-24 16:51:23.308 [64] [FixSender] (DEBUG) Receiving 8=FIX.4.4|9=266|35=8|34=93|49=DMA_HUB|56=FIXCLIENT1|52=20240724-14:51:23.290|43=Y|122=20240724-14:51:23.289|11=HS_172183234023|37=FX8hvLvaS|54=1|40=2|59=0|17=2024072444|150=A|39=A|38=173|151=173|14=0|6=0|44=278|60=20240724-14:45:40.000|22=4|48=US3390411052|207=XETR|15=EUR|55=[N/A]|10=095|
2024-07-24 16:51:23.308 [64] [FixSender] (DEBUG) Receiving 8=FIX.4.4|9=79|35=0|34=94|49=DMA_HUB|56=FIXCLIENT1|52=20240724-14:51:23.307|112=synchronized?|10=047|
2024-07-24 16:51:38.425 [69] [FixSender] (DEBUG) Sending 8=FIX.4.4|9=194|35=D|49=FIXCLIENT1|56=DMA_HUB|34=70|52=20240724-14:51:38|21=1|11=HS_172183269824|38=3942|55=E:07G@XETR|54=1|60=20240724-14:51:38|40=2|59=0|44=278|48=US3390411052|22=4|15=EUR|207=XETR|1=bram_123|10=223|
2024-07-24 16:51:38.428 [64] [FixSender] (DEBUG) Receiving 8=FIX.4.4|9=237|35=8|34=95|49=DMA_HUB|56=FIXCLIENT1|52=20240724-14:51:38.427|11=HS_172183269824|37=FX9hvLvaS|54=1|40=2|59=0|17=2024072445|150=A|39=A|38=3942|151=3942|14=0|6=0|44=278|60=20240724-14:51:38.000|22=4|48=US3390411052|207=XETR|15=EUR|55=[N/A]|10=228|
2024-07-24 16:51:53.266 [64] [FixSender] (DEBUG) Receiving 8=FIX.4.4|9=61|35=0|34=96|49=DMA_HUB|56=FIXCLIENT1|52=20240724-14:51:53.265|10=253|
2024-07-24 16:52:01.869 [70] [FixSender] (DEBUG) Sending 8=FIX.4.4|9=194|35=D|49=FIXCLIENT1|56=DMA_HUB|34=71|52=20240724-14:52:01|21=1|11=HS_172183272125|38=2875|55=E:07G@XETR|54=1|60=20240724-14:52:01|40=2|59=0|44=278|48=US3390411052|22=4|15=EUR|207=XETR|1=bram_123|10=198|
2024-07-24 16:52:01.872 [64] [FixSender] (DEBUG) Receiving 8=FIX.4.4|9=237|35=8|34=97|49=DMA_HUB|56=FIXCLIENT1|52=20240724-14:52:01.871|11=HS_172183272125|37=FXAhvLvaS|54=1|40=2|59=0|17=2024072446|150=A|39=A|38=2875|151=2875|14=0|6=0|44=278|60=20240724-14:52:01.000|22=4|48=US3390411052|207=XETR|15=EUR|55=[N/A]|10=220|
2024-07-24 16:52:23.217 [64] [FixSender] (DEBUG) Receiving 8=FIX.4.4|9=61|35=0|34=98|49=DMA_HUB|56=FIXCLIENT1|52=20240724-14:52:23.217|10=250|
2024-07-24 16:52:31.870 [68] [FixSender] (DEBUG) Sending 8=FIX.4.4|9=57|35=0|49=FIXCLIENT1|56=DMA_HUB|34=72|52=20240724-14:52:31|10=046|
2024-07-24 16:52:53.170 [64] [FixSender] (DEBUG) Receiving 8=FIX.4.4|9=61|35=0|34=99|49=DMA_HUB|56=FIXCLIENT1|52=20240724-14:52:53.169|10=004|
2024-07-24 16:53:01.870 [68] [FixSender] (DEBUG) Sending 8=FIX.4.4|9=57|35=0|49=FIXCLIENT1|56=DMA_HUB|34=73|52=20240724-14:53:01|10=045|
2024-07-24 16:53:23.122 [64] [FixSender] (DEBUG) Receiving 8=FIX.4.4|9=62|35=0|34=100|49=DMA_HUB|56=FIXCLIENT1|52=20240724-14:53:23.122|10=023|
2024-07-24 16:53:31.870 [68] [FixSender] (DEBUG) Sending 8=FIX.4.4|9=57|35=0|49=FIXCLIENT1|56=DMA_HUB|34=74|52=20240724-14:53:31|10=049|
2024-07-24 16:53:53.073 [64] [FixSender] (DEBUG) Receiving 8=FIX.4.4|9=62|35=0|34=101|49=DMA_HUB|56=FIXCLIENT1|52=20240724-14:53:53.073|10=032|
2024-07-24 16:54:01.871 [68] [FixSender] (DEBUG) Sending 8=FIX.4.4|9=57|35=0|49=FIXCLIENT1|56=DMA_HUB|34=75|52=20240724-14:54:01|10=048|
2024-07-24 16:54:23.026 [64] [FixSender] (DEBUG) Receiving 8=FIX.4.4|9=62|35=0|34=102|49=DMA_HUB|56=FIXCLIENT1|52=20240724-14:54:23.026|10=029|
2024-07-24 16:54:31.871 [68] [FixSender] (DEBUG) Sending 8=FIX.4.4|9=57|35=0|49=FIXCLIENT1|56=DMA_HUB|34=76|52=20240724-14:54:31|10=052|
2024-07-24 16:54:52.977 [64] [FixSender] (DEBUG) Receiving 8=FIX.4.4|9=62|35=0|34=103|49=DMA_HUB|56=FIXCLIENT1|52=20240724-14:54:52.977|10=047|
2024-07-24 16:55:01.872 [68] [FixSender] (DEBUG) Sending 8=FIX.4.4|9=57|35=0|49=FIXCLIENT1|56=DMA_HUB|34=77|52=20240724-14:55:01|10=051|
2024-07-24 16:55:22.930 [64] [FixSender] (DEBUG) Receiving 8=FIX.4.4|9=62|35=0|34=104|49=DMA_HUB|56=FIXCLIENT1|52=20240724-14:55:22.929|10=043|
2024-07-24 16:55:31.873 [68] [FixSender] (DEBUG) Sending 8=FIX.4.4|9=57|35=0|49=FIXCLIENT1|56=DMA_HUB|34=78|52=20240724-14:55:31|10=055|
2024-07-24 16:55:52.881 [64] [FixSender] (DEBUG) Receiving 8=FIX.4.4|9=62|35=0|34=105|49=DMA_HUB|56=FIXCLIENT1|52=20240724-14:55:52.881|10=044|
2024-07-24 16:56:01.873 [68] [FixSender] (DEBUG) Sending 8=FIX.4.4|9=57|35=0|49=FIXCLIENT1|56=DMA_HUB|34=79|52=20240724-14:56:01|10=054|
2024-07-24 16:56:22.833 [64] [FixSender] (DEBUG) Receiving 8=FIX.4.4|9=62|35=0|34=106|49=DMA_HUB|56=FIXCLIENT1|52=20240724-14:56:22.833|10=040|
2024-07-24 16:56:31.874 [68] [FixSender] (DEBUG) Sending 8=FIX.4.4|9=57|35=0|49=FIXCLIENT1|56=DMA_HUB|34=80|52=20240724-14:56:31|10=049|
2024-07-24 16:56:52.786 [64] [FixSender] (DEBUG) Receiving 8=FIX.4.4|9=62|35=0|34=107|49=DMA_HUB|56=FIXCLIENT1|52=20240724-14:56:52.786|10=051|
2024-07-24 16:57:01.874 [68] [FixSender] (DEBUG) Sending 8=FIX.4.4|9=57|35=0|49=FIXCLIENT1|56=DMA_HUB|34=81|52=20240724-14:57:01|10=048|
2024-07-24 16:57:22.737 [64] [FixSender] (DEBUG) Receiving 8=FIX.4.4|9=62|35=0|34=108|49=DMA_HUB|56=FIXCLIENT1|52=20240724-14:57:22.737|10=046|
2024-07-24 16:57:31.875 [68] [FixSender] (DEBUG) Sending 8=FIX.4.4|9=57|35=0|49=FIXCLIENT1|56=DMA_HUB|34=82|52=20240724-14:57:31|10=052|
2024-07-24 16:57:52.690 [64] [FixSender] (DEBUG) Receiving 8=FIX.4.4|9=62|35=0|34=109|49=DMA_HUB|56=FIXCLIENT1|52=20240724-14:57:52.689|10=056|
2024-07-24 16:58:01.875 [68] [FixSender] (DEBUG) Sending 8=FIX.4.4|9=57|35=0|49=FIXCLIENT1|56=DMA_HUB|34=83|52=20240724-14:58:01|10=051|
2024-07-24 16:58:22.641 [64] [FixSender] (DEBUG) Receiving 8=FIX.4.4|9=62|35=0|34=110|49=DMA_HUB|56=FIXCLIENT1|52=20240724-14:58:22.641|10=034|
2024-07-24 16:58:31.875 [68] [FixSender] (DEBUG) Sending 8=FIX.4.4|9=57|35=0|49=FIXCLIENT1|56=DMA_HUB|34=84|52=20240724-14:58:31|10=055|
2024-07-24 16:58:52.593 [64] [FixSender] (DEBUG) Receiving 8=FIX.4.4|9=62|35=0|34=111|49=DMA_HUB|56=FIXCLIENT1|52=20240724-14:58:52.593|10=044|
2024-07-24 16:59:01.875 [68] [FixSender] (DEBUG) Sending 8=FIX.4.4|9=57|35=0|49=FIXCLIENT1|56=DMA_HUB|34=85|52=20240724-14:59:01|10=054|
2024-07-24 16:59:22.546 [64] [FixSender] (DEBUG) Receiving 8=FIX.4.4|9=62|35=0|34=112|49=DMA_HUB|56=FIXCLIENT1|52=20240724-14:59:22.546|10=041|
2024-07-24 16:59:31.875 [68] [FixSender] (DEBUG) Sending 8=FIX.4.4|9=57|35=0|49=FIXCLIENT1|56=DMA_HUB|34=86|52=20240724-14:59:31|10=058|
2024-07-24 16:59:52.497 [64] [FixSender] (DEBUG) Receiving 8=FIX.4.4|9=62|35=0|34=113|49=DMA_HUB|56=FIXCLIENT1|52=20240724-14:59:52.497|10=050|
2024-07-24 17:00:01.876 [68] [FixSender] (DEBUG) Sending 8=FIX.4.4|9=57|35=0|49=FIXCLIENT1|56=DMA_HUB|34=87|52=20240724-15:00:01|10=043|
2024-07-24 17:00:22.450 [64] [FixSender] (DEBUG) Receiving 8=FIX.4.4|9=62|35=0|34=114|49=DMA_HUB|56=FIXCLIENT1|52=20240724-15:00:22.449|10=032|
2024-07-24 17:00:31.876 [68] [FixSender] (DEBUG) Sending 8=FIX.4.4|9=57|35=0|49=FIXCLIENT1|56=DMA_HUB|34=88|52=20240724-15:00:31|10=047|
2024-07-24 17:00:52.401 [64] [FixSender] (DEBUG) Receiving 8=FIX.4.4|9=62|35=0|34=115|49=DMA_HUB|56=FIXCLIENT1|52=20240724-15:00:52.401|10=024|
2024-07-24 17:01:01.877 [68] [FixSender] (DEBUG) Sending 8=FIX.4.4|9=57|35=0|49=FIXCLIENT1|56=DMA_HUB|34=89|52=20240724-15:01:01|10=046|
2024-07-24 17:01:22.354 [64] [FixSender] (DEBUG) Receiving 8=FIX.4.4|9=62|35=0|34=116|49=DMA_HUB|56=FIXCLIENT1|52=20240724-15:01:22.353|10=029|
2024-07-24 17:01:31.877 [68] [FixSender] (DEBUG) Sending 8=FIX.4.4|9=57|35=0|49=FIXCLIENT1|56=DMA_HUB|34=90|52=20240724-15:01:31|10=041|
2024-07-24 17:01:52.305 [64] [FixSender] (DEBUG) Receiving 8=FIX.4.4|9=62|35=0|34=117|49=DMA_HUB|56=FIXCLIENT1|52=20240724-15:01:52.305|10=030|
2024-07-24 17:02:01.877 [68] [FixSender] (DEBUG) Sending 8=FIX.4.4|9=57|35=0|49=FIXCLIENT1|56=DMA_HUB|34=91|52=20240724-15:02:01|10=040|
2024-07-24 17:02:22.259 [64] [FixSender] (DEBUG) Receiving 8=FIX.4.4|9=62|35=0|34=118|49=DMA_HUB|56=FIXCLIENT1|52=20240724-15:02:22.257|10=035|
2024-07-24 17:02:31.877 [68] [FixSender] (DEBUG) Sending 8=FIX.4.4|9=57|35=0|49=FIXCLIENT1|56=DMA_HUB|34=92|52=20240724-15:02:31|10=044|
2024-07-24 17:02:52.210 [64] [FixSender] (DEBUG) Receiving 8=FIX.4.4|9=62|35=0|34=119|49=DMA_HUB|56=FIXCLIENT1|52=20240724-15:02:52.210|10=028|
2024-07-24 17:03:01.878 [68] [FixSender] (DEBUG) Sending 8=FIX.4.4|9=57|35=0|49=FIXCLIENT1|56=DMA_HUB|34=93|52=20240724-15:03:01|10=043|
2024-07-24 17:03:22.161 [64] [FixSender] (DEBUG) Receiving 8=FIX.4.4|9=62|35=0|34=120|49=DMA_HUB|56=FIXCLIENT1|52=20240724-15:03:22.161|10=023|
2024-07-24 17:03:31.878 [68] [FixSender] (DEBUG) Sending 8=FIX.4.4|9=57|35=0|49=FIXCLIENT1|56=DMA_HUB|34=94|52=20240724-15:03:31|10=047|
2024-07-24 17:03:42.503 [64] [FixSender] (DEBUG) Receiving 8=FIX.4.4|9=62|35=5|34=121|49=DMA_HUB|56=FIXCLIENT1|52=20240724-15:03:42.502|10=030|
2024-07-24 17:03:42.504 [64] [FixSender] (DEBUG) Sending 8=FIX.4.4|9=79|35=5|49=FIXCLIENT1|56=DMA_HUB|34=95|52=20240724-15:03:42|58=Replying to logout|10=237|
2024-07-24 17:03:42.504 [64] [FixSender] (WARNING) The Fix connection is close...
2024-07-24 17:03:42.505 [64] [FixSender] (INFO) physical cnx finished Connection reset by peer
2024-07-24 17:03:42.505 [64] [FixSender] (WARNING) Disconnected
2024-07-24 17:12:46.324 [71] [FixSender] (INFO) try to connect to : localhost port :12345
2024-07-24 17:12:46.335 [71] [FixSender] (INFO) physical cnx initiated
2024-07-24 17:12:46.346 [71] [FixSender] (DEBUG) Sending 8=FIX.4.4|9=87|35=A|49=FIXCLIENT1|56=DMA_HUB|34=96|52=20240724-15:12:46|98=0|108=30|95=9|96=null/null|10=155|
2024-07-24 17:12:46.351 [71] [FixSender] (DEBUG) Receiving 8=FIX.4.4|9=74|35=A|34=122|49=DMA_HUB|56=FIXCLIENT1|52=20240724-15:12:46.350|108=30|98=0|10=076|
2024-07-24 17:12:46.353 [71] [FixSender] (WARNING) The Fix connection is open...
2024-07-24 17:12:46.358 [71] [FixSender] (DEBUG) Sending 8=FIX.4.4|9=75|35=1|49=FIXCLIENT1|56=DMA_HUB|34=97|52=20240724-15:12:46|112=synchronized?|10=106|
2024-07-24 17:12:46.359 [71] [FixSender] (DEBUG) Receiving 8=FIX.4.4|9=80|35=0|34=123|49=DMA_HUB|56=FIXCLIENT1|52=20240724-15:12:46.358|112=synchronized?|10=089|
2024-07-24 17:12:59.239 [74] [FixSender] (DEBUG) Sending 8=FIX.4.4|9=194|35=D|49=FIXCLIENT1|56=DMA_HUB|34=98|52=20240724-15:12:59|21=1|11=HS_172183397926|38=4322|55=E:07G@XETR|54=1|60=20240724-15:12:59|40=2|59=0|44=278|48=US3390411052|22=4|15=EUR|207=XETR|1=bram_123|10=233|
2024-07-24 17:12:59.246 [71] [FixSender] (DEBUG) Receiving 8=FIX.4.4|9=238|35=8|34=124|49=DMA_HUB|56=FIXCLIENT1|52=20240724-15:12:59.245|11=HS_172183397926|37=FXnefYxLU|54=1|40=2|59=0|17=2024072447|150=A|39=A|38=4322|151=4322|14=0|6=0|44=278|60=20240724-15:12:59.000|22=4|48=US3390411052|207=XETR|15=EUR|55=[N/A]|10=037|
2024-07-24 17:12:59.268 [71] [FixSender] (DEBUG) Receiving 8=FIX.4.4|9=253|35=8|34=125|49=DMA_HUB|56=FIXCLIENT1|52=20240724-15:12:59.268|11=HS_172183397926|37=FXnefYxLU|198=pZ0zr20184|54=1|40=2|59=0|17=2024072448|150=0|39=0|38=4322|151=4322|14=0|6=0|44=278|60=20240724-15:12:59.263|22=4|48=US3390411052|207=XETR|15=EUR|55=[N/A]|10=215|
2024-07-24 17:12:59.298 [71] [FixSender] (DEBUG) Receiving 8=FIX.4.4|9=314|35=8|34=126|49=DMA_HUB|56=FIXCLIENT1|52=20240724-15:12:59.275|11=HS_172183397926|37=FXnefYxLU|198=pZ0zr20184|54=1|32=4322|31=124|17=2024072449|527=BpZ0zr1|150=F|39=2|38=4322|151=0|14=4322|6=124|44=278|60=20240724-15:12:59.263|22=4|48=US3390411052|207=XETR|15=EUR|55=[N/A]|453=1|448=strmrepl|447=D|452=17|40=2|59=0|10=244|
2024-07-24 17:13:16.304 [71] [FixSender] (DEBUG) Receiving 8=FIX.4.4|9=62|35=0|34=127|49=DMA_HUB|56=FIXCLIENT1|52=20240724-15:13:16.304|10=033|
2024-07-24 17:13:16.438 [75] [FixSender] (DEBUG) Sending 8=FIX.4.4|9=193|35=D|49=FIXCLIENT1|56=DMA_HUB|34=99|52=20240724-15:13:16|21=1|11=HS_172183399627|38=479|55=E:07G@XETR|54=1|60=20240724-15:13:16|40=2|59=0|44=278|48=US3390411052|22=4|15=EUR|207=XETR|1=bram_123|10=182|
2024-07-24 17:13:16.441 [71] [FixSender] (DEBUG) Receiving 8=FIX.4.4|9=236|35=8|34=128|49=DMA_HUB|56=FIXCLIENT1|52=20240724-15:13:16.440|11=HS_172183399627|37=FXoefYxLU|54=1|40=2|59=0|17=2024072450|150=A|39=A|38=479|151=479|14=0|6=0|44=278|60=20240724-15:13:16.000|22=4|48=US3390411052|207=XETR|15=EUR|55=[N/A]|10=197|
2024-07-24 17:13:16.442 [71] [FixSender] (DEBUG) Receiving 8=FIX.4.4|9=251|35=8|34=129|49=DMA_HUB|56=FIXCLIENT1|52=20240724-15:13:16.442|11=HS_172183399627|37=FXoefYxLU|198=pZ0zr21fcf|54=1|40=2|59=0|17=2024072451|150=0|39=0|38=479|151=479|14=0|6=0|44=278|60=20240724-15:13:16.441|22=4|48=US3390411052|207=XETR|15=EUR|55=[N/A]|10=005|
2024-07-24 17:13:16.444 [71] [FixSender] (DEBUG) Receiving 8=FIX.4.4|9=311|35=8|34=130|49=DMA_HUB|56=FIXCLIENT1|52=20240724-15:13:16.443|11=HS_172183399627|37=FXoefYxLU|198=pZ0zr21fcf|54=1|32=479|31=124|17=2024072452|527=BpZ0zr2|150=F|39=2|38=479|151=0|14=479|6=124|44=278|60=20240724-15:13:16.441|22=4|48=US3390411052|207=XETR|15=EUR|55=[N/A]|453=1|448=strmrepl|447=D|452=17|40=2|59=0|10=245|
2024-07-24 17:13:17.106 [76] [FixSender] (DEBUG) Sending 8=FIX.4.4|9=195|35=D|49=FIXCLIENT1|56=DMA_HUB|34=100|52=20240724-15:13:17|21=1|11=HS_172183399728|38=3136|55=E:07G@XETR|54=1|60=20240724-15:13:17|40=2|59=0|44=278|48=US3390411052|22=4|15=EUR|207=XETR|1=bram_123|10=004|
2024-07-24 17:13:17.108 [71] [FixSender] (DEBUG) Receiving 8=FIX.4.4|9=238|35=8|34=131|49=DMA_HUB|56=FIXCLIENT1|52=20240724-15:13:17.107|11=HS_172183399728|37=FXpefYxLU|54=1|40=2|59=0|17=2024072453|150=A|39=A|38=3136|151=3136|14=0|6=0|44=278|60=20240724-15:13:17.000|22=4|48=US3390411052|207=XETR|15=EUR|55=[N/A]|10=027|
2024-07-24 17:13:17.110 [71] [FixSender] (DEBUG) Receiving 8=FIX.4.4|9=253|35=8|34=132|49=DMA_HUB|56=FIXCLIENT1|52=20240724-15:13:17.110|11=HS_172183399728|37=FXpefYxLU|198=pZ0zr220e9|54=1|40=2|59=0|17=2024072454|150=0|39=0|38=3136|151=3136|14=0|6=0|44=278|60=20240724-15:13:17.108|22=4|48=US3390411052|207=XETR|15=EUR|55=[N/A]|10=243|
2024-07-24 17:13:17.111 [71] [FixSender] (DEBUG) Receiving 8=FIX.4.4|9=314|35=8|34=133|49=DMA_HUB|56=FIXCLIENT1|52=20240724-15:13:17.111|11=HS_172183399728|37=FXpefYxLU|198=pZ0zr220e9|54=1|32=3136|31=124|17=2024072455|527=BpZ0zr3|150=F|39=2|38=3136|151=0|14=3136|6=124|44=278|60=20240724-15:13:17.108|22=4|48=US3390411052|207=XETR|15=EUR|55=[N/A]|453=1|448=strmrepl|447=D|452=17|40=2|59=0|10=023|
2024-07-24 17:13:17.255 [77] [FixSender] (DEBUG) Sending 8=FIX.4.4|9=195|35=D|49=FIXCLIENT1|56=DMA_HUB|34=101|52=20240724-15:13:17|21=1|11=HS_172183399729|38=3593|55=E:07G@XETR|54=1|60=20240724-15:13:17|40=2|59=0|44=278|48=US3390411052|22=4|15=EUR|207=XETR|1=bram_123|10=013|
2024-07-24 17:13:17.257 [71] [FixSender] (DEBUG) Receiving 8=FIX.4.4|9=238|35=8|34=134|49=DMA_HUB|56=FIXCLIENT1|52=20240724-15:13:17.256|11=HS_172183399729|37=FXqefYxLU|54=1|40=2|59=0|17=2024072456|150=A|39=A|38=3593|151=3593|14=0|6=0|44=278|60=20240724-15:13:17.000|22=4|48=US3390411052|207=XETR|15=EUR|55=[N/A]|10=054|
2024-07-24 17:13:17.260 [71] [FixSender] (DEBUG) Receiving 8=FIX.4.4|9=253|35=8|34=135|49=DMA_HUB|56=FIXCLIENT1|52=20240724-15:13:17.259|11=HS_172183399729|37=FXqefYxLU|198=pZ0zr2212d|54=1|40=2|59=0|17=2024072457|150=0|39=0|38=3593|151=3593|14=0|6=0|44=278|60=20240724-15:13:17.257|22=4|48=US3390411052|207=XETR|15=EUR|55=[N/A]|10=021|
2024-07-24 17:13:17.261 [71] [FixSender] (DEBUG) Receiving 8=FIX.4.4|9=314|35=8|34=136|49=DMA_HUB|56=FIXCLIENT1|52=20240724-15:13:17.260|11=HS_172183399729|37=FXqefYxLU|198=pZ0zr2212d|54=1|32=3593|31=124|17=2024072458|527=BpZ0zr4|150=F|39=2|38=3593|151=0|14=3593|6=124|44=278|60=20240724-15:13:17.257|22=4|48=US3390411052|207=XETR|15=EUR|55=[N/A]|453=1|448=strmrepl|447=D|452=17|40=2|59=0|10=056|
2024-07-24 17:13:27.572 [78] [FixSender] (DEBUG) Sending 8=FIX.4.4|9=194|35=D|49=FIXCLIENT1|56=DMA_HUB|34=102|52=20240724-15:13:27|21=1|11=HS_172183400730|38=373|55=E:07G@XETR|54=1|60=20240724-15:13:27|40=2|59=0|44=150|48=US3390411052|22=4|15=EUR|207=XETR|1=bram_123|10=180|
2024-07-24 17:13:27.574 [71] [FixSender] (DEBUG) Receiving 8=FIX.4.4|9=236|35=8|34=137|49=DMA_HUB|56=FIXCLIENT1|52=20240724-15:13:27.573|11=HS_172183400730|37=FXrefYxLU|54=1|40=2|59=0|17=2024072459|150=A|39=A|38=373|151=373|14=0|6=0|44=150|60=20240724-15:13:27.000|22=4|48=US3390411052|207=XETR|15=EUR|55=[N/A]|10=173|
2024-07-24 17:13:28.315 [79] [FixSender] (DEBUG) Sending 8=FIX.4.4|9=195|35=D|49=FIXCLIENT1|56=DMA_HUB|34=103|52=20240724-15:13:28|21=1|11=HS_172183400831|38=2237|55=E:07G@XETR|54=1|60=20240724-15:13:28|40=2|59=0|44=150|48=US3390411052|22=4|15=EUR|207=XETR|1=bram_123|10=235|
2024-07-24 17:13:28.316 [71] [FixSender] (DEBUG) Receiving 8=FIX.4.4|9=238|35=8|34=138|49=DMA_HUB|56=FIXCLIENT1|52=20240724-15:13:28.316|11=HS_172183400831|37=FXsefYxLU|54=1|40=2|59=0|17=2024072460|150=A|39=A|38=2237|151=2237|14=0|6=0|44=150|60=20240724-15:13:28.000|22=4|48=US3390411052|207=XETR|15=EUR|55=[N/A]|10=010|
2024-07-24 17:13:31.221 [80] [FixSender] (DEBUG) Sending 8=FIX.4.4|9=194|35=D|49=FIXCLIENT1|56=DMA_HUB|34=104|52=20240724-15:13:31|21=1|11=HS_172183401132|38=592|55=E:07G@XETR|54=1|60=20240724-15:13:31|40=2|59=0|44=150|48=US3390411052|22=4|15=EUR|207=XETR|1=bram_123|10=172|
2024-07-24 17:13:31.224 [71] [FixSender] (DEBUG) Receiving 8=FIX.4.4|9=236|35=8|34=139|49=DMA_HUB|56=FIXCLIENT1|52=20240724-15:13:31.222|11=HS_172183401132|37=FXtefYxLU|54=1|40=2|59=0|17=2024072461|150=A|39=A|38=592|151=592|14=0|6=0|44=150|60=20240724-15:13:31.000|22=4|48=US3390411052|207=XETR|15=EUR|55=[N/A]|10=154|
2024-07-24 17:13:46.257 [71] [FixSender] (DEBUG) Receiving 8=FIX.4.4|9=62|35=0|34=140|49=DMA_HUB|56=FIXCLIENT1|52=20240724-15:13:46.257|10=038|
2024-07-24 17:14:01.222 [72] [FixSender] (DEBUG) Sending 8=FIX.4.4|9=58|35=0|49=FIXCLIENT1|56=DMA_HUB|34=105|52=20240724-15:14:01|10=088|
2024-07-24 17:14:07.147 [81] [FixSender] (DEBUG) Sending 8=FIX.4.4|9=195|35=D|49=FIXCLIENT1|56=DMA_HUB|34=106|52=20240724-15:14:07|21=1|11=HS_172183404733|38=3394|55=E:07G@XETR|54=1|60=20240724-15:14:07|40=2|59=0|44=200|48=US3390411052|22=4|15=EUR|207=XETR|1=bram_123|10=240|
2024-07-24 17:14:07.151 [71] [FixSender] (DEBUG) Receiving 8=FIX.4.4|9=238|35=8|34=141|49=DMA_HUB|56=FIXCLIENT1|52=20240724-15:14:07.148|11=HS_172183404733|37=FXuefYxLU|54=1|40=2|59=0|17=2024072462|150=A|39=A|38=3394|151=3394|14=0|6=0|44=200|60=20240724-15:14:07.000|22=4|48=US3390411052|207=XETR|15=EUR|55=[N/A]|10=018|
2024-07-24 17:14:07.151 [71] [FixSender] (DEBUG) Receiving 8=FIX.4.4|9=253|35=8|34=142|49=DMA_HUB|56=FIXCLIENT1|52=20240724-15:14:07.150|11=HS_172183404733|37=FXuefYxLU|198=pZ0zr27855|54=1|40=2|59=0|17=2024072463|150=0|39=0|38=3394|151=3394|14=0|6=0|44=200|60=20240724-15:14:07.149|22=4|48=US3390411052|207=XETR|15=EUR|55=[N/A]|10=199|
2024-07-24 17:14:07.152 [71] [FixSender] (DEBUG) Receiving 8=FIX.4.4|9=314|35=8|34=143|49=DMA_HUB|56=FIXCLIENT1|52=20240724-15:14:07.152|11=HS_172183404733|37=FXuefYxLU|198=pZ0zr27855|54=1|32=3394|31=125|17=2024072464|527=BpZ0zr5|150=F|39=2|38=3394|151=0|14=3394|6=125|44=200|60=20240724-15:14:07.149|22=4|48=US3390411052|207=XETR|15=EUR|55=[N/A]|453=1|448=strmrepl|447=D|452=17|40=2|59=0|10=246|
2024-07-24 17:14:07.713 [82] [FixSender] (DEBUG) Sending 8=FIX.4.4|9=195|35=D|49=FIXCLIENT1|56=DMA_HUB|34=107|52=20240724-15:14:07|21=1|11=HS_172183404734|38=4037|55=E:07G@XETR|54=1|60=20240724-15:14:07|40=2|59=0|44=200|48=US3390411052|22=4|15=EUR|207=XETR|1=bram_123|10=237|
2024-07-24 17:14:07.714 [71] [FixSender] (DEBUG) Receiving 8=FIX.4.4|9=238|35=8|34=144|49=DMA_HUB|56=FIXCLIENT1|52=20240724-15:14:07.714|11=HS_172183404734|37=FXvefYxLU|54=1|40=2|59=0|17=2024072465|150=A|39=A|38=4037|151=4037|14=0|6=0|44=200|60=20240724-15:14:07.000|22=4|48=US3390411052|207=XETR|15=EUR|55=[N/A]|10=015|
2024-07-24 17:14:07.717 [71] [FixSender] (DEBUG) Receiving 8=FIX.4.4|9=253|35=8|34=145|49=DMA_HUB|56=FIXCLIENT1|52=20240724-15:14:07.716|11=HS_172183404734|37=FXvefYxLU|198=pZ0zr27954|54=1|40=2|59=0|17=2024072466|150=0|39=0|38=4037|151=4037|14=0|6=0|44=200|60=20240724-15:14:07.715|22=4|48=US3390411052|207=XETR|15=EUR|55=[N/A]|10=204|
2024-07-24 17:14:07.718 [71] [FixSender] (DEBUG) Receiving 8=FIX.4.4|9=314|35=8|34=146|49=DMA_HUB|56=FIXCLIENT1|52=20240724-15:14:07.718|11=HS_172183404734|37=FXvefYxLU|198=pZ0zr27954|54=1|32=4037|31=125|17=2024072467|527=BpZ0zr6|150=F|39=2|38=4037|151=0|14=4037|6=125|44=200|60=20240724-15:14:07.715|22=4|48=US3390411052|207=XETR|15=EUR|55=[N/A]|453=1|448=strmrepl|447=D|452=17|40=2|59=0|10=247|
2024-07-24 17:14:16.208 [71] [FixSender] (DEBUG) Receiving 8=FIX.4.4|9=62|35=0|34=147|49=DMA_HUB|56=FIXCLIENT1|52=20240724-15:14:16.208|10=039|
2024-07-24 17:14:17.594 [83] [FixSender] (DEBUG) Sending 8=FIX.4.4|9=195|35=D|49=FIXCLIENT1|56=DMA_HUB|34=108|52=20240724-15:14:17|21=1|11=HS_172183405735|38=3706|55=E:07G@XETR|54=1|60=20240724-15:14:17|40=2|59=0|44=101|48=US3390411052|22=4|15=EUR|207=XETR|1=bram_123|10=244|
2024-07-24 17:14:17.596 [71] [FixSender] (DEBUG) Receiving 8=FIX.4.4|9=238|35=8|34=148|49=DMA_HUB|56=FIXCLIENT1|52=20240724-15:14:17.595|11=HS_172183405735|37=FXwefYxLU|54=1|40=2|59=0|17=2024072468|150=A|39=A|38=3706|151=3706|14=0|6=0|44=101|60=20240724-15:14:17.000|22=4|48=US3390411052|207=XETR|15=EUR|55=[N/A]|10=038|
2024-07-24 17:14:18.382 [84] [FixSender] (DEBUG) Sending 8=FIX.4.4|9=195|35=D|49=FIXCLIENT1|56=DMA_HUB|34=109|52=20240724-15:14:18|21=1|11=HS_172183405836|38=1770|55=E:07G@XETR|54=1|60=20240724-15:14:18|40=2|59=0|44=101|48=US3390411052|22=4|15=EUR|207=XETR|1=bram_123|10=248|
2024-07-24 17:14:18.384 [71] [FixSender] (DEBUG) Receiving 8=FIX.4.4|9=238|35=8|34=149|49=DMA_HUB|56=FIXCLIENT1|52=20240724-15:14:18.383|11=HS_172183405836|37=FXxefYxLU|54=1|40=2|59=0|17=2024072469|150=A|39=A|38=1770|151=1770|14=0|6=0|44=101|60=20240724-15:14:18.000|22=4|48=US3390411052|207=XETR|15=EUR|55=[N/A]|10=038|
2024-07-24 17:16:53.484 [1] [Fixsender] (INFO) (c) 2001-2011 ullink SAS. FixSender. Release 1.11.
2024-07-24 17:16:58.652 [35] [FixSender] (INFO) try to connect to : localhost port :12345
2024-07-24 17:16:58.658 [35] [FixSender] (INFO) physical cnx initiated
2024-07-24 17:16:58.668 [35] [FixSender] (DEBUG) Sending 8=FIX.4.4|9=88|35=A|49=FIXCLIENT1|56=DMA_HUB|34=110|52=20240724-15:16:58|98=0|108=30|95=9|96=null/null|10=198|
2024-07-24 17:16:58.669 [35] [FixSender] (DEBUG) Receiving 8=FIX.4.4|9=74|35=A|34=150|49=DMA_HUB|56=FIXCLIENT1|52=20240724-15:16:58.668|108=30|98=0|10=096|
2024-07-24 17:16:58.670 [35] [FixSender] (WARNING) The Fix connection is open...
2024-07-24 17:16:58.671 [35] [FixSender] (DEBUG) Sending 8=FIX.4.4|9=76|35=1|49=FIXCLIENT1|56=DMA_HUB|34=111|52=20240724-15:16:58|112=synchronized?|10=149|
2024-07-24 17:16:58.672 [35] [FixSender] (DEBUG) Receiving 8=FIX.4.4|9=80|35=0|34=151|49=DMA_HUB|56=FIXCLIENT1|52=20240724-15:16:58.671|112=synchronized?|10=095|
2024-07-24 17:17:05.035 [39] [FixSender] (DEBUG) Sending 8=FIX.4.4|9=193|35=D|49=FIXCLIENT1|56=DMA_HUB|34=112|52=20240724-15:17:05|21=1|11=HS_17218342250|38=424|55=E:07G@XETR|54=1|60=20240724-15:17:05|40=2|59=0|44=101|48=US3390411052|22=4|15=EUR|207=XETR|1=bram_123|10=124|
2024-07-24 17:17:05.037 [35] [FixSender] (DEBUG) Receiving 8=FIX.4.4|9=235|35=8|34=152|49=DMA_HUB|56=FIXCLIENT1|52=20240724-15:17:05.036|11=HS_17218342250|37=FXyefYxLU|54=1|40=2|59=0|17=2024072470|150=A|39=A|38=424|151=424|14=0|6=0|44=101|60=20240724-15:17:05.000|22=4|48=US3390411052|207=XETR|15=EUR|55=[N/A]|10=104|
2024-07-24 17:17:05.150 [40] [FixSender] (DEBUG) Sending 8=FIX.4.4|9=194|35=D|49=FIXCLIENT1|56=DMA_HUB|34=113|52=20240724-15:17:05|21=1|11=HS_17218342251|38=1097|55=E:07G@XETR|54=1|60=20240724-15:17:05|40=2|59=0|44=101|48=US3390411052|22=4|15=EUR|207=XETR|1=bram_123|10=182|
2024-07-24 17:17:05.151 [35] [FixSender] (DEBUG) Receiving 8=FIX.4.4|9=237|35=8|34=153|49=DMA_HUB|56=FIXCLIENT1|52=20240724-15:17:05.151|11=HS_17218342251|37=FXzefYxLU|54=1|40=2|59=0|17=2024072471|150=A|39=A|38=1097|151=1097|14=0|6=0|44=101|60=20240724-15:17:05.000|22=4|48=US3390411052|207=XETR|15=EUR|55=[N/A]|10=218|
2024-07-24 17:17:05.292 [41] [FixSender] (DEBUG) Sending 8=FIX.4.4|9=194|35=D|49=FIXCLIENT1|56=DMA_HUB|34=114|52=20240724-15:17:05|21=1|11=HS_17218342252|38=1172|55=E:07G@XETR|54=1|60=20240724-15:17:05|40=2|59=0|44=101|48=US3390411052|22=4|15=EUR|207=XETR|1=bram_123|10=178|
2024-07-24 17:17:05.294 [35] [FixSender] (DEBUG) Receiving 8=FIX.4.4|9=237|35=8|34=154|49=DMA_HUB|56=FIXCLIENT1|52=20240724-15:17:05.293|11=HS_17218342252|37=FX0ffYxLU|54=1|40=2|59=0|17=2024072472|150=A|39=A|38=1172|151=1172|14=0|6=0|44=101|60=20240724-15:17:05.000|22=4|48=US3390411052|207=XETR|15=EUR|55=[N/A]|10=143|
2024-07-24 17:17:05.374 [42] [FixSender] (DEBUG) Sending 8=FIX.4.4|9=194|35=D|49=FIXCLIENT1|56=DMA_HUB|34=115|52=20240724-15:17:05|21=1|11=HS_17218342253|38=4760|55=E:07G@XETR|54=1|60=20240724-15:17:05|40=2|59=0|44=101|48=US3390411052|22=4|15=EUR|207=XETR|1=bram_123|10=186|
2024-07-24 17:17:05.375 [35] [FixSender] (DEBUG) Receiving 8=FIX.4.4|9=237|35=8|34=155|49=DMA_HUB|56=FIXCLIENT1|52=20240724-15:17:05.375|11=HS_17218342253|37=FX1ffYxLU|54=1|40=2|59=0|17=2024072473|150=A|39=A|38=4760|151=4760|14=0|6=0|44=101|60=20240724-15:17:05.000|22=4|48=US3390411052|207=XETR|15=EUR|55=[N/A]|10=160|
2024-07-24 17:17:17.708 [43] [FixSender] (DEBUG) Sending 8=FIX.4.4|9=193|35=D|49=FIXCLIENT1|56=DMA_HUB|34=116|52=20240724-15:17:17|21=1|11=HS_17218342374|38=3704|55=E:07G@XETR|54=1|60=20240724-15:17:17|40=2|59=0|44=98|48=US3390411052|22=4|15=EUR|207=XETR|1=bram_123|10=160|
2024-07-24 17:17:17.709 [35] [FixSender] (DEBUG) Receiving 8=FIX.4.4|9=236|35=8|34=156|49=DMA_HUB|56=FIXCLIENT1|52=20240724-15:17:17.709|11=HS_17218342374|37=FX2ffYxLU|54=1|40=2|59=0|17=2024072474|150=A|39=A|38=3704|151=3704|14=0|6=0|44=98|60=20240724-15:17:17.000|22=4|48=US3390411052|207=XETR|15=EUR|55=[N/A]|10=134|
2024-07-24 17:17:17.712 [35] [FixSender] (DEBUG) Receiving 8=FIX.4.4|9=251|35=8|34=157|49=DMA_HUB|56=FIXCLIENT1|52=20240724-15:17:17.711|11=HS_17218342374|37=FX2ffYxLU|198=pZ0zr3c59c|54=1|40=2|59=0|17=2024072475|150=0|39=0|38=3704|151=3704|14=0|6=0|44=98|60=20240724-15:17:17.710|22=4|48=US3390411052|207=XETR|15=EUR|55=[N/A]|10=145|
2024-07-24 17:17:17.847 [44] [FixSender] (DEBUG) Sending 8=FIX.4.4|9=193|35=D|49=FIXCLIENT1|56=DMA_HUB|34=117|52=20240724-15:17:17|21=1|11=HS_17218342375|38=2565|55=E:07G@XETR|54=1|60=20240724-15:17:17|40=2|59=0|44=98|48=US3390411052|22=4|15=EUR|207=XETR|1=bram_123|10=166|
2024-07-24 17:17:17.849 [35] [FixSender] (DEBUG) Receiving 8=FIX.4.4|9=236|35=8|34=158|49=DMA_HUB|56=FIXCLIENT1|52=20240724-15:17:17.848|11=HS_17218342375|37=FX3ffYxLU|54=1|40=2|59=0|17=2024072476|150=A|39=A|38=2565|151=2565|14=0|6=0|44=98|60=20240724-15:17:17.000|22=4|48=US3390411052|207=XETR|15=EUR|55=[N/A]|10=152|
2024-07-24 17:17:17.851 [35] [FixSender] (DEBUG) Receiving 8=FIX.4.4|9=251|35=8|34=159|49=DMA_HUB|56=FIXCLIENT1|52=20240724-15:17:17.850|11=HS_17218342375|37=FX3ffYxLU|198=pZ0zr3c5d9|54=1|40=2|59=0|17=2024072477|150=0|39=0|38=2565|151=2565|14=0|6=0|44=98|60=20240724-15:17:17.849|22=4|48=US3390411052|207=XETR|15=EUR|55=[N/A]|10=177|
2024-07-24 17:17:18.109 [45] [FixSender] (DEBUG) Sending 8=FIX.4.4|9=193|35=D|49=FIXCLIENT1|56=DMA_HUB|34=118|52=20240724-15:17:18|21=1|11=HS_17218342386|38=2116|55=E:07G@XETR|54=1|60=20240724-15:17:18|40=2|59=0|44=98|48=US3390411052|22=4|15=EUR|207=XETR|1=bram_123|10=163|
2024-07-24 17:17:18.110 [35] [FixSender] (DEBUG) Receiving 8=FIX.4.4|9=236|35=8|34=160|49=DMA_HUB|56=FIXCLIENT1|52=20240724-15:17:18.110|11=HS_17218342386|37=FX4ffYxLU|54=1|40=2|59=0|17=2024072478|150=A|39=A|38=2116|151=2116|14=0|6=0|44=98|60=20240724-15:17:18.000|22=4|48=US3390411052|207=XETR|15=EUR|55=[N/A]|10=118|
2024-07-24 17:17:18.112 [35] [FixSender] (DEBUG) Receiving 8=FIX.4.4|9=251|35=8|34=161|49=DMA_HUB|56=FIXCLIENT1|52=20240724-15:17:18.112|11=HS_17218342386|37=FX4ffYxLU|198=pZ0zr3c655|54=1|40=2|59=0|17=2024072479|150=0|39=0|38=2116|151=2116|14=0|6=0|44=98|60=20240724-15:17:18.110|22=4|48=US3390411052|207=XETR|15=EUR|55=[N/A]|10=083|
2024-07-24 17:17:18.609 [46] [FixSender] (DEBUG) Sending 8=FIX.4.4|9=193|35=D|49=FIXCLIENT1|56=DMA_HUB|34=119|52=20240724-15:17:18|21=1|11=HS_17218342387|38=4787|55=E:07G@XETR|54=1|60=20240724-15:17:18|40=2|59=0|44=98|48=US3390411052|22=4|15=EUR|207=XETR|1=bram_123|10=181|
2024-07-24 17:17:18.612 [35] [FixSender] (DEBUG) Receiving 8=FIX.4.4|9=236|35=8|34=162|49=DMA_HUB|56=FIXCLIENT1|52=20240724-15:17:18.610|11=HS_17218342387|37=FX5ffYxLU|54=1|40=2|59=0|17=2024072480|150=A|39=A|38=4787|151=4787|14=0|6=0|44=98|60=20240724-15:17:18.000|22=4|48=US3390411052|207=XETR|15=EUR|55=[N/A]|10=152|
2024-07-24 17:17:18.612 [35] [FixSender] (DEBUG) Receiving 8=FIX.4.4|9=251|35=8|34=163|49=DMA_HUB|56=FIXCLIENT1|52=20240724-15:17:18.612|11=HS_17218342387|37=FX5ffYxLU|198=pZ0zr3c73a|54=1|40=2|59=0|17=2024072481|150=0|39=0|38=4787|151=4787|14=0|6=0|44=98|60=20240724-15:17:18.611|22=4|48=US3390411052|207=XETR|15=EUR|55=[N/A]|10=166|
2024-07-24 17:17:28.656 [35] [FixSender] (DEBUG) Receiving 8=FIX.4.4|9=62|35=0|34=164|49=DMA_HUB|56=FIXCLIENT1|52=20240724-15:17:28.656|10=051|
2024-07-24 17:17:48.609 [36] [FixSender] (DEBUG) Sending 8=FIX.4.4|9=58|35=0|49=FIXCLIENT1|56=DMA_HUB|34=120|52=20240724-15:17:48|10=099|
2024-07-24 17:17:58.609 [35] [FixSender] (DEBUG) Receiving 8=FIX.4.4|9=62|35=0|34=165|49=DMA_HUB|56=FIXCLIENT1|52=20240724-15:17:58.608|10=052|
2024-07-24 17:18:05.022 [47] [FixSender] (DEBUG) Sending 8=FIX.4.4|9=193|35=D|49=FIXCLIENT1|56=DMA_HUB|34=121|52=20240724-15:18:05|21=1|11=HS_17218342858|38=2075|55=E:07G@XETR|54=1|60=20240724-15:18:05|40=2|59=0|44=10|48=US3390411052|22=4|15=EUR|207=XETR|1=bram_123|10=143|
2024-07-24 17:18:05.023 [35] [FixSender] (DEBUG) Receiving 8=FIX.4.4|9=236|35=8|34=166|49=DMA_HUB|56=FIXCLIENT1|52=20240724-15:18:05.023|11=HS_17218342858|37=FX6ffYxLU|54=1|40=2|59=0|17=2024072482|150=A|39=A|38=2075|151=2075|14=0|6=0|44=10|60=20240724-15:18:05.000|22=4|48=US3390411052|207=XETR|15=EUR|55=[N/A]|10=114|
2024-07-24 17:18:05.026 [35] [FixSender] (DEBUG) Receiving 8=FIX.4.4|9=251|35=8|34=167|49=DMA_HUB|56=FIXCLIENT1|52=20240724-15:18:05.025|11=HS_17218342858|37=FX6ffYxLU|198=pZ0zr41820|54=1|40=2|59=0|17=2024072483|150=0|39=0|38=2075|151=2075|14=0|6=0|44=10|60=20240724-15:18:05.024|22=4|48=US3390411052|207=XETR|15=EUR|55=[N/A]|10=028|
2024-07-24 17:18:05.658 [48] [FixSender] (DEBUG) Sending 8=FIX.4.4|9=193|35=D|49=FIXCLIENT1|56=DMA_HUB|34=122|52=20240724-15:18:05|21=1|11=HS_17218342859|38=3626|55=E:07G@XETR|54=1|60=20240724-15:18:05|40=2|59=0|44=10|48=US3390411052|22=4|15=EUR|207=XETR|1=bram_123|10=148|
2024-07-24 17:18:05.660 [35] [FixSender] (DEBUG) Receiving 8=FIX.4.4|9=236|35=8|34=168|49=DMA_HUB|56=FIXCLIENT1|52=20240724-15:18:05.659|11=HS_17218342859|37=FX7ffYxLU|54=1|40=2|59=0|17=2024072484|150=A|39=A|38=3626|151=3626|14=0|6=0|44=10|60=20240724-15:18:05.000|22=4|48=US3390411052|207=XETR|15=EUR|55=[N/A]|10=141|
2024-07-24 17:18:05.662 [35] [FixSender] (DEBUG) Receiving 8=FIX.4.4|9=251|35=8|34=169|49=DMA_HUB|56=FIXCLIENT1|52=20240724-15:18:05.662|11=HS_17218342859|37=FX7ffYxLU|198=pZ0zr41948|54=1|40=2|59=0|17=2024072485|150=0|39=0|38=3626|151=3626|14=0|6=0|44=10|60=20240724-15:18:05.661|22=4|48=US3390411052|207=XETR|15=EUR|55=[N/A]|10=065|
2024-07-24 17:18:28.561 [35] [FixSender] (DEBUG) Receiving 8=FIX.4.4|9=62|35=0|34=170|49=DMA_HUB|56=FIXCLIENT1|52=20240724-15:18:28.561|10=044|
2024-07-24 17:18:32.289 [49] [FixSender] (DEBUG) Sending 8=FIX.4.4|9=195|35=D|49=FIXCLIENT1|56=DMA_HUB|34=123|52=20240724-15:18:32|21=1|11=HS_172183431210|38=4523|55=E:07G@XETR|54=1|60=20240724-15:18:32|40=2|59=0|44=100|48=US3390411052|22=4|15=EUR|207=XETR|1=bram_123|10=227|
2024-07-24 17:18:32.291 [35] [FixSender] (DEBUG) Receiving 8=FIX.4.4|9=238|35=8|34=171|49=DMA_HUB|56=FIXCLIENT1|52=20240724-15:18:32.290|11=HS_172183431210|37=FX8ffYxLU|54=1|40=2|59=0|17=2024072486|150=A|39=A|38=4523|151=4523|14=0|6=0|44=100|60=20240724-15:18:32.000|22=4|48=US3390411052|207=XETR|15=EUR|55=[N/A]|10=204|
2024-07-24 17:18:33.153 [50] [FixSender] (DEBUG) Sending 8=FIX.4.4|9=195|35=D|49=FIXCLIENT1|56=DMA_HUB|34=124|52=20240724-15:18:33|21=1|11=HS_172183431311|38=2863|55=E:07G@XETR|54=1|60=20240724-15:18:33|40=2|59=0|44=100|48=US3390411052|22=4|15=EUR|207=XETR|1=bram_123|10=237|
2024-07-24 17:18:33.155 [35] [FixSender] (DEBUG) Receiving 8=FIX.4.4|9=238|35=8|34=172|49=DMA_HUB|56=FIXCLIENT1|52=20240724-15:18:33.154|11=HS_172183431311|37=FX9ffYxLU|54=1|40=2|59=0|17=2024072487|150=A|39=A|38=2863|151=2863|14=0|6=0|44=100|60=20240724-15:18:33.000|22=4|48=US3390411052|207=XETR|15=EUR|55=[N/A]|10=220|
2024-07-24 17:18:33.276 [51] [FixSender] (DEBUG) Sending 8=FIX.4.4|9=194|35=D|49=FIXCLIENT1|56=DMA_HUB|34=125|52=20240724-15:18:33|21=1|11=HS_172183431312|38=959|55=E:07G@XETR|54=1|60=20240724-15:18:33|40=2|59=0|44=100|48=US3390411052|22=4|15=EUR|207=XETR|1=bram_123|10=194|
2024-07-24 17:18:33.277 [35] [FixSender] (DEBUG) Receiving 8=FIX.4.4|9=236|35=8|34=173|49=DMA_HUB|56=FIXCLIENT1|52=20240724-15:18:33.277|11=HS_172183431312|37=FXAffYxLU|54=1|40=2|59=0|17=2024072488|150=A|39=A|38=959|151=959|14=0|6=0|44=100|60=20240724-15:18:33.000|22=4|48=US3390411052|207=XETR|15=EUR|55=[N/A]|10=147|
2024-07-24 17:18:54.458 [52] [FixSender] (DEBUG) Sending 8=FIX.4.4|9=195|35=D|49=FIXCLIENT1|56=DMA_HUB|34=126|52=20240724-15:18:54|21=1|11=HS_172183433413|38=3524|55=E:07G@XETR|54=1|60=20240724-15:18:54|40=2|59=0|44=100|48=US3390411052|22=4|15=EUR|207=XETR|1=bram_123|10=245|
2024-07-24 17:18:54.460 [35] [FixSender] (DEBUG) Receiving 8=FIX.4.4|9=238|35=8|34=174|49=DMA_HUB|56=FIXCLIENT1|52=20240724-15:18:54.460|11=HS_172183433413|37=FXBffYxLU|54=1|40=2|59=0|17=2024072489|150=A|39=A|38=3524|151=3524|14=0|6=0|44=100|60=20240724-15:18:54.000|22=4|48=US3390411052|207=XETR|15=EUR|55=[N/A]|10=234|
2024-07-24 17:18:56.408 [53] [FixSender] (DEBUG) Sending 8=FIX.4.4|9=194|35=D|49=FIXCLIENT1|56=DMA_HUB|34=127|52=20240724-15:18:56|21=1|11=HS_172183433614|38=655|55=E:07G@XETR|54=1|60=20240724-15:18:56|40=2|59=0|44=100|48=US3390411052|22=4|15=EUR|207=XETR|1=bram_123|10=206|
2024-07-24 17:18:56.410 [35] [FixSender] (DEBUG) Receiving 8=FIX.4.4|9=236|35=8|34=175|49=DMA_HUB|56=FIXCLIENT1|52=20240724-15:18:56.410|11=HS_172183433614|37=FXCffYxLU|54=1|40=2|59=0|17=2024072490|150=A|39=A|38=655|151=655|14=0|6=0|44=100|60=20240724-15:18:56.000|22=4|48=US3390411052|207=XETR|15=EUR|55=[N/A]|10=136|
2024-07-24 17:18:58.513 [35] [FixSender] (DEBUG) Receiving 8=FIX.4.4|9=62|35=0|34=176|49=DMA_HUB|56=FIXCLIENT1|52=20240724-15:18:58.512|10=049|
2024-07-24 17:19:04.213 [54] [FixSender] (DEBUG) Sending 8=FIX.4.4|9=194|35=D|49=FIXCLIENT1|56=DMA_HUB|34=128|52=20240724-15:19:04|21=1|11=HS_17218343440|38=4013|55=E:07G@XETR|54=1|60=20240724-15:19:04|40=2|59=0|44=300|48=US3390411052|22=4|15=EUR|207=XETR|1=bram_123|10=183|
2024-07-24 17:19:04.215 [35] [FixSender] (DEBUG) Receiving 8=FIX.4.4|9=237|35=8|34=177|49=DMA_HUB|56=FIXCLIENT1|52=20240724-15:19:04.214|11=HS_17218343440|37=FXDffYxLU|54=1|40=2|59=0|17=2024072491|150=A|39=A|38=4013|151=4013|14=0|6=0|44=300|60=20240724-15:19:04.000|22=4|48=US3390411052|207=XETR|15=EUR|55=[N/A]|10=159|
2024-07-24 17:19:04.217 [35] [FixSender] (DEBUG) Receiving 8=FIX.4.4|9=252|35=8|34=178|49=DMA_HUB|56=FIXCLIENT1|52=20240724-15:19:04.217|11=HS_17218343440|37=FXDffYxLU|198=pZ0zr4800a|54=1|40=2|59=0|17=2024072492|150=0|39=0|38=4013|151=4013|14=0|6=0|44=300|60=20240724-15:19:04.216|22=4|48=US3390411052|207=XETR|15=EUR|55=[N/A]|10=123|
2024-07-24 17:19:04.219 [35] [FixSender] (DEBUG) Receiving 8=FIX.4.4|9=313|35=8|34=179|49=DMA_HUB|56=FIXCLIENT1|52=20240724-15:19:04.218|11=HS_17218343440|37=FXDffYxLU|198=pZ0zr4800a|54=1|32=4013|31=120|17=2024072493|527=BpZ0zr7|150=F|39=2|38=4013|151=0|14=4013|6=120|44=300|60=20240724-15:19:04.216|22=4|48=US3390411052|207=XETR|15=EUR|55=[N/A]|453=1|448=strmrepl|447=D|452=17|40=2|59=0|10=150|
2024-07-24 17:19:08.936 [55] [FixSender] (DEBUG) Sending 8=FIX.4.4|9=193|35=D|49=FIXCLIENT1|56=DMA_HUB|34=129|52=20240724-15:19:08|21=1|11=HS_17218343481|38=901|55=E:07G@XETR|54=1|60=20240724-15:19:08|40=2|59=0|44=300|48=US3390411052|22=4|15=EUR|207=XETR|1=bram_123|10=150|
2024-07-24 17:19:08.938 [35] [FixSender] (DEBUG) Receiving 8=FIX.4.4|9=235|35=8|34=180|49=DMA_HUB|56=FIXCLIENT1|52=20240724-15:19:08.937|11=HS_17218343481|37=FXEffYxLU|54=1|40=2|59=0|17=2024072494|150=A|39=A|38=901|151=901|14=0|6=0|44=300|60=20240724-15:19:08.000|22=4|48=US3390411052|207=XETR|15=EUR|55=[N/A]|10=088|
2024-07-24 17:19:08.941 [35] [FixSender] (DEBUG) Receiving 8=FIX.4.4|9=250|35=8|34=181|49=DMA_HUB|56=FIXCLIENT1|52=20240724-15:19:08.941|11=HS_17218343481|37=FXEffYxLU|198=pZ0zr48805|54=1|40=2|59=0|17=2024072495|150=0|39=0|38=901|151=901|14=0|6=0|44=300|60=20240724-15:19:08.939|22=4|48=US3390411052|207=XETR|15=EUR|55=[N/A]|10=020|
2024-07-24 17:19:08.943 [35] [FixSender] (DEBUG) Receiving 8=FIX.4.4|9=310|35=8|34=182|49=DMA_HUB|56=FIXCLIENT1|52=20240724-15:19:08.943|11=HS_17218343481|37=FXEffYxLU|198=pZ0zr48805|54=1|32=901|31=119|17=2024072496|527=BpZ0zr8|150=F|39=2|38=901|151=0|14=901|6=119|44=300|60=20240724-15:19:08.939|22=4|48=US3390411052|207=XETR|15=EUR|55=[N/A]|453=1|448=strmrepl|447=D|452=17|40=2|59=0|10=018|
2024-07-24 17:19:09.433 [56] [FixSender] (DEBUG) Sending 8=FIX.4.4|9=194|35=D|49=FIXCLIENT1|56=DMA_HUB|34=130|52=20240724-15:19:09|21=1|11=HS_17218343492|38=2474|55=E:07G@XETR|54=1|60=20240724-15:19:09|40=2|59=0|44=300|48=US3390411052|22=4|15=EUR|207=XETR|1=bram_123|10=202|
2024-07-24 17:19:09.435 [35] [FixSender] (DEBUG) Receiving 8=FIX.4.4|9=237|35=8|34=183|49=DMA_HUB|56=FIXCLIENT1|52=20240724-15:19:09.434|11=HS_17218343492|37=FXFffYxLU|54=1|40=2|59=0|17=2024072497|150=A|39=A|38=2474|151=2474|14=0|6=0|44=300|60=20240724-15:19:09.000|22=4|48=US3390411052|207=XETR|15=EUR|55=[N/A]|10=203|
2024-07-24 17:19:09.438 [35] [FixSender] (DEBUG) Receiving 8=FIX.4.4|9=252|35=8|34=184|49=DMA_HUB|56=FIXCLIENT1|52=20240724-15:19:09.438|11=HS_17218343492|37=FXFffYxLU|198=pZ0zr488de|54=1|40=2|59=0|17=2024072498|150=0|39=0|38=2474|151=2474|14=0|6=0|44=300|60=20240724-15:19:09.436|22=4|48=US3390411052|207=XETR|15=EUR|55=[N/A]|10=236|
2024-07-24 17:19:09.439 [35] [FixSender] (DEBUG) Receiving 8=FIX.4.4|9=313|35=8|34=185|49=DMA_HUB|56=FIXCLIENT1|52=20240724-15:19:09.439|11=HS_17218343492|37=FXFffYxLU|198=pZ0zr488de|54=1|32=2474|31=119|17=2024072499|527=BpZ0zr9|150=F|39=2|38=2474|151=0|14=2474|6=119|44=300|60=20240724-15:19:09.436|22=4|48=US3390411052|207=XETR|15=EUR|55=[N/A]|453=1|448=strmrepl|447=D|452=17|40=2|59=0|10=034|
2024-07-24 17:19:09.791 [57] [FixSender] (DEBUG) Sending 8=FIX.4.4|9=194|35=D|49=FIXCLIENT1|56=DMA_HUB|34=131|52=20240724-15:19:09|21=1|11=HS_17218343493|38=4474|55=E:07G@XETR|54=1|60=20240724-15:19:09|40=2|59=0|44=300|48=US3390411052|22=4|15=EUR|207=XETR|1=bram_123|10=206|
2024-07-24 17:19:09.793 [35] [FixSender] (DEBUG) Receiving 8=FIX.4.4|9=238|35=8|34=186|49=DMA_HUB|56=FIXCLIENT1|52=20240724-15:19:09.792|11=HS_17218343493|37=FXGffYxLU|54=1|40=2|59=0|17=20240724100|150=A|39=A|38=4474|151=4474|14=0|6=0|44=300|60=20240724-15:19:09.000|22=4|48=US3390411052|207=XETR|15=EUR|55=[N/A]|10=253|
2024-07-24 17:19:09.795 [35] [FixSender] (DEBUG) Receiving 8=FIX.4.4|9=253|35=8|34=187|49=DMA_HUB|56=FIXCLIENT1|52=20240724-15:19:09.795|11=HS_17218343493|37=FXGffYxLU|198=pZ0zr4897a|54=1|40=2|59=0|17=20240724101|150=0|39=0|38=4474|151=4474|14=0|6=0|44=300|60=20240724-15:19:09.794|22=4|48=US3390411052|207=XETR|15=EUR|55=[N/A]|10=244|
2024-07-24 17:19:09.797 [35] [FixSender] (DEBUG) Receiving 8=FIX.4.4|9=314|35=8|34=188|49=DMA_HUB|56=FIXCLIENT1|52=20240724-15:19:09.796|11=HS_17218343493|37=FXGffYxLU|198=pZ0zr4897a|54=1|32=4474|31=119|17=20240724102|527=BpZ0zra|150=F|39=2|38=4474|151=0|14=4474|6=119|44=300|60=20240724-15:19:09.794|22=4|48=US3390411052|207=XETR|15=EUR|55=[N/A]|453=1|448=strmrepl|447=D|452=17|40=2|59=0|10=084|
2024-07-24 17:19:11.273 [58] [FixSender] (DEBUG) Sending 8=FIX.4.4|9=194|35=D|49=FIXCLIENT1|56=DMA_HUB|34=132|52=20240724-15:19:11|21=1|11=HS_17218343514|38=3883|55=E:07G@XETR|54=1|60=20240724-15:19:11|40=2|59=0|44=300|48=US3390411052|22=4|15=EUR|207=XETR|1=bram_123|10=190|
2024-07-24 17:19:11.275 [35] [FixSender] (DEBUG) Receiving 8=FIX.4.4|9=238|35=8|34=189|49=DMA_HUB|56=FIXCLIENT1|52=20240724-15:19:11.275|11=HS_17218343514|37=FXHffYxLU|54=1|40=2|59=0|17=20240724103|150=A|39=A|38=3883|151=3883|14=0|6=0|44=300|60=20240724-15:19:11.000|22=4|48=US3390411052|207=XETR|15=EUR|55=[N/A]|10=242|
2024-07-24 17:19:11.278 [35] [FixSender] (DEBUG) Receiving 8=FIX.4.4|9=253|35=8|34=190|49=DMA_HUB|56=FIXCLIENT1|52=20240724-15:19:11.278|11=HS_17218343514|37=FXHffYxLU|198=pZ0zr48c11|54=1|40=2|59=0|17=20240724104|150=0|39=0|38=3883|151=3883|14=0|6=0|44=300|60=20240724-15:19:11.276|22=4|48=US3390411052|207=XETR|15=EUR|55=[N/A]|10=207|
2024-07-24 17:19:11.280 [35] [FixSender] (DEBUG) Receiving 8=FIX.4.4|9=314|35=8|34=191|49=DMA_HUB|56=FIXCLIENT1|52=20240724-15:19:11.279|11=HS_17218343514|37=FXHffYxLU|198=pZ0zr48c11|54=1|32=3883|31=119|17=20240724105|527=BpZ0zrb|150=F|39=2|38=3883|151=0|14=3883|6=119|44=300|60=20240724-15:19:11.276|22=4|48=US3390411052|207=XETR|15=EUR|55=[N/A]|453=1|448=strmrepl|447=D|452=17|40=2|59=0|10=051|
2024-07-24 17:19:11.865 [59] [FixSender] (DEBUG) Sending 8=FIX.4.4|9=194|35=D|49=FIXCLIENT1|56=DMA_HUB|34=133|52=20240724-15:19:11|21=1|11=HS_17218343515|38=3570|55=E:07G@XETR|54=1|60=20240724-15:19:11|40=2|59=0|44=300|48=US3390411052|22=4|15=EUR|207=XETR|1=bram_123|10=185|
2024-07-24 17:19:11.867 [35] [FixSender] (DEBUG) Receiving 8=FIX.4.4|9=238|35=8|34=192|49=DMA_HUB|56=FIXCLIENT1|52=20240724-15:19:11.867|11=HS_17218343515|37=FXIffYxLU|54=1|40=2|59=0|17=20240724106|150=A|39=A|38=3570|151=3570|14=0|6=0|44=300|60=20240724-15:19:11.000|22=4|48=US3390411052|207=XETR|15=EUR|55=[N/A]|10=234|
2024-07-24 17:19:11.870 [35] [FixSender] (DEBUG) Receiving 8=FIX.4.4|9=253|35=8|34=193|49=DMA_HUB|56=FIXCLIENT1|52=20240724-15:19:11.870|11=HS_17218343515|37=FXIffYxLU|198=pZ0zr48d26|54=1|40=2|59=0|17=20240724107|150=0|39=0|38=3570|151=3570|14=0|6=0|44=300|60=20240724-15:19:11.868|22=4|48=US3390411052|207=XETR|15=EUR|55=[N/A]|10=213|
2024-07-24 17:19:11.872 [35] [FixSender] (DEBUG) Receiving 8=FIX.4.4|9=314|35=8|34=194|49=DMA_HUB|56=FIXCLIENT1|52=20240724-15:19:11.872|11=HS_17218343515|37=FXIffYxLU|198=pZ0zr48d26|54=1|32=3570|31=119|17=20240724108|527=BpZ0zrc|150=F|39=2|38=3570|151=0|14=3570|6=119|44=300|60=20240724-15:19:11.868|22=4|48=US3390411052|207=XETR|15=EUR|55=[N/A]|453=1|448=strmrepl|447=D|452=17|40=2|59=0|10=052|
2024-07-24 17:19:13.735 [60] [FixSender] (DEBUG) Sending 8=FIX.4.4|9=194|35=D|49=FIXCLIENT1|56=DMA_HUB|34=134|52=20240724-15:19:13|21=1|11=HS_17218343536|38=1160|55=E:07G@XETR|54=1|60=20240724-15:19:13|40=2|59=0|44=300|48=US3390411052|22=4|15=EUR|207=XETR|1=bram_123|10=186|
2024-07-24 17:19:13.737 [35] [FixSender] (DEBUG) Receiving 8=FIX.4.4|9=238|35=8|34=195|49=DMA_HUB|56=FIXCLIENT1|52=20240724-15:19:13.736|11=HS_17218343536|37=FXJffYxLU|54=1|40=2|59=0|17=20240724109|150=A|39=A|38=1160|151=1160|14=0|6=0|44=300|60=20240724-15:19:13.000|22=4|48=US3390411052|207=XETR|15=EUR|55=[N/A]|10=229|
2024-07-24 17:19:13.739 [35] [FixSender] (DEBUG) Receiving 8=FIX.4.4|9=253|35=8|34=196|49=DMA_HUB|56=FIXCLIENT1|52=20240724-15:19:13.739|11=HS_17218343536|37=FXJffYxLU|198=pZ0zr49076|54=1|40=2|59=0|17=20240724110|150=0|39=0|38=1160|151=1160|14=0|6=0|44=300|60=20240724-15:19:13.737|22=4|48=US3390411052|207=XETR|15=EUR|55=[N/A]|10=157|
2024-07-24 17:19:13.741 [35] [FixSender] (DEBUG) Receiving 8=FIX.4.4|9=314|35=8|34=197|49=DMA_HUB|56=FIXCLIENT1|52=20240724-15:19:13.741|11=HS_17218343536|37=FXJffYxLU|198=pZ0zr49076|54=1|32=1160|31=119|17=20240724111|527=BpZ0zrd|150=F|39=2|38=1160|151=0|14=1160|6=119|44=300|60=20240724-15:19:13.737|22=4|48=US3390411052|207=XETR|15=EUR|55=[N/A]|453=1|448=strmrepl|447=D|452=17|40=2|59=0|10=237|
2024-07-24 17:19:13.872 [61] [FixSender] (DEBUG) Sending 8=FIX.4.4|9=194|35=D|49=FIXCLIENT1|56=DMA_HUB|34=135|52=20240724-15:19:13|21=1|11=HS_17218343537|38=2927|55=E:07G@XETR|54=1|60=20240724-15:19:13|40=2|59=0|44=300|48=US3390411052|22=4|15=EUR|207=XETR|1=bram_123|10=200|
2024-07-24 17:19:13.873 [35] [FixSender] (DEBUG) Receiving 8=FIX.4.4|9=238|35=8|34=198|49=DMA_HUB|56=FIXCLIENT1|52=20240724-15:19:13.873|11=HS_17218343537|37=FXKffYxLU|54=1|40=2|59=0|17=20240724112|150=A|39=A|38=2927|151=2927|14=0|6=0|44=300|60=20240724-15:19:13.000|22=4|48=US3390411052|207=XETR|15=EUR|55=[N/A]|10=254|
2024-07-24 17:19:13.876 [35] [FixSender] (DEBUG) Receiving 8=FIX.4.4|9=253|35=8|34=199|49=DMA_HUB|56=FIXCLIENT1|52=20240724-15:19:13.876|11=HS_17218343537|37=FXKffYxLU|198=pZ0zr490b7|54=1|40=2|59=0|17=20240724113|150=0|39=0|38=2927|151=2927|14=0|6=0|44=300|60=20240724-15:19:13.874|22=4|48=US3390411052|207=XETR|15=EUR|55=[N/A]|10=237|
2024-07-24 17:19:13.878 [35] [FixSender] (DEBUG) Receiving 8=FIX.4.4|9=314|35=8|34=200|49=DMA_HUB|56=FIXCLIENT1|52=20240724-15:19:13.878|11=HS_17218343537|37=FXKffYxLU|198=pZ0zr490b7|54=1|32=2927|31=119|17=20240724114|527=BpZ0zre|150=F|39=2|38=2927|151=0|14=2927|6=119|44=300|60=20240724-15:19:13.874|22=4|48=US3390411052|207=XETR|15=EUR|55=[N/A]|453=1|448=strmrepl|447=D|452=17|40=2|59=0|10=065|
2024-07-24 17:19:13.995 [62] [FixSender] (DEBUG) Sending 8=FIX.4.4|9=194|35=D|49=FIXCLIENT1|56=DMA_HUB|34=136|52=20240724-15:19:13|21=1|11=HS_17218343538|38=4549|55=E:07G@XETR|54=1|60=20240724-15:19:13|40=2|59=0|44=300|48=US3390411052|22=4|15=EUR|207=XETR|1=bram_123|10=204|
2024-07-24 17:19:13.996 [35] [FixSender] (DEBUG) Receiving 8=FIX.4.4|9=238|35=8|34=201|49=DMA_HUB|56=FIXCLIENT1|52=20240724-15:19:13.996|11=HS_17218343538|37=FXLffYxLU|54=1|40=2|59=0|17=20240724115|150=A|39=A|38=4549|151=4549|14=0|6=0|44=300|60=20240724-15:19:13.000|22=4|48=US3390411052|207=XETR|15=EUR|55=[N/A]|10=254|
2024-07-24 17:19:14.000 [35] [FixSender] (DEBUG) Receiving 8=FIX.4.4|9=253|35=8|34=202|49=DMA_HUB|56=FIXCLIENT1|52=20240724-15:19:14.000|11=HS_17218343538|37=FXLffYxLU|198=pZ0zr490f5|54=1|40=2|59=0|17=20240724116|150=0|39=0|38=4549|151=4549|14=0|6=0|44=300|60=20240724-15:19:13.997|22=4|48=US3390411052|207=XETR|15=EUR|55=[N/A]|10=219|
2024-07-24 17:19:14.001 [35] [FixSender] (DEBUG) Receiving 8=FIX.4.4|9=314|35=8|34=203|49=DMA_HUB|56=FIXCLIENT1|52=20240724-15:19:14.001|11=HS_17218343538|37=FXLffYxLU|198=pZ0zr490f5|54=1|32=4549|31=119|17=20240724117|527=BpZ0zrf|150=F|39=2|38=4549|151=0|14=4549|6=119|44=300|60=20240724-15:19:13.997|22=4|48=US3390411052|207=XETR|15=EUR|55=[N/A]|453=1|448=strmrepl|447=D|452=17|40=2|59=0|10=067|
2024-07-24 17:19:14.144 [63] [FixSender] (DEBUG) Sending 8=FIX.4.4|9=194|35=D|49=FIXCLIENT1|56=DMA_HUB|34=137|52=20240724-15:19:14|21=1|11=HS_17218343549|38=2700|55=E:07G@XETR|54=1|60=20240724-15:19:14|40=2|59=0|44=300|48=US3390411052|22=4|15=EUR|207=XETR|1=bram_123|10=196|
2024-07-24 17:19:14.146 [35] [FixSender] (DEBUG) Receiving 8=FIX.4.4|9=238|35=8|34=204|49=DMA_HUB|56=FIXCLIENT1|52=20240724-15:19:14.145|11=HS_17218343549|37=FXMffYxLU|54=1|40=2|59=0|17=20240724118|150=A|39=A|38=2700|151=2700|14=0|6=0|44=300|60=20240724-15:19:14.000|22=4|48=US3390411052|207=XETR|15=EUR|55=[N/A]|10=225|
2024-07-24 17:19:14.148 [35] [FixSender] (DEBUG) Receiving 8=FIX.4.4|9=253|35=8|34=205|49=DMA_HUB|56=FIXCLIENT1|52=20240724-15:19:14.148|11=HS_17218343549|37=FXMffYxLU|198=pZ0zr4912e|54=1|40=2|59=0|17=20240724119|150=0|39=0|38=2700|151=2700|14=0|6=0|44=300|60=20240724-15:19:14.146|22=4|48=US3390411052|207=XETR|15=EUR|55=[N/A]|10=199|
2024-07-24 17:19:14.150 [35] [FixSender] (DEBUG) Receiving 8=FIX.4.4|9=315|35=8|34=206|49=DMA_HUB|56=FIXCLIENT1|52=20240724-15:19:14.149|11=HS_17218343549|37=FXMffYxLU|198=pZ0zr4912e|54=1|32=2700|31=119|17=20240724120|527=BpZ0zr10|150=F|39=2|38=2700|151=0|14=2700|6=119|44=300|60=20240724-15:19:14.146|22=4|48=US3390411052|207=XETR|15=EUR|55=[N/A]|453=1|448=strmrepl|447=D|452=17|40=2|59=0|10=021|
2024-07-24 17:19:14.223 [64] [FixSender] (DEBUG) Sending 8=FIX.4.4|9=195|35=D|49=FIXCLIENT1|56=DMA_HUB|34=138|52=20240724-15:19:14|21=1|11=HS_172183435410|38=2667|55=E:07G@XETR|54=1|60=20240724-15:19:14|40=2|59=0|44=300|48=US3390411052|22=4|15=EUR|207=XETR|1=bram_123|10=250|
2024-07-24 17:19:14.225 [35] [FixSender] (DEBUG) Receiving 8=FIX.4.4|9=239|35=8|34=207|49=DMA_HUB|56=FIXCLIENT1|52=20240724-15:19:14.224|11=HS_172183435410|37=FXNffYxLU|54=1|40=2|59=0|17=20240724121|150=A|39=A|38=2667|151=2667|14=0|6=0|44=300|60=20240724-15:19:14.000|22=4|48=US3390411052|207=XETR|15=EUR|55=[N/A]|10=030|
2024-07-24 17:19:14.228 [35] [FixSender] (DEBUG) Receiving 8=FIX.4.4|9=254|35=8|34=208|49=DMA_HUB|56=FIXCLIENT1|52=20240724-15:19:14.227|11=HS_172183435410|37=FXNffYxLU|198=pZ0zr49154|54=1|40=2|59=0|17=20240724122|150=0|39=0|38=2667|151=2667|14=0|6=0|44=300|60=20240724-15:19:14.226|22=4|48=US3390411052|207=XETR|15=EUR|55=[N/A]|10=213|
2024-07-24 17:19:14.229 [35] [FixSender] (DEBUG) Receiving 8=FIX.4.4|9=316|35=8|34=209|49=DMA_HUB|56=FIXCLIENT1|52=20240724-15:19:14.228|11=HS_172183435410|37=FXNffYxLU|198=pZ0zr49154|54=1|32=2667|31=119|17=20240724123|527=BpZ0zr11|150=F|39=2|38=2667|151=0|14=2667|6=119|44=300|60=20240724-15:19:14.226|22=4|48=US3390411052|207=XETR|15=EUR|55=[N/A]|453=1|448=strmrepl|447=D|452=17|40=2|59=0|10=057|
2024-07-24 17:19:20.139 [65] [FixSender] (DEBUG) Sending 8=FIX.4.4|9=195|35=D|49=FIXCLIENT1|56=DMA_HUB|34=139|52=20240724-15:19:20|21=1|11=HS_172183436011|38=2289|55=E:07G@XETR|54=1|60=20240724-15:19:20|40=2|59=0|44=450|48=US3390411052|22=4|15=EUR|207=XETR|1=bram_123|10=249|
2024-07-24 17:19:20.140 [35] [FixSender] (DEBUG) Receiving 8=FIX.4.4|9=239|35=8|34=210|49=DMA_HUB|56=FIXCLIENT1|52=20240724-15:19:20.140|11=HS_172183436011|37=FXOffYxLU|54=1|40=2|59=0|17=20240724124|150=A|39=A|38=2289|151=2289|14=0|6=0|44=450|60=20240724-15:19:20.000|22=4|48=US3390411052|207=XETR|15=EUR|55=[N/A]|10=023|
2024-07-24 17:19:20.864 [66] [FixSender] (DEBUG) Sending 8=FIX.4.4|9=195|35=D|49=FIXCLIENT1|56=DMA_HUB|34=140|52=20240724-15:19:20|21=1|11=HS_172183436012|38=2299|55=E:07G@XETR|54=1|60=20240724-15:19:20|40=2|59=0|44=450|48=US3390411052|22=4|15=EUR|207=XETR|1=bram_123|10=243|
2024-07-24 17:19:20.865 [35] [FixSender] (DEBUG) Receiving 8=FIX.4.4|9=239|35=8|34=211|49=DMA_HUB|56=FIXCLIENT1|52=20240724-15:19:20.865|11=HS_172183436012|37=FXPffYxLU|54=1|40=2|59=0|17=20240724125|150=A|39=A|38=2299|151=2299|14=0|6=0|44=450|60=20240724-15:19:20.000|22=4|48=US3390411052|207=XETR|15=EUR|55=[N/A]|10=043|
2024-07-24 17:19:20.978 [67] [FixSender] (DEBUG) Sending 8=FIX.4.4|9=194|35=D|49=FIXCLIENT1|56=DMA_HUB|34=141|52=20240724-15:19:20|21=1|11=HS_172183436013|38=104|55=E:07G@XETR|54=1|60=20240724-15:19:20|40=2|59=0|44=450|48=US3390411052|22=4|15=EUR|207=XETR|1=bram_123|10=179|
2024-07-24 17:19:20.980 [35] [FixSender] (DEBUG) Receiving 8=FIX.4.4|9=237|35=8|34=212|49=DMA_HUB|56=FIXCLIENT1|52=20240724-15:19:20.979|11=HS_172183436013|37=FXQffYxLU|54=1|40=2|59=0|17=20240724126|150=A|39=A|38=104|151=104|14=0|6=0|44=450|60=20240724-15:19:20.000|22=4|48=US3390411052|207=XETR|15=EUR|55=[N/A]|10=177|
2024-07-24 17:19:21.101 [68] [FixSender] (DEBUG) Sending 8=FIX.4.4|9=195|35=D|49=FIXCLIENT1|56=DMA_HUB|34=142|52=20240724-15:19:21|21=1|11=HS_172183436114|38=3387|55=E:07G@XETR|54=1|60=20240724-15:19:21|40=2|59=0|44=450|48=US3390411052|22=4|15=EUR|207=XETR|1=bram_123|10=249|
2024-07-24 17:19:21.102 [35] [FixSender] (DEBUG) Receiving 8=FIX.4.4|9=239|35=8|34=213|49=DMA_HUB|56=FIXCLIENT1|52=20240724-15:19:21.102|11=HS_172183436114|37=FXRffYxLU|54=1|40=2|59=0|17=20240724127|150=A|39=A|38=3387|151=3387|14=0|6=0|44=450|60=20240724-15:19:21.000|22=4|48=US3390411052|207=XETR|15=EUR|55=[N/A]|10=036|
2024-07-24 17:19:21.246 [69] [FixSender] (DEBUG) Sending 8=FIX.4.4|9=195|35=D|49=FIXCLIENT1|56=DMA_HUB|34=143|52=20240724-15:19:21|21=1|11=HS_172183436115|38=4238|55=E:07G@XETR|54=1|60=20240724-15:19:21|40=2|59=0|44=450|48=US3390411052|22=4|15=EUR|207=XETR|1=bram_123|10=247|
2024-07-24 17:19:21.252 [35] [FixSender] (DEBUG) Receiving 8=FIX.4.4|9=239|35=8|34=214|49=DMA_HUB|56=FIXCLIENT1|52=20240724-15:19:21.247|11=HS_172183436115|37=FXSffYxLU|54=1|40=2|59=0|17=20240724128|150=A|39=A|38=4238|151=4238|14=0|6=0|44=450|60=20240724-15:19:21.000|22=4|48=US3390411052|207=XETR|15=EUR|55=[N/A]|10=042|
2024-07-24 17:19:21.354 [70] [FixSender] (DEBUG) Sending 8=FIX.4.4|9=195|35=D|49=FIXCLIENT1|56=DMA_HUB|34=144|52=20240724-15:19:21|21=1|11=HS_172183436116|38=4874|55=E:07G@XETR|54=1|60=20240724-15:19:21|40=2|59=0|44=450|48=US3390411052|22=4|15=EUR|207=XETR|1=bram_123|10=255|
2024-07-24 17:19:21.356 [35] [FixSender] (DEBUG) Receiving 8=FIX.4.4|9=239|35=8|34=215|49=DMA_HUB|56=FIXCLIENT1|52=20240724-15:19:21.355|11=HS_172183436116|37=FXTffYxLU|54=1|40=2|59=0|17=20240724129|150=A|39=A|38=4874|151=4874|14=0|6=0|44=450|60=20240724-15:19:21.000|22=4|48=US3390411052|207=XETR|15=EUR|55=[N/A]|10=058|
2024-07-24 17:19:28.464 [35] [FixSender] (DEBUG) Receiving 8=FIX.4.4|9=62|35=0|34=216|49=DMA_HUB|56=FIXCLIENT1|52=20240724-15:19:28.464|10=048|
2024-07-24 17:19:28.778 [71] [FixSender] (DEBUG) Sending 8=FIX.4.4|9=195|35=D|49=FIXCLIENT1|56=DMA_HUB|34=145|52=20240724-15:19:28|21=1|11=HS_172183436817|38=1703|55=E:07G@XETR|54=1|60=20240724-15:19:28|40=2|59=0|44=500|48=US3390411052|22=4|15=EUR|207=XETR|1=bram_123|10=006|
2024-07-24 17:19:28.780 [35] [FixSender] (DEBUG) Receiving 8=FIX.4.4|9=239|35=8|34=217|49=DMA_HUB|56=FIXCLIENT1|52=20240724-15:19:28.779|11=HS_172183436817|37=FXUffYxLU|54=1|40=2|59=0|17=20240724130|150=A|39=A|38=1703|151=1703|14=0|6=0|44=500|60=20240724-15:19:28.000|22=4|48=US3390411052|207=XETR|15=EUR|55=[N/A]|10=057|
2024-07-24 17:19:28.782 [35] [FixSender] (DEBUG) Receiving 8=FIX.4.4|9=254|35=8|34=218|49=DMA_HUB|56=FIXCLIENT1|52=20240724-15:19:28.782|11=HS_172183436817|37=FXUffYxLU|198=pZ0zr4aa94|54=1|40=2|59=0|17=20240724131|150=0|39=0|38=1703|151=1703|14=0|6=0|44=500|60=20240724-15:19:28.781|22=4|48=US3390411052|207=XETR|15=EUR|55=[N/A]|10=073|
2024-07-24 17:19:28.784 [35] [FixSender] (DEBUG) Receiving 8=FIX.4.4|9=316|35=8|34=219|49=DMA_HUB|56=FIXCLIENT1|52=20240724-15:19:28.784|11=HS_172183436817|37=FXUffYxLU|198=pZ0zr4aa94|54=1|32=1703|31=119|17=20240724132|527=BpZ0zr12|150=F|39=2|38=1703|151=0|14=1703|6=119|44=500|60=20240724-15:19:28.781|22=4|48=US3390411052|207=XETR|15=EUR|55=[N/A]|453=1|448=strmrepl|447=D|452=17|40=2|59=0|10=165|
2024-07-24 17:19:29.412 [72] [FixSender] (DEBUG) Sending 8=FIX.4.4|9=195|35=D|49=FIXCLIENT1|56=DMA_HUB|34=146|52=20240724-15:19:29|21=1|11=HS_172183436918|38=3498|55=E:07G@XETR|54=1|60=20240724-15:19:29|40=2|59=0|44=500|48=US3390411052|22=4|15=EUR|207=XETR|1=bram_123|10=024|
2024-07-24 17:19:29.414 [35] [FixSender] (DEBUG) Receiving 8=FIX.4.4|9=239|35=8|34=220|49=DMA_HUB|56=FIXCLIENT1|52=20240724-15:19:29.413|11=HS_172183436918|37=FXVffYxLU|54=1|40=2|59=0|17=20240724133|150=A|39=A|38=3498|151=3498|14=0|6=0|44=500|60=20240724-15:19:29.000|22=4|48=US3390411052|207=XETR|15=EUR|55=[N/A]|10=070|
2024-07-24 17:19:29.417 [35] [FixSender] (DEBUG) Receiving 8=FIX.4.4|9=254|35=8|34=221|49=DMA_HUB|56=FIXCLIENT1|52=20240724-15:19:29.416|11=HS_172183436918|37=FXVffYxLU|198=pZ0zr4abc2|54=1|40=2|59=0|17=20240724134|150=0|39=0|38=3498|151=3498|14=0|6=0|44=500|60=20240724-15:19:29.415|22=4|48=US3390411052|207=XETR|15=EUR|55=[N/A]|10=130|
2024-07-24 17:19:29.418 [35] [FixSender] (DEBUG) Receiving 8=FIX.4.4|9=316|35=8|34=222|49=DMA_HUB|56=FIXCLIENT1|52=20240724-15:19:29.418|11=HS_172183436918|37=FXVffYxLU|198=pZ0zr4abc2|54=1|32=3498|31=119|17=20240724135|527=BpZ0zr13|150=F|39=2|38=3498|151=0|14=3498|6=119|44=500|60=20240724-15:19:29.415|22=4|48=US3390411052|207=XETR|15=EUR|55=[N/A]|453=1|448=strmrepl|447=D|452=17|40=2|59=0|10=236|
